{
  "contractName": "CouponMarket",
  "abi": [
    {
      "inputs": [],
      "stateMutability": "nonpayable",
      "type": "constructor"
    },
    {
      "anonymous": false,
      "inputs": [
        {
          "indexed": false,
          "internalType": "address",
          "name": "operator",
          "type": "address"
        },
        {
          "indexed": false,
          "internalType": "address",
          "name": "from",
          "type": "address"
        },
        {
          "indexed": false,
          "internalType": "uint256",
          "name": "id",
          "type": "uint256"
        },
        {
          "indexed": false,
          "internalType": "uint256",
          "name": "value",
          "type": "uint256"
        },
        {
          "indexed": false,
          "internalType": "bytes",
          "name": "data",
          "type": "bytes"
        },
        {
          "indexed": false,
          "internalType": "uint256",
          "name": "gas",
          "type": "uint256"
        }
      ],
      "name": "Received",
      "type": "event"
    },
    {
      "anonymous": false,
      "inputs": [
        {
          "indexed": true,
          "internalType": "address",
          "name": "operator",
          "type": "address"
        },
        {
          "indexed": true,
          "internalType": "address",
          "name": "from",
          "type": "address"
        },
        {
          "indexed": true,
          "internalType": "address",
          "name": "to",
          "type": "address"
        },
        {
          "indexed": false,
          "internalType": "uint256",
          "name": "id",
          "type": "uint256"
        },
        {
          "indexed": false,
          "internalType": "uint256",
          "name": "value",
          "type": "uint256"
        }
      ],
      "name": "TransferSingle",
      "type": "event"
    },
    {
      "inputs": [
        {
          "internalType": "address",
          "name": "account",
          "type": "address"
        },
        {
          "internalType": "uint256",
          "name": "id",
          "type": "uint256"
        }
      ],
      "name": "balanceOf",
      "outputs": [
        {
          "internalType": "uint256",
          "name": "",
          "type": "uint256"
        }
      ],
      "stateMutability": "view",
      "type": "function",
      "constant": true
    },
    {
      "inputs": [
        {
          "internalType": "address",
          "name": "from",
          "type": "address"
        },
        {
          "internalType": "address",
          "name": "to",
          "type": "address"
        },
        {
          "internalType": "uint256",
          "name": "id",
          "type": "uint256"
        },
        {
          "internalType": "uint256",
          "name": "amount",
          "type": "uint256"
        },
        {
          "internalType": "bytes",
          "name": "data",
          "type": "bytes"
        }
      ],
      "name": "safeTransferFrom",
      "outputs": [],
      "stateMutability": "nonpayable",
      "type": "function"
    },
    {
      "inputs": [
        {
          "internalType": "uint256",
          "name": "discount",
          "type": "uint256"
        },
        {
          "internalType": "uint256",
          "name": "amount",
          "type": "uint256"
        }
      ],
      "name": "CouponMint",
      "outputs": [],
      "stateMutability": "nonpayable",
      "type": "function"
    },
    {
      "inputs": [
        {
          "internalType": "address",
          "name": "addr",
          "type": "address"
        }
      ],
      "name": "setServerAddr",
      "outputs": [
        {
          "internalType": "address",
          "name": "",
          "type": "address"
        }
      ],
      "stateMutability": "nonpayable",
      "type": "function"
    },
    {
      "inputs": [],
      "name": "serverAddr",
      "outputs": [
        {
          "internalType": "address",
          "name": "",
          "type": "address"
        }
      ],
      "stateMutability": "view",
      "type": "function",
      "constant": true
    },
    {
      "inputs": [
        {
          "internalType": "uint256",
          "name": "discount",
          "type": "uint256"
        }
      ],
      "name": "StocksByDiscount",
      "outputs": [
        {
          "internalType": "uint256",
          "name": "",
          "type": "uint256"
        }
      ],
      "stateMutability": "view",
      "type": "function",
      "constant": true
    },
    {
      "inputs": [],
      "name": "AllStocks",
      "outputs": [
        {
          "internalType": "uint256[]",
          "name": "",
          "type": "uint256[]"
        },
        {
          "internalType": "uint256[]",
          "name": "",
          "type": "uint256[]"
        }
      ],
      "stateMutability": "view",
      "type": "function",
      "constant": true
    },
    {
      "inputs": [],
      "name": "HowMuchKindsOfCoupons",
      "outputs": [
        {
          "internalType": "uint256",
          "name": "",
          "type": "uint256"
        }
      ],
      "stateMutability": "view",
      "type": "function",
      "constant": true
    },
    {
      "inputs": [],
      "name": "KindsOfCoupons",
      "outputs": [
        {
          "internalType": "uint256[]",
          "name": "",
          "type": "uint256[]"
        }
      ],
      "stateMutability": "view",
      "type": "function",
      "constant": true
    },
    {
      "inputs": [
        {
          "internalType": "address",
          "name": "account",
          "type": "address"
        }
      ],
      "name": "stocksByAccount",
      "outputs": [
        {
          "internalType": "uint256[]",
          "name": "",
          "type": "uint256[]"
        },
        {
          "internalType": "uint256[]",
          "name": "",
          "type": "uint256[]"
        }
      ],
      "stateMutability": "view",
      "type": "function",
      "constant": true
    },
    {
      "inputs": [
        {
          "internalType": "uint256",
          "name": "discount",
          "type": "uint256"
        },
        {
          "internalType": "uint256",
          "name": "amount",
          "type": "uint256"
        },
        {
          "internalType": "uint256",
          "name": "price",
          "type": "uint256"
        },
        {
          "internalType": "address",
          "name": "TokenContractAddr",
          "type": "address"
        }
      ],
      "name": "buyCoupon",
      "outputs": [
        {
          "internalType": "bool",
          "name": "",
          "type": "bool"
        }
      ],
      "stateMutability": "payable",
      "type": "function",
      "payable": true
    }
  ],
  "bytecode": "0x60806040523480156200001157600080fd5b5033600260006101000a81548173ffffffffffffffffffffffffffffffffffffffff021916908373ffffffffffffffffffffffffffffffffffffffff1602179055506200006760016064620000d060201b60201c565b6200007b60026032620000d060201b60201c565b6200008f60036021620000d060201b60201c565b620000a360056014620000d060201b60201c565b620000b6600a80620000d060201b60201c565b620000ca60146005620000d060201b60201c565b62000d84565b600260009054906101000a900473ffffffffffffffffffffffffffffffffffffffff1673ffffffffffffffffffffffffffffffffffffffff163373ffffffffffffffffffffffffffffffffffffffff1614806200015857503073ffffffffffffffffffffffffffffffffffffffff163373ffffffffffffffffffffffffffffffffffffffff16145b6200019a576040517f08c379a0000000000000000000000000000000000000000000000000000000008152600401620001919062000703565b60405180910390fd5b620001bd30838360405180602001604052806000815250620001f960201b60201c565b806003600084815260200190815260200160002054620001de91906200075e565b60036000848152602001908152602001600020819055505050565b600073ffffffffffffffffffffffffffffffffffffffff168473ffffffffffffffffffffffffffffffffffffffff1614156200026c576040517f08c379a0000000000000000000000000000000000000000000000000000000008152600401620002639062000831565b60405180910390fd5b60006200027e620003e160201b60201c565b905060006200029385620003e960201b60201c565b90506000620002a885620003e960201b60201c565b9050620002c1836000898585896200046a60201b60201c565b8460008088815260200190815260200160002060008973ffffffffffffffffffffffffffffffffffffffff1673ffffffffffffffffffffffffffffffffffffffff16815260200190815260200160002060008282546200032291906200075e565b925050819055508673ffffffffffffffffffffffffffffffffffffffff16600073ffffffffffffffffffffffffffffffffffffffff168473ffffffffffffffffffffffffffffffffffffffff167fc3d58168c5ae7397731d063d5bbf3d657854427343f4c083240f7aacaa2d0f628989604051620003a292919062000864565b60405180910390a4620003c1836000898585896200047260201b60201c565b620003d8836000898989896200047a60201b60201c565b50505050505050565b600033905090565b60606000600167ffffffffffffffff8111156200040b576200040a62000891565b5b6040519080825280602002602001820160405280156200043a5781602001602082028036833780820191505090505b5090508281600081518110620004555762000454620008c0565b5b60200260200101818152505080915050919050565b505050505050565b505050505050565b6200048b846200065960201b60201c565b1562000651578373ffffffffffffffffffffffffffffffffffffffff1663f23a6e6187878686866040518663ffffffff1660e01b8152600401620004d4959493929190620009d8565b6020604051808303816000875af19250505080156200051357506040513d601f19601f8201168201806040525081019062000510919062000aa8565b60015b620005c5576200052262000ae7565b806308c379a014156200058657506200053a62000b42565b8062000547575062000588565b806040517f08c379a00000000000000000000000000000000000000000000000000000000081526004016200057d919062000c30565b60405180910390fd5b505b6040517f08c379a0000000000000000000000000000000000000000000000000000000008152600401620005bc9062000cca565b60405180910390fd5b63f23a6e6160e01b7bffffffffffffffffffffffffffffffffffffffffffffffffffffffff1916817bffffffffffffffffffffffffffffffffffffffffffffffffffffffff1916146200064f576040517f08c379a0000000000000000000000000000000000000000000000000000000008152600401620006469062000d62565b60405180910390fd5b505b505050505050565b6000808273ffffffffffffffffffffffffffffffffffffffff163b119050919050565b600082825260208201905092915050565b7f746869732046756e6374696f6e206973206f6e6c792063616c6c65642062792060008201527f7365727665720000000000000000000000000000000000000000000000000000602082015250565b6000620006eb6026836200067c565b9150620006f8826200068d565b604082019050919050565b600060208201905081810360008301526200071e81620006dc565b9050919050565b6000819050919050565b7f4e487b7100000000000000000000000000000000000000000000000000000000600052601160045260246000fd5b60006200076b8262000725565b9150620007788362000725565b9250827fffffffffffffffffffffffffffffffffffffffffffffffffffffffffffffffff03821115620007b057620007af6200072f565b5b828201905092915050565b7f455243313135353a206d696e7420746f20746865207a65726f2061646472657360008201527f7300000000000000000000000000000000000000000000000000000000000000602082015250565b6000620008196021836200067c565b91506200082682620007bb565b604082019050919050565b600060208201905081810360008301526200084c816200080a565b9050919050565b6200085e8162000725565b82525050565b60006040820190506200087b600083018562000853565b6200088a602083018462000853565b9392505050565b7f4e487b7100000000000000000000000000000000000000000000000000000000600052604160045260246000fd5b7f4e487b7100000000000000000000000000000000000000000000000000000000600052603260045260246000fd5b600073ffffffffffffffffffffffffffffffffffffffff82169050919050565b60006200091c82620008ef565b9050919050565b6200092e816200090f565b82525050565b600081519050919050565b600082825260208201905092915050565b60005b838110156200097057808201518184015260208101905062000953565b8381111562000980576000848401525b50505050565b6000601f19601f8301169050919050565b6000620009a48262000934565b620009b081856200093f565b9350620009c281856020860162000950565b620009cd8162000986565b840191505092915050565b600060a082019050620009ef600083018862000923565b620009fe602083018762000923565b62000a0d604083018662000853565b62000a1c606083018562000853565b818103608083015262000a30818462000997565b90509695505050505050565b6000604051905090565b600080fd5b60007fffffffff0000000000000000000000000000000000000000000000000000000082169050919050565b62000a828162000a4b565b811462000a8e57600080fd5b50565b60008151905062000aa28162000a77565b92915050565b60006020828403121562000ac15762000ac062000a46565b5b600062000ad18482850162000a91565b91505092915050565b60008160e01c9050919050565b600060033d111562000b095760046000803e62000b0660005162000ada565b90505b90565b62000b178262000986565b810181811067ffffffffffffffff8211171562000b395762000b3862000891565b5b80604052505050565b600060443d101562000b545762000be1565b62000b5e62000a3c565b60043d036004823e80513d602482011167ffffffffffffffff8211171562000b8857505062000be1565b808201805167ffffffffffffffff81111562000ba8575050505062000be1565b80602083010160043d03850181111562000bc757505050505062000be1565b62000bd88260200185018662000b0c565b82955050505050505b90565b600081519050919050565b600062000bfc8262000be4565b62000c0881856200067c565b935062000c1a81856020860162000950565b62000c258162000986565b840191505092915050565b6000602082019050818103600083015262000c4c818462000bef565b905092915050565b7f455243313135353a207472616e7366657220746f206e6f6e204552433131353560008201527f526563656976657220696d706c656d656e746572000000000000000000000000602082015250565b600062000cb26034836200067c565b915062000cbf8262000c54565b604082019050919050565b6000602082019050818103600083015262000ce58162000ca3565b9050919050565b7f455243313135353a204552433131353552656365697665722072656a6563746560008201527f6420746f6b656e73000000000000000000000000000000000000000000000000602082015250565b600062000d4a6028836200067c565b915062000d578262000cec565b604082019050919050565b6000602082019050818103600083015262000d7d8162000d3b565b9050919050565b6121878062000d946000396000f3fe60806040526004361061009b5760003560e01c806359bc9c291161006457806359bc9c291461018d5780639bb7e310146101ca578063dbaa860514610207578063e920730414610245578063ef3975fd14610270578063f242432a1461029b5761009b565b8062fdd58e146100a057806322a22ec3146100dd578063242fd022146101085780633adaa53d1461013857806357e8757514610164575b600080fd5b3480156100ac57600080fd5b506100c760048036038101906100c29190611375565b6102c4565b6040516100d491906113c4565b60405180910390f35b3480156100e957600080fd5b506100f261038d565b6040516100ff91906113c4565b60405180910390f35b610122600480360381019061011d91906113df565b610407565b60405161012f9190611461565b60405180910390f35b34801561014457600080fd5b5061014d610504565b60405161015b92919061153a565b60405180910390f35b34801561017057600080fd5b5061018b60048036038101906101869190611571565b61066d565b005b34801561019957600080fd5b506101b460048036038101906101af91906115b1565b610788565b6040516101c191906113c4565b60405180910390f35b3480156101d657600080fd5b506101f160048036038101906101ec91906115de565b6107a5565b6040516101fe919061161a565b60405180910390f35b34801561021357600080fd5b5061022e600480360381019061022991906115de565b6108a2565b60405161023c92919061153a565b60405180910390f35b34801561025157600080fd5b5061025a610a11565b604051610267919061161a565b60405180910390f35b34801561027c57600080fd5b50610285610a3b565b6040516102929190611635565b60405180910390f35b3480156102a757600080fd5b506102c260048036038101906102bd919061179d565b610b10565b005b60008073ffffffffffffffffffffffffffffffffffffffff168373ffffffffffffffffffffffffffffffffffffffff161415610335576040517f08c379a000000000000000000000000000000000000000000000000000000000815260040161032c906118b7565b60405180910390fd5b60008083815260200190815260200160002060008473ffffffffffffffffffffffffffffffffffffffff1673ffffffffffffffffffffffffffffffffffffffff16815260200190815260200160002054905092915050565b6000806000905060005b606481116103ff576000600360008381526020019081526020016000205414156103c0576103ec565b60006003600083815260200190815260200160002054146103eb576001826103e89190611906565b91505b5b80806103f79061195c565b915050610397565b508091505090565b60008173ffffffffffffffffffffffffffffffffffffffff1663e12163d633600260009054906101000a900473ffffffffffffffffffffffffffffffffffffffff16866040518463ffffffff1660e01b8152600401610468939291906119a5565b6020604051808303816000875af1158015610487573d6000803e3d6000fd5b505050506040513d601f19601f820116820180604052508101906104ab9190611a08565b506104ee303387876040518060400160405280600481526020017f3078303000000000000000000000000000000000000000000000000000000000815250610b10565b6104f88585610bcf565b60019050949350505050565b606080600061051161038d565b9050600061051d610a3b565b905060008267ffffffffffffffff81111561053b5761053a611672565b5b6040519080825280602002602001820160405280156105695781602001602082028036833780820191505090505b50905060008367ffffffffffffffff81111561058857610587611672565b5b6040519080825280602002602001820160405280156105b65781602001602082028036833780820191505090505b50905060005b8481101561065e578381815181106105d7576105d6611a35565b5b60200260200101518382815181106105f2576105f1611a35565b5b6020026020010181815250506003600085838151811061061557610614611a35565b5b602002602001015181526020019081526020016000205482828151811061063f5761063e611a35565b5b60200260200101818152505080806106569061195c565b9150506105bc565b50818195509550505050509091565b600260009054906101000a900473ffffffffffffffffffffffffffffffffffffffff1673ffffffffffffffffffffffffffffffffffffffff163373ffffffffffffffffffffffffffffffffffffffff1614806106f457503073ffffffffffffffffffffffffffffffffffffffff163373ffffffffffffffffffffffffffffffffffffffff16145b610733576040517f08c379a000000000000000000000000000000000000000000000000000000000815260040161072a90611ad6565b60405180910390fd5b61074e30838360405180602001604052806000815250610c09565b80600360008481526020019081526020016000205461076d9190611906565b60036000848152602001908152602001600020819055505050565b600060036000838152602001908152602001600020549050919050565b6000600260009054906101000a900473ffffffffffffffffffffffffffffffffffffffff1673ffffffffffffffffffffffffffffffffffffffff163373ffffffffffffffffffffffffffffffffffffffff1614610837576040517f08c379a000000000000000000000000000000000000000000000000000000000815260040161082e90611ad6565b60405180910390fd5b81600260006101000a81548173ffffffffffffffffffffffffffffffffffffffff021916908373ffffffffffffffffffffffffffffffffffffffff160217905550600260009054906101000a900473ffffffffffffffffffffffffffffffffffffffff169050919050565b60608060006108af61038d565b905060006108bb610a3b565b905060008267ffffffffffffffff8111156108d9576108d8611672565b5b6040519080825280602002602001820160405280156109075781602001602082028036833780820191505090505b50905060008367ffffffffffffffff81111561092657610925611672565b5b6040519080825280602002602001820160405280156109545781602001602082028036833780820191505090505b50905060005b84811015610a015760006109888986848151811061097b5761097a611a35565b5b60200260200101516102c4565b9050600081146109ed578482815181106109a5576109a4611a35565b5b60200260200101518483815181106109c0576109bf611a35565b5b602002602001018181525050808383815181106109e0576109df611a35565b5b6020026020010181815250505b5080806109f99061195c565b91505061095a565b5081819550955050505050915091565b6000600260009054906101000a900473ffffffffffffffffffffffffffffffffffffffff16905090565b60606000610a4761038d565b90506000808267ffffffffffffffff811115610a6657610a65611672565b5b604051908082528060200260200182016040528015610a945781602001602082028036833780820191505090505b50905060005b60648111610b0657600060036000838152602001908152602001600020541415610ac357610af3565b80828481518110610ad757610ad6611a35565b5b602002602001018181525050600183610af09190611906565b92505b8080610afe9061195c565b915050610a9a565b5080935050505090565b610b18610dba565b73ffffffffffffffffffffffffffffffffffffffff168573ffffffffffffffffffffffffffffffffffffffff161480610b7c57503073ffffffffffffffffffffffffffffffffffffffff168573ffffffffffffffffffffffffffffffffffffffff16145b610bbb576040517f08c379a0000000000000000000000000000000000000000000000000000000008152600401610bb290611b68565b60405180910390fd5b610bc88585858585610dc2565b5050505050565b806003600084815260200190815260200160002054610bee9190611b88565b60036000848152602001908152602001600020819055505050565b600073ffffffffffffffffffffffffffffffffffffffff168473ffffffffffffffffffffffffffffffffffffffff161415610c79576040517f08c379a0000000000000000000000000000000000000000000000000000000008152600401610c7090611c2e565b60405180910390fd5b6000610c83610dba565b90506000610c908561105e565b90506000610c9d8561105e565b9050610cae836000898585896110d8565b8460008088815260200190815260200160002060008973ffffffffffffffffffffffffffffffffffffffff1673ffffffffffffffffffffffffffffffffffffffff1681526020019081526020016000206000828254610d0d9190611906565b925050819055508673ffffffffffffffffffffffffffffffffffffffff16600073ffffffffffffffffffffffffffffffffffffffff168473ffffffffffffffffffffffffffffffffffffffff167fc3d58168c5ae7397731d063d5bbf3d657854427343f4c083240f7aacaa2d0f628989604051610d8b929190611c4e565b60405180910390a4610da2836000898585896110e0565b610db1836000898989896110e8565b50505050505050565b600033905090565b600073ffffffffffffffffffffffffffffffffffffffff168473ffffffffffffffffffffffffffffffffffffffff161415610e32576040517f08c379a0000000000000000000000000000000000000000000000000000000008152600401610e2990611ce9565b60405180910390fd5b6000610e3c610dba565b90506000610e498561105e565b90506000610e568561105e565b9050610e668389898585896110d8565b600080600088815260200190815260200160002060008a73ffffffffffffffffffffffffffffffffffffffff1673ffffffffffffffffffffffffffffffffffffffff16815260200190815260200160002054905085811015610efd576040517f08c379a0000000000000000000000000000000000000000000000000000000008152600401610ef490611d7b565b60405180910390fd5b85810360008089815260200190815260200160002060008b73ffffffffffffffffffffffffffffffffffffffff1673ffffffffffffffffffffffffffffffffffffffff168152602001908152602001600020819055508560008089815260200190815260200160002060008a73ffffffffffffffffffffffffffffffffffffffff1673ffffffffffffffffffffffffffffffffffffffff1681526020019081526020016000206000828254610fb29190611906565b925050819055508773ffffffffffffffffffffffffffffffffffffffff168973ffffffffffffffffffffffffffffffffffffffff168573ffffffffffffffffffffffffffffffffffffffff167fc3d58168c5ae7397731d063d5bbf3d657854427343f4c083240f7aacaa2d0f628a8a60405161102f929190611c4e565b60405180910390a4611045848a8a86868a6110e0565b611053848a8a8a8a8a6110e8565b505050505050505050565b60606000600167ffffffffffffffff81111561107d5761107c611672565b5b6040519080825280602002602001820160405280156110ab5781602001602082028036833780820191505090505b50905082816000815181106110c3576110c2611a35565b5b60200260200101818152505080915050919050565b505050505050565b505050505050565b6110f1846112aa565b156112a2578373ffffffffffffffffffffffffffffffffffffffff1663f23a6e6187878686866040518663ffffffff1660e01b8152600401611137959493929190611e23565b6020604051808303816000875af192505050801561117357506040513d601f19601f820116820180604052508101906111709190611ed5565b60015b6112195761117f611f0f565b806308c379a014156111dc5750611194611f31565b8061119f57506111de565b806040517f08c379a00000000000000000000000000000000000000000000000000000000081526004016111d3919061200b565b60405180910390fd5b505b6040517f08c379a00000000000000000000000000000000000000000000000000000000081526004016112109061209f565b60405180910390fd5b63f23a6e6160e01b7bffffffffffffffffffffffffffffffffffffffffffffffffffffffff1916817bffffffffffffffffffffffffffffffffffffffffffffffffffffffff1916146112a0576040517f08c379a000000000000000000000000000000000000000000000000000000000815260040161129790612131565b60405180910390fd5b505b505050505050565b6000808273ffffffffffffffffffffffffffffffffffffffff163b119050919050565b6000604051905090565b600080fd5b600080fd5b600073ffffffffffffffffffffffffffffffffffffffff82169050919050565b600061130c826112e1565b9050919050565b61131c81611301565b811461132757600080fd5b50565b60008135905061133981611313565b92915050565b6000819050919050565b6113528161133f565b811461135d57600080fd5b50565b60008135905061136f81611349565b92915050565b6000806040838503121561138c5761138b6112d7565b5b600061139a8582860161132a565b92505060206113ab85828601611360565b9150509250929050565b6113be8161133f565b82525050565b60006020820190506113d960008301846113b5565b92915050565b600080600080608085870312156113f9576113f86112d7565b5b600061140787828801611360565b945050602061141887828801611360565b935050604061142987828801611360565b925050606061143a8782880161132a565b91505092959194509250565b60008115159050919050565b61145b81611446565b82525050565b60006020820190506114766000830184611452565b92915050565b600081519050919050565b600082825260208201905092915050565b6000819050602082019050919050565b6114b18161133f565b82525050565b60006114c383836114a8565b60208301905092915050565b6000602082019050919050565b60006114e78261147c565b6114f18185611487565b93506114fc83611498565b8060005b8381101561152d57815161151488826114b7565b975061151f836114cf565b925050600181019050611500565b5085935050505092915050565b6000604082019050818103600083015261155481856114dc565b9050818103602083015261156881846114dc565b90509392505050565b60008060408385031215611588576115876112d7565b5b600061159685828601611360565b92505060206115a785828601611360565b9150509250929050565b6000602082840312156115c7576115c66112d7565b5b60006115d584828501611360565b91505092915050565b6000602082840312156115f4576115f36112d7565b5b60006116028482850161132a565b91505092915050565b61161481611301565b82525050565b600060208201905061162f600083018461160b565b92915050565b6000602082019050818103600083015261164f81846114dc565b905092915050565b600080fd5b600080fd5b6000601f19601f8301169050919050565b7f4e487b7100000000000000000000000000000000000000000000000000000000600052604160045260246000fd5b6116aa82611661565b810181811067ffffffffffffffff821117156116c9576116c8611672565b5b80604052505050565b60006116dc6112cd565b90506116e882826116a1565b919050565b600067ffffffffffffffff82111561170857611707611672565b5b61171182611661565b9050602081019050919050565b82818337600083830152505050565b600061174061173b846116ed565b6116d2565b90508281526020810184848401111561175c5761175b61165c565b5b61176784828561171e565b509392505050565b600082601f83011261178457611783611657565b5b813561179484826020860161172d565b91505092915050565b600080600080600060a086880312156117b9576117b86112d7565b5b60006117c78882890161132a565b95505060206117d88882890161132a565b94505060406117e988828901611360565b93505060606117fa88828901611360565b925050608086013567ffffffffffffffff81111561181b5761181a6112dc565b5b6118278882890161176f565b9150509295509295909350565b600082825260208201905092915050565b7f455243313135353a2061646472657373207a65726f206973206e6f742061207660008201527f616c6964206f776e657200000000000000000000000000000000000000000000602082015250565b60006118a1602a83611834565b91506118ac82611845565b604082019050919050565b600060208201905081810360008301526118d081611894565b9050919050565b7f4e487b7100000000000000000000000000000000000000000000000000000000600052601160045260246000fd5b60006119118261133f565b915061191c8361133f565b9250827fffffffffffffffffffffffffffffffffffffffffffffffffffffffffffffffff03821115611951576119506118d7565b5b828201905092915050565b60006119678261133f565b91507fffffffffffffffffffffffffffffffffffffffffffffffffffffffffffffffff82141561199a576119996118d7565b5b600182019050919050565b60006060820190506119ba600083018661160b565b6119c7602083018561160b565b6119d460408301846113b5565b949350505050565b6119e581611446565b81146119f057600080fd5b50565b600081519050611a02816119dc565b92915050565b600060208284031215611a1e57611a1d6112d7565b5b6000611a2c848285016119f3565b91505092915050565b7f4e487b7100000000000000000000000000000000000000000000000000000000600052603260045260246000fd5b7f746869732046756e6374696f6e206973206f6e6c792063616c6c65642062792060008201527f7365727665720000000000000000000000000000000000000000000000000000602082015250565b6000611ac0602683611834565b9150611acb82611a64565b604082019050919050565b60006020820190508181036000830152611aef81611ab3565b9050919050565b7f455243313135353a2063616c6c6572206973206e6f7420746f6b656e206f776e60008201527f6572206e6f7220617070726f7665640000000000000000000000000000000000602082015250565b6000611b52602f83611834565b9150611b5d82611af6565b604082019050919050565b60006020820190508181036000830152611b8181611b45565b9050919050565b6000611b938261133f565b9150611b9e8361133f565b925082821015611bb157611bb06118d7565b5b828203905092915050565b7f455243313135353a206d696e7420746f20746865207a65726f2061646472657360008201527f7300000000000000000000000000000000000000000000000000000000000000602082015250565b6000611c18602183611834565b9150611c2382611bbc565b604082019050919050565b60006020820190508181036000830152611c4781611c0b565b9050919050565b6000604082019050611c6360008301856113b5565b611c7060208301846113b5565b9392505050565b7f455243313135353a207472616e7366657220746f20746865207a65726f20616460008201527f6472657373000000000000000000000000000000000000000000000000000000602082015250565b6000611cd3602583611834565b9150611cde82611c77565b604082019050919050565b60006020820190508181036000830152611d0281611cc6565b9050919050565b7f455243313135353a20696e73756666696369656e742062616c616e636520666f60008201527f72207472616e7366657200000000000000000000000000000000000000000000602082015250565b6000611d65602a83611834565b9150611d7082611d09565b604082019050919050565b60006020820190508181036000830152611d9481611d58565b9050919050565b600081519050919050565b600082825260208201905092915050565b60005b83811015611dd5578082015181840152602081019050611dba565b83811115611de4576000848401525b50505050565b6000611df582611d9b565b611dff8185611da6565b9350611e0f818560208601611db7565b611e1881611661565b840191505092915050565b600060a082019050611e38600083018861160b565b611e45602083018761160b565b611e5260408301866113b5565b611e5f60608301856113b5565b8181036080830152611e718184611dea565b90509695505050505050565b60007fffffffff0000000000000000000000000000000000000000000000000000000082169050919050565b611eb281611e7d565b8114611ebd57600080fd5b50565b600081519050611ecf81611ea9565b92915050565b600060208284031215611eeb57611eea6112d7565b5b6000611ef984828501611ec0565b91505092915050565b60008160e01c9050919050565b600060033d1115611f2e5760046000803e611f2b600051611f02565b90505b90565b600060443d1015611f4157611fc4565b611f496112cd565b60043d036004823e80513d602482011167ffffffffffffffff82111715611f71575050611fc4565b808201805167ffffffffffffffff811115611f8f5750505050611fc4565b80602083010160043d038501811115611fac575050505050611fc4565b611fbb826020018501866116a1565b82955050505050505b90565b600081519050919050565b6000611fdd82611fc7565b611fe78185611834565b9350611ff7818560208601611db7565b61200081611661565b840191505092915050565b600060208201905081810360008301526120258184611fd2565b905092915050565b7f455243313135353a207472616e7366657220746f206e6f6e204552433131353560008201527f526563656976657220696d706c656d656e746572000000000000000000000000602082015250565b6000612089603483611834565b91506120948261202d565b604082019050919050565b600060208201905081810360008301526120b88161207c565b9050919050565b7f455243313135353a204552433131353552656365697665722072656a6563746560008201527f6420746f6b656e73000000000000000000000000000000000000000000000000602082015250565b600061211b602883611834565b9150612126826120bf565b604082019050919050565b6000602082019050818103600083015261214a8161210e565b905091905056fea2646970667358221220aa7c1c1ba4d014b94d714383cba4aadb061cf16885f41280d7beb12c0a4c632a64736f6c634300080a0033",
  "immutableReferences": {},
  "source": "// SPDX-License-Identifier: MIT\npragma solidity ^0.8.0;\n\nimport \"./ERC165.sol\";\n\n/**\n * @dev _Available since v3.1._\n */\ninterface IERC1155Receiver is IERC165 {\n    /**\n     * @dev Handles the receipt of a single ERC1155 token type. This function is\n     * called at the end of a `safeTransferFrom` after the balance has been updated.\n     *\n     * NOTE: To accept the transfer, this must return\n     * `bytes4(keccak256(\"onERC1155Received(address,address,uint256,uint256,bytes)\"))`\n     * (i.e. 0xf23a6e61, or its own function selector).\n     *\n     * @param operator The address which initiated the transfer (i.e. msg.sender)\n     * @param from The address which previously owned the token\n     * @param id The ID of the token being transferred\n     * @param value The amount of tokens being transferred\n     * @param data Additional data with no specified format\n     * @return `bytes4(keccak256(\"onERC1155Received(address,address,uint256,uint256,bytes)\"))` if transfer is allowed\n     */\n    function onERC1155Received(\n        address operator,\n        address from,\n        uint256 id,\n        uint256 value,\n        bytes calldata data\n    ) external returns (bytes4);\n}\n\ncontract ERC1155 {\n    // Mapping from token ID to account balances\n    mapping(uint256 => mapping(address => uint256)) private _balances;\n\n    // Mapping from account to operator approvals\n    mapping(address => mapping(address => bool)) private _operatorApprovals;\n\n    event TransferSingle(\n        address indexed operator,\n        address indexed from,\n        address indexed to,\n        uint256 id,\n        uint256 value\n    );\n\n    function isContract(address account) private view returns (bool) {\n        // This method relies on extcodesize/address.code.length, which returns 0\n        // for contracts in construction, since the code is only stored at the end\n        // of the constructor execution.\n\n        return account.code.length > 0;\n    }\n\n    function _msgSender() private view returns (address) {\n        return msg.sender;\n    }\n\n    /**\n     * @dev See {IERC1155-balanceOf}.\n     *\n     * Requirements:\n     *\n     * - `account` cannot be the zero address.\n     */\n    function balanceOf(address account, uint256 id)\n        public\n        view\n        virtual\n        returns (uint256)\n    {\n        require(\n            account != address(0),\n            \"ERC1155: address zero is not a valid owner\"\n        );\n        return _balances[id][account];\n    }\n\n    /**\n     * @dev See {IERC1155-safeTransferFrom}.\n     */\n    function safeTransferFrom(\n        address from,\n        address to,\n        uint256 id,\n        uint256 amount,\n        bytes memory data\n    ) public virtual {\n        require(\n            (from == _msgSender()) || (from == address(this)),\n            \"ERC1155: caller is not token owner nor approved\"\n        );\n        _safeTransferFrom(from, to, id, amount, data);\n    }\n\n    /**\n     * @dev Transfers `amount` tokens of token type `id` from `from` to `to`.\n     *\n     * Emits a {TransferSingle} event.\n     *\n     * Requirements:\n     *\n     * - `to` cannot be the zero address.\n     * - `from` must have a balance of tokens of type `id` of at least `amount`.\n     * - If `to` refers to a smart contract, it must implement {IERC1155Receiver-onERC1155Received} and return the\n     * acceptance magic value.\n     */\n    function _safeTransferFrom(\n        address from,\n        address to,\n        uint256 id,\n        uint256 amount,\n        bytes memory data\n    ) internal virtual {\n        require(to != address(0), \"ERC1155: transfer to the zero address\");\n\n        address operator = _msgSender();\n        uint256[] memory ids = _asSingletonArray(id);\n        uint256[] memory amounts = _asSingletonArray(amount);\n\n        _beforeTokenTransfer(operator, from, to, ids, amounts, data);\n\n        uint256 fromBalance = _balances[id][from];\n        require(\n            fromBalance >= amount,\n            \"ERC1155: insufficient balance for transfer\"\n        );\n        unchecked {\n            _balances[id][from] = fromBalance - amount;\n        }\n        _balances[id][to] += amount;\n\n        emit TransferSingle(operator, from, to, id, amount);\n\n        _afterTokenTransfer(operator, from, to, ids, amounts, data);\n\n        _doSafeTransferAcceptanceCheck(operator, from, to, id, amount, data);\n    }\n\n    /**\n     * @dev Creates `amount` tokens of token type `id`, and assigns them to `to`.\n     *\n     * Emits a {TransferSingle} event.\n     *\n     * Requirements:\n     *\n     * - `to` cannot be the zero address.\n     * - If `to` refers to a smart contract, it must implement {IERC1155Receiver-onERC1155Received} and return the\n     * acceptance magic value.\n     */\n    function _mint(\n        address to,\n        uint256 id,\n        uint256 amount,\n        bytes memory data\n    ) internal virtual {\n        require(to != address(0), \"ERC1155: mint to the zero address\");\n\n        address operator = _msgSender();\n        uint256[] memory ids = _asSingletonArray(id);\n        uint256[] memory amounts = _asSingletonArray(amount);\n\n        _beforeTokenTransfer(operator, address(0), to, ids, amounts, data);\n\n        _balances[id][to] += amount;\n        emit TransferSingle(operator, address(0), to, id, amount);\n\n        _afterTokenTransfer(operator, address(0), to, ids, amounts, data);\n\n        _doSafeTransferAcceptanceCheck(\n            operator,\n            address(0),\n            to,\n            id,\n            amount,\n            data\n        );\n    }\n\n    /**\n     * @dev Destroys `amount` tokens of token type `id` from `from`\n     *\n     * Emits a {TransferSingle} event.\n     *\n     * Requirements:\n     *\n     * - `from` cannot be the zero address.\n     * - `from` must have at least `amount` tokens of token type `id`.\n     */\n    function _burn(\n        address from,\n        uint256 id,\n        uint256 amount\n    ) internal virtual {\n        require(from != address(0), \"ERC1155: burn from the zero address\");\n\n        address operator = _msgSender();\n        uint256[] memory ids = _asSingletonArray(id);\n        uint256[] memory amounts = _asSingletonArray(amount);\n\n        _beforeTokenTransfer(operator, from, address(0), ids, amounts, \"\");\n\n        uint256 fromBalance = _balances[id][from];\n        require(fromBalance >= amount, \"ERC1155: burn amount exceeds balance\");\n        unchecked {\n            _balances[id][from] = fromBalance - amount;\n        }\n\n        emit TransferSingle(operator, from, address(0), id, amount);\n\n        _afterTokenTransfer(operator, from, address(0), ids, amounts, \"\");\n    }\n\n    /**\n     * @dev Hook that is called before any token transfer. This includes minting\n     * and burning, as well as batched variants.\n     *\n     * The same hook is called on both single and batched variants. For single\n     * transfers, the length of the `ids` and `amounts` arrays will be 1.\n     *\n     * Calling conditions (for each `id` and `amount` pair):\n     *\n     * - When `from` and `to` are both non-zero, `amount` of ``from``'s tokens\n     * of token type `id` will be  transferred to `to`.\n     * - When `from` is zero, `amount` tokens of token type `id` will be minted\n     * for `to`.\n     * - when `to` is zero, `amount` of ``from``'s tokens of token type `id`\n     * will be burned.\n     * - `from` and `to` are never both zero.\n     * - `ids` and `amounts` have the same, non-zero length.\n     *\n     * To learn more about hooks, head to xref:ROOT:extending-contracts.adoc#using-hooks[Using Hooks].\n     */\n    function _beforeTokenTransfer(\n        address operator,\n        address from,\n        address to,\n        uint256[] memory ids,\n        uint256[] memory amounts,\n        bytes memory data\n    ) internal virtual {}\n\n    /**\n     * @dev Hook that is called after any token transfer. This includes minting\n     * and burning, as well as batched variants.\n     *\n     * The same hook is called on both single and batched variants. For single\n     * transfers, the length of the `id` and `amount` arrays will be 1.\n     *\n     * Calling conditions (for each `id` and `amount` pair):\n     *\n     * - When `from` and `to` are both non-zero, `amount` of ``from``'s tokens\n     * of token type `id` will be  transferred to `to`.\n     * - When `from` is zero, `amount` tokens of token type `id` will be minted\n     * for `to`.\n     * - when `to` is zero, `amount` of ``from``'s tokens of token type `id`\n     * will be burned.\n     * - `from` and `to` are never both zero.\n     * - `ids` and `amounts` have the same, non-zero length.\n     *\n     * To learn more about hooks, head to xref:ROOT:extending-contracts.adoc#using-hooks[Using Hooks].\n     */\n    function _afterTokenTransfer(\n        address operator,\n        address from,\n        address to,\n        uint256[] memory ids,\n        uint256[] memory amounts,\n        bytes memory data\n    ) internal virtual {}\n\n    function _doSafeTransferAcceptanceCheck(\n        address operator,\n        address from,\n        address to,\n        uint256 id,\n        uint256 amount,\n        bytes memory data\n    ) private {\n        if (isContract(to)) {\n            try\n                IERC1155Receiver(to).onERC1155Received(\n                    operator,\n                    from,\n                    id,\n                    amount,\n                    data\n                )\n            returns (bytes4 response) {\n                if (response != IERC1155Receiver.onERC1155Received.selector) {\n                    revert(\"ERC1155: ERC1155Receiver rejected tokens\");\n                }\n            } catch Error(string memory reason) {\n                revert(reason);\n            } catch {\n                revert(\"ERC1155: transfer to non ERC1155Receiver implementer\");\n            }\n        }\n    }\n\n    function _asSingletonArray(uint256 element)\n        private\n        pure\n        returns (uint256[] memory)\n    {\n        uint256[] memory array = new uint256[](1);\n        array[0] = element;\n\n        return array;\n    }\n}\n\ninterface others {\n    function transferWithMarket(\n        address from,\n        address to,\n        uint256 amount\n    ) external returns (bool);\n}\n\ncontract CouponMarket is ERC1155 {\n    constructor() {\n        _serverAddr = msg.sender;\n        CouponMint(1, 100);\n        CouponMint(2, 50);\n        CouponMint(3, 33);\n        CouponMint(5, 20);\n        CouponMint(10, 10);\n        CouponMint(20, 5);\n    }\n\n    function CouponMint(uint256 discount, uint256 amount) public {\n        require(\n            (msg.sender == _serverAddr) || (msg.sender == address(this)),\n            \"this Function is only called by server\"\n        );\n        _mint(address(this), discount, amount, \"\");\n        _amount[discount] = _amount[discount] + amount;\n        // _safeTransferFrom(msg.sender, marketContract, discount, amount, \"\");\n    }\n\n    address private _serverAddr;\n    mapping(uint256 => uint256) private _amount;\n\n    event Received(\n        address operator,\n        address from,\n        uint256 id,\n        uint256 value,\n        bytes data,\n        uint256 gas\n    );\n\n    function setServerAddr(address addr) public returns (address) {\n        require(\n            msg.sender == _serverAddr,\n            \"this Function is only called by server\"\n        );\n        _serverAddr = addr;\n        return _serverAddr;\n    }\n\n    function serverAddr() public view returns (address) {\n        return _serverAddr;\n    }\n\n    function StocksByDiscount(uint256 discount) public view returns (uint256) {\n        return _amount[discount];\n    }\n\n    function AllStocks()\n        public\n        view\n        returns (uint256[] memory, uint256[] memory)\n    {\n        uint256 balance = HowMuchKindsOfCoupons();\n        uint256[] memory keys = KindsOfCoupons();\n        uint256[] memory discounts = new uint256[](balance);\n        uint256[] memory balances = new uint256[](balance);\n        for (uint256 i = 0; i < balance; i++) {\n            discounts[i] = keys[i];\n            balances[i] = _amount[keys[i]];\n        }\n        return (discounts, balances);\n    }\n\n    function HowMuchKindsOfCoupons() public view returns (uint256) {\n        uint256 res = 0;\n        for (uint256 i = 0; i <= 100; i++) {\n            if (_amount[i] == 0) {\n                continue;\n            }\n            if (_amount[i] != 0) {\n                res = res + 1;\n            }\n        }\n        return res;\n    }\n\n    function KindsOfCoupons() public view returns (uint256[] memory) {\n        uint256 balance = HowMuchKindsOfCoupons();\n        uint256 j = 0;\n        uint256[] memory res = new uint256[](balance);\n        for (uint256 i = 0; i <= 100; i++) {\n            if (_amount[i] == 0) {\n                continue;\n            }\n            res[j] = i;\n            j = j + 1;\n        }\n        return res;\n    }\n\n    function stocksByAccount(address account)\n        public\n        view\n        returns (uint256[] memory, uint256[] memory)\n    {\n        uint256 balance = HowMuchKindsOfCoupons();\n        uint256[] memory keys = KindsOfCoupons();\n        uint256[] memory discounts = new uint256[](balance);\n        uint256[] memory balances = new uint256[](balance);\n        for (uint256 i = 0; i < balance; i++) {\n            uint256 _balance = balanceOf(account, keys[i]);\n            if (_balance != 0) {\n                discounts[i] = keys[i];\n                balances[i] = _balance;\n            }\n        }\n        return (discounts, balances);\n    }\n\n    function buyCoupon(\n        uint256 discount,\n        uint256 amount,\n        uint256 price,\n        address TokenContractAddr\n    ) public payable returns (bool) {\n        // address payable receiver = payable(_seller[discount]);\n        // uint256 price = 70;\n        // receiver.transfer(price);\n\n        others(TokenContractAddr).transferWithMarket(\n            msg.sender,\n            _serverAddr,\n            price\n        );\n\n        safeTransferFrom(address(this), msg.sender, discount, amount, \"0x00\");\n        _reduceAmount(discount, amount);\n        return true;\n    }\n\n    function _reduceAmount(uint256 discount, uint256 amount) private {\n        _amount[discount] = _amount[discount] - amount;\n    }\n}\n",
  "sourcePath": "/Users/odongjae/Desktop/2022Study/codestates/project/beb-05-Bills/smart-contract/contracts/Coupon.sol",
  "compiler": {
    "name": "solc",
    "version": "0.8.10+commit.fc410830.Emscripten.clang"
  },
  "schemaVersion": "3.4.9",
  "updatedAt": "2022-08-26T04:35:42.245Z",
  "networkType": "ethereum",
  "devdoc": {
    "kind": "dev",
    "methods": {
      "balanceOf(address,uint256)": {
        "details": "See {IERC1155-balanceOf}. Requirements: - `account` cannot be the zero address."
      },
      "safeTransferFrom(address,address,uint256,uint256,bytes)": {
        "details": "See {IERC1155-safeTransferFrom}."
      }
    },
    "version": 1
  },
  "userdoc": {
    "kind": "user",
    "methods": {},
    "version": 1
  }
}