{
  "contractName": "Coupon",
  "abi": [
    {
      "inputs": [],
      "stateMutability": "nonpayable",
      "type": "constructor"
    },
    {
      "anonymous": false,
      "inputs": [
        {
          "indexed": true,
          "internalType": "address",
          "name": "account",
          "type": "address"
        },
        {
          "indexed": true,
          "internalType": "address",
          "name": "operator",
          "type": "address"
        },
        {
          "indexed": false,
          "internalType": "bool",
          "name": "approved",
          "type": "bool"
        }
      ],
      "name": "ApprovalForAll",
      "type": "event"
    },
    {
      "anonymous": false,
      "inputs": [
        {
          "indexed": true,
          "internalType": "address",
          "name": "operator",
          "type": "address"
        },
        {
          "indexed": true,
          "internalType": "address",
          "name": "from",
          "type": "address"
        },
        {
          "indexed": true,
          "internalType": "address",
          "name": "to",
          "type": "address"
        },
        {
          "indexed": false,
          "internalType": "uint256[]",
          "name": "ids",
          "type": "uint256[]"
        },
        {
          "indexed": false,
          "internalType": "uint256[]",
          "name": "values",
          "type": "uint256[]"
        }
      ],
      "name": "TransferBatch",
      "type": "event"
    },
    {
      "anonymous": false,
      "inputs": [
        {
          "indexed": true,
          "internalType": "address",
          "name": "operator",
          "type": "address"
        },
        {
          "indexed": true,
          "internalType": "address",
          "name": "from",
          "type": "address"
        },
        {
          "indexed": true,
          "internalType": "address",
          "name": "to",
          "type": "address"
        },
        {
          "indexed": false,
          "internalType": "uint256",
          "name": "id",
          "type": "uint256"
        },
        {
          "indexed": false,
          "internalType": "uint256",
          "name": "value",
          "type": "uint256"
        }
      ],
      "name": "TransferSingle",
      "type": "event"
    },
    {
      "anonymous": false,
      "inputs": [
        {
          "indexed": false,
          "internalType": "string",
          "name": "value",
          "type": "string"
        },
        {
          "indexed": true,
          "internalType": "uint256",
          "name": "id",
          "type": "uint256"
        }
      ],
      "name": "URI",
      "type": "event"
    },
    {
      "inputs": [
        {
          "internalType": "address",
          "name": "account",
          "type": "address"
        },
        {
          "internalType": "uint256",
          "name": "id",
          "type": "uint256"
        }
      ],
      "name": "balanceOf",
      "outputs": [
        {
          "internalType": "uint256",
          "name": "",
          "type": "uint256"
        }
      ],
      "stateMutability": "view",
      "type": "function"
    },
    {
      "inputs": [
        {
          "internalType": "address[]",
          "name": "accounts",
          "type": "address[]"
        },
        {
          "internalType": "uint256[]",
          "name": "ids",
          "type": "uint256[]"
        }
      ],
      "name": "balanceOfBatch",
      "outputs": [
        {
          "internalType": "uint256[]",
          "name": "",
          "type": "uint256[]"
        }
      ],
      "stateMutability": "view",
      "type": "function"
    },
    {
      "inputs": [
        {
          "internalType": "address",
          "name": "account",
          "type": "address"
        },
        {
          "internalType": "address",
          "name": "operator",
          "type": "address"
        }
      ],
      "name": "isApprovedForAll",
      "outputs": [
        {
          "internalType": "bool",
          "name": "",
          "type": "bool"
        }
      ],
      "stateMutability": "view",
      "type": "function"
    },
    {
      "inputs": [
        {
          "internalType": "address",
          "name": "from",
          "type": "address"
        },
        {
          "internalType": "address",
          "name": "to",
          "type": "address"
        },
        {
          "internalType": "uint256[]",
          "name": "ids",
          "type": "uint256[]"
        },
        {
          "internalType": "uint256[]",
          "name": "amounts",
          "type": "uint256[]"
        },
        {
          "internalType": "bytes",
          "name": "data",
          "type": "bytes"
        }
      ],
      "name": "safeBatchTransferFrom",
      "outputs": [],
      "stateMutability": "nonpayable",
      "type": "function"
    },
    {
      "inputs": [
        {
          "internalType": "address",
          "name": "from",
          "type": "address"
        },
        {
          "internalType": "address",
          "name": "to",
          "type": "address"
        },
        {
          "internalType": "uint256",
          "name": "id",
          "type": "uint256"
        },
        {
          "internalType": "uint256",
          "name": "amount",
          "type": "uint256"
        },
        {
          "internalType": "bytes",
          "name": "data",
          "type": "bytes"
        }
      ],
      "name": "safeTransferFrom",
      "outputs": [],
      "stateMutability": "nonpayable",
      "type": "function"
    },
    {
      "inputs": [
        {
          "internalType": "address",
          "name": "operator",
          "type": "address"
        },
        {
          "internalType": "bool",
          "name": "approved",
          "type": "bool"
        }
      ],
      "name": "setApprovalForAll",
      "outputs": [],
      "stateMutability": "nonpayable",
      "type": "function"
    },
    {
      "inputs": [
        {
          "internalType": "bytes4",
          "name": "interfaceId",
          "type": "bytes4"
        }
      ],
      "name": "supportsInterface",
      "outputs": [
        {
          "internalType": "bool",
          "name": "",
          "type": "bool"
        }
      ],
      "stateMutability": "view",
      "type": "function"
    },
    {
      "inputs": [
        {
          "internalType": "uint256",
          "name": "",
          "type": "uint256"
        }
      ],
      "name": "uri",
      "outputs": [
        {
          "internalType": "string",
          "name": "",
          "type": "string"
        }
      ],
      "stateMutability": "view",
      "type": "function"
    },
    {
      "inputs": [
        {
          "internalType": "uint256",
          "name": "discount",
          "type": "uint256"
        },
        {
          "internalType": "uint256",
          "name": "amount",
          "type": "uint256"
        },
        {
          "internalType": "address",
          "name": "marketAddr",
          "type": "address"
        }
      ],
      "name": "CouponMintAndList",
      "outputs": [],
      "stateMutability": "nonpayable",
      "type": "function"
    }
  ],
  "bytecode": "0x60806040523480156200001157600080fd5b506040518060400160405280600381526020017f757269000000000000000000000000000000000000000000000000000000000081525062000059816200006060201b60201c565b5062000191565b8060029080519060200190620000789291906200007c565b5050565b8280546200008a906200015b565b90600052602060002090601f016020900481019282620000ae5760008555620000fa565b82601f10620000c957805160ff1916838001178555620000fa565b82800160010185558215620000fa579182015b82811115620000f9578251825591602001919060010190620000dc565b5b5090506200010991906200010d565b5090565b5b80821115620001285760008160009055506001016200010e565b5090565b7f4e487b7100000000000000000000000000000000000000000000000000000000600052602260045260246000fd5b600060028204905060018216806200017457607f821691505b602082108114156200018b576200018a6200012c565b5b50919050565b61284f80620001a16000396000f3fe608060405234801561001057600080fd5b50600436106100925760003560e01c80634e1273f4116100665780634e1273f414610143578063a22cb46514610173578063af2282b91461018f578063e985e9c5146101ab578063f242432a146101db57610092565b8062fdd58e1461009757806301ffc9a7146100c75780630e89341c146100f75780632eb2c2d614610127575b600080fd5b6100b160048036038101906100ac91906115f0565b6101f7565b6040516100be919061163f565b60405180910390f35b6100e160048036038101906100dc91906116b2565b6102c0565b6040516100ee91906116fa565b60405180910390f35b610111600480360381019061010c9190611715565b6103a2565b60405161011e91906117db565b60405180910390f35b610141600480360381019061013c91906119fa565b610436565b005b61015d60048036038101906101589190611b8c565b6104d7565b60405161016a9190611cc2565b60405180910390f35b61018d60048036038101906101889190611d10565b6105f0565b005b6101a960048036038101906101a49190611d50565b610606565b005b6101c560048036038101906101c09190611da3565b610668565b6040516101d291906116fa565b60405180910390f35b6101f560048036038101906101f09190611de3565b6106fc565b005b60008073ffffffffffffffffffffffffffffffffffffffff168373ffffffffffffffffffffffffffffffffffffffff161415610268576040517f08c379a000000000000000000000000000000000000000000000000000000000815260040161025f90611eec565b60405180910390fd5b60008083815260200190815260200160002060008473ffffffffffffffffffffffffffffffffffffffff1673ffffffffffffffffffffffffffffffffffffffff16815260200190815260200160002054905092915050565b60007fd9b67a26000000000000000000000000000000000000000000000000000000007bffffffffffffffffffffffffffffffffffffffffffffffffffffffff1916827bffffffffffffffffffffffffffffffffffffffffffffffffffffffff1916148061038b57507f0e89341c000000000000000000000000000000000000000000000000000000007bffffffffffffffffffffffffffffffffffffffffffffffffffffffff1916827bffffffffffffffffffffffffffffffffffffffffffffffffffffffff1916145b8061039b575061039a8261079d565b5b9050919050565b6060600280546103b190611f3b565b80601f01602080910402602001604051908101604052809291908181526020018280546103dd90611f3b565b801561042a5780601f106103ff5761010080835404028352916020019161042a565b820191906000526020600020905b81548152906001019060200180831161040d57829003601f168201915b50505050509050919050565b61043e610807565b73ffffffffffffffffffffffffffffffffffffffff168573ffffffffffffffffffffffffffffffffffffffff16148061048457506104838561047e610807565b610668565b5b6104c3576040517f08c379a00000000000000000000000000000000000000000000000000000000081526004016104ba90611fdf565b60405180910390fd5b6104d0858585858561080f565b5050505050565b6060815183511461051d576040517f08c379a000000000000000000000000000000000000000000000000000000000815260040161051490612071565b60405180910390fd5b6000835167ffffffffffffffff81111561053a57610539611802565b5b6040519080825280602002602001820160405280156105685781602001602082028036833780820191505090505b50905060005b84518110156105e5576105b585828151811061058d5761058c612091565b5b60200260200101518583815181106105a8576105a7612091565b5b60200260200101516101f7565b8282815181106105c8576105c7612091565b5b602002602001018181525050806105de906120ef565b905061056e565b508091505092915050565b6106026105fb610807565b8383610b31565b5050565b61062133848460405180602001604052806000815250610c9e565b610663338285856040518060400160405280600481526020017f30783030000000000000000000000000000000000000000000000000000000008152506106fc565b505050565b6000600160008473ffffffffffffffffffffffffffffffffffffffff1673ffffffffffffffffffffffffffffffffffffffff16815260200190815260200160002060008373ffffffffffffffffffffffffffffffffffffffff1673ffffffffffffffffffffffffffffffffffffffff16815260200190815260200160002060009054906101000a900460ff16905092915050565b610704610807565b73ffffffffffffffffffffffffffffffffffffffff168573ffffffffffffffffffffffffffffffffffffffff16148061074a575061074985610744610807565b610668565b5b610789576040517f08c379a000000000000000000000000000000000000000000000000000000000815260040161078090611fdf565b60405180910390fd5b6107968585858585610e4f565b5050505050565b60007f01ffc9a7000000000000000000000000000000000000000000000000000000007bffffffffffffffffffffffffffffffffffffffffffffffffffffffff1916827bffffffffffffffffffffffffffffffffffffffffffffffffffffffff1916149050919050565b600033905090565b8151835114610853576040517f08c379a000000000000000000000000000000000000000000000000000000000815260040161084a906121aa565b60405180910390fd5b600073ffffffffffffffffffffffffffffffffffffffff168473ffffffffffffffffffffffffffffffffffffffff1614156108c3576040517f08c379a00000000000000000000000000000000000000000000000000000000081526004016108ba9061223c565b60405180910390fd5b60006108cd610807565b90506108dd8187878787876110eb565b60005b8451811015610a8e5760008582815181106108fe576108fd612091565b5b60200260200101519050600085838151811061091d5761091c612091565b5b60200260200101519050600080600084815260200190815260200160002060008b73ffffffffffffffffffffffffffffffffffffffff1673ffffffffffffffffffffffffffffffffffffffff168152602001908152602001600020549050818110156109be576040517f08c379a00000000000000000000000000000000000000000000000000000000081526004016109b5906122ce565b60405180910390fd5b81810360008085815260200190815260200160002060008c73ffffffffffffffffffffffffffffffffffffffff1673ffffffffffffffffffffffffffffffffffffffff168152602001908152602001600020819055508160008085815260200190815260200160002060008b73ffffffffffffffffffffffffffffffffffffffff1673ffffffffffffffffffffffffffffffffffffffff1681526020019081526020016000206000828254610a7391906122ee565b9250508190555050505080610a87906120ef565b90506108e0565b508473ffffffffffffffffffffffffffffffffffffffff168673ffffffffffffffffffffffffffffffffffffffff168273ffffffffffffffffffffffffffffffffffffffff167f4a39dc06d4c0dbc64b70af90fd698a233a518aa5d07e595d983b8c0526c8f7fb8787604051610b05929190612344565b60405180910390a4610b1b8187878787876110f3565b610b298187878787876110fb565b505050505050565b8173ffffffffffffffffffffffffffffffffffffffff168373ffffffffffffffffffffffffffffffffffffffff161415610ba0576040517f08c379a0000000000000000000000000000000000000000000000000000000008152600401610b97906123ed565b60405180910390fd5b80600160008573ffffffffffffffffffffffffffffffffffffffff1673ffffffffffffffffffffffffffffffffffffffff16815260200190815260200160002060008473ffffffffffffffffffffffffffffffffffffffff1673ffffffffffffffffffffffffffffffffffffffff16815260200190815260200160002060006101000a81548160ff0219169083151502179055508173ffffffffffffffffffffffffffffffffffffffff168373ffffffffffffffffffffffffffffffffffffffff167f17307eab39ab6107e8899845ad3d59bd9653f200f220920489ca2b5937696c3183604051610c9191906116fa565b60405180910390a3505050565b600073ffffffffffffffffffffffffffffffffffffffff168473ffffffffffffffffffffffffffffffffffffffff161415610d0e576040517f08c379a0000000000000000000000000000000000000000000000000000000008152600401610d059061247f565b60405180910390fd5b6000610d18610807565b90506000610d25856112d3565b90506000610d32856112d3565b9050610d43836000898585896110eb565b8460008088815260200190815260200160002060008973ffffffffffffffffffffffffffffffffffffffff1673ffffffffffffffffffffffffffffffffffffffff1681526020019081526020016000206000828254610da291906122ee565b925050819055508673ffffffffffffffffffffffffffffffffffffffff16600073ffffffffffffffffffffffffffffffffffffffff168473ffffffffffffffffffffffffffffffffffffffff167fc3d58168c5ae7397731d063d5bbf3d657854427343f4c083240f7aacaa2d0f628989604051610e2092919061249f565b60405180910390a4610e37836000898585896110f3565b610e468360008989898961134d565b50505050505050565b600073ffffffffffffffffffffffffffffffffffffffff168473ffffffffffffffffffffffffffffffffffffffff161415610ebf576040517f08c379a0000000000000000000000000000000000000000000000000000000008152600401610eb69061223c565b60405180910390fd5b6000610ec9610807565b90506000610ed6856112d3565b90506000610ee3856112d3565b9050610ef38389898585896110eb565b600080600088815260200190815260200160002060008a73ffffffffffffffffffffffffffffffffffffffff1673ffffffffffffffffffffffffffffffffffffffff16815260200190815260200160002054905085811015610f8a576040517f08c379a0000000000000000000000000000000000000000000000000000000008152600401610f81906122ce565b60405180910390fd5b85810360008089815260200190815260200160002060008b73ffffffffffffffffffffffffffffffffffffffff1673ffffffffffffffffffffffffffffffffffffffff168152602001908152602001600020819055508560008089815260200190815260200160002060008a73ffffffffffffffffffffffffffffffffffffffff1673ffffffffffffffffffffffffffffffffffffffff168152602001908152602001600020600082825461103f91906122ee565b925050819055508773ffffffffffffffffffffffffffffffffffffffff168973ffffffffffffffffffffffffffffffffffffffff168573ffffffffffffffffffffffffffffffffffffffff167fc3d58168c5ae7397731d063d5bbf3d657854427343f4c083240f7aacaa2d0f628a8a6040516110bc92919061249f565b60405180910390a46110d2848a8a86868a6110f3565b6110e0848a8a8a8a8a61134d565b505050505050505050565b505050505050565b505050505050565b61111a8473ffffffffffffffffffffffffffffffffffffffff16611525565b156112cb578373ffffffffffffffffffffffffffffffffffffffff1663bc197c8187878686866040518663ffffffff1660e01b815260040161116095949392919061252c565b6020604051808303816000875af192505050801561119c57506040513d601f19601f8201168201806040525081019061119991906125a9565b60015b611242576111a86125e3565b806308c379a0141561120557506111bd612605565b806111c85750611207565b806040517f08c379a00000000000000000000000000000000000000000000000000000000081526004016111fc91906117db565b60405180910390fd5b505b6040517f08c379a00000000000000000000000000000000000000000000000000000000081526004016112399061270d565b60405180910390fd5b63bc197c8160e01b7bffffffffffffffffffffffffffffffffffffffffffffffffffffffff1916817bffffffffffffffffffffffffffffffffffffffffffffffffffffffff1916146112c9576040517f08c379a00000000000000000000000000000000000000000000000000000000081526004016112c09061279f565b60405180910390fd5b505b505050505050565b60606000600167ffffffffffffffff8111156112f2576112f1611802565b5b6040519080825280602002602001820160405280156113205781602001602082028036833780820191505090505b509050828160008151811061133857611337612091565b5b60200260200101818152505080915050919050565b61136c8473ffffffffffffffffffffffffffffffffffffffff16611525565b1561151d578373ffffffffffffffffffffffffffffffffffffffff1663f23a6e6187878686866040518663ffffffff1660e01b81526004016113b29594939291906127bf565b6020604051808303816000875af19250505080156113ee57506040513d601f19601f820116820180604052508101906113eb91906125a9565b60015b611494576113fa6125e3565b806308c379a01415611457575061140f612605565b8061141a5750611459565b806040517f08c379a000000000000000000000000000000000000000000000000000000000815260040161144e91906117db565b60405180910390fd5b505b6040517f08c379a000000000000000000000000000000000000000000000000000000000815260040161148b9061270d565b60405180910390fd5b63f23a6e6160e01b7bffffffffffffffffffffffffffffffffffffffffffffffffffffffff1916817bffffffffffffffffffffffffffffffffffffffffffffffffffffffff19161461151b576040517f08c379a00000000000000000000000000000000000000000000000000000000081526004016115129061279f565b60405180910390fd5b505b505050505050565b6000808273ffffffffffffffffffffffffffffffffffffffff163b119050919050565b6000604051905090565b600080fd5b600080fd5b600073ffffffffffffffffffffffffffffffffffffffff82169050919050565b60006115878261155c565b9050919050565b6115978161157c565b81146115a257600080fd5b50565b6000813590506115b48161158e565b92915050565b6000819050919050565b6115cd816115ba565b81146115d857600080fd5b50565b6000813590506115ea816115c4565b92915050565b6000806040838503121561160757611606611552565b5b6000611615858286016115a5565b9250506020611626858286016115db565b9150509250929050565b611639816115ba565b82525050565b60006020820190506116546000830184611630565b92915050565b60007fffffffff0000000000000000000000000000000000000000000000000000000082169050919050565b61168f8161165a565b811461169a57600080fd5b50565b6000813590506116ac81611686565b92915050565b6000602082840312156116c8576116c7611552565b5b60006116d68482850161169d565b91505092915050565b60008115159050919050565b6116f4816116df565b82525050565b600060208201905061170f60008301846116eb565b92915050565b60006020828403121561172b5761172a611552565b5b6000611739848285016115db565b91505092915050565b600081519050919050565b600082825260208201905092915050565b60005b8381101561177c578082015181840152602081019050611761565b8381111561178b576000848401525b50505050565b6000601f19601f8301169050919050565b60006117ad82611742565b6117b7818561174d565b93506117c781856020860161175e565b6117d081611791565b840191505092915050565b600060208201905081810360008301526117f581846117a2565b905092915050565b600080fd5b7f4e487b7100000000000000000000000000000000000000000000000000000000600052604160045260246000fd5b61183a82611791565b810181811067ffffffffffffffff8211171561185957611858611802565b5b80604052505050565b600061186c611548565b90506118788282611831565b919050565b600067ffffffffffffffff82111561189857611897611802565b5b602082029050602081019050919050565b600080fd5b60006118c16118bc8461187d565b611862565b905080838252602082019050602084028301858111156118e4576118e36118a9565b5b835b8181101561190d57806118f988826115db565b8452602084019350506020810190506118e6565b5050509392505050565b600082601f83011261192c5761192b6117fd565b5b813561193c8482602086016118ae565b91505092915050565b600080fd5b600067ffffffffffffffff82111561196557611964611802565b5b61196e82611791565b9050602081019050919050565b82818337600083830152505050565b600061199d6119988461194a565b611862565b9050828152602081018484840111156119b9576119b8611945565b5b6119c484828561197b565b509392505050565b600082601f8301126119e1576119e06117fd565b5b81356119f184826020860161198a565b91505092915050565b600080600080600060a08688031215611a1657611a15611552565b5b6000611a24888289016115a5565b9550506020611a35888289016115a5565b945050604086013567ffffffffffffffff811115611a5657611a55611557565b5b611a6288828901611917565b935050606086013567ffffffffffffffff811115611a8357611a82611557565b5b611a8f88828901611917565b925050608086013567ffffffffffffffff811115611ab057611aaf611557565b5b611abc888289016119cc565b9150509295509295909350565b600067ffffffffffffffff821115611ae457611ae3611802565b5b602082029050602081019050919050565b6000611b08611b0384611ac9565b611862565b90508083825260208201905060208402830185811115611b2b57611b2a6118a9565b5b835b81811015611b545780611b4088826115a5565b845260208401935050602081019050611b2d565b5050509392505050565b600082601f830112611b7357611b726117fd565b5b8135611b83848260208601611af5565b91505092915050565b60008060408385031215611ba357611ba2611552565b5b600083013567ffffffffffffffff811115611bc157611bc0611557565b5b611bcd85828601611b5e565b925050602083013567ffffffffffffffff811115611bee57611bed611557565b5b611bfa85828601611917565b9150509250929050565b600081519050919050565b600082825260208201905092915050565b6000819050602082019050919050565b611c39816115ba565b82525050565b6000611c4b8383611c30565b60208301905092915050565b6000602082019050919050565b6000611c6f82611c04565b611c798185611c0f565b9350611c8483611c20565b8060005b83811015611cb5578151611c9c8882611c3f565b9750611ca783611c57565b925050600181019050611c88565b5085935050505092915050565b60006020820190508181036000830152611cdc8184611c64565b905092915050565b611ced816116df565b8114611cf857600080fd5b50565b600081359050611d0a81611ce4565b92915050565b60008060408385031215611d2757611d26611552565b5b6000611d35858286016115a5565b9250506020611d4685828601611cfb565b9150509250929050565b600080600060608486031215611d6957611d68611552565b5b6000611d77868287016115db565b9350506020611d88868287016115db565b9250506040611d99868287016115a5565b9150509250925092565b60008060408385031215611dba57611db9611552565b5b6000611dc8858286016115a5565b9250506020611dd9858286016115a5565b9150509250929050565b600080600080600060a08688031215611dff57611dfe611552565b5b6000611e0d888289016115a5565b9550506020611e1e888289016115a5565b9450506040611e2f888289016115db565b9350506060611e40888289016115db565b925050608086013567ffffffffffffffff811115611e6157611e60611557565b5b611e6d888289016119cc565b9150509295509295909350565b7f455243313135353a2061646472657373207a65726f206973206e6f742061207660008201527f616c6964206f776e657200000000000000000000000000000000000000000000602082015250565b6000611ed6602a8361174d565b9150611ee182611e7a565b604082019050919050565b60006020820190508181036000830152611f0581611ec9565b9050919050565b7f4e487b7100000000000000000000000000000000000000000000000000000000600052602260045260246000fd5b60006002820490506001821680611f5357607f821691505b60208210811415611f6757611f66611f0c565b5b50919050565b7f455243313135353a2063616c6c6572206973206e6f7420746f6b656e206f776e60008201527f6572206e6f7220617070726f7665640000000000000000000000000000000000602082015250565b6000611fc9602f8361174d565b9150611fd482611f6d565b604082019050919050565b60006020820190508181036000830152611ff881611fbc565b9050919050565b7f455243313135353a206163636f756e747320616e6420696473206c656e67746860008201527f206d69736d617463680000000000000000000000000000000000000000000000602082015250565b600061205b60298361174d565b915061206682611fff565b604082019050919050565b6000602082019050818103600083015261208a8161204e565b9050919050565b7f4e487b7100000000000000000000000000000000000000000000000000000000600052603260045260246000fd5b7f4e487b7100000000000000000000000000000000000000000000000000000000600052601160045260246000fd5b60006120fa826115ba565b91507fffffffffffffffffffffffffffffffffffffffffffffffffffffffffffffffff82141561212d5761212c6120c0565b5b600182019050919050565b7f455243313135353a2069647320616e6420616d6f756e7473206c656e6774682060008201527f6d69736d61746368000000000000000000000000000000000000000000000000602082015250565b600061219460288361174d565b915061219f82612138565b604082019050919050565b600060208201905081810360008301526121c381612187565b9050919050565b7f455243313135353a207472616e7366657220746f20746865207a65726f20616460008201527f6472657373000000000000000000000000000000000000000000000000000000602082015250565b600061222660258361174d565b9150612231826121ca565b604082019050919050565b6000602082019050818103600083015261225581612219565b9050919050565b7f455243313135353a20696e73756666696369656e742062616c616e636520666f60008201527f72207472616e7366657200000000000000000000000000000000000000000000602082015250565b60006122b8602a8361174d565b91506122c38261225c565b604082019050919050565b600060208201905081810360008301526122e7816122ab565b9050919050565b60006122f9826115ba565b9150612304836115ba565b9250827fffffffffffffffffffffffffffffffffffffffffffffffffffffffffffffffff03821115612339576123386120c0565b5b828201905092915050565b6000604082019050818103600083015261235e8185611c64565b905081810360208301526123728184611c64565b90509392505050565b7f455243313135353a2073657474696e6720617070726f76616c2073746174757360008201527f20666f722073656c660000000000000000000000000000000000000000000000602082015250565b60006123d760298361174d565b91506123e28261237b565b604082019050919050565b60006020820190508181036000830152612406816123ca565b9050919050565b7f455243313135353a206d696e7420746f20746865207a65726f2061646472657360008201527f7300000000000000000000000000000000000000000000000000000000000000602082015250565b600061246960218361174d565b91506124748261240d565b604082019050919050565b600060208201905081810360008301526124988161245c565b9050919050565b60006040820190506124b46000830185611630565b6124c16020830184611630565b9392505050565b6124d18161157c565b82525050565b600081519050919050565b600082825260208201905092915050565b60006124fe826124d7565b61250881856124e2565b935061251881856020860161175e565b61252181611791565b840191505092915050565b600060a08201905061254160008301886124c8565b61254e60208301876124c8565b81810360408301526125608186611c64565b905081810360608301526125748185611c64565b9050818103608083015261258881846124f3565b90509695505050505050565b6000815190506125a381611686565b92915050565b6000602082840312156125bf576125be611552565b5b60006125cd84828501612594565b91505092915050565b60008160e01c9050919050565b600060033d11156126025760046000803e6125ff6000516125d6565b90505b90565b600060443d101561261557612698565b61261d611548565b60043d036004823e80513d602482011167ffffffffffffffff82111715612645575050612698565b808201805167ffffffffffffffff8111156126635750505050612698565b80602083010160043d038501811115612680575050505050612698565b61268f82602001850186611831565b82955050505050505b90565b7f455243313135353a207472616e7366657220746f206e6f6e204552433131353560008201527f526563656976657220696d706c656d656e746572000000000000000000000000602082015250565b60006126f760348361174d565b91506127028261269b565b604082019050919050565b60006020820190508181036000830152612726816126ea565b9050919050565b7f455243313135353a204552433131353552656365697665722072656a6563746560008201527f6420746f6b656e73000000000000000000000000000000000000000000000000602082015250565b600061278960288361174d565b91506127948261272d565b604082019050919050565b600060208201905081810360008301526127b88161277c565b9050919050565b600060a0820190506127d460008301886124c8565b6127e160208301876124c8565b6127ee6040830186611630565b6127fb6060830185611630565b818103608083015261280d81846124f3565b9050969550505050505056fea26469706673582212207de354f2829dc5246307a9d1aadc209d098ae2cb8265b9d5c3cdf5dcbfe1479064736f6c634300080a0033",
  "immutableReferences": {},
  "source": "// contracts/GameItems.sol\n// SPDX-License-Identifier: MIT\npragma solidity ^0.8.0;\n\nimport \"@openzeppelin/contracts/token/ERC1155/ERC1155.sol\";\n\ncontract Coupon is ERC1155 {\n    constructor() public ERC1155(\"uri\") {}\n\n    function CouponMintAndList(\n        uint256 discount,\n        uint256 amount,\n        address marketAddr\n    ) public {\n        _mint(msg.sender, discount, amount, \"\");\n        safeTransferFrom(msg.sender, marketAddr, discount, amount, \"0x00\");\n    }\n}\n",
  "sourcePath": "/Users/odongjae/Desktop/2022Study/codestates/project/beb-05-Bills/smart-contract/contracts/Coupon.sol",
  "compiler": {
    "name": "solc",
    "version": "0.8.10+commit.fc410830.Emscripten.clang"
  },
  "schemaVersion": "3.4.8",
  "updatedAt": "2022-08-22T06:47:26.397Z",
  "devdoc": {
    "kind": "dev",
    "methods": {
      "balanceOf(address,uint256)": {
        "details": "See {IERC1155-balanceOf}. Requirements: - `account` cannot be the zero address."
      },
      "balanceOfBatch(address[],uint256[])": {
        "details": "See {IERC1155-balanceOfBatch}. Requirements: - `accounts` and `ids` must have the same length."
      },
      "isApprovedForAll(address,address)": {
        "details": "See {IERC1155-isApprovedForAll}."
      },
      "safeBatchTransferFrom(address,address,uint256[],uint256[],bytes)": {
        "details": "See {IERC1155-safeBatchTransferFrom}."
      },
      "safeTransferFrom(address,address,uint256,uint256,bytes)": {
        "details": "See {IERC1155-safeTransferFrom}."
      },
      "setApprovalForAll(address,bool)": {
        "details": "See {IERC1155-setApprovalForAll}."
      },
      "supportsInterface(bytes4)": {
        "details": "See {IERC165-supportsInterface}."
      },
      "uri(uint256)": {
        "details": "See {IERC1155MetadataURI-uri}. This implementation returns the same URI for *all* token types. It relies on the token type ID substitution mechanism https://eips.ethereum.org/EIPS/eip-1155#metadata[defined in the EIP]. Clients calling this function must replace the `\\{id\\}` substring with the actual token type ID."
      }
    },
    "version": 1
  },
  "userdoc": {
    "kind": "user",
    "methods": {},
    "version": 1
  }
}