{
  "contractName": "CouponContract",
  "abi": [
    {
      "inputs": [],
      "stateMutability": "nonpayable",
      "type": "constructor"
    },
    {
      "anonymous": false,
      "inputs": [
        {
          "indexed": true,
          "internalType": "address",
          "name": "account",
          "type": "address"
        },
        {
          "indexed": true,
          "internalType": "address",
          "name": "operator",
          "type": "address"
        },
        {
          "indexed": false,
          "internalType": "bool",
          "name": "approved",
          "type": "bool"
        }
      ],
      "name": "ApprovalForAll",
      "type": "event"
    },
    {
      "anonymous": false,
      "inputs": [
        {
          "indexed": true,
          "internalType": "address",
          "name": "operator",
          "type": "address"
        },
        {
          "indexed": true,
          "internalType": "address",
          "name": "from",
          "type": "address"
        },
        {
          "indexed": true,
          "internalType": "address",
          "name": "to",
          "type": "address"
        },
        {
          "indexed": false,
          "internalType": "uint256[]",
          "name": "ids",
          "type": "uint256[]"
        },
        {
          "indexed": false,
          "internalType": "uint256[]",
          "name": "values",
          "type": "uint256[]"
        }
      ],
      "name": "TransferBatch",
      "type": "event"
    },
    {
      "anonymous": false,
      "inputs": [
        {
          "indexed": true,
          "internalType": "address",
          "name": "operator",
          "type": "address"
        },
        {
          "indexed": true,
          "internalType": "address",
          "name": "from",
          "type": "address"
        },
        {
          "indexed": true,
          "internalType": "address",
          "name": "to",
          "type": "address"
        },
        {
          "indexed": false,
          "internalType": "uint256",
          "name": "id",
          "type": "uint256"
        },
        {
          "indexed": false,
          "internalType": "uint256",
          "name": "value",
          "type": "uint256"
        }
      ],
      "name": "TransferSingle",
      "type": "event"
    },
    {
      "anonymous": false,
      "inputs": [
        {
          "indexed": false,
          "internalType": "string",
          "name": "value",
          "type": "string"
        },
        {
          "indexed": true,
          "internalType": "uint256",
          "name": "id",
          "type": "uint256"
        }
      ],
      "name": "URI",
      "type": "event"
    },
    {
      "inputs": [
        {
          "internalType": "address",
          "name": "account",
          "type": "address"
        },
        {
          "internalType": "uint256",
          "name": "id",
          "type": "uint256"
        }
      ],
      "name": "balanceOf",
      "outputs": [
        {
          "internalType": "uint256",
          "name": "",
          "type": "uint256"
        }
      ],
      "stateMutability": "view",
      "type": "function",
      "constant": true
    },
    {
      "inputs": [
        {
          "internalType": "address[]",
          "name": "accounts",
          "type": "address[]"
        },
        {
          "internalType": "uint256[]",
          "name": "ids",
          "type": "uint256[]"
        }
      ],
      "name": "balanceOfBatch",
      "outputs": [
        {
          "internalType": "uint256[]",
          "name": "",
          "type": "uint256[]"
        }
      ],
      "stateMutability": "view",
      "type": "function",
      "constant": true
    },
    {
      "inputs": [
        {
          "internalType": "address",
          "name": "account",
          "type": "address"
        },
        {
          "internalType": "address",
          "name": "operator",
          "type": "address"
        }
      ],
      "name": "isApprovedForAll",
      "outputs": [
        {
          "internalType": "bool",
          "name": "",
          "type": "bool"
        }
      ],
      "stateMutability": "view",
      "type": "function",
      "constant": true
    },
    {
      "inputs": [
        {
          "internalType": "address",
          "name": "from",
          "type": "address"
        },
        {
          "internalType": "address",
          "name": "to",
          "type": "address"
        },
        {
          "internalType": "uint256[]",
          "name": "ids",
          "type": "uint256[]"
        },
        {
          "internalType": "uint256[]",
          "name": "amounts",
          "type": "uint256[]"
        },
        {
          "internalType": "bytes",
          "name": "data",
          "type": "bytes"
        }
      ],
      "name": "safeBatchTransferFrom",
      "outputs": [],
      "stateMutability": "nonpayable",
      "type": "function"
    },
    {
      "inputs": [
        {
          "internalType": "address",
          "name": "from",
          "type": "address"
        },
        {
          "internalType": "address",
          "name": "to",
          "type": "address"
        },
        {
          "internalType": "uint256",
          "name": "id",
          "type": "uint256"
        },
        {
          "internalType": "uint256",
          "name": "amount",
          "type": "uint256"
        },
        {
          "internalType": "bytes",
          "name": "data",
          "type": "bytes"
        }
      ],
      "name": "safeTransferFrom",
      "outputs": [],
      "stateMutability": "nonpayable",
      "type": "function"
    },
    {
      "inputs": [
        {
          "internalType": "address",
          "name": "operator",
          "type": "address"
        },
        {
          "internalType": "bool",
          "name": "approved",
          "type": "bool"
        }
      ],
      "name": "setApprovalForAll",
      "outputs": [],
      "stateMutability": "nonpayable",
      "type": "function"
    },
    {
      "inputs": [
        {
          "internalType": "bytes4",
          "name": "interfaceId",
          "type": "bytes4"
        }
      ],
      "name": "supportsInterface",
      "outputs": [
        {
          "internalType": "bool",
          "name": "",
          "type": "bool"
        }
      ],
      "stateMutability": "view",
      "type": "function",
      "constant": true
    },
    {
      "inputs": [
        {
          "internalType": "uint256",
          "name": "",
          "type": "uint256"
        }
      ],
      "name": "uri",
      "outputs": [
        {
          "internalType": "string",
          "name": "",
          "type": "string"
        }
      ],
      "stateMutability": "view",
      "type": "function",
      "constant": true
    },
    {
      "inputs": [
        {
          "internalType": "uint256",
          "name": "discount",
          "type": "uint256"
        },
        {
          "internalType": "uint256",
          "name": "amount",
          "type": "uint256"
        }
      ],
      "name": "CouponMint",
      "outputs": [],
      "stateMutability": "nonpayable",
      "type": "function"
    }
  ],
  "bytecode": "0x60806040523480156200001157600080fd5b506040518060400160405280600381526020017f757269000000000000000000000000000000000000000000000000000000000081525062000059816200006060201b60201c565b5062000191565b8060029080519060200190620000789291906200007c565b5050565b8280546200008a906200015b565b90600052602060002090601f016020900481019282620000ae5760008555620000fa565b82601f10620000c957805160ff1916838001178555620000fa565b82800160010185558215620000fa579182015b82811115620000f9578251825591602001919060010190620000dc565b5b5090506200010991906200010d565b5090565b5b80821115620001285760008160009055506001016200010e565b5090565b7f4e487b7100000000000000000000000000000000000000000000000000000000600052602260045260246000fd5b600060028204905060018216806200017457607f821691505b602082108114156200018b576200018a6200012c565b5b50919050565b6127f980620001a16000396000f3fe608060405234801561001057600080fd5b50600436106100925760003560e01c80634e1273f4116100665780634e1273f41461014357806357e8757514610173578063a22cb4651461018f578063e985e9c5146101ab578063f242432a146101db57610092565b8062fdd58e1461009757806301ffc9a7146100c75780630e89341c146100f75780632eb2c2d614610127575b600080fd5b6100b160048036038101906100ac91906115ad565b6101f7565b6040516100be91906115fc565b60405180910390f35b6100e160048036038101906100dc919061166f565b6102c0565b6040516100ee91906116b7565b60405180910390f35b610111600480360381019061010c91906116d2565b6103a2565b60405161011e9190611798565b60405180910390f35b610141600480360381019061013c91906119b7565b610436565b005b61015d60048036038101906101589190611b49565b6104d7565b60405161016a9190611c7f565b60405180910390f35b61018d60048036038101906101889190611ca1565b6105f0565b005b6101a960048036038101906101a49190611d0d565b61060f565b005b6101c560048036038101906101c09190611d4d565b610625565b6040516101d291906116b7565b60405180910390f35b6101f560048036038101906101f09190611d8d565b6106b9565b005b60008073ffffffffffffffffffffffffffffffffffffffff168373ffffffffffffffffffffffffffffffffffffffff161415610268576040517f08c379a000000000000000000000000000000000000000000000000000000000815260040161025f90611e96565b60405180910390fd5b60008083815260200190815260200160002060008473ffffffffffffffffffffffffffffffffffffffff1673ffffffffffffffffffffffffffffffffffffffff16815260200190815260200160002054905092915050565b60007fd9b67a26000000000000000000000000000000000000000000000000000000007bffffffffffffffffffffffffffffffffffffffffffffffffffffffff1916827bffffffffffffffffffffffffffffffffffffffffffffffffffffffff1916148061038b57507f0e89341c000000000000000000000000000000000000000000000000000000007bffffffffffffffffffffffffffffffffffffffffffffffffffffffff1916827bffffffffffffffffffffffffffffffffffffffffffffffffffffffff1916145b8061039b575061039a8261075a565b5b9050919050565b6060600280546103b190611ee5565b80601f01602080910402602001604051908101604052809291908181526020018280546103dd90611ee5565b801561042a5780601f106103ff5761010080835404028352916020019161042a565b820191906000526020600020905b81548152906001019060200180831161040d57829003601f168201915b50505050509050919050565b61043e6107c4565b73ffffffffffffffffffffffffffffffffffffffff168573ffffffffffffffffffffffffffffffffffffffff16148061048457506104838561047e6107c4565b610625565b5b6104c3576040517f08c379a00000000000000000000000000000000000000000000000000000000081526004016104ba90611f89565b60405180910390fd5b6104d085858585856107cc565b5050505050565b6060815183511461051d576040517f08c379a00000000000000000000000000000000000000000000000000000000081526004016105149061201b565b60405180910390fd5b6000835167ffffffffffffffff81111561053a576105396117bf565b5b6040519080825280602002602001820160405280156105685781602001602082028036833780820191505090505b50905060005b84518110156105e5576105b585828151811061058d5761058c61203b565b5b60200260200101518583815181106105a8576105a761203b565b5b60200260200101516101f7565b8282815181106105c8576105c761203b565b5b602002602001018181525050806105de90612099565b905061056e565b508091505092915050565b61060b33838360405180602001604052806000815250610aee565b5050565b61062161061a6107c4565b8383610c9f565b5050565b6000600160008473ffffffffffffffffffffffffffffffffffffffff1673ffffffffffffffffffffffffffffffffffffffff16815260200190815260200160002060008373ffffffffffffffffffffffffffffffffffffffff1673ffffffffffffffffffffffffffffffffffffffff16815260200190815260200160002060009054906101000a900460ff16905092915050565b6106c16107c4565b73ffffffffffffffffffffffffffffffffffffffff168573ffffffffffffffffffffffffffffffffffffffff1614806107075750610706856107016107c4565b610625565b5b610746576040517f08c379a000000000000000000000000000000000000000000000000000000000815260040161073d90611f89565b60405180910390fd5b6107538585858585610e0c565b5050505050565b60007f01ffc9a7000000000000000000000000000000000000000000000000000000007bffffffffffffffffffffffffffffffffffffffffffffffffffffffff1916827bffffffffffffffffffffffffffffffffffffffffffffffffffffffff1916149050919050565b600033905090565b8151835114610810576040517f08c379a000000000000000000000000000000000000000000000000000000000815260040161080790612154565b60405180910390fd5b600073ffffffffffffffffffffffffffffffffffffffff168473ffffffffffffffffffffffffffffffffffffffff161415610880576040517f08c379a0000000000000000000000000000000000000000000000000000000008152600401610877906121e6565b60405180910390fd5b600061088a6107c4565b905061089a8187878787876110a8565b60005b8451811015610a4b5760008582815181106108bb576108ba61203b565b5b6020026020010151905060008583815181106108da576108d961203b565b5b60200260200101519050600080600084815260200190815260200160002060008b73ffffffffffffffffffffffffffffffffffffffff1673ffffffffffffffffffffffffffffffffffffffff1681526020019081526020016000205490508181101561097b576040517f08c379a000000000000000000000000000000000000000000000000000000000815260040161097290612278565b60405180910390fd5b81810360008085815260200190815260200160002060008c73ffffffffffffffffffffffffffffffffffffffff1673ffffffffffffffffffffffffffffffffffffffff168152602001908152602001600020819055508160008085815260200190815260200160002060008b73ffffffffffffffffffffffffffffffffffffffff1673ffffffffffffffffffffffffffffffffffffffff1681526020019081526020016000206000828254610a309190612298565b9250508190555050505080610a4490612099565b905061089d565b508473ffffffffffffffffffffffffffffffffffffffff168673ffffffffffffffffffffffffffffffffffffffff168273ffffffffffffffffffffffffffffffffffffffff167f4a39dc06d4c0dbc64b70af90fd698a233a518aa5d07e595d983b8c0526c8f7fb8787604051610ac29291906122ee565b60405180910390a4610ad88187878787876110b0565b610ae68187878787876110b8565b505050505050565b600073ffffffffffffffffffffffffffffffffffffffff168473ffffffffffffffffffffffffffffffffffffffff161415610b5e576040517f08c379a0000000000000000000000000000000000000000000000000000000008152600401610b5590612397565b60405180910390fd5b6000610b686107c4565b90506000610b7585611290565b90506000610b8285611290565b9050610b93836000898585896110a8565b8460008088815260200190815260200160002060008973ffffffffffffffffffffffffffffffffffffffff1673ffffffffffffffffffffffffffffffffffffffff1681526020019081526020016000206000828254610bf29190612298565b925050819055508673ffffffffffffffffffffffffffffffffffffffff16600073ffffffffffffffffffffffffffffffffffffffff168473ffffffffffffffffffffffffffffffffffffffff167fc3d58168c5ae7397731d063d5bbf3d657854427343f4c083240f7aacaa2d0f628989604051610c709291906123b7565b60405180910390a4610c87836000898585896110b0565b610c968360008989898961130a565b50505050505050565b8173ffffffffffffffffffffffffffffffffffffffff168373ffffffffffffffffffffffffffffffffffffffff161415610d0e576040517f08c379a0000000000000000000000000000000000000000000000000000000008152600401610d0590612452565b60405180910390fd5b80600160008573ffffffffffffffffffffffffffffffffffffffff1673ffffffffffffffffffffffffffffffffffffffff16815260200190815260200160002060008473ffffffffffffffffffffffffffffffffffffffff1673ffffffffffffffffffffffffffffffffffffffff16815260200190815260200160002060006101000a81548160ff0219169083151502179055508173ffffffffffffffffffffffffffffffffffffffff168373ffffffffffffffffffffffffffffffffffffffff167f17307eab39ab6107e8899845ad3d59bd9653f200f220920489ca2b5937696c3183604051610dff91906116b7565b60405180910390a3505050565b600073ffffffffffffffffffffffffffffffffffffffff168473ffffffffffffffffffffffffffffffffffffffff161415610e7c576040517f08c379a0000000000000000000000000000000000000000000000000000000008152600401610e73906121e6565b60405180910390fd5b6000610e866107c4565b90506000610e9385611290565b90506000610ea085611290565b9050610eb08389898585896110a8565b600080600088815260200190815260200160002060008a73ffffffffffffffffffffffffffffffffffffffff1673ffffffffffffffffffffffffffffffffffffffff16815260200190815260200160002054905085811015610f47576040517f08c379a0000000000000000000000000000000000000000000000000000000008152600401610f3e90612278565b60405180910390fd5b85810360008089815260200190815260200160002060008b73ffffffffffffffffffffffffffffffffffffffff1673ffffffffffffffffffffffffffffffffffffffff168152602001908152602001600020819055508560008089815260200190815260200160002060008a73ffffffffffffffffffffffffffffffffffffffff1673ffffffffffffffffffffffffffffffffffffffff1681526020019081526020016000206000828254610ffc9190612298565b925050819055508773ffffffffffffffffffffffffffffffffffffffff168973ffffffffffffffffffffffffffffffffffffffff168573ffffffffffffffffffffffffffffffffffffffff167fc3d58168c5ae7397731d063d5bbf3d657854427343f4c083240f7aacaa2d0f628a8a6040516110799291906123b7565b60405180910390a461108f848a8a86868a6110b0565b61109d848a8a8a8a8a61130a565b505050505050505050565b505050505050565b505050505050565b6110d78473ffffffffffffffffffffffffffffffffffffffff166114e2565b15611288578373ffffffffffffffffffffffffffffffffffffffff1663bc197c8187878686866040518663ffffffff1660e01b815260040161111d9594939291906124d6565b6020604051808303816000875af192505050801561115957506040513d601f19601f820116820180604052508101906111569190612553565b60015b6111ff5761116561258d565b806308c379a014156111c2575061117a6125af565b8061118557506111c4565b806040517f08c379a00000000000000000000000000000000000000000000000000000000081526004016111b99190611798565b60405180910390fd5b505b6040517f08c379a00000000000000000000000000000000000000000000000000000000081526004016111f6906126b7565b60405180910390fd5b63bc197c8160e01b7bffffffffffffffffffffffffffffffffffffffffffffffffffffffff1916817bffffffffffffffffffffffffffffffffffffffffffffffffffffffff191614611286576040517f08c379a000000000000000000000000000000000000000000000000000000000815260040161127d90612749565b60405180910390fd5b505b505050505050565b60606000600167ffffffffffffffff8111156112af576112ae6117bf565b5b6040519080825280602002602001820160405280156112dd5781602001602082028036833780820191505090505b50905082816000815181106112f5576112f461203b565b5b60200260200101818152505080915050919050565b6113298473ffffffffffffffffffffffffffffffffffffffff166114e2565b156114da578373ffffffffffffffffffffffffffffffffffffffff1663f23a6e6187878686866040518663ffffffff1660e01b815260040161136f959493929190612769565b6020604051808303816000875af19250505080156113ab57506040513d601f19601f820116820180604052508101906113a89190612553565b60015b611451576113b761258d565b806308c379a0141561141457506113cc6125af565b806113d75750611416565b806040517f08c379a000000000000000000000000000000000000000000000000000000000815260040161140b9190611798565b60405180910390fd5b505b6040517f08c379a0000000000000000000000000000000000000000000000000000000008152600401611448906126b7565b60405180910390fd5b63f23a6e6160e01b7bffffffffffffffffffffffffffffffffffffffffffffffffffffffff1916817bffffffffffffffffffffffffffffffffffffffffffffffffffffffff1916146114d8576040517f08c379a00000000000000000000000000000000000000000000000000000000081526004016114cf90612749565b60405180910390fd5b505b505050505050565b6000808273ffffffffffffffffffffffffffffffffffffffff163b119050919050565b6000604051905090565b600080fd5b600080fd5b600073ffffffffffffffffffffffffffffffffffffffff82169050919050565b600061154482611519565b9050919050565b61155481611539565b811461155f57600080fd5b50565b6000813590506115718161154b565b92915050565b6000819050919050565b61158a81611577565b811461159557600080fd5b50565b6000813590506115a781611581565b92915050565b600080604083850312156115c4576115c361150f565b5b60006115d285828601611562565b92505060206115e385828601611598565b9150509250929050565b6115f681611577565b82525050565b600060208201905061161160008301846115ed565b92915050565b60007fffffffff0000000000000000000000000000000000000000000000000000000082169050919050565b61164c81611617565b811461165757600080fd5b50565b60008135905061166981611643565b92915050565b6000602082840312156116855761168461150f565b5b60006116938482850161165a565b91505092915050565b60008115159050919050565b6116b18161169c565b82525050565b60006020820190506116cc60008301846116a8565b92915050565b6000602082840312156116e8576116e761150f565b5b60006116f684828501611598565b91505092915050565b600081519050919050565b600082825260208201905092915050565b60005b8381101561173957808201518184015260208101905061171e565b83811115611748576000848401525b50505050565b6000601f19601f8301169050919050565b600061176a826116ff565b611774818561170a565b935061178481856020860161171b565b61178d8161174e565b840191505092915050565b600060208201905081810360008301526117b2818461175f565b905092915050565b600080fd5b7f4e487b7100000000000000000000000000000000000000000000000000000000600052604160045260246000fd5b6117f78261174e565b810181811067ffffffffffffffff82111715611816576118156117bf565b5b80604052505050565b6000611829611505565b905061183582826117ee565b919050565b600067ffffffffffffffff821115611855576118546117bf565b5b602082029050602081019050919050565b600080fd5b600061187e6118798461183a565b61181f565b905080838252602082019050602084028301858111156118a1576118a0611866565b5b835b818110156118ca57806118b68882611598565b8452602084019350506020810190506118a3565b5050509392505050565b600082601f8301126118e9576118e86117ba565b5b81356118f984826020860161186b565b91505092915050565b600080fd5b600067ffffffffffffffff821115611922576119216117bf565b5b61192b8261174e565b9050602081019050919050565b82818337600083830152505050565b600061195a61195584611907565b61181f565b90508281526020810184848401111561197657611975611902565b5b611981848285611938565b509392505050565b600082601f83011261199e5761199d6117ba565b5b81356119ae848260208601611947565b91505092915050565b600080600080600060a086880312156119d3576119d261150f565b5b60006119e188828901611562565b95505060206119f288828901611562565b945050604086013567ffffffffffffffff811115611a1357611a12611514565b5b611a1f888289016118d4565b935050606086013567ffffffffffffffff811115611a4057611a3f611514565b5b611a4c888289016118d4565b925050608086013567ffffffffffffffff811115611a6d57611a6c611514565b5b611a7988828901611989565b9150509295509295909350565b600067ffffffffffffffff821115611aa157611aa06117bf565b5b602082029050602081019050919050565b6000611ac5611ac084611a86565b61181f565b90508083825260208201905060208402830185811115611ae857611ae7611866565b5b835b81811015611b115780611afd8882611562565b845260208401935050602081019050611aea565b5050509392505050565b600082601f830112611b3057611b2f6117ba565b5b8135611b40848260208601611ab2565b91505092915050565b60008060408385031215611b6057611b5f61150f565b5b600083013567ffffffffffffffff811115611b7e57611b7d611514565b5b611b8a85828601611b1b565b925050602083013567ffffffffffffffff811115611bab57611baa611514565b5b611bb7858286016118d4565b9150509250929050565b600081519050919050565b600082825260208201905092915050565b6000819050602082019050919050565b611bf681611577565b82525050565b6000611c088383611bed565b60208301905092915050565b6000602082019050919050565b6000611c2c82611bc1565b611c368185611bcc565b9350611c4183611bdd565b8060005b83811015611c72578151611c598882611bfc565b9750611c6483611c14565b925050600181019050611c45565b5085935050505092915050565b60006020820190508181036000830152611c998184611c21565b905092915050565b60008060408385031215611cb857611cb761150f565b5b6000611cc685828601611598565b9250506020611cd785828601611598565b9150509250929050565b611cea8161169c565b8114611cf557600080fd5b50565b600081359050611d0781611ce1565b92915050565b60008060408385031215611d2457611d2361150f565b5b6000611d3285828601611562565b9250506020611d4385828601611cf8565b9150509250929050565b60008060408385031215611d6457611d6361150f565b5b6000611d7285828601611562565b9250506020611d8385828601611562565b9150509250929050565b600080600080600060a08688031215611da957611da861150f565b5b6000611db788828901611562565b9550506020611dc888828901611562565b9450506040611dd988828901611598565b9350506060611dea88828901611598565b925050608086013567ffffffffffffffff811115611e0b57611e0a611514565b5b611e1788828901611989565b9150509295509295909350565b7f455243313135353a2061646472657373207a65726f206973206e6f742061207660008201527f616c6964206f776e657200000000000000000000000000000000000000000000602082015250565b6000611e80602a8361170a565b9150611e8b82611e24565b604082019050919050565b60006020820190508181036000830152611eaf81611e73565b9050919050565b7f4e487b7100000000000000000000000000000000000000000000000000000000600052602260045260246000fd5b60006002820490506001821680611efd57607f821691505b60208210811415611f1157611f10611eb6565b5b50919050565b7f455243313135353a2063616c6c6572206973206e6f7420746f6b656e206f776e60008201527f6572206e6f7220617070726f7665640000000000000000000000000000000000602082015250565b6000611f73602f8361170a565b9150611f7e82611f17565b604082019050919050565b60006020820190508181036000830152611fa281611f66565b9050919050565b7f455243313135353a206163636f756e747320616e6420696473206c656e67746860008201527f206d69736d617463680000000000000000000000000000000000000000000000602082015250565b600061200560298361170a565b915061201082611fa9565b604082019050919050565b6000602082019050818103600083015261203481611ff8565b9050919050565b7f4e487b7100000000000000000000000000000000000000000000000000000000600052603260045260246000fd5b7f4e487b7100000000000000000000000000000000000000000000000000000000600052601160045260246000fd5b60006120a482611577565b91507fffffffffffffffffffffffffffffffffffffffffffffffffffffffffffffffff8214156120d7576120d661206a565b5b600182019050919050565b7f455243313135353a2069647320616e6420616d6f756e7473206c656e6774682060008201527f6d69736d61746368000000000000000000000000000000000000000000000000602082015250565b600061213e60288361170a565b9150612149826120e2565b604082019050919050565b6000602082019050818103600083015261216d81612131565b9050919050565b7f455243313135353a207472616e7366657220746f20746865207a65726f20616460008201527f6472657373000000000000000000000000000000000000000000000000000000602082015250565b60006121d060258361170a565b91506121db82612174565b604082019050919050565b600060208201905081810360008301526121ff816121c3565b9050919050565b7f455243313135353a20696e73756666696369656e742062616c616e636520666f60008201527f72207472616e7366657200000000000000000000000000000000000000000000602082015250565b6000612262602a8361170a565b915061226d82612206565b604082019050919050565b6000602082019050818103600083015261229181612255565b9050919050565b60006122a382611577565b91506122ae83611577565b9250827fffffffffffffffffffffffffffffffffffffffffffffffffffffffffffffffff038211156122e3576122e261206a565b5b828201905092915050565b600060408201905081810360008301526123088185611c21565b9050818103602083015261231c8184611c21565b90509392505050565b7f455243313135353a206d696e7420746f20746865207a65726f2061646472657360008201527f7300000000000000000000000000000000000000000000000000000000000000602082015250565b600061238160218361170a565b915061238c82612325565b604082019050919050565b600060208201905081810360008301526123b081612374565b9050919050565b60006040820190506123cc60008301856115ed565b6123d960208301846115ed565b9392505050565b7f455243313135353a2073657474696e6720617070726f76616c2073746174757360008201527f20666f722073656c660000000000000000000000000000000000000000000000602082015250565b600061243c60298361170a565b9150612447826123e0565b604082019050919050565b6000602082019050818103600083015261246b8161242f565b9050919050565b61247b81611539565b82525050565b600081519050919050565b600082825260208201905092915050565b60006124a882612481565b6124b2818561248c565b93506124c281856020860161171b565b6124cb8161174e565b840191505092915050565b600060a0820190506124eb6000830188612472565b6124f86020830187612472565b818103604083015261250a8186611c21565b9050818103606083015261251e8185611c21565b90508181036080830152612532818461249d565b90509695505050505050565b60008151905061254d81611643565b92915050565b6000602082840312156125695761256861150f565b5b60006125778482850161253e565b91505092915050565b60008160e01c9050919050565b600060033d11156125ac5760046000803e6125a9600051612580565b90505b90565b600060443d10156125bf57612642565b6125c7611505565b60043d036004823e80513d602482011167ffffffffffffffff821117156125ef575050612642565b808201805167ffffffffffffffff81111561260d5750505050612642565b80602083010160043d03850181111561262a575050505050612642565b612639826020018501866117ee565b82955050505050505b90565b7f455243313135353a207472616e7366657220746f206e6f6e204552433131353560008201527f526563656976657220696d706c656d656e746572000000000000000000000000602082015250565b60006126a160348361170a565b91506126ac82612645565b604082019050919050565b600060208201905081810360008301526126d081612694565b9050919050565b7f455243313135353a204552433131353552656365697665722072656a6563746560008201527f6420746f6b656e73000000000000000000000000000000000000000000000000602082015250565b600061273360288361170a565b915061273e826126d7565b604082019050919050565b6000602082019050818103600083015261276281612726565b9050919050565b600060a08201905061277e6000830188612472565b61278b6020830187612472565b61279860408301866115ed565b6127a560608301856115ed565b81810360808301526127b7818461249d565b9050969550505050505056fea26469706673582212204d2409ef838b206d0a6e922229dd2f441d5046128fde9dfeb8b5eb7be04fc08b64736f6c634300080a0033",
  "immutableReferences": {},
  "source": "// contracts/GameItems.sol\n// SPDX-License-Identifier: MIT\npragma solidity ^0.8.0;\n\nimport \"@openzeppelin/contracts/token/ERC1155/ERC1155.sol\";\n\ncontract CouponContract is ERC1155 {\n    constructor() public ERC1155(\"uri\") {}\n\n    function CouponMint(uint256 discount, uint256 amount) public {\n        _mint(msg.sender, discount, amount, \"\");\n    }\n}\n",
  "sourcePath": "/Users/odongjae/Desktop/2022Study/codestates/project/beb-05-Bills/smart-contract/contracts/Coupon.sol",
  "compiler": {
    "name": "solc",
    "version": "0.8.10+commit.fc410830.Emscripten.clang"
  },
  "schemaVersion": "3.4.8",
  "updatedAt": "2022-08-22T04:53:35.091Z",
  "networkType": "ethereum",
  "devdoc": {
    "kind": "dev",
    "methods": {
      "balanceOf(address,uint256)": {
        "details": "See {IERC1155-balanceOf}. Requirements: - `account` cannot be the zero address."
      },
      "balanceOfBatch(address[],uint256[])": {
        "details": "See {IERC1155-balanceOfBatch}. Requirements: - `accounts` and `ids` must have the same length."
      },
      "isApprovedForAll(address,address)": {
        "details": "See {IERC1155-isApprovedForAll}."
      },
      "safeBatchTransferFrom(address,address,uint256[],uint256[],bytes)": {
        "details": "See {IERC1155-safeBatchTransferFrom}."
      },
      "safeTransferFrom(address,address,uint256,uint256,bytes)": {
        "details": "See {IERC1155-safeTransferFrom}."
      },
      "setApprovalForAll(address,bool)": {
        "details": "See {IERC1155-setApprovalForAll}."
      },
      "supportsInterface(bytes4)": {
        "details": "See {IERC165-supportsInterface}."
      },
      "uri(uint256)": {
        "details": "See {IERC1155MetadataURI-uri}. This implementation returns the same URI for *all* token types. It relies on the token type ID substitution mechanism https://eips.ethereum.org/EIPS/eip-1155#metadata[defined in the EIP]. Clients calling this function must replace the `\\{id\\}` substring with the actual token type ID."
      }
    },
    "version": 1
  },
  "userdoc": {
    "kind": "user",
    "methods": {},
    "version": 1
  }
}