{
  "contractName": "EatNFTs",
  "abi": [
    {
      "inputs": [],
      "stateMutability": "nonpayable",
      "type": "constructor"
    },
    {
      "anonymous": false,
      "inputs": [
        {
          "indexed": true,
          "internalType": "address",
          "name": "owner",
          "type": "address"
        },
        {
          "indexed": true,
          "internalType": "address",
          "name": "approved",
          "type": "address"
        },
        {
          "indexed": true,
          "internalType": "uint256",
          "name": "tokenId",
          "type": "uint256"
        }
      ],
      "name": "Approval",
      "type": "event"
    },
    {
      "anonymous": false,
      "inputs": [
        {
          "indexed": true,
          "internalType": "address",
          "name": "owner",
          "type": "address"
        },
        {
          "indexed": true,
          "internalType": "address",
          "name": "operator",
          "type": "address"
        },
        {
          "indexed": false,
          "internalType": "bool",
          "name": "approved",
          "type": "bool"
        }
      ],
      "name": "ApprovalForAll",
      "type": "event"
    },
    {
      "anonymous": false,
      "inputs": [
        {
          "indexed": true,
          "internalType": "address",
          "name": "previousOwner",
          "type": "address"
        },
        {
          "indexed": true,
          "internalType": "address",
          "name": "newOwner",
          "type": "address"
        }
      ],
      "name": "OwnershipTransferred",
      "type": "event"
    },
    {
      "anonymous": false,
      "inputs": [
        {
          "indexed": true,
          "internalType": "address",
          "name": "from",
          "type": "address"
        },
        {
          "indexed": true,
          "internalType": "address",
          "name": "to",
          "type": "address"
        },
        {
          "indexed": true,
          "internalType": "uint256",
          "name": "tokenId",
          "type": "uint256"
        }
      ],
      "name": "Transfer",
      "type": "event"
    },
    {
      "inputs": [
        {
          "internalType": "address",
          "name": "to",
          "type": "address"
        },
        {
          "internalType": "uint256",
          "name": "tokenId",
          "type": "uint256"
        }
      ],
      "name": "approve",
      "outputs": [],
      "stateMutability": "nonpayable",
      "type": "function"
    },
    {
      "inputs": [
        {
          "internalType": "address",
          "name": "owner",
          "type": "address"
        }
      ],
      "name": "balanceOf",
      "outputs": [
        {
          "internalType": "uint256",
          "name": "",
          "type": "uint256"
        }
      ],
      "stateMutability": "view",
      "type": "function",
      "constant": true
    },
    {
      "inputs": [
        {
          "internalType": "uint256",
          "name": "tokenId",
          "type": "uint256"
        }
      ],
      "name": "getApproved",
      "outputs": [
        {
          "internalType": "address",
          "name": "",
          "type": "address"
        }
      ],
      "stateMutability": "view",
      "type": "function",
      "constant": true
    },
    {
      "inputs": [
        {
          "internalType": "address",
          "name": "owner",
          "type": "address"
        },
        {
          "internalType": "address",
          "name": "operator",
          "type": "address"
        }
      ],
      "name": "isApprovedForAll",
      "outputs": [
        {
          "internalType": "bool",
          "name": "",
          "type": "bool"
        }
      ],
      "stateMutability": "view",
      "type": "function",
      "constant": true
    },
    {
      "inputs": [],
      "name": "name",
      "outputs": [
        {
          "internalType": "string",
          "name": "",
          "type": "string"
        }
      ],
      "stateMutability": "view",
      "type": "function",
      "constant": true
    },
    {
      "inputs": [],
      "name": "owner",
      "outputs": [
        {
          "internalType": "address",
          "name": "",
          "type": "address"
        }
      ],
      "stateMutability": "view",
      "type": "function",
      "constant": true
    },
    {
      "inputs": [
        {
          "internalType": "uint256",
          "name": "tokenId",
          "type": "uint256"
        }
      ],
      "name": "ownerOf",
      "outputs": [
        {
          "internalType": "address",
          "name": "",
          "type": "address"
        }
      ],
      "stateMutability": "view",
      "type": "function",
      "constant": true
    },
    {
      "inputs": [],
      "name": "renounceOwnership",
      "outputs": [],
      "stateMutability": "nonpayable",
      "type": "function"
    },
    {
      "inputs": [
        {
          "internalType": "address",
          "name": "from",
          "type": "address"
        },
        {
          "internalType": "address",
          "name": "to",
          "type": "address"
        },
        {
          "internalType": "uint256",
          "name": "tokenId",
          "type": "uint256"
        }
      ],
      "name": "safeTransferFrom",
      "outputs": [],
      "stateMutability": "nonpayable",
      "type": "function"
    },
    {
      "inputs": [
        {
          "internalType": "address",
          "name": "from",
          "type": "address"
        },
        {
          "internalType": "address",
          "name": "to",
          "type": "address"
        },
        {
          "internalType": "uint256",
          "name": "tokenId",
          "type": "uint256"
        },
        {
          "internalType": "bytes",
          "name": "data",
          "type": "bytes"
        }
      ],
      "name": "safeTransferFrom",
      "outputs": [],
      "stateMutability": "nonpayable",
      "type": "function"
    },
    {
      "inputs": [
        {
          "internalType": "address",
          "name": "operator",
          "type": "address"
        },
        {
          "internalType": "bool",
          "name": "approved",
          "type": "bool"
        }
      ],
      "name": "setApprovalForAll",
      "outputs": [],
      "stateMutability": "nonpayable",
      "type": "function"
    },
    {
      "inputs": [
        {
          "internalType": "bytes4",
          "name": "interfaceId",
          "type": "bytes4"
        }
      ],
      "name": "supportsInterface",
      "outputs": [
        {
          "internalType": "bool",
          "name": "",
          "type": "bool"
        }
      ],
      "stateMutability": "view",
      "type": "function",
      "constant": true
    },
    {
      "inputs": [],
      "name": "symbol",
      "outputs": [
        {
          "internalType": "string",
          "name": "",
          "type": "string"
        }
      ],
      "stateMutability": "view",
      "type": "function",
      "constant": true
    },
    {
      "inputs": [
        {
          "internalType": "uint256",
          "name": "tokenId",
          "type": "uint256"
        }
      ],
      "name": "tokenURI",
      "outputs": [
        {
          "internalType": "string",
          "name": "",
          "type": "string"
        }
      ],
      "stateMutability": "view",
      "type": "function",
      "constant": true
    },
    {
      "inputs": [
        {
          "internalType": "address",
          "name": "from",
          "type": "address"
        },
        {
          "internalType": "address",
          "name": "to",
          "type": "address"
        },
        {
          "internalType": "uint256",
          "name": "tokenId",
          "type": "uint256"
        }
      ],
      "name": "transferFrom",
      "outputs": [],
      "stateMutability": "nonpayable",
      "type": "function"
    },
    {
      "inputs": [
        {
          "internalType": "address",
          "name": "newOwner",
          "type": "address"
        }
      ],
      "name": "transferOwnership",
      "outputs": [],
      "stateMutability": "nonpayable",
      "type": "function"
    },
    {
      "inputs": [
        {
          "internalType": "string",
          "name": "tokenURI",
          "type": "string"
        }
      ],
      "name": "mintNFT",
      "outputs": [
        {
          "internalType": "uint256",
          "name": "",
          "type": "uint256"
        }
      ],
      "stateMutability": "nonpayable",
      "type": "function"
    },
    {
      "inputs": [],
      "name": "totalSupply",
      "outputs": [
        {
          "internalType": "uint256",
          "name": "",
          "type": "uint256"
        }
      ],
      "stateMutability": "view",
      "type": "function",
      "constant": true
    }
  ],
  "bytecode": "0x60806040523480156200001157600080fd5b506040518060400160405280600681526020017f4d794e46547300000000000000000000000000000000000000000000000000008152506040518060400160405280600481526020017f4d4e465400000000000000000000000000000000000000000000000000000000815250816000908051906020019062000096929190620001a6565b508060019080519060200190620000af929190620001a6565b505050620000d2620000c6620000d860201b60201c565b620000e060201b60201c565b620002bb565b600033905090565b6000600760009054906101000a900473ffffffffffffffffffffffffffffffffffffffff16905081600760006101000a81548173ffffffffffffffffffffffffffffffffffffffff021916908373ffffffffffffffffffffffffffffffffffffffff1602179055508173ffffffffffffffffffffffffffffffffffffffff168173ffffffffffffffffffffffffffffffffffffffff167f8be0079c531659141344cd1fd0a4f28419497f9722a3daafe3b4186f6b6457e060405160405180910390a35050565b828054620001b49062000285565b90600052602060002090601f016020900481019282620001d8576000855562000224565b82601f10620001f357805160ff191683800117855562000224565b8280016001018555821562000224579182015b828111156200022357825182559160200191906001019062000206565b5b50905062000233919062000237565b5090565b5b808211156200025257600081600090555060010162000238565b5090565b7f4e487b7100000000000000000000000000000000000000000000000000000000600052602260045260246000fd5b600060028204905060018216806200029e57607f821691505b60208210811415620002b557620002b462000256565b5b50919050565b612c3e80620002cb6000396000f3fe608060405234801561001057600080fd5b50600436106101165760003560e01c8063715018a6116100a2578063b88d4fde11610071578063b88d4fde146102cd578063c87b56dd146102e9578063e985e9c514610319578063f2fde38b14610349578063fb37e8831461036557610116565b8063715018a61461026b5780638da5cb5b1461027557806395d89b4114610293578063a22cb465146102b157610116565b806318160ddd116100e957806318160ddd146101b557806323b872dd146101d357806342842e0e146101ef5780636352211e1461020b57806370a082311461023b57610116565b806301ffc9a71461011b57806306fdde031461014b578063081812fc14610169578063095ea7b314610199575b600080fd5b61013560048036038101906101309190611b23565b610395565b6040516101429190611b6b565b60405180910390f35b610153610477565b6040516101609190611c1f565b60405180910390f35b610183600480360381019061017e9190611c77565b610509565b6040516101909190611ce5565b60405180910390f35b6101b360048036038101906101ae9190611d2c565b61054f565b005b6101bd610667565b6040516101ca9190611d7b565b60405180910390f35b6101ed60048036038101906101e89190611d96565b610671565b005b61020960048036038101906102049190611d96565b6106d1565b005b61022560048036038101906102209190611c77565b6106f1565b6040516102329190611ce5565b60405180910390f35b61025560048036038101906102509190611de9565b6107a3565b6040516102629190611d7b565b60405180910390f35b61027361085b565b005b61027d61086f565b60405161028a9190611ce5565b60405180910390f35b61029b610899565b6040516102a89190611c1f565b60405180910390f35b6102cb60048036038101906102c69190611e42565b61092b565b005b6102e760048036038101906102e29190611fb7565b610941565b005b61030360048036038101906102fe9190611c77565b6109a3565b6040516103109190611c1f565b60405180910390f35b610333600480360381019061032e919061203a565b610ab6565b6040516103409190611b6b565b60405180910390f35b610363600480360381019061035e9190611de9565b610b4a565b005b61037f600480360381019061037a919061211b565b610bce565b60405161038c9190611d7b565b60405180910390f35b60007f80ac58cd000000000000000000000000000000000000000000000000000000007bffffffffffffffffffffffffffffffffffffffffffffffffffffffff1916827bffffffffffffffffffffffffffffffffffffffffffffffffffffffff1916148061046057507f5b5e139f000000000000000000000000000000000000000000000000000000007bffffffffffffffffffffffffffffffffffffffffffffffffffffffff1916827bffffffffffffffffffffffffffffffffffffffffffffffffffffffff1916145b80610470575061046f82610c22565b5b9050919050565b60606000805461048690612193565b80601f01602080910402602001604051908101604052809291908181526020018280546104b290612193565b80156104ff5780601f106104d4576101008083540402835291602001916104ff565b820191906000526020600020905b8154815290600101906020018083116104e257829003601f168201915b5050505050905090565b600061051482610c8c565b6004600083815260200190815260200160002060009054906101000a900473ffffffffffffffffffffffffffffffffffffffff169050919050565b600061055a826106f1565b90508073ffffffffffffffffffffffffffffffffffffffff168373ffffffffffffffffffffffffffffffffffffffff1614156105cb576040517f08c379a00000000000000000000000000000000000000000000000000000000081526004016105c290612237565b60405180910390fd5b8073ffffffffffffffffffffffffffffffffffffffff166105ea610cd7565b73ffffffffffffffffffffffffffffffffffffffff161480610619575061061881610613610cd7565b610ab6565b5b610658576040517f08c379a000000000000000000000000000000000000000000000000000000000815260040161064f906122c9565b60405180910390fd5b6106628383610cdf565b505050565b6000600954905090565b61068261067c610cd7565b82610d98565b6106c1576040517f08c379a00000000000000000000000000000000000000000000000000000000081526004016106b89061235b565b60405180910390fd5b6106cc838383610e2d565b505050565b6106ec83838360405180602001604052806000815250610941565b505050565b6000806002600084815260200190815260200160002060009054906101000a900473ffffffffffffffffffffffffffffffffffffffff169050600073ffffffffffffffffffffffffffffffffffffffff168173ffffffffffffffffffffffffffffffffffffffff16141561079a576040517f08c379a0000000000000000000000000000000000000000000000000000000008152600401610791906123c7565b60405180910390fd5b80915050919050565b60008073ffffffffffffffffffffffffffffffffffffffff168273ffffffffffffffffffffffffffffffffffffffff161415610814576040517f08c379a000000000000000000000000000000000000000000000000000000000815260040161080b90612459565b60405180910390fd5b600360008373ffffffffffffffffffffffffffffffffffffffff1673ffffffffffffffffffffffffffffffffffffffff168152602001908152602001600020549050919050565b610863611094565b61086d6000611112565b565b6000600760009054906101000a900473ffffffffffffffffffffffffffffffffffffffff16905090565b6060600180546108a890612193565b80601f01602080910402602001604051908101604052809291908181526020018280546108d490612193565b80156109215780601f106108f657610100808354040283529160200191610921565b820191906000526020600020905b81548152906001019060200180831161090457829003601f168201915b5050505050905090565b61093d610936610cd7565b83836111d8565b5050565b61095261094c610cd7565b83610d98565b610991576040517f08c379a00000000000000000000000000000000000000000000000000000000081526004016109889061235b565b60405180910390fd5b61099d84848484611345565b50505050565b60606109ae82610c8c565b60006006600084815260200190815260200160002080546109ce90612193565b80601f01602080910402602001604051908101604052809291908181526020018280546109fa90612193565b8015610a475780601f10610a1c57610100808354040283529160200191610a47565b820191906000526020600020905b815481529060010190602001808311610a2a57829003601f168201915b505050505090506000610a586113a1565b9050600081511415610a6e578192505050610ab1565b600082511115610aa3578082604051602001610a8b9291906124b5565b60405160208183030381529060405292505050610ab1565b610aac846113b8565b925050505b919050565b6000600560008473ffffffffffffffffffffffffffffffffffffffff1673ffffffffffffffffffffffffffffffffffffffff16815260200190815260200160002060008373ffffffffffffffffffffffffffffffffffffffff1673ffffffffffffffffffffffffffffffffffffffff16815260200190815260200160002060009054906101000a900460ff16905092915050565b610b52611094565b600073ffffffffffffffffffffffffffffffffffffffff168173ffffffffffffffffffffffffffffffffffffffff161415610bc2576040517f08c379a0000000000000000000000000000000000000000000000000000000008152600401610bb99061254b565b60405180910390fd5b610bcb81611112565b50565b6000610bd8611094565b610be26008611420565b6001600954610bf1919061259a565b6009819055506000610c036008611436565b9050610c0f3382611444565b610c19818461161e565b80915050919050565b60007f01ffc9a7000000000000000000000000000000000000000000000000000000007bffffffffffffffffffffffffffffffffffffffffffffffffffffffff1916827bffffffffffffffffffffffffffffffffffffffffffffffffffffffff1916149050919050565b610c9581611692565b610cd4576040517f08c379a0000000000000000000000000000000000000000000000000000000008152600401610ccb906123c7565b60405180910390fd5b50565b600033905090565b816004600083815260200190815260200160002060006101000a81548173ffffffffffffffffffffffffffffffffffffffff021916908373ffffffffffffffffffffffffffffffffffffffff160217905550808273ffffffffffffffffffffffffffffffffffffffff16610d52836106f1565b73ffffffffffffffffffffffffffffffffffffffff167f8c5be1e5ebec7d5bd14f71427d1e84f3dd0314c0f7b2291e5b200ac8c7c3b92560405160405180910390a45050565b600080610da4836106f1565b90508073ffffffffffffffffffffffffffffffffffffffff168473ffffffffffffffffffffffffffffffffffffffff161480610de65750610de58185610ab6565b5b80610e2457508373ffffffffffffffffffffffffffffffffffffffff16610e0c84610509565b73ffffffffffffffffffffffffffffffffffffffff16145b91505092915050565b8273ffffffffffffffffffffffffffffffffffffffff16610e4d826106f1565b73ffffffffffffffffffffffffffffffffffffffff1614610ea3576040517f08c379a0000000000000000000000000000000000000000000000000000000008152600401610e9a90612662565b60405180910390fd5b600073ffffffffffffffffffffffffffffffffffffffff168273ffffffffffffffffffffffffffffffffffffffff161415610f13576040517f08c379a0000000000000000000000000000000000000000000000000000000008152600401610f0a906126f4565b60405180910390fd5b610f1e8383836116fe565b610f29600082610cdf565b6001600360008573ffffffffffffffffffffffffffffffffffffffff1673ffffffffffffffffffffffffffffffffffffffff1681526020019081526020016000206000828254610f799190612714565b925050819055506001600360008473ffffffffffffffffffffffffffffffffffffffff1673ffffffffffffffffffffffffffffffffffffffff1681526020019081526020016000206000828254610fd0919061259a565b92505081905550816002600083815260200190815260200160002060006101000a81548173ffffffffffffffffffffffffffffffffffffffff021916908373ffffffffffffffffffffffffffffffffffffffff160217905550808273ffffffffffffffffffffffffffffffffffffffff168473ffffffffffffffffffffffffffffffffffffffff167fddf252ad1be2c89b69c2b068fc378daa952ba7f163c4a11628f55a4df523b3ef60405160405180910390a461108f838383611703565b505050565b61109c610cd7565b73ffffffffffffffffffffffffffffffffffffffff166110ba61086f565b73ffffffffffffffffffffffffffffffffffffffff1614611110576040517f08c379a000000000000000000000000000000000000000000000000000000000815260040161110790612794565b60405180910390fd5b565b6000600760009054906101000a900473ffffffffffffffffffffffffffffffffffffffff16905081600760006101000a81548173ffffffffffffffffffffffffffffffffffffffff021916908373ffffffffffffffffffffffffffffffffffffffff1602179055508173ffffffffffffffffffffffffffffffffffffffff168173ffffffffffffffffffffffffffffffffffffffff167f8be0079c531659141344cd1fd0a4f28419497f9722a3daafe3b4186f6b6457e060405160405180910390a35050565b8173ffffffffffffffffffffffffffffffffffffffff168373ffffffffffffffffffffffffffffffffffffffff161415611247576040517f08c379a000000000000000000000000000000000000000000000000000000000815260040161123e90612800565b60405180910390fd5b80600560008573ffffffffffffffffffffffffffffffffffffffff1673ffffffffffffffffffffffffffffffffffffffff16815260200190815260200160002060008473ffffffffffffffffffffffffffffffffffffffff1673ffffffffffffffffffffffffffffffffffffffff16815260200190815260200160002060006101000a81548160ff0219169083151502179055508173ffffffffffffffffffffffffffffffffffffffff168373ffffffffffffffffffffffffffffffffffffffff167f17307eab39ab6107e8899845ad3d59bd9653f200f220920489ca2b5937696c31836040516113389190611b6b565b60405180910390a3505050565b611350848484610e2d565b61135c84848484611708565b61139b576040517f08c379a000000000000000000000000000000000000000000000000000000000815260040161139290612892565b60405180910390fd5b50505050565b606060405180602001604052806000815250905090565b60606113c382610c8c565b60006113cd6113a1565b905060008151116113ed5760405180602001604052806000815250611418565b806113f784611890565b6040516020016114089291906124b5565b6040516020818303038152906040525b915050919050565b6001816000016000828254019250508190555050565b600081600001549050919050565b600073ffffffffffffffffffffffffffffffffffffffff168273ffffffffffffffffffffffffffffffffffffffff1614156114b4576040517f08c379a00000000000000000000000000000000000000000000000000000000081526004016114ab906128fe565b60405180910390fd5b6114bd81611692565b156114fd576040517f08c379a00000000000000000000000000000000000000000000000000000000081526004016114f49061296a565b60405180910390fd5b611509600083836116fe565b6001600360008473ffffffffffffffffffffffffffffffffffffffff1673ffffffffffffffffffffffffffffffffffffffff1681526020019081526020016000206000828254611559919061259a565b92505081905550816002600083815260200190815260200160002060006101000a81548173ffffffffffffffffffffffffffffffffffffffff021916908373ffffffffffffffffffffffffffffffffffffffff160217905550808273ffffffffffffffffffffffffffffffffffffffff16600073ffffffffffffffffffffffffffffffffffffffff167fddf252ad1be2c89b69c2b068fc378daa952ba7f163c4a11628f55a4df523b3ef60405160405180910390a461161a60008383611703565b5050565b61162782611692565b611666576040517f08c379a000000000000000000000000000000000000000000000000000000000815260040161165d906129fc565b60405180910390fd5b8060066000848152602001908152602001600020908051906020019061168d929190611a14565b505050565b60008073ffffffffffffffffffffffffffffffffffffffff166002600084815260200190815260200160002060009054906101000a900473ffffffffffffffffffffffffffffffffffffffff1673ffffffffffffffffffffffffffffffffffffffff1614159050919050565b505050565b505050565b60006117298473ffffffffffffffffffffffffffffffffffffffff166119f1565b15611883578373ffffffffffffffffffffffffffffffffffffffff1663150b7a02611752610cd7565b8786866040518563ffffffff1660e01b81526004016117749493929190612a71565b6020604051808303816000875af19250505080156117b057506040513d601f19601f820116820180604052508101906117ad9190612ad2565b60015b611833573d80600081146117e0576040519150601f19603f3d011682016040523d82523d6000602084013e6117e5565b606091505b5060008151141561182b576040517f08c379a000000000000000000000000000000000000000000000000000000000815260040161182290612892565b60405180910390fd5b805181602001fd5b63150b7a0260e01b7bffffffffffffffffffffffffffffffffffffffffffffffffffffffff1916817bffffffffffffffffffffffffffffffffffffffffffffffffffffffff191614915050611888565b600190505b949350505050565b606060008214156118d8576040518060400160405280600181526020017f300000000000000000000000000000000000000000000000000000000000000081525090506119ec565b600082905060005b6000821461190a5780806118f390612aff565b915050600a826119039190612b77565b91506118e0565b60008167ffffffffffffffff81111561192657611925611e8c565b5b6040519080825280601f01601f1916602001820160405280156119585781602001600182028036833780820191505090505b5090505b600085146119e5576001826119719190612714565b9150600a856119809190612ba8565b603061198c919061259a565b60f81b8183815181106119a2576119a1612bd9565b5b60200101907effffffffffffffffffffffffffffffffffffffffffffffffffffffffffffff1916908160001a905350600a856119de9190612b77565b945061195c565b8093505050505b919050565b6000808273ffffffffffffffffffffffffffffffffffffffff163b119050919050565b828054611a2090612193565b90600052602060002090601f016020900481019282611a425760008555611a89565b82601f10611a5b57805160ff1916838001178555611a89565b82800160010185558215611a89579182015b82811115611a88578251825591602001919060010190611a6d565b5b509050611a969190611a9a565b5090565b5b80821115611ab3576000816000905550600101611a9b565b5090565b6000604051905090565b600080fd5b600080fd5b60007fffffffff0000000000000000000000000000000000000000000000000000000082169050919050565b611b0081611acb565b8114611b0b57600080fd5b50565b600081359050611b1d81611af7565b92915050565b600060208284031215611b3957611b38611ac1565b5b6000611b4784828501611b0e565b91505092915050565b60008115159050919050565b611b6581611b50565b82525050565b6000602082019050611b806000830184611b5c565b92915050565b600081519050919050565b600082825260208201905092915050565b60005b83811015611bc0578082015181840152602081019050611ba5565b83811115611bcf576000848401525b50505050565b6000601f19601f8301169050919050565b6000611bf182611b86565b611bfb8185611b91565b9350611c0b818560208601611ba2565b611c1481611bd5565b840191505092915050565b60006020820190508181036000830152611c398184611be6565b905092915050565b6000819050919050565b611c5481611c41565b8114611c5f57600080fd5b50565b600081359050611c7181611c4b565b92915050565b600060208284031215611c8d57611c8c611ac1565b5b6000611c9b84828501611c62565b91505092915050565b600073ffffffffffffffffffffffffffffffffffffffff82169050919050565b6000611ccf82611ca4565b9050919050565b611cdf81611cc4565b82525050565b6000602082019050611cfa6000830184611cd6565b92915050565b611d0981611cc4565b8114611d1457600080fd5b50565b600081359050611d2681611d00565b92915050565b60008060408385031215611d4357611d42611ac1565b5b6000611d5185828601611d17565b9250506020611d6285828601611c62565b9150509250929050565b611d7581611c41565b82525050565b6000602082019050611d906000830184611d6c565b92915050565b600080600060608486031215611daf57611dae611ac1565b5b6000611dbd86828701611d17565b9350506020611dce86828701611d17565b9250506040611ddf86828701611c62565b9150509250925092565b600060208284031215611dff57611dfe611ac1565b5b6000611e0d84828501611d17565b91505092915050565b611e1f81611b50565b8114611e2a57600080fd5b50565b600081359050611e3c81611e16565b92915050565b60008060408385031215611e5957611e58611ac1565b5b6000611e6785828601611d17565b9250506020611e7885828601611e2d565b9150509250929050565b600080fd5b600080fd5b7f4e487b7100000000000000000000000000000000000000000000000000000000600052604160045260246000fd5b611ec482611bd5565b810181811067ffffffffffffffff82111715611ee357611ee2611e8c565b5b80604052505050565b6000611ef6611ab7565b9050611f028282611ebb565b919050565b600067ffffffffffffffff821115611f2257611f21611e8c565b5b611f2b82611bd5565b9050602081019050919050565b82818337600083830152505050565b6000611f5a611f5584611f07565b611eec565b905082815260208101848484011115611f7657611f75611e87565b5b611f81848285611f38565b509392505050565b600082601f830112611f9e57611f9d611e82565b5b8135611fae848260208601611f47565b91505092915050565b60008060008060808587031215611fd157611fd0611ac1565b5b6000611fdf87828801611d17565b9450506020611ff087828801611d17565b935050604061200187828801611c62565b925050606085013567ffffffffffffffff81111561202257612021611ac6565b5b61202e87828801611f89565b91505092959194509250565b6000806040838503121561205157612050611ac1565b5b600061205f85828601611d17565b925050602061207085828601611d17565b9150509250929050565b600067ffffffffffffffff82111561209557612094611e8c565b5b61209e82611bd5565b9050602081019050919050565b60006120be6120b98461207a565b611eec565b9050828152602081018484840111156120da576120d9611e87565b5b6120e5848285611f38565b509392505050565b600082601f83011261210257612101611e82565b5b81356121128482602086016120ab565b91505092915050565b60006020828403121561213157612130611ac1565b5b600082013567ffffffffffffffff81111561214f5761214e611ac6565b5b61215b848285016120ed565b91505092915050565b7f4e487b7100000000000000000000000000000000000000000000000000000000600052602260045260246000fd5b600060028204905060018216806121ab57607f821691505b602082108114156121bf576121be612164565b5b50919050565b7f4552433732313a20617070726f76616c20746f2063757272656e74206f776e6560008201527f7200000000000000000000000000000000000000000000000000000000000000602082015250565b6000612221602183611b91565b915061222c826121c5565b604082019050919050565b6000602082019050818103600083015261225081612214565b9050919050565b7f4552433732313a20617070726f76652063616c6c6572206973206e6f7420746f60008201527f6b656e206f776e6572206e6f7220617070726f76656420666f7220616c6c0000602082015250565b60006122b3603e83611b91565b91506122be82612257565b604082019050919050565b600060208201905081810360008301526122e2816122a6565b9050919050565b7f4552433732313a2063616c6c6572206973206e6f7420746f6b656e206f776e6560008201527f72206e6f7220617070726f766564000000000000000000000000000000000000602082015250565b6000612345602e83611b91565b9150612350826122e9565b604082019050919050565b6000602082019050818103600083015261237481612338565b9050919050565b7f4552433732313a20696e76616c696420746f6b656e2049440000000000000000600082015250565b60006123b1601883611b91565b91506123bc8261237b565b602082019050919050565b600060208201905081810360008301526123e0816123a4565b9050919050565b7f4552433732313a2061646472657373207a65726f206973206e6f74206120766160008201527f6c6964206f776e65720000000000000000000000000000000000000000000000602082015250565b6000612443602983611b91565b915061244e826123e7565b604082019050919050565b6000602082019050818103600083015261247281612436565b9050919050565b600081905092915050565b600061248f82611b86565b6124998185612479565b93506124a9818560208601611ba2565b80840191505092915050565b60006124c18285612484565b91506124cd8284612484565b91508190509392505050565b7f4f776e61626c653a206e6577206f776e657220697320746865207a65726f206160008201527f6464726573730000000000000000000000000000000000000000000000000000602082015250565b6000612535602683611b91565b9150612540826124d9565b604082019050919050565b6000602082019050818103600083015261256481612528565b9050919050565b7f4e487b7100000000000000000000000000000000000000000000000000000000600052601160045260246000fd5b60006125a582611c41565b91506125b083611c41565b9250827fffffffffffffffffffffffffffffffffffffffffffffffffffffffffffffffff038211156125e5576125e461256b565b5b828201905092915050565b7f4552433732313a207472616e736665722066726f6d20696e636f72726563742060008201527f6f776e6572000000000000000000000000000000000000000000000000000000602082015250565b600061264c602583611b91565b9150612657826125f0565b604082019050919050565b6000602082019050818103600083015261267b8161263f565b9050919050565b7f4552433732313a207472616e7366657220746f20746865207a65726f2061646460008201527f7265737300000000000000000000000000000000000000000000000000000000602082015250565b60006126de602483611b91565b91506126e982612682565b604082019050919050565b6000602082019050818103600083015261270d816126d1565b9050919050565b600061271f82611c41565b915061272a83611c41565b92508282101561273d5761273c61256b565b5b828203905092915050565b7f4f776e61626c653a2063616c6c6572206973206e6f7420746865206f776e6572600082015250565b600061277e602083611b91565b915061278982612748565b602082019050919050565b600060208201905081810360008301526127ad81612771565b9050919050565b7f4552433732313a20617070726f766520746f2063616c6c657200000000000000600082015250565b60006127ea601983611b91565b91506127f5826127b4565b602082019050919050565b60006020820190508181036000830152612819816127dd565b9050919050565b7f4552433732313a207472616e7366657220746f206e6f6e20455243373231526560008201527f63656976657220696d706c656d656e7465720000000000000000000000000000602082015250565b600061287c603283611b91565b915061288782612820565b604082019050919050565b600060208201905081810360008301526128ab8161286f565b9050919050565b7f4552433732313a206d696e7420746f20746865207a65726f2061646472657373600082015250565b60006128e8602083611b91565b91506128f3826128b2565b602082019050919050565b60006020820190508181036000830152612917816128db565b9050919050565b7f4552433732313a20746f6b656e20616c7265616479206d696e74656400000000600082015250565b6000612954601c83611b91565b915061295f8261291e565b602082019050919050565b6000602082019050818103600083015261298381612947565b9050919050565b7f45524337323155524953746f726167653a2055524920736574206f66206e6f6e60008201527f6578697374656e7420746f6b656e000000000000000000000000000000000000602082015250565b60006129e6602e83611b91565b91506129f18261298a565b604082019050919050565b60006020820190508181036000830152612a15816129d9565b9050919050565b600081519050919050565b600082825260208201905092915050565b6000612a4382612a1c565b612a4d8185612a27565b9350612a5d818560208601611ba2565b612a6681611bd5565b840191505092915050565b6000608082019050612a866000830187611cd6565b612a936020830186611cd6565b612aa06040830185611d6c565b8181036060830152612ab28184612a38565b905095945050505050565b600081519050612acc81611af7565b92915050565b600060208284031215612ae857612ae7611ac1565b5b6000612af684828501612abd565b91505092915050565b6000612b0a82611c41565b91507fffffffffffffffffffffffffffffffffffffffffffffffffffffffffffffffff821415612b3d57612b3c61256b565b5b600182019050919050565b7f4e487b7100000000000000000000000000000000000000000000000000000000600052601260045260246000fd5b6000612b8282611c41565b9150612b8d83611c41565b925082612b9d57612b9c612b48565b5b828204905092915050565b6000612bb382611c41565b9150612bbe83611c41565b925082612bce57612bcd612b48565b5b828206905092915050565b7f4e487b7100000000000000000000000000000000000000000000000000000000600052603260045260246000fdfea2646970667358221220b6b7fc425bad38eb7b5c74f9d402b17d14d0611762b092ac38492a1f1631bfa564736f6c634300080a0033",
  "immutableReferences": {},
  "source": "//Contract based on [https://docs.openzeppelin.com/contracts/3.x/erc721](https://docs.openzeppelin.com/contracts/3.x/erc721)\n// SPDX-License-Identifier: MIT\npragma solidity ^0.8.7;\n\nimport \"@openzeppelin/contracts/token/ERC721/ERC721.sol\";\nimport \"@openzeppelin/contracts/utils/Counters.sol\";\nimport \"@openzeppelin/contracts/access/Ownable.sol\";\nimport \"@openzeppelin/contracts/token/ERC721/extensions/ERC721URIStorage.sol\";\n\ncontract EatNFTs is ERC721URIStorage, Ownable {\n    using Counters for Counters.Counter;\n    Counters.Counter private _tokenIds;\n    uint256 private _totalSupply;\n\n    constructor() public ERC721(\"MyNFTs\", \"MNFT\") {}\n\n    function mintNFT(string memory tokenURI)\n        public\n        onlyOwner\n        returns (uint256)\n    {\n        _tokenIds.increment();\n        _totalSupply = _totalSupply + 1;\n        uint256 newItemId = _tokenIds.current();\n        _mint(msg.sender, newItemId);\n        _setTokenURI(newItemId, tokenURI);\n\n        return newItemId;\n    }\n\n    function totalSupply() public view returns (uint256) {\n        return _totalSupply;\n    }\n}\n",
  "sourcePath": "/Users/odongjae/Desktop/2022Study/codestates/project/beb-05-Bills/smart-contract/contracts/NFT.sol",
  "compiler": {
    "name": "solc",
    "version": "0.8.10+commit.fc410830.Emscripten.clang"
  },
  "schemaVersion": "3.4.9",
  "updatedAt": "2022-08-26T04:35:42.236Z",
  "networkType": "ethereum",
  "devdoc": {
    "kind": "dev",
    "methods": {
      "approve(address,uint256)": {
        "details": "See {IERC721-approve}."
      },
      "balanceOf(address)": {
        "details": "See {IERC721-balanceOf}."
      },
      "getApproved(uint256)": {
        "details": "See {IERC721-getApproved}."
      },
      "isApprovedForAll(address,address)": {
        "details": "See {IERC721-isApprovedForAll}."
      },
      "name()": {
        "details": "See {IERC721Metadata-name}."
      },
      "owner()": {
        "details": "Returns the address of the current owner."
      },
      "ownerOf(uint256)": {
        "details": "See {IERC721-ownerOf}."
      },
      "renounceOwnership()": {
        "details": "Leaves the contract without owner. It will not be possible to call `onlyOwner` functions anymore. Can only be called by the current owner. NOTE: Renouncing ownership will leave the contract without an owner, thereby removing any functionality that is only available to the owner."
      },
      "safeTransferFrom(address,address,uint256)": {
        "details": "See {IERC721-safeTransferFrom}."
      },
      "safeTransferFrom(address,address,uint256,bytes)": {
        "details": "See {IERC721-safeTransferFrom}."
      },
      "setApprovalForAll(address,bool)": {
        "details": "See {IERC721-setApprovalForAll}."
      },
      "supportsInterface(bytes4)": {
        "details": "See {IERC165-supportsInterface}."
      },
      "symbol()": {
        "details": "See {IERC721Metadata-symbol}."
      },
      "tokenURI(uint256)": {
        "details": "See {IERC721Metadata-tokenURI}."
      },
      "transferFrom(address,address,uint256)": {
        "details": "See {IERC721-transferFrom}."
      },
      "transferOwnership(address)": {
        "details": "Transfers ownership of the contract to a new account (`newOwner`). Can only be called by the current owner."
      }
    },
    "version": 1
  },
  "userdoc": {
    "kind": "user",
    "methods": {},
    "version": 1
  }
}