{
  "contractName": "EAToken",
  "abi": [
    {
      "inputs": [],
      "stateMutability": "nonpayable",
      "type": "constructor"
    },
    {
      "anonymous": false,
      "inputs": [
        {
          "indexed": true,
          "internalType": "address",
          "name": "owner",
          "type": "address"
        },
        {
          "indexed": true,
          "internalType": "address",
          "name": "spender",
          "type": "address"
        },
        {
          "indexed": false,
          "internalType": "uint256",
          "name": "amount",
          "type": "uint256"
        }
      ],
      "name": "Approval",
      "type": "event"
    },
    {
      "anonymous": false,
      "inputs": [
        {
          "indexed": true,
          "internalType": "address",
          "name": "from",
          "type": "address"
        },
        {
          "indexed": true,
          "internalType": "address",
          "name": "to",
          "type": "address"
        },
        {
          "indexed": false,
          "internalType": "uint256",
          "name": "amount",
          "type": "uint256"
        }
      ],
      "name": "Transfer",
      "type": "event"
    },
    {
      "anonymous": false,
      "inputs": [
        {
          "indexed": true,
          "internalType": "address",
          "name": "spender",
          "type": "address"
        },
        {
          "indexed": true,
          "internalType": "address",
          "name": "from",
          "type": "address"
        },
        {
          "indexed": true,
          "internalType": "address",
          "name": "to",
          "type": "address"
        },
        {
          "indexed": false,
          "internalType": "uint256",
          "name": "amount",
          "type": "uint256"
        }
      ],
      "name": "Transfer",
      "type": "event"
    },
    {
      "inputs": [
        {
          "internalType": "address",
          "name": "",
          "type": "address"
        },
        {
          "internalType": "address",
          "name": "",
          "type": "address"
        }
      ],
      "name": "_allowances",
      "outputs": [
        {
          "internalType": "uint256",
          "name": "",
          "type": "uint256"
        }
      ],
      "stateMutability": "view",
      "type": "function",
      "constant": true
    },
    {
      "inputs": [],
      "name": "_decimals",
      "outputs": [
        {
          "internalType": "uint8",
          "name": "",
          "type": "uint8"
        }
      ],
      "stateMutability": "view",
      "type": "function",
      "constant": true
    },
    {
      "inputs": [],
      "name": "_name",
      "outputs": [
        {
          "internalType": "string",
          "name": "",
          "type": "string"
        }
      ],
      "stateMutability": "view",
      "type": "function",
      "constant": true
    },
    {
      "inputs": [],
      "name": "_symbol",
      "outputs": [
        {
          "internalType": "string",
          "name": "",
          "type": "string"
        }
      ],
      "stateMutability": "view",
      "type": "function",
      "constant": true
    },
    {
      "inputs": [],
      "name": "_totalSupply",
      "outputs": [
        {
          "internalType": "uint256",
          "name": "",
          "type": "uint256"
        }
      ],
      "stateMutability": "view",
      "type": "function",
      "constant": true
    },
    {
      "inputs": [],
      "name": "marketAddr",
      "outputs": [
        {
          "internalType": "address",
          "name": "",
          "type": "address"
        }
      ],
      "stateMutability": "view",
      "type": "function",
      "constant": true
    },
    {
      "inputs": [],
      "name": "name",
      "outputs": [
        {
          "internalType": "string",
          "name": "",
          "type": "string"
        }
      ],
      "stateMutability": "view",
      "type": "function",
      "constant": true
    },
    {
      "inputs": [],
      "name": "symbol",
      "outputs": [
        {
          "internalType": "string",
          "name": "",
          "type": "string"
        }
      ],
      "stateMutability": "view",
      "type": "function",
      "constant": true
    },
    {
      "inputs": [],
      "name": "decimals",
      "outputs": [
        {
          "internalType": "uint8",
          "name": "",
          "type": "uint8"
        }
      ],
      "stateMutability": "view",
      "type": "function",
      "constant": true
    },
    {
      "inputs": [],
      "name": "totalSupply",
      "outputs": [
        {
          "internalType": "uint256",
          "name": "",
          "type": "uint256"
        }
      ],
      "stateMutability": "view",
      "type": "function",
      "constant": true
    },
    {
      "inputs": [
        {
          "internalType": "address",
          "name": "account",
          "type": "address"
        }
      ],
      "name": "balanceOf",
      "outputs": [
        {
          "internalType": "uint256",
          "name": "",
          "type": "uint256"
        }
      ],
      "stateMutability": "view",
      "type": "function",
      "constant": true
    },
    {
      "inputs": [
        {
          "internalType": "address",
          "name": "recipient",
          "type": "address"
        },
        {
          "internalType": "uint256",
          "name": "amount",
          "type": "uint256"
        }
      ],
      "name": "transfer",
      "outputs": [
        {
          "internalType": "bool",
          "name": "",
          "type": "bool"
        }
      ],
      "stateMutability": "nonpayable",
      "type": "function"
    },
    {
      "inputs": [
        {
          "internalType": "address",
          "name": "owner",
          "type": "address"
        },
        {
          "internalType": "address",
          "name": "spender",
          "type": "address"
        }
      ],
      "name": "allowance",
      "outputs": [
        {
          "internalType": "uint256",
          "name": "",
          "type": "uint256"
        }
      ],
      "stateMutability": "view",
      "type": "function",
      "constant": true
    },
    {
      "inputs": [
        {
          "internalType": "address",
          "name": "spender",
          "type": "address"
        },
        {
          "internalType": "uint256",
          "name": "amount",
          "type": "uint256"
        }
      ],
      "name": "approve",
      "outputs": [
        {
          "internalType": "bool",
          "name": "",
          "type": "bool"
        }
      ],
      "stateMutability": "nonpayable",
      "type": "function"
    },
    {
      "inputs": [
        {
          "internalType": "address",
          "name": "marketaddr",
          "type": "address"
        }
      ],
      "name": "setMarketAddr",
      "outputs": [
        {
          "internalType": "bool",
          "name": "",
          "type": "bool"
        }
      ],
      "stateMutability": "nonpayable",
      "type": "function"
    },
    {
      "inputs": [
        {
          "internalType": "address",
          "name": "sender",
          "type": "address"
        },
        {
          "internalType": "address",
          "name": "recipient",
          "type": "address"
        },
        {
          "internalType": "uint256",
          "name": "amount",
          "type": "uint256"
        }
      ],
      "name": "transferFrom",
      "outputs": [
        {
          "internalType": "bool",
          "name": "",
          "type": "bool"
        }
      ],
      "stateMutability": "nonpayable",
      "type": "function"
    },
    {
      "inputs": [
        {
          "internalType": "address",
          "name": "from",
          "type": "address"
        },
        {
          "internalType": "address",
          "name": "to",
          "type": "address"
        },
        {
          "internalType": "uint256",
          "name": "amount",
          "type": "uint256"
        }
      ],
      "name": "transferWithMarket",
      "outputs": [
        {
          "internalType": "bool",
          "name": "",
          "type": "bool"
        }
      ],
      "stateMutability": "nonpayable",
      "type": "function"
    }
  ],
  "bytecode": "0x60806040523480156200001157600080fd5b506040518060400160405280600781526020017f4541546f6b656e00000000000000000000000000000000000000000000000000815250600590805190602001906200005f92919062000168565b506040518060400160405280600381526020017f454154000000000000000000000000000000000000000000000000000000000081525060069080519060200190620000ad92919062000168565b506012600760006101000a81548160ff021916908360ff1602179055506a52b7d2dcc80cd2e40000006004819055506004546000803373ffffffffffffffffffffffffffffffffffffffff1673ffffffffffffffffffffffffffffffffffffffff1681526020019081526020016000208190555033600360006101000a81548173ffffffffffffffffffffffffffffffffffffffff021916908373ffffffffffffffffffffffffffffffffffffffff1602179055506200027d565b828054620001769062000247565b90600052602060002090601f0160209004810192826200019a5760008555620001e6565b82601f10620001b557805160ff1916838001178555620001e6565b82800160010185558215620001e6579182015b82811115620001e5578251825591602001919060010190620001c8565b5b509050620001f59190620001f9565b5090565b5b8082111562000214576000816000905550600101620001fa565b5090565b7f4e487b7100000000000000000000000000000000000000000000000000000000600052602260045260246000fd5b600060028204905060018216806200026057607f821691505b6020821081141562000277576200027662000218565b5b50919050565b611808806200028d6000396000f3fe608060405234801561001057600080fd5b506004361061010b5760003560e01c806351d31822116100a2578063b09f126611610071578063b09f1266146102e4578063cefa74cc14610302578063d28d885214610320578063dd62ed3e1461033e578063e12163d61461036e5761010b565b806351d318221461023657806370a082311461026657806395d89b4114610296578063a9059cbb146102b45761010b565b806323b872dd116100de57806323b872dd146101ac578063313ce567146101dc57806332424aa3146101fa5780633eaaf86b146102185761010b565b8063024c2ddd1461011057806306fdde0314610140578063095ea7b31461015e57806318160ddd1461018e575b600080fd5b61012a60048036038101906101259190610f76565b61039e565b6040516101379190610fcf565b60405180910390f35b6101486103c3565b6040516101559190611083565b60405180910390f35b610178600480360381019061017391906110d1565b610455565b604051610185919061112c565b60405180910390f35b610196610471565b6040516101a39190610fcf565b60405180910390f35b6101c660048036038101906101c19190611147565b61047b565b6040516101d3919061112c565b60405180910390f35b6101e46105ea565b6040516101f191906111b6565b60405180910390f35b610202610601565b60405161020f91906111b6565b60405180910390f35b610220610614565b60405161022d9190610fcf565b60405180910390f35b610250600480360381019061024b91906111d1565b61061a565b60405161025d919061112c565b60405180910390f35b610280600480360381019061027b91906111d1565b6106f6565b60405161028d9190610fcf565b60405180910390f35b61029e61073e565b6040516102ab9190611083565b60405180910390f35b6102ce60048036038101906102c991906110d1565b6107d0565b6040516102db919061112c565b60405180910390f35b6102ec61084c565b6040516102f99190611083565b60405180910390f35b61030a6108da565b604051610317919061120d565b60405180910390f35b610328610900565b6040516103359190611083565b60405180910390f35b61035860048036038101906103539190610f76565b61098e565b6040516103659190610fcf565b60405180910390f35b61038860048036038101906103839190611147565b610a15565b604051610395919061112c565b60405180910390f35b6001602052816000526040600020602052806000526040600020600091509150505481565b6060600580546103d290611257565b80601f01602080910402602001604051908101604052809291908181526020018280546103fe90611257565b801561044b5780601f106104205761010080835404028352916020019161044b565b820191906000526020600020905b81548152906001019060200180831161042e57829003601f168201915b5050505050905090565b600080339050610466818585610b39565b600191505092915050565b6000600454905090565b6000610488848484610d04565b8273ffffffffffffffffffffffffffffffffffffffff168473ffffffffffffffffffffffffffffffffffffffff163373ffffffffffffffffffffffffffffffffffffffff167fd1398bee19313d6bf672ccb116e51f4a1a947e91c757907f51fbb5b5e56c698f856040516104fc9190610fcf565b60405180910390a46000600160008673ffffffffffffffffffffffffffffffffffffffff1673ffffffffffffffffffffffffffffffffffffffff16815260200190815260200160002060003373ffffffffffffffffffffffffffffffffffffffff1673ffffffffffffffffffffffffffffffffffffffff168152602001908152602001600020549050828110156105c8576040517f08c379a00000000000000000000000000000000000000000000000000000000081526004016105bf906112fb565b60405180910390fd5b6105de853385846105d9919061134a565b610b39565b60019150509392505050565b6000600760009054906101000a900460ff16905090565b600760009054906101000a900460ff1681565b60045481565b6000600360009054906101000a900473ffffffffffffffffffffffffffffffffffffffff1673ffffffffffffffffffffffffffffffffffffffff163373ffffffffffffffffffffffffffffffffffffffff16146106ac576040517f08c379a00000000000000000000000000000000000000000000000000000000081526004016106a3906113f0565b60405180910390fd5b81600260006101000a81548173ffffffffffffffffffffffffffffffffffffffff021916908373ffffffffffffffffffffffffffffffffffffffff16021790555060019050919050565b60008060008373ffffffffffffffffffffffffffffffffffffffff1673ffffffffffffffffffffffffffffffffffffffff168152602001908152602001600020549050919050565b60606006805461074d90611257565b80601f016020809104026020016040519081016040528092919081815260200182805461077990611257565b80156107c65780601f1061079b576101008083540402835291602001916107c6565b820191906000526020600020905b8154815290600101906020018083116107a957829003601f168201915b5050505050905090565b60006107dd338484610d04565b8273ffffffffffffffffffffffffffffffffffffffff163373ffffffffffffffffffffffffffffffffffffffff167fddf252ad1be2c89b69c2b068fc378daa952ba7f163c4a11628f55a4df523b3ef8460405161083a9190610fcf565b60405180910390a36001905092915050565b6006805461085990611257565b80601f016020809104026020016040519081016040528092919081815260200182805461088590611257565b80156108d25780601f106108a7576101008083540402835291602001916108d2565b820191906000526020600020905b8154815290600101906020018083116108b557829003601f168201915b505050505081565b600260009054906101000a900473ffffffffffffffffffffffffffffffffffffffff1681565b6005805461090d90611257565b80601f016020809104026020016040519081016040528092919081815260200182805461093990611257565b80156109865780601f1061095b57610100808354040283529160200191610986565b820191906000526020600020905b81548152906001019060200180831161096957829003601f168201915b505050505081565b6000600160008473ffffffffffffffffffffffffffffffffffffffff1673ffffffffffffffffffffffffffffffffffffffff16815260200190815260200160002060008373ffffffffffffffffffffffffffffffffffffffff1673ffffffffffffffffffffffffffffffffffffffff16815260200190815260200160002054905092915050565b6000600260009054906101000a900473ffffffffffffffffffffffffffffffffffffffff1673ffffffffffffffffffffffffffffffffffffffff163373ffffffffffffffffffffffffffffffffffffffff1614610aa7576040517f08c379a0000000000000000000000000000000000000000000000000000000008152600401610a9e90611482565b60405180910390fd5b610ab2848484610d04565b8273ffffffffffffffffffffffffffffffffffffffff168473ffffffffffffffffffffffffffffffffffffffff163373ffffffffffffffffffffffffffffffffffffffff167fd1398bee19313d6bf672ccb116e51f4a1a947e91c757907f51fbb5b5e56c698f85604051610b269190610fcf565b60405180910390a4600190509392505050565b600073ffffffffffffffffffffffffffffffffffffffff168373ffffffffffffffffffffffffffffffffffffffff161415610ba9576040517f08c379a0000000000000000000000000000000000000000000000000000000008152600401610ba090611514565b60405180910390fd5b600073ffffffffffffffffffffffffffffffffffffffff168273ffffffffffffffffffffffffffffffffffffffff161415610c19576040517f08c379a0000000000000000000000000000000000000000000000000000000008152600401610c10906115a6565b60405180910390fd5b80600160008573ffffffffffffffffffffffffffffffffffffffff1673ffffffffffffffffffffffffffffffffffffffff16815260200190815260200160002060008473ffffffffffffffffffffffffffffffffffffffff1673ffffffffffffffffffffffffffffffffffffffff168152602001908152602001600020819055508173ffffffffffffffffffffffffffffffffffffffff168373ffffffffffffffffffffffffffffffffffffffff167f8c5be1e5ebec7d5bd14f71427d1e84f3dd0314c0f7b2291e5b200ac8c7c3b92583604051610cf79190610fcf565b60405180910390a3505050565b600073ffffffffffffffffffffffffffffffffffffffff168373ffffffffffffffffffffffffffffffffffffffff161415610d74576040517f08c379a0000000000000000000000000000000000000000000000000000000008152600401610d6b90611638565b60405180910390fd5b600073ffffffffffffffffffffffffffffffffffffffff168273ffffffffffffffffffffffffffffffffffffffff161415610de4576040517f08c379a0000000000000000000000000000000000000000000000000000000008152600401610ddb906116ca565b60405180910390fd5b60008060008573ffffffffffffffffffffffffffffffffffffffff1673ffffffffffffffffffffffffffffffffffffffff16815260200190815260200160002054905081811015610e6a576040517f08c379a0000000000000000000000000000000000000000000000000000000008152600401610e619061175c565b60405180910390fd5b8181610e76919061134a565b6000808673ffffffffffffffffffffffffffffffffffffffff1673ffffffffffffffffffffffffffffffffffffffff16815260200190815260200160002081905550816000808573ffffffffffffffffffffffffffffffffffffffff1673ffffffffffffffffffffffffffffffffffffffff1681526020019081526020016000206000828254610f06919061177c565b9250508190555050505050565b600080fd5b600073ffffffffffffffffffffffffffffffffffffffff82169050919050565b6000610f4382610f18565b9050919050565b610f5381610f38565b8114610f5e57600080fd5b50565b600081359050610f7081610f4a565b92915050565b60008060408385031215610f8d57610f8c610f13565b5b6000610f9b85828601610f61565b9250506020610fac85828601610f61565b9150509250929050565b6000819050919050565b610fc981610fb6565b82525050565b6000602082019050610fe46000830184610fc0565b92915050565b600081519050919050565b600082825260208201905092915050565b60005b83811015611024578082015181840152602081019050611009565b83811115611033576000848401525b50505050565b6000601f19601f8301169050919050565b600061105582610fea565b61105f8185610ff5565b935061106f818560208601611006565b61107881611039565b840191505092915050565b6000602082019050818103600083015261109d818461104a565b905092915050565b6110ae81610fb6565b81146110b957600080fd5b50565b6000813590506110cb816110a5565b92915050565b600080604083850312156110e8576110e7610f13565b5b60006110f685828601610f61565b9250506020611107858286016110bc565b9150509250929050565b60008115159050919050565b61112681611111565b82525050565b6000602082019050611141600083018461111d565b92915050565b6000806000606084860312156111605761115f610f13565b5b600061116e86828701610f61565b935050602061117f86828701610f61565b9250506040611190868287016110bc565b9150509250925092565b600060ff82169050919050565b6111b08161119a565b82525050565b60006020820190506111cb60008301846111a7565b92915050565b6000602082840312156111e7576111e6610f13565b5b60006111f584828501610f61565b91505092915050565b61120781610f38565b82525050565b600060208201905061122260008301846111fe565b92915050565b7f4e487b7100000000000000000000000000000000000000000000000000000000600052602260045260246000fd5b6000600282049050600182168061126f57607f821691505b6020821081141561128357611282611228565b5b50919050565b7f45524332303a207472616e7366657220616d6f756e742065786365656473206160008201527f6c6c6f77616e6365000000000000000000000000000000000000000000000000602082015250565b60006112e5602883610ff5565b91506112f082611289565b604082019050919050565b60006020820190508181036000830152611314816112d8565b9050919050565b7f4e487b7100000000000000000000000000000000000000000000000000000000600052601160045260246000fd5b600061135582610fb6565b915061136083610fb6565b9250828210156113735761137261131b565b5b828203905092915050565b7f54686973742046756e6374696f6e206973204f6e6c792063616c6c656420627960008201527f2073657276657200000000000000000000000000000000000000000000000000602082015250565b60006113da602783610ff5565b91506113e58261137e565b604082019050919050565b60006020820190508181036000830152611409816113cd565b9050919050565b7f54686973742046756e6374696f6e206973204f6e6c792063616c6c656420627960008201527f206d61726b657400000000000000000000000000000000000000000000000000602082015250565b600061146c602783610ff5565b915061147782611410565b604082019050919050565b6000602082019050818103600083015261149b8161145f565b9050919050565b7f45524332303a20617070726f76652066726f6d20746865207a65726f2061646460008201527f7265737300000000000000000000000000000000000000000000000000000000602082015250565b60006114fe602483610ff5565b9150611509826114a2565b604082019050919050565b6000602082019050818103600083015261152d816114f1565b9050919050565b7f45524332303a20617070726f766520746f20746865207a65726f20616464726560008201527f7373000000000000000000000000000000000000000000000000000000000000602082015250565b6000611590602283610ff5565b915061159b82611534565b604082019050919050565b600060208201905081810360008301526115bf81611583565b9050919050565b7f45524332303a207472616e736665722066726f6d20746865207a65726f20616460008201527f6472657373000000000000000000000000000000000000000000000000000000602082015250565b6000611622602583610ff5565b915061162d826115c6565b604082019050919050565b6000602082019050818103600083015261165181611615565b9050919050565b7f45524332303a207472616e7366657220746f20746865207a65726f206164647260008201527f6573730000000000000000000000000000000000000000000000000000000000602082015250565b60006116b4602383610ff5565b91506116bf82611658565b604082019050919050565b600060208201905081810360008301526116e3816116a7565b9050919050565b7f45524332303a207472616e7366657220616d6f756e742065786365656473206260008201527f616c616e63650000000000000000000000000000000000000000000000000000602082015250565b6000611746602683610ff5565b9150611751826116ea565b604082019050919050565b6000602082019050818103600083015261177581611739565b9050919050565b600061178782610fb6565b915061179283610fb6565b9250827fffffffffffffffffffffffffffffffffffffffffffffffffffffffffffffffff038211156117c7576117c661131b565b5b82820190509291505056fea264697066735822122051b6c0e2df0d8842b18bfa276f0a8e0aad724f7faacbcb9bc1cf52317d99785f64736f6c634300080a0033",
  "immutableReferences": {},
  "source": "// SPDX-License-Identifier: GPL-3.0\npragma solidity ^0.8.0;\n\ninterface ERC20Interface {\n    function totalSupply() external view returns (uint256);\n\n    function balanceOf(address account) external view returns (uint256);\n\n    function transfer(address recipient, uint256 amount)\n        external\n        returns (bool);\n\n    function approve(address spender, uint256 amount) external returns (bool);\n\n    function allowance(address owner, address spender)\n        external\n        view\n        returns (uint256);\n\n    function transferFrom(\n        address spender,\n        address recipient,\n        uint256 amount\n    ) external returns (bool);\n\n    event Transfer(address indexed from, address indexed to, uint256 amount);\n    event Transfer(\n        address indexed spender,\n        address indexed from,\n        address indexed to,\n        uint256 amount\n    );\n    event Approval(\n        address indexed owner,\n        address indexed spender,\n        uint256 amount\n    );\n}\n\ncontract EAToken is ERC20Interface {\n    mapping(address => uint256) private _balances;\n    mapping(address => mapping(address => uint256)) public _allowances;\n    address public marketAddr;\n    address private _serverAddr;\n\n    uint256 public _totalSupply;\n    string public _name;\n    string public _symbol;\n    uint8 public _decimals;\n\n    constructor() {\n        _name = \"EAToken\";\n        _symbol = \"EAT\";\n        _decimals = 18;\n        _totalSupply = 100000000e18;\n        _balances[msg.sender] = _totalSupply;\n        _serverAddr = msg.sender;\n    }\n\n    function name() public view returns (string memory) {\n        return _name;\n    }\n\n    function symbol() public view returns (string memory) {\n        return _symbol;\n    }\n\n    function decimals() public view returns (uint8) {\n        return _decimals;\n    }\n\n    // ERC20   \n    function totalSupply() external view virtual override returns (uint256) {\n        return _totalSupply;\n    }\n\n    // Owner   \n    function balanceOf(address account)\n        external\n        view\n        virtual\n        override\n        returns (uint256)\n    {\n        return _balances[account];\n    }\n\n    // ERC20 \n    function transfer(address recipient, uint256 amount)\n        public\n        virtual\n        override\n        returns (bool)\n    {\n        _transfer(msg.sender, recipient, amount);\n        emit Transfer(msg.sender, recipient, amount);\n        return true;\n    }\n\n    //\n    // owner spender     \n    function allowance(address owner, address spender)\n        external\n        view\n        override\n        returns (uint256)\n    {\n        return _allowances[owner][spender];\n    }\n\n    // spender  value     .\n    //   Approval    .\n    function approve(address spender, uint256 amount)\n        public\n        virtual\n        override\n        returns (bool)\n    {\n        address owner = msg.sender;\n        _approve(owner, spender, amount);\n        return true;\n    }\n\n    function setMarketAddr(address marketaddr) public returns (bool) {\n        require(\n            msg.sender == _serverAddr,\n            \"Thist Function is Only called by server\"\n        );\n        marketAddr = marketaddr;\n        return true;\n    }\n\n    // spender      \n    function transferFrom(\n        address sender,\n        address recipient,\n        uint256 amount\n    ) external virtual override returns (bool) {\n        _transfer(sender, recipient, amount);\n        emit Transfer(msg.sender, sender, recipient, amount);\n        uint256 currentAllowance = _allowances[sender][msg.sender];\n        require(\n            currentAllowance >= amount,\n            \"ERC20: transfer amount exceeds allowance\"\n        );\n        _approve(sender, msg.sender, currentAllowance - amount);\n        return true;\n    }\n\n    function transferWithMarket(\n        address from,\n        address to,\n        uint256 amount\n    ) public returns (bool) {\n        require(\n            msg.sender == marketAddr,\n            \"Thist Function is Only called by market\"\n        );\n        _transfer(from, to, amount);\n        emit Transfer(msg.sender, from, to, amount);\n        return true;\n    }\n\n    function _transfer(\n        address sender,\n        address recipient,\n        uint256 amount\n    ) internal virtual {\n        require(sender != address(0), \"ERC20: transfer from the zero address\");\n        require(recipient != address(0), \"ERC20: transfer to the zero address\");\n        uint256 senderBalance = _balances[sender];\n        require(\n            senderBalance >= amount,\n            \"ERC20: transfer amount exceeds balance\"\n        );\n        _balances[sender] = senderBalance - amount;\n        _balances[recipient] += amount;\n    }\n\n    function _approve(\n        address owner,\n        address spender,\n        uint256 amount\n    ) internal virtual {\n        require(owner != address(0), \"ERC20: approve from the zero address\");\n        require(spender != address(0), \"ERC20: approve to the zero address\");\n\n        _allowances[owner][spender] = amount;\n        emit Approval(owner, spender, amount);\n    }\n}\n",
  "sourcePath": "/Users/odongjae/Desktop/2022Study/codestates/project/beb-05-Bills/smart-contract/contracts/Token.sol",
  "compiler": {
    "name": "solc",
    "version": "0.8.10+commit.fc410830.Emscripten.clang"
  },
  "schemaVersion": "3.4.9",
  "updatedAt": "2022-08-25T08:19:18.196Z",
  "networkType": "ethereum",
  "devdoc": {
    "kind": "dev",
    "methods": {},
    "version": 1
  },
  "userdoc": {
    "kind": "user",
    "methods": {},
    "version": 1
  }
}