{
  "contractName": "ERC1155",
  "abi": [
    {
      "anonymous": false,
      "inputs": [
        {
          "indexed": true,
          "internalType": "address",
          "name": "operator",
          "type": "address"
        },
        {
          "indexed": true,
          "internalType": "address",
          "name": "from",
          "type": "address"
        },
        {
          "indexed": true,
          "internalType": "address",
          "name": "to",
          "type": "address"
        },
        {
          "indexed": false,
          "internalType": "uint256",
          "name": "id",
          "type": "uint256"
        },
        {
          "indexed": false,
          "internalType": "uint256",
          "name": "value",
          "type": "uint256"
        }
      ],
      "name": "TransferSingle",
      "type": "event"
    },
    {
      "inputs": [
        {
          "internalType": "address",
          "name": "account",
          "type": "address"
        },
        {
          "internalType": "uint256",
          "name": "id",
          "type": "uint256"
        }
      ],
      "name": "balanceOf",
      "outputs": [
        {
          "internalType": "uint256",
          "name": "",
          "type": "uint256"
        }
      ],
      "stateMutability": "view",
      "type": "function"
    },
    {
      "inputs": [
        {
          "internalType": "address",
          "name": "from",
          "type": "address"
        },
        {
          "internalType": "address",
          "name": "to",
          "type": "address"
        },
        {
          "internalType": "uint256",
          "name": "id",
          "type": "uint256"
        },
        {
          "internalType": "uint256",
          "name": "amount",
          "type": "uint256"
        },
        {
          "internalType": "bytes",
          "name": "data",
          "type": "bytes"
        }
      ],
      "name": "safeTransferFrom",
      "outputs": [],
      "stateMutability": "nonpayable",
      "type": "function"
    }
  ],
  "bytecode": "0x608060405234801561001057600080fd5b50611141806100206000396000f3fe608060405234801561001057600080fd5b50600436106100355760003560e01c8062fdd58e1461003a578063f242432a1461006a575b600080fd5b610054600480360381019061004f91906107c9565b610086565b6040516100619190610818565b60405180910390f35b610084600480360381019061007f9190610979565b61014f565b005b60008073ffffffffffffffffffffffffffffffffffffffff168373ffffffffffffffffffffffffffffffffffffffff1614156100f7576040517f08c379a00000000000000000000000000000000000000000000000000000000081526004016100ee90610a93565b60405180910390fd5b60008083815260200190815260200160002060008473ffffffffffffffffffffffffffffffffffffffff1673ffffffffffffffffffffffffffffffffffffffff16815260200190815260200160002054905092915050565b61015761020e565b73ffffffffffffffffffffffffffffffffffffffff168573ffffffffffffffffffffffffffffffffffffffff1614806101bb57503073ffffffffffffffffffffffffffffffffffffffff168573ffffffffffffffffffffffffffffffffffffffff16145b6101fa576040517f08c379a00000000000000000000000000000000000000000000000000000000081526004016101f190610b25565b60405180910390fd5b6102078585858585610216565b5050505050565b600033905090565b600073ffffffffffffffffffffffffffffffffffffffff168473ffffffffffffffffffffffffffffffffffffffff161415610286576040517f08c379a000000000000000000000000000000000000000000000000000000000815260040161027d90610bb7565b60405180910390fd5b600061029061020e565b9050600061029d856104b2565b905060006102aa856104b2565b90506102ba83898985858961052c565b600080600088815260200190815260200160002060008a73ffffffffffffffffffffffffffffffffffffffff1673ffffffffffffffffffffffffffffffffffffffff16815260200190815260200160002054905085811015610351576040517f08c379a000000000000000000000000000000000000000000000000000000000815260040161034890610c49565b60405180910390fd5b85810360008089815260200190815260200160002060008b73ffffffffffffffffffffffffffffffffffffffff1673ffffffffffffffffffffffffffffffffffffffff168152602001908152602001600020819055508560008089815260200190815260200160002060008a73ffffffffffffffffffffffffffffffffffffffff1673ffffffffffffffffffffffffffffffffffffffff16815260200190815260200160002060008282546104069190610c98565b925050819055508773ffffffffffffffffffffffffffffffffffffffff168973ffffffffffffffffffffffffffffffffffffffff168573ffffffffffffffffffffffffffffffffffffffff167fc3d58168c5ae7397731d063d5bbf3d657854427343f4c083240f7aacaa2d0f628a8a604051610483929190610cee565b60405180910390a4610499848a8a86868a610534565b6104a7848a8a8a8a8a61053c565b505050505050505050565b60606000600167ffffffffffffffff8111156104d1576104d061084e565b5b6040519080825280602002602001820160405280156104ff5781602001602082028036833780820191505090505b509050828160008151811061051757610516610d17565b5b60200260200101818152505080915050919050565b505050505050565b505050505050565b610545846106fe565b156106f6578373ffffffffffffffffffffffffffffffffffffffff1663f23a6e6187878686866040518663ffffffff1660e01b815260040161058b959493929190610ddd565b6020604051808303816000875af19250505080156105c757506040513d601f19601f820116820180604052508101906105c49190610e8f565b60015b61066d576105d3610ec9565b806308c379a0141561063057506105e8610eeb565b806105f35750610632565b806040517f08c379a00000000000000000000000000000000000000000000000000000000081526004016106279190610fc5565b60405180910390fd5b505b6040517f08c379a000000000000000000000000000000000000000000000000000000000815260040161066490611059565b60405180910390fd5b63f23a6e6160e01b7bffffffffffffffffffffffffffffffffffffffffffffffffffffffff1916817bffffffffffffffffffffffffffffffffffffffffffffffffffffffff1916146106f4576040517f08c379a00000000000000000000000000000000000000000000000000000000081526004016106eb906110eb565b60405180910390fd5b505b505050505050565b6000808273ffffffffffffffffffffffffffffffffffffffff163b119050919050565b6000604051905090565b600080fd5b600080fd5b600073ffffffffffffffffffffffffffffffffffffffff82169050919050565b600061076082610735565b9050919050565b61077081610755565b811461077b57600080fd5b50565b60008135905061078d81610767565b92915050565b6000819050919050565b6107a681610793565b81146107b157600080fd5b50565b6000813590506107c38161079d565b92915050565b600080604083850312156107e0576107df61072b565b5b60006107ee8582860161077e565b92505060206107ff858286016107b4565b9150509250929050565b61081281610793565b82525050565b600060208201905061082d6000830184610809565b92915050565b600080fd5b600080fd5b6000601f19601f8301169050919050565b7f4e487b7100000000000000000000000000000000000000000000000000000000600052604160045260246000fd5b6108868261083d565b810181811067ffffffffffffffff821117156108a5576108a461084e565b5b80604052505050565b60006108b8610721565b90506108c4828261087d565b919050565b600067ffffffffffffffff8211156108e4576108e361084e565b5b6108ed8261083d565b9050602081019050919050565b82818337600083830152505050565b600061091c610917846108c9565b6108ae565b90508281526020810184848401111561093857610937610838565b5b6109438482856108fa565b509392505050565b600082601f8301126109605761095f610833565b5b8135610970848260208601610909565b91505092915050565b600080600080600060a086880312156109955761099461072b565b5b60006109a38882890161077e565b95505060206109b48882890161077e565b94505060406109c5888289016107b4565b93505060606109d6888289016107b4565b925050608086013567ffffffffffffffff8111156109f7576109f6610730565b5b610a038882890161094b565b9150509295509295909350565b600082825260208201905092915050565b7f455243313135353a2061646472657373207a65726f206973206e6f742061207660008201527f616c6964206f776e657200000000000000000000000000000000000000000000602082015250565b6000610a7d602a83610a10565b9150610a8882610a21565b604082019050919050565b60006020820190508181036000830152610aac81610a70565b9050919050565b7f455243313135353a2063616c6c6572206973206e6f7420746f6b656e206f776e60008201527f6572206e6f7220617070726f7665640000000000000000000000000000000000602082015250565b6000610b0f602f83610a10565b9150610b1a82610ab3565b604082019050919050565b60006020820190508181036000830152610b3e81610b02565b9050919050565b7f455243313135353a207472616e7366657220746f20746865207a65726f20616460008201527f6472657373000000000000000000000000000000000000000000000000000000602082015250565b6000610ba1602583610a10565b9150610bac82610b45565b604082019050919050565b60006020820190508181036000830152610bd081610b94565b9050919050565b7f455243313135353a20696e73756666696369656e742062616c616e636520666f60008201527f72207472616e7366657200000000000000000000000000000000000000000000602082015250565b6000610c33602a83610a10565b9150610c3e82610bd7565b604082019050919050565b60006020820190508181036000830152610c6281610c26565b9050919050565b7f4e487b7100000000000000000000000000000000000000000000000000000000600052601160045260246000fd5b6000610ca382610793565b9150610cae83610793565b9250827fffffffffffffffffffffffffffffffffffffffffffffffffffffffffffffffff03821115610ce357610ce2610c69565b5b828201905092915050565b6000604082019050610d036000830185610809565b610d106020830184610809565b9392505050565b7f4e487b7100000000000000000000000000000000000000000000000000000000600052603260045260246000fd5b610d4f81610755565b82525050565b600081519050919050565b600082825260208201905092915050565b60005b83811015610d8f578082015181840152602081019050610d74565b83811115610d9e576000848401525b50505050565b6000610daf82610d55565b610db98185610d60565b9350610dc9818560208601610d71565b610dd28161083d565b840191505092915050565b600060a082019050610df26000830188610d46565b610dff6020830187610d46565b610e0c6040830186610809565b610e196060830185610809565b8181036080830152610e2b8184610da4565b90509695505050505050565b60007fffffffff0000000000000000000000000000000000000000000000000000000082169050919050565b610e6c81610e37565b8114610e7757600080fd5b50565b600081519050610e8981610e63565b92915050565b600060208284031215610ea557610ea461072b565b5b6000610eb384828501610e7a565b91505092915050565b60008160e01c9050919050565b600060033d1115610ee85760046000803e610ee5600051610ebc565b90505b90565b600060443d1015610efb57610f7e565b610f03610721565b60043d036004823e80513d602482011167ffffffffffffffff82111715610f2b575050610f7e565b808201805167ffffffffffffffff811115610f495750505050610f7e565b80602083010160043d038501811115610f66575050505050610f7e565b610f758260200185018661087d565b82955050505050505b90565b600081519050919050565b6000610f9782610f81565b610fa18185610a10565b9350610fb1818560208601610d71565b610fba8161083d565b840191505092915050565b60006020820190508181036000830152610fdf8184610f8c565b905092915050565b7f455243313135353a207472616e7366657220746f206e6f6e204552433131353560008201527f526563656976657220696d706c656d656e746572000000000000000000000000602082015250565b6000611043603483610a10565b915061104e82610fe7565b604082019050919050565b6000602082019050818103600083015261107281611036565b9050919050565b7f455243313135353a204552433131353552656365697665722072656a6563746560008201527f6420746f6b656e73000000000000000000000000000000000000000000000000602082015250565b60006110d5602883610a10565b91506110e082611079565b604082019050919050565b60006020820190508181036000830152611104816110c8565b905091905056fea2646970667358221220b1ef12a8c4f28f27e247ba73a605ce7caa2e9574ca906ac80d539e86485087c664736f6c634300080a0033",
  "immutableReferences": {},
  "source": "// SPDX-License-Identifier: MIT\npragma solidity ^0.8.0;\n\nimport \"./ERC165.sol\";\n\n/**\n * @dev _Available since v3.1._\n */\ninterface IERC1155Receiver is IERC165 {\n    /**\n     * @dev Handles the receipt of a single ERC1155 token type. This function is\n     * called at the end of a `safeTransferFrom` after the balance has been updated.\n     *\n     * NOTE: To accept the transfer, this must return\n     * `bytes4(keccak256(\"onERC1155Received(address,address,uint256,uint256,bytes)\"))`\n     * (i.e. 0xf23a6e61, or its own function selector).\n     *\n     * @param operator The address which initiated the transfer (i.e. msg.sender)\n     * @param from The address which previously owned the token\n     * @param id The ID of the token being transferred\n     * @param value The amount of tokens being transferred\n     * @param data Additional data with no specified format\n     * @return `bytes4(keccak256(\"onERC1155Received(address,address,uint256,uint256,bytes)\"))` if transfer is allowed\n     */\n    function onERC1155Received(\n        address operator,\n        address from,\n        uint256 id,\n        uint256 value,\n        bytes calldata data\n    ) external returns (bytes4);\n}\n\ncontract ERC1155 {\n    // Mapping from token ID to account balances\n    mapping(uint256 => mapping(address => uint256)) private _balances;\n\n    // Mapping from account to operator approvals\n    mapping(address => mapping(address => bool)) private _operatorApprovals;\n\n    event TransferSingle(\n        address indexed operator,\n        address indexed from,\n        address indexed to,\n        uint256 id,\n        uint256 value\n    );\n\n    function isContract(address account) private view returns (bool) {\n        // This method relies on extcodesize/address.code.length, which returns 0\n        // for contracts in construction, since the code is only stored at the end\n        // of the constructor execution.\n\n        return account.code.length > 0;\n    }\n\n    function _msgSender() private view returns (address) {\n        return msg.sender;\n    }\n\n    /**\n     * @dev See {IERC1155-balanceOf}.\n     *\n     * Requirements:\n     *\n     * - `account` cannot be the zero address.\n     */\n    function balanceOf(address account, uint256 id)\n        public\n        view\n        virtual\n        returns (uint256)\n    {\n        require(\n            account != address(0),\n            \"ERC1155: address zero is not a valid owner\"\n        );\n        return _balances[id][account];\n    }\n\n    /**\n     * @dev See {IERC1155-safeTransferFrom}.\n     */\n    function safeTransferFrom(\n        address from,\n        address to,\n        uint256 id,\n        uint256 amount,\n        bytes memory data\n    ) public virtual {\n        require(\n            (from == _msgSender()) || (from == address(this)),\n            \"ERC1155: caller is not token owner nor approved\"\n        );\n        _safeTransferFrom(from, to, id, amount, data);\n    }\n\n    /**\n     * @dev Transfers `amount` tokens of token type `id` from `from` to `to`.\n     *\n     * Emits a {TransferSingle} event.\n     *\n     * Requirements:\n     *\n     * - `to` cannot be the zero address.\n     * - `from` must have a balance of tokens of type `id` of at least `amount`.\n     * - If `to` refers to a smart contract, it must implement {IERC1155Receiver-onERC1155Received} and return the\n     * acceptance magic value.\n     */\n    function _safeTransferFrom(\n        address from,\n        address to,\n        uint256 id,\n        uint256 amount,\n        bytes memory data\n    ) internal virtual {\n        require(to != address(0), \"ERC1155: transfer to the zero address\");\n\n        address operator = _msgSender();\n        uint256[] memory ids = _asSingletonArray(id);\n        uint256[] memory amounts = _asSingletonArray(amount);\n\n        _beforeTokenTransfer(operator, from, to, ids, amounts, data);\n\n        uint256 fromBalance = _balances[id][from];\n        require(\n            fromBalance >= amount,\n            \"ERC1155: insufficient balance for transfer\"\n        );\n        unchecked {\n            _balances[id][from] = fromBalance - amount;\n        }\n        _balances[id][to] += amount;\n\n        emit TransferSingle(operator, from, to, id, amount);\n\n        _afterTokenTransfer(operator, from, to, ids, amounts, data);\n\n        _doSafeTransferAcceptanceCheck(operator, from, to, id, amount, data);\n    }\n\n    /**\n     * @dev Creates `amount` tokens of token type `id`, and assigns them to `to`.\n     *\n     * Emits a {TransferSingle} event.\n     *\n     * Requirements:\n     *\n     * - `to` cannot be the zero address.\n     * - If `to` refers to a smart contract, it must implement {IERC1155Receiver-onERC1155Received} and return the\n     * acceptance magic value.\n     */\n    function _mint(\n        address to,\n        uint256 id,\n        uint256 amount,\n        bytes memory data\n    ) internal virtual {\n        require(to != address(0), \"ERC1155: mint to the zero address\");\n\n        address operator = _msgSender();\n        uint256[] memory ids = _asSingletonArray(id);\n        uint256[] memory amounts = _asSingletonArray(amount);\n\n        _beforeTokenTransfer(operator, address(0), to, ids, amounts, data);\n\n        _balances[id][to] += amount;\n        emit TransferSingle(operator, address(0), to, id, amount);\n\n        _afterTokenTransfer(operator, address(0), to, ids, amounts, data);\n\n        _doSafeTransferAcceptanceCheck(\n            operator,\n            address(0),\n            to,\n            id,\n            amount,\n            data\n        );\n    }\n\n    /**\n     * @dev Destroys `amount` tokens of token type `id` from `from`\n     *\n     * Emits a {TransferSingle} event.\n     *\n     * Requirements:\n     *\n     * - `from` cannot be the zero address.\n     * - `from` must have at least `amount` tokens of token type `id`.\n     */\n    function _burn(\n        address from,\n        uint256 id,\n        uint256 amount\n    ) internal virtual {\n        require(from != address(0), \"ERC1155: burn from the zero address\");\n\n        address operator = _msgSender();\n        uint256[] memory ids = _asSingletonArray(id);\n        uint256[] memory amounts = _asSingletonArray(amount);\n\n        _beforeTokenTransfer(operator, from, address(0), ids, amounts, \"\");\n\n        uint256 fromBalance = _balances[id][from];\n        require(fromBalance >= amount, \"ERC1155: burn amount exceeds balance\");\n        unchecked {\n            _balances[id][from] = fromBalance - amount;\n        }\n\n        emit TransferSingle(operator, from, address(0), id, amount);\n\n        _afterTokenTransfer(operator, from, address(0), ids, amounts, \"\");\n    }\n\n    /**\n     * @dev Hook that is called before any token transfer. This includes minting\n     * and burning, as well as batched variants.\n     *\n     * The same hook is called on both single and batched variants. For single\n     * transfers, the length of the `ids` and `amounts` arrays will be 1.\n     *\n     * Calling conditions (for each `id` and `amount` pair):\n     *\n     * - When `from` and `to` are both non-zero, `amount` of ``from``'s tokens\n     * of token type `id` will be  transferred to `to`.\n     * - When `from` is zero, `amount` tokens of token type `id` will be minted\n     * for `to`.\n     * - when `to` is zero, `amount` of ``from``'s tokens of token type `id`\n     * will be burned.\n     * - `from` and `to` are never both zero.\n     * - `ids` and `amounts` have the same, non-zero length.\n     *\n     * To learn more about hooks, head to xref:ROOT:extending-contracts.adoc#using-hooks[Using Hooks].\n     */\n    function _beforeTokenTransfer(\n        address operator,\n        address from,\n        address to,\n        uint256[] memory ids,\n        uint256[] memory amounts,\n        bytes memory data\n    ) internal virtual {}\n\n    /**\n     * @dev Hook that is called after any token transfer. This includes minting\n     * and burning, as well as batched variants.\n     *\n     * The same hook is called on both single and batched variants. For single\n     * transfers, the length of the `id` and `amount` arrays will be 1.\n     *\n     * Calling conditions (for each `id` and `amount` pair):\n     *\n     * - When `from` and `to` are both non-zero, `amount` of ``from``'s tokens\n     * of token type `id` will be  transferred to `to`.\n     * - When `from` is zero, `amount` tokens of token type `id` will be minted\n     * for `to`.\n     * - when `to` is zero, `amount` of ``from``'s tokens of token type `id`\n     * will be burned.\n     * - `from` and `to` are never both zero.\n     * - `ids` and `amounts` have the same, non-zero length.\n     *\n     * To learn more about hooks, head to xref:ROOT:extending-contracts.adoc#using-hooks[Using Hooks].\n     */\n    function _afterTokenTransfer(\n        address operator,\n        address from,\n        address to,\n        uint256[] memory ids,\n        uint256[] memory amounts,\n        bytes memory data\n    ) internal virtual {}\n\n    function _doSafeTransferAcceptanceCheck(\n        address operator,\n        address from,\n        address to,\n        uint256 id,\n        uint256 amount,\n        bytes memory data\n    ) private {\n        if (isContract(to)) {\n            try\n                IERC1155Receiver(to).onERC1155Received(\n                    operator,\n                    from,\n                    id,\n                    amount,\n                    data\n                )\n            returns (bytes4 response) {\n                if (response != IERC1155Receiver.onERC1155Received.selector) {\n                    revert(\"ERC1155: ERC1155Receiver rejected tokens\");\n                }\n            } catch Error(string memory reason) {\n                revert(reason);\n            } catch {\n                revert(\"ERC1155: transfer to non ERC1155Receiver implementer\");\n            }\n        }\n    }\n\n    function _asSingletonArray(uint256 element)\n        private\n        pure\n        returns (uint256[] memory)\n    {\n        uint256[] memory array = new uint256[](1);\n        array[0] = element;\n\n        return array;\n    }\n}\n\ninterface others {\n    function transferWithMarket(\n        address from,\n        address to,\n        uint256 amount\n    ) external returns (bool);\n}\n\ncontract CouponMarket is ERC1155 {\n    constructor() {\n        _serverAddr = msg.sender;\n        CouponMint(1, 100);\n        CouponMint(2, 50);\n        CouponMint(3, 33);\n        CouponMint(5, 20);\n        CouponMint(10, 10);\n        CouponMint(20, 5);\n    }\n\n    function CouponMint(uint256 discount, uint256 amount) public {\n        require(\n            (msg.sender == _serverAddr) || (msg.sender == address(this)),\n            \"this Function is only called by server\"\n        );\n        _mint(address(this), discount, amount, \"\");\n        _amount[discount] = _amount[discount] + amount;\n        // _safeTransferFrom(msg.sender, marketContract, discount, amount, \"\");\n    }\n\n    address private _serverAddr;\n    mapping(uint256 => uint256) private _amount;\n\n    event Received(\n        address operator,\n        address from,\n        uint256 id,\n        uint256 value,\n        bytes data,\n        uint256 gas\n    );\n\n    function setServerAddr(address addr) public returns (address) {\n        require(\n            msg.sender == _serverAddr,\n            \"this Function is only called by server\"\n        );\n        _serverAddr = addr;\n        return _serverAddr;\n    }\n\n    function serverAddr() public view returns (address) {\n        return _serverAddr;\n    }\n\n    function StocksByDiscount(uint256 discount) public view returns (uint256) {\n        return _amount[discount];\n    }\n\n    function AllStocks()\n        public\n        view\n        returns (uint256[] memory, uint256[] memory)\n    {\n        uint256 balance = HowMuchKindsOfCoupons();\n        uint256[] memory keys = KindsOfCoupons();\n        uint256[] memory discounts = new uint256[](balance);\n        uint256[] memory balances = new uint256[](balance);\n        for (uint256 i = 0; i < balance; i++) {\n            discounts[i] = keys[i];\n            balances[i] = _amount[keys[i]];\n        }\n        return (discounts, balances);\n    }\n\n    function HowMuchKindsOfCoupons() public view returns (uint256) {\n        uint256 res = 0;\n        for (uint256 i = 0; i <= 100; i++) {\n            if (_amount[i] == 0) {\n                continue;\n            }\n            if (_amount[i] != 0) {\n                res = res + 1;\n            }\n        }\n        return res;\n    }\n\n    function KindsOfCoupons() public view returns (uint256[] memory) {\n        uint256 balance = HowMuchKindsOfCoupons();\n        uint256 j = 0;\n        uint256[] memory res = new uint256[](balance);\n        for (uint256 i = 0; i <= 100; i++) {\n            if (_amount[i] == 0) {\n                continue;\n            }\n            res[j] = i;\n            j = j + 1;\n        }\n        return res;\n    }\n\n    function stocksByAccount(address account)\n        public\n        view\n        returns (uint256[] memory, uint256[] memory)\n    {\n        uint256 balance = HowMuchKindsOfCoupons();\n        uint256[] memory keys = KindsOfCoupons();\n        uint256[] memory discounts = new uint256[](balance);\n        uint256[] memory balances = new uint256[](balance);\n        for (uint256 i = 0; i < balance; i++) {\n            uint256 _balance = balanceOf(account, keys[i]);\n            if (_balance != 0) {\n                discounts[i] = keys[i];\n                balances[i] = _balance;\n            }\n        }\n        return (discounts, balances);\n    }\n\n    function buyCoupon(\n        uint256 discount,\n        uint256 amount,\n        uint256 price,\n        address TokenContractAddr\n    ) public payable returns (bool) {\n        // address payable receiver = payable(_seller[discount]);\n        // uint256 price = 70;\n        // receiver.transfer(price);\n\n        others(TokenContractAddr).transferWithMarket(\n            msg.sender,\n            _serverAddr,\n            price\n        );\n\n        safeTransferFrom(address(this), msg.sender, discount, amount, \"0x00\");\n        _reduceAmount(discount, amount);\n        return true;\n    }\n\n    function _reduceAmount(uint256 discount, uint256 amount) private {\n        _amount[discount] = _amount[discount] - amount;\n    }\n}\n",
  "sourcePath": "/Users/odongjae/Desktop/2022Study/codestates/project/beb-05-Bills/smart-contract/contracts/Coupon.sol",
  "compiler": {
    "name": "solc",
    "version": "0.8.10+commit.fc410830.Emscripten.clang"
  },
  "schemaVersion": "3.4.9",
  "updatedAt": "2022-08-26T04:35:38.712Z",
  "devdoc": {
    "kind": "dev",
    "methods": {
      "balanceOf(address,uint256)": {
        "details": "See {IERC1155-balanceOf}. Requirements: - `account` cannot be the zero address."
      },
      "safeTransferFrom(address,address,uint256,uint256,bytes)": {
        "details": "See {IERC1155-safeTransferFrom}."
      }
    },
    "version": 1
  },
  "userdoc": {
    "kind": "user",
    "methods": {},
    "version": 1
  }
}