{
	"contracts/Coupon.sol": {
		"Coupon": {
			"abi": [
				{
					"inputs": [
						{
							"internalType": "string",
							"name": "uri_",
							"type": "string"
						}
					],
					"stateMutability": "nonpayable",
					"type": "constructor"
				},
				{
					"anonymous": false,
					"inputs": [
						{
							"indexed": true,
							"internalType": "address",
							"name": "operator",
							"type": "address"
						},
						{
							"indexed": true,
							"internalType": "address",
							"name": "from",
							"type": "address"
						},
						{
							"indexed": true,
							"internalType": "address",
							"name": "to",
							"type": "address"
						},
						{
							"indexed": false,
							"internalType": "uint256",
							"name": "id",
							"type": "uint256"
						},
						{
							"indexed": false,
							"internalType": "uint256",
							"name": "value",
							"type": "uint256"
						}
					],
					"name": "TransferSingle",
					"type": "event"
				},
				{
					"inputs": [
						{
							"internalType": "uint256",
							"name": "discount",
							"type": "uint256"
						},
						{
							"internalType": "uint256",
							"name": "amount",
							"type": "uint256"
						}
					],
					"name": "CouponMint",
					"outputs": [],
					"stateMutability": "nonpayable",
					"type": "function"
				},
				{
					"inputs": [
						{
							"internalType": "address",
							"name": "account",
							"type": "address"
						},
						{
							"internalType": "uint256",
							"name": "id",
							"type": "uint256"
						}
					],
					"name": "balanceOf",
					"outputs": [
						{
							"internalType": "uint256",
							"name": "",
							"type": "uint256"
						}
					],
					"stateMutability": "view",
					"type": "function"
				},
				{
					"inputs": [
						{
							"internalType": "address",
							"name": "from",
							"type": "address"
						},
						{
							"internalType": "address",
							"name": "to",
							"type": "address"
						},
						{
							"internalType": "uint256",
							"name": "id",
							"type": "uint256"
						},
						{
							"internalType": "uint256",
							"name": "amount",
							"type": "uint256"
						},
						{
							"internalType": "bytes",
							"name": "data",
							"type": "bytes"
						}
					],
					"name": "safeTransferFrom",
					"outputs": [],
					"stateMutability": "nonpayable",
					"type": "function"
				},
				{
					"inputs": [
						{
							"internalType": "address",
							"name": "from",
							"type": "address"
						},
						{
							"internalType": "address",
							"name": "addr",
							"type": "address"
						},
						{
							"internalType": "uint256",
							"name": "discount",
							"type": "uint256"
						},
						{
							"internalType": "uint256",
							"name": "amount",
							"type": "uint256"
						},
						{
							"internalType": "bytes",
							"name": "data",
							"type": "bytes"
						}
					],
					"name": "transf",
					"outputs": [],
					"stateMutability": "nonpayable",
					"type": "function"
				},
				{
					"inputs": [
						{
							"internalType": "uint256",
							"name": "",
							"type": "uint256"
						}
					],
					"name": "uri",
					"outputs": [
						{
							"internalType": "string",
							"name": "",
							"type": "string"
						}
					],
					"stateMutability": "view",
					"type": "function"
				}
			],
			"devdoc": {
				"kind": "dev",
				"methods": {
					"balanceOf(address,uint256)": {
						"details": "See {IERC1155-balanceOf}. Requirements: - `account` cannot be the zero address."
					},
					"constructor": {
						"details": "See {_setURI}."
					},
					"safeTransferFrom(address,address,uint256,uint256,bytes)": {
						"details": "See {IERC1155-safeTransferFrom}."
					},
					"uri(uint256)": {
						"details": "See {IERC1155MetadataURI-uri}. This implementation returns the same URI for *all* token types. It relies on the token type ID substitution mechanism https://eips.ethereum.org/EIPS/eip-1155#metadata[defined in the EIP]. Clients calling this function must replace the `\\{id\\}` substring with the actual token type ID."
					}
				},
				"version": 1
			},
			"evm": {
				"assembly": "    /* \"contracts/Coupon.sol\":2767:13167  contract Coupon {... */\n  mstore(0x40, 0x80)\n    /* \"contracts/Coupon.sol\":3807:3869  constructor(string memory uri_) {... */\n  callvalue\n  dup1\n  iszero\n  tag_1\n  jumpi\n  0x00\n  dup1\n  revert\ntag_1:\n  pop\n  mload(0x40)\n  sub(codesize, bytecodeSize)\n  dup1\n  bytecodeSize\n  dup4\n  codecopy\n  dup2\n  dup2\n  add\n  0x40\n  mstore\n  dup2\n  add\n  swap1\n  tag_2\n  swap2\n  swap1\n  tag_3\n  jump\t// in\ntag_2:\n    /* \"contracts/Coupon.sol\":3849:3862  _setURI(uri_) */\n  tag_6\n    /* \"contracts/Coupon.sol\":3857:3861  uri_ */\n  dup2\n    /* \"contracts/Coupon.sol\":3849:3856  _setURI */\n  shl(0x20, tag_7)\n    /* \"contracts/Coupon.sol\":3849:3862  _setURI(uri_) */\n  0x20\n  shr\n  jump\t// in\ntag_6:\n    /* \"contracts/Coupon.sol\":3807:3869  constructor(string memory uri_) {... */\n  pop\n    /* \"contracts/Coupon.sol\":2767:13167  contract Coupon {... */\n  jump(tag_8)\n    /* \"contracts/Coupon.sol\":7015:7101  function _setURI(string memory newuri) internal virtual {... */\ntag_7:\n    /* \"contracts/Coupon.sol\":7088:7094  newuri */\n  dup1\n    /* \"contracts/Coupon.sol\":7081:7085  _uri */\n  0x02\n    /* \"contracts/Coupon.sol\":7081:7094  _uri = newuri */\n  swap1\n  dup1\n  mload\n  swap1\n  0x20\n  add\n  swap1\n  tag_10\n  swap3\n  swap2\n  swap1\n  tag_11\n  jump\t// in\ntag_10:\n  pop\n    /* \"contracts/Coupon.sol\":7015:7101  function _setURI(string memory newuri) internal virtual {... */\n  pop\n  jump\t// out\n    /* \"contracts/Coupon.sol\":2767:13167  contract Coupon {... */\ntag_11:\n  dup3\n  dup1\n  sload\n  tag_12\n  swap1\n  tag_13\n  jump\t// in\ntag_12:\n  swap1\n  0x00\n  mstore\n  keccak256(0x00, 0x20)\n  swap1\n  0x1f\n  add\n  0x20\n  swap1\n  div\n  dup2\n  add\n  swap3\n  dup3\n  tag_15\n  jumpi\n  0x00\n  dup6\n  sstore\n  jump(tag_14)\ntag_15:\n  dup3\n  0x1f\n  lt\n  tag_16\n  jumpi\n  dup1\n  mload\n  not(0xff)\n  and\n  dup4\n  dup1\n  add\n  or\n  dup6\n  sstore\n  jump(tag_14)\ntag_16:\n  dup3\n  dup1\n  add\n  0x01\n  add\n  dup6\n  sstore\n  dup3\n  iszero\n  tag_14\n  jumpi\n  swap2\n  dup3\n  add\ntag_17:\n  dup3\n  dup2\n  gt\n  iszero\n  tag_18\n  jumpi\n  dup3\n  mload\n  dup3\n  sstore\n  swap2\n  0x20\n  add\n  swap2\n  swap1\n  0x01\n  add\n  swap1\n  jump(tag_17)\ntag_18:\ntag_14:\n  pop\n  swap1\n  pop\n  tag_19\n  swap2\n  swap1\n  tag_20\n  jump\t// in\ntag_19:\n  pop\n  swap1\n  jump\t// out\ntag_20:\ntag_21:\n  dup1\n  dup3\n  gt\n  iszero\n  tag_22\n  jumpi\n  0x00\n  dup2\n  0x00\n  swap1\n  sstore\n  pop\n  0x01\n  add\n  jump(tag_21)\ntag_22:\n  pop\n  swap1\n  jump\t// out\n    /* \"#utility.yul\":7:428   */\ntag_24:\n    /* \"#utility.yul\":96:101   */\n  0x00\n    /* \"#utility.yul\":121:187   */\n  tag_26\n    /* \"#utility.yul\":137:186   */\n  tag_27\n    /* \"#utility.yul\":179:185   */\n  dup5\n    /* \"#utility.yul\":137:186   */\n  tag_28\n  jump\t// in\ntag_27:\n    /* \"#utility.yul\":121:187   */\n  tag_29\n  jump\t// in\ntag_26:\n    /* \"#utility.yul\":112:187   */\n  swap1\n  pop\n    /* \"#utility.yul\":210:216   */\n  dup3\n    /* \"#utility.yul\":203:208   */\n  dup2\n    /* \"#utility.yul\":196:217   */\n  mstore\n    /* \"#utility.yul\":248:252   */\n  0x20\n    /* \"#utility.yul\":241:246   */\n  dup2\n    /* \"#utility.yul\":237:253   */\n  add\n    /* \"#utility.yul\":286:289   */\n  dup5\n    /* \"#utility.yul\":277:283   */\n  dup5\n    /* \"#utility.yul\":272:275   */\n  dup5\n    /* \"#utility.yul\":268:284   */\n  add\n    /* \"#utility.yul\":265:290   */\n  gt\n    /* \"#utility.yul\":262:374   */\n  iszero\n  tag_30\n  jumpi\n    /* \"#utility.yul\":293:372   */\n  tag_31\n  tag_32\n  jump\t// in\ntag_31:\n    /* \"#utility.yul\":262:374   */\ntag_30:\n    /* \"#utility.yul\":383:422   */\n  tag_33\n    /* \"#utility.yul\":415:421   */\n  dup5\n    /* \"#utility.yul\":410:413   */\n  dup3\n    /* \"#utility.yul\":405:408   */\n  dup6\n    /* \"#utility.yul\":383:422   */\n  tag_34\n  jump\t// in\ntag_33:\n    /* \"#utility.yul\":102:428   */\n  pop\n    /* \"#utility.yul\":7:428   */\n  swap4\n  swap3\n  pop\n  pop\n  pop\n  jump\t// out\n    /* \"#utility.yul\":448:803   */\ntag_35:\n    /* \"#utility.yul\":515:520   */\n  0x00\n    /* \"#utility.yul\":564:567   */\n  dup3\n    /* \"#utility.yul\":557:561   */\n  0x1f\n    /* \"#utility.yul\":549:555   */\n  dup4\n    /* \"#utility.yul\":545:562   */\n  add\n    /* \"#utility.yul\":541:568   */\n  slt\n    /* \"#utility.yul\":531:653   */\n  tag_37\n  jumpi\n    /* \"#utility.yul\":572:651   */\n  tag_38\n  tag_39\n  jump\t// in\ntag_38:\n    /* \"#utility.yul\":531:653   */\ntag_37:\n    /* \"#utility.yul\":682:688   */\n  dup2\n    /* \"#utility.yul\":676:689   */\n  mload\n    /* \"#utility.yul\":707:797   */\n  tag_40\n    /* \"#utility.yul\":793:796   */\n  dup5\n    /* \"#utility.yul\":785:791   */\n  dup3\n    /* \"#utility.yul\":778:782   */\n  0x20\n    /* \"#utility.yul\":770:776   */\n  dup7\n    /* \"#utility.yul\":766:783   */\n  add\n    /* \"#utility.yul\":707:797   */\n  tag_24\n  jump\t// in\ntag_40:\n    /* \"#utility.yul\":698:797   */\n  swap2\n  pop\n    /* \"#utility.yul\":521:803   */\n  pop\n    /* \"#utility.yul\":448:803   */\n  swap3\n  swap2\n  pop\n  pop\n  jump\t// out\n    /* \"#utility.yul\":809:1333   */\ntag_3:\n    /* \"#utility.yul\":889:895   */\n  0x00\n    /* \"#utility.yul\":938:940   */\n  0x20\n    /* \"#utility.yul\":926:935   */\n  dup3\n    /* \"#utility.yul\":917:924   */\n  dup5\n    /* \"#utility.yul\":913:936   */\n  sub\n    /* \"#utility.yul\":909:941   */\n  slt\n    /* \"#utility.yul\":906:1025   */\n  iszero\n  tag_42\n  jumpi\n    /* \"#utility.yul\":944:1023   */\n  tag_43\n  tag_44\n  jump\t// in\ntag_43:\n    /* \"#utility.yul\":906:1025   */\ntag_42:\n    /* \"#utility.yul\":1085:1086   */\n  0x00\n    /* \"#utility.yul\":1074:1083   */\n  dup3\n    /* \"#utility.yul\":1070:1087   */\n  add\n    /* \"#utility.yul\":1064:1088   */\n  mload\n    /* \"#utility.yul\":1115:1133   */\n  0xffffffffffffffff\n    /* \"#utility.yul\":1107:1113   */\n  dup2\n    /* \"#utility.yul\":1104:1134   */\n  gt\n    /* \"#utility.yul\":1101:1218   */\n  iszero\n  tag_45\n  jumpi\n    /* \"#utility.yul\":1137:1216   */\n  tag_46\n  tag_47\n  jump\t// in\ntag_46:\n    /* \"#utility.yul\":1101:1218   */\ntag_45:\n    /* \"#utility.yul\":1242:1316   */\n  tag_48\n    /* \"#utility.yul\":1308:1315   */\n  dup5\n    /* \"#utility.yul\":1299:1305   */\n  dup3\n    /* \"#utility.yul\":1288:1297   */\n  dup6\n    /* \"#utility.yul\":1284:1306   */\n  add\n    /* \"#utility.yul\":1242:1316   */\n  tag_35\n  jump\t// in\ntag_48:\n    /* \"#utility.yul\":1232:1316   */\n  swap2\n  pop\n    /* \"#utility.yul\":1035:1326   */\n  pop\n    /* \"#utility.yul\":809:1333   */\n  swap3\n  swap2\n  pop\n  pop\n  jump\t// out\n    /* \"#utility.yul\":1339:1468   */\ntag_29:\n    /* \"#utility.yul\":1373:1379   */\n  0x00\n    /* \"#utility.yul\":1400:1420   */\n  tag_50\n  tag_51\n  jump\t// in\ntag_50:\n    /* \"#utility.yul\":1390:1420   */\n  swap1\n  pop\n    /* \"#utility.yul\":1429:1462   */\n  tag_52\n    /* \"#utility.yul\":1457:1461   */\n  dup3\n    /* \"#utility.yul\":1449:1455   */\n  dup3\n    /* \"#utility.yul\":1429:1462   */\n  tag_53\n  jump\t// in\ntag_52:\n    /* \"#utility.yul\":1339:1468   */\n  swap2\n  swap1\n  pop\n  jump\t// out\n    /* \"#utility.yul\":1474:1549   */\ntag_51:\n    /* \"#utility.yul\":1507:1513   */\n  0x00\n    /* \"#utility.yul\":1540:1542   */\n  0x40\n    /* \"#utility.yul\":1534:1543   */\n  mload\n    /* \"#utility.yul\":1524:1543   */\n  swap1\n  pop\n    /* \"#utility.yul\":1474:1549   */\n  swap1\n  jump\t// out\n    /* \"#utility.yul\":1555:1863   */\ntag_28:\n    /* \"#utility.yul\":1617:1621   */\n  0x00\n    /* \"#utility.yul\":1707:1725   */\n  0xffffffffffffffff\n    /* \"#utility.yul\":1699:1705   */\n  dup3\n    /* \"#utility.yul\":1696:1726   */\n  gt\n    /* \"#utility.yul\":1693:1749   */\n  iszero\n  tag_56\n  jumpi\n    /* \"#utility.yul\":1729:1747   */\n  tag_57\n  tag_58\n  jump\t// in\ntag_57:\n    /* \"#utility.yul\":1693:1749   */\ntag_56:\n    /* \"#utility.yul\":1767:1796   */\n  tag_59\n    /* \"#utility.yul\":1789:1795   */\n  dup3\n    /* \"#utility.yul\":1767:1796   */\n  tag_60\n  jump\t// in\ntag_59:\n    /* \"#utility.yul\":1759:1796   */\n  swap1\n  pop\n    /* \"#utility.yul\":1851:1855   */\n  0x20\n    /* \"#utility.yul\":1845:1849   */\n  dup2\n    /* \"#utility.yul\":1841:1856   */\n  add\n    /* \"#utility.yul\":1833:1856   */\n  swap1\n  pop\n    /* \"#utility.yul\":1555:1863   */\n  swap2\n  swap1\n  pop\n  jump\t// out\n    /* \"#utility.yul\":1869:2176   */\ntag_34:\n    /* \"#utility.yul\":1937:1938   */\n  0x00\n    /* \"#utility.yul\":1947:2060   */\ntag_62:\n    /* \"#utility.yul\":1961:1967   */\n  dup4\n    /* \"#utility.yul\":1958:1959   */\n  dup2\n    /* \"#utility.yul\":1955:1968   */\n  lt\n    /* \"#utility.yul\":1947:2060   */\n  iszero\n  tag_64\n  jumpi\n    /* \"#utility.yul\":2046:2047   */\n  dup1\n    /* \"#utility.yul\":2041:2044   */\n  dup3\n    /* \"#utility.yul\":2037:2048   */\n  add\n    /* \"#utility.yul\":2031:2049   */\n  mload\n    /* \"#utility.yul\":2027:2028   */\n  dup2\n    /* \"#utility.yul\":2022:2025   */\n  dup5\n    /* \"#utility.yul\":2018:2029   */\n  add\n    /* \"#utility.yul\":2011:2050   */\n  mstore\n    /* \"#utility.yul\":1983:1985   */\n  0x20\n    /* \"#utility.yul\":1980:1981   */\n  dup2\n    /* \"#utility.yul\":1976:1986   */\n  add\n    /* \"#utility.yul\":1971:1986   */\n  swap1\n  pop\n    /* \"#utility.yul\":1947:2060   */\n  jump(tag_62)\ntag_64:\n    /* \"#utility.yul\":2078:2084   */\n  dup4\n    /* \"#utility.yul\":2075:2076   */\n  dup2\n    /* \"#utility.yul\":2072:2085   */\n  gt\n    /* \"#utility.yul\":2069:2170   */\n  iszero\n  tag_65\n  jumpi\n    /* \"#utility.yul\":2158:2159   */\n  0x00\n    /* \"#utility.yul\":2149:2155   */\n  dup5\n    /* \"#utility.yul\":2144:2147   */\n  dup5\n    /* \"#utility.yul\":2140:2156   */\n  add\n    /* \"#utility.yul\":2133:2160   */\n  mstore\n    /* \"#utility.yul\":2069:2170   */\ntag_65:\n    /* \"#utility.yul\":1918:2176   */\n  pop\n    /* \"#utility.yul\":1869:2176   */\n  pop\n  pop\n  pop\n  jump\t// out\n    /* \"#utility.yul\":2182:2502   */\ntag_13:\n    /* \"#utility.yul\":2226:2232   */\n  0x00\n    /* \"#utility.yul\":2263:2264   */\n  0x02\n    /* \"#utility.yul\":2257:2261   */\n  dup3\n    /* \"#utility.yul\":2253:2265   */\n  div\n    /* \"#utility.yul\":2243:2265   */\n  swap1\n  pop\n    /* \"#utility.yul\":2310:2311   */\n  0x01\n    /* \"#utility.yul\":2304:2308   */\n  dup3\n    /* \"#utility.yul\":2300:2312   */\n  and\n    /* \"#utility.yul\":2331:2349   */\n  dup1\n    /* \"#utility.yul\":2321:2402   */\n  tag_67\n  jumpi\n    /* \"#utility.yul\":2387:2391   */\n  0x7f\n    /* \"#utility.yul\":2379:2385   */\n  dup3\n    /* \"#utility.yul\":2375:2392   */\n  and\n    /* \"#utility.yul\":2365:2392   */\n  swap2\n  pop\n    /* \"#utility.yul\":2321:2402   */\ntag_67:\n    /* \"#utility.yul\":2449:2451   */\n  0x20\n    /* \"#utility.yul\":2441:2447   */\n  dup3\n    /* \"#utility.yul\":2438:2452   */\n  lt\n    /* \"#utility.yul\":2418:2436   */\n  dup2\n    /* \"#utility.yul\":2415:2453   */\n  eq\n    /* \"#utility.yul\":2412:2496   */\n  iszero\n  tag_68\n  jumpi\n    /* \"#utility.yul\":2468:2486   */\n  tag_69\n  tag_70\n  jump\t// in\ntag_69:\n    /* \"#utility.yul\":2412:2496   */\ntag_68:\n    /* \"#utility.yul\":2233:2502   */\n  pop\n    /* \"#utility.yul\":2182:2502   */\n  swap2\n  swap1\n  pop\n  jump\t// out\n    /* \"#utility.yul\":2508:2789   */\ntag_53:\n    /* \"#utility.yul\":2591:2618   */\n  tag_72\n    /* \"#utility.yul\":2613:2617   */\n  dup3\n    /* \"#utility.yul\":2591:2618   */\n  tag_60\n  jump\t// in\ntag_72:\n    /* \"#utility.yul\":2583:2589   */\n  dup2\n    /* \"#utility.yul\":2579:2619   */\n  add\n    /* \"#utility.yul\":2721:2727   */\n  dup2\n    /* \"#utility.yul\":2709:2719   */\n  dup2\n    /* \"#utility.yul\":2706:2728   */\n  lt\n    /* \"#utility.yul\":2685:2703   */\n  0xffffffffffffffff\n    /* \"#utility.yul\":2673:2683   */\n  dup3\n    /* \"#utility.yul\":2670:2704   */\n  gt\n    /* \"#utility.yul\":2667:2729   */\n  or\n    /* \"#utility.yul\":2664:2752   */\n  iszero\n  tag_73\n  jumpi\n    /* \"#utility.yul\":2732:2750   */\n  tag_74\n  tag_58\n  jump\t// in\ntag_74:\n    /* \"#utility.yul\":2664:2752   */\ntag_73:\n    /* \"#utility.yul\":2772:2782   */\n  dup1\n    /* \"#utility.yul\":2768:2770   */\n  0x40\n    /* \"#utility.yul\":2761:2783   */\n  mstore\n    /* \"#utility.yul\":2551:2789   */\n  pop\n    /* \"#utility.yul\":2508:2789   */\n  pop\n  pop\n  jump\t// out\n    /* \"#utility.yul\":2795:2975   */\ntag_70:\n    /* \"#utility.yul\":2843:2920   */\n  0x4e487b7100000000000000000000000000000000000000000000000000000000\n    /* \"#utility.yul\":2840:2841   */\n  0x00\n    /* \"#utility.yul\":2833:2921   */\n  mstore\n    /* \"#utility.yul\":2940:2944   */\n  0x22\n    /* \"#utility.yul\":2937:2938   */\n  0x04\n    /* \"#utility.yul\":2930:2945   */\n  mstore\n    /* \"#utility.yul\":2964:2968   */\n  0x24\n    /* \"#utility.yul\":2961:2962   */\n  0x00\n    /* \"#utility.yul\":2954:2969   */\n  revert\n    /* \"#utility.yul\":2981:3161   */\ntag_58:\n    /* \"#utility.yul\":3029:3106   */\n  0x4e487b7100000000000000000000000000000000000000000000000000000000\n    /* \"#utility.yul\":3026:3027   */\n  0x00\n    /* \"#utility.yul\":3019:3107   */\n  mstore\n    /* \"#utility.yul\":3126:3130   */\n  0x41\n    /* \"#utility.yul\":3123:3124   */\n  0x04\n    /* \"#utility.yul\":3116:3131   */\n  mstore\n    /* \"#utility.yul\":3150:3154   */\n  0x24\n    /* \"#utility.yul\":3147:3148   */\n  0x00\n    /* \"#utility.yul\":3140:3155   */\n  revert\n    /* \"#utility.yul\":3167:3284   */\ntag_39:\n    /* \"#utility.yul\":3276:3277   */\n  0x00\n    /* \"#utility.yul\":3273:3274   */\n  dup1\n    /* \"#utility.yul\":3266:3278   */\n  revert\n    /* \"#utility.yul\":3290:3407   */\ntag_32:\n    /* \"#utility.yul\":3399:3400   */\n  0x00\n    /* \"#utility.yul\":3396:3397   */\n  dup1\n    /* \"#utility.yul\":3389:3401   */\n  revert\n    /* \"#utility.yul\":3413:3530   */\ntag_47:\n    /* \"#utility.yul\":3522:3523   */\n  0x00\n    /* \"#utility.yul\":3519:3520   */\n  dup1\n    /* \"#utility.yul\":3512:3524   */\n  revert\n    /* \"#utility.yul\":3536:3653   */\ntag_44:\n    /* \"#utility.yul\":3645:3646   */\n  0x00\n    /* \"#utility.yul\":3642:3643   */\n  dup1\n    /* \"#utility.yul\":3635:3647   */\n  revert\n    /* \"#utility.yul\":3659:3761   */\ntag_60:\n    /* \"#utility.yul\":3700:3706   */\n  0x00\n    /* \"#utility.yul\":3751:3753   */\n  0x1f\n    /* \"#utility.yul\":3747:3754   */\n  not\n    /* \"#utility.yul\":3742:3744   */\n  0x1f\n    /* \"#utility.yul\":3735:3740   */\n  dup4\n    /* \"#utility.yul\":3731:3745   */\n  add\n    /* \"#utility.yul\":3727:3755   */\n  and\n    /* \"#utility.yul\":3717:3755   */\n  swap1\n  pop\n    /* \"#utility.yul\":3659:3761   */\n  swap2\n  swap1\n  pop\n  jump\t// out\n    /* \"contracts/Coupon.sol\":2767:13167  contract Coupon {... */\ntag_8:\n  dataSize(sub_0)\n  dup1\n  dataOffset(sub_0)\n  0x00\n  codecopy\n  0x00\n  return\nstop\n\nsub_0: assembly {\n        /* \"contracts/Coupon.sol\":2767:13167  contract Coupon {... */\n      mstore(0x40, 0x80)\n      callvalue\n      dup1\n      iszero\n      tag_1\n      jumpi\n      0x00\n      dup1\n      revert\n    tag_1:\n      pop\n      jumpi(tag_2, lt(calldatasize, 0x04))\n      shr(0xe0, calldataload(0x00))\n      dup1\n      0xfdd58e\n      eq\n      tag_3\n      jumpi\n      dup1\n      0x0e89341c\n      eq\n      tag_4\n      jumpi\n      dup1\n      0x57e87575\n      eq\n      tag_5\n      jumpi\n      dup1\n      0xa6f27714\n      eq\n      tag_6\n      jumpi\n      dup1\n      0xf242432a\n      eq\n      tag_7\n      jumpi\n    tag_2:\n      0x00\n      dup1\n      revert\n        /* \"contracts/Coupon.sol\":4504:4792  function balanceOf(address account, uint256 id)... */\n    tag_3:\n      tag_8\n      0x04\n      dup1\n      calldatasize\n      sub\n      dup2\n      add\n      swap1\n      tag_9\n      swap2\n      swap1\n      tag_10\n      jump\t// in\n    tag_9:\n      tag_11\n      jump\t// in\n    tag_8:\n      mload(0x40)\n      tag_12\n      swap2\n      swap1\n      tag_13\n      jump\t// in\n    tag_12:\n      mload(0x40)\n      dup1\n      swap2\n      sub\n      swap1\n      return\n        /* \"contracts/Coupon.sol\":4268:4362  function uri(uint256) public view virtual returns (string memory) {... */\n    tag_4:\n      tag_14\n      0x04\n      dup1\n      calldatasize\n      sub\n      dup2\n      add\n      swap1\n      tag_15\n      swap2\n      swap1\n      tag_16\n      jump\t// in\n    tag_15:\n      tag_17\n      jump\t// in\n    tag_14:\n      mload(0x40)\n      tag_18\n      swap2\n      swap1\n      tag_19\n      jump\t// in\n    tag_18:\n      mload(0x40)\n      dup1\n      swap2\n      sub\n      swap1\n      return\n        /* \"contracts/Coupon.sol\":12742:12939  function CouponMint(uint256 discount, uint256 amount) public {... */\n    tag_5:\n      tag_20\n      0x04\n      dup1\n      calldatasize\n      sub\n      dup2\n      add\n      swap1\n      tag_21\n      swap2\n      swap1\n      tag_22\n      jump\t// in\n    tag_21:\n      tag_23\n      jump\t// in\n    tag_20:\n      stop\n        /* \"contracts/Coupon.sol\":12945:13165  function transf(... */\n    tag_6:\n      tag_24\n      0x04\n      dup1\n      calldatasize\n      sub\n      dup2\n      add\n      swap1\n      tag_25\n      swap2\n      swap1\n      tag_26\n      jump\t// in\n    tag_25:\n      tag_27\n      jump\t// in\n    tag_24:\n      stop\n        /* \"contracts/Coupon.sol\":4859:5205  function safeTransferFrom(... */\n    tag_7:\n      tag_28\n      0x04\n      dup1\n      calldatasize\n      sub\n      dup2\n      add\n      swap1\n      tag_29\n      swap2\n      swap1\n      tag_26\n      jump\t// in\n    tag_29:\n      tag_30\n      jump\t// in\n    tag_28:\n      stop\n        /* \"contracts/Coupon.sol\":4504:4792  function balanceOf(address account, uint256 id)... */\n    tag_11:\n        /* \"contracts/Coupon.sol\":4613:4620  uint256 */\n      0x00\n        /* \"contracts/Coupon.sol\":4676:4677  0 */\n      dup1\n        /* \"contracts/Coupon.sol\":4657:4678  account != address(0) */\n      0xffffffffffffffffffffffffffffffffffffffff\n      and\n        /* \"contracts/Coupon.sol\":4657:4664  account */\n      dup4\n        /* \"contracts/Coupon.sol\":4657:4678  account != address(0) */\n      0xffffffffffffffffffffffffffffffffffffffff\n      and\n      eq\n      iszero\n        /* \"contracts/Coupon.sol\":4636:4746  require(... */\n      tag_32\n      jumpi\n      mload(0x40)\n      0x08c379a000000000000000000000000000000000000000000000000000000000\n      dup2\n      mstore\n      0x04\n      add\n      tag_33\n      swap1\n      tag_34\n      jump\t// in\n    tag_33:\n      mload(0x40)\n      dup1\n      swap2\n      sub\n      swap1\n      revert\n    tag_32:\n        /* \"contracts/Coupon.sol\":4763:4772  _balances */\n      0x00\n        /* \"contracts/Coupon.sol\":4763:4776  _balances[id] */\n      dup1\n        /* \"contracts/Coupon.sol\":4773:4775  id */\n      dup4\n        /* \"contracts/Coupon.sol\":4763:4776  _balances[id] */\n      dup2\n      mstore\n      0x20\n      add\n      swap1\n      dup2\n      mstore\n      0x20\n      add\n      0x00\n      keccak256\n        /* \"contracts/Coupon.sol\":4763:4785  _balances[id][account] */\n      0x00\n        /* \"contracts/Coupon.sol\":4777:4784  account */\n      dup5\n        /* \"contracts/Coupon.sol\":4763:4785  _balances[id][account] */\n      0xffffffffffffffffffffffffffffffffffffffff\n      and\n      0xffffffffffffffffffffffffffffffffffffffff\n      and\n      dup2\n      mstore\n      0x20\n      add\n      swap1\n      dup2\n      mstore\n      0x20\n      add\n      0x00\n      keccak256\n      sload\n        /* \"contracts/Coupon.sol\":4756:4785  return _balances[id][account] */\n      swap1\n      pop\n        /* \"contracts/Coupon.sol\":4504:4792  function balanceOf(address account, uint256 id)... */\n      swap3\n      swap2\n      pop\n      pop\n      jump\t// out\n        /* \"contracts/Coupon.sol\":4268:4362  function uri(uint256) public view virtual returns (string memory) {... */\n    tag_17:\n        /* \"contracts/Coupon.sol\":4319:4332  string memory */\n      0x60\n        /* \"contracts/Coupon.sol\":4351:4355  _uri */\n      0x02\n        /* \"contracts/Coupon.sol\":4344:4355  return _uri */\n      dup1\n      sload\n      tag_36\n      swap1\n      tag_37\n      jump\t// in\n    tag_36:\n      dup1\n      0x1f\n      add\n      0x20\n      dup1\n      swap2\n      div\n      mul\n      0x20\n      add\n      mload(0x40)\n      swap1\n      dup2\n      add\n      0x40\n      mstore\n      dup1\n      swap3\n      swap2\n      swap1\n      dup2\n      dup2\n      mstore\n      0x20\n      add\n      dup3\n      dup1\n      sload\n      tag_38\n      swap1\n      tag_37\n      jump\t// in\n    tag_38:\n      dup1\n      iszero\n      tag_39\n      jumpi\n      dup1\n      0x1f\n      lt\n      tag_40\n      jumpi\n      0x0100\n      dup1\n      dup4\n      sload\n      div\n      mul\n      dup4\n      mstore\n      swap2\n      0x20\n      add\n      swap2\n      jump(tag_39)\n    tag_40:\n      dup3\n      add\n      swap2\n      swap1\n      0x00\n      mstore\n      keccak256(0x00, 0x20)\n      swap1\n    tag_41:\n      dup2\n      sload\n      dup2\n      mstore\n      swap1\n      0x01\n      add\n      swap1\n      0x20\n      add\n      dup1\n      dup4\n      gt\n      tag_41\n      jumpi\n      dup3\n      swap1\n      sub\n      0x1f\n      and\n      dup3\n      add\n      swap2\n    tag_39:\n      pop\n      pop\n      pop\n      pop\n      pop\n      swap1\n      pop\n        /* \"contracts/Coupon.sol\":4268:4362  function uri(uint256) public view virtual returns (string memory) {... */\n      swap2\n      swap1\n      pop\n      jump\t// out\n        /* \"contracts/Coupon.sol\":12742:12939  function CouponMint(uint256 discount, uint256 amount) public {... */\n    tag_23:\n        /* \"contracts/Coupon.sol\":12813:12852  _mint(msg.sender, discount, amount, \"\") */\n      tag_43\n        /* \"contracts/Coupon.sol\":12819:12829  msg.sender */\n      caller\n        /* \"contracts/Coupon.sol\":12831:12839  discount */\n      dup4\n        /* \"contracts/Coupon.sol\":12841:12847  amount */\n      dup4\n        /* \"contracts/Coupon.sol\":12813:12852  _mint(msg.sender, discount, amount, \"\") */\n      mload(0x40)\n      dup1\n      0x20\n      add\n      0x40\n      mstore\n      dup1\n      0x00\n      dup2\n      mstore\n      pop\n        /* \"contracts/Coupon.sol\":12813:12818  _mint */\n      tag_44\n        /* \"contracts/Coupon.sol\":12813:12852  _mint(msg.sender, discount, amount, \"\") */\n      jump\t// in\n    tag_43:\n        /* \"contracts/Coupon.sol\":12742:12939  function CouponMint(uint256 discount, uint256 amount) public {... */\n      pop\n      pop\n      jump\t// out\n        /* \"contracts/Coupon.sol\":12945:13165  function transf(... */\n    tag_27:\n        /* \"contracts/Coupon.sol\":13105:13158  _safeTransferFrom(from, addr, discount, amount, data) */\n      tag_46\n        /* \"contracts/Coupon.sol\":13123:13127  from */\n      dup6\n        /* \"contracts/Coupon.sol\":13129:13133  addr */\n      dup6\n        /* \"contracts/Coupon.sol\":13135:13143  discount */\n      dup6\n        /* \"contracts/Coupon.sol\":13145:13151  amount */\n      dup6\n        /* \"contracts/Coupon.sol\":13153:13157  data */\n      dup6\n        /* \"contracts/Coupon.sol\":13105:13122  _safeTransferFrom */\n      tag_47\n        /* \"contracts/Coupon.sol\":13105:13158  _safeTransferFrom(from, addr, discount, amount, data) */\n      jump\t// in\n    tag_46:\n        /* \"contracts/Coupon.sol\":12945:13165  function transf(... */\n      pop\n      pop\n      pop\n      pop\n      pop\n      jump\t// out\n        /* \"contracts/Coupon.sol\":4859:5205  function safeTransferFrom(... */\n    tag_30:\n        /* \"contracts/Coupon.sol\":5058:5070  _msgSender() */\n      tag_49\n        /* \"contracts/Coupon.sol\":5058:5068  _msgSender */\n      tag_50\n        /* \"contracts/Coupon.sol\":5058:5070  _msgSender() */\n      jump\t// in\n    tag_49:\n        /* \"contracts/Coupon.sol\":5050:5070  from == _msgSender() */\n      0xffffffffffffffffffffffffffffffffffffffff\n      and\n        /* \"contracts/Coupon.sol\":5050:5054  from */\n      dup6\n        /* \"contracts/Coupon.sol\":5050:5070  from == _msgSender() */\n      0xffffffffffffffffffffffffffffffffffffffff\n      and\n      eq\n        /* \"contracts/Coupon.sol\":5029:5143  require(... */\n      tag_51\n      jumpi\n      mload(0x40)\n      0x08c379a000000000000000000000000000000000000000000000000000000000\n      dup2\n      mstore\n      0x04\n      add\n      tag_52\n      swap1\n      tag_53\n      jump\t// in\n    tag_52:\n      mload(0x40)\n      dup1\n      swap2\n      sub\n      swap1\n      revert\n    tag_51:\n        /* \"contracts/Coupon.sol\":5153:5198  _safeTransferFrom(from, to, id, amount, data) */\n      tag_54\n        /* \"contracts/Coupon.sol\":5171:5175  from */\n      dup6\n        /* \"contracts/Coupon.sol\":5177:5179  to */\n      dup6\n        /* \"contracts/Coupon.sol\":5181:5183  id */\n      dup6\n        /* \"contracts/Coupon.sol\":5185:5191  amount */\n      dup6\n        /* \"contracts/Coupon.sol\":5193:5197  data */\n      dup6\n        /* \"contracts/Coupon.sol\":5153:5170  _safeTransferFrom */\n      tag_47\n        /* \"contracts/Coupon.sol\":5153:5198  _safeTransferFrom(from, to, id, amount, data) */\n      jump\t// in\n    tag_54:\n        /* \"contracts/Coupon.sol\":4859:5205  function safeTransferFrom(... */\n      pop\n      pop\n      pop\n      pop\n      pop\n      jump\t// out\n        /* \"contracts/Coupon.sol\":7474:8265  function _mint(... */\n    tag_44:\n        /* \"contracts/Coupon.sol\":7635:7636  0 */\n      0x00\n        /* \"contracts/Coupon.sol\":7621:7637  to != address(0) */\n      0xffffffffffffffffffffffffffffffffffffffff\n      and\n        /* \"contracts/Coupon.sol\":7621:7623  to */\n      dup5\n        /* \"contracts/Coupon.sol\":7621:7637  to != address(0) */\n      0xffffffffffffffffffffffffffffffffffffffff\n      and\n      eq\n      iszero\n        /* \"contracts/Coupon.sol\":7613:7675  require(to != address(0), \"ERC1155: mint to the zero address\") */\n      tag_56\n      jumpi\n      mload(0x40)\n      0x08c379a000000000000000000000000000000000000000000000000000000000\n      dup2\n      mstore\n      0x04\n      add\n      tag_57\n      swap1\n      tag_58\n      jump\t// in\n    tag_57:\n      mload(0x40)\n      dup1\n      swap2\n      sub\n      swap1\n      revert\n    tag_56:\n        /* \"contracts/Coupon.sol\":7686:7702  address operator */\n      0x00\n        /* \"contracts/Coupon.sol\":7705:7717  _msgSender() */\n      tag_59\n        /* \"contracts/Coupon.sol\":7705:7715  _msgSender */\n      tag_50\n        /* \"contracts/Coupon.sol\":7705:7717  _msgSender() */\n      jump\t// in\n    tag_59:\n        /* \"contracts/Coupon.sol\":7686:7717  address operator = _msgSender() */\n      swap1\n      pop\n        /* \"contracts/Coupon.sol\":7727:7747  uint256[] memory ids */\n      0x00\n        /* \"contracts/Coupon.sol\":7750:7771  _asSingletonArray(id) */\n      tag_60\n        /* \"contracts/Coupon.sol\":7768:7770  id */\n      dup6\n        /* \"contracts/Coupon.sol\":7750:7767  _asSingletonArray */\n      tag_61\n        /* \"contracts/Coupon.sol\":7750:7771  _asSingletonArray(id) */\n      jump\t// in\n    tag_60:\n        /* \"contracts/Coupon.sol\":7727:7771  uint256[] memory ids = _asSingletonArray(id) */\n      swap1\n      pop\n        /* \"contracts/Coupon.sol\":7781:7805  uint256[] memory amounts */\n      0x00\n        /* \"contracts/Coupon.sol\":7808:7833  _asSingletonArray(amount) */\n      tag_62\n        /* \"contracts/Coupon.sol\":7826:7832  amount */\n      dup6\n        /* \"contracts/Coupon.sol\":7808:7825  _asSingletonArray */\n      tag_61\n        /* \"contracts/Coupon.sol\":7808:7833  _asSingletonArray(amount) */\n      jump\t// in\n    tag_62:\n        /* \"contracts/Coupon.sol\":7781:7833  uint256[] memory amounts = _asSingletonArray(amount) */\n      swap1\n      pop\n        /* \"contracts/Coupon.sol\":7844:7910  _beforeTokenTransfer(operator, address(0), to, ids, amounts, data) */\n      tag_63\n        /* \"contracts/Coupon.sol\":7865:7873  operator */\n      dup4\n        /* \"contracts/Coupon.sol\":7883:7884  0 */\n      0x00\n        /* \"contracts/Coupon.sol\":7887:7889  to */\n      dup10\n        /* \"contracts/Coupon.sol\":7891:7894  ids */\n      dup6\n        /* \"contracts/Coupon.sol\":7896:7903  amounts */\n      dup6\n        /* \"contracts/Coupon.sol\":7905:7909  data */\n      dup10\n        /* \"contracts/Coupon.sol\":7844:7864  _beforeTokenTransfer */\n      tag_64\n        /* \"contracts/Coupon.sol\":7844:7910  _beforeTokenTransfer(operator, address(0), to, ids, amounts, data) */\n      jump\t// in\n    tag_63:\n        /* \"contracts/Coupon.sol\":7942:7948  amount */\n      dup5\n        /* \"contracts/Coupon.sol\":7921:7930  _balances */\n      0x00\n        /* \"contracts/Coupon.sol\":7921:7934  _balances[id] */\n      dup1\n        /* \"contracts/Coupon.sol\":7931:7933  id */\n      dup9\n        /* \"contracts/Coupon.sol\":7921:7934  _balances[id] */\n      dup2\n      mstore\n      0x20\n      add\n      swap1\n      dup2\n      mstore\n      0x20\n      add\n      0x00\n      keccak256\n        /* \"contracts/Coupon.sol\":7921:7938  _balances[id][to] */\n      0x00\n        /* \"contracts/Coupon.sol\":7935:7937  to */\n      dup10\n        /* \"contracts/Coupon.sol\":7921:7938  _balances[id][to] */\n      0xffffffffffffffffffffffffffffffffffffffff\n      and\n      0xffffffffffffffffffffffffffffffffffffffff\n      and\n      dup2\n      mstore\n      0x20\n      add\n      swap1\n      dup2\n      mstore\n      0x20\n      add\n      0x00\n      keccak256\n      0x00\n        /* \"contracts/Coupon.sol\":7921:7948  _balances[id][to] += amount */\n      dup3\n      dup3\n      sload\n      tag_65\n      swap2\n      swap1\n      tag_66\n      jump\t// in\n    tag_65:\n      swap3\n      pop\n      pop\n      dup2\n      swap1\n      sstore\n      pop\n        /* \"contracts/Coupon.sol\":8000:8002  to */\n      dup7\n        /* \"contracts/Coupon.sol\":7963:8015  TransferSingle(operator, address(0), to, id, amount) */\n      0xffffffffffffffffffffffffffffffffffffffff\n      and\n        /* \"contracts/Coupon.sol\":7996:7997  0 */\n      0x00\n        /* \"contracts/Coupon.sol\":7963:8015  TransferSingle(operator, address(0), to, id, amount) */\n      0xffffffffffffffffffffffffffffffffffffffff\n      and\n        /* \"contracts/Coupon.sol\":7978:7986  operator */\n      dup5\n        /* \"contracts/Coupon.sol\":7963:8015  TransferSingle(operator, address(0), to, id, amount) */\n      0xffffffffffffffffffffffffffffffffffffffff\n      and\n      0xc3d58168c5ae7397731d063d5bbf3d657854427343f4c083240f7aacaa2d0f62\n        /* \"contracts/Coupon.sol\":8004:8006  id */\n      dup10\n        /* \"contracts/Coupon.sol\":8008:8014  amount */\n      dup10\n        /* \"contracts/Coupon.sol\":7963:8015  TransferSingle(operator, address(0), to, id, amount) */\n      mload(0x40)\n      tag_67\n      swap3\n      swap2\n      swap1\n      tag_68\n      jump\t// in\n    tag_67:\n      mload(0x40)\n      dup1\n      swap2\n      sub\n      swap1\n      log4\n        /* \"contracts/Coupon.sol\":8026:8091  _afterTokenTransfer(operator, address(0), to, ids, amounts, data) */\n      tag_69\n        /* \"contracts/Coupon.sol\":8046:8054  operator */\n      dup4\n        /* \"contracts/Coupon.sol\":8064:8065  0 */\n      0x00\n        /* \"contracts/Coupon.sol\":8068:8070  to */\n      dup10\n        /* \"contracts/Coupon.sol\":8072:8075  ids */\n      dup6\n        /* \"contracts/Coupon.sol\":8077:8084  amounts */\n      dup6\n        /* \"contracts/Coupon.sol\":8086:8090  data */\n      dup10\n        /* \"contracts/Coupon.sol\":8026:8045  _afterTokenTransfer */\n      tag_70\n        /* \"contracts/Coupon.sol\":8026:8091  _afterTokenTransfer(operator, address(0), to, ids, amounts, data) */\n      jump\t// in\n    tag_69:\n        /* \"contracts/Coupon.sol\":8102:8258  _doSafeTransferAcceptanceCheck(... */\n      tag_71\n        /* \"contracts/Coupon.sol\":8146:8154  operator */\n      dup4\n        /* \"contracts/Coupon.sol\":8176:8177  0 */\n      0x00\n        /* \"contracts/Coupon.sol\":8192:8194  to */\n      dup10\n        /* \"contracts/Coupon.sol\":8208:8210  id */\n      dup10\n        /* \"contracts/Coupon.sol\":8224:8230  amount */\n      dup10\n        /* \"contracts/Coupon.sol\":8244:8248  data */\n      dup10\n        /* \"contracts/Coupon.sol\":8102:8132  _doSafeTransferAcceptanceCheck */\n      tag_72\n        /* \"contracts/Coupon.sol\":8102:8258  _doSafeTransferAcceptanceCheck(... */\n      jump\t// in\n    tag_71:\n        /* \"contracts/Coupon.sol\":7603:8265  {... */\n      pop\n      pop\n      pop\n        /* \"contracts/Coupon.sol\":7474:8265  function _mint(... */\n      pop\n      pop\n      pop\n      pop\n      jump\t// out\n        /* \"contracts/Coupon.sol\":5211:6192  function _safeTransferFrom(... */\n    tag_47:\n        /* \"contracts/Coupon.sol\":5406:5407  0 */\n      0x00\n        /* \"contracts/Coupon.sol\":5392:5408  to != address(0) */\n      0xffffffffffffffffffffffffffffffffffffffff\n      and\n        /* \"contracts/Coupon.sol\":5392:5394  to */\n      dup5\n        /* \"contracts/Coupon.sol\":5392:5408  to != address(0) */\n      0xffffffffffffffffffffffffffffffffffffffff\n      and\n      eq\n      iszero\n        /* \"contracts/Coupon.sol\":5384:5450  require(to != address(0), \"ERC1155: transfer to the zero address\") */\n      tag_74\n      jumpi\n      mload(0x40)\n      0x08c379a000000000000000000000000000000000000000000000000000000000\n      dup2\n      mstore\n      0x04\n      add\n      tag_75\n      swap1\n      tag_76\n      jump\t// in\n    tag_75:\n      mload(0x40)\n      dup1\n      swap2\n      sub\n      swap1\n      revert\n    tag_74:\n        /* \"contracts/Coupon.sol\":5461:5477  address operator */\n      0x00\n        /* \"contracts/Coupon.sol\":5480:5492  _msgSender() */\n      tag_77\n        /* \"contracts/Coupon.sol\":5480:5490  _msgSender */\n      tag_50\n        /* \"contracts/Coupon.sol\":5480:5492  _msgSender() */\n      jump\t// in\n    tag_77:\n        /* \"contracts/Coupon.sol\":5461:5492  address operator = _msgSender() */\n      swap1\n      pop\n        /* \"contracts/Coupon.sol\":5502:5522  uint256[] memory ids */\n      0x00\n        /* \"contracts/Coupon.sol\":5525:5546  _asSingletonArray(id) */\n      tag_78\n        /* \"contracts/Coupon.sol\":5543:5545  id */\n      dup6\n        /* \"contracts/Coupon.sol\":5525:5542  _asSingletonArray */\n      tag_61\n        /* \"contracts/Coupon.sol\":5525:5546  _asSingletonArray(id) */\n      jump\t// in\n    tag_78:\n        /* \"contracts/Coupon.sol\":5502:5546  uint256[] memory ids = _asSingletonArray(id) */\n      swap1\n      pop\n        /* \"contracts/Coupon.sol\":5556:5580  uint256[] memory amounts */\n      0x00\n        /* \"contracts/Coupon.sol\":5583:5608  _asSingletonArray(amount) */\n      tag_79\n        /* \"contracts/Coupon.sol\":5601:5607  amount */\n      dup6\n        /* \"contracts/Coupon.sol\":5583:5600  _asSingletonArray */\n      tag_61\n        /* \"contracts/Coupon.sol\":5583:5608  _asSingletonArray(amount) */\n      jump\t// in\n    tag_79:\n        /* \"contracts/Coupon.sol\":5556:5608  uint256[] memory amounts = _asSingletonArray(amount) */\n      swap1\n      pop\n        /* \"contracts/Coupon.sol\":5619:5679  _beforeTokenTransfer(operator, from, to, ids, amounts, data) */\n      tag_80\n        /* \"contracts/Coupon.sol\":5640:5648  operator */\n      dup4\n        /* \"contracts/Coupon.sol\":5650:5654  from */\n      dup10\n        /* \"contracts/Coupon.sol\":5656:5658  to */\n      dup10\n        /* \"contracts/Coupon.sol\":5660:5663  ids */\n      dup6\n        /* \"contracts/Coupon.sol\":5665:5672  amounts */\n      dup6\n        /* \"contracts/Coupon.sol\":5674:5678  data */\n      dup10\n        /* \"contracts/Coupon.sol\":5619:5639  _beforeTokenTransfer */\n      tag_64\n        /* \"contracts/Coupon.sol\":5619:5679  _beforeTokenTransfer(operator, from, to, ids, amounts, data) */\n      jump\t// in\n    tag_80:\n        /* \"contracts/Coupon.sol\":5690:5709  uint256 fromBalance */\n      0x00\n        /* \"contracts/Coupon.sol\":5712:5721  _balances */\n      dup1\n        /* \"contracts/Coupon.sol\":5712:5725  _balances[id] */\n      0x00\n        /* \"contracts/Coupon.sol\":5722:5724  id */\n      dup9\n        /* \"contracts/Coupon.sol\":5712:5725  _balances[id] */\n      dup2\n      mstore\n      0x20\n      add\n      swap1\n      dup2\n      mstore\n      0x20\n      add\n      0x00\n      keccak256\n        /* \"contracts/Coupon.sol\":5712:5731  _balances[id][from] */\n      0x00\n        /* \"contracts/Coupon.sol\":5726:5730  from */\n      dup11\n        /* \"contracts/Coupon.sol\":5712:5731  _balances[id][from] */\n      0xffffffffffffffffffffffffffffffffffffffff\n      and\n      0xffffffffffffffffffffffffffffffffffffffff\n      and\n      dup2\n      mstore\n      0x20\n      add\n      swap1\n      dup2\n      mstore\n      0x20\n      add\n      0x00\n      keccak256\n      sload\n        /* \"contracts/Coupon.sol\":5690:5731  uint256 fromBalance = _balances[id][from] */\n      swap1\n      pop\n        /* \"contracts/Coupon.sol\":5777:5783  amount */\n      dup6\n        /* \"contracts/Coupon.sol\":5762:5773  fromBalance */\n      dup2\n        /* \"contracts/Coupon.sol\":5762:5783  fromBalance >= amount */\n      lt\n      iszero\n        /* \"contracts/Coupon.sol\":5741:5851  require(... */\n      tag_81\n      jumpi\n      mload(0x40)\n      0x08c379a000000000000000000000000000000000000000000000000000000000\n      dup2\n      mstore\n      0x04\n      add\n      tag_82\n      swap1\n      tag_83\n      jump\t// in\n    tag_82:\n      mload(0x40)\n      dup1\n      swap2\n      sub\n      swap1\n      revert\n    tag_81:\n        /* \"contracts/Coupon.sol\":5921:5927  amount */\n      dup6\n        /* \"contracts/Coupon.sol\":5907:5918  fromBalance */\n      dup2\n        /* \"contracts/Coupon.sol\":5907:5927  fromBalance - amount */\n      sub\n        /* \"contracts/Coupon.sol\":5885:5894  _balances */\n      0x00\n        /* \"contracts/Coupon.sol\":5885:5898  _balances[id] */\n      dup1\n        /* \"contracts/Coupon.sol\":5895:5897  id */\n      dup10\n        /* \"contracts/Coupon.sol\":5885:5898  _balances[id] */\n      dup2\n      mstore\n      0x20\n      add\n      swap1\n      dup2\n      mstore\n      0x20\n      add\n      0x00\n      keccak256\n        /* \"contracts/Coupon.sol\":5885:5904  _balances[id][from] */\n      0x00\n        /* \"contracts/Coupon.sol\":5899:5903  from */\n      dup12\n        /* \"contracts/Coupon.sol\":5885:5904  _balances[id][from] */\n      0xffffffffffffffffffffffffffffffffffffffff\n      and\n      0xffffffffffffffffffffffffffffffffffffffff\n      and\n      dup2\n      mstore\n      0x20\n      add\n      swap1\n      dup2\n      mstore\n      0x20\n      add\n      0x00\n      keccak256\n        /* \"contracts/Coupon.sol\":5885:5927  _balances[id][from] = fromBalance - amount */\n      dup2\n      swap1\n      sstore\n      pop\n        /* \"contracts/Coupon.sol\":5968:5974  amount */\n      dup6\n        /* \"contracts/Coupon.sol\":5947:5956  _balances */\n      0x00\n        /* \"contracts/Coupon.sol\":5947:5960  _balances[id] */\n      dup1\n        /* \"contracts/Coupon.sol\":5957:5959  id */\n      dup10\n        /* \"contracts/Coupon.sol\":5947:5960  _balances[id] */\n      dup2\n      mstore\n      0x20\n      add\n      swap1\n      dup2\n      mstore\n      0x20\n      add\n      0x00\n      keccak256\n        /* \"contracts/Coupon.sol\":5947:5964  _balances[id][to] */\n      0x00\n        /* \"contracts/Coupon.sol\":5961:5963  to */\n      dup11\n        /* \"contracts/Coupon.sol\":5947:5964  _balances[id][to] */\n      0xffffffffffffffffffffffffffffffffffffffff\n      and\n      0xffffffffffffffffffffffffffffffffffffffff\n      and\n      dup2\n      mstore\n      0x20\n      add\n      swap1\n      dup2\n      mstore\n      0x20\n      add\n      0x00\n      keccak256\n      0x00\n        /* \"contracts/Coupon.sol\":5947:5974  _balances[id][to] += amount */\n      dup3\n      dup3\n      sload\n      tag_84\n      swap2\n      swap1\n      tag_66\n      jump\t// in\n    tag_84:\n      swap3\n      pop\n      pop\n      dup2\n      swap1\n      sstore\n      pop\n        /* \"contracts/Coupon.sol\":6021:6023  to */\n      dup8\n        /* \"contracts/Coupon.sol\":5990:6036  TransferSingle(operator, from, to, id, amount) */\n      0xffffffffffffffffffffffffffffffffffffffff\n      and\n        /* \"contracts/Coupon.sol\":6015:6019  from */\n      dup10\n        /* \"contracts/Coupon.sol\":5990:6036  TransferSingle(operator, from, to, id, amount) */\n      0xffffffffffffffffffffffffffffffffffffffff\n      and\n        /* \"contracts/Coupon.sol\":6005:6013  operator */\n      dup6\n        /* \"contracts/Coupon.sol\":5990:6036  TransferSingle(operator, from, to, id, amount) */\n      0xffffffffffffffffffffffffffffffffffffffff\n      and\n      0xc3d58168c5ae7397731d063d5bbf3d657854427343f4c083240f7aacaa2d0f62\n        /* \"contracts/Coupon.sol\":6025:6027  id */\n      dup11\n        /* \"contracts/Coupon.sol\":6029:6035  amount */\n      dup11\n        /* \"contracts/Coupon.sol\":5990:6036  TransferSingle(operator, from, to, id, amount) */\n      mload(0x40)\n      tag_85\n      swap3\n      swap2\n      swap1\n      tag_68\n      jump\t// in\n    tag_85:\n      mload(0x40)\n      dup1\n      swap2\n      sub\n      swap1\n      log4\n        /* \"contracts/Coupon.sol\":6047:6106  _afterTokenTransfer(operator, from, to, ids, amounts, data) */\n      tag_86\n        /* \"contracts/Coupon.sol\":6067:6075  operator */\n      dup5\n        /* \"contracts/Coupon.sol\":6077:6081  from */\n      dup11\n        /* \"contracts/Coupon.sol\":6083:6085  to */\n      dup11\n        /* \"contracts/Coupon.sol\":6087:6090  ids */\n      dup7\n        /* \"contracts/Coupon.sol\":6092:6099  amounts */\n      dup7\n        /* \"contracts/Coupon.sol\":6101:6105  data */\n      dup11\n        /* \"contracts/Coupon.sol\":6047:6066  _afterTokenTransfer */\n      tag_70\n        /* \"contracts/Coupon.sol\":6047:6106  _afterTokenTransfer(operator, from, to, ids, amounts, data) */\n      jump\t// in\n    tag_86:\n        /* \"contracts/Coupon.sol\":6117:6185  _doSafeTransferAcceptanceCheck(operator, from, to, id, amount, data) */\n      tag_87\n        /* \"contracts/Coupon.sol\":6148:6156  operator */\n      dup5\n        /* \"contracts/Coupon.sol\":6158:6162  from */\n      dup11\n        /* \"contracts/Coupon.sol\":6164:6166  to */\n      dup11\n        /* \"contracts/Coupon.sol\":6168:6170  id */\n      dup11\n        /* \"contracts/Coupon.sol\":6172:6178  amount */\n      dup11\n        /* \"contracts/Coupon.sol\":6180:6184  data */\n      dup11\n        /* \"contracts/Coupon.sol\":6117:6147  _doSafeTransferAcceptanceCheck */\n      tag_72\n        /* \"contracts/Coupon.sol\":6117:6185  _doSafeTransferAcceptanceCheck(operator, from, to, id, amount, data) */\n      jump\t// in\n    tag_87:\n        /* \"contracts/Coupon.sol\":5374:6192  {... */\n      pop\n      pop\n      pop\n      pop\n        /* \"contracts/Coupon.sol\":5211:6192  function _safeTransferFrom(... */\n      pop\n      pop\n      pop\n      pop\n      pop\n      jump\t// out\n        /* \"contracts/Coupon.sol\":3671:3758  function _msgSender() private view returns (address) {... */\n    tag_50:\n        /* \"contracts/Coupon.sol\":3715:3722  address */\n      0x00\n        /* \"contracts/Coupon.sol\":3741:3751  msg.sender */\n      caller\n        /* \"contracts/Coupon.sol\":3734:3751  return msg.sender */\n      swap1\n      pop\n        /* \"contracts/Coupon.sol\":3671:3758  function _msgSender() private view returns (address) {... */\n      swap1\n      jump\t// out\n        /* \"contracts/Coupon.sol\":12515:12736  function _asSingletonArray(uint256 element)... */\n    tag_61:\n        /* \"contracts/Coupon.sol\":12605:12621  uint256[] memory */\n      0x60\n        /* \"contracts/Coupon.sol\":12637:12659  uint256[] memory array */\n      0x00\n        /* \"contracts/Coupon.sol\":12676:12677  1 */\n      0x01\n        /* \"contracts/Coupon.sol\":12662:12678  new uint256[](1) */\n      0xffffffffffffffff\n      dup2\n      gt\n      iszero\n      tag_90\n      jumpi\n      tag_91\n      tag_92\n      jump\t// in\n    tag_91:\n    tag_90:\n      mload(0x40)\n      swap1\n      dup1\n      dup3\n      mstore\n      dup1\n      0x20\n      mul\n      0x20\n      add\n      dup3\n      add\n      0x40\n      mstore\n      dup1\n      iszero\n      tag_93\n      jumpi\n      dup2\n      0x20\n      add\n      0x20\n      dup3\n      mul\n      dup1\n      calldatasize\n      dup4\n      calldatacopy\n      dup1\n      dup3\n      add\n      swap2\n      pop\n      pop\n      swap1\n      pop\n    tag_93:\n      pop\n        /* \"contracts/Coupon.sol\":12637:12678  uint256[] memory array = new uint256[](1) */\n      swap1\n      pop\n        /* \"contracts/Coupon.sol\":12699:12706  element */\n      dup3\n        /* \"contracts/Coupon.sol\":12688:12693  array */\n      dup2\n        /* \"contracts/Coupon.sol\":12694:12695  0 */\n      0x00\n        /* \"contracts/Coupon.sol\":12688:12696  array[0] */\n      dup2\n      mload\n      dup2\n      lt\n      tag_94\n      jumpi\n      tag_95\n      tag_96\n      jump\t// in\n    tag_95:\n    tag_94:\n      0x20\n      mul\n      0x20\n      add\n      add\n        /* \"contracts/Coupon.sol\":12688:12706  array[0] = element */\n      dup2\n      dup2\n      mstore\n      pop\n      pop\n        /* \"contracts/Coupon.sol\":12724:12729  array */\n      dup1\n        /* \"contracts/Coupon.sol\":12717:12729  return array */\n      swap2\n      pop\n      pop\n        /* \"contracts/Coupon.sol\":12515:12736  function _asSingletonArray(uint256 element)... */\n      swap2\n      swap1\n      pop\n      jump\t// out\n        /* \"contracts/Coupon.sol\":10273:10487  function _beforeTokenTransfer(... */\n    tag_64:\n      pop\n      pop\n      pop\n      pop\n      pop\n      pop\n      jump\t// out\n        /* \"contracts/Coupon.sol\":11420:11633  function _afterTokenTransfer(... */\n    tag_70:\n      pop\n      pop\n      pop\n      pop\n      pop\n      pop\n      jump\t// out\n        /* \"contracts/Coupon.sol\":11639:12509  function _doSafeTransferAcceptanceCheck(... */\n    tag_72:\n        /* \"contracts/Coupon.sol\":11846:11860  isContract(to) */\n      tag_100\n        /* \"contracts/Coupon.sol\":11857:11859  to */\n      dup5\n        /* \"contracts/Coupon.sol\":11846:11856  isContract */\n      tag_101\n        /* \"contracts/Coupon.sol\":11846:11860  isContract(to) */\n      jump\t// in\n    tag_100:\n        /* \"contracts/Coupon.sol\":11842:12503  if (isContract(to)) {... */\n      iszero\n      tag_102\n      jumpi\n        /* \"contracts/Coupon.sol\":11913:11915  to */\n      dup4\n        /* \"contracts/Coupon.sol\":11896:11934  IERC1155Receiver(to).onERC1155Received */\n      0xffffffffffffffffffffffffffffffffffffffff\n      and\n      0xf23a6e61\n        /* \"contracts/Coupon.sol\":11956:11964  operator */\n      dup8\n        /* \"contracts/Coupon.sol\":11986:11990  from */\n      dup8\n        /* \"contracts/Coupon.sol\":12012:12014  id */\n      dup7\n        /* \"contracts/Coupon.sol\":12036:12042  amount */\n      dup7\n        /* \"contracts/Coupon.sol\":12064:12068  data */\n      dup7\n        /* \"contracts/Coupon.sol\":11896:12086  IERC1155Receiver(to).onERC1155Received(... */\n      mload(0x40)\n      dup7\n      0xffffffff\n      and\n      0xe0\n      shl\n      dup2\n      mstore\n      0x04\n      add\n      tag_103\n      swap6\n      swap5\n      swap4\n      swap3\n      swap2\n      swap1\n      tag_104\n      jump\t// in\n    tag_103:\n      0x20\n      mload(0x40)\n      dup1\n      dup4\n      sub\n      dup2\n      0x00\n      dup8\n      dup1\n      extcodesize\n      iszero\n      dup1\n      iszero\n      tag_105\n      jumpi\n      0x00\n      dup1\n      revert\n    tag_105:\n      pop\n      gas\n      call\n      swap3\n      pop\n      pop\n      pop\n      dup1\n      iszero\n      tag_106\n      jumpi\n      pop\n      mload(0x40)\n      returndatasize\n      not(0x1f)\n      0x1f\n      dup3\n      add\n      and\n      dup3\n      add\n      dup1\n      0x40\n      mstore\n      pop\n      dup2\n      add\n      swap1\n      tag_107\n      swap2\n      swap1\n      tag_108\n      jump\t// in\n    tag_107:\n      0x01\n    tag_106:\n        /* \"contracts/Coupon.sol\":11876:12493  try... */\n      tag_109\n      jumpi\n      tag_113\n      tag_114\n      jump\t// in\n    tag_113:\n      dup1\n      0x08c379a0\n      eq\n      iszero\n      tag_112\n      jumpi\n      pop\n      tag_115\n      tag_116\n      jump\t// in\n    tag_115:\n      dup1\n      tag_117\n      jumpi\n      pop\n      jump(tag_111)\n    tag_117:\n        /* \"contracts/Coupon.sol\":12369:12375  reason */\n      dup1\n        /* \"contracts/Coupon.sol\":12362:12376  revert(reason) */\n      mload(0x40)\n      0x08c379a000000000000000000000000000000000000000000000000000000000\n      dup2\n      mstore\n      0x04\n      add\n      tag_118\n      swap2\n      swap1\n      tag_19\n      jump\t// in\n    tag_118:\n      mload(0x40)\n      dup1\n      swap2\n      sub\n      swap1\n      revert\n        /* \"contracts/Coupon.sol\":11876:12493  try... */\n    tag_112:\n      pop\n    tag_111:\n        /* \"contracts/Coupon.sol\":12416:12478  revert(\"ERC1155: transfer to non ERC1155Receiver implementer\") */\n      mload(0x40)\n      0x08c379a000000000000000000000000000000000000000000000000000000000\n      dup2\n      mstore\n      0x04\n      add\n      tag_119\n      swap1\n      tag_120\n      jump\t// in\n    tag_119:\n      mload(0x40)\n      dup1\n      swap2\n      sub\n      swap1\n      revert\n        /* \"contracts/Coupon.sol\":11876:12493  try... */\n    tag_109:\n        /* \"contracts/Coupon.sol\":12159:12202  IERC1155Receiver.onERC1155Received.selector */\n      shl(0xe0, 0xf23a6e61)\n        /* \"contracts/Coupon.sol\":12147:12202  response != IERC1155Receiver.onERC1155Received.selector */\n      not(0xffffffffffffffffffffffffffffffffffffffffffffffffffffffff)\n      and\n        /* \"contracts/Coupon.sol\":12147:12155  response */\n      dup2\n        /* \"contracts/Coupon.sol\":12147:12202  response != IERC1155Receiver.onERC1155Received.selector */\n      not(0xffffffffffffffffffffffffffffffffffffffffffffffffffffffff)\n      and\n      eq\n        /* \"contracts/Coupon.sol\":12143:12295  if (response != IERC1155Receiver.onERC1155Received.selector) {... */\n      tag_122\n      jumpi\n        /* \"contracts/Coupon.sol\":12226:12276  revert(\"ERC1155: ERC1155Receiver rejected tokens\") */\n      mload(0x40)\n      0x08c379a000000000000000000000000000000000000000000000000000000000\n      dup2\n      mstore\n      0x04\n      add\n      tag_123\n      swap1\n      tag_124\n      jump\t// in\n    tag_123:\n      mload(0x40)\n      dup1\n      swap2\n      sub\n      swap1\n      revert\n        /* \"contracts/Coupon.sol\":12143:12295  if (response != IERC1155Receiver.onERC1155Received.selector) {... */\n    tag_122:\n        /* \"contracts/Coupon.sol\":12099:12309  returns (bytes4 response) {... */\n      pop\n        /* \"contracts/Coupon.sol\":11842:12503  if (isContract(to)) {... */\n    tag_102:\n        /* \"contracts/Coupon.sol\":11639:12509  function _doSafeTransferAcceptanceCheck(... */\n      pop\n      pop\n      pop\n      pop\n      pop\n      pop\n      jump\t// out\n        /* \"contracts/Coupon.sol\":3346:3665  function isContract(address account) private view returns (bool) {... */\n    tag_101:\n        /* \"contracts/Coupon.sol\":3405:3409  bool */\n      0x00\n        /* \"contracts/Coupon.sol\":3657:3658  0 */\n      dup1\n        /* \"contracts/Coupon.sol\":3635:3642  account */\n      dup3\n        /* \"contracts/Coupon.sol\":3635:3654  account.code.length */\n      0xffffffffffffffffffffffffffffffffffffffff\n      and\n      extcodesize\n        /* \"contracts/Coupon.sol\":3635:3658  account.code.length > 0 */\n      gt\n        /* \"contracts/Coupon.sol\":3628:3658  return account.code.length > 0 */\n      swap1\n      pop\n        /* \"contracts/Coupon.sol\":3346:3665  function isContract(address account) private view returns (bool) {... */\n      swap2\n      swap1\n      pop\n      jump\t// out\n        /* \"#utility.yul\":7:417   */\n    tag_127:\n        /* \"#utility.yul\":84:89   */\n      0x00\n        /* \"#utility.yul\":109:174   */\n      tag_129\n        /* \"#utility.yul\":125:173   */\n      tag_130\n        /* \"#utility.yul\":166:172   */\n      dup5\n        /* \"#utility.yul\":125:173   */\n      tag_131\n      jump\t// in\n    tag_130:\n        /* \"#utility.yul\":109:174   */\n      tag_132\n      jump\t// in\n    tag_129:\n        /* \"#utility.yul\":100:174   */\n      swap1\n      pop\n        /* \"#utility.yul\":197:203   */\n      dup3\n        /* \"#utility.yul\":190:195   */\n      dup2\n        /* \"#utility.yul\":183:204   */\n      mstore\n        /* \"#utility.yul\":235:239   */\n      0x20\n        /* \"#utility.yul\":228:233   */\n      dup2\n        /* \"#utility.yul\":224:240   */\n      add\n        /* \"#utility.yul\":273:276   */\n      dup5\n        /* \"#utility.yul\":264:270   */\n      dup5\n        /* \"#utility.yul\":259:262   */\n      dup5\n        /* \"#utility.yul\":255:271   */\n      add\n        /* \"#utility.yul\":252:277   */\n      gt\n        /* \"#utility.yul\":249:361   */\n      iszero\n      tag_133\n      jumpi\n        /* \"#utility.yul\":280:359   */\n      tag_134\n      tag_135\n      jump\t// in\n    tag_134:\n        /* \"#utility.yul\":249:361   */\n    tag_133:\n        /* \"#utility.yul\":370:411   */\n      tag_136\n        /* \"#utility.yul\":404:410   */\n      dup5\n        /* \"#utility.yul\":399:402   */\n      dup3\n        /* \"#utility.yul\":394:397   */\n      dup6\n        /* \"#utility.yul\":370:411   */\n      tag_137\n      jump\t// in\n    tag_136:\n        /* \"#utility.yul\":90:417   */\n      pop\n        /* \"#utility.yul\":7:417   */\n      swap4\n      swap3\n      pop\n      pop\n      pop\n      jump\t// out\n        /* \"#utility.yul\":423:562   */\n    tag_138:\n        /* \"#utility.yul\":469:474   */\n      0x00\n        /* \"#utility.yul\":507:513   */\n      dup2\n        /* \"#utility.yul\":494:514   */\n      calldataload\n        /* \"#utility.yul\":485:514   */\n      swap1\n      pop\n        /* \"#utility.yul\":523:556   */\n      tag_140\n        /* \"#utility.yul\":550:555   */\n      dup2\n        /* \"#utility.yul\":523:556   */\n      tag_141\n      jump\t// in\n    tag_140:\n        /* \"#utility.yul\":423:562   */\n      swap3\n      swap2\n      pop\n      pop\n      jump\t// out\n        /* \"#utility.yul\":568:709   */\n    tag_142:\n        /* \"#utility.yul\":624:629   */\n      0x00\n        /* \"#utility.yul\":655:661   */\n      dup2\n        /* \"#utility.yul\":649:662   */\n      mload\n        /* \"#utility.yul\":640:662   */\n      swap1\n      pop\n        /* \"#utility.yul\":671:703   */\n      tag_144\n        /* \"#utility.yul\":697:702   */\n      dup2\n        /* \"#utility.yul\":671:703   */\n      tag_145\n      jump\t// in\n    tag_144:\n        /* \"#utility.yul\":568:709   */\n      swap3\n      swap2\n      pop\n      pop\n      jump\t// out\n        /* \"#utility.yul\":728:1066   */\n    tag_146:\n        /* \"#utility.yul\":783:788   */\n      0x00\n        /* \"#utility.yul\":832:835   */\n      dup3\n        /* \"#utility.yul\":825:829   */\n      0x1f\n        /* \"#utility.yul\":817:823   */\n      dup4\n        /* \"#utility.yul\":813:830   */\n      add\n        /* \"#utility.yul\":809:836   */\n      slt\n        /* \"#utility.yul\":799:921   */\n      tag_148\n      jumpi\n        /* \"#utility.yul\":840:919   */\n      tag_149\n      tag_150\n      jump\t// in\n    tag_149:\n        /* \"#utility.yul\":799:921   */\n    tag_148:\n        /* \"#utility.yul\":957:963   */\n      dup2\n        /* \"#utility.yul\":944:964   */\n      calldataload\n        /* \"#utility.yul\":982:1060   */\n      tag_151\n        /* \"#utility.yul\":1056:1059   */\n      dup5\n        /* \"#utility.yul\":1048:1054   */\n      dup3\n        /* \"#utility.yul\":1041:1045   */\n      0x20\n        /* \"#utility.yul\":1033:1039   */\n      dup7\n        /* \"#utility.yul\":1029:1046   */\n      add\n        /* \"#utility.yul\":982:1060   */\n      tag_127\n      jump\t// in\n    tag_151:\n        /* \"#utility.yul\":973:1060   */\n      swap2\n      pop\n        /* \"#utility.yul\":789:1066   */\n      pop\n        /* \"#utility.yul\":728:1066   */\n      swap3\n      swap2\n      pop\n      pop\n      jump\t// out\n        /* \"#utility.yul\":1072:1211   */\n    tag_152:\n        /* \"#utility.yul\":1118:1123   */\n      0x00\n        /* \"#utility.yul\":1156:1162   */\n      dup2\n        /* \"#utility.yul\":1143:1163   */\n      calldataload\n        /* \"#utility.yul\":1134:1163   */\n      swap1\n      pop\n        /* \"#utility.yul\":1172:1205   */\n      tag_154\n        /* \"#utility.yul\":1199:1204   */\n      dup2\n        /* \"#utility.yul\":1172:1205   */\n      tag_155\n      jump\t// in\n    tag_154:\n        /* \"#utility.yul\":1072:1211   */\n      swap3\n      swap2\n      pop\n      pop\n      jump\t// out\n        /* \"#utility.yul\":1217:2306   */\n    tag_26:\n        /* \"#utility.yul\":1321:1327   */\n      0x00\n        /* \"#utility.yul\":1329:1335   */\n      dup1\n        /* \"#utility.yul\":1337:1343   */\n      0x00\n        /* \"#utility.yul\":1345:1351   */\n      dup1\n        /* \"#utility.yul\":1353:1359   */\n      0x00\n        /* \"#utility.yul\":1402:1405   */\n      0xa0\n        /* \"#utility.yul\":1390:1399   */\n      dup7\n        /* \"#utility.yul\":1381:1388   */\n      dup9\n        /* \"#utility.yul\":1377:1400   */\n      sub\n        /* \"#utility.yul\":1373:1406   */\n      slt\n        /* \"#utility.yul\":1370:1490   */\n      iszero\n      tag_157\n      jumpi\n        /* \"#utility.yul\":1409:1488   */\n      tag_158\n      tag_159\n      jump\t// in\n    tag_158:\n        /* \"#utility.yul\":1370:1490   */\n    tag_157:\n        /* \"#utility.yul\":1529:1530   */\n      0x00\n        /* \"#utility.yul\":1554:1607   */\n      tag_160\n        /* \"#utility.yul\":1599:1606   */\n      dup9\n        /* \"#utility.yul\":1590:1596   */\n      dup3\n        /* \"#utility.yul\":1579:1588   */\n      dup10\n        /* \"#utility.yul\":1575:1597   */\n      add\n        /* \"#utility.yul\":1554:1607   */\n      tag_138\n      jump\t// in\n    tag_160:\n        /* \"#utility.yul\":1544:1607   */\n      swap6\n      pop\n        /* \"#utility.yul\":1500:1617   */\n      pop\n        /* \"#utility.yul\":1656:1658   */\n      0x20\n        /* \"#utility.yul\":1682:1735   */\n      tag_161\n        /* \"#utility.yul\":1727:1734   */\n      dup9\n        /* \"#utility.yul\":1718:1724   */\n      dup3\n        /* \"#utility.yul\":1707:1716   */\n      dup10\n        /* \"#utility.yul\":1703:1725   */\n      add\n        /* \"#utility.yul\":1682:1735   */\n      tag_138\n      jump\t// in\n    tag_161:\n        /* \"#utility.yul\":1672:1735   */\n      swap5\n      pop\n        /* \"#utility.yul\":1627:1745   */\n      pop\n        /* \"#utility.yul\":1784:1786   */\n      0x40\n        /* \"#utility.yul\":1810:1863   */\n      tag_162\n        /* \"#utility.yul\":1855:1862   */\n      dup9\n        /* \"#utility.yul\":1846:1852   */\n      dup3\n        /* \"#utility.yul\":1835:1844   */\n      dup10\n        /* \"#utility.yul\":1831:1853   */\n      add\n        /* \"#utility.yul\":1810:1863   */\n      tag_152\n      jump\t// in\n    tag_162:\n        /* \"#utility.yul\":1800:1863   */\n      swap4\n      pop\n        /* \"#utility.yul\":1755:1873   */\n      pop\n        /* \"#utility.yul\":1912:1914   */\n      0x60\n        /* \"#utility.yul\":1938:1991   */\n      tag_163\n        /* \"#utility.yul\":1983:1990   */\n      dup9\n        /* \"#utility.yul\":1974:1980   */\n      dup3\n        /* \"#utility.yul\":1963:1972   */\n      dup10\n        /* \"#utility.yul\":1959:1981   */\n      add\n        /* \"#utility.yul\":1938:1991   */\n      tag_152\n      jump\t// in\n    tag_163:\n        /* \"#utility.yul\":1928:1991   */\n      swap3\n      pop\n        /* \"#utility.yul\":1883:2001   */\n      pop\n        /* \"#utility.yul\":2068:2071   */\n      0x80\n        /* \"#utility.yul\":2057:2066   */\n      dup7\n        /* \"#utility.yul\":2053:2072   */\n      add\n        /* \"#utility.yul\":2040:2073   */\n      calldataload\n        /* \"#utility.yul\":2100:2118   */\n      0xffffffffffffffff\n        /* \"#utility.yul\":2092:2098   */\n      dup2\n        /* \"#utility.yul\":2089:2119   */\n      gt\n        /* \"#utility.yul\":2086:2203   */\n      iszero\n      tag_164\n      jumpi\n        /* \"#utility.yul\":2122:2201   */\n      tag_165\n      tag_166\n      jump\t// in\n    tag_165:\n        /* \"#utility.yul\":2086:2203   */\n    tag_164:\n        /* \"#utility.yul\":2227:2289   */\n      tag_167\n        /* \"#utility.yul\":2281:2288   */\n      dup9\n        /* \"#utility.yul\":2272:2278   */\n      dup3\n        /* \"#utility.yul\":2261:2270   */\n      dup10\n        /* \"#utility.yul\":2257:2279   */\n      add\n        /* \"#utility.yul\":2227:2289   */\n      tag_146\n      jump\t// in\n    tag_167:\n        /* \"#utility.yul\":2217:2289   */\n      swap2\n      pop\n        /* \"#utility.yul\":2011:2299   */\n      pop\n        /* \"#utility.yul\":1217:2306   */\n      swap3\n      swap6\n      pop\n      swap3\n      swap6\n      swap1\n      swap4\n      pop\n      jump\t// out\n        /* \"#utility.yul\":2312:2786   */\n    tag_10:\n        /* \"#utility.yul\":2380:2386   */\n      0x00\n        /* \"#utility.yul\":2388:2394   */\n      dup1\n        /* \"#utility.yul\":2437:2439   */\n      0x40\n        /* \"#utility.yul\":2425:2434   */\n      dup4\n        /* \"#utility.yul\":2416:2423   */\n      dup6\n        /* \"#utility.yul\":2412:2435   */\n      sub\n        /* \"#utility.yul\":2408:2440   */\n      slt\n        /* \"#utility.yul\":2405:2524   */\n      iszero\n      tag_169\n      jumpi\n        /* \"#utility.yul\":2443:2522   */\n      tag_170\n      tag_159\n      jump\t// in\n    tag_170:\n        /* \"#utility.yul\":2405:2524   */\n    tag_169:\n        /* \"#utility.yul\":2563:2564   */\n      0x00\n        /* \"#utility.yul\":2588:2641   */\n      tag_171\n        /* \"#utility.yul\":2633:2640   */\n      dup6\n        /* \"#utility.yul\":2624:2630   */\n      dup3\n        /* \"#utility.yul\":2613:2622   */\n      dup7\n        /* \"#utility.yul\":2609:2631   */\n      add\n        /* \"#utility.yul\":2588:2641   */\n      tag_138\n      jump\t// in\n    tag_171:\n        /* \"#utility.yul\":2578:2641   */\n      swap3\n      pop\n        /* \"#utility.yul\":2534:2651   */\n      pop\n        /* \"#utility.yul\":2690:2692   */\n      0x20\n        /* \"#utility.yul\":2716:2769   */\n      tag_172\n        /* \"#utility.yul\":2761:2768   */\n      dup6\n        /* \"#utility.yul\":2752:2758   */\n      dup3\n        /* \"#utility.yul\":2741:2750   */\n      dup7\n        /* \"#utility.yul\":2737:2759   */\n      add\n        /* \"#utility.yul\":2716:2769   */\n      tag_152\n      jump\t// in\n    tag_172:\n        /* \"#utility.yul\":2706:2769   */\n      swap2\n      pop\n        /* \"#utility.yul\":2661:2779   */\n      pop\n        /* \"#utility.yul\":2312:2786   */\n      swap3\n      pop\n      swap3\n      swap1\n      pop\n      jump\t// out\n        /* \"#utility.yul\":2792:3141   */\n    tag_108:\n        /* \"#utility.yul\":2861:2867   */\n      0x00\n        /* \"#utility.yul\":2910:2912   */\n      0x20\n        /* \"#utility.yul\":2898:2907   */\n      dup3\n        /* \"#utility.yul\":2889:2896   */\n      dup5\n        /* \"#utility.yul\":2885:2908   */\n      sub\n        /* \"#utility.yul\":2881:2913   */\n      slt\n        /* \"#utility.yul\":2878:2997   */\n      iszero\n      tag_174\n      jumpi\n        /* \"#utility.yul\":2916:2995   */\n      tag_175\n      tag_159\n      jump\t// in\n    tag_175:\n        /* \"#utility.yul\":2878:2997   */\n    tag_174:\n        /* \"#utility.yul\":3036:3037   */\n      0x00\n        /* \"#utility.yul\":3061:3124   */\n      tag_176\n        /* \"#utility.yul\":3116:3123   */\n      dup5\n        /* \"#utility.yul\":3107:3113   */\n      dup3\n        /* \"#utility.yul\":3096:3105   */\n      dup6\n        /* \"#utility.yul\":3092:3114   */\n      add\n        /* \"#utility.yul\":3061:3124   */\n      tag_142\n      jump\t// in\n    tag_176:\n        /* \"#utility.yul\":3051:3124   */\n      swap2\n      pop\n        /* \"#utility.yul\":3007:3134   */\n      pop\n        /* \"#utility.yul\":2792:3141   */\n      swap3\n      swap2\n      pop\n      pop\n      jump\t// out\n        /* \"#utility.yul\":3147:3476   */\n    tag_16:\n        /* \"#utility.yul\":3206:3212   */\n      0x00\n        /* \"#utility.yul\":3255:3257   */\n      0x20\n        /* \"#utility.yul\":3243:3252   */\n      dup3\n        /* \"#utility.yul\":3234:3241   */\n      dup5\n        /* \"#utility.yul\":3230:3253   */\n      sub\n        /* \"#utility.yul\":3226:3258   */\n      slt\n        /* \"#utility.yul\":3223:3342   */\n      iszero\n      tag_178\n      jumpi\n        /* \"#utility.yul\":3261:3340   */\n      tag_179\n      tag_159\n      jump\t// in\n    tag_179:\n        /* \"#utility.yul\":3223:3342   */\n    tag_178:\n        /* \"#utility.yul\":3381:3382   */\n      0x00\n        /* \"#utility.yul\":3406:3459   */\n      tag_180\n        /* \"#utility.yul\":3451:3458   */\n      dup5\n        /* \"#utility.yul\":3442:3448   */\n      dup3\n        /* \"#utility.yul\":3431:3440   */\n      dup6\n        /* \"#utility.yul\":3427:3449   */\n      add\n        /* \"#utility.yul\":3406:3459   */\n      tag_152\n      jump\t// in\n    tag_180:\n        /* \"#utility.yul\":3396:3459   */\n      swap2\n      pop\n        /* \"#utility.yul\":3352:3469   */\n      pop\n        /* \"#utility.yul\":3147:3476   */\n      swap3\n      swap2\n      pop\n      pop\n      jump\t// out\n        /* \"#utility.yul\":3482:3956   */\n    tag_22:\n        /* \"#utility.yul\":3550:3556   */\n      0x00\n        /* \"#utility.yul\":3558:3564   */\n      dup1\n        /* \"#utility.yul\":3607:3609   */\n      0x40\n        /* \"#utility.yul\":3595:3604   */\n      dup4\n        /* \"#utility.yul\":3586:3593   */\n      dup6\n        /* \"#utility.yul\":3582:3605   */\n      sub\n        /* \"#utility.yul\":3578:3610   */\n      slt\n        /* \"#utility.yul\":3575:3694   */\n      iszero\n      tag_182\n      jumpi\n        /* \"#utility.yul\":3613:3692   */\n      tag_183\n      tag_159\n      jump\t// in\n    tag_183:\n        /* \"#utility.yul\":3575:3694   */\n    tag_182:\n        /* \"#utility.yul\":3733:3734   */\n      0x00\n        /* \"#utility.yul\":3758:3811   */\n      tag_184\n        /* \"#utility.yul\":3803:3810   */\n      dup6\n        /* \"#utility.yul\":3794:3800   */\n      dup3\n        /* \"#utility.yul\":3783:3792   */\n      dup7\n        /* \"#utility.yul\":3779:3801   */\n      add\n        /* \"#utility.yul\":3758:3811   */\n      tag_152\n      jump\t// in\n    tag_184:\n        /* \"#utility.yul\":3748:3811   */\n      swap3\n      pop\n        /* \"#utility.yul\":3704:3821   */\n      pop\n        /* \"#utility.yul\":3860:3862   */\n      0x20\n        /* \"#utility.yul\":3886:3939   */\n      tag_185\n        /* \"#utility.yul\":3931:3938   */\n      dup6\n        /* \"#utility.yul\":3922:3928   */\n      dup3\n        /* \"#utility.yul\":3911:3920   */\n      dup7\n        /* \"#utility.yul\":3907:3929   */\n      add\n        /* \"#utility.yul\":3886:3939   */\n      tag_152\n      jump\t// in\n    tag_185:\n        /* \"#utility.yul\":3876:3939   */\n      swap2\n      pop\n        /* \"#utility.yul\":3831:3949   */\n      pop\n        /* \"#utility.yul\":3482:3956   */\n      swap3\n      pop\n      swap3\n      swap1\n      pop\n      jump\t// out\n        /* \"#utility.yul\":3962:4080   */\n    tag_186:\n        /* \"#utility.yul\":4049:4073   */\n      tag_188\n        /* \"#utility.yul\":4067:4072   */\n      dup2\n        /* \"#utility.yul\":4049:4073   */\n      tag_189\n      jump\t// in\n    tag_188:\n        /* \"#utility.yul\":4044:4047   */\n      dup3\n        /* \"#utility.yul\":4037:4074   */\n      mstore\n        /* \"#utility.yul\":3962:4080   */\n      pop\n      pop\n      jump\t// out\n        /* \"#utility.yul\":4086:4446   */\n    tag_190:\n        /* \"#utility.yul\":4172:4175   */\n      0x00\n        /* \"#utility.yul\":4200:4238   */\n      tag_192\n        /* \"#utility.yul\":4232:4237   */\n      dup3\n        /* \"#utility.yul\":4200:4238   */\n      tag_193\n      jump\t// in\n    tag_192:\n        /* \"#utility.yul\":4254:4324   */\n      tag_194\n        /* \"#utility.yul\":4317:4323   */\n      dup2\n        /* \"#utility.yul\":4312:4315   */\n      dup6\n        /* \"#utility.yul\":4254:4324   */\n      tag_195\n      jump\t// in\n    tag_194:\n        /* \"#utility.yul\":4247:4324   */\n      swap4\n      pop\n        /* \"#utility.yul\":4333:4385   */\n      tag_196\n        /* \"#utility.yul\":4378:4384   */\n      dup2\n        /* \"#utility.yul\":4373:4376   */\n      dup6\n        /* \"#utility.yul\":4366:4370   */\n      0x20\n        /* \"#utility.yul\":4359:4364   */\n      dup7\n        /* \"#utility.yul\":4355:4371   */\n      add\n        /* \"#utility.yul\":4333:4385   */\n      tag_197\n      jump\t// in\n    tag_196:\n        /* \"#utility.yul\":4410:4439   */\n      tag_198\n        /* \"#utility.yul\":4432:4438   */\n      dup2\n        /* \"#utility.yul\":4410:4439   */\n      tag_199\n      jump\t// in\n    tag_198:\n        /* \"#utility.yul\":4405:4408   */\n      dup5\n        /* \"#utility.yul\":4401:4440   */\n      add\n        /* \"#utility.yul\":4394:4440   */\n      swap2\n      pop\n        /* \"#utility.yul\":4176:4446   */\n      pop\n        /* \"#utility.yul\":4086:4446   */\n      swap3\n      swap2\n      pop\n      pop\n      jump\t// out\n        /* \"#utility.yul\":4452:4816   */\n    tag_200:\n        /* \"#utility.yul\":4540:4543   */\n      0x00\n        /* \"#utility.yul\":4568:4607   */\n      tag_202\n        /* \"#utility.yul\":4601:4606   */\n      dup3\n        /* \"#utility.yul\":4568:4607   */\n      tag_203\n      jump\t// in\n    tag_202:\n        /* \"#utility.yul\":4623:4694   */\n      tag_204\n        /* \"#utility.yul\":4687:4693   */\n      dup2\n        /* \"#utility.yul\":4682:4685   */\n      dup6\n        /* \"#utility.yul\":4623:4694   */\n      tag_205\n      jump\t// in\n    tag_204:\n        /* \"#utility.yul\":4616:4694   */\n      swap4\n      pop\n        /* \"#utility.yul\":4703:4755   */\n      tag_206\n        /* \"#utility.yul\":4748:4754   */\n      dup2\n        /* \"#utility.yul\":4743:4746   */\n      dup6\n        /* \"#utility.yul\":4736:4740   */\n      0x20\n        /* \"#utility.yul\":4729:4734   */\n      dup7\n        /* \"#utility.yul\":4725:4741   */\n      add\n        /* \"#utility.yul\":4703:4755   */\n      tag_197\n      jump\t// in\n    tag_206:\n        /* \"#utility.yul\":4780:4809   */\n      tag_207\n        /* \"#utility.yul\":4802:4808   */\n      dup2\n        /* \"#utility.yul\":4780:4809   */\n      tag_199\n      jump\t// in\n    tag_207:\n        /* \"#utility.yul\":4775:4778   */\n      dup5\n        /* \"#utility.yul\":4771:4810   */\n      add\n        /* \"#utility.yul\":4764:4810   */\n      swap2\n      pop\n        /* \"#utility.yul\":4544:4816   */\n      pop\n        /* \"#utility.yul\":4452:4816   */\n      swap3\n      swap2\n      pop\n      pop\n      jump\t// out\n        /* \"#utility.yul\":4822:5188   */\n    tag_208:\n        /* \"#utility.yul\":4964:4967   */\n      0x00\n        /* \"#utility.yul\":4985:5052   */\n      tag_210\n        /* \"#utility.yul\":5049:5051   */\n      0x34\n        /* \"#utility.yul\":5044:5047   */\n      dup4\n        /* \"#utility.yul\":4985:5052   */\n      tag_205\n      jump\t// in\n    tag_210:\n        /* \"#utility.yul\":4978:5052   */\n      swap2\n      pop\n        /* \"#utility.yul\":5061:5154   */\n      tag_211\n        /* \"#utility.yul\":5150:5153   */\n      dup3\n        /* \"#utility.yul\":5061:5154   */\n      tag_212\n      jump\t// in\n    tag_211:\n        /* \"#utility.yul\":5179:5181   */\n      0x40\n        /* \"#utility.yul\":5174:5177   */\n      dup3\n        /* \"#utility.yul\":5170:5182   */\n      add\n        /* \"#utility.yul\":5163:5182   */\n      swap1\n      pop\n        /* \"#utility.yul\":4822:5188   */\n      swap2\n      swap1\n      pop\n      jump\t// out\n        /* \"#utility.yul\":5194:5560   */\n    tag_213:\n        /* \"#utility.yul\":5336:5339   */\n      0x00\n        /* \"#utility.yul\":5357:5424   */\n      tag_215\n        /* \"#utility.yul\":5421:5423   */\n      0x2f\n        /* \"#utility.yul\":5416:5419   */\n      dup4\n        /* \"#utility.yul\":5357:5424   */\n      tag_205\n      jump\t// in\n    tag_215:\n        /* \"#utility.yul\":5350:5424   */\n      swap2\n      pop\n        /* \"#utility.yul\":5433:5526   */\n      tag_216\n        /* \"#utility.yul\":5522:5525   */\n      dup3\n        /* \"#utility.yul\":5433:5526   */\n      tag_217\n      jump\t// in\n    tag_216:\n        /* \"#utility.yul\":5551:5553   */\n      0x40\n        /* \"#utility.yul\":5546:5549   */\n      dup3\n        /* \"#utility.yul\":5542:5554   */\n      add\n        /* \"#utility.yul\":5535:5554   */\n      swap1\n      pop\n        /* \"#utility.yul\":5194:5560   */\n      swap2\n      swap1\n      pop\n      jump\t// out\n        /* \"#utility.yul\":5566:5932   */\n    tag_218:\n        /* \"#utility.yul\":5708:5711   */\n      0x00\n        /* \"#utility.yul\":5729:5796   */\n      tag_220\n        /* \"#utility.yul\":5793:5795   */\n      0x28\n        /* \"#utility.yul\":5788:5791   */\n      dup4\n        /* \"#utility.yul\":5729:5796   */\n      tag_205\n      jump\t// in\n    tag_220:\n        /* \"#utility.yul\":5722:5796   */\n      swap2\n      pop\n        /* \"#utility.yul\":5805:5898   */\n      tag_221\n        /* \"#utility.yul\":5894:5897   */\n      dup3\n        /* \"#utility.yul\":5805:5898   */\n      tag_222\n      jump\t// in\n    tag_221:\n        /* \"#utility.yul\":5923:5925   */\n      0x40\n        /* \"#utility.yul\":5918:5921   */\n      dup3\n        /* \"#utility.yul\":5914:5926   */\n      add\n        /* \"#utility.yul\":5907:5926   */\n      swap1\n      pop\n        /* \"#utility.yul\":5566:5932   */\n      swap2\n      swap1\n      pop\n      jump\t// out\n        /* \"#utility.yul\":5938:6304   */\n    tag_223:\n        /* \"#utility.yul\":6080:6083   */\n      0x00\n        /* \"#utility.yul\":6101:6168   */\n      tag_225\n        /* \"#utility.yul\":6165:6167   */\n      0x2a\n        /* \"#utility.yul\":6160:6163   */\n      dup4\n        /* \"#utility.yul\":6101:6168   */\n      tag_205\n      jump\t// in\n    tag_225:\n        /* \"#utility.yul\":6094:6168   */\n      swap2\n      pop\n        /* \"#utility.yul\":6177:6270   */\n      tag_226\n        /* \"#utility.yul\":6266:6269   */\n      dup3\n        /* \"#utility.yul\":6177:6270   */\n      tag_227\n      jump\t// in\n    tag_226:\n        /* \"#utility.yul\":6295:6297   */\n      0x40\n        /* \"#utility.yul\":6290:6293   */\n      dup3\n        /* \"#utility.yul\":6286:6298   */\n      add\n        /* \"#utility.yul\":6279:6298   */\n      swap1\n      pop\n        /* \"#utility.yul\":5938:6304   */\n      swap2\n      swap1\n      pop\n      jump\t// out\n        /* \"#utility.yul\":6310:6676   */\n    tag_228:\n        /* \"#utility.yul\":6452:6455   */\n      0x00\n        /* \"#utility.yul\":6473:6540   */\n      tag_230\n        /* \"#utility.yul\":6537:6539   */\n      0x25\n        /* \"#utility.yul\":6532:6535   */\n      dup4\n        /* \"#utility.yul\":6473:6540   */\n      tag_205\n      jump\t// in\n    tag_230:\n        /* \"#utility.yul\":6466:6540   */\n      swap2\n      pop\n        /* \"#utility.yul\":6549:6642   */\n      tag_231\n        /* \"#utility.yul\":6638:6641   */\n      dup3\n        /* \"#utility.yul\":6549:6642   */\n      tag_232\n      jump\t// in\n    tag_231:\n        /* \"#utility.yul\":6667:6669   */\n      0x40\n        /* \"#utility.yul\":6662:6665   */\n      dup3\n        /* \"#utility.yul\":6658:6670   */\n      add\n        /* \"#utility.yul\":6651:6670   */\n      swap1\n      pop\n        /* \"#utility.yul\":6310:6676   */\n      swap2\n      swap1\n      pop\n      jump\t// out\n        /* \"#utility.yul\":6682:7048   */\n    tag_233:\n        /* \"#utility.yul\":6824:6827   */\n      0x00\n        /* \"#utility.yul\":6845:6912   */\n      tag_235\n        /* \"#utility.yul\":6909:6911   */\n      0x2a\n        /* \"#utility.yul\":6904:6907   */\n      dup4\n        /* \"#utility.yul\":6845:6912   */\n      tag_205\n      jump\t// in\n    tag_235:\n        /* \"#utility.yul\":6838:6912   */\n      swap2\n      pop\n        /* \"#utility.yul\":6921:7014   */\n      tag_236\n        /* \"#utility.yul\":7010:7013   */\n      dup3\n        /* \"#utility.yul\":6921:7014   */\n      tag_237\n      jump\t// in\n    tag_236:\n        /* \"#utility.yul\":7039:7041   */\n      0x40\n        /* \"#utility.yul\":7034:7037   */\n      dup3\n        /* \"#utility.yul\":7030:7042   */\n      add\n        /* \"#utility.yul\":7023:7042   */\n      swap1\n      pop\n        /* \"#utility.yul\":6682:7048   */\n      swap2\n      swap1\n      pop\n      jump\t// out\n        /* \"#utility.yul\":7054:7420   */\n    tag_238:\n        /* \"#utility.yul\":7196:7199   */\n      0x00\n        /* \"#utility.yul\":7217:7284   */\n      tag_240\n        /* \"#utility.yul\":7281:7283   */\n      0x21\n        /* \"#utility.yul\":7276:7279   */\n      dup4\n        /* \"#utility.yul\":7217:7284   */\n      tag_205\n      jump\t// in\n    tag_240:\n        /* \"#utility.yul\":7210:7284   */\n      swap2\n      pop\n        /* \"#utility.yul\":7293:7386   */\n      tag_241\n        /* \"#utility.yul\":7382:7385   */\n      dup3\n        /* \"#utility.yul\":7293:7386   */\n      tag_242\n      jump\t// in\n    tag_241:\n        /* \"#utility.yul\":7411:7413   */\n      0x40\n        /* \"#utility.yul\":7406:7409   */\n      dup3\n        /* \"#utility.yul\":7402:7414   */\n      add\n        /* \"#utility.yul\":7395:7414   */\n      swap1\n      pop\n        /* \"#utility.yul\":7054:7420   */\n      swap2\n      swap1\n      pop\n      jump\t// out\n        /* \"#utility.yul\":7426:7544   */\n    tag_243:\n        /* \"#utility.yul\":7513:7537   */\n      tag_245\n        /* \"#utility.yul\":7531:7536   */\n      dup2\n        /* \"#utility.yul\":7513:7537   */\n      tag_246\n      jump\t// in\n    tag_245:\n        /* \"#utility.yul\":7508:7511   */\n      dup3\n        /* \"#utility.yul\":7501:7538   */\n      mstore\n        /* \"#utility.yul\":7426:7544   */\n      pop\n      pop\n      jump\t// out\n        /* \"#utility.yul\":7550:8301   */\n    tag_104:\n        /* \"#utility.yul\":7773:7777   */\n      0x00\n        /* \"#utility.yul\":7811:7814   */\n      0xa0\n        /* \"#utility.yul\":7800:7809   */\n      dup3\n        /* \"#utility.yul\":7796:7815   */\n      add\n        /* \"#utility.yul\":7788:7815   */\n      swap1\n      pop\n        /* \"#utility.yul\":7825:7896   */\n      tag_248\n        /* \"#utility.yul\":7893:7894   */\n      0x00\n        /* \"#utility.yul\":7882:7891   */\n      dup4\n        /* \"#utility.yul\":7878:7895   */\n      add\n        /* \"#utility.yul\":7869:7875   */\n      dup9\n        /* \"#utility.yul\":7825:7896   */\n      tag_186\n      jump\t// in\n    tag_248:\n        /* \"#utility.yul\":7906:7978   */\n      tag_249\n        /* \"#utility.yul\":7974:7976   */\n      0x20\n        /* \"#utility.yul\":7963:7972   */\n      dup4\n        /* \"#utility.yul\":7959:7977   */\n      add\n        /* \"#utility.yul\":7950:7956   */\n      dup8\n        /* \"#utility.yul\":7906:7978   */\n      tag_186\n      jump\t// in\n    tag_249:\n        /* \"#utility.yul\":7988:8060   */\n      tag_250\n        /* \"#utility.yul\":8056:8058   */\n      0x40\n        /* \"#utility.yul\":8045:8054   */\n      dup4\n        /* \"#utility.yul\":8041:8059   */\n      add\n        /* \"#utility.yul\":8032:8038   */\n      dup7\n        /* \"#utility.yul\":7988:8060   */\n      tag_243\n      jump\t// in\n    tag_250:\n        /* \"#utility.yul\":8070:8142   */\n      tag_251\n        /* \"#utility.yul\":8138:8140   */\n      0x60\n        /* \"#utility.yul\":8127:8136   */\n      dup4\n        /* \"#utility.yul\":8123:8141   */\n      add\n        /* \"#utility.yul\":8114:8120   */\n      dup6\n        /* \"#utility.yul\":8070:8142   */\n      tag_243\n      jump\t// in\n    tag_251:\n        /* \"#utility.yul\":8190:8199   */\n      dup2\n        /* \"#utility.yul\":8184:8188   */\n      dup2\n        /* \"#utility.yul\":8180:8200   */\n      sub\n        /* \"#utility.yul\":8174:8177   */\n      0x80\n        /* \"#utility.yul\":8163:8172   */\n      dup4\n        /* \"#utility.yul\":8159:8178   */\n      add\n        /* \"#utility.yul\":8152:8201   */\n      mstore\n        /* \"#utility.yul\":8218:8294   */\n      tag_252\n        /* \"#utility.yul\":8289:8293   */\n      dup2\n        /* \"#utility.yul\":8280:8286   */\n      dup5\n        /* \"#utility.yul\":8218:8294   */\n      tag_190\n      jump\t// in\n    tag_252:\n        /* \"#utility.yul\":8210:8294   */\n      swap1\n      pop\n        /* \"#utility.yul\":7550:8301   */\n      swap7\n      swap6\n      pop\n      pop\n      pop\n      pop\n      pop\n      pop\n      jump\t// out\n        /* \"#utility.yul\":8307:8620   */\n    tag_19:\n        /* \"#utility.yul\":8420:8424   */\n      0x00\n        /* \"#utility.yul\":8458:8460   */\n      0x20\n        /* \"#utility.yul\":8447:8456   */\n      dup3\n        /* \"#utility.yul\":8443:8461   */\n      add\n        /* \"#utility.yul\":8435:8461   */\n      swap1\n      pop\n        /* \"#utility.yul\":8507:8516   */\n      dup2\n        /* \"#utility.yul\":8501:8505   */\n      dup2\n        /* \"#utility.yul\":8497:8517   */\n      sub\n        /* \"#utility.yul\":8493:8494   */\n      0x00\n        /* \"#utility.yul\":8482:8491   */\n      dup4\n        /* \"#utility.yul\":8478:8495   */\n      add\n        /* \"#utility.yul\":8471:8518   */\n      mstore\n        /* \"#utility.yul\":8535:8613   */\n      tag_254\n        /* \"#utility.yul\":8608:8612   */\n      dup2\n        /* \"#utility.yul\":8599:8605   */\n      dup5\n        /* \"#utility.yul\":8535:8613   */\n      tag_200\n      jump\t// in\n    tag_254:\n        /* \"#utility.yul\":8527:8613   */\n      swap1\n      pop\n        /* \"#utility.yul\":8307:8620   */\n      swap3\n      swap2\n      pop\n      pop\n      jump\t// out\n        /* \"#utility.yul\":8626:9045   */\n    tag_120:\n        /* \"#utility.yul\":8792:8796   */\n      0x00\n        /* \"#utility.yul\":8830:8832   */\n      0x20\n        /* \"#utility.yul\":8819:8828   */\n      dup3\n        /* \"#utility.yul\":8815:8833   */\n      add\n        /* \"#utility.yul\":8807:8833   */\n      swap1\n      pop\n        /* \"#utility.yul\":8879:8888   */\n      dup2\n        /* \"#utility.yul\":8873:8877   */\n      dup2\n        /* \"#utility.yul\":8869:8889   */\n      sub\n        /* \"#utility.yul\":8865:8866   */\n      0x00\n        /* \"#utility.yul\":8854:8863   */\n      dup4\n        /* \"#utility.yul\":8850:8867   */\n      add\n        /* \"#utility.yul\":8843:8890   */\n      mstore\n        /* \"#utility.yul\":8907:9038   */\n      tag_256\n        /* \"#utility.yul\":9033:9037   */\n      dup2\n        /* \"#utility.yul\":8907:9038   */\n      tag_208\n      jump\t// in\n    tag_256:\n        /* \"#utility.yul\":8899:9038   */\n      swap1\n      pop\n        /* \"#utility.yul\":8626:9045   */\n      swap2\n      swap1\n      pop\n      jump\t// out\n        /* \"#utility.yul\":9051:9470   */\n    tag_53:\n        /* \"#utility.yul\":9217:9221   */\n      0x00\n        /* \"#utility.yul\":9255:9257   */\n      0x20\n        /* \"#utility.yul\":9244:9253   */\n      dup3\n        /* \"#utility.yul\":9240:9258   */\n      add\n        /* \"#utility.yul\":9232:9258   */\n      swap1\n      pop\n        /* \"#utility.yul\":9304:9313   */\n      dup2\n        /* \"#utility.yul\":9298:9302   */\n      dup2\n        /* \"#utility.yul\":9294:9314   */\n      sub\n        /* \"#utility.yul\":9290:9291   */\n      0x00\n        /* \"#utility.yul\":9279:9288   */\n      dup4\n        /* \"#utility.yul\":9275:9292   */\n      add\n        /* \"#utility.yul\":9268:9315   */\n      mstore\n        /* \"#utility.yul\":9332:9463   */\n      tag_258\n        /* \"#utility.yul\":9458:9462   */\n      dup2\n        /* \"#utility.yul\":9332:9463   */\n      tag_213\n      jump\t// in\n    tag_258:\n        /* \"#utility.yul\":9324:9463   */\n      swap1\n      pop\n        /* \"#utility.yul\":9051:9470   */\n      swap2\n      swap1\n      pop\n      jump\t// out\n        /* \"#utility.yul\":9476:9895   */\n    tag_124:\n        /* \"#utility.yul\":9642:9646   */\n      0x00\n        /* \"#utility.yul\":9680:9682   */\n      0x20\n        /* \"#utility.yul\":9669:9678   */\n      dup3\n        /* \"#utility.yul\":9665:9683   */\n      add\n        /* \"#utility.yul\":9657:9683   */\n      swap1\n      pop\n        /* \"#utility.yul\":9729:9738   */\n      dup2\n        /* \"#utility.yul\":9723:9727   */\n      dup2\n        /* \"#utility.yul\":9719:9739   */\n      sub\n        /* \"#utility.yul\":9715:9716   */\n      0x00\n        /* \"#utility.yul\":9704:9713   */\n      dup4\n        /* \"#utility.yul\":9700:9717   */\n      add\n        /* \"#utility.yul\":9693:9740   */\n      mstore\n        /* \"#utility.yul\":9757:9888   */\n      tag_260\n        /* \"#utility.yul\":9883:9887   */\n      dup2\n        /* \"#utility.yul\":9757:9888   */\n      tag_218\n      jump\t// in\n    tag_260:\n        /* \"#utility.yul\":9749:9888   */\n      swap1\n      pop\n        /* \"#utility.yul\":9476:9895   */\n      swap2\n      swap1\n      pop\n      jump\t// out\n        /* \"#utility.yul\":9901:10320   */\n    tag_34:\n        /* \"#utility.yul\":10067:10071   */\n      0x00\n        /* \"#utility.yul\":10105:10107   */\n      0x20\n        /* \"#utility.yul\":10094:10103   */\n      dup3\n        /* \"#utility.yul\":10090:10108   */\n      add\n        /* \"#utility.yul\":10082:10108   */\n      swap1\n      pop\n        /* \"#utility.yul\":10154:10163   */\n      dup2\n        /* \"#utility.yul\":10148:10152   */\n      dup2\n        /* \"#utility.yul\":10144:10164   */\n      sub\n        /* \"#utility.yul\":10140:10141   */\n      0x00\n        /* \"#utility.yul\":10129:10138   */\n      dup4\n        /* \"#utility.yul\":10125:10142   */\n      add\n        /* \"#utility.yul\":10118:10165   */\n      mstore\n        /* \"#utility.yul\":10182:10313   */\n      tag_262\n        /* \"#utility.yul\":10308:10312   */\n      dup2\n        /* \"#utility.yul\":10182:10313   */\n      tag_223\n      jump\t// in\n    tag_262:\n        /* \"#utility.yul\":10174:10313   */\n      swap1\n      pop\n        /* \"#utility.yul\":9901:10320   */\n      swap2\n      swap1\n      pop\n      jump\t// out\n        /* \"#utility.yul\":10326:10745   */\n    tag_76:\n        /* \"#utility.yul\":10492:10496   */\n      0x00\n        /* \"#utility.yul\":10530:10532   */\n      0x20\n        /* \"#utility.yul\":10519:10528   */\n      dup3\n        /* \"#utility.yul\":10515:10533   */\n      add\n        /* \"#utility.yul\":10507:10533   */\n      swap1\n      pop\n        /* \"#utility.yul\":10579:10588   */\n      dup2\n        /* \"#utility.yul\":10573:10577   */\n      dup2\n        /* \"#utility.yul\":10569:10589   */\n      sub\n        /* \"#utility.yul\":10565:10566   */\n      0x00\n        /* \"#utility.yul\":10554:10563   */\n      dup4\n        /* \"#utility.yul\":10550:10567   */\n      add\n        /* \"#utility.yul\":10543:10590   */\n      mstore\n        /* \"#utility.yul\":10607:10738   */\n      tag_264\n        /* \"#utility.yul\":10733:10737   */\n      dup2\n        /* \"#utility.yul\":10607:10738   */\n      tag_228\n      jump\t// in\n    tag_264:\n        /* \"#utility.yul\":10599:10738   */\n      swap1\n      pop\n        /* \"#utility.yul\":10326:10745   */\n      swap2\n      swap1\n      pop\n      jump\t// out\n        /* \"#utility.yul\":10751:11170   */\n    tag_83:\n        /* \"#utility.yul\":10917:10921   */\n      0x00\n        /* \"#utility.yul\":10955:10957   */\n      0x20\n        /* \"#utility.yul\":10944:10953   */\n      dup3\n        /* \"#utility.yul\":10940:10958   */\n      add\n        /* \"#utility.yul\":10932:10958   */\n      swap1\n      pop\n        /* \"#utility.yul\":11004:11013   */\n      dup2\n        /* \"#utility.yul\":10998:11002   */\n      dup2\n        /* \"#utility.yul\":10994:11014   */\n      sub\n        /* \"#utility.yul\":10990:10991   */\n      0x00\n        /* \"#utility.yul\":10979:10988   */\n      dup4\n        /* \"#utility.yul\":10975:10992   */\n      add\n        /* \"#utility.yul\":10968:11015   */\n      mstore\n        /* \"#utility.yul\":11032:11163   */\n      tag_266\n        /* \"#utility.yul\":11158:11162   */\n      dup2\n        /* \"#utility.yul\":11032:11163   */\n      tag_233\n      jump\t// in\n    tag_266:\n        /* \"#utility.yul\":11024:11163   */\n      swap1\n      pop\n        /* \"#utility.yul\":10751:11170   */\n      swap2\n      swap1\n      pop\n      jump\t// out\n        /* \"#utility.yul\":11176:11595   */\n    tag_58:\n        /* \"#utility.yul\":11342:11346   */\n      0x00\n        /* \"#utility.yul\":11380:11382   */\n      0x20\n        /* \"#utility.yul\":11369:11378   */\n      dup3\n        /* \"#utility.yul\":11365:11383   */\n      add\n        /* \"#utility.yul\":11357:11383   */\n      swap1\n      pop\n        /* \"#utility.yul\":11429:11438   */\n      dup2\n        /* \"#utility.yul\":11423:11427   */\n      dup2\n        /* \"#utility.yul\":11419:11439   */\n      sub\n        /* \"#utility.yul\":11415:11416   */\n      0x00\n        /* \"#utility.yul\":11404:11413   */\n      dup4\n        /* \"#utility.yul\":11400:11417   */\n      add\n        /* \"#utility.yul\":11393:11440   */\n      mstore\n        /* \"#utility.yul\":11457:11588   */\n      tag_268\n        /* \"#utility.yul\":11583:11587   */\n      dup2\n        /* \"#utility.yul\":11457:11588   */\n      tag_238\n      jump\t// in\n    tag_268:\n        /* \"#utility.yul\":11449:11588   */\n      swap1\n      pop\n        /* \"#utility.yul\":11176:11595   */\n      swap2\n      swap1\n      pop\n      jump\t// out\n        /* \"#utility.yul\":11601:11823   */\n    tag_13:\n        /* \"#utility.yul\":11694:11698   */\n      0x00\n        /* \"#utility.yul\":11732:11734   */\n      0x20\n        /* \"#utility.yul\":11721:11730   */\n      dup3\n        /* \"#utility.yul\":11717:11735   */\n      add\n        /* \"#utility.yul\":11709:11735   */\n      swap1\n      pop\n        /* \"#utility.yul\":11745:11816   */\n      tag_270\n        /* \"#utility.yul\":11813:11814   */\n      0x00\n        /* \"#utility.yul\":11802:11811   */\n      dup4\n        /* \"#utility.yul\":11798:11815   */\n      add\n        /* \"#utility.yul\":11789:11795   */\n      dup5\n        /* \"#utility.yul\":11745:11816   */\n      tag_243\n      jump\t// in\n    tag_270:\n        /* \"#utility.yul\":11601:11823   */\n      swap3\n      swap2\n      pop\n      pop\n      jump\t// out\n        /* \"#utility.yul\":11829:12161   */\n    tag_68:\n        /* \"#utility.yul\":11950:11954   */\n      0x00\n        /* \"#utility.yul\":11988:11990   */\n      0x40\n        /* \"#utility.yul\":11977:11986   */\n      dup3\n        /* \"#utility.yul\":11973:11991   */\n      add\n        /* \"#utility.yul\":11965:11991   */\n      swap1\n      pop\n        /* \"#utility.yul\":12001:12072   */\n      tag_272\n        /* \"#utility.yul\":12069:12070   */\n      0x00\n        /* \"#utility.yul\":12058:12067   */\n      dup4\n        /* \"#utility.yul\":12054:12071   */\n      add\n        /* \"#utility.yul\":12045:12051   */\n      dup6\n        /* \"#utility.yul\":12001:12072   */\n      tag_243\n      jump\t// in\n    tag_272:\n        /* \"#utility.yul\":12082:12154   */\n      tag_273\n        /* \"#utility.yul\":12150:12152   */\n      0x20\n        /* \"#utility.yul\":12139:12148   */\n      dup4\n        /* \"#utility.yul\":12135:12153   */\n      add\n        /* \"#utility.yul\":12126:12132   */\n      dup5\n        /* \"#utility.yul\":12082:12154   */\n      tag_243\n      jump\t// in\n    tag_273:\n        /* \"#utility.yul\":11829:12161   */\n      swap4\n      swap3\n      pop\n      pop\n      pop\n      jump\t// out\n        /* \"#utility.yul\":12167:12296   */\n    tag_132:\n        /* \"#utility.yul\":12201:12207   */\n      0x00\n        /* \"#utility.yul\":12228:12248   */\n      tag_275\n      tag_276\n      jump\t// in\n    tag_275:\n        /* \"#utility.yul\":12218:12248   */\n      swap1\n      pop\n        /* \"#utility.yul\":12257:12290   */\n      tag_277\n        /* \"#utility.yul\":12285:12289   */\n      dup3\n        /* \"#utility.yul\":12277:12283   */\n      dup3\n        /* \"#utility.yul\":12257:12290   */\n      tag_278\n      jump\t// in\n    tag_277:\n        /* \"#utility.yul\":12167:12296   */\n      swap2\n      swap1\n      pop\n      jump\t// out\n        /* \"#utility.yul\":12302:12377   */\n    tag_276:\n        /* \"#utility.yul\":12335:12341   */\n      0x00\n        /* \"#utility.yul\":12368:12370   */\n      0x40\n        /* \"#utility.yul\":12362:12371   */\n      mload\n        /* \"#utility.yul\":12352:12371   */\n      swap1\n      pop\n        /* \"#utility.yul\":12302:12377   */\n      swap1\n      jump\t// out\n        /* \"#utility.yul\":12383:12690   */\n    tag_131:\n        /* \"#utility.yul\":12444:12448   */\n      0x00\n        /* \"#utility.yul\":12534:12552   */\n      0xffffffffffffffff\n        /* \"#utility.yul\":12526:12532   */\n      dup3\n        /* \"#utility.yul\":12523:12553   */\n      gt\n        /* \"#utility.yul\":12520:12576   */\n      iszero\n      tag_281\n      jumpi\n        /* \"#utility.yul\":12556:12574   */\n      tag_282\n      tag_92\n      jump\t// in\n    tag_282:\n        /* \"#utility.yul\":12520:12576   */\n    tag_281:\n        /* \"#utility.yul\":12594:12623   */\n      tag_283\n        /* \"#utility.yul\":12616:12622   */\n      dup3\n        /* \"#utility.yul\":12594:12623   */\n      tag_199\n      jump\t// in\n    tag_283:\n        /* \"#utility.yul\":12586:12623   */\n      swap1\n      pop\n        /* \"#utility.yul\":12678:12682   */\n      0x20\n        /* \"#utility.yul\":12672:12676   */\n      dup2\n        /* \"#utility.yul\":12668:12683   */\n      add\n        /* \"#utility.yul\":12660:12683   */\n      swap1\n      pop\n        /* \"#utility.yul\":12383:12690   */\n      swap2\n      swap1\n      pop\n      jump\t// out\n        /* \"#utility.yul\":12696:12794   */\n    tag_193:\n        /* \"#utility.yul\":12747:12753   */\n      0x00\n        /* \"#utility.yul\":12781:12786   */\n      dup2\n        /* \"#utility.yul\":12775:12787   */\n      mload\n        /* \"#utility.yul\":12765:12787   */\n      swap1\n      pop\n        /* \"#utility.yul\":12696:12794   */\n      swap2\n      swap1\n      pop\n      jump\t// out\n        /* \"#utility.yul\":12800:12899   */\n    tag_203:\n        /* \"#utility.yul\":12852:12858   */\n      0x00\n        /* \"#utility.yul\":12886:12891   */\n      dup2\n        /* \"#utility.yul\":12880:12892   */\n      mload\n        /* \"#utility.yul\":12870:12892   */\n      swap1\n      pop\n        /* \"#utility.yul\":12800:12899   */\n      swap2\n      swap1\n      pop\n      jump\t// out\n        /* \"#utility.yul\":12905:13073   */\n    tag_195:\n        /* \"#utility.yul\":12988:12999   */\n      0x00\n        /* \"#utility.yul\":13022:13028   */\n      dup3\n        /* \"#utility.yul\":13017:13020   */\n      dup3\n        /* \"#utility.yul\":13010:13029   */\n      mstore\n        /* \"#utility.yul\":13062:13066   */\n      0x20\n        /* \"#utility.yul\":13057:13060   */\n      dup3\n        /* \"#utility.yul\":13053:13067   */\n      add\n        /* \"#utility.yul\":13038:13067   */\n      swap1\n      pop\n        /* \"#utility.yul\":12905:13073   */\n      swap3\n      swap2\n      pop\n      pop\n      jump\t// out\n        /* \"#utility.yul\":13079:13248   */\n    tag_205:\n        /* \"#utility.yul\":13163:13174   */\n      0x00\n        /* \"#utility.yul\":13197:13203   */\n      dup3\n        /* \"#utility.yul\":13192:13195   */\n      dup3\n        /* \"#utility.yul\":13185:13204   */\n      mstore\n        /* \"#utility.yul\":13237:13241   */\n      0x20\n        /* \"#utility.yul\":13232:13235   */\n      dup3\n        /* \"#utility.yul\":13228:13242   */\n      add\n        /* \"#utility.yul\":13213:13242   */\n      swap1\n      pop\n        /* \"#utility.yul\":13079:13248   */\n      swap3\n      swap2\n      pop\n      pop\n      jump\t// out\n        /* \"#utility.yul\":13254:13559   */\n    tag_66:\n        /* \"#utility.yul\":13294:13297   */\n      0x00\n        /* \"#utility.yul\":13313:13333   */\n      tag_289\n        /* \"#utility.yul\":13331:13332   */\n      dup3\n        /* \"#utility.yul\":13313:13333   */\n      tag_246\n      jump\t// in\n    tag_289:\n        /* \"#utility.yul\":13308:13333   */\n      swap2\n      pop\n        /* \"#utility.yul\":13347:13367   */\n      tag_290\n        /* \"#utility.yul\":13365:13366   */\n      dup4\n        /* \"#utility.yul\":13347:13367   */\n      tag_246\n      jump\t// in\n    tag_290:\n        /* \"#utility.yul\":13342:13367   */\n      swap3\n      pop\n        /* \"#utility.yul\":13501:13502   */\n      dup3\n        /* \"#utility.yul\":13433:13499   */\n      0xffffffffffffffffffffffffffffffffffffffffffffffffffffffffffffffff\n        /* \"#utility.yul\":13429:13503   */\n      sub\n        /* \"#utility.yul\":13426:13427   */\n      dup3\n        /* \"#utility.yul\":13423:13504   */\n      gt\n        /* \"#utility.yul\":13420:13527   */\n      iszero\n      tag_291\n      jumpi\n        /* \"#utility.yul\":13507:13525   */\n      tag_292\n      tag_293\n      jump\t// in\n    tag_292:\n        /* \"#utility.yul\":13420:13527   */\n    tag_291:\n        /* \"#utility.yul\":13551:13552   */\n      dup3\n        /* \"#utility.yul\":13548:13549   */\n      dup3\n        /* \"#utility.yul\":13544:13553   */\n      add\n        /* \"#utility.yul\":13537:13553   */\n      swap1\n      pop\n        /* \"#utility.yul\":13254:13559   */\n      swap3\n      swap2\n      pop\n      pop\n      jump\t// out\n        /* \"#utility.yul\":13565:13661   */\n    tag_189:\n        /* \"#utility.yul\":13602:13609   */\n      0x00\n        /* \"#utility.yul\":13631:13655   */\n      tag_295\n        /* \"#utility.yul\":13649:13654   */\n      dup3\n        /* \"#utility.yul\":13631:13655   */\n      tag_296\n      jump\t// in\n    tag_295:\n        /* \"#utility.yul\":13620:13655   */\n      swap1\n      pop\n        /* \"#utility.yul\":13565:13661   */\n      swap2\n      swap1\n      pop\n      jump\t// out\n        /* \"#utility.yul\":13667:13816   */\n    tag_297:\n        /* \"#utility.yul\":13703:13710   */\n      0x00\n        /* \"#utility.yul\":13743:13809   */\n      0xffffffff00000000000000000000000000000000000000000000000000000000\n        /* \"#utility.yul\":13736:13741   */\n      dup3\n        /* \"#utility.yul\":13732:13810   */\n      and\n        /* \"#utility.yul\":13721:13810   */\n      swap1\n      pop\n        /* \"#utility.yul\":13667:13816   */\n      swap2\n      swap1\n      pop\n      jump\t// out\n        /* \"#utility.yul\":13822:13948   */\n    tag_296:\n        /* \"#utility.yul\":13859:13866   */\n      0x00\n        /* \"#utility.yul\":13899:13941   */\n      0xffffffffffffffffffffffffffffffffffffffff\n        /* \"#utility.yul\":13892:13897   */\n      dup3\n        /* \"#utility.yul\":13888:13942   */\n      and\n        /* \"#utility.yul\":13877:13942   */\n      swap1\n      pop\n        /* \"#utility.yul\":13822:13948   */\n      swap2\n      swap1\n      pop\n      jump\t// out\n        /* \"#utility.yul\":13954:14031   */\n    tag_246:\n        /* \"#utility.yul\":13991:13998   */\n      0x00\n        /* \"#utility.yul\":14020:14025   */\n      dup2\n        /* \"#utility.yul\":14009:14025   */\n      swap1\n      pop\n        /* \"#utility.yul\":13954:14031   */\n      swap2\n      swap1\n      pop\n      jump\t// out\n        /* \"#utility.yul\":14037:14191   */\n    tag_137:\n        /* \"#utility.yul\":14121:14127   */\n      dup3\n        /* \"#utility.yul\":14116:14119   */\n      dup2\n        /* \"#utility.yul\":14111:14114   */\n      dup4\n        /* \"#utility.yul\":14098:14128   */\n      calldatacopy\n        /* \"#utility.yul\":14183:14184   */\n      0x00\n        /* \"#utility.yul\":14174:14180   */\n      dup4\n        /* \"#utility.yul\":14169:14172   */\n      dup4\n        /* \"#utility.yul\":14165:14181   */\n      add\n        /* \"#utility.yul\":14158:14185   */\n      mstore\n        /* \"#utility.yul\":14037:14191   */\n      pop\n      pop\n      pop\n      jump\t// out\n        /* \"#utility.yul\":14197:14504   */\n    tag_197:\n        /* \"#utility.yul\":14265:14266   */\n      0x00\n        /* \"#utility.yul\":14275:14388   */\n    tag_303:\n        /* \"#utility.yul\":14289:14295   */\n      dup4\n        /* \"#utility.yul\":14286:14287   */\n      dup2\n        /* \"#utility.yul\":14283:14296   */\n      lt\n        /* \"#utility.yul\":14275:14388   */\n      iszero\n      tag_305\n      jumpi\n        /* \"#utility.yul\":14374:14375   */\n      dup1\n        /* \"#utility.yul\":14369:14372   */\n      dup3\n        /* \"#utility.yul\":14365:14376   */\n      add\n        /* \"#utility.yul\":14359:14377   */\n      mload\n        /* \"#utility.yul\":14355:14356   */\n      dup2\n        /* \"#utility.yul\":14350:14353   */\n      dup5\n        /* \"#utility.yul\":14346:14357   */\n      add\n        /* \"#utility.yul\":14339:14378   */\n      mstore\n        /* \"#utility.yul\":14311:14313   */\n      0x20\n        /* \"#utility.yul\":14308:14309   */\n      dup2\n        /* \"#utility.yul\":14304:14314   */\n      add\n        /* \"#utility.yul\":14299:14314   */\n      swap1\n      pop\n        /* \"#utility.yul\":14275:14388   */\n      jump(tag_303)\n    tag_305:\n        /* \"#utility.yul\":14406:14412   */\n      dup4\n        /* \"#utility.yul\":14403:14404   */\n      dup2\n        /* \"#utility.yul\":14400:14413   */\n      gt\n        /* \"#utility.yul\":14397:14498   */\n      iszero\n      tag_306\n      jumpi\n        /* \"#utility.yul\":14486:14487   */\n      0x00\n        /* \"#utility.yul\":14477:14483   */\n      dup5\n        /* \"#utility.yul\":14472:14475   */\n      dup5\n        /* \"#utility.yul\":14468:14484   */\n      add\n        /* \"#utility.yul\":14461:14488   */\n      mstore\n        /* \"#utility.yul\":14397:14498   */\n    tag_306:\n        /* \"#utility.yul\":14246:14504   */\n      pop\n        /* \"#utility.yul\":14197:14504   */\n      pop\n      pop\n      pop\n      jump\t// out\n        /* \"#utility.yul\":14510:14830   */\n    tag_37:\n        /* \"#utility.yul\":14554:14560   */\n      0x00\n        /* \"#utility.yul\":14591:14592   */\n      0x02\n        /* \"#utility.yul\":14585:14589   */\n      dup3\n        /* \"#utility.yul\":14581:14593   */\n      div\n        /* \"#utility.yul\":14571:14593   */\n      swap1\n      pop\n        /* \"#utility.yul\":14638:14639   */\n      0x01\n        /* \"#utility.yul\":14632:14636   */\n      dup3\n        /* \"#utility.yul\":14628:14640   */\n      and\n        /* \"#utility.yul\":14659:14677   */\n      dup1\n        /* \"#utility.yul\":14649:14730   */\n      tag_308\n      jumpi\n        /* \"#utility.yul\":14715:14719   */\n      0x7f\n        /* \"#utility.yul\":14707:14713   */\n      dup3\n        /* \"#utility.yul\":14703:14720   */\n      and\n        /* \"#utility.yul\":14693:14720   */\n      swap2\n      pop\n        /* \"#utility.yul\":14649:14730   */\n    tag_308:\n        /* \"#utility.yul\":14777:14779   */\n      0x20\n        /* \"#utility.yul\":14769:14775   */\n      dup3\n        /* \"#utility.yul\":14766:14780   */\n      lt\n        /* \"#utility.yul\":14746:14764   */\n      dup2\n        /* \"#utility.yul\":14743:14781   */\n      eq\n        /* \"#utility.yul\":14740:14824   */\n      iszero\n      tag_309\n      jumpi\n        /* \"#utility.yul\":14796:14814   */\n      tag_310\n      tag_311\n      jump\t// in\n    tag_310:\n        /* \"#utility.yul\":14740:14824   */\n    tag_309:\n        /* \"#utility.yul\":14561:14830   */\n      pop\n        /* \"#utility.yul\":14510:14830   */\n      swap2\n      swap1\n      pop\n      jump\t// out\n        /* \"#utility.yul\":14836:15117   */\n    tag_278:\n        /* \"#utility.yul\":14919:14946   */\n      tag_313\n        /* \"#utility.yul\":14941:14945   */\n      dup3\n        /* \"#utility.yul\":14919:14946   */\n      tag_199\n      jump\t// in\n    tag_313:\n        /* \"#utility.yul\":14911:14917   */\n      dup2\n        /* \"#utility.yul\":14907:14947   */\n      add\n        /* \"#utility.yul\":15049:15055   */\n      dup2\n        /* \"#utility.yul\":15037:15047   */\n      dup2\n        /* \"#utility.yul\":15034:15056   */\n      lt\n        /* \"#utility.yul\":15013:15031   */\n      0xffffffffffffffff\n        /* \"#utility.yul\":15001:15011   */\n      dup3\n        /* \"#utility.yul\":14998:15032   */\n      gt\n        /* \"#utility.yul\":14995:15057   */\n      or\n        /* \"#utility.yul\":14992:15080   */\n      iszero\n      tag_314\n      jumpi\n        /* \"#utility.yul\":15060:15078   */\n      tag_315\n      tag_92\n      jump\t// in\n    tag_315:\n        /* \"#utility.yul\":14992:15080   */\n    tag_314:\n        /* \"#utility.yul\":15100:15110   */\n      dup1\n        /* \"#utility.yul\":15096:15098   */\n      0x40\n        /* \"#utility.yul\":15089:15111   */\n      mstore\n        /* \"#utility.yul\":14879:15117   */\n      pop\n        /* \"#utility.yul\":14836:15117   */\n      pop\n      pop\n      jump\t// out\n        /* \"#utility.yul\":15123:15303   */\n    tag_293:\n        /* \"#utility.yul\":15171:15248   */\n      0x4e487b7100000000000000000000000000000000000000000000000000000000\n        /* \"#utility.yul\":15168:15169   */\n      0x00\n        /* \"#utility.yul\":15161:15249   */\n      mstore\n        /* \"#utility.yul\":15268:15272   */\n      0x11\n        /* \"#utility.yul\":15265:15266   */\n      0x04\n        /* \"#utility.yul\":15258:15273   */\n      mstore\n        /* \"#utility.yul\":15292:15296   */\n      0x24\n        /* \"#utility.yul\":15289:15290   */\n      0x00\n        /* \"#utility.yul\":15282:15297   */\n      revert\n        /* \"#utility.yul\":15309:15489   */\n    tag_311:\n        /* \"#utility.yul\":15357:15434   */\n      0x4e487b7100000000000000000000000000000000000000000000000000000000\n        /* \"#utility.yul\":15354:15355   */\n      0x00\n        /* \"#utility.yul\":15347:15435   */\n      mstore\n        /* \"#utility.yul\":15454:15458   */\n      0x22\n        /* \"#utility.yul\":15451:15452   */\n      0x04\n        /* \"#utility.yul\":15444:15459   */\n      mstore\n        /* \"#utility.yul\":15478:15482   */\n      0x24\n        /* \"#utility.yul\":15475:15476   */\n      0x00\n        /* \"#utility.yul\":15468:15483   */\n      revert\n        /* \"#utility.yul\":15495:15675   */\n    tag_96:\n        /* \"#utility.yul\":15543:15620   */\n      0x4e487b7100000000000000000000000000000000000000000000000000000000\n        /* \"#utility.yul\":15540:15541   */\n      0x00\n        /* \"#utility.yul\":15533:15621   */\n      mstore\n        /* \"#utility.yul\":15640:15644   */\n      0x32\n        /* \"#utility.yul\":15637:15638   */\n      0x04\n        /* \"#utility.yul\":15630:15645   */\n      mstore\n        /* \"#utility.yul\":15664:15668   */\n      0x24\n        /* \"#utility.yul\":15661:15662   */\n      0x00\n        /* \"#utility.yul\":15654:15669   */\n      revert\n        /* \"#utility.yul\":15681:15861   */\n    tag_92:\n        /* \"#utility.yul\":15729:15806   */\n      0x4e487b7100000000000000000000000000000000000000000000000000000000\n        /* \"#utility.yul\":15726:15727   */\n      0x00\n        /* \"#utility.yul\":15719:15807   */\n      mstore\n        /* \"#utility.yul\":15826:15830   */\n      0x41\n        /* \"#utility.yul\":15823:15824   */\n      0x04\n        /* \"#utility.yul\":15816:15831   */\n      mstore\n        /* \"#utility.yul\":15850:15854   */\n      0x24\n        /* \"#utility.yul\":15847:15848   */\n      0x00\n        /* \"#utility.yul\":15840:15855   */\n      revert\n        /* \"#utility.yul\":15867:16050   */\n    tag_114:\n        /* \"#utility.yul\":15902:15905   */\n      0x00\n        /* \"#utility.yul\":15940:15941   */\n      0x03\n        /* \"#utility.yul\":15922:15938   */\n      returndatasize\n        /* \"#utility.yul\":15919:15942   */\n      gt\n        /* \"#utility.yul\":15916:16044   */\n      iszero\n      tag_321\n      jumpi\n        /* \"#utility.yul\":15978:15979   */\n      0x04\n        /* \"#utility.yul\":15975:15976   */\n      0x00\n        /* \"#utility.yul\":15972:15973   */\n      dup1\n        /* \"#utility.yul\":15957:15980   */\n      returndatacopy\n        /* \"#utility.yul\":16000:16034   */\n      tag_322\n        /* \"#utility.yul\":16031:16032   */\n      0x00\n        /* \"#utility.yul\":16025:16033   */\n      mload\n        /* \"#utility.yul\":16000:16034   */\n      tag_323\n      jump\t// in\n    tag_322:\n        /* \"#utility.yul\":15993:16034   */\n      swap1\n      pop\n        /* \"#utility.yul\":15916:16044   */\n    tag_321:\n        /* \"#utility.yul\":15867:16050   */\n      swap1\n      jump\t// out\n        /* \"#utility.yul\":16056:16173   */\n    tag_150:\n        /* \"#utility.yul\":16165:16166   */\n      0x00\n        /* \"#utility.yul\":16162:16163   */\n      dup1\n        /* \"#utility.yul\":16155:16167   */\n      revert\n        /* \"#utility.yul\":16179:16296   */\n    tag_135:\n        /* \"#utility.yul\":16288:16289   */\n      0x00\n        /* \"#utility.yul\":16285:16286   */\n      dup1\n        /* \"#utility.yul\":16278:16290   */\n      revert\n        /* \"#utility.yul\":16302:16419   */\n    tag_166:\n        /* \"#utility.yul\":16411:16412   */\n      0x00\n        /* \"#utility.yul\":16408:16409   */\n      dup1\n        /* \"#utility.yul\":16401:16413   */\n      revert\n        /* \"#utility.yul\":16425:16542   */\n    tag_159:\n        /* \"#utility.yul\":16534:16535   */\n      0x00\n        /* \"#utility.yul\":16531:16532   */\n      dup1\n        /* \"#utility.yul\":16524:16536   */\n      revert\n        /* \"#utility.yul\":16548:16650   */\n    tag_199:\n        /* \"#utility.yul\":16589:16595   */\n      0x00\n        /* \"#utility.yul\":16640:16642   */\n      0x1f\n        /* \"#utility.yul\":16636:16643   */\n      not\n        /* \"#utility.yul\":16631:16633   */\n      0x1f\n        /* \"#utility.yul\":16624:16629   */\n      dup4\n        /* \"#utility.yul\":16620:16634   */\n      add\n        /* \"#utility.yul\":16616:16644   */\n      and\n        /* \"#utility.yul\":16606:16644   */\n      swap1\n      pop\n        /* \"#utility.yul\":16548:16650   */\n      swap2\n      swap1\n      pop\n      jump\t// out\n        /* \"#utility.yul\":16656:16762   */\n    tag_323:\n        /* \"#utility.yul\":16700:16708   */\n      0x00\n        /* \"#utility.yul\":16749:16754   */\n      dup2\n        /* \"#utility.yul\":16744:16747   */\n      0xe0\n        /* \"#utility.yul\":16740:16755   */\n      shr\n        /* \"#utility.yul\":16719:16755   */\n      swap1\n      pop\n        /* \"#utility.yul\":16656:16762   */\n      swap2\n      swap1\n      pop\n      jump\t// out\n        /* \"#utility.yul\":16768:17007   */\n    tag_212:\n        /* \"#utility.yul\":16908:16942   */\n      0x455243313135353a207472616e7366657220746f206e6f6e2045524331313535\n        /* \"#utility.yul\":16904:16905   */\n      0x00\n        /* \"#utility.yul\":16896:16902   */\n      dup3\n        /* \"#utility.yul\":16892:16906   */\n      add\n        /* \"#utility.yul\":16885:16943   */\n      mstore\n        /* \"#utility.yul\":16977:16999   */\n      0x526563656976657220696d706c656d656e746572000000000000000000000000\n        /* \"#utility.yul\":16972:16974   */\n      0x20\n        /* \"#utility.yul\":16964:16970   */\n      dup3\n        /* \"#utility.yul\":16960:16975   */\n      add\n        /* \"#utility.yul\":16953:17000   */\n      mstore\n        /* \"#utility.yul\":16768:17007   */\n      pop\n      jump\t// out\n        /* \"#utility.yul\":17013:17247   */\n    tag_217:\n        /* \"#utility.yul\":17153:17187   */\n      0x455243313135353a2063616c6c6572206973206e6f7420746f6b656e206f776e\n        /* \"#utility.yul\":17149:17150   */\n      0x00\n        /* \"#utility.yul\":17141:17147   */\n      dup3\n        /* \"#utility.yul\":17137:17151   */\n      add\n        /* \"#utility.yul\":17130:17188   */\n      mstore\n        /* \"#utility.yul\":17222:17239   */\n      0x6572206e6f7220617070726f7665640000000000000000000000000000000000\n        /* \"#utility.yul\":17217:17219   */\n      0x20\n        /* \"#utility.yul\":17209:17215   */\n      dup3\n        /* \"#utility.yul\":17205:17220   */\n      add\n        /* \"#utility.yul\":17198:17240   */\n      mstore\n        /* \"#utility.yul\":17013:17247   */\n      pop\n      jump\t// out\n        /* \"#utility.yul\":17253:17480   */\n    tag_222:\n        /* \"#utility.yul\":17393:17427   */\n      0x455243313135353a204552433131353552656365697665722072656a65637465\n        /* \"#utility.yul\":17389:17390   */\n      0x00\n        /* \"#utility.yul\":17381:17387   */\n      dup3\n        /* \"#utility.yul\":17377:17391   */\n      add\n        /* \"#utility.yul\":17370:17428   */\n      mstore\n        /* \"#utility.yul\":17462:17472   */\n      0x6420746f6b656e73000000000000000000000000000000000000000000000000\n        /* \"#utility.yul\":17457:17459   */\n      0x20\n        /* \"#utility.yul\":17449:17455   */\n      dup3\n        /* \"#utility.yul\":17445:17460   */\n      add\n        /* \"#utility.yul\":17438:17473   */\n      mstore\n        /* \"#utility.yul\":17253:17480   */\n      pop\n      jump\t// out\n        /* \"#utility.yul\":17486:17715   */\n    tag_227:\n        /* \"#utility.yul\":17626:17660   */\n      0x455243313135353a2061646472657373207a65726f206973206e6f7420612076\n        /* \"#utility.yul\":17622:17623   */\n      0x00\n        /* \"#utility.yul\":17614:17620   */\n      dup3\n        /* \"#utility.yul\":17610:17624   */\n      add\n        /* \"#utility.yul\":17603:17661   */\n      mstore\n        /* \"#utility.yul\":17695:17707   */\n      0x616c6964206f776e657200000000000000000000000000000000000000000000\n        /* \"#utility.yul\":17690:17692   */\n      0x20\n        /* \"#utility.yul\":17682:17688   */\n      dup3\n        /* \"#utility.yul\":17678:17693   */\n      add\n        /* \"#utility.yul\":17671:17708   */\n      mstore\n        /* \"#utility.yul\":17486:17715   */\n      pop\n      jump\t// out\n        /* \"#utility.yul\":17721:17945   */\n    tag_232:\n        /* \"#utility.yul\":17861:17895   */\n      0x455243313135353a207472616e7366657220746f20746865207a65726f206164\n        /* \"#utility.yul\":17857:17858   */\n      0x00\n        /* \"#utility.yul\":17849:17855   */\n      dup3\n        /* \"#utility.yul\":17845:17859   */\n      add\n        /* \"#utility.yul\":17838:17896   */\n      mstore\n        /* \"#utility.yul\":17930:17937   */\n      0x6472657373000000000000000000000000000000000000000000000000000000\n        /* \"#utility.yul\":17925:17927   */\n      0x20\n        /* \"#utility.yul\":17917:17923   */\n      dup3\n        /* \"#utility.yul\":17913:17928   */\n      add\n        /* \"#utility.yul\":17906:17938   */\n      mstore\n        /* \"#utility.yul\":17721:17945   */\n      pop\n      jump\t// out\n        /* \"#utility.yul\":17951:18180   */\n    tag_237:\n        /* \"#utility.yul\":18091:18125   */\n      0x455243313135353a20696e73756666696369656e742062616c616e636520666f\n        /* \"#utility.yul\":18087:18088   */\n      0x00\n        /* \"#utility.yul\":18079:18085   */\n      dup3\n        /* \"#utility.yul\":18075:18089   */\n      add\n        /* \"#utility.yul\":18068:18126   */\n      mstore\n        /* \"#utility.yul\":18160:18172   */\n      0x72207472616e7366657200000000000000000000000000000000000000000000\n        /* \"#utility.yul\":18155:18157   */\n      0x20\n        /* \"#utility.yul\":18147:18153   */\n      dup3\n        /* \"#utility.yul\":18143:18158   */\n      add\n        /* \"#utility.yul\":18136:18173   */\n      mstore\n        /* \"#utility.yul\":17951:18180   */\n      pop\n      jump\t// out\n        /* \"#utility.yul\":18186:18406   */\n    tag_242:\n        /* \"#utility.yul\":18326:18360   */\n      0x455243313135353a206d696e7420746f20746865207a65726f20616464726573\n        /* \"#utility.yul\":18322:18323   */\n      0x00\n        /* \"#utility.yul\":18314:18320   */\n      dup3\n        /* \"#utility.yul\":18310:18324   */\n      add\n        /* \"#utility.yul\":18303:18361   */\n      mstore\n        /* \"#utility.yul\":18395:18398   */\n      0x7300000000000000000000000000000000000000000000000000000000000000\n        /* \"#utility.yul\":18390:18392   */\n      0x20\n        /* \"#utility.yul\":18382:18388   */\n      dup3\n        /* \"#utility.yul\":18378:18393   */\n      add\n        /* \"#utility.yul\":18371:18399   */\n      mstore\n        /* \"#utility.yul\":18186:18406   */\n      pop\n      jump\t// out\n        /* \"#utility.yul\":18412:19123   */\n    tag_116:\n        /* \"#utility.yul\":18451:18454   */\n      0x00\n        /* \"#utility.yul\":18489:18493   */\n      0x44\n        /* \"#utility.yul\":18471:18487   */\n      returndatasize\n        /* \"#utility.yul\":18468:18494   */\n      lt\n        /* \"#utility.yul\":18465:18504   */\n      iszero\n      tag_338\n      jumpi\n        /* \"#utility.yul\":18497:18502   */\n      jump(tag_337)\n        /* \"#utility.yul\":18465:18504   */\n    tag_338:\n        /* \"#utility.yul\":18526:18546   */\n      tag_339\n      tag_276\n      jump\t// in\n    tag_339:\n        /* \"#utility.yul\":18601:18602   */\n      0x04\n        /* \"#utility.yul\":18583:18599   */\n      returndatasize\n        /* \"#utility.yul\":18579:18603   */\n      sub\n        /* \"#utility.yul\":18576:18577   */\n      0x04\n        /* \"#utility.yul\":18570:18574   */\n      dup3\n        /* \"#utility.yul\":18555:18604   */\n      returndatacopy\n        /* \"#utility.yul\":18634:18638   */\n      dup1\n        /* \"#utility.yul\":18628:18639   */\n      mload\n        /* \"#utility.yul\":18733:18749   */\n      returndatasize\n        /* \"#utility.yul\":18726:18730   */\n      0x24\n        /* \"#utility.yul\":18718:18724   */\n      dup3\n        /* \"#utility.yul\":18714:18731   */\n      add\n        /* \"#utility.yul\":18711:18750   */\n      gt\n        /* \"#utility.yul\":18678:18696   */\n      0xffffffffffffffff\n        /* \"#utility.yul\":18670:18676   */\n      dup3\n        /* \"#utility.yul\":18667:18697   */\n      gt\n        /* \"#utility.yul\":18651:18764   */\n      or\n        /* \"#utility.yul\":18648:18794   */\n      iszero\n      tag_340\n      jumpi\n        /* \"#utility.yul\":18779:18784   */\n      pop\n      pop\n      jump(tag_337)\n        /* \"#utility.yul\":18648:18794   */\n    tag_340:\n        /* \"#utility.yul\":18825:18831   */\n      dup1\n        /* \"#utility.yul\":18819:18823   */\n      dup3\n        /* \"#utility.yul\":18815:18832   */\n      add\n        /* \"#utility.yul\":18861:18864   */\n      dup1\n        /* \"#utility.yul\":18855:18865   */\n      mload\n        /* \"#utility.yul\":18888:18906   */\n      0xffffffffffffffff\n        /* \"#utility.yul\":18880:18886   */\n      dup2\n        /* \"#utility.yul\":18877:18907   */\n      gt\n        /* \"#utility.yul\":18874:18917   */\n      iszero\n      tag_341\n      jumpi\n        /* \"#utility.yul\":18910:18915   */\n      pop\n      pop\n      pop\n      pop\n      jump(tag_337)\n        /* \"#utility.yul\":18874:18917   */\n    tag_341:\n        /* \"#utility.yul\":18958:18964   */\n      dup1\n        /* \"#utility.yul\":18951:18955   */\n      0x20\n        /* \"#utility.yul\":18946:18949   */\n      dup4\n        /* \"#utility.yul\":18942:18956   */\n      add\n        /* \"#utility.yul\":18938:18965   */\n      add\n        /* \"#utility.yul\":19017:19018   */\n      0x04\n        /* \"#utility.yul\":18999:19015   */\n      returndatasize\n        /* \"#utility.yul\":18995:19019   */\n      sub\n        /* \"#utility.yul\":18989:18993   */\n      dup6\n        /* \"#utility.yul\":18985:19020   */\n      add\n        /* \"#utility.yul\":18980:18983   */\n      dup2\n        /* \"#utility.yul\":18977:19021   */\n      gt\n        /* \"#utility.yul\":18974:19031   */\n      iszero\n      tag_342\n      jumpi\n        /* \"#utility.yul\":19024:19029   */\n      pop\n      pop\n      pop\n      pop\n      pop\n      jump(tag_337)\n        /* \"#utility.yul\":18974:19031   */\n    tag_342:\n        /* \"#utility.yul\":19041:19098   */\n      tag_343\n        /* \"#utility.yul\":19089:19095   */\n      dup3\n        /* \"#utility.yul\":19083:19087   */\n      0x20\n        /* \"#utility.yul\":19079:19096   */\n      add\n        /* \"#utility.yul\":19071:19077   */\n      dup6\n        /* \"#utility.yul\":19067:19097   */\n      add\n        /* \"#utility.yul\":19061:19065   */\n      dup7\n        /* \"#utility.yul\":19041:19098   */\n      tag_278\n      jump\t// in\n    tag_343:\n        /* \"#utility.yul\":19114:19117   */\n      dup3\n        /* \"#utility.yul\":19107:19117   */\n      swap6\n      pop\n        /* \"#utility.yul\":18455:19123   */\n      pop\n      pop\n      pop\n      pop\n      pop\n        /* \"#utility.yul\":18412:19123   */\n    tag_337:\n      swap1\n      jump\t// out\n        /* \"#utility.yul\":19129:19251   */\n    tag_141:\n        /* \"#utility.yul\":19202:19226   */\n      tag_345\n        /* \"#utility.yul\":19220:19225   */\n      dup2\n        /* \"#utility.yul\":19202:19226   */\n      tag_189\n      jump\t// in\n    tag_345:\n        /* \"#utility.yul\":19195:19200   */\n      dup2\n        /* \"#utility.yul\":19192:19227   */\n      eq\n        /* \"#utility.yul\":19182:19245   */\n      tag_346\n      jumpi\n        /* \"#utility.yul\":19241:19242   */\n      0x00\n        /* \"#utility.yul\":19238:19239   */\n      dup1\n        /* \"#utility.yul\":19231:19243   */\n      revert\n        /* \"#utility.yul\":19182:19245   */\n    tag_346:\n        /* \"#utility.yul\":19129:19251   */\n      pop\n      jump\t// out\n        /* \"#utility.yul\":19257:19377   */\n    tag_145:\n        /* \"#utility.yul\":19329:19352   */\n      tag_348\n        /* \"#utility.yul\":19346:19351   */\n      dup2\n        /* \"#utility.yul\":19329:19352   */\n      tag_297\n      jump\t// in\n    tag_348:\n        /* \"#utility.yul\":19322:19327   */\n      dup2\n        /* \"#utility.yul\":19319:19353   */\n      eq\n        /* \"#utility.yul\":19309:19371   */\n      tag_349\n      jumpi\n        /* \"#utility.yul\":19367:19368   */\n      0x00\n        /* \"#utility.yul\":19364:19365   */\n      dup1\n        /* \"#utility.yul\":19357:19369   */\n      revert\n        /* \"#utility.yul\":19309:19371   */\n    tag_349:\n        /* \"#utility.yul\":19257:19377   */\n      pop\n      jump\t// out\n        /* \"#utility.yul\":19383:19505   */\n    tag_155:\n        /* \"#utility.yul\":19456:19480   */\n      tag_351\n        /* \"#utility.yul\":19474:19479   */\n      dup2\n        /* \"#utility.yul\":19456:19480   */\n      tag_246\n      jump\t// in\n    tag_351:\n        /* \"#utility.yul\":19449:19454   */\n      dup2\n        /* \"#utility.yul\":19446:19481   */\n      eq\n        /* \"#utility.yul\":19436:19499   */\n      tag_352\n      jumpi\n        /* \"#utility.yul\":19495:19496   */\n      0x00\n        /* \"#utility.yul\":19492:19493   */\n      dup1\n        /* \"#utility.yul\":19485:19497   */\n      revert\n        /* \"#utility.yul\":19436:19499   */\n    tag_352:\n        /* \"#utility.yul\":19383:19505   */\n      pop\n      jump\t// out\n\n    auxdata: 0xa2646970667358221220d6c27d60ae3b0bd406fead24d3301bebe32eedc11b1501f3360f5d1f774cbee864736f6c63430008070033\n}\n",
				"bytecode": {
					"linkReferences": {},
					"object": "60806040523480156200001157600080fd5b50604051620018f9380380620018f9833981810160405281019062000037919062000199565b62000048816200004f60201b60201c565b506200036e565b8060029080519060200190620000679291906200006b565b5050565b82805462000079906200027f565b90600052602060002090601f0160209004810192826200009d5760008555620000e9565b82601f10620000b857805160ff1916838001178555620000e9565b82800160010185558215620000e9579182015b82811115620000e8578251825591602001919060010190620000cb565b5b509050620000f89190620000fc565b5090565b5b8082111562000117576000816000905550600101620000fd565b5090565b6000620001326200012c8462000213565b620001ea565b9050828152602081018484840111156200015157620001506200034e565b5b6200015e84828562000249565b509392505050565b600082601f8301126200017e576200017d62000349565b5b8151620001908482602086016200011b565b91505092915050565b600060208284031215620001b257620001b162000358565b5b600082015167ffffffffffffffff811115620001d357620001d262000353565b5b620001e18482850162000166565b91505092915050565b6000620001f662000209565b9050620002048282620002b5565b919050565b6000604051905090565b600067ffffffffffffffff8211156200023157620002306200031a565b5b6200023c826200035d565b9050602081019050919050565b60005b83811015620002695780820151818401526020810190506200024c565b8381111562000279576000848401525b50505050565b600060028204905060018216806200029857607f821691505b60208210811415620002af57620002ae620002eb565b5b50919050565b620002c0826200035d565b810181811067ffffffffffffffff82111715620002e257620002e16200031a565b5b80604052505050565b7f4e487b7100000000000000000000000000000000000000000000000000000000600052602260045260246000fd5b7f4e487b7100000000000000000000000000000000000000000000000000000000600052604160045260246000fd5b600080fd5b600080fd5b600080fd5b600080fd5b6000601f19601f8301169050919050565b61157b806200037e6000396000f3fe608060405234801561001057600080fd5b50600436106100565760003560e01c8062fdd58e1461005b5780630e89341c1461008b57806357e87575146100bb578063a6f27714146100d7578063f242432a146100f3575b600080fd5b61007560048036038101906100709190610b41565b61010f565b6040516100829190610efc565b60405180910390f35b6100a560048036038101906100a09190610bae565b6101d8565b6040516100b29190610dfa565b60405180910390f35b6100d560048036038101906100d09190610bdb565b61026c565b005b6100f160048036038101906100ec9190610aaa565b61028b565b005b61010d60048036038101906101089190610aaa565b61029f565b005b60008073ffffffffffffffffffffffffffffffffffffffff168373ffffffffffffffffffffffffffffffffffffffff161415610180576040517f08c379a000000000000000000000000000000000000000000000000000000000815260040161017790610e7c565b60405180910390fd5b60008083815260200190815260200160002060008473ffffffffffffffffffffffffffffffffffffffff1673ffffffffffffffffffffffffffffffffffffffff16815260200190815260200160002054905092915050565b6060600280546101e7906110ce565b80601f0160208091040260200160405190810160405280929190818152602001828054610213906110ce565b80156102605780601f1061023557610100808354040283529160200191610260565b820191906000526020600020905b81548152906001019060200180831161024357829003601f168201915b50505050509050919050565b61028733838360405180602001604052806000815250610328565b5050565b61029885858585856104d9565b5050505050565b6102a7610775565b73ffffffffffffffffffffffffffffffffffffffff168573ffffffffffffffffffffffffffffffffffffffff1614610314576040517f08c379a000000000000000000000000000000000000000000000000000000000815260040161030b90610e3c565b60405180910390fd5b61032185858585856104d9565b5050505050565b600073ffffffffffffffffffffffffffffffffffffffff168473ffffffffffffffffffffffffffffffffffffffff161415610398576040517f08c379a000000000000000000000000000000000000000000000000000000000815260040161038f90610edc565b60405180910390fd5b60006103a2610775565b905060006103af8561077d565b905060006103bc8561077d565b90506103cd836000898585896107f7565b8460008088815260200190815260200160002060008973ffffffffffffffffffffffffffffffffffffffff1673ffffffffffffffffffffffffffffffffffffffff168152602001908152602001600020600082825461042c9190610fce565b925050819055508673ffffffffffffffffffffffffffffffffffffffff16600073ffffffffffffffffffffffffffffffffffffffff168473ffffffffffffffffffffffffffffffffffffffff167fc3d58168c5ae7397731d063d5bbf3d657854427343f4c083240f7aacaa2d0f6289896040516104aa929190610f17565b60405180910390a46104c1836000898585896107ff565b6104d083600089898989610807565b50505050505050565b600073ffffffffffffffffffffffffffffffffffffffff168473ffffffffffffffffffffffffffffffffffffffff161415610549576040517f08c379a000000000000000000000000000000000000000000000000000000000815260040161054090610e9c565b60405180910390fd5b6000610553610775565b905060006105608561077d565b9050600061056d8561077d565b905061057d8389898585896107f7565b600080600088815260200190815260200160002060008a73ffffffffffffffffffffffffffffffffffffffff1673ffffffffffffffffffffffffffffffffffffffff16815260200190815260200160002054905085811015610614576040517f08c379a000000000000000000000000000000000000000000000000000000000815260040161060b90610ebc565b60405180910390fd5b85810360008089815260200190815260200160002060008b73ffffffffffffffffffffffffffffffffffffffff1673ffffffffffffffffffffffffffffffffffffffff168152602001908152602001600020819055508560008089815260200190815260200160002060008a73ffffffffffffffffffffffffffffffffffffffff1673ffffffffffffffffffffffffffffffffffffffff16815260200190815260200160002060008282546106c99190610fce565b925050819055508773ffffffffffffffffffffffffffffffffffffffff168973ffffffffffffffffffffffffffffffffffffffff168573ffffffffffffffffffffffffffffffffffffffff167fc3d58168c5ae7397731d063d5bbf3d657854427343f4c083240f7aacaa2d0f628a8a604051610746929190610f17565b60405180910390a461075c848a8a86868a6107ff565b61076a848a8a8a8a8a610807565b505050505050505050565b600033905090565b60606000600167ffffffffffffffff81111561079c5761079b6111be565b5b6040519080825280602002602001820160405280156107ca5781602001602082028036833780820191505090505b50905082816000815181106107e2576107e161118f565b5b60200260200101818152505080915050919050565b505050505050565b505050505050565b610810846109d8565b156109d0578373ffffffffffffffffffffffffffffffffffffffff1663f23a6e6187878686866040518663ffffffff1660e01b8152600401610856959493929190610da0565b602060405180830381600087803b15801561087057600080fd5b505af19250505080156108a157506040513d601f19601f8201168201806040525081019061089e9190610b81565b60015b610947576108ad6111ed565b806308c379a0141561090a57506108c261146a565b806108cd575061090c565b806040517f08c379a00000000000000000000000000000000000000000000000000000000081526004016109019190610dfa565b60405180910390fd5b505b6040517f08c379a000000000000000000000000000000000000000000000000000000000815260040161093e90610e1c565b60405180910390fd5b63f23a6e6160e01b7bffffffffffffffffffffffffffffffffffffffffffffffffffffffff1916817bffffffffffffffffffffffffffffffffffffffffffffffffffffffff1916146109ce576040517f08c379a00000000000000000000000000000000000000000000000000000000081526004016109c590610e5c565b60405180910390fd5b505b505050505050565b6000808273ffffffffffffffffffffffffffffffffffffffff163b119050919050565b6000610a0e610a0984610f65565b610f40565b905082815260208101848484011115610a2a57610a29611214565b5b610a3584828561108c565b509392505050565b600081359050610a4c81611500565b92915050565b600081519050610a6181611517565b92915050565b600082601f830112610a7c57610a7b61120f565b5b8135610a8c8482602086016109fb565b91505092915050565b600081359050610aa48161152e565b92915050565b600080600080600060a08688031215610ac657610ac561121e565b5b6000610ad488828901610a3d565b9550506020610ae588828901610a3d565b9450506040610af688828901610a95565b9350506060610b0788828901610a95565b925050608086013567ffffffffffffffff811115610b2857610b27611219565b5b610b3488828901610a67565b9150509295509295909350565b60008060408385031215610b5857610b5761121e565b5b6000610b6685828601610a3d565b9250506020610b7785828601610a95565b9150509250929050565b600060208284031215610b9757610b9661121e565b5b6000610ba584828501610a52565b91505092915050565b600060208284031215610bc457610bc361121e565b5b6000610bd284828501610a95565b91505092915050565b60008060408385031215610bf257610bf161121e565b5b6000610c0085828601610a95565b9250506020610c1185828601610a95565b9150509250929050565b610c2481611024565b82525050565b6000610c3582610f96565b610c3f8185610fac565b9350610c4f81856020860161109b565b610c5881611223565b840191505092915050565b6000610c6e82610fa1565b610c788185610fbd565b9350610c8881856020860161109b565b610c9181611223565b840191505092915050565b6000610ca9603483610fbd565b9150610cb482611241565b604082019050919050565b6000610ccc602f83610fbd565b9150610cd782611290565b604082019050919050565b6000610cef602883610fbd565b9150610cfa826112df565b604082019050919050565b6000610d12602a83610fbd565b9150610d1d8261132e565b604082019050919050565b6000610d35602583610fbd565b9150610d408261137d565b604082019050919050565b6000610d58602a83610fbd565b9150610d63826113cc565b604082019050919050565b6000610d7b602183610fbd565b9150610d868261141b565b604082019050919050565b610d9a81611082565b82525050565b600060a082019050610db56000830188610c1b565b610dc26020830187610c1b565b610dcf6040830186610d91565b610ddc6060830185610d91565b8181036080830152610dee8184610c2a565b90509695505050505050565b60006020820190508181036000830152610e148184610c63565b905092915050565b60006020820190508181036000830152610e3581610c9c565b9050919050565b60006020820190508181036000830152610e5581610cbf565b9050919050565b60006020820190508181036000830152610e7581610ce2565b9050919050565b60006020820190508181036000830152610e9581610d05565b9050919050565b60006020820190508181036000830152610eb581610d28565b9050919050565b60006020820190508181036000830152610ed581610d4b565b9050919050565b60006020820190508181036000830152610ef581610d6e565b9050919050565b6000602082019050610f116000830184610d91565b92915050565b6000604082019050610f2c6000830185610d91565b610f396020830184610d91565b9392505050565b6000610f4a610f5b565b9050610f568282611100565b919050565b6000604051905090565b600067ffffffffffffffff821115610f8057610f7f6111be565b5b610f8982611223565b9050602081019050919050565b600081519050919050565b600081519050919050565b600082825260208201905092915050565b600082825260208201905092915050565b6000610fd982611082565b9150610fe483611082565b9250827fffffffffffffffffffffffffffffffffffffffffffffffffffffffffffffffff0382111561101957611018611131565b5b828201905092915050565b600061102f82611062565b9050919050565b60007fffffffff0000000000000000000000000000000000000000000000000000000082169050919050565b600073ffffffffffffffffffffffffffffffffffffffff82169050919050565b6000819050919050565b82818337600083830152505050565b60005b838110156110b957808201518184015260208101905061109e565b838111156110c8576000848401525b50505050565b600060028204905060018216806110e657607f821691505b602082108114156110fa576110f9611160565b5b50919050565b61110982611223565b810181811067ffffffffffffffff82111715611128576111276111be565b5b80604052505050565b7f4e487b7100000000000000000000000000000000000000000000000000000000600052601160045260246000fd5b7f4e487b7100000000000000000000000000000000000000000000000000000000600052602260045260246000fd5b7f4e487b7100000000000000000000000000000000000000000000000000000000600052603260045260246000fd5b7f4e487b7100000000000000000000000000000000000000000000000000000000600052604160045260246000fd5b600060033d111561120c5760046000803e611209600051611234565b90505b90565b600080fd5b600080fd5b600080fd5b600080fd5b6000601f19601f8301169050919050565b60008160e01c9050919050565b7f455243313135353a207472616e7366657220746f206e6f6e204552433131353560008201527f526563656976657220696d706c656d656e746572000000000000000000000000602082015250565b7f455243313135353a2063616c6c6572206973206e6f7420746f6b656e206f776e60008201527f6572206e6f7220617070726f7665640000000000000000000000000000000000602082015250565b7f455243313135353a204552433131353552656365697665722072656a6563746560008201527f6420746f6b656e73000000000000000000000000000000000000000000000000602082015250565b7f455243313135353a2061646472657373207a65726f206973206e6f742061207660008201527f616c6964206f776e657200000000000000000000000000000000000000000000602082015250565b7f455243313135353a207472616e7366657220746f20746865207a65726f20616460008201527f6472657373000000000000000000000000000000000000000000000000000000602082015250565b7f455243313135353a20696e73756666696369656e742062616c616e636520666f60008201527f72207472616e7366657200000000000000000000000000000000000000000000602082015250565b7f455243313135353a206d696e7420746f20746865207a65726f2061646472657360008201527f7300000000000000000000000000000000000000000000000000000000000000602082015250565b600060443d101561147a576114fd565b611482610f5b565b60043d036004823e80513d602482011167ffffffffffffffff821117156114aa5750506114fd565b808201805167ffffffffffffffff8111156114c857505050506114fd565b80602083010160043d0385018111156114e55750505050506114fd565b6114f482602001850186611100565b82955050505050505b90565b61150981611024565b811461151457600080fd5b50565b61152081611036565b811461152b57600080fd5b50565b61153781611082565b811461154257600080fd5b5056fea2646970667358221220d6c27d60ae3b0bd406fead24d3301bebe32eedc11b1501f3360f5d1f774cbee864736f6c63430008070033",
					"opcodes": "PUSH1 0x80 PUSH1 0x40 MSTORE CALLVALUE DUP1 ISZERO PUSH3 0x11 JUMPI PUSH1 0x0 DUP1 REVERT JUMPDEST POP PUSH1 0x40 MLOAD PUSH3 0x18F9 CODESIZE SUB DUP1 PUSH3 0x18F9 DUP4 CODECOPY DUP2 DUP2 ADD PUSH1 0x40 MSTORE DUP2 ADD SWAP1 PUSH3 0x37 SWAP2 SWAP1 PUSH3 0x199 JUMP JUMPDEST PUSH3 0x48 DUP2 PUSH3 0x4F PUSH1 0x20 SHL PUSH1 0x20 SHR JUMP JUMPDEST POP PUSH3 0x36E JUMP JUMPDEST DUP1 PUSH1 0x2 SWAP1 DUP1 MLOAD SWAP1 PUSH1 0x20 ADD SWAP1 PUSH3 0x67 SWAP3 SWAP2 SWAP1 PUSH3 0x6B JUMP JUMPDEST POP POP JUMP JUMPDEST DUP3 DUP1 SLOAD PUSH3 0x79 SWAP1 PUSH3 0x27F JUMP JUMPDEST SWAP1 PUSH1 0x0 MSTORE PUSH1 0x20 PUSH1 0x0 KECCAK256 SWAP1 PUSH1 0x1F ADD PUSH1 0x20 SWAP1 DIV DUP2 ADD SWAP3 DUP3 PUSH3 0x9D JUMPI PUSH1 0x0 DUP6 SSTORE PUSH3 0xE9 JUMP JUMPDEST DUP3 PUSH1 0x1F LT PUSH3 0xB8 JUMPI DUP1 MLOAD PUSH1 0xFF NOT AND DUP4 DUP1 ADD OR DUP6 SSTORE PUSH3 0xE9 JUMP JUMPDEST DUP3 DUP1 ADD PUSH1 0x1 ADD DUP6 SSTORE DUP3 ISZERO PUSH3 0xE9 JUMPI SWAP2 DUP3 ADD JUMPDEST DUP3 DUP2 GT ISZERO PUSH3 0xE8 JUMPI DUP3 MLOAD DUP3 SSTORE SWAP2 PUSH1 0x20 ADD SWAP2 SWAP1 PUSH1 0x1 ADD SWAP1 PUSH3 0xCB JUMP JUMPDEST JUMPDEST POP SWAP1 POP PUSH3 0xF8 SWAP2 SWAP1 PUSH3 0xFC JUMP JUMPDEST POP SWAP1 JUMP JUMPDEST JUMPDEST DUP1 DUP3 GT ISZERO PUSH3 0x117 JUMPI PUSH1 0x0 DUP2 PUSH1 0x0 SWAP1 SSTORE POP PUSH1 0x1 ADD PUSH3 0xFD JUMP JUMPDEST POP SWAP1 JUMP JUMPDEST PUSH1 0x0 PUSH3 0x132 PUSH3 0x12C DUP5 PUSH3 0x213 JUMP JUMPDEST PUSH3 0x1EA JUMP JUMPDEST SWAP1 POP DUP3 DUP2 MSTORE PUSH1 0x20 DUP2 ADD DUP5 DUP5 DUP5 ADD GT ISZERO PUSH3 0x151 JUMPI PUSH3 0x150 PUSH3 0x34E JUMP JUMPDEST JUMPDEST PUSH3 0x15E DUP5 DUP3 DUP6 PUSH3 0x249 JUMP JUMPDEST POP SWAP4 SWAP3 POP POP POP JUMP JUMPDEST PUSH1 0x0 DUP3 PUSH1 0x1F DUP4 ADD SLT PUSH3 0x17E JUMPI PUSH3 0x17D PUSH3 0x349 JUMP JUMPDEST JUMPDEST DUP2 MLOAD PUSH3 0x190 DUP5 DUP3 PUSH1 0x20 DUP7 ADD PUSH3 0x11B JUMP JUMPDEST SWAP2 POP POP SWAP3 SWAP2 POP POP JUMP JUMPDEST PUSH1 0x0 PUSH1 0x20 DUP3 DUP5 SUB SLT ISZERO PUSH3 0x1B2 JUMPI PUSH3 0x1B1 PUSH3 0x358 JUMP JUMPDEST JUMPDEST PUSH1 0x0 DUP3 ADD MLOAD PUSH8 0xFFFFFFFFFFFFFFFF DUP2 GT ISZERO PUSH3 0x1D3 JUMPI PUSH3 0x1D2 PUSH3 0x353 JUMP JUMPDEST JUMPDEST PUSH3 0x1E1 DUP5 DUP3 DUP6 ADD PUSH3 0x166 JUMP JUMPDEST SWAP2 POP POP SWAP3 SWAP2 POP POP JUMP JUMPDEST PUSH1 0x0 PUSH3 0x1F6 PUSH3 0x209 JUMP JUMPDEST SWAP1 POP PUSH3 0x204 DUP3 DUP3 PUSH3 0x2B5 JUMP JUMPDEST SWAP2 SWAP1 POP JUMP JUMPDEST PUSH1 0x0 PUSH1 0x40 MLOAD SWAP1 POP SWAP1 JUMP JUMPDEST PUSH1 0x0 PUSH8 0xFFFFFFFFFFFFFFFF DUP3 GT ISZERO PUSH3 0x231 JUMPI PUSH3 0x230 PUSH3 0x31A JUMP JUMPDEST JUMPDEST PUSH3 0x23C DUP3 PUSH3 0x35D JUMP JUMPDEST SWAP1 POP PUSH1 0x20 DUP2 ADD SWAP1 POP SWAP2 SWAP1 POP JUMP JUMPDEST PUSH1 0x0 JUMPDEST DUP4 DUP2 LT ISZERO PUSH3 0x269 JUMPI DUP1 DUP3 ADD MLOAD DUP2 DUP5 ADD MSTORE PUSH1 0x20 DUP2 ADD SWAP1 POP PUSH3 0x24C JUMP JUMPDEST DUP4 DUP2 GT ISZERO PUSH3 0x279 JUMPI PUSH1 0x0 DUP5 DUP5 ADD MSTORE JUMPDEST POP POP POP POP JUMP JUMPDEST PUSH1 0x0 PUSH1 0x2 DUP3 DIV SWAP1 POP PUSH1 0x1 DUP3 AND DUP1 PUSH3 0x298 JUMPI PUSH1 0x7F DUP3 AND SWAP2 POP JUMPDEST PUSH1 0x20 DUP3 LT DUP2 EQ ISZERO PUSH3 0x2AF JUMPI PUSH3 0x2AE PUSH3 0x2EB JUMP JUMPDEST JUMPDEST POP SWAP2 SWAP1 POP JUMP JUMPDEST PUSH3 0x2C0 DUP3 PUSH3 0x35D JUMP JUMPDEST DUP2 ADD DUP2 DUP2 LT PUSH8 0xFFFFFFFFFFFFFFFF DUP3 GT OR ISZERO PUSH3 0x2E2 JUMPI PUSH3 0x2E1 PUSH3 0x31A JUMP JUMPDEST JUMPDEST DUP1 PUSH1 0x40 MSTORE POP POP POP JUMP JUMPDEST PUSH32 0x4E487B7100000000000000000000000000000000000000000000000000000000 PUSH1 0x0 MSTORE PUSH1 0x22 PUSH1 0x4 MSTORE PUSH1 0x24 PUSH1 0x0 REVERT JUMPDEST PUSH32 0x4E487B7100000000000000000000000000000000000000000000000000000000 PUSH1 0x0 MSTORE PUSH1 0x41 PUSH1 0x4 MSTORE PUSH1 0x24 PUSH1 0x0 REVERT JUMPDEST PUSH1 0x0 DUP1 REVERT JUMPDEST PUSH1 0x0 DUP1 REVERT JUMPDEST PUSH1 0x0 DUP1 REVERT JUMPDEST PUSH1 0x0 DUP1 REVERT JUMPDEST PUSH1 0x0 PUSH1 0x1F NOT PUSH1 0x1F DUP4 ADD AND SWAP1 POP SWAP2 SWAP1 POP JUMP JUMPDEST PUSH2 0x157B DUP1 PUSH3 0x37E PUSH1 0x0 CODECOPY PUSH1 0x0 RETURN INVALID PUSH1 0x80 PUSH1 0x40 MSTORE CALLVALUE DUP1 ISZERO PUSH2 0x10 JUMPI PUSH1 0x0 DUP1 REVERT JUMPDEST POP PUSH1 0x4 CALLDATASIZE LT PUSH2 0x56 JUMPI PUSH1 0x0 CALLDATALOAD PUSH1 0xE0 SHR DUP1 PUSH3 0xFDD58E EQ PUSH2 0x5B JUMPI DUP1 PUSH4 0xE89341C EQ PUSH2 0x8B JUMPI DUP1 PUSH4 0x57E87575 EQ PUSH2 0xBB JUMPI DUP1 PUSH4 0xA6F27714 EQ PUSH2 0xD7 JUMPI DUP1 PUSH4 0xF242432A EQ PUSH2 0xF3 JUMPI JUMPDEST PUSH1 0x0 DUP1 REVERT JUMPDEST PUSH2 0x75 PUSH1 0x4 DUP1 CALLDATASIZE SUB DUP2 ADD SWAP1 PUSH2 0x70 SWAP2 SWAP1 PUSH2 0xB41 JUMP JUMPDEST PUSH2 0x10F JUMP JUMPDEST PUSH1 0x40 MLOAD PUSH2 0x82 SWAP2 SWAP1 PUSH2 0xEFC JUMP JUMPDEST PUSH1 0x40 MLOAD DUP1 SWAP2 SUB SWAP1 RETURN JUMPDEST PUSH2 0xA5 PUSH1 0x4 DUP1 CALLDATASIZE SUB DUP2 ADD SWAP1 PUSH2 0xA0 SWAP2 SWAP1 PUSH2 0xBAE JUMP JUMPDEST PUSH2 0x1D8 JUMP JUMPDEST PUSH1 0x40 MLOAD PUSH2 0xB2 SWAP2 SWAP1 PUSH2 0xDFA JUMP JUMPDEST PUSH1 0x40 MLOAD DUP1 SWAP2 SUB SWAP1 RETURN JUMPDEST PUSH2 0xD5 PUSH1 0x4 DUP1 CALLDATASIZE SUB DUP2 ADD SWAP1 PUSH2 0xD0 SWAP2 SWAP1 PUSH2 0xBDB JUMP JUMPDEST PUSH2 0x26C JUMP JUMPDEST STOP JUMPDEST PUSH2 0xF1 PUSH1 0x4 DUP1 CALLDATASIZE SUB DUP2 ADD SWAP1 PUSH2 0xEC SWAP2 SWAP1 PUSH2 0xAAA JUMP JUMPDEST PUSH2 0x28B JUMP JUMPDEST STOP JUMPDEST PUSH2 0x10D PUSH1 0x4 DUP1 CALLDATASIZE SUB DUP2 ADD SWAP1 PUSH2 0x108 SWAP2 SWAP1 PUSH2 0xAAA JUMP JUMPDEST PUSH2 0x29F JUMP JUMPDEST STOP JUMPDEST PUSH1 0x0 DUP1 PUSH20 0xFFFFFFFFFFFFFFFFFFFFFFFFFFFFFFFFFFFFFFFF AND DUP4 PUSH20 0xFFFFFFFFFFFFFFFFFFFFFFFFFFFFFFFFFFFFFFFF AND EQ ISZERO PUSH2 0x180 JUMPI PUSH1 0x40 MLOAD PUSH32 0x8C379A000000000000000000000000000000000000000000000000000000000 DUP2 MSTORE PUSH1 0x4 ADD PUSH2 0x177 SWAP1 PUSH2 0xE7C JUMP JUMPDEST PUSH1 0x40 MLOAD DUP1 SWAP2 SUB SWAP1 REVERT JUMPDEST PUSH1 0x0 DUP1 DUP4 DUP2 MSTORE PUSH1 0x20 ADD SWAP1 DUP2 MSTORE PUSH1 0x20 ADD PUSH1 0x0 KECCAK256 PUSH1 0x0 DUP5 PUSH20 0xFFFFFFFFFFFFFFFFFFFFFFFFFFFFFFFFFFFFFFFF AND PUSH20 0xFFFFFFFFFFFFFFFFFFFFFFFFFFFFFFFFFFFFFFFF AND DUP2 MSTORE PUSH1 0x20 ADD SWAP1 DUP2 MSTORE PUSH1 0x20 ADD PUSH1 0x0 KECCAK256 SLOAD SWAP1 POP SWAP3 SWAP2 POP POP JUMP JUMPDEST PUSH1 0x60 PUSH1 0x2 DUP1 SLOAD PUSH2 0x1E7 SWAP1 PUSH2 0x10CE JUMP JUMPDEST DUP1 PUSH1 0x1F ADD PUSH1 0x20 DUP1 SWAP2 DIV MUL PUSH1 0x20 ADD PUSH1 0x40 MLOAD SWAP1 DUP2 ADD PUSH1 0x40 MSTORE DUP1 SWAP3 SWAP2 SWAP1 DUP2 DUP2 MSTORE PUSH1 0x20 ADD DUP3 DUP1 SLOAD PUSH2 0x213 SWAP1 PUSH2 0x10CE JUMP JUMPDEST DUP1 ISZERO PUSH2 0x260 JUMPI DUP1 PUSH1 0x1F LT PUSH2 0x235 JUMPI PUSH2 0x100 DUP1 DUP4 SLOAD DIV MUL DUP4 MSTORE SWAP2 PUSH1 0x20 ADD SWAP2 PUSH2 0x260 JUMP JUMPDEST DUP3 ADD SWAP2 SWAP1 PUSH1 0x0 MSTORE PUSH1 0x20 PUSH1 0x0 KECCAK256 SWAP1 JUMPDEST DUP2 SLOAD DUP2 MSTORE SWAP1 PUSH1 0x1 ADD SWAP1 PUSH1 0x20 ADD DUP1 DUP4 GT PUSH2 0x243 JUMPI DUP3 SWAP1 SUB PUSH1 0x1F AND DUP3 ADD SWAP2 JUMPDEST POP POP POP POP POP SWAP1 POP SWAP2 SWAP1 POP JUMP JUMPDEST PUSH2 0x287 CALLER DUP4 DUP4 PUSH1 0x40 MLOAD DUP1 PUSH1 0x20 ADD PUSH1 0x40 MSTORE DUP1 PUSH1 0x0 DUP2 MSTORE POP PUSH2 0x328 JUMP JUMPDEST POP POP JUMP JUMPDEST PUSH2 0x298 DUP6 DUP6 DUP6 DUP6 DUP6 PUSH2 0x4D9 JUMP JUMPDEST POP POP POP POP POP JUMP JUMPDEST PUSH2 0x2A7 PUSH2 0x775 JUMP JUMPDEST PUSH20 0xFFFFFFFFFFFFFFFFFFFFFFFFFFFFFFFFFFFFFFFF AND DUP6 PUSH20 0xFFFFFFFFFFFFFFFFFFFFFFFFFFFFFFFFFFFFFFFF AND EQ PUSH2 0x314 JUMPI PUSH1 0x40 MLOAD PUSH32 0x8C379A000000000000000000000000000000000000000000000000000000000 DUP2 MSTORE PUSH1 0x4 ADD PUSH2 0x30B SWAP1 PUSH2 0xE3C JUMP JUMPDEST PUSH1 0x40 MLOAD DUP1 SWAP2 SUB SWAP1 REVERT JUMPDEST PUSH2 0x321 DUP6 DUP6 DUP6 DUP6 DUP6 PUSH2 0x4D9 JUMP JUMPDEST POP POP POP POP POP JUMP JUMPDEST PUSH1 0x0 PUSH20 0xFFFFFFFFFFFFFFFFFFFFFFFFFFFFFFFFFFFFFFFF AND DUP5 PUSH20 0xFFFFFFFFFFFFFFFFFFFFFFFFFFFFFFFFFFFFFFFF AND EQ ISZERO PUSH2 0x398 JUMPI PUSH1 0x40 MLOAD PUSH32 0x8C379A000000000000000000000000000000000000000000000000000000000 DUP2 MSTORE PUSH1 0x4 ADD PUSH2 0x38F SWAP1 PUSH2 0xEDC JUMP JUMPDEST PUSH1 0x40 MLOAD DUP1 SWAP2 SUB SWAP1 REVERT JUMPDEST PUSH1 0x0 PUSH2 0x3A2 PUSH2 0x775 JUMP JUMPDEST SWAP1 POP PUSH1 0x0 PUSH2 0x3AF DUP6 PUSH2 0x77D JUMP JUMPDEST SWAP1 POP PUSH1 0x0 PUSH2 0x3BC DUP6 PUSH2 0x77D JUMP JUMPDEST SWAP1 POP PUSH2 0x3CD DUP4 PUSH1 0x0 DUP10 DUP6 DUP6 DUP10 PUSH2 0x7F7 JUMP JUMPDEST DUP5 PUSH1 0x0 DUP1 DUP9 DUP2 MSTORE PUSH1 0x20 ADD SWAP1 DUP2 MSTORE PUSH1 0x20 ADD PUSH1 0x0 KECCAK256 PUSH1 0x0 DUP10 PUSH20 0xFFFFFFFFFFFFFFFFFFFFFFFFFFFFFFFFFFFFFFFF AND PUSH20 0xFFFFFFFFFFFFFFFFFFFFFFFFFFFFFFFFFFFFFFFF AND DUP2 MSTORE PUSH1 0x20 ADD SWAP1 DUP2 MSTORE PUSH1 0x20 ADD PUSH1 0x0 KECCAK256 PUSH1 0x0 DUP3 DUP3 SLOAD PUSH2 0x42C SWAP2 SWAP1 PUSH2 0xFCE JUMP JUMPDEST SWAP3 POP POP DUP2 SWAP1 SSTORE POP DUP7 PUSH20 0xFFFFFFFFFFFFFFFFFFFFFFFFFFFFFFFFFFFFFFFF AND PUSH1 0x0 PUSH20 0xFFFFFFFFFFFFFFFFFFFFFFFFFFFFFFFFFFFFFFFF AND DUP5 PUSH20 0xFFFFFFFFFFFFFFFFFFFFFFFFFFFFFFFFFFFFFFFF AND PUSH32 0xC3D58168C5AE7397731D063D5BBF3D657854427343F4C083240F7AACAA2D0F62 DUP10 DUP10 PUSH1 0x40 MLOAD PUSH2 0x4AA SWAP3 SWAP2 SWAP1 PUSH2 0xF17 JUMP JUMPDEST PUSH1 0x40 MLOAD DUP1 SWAP2 SUB SWAP1 LOG4 PUSH2 0x4C1 DUP4 PUSH1 0x0 DUP10 DUP6 DUP6 DUP10 PUSH2 0x7FF JUMP JUMPDEST PUSH2 0x4D0 DUP4 PUSH1 0x0 DUP10 DUP10 DUP10 DUP10 PUSH2 0x807 JUMP JUMPDEST POP POP POP POP POP POP POP JUMP JUMPDEST PUSH1 0x0 PUSH20 0xFFFFFFFFFFFFFFFFFFFFFFFFFFFFFFFFFFFFFFFF AND DUP5 PUSH20 0xFFFFFFFFFFFFFFFFFFFFFFFFFFFFFFFFFFFFFFFF AND EQ ISZERO PUSH2 0x549 JUMPI PUSH1 0x40 MLOAD PUSH32 0x8C379A000000000000000000000000000000000000000000000000000000000 DUP2 MSTORE PUSH1 0x4 ADD PUSH2 0x540 SWAP1 PUSH2 0xE9C JUMP JUMPDEST PUSH1 0x40 MLOAD DUP1 SWAP2 SUB SWAP1 REVERT JUMPDEST PUSH1 0x0 PUSH2 0x553 PUSH2 0x775 JUMP JUMPDEST SWAP1 POP PUSH1 0x0 PUSH2 0x560 DUP6 PUSH2 0x77D JUMP JUMPDEST SWAP1 POP PUSH1 0x0 PUSH2 0x56D DUP6 PUSH2 0x77D JUMP JUMPDEST SWAP1 POP PUSH2 0x57D DUP4 DUP10 DUP10 DUP6 DUP6 DUP10 PUSH2 0x7F7 JUMP JUMPDEST PUSH1 0x0 DUP1 PUSH1 0x0 DUP9 DUP2 MSTORE PUSH1 0x20 ADD SWAP1 DUP2 MSTORE PUSH1 0x20 ADD PUSH1 0x0 KECCAK256 PUSH1 0x0 DUP11 PUSH20 0xFFFFFFFFFFFFFFFFFFFFFFFFFFFFFFFFFFFFFFFF AND PUSH20 0xFFFFFFFFFFFFFFFFFFFFFFFFFFFFFFFFFFFFFFFF AND DUP2 MSTORE PUSH1 0x20 ADD SWAP1 DUP2 MSTORE PUSH1 0x20 ADD PUSH1 0x0 KECCAK256 SLOAD SWAP1 POP DUP6 DUP2 LT ISZERO PUSH2 0x614 JUMPI PUSH1 0x40 MLOAD PUSH32 0x8C379A000000000000000000000000000000000000000000000000000000000 DUP2 MSTORE PUSH1 0x4 ADD PUSH2 0x60B SWAP1 PUSH2 0xEBC JUMP JUMPDEST PUSH1 0x40 MLOAD DUP1 SWAP2 SUB SWAP1 REVERT JUMPDEST DUP6 DUP2 SUB PUSH1 0x0 DUP1 DUP10 DUP2 MSTORE PUSH1 0x20 ADD SWAP1 DUP2 MSTORE PUSH1 0x20 ADD PUSH1 0x0 KECCAK256 PUSH1 0x0 DUP12 PUSH20 0xFFFFFFFFFFFFFFFFFFFFFFFFFFFFFFFFFFFFFFFF AND PUSH20 0xFFFFFFFFFFFFFFFFFFFFFFFFFFFFFFFFFFFFFFFF AND DUP2 MSTORE PUSH1 0x20 ADD SWAP1 DUP2 MSTORE PUSH1 0x20 ADD PUSH1 0x0 KECCAK256 DUP2 SWAP1 SSTORE POP DUP6 PUSH1 0x0 DUP1 DUP10 DUP2 MSTORE PUSH1 0x20 ADD SWAP1 DUP2 MSTORE PUSH1 0x20 ADD PUSH1 0x0 KECCAK256 PUSH1 0x0 DUP11 PUSH20 0xFFFFFFFFFFFFFFFFFFFFFFFFFFFFFFFFFFFFFFFF AND PUSH20 0xFFFFFFFFFFFFFFFFFFFFFFFFFFFFFFFFFFFFFFFF AND DUP2 MSTORE PUSH1 0x20 ADD SWAP1 DUP2 MSTORE PUSH1 0x20 ADD PUSH1 0x0 KECCAK256 PUSH1 0x0 DUP3 DUP3 SLOAD PUSH2 0x6C9 SWAP2 SWAP1 PUSH2 0xFCE JUMP JUMPDEST SWAP3 POP POP DUP2 SWAP1 SSTORE POP DUP8 PUSH20 0xFFFFFFFFFFFFFFFFFFFFFFFFFFFFFFFFFFFFFFFF AND DUP10 PUSH20 0xFFFFFFFFFFFFFFFFFFFFFFFFFFFFFFFFFFFFFFFF AND DUP6 PUSH20 0xFFFFFFFFFFFFFFFFFFFFFFFFFFFFFFFFFFFFFFFF AND PUSH32 0xC3D58168C5AE7397731D063D5BBF3D657854427343F4C083240F7AACAA2D0F62 DUP11 DUP11 PUSH1 0x40 MLOAD PUSH2 0x746 SWAP3 SWAP2 SWAP1 PUSH2 0xF17 JUMP JUMPDEST PUSH1 0x40 MLOAD DUP1 SWAP2 SUB SWAP1 LOG4 PUSH2 0x75C DUP5 DUP11 DUP11 DUP7 DUP7 DUP11 PUSH2 0x7FF JUMP JUMPDEST PUSH2 0x76A DUP5 DUP11 DUP11 DUP11 DUP11 DUP11 PUSH2 0x807 JUMP JUMPDEST POP POP POP POP POP POP POP POP POP JUMP JUMPDEST PUSH1 0x0 CALLER SWAP1 POP SWAP1 JUMP JUMPDEST PUSH1 0x60 PUSH1 0x0 PUSH1 0x1 PUSH8 0xFFFFFFFFFFFFFFFF DUP2 GT ISZERO PUSH2 0x79C JUMPI PUSH2 0x79B PUSH2 0x11BE JUMP JUMPDEST JUMPDEST PUSH1 0x40 MLOAD SWAP1 DUP1 DUP3 MSTORE DUP1 PUSH1 0x20 MUL PUSH1 0x20 ADD DUP3 ADD PUSH1 0x40 MSTORE DUP1 ISZERO PUSH2 0x7CA JUMPI DUP2 PUSH1 0x20 ADD PUSH1 0x20 DUP3 MUL DUP1 CALLDATASIZE DUP4 CALLDATACOPY DUP1 DUP3 ADD SWAP2 POP POP SWAP1 POP JUMPDEST POP SWAP1 POP DUP3 DUP2 PUSH1 0x0 DUP2 MLOAD DUP2 LT PUSH2 0x7E2 JUMPI PUSH2 0x7E1 PUSH2 0x118F JUMP JUMPDEST JUMPDEST PUSH1 0x20 MUL PUSH1 0x20 ADD ADD DUP2 DUP2 MSTORE POP POP DUP1 SWAP2 POP POP SWAP2 SWAP1 POP JUMP JUMPDEST POP POP POP POP POP POP JUMP JUMPDEST POP POP POP POP POP POP JUMP JUMPDEST PUSH2 0x810 DUP5 PUSH2 0x9D8 JUMP JUMPDEST ISZERO PUSH2 0x9D0 JUMPI DUP4 PUSH20 0xFFFFFFFFFFFFFFFFFFFFFFFFFFFFFFFFFFFFFFFF AND PUSH4 0xF23A6E61 DUP8 DUP8 DUP7 DUP7 DUP7 PUSH1 0x40 MLOAD DUP7 PUSH4 0xFFFFFFFF AND PUSH1 0xE0 SHL DUP2 MSTORE PUSH1 0x4 ADD PUSH2 0x856 SWAP6 SWAP5 SWAP4 SWAP3 SWAP2 SWAP1 PUSH2 0xDA0 JUMP JUMPDEST PUSH1 0x20 PUSH1 0x40 MLOAD DUP1 DUP4 SUB DUP2 PUSH1 0x0 DUP8 DUP1 EXTCODESIZE ISZERO DUP1 ISZERO PUSH2 0x870 JUMPI PUSH1 0x0 DUP1 REVERT JUMPDEST POP GAS CALL SWAP3 POP POP POP DUP1 ISZERO PUSH2 0x8A1 JUMPI POP PUSH1 0x40 MLOAD RETURNDATASIZE PUSH1 0x1F NOT PUSH1 0x1F DUP3 ADD AND DUP3 ADD DUP1 PUSH1 0x40 MSTORE POP DUP2 ADD SWAP1 PUSH2 0x89E SWAP2 SWAP1 PUSH2 0xB81 JUMP JUMPDEST PUSH1 0x1 JUMPDEST PUSH2 0x947 JUMPI PUSH2 0x8AD PUSH2 0x11ED JUMP JUMPDEST DUP1 PUSH4 0x8C379A0 EQ ISZERO PUSH2 0x90A JUMPI POP PUSH2 0x8C2 PUSH2 0x146A JUMP JUMPDEST DUP1 PUSH2 0x8CD JUMPI POP PUSH2 0x90C JUMP JUMPDEST DUP1 PUSH1 0x40 MLOAD PUSH32 0x8C379A000000000000000000000000000000000000000000000000000000000 DUP2 MSTORE PUSH1 0x4 ADD PUSH2 0x901 SWAP2 SWAP1 PUSH2 0xDFA JUMP JUMPDEST PUSH1 0x40 MLOAD DUP1 SWAP2 SUB SWAP1 REVERT JUMPDEST POP JUMPDEST PUSH1 0x40 MLOAD PUSH32 0x8C379A000000000000000000000000000000000000000000000000000000000 DUP2 MSTORE PUSH1 0x4 ADD PUSH2 0x93E SWAP1 PUSH2 0xE1C JUMP JUMPDEST PUSH1 0x40 MLOAD DUP1 SWAP2 SUB SWAP1 REVERT JUMPDEST PUSH4 0xF23A6E61 PUSH1 0xE0 SHL PUSH28 0xFFFFFFFFFFFFFFFFFFFFFFFFFFFFFFFFFFFFFFFFFFFFFFFFFFFFFFFF NOT AND DUP2 PUSH28 0xFFFFFFFFFFFFFFFFFFFFFFFFFFFFFFFFFFFFFFFFFFFFFFFFFFFFFFFF NOT AND EQ PUSH2 0x9CE JUMPI PUSH1 0x40 MLOAD PUSH32 0x8C379A000000000000000000000000000000000000000000000000000000000 DUP2 MSTORE PUSH1 0x4 ADD PUSH2 0x9C5 SWAP1 PUSH2 0xE5C JUMP JUMPDEST PUSH1 0x40 MLOAD DUP1 SWAP2 SUB SWAP1 REVERT JUMPDEST POP JUMPDEST POP POP POP POP POP POP JUMP JUMPDEST PUSH1 0x0 DUP1 DUP3 PUSH20 0xFFFFFFFFFFFFFFFFFFFFFFFFFFFFFFFFFFFFFFFF AND EXTCODESIZE GT SWAP1 POP SWAP2 SWAP1 POP JUMP JUMPDEST PUSH1 0x0 PUSH2 0xA0E PUSH2 0xA09 DUP5 PUSH2 0xF65 JUMP JUMPDEST PUSH2 0xF40 JUMP JUMPDEST SWAP1 POP DUP3 DUP2 MSTORE PUSH1 0x20 DUP2 ADD DUP5 DUP5 DUP5 ADD GT ISZERO PUSH2 0xA2A JUMPI PUSH2 0xA29 PUSH2 0x1214 JUMP JUMPDEST JUMPDEST PUSH2 0xA35 DUP5 DUP3 DUP6 PUSH2 0x108C JUMP JUMPDEST POP SWAP4 SWAP3 POP POP POP JUMP JUMPDEST PUSH1 0x0 DUP2 CALLDATALOAD SWAP1 POP PUSH2 0xA4C DUP2 PUSH2 0x1500 JUMP JUMPDEST SWAP3 SWAP2 POP POP JUMP JUMPDEST PUSH1 0x0 DUP2 MLOAD SWAP1 POP PUSH2 0xA61 DUP2 PUSH2 0x1517 JUMP JUMPDEST SWAP3 SWAP2 POP POP JUMP JUMPDEST PUSH1 0x0 DUP3 PUSH1 0x1F DUP4 ADD SLT PUSH2 0xA7C JUMPI PUSH2 0xA7B PUSH2 0x120F JUMP JUMPDEST JUMPDEST DUP2 CALLDATALOAD PUSH2 0xA8C DUP5 DUP3 PUSH1 0x20 DUP7 ADD PUSH2 0x9FB JUMP JUMPDEST SWAP2 POP POP SWAP3 SWAP2 POP POP JUMP JUMPDEST PUSH1 0x0 DUP2 CALLDATALOAD SWAP1 POP PUSH2 0xAA4 DUP2 PUSH2 0x152E JUMP JUMPDEST SWAP3 SWAP2 POP POP JUMP JUMPDEST PUSH1 0x0 DUP1 PUSH1 0x0 DUP1 PUSH1 0x0 PUSH1 0xA0 DUP7 DUP9 SUB SLT ISZERO PUSH2 0xAC6 JUMPI PUSH2 0xAC5 PUSH2 0x121E JUMP JUMPDEST JUMPDEST PUSH1 0x0 PUSH2 0xAD4 DUP9 DUP3 DUP10 ADD PUSH2 0xA3D JUMP JUMPDEST SWAP6 POP POP PUSH1 0x20 PUSH2 0xAE5 DUP9 DUP3 DUP10 ADD PUSH2 0xA3D JUMP JUMPDEST SWAP5 POP POP PUSH1 0x40 PUSH2 0xAF6 DUP9 DUP3 DUP10 ADD PUSH2 0xA95 JUMP JUMPDEST SWAP4 POP POP PUSH1 0x60 PUSH2 0xB07 DUP9 DUP3 DUP10 ADD PUSH2 0xA95 JUMP JUMPDEST SWAP3 POP POP PUSH1 0x80 DUP7 ADD CALLDATALOAD PUSH8 0xFFFFFFFFFFFFFFFF DUP2 GT ISZERO PUSH2 0xB28 JUMPI PUSH2 0xB27 PUSH2 0x1219 JUMP JUMPDEST JUMPDEST PUSH2 0xB34 DUP9 DUP3 DUP10 ADD PUSH2 0xA67 JUMP JUMPDEST SWAP2 POP POP SWAP3 SWAP6 POP SWAP3 SWAP6 SWAP1 SWAP4 POP JUMP JUMPDEST PUSH1 0x0 DUP1 PUSH1 0x40 DUP4 DUP6 SUB SLT ISZERO PUSH2 0xB58 JUMPI PUSH2 0xB57 PUSH2 0x121E JUMP JUMPDEST JUMPDEST PUSH1 0x0 PUSH2 0xB66 DUP6 DUP3 DUP7 ADD PUSH2 0xA3D JUMP JUMPDEST SWAP3 POP POP PUSH1 0x20 PUSH2 0xB77 DUP6 DUP3 DUP7 ADD PUSH2 0xA95 JUMP JUMPDEST SWAP2 POP POP SWAP3 POP SWAP3 SWAP1 POP JUMP JUMPDEST PUSH1 0x0 PUSH1 0x20 DUP3 DUP5 SUB SLT ISZERO PUSH2 0xB97 JUMPI PUSH2 0xB96 PUSH2 0x121E JUMP JUMPDEST JUMPDEST PUSH1 0x0 PUSH2 0xBA5 DUP5 DUP3 DUP6 ADD PUSH2 0xA52 JUMP JUMPDEST SWAP2 POP POP SWAP3 SWAP2 POP POP JUMP JUMPDEST PUSH1 0x0 PUSH1 0x20 DUP3 DUP5 SUB SLT ISZERO PUSH2 0xBC4 JUMPI PUSH2 0xBC3 PUSH2 0x121E JUMP JUMPDEST JUMPDEST PUSH1 0x0 PUSH2 0xBD2 DUP5 DUP3 DUP6 ADD PUSH2 0xA95 JUMP JUMPDEST SWAP2 POP POP SWAP3 SWAP2 POP POP JUMP JUMPDEST PUSH1 0x0 DUP1 PUSH1 0x40 DUP4 DUP6 SUB SLT ISZERO PUSH2 0xBF2 JUMPI PUSH2 0xBF1 PUSH2 0x121E JUMP JUMPDEST JUMPDEST PUSH1 0x0 PUSH2 0xC00 DUP6 DUP3 DUP7 ADD PUSH2 0xA95 JUMP JUMPDEST SWAP3 POP POP PUSH1 0x20 PUSH2 0xC11 DUP6 DUP3 DUP7 ADD PUSH2 0xA95 JUMP JUMPDEST SWAP2 POP POP SWAP3 POP SWAP3 SWAP1 POP JUMP JUMPDEST PUSH2 0xC24 DUP2 PUSH2 0x1024 JUMP JUMPDEST DUP3 MSTORE POP POP JUMP JUMPDEST PUSH1 0x0 PUSH2 0xC35 DUP3 PUSH2 0xF96 JUMP JUMPDEST PUSH2 0xC3F DUP2 DUP6 PUSH2 0xFAC JUMP JUMPDEST SWAP4 POP PUSH2 0xC4F DUP2 DUP6 PUSH1 0x20 DUP7 ADD PUSH2 0x109B JUMP JUMPDEST PUSH2 0xC58 DUP2 PUSH2 0x1223 JUMP JUMPDEST DUP5 ADD SWAP2 POP POP SWAP3 SWAP2 POP POP JUMP JUMPDEST PUSH1 0x0 PUSH2 0xC6E DUP3 PUSH2 0xFA1 JUMP JUMPDEST PUSH2 0xC78 DUP2 DUP6 PUSH2 0xFBD JUMP JUMPDEST SWAP4 POP PUSH2 0xC88 DUP2 DUP6 PUSH1 0x20 DUP7 ADD PUSH2 0x109B JUMP JUMPDEST PUSH2 0xC91 DUP2 PUSH2 0x1223 JUMP JUMPDEST DUP5 ADD SWAP2 POP POP SWAP3 SWAP2 POP POP JUMP JUMPDEST PUSH1 0x0 PUSH2 0xCA9 PUSH1 0x34 DUP4 PUSH2 0xFBD JUMP JUMPDEST SWAP2 POP PUSH2 0xCB4 DUP3 PUSH2 0x1241 JUMP JUMPDEST PUSH1 0x40 DUP3 ADD SWAP1 POP SWAP2 SWAP1 POP JUMP JUMPDEST PUSH1 0x0 PUSH2 0xCCC PUSH1 0x2F DUP4 PUSH2 0xFBD JUMP JUMPDEST SWAP2 POP PUSH2 0xCD7 DUP3 PUSH2 0x1290 JUMP JUMPDEST PUSH1 0x40 DUP3 ADD SWAP1 POP SWAP2 SWAP1 POP JUMP JUMPDEST PUSH1 0x0 PUSH2 0xCEF PUSH1 0x28 DUP4 PUSH2 0xFBD JUMP JUMPDEST SWAP2 POP PUSH2 0xCFA DUP3 PUSH2 0x12DF JUMP JUMPDEST PUSH1 0x40 DUP3 ADD SWAP1 POP SWAP2 SWAP1 POP JUMP JUMPDEST PUSH1 0x0 PUSH2 0xD12 PUSH1 0x2A DUP4 PUSH2 0xFBD JUMP JUMPDEST SWAP2 POP PUSH2 0xD1D DUP3 PUSH2 0x132E JUMP JUMPDEST PUSH1 0x40 DUP3 ADD SWAP1 POP SWAP2 SWAP1 POP JUMP JUMPDEST PUSH1 0x0 PUSH2 0xD35 PUSH1 0x25 DUP4 PUSH2 0xFBD JUMP JUMPDEST SWAP2 POP PUSH2 0xD40 DUP3 PUSH2 0x137D JUMP JUMPDEST PUSH1 0x40 DUP3 ADD SWAP1 POP SWAP2 SWAP1 POP JUMP JUMPDEST PUSH1 0x0 PUSH2 0xD58 PUSH1 0x2A DUP4 PUSH2 0xFBD JUMP JUMPDEST SWAP2 POP PUSH2 0xD63 DUP3 PUSH2 0x13CC JUMP JUMPDEST PUSH1 0x40 DUP3 ADD SWAP1 POP SWAP2 SWAP1 POP JUMP JUMPDEST PUSH1 0x0 PUSH2 0xD7B PUSH1 0x21 DUP4 PUSH2 0xFBD JUMP JUMPDEST SWAP2 POP PUSH2 0xD86 DUP3 PUSH2 0x141B JUMP JUMPDEST PUSH1 0x40 DUP3 ADD SWAP1 POP SWAP2 SWAP1 POP JUMP JUMPDEST PUSH2 0xD9A DUP2 PUSH2 0x1082 JUMP JUMPDEST DUP3 MSTORE POP POP JUMP JUMPDEST PUSH1 0x0 PUSH1 0xA0 DUP3 ADD SWAP1 POP PUSH2 0xDB5 PUSH1 0x0 DUP4 ADD DUP9 PUSH2 0xC1B JUMP JUMPDEST PUSH2 0xDC2 PUSH1 0x20 DUP4 ADD DUP8 PUSH2 0xC1B JUMP JUMPDEST PUSH2 0xDCF PUSH1 0x40 DUP4 ADD DUP7 PUSH2 0xD91 JUMP JUMPDEST PUSH2 0xDDC PUSH1 0x60 DUP4 ADD DUP6 PUSH2 0xD91 JUMP JUMPDEST DUP2 DUP2 SUB PUSH1 0x80 DUP4 ADD MSTORE PUSH2 0xDEE DUP2 DUP5 PUSH2 0xC2A JUMP JUMPDEST SWAP1 POP SWAP7 SWAP6 POP POP POP POP POP POP JUMP JUMPDEST PUSH1 0x0 PUSH1 0x20 DUP3 ADD SWAP1 POP DUP2 DUP2 SUB PUSH1 0x0 DUP4 ADD MSTORE PUSH2 0xE14 DUP2 DUP5 PUSH2 0xC63 JUMP JUMPDEST SWAP1 POP SWAP3 SWAP2 POP POP JUMP JUMPDEST PUSH1 0x0 PUSH1 0x20 DUP3 ADD SWAP1 POP DUP2 DUP2 SUB PUSH1 0x0 DUP4 ADD MSTORE PUSH2 0xE35 DUP2 PUSH2 0xC9C JUMP JUMPDEST SWAP1 POP SWAP2 SWAP1 POP JUMP JUMPDEST PUSH1 0x0 PUSH1 0x20 DUP3 ADD SWAP1 POP DUP2 DUP2 SUB PUSH1 0x0 DUP4 ADD MSTORE PUSH2 0xE55 DUP2 PUSH2 0xCBF JUMP JUMPDEST SWAP1 POP SWAP2 SWAP1 POP JUMP JUMPDEST PUSH1 0x0 PUSH1 0x20 DUP3 ADD SWAP1 POP DUP2 DUP2 SUB PUSH1 0x0 DUP4 ADD MSTORE PUSH2 0xE75 DUP2 PUSH2 0xCE2 JUMP JUMPDEST SWAP1 POP SWAP2 SWAP1 POP JUMP JUMPDEST PUSH1 0x0 PUSH1 0x20 DUP3 ADD SWAP1 POP DUP2 DUP2 SUB PUSH1 0x0 DUP4 ADD MSTORE PUSH2 0xE95 DUP2 PUSH2 0xD05 JUMP JUMPDEST SWAP1 POP SWAP2 SWAP1 POP JUMP JUMPDEST PUSH1 0x0 PUSH1 0x20 DUP3 ADD SWAP1 POP DUP2 DUP2 SUB PUSH1 0x0 DUP4 ADD MSTORE PUSH2 0xEB5 DUP2 PUSH2 0xD28 JUMP JUMPDEST SWAP1 POP SWAP2 SWAP1 POP JUMP JUMPDEST PUSH1 0x0 PUSH1 0x20 DUP3 ADD SWAP1 POP DUP2 DUP2 SUB PUSH1 0x0 DUP4 ADD MSTORE PUSH2 0xED5 DUP2 PUSH2 0xD4B JUMP JUMPDEST SWAP1 POP SWAP2 SWAP1 POP JUMP JUMPDEST PUSH1 0x0 PUSH1 0x20 DUP3 ADD SWAP1 POP DUP2 DUP2 SUB PUSH1 0x0 DUP4 ADD MSTORE PUSH2 0xEF5 DUP2 PUSH2 0xD6E JUMP JUMPDEST SWAP1 POP SWAP2 SWAP1 POP JUMP JUMPDEST PUSH1 0x0 PUSH1 0x20 DUP3 ADD SWAP1 POP PUSH2 0xF11 PUSH1 0x0 DUP4 ADD DUP5 PUSH2 0xD91 JUMP JUMPDEST SWAP3 SWAP2 POP POP JUMP JUMPDEST PUSH1 0x0 PUSH1 0x40 DUP3 ADD SWAP1 POP PUSH2 0xF2C PUSH1 0x0 DUP4 ADD DUP6 PUSH2 0xD91 JUMP JUMPDEST PUSH2 0xF39 PUSH1 0x20 DUP4 ADD DUP5 PUSH2 0xD91 JUMP JUMPDEST SWAP4 SWAP3 POP POP POP JUMP JUMPDEST PUSH1 0x0 PUSH2 0xF4A PUSH2 0xF5B JUMP JUMPDEST SWAP1 POP PUSH2 0xF56 DUP3 DUP3 PUSH2 0x1100 JUMP JUMPDEST SWAP2 SWAP1 POP JUMP JUMPDEST PUSH1 0x0 PUSH1 0x40 MLOAD SWAP1 POP SWAP1 JUMP JUMPDEST PUSH1 0x0 PUSH8 0xFFFFFFFFFFFFFFFF DUP3 GT ISZERO PUSH2 0xF80 JUMPI PUSH2 0xF7F PUSH2 0x11BE JUMP JUMPDEST JUMPDEST PUSH2 0xF89 DUP3 PUSH2 0x1223 JUMP JUMPDEST SWAP1 POP PUSH1 0x20 DUP2 ADD SWAP1 POP SWAP2 SWAP1 POP JUMP JUMPDEST PUSH1 0x0 DUP2 MLOAD SWAP1 POP SWAP2 SWAP1 POP JUMP JUMPDEST PUSH1 0x0 DUP2 MLOAD SWAP1 POP SWAP2 SWAP1 POP JUMP JUMPDEST PUSH1 0x0 DUP3 DUP3 MSTORE PUSH1 0x20 DUP3 ADD SWAP1 POP SWAP3 SWAP2 POP POP JUMP JUMPDEST PUSH1 0x0 DUP3 DUP3 MSTORE PUSH1 0x20 DUP3 ADD SWAP1 POP SWAP3 SWAP2 POP POP JUMP JUMPDEST PUSH1 0x0 PUSH2 0xFD9 DUP3 PUSH2 0x1082 JUMP JUMPDEST SWAP2 POP PUSH2 0xFE4 DUP4 PUSH2 0x1082 JUMP JUMPDEST SWAP3 POP DUP3 PUSH32 0xFFFFFFFFFFFFFFFFFFFFFFFFFFFFFFFFFFFFFFFFFFFFFFFFFFFFFFFFFFFFFFFF SUB DUP3 GT ISZERO PUSH2 0x1019 JUMPI PUSH2 0x1018 PUSH2 0x1131 JUMP JUMPDEST JUMPDEST DUP3 DUP3 ADD SWAP1 POP SWAP3 SWAP2 POP POP JUMP JUMPDEST PUSH1 0x0 PUSH2 0x102F DUP3 PUSH2 0x1062 JUMP JUMPDEST SWAP1 POP SWAP2 SWAP1 POP JUMP JUMPDEST PUSH1 0x0 PUSH32 0xFFFFFFFF00000000000000000000000000000000000000000000000000000000 DUP3 AND SWAP1 POP SWAP2 SWAP1 POP JUMP JUMPDEST PUSH1 0x0 PUSH20 0xFFFFFFFFFFFFFFFFFFFFFFFFFFFFFFFFFFFFFFFF DUP3 AND SWAP1 POP SWAP2 SWAP1 POP JUMP JUMPDEST PUSH1 0x0 DUP2 SWAP1 POP SWAP2 SWAP1 POP JUMP JUMPDEST DUP3 DUP2 DUP4 CALLDATACOPY PUSH1 0x0 DUP4 DUP4 ADD MSTORE POP POP POP JUMP JUMPDEST PUSH1 0x0 JUMPDEST DUP4 DUP2 LT ISZERO PUSH2 0x10B9 JUMPI DUP1 DUP3 ADD MLOAD DUP2 DUP5 ADD MSTORE PUSH1 0x20 DUP2 ADD SWAP1 POP PUSH2 0x109E JUMP JUMPDEST DUP4 DUP2 GT ISZERO PUSH2 0x10C8 JUMPI PUSH1 0x0 DUP5 DUP5 ADD MSTORE JUMPDEST POP POP POP POP JUMP JUMPDEST PUSH1 0x0 PUSH1 0x2 DUP3 DIV SWAP1 POP PUSH1 0x1 DUP3 AND DUP1 PUSH2 0x10E6 JUMPI PUSH1 0x7F DUP3 AND SWAP2 POP JUMPDEST PUSH1 0x20 DUP3 LT DUP2 EQ ISZERO PUSH2 0x10FA JUMPI PUSH2 0x10F9 PUSH2 0x1160 JUMP JUMPDEST JUMPDEST POP SWAP2 SWAP1 POP JUMP JUMPDEST PUSH2 0x1109 DUP3 PUSH2 0x1223 JUMP JUMPDEST DUP2 ADD DUP2 DUP2 LT PUSH8 0xFFFFFFFFFFFFFFFF DUP3 GT OR ISZERO PUSH2 0x1128 JUMPI PUSH2 0x1127 PUSH2 0x11BE JUMP JUMPDEST JUMPDEST DUP1 PUSH1 0x40 MSTORE POP POP POP JUMP JUMPDEST PUSH32 0x4E487B7100000000000000000000000000000000000000000000000000000000 PUSH1 0x0 MSTORE PUSH1 0x11 PUSH1 0x4 MSTORE PUSH1 0x24 PUSH1 0x0 REVERT JUMPDEST PUSH32 0x4E487B7100000000000000000000000000000000000000000000000000000000 PUSH1 0x0 MSTORE PUSH1 0x22 PUSH1 0x4 MSTORE PUSH1 0x24 PUSH1 0x0 REVERT JUMPDEST PUSH32 0x4E487B7100000000000000000000000000000000000000000000000000000000 PUSH1 0x0 MSTORE PUSH1 0x32 PUSH1 0x4 MSTORE PUSH1 0x24 PUSH1 0x0 REVERT JUMPDEST PUSH32 0x4E487B7100000000000000000000000000000000000000000000000000000000 PUSH1 0x0 MSTORE PUSH1 0x41 PUSH1 0x4 MSTORE PUSH1 0x24 PUSH1 0x0 REVERT JUMPDEST PUSH1 0x0 PUSH1 0x3 RETURNDATASIZE GT ISZERO PUSH2 0x120C JUMPI PUSH1 0x4 PUSH1 0x0 DUP1 RETURNDATACOPY PUSH2 0x1209 PUSH1 0x0 MLOAD PUSH2 0x1234 JUMP JUMPDEST SWAP1 POP JUMPDEST SWAP1 JUMP JUMPDEST PUSH1 0x0 DUP1 REVERT JUMPDEST PUSH1 0x0 DUP1 REVERT JUMPDEST PUSH1 0x0 DUP1 REVERT JUMPDEST PUSH1 0x0 DUP1 REVERT JUMPDEST PUSH1 0x0 PUSH1 0x1F NOT PUSH1 0x1F DUP4 ADD AND SWAP1 POP SWAP2 SWAP1 POP JUMP JUMPDEST PUSH1 0x0 DUP2 PUSH1 0xE0 SHR SWAP1 POP SWAP2 SWAP1 POP JUMP JUMPDEST PUSH32 0x455243313135353A207472616E7366657220746F206E6F6E2045524331313535 PUSH1 0x0 DUP3 ADD MSTORE PUSH32 0x526563656976657220696D706C656D656E746572000000000000000000000000 PUSH1 0x20 DUP3 ADD MSTORE POP JUMP JUMPDEST PUSH32 0x455243313135353A2063616C6C6572206973206E6F7420746F6B656E206F776E PUSH1 0x0 DUP3 ADD MSTORE PUSH32 0x6572206E6F7220617070726F7665640000000000000000000000000000000000 PUSH1 0x20 DUP3 ADD MSTORE POP JUMP JUMPDEST PUSH32 0x455243313135353A204552433131353552656365697665722072656A65637465 PUSH1 0x0 DUP3 ADD MSTORE PUSH32 0x6420746F6B656E73000000000000000000000000000000000000000000000000 PUSH1 0x20 DUP3 ADD MSTORE POP JUMP JUMPDEST PUSH32 0x455243313135353A2061646472657373207A65726F206973206E6F7420612076 PUSH1 0x0 DUP3 ADD MSTORE PUSH32 0x616C6964206F776E657200000000000000000000000000000000000000000000 PUSH1 0x20 DUP3 ADD MSTORE POP JUMP JUMPDEST PUSH32 0x455243313135353A207472616E7366657220746F20746865207A65726F206164 PUSH1 0x0 DUP3 ADD MSTORE PUSH32 0x6472657373000000000000000000000000000000000000000000000000000000 PUSH1 0x20 DUP3 ADD MSTORE POP JUMP JUMPDEST PUSH32 0x455243313135353A20696E73756666696369656E742062616C616E636520666F PUSH1 0x0 DUP3 ADD MSTORE PUSH32 0x72207472616E7366657200000000000000000000000000000000000000000000 PUSH1 0x20 DUP3 ADD MSTORE POP JUMP JUMPDEST PUSH32 0x455243313135353A206D696E7420746F20746865207A65726F20616464726573 PUSH1 0x0 DUP3 ADD MSTORE PUSH32 0x7300000000000000000000000000000000000000000000000000000000000000 PUSH1 0x20 DUP3 ADD MSTORE POP JUMP JUMPDEST PUSH1 0x0 PUSH1 0x44 RETURNDATASIZE LT ISZERO PUSH2 0x147A JUMPI PUSH2 0x14FD JUMP JUMPDEST PUSH2 0x1482 PUSH2 0xF5B JUMP JUMPDEST PUSH1 0x4 RETURNDATASIZE SUB PUSH1 0x4 DUP3 RETURNDATACOPY DUP1 MLOAD RETURNDATASIZE PUSH1 0x24 DUP3 ADD GT PUSH8 0xFFFFFFFFFFFFFFFF DUP3 GT OR ISZERO PUSH2 0x14AA JUMPI POP POP PUSH2 0x14FD JUMP JUMPDEST DUP1 DUP3 ADD DUP1 MLOAD PUSH8 0xFFFFFFFFFFFFFFFF DUP2 GT ISZERO PUSH2 0x14C8 JUMPI POP POP POP POP PUSH2 0x14FD JUMP JUMPDEST DUP1 PUSH1 0x20 DUP4 ADD ADD PUSH1 0x4 RETURNDATASIZE SUB DUP6 ADD DUP2 GT ISZERO PUSH2 0x14E5 JUMPI POP POP POP POP POP PUSH2 0x14FD JUMP JUMPDEST PUSH2 0x14F4 DUP3 PUSH1 0x20 ADD DUP6 ADD DUP7 PUSH2 0x1100 JUMP JUMPDEST DUP3 SWAP6 POP POP POP POP POP POP JUMPDEST SWAP1 JUMP JUMPDEST PUSH2 0x1509 DUP2 PUSH2 0x1024 JUMP JUMPDEST DUP2 EQ PUSH2 0x1514 JUMPI PUSH1 0x0 DUP1 REVERT JUMPDEST POP JUMP JUMPDEST PUSH2 0x1520 DUP2 PUSH2 0x1036 JUMP JUMPDEST DUP2 EQ PUSH2 0x152B JUMPI PUSH1 0x0 DUP1 REVERT JUMPDEST POP JUMP JUMPDEST PUSH2 0x1537 DUP2 PUSH2 0x1082 JUMP JUMPDEST DUP2 EQ PUSH2 0x1542 JUMPI PUSH1 0x0 DUP1 REVERT JUMPDEST POP JUMP INVALID LOG2 PUSH5 0x6970667358 0x22 SLT KECCAK256 0xD6 0xC2 PUSH30 0x60AE3B0BD406FEAD24D3301BEBE32EEDC11B1501F3360F5D1F774CBEE864 PUSH20 0x6F6C634300080700330000000000000000000000 "
				},
				"gasEstimates": {
					"creation": {
						"codeDepositCost": "1099800",
						"executionCost": "infinite",
						"totalCost": "infinite"
					},
					"external": {
						"CouponMint(uint256,uint256)": "infinite",
						"balanceOf(address,uint256)": "infinite",
						"safeTransferFrom(address,address,uint256,uint256,bytes)": "infinite",
						"transf(address,address,uint256,uint256,bytes)": "infinite",
						"uri(uint256)": "infinite"
					},
					"internal": {
						"_afterTokenTransfer(address,address,address,uint256[] memory,uint256[] memory,bytes memory)": "21",
						"_asSingletonArray(uint256)": "infinite",
						"_beforeTokenTransfer(address,address,address,uint256[] memory,uint256[] memory,bytes memory)": "21",
						"_burn(address,uint256,uint256)": "infinite",
						"_doSafeTransferAcceptanceCheck(address,address,address,uint256,uint256,bytes memory)": "infinite",
						"_mint(address,uint256,uint256,bytes memory)": "infinite",
						"_msgSender()": "22",
						"_safeTransferFrom(address,address,uint256,uint256,bytes memory)": "infinite",
						"_setURI(string memory)": "infinite",
						"isContract(address)": "2640"
					}
				},
				"methodIdentifiers": {
					"CouponMint(uint256,uint256)": "57e87575",
					"balanceOf(address,uint256)": "00fdd58e",
					"safeTransferFrom(address,address,uint256,uint256,bytes)": "f242432a",
					"transf(address,address,uint256,uint256,bytes)": "a6f27714",
					"uri(uint256)": "0e89341c"
				}
			},
			"storageLayout": {
				"storage": [
					{
						"astId": 58,
						"contract": "contracts/Coupon.sol:Coupon",
						"label": "_balances",
						"offset": 0,
						"slot": "0",
						"type": "t_mapping(t_uint256,t_mapping(t_address,t_uint256))"
					},
					{
						"astId": 64,
						"contract": "contracts/Coupon.sol:Coupon",
						"label": "_operatorApprovals",
						"offset": 0,
						"slot": "1",
						"type": "t_mapping(t_address,t_mapping(t_address,t_bool))"
					},
					{
						"astId": 78,
						"contract": "contracts/Coupon.sol:Coupon",
						"label": "_uri",
						"offset": 0,
						"slot": "2",
						"type": "t_string_storage"
					}
				],
				"types": {
					"t_address": {
						"encoding": "inplace",
						"label": "address",
						"numberOfBytes": "20"
					},
					"t_bool": {
						"encoding": "inplace",
						"label": "bool",
						"numberOfBytes": "1"
					},
					"t_mapping(t_address,t_bool)": {
						"encoding": "mapping",
						"key": "t_address",
						"label": "mapping(address => bool)",
						"numberOfBytes": "32",
						"value": "t_bool"
					},
					"t_mapping(t_address,t_mapping(t_address,t_bool))": {
						"encoding": "mapping",
						"key": "t_address",
						"label": "mapping(address => mapping(address => bool))",
						"numberOfBytes": "32",
						"value": "t_mapping(t_address,t_bool)"
					},
					"t_mapping(t_address,t_uint256)": {
						"encoding": "mapping",
						"key": "t_address",
						"label": "mapping(address => uint256)",
						"numberOfBytes": "32",
						"value": "t_uint256"
					},
					"t_mapping(t_uint256,t_mapping(t_address,t_uint256))": {
						"encoding": "mapping",
						"key": "t_uint256",
						"label": "mapping(uint256 => mapping(address => uint256))",
						"numberOfBytes": "32",
						"value": "t_mapping(t_address,t_uint256)"
					},
					"t_string_storage": {
						"encoding": "bytes",
						"label": "string",
						"numberOfBytes": "32"
					},
					"t_uint256": {
						"encoding": "inplace",
						"label": "uint256",
						"numberOfBytes": "32"
					}
				}
			},
			"userdoc": {
				"kind": "user",
				"methods": {},
				"version": 1
			}
		}
	}
}