{
	"contracts/CouponMarket.sol": {
		"CouponMarket": {
			"abi": [
				{
					"anonymous": false,
					"inputs": [
						{
							"indexed": false,
							"internalType": "address",
							"name": "operator",
							"type": "address"
						},
						{
							"indexed": false,
							"internalType": "address",
							"name": "from",
							"type": "address"
						},
						{
							"indexed": false,
							"internalType": "uint256",
							"name": "id",
							"type": "uint256"
						},
						{
							"indexed": false,
							"internalType": "uint256",
							"name": "value",
							"type": "uint256"
						},
						{
							"indexed": false,
							"internalType": "bytes",
							"name": "data",
							"type": "bytes"
						},
						{
							"indexed": false,
							"internalType": "uint256",
							"name": "gas",
							"type": "uint256"
						}
					],
					"name": "Received",
					"type": "event"
				},
				{
					"inputs": [
						{
							"internalType": "uint256",
							"name": "discount",
							"type": "uint256"
						}
					],
					"name": "amount",
					"outputs": [
						{
							"internalType": "uint256",
							"name": "",
							"type": "uint256"
						}
					],
					"stateMutability": "view",
					"type": "function"
				},
				{
					"inputs": [
						{
							"internalType": "uint256",
							"name": "discount",
							"type": "uint256"
						},
						{
							"internalType": "uint256",
							"name": "amount",
							"type": "uint256"
						},
						{
							"internalType": "uint256",
							"name": "price",
							"type": "uint256"
						},
						{
							"internalType": "address",
							"name": "CouponContractAddr",
							"type": "address"
						},
						{
							"internalType": "address",
							"name": "TokenContractAddr",
							"type": "address"
						}
					],
					"name": "buyCoupon",
					"outputs": [
						{
							"internalType": "bool",
							"name": "",
							"type": "bool"
						}
					],
					"stateMutability": "payable",
					"type": "function"
				},
				{
					"inputs": [
						{
							"internalType": "address",
							"name": "operator",
							"type": "address"
						},
						{
							"internalType": "address",
							"name": "from",
							"type": "address"
						},
						{
							"internalType": "uint256",
							"name": "id",
							"type": "uint256"
						},
						{
							"internalType": "uint256",
							"name": "value",
							"type": "uint256"
						},
						{
							"internalType": "bytes",
							"name": "data",
							"type": "bytes"
						}
					],
					"name": "onERC1155Received",
					"outputs": [
						{
							"internalType": "bytes4",
							"name": "",
							"type": "bytes4"
						}
					],
					"stateMutability": "nonpayable",
					"type": "function"
				},
				{
					"inputs": [
						{
							"internalType": "uint256",
							"name": "discount",
							"type": "uint256"
						}
					],
					"name": "seller",
					"outputs": [
						{
							"internalType": "address",
							"name": "",
							"type": "address"
						}
					],
					"stateMutability": "view",
					"type": "function"
				}
			],
			"devdoc": {
				"kind": "dev",
				"methods": {},
				"version": 1
			},
			"evm": {
				"assembly": "    /* \"contracts/CouponMarket.sol\":474:2272  contract CouponMarket {... */\n  mstore(0x40, 0x80)\n  callvalue\n  dup1\n  iszero\n  tag_1\n  jumpi\n  0x00\n  dup1\n  revert\ntag_1:\n  pop\n  dataSize(sub_0)\n  dup1\n  dataOffset(sub_0)\n  0x00\n  codecopy\n  0x00\n  return\nstop\n\nsub_0: assembly {\n        /* \"contracts/CouponMarket.sol\":474:2272  contract CouponMarket {... */\n      mstore(0x40, 0x80)\n      jumpi(tag_1, lt(calldatasize, 0x04))\n      shr(0xe0, calldataload(0x00))\n      dup1\n      0x6ec0feda\n      eq\n      tag_2\n      jumpi\n      dup1\n      0x8b0d0258\n      eq\n      tag_3\n      jumpi\n      dup1\n      0xaacdfe6f\n      eq\n      tag_4\n      jumpi\n      dup1\n      0xf23a6e61\n      eq\n      tag_5\n      jumpi\n    tag_1:\n      0x00\n      dup1\n      revert\n        /* \"contracts/CouponMarket.sol\":982:1632  function buyCoupon(... */\n    tag_2:\n      tag_6\n      0x04\n      dup1\n      calldatasize\n      sub\n      dup2\n      add\n      swap1\n      tag_7\n      swap2\n      swap1\n      tag_8\n      jump\t// in\n    tag_7:\n      tag_9\n      jump\t// in\n    tag_6:\n      mload(0x40)\n      tag_10\n      swap2\n      swap1\n      tag_11\n      jump\t// in\n    tag_10:\n      mload(0x40)\n      dup1\n      swap2\n      sub\n      swap1\n      return\n        /* \"contracts/CouponMarket.sol\":871:976  function amount(uint256 discount) public view returns (uint256) {... */\n    tag_3:\n      callvalue\n      dup1\n      iszero\n      tag_12\n      jumpi\n      0x00\n      dup1\n      revert\n    tag_12:\n      pop\n      tag_13\n      0x04\n      dup1\n      calldatasize\n      sub\n      dup2\n      add\n      swap1\n      tag_14\n      swap2\n      swap1\n      tag_15\n      jump\t// in\n    tag_14:\n      tag_16\n      jump\t// in\n    tag_13:\n      mload(0x40)\n      tag_17\n      swap2\n      swap1\n      tag_18\n      jump\t// in\n    tag_17:\n      mload(0x40)\n      dup1\n      swap2\n      sub\n      swap1\n      return\n        /* \"contracts/CouponMarket.sol\":760:865  function seller(uint256 discount) public view returns (address) {... */\n    tag_4:\n      callvalue\n      dup1\n      iszero\n      tag_19\n      jumpi\n      0x00\n      dup1\n      revert\n    tag_19:\n      pop\n      tag_20\n      0x04\n      dup1\n      calldatasize\n      sub\n      dup2\n      add\n      swap1\n      tag_21\n      swap2\n      swap1\n      tag_15\n      jump\t// in\n    tag_21:\n      tag_22\n      jump\t// in\n    tag_20:\n      mload(0x40)\n      tag_23\n      swap2\n      swap1\n      tag_24\n      jump\t// in\n    tag_23:\n      mload(0x40)\n      dup1\n      swap2\n      sub\n      swap1\n      return\n        /* \"contracts/CouponMarket.sol\":1772:2270  function onERC1155Received(... */\n    tag_5:\n      callvalue\n      dup1\n      iszero\n      tag_25\n      jumpi\n      0x00\n      dup1\n      revert\n    tag_25:\n      pop\n      tag_26\n      0x04\n      dup1\n      calldatasize\n      sub\n      dup2\n      add\n      swap1\n      tag_27\n      swap2\n      swap1\n      tag_28\n      jump\t// in\n    tag_27:\n      tag_29\n      jump\t// in\n    tag_26:\n      mload(0x40)\n      tag_30\n      swap2\n      swap1\n      tag_31\n      jump\t// in\n    tag_30:\n      mload(0x40)\n      dup1\n      swap2\n      sub\n      swap1\n      return\n        /* \"contracts/CouponMarket.sol\":982:1632  function buyCoupon(... */\n    tag_9:\n        /* \"contracts/CouponMarket.sol\":1175:1179  bool */\n      0x00\n        /* \"contracts/CouponMarket.sol\":1333:1350  TokenContractAddr */\n      dup2\n        /* \"contracts/CouponMarket.sol\":1326:1360  others(TokenContractAddr).transfer */\n      0xffffffffffffffffffffffffffffffffffffffff\n      and\n      0xa9059cbb\n        /* \"contracts/CouponMarket.sol\":1361:1368  _seller */\n      0x00\n        /* \"contracts/CouponMarket.sol\":1361:1378  _seller[discount] */\n      dup1\n        /* \"contracts/CouponMarket.sol\":1369:1377  discount */\n      dup10\n        /* \"contracts/CouponMarket.sol\":1361:1378  _seller[discount] */\n      dup2\n      mstore\n      0x20\n      add\n      swap1\n      dup2\n      mstore\n      0x20\n      add\n      0x00\n      keccak256\n      0x00\n      swap1\n      sload\n      swap1\n      0x0100\n      exp\n      swap1\n      div\n      0xffffffffffffffffffffffffffffffffffffffff\n      and\n        /* \"contracts/CouponMarket.sol\":1380:1385  price */\n      dup7\n        /* \"contracts/CouponMarket.sol\":1326:1386  others(TokenContractAddr).transfer(_seller[discount], price) */\n      mload(0x40)\n      dup4\n      0xffffffff\n      and\n      0xe0\n      shl\n      dup2\n      mstore\n      0x04\n      add\n      tag_33\n      swap3\n      swap2\n      swap1\n      tag_34\n      jump\t// in\n    tag_33:\n      0x20\n      mload(0x40)\n      dup1\n      dup4\n      sub\n      dup2\n      0x00\n      dup8\n      dup1\n      extcodesize\n      iszero\n      dup1\n      iszero\n      tag_35\n      jumpi\n      0x00\n      dup1\n      revert\n    tag_35:\n      pop\n      gas\n      call\n      iszero\n      dup1\n      iszero\n      tag_37\n      jumpi\n      returndatasize\n      0x00\n      dup1\n      returndatacopy\n      revert(0x00, returndatasize)\n    tag_37:\n      pop\n      pop\n      pop\n      pop\n      mload(0x40)\n      returndatasize\n      not(0x1f)\n      0x1f\n      dup3\n      add\n      and\n      dup3\n      add\n      dup1\n      0x40\n      mstore\n      pop\n      dup2\n      add\n      swap1\n      tag_38\n      swap2\n      swap1\n      tag_39\n      jump\t// in\n    tag_38:\n      pop\n        /* \"contracts/CouponMarket.sol\":1404:1422  CouponContractAddr */\n      dup3\n        /* \"contracts/CouponMarket.sol\":1397:1440  others(CouponContractAddr).safeTransferFrom */\n      0xffffffffffffffffffffffffffffffffffffffff\n      and\n      0xf242432a\n        /* \"contracts/CouponMarket.sol\":1462:1466  this */\n      address\n        /* \"contracts/CouponMarket.sol\":1481:1491  msg.sender */\n      caller\n        /* \"contracts/CouponMarket.sol\":1505:1513  discount */\n      dup10\n        /* \"contracts/CouponMarket.sol\":1527:1533  amount */\n      dup10\n        /* \"contracts/CouponMarket.sol\":1397:1563  others(CouponContractAddr).safeTransferFrom(... */\n      mload(0x40)\n      dup6\n      0xffffffff\n      and\n      0xe0\n      shl\n      dup2\n      mstore\n      0x04\n      add\n      tag_40\n      swap5\n      swap4\n      swap3\n      swap2\n      swap1\n      tag_41\n      jump\t// in\n    tag_40:\n      0x00\n      mload(0x40)\n      dup1\n      dup4\n      sub\n      dup2\n      0x00\n      dup8\n      dup1\n      extcodesize\n      iszero\n      dup1\n      iszero\n      tag_42\n      jumpi\n      0x00\n      dup1\n      revert\n    tag_42:\n      pop\n      gas\n      call\n      iszero\n      dup1\n      iszero\n      tag_44\n      jumpi\n      returndatasize\n      0x00\n      dup1\n      returndatacopy\n      revert(0x00, returndatasize)\n    tag_44:\n      pop\n      pop\n      pop\n      pop\n        /* \"contracts/CouponMarket.sol\":1573:1604  _reduceAmount(discount, amount) */\n      tag_45\n        /* \"contracts/CouponMarket.sol\":1587:1595  discount */\n      dup7\n        /* \"contracts/CouponMarket.sol\":1597:1603  amount */\n      dup7\n        /* \"contracts/CouponMarket.sol\":1573:1586  _reduceAmount */\n      tag_46\n        /* \"contracts/CouponMarket.sol\":1573:1604  _reduceAmount(discount, amount) */\n      jump\t// in\n    tag_45:\n        /* \"contracts/CouponMarket.sol\":1621:1625  true */\n      0x01\n        /* \"contracts/CouponMarket.sol\":1614:1625  return true */\n      swap1\n      pop\n        /* \"contracts/CouponMarket.sol\":982:1632  function buyCoupon(... */\n      swap6\n      swap5\n      pop\n      pop\n      pop\n      pop\n      pop\n      jump\t// out\n        /* \"contracts/CouponMarket.sol\":871:976  function amount(uint256 discount) public view returns (uint256) {... */\n    tag_16:\n        /* \"contracts/CouponMarket.sol\":926:933  uint256 */\n      0x00\n        /* \"contracts/CouponMarket.sol\":952:959  _amount */\n      0x01\n        /* \"contracts/CouponMarket.sol\":952:969  _amount[discount] */\n      0x00\n        /* \"contracts/CouponMarket.sol\":960:968  discount */\n      dup4\n        /* \"contracts/CouponMarket.sol\":952:969  _amount[discount] */\n      dup2\n      mstore\n      0x20\n      add\n      swap1\n      dup2\n      mstore\n      0x20\n      add\n      0x00\n      keccak256\n      sload\n        /* \"contracts/CouponMarket.sol\":945:969  return _amount[discount] */\n      swap1\n      pop\n        /* \"contracts/CouponMarket.sol\":871:976  function amount(uint256 discount) public view returns (uint256) {... */\n      swap2\n      swap1\n      pop\n      jump\t// out\n        /* \"contracts/CouponMarket.sol\":760:865  function seller(uint256 discount) public view returns (address) {... */\n    tag_22:\n        /* \"contracts/CouponMarket.sol\":815:822  address */\n      0x00\n        /* \"contracts/CouponMarket.sol\":841:848  _seller */\n      dup1\n        /* \"contracts/CouponMarket.sol\":841:858  _seller[discount] */\n      0x00\n        /* \"contracts/CouponMarket.sol\":849:857  discount */\n      dup4\n        /* \"contracts/CouponMarket.sol\":841:858  _seller[discount] */\n      dup2\n      mstore\n      0x20\n      add\n      swap1\n      dup2\n      mstore\n      0x20\n      add\n      0x00\n      keccak256\n      0x00\n      swap1\n      sload\n      swap1\n      0x0100\n      exp\n      swap1\n      div\n      0xffffffffffffffffffffffffffffffffffffffff\n      and\n        /* \"contracts/CouponMarket.sol\":834:858  return _seller[discount] */\n      swap1\n      pop\n        /* \"contracts/CouponMarket.sol\":760:865  function seller(uint256 discount) public view returns (address) {... */\n      swap2\n      swap1\n      pop\n      jump\t// out\n        /* \"contracts/CouponMarket.sol\":1772:2270  function onERC1155Received(... */\n    tag_29:\n        /* \"contracts/CouponMarket.sol\":1941:1947  bytes4 */\n      0x00\n        /* \"contracts/CouponMarket.sol\":1973:1977  from */\n      dup6\n        /* \"contracts/CouponMarket.sol\":1959:1966  _seller */\n      0x00\n        /* \"contracts/CouponMarket.sol\":1959:1970  _seller[id] */\n      dup1\n        /* \"contracts/CouponMarket.sol\":1967:1969  id */\n      dup8\n        /* \"contracts/CouponMarket.sol\":1959:1970  _seller[id] */\n      dup2\n      mstore\n      0x20\n      add\n      swap1\n      dup2\n      mstore\n      0x20\n      add\n      0x00\n      keccak256\n      0x00\n        /* \"contracts/CouponMarket.sol\":1959:1977  _seller[id] = from */\n      0x0100\n      exp\n      dup2\n      sload\n      dup2\n      0xffffffffffffffffffffffffffffffffffffffff\n      mul\n      not\n      and\n      swap1\n      dup4\n      0xffffffffffffffffffffffffffffffffffffffff\n      and\n      mul\n      or\n      swap1\n      sstore\n      pop\n        /* \"contracts/CouponMarket.sol\":2015:2020  value */\n      dup4\n        /* \"contracts/CouponMarket.sol\":2001:2008  _amount */\n      0x01\n        /* \"contracts/CouponMarket.sol\":2001:2012  _amount[id] */\n      0x00\n        /* \"contracts/CouponMarket.sol\":2009:2011  id */\n      dup8\n        /* \"contracts/CouponMarket.sol\":2001:2012  _amount[id] */\n      dup2\n      mstore\n      0x20\n      add\n      swap1\n      dup2\n      mstore\n      0x20\n      add\n      0x00\n      keccak256\n      sload\n        /* \"contracts/CouponMarket.sol\":2001:2020  _amount[id] + value */\n      tag_50\n      swap2\n      swap1\n      tag_51\n      jump\t// in\n    tag_50:\n        /* \"contracts/CouponMarket.sol\":1987:1994  _amount */\n      0x01\n        /* \"contracts/CouponMarket.sol\":1987:1998  _amount[id] */\n      0x00\n        /* \"contracts/CouponMarket.sol\":1995:1997  id */\n      dup8\n        /* \"contracts/CouponMarket.sol\":1987:1998  _amount[id] */\n      dup2\n      mstore\n      0x20\n      add\n      swap1\n      dup2\n      mstore\n      0x20\n      add\n      0x00\n      keccak256\n        /* \"contracts/CouponMarket.sol\":1987:2020  _amount[id] = _amount[id] + value */\n      dup2\n      swap1\n      sstore\n      pop\n        /* \"contracts/CouponMarket.sol\":2035:2087  Received(operator, from, id, value, data, gasleft()) */\n      0x20dfa9f79060c8c4d7fe892c97c71bcf6e3b63d1dcf66fea7aefc0211628cf29\n        /* \"contracts/CouponMarket.sol\":2044:2052  operator */\n      dup8\n        /* \"contracts/CouponMarket.sol\":2054:2058  from */\n      dup8\n        /* \"contracts/CouponMarket.sol\":2060:2062  id */\n      dup8\n        /* \"contracts/CouponMarket.sol\":2064:2069  value */\n      dup8\n        /* \"contracts/CouponMarket.sol\":2071:2075  data */\n      dup8\n      dup8\n        /* \"contracts/CouponMarket.sol\":2077:2086  gasleft() */\n      gas\n        /* \"contracts/CouponMarket.sol\":2035:2087  Received(operator, from, id, value, data, gasleft()) */\n      mload(0x40)\n      tag_52\n      swap8\n      swap7\n      swap6\n      swap5\n      swap4\n      swap3\n      swap2\n      swap1\n      tag_53\n      jump\t// in\n    tag_52:\n      mload(0x40)\n      dup1\n      swap2\n      sub\n      swap1\n      log1\n        /* \"contracts/CouponMarket.sol\":2140:2249  keccak256(... */\n      0xf23a6e612e1ff4830e658fe43f4e3cb4a5f8170bd5d9e69fb5d7a7fa9e4fdf97\n        /* \"contracts/CouponMarket.sol\":2097:2263  return... */\n      swap1\n      pop\n        /* \"contracts/CouponMarket.sol\":1772:2270  function onERC1155Received(... */\n      swap7\n      swap6\n      pop\n      pop\n      pop\n      pop\n      pop\n      pop\n      jump\t// out\n        /* \"contracts/CouponMarket.sol\":1638:1766  function _reduceAmount(uint256 discount, uint256 amount) private {... */\n    tag_46:\n        /* \"contracts/CouponMarket.sol\":1753:1759  amount */\n      dup1\n        /* \"contracts/CouponMarket.sol\":1733:1740  _amount */\n      0x01\n        /* \"contracts/CouponMarket.sol\":1733:1750  _amount[discount] */\n      0x00\n        /* \"contracts/CouponMarket.sol\":1741:1749  discount */\n      dup5\n        /* \"contracts/CouponMarket.sol\":1733:1750  _amount[discount] */\n      dup2\n      mstore\n      0x20\n      add\n      swap1\n      dup2\n      mstore\n      0x20\n      add\n      0x00\n      keccak256\n      sload\n        /* \"contracts/CouponMarket.sol\":1733:1759  _amount[discount] - amount */\n      tag_55\n      swap2\n      swap1\n      tag_56\n      jump\t// in\n    tag_55:\n        /* \"contracts/CouponMarket.sol\":1713:1720  _amount */\n      0x01\n        /* \"contracts/CouponMarket.sol\":1713:1730  _amount[discount] */\n      0x00\n        /* \"contracts/CouponMarket.sol\":1721:1729  discount */\n      dup5\n        /* \"contracts/CouponMarket.sol\":1713:1730  _amount[discount] */\n      dup2\n      mstore\n      0x20\n      add\n      swap1\n      dup2\n      mstore\n      0x20\n      add\n      0x00\n      keccak256\n        /* \"contracts/CouponMarket.sol\":1713:1759  _amount[discount] = _amount[discount] - amount */\n      dup2\n      swap1\n      sstore\n      pop\n        /* \"contracts/CouponMarket.sol\":1638:1766  function _reduceAmount(uint256 discount, uint256 amount) private {... */\n      pop\n      pop\n      jump\t// out\n        /* \"#utility.yul\":7:146   */\n    tag_58:\n        /* \"#utility.yul\":53:58   */\n      0x00\n        /* \"#utility.yul\":91:97   */\n      dup2\n        /* \"#utility.yul\":78:98   */\n      calldataload\n        /* \"#utility.yul\":69:98   */\n      swap1\n      pop\n        /* \"#utility.yul\":107:140   */\n      tag_60\n        /* \"#utility.yul\":134:139   */\n      dup2\n        /* \"#utility.yul\":107:140   */\n      tag_61\n      jump\t// in\n    tag_60:\n        /* \"#utility.yul\":7:146   */\n      swap3\n      swap2\n      pop\n      pop\n      jump\t// out\n        /* \"#utility.yul\":152:289   */\n    tag_62:\n        /* \"#utility.yul\":206:211   */\n      0x00\n        /* \"#utility.yul\":237:243   */\n      dup2\n        /* \"#utility.yul\":231:244   */\n      mload\n        /* \"#utility.yul\":222:244   */\n      swap1\n      pop\n        /* \"#utility.yul\":253:283   */\n      tag_64\n        /* \"#utility.yul\":277:282   */\n      dup2\n        /* \"#utility.yul\":253:283   */\n      tag_65\n      jump\t// in\n    tag_64:\n        /* \"#utility.yul\":152:289   */\n      swap3\n      swap2\n      pop\n      pop\n      jump\t// out\n        /* \"#utility.yul\":308:860   */\n    tag_66:\n        /* \"#utility.yul\":365:373   */\n      0x00\n        /* \"#utility.yul\":375:381   */\n      dup1\n        /* \"#utility.yul\":425:428   */\n      dup4\n        /* \"#utility.yul\":418:422   */\n      0x1f\n        /* \"#utility.yul\":410:416   */\n      dup5\n        /* \"#utility.yul\":406:423   */\n      add\n        /* \"#utility.yul\":402:429   */\n      slt\n        /* \"#utility.yul\":392:514   */\n      tag_68\n      jumpi\n        /* \"#utility.yul\":433:512   */\n      tag_69\n      tag_70\n      jump\t// in\n    tag_69:\n        /* \"#utility.yul\":392:514   */\n    tag_68:\n        /* \"#utility.yul\":546:552   */\n      dup3\n        /* \"#utility.yul\":533:553   */\n      calldataload\n        /* \"#utility.yul\":523:553   */\n      swap1\n      pop\n        /* \"#utility.yul\":576:594   */\n      0xffffffffffffffff\n        /* \"#utility.yul\":568:574   */\n      dup2\n        /* \"#utility.yul\":565:595   */\n      gt\n        /* \"#utility.yul\":562:679   */\n      iszero\n      tag_71\n      jumpi\n        /* \"#utility.yul\":598:677   */\n      tag_72\n      tag_73\n      jump\t// in\n    tag_72:\n        /* \"#utility.yul\":562:679   */\n    tag_71:\n        /* \"#utility.yul\":712:716   */\n      0x20\n        /* \"#utility.yul\":704:710   */\n      dup4\n        /* \"#utility.yul\":700:717   */\n      add\n        /* \"#utility.yul\":688:717   */\n      swap2\n      pop\n        /* \"#utility.yul\":766:769   */\n      dup4\n        /* \"#utility.yul\":758:762   */\n      0x01\n        /* \"#utility.yul\":750:756   */\n      dup3\n        /* \"#utility.yul\":746:763   */\n      mul\n        /* \"#utility.yul\":736:744   */\n      dup4\n        /* \"#utility.yul\":732:764   */\n      add\n        /* \"#utility.yul\":729:770   */\n      gt\n        /* \"#utility.yul\":726:854   */\n      iszero\n      tag_74\n      jumpi\n        /* \"#utility.yul\":773:852   */\n      tag_75\n      tag_76\n      jump\t// in\n    tag_75:\n        /* \"#utility.yul\":726:854   */\n    tag_74:\n        /* \"#utility.yul\":308:860   */\n      swap3\n      pop\n      swap3\n      swap1\n      pop\n      jump\t// out\n        /* \"#utility.yul\":866:1005   */\n    tag_77:\n        /* \"#utility.yul\":912:917   */\n      0x00\n        /* \"#utility.yul\":950:956   */\n      dup2\n        /* \"#utility.yul\":937:957   */\n      calldataload\n        /* \"#utility.yul\":928:957   */\n      swap1\n      pop\n        /* \"#utility.yul\":966:999   */\n      tag_79\n        /* \"#utility.yul\":993:998   */\n      dup2\n        /* \"#utility.yul\":966:999   */\n      tag_80\n      jump\t// in\n    tag_79:\n        /* \"#utility.yul\":866:1005   */\n      swap3\n      swap2\n      pop\n      pop\n      jump\t// out\n        /* \"#utility.yul\":1011:2120   */\n    tag_28:\n        /* \"#utility.yul\":1117:1123   */\n      0x00\n        /* \"#utility.yul\":1125:1131   */\n      dup1\n        /* \"#utility.yul\":1133:1139   */\n      0x00\n        /* \"#utility.yul\":1141:1147   */\n      dup1\n        /* \"#utility.yul\":1149:1155   */\n      0x00\n        /* \"#utility.yul\":1157:1163   */\n      dup1\n        /* \"#utility.yul\":1206:1209   */\n      0xa0\n        /* \"#utility.yul\":1194:1203   */\n      dup8\n        /* \"#utility.yul\":1185:1192   */\n      dup10\n        /* \"#utility.yul\":1181:1204   */\n      sub\n        /* \"#utility.yul\":1177:1210   */\n      slt\n        /* \"#utility.yul\":1174:1294   */\n      iszero\n      tag_82\n      jumpi\n        /* \"#utility.yul\":1213:1292   */\n      tag_83\n      tag_84\n      jump\t// in\n    tag_83:\n        /* \"#utility.yul\":1174:1294   */\n    tag_82:\n        /* \"#utility.yul\":1333:1334   */\n      0x00\n        /* \"#utility.yul\":1358:1411   */\n      tag_85\n        /* \"#utility.yul\":1403:1410   */\n      dup10\n        /* \"#utility.yul\":1394:1400   */\n      dup3\n        /* \"#utility.yul\":1383:1392   */\n      dup11\n        /* \"#utility.yul\":1379:1401   */\n      add\n        /* \"#utility.yul\":1358:1411   */\n      tag_58\n      jump\t// in\n    tag_85:\n        /* \"#utility.yul\":1348:1411   */\n      swap7\n      pop\n        /* \"#utility.yul\":1304:1421   */\n      pop\n        /* \"#utility.yul\":1460:1462   */\n      0x20\n        /* \"#utility.yul\":1486:1539   */\n      tag_86\n        /* \"#utility.yul\":1531:1538   */\n      dup10\n        /* \"#utility.yul\":1522:1528   */\n      dup3\n        /* \"#utility.yul\":1511:1520   */\n      dup11\n        /* \"#utility.yul\":1507:1529   */\n      add\n        /* \"#utility.yul\":1486:1539   */\n      tag_58\n      jump\t// in\n    tag_86:\n        /* \"#utility.yul\":1476:1539   */\n      swap6\n      pop\n        /* \"#utility.yul\":1431:1549   */\n      pop\n        /* \"#utility.yul\":1588:1590   */\n      0x40\n        /* \"#utility.yul\":1614:1667   */\n      tag_87\n        /* \"#utility.yul\":1659:1666   */\n      dup10\n        /* \"#utility.yul\":1650:1656   */\n      dup3\n        /* \"#utility.yul\":1639:1648   */\n      dup11\n        /* \"#utility.yul\":1635:1657   */\n      add\n        /* \"#utility.yul\":1614:1667   */\n      tag_77\n      jump\t// in\n    tag_87:\n        /* \"#utility.yul\":1604:1667   */\n      swap5\n      pop\n        /* \"#utility.yul\":1559:1677   */\n      pop\n        /* \"#utility.yul\":1716:1718   */\n      0x60\n        /* \"#utility.yul\":1742:1795   */\n      tag_88\n        /* \"#utility.yul\":1787:1794   */\n      dup10\n        /* \"#utility.yul\":1778:1784   */\n      dup3\n        /* \"#utility.yul\":1767:1776   */\n      dup11\n        /* \"#utility.yul\":1763:1785   */\n      add\n        /* \"#utility.yul\":1742:1795   */\n      tag_77\n      jump\t// in\n    tag_88:\n        /* \"#utility.yul\":1732:1795   */\n      swap4\n      pop\n        /* \"#utility.yul\":1687:1805   */\n      pop\n        /* \"#utility.yul\":1872:1875   */\n      0x80\n        /* \"#utility.yul\":1861:1870   */\n      dup8\n        /* \"#utility.yul\":1857:1876   */\n      add\n        /* \"#utility.yul\":1844:1877   */\n      calldataload\n        /* \"#utility.yul\":1904:1922   */\n      0xffffffffffffffff\n        /* \"#utility.yul\":1896:1902   */\n      dup2\n        /* \"#utility.yul\":1893:1923   */\n      gt\n        /* \"#utility.yul\":1890:2007   */\n      iszero\n      tag_89\n      jumpi\n        /* \"#utility.yul\":1926:2005   */\n      tag_90\n      tag_91\n      jump\t// in\n    tag_90:\n        /* \"#utility.yul\":1890:2007   */\n    tag_89:\n        /* \"#utility.yul\":2039:2103   */\n      tag_92\n        /* \"#utility.yul\":2095:2102   */\n      dup10\n        /* \"#utility.yul\":2086:2092   */\n      dup3\n        /* \"#utility.yul\":2075:2084   */\n      dup11\n        /* \"#utility.yul\":2071:2093   */\n      add\n        /* \"#utility.yul\":2039:2103   */\n      tag_66\n      jump\t// in\n    tag_92:\n        /* \"#utility.yul\":2021:2103   */\n      swap3\n      pop\n      swap3\n      pop\n        /* \"#utility.yul\":1815:2113   */\n      pop\n        /* \"#utility.yul\":1011:2120   */\n      swap3\n      swap6\n      pop\n      swap3\n      swap6\n      pop\n      swap3\n      swap6\n      jump\t// out\n        /* \"#utility.yul\":2126:2471   */\n    tag_39:\n        /* \"#utility.yul\":2193:2199   */\n      0x00\n        /* \"#utility.yul\":2242:2244   */\n      0x20\n        /* \"#utility.yul\":2230:2239   */\n      dup3\n        /* \"#utility.yul\":2221:2228   */\n      dup5\n        /* \"#utility.yul\":2217:2240   */\n      sub\n        /* \"#utility.yul\":2213:2245   */\n      slt\n        /* \"#utility.yul\":2210:2329   */\n      iszero\n      tag_94\n      jumpi\n        /* \"#utility.yul\":2248:2327   */\n      tag_95\n      tag_84\n      jump\t// in\n    tag_95:\n        /* \"#utility.yul\":2210:2329   */\n    tag_94:\n        /* \"#utility.yul\":2368:2369   */\n      0x00\n        /* \"#utility.yul\":2393:2454   */\n      tag_96\n        /* \"#utility.yul\":2446:2453   */\n      dup5\n        /* \"#utility.yul\":2437:2443   */\n      dup3\n        /* \"#utility.yul\":2426:2435   */\n      dup6\n        /* \"#utility.yul\":2422:2444   */\n      add\n        /* \"#utility.yul\":2393:2454   */\n      tag_62\n      jump\t// in\n    tag_96:\n        /* \"#utility.yul\":2383:2454   */\n      swap2\n      pop\n        /* \"#utility.yul\":2339:2464   */\n      pop\n        /* \"#utility.yul\":2126:2471   */\n      swap3\n      swap2\n      pop\n      pop\n      jump\t// out\n        /* \"#utility.yul\":2477:2806   */\n    tag_15:\n        /* \"#utility.yul\":2536:2542   */\n      0x00\n        /* \"#utility.yul\":2585:2587   */\n      0x20\n        /* \"#utility.yul\":2573:2582   */\n      dup3\n        /* \"#utility.yul\":2564:2571   */\n      dup5\n        /* \"#utility.yul\":2560:2583   */\n      sub\n        /* \"#utility.yul\":2556:2588   */\n      slt\n        /* \"#utility.yul\":2553:2672   */\n      iszero\n      tag_98\n      jumpi\n        /* \"#utility.yul\":2591:2670   */\n      tag_99\n      tag_84\n      jump\t// in\n    tag_99:\n        /* \"#utility.yul\":2553:2672   */\n    tag_98:\n        /* \"#utility.yul\":2711:2712   */\n      0x00\n        /* \"#utility.yul\":2736:2789   */\n      tag_100\n        /* \"#utility.yul\":2781:2788   */\n      dup5\n        /* \"#utility.yul\":2772:2778   */\n      dup3\n        /* \"#utility.yul\":2761:2770   */\n      dup6\n        /* \"#utility.yul\":2757:2779   */\n      add\n        /* \"#utility.yul\":2736:2789   */\n      tag_77\n      jump\t// in\n    tag_100:\n        /* \"#utility.yul\":2726:2789   */\n      swap2\n      pop\n        /* \"#utility.yul\":2682:2799   */\n      pop\n        /* \"#utility.yul\":2477:2806   */\n      swap3\n      swap2\n      pop\n      pop\n      jump\t// out\n        /* \"#utility.yul\":2812:3723   */\n    tag_8:\n        /* \"#utility.yul\":2907:2913   */\n      0x00\n        /* \"#utility.yul\":2915:2921   */\n      dup1\n        /* \"#utility.yul\":2923:2929   */\n      0x00\n        /* \"#utility.yul\":2931:2937   */\n      dup1\n        /* \"#utility.yul\":2939:2945   */\n      0x00\n        /* \"#utility.yul\":2988:2991   */\n      0xa0\n        /* \"#utility.yul\":2976:2985   */\n      dup7\n        /* \"#utility.yul\":2967:2974   */\n      dup9\n        /* \"#utility.yul\":2963:2986   */\n      sub\n        /* \"#utility.yul\":2959:2992   */\n      slt\n        /* \"#utility.yul\":2956:3076   */\n      iszero\n      tag_102\n      jumpi\n        /* \"#utility.yul\":2995:3074   */\n      tag_103\n      tag_84\n      jump\t// in\n    tag_103:\n        /* \"#utility.yul\":2956:3076   */\n    tag_102:\n        /* \"#utility.yul\":3115:3116   */\n      0x00\n        /* \"#utility.yul\":3140:3193   */\n      tag_104\n        /* \"#utility.yul\":3185:3192   */\n      dup9\n        /* \"#utility.yul\":3176:3182   */\n      dup3\n        /* \"#utility.yul\":3165:3174   */\n      dup10\n        /* \"#utility.yul\":3161:3183   */\n      add\n        /* \"#utility.yul\":3140:3193   */\n      tag_77\n      jump\t// in\n    tag_104:\n        /* \"#utility.yul\":3130:3193   */\n      swap6\n      pop\n        /* \"#utility.yul\":3086:3203   */\n      pop\n        /* \"#utility.yul\":3242:3244   */\n      0x20\n        /* \"#utility.yul\":3268:3321   */\n      tag_105\n        /* \"#utility.yul\":3313:3320   */\n      dup9\n        /* \"#utility.yul\":3304:3310   */\n      dup3\n        /* \"#utility.yul\":3293:3302   */\n      dup10\n        /* \"#utility.yul\":3289:3311   */\n      add\n        /* \"#utility.yul\":3268:3321   */\n      tag_77\n      jump\t// in\n    tag_105:\n        /* \"#utility.yul\":3258:3321   */\n      swap5\n      pop\n        /* \"#utility.yul\":3213:3331   */\n      pop\n        /* \"#utility.yul\":3370:3372   */\n      0x40\n        /* \"#utility.yul\":3396:3449   */\n      tag_106\n        /* \"#utility.yul\":3441:3448   */\n      dup9\n        /* \"#utility.yul\":3432:3438   */\n      dup3\n        /* \"#utility.yul\":3421:3430   */\n      dup10\n        /* \"#utility.yul\":3417:3439   */\n      add\n        /* \"#utility.yul\":3396:3449   */\n      tag_77\n      jump\t// in\n    tag_106:\n        /* \"#utility.yul\":3386:3449   */\n      swap4\n      pop\n        /* \"#utility.yul\":3341:3459   */\n      pop\n        /* \"#utility.yul\":3498:3500   */\n      0x60\n        /* \"#utility.yul\":3524:3577   */\n      tag_107\n        /* \"#utility.yul\":3569:3576   */\n      dup9\n        /* \"#utility.yul\":3560:3566   */\n      dup3\n        /* \"#utility.yul\":3549:3558   */\n      dup10\n        /* \"#utility.yul\":3545:3567   */\n      add\n        /* \"#utility.yul\":3524:3577   */\n      tag_58\n      jump\t// in\n    tag_107:\n        /* \"#utility.yul\":3514:3577   */\n      swap3\n      pop\n        /* \"#utility.yul\":3469:3587   */\n      pop\n        /* \"#utility.yul\":3626:3629   */\n      0x80\n        /* \"#utility.yul\":3653:3706   */\n      tag_108\n        /* \"#utility.yul\":3698:3705   */\n      dup9\n        /* \"#utility.yul\":3689:3695   */\n      dup3\n        /* \"#utility.yul\":3678:3687   */\n      dup10\n        /* \"#utility.yul\":3674:3696   */\n      add\n        /* \"#utility.yul\":3653:3706   */\n      tag_58\n      jump\t// in\n    tag_108:\n        /* \"#utility.yul\":3643:3706   */\n      swap2\n      pop\n        /* \"#utility.yul\":3597:3716   */\n      pop\n        /* \"#utility.yul\":2812:3723   */\n      swap3\n      swap6\n      pop\n      swap3\n      swap6\n      swap1\n      swap4\n      pop\n      jump\t// out\n        /* \"#utility.yul\":3729:3847   */\n    tag_109:\n        /* \"#utility.yul\":3816:3840   */\n      tag_111\n        /* \"#utility.yul\":3834:3839   */\n      dup2\n        /* \"#utility.yul\":3816:3840   */\n      tag_112\n      jump\t// in\n    tag_111:\n        /* \"#utility.yul\":3811:3814   */\n      dup3\n        /* \"#utility.yul\":3804:3841   */\n      mstore\n        /* \"#utility.yul\":3729:3847   */\n      pop\n      pop\n      jump\t// out\n        /* \"#utility.yul\":3853:3962   */\n    tag_113:\n        /* \"#utility.yul\":3934:3955   */\n      tag_115\n        /* \"#utility.yul\":3949:3954   */\n      dup2\n        /* \"#utility.yul\":3934:3955   */\n      tag_116\n      jump\t// in\n    tag_115:\n        /* \"#utility.yul\":3929:3932   */\n      dup3\n        /* \"#utility.yul\":3922:3956   */\n      mstore\n        /* \"#utility.yul\":3853:3962   */\n      pop\n      pop\n      jump\t// out\n        /* \"#utility.yul\":3968:4083   */\n    tag_117:\n        /* \"#utility.yul\":4053:4076   */\n      tag_119\n        /* \"#utility.yul\":4070:4075   */\n      dup2\n        /* \"#utility.yul\":4053:4076   */\n      tag_120\n      jump\t// in\n    tag_119:\n        /* \"#utility.yul\":4048:4051   */\n      dup3\n        /* \"#utility.yul\":4041:4077   */\n      mstore\n        /* \"#utility.yul\":3968:4083   */\n      pop\n      pop\n      jump\t// out\n        /* \"#utility.yul\":4111:4412   */\n    tag_121:\n        /* \"#utility.yul\":4207:4210   */\n      0x00\n        /* \"#utility.yul\":4228:4298   */\n      tag_123\n        /* \"#utility.yul\":4291:4297   */\n      dup4\n        /* \"#utility.yul\":4286:4289   */\n      dup6\n        /* \"#utility.yul\":4228:4298   */\n      tag_124\n      jump\t// in\n    tag_123:\n        /* \"#utility.yul\":4221:4298   */\n      swap4\n      pop\n        /* \"#utility.yul\":4308:4351   */\n      tag_125\n        /* \"#utility.yul\":4344:4350   */\n      dup4\n        /* \"#utility.yul\":4339:4342   */\n      dup6\n        /* \"#utility.yul\":4332:4337   */\n      dup5\n        /* \"#utility.yul\":4308:4351   */\n      tag_126\n      jump\t// in\n    tag_125:\n        /* \"#utility.yul\":4376:4405   */\n      tag_127\n        /* \"#utility.yul\":4398:4404   */\n      dup4\n        /* \"#utility.yul\":4376:4405   */\n      tag_128\n      jump\t// in\n    tag_127:\n        /* \"#utility.yul\":4371:4374   */\n      dup5\n        /* \"#utility.yul\":4367:4406   */\n      add\n        /* \"#utility.yul\":4360:4406   */\n      swap1\n      pop\n        /* \"#utility.yul\":4111:4412   */\n      swap4\n      swap3\n      pop\n      pop\n      pop\n      jump\t// out\n        /* \"#utility.yul\":4418:4781   */\n    tag_129:\n        /* \"#utility.yul\":4559:4562   */\n      0x00\n        /* \"#utility.yul\":4580:4645   */\n      tag_131\n        /* \"#utility.yul\":4643:4644   */\n      0x04\n        /* \"#utility.yul\":4638:4641   */\n      dup4\n        /* \"#utility.yul\":4580:4645   */\n      tag_124\n      jump\t// in\n    tag_131:\n        /* \"#utility.yul\":4573:4645   */\n      swap2\n      pop\n        /* \"#utility.yul\":4654:4747   */\n      tag_132\n        /* \"#utility.yul\":4743:4746   */\n      dup3\n        /* \"#utility.yul\":4654:4747   */\n      tag_133\n      jump\t// in\n    tag_132:\n        /* \"#utility.yul\":4772:4774   */\n      0x20\n        /* \"#utility.yul\":4767:4770   */\n      dup3\n        /* \"#utility.yul\":4763:4775   */\n      add\n        /* \"#utility.yul\":4756:4775   */\n      swap1\n      pop\n        /* \"#utility.yul\":4418:4781   */\n      swap2\n      swap1\n      pop\n      jump\t// out\n        /* \"#utility.yul\":4787:4905   */\n    tag_134:\n        /* \"#utility.yul\":4874:4898   */\n      tag_136\n        /* \"#utility.yul\":4892:4897   */\n      dup2\n        /* \"#utility.yul\":4874:4898   */\n      tag_137\n      jump\t// in\n    tag_136:\n        /* \"#utility.yul\":4869:4872   */\n      dup3\n        /* \"#utility.yul\":4862:4899   */\n      mstore\n        /* \"#utility.yul\":4787:4905   */\n      pop\n      pop\n      jump\t// out\n        /* \"#utility.yul\":4911:5133   */\n    tag_24:\n        /* \"#utility.yul\":5004:5008   */\n      0x00\n        /* \"#utility.yul\":5042:5044   */\n      0x20\n        /* \"#utility.yul\":5031:5040   */\n      dup3\n        /* \"#utility.yul\":5027:5045   */\n      add\n        /* \"#utility.yul\":5019:5045   */\n      swap1\n      pop\n        /* \"#utility.yul\":5055:5126   */\n      tag_139\n        /* \"#utility.yul\":5123:5124   */\n      0x00\n        /* \"#utility.yul\":5112:5121   */\n      dup4\n        /* \"#utility.yul\":5108:5125   */\n      add\n        /* \"#utility.yul\":5099:5105   */\n      dup5\n        /* \"#utility.yul\":5055:5126   */\n      tag_109\n      jump\t// in\n    tag_139:\n        /* \"#utility.yul\":4911:5133   */\n      swap3\n      swap2\n      pop\n      pop\n      jump\t// out\n        /* \"#utility.yul\":5139:6021   */\n    tag_53:\n        /* \"#utility.yul\":5400:5404   */\n      0x00\n        /* \"#utility.yul\":5438:5441   */\n      0xc0\n        /* \"#utility.yul\":5427:5436   */\n      dup3\n        /* \"#utility.yul\":5423:5442   */\n      add\n        /* \"#utility.yul\":5415:5442   */\n      swap1\n      pop\n        /* \"#utility.yul\":5452:5523   */\n      tag_141\n        /* \"#utility.yul\":5520:5521   */\n      0x00\n        /* \"#utility.yul\":5509:5518   */\n      dup4\n        /* \"#utility.yul\":5505:5522   */\n      add\n        /* \"#utility.yul\":5496:5502   */\n      dup11\n        /* \"#utility.yul\":5452:5523   */\n      tag_109\n      jump\t// in\n    tag_141:\n        /* \"#utility.yul\":5533:5605   */\n      tag_142\n        /* \"#utility.yul\":5601:5603   */\n      0x20\n        /* \"#utility.yul\":5590:5599   */\n      dup4\n        /* \"#utility.yul\":5586:5604   */\n      add\n        /* \"#utility.yul\":5577:5583   */\n      dup10\n        /* \"#utility.yul\":5533:5605   */\n      tag_109\n      jump\t// in\n    tag_142:\n        /* \"#utility.yul\":5615:5687   */\n      tag_143\n        /* \"#utility.yul\":5683:5685   */\n      0x40\n        /* \"#utility.yul\":5672:5681   */\n      dup4\n        /* \"#utility.yul\":5668:5686   */\n      add\n        /* \"#utility.yul\":5659:5665   */\n      dup9\n        /* \"#utility.yul\":5615:5687   */\n      tag_134\n      jump\t// in\n    tag_143:\n        /* \"#utility.yul\":5697:5769   */\n      tag_144\n        /* \"#utility.yul\":5765:5767   */\n      0x60\n        /* \"#utility.yul\":5754:5763   */\n      dup4\n        /* \"#utility.yul\":5750:5768   */\n      add\n        /* \"#utility.yul\":5741:5747   */\n      dup8\n        /* \"#utility.yul\":5697:5769   */\n      tag_134\n      jump\t// in\n    tag_144:\n        /* \"#utility.yul\":5817:5826   */\n      dup2\n        /* \"#utility.yul\":5811:5815   */\n      dup2\n        /* \"#utility.yul\":5807:5827   */\n      sub\n        /* \"#utility.yul\":5801:5804   */\n      0x80\n        /* \"#utility.yul\":5790:5799   */\n      dup4\n        /* \"#utility.yul\":5786:5805   */\n      add\n        /* \"#utility.yul\":5779:5828   */\n      mstore\n        /* \"#utility.yul\":5845:5931   */\n      tag_145\n        /* \"#utility.yul\":5926:5930   */\n      dup2\n        /* \"#utility.yul\":5917:5923   */\n      dup6\n        /* \"#utility.yul\":5909:5915   */\n      dup8\n        /* \"#utility.yul\":5845:5931   */\n      tag_121\n      jump\t// in\n    tag_145:\n        /* \"#utility.yul\":5837:5931   */\n      swap1\n      pop\n        /* \"#utility.yul\":5941:6014   */\n      tag_146\n        /* \"#utility.yul\":6009:6012   */\n      0xa0\n        /* \"#utility.yul\":5998:6007   */\n      dup4\n        /* \"#utility.yul\":5994:6013   */\n      add\n        /* \"#utility.yul\":5985:5991   */\n      dup5\n        /* \"#utility.yul\":5941:6014   */\n      tag_134\n      jump\t// in\n    tag_146:\n        /* \"#utility.yul\":5139:6021   */\n      swap9\n      swap8\n      pop\n      pop\n      pop\n      pop\n      pop\n      pop\n      pop\n      pop\n      jump\t// out\n        /* \"#utility.yul\":6027:6886   */\n    tag_41:\n        /* \"#utility.yul\":6304:6308   */\n      0x00\n        /* \"#utility.yul\":6342:6345   */\n      0xa0\n        /* \"#utility.yul\":6331:6340   */\n      dup3\n        /* \"#utility.yul\":6327:6346   */\n      add\n        /* \"#utility.yul\":6319:6346   */\n      swap1\n      pop\n        /* \"#utility.yul\":6356:6427   */\n      tag_148\n        /* \"#utility.yul\":6424:6425   */\n      0x00\n        /* \"#utility.yul\":6413:6422   */\n      dup4\n        /* \"#utility.yul\":6409:6426   */\n      add\n        /* \"#utility.yul\":6400:6406   */\n      dup8\n        /* \"#utility.yul\":6356:6427   */\n      tag_109\n      jump\t// in\n    tag_148:\n        /* \"#utility.yul\":6437:6509   */\n      tag_149\n        /* \"#utility.yul\":6505:6507   */\n      0x20\n        /* \"#utility.yul\":6494:6503   */\n      dup4\n        /* \"#utility.yul\":6490:6508   */\n      add\n        /* \"#utility.yul\":6481:6487   */\n      dup7\n        /* \"#utility.yul\":6437:6509   */\n      tag_109\n      jump\t// in\n    tag_149:\n        /* \"#utility.yul\":6519:6591   */\n      tag_150\n        /* \"#utility.yul\":6587:6589   */\n      0x40\n        /* \"#utility.yul\":6576:6585   */\n      dup4\n        /* \"#utility.yul\":6572:6590   */\n      add\n        /* \"#utility.yul\":6563:6569   */\n      dup6\n        /* \"#utility.yul\":6519:6591   */\n      tag_134\n      jump\t// in\n    tag_150:\n        /* \"#utility.yul\":6601:6673   */\n      tag_151\n        /* \"#utility.yul\":6669:6671   */\n      0x60\n        /* \"#utility.yul\":6658:6667   */\n      dup4\n        /* \"#utility.yul\":6654:6672   */\n      add\n        /* \"#utility.yul\":6645:6651   */\n      dup5\n        /* \"#utility.yul\":6601:6673   */\n      tag_134\n      jump\t// in\n    tag_151:\n        /* \"#utility.yul\":6721:6730   */\n      dup2\n        /* \"#utility.yul\":6715:6719   */\n      dup2\n        /* \"#utility.yul\":6711:6731   */\n      sub\n        /* \"#utility.yul\":6705:6708   */\n      0x80\n        /* \"#utility.yul\":6694:6703   */\n      dup4\n        /* \"#utility.yul\":6690:6709   */\n      add\n        /* \"#utility.yul\":6683:6732   */\n      mstore\n        /* \"#utility.yul\":6749:6879   */\n      tag_152\n        /* \"#utility.yul\":6874:6878   */\n      dup2\n        /* \"#utility.yul\":6749:6879   */\n      tag_129\n      jump\t// in\n    tag_152:\n        /* \"#utility.yul\":6741:6879   */\n      swap1\n      pop\n        /* \"#utility.yul\":6027:6886   */\n      swap6\n      swap5\n      pop\n      pop\n      pop\n      pop\n      pop\n      jump\t// out\n        /* \"#utility.yul\":6892:7224   */\n    tag_34:\n        /* \"#utility.yul\":7013:7017   */\n      0x00\n        /* \"#utility.yul\":7051:7053   */\n      0x40\n        /* \"#utility.yul\":7040:7049   */\n      dup3\n        /* \"#utility.yul\":7036:7054   */\n      add\n        /* \"#utility.yul\":7028:7054   */\n      swap1\n      pop\n        /* \"#utility.yul\":7064:7135   */\n      tag_154\n        /* \"#utility.yul\":7132:7133   */\n      0x00\n        /* \"#utility.yul\":7121:7130   */\n      dup4\n        /* \"#utility.yul\":7117:7134   */\n      add\n        /* \"#utility.yul\":7108:7114   */\n      dup6\n        /* \"#utility.yul\":7064:7135   */\n      tag_109\n      jump\t// in\n    tag_154:\n        /* \"#utility.yul\":7145:7217   */\n      tag_155\n        /* \"#utility.yul\":7213:7215   */\n      0x20\n        /* \"#utility.yul\":7202:7211   */\n      dup4\n        /* \"#utility.yul\":7198:7216   */\n      add\n        /* \"#utility.yul\":7189:7195   */\n      dup5\n        /* \"#utility.yul\":7145:7217   */\n      tag_134\n      jump\t// in\n    tag_155:\n        /* \"#utility.yul\":6892:7224   */\n      swap4\n      swap3\n      pop\n      pop\n      pop\n      jump\t// out\n        /* \"#utility.yul\":7230:7440   */\n    tag_11:\n        /* \"#utility.yul\":7317:7321   */\n      0x00\n        /* \"#utility.yul\":7355:7357   */\n      0x20\n        /* \"#utility.yul\":7344:7353   */\n      dup3\n        /* \"#utility.yul\":7340:7358   */\n      add\n        /* \"#utility.yul\":7332:7358   */\n      swap1\n      pop\n        /* \"#utility.yul\":7368:7433   */\n      tag_157\n        /* \"#utility.yul\":7430:7431   */\n      0x00\n        /* \"#utility.yul\":7419:7428   */\n      dup4\n        /* \"#utility.yul\":7415:7432   */\n      add\n        /* \"#utility.yul\":7406:7412   */\n      dup5\n        /* \"#utility.yul\":7368:7433   */\n      tag_113\n      jump\t// in\n    tag_157:\n        /* \"#utility.yul\":7230:7440   */\n      swap3\n      swap2\n      pop\n      pop\n      jump\t// out\n        /* \"#utility.yul\":7446:7664   */\n    tag_31:\n        /* \"#utility.yul\":7537:7541   */\n      0x00\n        /* \"#utility.yul\":7575:7577   */\n      0x20\n        /* \"#utility.yul\":7564:7573   */\n      dup3\n        /* \"#utility.yul\":7560:7578   */\n      add\n        /* \"#utility.yul\":7552:7578   */\n      swap1\n      pop\n        /* \"#utility.yul\":7588:7657   */\n      tag_159\n        /* \"#utility.yul\":7654:7655   */\n      0x00\n        /* \"#utility.yul\":7643:7652   */\n      dup4\n        /* \"#utility.yul\":7639:7656   */\n      add\n        /* \"#utility.yul\":7630:7636   */\n      dup5\n        /* \"#utility.yul\":7588:7657   */\n      tag_117\n      jump\t// in\n    tag_159:\n        /* \"#utility.yul\":7446:7664   */\n      swap3\n      swap2\n      pop\n      pop\n      jump\t// out\n        /* \"#utility.yul\":7670:7892   */\n    tag_18:\n        /* \"#utility.yul\":7763:7767   */\n      0x00\n        /* \"#utility.yul\":7801:7803   */\n      0x20\n        /* \"#utility.yul\":7790:7799   */\n      dup3\n        /* \"#utility.yul\":7786:7804   */\n      add\n        /* \"#utility.yul\":7778:7804   */\n      swap1\n      pop\n        /* \"#utility.yul\":7814:7885   */\n      tag_161\n        /* \"#utility.yul\":7882:7883   */\n      0x00\n        /* \"#utility.yul\":7871:7880   */\n      dup4\n        /* \"#utility.yul\":7867:7884   */\n      add\n        /* \"#utility.yul\":7858:7864   */\n      dup5\n        /* \"#utility.yul\":7814:7885   */\n      tag_134\n      jump\t// in\n    tag_161:\n        /* \"#utility.yul\":7670:7892   */\n      swap3\n      swap2\n      pop\n      pop\n      jump\t// out\n        /* \"#utility.yul\":7979:8147   */\n    tag_124:\n        /* \"#utility.yul\":8062:8073   */\n      0x00\n        /* \"#utility.yul\":8096:8102   */\n      dup3\n        /* \"#utility.yul\":8091:8094   */\n      dup3\n        /* \"#utility.yul\":8084:8103   */\n      mstore\n        /* \"#utility.yul\":8136:8140   */\n      0x20\n        /* \"#utility.yul\":8131:8134   */\n      dup3\n        /* \"#utility.yul\":8127:8141   */\n      add\n        /* \"#utility.yul\":8112:8141   */\n      swap1\n      pop\n        /* \"#utility.yul\":7979:8147   */\n      swap3\n      swap2\n      pop\n      pop\n      jump\t// out\n        /* \"#utility.yul\":8153:8458   */\n    tag_51:\n        /* \"#utility.yul\":8193:8196   */\n      0x00\n        /* \"#utility.yul\":8212:8232   */\n      tag_166\n        /* \"#utility.yul\":8230:8231   */\n      dup3\n        /* \"#utility.yul\":8212:8232   */\n      tag_137\n      jump\t// in\n    tag_166:\n        /* \"#utility.yul\":8207:8232   */\n      swap2\n      pop\n        /* \"#utility.yul\":8246:8266   */\n      tag_167\n        /* \"#utility.yul\":8264:8265   */\n      dup4\n        /* \"#utility.yul\":8246:8266   */\n      tag_137\n      jump\t// in\n    tag_167:\n        /* \"#utility.yul\":8241:8266   */\n      swap3\n      pop\n        /* \"#utility.yul\":8400:8401   */\n      dup3\n        /* \"#utility.yul\":8332:8398   */\n      0xffffffffffffffffffffffffffffffffffffffffffffffffffffffffffffffff\n        /* \"#utility.yul\":8328:8402   */\n      sub\n        /* \"#utility.yul\":8325:8326   */\n      dup3\n        /* \"#utility.yul\":8322:8403   */\n      gt\n        /* \"#utility.yul\":8319:8426   */\n      iszero\n      tag_168\n      jumpi\n        /* \"#utility.yul\":8406:8424   */\n      tag_169\n      tag_170\n      jump\t// in\n    tag_169:\n        /* \"#utility.yul\":8319:8426   */\n    tag_168:\n        /* \"#utility.yul\":8450:8451   */\n      dup3\n        /* \"#utility.yul\":8447:8448   */\n      dup3\n        /* \"#utility.yul\":8443:8452   */\n      add\n        /* \"#utility.yul\":8436:8452   */\n      swap1\n      pop\n        /* \"#utility.yul\":8153:8458   */\n      swap3\n      swap2\n      pop\n      pop\n      jump\t// out\n        /* \"#utility.yul\":8464:8655   */\n    tag_56:\n        /* \"#utility.yul\":8504:8508   */\n      0x00\n        /* \"#utility.yul\":8524:8544   */\n      tag_172\n        /* \"#utility.yul\":8542:8543   */\n      dup3\n        /* \"#utility.yul\":8524:8544   */\n      tag_137\n      jump\t// in\n    tag_172:\n        /* \"#utility.yul\":8519:8544   */\n      swap2\n      pop\n        /* \"#utility.yul\":8558:8578   */\n      tag_173\n        /* \"#utility.yul\":8576:8577   */\n      dup4\n        /* \"#utility.yul\":8558:8578   */\n      tag_137\n      jump\t// in\n    tag_173:\n        /* \"#utility.yul\":8553:8578   */\n      swap3\n      pop\n        /* \"#utility.yul\":8597:8598   */\n      dup3\n        /* \"#utility.yul\":8594:8595   */\n      dup3\n        /* \"#utility.yul\":8591:8599   */\n      lt\n        /* \"#utility.yul\":8588:8622   */\n      iszero\n      tag_174\n      jumpi\n        /* \"#utility.yul\":8602:8620   */\n      tag_175\n      tag_170\n      jump\t// in\n    tag_175:\n        /* \"#utility.yul\":8588:8622   */\n    tag_174:\n        /* \"#utility.yul\":8647:8648   */\n      dup3\n        /* \"#utility.yul\":8644:8645   */\n      dup3\n        /* \"#utility.yul\":8640:8649   */\n      sub\n        /* \"#utility.yul\":8632:8649   */\n      swap1\n      pop\n        /* \"#utility.yul\":8464:8655   */\n      swap3\n      swap2\n      pop\n      pop\n      jump\t// out\n        /* \"#utility.yul\":8661:8757   */\n    tag_112:\n        /* \"#utility.yul\":8698:8705   */\n      0x00\n        /* \"#utility.yul\":8727:8751   */\n      tag_177\n        /* \"#utility.yul\":8745:8750   */\n      dup3\n        /* \"#utility.yul\":8727:8751   */\n      tag_178\n      jump\t// in\n    tag_177:\n        /* \"#utility.yul\":8716:8751   */\n      swap1\n      pop\n        /* \"#utility.yul\":8661:8757   */\n      swap2\n      swap1\n      pop\n      jump\t// out\n        /* \"#utility.yul\":8763:8853   */\n    tag_116:\n        /* \"#utility.yul\":8797:8804   */\n      0x00\n        /* \"#utility.yul\":8840:8845   */\n      dup2\n        /* \"#utility.yul\":8833:8846   */\n      iszero\n        /* \"#utility.yul\":8826:8847   */\n      iszero\n        /* \"#utility.yul\":8815:8847   */\n      swap1\n      pop\n        /* \"#utility.yul\":8763:8853   */\n      swap2\n      swap1\n      pop\n      jump\t// out\n        /* \"#utility.yul\":8859:9008   */\n    tag_120:\n        /* \"#utility.yul\":8895:8902   */\n      0x00\n        /* \"#utility.yul\":8935:9001   */\n      0xffffffff00000000000000000000000000000000000000000000000000000000\n        /* \"#utility.yul\":8928:8933   */\n      dup3\n        /* \"#utility.yul\":8924:9002   */\n      and\n        /* \"#utility.yul\":8913:9002   */\n      swap1\n      pop\n        /* \"#utility.yul\":8859:9008   */\n      swap2\n      swap1\n      pop\n      jump\t// out\n        /* \"#utility.yul\":9014:9140   */\n    tag_178:\n        /* \"#utility.yul\":9051:9058   */\n      0x00\n        /* \"#utility.yul\":9091:9133   */\n      0xffffffffffffffffffffffffffffffffffffffff\n        /* \"#utility.yul\":9084:9089   */\n      dup3\n        /* \"#utility.yul\":9080:9134   */\n      and\n        /* \"#utility.yul\":9069:9134   */\n      swap1\n      pop\n        /* \"#utility.yul\":9014:9140   */\n      swap2\n      swap1\n      pop\n      jump\t// out\n        /* \"#utility.yul\":9146:9223   */\n    tag_137:\n        /* \"#utility.yul\":9183:9190   */\n      0x00\n        /* \"#utility.yul\":9212:9217   */\n      dup2\n        /* \"#utility.yul\":9201:9217   */\n      swap1\n      pop\n        /* \"#utility.yul\":9146:9223   */\n      swap2\n      swap1\n      pop\n      jump\t// out\n        /* \"#utility.yul\":9229:9383   */\n    tag_126:\n        /* \"#utility.yul\":9313:9319   */\n      dup3\n        /* \"#utility.yul\":9308:9311   */\n      dup2\n        /* \"#utility.yul\":9303:9306   */\n      dup4\n        /* \"#utility.yul\":9290:9320   */\n      calldatacopy\n        /* \"#utility.yul\":9375:9376   */\n      0x00\n        /* \"#utility.yul\":9366:9372   */\n      dup4\n        /* \"#utility.yul\":9361:9364   */\n      dup4\n        /* \"#utility.yul\":9357:9373   */\n      add\n        /* \"#utility.yul\":9350:9377   */\n      mstore\n        /* \"#utility.yul\":9229:9383   */\n      pop\n      pop\n      pop\n      jump\t// out\n        /* \"#utility.yul\":9389:9569   */\n    tag_170:\n        /* \"#utility.yul\":9437:9514   */\n      0x4e487b7100000000000000000000000000000000000000000000000000000000\n        /* \"#utility.yul\":9434:9435   */\n      0x00\n        /* \"#utility.yul\":9427:9515   */\n      mstore\n        /* \"#utility.yul\":9534:9538   */\n      0x11\n        /* \"#utility.yul\":9531:9532   */\n      0x04\n        /* \"#utility.yul\":9524:9539   */\n      mstore\n        /* \"#utility.yul\":9558:9562   */\n      0x24\n        /* \"#utility.yul\":9555:9556   */\n      0x00\n        /* \"#utility.yul\":9548:9563   */\n      revert\n        /* \"#utility.yul\":9575:9692   */\n    tag_73:\n        /* \"#utility.yul\":9684:9685   */\n      0x00\n        /* \"#utility.yul\":9681:9682   */\n      dup1\n        /* \"#utility.yul\":9674:9686   */\n      revert\n        /* \"#utility.yul\":9698:9815   */\n    tag_70:\n        /* \"#utility.yul\":9807:9808   */\n      0x00\n        /* \"#utility.yul\":9804:9805   */\n      dup1\n        /* \"#utility.yul\":9797:9809   */\n      revert\n        /* \"#utility.yul\":9821:9938   */\n    tag_76:\n        /* \"#utility.yul\":9930:9931   */\n      0x00\n        /* \"#utility.yul\":9927:9928   */\n      dup1\n        /* \"#utility.yul\":9920:9932   */\n      revert\n        /* \"#utility.yul\":9944:10061   */\n    tag_91:\n        /* \"#utility.yul\":10053:10054   */\n      0x00\n        /* \"#utility.yul\":10050:10051   */\n      dup1\n        /* \"#utility.yul\":10043:10055   */\n      revert\n        /* \"#utility.yul\":10067:10184   */\n    tag_84:\n        /* \"#utility.yul\":10176:10177   */\n      0x00\n        /* \"#utility.yul\":10173:10174   */\n      dup1\n        /* \"#utility.yul\":10166:10178   */\n      revert\n        /* \"#utility.yul\":10190:10292   */\n    tag_128:\n        /* \"#utility.yul\":10231:10237   */\n      0x00\n        /* \"#utility.yul\":10282:10284   */\n      0x1f\n        /* \"#utility.yul\":10278:10285   */\n      not\n        /* \"#utility.yul\":10273:10275   */\n      0x1f\n        /* \"#utility.yul\":10266:10271   */\n      dup4\n        /* \"#utility.yul\":10262:10276   */\n      add\n        /* \"#utility.yul\":10258:10286   */\n      and\n        /* \"#utility.yul\":10248:10286   */\n      swap1\n      pop\n        /* \"#utility.yul\":10190:10292   */\n      swap2\n      swap1\n      pop\n      jump\t// out\n        /* \"#utility.yul\":10298:10452   */\n    tag_133:\n        /* \"#utility.yul\":10438:10444   */\n      0x3078303000000000000000000000000000000000000000000000000000000000\n        /* \"#utility.yul\":10434:10435   */\n      0x00\n        /* \"#utility.yul\":10426:10432   */\n      dup3\n        /* \"#utility.yul\":10422:10436   */\n      add\n        /* \"#utility.yul\":10415:10445   */\n      mstore\n        /* \"#utility.yul\":10298:10452   */\n      pop\n      jump\t// out\n        /* \"#utility.yul\":10458:10580   */\n    tag_61:\n        /* \"#utility.yul\":10531:10555   */\n      tag_193\n        /* \"#utility.yul\":10549:10554   */\n      dup2\n        /* \"#utility.yul\":10531:10555   */\n      tag_112\n      jump\t// in\n    tag_193:\n        /* \"#utility.yul\":10524:10529   */\n      dup2\n        /* \"#utility.yul\":10521:10556   */\n      eq\n        /* \"#utility.yul\":10511:10574   */\n      tag_194\n      jumpi\n        /* \"#utility.yul\":10570:10571   */\n      0x00\n        /* \"#utility.yul\":10567:10568   */\n      dup1\n        /* \"#utility.yul\":10560:10572   */\n      revert\n        /* \"#utility.yul\":10511:10574   */\n    tag_194:\n        /* \"#utility.yul\":10458:10580   */\n      pop\n      jump\t// out\n        /* \"#utility.yul\":10586:10702   */\n    tag_65:\n        /* \"#utility.yul\":10656:10677   */\n      tag_196\n        /* \"#utility.yul\":10671:10676   */\n      dup2\n        /* \"#utility.yul\":10656:10677   */\n      tag_116\n      jump\t// in\n    tag_196:\n        /* \"#utility.yul\":10649:10654   */\n      dup2\n        /* \"#utility.yul\":10646:10678   */\n      eq\n        /* \"#utility.yul\":10636:10696   */\n      tag_197\n      jumpi\n        /* \"#utility.yul\":10692:10693   */\n      0x00\n        /* \"#utility.yul\":10689:10690   */\n      dup1\n        /* \"#utility.yul\":10682:10694   */\n      revert\n        /* \"#utility.yul\":10636:10696   */\n    tag_197:\n        /* \"#utility.yul\":10586:10702   */\n      pop\n      jump\t// out\n        /* \"#utility.yul\":10708:10830   */\n    tag_80:\n        /* \"#utility.yul\":10781:10805   */\n      tag_199\n        /* \"#utility.yul\":10799:10804   */\n      dup2\n        /* \"#utility.yul\":10781:10805   */\n      tag_137\n      jump\t// in\n    tag_199:\n        /* \"#utility.yul\":10774:10779   */\n      dup2\n        /* \"#utility.yul\":10771:10806   */\n      eq\n        /* \"#utility.yul\":10761:10824   */\n      tag_200\n      jumpi\n        /* \"#utility.yul\":10820:10821   */\n      0x00\n        /* \"#utility.yul\":10817:10818   */\n      dup1\n        /* \"#utility.yul\":10810:10822   */\n      revert\n        /* \"#utility.yul\":10761:10824   */\n    tag_200:\n        /* \"#utility.yul\":10708:10830   */\n      pop\n      jump\t// out\n\n    auxdata: 0xa2646970667358221220a2d8b88c5c0749189dfbf831a32192e9302ded4a513d41995e778d62689f083964736f6c63430008070033\n}\n",
				"bytecode": {
					"linkReferences": {},
					"object": "608060405234801561001057600080fd5b50610a03806100206000396000f3fe60806040526004361061003f5760003560e01c80636ec0feda146100445780638b0d025814610074578063aacdfe6f146100b1578063f23a6e61146100ee575b600080fd5b61005e6004803603810190610059919061058a565b61012b565b60405161006b9190610797565b60405180910390f35b34801561008057600080fd5b5061009b6004803603810190610096919061055d565b610275565b6040516100a891906107cd565b60405180910390f35b3480156100bd57600080fd5b506100d860048036038101906100d3919061055d565b610292565b6040516100e59190610691565b60405180910390f35b3480156100fa57600080fd5b5061011560048036038101906101109190610496565b6102ce565b60405161012291906107b2565b60405180910390f35b60008173ffffffffffffffffffffffffffffffffffffffff1663a9059cbb60008089815260200190815260200160002060009054906101000a900473ffffffffffffffffffffffffffffffffffffffff16866040518363ffffffff1660e01b815260040161019a92919061076e565b602060405180830381600087803b1580156101b457600080fd5b505af11580156101c8573d6000803e3d6000fd5b505050506040513d601f19601f820116820180604052508101906101ec9190610530565b508273ffffffffffffffffffffffffffffffffffffffff1663f242432a303389896040518563ffffffff1660e01b815260040161022c9493929190610716565b600060405180830381600087803b15801561024657600080fd5b505af115801561025a573d6000803e3d6000fd5b5050505061026886866103c7565b6001905095945050505050565b600060016000838152602001908152602001600020549050919050565b600080600083815260200190815260200160002060009054906101000a900473ffffffffffffffffffffffffffffffffffffffff169050919050565b60008560008087815260200190815260200160002060006101000a81548173ffffffffffffffffffffffffffffffffffffffff021916908373ffffffffffffffffffffffffffffffffffffffff16021790555083600160008781526020019081526020016000205461034091906107f9565b60016000878152602001908152602001600020819055507f20dfa9f79060c8c4d7fe892c97c71bcf6e3b63d1dcf66fea7aefc0211628cf298787878787875a60405161039297969594939291906106ac565b60405180910390a17ff23a6e612e1ff4830e658fe43f4e3cb4a5f8170bd5d9e69fb5d7a7fa9e4fdf9790509695505050505050565b8060016000848152602001908152602001600020546103e6919061084f565b60016000848152602001908152602001600020819055505050565b60008135905061041081610988565b92915050565b6000815190506104258161099f565b92915050565b60008083601f8401126104415761044061093a565b5b8235905067ffffffffffffffff81111561045e5761045d610935565b5b60208301915083600182028301111561047a5761047961093f565b5b9250929050565b600081359050610490816109b6565b92915050565b60008060008060008060a087890312156104b3576104b2610949565b5b60006104c189828a01610401565b96505060206104d289828a01610401565b95505060406104e389828a01610481565b94505060606104f489828a01610481565b935050608087013567ffffffffffffffff81111561051557610514610944565b5b61052189828a0161042b565b92509250509295509295509295565b60006020828403121561054657610545610949565b5b600061055484828501610416565b91505092915050565b60006020828403121561057357610572610949565b5b600061058184828501610481565b91505092915050565b600080600080600060a086880312156105a6576105a5610949565b5b60006105b488828901610481565b95505060206105c588828901610481565b94505060406105d688828901610481565b93505060606105e788828901610401565b92505060806105f888828901610401565b9150509295509295909350565b61060e81610883565b82525050565b61061d81610895565b82525050565b61062c816108a1565b82525050565b600061063e83856107e8565b935061064b8385846108f7565b6106548361094e565b840190509392505050565b600061066c6004836107e8565b91506106778261095f565b602082019050919050565b61068b816108ed565b82525050565b60006020820190506106a66000830184610605565b92915050565b600060c0820190506106c1600083018a610605565b6106ce6020830189610605565b6106db6040830188610682565b6106e86060830187610682565b81810360808301526106fb818587610632565b905061070a60a0830184610682565b98975050505050505050565b600060a08201905061072b6000830187610605565b6107386020830186610605565b6107456040830185610682565b6107526060830184610682565b81810360808301526107638161065f565b905095945050505050565b60006040820190506107836000830185610605565b6107906020830184610682565b9392505050565b60006020820190506107ac6000830184610614565b92915050565b60006020820190506107c76000830184610623565b92915050565b60006020820190506107e26000830184610682565b92915050565b600082825260208201905092915050565b6000610804826108ed565b915061080f836108ed565b9250827fffffffffffffffffffffffffffffffffffffffffffffffffffffffffffffffff0382111561084457610843610906565b5b828201905092915050565b600061085a826108ed565b9150610865836108ed565b92508282101561087857610877610906565b5b828203905092915050565b600061088e826108cd565b9050919050565b60008115159050919050565b60007fffffffff0000000000000000000000000000000000000000000000000000000082169050919050565b600073ffffffffffffffffffffffffffffffffffffffff82169050919050565b6000819050919050565b82818337600083830152505050565b7f4e487b7100000000000000000000000000000000000000000000000000000000600052601160045260246000fd5b600080fd5b600080fd5b600080fd5b600080fd5b600080fd5b6000601f19601f8301169050919050565b7f3078303000000000000000000000000000000000000000000000000000000000600082015250565b61099181610883565b811461099c57600080fd5b50565b6109a881610895565b81146109b357600080fd5b50565b6109bf816108ed565b81146109ca57600080fd5b5056fea2646970667358221220a2d8b88c5c0749189dfbf831a32192e9302ded4a513d41995e778d62689f083964736f6c63430008070033",
					"opcodes": "PUSH1 0x80 PUSH1 0x40 MSTORE CALLVALUE DUP1 ISZERO PUSH2 0x10 JUMPI PUSH1 0x0 DUP1 REVERT JUMPDEST POP PUSH2 0xA03 DUP1 PUSH2 0x20 PUSH1 0x0 CODECOPY PUSH1 0x0 RETURN INVALID PUSH1 0x80 PUSH1 0x40 MSTORE PUSH1 0x4 CALLDATASIZE LT PUSH2 0x3F JUMPI PUSH1 0x0 CALLDATALOAD PUSH1 0xE0 SHR DUP1 PUSH4 0x6EC0FEDA EQ PUSH2 0x44 JUMPI DUP1 PUSH4 0x8B0D0258 EQ PUSH2 0x74 JUMPI DUP1 PUSH4 0xAACDFE6F EQ PUSH2 0xB1 JUMPI DUP1 PUSH4 0xF23A6E61 EQ PUSH2 0xEE JUMPI JUMPDEST PUSH1 0x0 DUP1 REVERT JUMPDEST PUSH2 0x5E PUSH1 0x4 DUP1 CALLDATASIZE SUB DUP2 ADD SWAP1 PUSH2 0x59 SWAP2 SWAP1 PUSH2 0x58A JUMP JUMPDEST PUSH2 0x12B JUMP JUMPDEST PUSH1 0x40 MLOAD PUSH2 0x6B SWAP2 SWAP1 PUSH2 0x797 JUMP JUMPDEST PUSH1 0x40 MLOAD DUP1 SWAP2 SUB SWAP1 RETURN JUMPDEST CALLVALUE DUP1 ISZERO PUSH2 0x80 JUMPI PUSH1 0x0 DUP1 REVERT JUMPDEST POP PUSH2 0x9B PUSH1 0x4 DUP1 CALLDATASIZE SUB DUP2 ADD SWAP1 PUSH2 0x96 SWAP2 SWAP1 PUSH2 0x55D JUMP JUMPDEST PUSH2 0x275 JUMP JUMPDEST PUSH1 0x40 MLOAD PUSH2 0xA8 SWAP2 SWAP1 PUSH2 0x7CD JUMP JUMPDEST PUSH1 0x40 MLOAD DUP1 SWAP2 SUB SWAP1 RETURN JUMPDEST CALLVALUE DUP1 ISZERO PUSH2 0xBD JUMPI PUSH1 0x0 DUP1 REVERT JUMPDEST POP PUSH2 0xD8 PUSH1 0x4 DUP1 CALLDATASIZE SUB DUP2 ADD SWAP1 PUSH2 0xD3 SWAP2 SWAP1 PUSH2 0x55D JUMP JUMPDEST PUSH2 0x292 JUMP JUMPDEST PUSH1 0x40 MLOAD PUSH2 0xE5 SWAP2 SWAP1 PUSH2 0x691 JUMP JUMPDEST PUSH1 0x40 MLOAD DUP1 SWAP2 SUB SWAP1 RETURN JUMPDEST CALLVALUE DUP1 ISZERO PUSH2 0xFA JUMPI PUSH1 0x0 DUP1 REVERT JUMPDEST POP PUSH2 0x115 PUSH1 0x4 DUP1 CALLDATASIZE SUB DUP2 ADD SWAP1 PUSH2 0x110 SWAP2 SWAP1 PUSH2 0x496 JUMP JUMPDEST PUSH2 0x2CE JUMP JUMPDEST PUSH1 0x40 MLOAD PUSH2 0x122 SWAP2 SWAP1 PUSH2 0x7B2 JUMP JUMPDEST PUSH1 0x40 MLOAD DUP1 SWAP2 SUB SWAP1 RETURN JUMPDEST PUSH1 0x0 DUP2 PUSH20 0xFFFFFFFFFFFFFFFFFFFFFFFFFFFFFFFFFFFFFFFF AND PUSH4 0xA9059CBB PUSH1 0x0 DUP1 DUP10 DUP2 MSTORE PUSH1 0x20 ADD SWAP1 DUP2 MSTORE PUSH1 0x20 ADD PUSH1 0x0 KECCAK256 PUSH1 0x0 SWAP1 SLOAD SWAP1 PUSH2 0x100 EXP SWAP1 DIV PUSH20 0xFFFFFFFFFFFFFFFFFFFFFFFFFFFFFFFFFFFFFFFF AND DUP7 PUSH1 0x40 MLOAD DUP4 PUSH4 0xFFFFFFFF AND PUSH1 0xE0 SHL DUP2 MSTORE PUSH1 0x4 ADD PUSH2 0x19A SWAP3 SWAP2 SWAP1 PUSH2 0x76E JUMP JUMPDEST PUSH1 0x20 PUSH1 0x40 MLOAD DUP1 DUP4 SUB DUP2 PUSH1 0x0 DUP8 DUP1 EXTCODESIZE ISZERO DUP1 ISZERO PUSH2 0x1B4 JUMPI PUSH1 0x0 DUP1 REVERT JUMPDEST POP GAS CALL ISZERO DUP1 ISZERO PUSH2 0x1C8 JUMPI RETURNDATASIZE PUSH1 0x0 DUP1 RETURNDATACOPY RETURNDATASIZE PUSH1 0x0 REVERT JUMPDEST POP POP POP POP PUSH1 0x40 MLOAD RETURNDATASIZE PUSH1 0x1F NOT PUSH1 0x1F DUP3 ADD AND DUP3 ADD DUP1 PUSH1 0x40 MSTORE POP DUP2 ADD SWAP1 PUSH2 0x1EC SWAP2 SWAP1 PUSH2 0x530 JUMP JUMPDEST POP DUP3 PUSH20 0xFFFFFFFFFFFFFFFFFFFFFFFFFFFFFFFFFFFFFFFF AND PUSH4 0xF242432A ADDRESS CALLER DUP10 DUP10 PUSH1 0x40 MLOAD DUP6 PUSH4 0xFFFFFFFF AND PUSH1 0xE0 SHL DUP2 MSTORE PUSH1 0x4 ADD PUSH2 0x22C SWAP5 SWAP4 SWAP3 SWAP2 SWAP1 PUSH2 0x716 JUMP JUMPDEST PUSH1 0x0 PUSH1 0x40 MLOAD DUP1 DUP4 SUB DUP2 PUSH1 0x0 DUP8 DUP1 EXTCODESIZE ISZERO DUP1 ISZERO PUSH2 0x246 JUMPI PUSH1 0x0 DUP1 REVERT JUMPDEST POP GAS CALL ISZERO DUP1 ISZERO PUSH2 0x25A JUMPI RETURNDATASIZE PUSH1 0x0 DUP1 RETURNDATACOPY RETURNDATASIZE PUSH1 0x0 REVERT JUMPDEST POP POP POP POP PUSH2 0x268 DUP7 DUP7 PUSH2 0x3C7 JUMP JUMPDEST PUSH1 0x1 SWAP1 POP SWAP6 SWAP5 POP POP POP POP POP JUMP JUMPDEST PUSH1 0x0 PUSH1 0x1 PUSH1 0x0 DUP4 DUP2 MSTORE PUSH1 0x20 ADD SWAP1 DUP2 MSTORE PUSH1 0x20 ADD PUSH1 0x0 KECCAK256 SLOAD SWAP1 POP SWAP2 SWAP1 POP JUMP JUMPDEST PUSH1 0x0 DUP1 PUSH1 0x0 DUP4 DUP2 MSTORE PUSH1 0x20 ADD SWAP1 DUP2 MSTORE PUSH1 0x20 ADD PUSH1 0x0 KECCAK256 PUSH1 0x0 SWAP1 SLOAD SWAP1 PUSH2 0x100 EXP SWAP1 DIV PUSH20 0xFFFFFFFFFFFFFFFFFFFFFFFFFFFFFFFFFFFFFFFF AND SWAP1 POP SWAP2 SWAP1 POP JUMP JUMPDEST PUSH1 0x0 DUP6 PUSH1 0x0 DUP1 DUP8 DUP2 MSTORE PUSH1 0x20 ADD SWAP1 DUP2 MSTORE PUSH1 0x20 ADD PUSH1 0x0 KECCAK256 PUSH1 0x0 PUSH2 0x100 EXP DUP2 SLOAD DUP2 PUSH20 0xFFFFFFFFFFFFFFFFFFFFFFFFFFFFFFFFFFFFFFFF MUL NOT AND SWAP1 DUP4 PUSH20 0xFFFFFFFFFFFFFFFFFFFFFFFFFFFFFFFFFFFFFFFF AND MUL OR SWAP1 SSTORE POP DUP4 PUSH1 0x1 PUSH1 0x0 DUP8 DUP2 MSTORE PUSH1 0x20 ADD SWAP1 DUP2 MSTORE PUSH1 0x20 ADD PUSH1 0x0 KECCAK256 SLOAD PUSH2 0x340 SWAP2 SWAP1 PUSH2 0x7F9 JUMP JUMPDEST PUSH1 0x1 PUSH1 0x0 DUP8 DUP2 MSTORE PUSH1 0x20 ADD SWAP1 DUP2 MSTORE PUSH1 0x20 ADD PUSH1 0x0 KECCAK256 DUP2 SWAP1 SSTORE POP PUSH32 0x20DFA9F79060C8C4D7FE892C97C71BCF6E3B63D1DCF66FEA7AEFC0211628CF29 DUP8 DUP8 DUP8 DUP8 DUP8 DUP8 GAS PUSH1 0x40 MLOAD PUSH2 0x392 SWAP8 SWAP7 SWAP6 SWAP5 SWAP4 SWAP3 SWAP2 SWAP1 PUSH2 0x6AC JUMP JUMPDEST PUSH1 0x40 MLOAD DUP1 SWAP2 SUB SWAP1 LOG1 PUSH32 0xF23A6E612E1FF4830E658FE43F4E3CB4A5F8170BD5D9E69FB5D7A7FA9E4FDF97 SWAP1 POP SWAP7 SWAP6 POP POP POP POP POP POP JUMP JUMPDEST DUP1 PUSH1 0x1 PUSH1 0x0 DUP5 DUP2 MSTORE PUSH1 0x20 ADD SWAP1 DUP2 MSTORE PUSH1 0x20 ADD PUSH1 0x0 KECCAK256 SLOAD PUSH2 0x3E6 SWAP2 SWAP1 PUSH2 0x84F JUMP JUMPDEST PUSH1 0x1 PUSH1 0x0 DUP5 DUP2 MSTORE PUSH1 0x20 ADD SWAP1 DUP2 MSTORE PUSH1 0x20 ADD PUSH1 0x0 KECCAK256 DUP2 SWAP1 SSTORE POP POP POP JUMP JUMPDEST PUSH1 0x0 DUP2 CALLDATALOAD SWAP1 POP PUSH2 0x410 DUP2 PUSH2 0x988 JUMP JUMPDEST SWAP3 SWAP2 POP POP JUMP JUMPDEST PUSH1 0x0 DUP2 MLOAD SWAP1 POP PUSH2 0x425 DUP2 PUSH2 0x99F JUMP JUMPDEST SWAP3 SWAP2 POP POP JUMP JUMPDEST PUSH1 0x0 DUP1 DUP4 PUSH1 0x1F DUP5 ADD SLT PUSH2 0x441 JUMPI PUSH2 0x440 PUSH2 0x93A JUMP JUMPDEST JUMPDEST DUP3 CALLDATALOAD SWAP1 POP PUSH8 0xFFFFFFFFFFFFFFFF DUP2 GT ISZERO PUSH2 0x45E JUMPI PUSH2 0x45D PUSH2 0x935 JUMP JUMPDEST JUMPDEST PUSH1 0x20 DUP4 ADD SWAP2 POP DUP4 PUSH1 0x1 DUP3 MUL DUP4 ADD GT ISZERO PUSH2 0x47A JUMPI PUSH2 0x479 PUSH2 0x93F JUMP JUMPDEST JUMPDEST SWAP3 POP SWAP3 SWAP1 POP JUMP JUMPDEST PUSH1 0x0 DUP2 CALLDATALOAD SWAP1 POP PUSH2 0x490 DUP2 PUSH2 0x9B6 JUMP JUMPDEST SWAP3 SWAP2 POP POP JUMP JUMPDEST PUSH1 0x0 DUP1 PUSH1 0x0 DUP1 PUSH1 0x0 DUP1 PUSH1 0xA0 DUP8 DUP10 SUB SLT ISZERO PUSH2 0x4B3 JUMPI PUSH2 0x4B2 PUSH2 0x949 JUMP JUMPDEST JUMPDEST PUSH1 0x0 PUSH2 0x4C1 DUP10 DUP3 DUP11 ADD PUSH2 0x401 JUMP JUMPDEST SWAP7 POP POP PUSH1 0x20 PUSH2 0x4D2 DUP10 DUP3 DUP11 ADD PUSH2 0x401 JUMP JUMPDEST SWAP6 POP POP PUSH1 0x40 PUSH2 0x4E3 DUP10 DUP3 DUP11 ADD PUSH2 0x481 JUMP JUMPDEST SWAP5 POP POP PUSH1 0x60 PUSH2 0x4F4 DUP10 DUP3 DUP11 ADD PUSH2 0x481 JUMP JUMPDEST SWAP4 POP POP PUSH1 0x80 DUP8 ADD CALLDATALOAD PUSH8 0xFFFFFFFFFFFFFFFF DUP2 GT ISZERO PUSH2 0x515 JUMPI PUSH2 0x514 PUSH2 0x944 JUMP JUMPDEST JUMPDEST PUSH2 0x521 DUP10 DUP3 DUP11 ADD PUSH2 0x42B JUMP JUMPDEST SWAP3 POP SWAP3 POP POP SWAP3 SWAP6 POP SWAP3 SWAP6 POP SWAP3 SWAP6 JUMP JUMPDEST PUSH1 0x0 PUSH1 0x20 DUP3 DUP5 SUB SLT ISZERO PUSH2 0x546 JUMPI PUSH2 0x545 PUSH2 0x949 JUMP JUMPDEST JUMPDEST PUSH1 0x0 PUSH2 0x554 DUP5 DUP3 DUP6 ADD PUSH2 0x416 JUMP JUMPDEST SWAP2 POP POP SWAP3 SWAP2 POP POP JUMP JUMPDEST PUSH1 0x0 PUSH1 0x20 DUP3 DUP5 SUB SLT ISZERO PUSH2 0x573 JUMPI PUSH2 0x572 PUSH2 0x949 JUMP JUMPDEST JUMPDEST PUSH1 0x0 PUSH2 0x581 DUP5 DUP3 DUP6 ADD PUSH2 0x481 JUMP JUMPDEST SWAP2 POP POP SWAP3 SWAP2 POP POP JUMP JUMPDEST PUSH1 0x0 DUP1 PUSH1 0x0 DUP1 PUSH1 0x0 PUSH1 0xA0 DUP7 DUP9 SUB SLT ISZERO PUSH2 0x5A6 JUMPI PUSH2 0x5A5 PUSH2 0x949 JUMP JUMPDEST JUMPDEST PUSH1 0x0 PUSH2 0x5B4 DUP9 DUP3 DUP10 ADD PUSH2 0x481 JUMP JUMPDEST SWAP6 POP POP PUSH1 0x20 PUSH2 0x5C5 DUP9 DUP3 DUP10 ADD PUSH2 0x481 JUMP JUMPDEST SWAP5 POP POP PUSH1 0x40 PUSH2 0x5D6 DUP9 DUP3 DUP10 ADD PUSH2 0x481 JUMP JUMPDEST SWAP4 POP POP PUSH1 0x60 PUSH2 0x5E7 DUP9 DUP3 DUP10 ADD PUSH2 0x401 JUMP JUMPDEST SWAP3 POP POP PUSH1 0x80 PUSH2 0x5F8 DUP9 DUP3 DUP10 ADD PUSH2 0x401 JUMP JUMPDEST SWAP2 POP POP SWAP3 SWAP6 POP SWAP3 SWAP6 SWAP1 SWAP4 POP JUMP JUMPDEST PUSH2 0x60E DUP2 PUSH2 0x883 JUMP JUMPDEST DUP3 MSTORE POP POP JUMP JUMPDEST PUSH2 0x61D DUP2 PUSH2 0x895 JUMP JUMPDEST DUP3 MSTORE POP POP JUMP JUMPDEST PUSH2 0x62C DUP2 PUSH2 0x8A1 JUMP JUMPDEST DUP3 MSTORE POP POP JUMP JUMPDEST PUSH1 0x0 PUSH2 0x63E DUP4 DUP6 PUSH2 0x7E8 JUMP JUMPDEST SWAP4 POP PUSH2 0x64B DUP4 DUP6 DUP5 PUSH2 0x8F7 JUMP JUMPDEST PUSH2 0x654 DUP4 PUSH2 0x94E JUMP JUMPDEST DUP5 ADD SWAP1 POP SWAP4 SWAP3 POP POP POP JUMP JUMPDEST PUSH1 0x0 PUSH2 0x66C PUSH1 0x4 DUP4 PUSH2 0x7E8 JUMP JUMPDEST SWAP2 POP PUSH2 0x677 DUP3 PUSH2 0x95F JUMP JUMPDEST PUSH1 0x20 DUP3 ADD SWAP1 POP SWAP2 SWAP1 POP JUMP JUMPDEST PUSH2 0x68B DUP2 PUSH2 0x8ED JUMP JUMPDEST DUP3 MSTORE POP POP JUMP JUMPDEST PUSH1 0x0 PUSH1 0x20 DUP3 ADD SWAP1 POP PUSH2 0x6A6 PUSH1 0x0 DUP4 ADD DUP5 PUSH2 0x605 JUMP JUMPDEST SWAP3 SWAP2 POP POP JUMP JUMPDEST PUSH1 0x0 PUSH1 0xC0 DUP3 ADD SWAP1 POP PUSH2 0x6C1 PUSH1 0x0 DUP4 ADD DUP11 PUSH2 0x605 JUMP JUMPDEST PUSH2 0x6CE PUSH1 0x20 DUP4 ADD DUP10 PUSH2 0x605 JUMP JUMPDEST PUSH2 0x6DB PUSH1 0x40 DUP4 ADD DUP9 PUSH2 0x682 JUMP JUMPDEST PUSH2 0x6E8 PUSH1 0x60 DUP4 ADD DUP8 PUSH2 0x682 JUMP JUMPDEST DUP2 DUP2 SUB PUSH1 0x80 DUP4 ADD MSTORE PUSH2 0x6FB DUP2 DUP6 DUP8 PUSH2 0x632 JUMP JUMPDEST SWAP1 POP PUSH2 0x70A PUSH1 0xA0 DUP4 ADD DUP5 PUSH2 0x682 JUMP JUMPDEST SWAP9 SWAP8 POP POP POP POP POP POP POP POP JUMP JUMPDEST PUSH1 0x0 PUSH1 0xA0 DUP3 ADD SWAP1 POP PUSH2 0x72B PUSH1 0x0 DUP4 ADD DUP8 PUSH2 0x605 JUMP JUMPDEST PUSH2 0x738 PUSH1 0x20 DUP4 ADD DUP7 PUSH2 0x605 JUMP JUMPDEST PUSH2 0x745 PUSH1 0x40 DUP4 ADD DUP6 PUSH2 0x682 JUMP JUMPDEST PUSH2 0x752 PUSH1 0x60 DUP4 ADD DUP5 PUSH2 0x682 JUMP JUMPDEST DUP2 DUP2 SUB PUSH1 0x80 DUP4 ADD MSTORE PUSH2 0x763 DUP2 PUSH2 0x65F JUMP JUMPDEST SWAP1 POP SWAP6 SWAP5 POP POP POP POP POP JUMP JUMPDEST PUSH1 0x0 PUSH1 0x40 DUP3 ADD SWAP1 POP PUSH2 0x783 PUSH1 0x0 DUP4 ADD DUP6 PUSH2 0x605 JUMP JUMPDEST PUSH2 0x790 PUSH1 0x20 DUP4 ADD DUP5 PUSH2 0x682 JUMP JUMPDEST SWAP4 SWAP3 POP POP POP JUMP JUMPDEST PUSH1 0x0 PUSH1 0x20 DUP3 ADD SWAP1 POP PUSH2 0x7AC PUSH1 0x0 DUP4 ADD DUP5 PUSH2 0x614 JUMP JUMPDEST SWAP3 SWAP2 POP POP JUMP JUMPDEST PUSH1 0x0 PUSH1 0x20 DUP3 ADD SWAP1 POP PUSH2 0x7C7 PUSH1 0x0 DUP4 ADD DUP5 PUSH2 0x623 JUMP JUMPDEST SWAP3 SWAP2 POP POP JUMP JUMPDEST PUSH1 0x0 PUSH1 0x20 DUP3 ADD SWAP1 POP PUSH2 0x7E2 PUSH1 0x0 DUP4 ADD DUP5 PUSH2 0x682 JUMP JUMPDEST SWAP3 SWAP2 POP POP JUMP JUMPDEST PUSH1 0x0 DUP3 DUP3 MSTORE PUSH1 0x20 DUP3 ADD SWAP1 POP SWAP3 SWAP2 POP POP JUMP JUMPDEST PUSH1 0x0 PUSH2 0x804 DUP3 PUSH2 0x8ED JUMP JUMPDEST SWAP2 POP PUSH2 0x80F DUP4 PUSH2 0x8ED JUMP JUMPDEST SWAP3 POP DUP3 PUSH32 0xFFFFFFFFFFFFFFFFFFFFFFFFFFFFFFFFFFFFFFFFFFFFFFFFFFFFFFFFFFFFFFFF SUB DUP3 GT ISZERO PUSH2 0x844 JUMPI PUSH2 0x843 PUSH2 0x906 JUMP JUMPDEST JUMPDEST DUP3 DUP3 ADD SWAP1 POP SWAP3 SWAP2 POP POP JUMP JUMPDEST PUSH1 0x0 PUSH2 0x85A DUP3 PUSH2 0x8ED JUMP JUMPDEST SWAP2 POP PUSH2 0x865 DUP4 PUSH2 0x8ED JUMP JUMPDEST SWAP3 POP DUP3 DUP3 LT ISZERO PUSH2 0x878 JUMPI PUSH2 0x877 PUSH2 0x906 JUMP JUMPDEST JUMPDEST DUP3 DUP3 SUB SWAP1 POP SWAP3 SWAP2 POP POP JUMP JUMPDEST PUSH1 0x0 PUSH2 0x88E DUP3 PUSH2 0x8CD JUMP JUMPDEST SWAP1 POP SWAP2 SWAP1 POP JUMP JUMPDEST PUSH1 0x0 DUP2 ISZERO ISZERO SWAP1 POP SWAP2 SWAP1 POP JUMP JUMPDEST PUSH1 0x0 PUSH32 0xFFFFFFFF00000000000000000000000000000000000000000000000000000000 DUP3 AND SWAP1 POP SWAP2 SWAP1 POP JUMP JUMPDEST PUSH1 0x0 PUSH20 0xFFFFFFFFFFFFFFFFFFFFFFFFFFFFFFFFFFFFFFFF DUP3 AND SWAP1 POP SWAP2 SWAP1 POP JUMP JUMPDEST PUSH1 0x0 DUP2 SWAP1 POP SWAP2 SWAP1 POP JUMP JUMPDEST DUP3 DUP2 DUP4 CALLDATACOPY PUSH1 0x0 DUP4 DUP4 ADD MSTORE POP POP POP JUMP JUMPDEST PUSH32 0x4E487B7100000000000000000000000000000000000000000000000000000000 PUSH1 0x0 MSTORE PUSH1 0x11 PUSH1 0x4 MSTORE PUSH1 0x24 PUSH1 0x0 REVERT JUMPDEST PUSH1 0x0 DUP1 REVERT JUMPDEST PUSH1 0x0 DUP1 REVERT JUMPDEST PUSH1 0x0 DUP1 REVERT JUMPDEST PUSH1 0x0 DUP1 REVERT JUMPDEST PUSH1 0x0 DUP1 REVERT JUMPDEST PUSH1 0x0 PUSH1 0x1F NOT PUSH1 0x1F DUP4 ADD AND SWAP1 POP SWAP2 SWAP1 POP JUMP JUMPDEST PUSH32 0x3078303000000000000000000000000000000000000000000000000000000000 PUSH1 0x0 DUP3 ADD MSTORE POP JUMP JUMPDEST PUSH2 0x991 DUP2 PUSH2 0x883 JUMP JUMPDEST DUP2 EQ PUSH2 0x99C JUMPI PUSH1 0x0 DUP1 REVERT JUMPDEST POP JUMP JUMPDEST PUSH2 0x9A8 DUP2 PUSH2 0x895 JUMP JUMPDEST DUP2 EQ PUSH2 0x9B3 JUMPI PUSH1 0x0 DUP1 REVERT JUMPDEST POP JUMP JUMPDEST PUSH2 0x9BF DUP2 PUSH2 0x8ED JUMP JUMPDEST DUP2 EQ PUSH2 0x9CA JUMPI PUSH1 0x0 DUP1 REVERT JUMPDEST POP JUMP INVALID LOG2 PUSH5 0x6970667358 0x22 SLT KECCAK256 LOG2 0xD8 0xB8 DUP13 0x5C SMOD 0x49 XOR SWAP14 0xFB 0xF8 BALANCE LOG3 0x21 SWAP3 0xE9 ADDRESS 0x2D 0xED 0x4A MLOAD RETURNDATASIZE COINBASE SWAP10 0x5E PUSH24 0x8D62689F083964736F6C6343000807003300000000000000 "
				},
				"gasEstimates": {
					"creation": {
						"codeDepositCost": "512600",
						"executionCost": "549",
						"totalCost": "513149"
					},
					"external": {
						"amount(uint256)": "infinite",
						"buyCoupon(uint256,uint256,uint256,address,address)": "infinite",
						"onERC1155Received(address,address,uint256,uint256,bytes)": "infinite",
						"seller(uint256)": "2887"
					},
					"internal": {
						"_reduceAmount(uint256,uint256)": "infinite"
					}
				},
				"methodIdentifiers": {
					"amount(uint256)": "8b0d0258",
					"buyCoupon(uint256,uint256,uint256,address,address)": "6ec0feda",
					"onERC1155Received(address,address,uint256,uint256,bytes)": "f23a6e61",
					"seller(uint256)": "aacdfe6f"
				}
			},
			"storageLayout": {
				"storage": [
					{
						"astId": 37,
						"contract": "contracts/CouponMarket.sol:CouponMarket",
						"label": "_seller",
						"offset": 0,
						"slot": "0",
						"type": "t_mapping(t_uint256,t_address)"
					},
					{
						"astId": 41,
						"contract": "contracts/CouponMarket.sol:CouponMarket",
						"label": "_amount",
						"offset": 0,
						"slot": "1",
						"type": "t_mapping(t_uint256,t_uint256)"
					}
				],
				"types": {
					"t_address": {
						"encoding": "inplace",
						"label": "address",
						"numberOfBytes": "20"
					},
					"t_mapping(t_uint256,t_address)": {
						"encoding": "mapping",
						"key": "t_uint256",
						"label": "mapping(uint256 => address)",
						"numberOfBytes": "32",
						"value": "t_address"
					},
					"t_mapping(t_uint256,t_uint256)": {
						"encoding": "mapping",
						"key": "t_uint256",
						"label": "mapping(uint256 => uint256)",
						"numberOfBytes": "32",
						"value": "t_uint256"
					},
					"t_uint256": {
						"encoding": "inplace",
						"label": "uint256",
						"numberOfBytes": "32"
					}
				}
			},
			"userdoc": {
				"kind": "user",
				"methods": {},
				"version": 1
			}
		}
	}
}