{
	"contracts/CouponMarket.sol": {
		"CouponMarket": {
			"abi": [
				{
					"anonymous": false,
					"inputs": [
						{
							"indexed": false,
							"internalType": "address",
							"name": "operator",
							"type": "address"
						},
						{
							"indexed": false,
							"internalType": "address",
							"name": "from",
							"type": "address"
						},
						{
							"indexed": false,
							"internalType": "uint256",
							"name": "id",
							"type": "uint256"
						},
						{
							"indexed": false,
							"internalType": "uint256",
							"name": "value",
							"type": "uint256"
						},
						{
							"indexed": false,
							"internalType": "bytes",
							"name": "data",
							"type": "bytes"
						},
						{
							"indexed": false,
							"internalType": "uint256",
							"name": "gas",
							"type": "uint256"
						}
					],
					"name": "Received",
					"type": "event"
				},
				{
					"inputs": [
						{
							"internalType": "uint256",
							"name": "discount",
							"type": "uint256"
						}
					],
					"name": "amount",
					"outputs": [
						{
							"internalType": "uint256",
							"name": "",
							"type": "uint256"
						}
					],
					"stateMutability": "view",
					"type": "function"
				},
				{
					"inputs": [
						{
							"internalType": "uint256",
							"name": "discount",
							"type": "uint256"
						},
						{
							"internalType": "uint256",
							"name": "amount",
							"type": "uint256"
						},
						{
							"internalType": "uint256",
							"name": "price",
							"type": "uint256"
						},
						{
							"internalType": "address",
							"name": "CouponContractAddr",
							"type": "address"
						},
						{
							"internalType": "address",
							"name": "TokenContractAddr",
							"type": "address"
						}
					],
					"name": "buyCoupon",
					"outputs": [
						{
							"internalType": "bool",
							"name": "",
							"type": "bool"
						}
					],
					"stateMutability": "payable",
					"type": "function"
				},
				{
					"inputs": [
						{
							"internalType": "address",
							"name": "operator",
							"type": "address"
						},
						{
							"internalType": "address",
							"name": "from",
							"type": "address"
						},
						{
							"internalType": "uint256",
							"name": "id",
							"type": "uint256"
						},
						{
							"internalType": "uint256",
							"name": "value",
							"type": "uint256"
						},
						{
							"internalType": "bytes",
							"name": "data",
							"type": "bytes"
						}
					],
					"name": "onERC1155Received",
					"outputs": [
						{
							"internalType": "bytes4",
							"name": "",
							"type": "bytes4"
						}
					],
					"stateMutability": "nonpayable",
					"type": "function"
				},
				{
					"inputs": [
						{
							"internalType": "uint256",
							"name": "discount",
							"type": "uint256"
						}
					],
					"name": "seller",
					"outputs": [
						{
							"internalType": "address",
							"name": "",
							"type": "address"
						}
					],
					"stateMutability": "view",
					"type": "function"
				}
			],
			"devdoc": {
				"kind": "dev",
				"methods": {},
				"version": 1
			},
			"evm": {
				"assembly": "    /* \"contracts/CouponMarket.sol\":474:2272  contract CouponMarket {... */\n  mstore(0x40, 0x80)\n  callvalue\n  dup1\n  iszero\n  tag_1\n  jumpi\n  0x00\n  dup1\n  revert\ntag_1:\n  pop\n  dataSize(sub_0)\n  dup1\n  dataOffset(sub_0)\n  0x00\n  codecopy\n  0x00\n  return\nstop\n\nsub_0: assembly {\n        /* \"contracts/CouponMarket.sol\":474:2272  contract CouponMarket {... */\n      mstore(0x40, 0x80)\n      jumpi(tag_1, lt(calldatasize, 0x04))\n      shr(0xe0, calldataload(0x00))\n      dup1\n      0x6ec0feda\n      eq\n      tag_2\n      jumpi\n      dup1\n      0x8b0d0258\n      eq\n      tag_3\n      jumpi\n      dup1\n      0xaacdfe6f\n      eq\n      tag_4\n      jumpi\n      dup1\n      0xf23a6e61\n      eq\n      tag_5\n      jumpi\n    tag_1:\n      0x00\n      dup1\n      revert\n        /* \"contracts/CouponMarket.sol\":982:1632  function buyCoupon(... */\n    tag_2:\n      tag_6\n      0x04\n      dup1\n      calldatasize\n      sub\n      dup2\n      add\n      swap1\n      tag_7\n      swap2\n      swap1\n      tag_8\n      jump\t// in\n    tag_7:\n      tag_9\n      jump\t// in\n    tag_6:\n      mload(0x40)\n      tag_10\n      swap2\n      swap1\n      tag_11\n      jump\t// in\n    tag_10:\n      mload(0x40)\n      dup1\n      swap2\n      sub\n      swap1\n      return\n        /* \"contracts/CouponMarket.sol\":871:976  function amount(uint256 discount) public view returns (uint256) {... */\n    tag_3:\n      callvalue\n      dup1\n      iszero\n      tag_12\n      jumpi\n      0x00\n      dup1\n      revert\n    tag_12:\n      pop\n      tag_13\n      0x04\n      dup1\n      calldatasize\n      sub\n      dup2\n      add\n      swap1\n      tag_14\n      swap2\n      swap1\n      tag_15\n      jump\t// in\n    tag_14:\n      tag_16\n      jump\t// in\n    tag_13:\n      mload(0x40)\n      tag_17\n      swap2\n      swap1\n      tag_18\n      jump\t// in\n    tag_17:\n      mload(0x40)\n      dup1\n      swap2\n      sub\n      swap1\n      return\n        /* \"contracts/CouponMarket.sol\":760:865  function seller(uint256 discount) public view returns (address) {... */\n    tag_4:\n      callvalue\n      dup1\n      iszero\n      tag_19\n      jumpi\n      0x00\n      dup1\n      revert\n    tag_19:\n      pop\n      tag_20\n      0x04\n      dup1\n      calldatasize\n      sub\n      dup2\n      add\n      swap1\n      tag_21\n      swap2\n      swap1\n      tag_15\n      jump\t// in\n    tag_21:\n      tag_22\n      jump\t// in\n    tag_20:\n      mload(0x40)\n      tag_23\n      swap2\n      swap1\n      tag_24\n      jump\t// in\n    tag_23:\n      mload(0x40)\n      dup1\n      swap2\n      sub\n      swap1\n      return\n        /* \"contracts/CouponMarket.sol\":1772:2270  function onERC1155Received(... */\n    tag_5:\n      callvalue\n      dup1\n      iszero\n      tag_25\n      jumpi\n      0x00\n      dup1\n      revert\n    tag_25:\n      pop\n      tag_26\n      0x04\n      dup1\n      calldatasize\n      sub\n      dup2\n      add\n      swap1\n      tag_27\n      swap2\n      swap1\n      tag_28\n      jump\t// in\n    tag_27:\n      tag_29\n      jump\t// in\n    tag_26:\n      mload(0x40)\n      tag_30\n      swap2\n      swap1\n      tag_31\n      jump\t// in\n    tag_30:\n      mload(0x40)\n      dup1\n      swap2\n      sub\n      swap1\n      return\n        /* \"contracts/CouponMarket.sol\":982:1632  function buyCoupon(... */\n    tag_9:\n        /* \"contracts/CouponMarket.sol\":1175:1179  bool */\n      0x00\n        /* \"contracts/CouponMarket.sol\":1333:1350  TokenContractAddr */\n      dup2\n        /* \"contracts/CouponMarket.sol\":1326:1360  others(TokenContractAddr).transfer */\n      0xffffffffffffffffffffffffffffffffffffffff\n      and\n      0xa9059cbb\n        /* \"contracts/CouponMarket.sol\":1361:1368  _seller */\n      0x00\n        /* \"contracts/CouponMarket.sol\":1361:1378  _seller[discount] */\n      dup1\n        /* \"contracts/CouponMarket.sol\":1369:1377  discount */\n      dup10\n        /* \"contracts/CouponMarket.sol\":1361:1378  _seller[discount] */\n      dup2\n      mstore\n      0x20\n      add\n      swap1\n      dup2\n      mstore\n      0x20\n      add\n      0x00\n      keccak256\n      0x00\n      swap1\n      sload\n      swap1\n      0x0100\n      exp\n      swap1\n      div\n      0xffffffffffffffffffffffffffffffffffffffff\n      and\n        /* \"contracts/CouponMarket.sol\":1380:1385  price */\n      dup7\n        /* \"contracts/CouponMarket.sol\":1326:1386  others(TokenContractAddr).transfer(_seller[discount], price) */\n      mload(0x40)\n      dup4\n      0xffffffff\n      and\n      0xe0\n      shl\n      dup2\n      mstore\n      0x04\n      add\n      tag_33\n      swap3\n      swap2\n      swap1\n      tag_34\n      jump\t// in\n    tag_33:\n      0x20\n      mload(0x40)\n      dup1\n      dup4\n      sub\n      dup2\n      0x00\n      dup8\n      gas\n      call\n      iszero\n      dup1\n      iszero\n      tag_36\n      jumpi\n      returndatasize\n      0x00\n      dup1\n      returndatacopy\n      revert(0x00, returndatasize)\n    tag_36:\n      pop\n      pop\n      pop\n      pop\n      mload(0x40)\n      returndatasize\n      not(0x1f)\n      0x1f\n      dup3\n      add\n      and\n      dup3\n      add\n      dup1\n      0x40\n      mstore\n      pop\n      dup2\n      add\n      swap1\n      tag_37\n      swap2\n      swap1\n      tag_38\n      jump\t// in\n    tag_37:\n      pop\n        /* \"contracts/CouponMarket.sol\":1404:1422  CouponContractAddr */\n      dup3\n        /* \"contracts/CouponMarket.sol\":1397:1440  others(CouponContractAddr).safeTransferFrom */\n      0xffffffffffffffffffffffffffffffffffffffff\n      and\n      0xf242432a\n        /* \"contracts/CouponMarket.sol\":1462:1466  this */\n      address\n        /* \"contracts/CouponMarket.sol\":1481:1491  msg.sender */\n      caller\n        /* \"contracts/CouponMarket.sol\":1505:1513  discount */\n      dup10\n        /* \"contracts/CouponMarket.sol\":1527:1533  amount */\n      dup10\n        /* \"contracts/CouponMarket.sol\":1397:1563  others(CouponContractAddr).safeTransferFrom(... */\n      mload(0x40)\n      dup6\n      0xffffffff\n      and\n      0xe0\n      shl\n      dup2\n      mstore\n      0x04\n      add\n      tag_39\n      swap5\n      swap4\n      swap3\n      swap2\n      swap1\n      tag_40\n      jump\t// in\n    tag_39:\n      0x00\n      mload(0x40)\n      dup1\n      dup4\n      sub\n      dup2\n      0x00\n      dup8\n      dup1\n      extcodesize\n      iszero\n      dup1\n      iszero\n      tag_41\n      jumpi\n      0x00\n      dup1\n      revert\n    tag_41:\n      pop\n      gas\n      call\n      iszero\n      dup1\n      iszero\n      tag_43\n      jumpi\n      returndatasize\n      0x00\n      dup1\n      returndatacopy\n      revert(0x00, returndatasize)\n    tag_43:\n      pop\n      pop\n      pop\n      pop\n        /* \"contracts/CouponMarket.sol\":1573:1604  _reduceAmount(discount, amount) */\n      tag_44\n        /* \"contracts/CouponMarket.sol\":1587:1595  discount */\n      dup7\n        /* \"contracts/CouponMarket.sol\":1597:1603  amount */\n      dup7\n        /* \"contracts/CouponMarket.sol\":1573:1586  _reduceAmount */\n      tag_45\n        /* \"contracts/CouponMarket.sol\":1573:1604  _reduceAmount(discount, amount) */\n      jump\t// in\n    tag_44:\n        /* \"contracts/CouponMarket.sol\":1621:1625  true */\n      0x01\n        /* \"contracts/CouponMarket.sol\":1614:1625  return true */\n      swap1\n      pop\n        /* \"contracts/CouponMarket.sol\":982:1632  function buyCoupon(... */\n      swap6\n      swap5\n      pop\n      pop\n      pop\n      pop\n      pop\n      jump\t// out\n        /* \"contracts/CouponMarket.sol\":871:976  function amount(uint256 discount) public view returns (uint256) {... */\n    tag_16:\n        /* \"contracts/CouponMarket.sol\":926:933  uint256 */\n      0x00\n        /* \"contracts/CouponMarket.sol\":952:959  _amount */\n      0x01\n        /* \"contracts/CouponMarket.sol\":952:969  _amount[discount] */\n      0x00\n        /* \"contracts/CouponMarket.sol\":960:968  discount */\n      dup4\n        /* \"contracts/CouponMarket.sol\":952:969  _amount[discount] */\n      dup2\n      mstore\n      0x20\n      add\n      swap1\n      dup2\n      mstore\n      0x20\n      add\n      0x00\n      keccak256\n      sload\n        /* \"contracts/CouponMarket.sol\":945:969  return _amount[discount] */\n      swap1\n      pop\n        /* \"contracts/CouponMarket.sol\":871:976  function amount(uint256 discount) public view returns (uint256) {... */\n      swap2\n      swap1\n      pop\n      jump\t// out\n        /* \"contracts/CouponMarket.sol\":760:865  function seller(uint256 discount) public view returns (address) {... */\n    tag_22:\n        /* \"contracts/CouponMarket.sol\":815:822  address */\n      0x00\n        /* \"contracts/CouponMarket.sol\":841:848  _seller */\n      dup1\n        /* \"contracts/CouponMarket.sol\":841:858  _seller[discount] */\n      0x00\n        /* \"contracts/CouponMarket.sol\":849:857  discount */\n      dup4\n        /* \"contracts/CouponMarket.sol\":841:858  _seller[discount] */\n      dup2\n      mstore\n      0x20\n      add\n      swap1\n      dup2\n      mstore\n      0x20\n      add\n      0x00\n      keccak256\n      0x00\n      swap1\n      sload\n      swap1\n      0x0100\n      exp\n      swap1\n      div\n      0xffffffffffffffffffffffffffffffffffffffff\n      and\n        /* \"contracts/CouponMarket.sol\":834:858  return _seller[discount] */\n      swap1\n      pop\n        /* \"contracts/CouponMarket.sol\":760:865  function seller(uint256 discount) public view returns (address) {... */\n      swap2\n      swap1\n      pop\n      jump\t// out\n        /* \"contracts/CouponMarket.sol\":1772:2270  function onERC1155Received(... */\n    tag_29:\n        /* \"contracts/CouponMarket.sol\":1941:1947  bytes4 */\n      0x00\n        /* \"contracts/CouponMarket.sol\":1973:1977  from */\n      dup6\n        /* \"contracts/CouponMarket.sol\":1959:1966  _seller */\n      0x00\n        /* \"contracts/CouponMarket.sol\":1959:1970  _seller[id] */\n      dup1\n        /* \"contracts/CouponMarket.sol\":1967:1969  id */\n      dup8\n        /* \"contracts/CouponMarket.sol\":1959:1970  _seller[id] */\n      dup2\n      mstore\n      0x20\n      add\n      swap1\n      dup2\n      mstore\n      0x20\n      add\n      0x00\n      keccak256\n      0x00\n        /* \"contracts/CouponMarket.sol\":1959:1977  _seller[id] = from */\n      0x0100\n      exp\n      dup2\n      sload\n      dup2\n      0xffffffffffffffffffffffffffffffffffffffff\n      mul\n      not\n      and\n      swap1\n      dup4\n      0xffffffffffffffffffffffffffffffffffffffff\n      and\n      mul\n      or\n      swap1\n      sstore\n      pop\n        /* \"contracts/CouponMarket.sol\":2015:2020  value */\n      dup4\n        /* \"contracts/CouponMarket.sol\":2001:2008  _amount */\n      0x01\n        /* \"contracts/CouponMarket.sol\":2001:2012  _amount[id] */\n      0x00\n        /* \"contracts/CouponMarket.sol\":2009:2011  id */\n      dup8\n        /* \"contracts/CouponMarket.sol\":2001:2012  _amount[id] */\n      dup2\n      mstore\n      0x20\n      add\n      swap1\n      dup2\n      mstore\n      0x20\n      add\n      0x00\n      keccak256\n      sload\n        /* \"contracts/CouponMarket.sol\":2001:2020  _amount[id] + value */\n      tag_49\n      swap2\n      swap1\n      tag_50\n      jump\t// in\n    tag_49:\n        /* \"contracts/CouponMarket.sol\":1987:1994  _amount */\n      0x01\n        /* \"contracts/CouponMarket.sol\":1987:1998  _amount[id] */\n      0x00\n        /* \"contracts/CouponMarket.sol\":1995:1997  id */\n      dup8\n        /* \"contracts/CouponMarket.sol\":1987:1998  _amount[id] */\n      dup2\n      mstore\n      0x20\n      add\n      swap1\n      dup2\n      mstore\n      0x20\n      add\n      0x00\n      keccak256\n        /* \"contracts/CouponMarket.sol\":1987:2020  _amount[id] = _amount[id] + value */\n      dup2\n      swap1\n      sstore\n      pop\n        /* \"contracts/CouponMarket.sol\":2035:2087  Received(operator, from, id, value, data, gasleft()) */\n      0x20dfa9f79060c8c4d7fe892c97c71bcf6e3b63d1dcf66fea7aefc0211628cf29\n        /* \"contracts/CouponMarket.sol\":2044:2052  operator */\n      dup8\n        /* \"contracts/CouponMarket.sol\":2054:2058  from */\n      dup8\n        /* \"contracts/CouponMarket.sol\":2060:2062  id */\n      dup8\n        /* \"contracts/CouponMarket.sol\":2064:2069  value */\n      dup8\n        /* \"contracts/CouponMarket.sol\":2071:2075  data */\n      dup8\n      dup8\n        /* \"contracts/CouponMarket.sol\":2077:2086  gasleft() */\n      gas\n        /* \"contracts/CouponMarket.sol\":2035:2087  Received(operator, from, id, value, data, gasleft()) */\n      mload(0x40)\n      tag_51\n      swap8\n      swap7\n      swap6\n      swap5\n      swap4\n      swap3\n      swap2\n      swap1\n      tag_52\n      jump\t// in\n    tag_51:\n      mload(0x40)\n      dup1\n      swap2\n      sub\n      swap1\n      log1\n        /* \"contracts/CouponMarket.sol\":2140:2249  keccak256(... */\n      0xf23a6e612e1ff4830e658fe43f4e3cb4a5f8170bd5d9e69fb5d7a7fa9e4fdf97\n        /* \"contracts/CouponMarket.sol\":2097:2263  return... */\n      swap1\n      pop\n        /* \"contracts/CouponMarket.sol\":1772:2270  function onERC1155Received(... */\n      swap7\n      swap6\n      pop\n      pop\n      pop\n      pop\n      pop\n      pop\n      jump\t// out\n        /* \"contracts/CouponMarket.sol\":1638:1766  function _reduceAmount(uint256 discount, uint256 amount) private {... */\n    tag_45:\n        /* \"contracts/CouponMarket.sol\":1753:1759  amount */\n      dup1\n        /* \"contracts/CouponMarket.sol\":1733:1740  _amount */\n      0x01\n        /* \"contracts/CouponMarket.sol\":1733:1750  _amount[discount] */\n      0x00\n        /* \"contracts/CouponMarket.sol\":1741:1749  discount */\n      dup5\n        /* \"contracts/CouponMarket.sol\":1733:1750  _amount[discount] */\n      dup2\n      mstore\n      0x20\n      add\n      swap1\n      dup2\n      mstore\n      0x20\n      add\n      0x00\n      keccak256\n      sload\n        /* \"contracts/CouponMarket.sol\":1733:1759  _amount[discount] - amount */\n      tag_54\n      swap2\n      swap1\n      tag_55\n      jump\t// in\n    tag_54:\n        /* \"contracts/CouponMarket.sol\":1713:1720  _amount */\n      0x01\n        /* \"contracts/CouponMarket.sol\":1713:1730  _amount[discount] */\n      0x00\n        /* \"contracts/CouponMarket.sol\":1721:1729  discount */\n      dup5\n        /* \"contracts/CouponMarket.sol\":1713:1730  _amount[discount] */\n      dup2\n      mstore\n      0x20\n      add\n      swap1\n      dup2\n      mstore\n      0x20\n      add\n      0x00\n      keccak256\n        /* \"contracts/CouponMarket.sol\":1713:1759  _amount[discount] = _amount[discount] - amount */\n      dup2\n      swap1\n      sstore\n      pop\n        /* \"contracts/CouponMarket.sol\":1638:1766  function _reduceAmount(uint256 discount, uint256 amount) private {... */\n      pop\n      pop\n      jump\t// out\n        /* \"#utility.yul\":88:205   */\n    tag_57:\n        /* \"#utility.yul\":197:198   */\n      0x00\n        /* \"#utility.yul\":194:195   */\n      dup1\n        /* \"#utility.yul\":187:199   */\n      revert\n        /* \"#utility.yul\":211:328   */\n    tag_58:\n        /* \"#utility.yul\":320:321   */\n      0x00\n        /* \"#utility.yul\":317:318   */\n      dup1\n        /* \"#utility.yul\":310:322   */\n      revert\n        /* \"#utility.yul\":334:411   */\n    tag_59:\n        /* \"#utility.yul\":371:378   */\n      0x00\n        /* \"#utility.yul\":400:405   */\n      dup2\n        /* \"#utility.yul\":389:405   */\n      swap1\n      pop\n        /* \"#utility.yul\":334:411   */\n      swap2\n      swap1\n      pop\n      jump\t// out\n        /* \"#utility.yul\":417:539   */\n    tag_60:\n        /* \"#utility.yul\":490:514   */\n      tag_91\n        /* \"#utility.yul\":508:513   */\n      dup2\n        /* \"#utility.yul\":490:514   */\n      tag_59\n      jump\t// in\n    tag_91:\n        /* \"#utility.yul\":483:488   */\n      dup2\n        /* \"#utility.yul\":480:515   */\n      eq\n        /* \"#utility.yul\":470:533   */\n      tag_92\n      jumpi\n        /* \"#utility.yul\":529:530   */\n      0x00\n        /* \"#utility.yul\":526:527   */\n      dup1\n        /* \"#utility.yul\":519:531   */\n      revert\n        /* \"#utility.yul\":470:533   */\n    tag_92:\n        /* \"#utility.yul\":417:539   */\n      pop\n      jump\t// out\n        /* \"#utility.yul\":545:684   */\n    tag_61:\n        /* \"#utility.yul\":591:596   */\n      0x00\n        /* \"#utility.yul\":629:635   */\n      dup2\n        /* \"#utility.yul\":616:636   */\n      calldataload\n        /* \"#utility.yul\":607:636   */\n      swap1\n      pop\n        /* \"#utility.yul\":645:678   */\n      tag_94\n        /* \"#utility.yul\":672:677   */\n      dup2\n        /* \"#utility.yul\":645:678   */\n      tag_60\n      jump\t// in\n    tag_94:\n        /* \"#utility.yul\":545:684   */\n      swap3\n      swap2\n      pop\n      pop\n      jump\t// out\n        /* \"#utility.yul\":690:816   */\n    tag_62:\n        /* \"#utility.yul\":727:734   */\n      0x00\n        /* \"#utility.yul\":767:809   */\n      0xffffffffffffffffffffffffffffffffffffffff\n        /* \"#utility.yul\":760:765   */\n      dup3\n        /* \"#utility.yul\":756:810   */\n      and\n        /* \"#utility.yul\":745:810   */\n      swap1\n      pop\n        /* \"#utility.yul\":690:816   */\n      swap2\n      swap1\n      pop\n      jump\t// out\n        /* \"#utility.yul\":822:918   */\n    tag_63:\n        /* \"#utility.yul\":859:866   */\n      0x00\n        /* \"#utility.yul\":888:912   */\n      tag_97\n        /* \"#utility.yul\":906:911   */\n      dup3\n        /* \"#utility.yul\":888:912   */\n      tag_62\n      jump\t// in\n    tag_97:\n        /* \"#utility.yul\":877:912   */\n      swap1\n      pop\n        /* \"#utility.yul\":822:918   */\n      swap2\n      swap1\n      pop\n      jump\t// out\n        /* \"#utility.yul\":924:1046   */\n    tag_64:\n        /* \"#utility.yul\":997:1021   */\n      tag_99\n        /* \"#utility.yul\":1015:1020   */\n      dup2\n        /* \"#utility.yul\":997:1021   */\n      tag_63\n      jump\t// in\n    tag_99:\n        /* \"#utility.yul\":990:995   */\n      dup2\n        /* \"#utility.yul\":987:1022   */\n      eq\n        /* \"#utility.yul\":977:1040   */\n      tag_100\n      jumpi\n        /* \"#utility.yul\":1036:1037   */\n      0x00\n        /* \"#utility.yul\":1033:1034   */\n      dup1\n        /* \"#utility.yul\":1026:1038   */\n      revert\n        /* \"#utility.yul\":977:1040   */\n    tag_100:\n        /* \"#utility.yul\":924:1046   */\n      pop\n      jump\t// out\n        /* \"#utility.yul\":1052:1191   */\n    tag_65:\n        /* \"#utility.yul\":1098:1103   */\n      0x00\n        /* \"#utility.yul\":1136:1142   */\n      dup2\n        /* \"#utility.yul\":1123:1143   */\n      calldataload\n        /* \"#utility.yul\":1114:1143   */\n      swap1\n      pop\n        /* \"#utility.yul\":1152:1185   */\n      tag_102\n        /* \"#utility.yul\":1179:1184   */\n      dup2\n        /* \"#utility.yul\":1152:1185   */\n      tag_64\n      jump\t// in\n    tag_102:\n        /* \"#utility.yul\":1052:1191   */\n      swap3\n      swap2\n      pop\n      pop\n      jump\t// out\n        /* \"#utility.yul\":1197:2108   */\n    tag_8:\n        /* \"#utility.yul\":1292:1298   */\n      0x00\n        /* \"#utility.yul\":1300:1306   */\n      dup1\n        /* \"#utility.yul\":1308:1314   */\n      0x00\n        /* \"#utility.yul\":1316:1322   */\n      dup1\n        /* \"#utility.yul\":1324:1330   */\n      0x00\n        /* \"#utility.yul\":1373:1376   */\n      0xa0\n        /* \"#utility.yul\":1361:1370   */\n      dup7\n        /* \"#utility.yul\":1352:1359   */\n      dup9\n        /* \"#utility.yul\":1348:1371   */\n      sub\n        /* \"#utility.yul\":1344:1377   */\n      slt\n        /* \"#utility.yul\":1341:1461   */\n      iszero\n      tag_104\n      jumpi\n        /* \"#utility.yul\":1380:1459   */\n      tag_105\n      tag_57\n      jump\t// in\n    tag_105:\n        /* \"#utility.yul\":1341:1461   */\n    tag_104:\n        /* \"#utility.yul\":1500:1501   */\n      0x00\n        /* \"#utility.yul\":1525:1578   */\n      tag_106\n        /* \"#utility.yul\":1570:1577   */\n      dup9\n        /* \"#utility.yul\":1561:1567   */\n      dup3\n        /* \"#utility.yul\":1550:1559   */\n      dup10\n        /* \"#utility.yul\":1546:1568   */\n      add\n        /* \"#utility.yul\":1525:1578   */\n      tag_61\n      jump\t// in\n    tag_106:\n        /* \"#utility.yul\":1515:1578   */\n      swap6\n      pop\n        /* \"#utility.yul\":1471:1588   */\n      pop\n        /* \"#utility.yul\":1627:1629   */\n      0x20\n        /* \"#utility.yul\":1653:1706   */\n      tag_107\n        /* \"#utility.yul\":1698:1705   */\n      dup9\n        /* \"#utility.yul\":1689:1695   */\n      dup3\n        /* \"#utility.yul\":1678:1687   */\n      dup10\n        /* \"#utility.yul\":1674:1696   */\n      add\n        /* \"#utility.yul\":1653:1706   */\n      tag_61\n      jump\t// in\n    tag_107:\n        /* \"#utility.yul\":1643:1706   */\n      swap5\n      pop\n        /* \"#utility.yul\":1598:1716   */\n      pop\n        /* \"#utility.yul\":1755:1757   */\n      0x40\n        /* \"#utility.yul\":1781:1834   */\n      tag_108\n        /* \"#utility.yul\":1826:1833   */\n      dup9\n        /* \"#utility.yul\":1817:1823   */\n      dup3\n        /* \"#utility.yul\":1806:1815   */\n      dup10\n        /* \"#utility.yul\":1802:1824   */\n      add\n        /* \"#utility.yul\":1781:1834   */\n      tag_61\n      jump\t// in\n    tag_108:\n        /* \"#utility.yul\":1771:1834   */\n      swap4\n      pop\n        /* \"#utility.yul\":1726:1844   */\n      pop\n        /* \"#utility.yul\":1883:1885   */\n      0x60\n        /* \"#utility.yul\":1909:1962   */\n      tag_109\n        /* \"#utility.yul\":1954:1961   */\n      dup9\n        /* \"#utility.yul\":1945:1951   */\n      dup3\n        /* \"#utility.yul\":1934:1943   */\n      dup10\n        /* \"#utility.yul\":1930:1952   */\n      add\n        /* \"#utility.yul\":1909:1962   */\n      tag_65\n      jump\t// in\n    tag_109:\n        /* \"#utility.yul\":1899:1962   */\n      swap3\n      pop\n        /* \"#utility.yul\":1854:1972   */\n      pop\n        /* \"#utility.yul\":2011:2014   */\n      0x80\n        /* \"#utility.yul\":2038:2091   */\n      tag_110\n        /* \"#utility.yul\":2083:2090   */\n      dup9\n        /* \"#utility.yul\":2074:2080   */\n      dup3\n        /* \"#utility.yul\":2063:2072   */\n      dup10\n        /* \"#utility.yul\":2059:2081   */\n      add\n        /* \"#utility.yul\":2038:2091   */\n      tag_65\n      jump\t// in\n    tag_110:\n        /* \"#utility.yul\":2028:2091   */\n      swap2\n      pop\n        /* \"#utility.yul\":1982:2101   */\n      pop\n        /* \"#utility.yul\":1197:2108   */\n      swap3\n      swap6\n      pop\n      swap3\n      swap6\n      swap1\n      swap4\n      pop\n      jump\t// out\n        /* \"#utility.yul\":2114:2204   */\n    tag_66:\n        /* \"#utility.yul\":2148:2155   */\n      0x00\n        /* \"#utility.yul\":2191:2196   */\n      dup2\n        /* \"#utility.yul\":2184:2197   */\n      iszero\n        /* \"#utility.yul\":2177:2198   */\n      iszero\n        /* \"#utility.yul\":2166:2198   */\n      swap1\n      pop\n        /* \"#utility.yul\":2114:2204   */\n      swap2\n      swap1\n      pop\n      jump\t// out\n        /* \"#utility.yul\":2210:2319   */\n    tag_67:\n        /* \"#utility.yul\":2291:2312   */\n      tag_113\n        /* \"#utility.yul\":2306:2311   */\n      dup2\n        /* \"#utility.yul\":2291:2312   */\n      tag_66\n      jump\t// in\n    tag_113:\n        /* \"#utility.yul\":2286:2289   */\n      dup3\n        /* \"#utility.yul\":2279:2313   */\n      mstore\n        /* \"#utility.yul\":2210:2319   */\n      pop\n      pop\n      jump\t// out\n        /* \"#utility.yul\":2325:2535   */\n    tag_11:\n        /* \"#utility.yul\":2412:2416   */\n      0x00\n        /* \"#utility.yul\":2450:2452   */\n      0x20\n        /* \"#utility.yul\":2439:2448   */\n      dup3\n        /* \"#utility.yul\":2435:2453   */\n      add\n        /* \"#utility.yul\":2427:2453   */\n      swap1\n      pop\n        /* \"#utility.yul\":2463:2528   */\n      tag_115\n        /* \"#utility.yul\":2525:2526   */\n      0x00\n        /* \"#utility.yul\":2514:2523   */\n      dup4\n        /* \"#utility.yul\":2510:2527   */\n      add\n        /* \"#utility.yul\":2501:2507   */\n      dup5\n        /* \"#utility.yul\":2463:2528   */\n      tag_67\n      jump\t// in\n    tag_115:\n        /* \"#utility.yul\":2325:2535   */\n      swap3\n      swap2\n      pop\n      pop\n      jump\t// out\n        /* \"#utility.yul\":2541:2870   */\n    tag_15:\n        /* \"#utility.yul\":2600:2606   */\n      0x00\n        /* \"#utility.yul\":2649:2651   */\n      0x20\n        /* \"#utility.yul\":2637:2646   */\n      dup3\n        /* \"#utility.yul\":2628:2635   */\n      dup5\n        /* \"#utility.yul\":2624:2647   */\n      sub\n        /* \"#utility.yul\":2620:2652   */\n      slt\n        /* \"#utility.yul\":2617:2736   */\n      iszero\n      tag_117\n      jumpi\n        /* \"#utility.yul\":2655:2734   */\n      tag_118\n      tag_57\n      jump\t// in\n    tag_118:\n        /* \"#utility.yul\":2617:2736   */\n    tag_117:\n        /* \"#utility.yul\":2775:2776   */\n      0x00\n        /* \"#utility.yul\":2800:2853   */\n      tag_119\n        /* \"#utility.yul\":2845:2852   */\n      dup5\n        /* \"#utility.yul\":2836:2842   */\n      dup3\n        /* \"#utility.yul\":2825:2834   */\n      dup6\n        /* \"#utility.yul\":2821:2843   */\n      add\n        /* \"#utility.yul\":2800:2853   */\n      tag_61\n      jump\t// in\n    tag_119:\n        /* \"#utility.yul\":2790:2853   */\n      swap2\n      pop\n        /* \"#utility.yul\":2746:2863   */\n      pop\n        /* \"#utility.yul\":2541:2870   */\n      swap3\n      swap2\n      pop\n      pop\n      jump\t// out\n        /* \"#utility.yul\":2876:2994   */\n    tag_68:\n        /* \"#utility.yul\":2963:2987   */\n      tag_121\n        /* \"#utility.yul\":2981:2986   */\n      dup2\n        /* \"#utility.yul\":2963:2987   */\n      tag_59\n      jump\t// in\n    tag_121:\n        /* \"#utility.yul\":2958:2961   */\n      dup3\n        /* \"#utility.yul\":2951:2988   */\n      mstore\n        /* \"#utility.yul\":2876:2994   */\n      pop\n      pop\n      jump\t// out\n        /* \"#utility.yul\":3000:3222   */\n    tag_18:\n        /* \"#utility.yul\":3093:3097   */\n      0x00\n        /* \"#utility.yul\":3131:3133   */\n      0x20\n        /* \"#utility.yul\":3120:3129   */\n      dup3\n        /* \"#utility.yul\":3116:3134   */\n      add\n        /* \"#utility.yul\":3108:3134   */\n      swap1\n      pop\n        /* \"#utility.yul\":3144:3215   */\n      tag_123\n        /* \"#utility.yul\":3212:3213   */\n      0x00\n        /* \"#utility.yul\":3201:3210   */\n      dup4\n        /* \"#utility.yul\":3197:3214   */\n      add\n        /* \"#utility.yul\":3188:3194   */\n      dup5\n        /* \"#utility.yul\":3144:3215   */\n      tag_68\n      jump\t// in\n    tag_123:\n        /* \"#utility.yul\":3000:3222   */\n      swap3\n      swap2\n      pop\n      pop\n      jump\t// out\n        /* \"#utility.yul\":3228:3346   */\n    tag_69:\n        /* \"#utility.yul\":3315:3339   */\n      tag_125\n        /* \"#utility.yul\":3333:3338   */\n      dup2\n        /* \"#utility.yul\":3315:3339   */\n      tag_63\n      jump\t// in\n    tag_125:\n        /* \"#utility.yul\":3310:3313   */\n      dup3\n        /* \"#utility.yul\":3303:3340   */\n      mstore\n        /* \"#utility.yul\":3228:3346   */\n      pop\n      pop\n      jump\t// out\n        /* \"#utility.yul\":3352:3574   */\n    tag_24:\n        /* \"#utility.yul\":3445:3449   */\n      0x00\n        /* \"#utility.yul\":3483:3485   */\n      0x20\n        /* \"#utility.yul\":3472:3481   */\n      dup3\n        /* \"#utility.yul\":3468:3486   */\n      add\n        /* \"#utility.yul\":3460:3486   */\n      swap1\n      pop\n        /* \"#utility.yul\":3496:3567   */\n      tag_127\n        /* \"#utility.yul\":3564:3565   */\n      0x00\n        /* \"#utility.yul\":3553:3562   */\n      dup4\n        /* \"#utility.yul\":3549:3566   */\n      add\n        /* \"#utility.yul\":3540:3546   */\n      dup5\n        /* \"#utility.yul\":3496:3567   */\n      tag_69\n      jump\t// in\n    tag_127:\n        /* \"#utility.yul\":3352:3574   */\n      swap3\n      swap2\n      pop\n      pop\n      jump\t// out\n        /* \"#utility.yul\":3580:3697   */\n    tag_70:\n        /* \"#utility.yul\":3689:3690   */\n      0x00\n        /* \"#utility.yul\":3686:3687   */\n      dup1\n        /* \"#utility.yul\":3679:3691   */\n      revert\n        /* \"#utility.yul\":3703:3820   */\n    tag_71:\n        /* \"#utility.yul\":3812:3813   */\n      0x00\n        /* \"#utility.yul\":3809:3810   */\n      dup1\n        /* \"#utility.yul\":3802:3814   */\n      revert\n        /* \"#utility.yul\":3826:3943   */\n    tag_72:\n        /* \"#utility.yul\":3935:3936   */\n      0x00\n        /* \"#utility.yul\":3932:3933   */\n      dup1\n        /* \"#utility.yul\":3925:3937   */\n      revert\n        /* \"#utility.yul\":3962:4514   */\n    tag_73:\n        /* \"#utility.yul\":4019:4027   */\n      0x00\n        /* \"#utility.yul\":4029:4035   */\n      dup1\n        /* \"#utility.yul\":4079:4082   */\n      dup4\n        /* \"#utility.yul\":4072:4076   */\n      0x1f\n        /* \"#utility.yul\":4064:4070   */\n      dup5\n        /* \"#utility.yul\":4060:4077   */\n      add\n        /* \"#utility.yul\":4056:4083   */\n      slt\n        /* \"#utility.yul\":4046:4168   */\n      tag_132\n      jumpi\n        /* \"#utility.yul\":4087:4166   */\n      tag_133\n      tag_70\n      jump\t// in\n    tag_133:\n        /* \"#utility.yul\":4046:4168   */\n    tag_132:\n        /* \"#utility.yul\":4200:4206   */\n      dup3\n        /* \"#utility.yul\":4187:4207   */\n      calldataload\n        /* \"#utility.yul\":4177:4207   */\n      swap1\n      pop\n        /* \"#utility.yul\":4230:4248   */\n      0xffffffffffffffff\n        /* \"#utility.yul\":4222:4228   */\n      dup2\n        /* \"#utility.yul\":4219:4249   */\n      gt\n        /* \"#utility.yul\":4216:4333   */\n      iszero\n      tag_134\n      jumpi\n        /* \"#utility.yul\":4252:4331   */\n      tag_135\n      tag_71\n      jump\t// in\n    tag_135:\n        /* \"#utility.yul\":4216:4333   */\n    tag_134:\n        /* \"#utility.yul\":4366:4370   */\n      0x20\n        /* \"#utility.yul\":4358:4364   */\n      dup4\n        /* \"#utility.yul\":4354:4371   */\n      add\n        /* \"#utility.yul\":4342:4371   */\n      swap2\n      pop\n        /* \"#utility.yul\":4420:4423   */\n      dup4\n        /* \"#utility.yul\":4412:4416   */\n      0x01\n        /* \"#utility.yul\":4404:4410   */\n      dup3\n        /* \"#utility.yul\":4400:4417   */\n      mul\n        /* \"#utility.yul\":4390:4398   */\n      dup4\n        /* \"#utility.yul\":4386:4418   */\n      add\n        /* \"#utility.yul\":4383:4424   */\n      gt\n        /* \"#utility.yul\":4380:4508   */\n      iszero\n      tag_136\n      jumpi\n        /* \"#utility.yul\":4427:4506   */\n      tag_137\n      tag_72\n      jump\t// in\n    tag_137:\n        /* \"#utility.yul\":4380:4508   */\n    tag_136:\n        /* \"#utility.yul\":3962:4514   */\n      swap3\n      pop\n      swap3\n      swap1\n      pop\n      jump\t// out\n        /* \"#utility.yul\":4520:5629   */\n    tag_28:\n        /* \"#utility.yul\":4626:4632   */\n      0x00\n        /* \"#utility.yul\":4634:4640   */\n      dup1\n        /* \"#utility.yul\":4642:4648   */\n      0x00\n        /* \"#utility.yul\":4650:4656   */\n      dup1\n        /* \"#utility.yul\":4658:4664   */\n      0x00\n        /* \"#utility.yul\":4666:4672   */\n      dup1\n        /* \"#utility.yul\":4715:4718   */\n      0xa0\n        /* \"#utility.yul\":4703:4712   */\n      dup8\n        /* \"#utility.yul\":4694:4701   */\n      dup10\n        /* \"#utility.yul\":4690:4713   */\n      sub\n        /* \"#utility.yul\":4686:4719   */\n      slt\n        /* \"#utility.yul\":4683:4803   */\n      iszero\n      tag_139\n      jumpi\n        /* \"#utility.yul\":4722:4801   */\n      tag_140\n      tag_57\n      jump\t// in\n    tag_140:\n        /* \"#utility.yul\":4683:4803   */\n    tag_139:\n        /* \"#utility.yul\":4842:4843   */\n      0x00\n        /* \"#utility.yul\":4867:4920   */\n      tag_141\n        /* \"#utility.yul\":4912:4919   */\n      dup10\n        /* \"#utility.yul\":4903:4909   */\n      dup3\n        /* \"#utility.yul\":4892:4901   */\n      dup11\n        /* \"#utility.yul\":4888:4910   */\n      add\n        /* \"#utility.yul\":4867:4920   */\n      tag_65\n      jump\t// in\n    tag_141:\n        /* \"#utility.yul\":4857:4920   */\n      swap7\n      pop\n        /* \"#utility.yul\":4813:4930   */\n      pop\n        /* \"#utility.yul\":4969:4971   */\n      0x20\n        /* \"#utility.yul\":4995:5048   */\n      tag_142\n        /* \"#utility.yul\":5040:5047   */\n      dup10\n        /* \"#utility.yul\":5031:5037   */\n      dup3\n        /* \"#utility.yul\":5020:5029   */\n      dup11\n        /* \"#utility.yul\":5016:5038   */\n      add\n        /* \"#utility.yul\":4995:5048   */\n      tag_65\n      jump\t// in\n    tag_142:\n        /* \"#utility.yul\":4985:5048   */\n      swap6\n      pop\n        /* \"#utility.yul\":4940:5058   */\n      pop\n        /* \"#utility.yul\":5097:5099   */\n      0x40\n        /* \"#utility.yul\":5123:5176   */\n      tag_143\n        /* \"#utility.yul\":5168:5175   */\n      dup10\n        /* \"#utility.yul\":5159:5165   */\n      dup3\n        /* \"#utility.yul\":5148:5157   */\n      dup11\n        /* \"#utility.yul\":5144:5166   */\n      add\n        /* \"#utility.yul\":5123:5176   */\n      tag_61\n      jump\t// in\n    tag_143:\n        /* \"#utility.yul\":5113:5176   */\n      swap5\n      pop\n        /* \"#utility.yul\":5068:5186   */\n      pop\n        /* \"#utility.yul\":5225:5227   */\n      0x60\n        /* \"#utility.yul\":5251:5304   */\n      tag_144\n        /* \"#utility.yul\":5296:5303   */\n      dup10\n        /* \"#utility.yul\":5287:5293   */\n      dup3\n        /* \"#utility.yul\":5276:5285   */\n      dup11\n        /* \"#utility.yul\":5272:5294   */\n      add\n        /* \"#utility.yul\":5251:5304   */\n      tag_61\n      jump\t// in\n    tag_144:\n        /* \"#utility.yul\":5241:5304   */\n      swap4\n      pop\n        /* \"#utility.yul\":5196:5314   */\n      pop\n        /* \"#utility.yul\":5381:5384   */\n      0x80\n        /* \"#utility.yul\":5370:5379   */\n      dup8\n        /* \"#utility.yul\":5366:5385   */\n      add\n        /* \"#utility.yul\":5353:5386   */\n      calldataload\n        /* \"#utility.yul\":5413:5431   */\n      0xffffffffffffffff\n        /* \"#utility.yul\":5405:5411   */\n      dup2\n        /* \"#utility.yul\":5402:5432   */\n      gt\n        /* \"#utility.yul\":5399:5516   */\n      iszero\n      tag_145\n      jumpi\n        /* \"#utility.yul\":5435:5514   */\n      tag_146\n      tag_58\n      jump\t// in\n    tag_146:\n        /* \"#utility.yul\":5399:5516   */\n    tag_145:\n        /* \"#utility.yul\":5548:5612   */\n      tag_147\n        /* \"#utility.yul\":5604:5611   */\n      dup10\n        /* \"#utility.yul\":5595:5601   */\n      dup3\n        /* \"#utility.yul\":5584:5593   */\n      dup11\n        /* \"#utility.yul\":5580:5602   */\n      add\n        /* \"#utility.yul\":5548:5612   */\n      tag_73\n      jump\t// in\n    tag_147:\n        /* \"#utility.yul\":5530:5612   */\n      swap3\n      pop\n      swap3\n      pop\n        /* \"#utility.yul\":5324:5622   */\n      pop\n        /* \"#utility.yul\":4520:5629   */\n      swap3\n      swap6\n      pop\n      swap3\n      swap6\n      pop\n      swap3\n      swap6\n      jump\t// out\n        /* \"#utility.yul\":5635:5784   */\n    tag_74:\n        /* \"#utility.yul\":5671:5678   */\n      0x00\n        /* \"#utility.yul\":5711:5777   */\n      0xffffffff00000000000000000000000000000000000000000000000000000000\n        /* \"#utility.yul\":5704:5709   */\n      dup3\n        /* \"#utility.yul\":5700:5778   */\n      and\n        /* \"#utility.yul\":5689:5778   */\n      swap1\n      pop\n        /* \"#utility.yul\":5635:5784   */\n      swap2\n      swap1\n      pop\n      jump\t// out\n        /* \"#utility.yul\":5790:5905   */\n    tag_75:\n        /* \"#utility.yul\":5875:5898   */\n      tag_150\n        /* \"#utility.yul\":5892:5897   */\n      dup2\n        /* \"#utility.yul\":5875:5898   */\n      tag_74\n      jump\t// in\n    tag_150:\n        /* \"#utility.yul\":5870:5873   */\n      dup3\n        /* \"#utility.yul\":5863:5899   */\n      mstore\n        /* \"#utility.yul\":5790:5905   */\n      pop\n      pop\n      jump\t// out\n        /* \"#utility.yul\":5911:6129   */\n    tag_31:\n        /* \"#utility.yul\":6002:6006   */\n      0x00\n        /* \"#utility.yul\":6040:6042   */\n      0x20\n        /* \"#utility.yul\":6029:6038   */\n      dup3\n        /* \"#utility.yul\":6025:6043   */\n      add\n        /* \"#utility.yul\":6017:6043   */\n      swap1\n      pop\n        /* \"#utility.yul\":6053:6122   */\n      tag_152\n        /* \"#utility.yul\":6119:6120   */\n      0x00\n        /* \"#utility.yul\":6108:6117   */\n      dup4\n        /* \"#utility.yul\":6104:6121   */\n      add\n        /* \"#utility.yul\":6095:6101   */\n      dup5\n        /* \"#utility.yul\":6053:6122   */\n      tag_75\n      jump\t// in\n    tag_152:\n        /* \"#utility.yul\":5911:6129   */\n      swap3\n      swap2\n      pop\n      pop\n      jump\t// out\n        /* \"#utility.yul\":6135:6467   */\n    tag_34:\n        /* \"#utility.yul\":6256:6260   */\n      0x00\n        /* \"#utility.yul\":6294:6296   */\n      0x40\n        /* \"#utility.yul\":6283:6292   */\n      dup3\n        /* \"#utility.yul\":6279:6297   */\n      add\n        /* \"#utility.yul\":6271:6297   */\n      swap1\n      pop\n        /* \"#utility.yul\":6307:6378   */\n      tag_154\n        /* \"#utility.yul\":6375:6376   */\n      0x00\n        /* \"#utility.yul\":6364:6373   */\n      dup4\n        /* \"#utility.yul\":6360:6377   */\n      add\n        /* \"#utility.yul\":6351:6357   */\n      dup6\n        /* \"#utility.yul\":6307:6378   */\n      tag_69\n      jump\t// in\n    tag_154:\n        /* \"#utility.yul\":6388:6460   */\n      tag_155\n        /* \"#utility.yul\":6456:6458   */\n      0x20\n        /* \"#utility.yul\":6445:6454   */\n      dup4\n        /* \"#utility.yul\":6441:6459   */\n      add\n        /* \"#utility.yul\":6432:6438   */\n      dup5\n        /* \"#utility.yul\":6388:6460   */\n      tag_68\n      jump\t// in\n    tag_155:\n        /* \"#utility.yul\":6135:6467   */\n      swap4\n      swap3\n      pop\n      pop\n      pop\n      jump\t// out\n        /* \"#utility.yul\":6473:6589   */\n    tag_76:\n        /* \"#utility.yul\":6543:6564   */\n      tag_157\n        /* \"#utility.yul\":6558:6563   */\n      dup2\n        /* \"#utility.yul\":6543:6564   */\n      tag_66\n      jump\t// in\n    tag_157:\n        /* \"#utility.yul\":6536:6541   */\n      dup2\n        /* \"#utility.yul\":6533:6565   */\n      eq\n        /* \"#utility.yul\":6523:6583   */\n      tag_158\n      jumpi\n        /* \"#utility.yul\":6579:6580   */\n      0x00\n        /* \"#utility.yul\":6576:6577   */\n      dup1\n        /* \"#utility.yul\":6569:6581   */\n      revert\n        /* \"#utility.yul\":6523:6583   */\n    tag_158:\n        /* \"#utility.yul\":6473:6589   */\n      pop\n      jump\t// out\n        /* \"#utility.yul\":6595:6732   */\n    tag_77:\n        /* \"#utility.yul\":6649:6654   */\n      0x00\n        /* \"#utility.yul\":6680:6686   */\n      dup2\n        /* \"#utility.yul\":6674:6687   */\n      mload\n        /* \"#utility.yul\":6665:6687   */\n      swap1\n      pop\n        /* \"#utility.yul\":6696:6726   */\n      tag_160\n        /* \"#utility.yul\":6720:6725   */\n      dup2\n        /* \"#utility.yul\":6696:6726   */\n      tag_76\n      jump\t// in\n    tag_160:\n        /* \"#utility.yul\":6595:6732   */\n      swap3\n      swap2\n      pop\n      pop\n      jump\t// out\n        /* \"#utility.yul\":6738:7083   */\n    tag_38:\n        /* \"#utility.yul\":6805:6811   */\n      0x00\n        /* \"#utility.yul\":6854:6856   */\n      0x20\n        /* \"#utility.yul\":6842:6851   */\n      dup3\n        /* \"#utility.yul\":6833:6840   */\n      dup5\n        /* \"#utility.yul\":6829:6852   */\n      sub\n        /* \"#utility.yul\":6825:6857   */\n      slt\n        /* \"#utility.yul\":6822:6941   */\n      iszero\n      tag_162\n      jumpi\n        /* \"#utility.yul\":6860:6939   */\n      tag_163\n      tag_57\n      jump\t// in\n    tag_163:\n        /* \"#utility.yul\":6822:6941   */\n    tag_162:\n        /* \"#utility.yul\":6980:6981   */\n      0x00\n        /* \"#utility.yul\":7005:7066   */\n      tag_164\n        /* \"#utility.yul\":7058:7065   */\n      dup5\n        /* \"#utility.yul\":7049:7055   */\n      dup3\n        /* \"#utility.yul\":7038:7047   */\n      dup6\n        /* \"#utility.yul\":7034:7056   */\n      add\n        /* \"#utility.yul\":7005:7066   */\n      tag_77\n      jump\t// in\n    tag_164:\n        /* \"#utility.yul\":6995:7066   */\n      swap2\n      pop\n        /* \"#utility.yul\":6951:7076   */\n      pop\n        /* \"#utility.yul\":6738:7083   */\n      swap3\n      swap2\n      pop\n      pop\n      jump\t// out\n        /* \"#utility.yul\":7089:7257   */\n    tag_78:\n        /* \"#utility.yul\":7172:7183   */\n      0x00\n        /* \"#utility.yul\":7206:7212   */\n      dup3\n        /* \"#utility.yul\":7201:7204   */\n      dup3\n        /* \"#utility.yul\":7194:7213   */\n      mstore\n        /* \"#utility.yul\":7246:7250   */\n      0x20\n        /* \"#utility.yul\":7241:7244   */\n      dup3\n        /* \"#utility.yul\":7237:7251   */\n      add\n        /* \"#utility.yul\":7222:7251   */\n      swap1\n      pop\n        /* \"#utility.yul\":7089:7257   */\n      swap3\n      swap2\n      pop\n      pop\n      jump\t// out\n        /* \"#utility.yul\":7263:7417   */\n    tag_79:\n        /* \"#utility.yul\":7403:7409   */\n      0x3078303000000000000000000000000000000000000000000000000000000000\n        /* \"#utility.yul\":7399:7400   */\n      0x00\n        /* \"#utility.yul\":7391:7397   */\n      dup3\n        /* \"#utility.yul\":7387:7401   */\n      add\n        /* \"#utility.yul\":7380:7410   */\n      mstore\n        /* \"#utility.yul\":7263:7417   */\n      pop\n      jump\t// out\n        /* \"#utility.yul\":7423:7786   */\n    tag_80:\n        /* \"#utility.yul\":7564:7567   */\n      0x00\n        /* \"#utility.yul\":7585:7650   */\n      tag_168\n        /* \"#utility.yul\":7648:7649   */\n      0x04\n        /* \"#utility.yul\":7643:7646   */\n      dup4\n        /* \"#utility.yul\":7585:7650   */\n      tag_78\n      jump\t// in\n    tag_168:\n        /* \"#utility.yul\":7578:7650   */\n      swap2\n      pop\n        /* \"#utility.yul\":7659:7752   */\n      tag_169\n        /* \"#utility.yul\":7748:7751   */\n      dup3\n        /* \"#utility.yul\":7659:7752   */\n      tag_79\n      jump\t// in\n    tag_169:\n        /* \"#utility.yul\":7777:7779   */\n      0x20\n        /* \"#utility.yul\":7772:7775   */\n      dup3\n        /* \"#utility.yul\":7768:7780   */\n      add\n        /* \"#utility.yul\":7761:7780   */\n      swap1\n      pop\n        /* \"#utility.yul\":7423:7786   */\n      swap2\n      swap1\n      pop\n      jump\t// out\n        /* \"#utility.yul\":7792:8651   */\n    tag_40:\n        /* \"#utility.yul\":8069:8073   */\n      0x00\n        /* \"#utility.yul\":8107:8110   */\n      0xa0\n        /* \"#utility.yul\":8096:8105   */\n      dup3\n        /* \"#utility.yul\":8092:8111   */\n      add\n        /* \"#utility.yul\":8084:8111   */\n      swap1\n      pop\n        /* \"#utility.yul\":8121:8192   */\n      tag_171\n        /* \"#utility.yul\":8189:8190   */\n      0x00\n        /* \"#utility.yul\":8178:8187   */\n      dup4\n        /* \"#utility.yul\":8174:8191   */\n      add\n        /* \"#utility.yul\":8165:8171   */\n      dup8\n        /* \"#utility.yul\":8121:8192   */\n      tag_69\n      jump\t// in\n    tag_171:\n        /* \"#utility.yul\":8202:8274   */\n      tag_172\n        /* \"#utility.yul\":8270:8272   */\n      0x20\n        /* \"#utility.yul\":8259:8268   */\n      dup4\n        /* \"#utility.yul\":8255:8273   */\n      add\n        /* \"#utility.yul\":8246:8252   */\n      dup7\n        /* \"#utility.yul\":8202:8274   */\n      tag_69\n      jump\t// in\n    tag_172:\n        /* \"#utility.yul\":8284:8356   */\n      tag_173\n        /* \"#utility.yul\":8352:8354   */\n      0x40\n        /* \"#utility.yul\":8341:8350   */\n      dup4\n        /* \"#utility.yul\":8337:8355   */\n      add\n        /* \"#utility.yul\":8328:8334   */\n      dup6\n        /* \"#utility.yul\":8284:8356   */\n      tag_68\n      jump\t// in\n    tag_173:\n        /* \"#utility.yul\":8366:8438   */\n      tag_174\n        /* \"#utility.yul\":8434:8436   */\n      0x60\n        /* \"#utility.yul\":8423:8432   */\n      dup4\n        /* \"#utility.yul\":8419:8437   */\n      add\n        /* \"#utility.yul\":8410:8416   */\n      dup5\n        /* \"#utility.yul\":8366:8438   */\n      tag_68\n      jump\t// in\n    tag_174:\n        /* \"#utility.yul\":8486:8495   */\n      dup2\n        /* \"#utility.yul\":8480:8484   */\n      dup2\n        /* \"#utility.yul\":8476:8496   */\n      sub\n        /* \"#utility.yul\":8470:8473   */\n      0x80\n        /* \"#utility.yul\":8459:8468   */\n      dup4\n        /* \"#utility.yul\":8455:8474   */\n      add\n        /* \"#utility.yul\":8448:8497   */\n      mstore\n        /* \"#utility.yul\":8514:8644   */\n      tag_175\n        /* \"#utility.yul\":8639:8643   */\n      dup2\n        /* \"#utility.yul\":8514:8644   */\n      tag_80\n      jump\t// in\n    tag_175:\n        /* \"#utility.yul\":8506:8644   */\n      swap1\n      pop\n        /* \"#utility.yul\":7792:8651   */\n      swap6\n      swap5\n      pop\n      pop\n      pop\n      pop\n      pop\n      jump\t// out\n        /* \"#utility.yul\":8657:8837   */\n    tag_81:\n        /* \"#utility.yul\":8705:8782   */\n      0x4e487b7100000000000000000000000000000000000000000000000000000000\n        /* \"#utility.yul\":8702:8703   */\n      0x00\n        /* \"#utility.yul\":8695:8783   */\n      mstore\n        /* \"#utility.yul\":8802:8806   */\n      0x11\n        /* \"#utility.yul\":8799:8800   */\n      0x04\n        /* \"#utility.yul\":8792:8807   */\n      mstore\n        /* \"#utility.yul\":8826:8830   */\n      0x24\n        /* \"#utility.yul\":8823:8824   */\n      0x00\n        /* \"#utility.yul\":8816:8831   */\n      revert\n        /* \"#utility.yul\":8843:9148   */\n    tag_50:\n        /* \"#utility.yul\":8883:8886   */\n      0x00\n        /* \"#utility.yul\":8902:8922   */\n      tag_178\n        /* \"#utility.yul\":8920:8921   */\n      dup3\n        /* \"#utility.yul\":8902:8922   */\n      tag_59\n      jump\t// in\n    tag_178:\n        /* \"#utility.yul\":8897:8922   */\n      swap2\n      pop\n        /* \"#utility.yul\":8936:8956   */\n      tag_179\n        /* \"#utility.yul\":8954:8955   */\n      dup4\n        /* \"#utility.yul\":8936:8956   */\n      tag_59\n      jump\t// in\n    tag_179:\n        /* \"#utility.yul\":8931:8956   */\n      swap3\n      pop\n        /* \"#utility.yul\":9090:9091   */\n      dup3\n        /* \"#utility.yul\":9022:9088   */\n      0xffffffffffffffffffffffffffffffffffffffffffffffffffffffffffffffff\n        /* \"#utility.yul\":9018:9092   */\n      sub\n        /* \"#utility.yul\":9015:9016   */\n      dup3\n        /* \"#utility.yul\":9012:9093   */\n      gt\n        /* \"#utility.yul\":9009:9116   */\n      iszero\n      tag_180\n      jumpi\n        /* \"#utility.yul\":9096:9114   */\n      tag_181\n      tag_81\n      jump\t// in\n    tag_181:\n        /* \"#utility.yul\":9009:9116   */\n    tag_180:\n        /* \"#utility.yul\":9140:9141   */\n      dup3\n        /* \"#utility.yul\":9137:9138   */\n      dup3\n        /* \"#utility.yul\":9133:9142   */\n      add\n        /* \"#utility.yul\":9126:9142   */\n      swap1\n      pop\n        /* \"#utility.yul\":8843:9148   */\n      swap3\n      swap2\n      pop\n      pop\n      jump\t// out\n        /* \"#utility.yul\":9154:9308   */\n    tag_82:\n        /* \"#utility.yul\":9238:9244   */\n      dup3\n        /* \"#utility.yul\":9233:9236   */\n      dup2\n        /* \"#utility.yul\":9228:9231   */\n      dup4\n        /* \"#utility.yul\":9215:9245   */\n      calldatacopy\n        /* \"#utility.yul\":9300:9301   */\n      0x00\n        /* \"#utility.yul\":9291:9297   */\n      dup4\n        /* \"#utility.yul\":9286:9289   */\n      dup4\n        /* \"#utility.yul\":9282:9298   */\n      add\n        /* \"#utility.yul\":9275:9302   */\n      mstore\n        /* \"#utility.yul\":9154:9308   */\n      pop\n      pop\n      pop\n      jump\t// out\n        /* \"#utility.yul\":9314:9416   */\n    tag_83:\n        /* \"#utility.yul\":9355:9361   */\n      0x00\n        /* \"#utility.yul\":9406:9408   */\n      0x1f\n        /* \"#utility.yul\":9402:9409   */\n      not\n        /* \"#utility.yul\":9397:9399   */\n      0x1f\n        /* \"#utility.yul\":9390:9395   */\n      dup4\n        /* \"#utility.yul\":9386:9400   */\n      add\n        /* \"#utility.yul\":9382:9410   */\n      and\n        /* \"#utility.yul\":9372:9410   */\n      swap1\n      pop\n        /* \"#utility.yul\":9314:9416   */\n      swap2\n      swap1\n      pop\n      jump\t// out\n        /* \"#utility.yul\":9444:9745   */\n    tag_84:\n        /* \"#utility.yul\":9540:9543   */\n      0x00\n        /* \"#utility.yul\":9561:9631   */\n      tag_185\n        /* \"#utility.yul\":9624:9630   */\n      dup4\n        /* \"#utility.yul\":9619:9622   */\n      dup6\n        /* \"#utility.yul\":9561:9631   */\n      tag_78\n      jump\t// in\n    tag_185:\n        /* \"#utility.yul\":9554:9631   */\n      swap4\n      pop\n        /* \"#utility.yul\":9641:9684   */\n      tag_186\n        /* \"#utility.yul\":9677:9683   */\n      dup4\n        /* \"#utility.yul\":9672:9675   */\n      dup6\n        /* \"#utility.yul\":9665:9670   */\n      dup5\n        /* \"#utility.yul\":9641:9684   */\n      tag_82\n      jump\t// in\n    tag_186:\n        /* \"#utility.yul\":9709:9738   */\n      tag_187\n        /* \"#utility.yul\":9731:9737   */\n      dup4\n        /* \"#utility.yul\":9709:9738   */\n      tag_83\n      jump\t// in\n    tag_187:\n        /* \"#utility.yul\":9704:9707   */\n      dup5\n        /* \"#utility.yul\":9700:9739   */\n      add\n        /* \"#utility.yul\":9693:9739   */\n      swap1\n      pop\n        /* \"#utility.yul\":9444:9745   */\n      swap4\n      swap3\n      pop\n      pop\n      pop\n      jump\t// out\n        /* \"#utility.yul\":9751:10633   */\n    tag_52:\n        /* \"#utility.yul\":10012:10016   */\n      0x00\n        /* \"#utility.yul\":10050:10053   */\n      0xc0\n        /* \"#utility.yul\":10039:10048   */\n      dup3\n        /* \"#utility.yul\":10035:10054   */\n      add\n        /* \"#utility.yul\":10027:10054   */\n      swap1\n      pop\n        /* \"#utility.yul\":10064:10135   */\n      tag_189\n        /* \"#utility.yul\":10132:10133   */\n      0x00\n        /* \"#utility.yul\":10121:10130   */\n      dup4\n        /* \"#utility.yul\":10117:10134   */\n      add\n        /* \"#utility.yul\":10108:10114   */\n      dup11\n        /* \"#utility.yul\":10064:10135   */\n      tag_69\n      jump\t// in\n    tag_189:\n        /* \"#utility.yul\":10145:10217   */\n      tag_190\n        /* \"#utility.yul\":10213:10215   */\n      0x20\n        /* \"#utility.yul\":10202:10211   */\n      dup4\n        /* \"#utility.yul\":10198:10216   */\n      add\n        /* \"#utility.yul\":10189:10195   */\n      dup10\n        /* \"#utility.yul\":10145:10217   */\n      tag_69\n      jump\t// in\n    tag_190:\n        /* \"#utility.yul\":10227:10299   */\n      tag_191\n        /* \"#utility.yul\":10295:10297   */\n      0x40\n        /* \"#utility.yul\":10284:10293   */\n      dup4\n        /* \"#utility.yul\":10280:10298   */\n      add\n        /* \"#utility.yul\":10271:10277   */\n      dup9\n        /* \"#utility.yul\":10227:10299   */\n      tag_68\n      jump\t// in\n    tag_191:\n        /* \"#utility.yul\":10309:10381   */\n      tag_192\n        /* \"#utility.yul\":10377:10379   */\n      0x60\n        /* \"#utility.yul\":10366:10375   */\n      dup4\n        /* \"#utility.yul\":10362:10380   */\n      add\n        /* \"#utility.yul\":10353:10359   */\n      dup8\n        /* \"#utility.yul\":10309:10381   */\n      tag_68\n      jump\t// in\n    tag_192:\n        /* \"#utility.yul\":10429:10438   */\n      dup2\n        /* \"#utility.yul\":10423:10427   */\n      dup2\n        /* \"#utility.yul\":10419:10439   */\n      sub\n        /* \"#utility.yul\":10413:10416   */\n      0x80\n        /* \"#utility.yul\":10402:10411   */\n      dup4\n        /* \"#utility.yul\":10398:10417   */\n      add\n        /* \"#utility.yul\":10391:10440   */\n      mstore\n        /* \"#utility.yul\":10457:10543   */\n      tag_193\n        /* \"#utility.yul\":10538:10542   */\n      dup2\n        /* \"#utility.yul\":10529:10535   */\n      dup6\n        /* \"#utility.yul\":10521:10527   */\n      dup8\n        /* \"#utility.yul\":10457:10543   */\n      tag_84\n      jump\t// in\n    tag_193:\n        /* \"#utility.yul\":10449:10543   */\n      swap1\n      pop\n        /* \"#utility.yul\":10553:10626   */\n      tag_194\n        /* \"#utility.yul\":10621:10624   */\n      0xa0\n        /* \"#utility.yul\":10610:10619   */\n      dup4\n        /* \"#utility.yul\":10606:10625   */\n      add\n        /* \"#utility.yul\":10597:10603   */\n      dup5\n        /* \"#utility.yul\":10553:10626   */\n      tag_68\n      jump\t// in\n    tag_194:\n        /* \"#utility.yul\":9751:10633   */\n      swap9\n      swap8\n      pop\n      pop\n      pop\n      pop\n      pop\n      pop\n      pop\n      pop\n      jump\t// out\n        /* \"#utility.yul\":10639:10830   */\n    tag_55:\n        /* \"#utility.yul\":10679:10683   */\n      0x00\n        /* \"#utility.yul\":10699:10719   */\n      tag_196\n        /* \"#utility.yul\":10717:10718   */\n      dup3\n        /* \"#utility.yul\":10699:10719   */\n      tag_59\n      jump\t// in\n    tag_196:\n        /* \"#utility.yul\":10694:10719   */\n      swap2\n      pop\n        /* \"#utility.yul\":10733:10753   */\n      tag_197\n        /* \"#utility.yul\":10751:10752   */\n      dup4\n        /* \"#utility.yul\":10733:10753   */\n      tag_59\n      jump\t// in\n    tag_197:\n        /* \"#utility.yul\":10728:10753   */\n      swap3\n      pop\n        /* \"#utility.yul\":10772:10773   */\n      dup3\n        /* \"#utility.yul\":10769:10770   */\n      dup3\n        /* \"#utility.yul\":10766:10774   */\n      lt\n        /* \"#utility.yul\":10763:10797   */\n      iszero\n      tag_198\n      jumpi\n        /* \"#utility.yul\":10777:10795   */\n      tag_199\n      tag_81\n      jump\t// in\n    tag_199:\n        /* \"#utility.yul\":10763:10797   */\n    tag_198:\n        /* \"#utility.yul\":10822:10823   */\n      dup3\n        /* \"#utility.yul\":10819:10820   */\n      dup3\n        /* \"#utility.yul\":10815:10824   */\n      sub\n        /* \"#utility.yul\":10807:10824   */\n      swap1\n      pop\n        /* \"#utility.yul\":10639:10830   */\n      swap3\n      swap2\n      pop\n      pop\n      jump\t// out\n\n    auxdata: 0xa2646970667358221220a6ac5afd689c2cd10ee90ce77b67764d246136275e14300ce411643bb7ffa34f64736f6c634300080a0033\n}\n",
				"bytecode": {
					"linkReferences": {},
					"object": "608060405234801561001057600080fd5b506109f4806100206000396000f3fe60806040526004361061003f5760003560e01c80636ec0feda146100445780638b0d025814610074578063aacdfe6f146100b1578063f23a6e61146100ee575b600080fd5b61005e60048036038101906100599190610490565b61012b565b60405161006b9190610526565b60405180910390f35b34801561008057600080fd5b5061009b60048036038101906100969190610541565b610266565b6040516100a8919061057d565b60405180910390f35b3480156100bd57600080fd5b506100d860048036038101906100d39190610541565b610283565b6040516100e591906105a7565b60405180910390f35b3480156100fa57600080fd5b5061011560048036038101906101109190610627565b6102bf565b60405161012291906106fc565b60405180910390f35b60008173ffffffffffffffffffffffffffffffffffffffff1663a9059cbb60008089815260200190815260200160002060009054906101000a900473ffffffffffffffffffffffffffffffffffffffff16866040518363ffffffff1660e01b815260040161019a929190610717565b6020604051808303816000875af11580156101b9573d6000803e3d6000fd5b505050506040513d601f19601f820116820180604052508101906101dd919061076c565b508273ffffffffffffffffffffffffffffffffffffffff1663f242432a303389896040518563ffffffff1660e01b815260040161021d94939291906107f6565b600060405180830381600087803b15801561023757600080fd5b505af115801561024b573d6000803e3d6000fd5b5050505061025986866103b8565b6001905095945050505050565b600060016000838152602001908152602001600020549050919050565b600080600083815260200190815260200160002060009054906101000a900473ffffffffffffffffffffffffffffffffffffffff169050919050565b60008560008087815260200190815260200160002060006101000a81548173ffffffffffffffffffffffffffffffffffffffff021916908373ffffffffffffffffffffffffffffffffffffffff160217905550836001600087815260200190815260200160002054610331919061087d565b60016000878152602001908152602001600020819055507f20dfa9f79060c8c4d7fe892c97c71bcf6e3b63d1dcf66fea7aefc0211628cf298787878787875a6040516103839796959493929190610920565b60405180910390a17ff23a6e612e1ff4830e658fe43f4e3cb4a5f8170bd5d9e69fb5d7a7fa9e4fdf9790509695505050505050565b8060016000848152602001908152602001600020546103d7919061098a565b60016000848152602001908152602001600020819055505050565b600080fd5b600080fd5b6000819050919050565b61040f816103fc565b811461041a57600080fd5b50565b60008135905061042c81610406565b92915050565b600073ffffffffffffffffffffffffffffffffffffffff82169050919050565b600061045d82610432565b9050919050565b61046d81610452565b811461047857600080fd5b50565b60008135905061048a81610464565b92915050565b600080600080600060a086880312156104ac576104ab6103f2565b5b60006104ba8882890161041d565b95505060206104cb8882890161041d565b94505060406104dc8882890161041d565b93505060606104ed8882890161047b565b92505060806104fe8882890161047b565b9150509295509295909350565b60008115159050919050565b6105208161050b565b82525050565b600060208201905061053b6000830184610517565b92915050565b600060208284031215610557576105566103f2565b5b60006105658482850161041d565b91505092915050565b610577816103fc565b82525050565b6000602082019050610592600083018461056e565b92915050565b6105a181610452565b82525050565b60006020820190506105bc6000830184610598565b92915050565b600080fd5b600080fd5b600080fd5b60008083601f8401126105e7576105e66105c2565b5b8235905067ffffffffffffffff811115610604576106036105c7565b5b6020830191508360018202830111156106205761061f6105cc565b5b9250929050565b60008060008060008060a08789031215610644576106436103f2565b5b600061065289828a0161047b565b965050602061066389828a0161047b565b955050604061067489828a0161041d565b945050606061068589828a0161041d565b935050608087013567ffffffffffffffff8111156106a6576106a56103f7565b5b6106b289828a016105d1565b92509250509295509295509295565b60007fffffffff0000000000000000000000000000000000000000000000000000000082169050919050565b6106f6816106c1565b82525050565b600060208201905061071160008301846106ed565b92915050565b600060408201905061072c6000830185610598565b610739602083018461056e565b9392505050565b6107498161050b565b811461075457600080fd5b50565b60008151905061076681610740565b92915050565b600060208284031215610782576107816103f2565b5b600061079084828501610757565b91505092915050565b600082825260208201905092915050565b7f3078303000000000000000000000000000000000000000000000000000000000600082015250565b60006107e0600483610799565b91506107eb826107aa565b602082019050919050565b600060a08201905061080b6000830187610598565b6108186020830186610598565b610825604083018561056e565b610832606083018461056e565b8181036080830152610843816107d3565b905095945050505050565b7f4e487b7100000000000000000000000000000000000000000000000000000000600052601160045260246000fd5b6000610888826103fc565b9150610893836103fc565b9250827fffffffffffffffffffffffffffffffffffffffffffffffffffffffffffffffff038211156108c8576108c761084e565b5b828201905092915050565b82818337600083830152505050565b6000601f19601f8301169050919050565b60006108ff8385610799565b935061090c8385846108d3565b610915836108e2565b840190509392505050565b600060c082019050610935600083018a610598565b6109426020830189610598565b61094f604083018861056e565b61095c606083018761056e565b818103608083015261096f8185876108f3565b905061097e60a083018461056e565b98975050505050505050565b6000610995826103fc565b91506109a0836103fc565b9250828210156109b3576109b261084e565b5b82820390509291505056fea2646970667358221220a6ac5afd689c2cd10ee90ce77b67764d246136275e14300ce411643bb7ffa34f64736f6c634300080a0033",
					"opcodes": "PUSH1 0x80 PUSH1 0x40 MSTORE CALLVALUE DUP1 ISZERO PUSH2 0x10 JUMPI PUSH1 0x0 DUP1 REVERT JUMPDEST POP PUSH2 0x9F4 DUP1 PUSH2 0x20 PUSH1 0x0 CODECOPY PUSH1 0x0 RETURN INVALID PUSH1 0x80 PUSH1 0x40 MSTORE PUSH1 0x4 CALLDATASIZE LT PUSH2 0x3F JUMPI PUSH1 0x0 CALLDATALOAD PUSH1 0xE0 SHR DUP1 PUSH4 0x6EC0FEDA EQ PUSH2 0x44 JUMPI DUP1 PUSH4 0x8B0D0258 EQ PUSH2 0x74 JUMPI DUP1 PUSH4 0xAACDFE6F EQ PUSH2 0xB1 JUMPI DUP1 PUSH4 0xF23A6E61 EQ PUSH2 0xEE JUMPI JUMPDEST PUSH1 0x0 DUP1 REVERT JUMPDEST PUSH2 0x5E PUSH1 0x4 DUP1 CALLDATASIZE SUB DUP2 ADD SWAP1 PUSH2 0x59 SWAP2 SWAP1 PUSH2 0x490 JUMP JUMPDEST PUSH2 0x12B JUMP JUMPDEST PUSH1 0x40 MLOAD PUSH2 0x6B SWAP2 SWAP1 PUSH2 0x526 JUMP JUMPDEST PUSH1 0x40 MLOAD DUP1 SWAP2 SUB SWAP1 RETURN JUMPDEST CALLVALUE DUP1 ISZERO PUSH2 0x80 JUMPI PUSH1 0x0 DUP1 REVERT JUMPDEST POP PUSH2 0x9B PUSH1 0x4 DUP1 CALLDATASIZE SUB DUP2 ADD SWAP1 PUSH2 0x96 SWAP2 SWAP1 PUSH2 0x541 JUMP JUMPDEST PUSH2 0x266 JUMP JUMPDEST PUSH1 0x40 MLOAD PUSH2 0xA8 SWAP2 SWAP1 PUSH2 0x57D JUMP JUMPDEST PUSH1 0x40 MLOAD DUP1 SWAP2 SUB SWAP1 RETURN JUMPDEST CALLVALUE DUP1 ISZERO PUSH2 0xBD JUMPI PUSH1 0x0 DUP1 REVERT JUMPDEST POP PUSH2 0xD8 PUSH1 0x4 DUP1 CALLDATASIZE SUB DUP2 ADD SWAP1 PUSH2 0xD3 SWAP2 SWAP1 PUSH2 0x541 JUMP JUMPDEST PUSH2 0x283 JUMP JUMPDEST PUSH1 0x40 MLOAD PUSH2 0xE5 SWAP2 SWAP1 PUSH2 0x5A7 JUMP JUMPDEST PUSH1 0x40 MLOAD DUP1 SWAP2 SUB SWAP1 RETURN JUMPDEST CALLVALUE DUP1 ISZERO PUSH2 0xFA JUMPI PUSH1 0x0 DUP1 REVERT JUMPDEST POP PUSH2 0x115 PUSH1 0x4 DUP1 CALLDATASIZE SUB DUP2 ADD SWAP1 PUSH2 0x110 SWAP2 SWAP1 PUSH2 0x627 JUMP JUMPDEST PUSH2 0x2BF JUMP JUMPDEST PUSH1 0x40 MLOAD PUSH2 0x122 SWAP2 SWAP1 PUSH2 0x6FC JUMP JUMPDEST PUSH1 0x40 MLOAD DUP1 SWAP2 SUB SWAP1 RETURN JUMPDEST PUSH1 0x0 DUP2 PUSH20 0xFFFFFFFFFFFFFFFFFFFFFFFFFFFFFFFFFFFFFFFF AND PUSH4 0xA9059CBB PUSH1 0x0 DUP1 DUP10 DUP2 MSTORE PUSH1 0x20 ADD SWAP1 DUP2 MSTORE PUSH1 0x20 ADD PUSH1 0x0 KECCAK256 PUSH1 0x0 SWAP1 SLOAD SWAP1 PUSH2 0x100 EXP SWAP1 DIV PUSH20 0xFFFFFFFFFFFFFFFFFFFFFFFFFFFFFFFFFFFFFFFF AND DUP7 PUSH1 0x40 MLOAD DUP4 PUSH4 0xFFFFFFFF AND PUSH1 0xE0 SHL DUP2 MSTORE PUSH1 0x4 ADD PUSH2 0x19A SWAP3 SWAP2 SWAP1 PUSH2 0x717 JUMP JUMPDEST PUSH1 0x20 PUSH1 0x40 MLOAD DUP1 DUP4 SUB DUP2 PUSH1 0x0 DUP8 GAS CALL ISZERO DUP1 ISZERO PUSH2 0x1B9 JUMPI RETURNDATASIZE PUSH1 0x0 DUP1 RETURNDATACOPY RETURNDATASIZE PUSH1 0x0 REVERT JUMPDEST POP POP POP POP PUSH1 0x40 MLOAD RETURNDATASIZE PUSH1 0x1F NOT PUSH1 0x1F DUP3 ADD AND DUP3 ADD DUP1 PUSH1 0x40 MSTORE POP DUP2 ADD SWAP1 PUSH2 0x1DD SWAP2 SWAP1 PUSH2 0x76C JUMP JUMPDEST POP DUP3 PUSH20 0xFFFFFFFFFFFFFFFFFFFFFFFFFFFFFFFFFFFFFFFF AND PUSH4 0xF242432A ADDRESS CALLER DUP10 DUP10 PUSH1 0x40 MLOAD DUP6 PUSH4 0xFFFFFFFF AND PUSH1 0xE0 SHL DUP2 MSTORE PUSH1 0x4 ADD PUSH2 0x21D SWAP5 SWAP4 SWAP3 SWAP2 SWAP1 PUSH2 0x7F6 JUMP JUMPDEST PUSH1 0x0 PUSH1 0x40 MLOAD DUP1 DUP4 SUB DUP2 PUSH1 0x0 DUP8 DUP1 EXTCODESIZE ISZERO DUP1 ISZERO PUSH2 0x237 JUMPI PUSH1 0x0 DUP1 REVERT JUMPDEST POP GAS CALL ISZERO DUP1 ISZERO PUSH2 0x24B JUMPI RETURNDATASIZE PUSH1 0x0 DUP1 RETURNDATACOPY RETURNDATASIZE PUSH1 0x0 REVERT JUMPDEST POP POP POP POP PUSH2 0x259 DUP7 DUP7 PUSH2 0x3B8 JUMP JUMPDEST PUSH1 0x1 SWAP1 POP SWAP6 SWAP5 POP POP POP POP POP JUMP JUMPDEST PUSH1 0x0 PUSH1 0x1 PUSH1 0x0 DUP4 DUP2 MSTORE PUSH1 0x20 ADD SWAP1 DUP2 MSTORE PUSH1 0x20 ADD PUSH1 0x0 KECCAK256 SLOAD SWAP1 POP SWAP2 SWAP1 POP JUMP JUMPDEST PUSH1 0x0 DUP1 PUSH1 0x0 DUP4 DUP2 MSTORE PUSH1 0x20 ADD SWAP1 DUP2 MSTORE PUSH1 0x20 ADD PUSH1 0x0 KECCAK256 PUSH1 0x0 SWAP1 SLOAD SWAP1 PUSH2 0x100 EXP SWAP1 DIV PUSH20 0xFFFFFFFFFFFFFFFFFFFFFFFFFFFFFFFFFFFFFFFF AND SWAP1 POP SWAP2 SWAP1 POP JUMP JUMPDEST PUSH1 0x0 DUP6 PUSH1 0x0 DUP1 DUP8 DUP2 MSTORE PUSH1 0x20 ADD SWAP1 DUP2 MSTORE PUSH1 0x20 ADD PUSH1 0x0 KECCAK256 PUSH1 0x0 PUSH2 0x100 EXP DUP2 SLOAD DUP2 PUSH20 0xFFFFFFFFFFFFFFFFFFFFFFFFFFFFFFFFFFFFFFFF MUL NOT AND SWAP1 DUP4 PUSH20 0xFFFFFFFFFFFFFFFFFFFFFFFFFFFFFFFFFFFFFFFF AND MUL OR SWAP1 SSTORE POP DUP4 PUSH1 0x1 PUSH1 0x0 DUP8 DUP2 MSTORE PUSH1 0x20 ADD SWAP1 DUP2 MSTORE PUSH1 0x20 ADD PUSH1 0x0 KECCAK256 SLOAD PUSH2 0x331 SWAP2 SWAP1 PUSH2 0x87D JUMP JUMPDEST PUSH1 0x1 PUSH1 0x0 DUP8 DUP2 MSTORE PUSH1 0x20 ADD SWAP1 DUP2 MSTORE PUSH1 0x20 ADD PUSH1 0x0 KECCAK256 DUP2 SWAP1 SSTORE POP PUSH32 0x20DFA9F79060C8C4D7FE892C97C71BCF6E3B63D1DCF66FEA7AEFC0211628CF29 DUP8 DUP8 DUP8 DUP8 DUP8 DUP8 GAS PUSH1 0x40 MLOAD PUSH2 0x383 SWAP8 SWAP7 SWAP6 SWAP5 SWAP4 SWAP3 SWAP2 SWAP1 PUSH2 0x920 JUMP JUMPDEST PUSH1 0x40 MLOAD DUP1 SWAP2 SUB SWAP1 LOG1 PUSH32 0xF23A6E612E1FF4830E658FE43F4E3CB4A5F8170BD5D9E69FB5D7A7FA9E4FDF97 SWAP1 POP SWAP7 SWAP6 POP POP POP POP POP POP JUMP JUMPDEST DUP1 PUSH1 0x1 PUSH1 0x0 DUP5 DUP2 MSTORE PUSH1 0x20 ADD SWAP1 DUP2 MSTORE PUSH1 0x20 ADD PUSH1 0x0 KECCAK256 SLOAD PUSH2 0x3D7 SWAP2 SWAP1 PUSH2 0x98A JUMP JUMPDEST PUSH1 0x1 PUSH1 0x0 DUP5 DUP2 MSTORE PUSH1 0x20 ADD SWAP1 DUP2 MSTORE PUSH1 0x20 ADD PUSH1 0x0 KECCAK256 DUP2 SWAP1 SSTORE POP POP POP JUMP JUMPDEST PUSH1 0x0 DUP1 REVERT JUMPDEST PUSH1 0x0 DUP1 REVERT JUMPDEST PUSH1 0x0 DUP2 SWAP1 POP SWAP2 SWAP1 POP JUMP JUMPDEST PUSH2 0x40F DUP2 PUSH2 0x3FC JUMP JUMPDEST DUP2 EQ PUSH2 0x41A JUMPI PUSH1 0x0 DUP1 REVERT JUMPDEST POP JUMP JUMPDEST PUSH1 0x0 DUP2 CALLDATALOAD SWAP1 POP PUSH2 0x42C DUP2 PUSH2 0x406 JUMP JUMPDEST SWAP3 SWAP2 POP POP JUMP JUMPDEST PUSH1 0x0 PUSH20 0xFFFFFFFFFFFFFFFFFFFFFFFFFFFFFFFFFFFFFFFF DUP3 AND SWAP1 POP SWAP2 SWAP1 POP JUMP JUMPDEST PUSH1 0x0 PUSH2 0x45D DUP3 PUSH2 0x432 JUMP JUMPDEST SWAP1 POP SWAP2 SWAP1 POP JUMP JUMPDEST PUSH2 0x46D DUP2 PUSH2 0x452 JUMP JUMPDEST DUP2 EQ PUSH2 0x478 JUMPI PUSH1 0x0 DUP1 REVERT JUMPDEST POP JUMP JUMPDEST PUSH1 0x0 DUP2 CALLDATALOAD SWAP1 POP PUSH2 0x48A DUP2 PUSH2 0x464 JUMP JUMPDEST SWAP3 SWAP2 POP POP JUMP JUMPDEST PUSH1 0x0 DUP1 PUSH1 0x0 DUP1 PUSH1 0x0 PUSH1 0xA0 DUP7 DUP9 SUB SLT ISZERO PUSH2 0x4AC JUMPI PUSH2 0x4AB PUSH2 0x3F2 JUMP JUMPDEST JUMPDEST PUSH1 0x0 PUSH2 0x4BA DUP9 DUP3 DUP10 ADD PUSH2 0x41D JUMP JUMPDEST SWAP6 POP POP PUSH1 0x20 PUSH2 0x4CB DUP9 DUP3 DUP10 ADD PUSH2 0x41D JUMP JUMPDEST SWAP5 POP POP PUSH1 0x40 PUSH2 0x4DC DUP9 DUP3 DUP10 ADD PUSH2 0x41D JUMP JUMPDEST SWAP4 POP POP PUSH1 0x60 PUSH2 0x4ED DUP9 DUP3 DUP10 ADD PUSH2 0x47B JUMP JUMPDEST SWAP3 POP POP PUSH1 0x80 PUSH2 0x4FE DUP9 DUP3 DUP10 ADD PUSH2 0x47B JUMP JUMPDEST SWAP2 POP POP SWAP3 SWAP6 POP SWAP3 SWAP6 SWAP1 SWAP4 POP JUMP JUMPDEST PUSH1 0x0 DUP2 ISZERO ISZERO SWAP1 POP SWAP2 SWAP1 POP JUMP JUMPDEST PUSH2 0x520 DUP2 PUSH2 0x50B JUMP JUMPDEST DUP3 MSTORE POP POP JUMP JUMPDEST PUSH1 0x0 PUSH1 0x20 DUP3 ADD SWAP1 POP PUSH2 0x53B PUSH1 0x0 DUP4 ADD DUP5 PUSH2 0x517 JUMP JUMPDEST SWAP3 SWAP2 POP POP JUMP JUMPDEST PUSH1 0x0 PUSH1 0x20 DUP3 DUP5 SUB SLT ISZERO PUSH2 0x557 JUMPI PUSH2 0x556 PUSH2 0x3F2 JUMP JUMPDEST JUMPDEST PUSH1 0x0 PUSH2 0x565 DUP5 DUP3 DUP6 ADD PUSH2 0x41D JUMP JUMPDEST SWAP2 POP POP SWAP3 SWAP2 POP POP JUMP JUMPDEST PUSH2 0x577 DUP2 PUSH2 0x3FC JUMP JUMPDEST DUP3 MSTORE POP POP JUMP JUMPDEST PUSH1 0x0 PUSH1 0x20 DUP3 ADD SWAP1 POP PUSH2 0x592 PUSH1 0x0 DUP4 ADD DUP5 PUSH2 0x56E JUMP JUMPDEST SWAP3 SWAP2 POP POP JUMP JUMPDEST PUSH2 0x5A1 DUP2 PUSH2 0x452 JUMP JUMPDEST DUP3 MSTORE POP POP JUMP JUMPDEST PUSH1 0x0 PUSH1 0x20 DUP3 ADD SWAP1 POP PUSH2 0x5BC PUSH1 0x0 DUP4 ADD DUP5 PUSH2 0x598 JUMP JUMPDEST SWAP3 SWAP2 POP POP JUMP JUMPDEST PUSH1 0x0 DUP1 REVERT JUMPDEST PUSH1 0x0 DUP1 REVERT JUMPDEST PUSH1 0x0 DUP1 REVERT JUMPDEST PUSH1 0x0 DUP1 DUP4 PUSH1 0x1F DUP5 ADD SLT PUSH2 0x5E7 JUMPI PUSH2 0x5E6 PUSH2 0x5C2 JUMP JUMPDEST JUMPDEST DUP3 CALLDATALOAD SWAP1 POP PUSH8 0xFFFFFFFFFFFFFFFF DUP2 GT ISZERO PUSH2 0x604 JUMPI PUSH2 0x603 PUSH2 0x5C7 JUMP JUMPDEST JUMPDEST PUSH1 0x20 DUP4 ADD SWAP2 POP DUP4 PUSH1 0x1 DUP3 MUL DUP4 ADD GT ISZERO PUSH2 0x620 JUMPI PUSH2 0x61F PUSH2 0x5CC JUMP JUMPDEST JUMPDEST SWAP3 POP SWAP3 SWAP1 POP JUMP JUMPDEST PUSH1 0x0 DUP1 PUSH1 0x0 DUP1 PUSH1 0x0 DUP1 PUSH1 0xA0 DUP8 DUP10 SUB SLT ISZERO PUSH2 0x644 JUMPI PUSH2 0x643 PUSH2 0x3F2 JUMP JUMPDEST JUMPDEST PUSH1 0x0 PUSH2 0x652 DUP10 DUP3 DUP11 ADD PUSH2 0x47B JUMP JUMPDEST SWAP7 POP POP PUSH1 0x20 PUSH2 0x663 DUP10 DUP3 DUP11 ADD PUSH2 0x47B JUMP JUMPDEST SWAP6 POP POP PUSH1 0x40 PUSH2 0x674 DUP10 DUP3 DUP11 ADD PUSH2 0x41D JUMP JUMPDEST SWAP5 POP POP PUSH1 0x60 PUSH2 0x685 DUP10 DUP3 DUP11 ADD PUSH2 0x41D JUMP JUMPDEST SWAP4 POP POP PUSH1 0x80 DUP8 ADD CALLDATALOAD PUSH8 0xFFFFFFFFFFFFFFFF DUP2 GT ISZERO PUSH2 0x6A6 JUMPI PUSH2 0x6A5 PUSH2 0x3F7 JUMP JUMPDEST JUMPDEST PUSH2 0x6B2 DUP10 DUP3 DUP11 ADD PUSH2 0x5D1 JUMP JUMPDEST SWAP3 POP SWAP3 POP POP SWAP3 SWAP6 POP SWAP3 SWAP6 POP SWAP3 SWAP6 JUMP JUMPDEST PUSH1 0x0 PUSH32 0xFFFFFFFF00000000000000000000000000000000000000000000000000000000 DUP3 AND SWAP1 POP SWAP2 SWAP1 POP JUMP JUMPDEST PUSH2 0x6F6 DUP2 PUSH2 0x6C1 JUMP JUMPDEST DUP3 MSTORE POP POP JUMP JUMPDEST PUSH1 0x0 PUSH1 0x20 DUP3 ADD SWAP1 POP PUSH2 0x711 PUSH1 0x0 DUP4 ADD DUP5 PUSH2 0x6ED JUMP JUMPDEST SWAP3 SWAP2 POP POP JUMP JUMPDEST PUSH1 0x0 PUSH1 0x40 DUP3 ADD SWAP1 POP PUSH2 0x72C PUSH1 0x0 DUP4 ADD DUP6 PUSH2 0x598 JUMP JUMPDEST PUSH2 0x739 PUSH1 0x20 DUP4 ADD DUP5 PUSH2 0x56E JUMP JUMPDEST SWAP4 SWAP3 POP POP POP JUMP JUMPDEST PUSH2 0x749 DUP2 PUSH2 0x50B JUMP JUMPDEST DUP2 EQ PUSH2 0x754 JUMPI PUSH1 0x0 DUP1 REVERT JUMPDEST POP JUMP JUMPDEST PUSH1 0x0 DUP2 MLOAD SWAP1 POP PUSH2 0x766 DUP2 PUSH2 0x740 JUMP JUMPDEST SWAP3 SWAP2 POP POP JUMP JUMPDEST PUSH1 0x0 PUSH1 0x20 DUP3 DUP5 SUB SLT ISZERO PUSH2 0x782 JUMPI PUSH2 0x781 PUSH2 0x3F2 JUMP JUMPDEST JUMPDEST PUSH1 0x0 PUSH2 0x790 DUP5 DUP3 DUP6 ADD PUSH2 0x757 JUMP JUMPDEST SWAP2 POP POP SWAP3 SWAP2 POP POP JUMP JUMPDEST PUSH1 0x0 DUP3 DUP3 MSTORE PUSH1 0x20 DUP3 ADD SWAP1 POP SWAP3 SWAP2 POP POP JUMP JUMPDEST PUSH32 0x3078303000000000000000000000000000000000000000000000000000000000 PUSH1 0x0 DUP3 ADD MSTORE POP JUMP JUMPDEST PUSH1 0x0 PUSH2 0x7E0 PUSH1 0x4 DUP4 PUSH2 0x799 JUMP JUMPDEST SWAP2 POP PUSH2 0x7EB DUP3 PUSH2 0x7AA JUMP JUMPDEST PUSH1 0x20 DUP3 ADD SWAP1 POP SWAP2 SWAP1 POP JUMP JUMPDEST PUSH1 0x0 PUSH1 0xA0 DUP3 ADD SWAP1 POP PUSH2 0x80B PUSH1 0x0 DUP4 ADD DUP8 PUSH2 0x598 JUMP JUMPDEST PUSH2 0x818 PUSH1 0x20 DUP4 ADD DUP7 PUSH2 0x598 JUMP JUMPDEST PUSH2 0x825 PUSH1 0x40 DUP4 ADD DUP6 PUSH2 0x56E JUMP JUMPDEST PUSH2 0x832 PUSH1 0x60 DUP4 ADD DUP5 PUSH2 0x56E JUMP JUMPDEST DUP2 DUP2 SUB PUSH1 0x80 DUP4 ADD MSTORE PUSH2 0x843 DUP2 PUSH2 0x7D3 JUMP JUMPDEST SWAP1 POP SWAP6 SWAP5 POP POP POP POP POP JUMP JUMPDEST PUSH32 0x4E487B7100000000000000000000000000000000000000000000000000000000 PUSH1 0x0 MSTORE PUSH1 0x11 PUSH1 0x4 MSTORE PUSH1 0x24 PUSH1 0x0 REVERT JUMPDEST PUSH1 0x0 PUSH2 0x888 DUP3 PUSH2 0x3FC JUMP JUMPDEST SWAP2 POP PUSH2 0x893 DUP4 PUSH2 0x3FC JUMP JUMPDEST SWAP3 POP DUP3 PUSH32 0xFFFFFFFFFFFFFFFFFFFFFFFFFFFFFFFFFFFFFFFFFFFFFFFFFFFFFFFFFFFFFFFF SUB DUP3 GT ISZERO PUSH2 0x8C8 JUMPI PUSH2 0x8C7 PUSH2 0x84E JUMP JUMPDEST JUMPDEST DUP3 DUP3 ADD SWAP1 POP SWAP3 SWAP2 POP POP JUMP JUMPDEST DUP3 DUP2 DUP4 CALLDATACOPY PUSH1 0x0 DUP4 DUP4 ADD MSTORE POP POP POP JUMP JUMPDEST PUSH1 0x0 PUSH1 0x1F NOT PUSH1 0x1F DUP4 ADD AND SWAP1 POP SWAP2 SWAP1 POP JUMP JUMPDEST PUSH1 0x0 PUSH2 0x8FF DUP4 DUP6 PUSH2 0x799 JUMP JUMPDEST SWAP4 POP PUSH2 0x90C DUP4 DUP6 DUP5 PUSH2 0x8D3 JUMP JUMPDEST PUSH2 0x915 DUP4 PUSH2 0x8E2 JUMP JUMPDEST DUP5 ADD SWAP1 POP SWAP4 SWAP3 POP POP POP JUMP JUMPDEST PUSH1 0x0 PUSH1 0xC0 DUP3 ADD SWAP1 POP PUSH2 0x935 PUSH1 0x0 DUP4 ADD DUP11 PUSH2 0x598 JUMP JUMPDEST PUSH2 0x942 PUSH1 0x20 DUP4 ADD DUP10 PUSH2 0x598 JUMP JUMPDEST PUSH2 0x94F PUSH1 0x40 DUP4 ADD DUP9 PUSH2 0x56E JUMP JUMPDEST PUSH2 0x95C PUSH1 0x60 DUP4 ADD DUP8 PUSH2 0x56E JUMP JUMPDEST DUP2 DUP2 SUB PUSH1 0x80 DUP4 ADD MSTORE PUSH2 0x96F DUP2 DUP6 DUP8 PUSH2 0x8F3 JUMP JUMPDEST SWAP1 POP PUSH2 0x97E PUSH1 0xA0 DUP4 ADD DUP5 PUSH2 0x56E JUMP JUMPDEST SWAP9 SWAP8 POP POP POP POP POP POP POP POP JUMP JUMPDEST PUSH1 0x0 PUSH2 0x995 DUP3 PUSH2 0x3FC JUMP JUMPDEST SWAP2 POP PUSH2 0x9A0 DUP4 PUSH2 0x3FC JUMP JUMPDEST SWAP3 POP DUP3 DUP3 LT ISZERO PUSH2 0x9B3 JUMPI PUSH2 0x9B2 PUSH2 0x84E JUMP JUMPDEST JUMPDEST DUP3 DUP3 SUB SWAP1 POP SWAP3 SWAP2 POP POP JUMP INVALID LOG2 PUSH5 0x6970667358 0x22 SLT KECCAK256 0xA6 0xAC GAS REVERT PUSH9 0x9C2CD10EE90CE77B67 PUSH23 0x4D246136275E14300CE411643BB7FFA34F64736F6C6343 STOP ADDMOD EXP STOP CALLER "
				},
				"gasEstimates": {
					"creation": {
						"codeDepositCost": "509600",
						"executionCost": "543",
						"totalCost": "510143"
					},
					"external": {
						"amount(uint256)": "infinite",
						"buyCoupon(uint256,uint256,uint256,address,address)": "infinite",
						"onERC1155Received(address,address,uint256,uint256,bytes)": "infinite",
						"seller(uint256)": "2887"
					},
					"internal": {
						"_reduceAmount(uint256,uint256)": "infinite"
					}
				},
				"methodIdentifiers": {
					"amount(uint256)": "8b0d0258",
					"buyCoupon(uint256,uint256,uint256,address,address)": "6ec0feda",
					"onERC1155Received(address,address,uint256,uint256,bytes)": "f23a6e61",
					"seller(uint256)": "aacdfe6f"
				}
			},
			"storageLayout": {
				"storage": [
					{
						"astId": 37,
						"contract": "contracts/CouponMarket.sol:CouponMarket",
						"label": "_seller",
						"offset": 0,
						"slot": "0",
						"type": "t_mapping(t_uint256,t_address)"
					},
					{
						"astId": 41,
						"contract": "contracts/CouponMarket.sol:CouponMarket",
						"label": "_amount",
						"offset": 0,
						"slot": "1",
						"type": "t_mapping(t_uint256,t_uint256)"
					}
				],
				"types": {
					"t_address": {
						"encoding": "inplace",
						"label": "address",
						"numberOfBytes": "20"
					},
					"t_mapping(t_uint256,t_address)": {
						"encoding": "mapping",
						"key": "t_uint256",
						"label": "mapping(uint256 => address)",
						"numberOfBytes": "32",
						"value": "t_address"
					},
					"t_mapping(t_uint256,t_uint256)": {
						"encoding": "mapping",
						"key": "t_uint256",
						"label": "mapping(uint256 => uint256)",
						"numberOfBytes": "32",
						"value": "t_uint256"
					},
					"t_uint256": {
						"encoding": "inplace",
						"label": "uint256",
						"numberOfBytes": "32"
					}
				}
			},
			"userdoc": {
				"kind": "user",
				"methods": {},
				"version": 1
			}
		}
	}
}