{
	"contracts/CouponMarket.sol": {
		"CouponMarket": {
			"abi": [
				{
					"inputs": [
						{
							"internalType": "uint256",
							"name": "discount",
							"type": "uint256"
						}
					],
					"name": "amount",
					"outputs": [
						{
							"internalType": "uint256",
							"name": "",
							"type": "uint256"
						}
					],
					"stateMutability": "view",
					"type": "function"
				},
				{
					"inputs": [
						{
							"internalType": "uint256",
							"name": "discount",
							"type": "uint256"
						},
						{
							"internalType": "uint256",
							"name": "amount",
							"type": "uint256"
						},
						{
							"internalType": "address",
							"name": "ContractAddr",
							"type": "address"
						}
					],
					"name": "buyCoupon",
					"outputs": [
						{
							"internalType": "bool",
							"name": "",
							"type": "bool"
						}
					],
					"stateMutability": "payable",
					"type": "function"
				},
				{
					"inputs": [
						{
							"internalType": "address",
							"name": "operator",
							"type": "address"
						},
						{
							"internalType": "address",
							"name": "from",
							"type": "address"
						},
						{
							"internalType": "uint256",
							"name": "id",
							"type": "uint256"
						},
						{
							"internalType": "uint256",
							"name": "value",
							"type": "uint256"
						},
						{
							"internalType": "bytes",
							"name": "data",
							"type": "bytes"
						}
					],
					"name": "onERC1155Received",
					"outputs": [
						{
							"internalType": "bytes4",
							"name": "",
							"type": "bytes4"
						}
					],
					"stateMutability": "nonpayable",
					"type": "function"
				},
				{
					"inputs": [
						{
							"internalType": "uint256",
							"name": "discount",
							"type": "uint256"
						}
					],
					"name": "seller",
					"outputs": [
						{
							"internalType": "address",
							"name": "",
							"type": "address"
						}
					],
					"stateMutability": "view",
					"type": "function"
				}
			],
			"devdoc": {
				"kind": "dev",
				"methods": {},
				"version": 1
			},
			"evm": {
				"assembly": "    /* \"contracts/CouponMarket.sol\":505:1927  contract CouponMarket {... */\n  mstore(0x40, 0x80)\n  callvalue\n  dup1\n  iszero\n  tag_1\n  jumpi\n  0x00\n  dup1\n  revert\ntag_1:\n  pop\n  dataSize(sub_0)\n  dup1\n  dataOffset(sub_0)\n  0x00\n  codecopy\n  0x00\n  return\nstop\n\nsub_0: assembly {\n        /* \"contracts/CouponMarket.sol\":505:1927  contract CouponMarket {... */\n      mstore(0x40, 0x80)\n      jumpi(tag_1, lt(calldatasize, 0x04))\n      shr(0xe0, calldataload(0x00))\n      dup1\n      0x01edf85c\n      eq\n      tag_2\n      jumpi\n      dup1\n      0x8b0d0258\n      eq\n      tag_3\n      jumpi\n      dup1\n      0xaacdfe6f\n      eq\n      tag_4\n      jumpi\n      dup1\n      0xf23a6e61\n      eq\n      tag_5\n      jumpi\n    tag_1:\n      0x00\n      dup1\n      revert\n        /* \"contracts/CouponMarket.sol\":854:1352  function buyCoupon(... */\n    tag_2:\n      tag_6\n      0x04\n      dup1\n      calldatasize\n      sub\n      dup2\n      add\n      swap1\n      tag_7\n      swap2\n      swap1\n      tag_8\n      jump\t// in\n    tag_7:\n      tag_9\n      jump\t// in\n    tag_6:\n      mload(0x40)\n      tag_10\n      swap2\n      swap1\n      tag_11\n      jump\t// in\n    tag_10:\n      mload(0x40)\n      dup1\n      swap2\n      sub\n      swap1\n      return\n        /* \"contracts/CouponMarket.sol\":743:848  function amount(uint256 discount) public view returns (uint256) {... */\n    tag_3:\n      callvalue\n      dup1\n      iszero\n      tag_12\n      jumpi\n      0x00\n      dup1\n      revert\n    tag_12:\n      pop\n      tag_13\n      0x04\n      dup1\n      calldatasize\n      sub\n      dup2\n      add\n      swap1\n      tag_14\n      swap2\n      swap1\n      tag_15\n      jump\t// in\n    tag_14:\n      tag_16\n      jump\t// in\n    tag_13:\n      mload(0x40)\n      tag_17\n      swap2\n      swap1\n      tag_18\n      jump\t// in\n    tag_17:\n      mload(0x40)\n      dup1\n      swap2\n      sub\n      swap1\n      return\n        /* \"contracts/CouponMarket.sol\":632:737  function seller(uint256 discount) public view returns (address) {... */\n    tag_4:\n      callvalue\n      dup1\n      iszero\n      tag_19\n      jumpi\n      0x00\n      dup1\n      revert\n    tag_19:\n      pop\n      tag_20\n      0x04\n      dup1\n      calldatasize\n      sub\n      dup2\n      add\n      swap1\n      tag_21\n      swap2\n      swap1\n      tag_15\n      jump\t// in\n    tag_21:\n      tag_22\n      jump\t// in\n    tag_20:\n      mload(0x40)\n      tag_23\n      swap2\n      swap1\n      tag_24\n      jump\t// in\n    tag_23:\n      mload(0x40)\n      dup1\n      swap2\n      sub\n      swap1\n      return\n        /* \"contracts/CouponMarket.sol\":1492:1925  function onERC1155Received(... */\n    tag_5:\n      callvalue\n      dup1\n      iszero\n      tag_25\n      jumpi\n      0x00\n      dup1\n      revert\n    tag_25:\n      pop\n      tag_26\n      0x04\n      dup1\n      calldatasize\n      sub\n      dup2\n      add\n      swap1\n      tag_27\n      swap2\n      swap1\n      tag_28\n      jump\t// in\n    tag_27:\n      tag_29\n      jump\t// in\n    tag_26:\n      mload(0x40)\n      tag_30\n      swap2\n      swap1\n      tag_31\n      jump\t// in\n    tag_30:\n      mload(0x40)\n      dup1\n      swap2\n      sub\n      swap1\n      return\n        /* \"contracts/CouponMarket.sol\":854:1352  function buyCoupon(... */\n    tag_9:\n        /* \"contracts/CouponMarket.sol\":983:987  bool */\n      0x00\n        /* \"contracts/CouponMarket.sol\":999:1023  address payable receiver */\n      dup1\n        /* \"contracts/CouponMarket.sol\":1034:1041  _seller */\n      0x00\n        /* \"contracts/CouponMarket.sol\":1034:1051  _seller[discount] */\n      dup1\n        /* \"contracts/CouponMarket.sol\":1042:1050  discount */\n      dup7\n        /* \"contracts/CouponMarket.sol\":1034:1051  _seller[discount] */\n      dup2\n      mstore\n      0x20\n      add\n      swap1\n      dup2\n      mstore\n      0x20\n      add\n      0x00\n      keccak256\n      0x00\n      swap1\n      sload\n      swap1\n      0x0100\n      exp\n      swap1\n      div\n      0xffffffffffffffffffffffffffffffffffffffff\n      and\n        /* \"contracts/CouponMarket.sol\":999:1052  address payable receiver = payable(_seller[discount]) */\n      swap1\n      pop\n        /* \"contracts/CouponMarket.sol\":1062:1075  uint256 price */\n      0x00\n        /* \"contracts/CouponMarket.sol\":1078:1079  1 */\n      0x01\n        /* \"contracts/CouponMarket.sol\":1062:1079  uint256 price = 1 */\n      swap1\n      pop\n        /* \"contracts/CouponMarket.sol\":1089:1097  receiver */\n      dup2\n        /* \"contracts/CouponMarket.sol\":1089:1106  receiver.transfer */\n      0xffffffffffffffffffffffffffffffffffffffff\n      and\n        /* \"contracts/CouponMarket.sol\":1089:1113  receiver.transfer(price) */\n      0x08fc\n        /* \"contracts/CouponMarket.sol\":1107:1112  price */\n      dup3\n        /* \"contracts/CouponMarket.sol\":1089:1113  receiver.transfer(price) */\n      swap1\n      dup2\n      iszero\n      mul\n      swap1\n      mload(0x40)\n      0x00\n      mload(0x40)\n      dup1\n      dup4\n      sub\n      dup2\n      dup6\n      dup9\n      dup9\n      call\n      swap4\n      pop\n      pop\n      pop\n      pop\n      iszero\n      dup1\n      iszero\n      tag_34\n      jumpi\n      returndatasize\n      0x00\n      dup1\n      returndatacopy\n      revert(0x00, returndatasize)\n    tag_34:\n      pop\n        /* \"contracts/CouponMarket.sol\":1130:1142  ContractAddr */\n      dup4\n        /* \"contracts/CouponMarket.sol\":1123:1160  others(ContractAddr).safeTransferFrom */\n      0xffffffffffffffffffffffffffffffffffffffff\n      and\n      0xf242432a\n        /* \"contracts/CouponMarket.sol\":1182:1186  this */\n      address\n        /* \"contracts/CouponMarket.sol\":1201:1211  msg.sender */\n      caller\n        /* \"contracts/CouponMarket.sol\":1225:1233  discount */\n      dup10\n        /* \"contracts/CouponMarket.sol\":1247:1253  amount */\n      dup10\n        /* \"contracts/CouponMarket.sol\":1123:1283  others(ContractAddr).safeTransferFrom(... */\n      mload(0x40)\n      dup6\n      0xffffffff\n      and\n      0xe0\n      shl\n      dup2\n      mstore\n      0x04\n      add\n      tag_35\n      swap5\n      swap4\n      swap3\n      swap2\n      swap1\n      tag_36\n      jump\t// in\n    tag_35:\n      0x00\n      mload(0x40)\n      dup1\n      dup4\n      sub\n      dup2\n      0x00\n      dup8\n      dup1\n      extcodesize\n      iszero\n      dup1\n      iszero\n      tag_37\n      jumpi\n      0x00\n      dup1\n      revert\n    tag_37:\n      pop\n      gas\n      call\n      iszero\n      dup1\n      iszero\n      tag_39\n      jumpi\n      returndatasize\n      0x00\n      dup1\n      returndatacopy\n      revert(0x00, returndatasize)\n    tag_39:\n      pop\n      pop\n      pop\n      pop\n        /* \"contracts/CouponMarket.sol\":1293:1324  _reduceAmount(discount, amount) */\n      tag_40\n        /* \"contracts/CouponMarket.sol\":1307:1315  discount */\n      dup7\n        /* \"contracts/CouponMarket.sol\":1317:1323  amount */\n      dup7\n        /* \"contracts/CouponMarket.sol\":1293:1306  _reduceAmount */\n      tag_41\n        /* \"contracts/CouponMarket.sol\":1293:1324  _reduceAmount(discount, amount) */\n      jump\t// in\n    tag_40:\n        /* \"contracts/CouponMarket.sol\":1341:1345  true */\n      0x01\n        /* \"contracts/CouponMarket.sol\":1334:1345  return true */\n      swap3\n      pop\n      pop\n      pop\n        /* \"contracts/CouponMarket.sol\":854:1352  function buyCoupon(... */\n      swap4\n      swap3\n      pop\n      pop\n      pop\n      jump\t// out\n        /* \"contracts/CouponMarket.sol\":743:848  function amount(uint256 discount) public view returns (uint256) {... */\n    tag_16:\n        /* \"contracts/CouponMarket.sol\":798:805  uint256 */\n      0x00\n        /* \"contracts/CouponMarket.sol\":824:831  _amount */\n      0x01\n        /* \"contracts/CouponMarket.sol\":824:841  _amount[discount] */\n      0x00\n        /* \"contracts/CouponMarket.sol\":832:840  discount */\n      dup4\n        /* \"contracts/CouponMarket.sol\":824:841  _amount[discount] */\n      dup2\n      mstore\n      0x20\n      add\n      swap1\n      dup2\n      mstore\n      0x20\n      add\n      0x00\n      keccak256\n      sload\n        /* \"contracts/CouponMarket.sol\":817:841  return _amount[discount] */\n      swap1\n      pop\n        /* \"contracts/CouponMarket.sol\":743:848  function amount(uint256 discount) public view returns (uint256) {... */\n      swap2\n      swap1\n      pop\n      jump\t// out\n        /* \"contracts/CouponMarket.sol\":632:737  function seller(uint256 discount) public view returns (address) {... */\n    tag_22:\n        /* \"contracts/CouponMarket.sol\":687:694  address */\n      0x00\n        /* \"contracts/CouponMarket.sol\":713:720  _seller */\n      dup1\n        /* \"contracts/CouponMarket.sol\":713:730  _seller[discount] */\n      0x00\n        /* \"contracts/CouponMarket.sol\":721:729  discount */\n      dup4\n        /* \"contracts/CouponMarket.sol\":713:730  _seller[discount] */\n      dup2\n      mstore\n      0x20\n      add\n      swap1\n      dup2\n      mstore\n      0x20\n      add\n      0x00\n      keccak256\n      0x00\n      swap1\n      sload\n      swap1\n      0x0100\n      exp\n      swap1\n      div\n      0xffffffffffffffffffffffffffffffffffffffff\n      and\n        /* \"contracts/CouponMarket.sol\":706:730  return _seller[discount] */\n      swap1\n      pop\n        /* \"contracts/CouponMarket.sol\":632:737  function seller(uint256 discount) public view returns (address) {... */\n      swap2\n      swap1\n      pop\n      jump\t// out\n        /* \"contracts/CouponMarket.sol\":1492:1925  function onERC1155Received(... */\n    tag_29:\n        /* \"contracts/CouponMarket.sol\":1663:1669  bytes4 */\n      0x00\n        /* \"contracts/CouponMarket.sol\":1695:1699  from */\n      dup6\n        /* \"contracts/CouponMarket.sol\":1681:1688  _seller */\n      0x00\n        /* \"contracts/CouponMarket.sol\":1681:1692  _seller[id] */\n      dup1\n        /* \"contracts/CouponMarket.sol\":1689:1691  id */\n      dup8\n        /* \"contracts/CouponMarket.sol\":1681:1692  _seller[id] */\n      dup2\n      mstore\n      0x20\n      add\n      swap1\n      dup2\n      mstore\n      0x20\n      add\n      0x00\n      keccak256\n      0x00\n        /* \"contracts/CouponMarket.sol\":1681:1699  _seller[id] = from */\n      0x0100\n      exp\n      dup2\n      sload\n      dup2\n      0xffffffffffffffffffffffffffffffffffffffff\n      mul\n      not\n      and\n      swap1\n      dup4\n      0xffffffffffffffffffffffffffffffffffffffff\n      and\n      mul\n      or\n      swap1\n      sstore\n      pop\n        /* \"contracts/CouponMarket.sol\":1737:1742  value */\n      dup4\n        /* \"contracts/CouponMarket.sol\":1723:1730  _amount */\n      0x01\n        /* \"contracts/CouponMarket.sol\":1723:1734  _amount[id] */\n      0x00\n        /* \"contracts/CouponMarket.sol\":1731:1733  id */\n      dup8\n        /* \"contracts/CouponMarket.sol\":1723:1734  _amount[id] */\n      dup2\n      mstore\n      0x20\n      add\n      swap1\n      dup2\n      mstore\n      0x20\n      add\n      0x00\n      keccak256\n      sload\n        /* \"contracts/CouponMarket.sol\":1723:1742  _amount[id] + value */\n      tag_45\n      swap2\n      swap1\n      tag_46\n      jump\t// in\n    tag_45:\n        /* \"contracts/CouponMarket.sol\":1709:1716  _amount */\n      0x01\n        /* \"contracts/CouponMarket.sol\":1709:1720  _amount[id] */\n      0x00\n        /* \"contracts/CouponMarket.sol\":1717:1719  id */\n      dup8\n        /* \"contracts/CouponMarket.sol\":1709:1720  _amount[id] */\n      dup2\n      mstore\n      0x20\n      add\n      swap1\n      dup2\n      mstore\n      0x20\n      add\n      0x00\n      keccak256\n        /* \"contracts/CouponMarket.sol\":1709:1742  _amount[id] = _amount[id] + value */\n      dup2\n      swap1\n      sstore\n      pop\n        /* \"contracts/CouponMarket.sol\":1795:1904  keccak256(... */\n      0xf23a6e612e1ff4830e658fe43f4e3cb4a5f8170bd5d9e69fb5d7a7fa9e4fdf97\n        /* \"contracts/CouponMarket.sol\":1752:1918  return... */\n      swap1\n      pop\n        /* \"contracts/CouponMarket.sol\":1492:1925  function onERC1155Received(... */\n      swap7\n      swap6\n      pop\n      pop\n      pop\n      pop\n      pop\n      pop\n      jump\t// out\n        /* \"contracts/CouponMarket.sol\":1358:1486  function _reduceAmount(uint256 discount, uint256 amount) private {... */\n    tag_41:\n        /* \"contracts/CouponMarket.sol\":1473:1479  amount */\n      dup1\n        /* \"contracts/CouponMarket.sol\":1453:1460  _amount */\n      0x01\n        /* \"contracts/CouponMarket.sol\":1453:1470  _amount[discount] */\n      0x00\n        /* \"contracts/CouponMarket.sol\":1461:1469  discount */\n      dup5\n        /* \"contracts/CouponMarket.sol\":1453:1470  _amount[discount] */\n      dup2\n      mstore\n      0x20\n      add\n      swap1\n      dup2\n      mstore\n      0x20\n      add\n      0x00\n      keccak256\n      sload\n        /* \"contracts/CouponMarket.sol\":1453:1479  _amount[discount] - amount */\n      tag_48\n      swap2\n      swap1\n      tag_49\n      jump\t// in\n    tag_48:\n        /* \"contracts/CouponMarket.sol\":1433:1440  _amount */\n      0x01\n        /* \"contracts/CouponMarket.sol\":1433:1450  _amount[discount] */\n      0x00\n        /* \"contracts/CouponMarket.sol\":1441:1449  discount */\n      dup5\n        /* \"contracts/CouponMarket.sol\":1433:1450  _amount[discount] */\n      dup2\n      mstore\n      0x20\n      add\n      swap1\n      dup2\n      mstore\n      0x20\n      add\n      0x00\n      keccak256\n        /* \"contracts/CouponMarket.sol\":1433:1479  _amount[discount] = _amount[discount] - amount */\n      dup2\n      swap1\n      sstore\n      pop\n        /* \"contracts/CouponMarket.sol\":1358:1486  function _reduceAmount(uint256 discount, uint256 amount) private {... */\n      pop\n      pop\n      jump\t// out\n        /* \"#utility.yul\":88:205   */\n    tag_51:\n        /* \"#utility.yul\":197:198   */\n      0x00\n        /* \"#utility.yul\":194:195   */\n      dup1\n        /* \"#utility.yul\":187:199   */\n      revert\n        /* \"#utility.yul\":211:328   */\n    tag_52:\n        /* \"#utility.yul\":320:321   */\n      0x00\n        /* \"#utility.yul\":317:318   */\n      dup1\n        /* \"#utility.yul\":310:322   */\n      revert\n        /* \"#utility.yul\":334:411   */\n    tag_53:\n        /* \"#utility.yul\":371:378   */\n      0x00\n        /* \"#utility.yul\":400:405   */\n      dup2\n        /* \"#utility.yul\":389:405   */\n      swap1\n      pop\n        /* \"#utility.yul\":334:411   */\n      swap2\n      swap1\n      pop\n      jump\t// out\n        /* \"#utility.yul\":417:539   */\n    tag_54:\n        /* \"#utility.yul\":490:514   */\n      tag_80\n        /* \"#utility.yul\":508:513   */\n      dup2\n        /* \"#utility.yul\":490:514   */\n      tag_53\n      jump\t// in\n    tag_80:\n        /* \"#utility.yul\":483:488   */\n      dup2\n        /* \"#utility.yul\":480:515   */\n      eq\n        /* \"#utility.yul\":470:533   */\n      tag_81\n      jumpi\n        /* \"#utility.yul\":529:530   */\n      0x00\n        /* \"#utility.yul\":526:527   */\n      dup1\n        /* \"#utility.yul\":519:531   */\n      revert\n        /* \"#utility.yul\":470:533   */\n    tag_81:\n        /* \"#utility.yul\":417:539   */\n      pop\n      jump\t// out\n        /* \"#utility.yul\":545:684   */\n    tag_55:\n        /* \"#utility.yul\":591:596   */\n      0x00\n        /* \"#utility.yul\":629:635   */\n      dup2\n        /* \"#utility.yul\":616:636   */\n      calldataload\n        /* \"#utility.yul\":607:636   */\n      swap1\n      pop\n        /* \"#utility.yul\":645:678   */\n      tag_83\n        /* \"#utility.yul\":672:677   */\n      dup2\n        /* \"#utility.yul\":645:678   */\n      tag_54\n      jump\t// in\n    tag_83:\n        /* \"#utility.yul\":545:684   */\n      swap3\n      swap2\n      pop\n      pop\n      jump\t// out\n        /* \"#utility.yul\":690:816   */\n    tag_56:\n        /* \"#utility.yul\":727:734   */\n      0x00\n        /* \"#utility.yul\":767:809   */\n      0xffffffffffffffffffffffffffffffffffffffff\n        /* \"#utility.yul\":760:765   */\n      dup3\n        /* \"#utility.yul\":756:810   */\n      and\n        /* \"#utility.yul\":745:810   */\n      swap1\n      pop\n        /* \"#utility.yul\":690:816   */\n      swap2\n      swap1\n      pop\n      jump\t// out\n        /* \"#utility.yul\":822:918   */\n    tag_57:\n        /* \"#utility.yul\":859:866   */\n      0x00\n        /* \"#utility.yul\":888:912   */\n      tag_86\n        /* \"#utility.yul\":906:911   */\n      dup3\n        /* \"#utility.yul\":888:912   */\n      tag_56\n      jump\t// in\n    tag_86:\n        /* \"#utility.yul\":877:912   */\n      swap1\n      pop\n        /* \"#utility.yul\":822:918   */\n      swap2\n      swap1\n      pop\n      jump\t// out\n        /* \"#utility.yul\":924:1046   */\n    tag_58:\n        /* \"#utility.yul\":997:1021   */\n      tag_88\n        /* \"#utility.yul\":1015:1020   */\n      dup2\n        /* \"#utility.yul\":997:1021   */\n      tag_57\n      jump\t// in\n    tag_88:\n        /* \"#utility.yul\":990:995   */\n      dup2\n        /* \"#utility.yul\":987:1022   */\n      eq\n        /* \"#utility.yul\":977:1040   */\n      tag_89\n      jumpi\n        /* \"#utility.yul\":1036:1037   */\n      0x00\n        /* \"#utility.yul\":1033:1034   */\n      dup1\n        /* \"#utility.yul\":1026:1038   */\n      revert\n        /* \"#utility.yul\":977:1040   */\n    tag_89:\n        /* \"#utility.yul\":924:1046   */\n      pop\n      jump\t// out\n        /* \"#utility.yul\":1052:1191   */\n    tag_59:\n        /* \"#utility.yul\":1098:1103   */\n      0x00\n        /* \"#utility.yul\":1136:1142   */\n      dup2\n        /* \"#utility.yul\":1123:1143   */\n      calldataload\n        /* \"#utility.yul\":1114:1143   */\n      swap1\n      pop\n        /* \"#utility.yul\":1152:1185   */\n      tag_91\n        /* \"#utility.yul\":1179:1184   */\n      dup2\n        /* \"#utility.yul\":1152:1185   */\n      tag_58\n      jump\t// in\n    tag_91:\n        /* \"#utility.yul\":1052:1191   */\n      swap3\n      swap2\n      pop\n      pop\n      jump\t// out\n        /* \"#utility.yul\":1197:1816   */\n    tag_8:\n        /* \"#utility.yul\":1274:1280   */\n      0x00\n        /* \"#utility.yul\":1282:1288   */\n      dup1\n        /* \"#utility.yul\":1290:1296   */\n      0x00\n        /* \"#utility.yul\":1339:1341   */\n      0x60\n        /* \"#utility.yul\":1327:1336   */\n      dup5\n        /* \"#utility.yul\":1318:1325   */\n      dup7\n        /* \"#utility.yul\":1314:1337   */\n      sub\n        /* \"#utility.yul\":1310:1342   */\n      slt\n        /* \"#utility.yul\":1307:1426   */\n      iszero\n      tag_93\n      jumpi\n        /* \"#utility.yul\":1345:1424   */\n      tag_94\n      tag_51\n      jump\t// in\n    tag_94:\n        /* \"#utility.yul\":1307:1426   */\n    tag_93:\n        /* \"#utility.yul\":1465:1466   */\n      0x00\n        /* \"#utility.yul\":1490:1543   */\n      tag_95\n        /* \"#utility.yul\":1535:1542   */\n      dup7\n        /* \"#utility.yul\":1526:1532   */\n      dup3\n        /* \"#utility.yul\":1515:1524   */\n      dup8\n        /* \"#utility.yul\":1511:1533   */\n      add\n        /* \"#utility.yul\":1490:1543   */\n      tag_55\n      jump\t// in\n    tag_95:\n        /* \"#utility.yul\":1480:1543   */\n      swap4\n      pop\n        /* \"#utility.yul\":1436:1553   */\n      pop\n        /* \"#utility.yul\":1592:1594   */\n      0x20\n        /* \"#utility.yul\":1618:1671   */\n      tag_96\n        /* \"#utility.yul\":1663:1670   */\n      dup7\n        /* \"#utility.yul\":1654:1660   */\n      dup3\n        /* \"#utility.yul\":1643:1652   */\n      dup8\n        /* \"#utility.yul\":1639:1661   */\n      add\n        /* \"#utility.yul\":1618:1671   */\n      tag_55\n      jump\t// in\n    tag_96:\n        /* \"#utility.yul\":1608:1671   */\n      swap3\n      pop\n        /* \"#utility.yul\":1563:1681   */\n      pop\n        /* \"#utility.yul\":1720:1722   */\n      0x40\n        /* \"#utility.yul\":1746:1799   */\n      tag_97\n        /* \"#utility.yul\":1791:1798   */\n      dup7\n        /* \"#utility.yul\":1782:1788   */\n      dup3\n        /* \"#utility.yul\":1771:1780   */\n      dup8\n        /* \"#utility.yul\":1767:1789   */\n      add\n        /* \"#utility.yul\":1746:1799   */\n      tag_59\n      jump\t// in\n    tag_97:\n        /* \"#utility.yul\":1736:1799   */\n      swap2\n      pop\n        /* \"#utility.yul\":1691:1809   */\n      pop\n        /* \"#utility.yul\":1197:1816   */\n      swap3\n      pop\n      swap3\n      pop\n      swap3\n      jump\t// out\n        /* \"#utility.yul\":1822:1912   */\n    tag_60:\n        /* \"#utility.yul\":1856:1863   */\n      0x00\n        /* \"#utility.yul\":1899:1904   */\n      dup2\n        /* \"#utility.yul\":1892:1905   */\n      iszero\n        /* \"#utility.yul\":1885:1906   */\n      iszero\n        /* \"#utility.yul\":1874:1906   */\n      swap1\n      pop\n        /* \"#utility.yul\":1822:1912   */\n      swap2\n      swap1\n      pop\n      jump\t// out\n        /* \"#utility.yul\":1918:2027   */\n    tag_61:\n        /* \"#utility.yul\":1999:2020   */\n      tag_100\n        /* \"#utility.yul\":2014:2019   */\n      dup2\n        /* \"#utility.yul\":1999:2020   */\n      tag_60\n      jump\t// in\n    tag_100:\n        /* \"#utility.yul\":1994:1997   */\n      dup3\n        /* \"#utility.yul\":1987:2021   */\n      mstore\n        /* \"#utility.yul\":1918:2027   */\n      pop\n      pop\n      jump\t// out\n        /* \"#utility.yul\":2033:2243   */\n    tag_11:\n        /* \"#utility.yul\":2120:2124   */\n      0x00\n        /* \"#utility.yul\":2158:2160   */\n      0x20\n        /* \"#utility.yul\":2147:2156   */\n      dup3\n        /* \"#utility.yul\":2143:2161   */\n      add\n        /* \"#utility.yul\":2135:2161   */\n      swap1\n      pop\n        /* \"#utility.yul\":2171:2236   */\n      tag_102\n        /* \"#utility.yul\":2233:2234   */\n      0x00\n        /* \"#utility.yul\":2222:2231   */\n      dup4\n        /* \"#utility.yul\":2218:2235   */\n      add\n        /* \"#utility.yul\":2209:2215   */\n      dup5\n        /* \"#utility.yul\":2171:2236   */\n      tag_61\n      jump\t// in\n    tag_102:\n        /* \"#utility.yul\":2033:2243   */\n      swap3\n      swap2\n      pop\n      pop\n      jump\t// out\n        /* \"#utility.yul\":2249:2578   */\n    tag_15:\n        /* \"#utility.yul\":2308:2314   */\n      0x00\n        /* \"#utility.yul\":2357:2359   */\n      0x20\n        /* \"#utility.yul\":2345:2354   */\n      dup3\n        /* \"#utility.yul\":2336:2343   */\n      dup5\n        /* \"#utility.yul\":2332:2355   */\n      sub\n        /* \"#utility.yul\":2328:2360   */\n      slt\n        /* \"#utility.yul\":2325:2444   */\n      iszero\n      tag_104\n      jumpi\n        /* \"#utility.yul\":2363:2442   */\n      tag_105\n      tag_51\n      jump\t// in\n    tag_105:\n        /* \"#utility.yul\":2325:2444   */\n    tag_104:\n        /* \"#utility.yul\":2483:2484   */\n      0x00\n        /* \"#utility.yul\":2508:2561   */\n      tag_106\n        /* \"#utility.yul\":2553:2560   */\n      dup5\n        /* \"#utility.yul\":2544:2550   */\n      dup3\n        /* \"#utility.yul\":2533:2542   */\n      dup6\n        /* \"#utility.yul\":2529:2551   */\n      add\n        /* \"#utility.yul\":2508:2561   */\n      tag_55\n      jump\t// in\n    tag_106:\n        /* \"#utility.yul\":2498:2561   */\n      swap2\n      pop\n        /* \"#utility.yul\":2454:2571   */\n      pop\n        /* \"#utility.yul\":2249:2578   */\n      swap3\n      swap2\n      pop\n      pop\n      jump\t// out\n        /* \"#utility.yul\":2584:2702   */\n    tag_62:\n        /* \"#utility.yul\":2671:2695   */\n      tag_108\n        /* \"#utility.yul\":2689:2694   */\n      dup2\n        /* \"#utility.yul\":2671:2695   */\n      tag_53\n      jump\t// in\n    tag_108:\n        /* \"#utility.yul\":2666:2669   */\n      dup3\n        /* \"#utility.yul\":2659:2696   */\n      mstore\n        /* \"#utility.yul\":2584:2702   */\n      pop\n      pop\n      jump\t// out\n        /* \"#utility.yul\":2708:2930   */\n    tag_18:\n        /* \"#utility.yul\":2801:2805   */\n      0x00\n        /* \"#utility.yul\":2839:2841   */\n      0x20\n        /* \"#utility.yul\":2828:2837   */\n      dup3\n        /* \"#utility.yul\":2824:2842   */\n      add\n        /* \"#utility.yul\":2816:2842   */\n      swap1\n      pop\n        /* \"#utility.yul\":2852:2923   */\n      tag_110\n        /* \"#utility.yul\":2920:2921   */\n      0x00\n        /* \"#utility.yul\":2909:2918   */\n      dup4\n        /* \"#utility.yul\":2905:2922   */\n      add\n        /* \"#utility.yul\":2896:2902   */\n      dup5\n        /* \"#utility.yul\":2852:2923   */\n      tag_62\n      jump\t// in\n    tag_110:\n        /* \"#utility.yul\":2708:2930   */\n      swap3\n      swap2\n      pop\n      pop\n      jump\t// out\n        /* \"#utility.yul\":2936:3054   */\n    tag_63:\n        /* \"#utility.yul\":3023:3047   */\n      tag_112\n        /* \"#utility.yul\":3041:3046   */\n      dup2\n        /* \"#utility.yul\":3023:3047   */\n      tag_57\n      jump\t// in\n    tag_112:\n        /* \"#utility.yul\":3018:3021   */\n      dup3\n        /* \"#utility.yul\":3011:3048   */\n      mstore\n        /* \"#utility.yul\":2936:3054   */\n      pop\n      pop\n      jump\t// out\n        /* \"#utility.yul\":3060:3282   */\n    tag_24:\n        /* \"#utility.yul\":3153:3157   */\n      0x00\n        /* \"#utility.yul\":3191:3193   */\n      0x20\n        /* \"#utility.yul\":3180:3189   */\n      dup3\n        /* \"#utility.yul\":3176:3194   */\n      add\n        /* \"#utility.yul\":3168:3194   */\n      swap1\n      pop\n        /* \"#utility.yul\":3204:3275   */\n      tag_114\n        /* \"#utility.yul\":3272:3273   */\n      0x00\n        /* \"#utility.yul\":3261:3270   */\n      dup4\n        /* \"#utility.yul\":3257:3274   */\n      add\n        /* \"#utility.yul\":3248:3254   */\n      dup5\n        /* \"#utility.yul\":3204:3275   */\n      tag_63\n      jump\t// in\n    tag_114:\n        /* \"#utility.yul\":3060:3282   */\n      swap3\n      swap2\n      pop\n      pop\n      jump\t// out\n        /* \"#utility.yul\":3288:3405   */\n    tag_64:\n        /* \"#utility.yul\":3397:3398   */\n      0x00\n        /* \"#utility.yul\":3394:3395   */\n      dup1\n        /* \"#utility.yul\":3387:3399   */\n      revert\n        /* \"#utility.yul\":3411:3528   */\n    tag_65:\n        /* \"#utility.yul\":3520:3521   */\n      0x00\n        /* \"#utility.yul\":3517:3518   */\n      dup1\n        /* \"#utility.yul\":3510:3522   */\n      revert\n        /* \"#utility.yul\":3534:3651   */\n    tag_66:\n        /* \"#utility.yul\":3643:3644   */\n      0x00\n        /* \"#utility.yul\":3640:3641   */\n      dup1\n        /* \"#utility.yul\":3633:3645   */\n      revert\n        /* \"#utility.yul\":3670:4222   */\n    tag_67:\n        /* \"#utility.yul\":3727:3735   */\n      0x00\n        /* \"#utility.yul\":3737:3743   */\n      dup1\n        /* \"#utility.yul\":3787:3790   */\n      dup4\n        /* \"#utility.yul\":3780:3784   */\n      0x1f\n        /* \"#utility.yul\":3772:3778   */\n      dup5\n        /* \"#utility.yul\":3768:3785   */\n      add\n        /* \"#utility.yul\":3764:3791   */\n      slt\n        /* \"#utility.yul\":3754:3876   */\n      tag_119\n      jumpi\n        /* \"#utility.yul\":3795:3874   */\n      tag_120\n      tag_64\n      jump\t// in\n    tag_120:\n        /* \"#utility.yul\":3754:3876   */\n    tag_119:\n        /* \"#utility.yul\":3908:3914   */\n      dup3\n        /* \"#utility.yul\":3895:3915   */\n      calldataload\n        /* \"#utility.yul\":3885:3915   */\n      swap1\n      pop\n        /* \"#utility.yul\":3938:3956   */\n      0xffffffffffffffff\n        /* \"#utility.yul\":3930:3936   */\n      dup2\n        /* \"#utility.yul\":3927:3957   */\n      gt\n        /* \"#utility.yul\":3924:4041   */\n      iszero\n      tag_121\n      jumpi\n        /* \"#utility.yul\":3960:4039   */\n      tag_122\n      tag_65\n      jump\t// in\n    tag_122:\n        /* \"#utility.yul\":3924:4041   */\n    tag_121:\n        /* \"#utility.yul\":4074:4078   */\n      0x20\n        /* \"#utility.yul\":4066:4072   */\n      dup4\n        /* \"#utility.yul\":4062:4079   */\n      add\n        /* \"#utility.yul\":4050:4079   */\n      swap2\n      pop\n        /* \"#utility.yul\":4128:4131   */\n      dup4\n        /* \"#utility.yul\":4120:4124   */\n      0x01\n        /* \"#utility.yul\":4112:4118   */\n      dup3\n        /* \"#utility.yul\":4108:4125   */\n      mul\n        /* \"#utility.yul\":4098:4106   */\n      dup4\n        /* \"#utility.yul\":4094:4126   */\n      add\n        /* \"#utility.yul\":4091:4132   */\n      gt\n        /* \"#utility.yul\":4088:4216   */\n      iszero\n      tag_123\n      jumpi\n        /* \"#utility.yul\":4135:4214   */\n      tag_124\n      tag_66\n      jump\t// in\n    tag_124:\n        /* \"#utility.yul\":4088:4216   */\n    tag_123:\n        /* \"#utility.yul\":3670:4222   */\n      swap3\n      pop\n      swap3\n      swap1\n      pop\n      jump\t// out\n        /* \"#utility.yul\":4228:5337   */\n    tag_28:\n        /* \"#utility.yul\":4334:4340   */\n      0x00\n        /* \"#utility.yul\":4342:4348   */\n      dup1\n        /* \"#utility.yul\":4350:4356   */\n      0x00\n        /* \"#utility.yul\":4358:4364   */\n      dup1\n        /* \"#utility.yul\":4366:4372   */\n      0x00\n        /* \"#utility.yul\":4374:4380   */\n      dup1\n        /* \"#utility.yul\":4423:4426   */\n      0xa0\n        /* \"#utility.yul\":4411:4420   */\n      dup8\n        /* \"#utility.yul\":4402:4409   */\n      dup10\n        /* \"#utility.yul\":4398:4421   */\n      sub\n        /* \"#utility.yul\":4394:4427   */\n      slt\n        /* \"#utility.yul\":4391:4511   */\n      iszero\n      tag_126\n      jumpi\n        /* \"#utility.yul\":4430:4509   */\n      tag_127\n      tag_51\n      jump\t// in\n    tag_127:\n        /* \"#utility.yul\":4391:4511   */\n    tag_126:\n        /* \"#utility.yul\":4550:4551   */\n      0x00\n        /* \"#utility.yul\":4575:4628   */\n      tag_128\n        /* \"#utility.yul\":4620:4627   */\n      dup10\n        /* \"#utility.yul\":4611:4617   */\n      dup3\n        /* \"#utility.yul\":4600:4609   */\n      dup11\n        /* \"#utility.yul\":4596:4618   */\n      add\n        /* \"#utility.yul\":4575:4628   */\n      tag_59\n      jump\t// in\n    tag_128:\n        /* \"#utility.yul\":4565:4628   */\n      swap7\n      pop\n        /* \"#utility.yul\":4521:4638   */\n      pop\n        /* \"#utility.yul\":4677:4679   */\n      0x20\n        /* \"#utility.yul\":4703:4756   */\n      tag_129\n        /* \"#utility.yul\":4748:4755   */\n      dup10\n        /* \"#utility.yul\":4739:4745   */\n      dup3\n        /* \"#utility.yul\":4728:4737   */\n      dup11\n        /* \"#utility.yul\":4724:4746   */\n      add\n        /* \"#utility.yul\":4703:4756   */\n      tag_59\n      jump\t// in\n    tag_129:\n        /* \"#utility.yul\":4693:4756   */\n      swap6\n      pop\n        /* \"#utility.yul\":4648:4766   */\n      pop\n        /* \"#utility.yul\":4805:4807   */\n      0x40\n        /* \"#utility.yul\":4831:4884   */\n      tag_130\n        /* \"#utility.yul\":4876:4883   */\n      dup10\n        /* \"#utility.yul\":4867:4873   */\n      dup3\n        /* \"#utility.yul\":4856:4865   */\n      dup11\n        /* \"#utility.yul\":4852:4874   */\n      add\n        /* \"#utility.yul\":4831:4884   */\n      tag_55\n      jump\t// in\n    tag_130:\n        /* \"#utility.yul\":4821:4884   */\n      swap5\n      pop\n        /* \"#utility.yul\":4776:4894   */\n      pop\n        /* \"#utility.yul\":4933:4935   */\n      0x60\n        /* \"#utility.yul\":4959:5012   */\n      tag_131\n        /* \"#utility.yul\":5004:5011   */\n      dup10\n        /* \"#utility.yul\":4995:5001   */\n      dup3\n        /* \"#utility.yul\":4984:4993   */\n      dup11\n        /* \"#utility.yul\":4980:5002   */\n      add\n        /* \"#utility.yul\":4959:5012   */\n      tag_55\n      jump\t// in\n    tag_131:\n        /* \"#utility.yul\":4949:5012   */\n      swap4\n      pop\n        /* \"#utility.yul\":4904:5022   */\n      pop\n        /* \"#utility.yul\":5089:5092   */\n      0x80\n        /* \"#utility.yul\":5078:5087   */\n      dup8\n        /* \"#utility.yul\":5074:5093   */\n      add\n        /* \"#utility.yul\":5061:5094   */\n      calldataload\n        /* \"#utility.yul\":5121:5139   */\n      0xffffffffffffffff\n        /* \"#utility.yul\":5113:5119   */\n      dup2\n        /* \"#utility.yul\":5110:5140   */\n      gt\n        /* \"#utility.yul\":5107:5224   */\n      iszero\n      tag_132\n      jumpi\n        /* \"#utility.yul\":5143:5222   */\n      tag_133\n      tag_52\n      jump\t// in\n    tag_133:\n        /* \"#utility.yul\":5107:5224   */\n    tag_132:\n        /* \"#utility.yul\":5256:5320   */\n      tag_134\n        /* \"#utility.yul\":5312:5319   */\n      dup10\n        /* \"#utility.yul\":5303:5309   */\n      dup3\n        /* \"#utility.yul\":5292:5301   */\n      dup11\n        /* \"#utility.yul\":5288:5310   */\n      add\n        /* \"#utility.yul\":5256:5320   */\n      tag_67\n      jump\t// in\n    tag_134:\n        /* \"#utility.yul\":5238:5320   */\n      swap3\n      pop\n      swap3\n      pop\n        /* \"#utility.yul\":5032:5330   */\n      pop\n        /* \"#utility.yul\":4228:5337   */\n      swap3\n      swap6\n      pop\n      swap3\n      swap6\n      pop\n      swap3\n      swap6\n      jump\t// out\n        /* \"#utility.yul\":5343:5492   */\n    tag_68:\n        /* \"#utility.yul\":5379:5386   */\n      0x00\n        /* \"#utility.yul\":5419:5485   */\n      0xffffffff00000000000000000000000000000000000000000000000000000000\n        /* \"#utility.yul\":5412:5417   */\n      dup3\n        /* \"#utility.yul\":5408:5486   */\n      and\n        /* \"#utility.yul\":5397:5486   */\n      swap1\n      pop\n        /* \"#utility.yul\":5343:5492   */\n      swap2\n      swap1\n      pop\n      jump\t// out\n        /* \"#utility.yul\":5498:5613   */\n    tag_69:\n        /* \"#utility.yul\":5583:5606   */\n      tag_137\n        /* \"#utility.yul\":5600:5605   */\n      dup2\n        /* \"#utility.yul\":5583:5606   */\n      tag_68\n      jump\t// in\n    tag_137:\n        /* \"#utility.yul\":5578:5581   */\n      dup3\n        /* \"#utility.yul\":5571:5607   */\n      mstore\n        /* \"#utility.yul\":5498:5613   */\n      pop\n      pop\n      jump\t// out\n        /* \"#utility.yul\":5619:5837   */\n    tag_31:\n        /* \"#utility.yul\":5710:5714   */\n      0x00\n        /* \"#utility.yul\":5748:5750   */\n      0x20\n        /* \"#utility.yul\":5737:5746   */\n      dup3\n        /* \"#utility.yul\":5733:5751   */\n      add\n        /* \"#utility.yul\":5725:5751   */\n      swap1\n      pop\n        /* \"#utility.yul\":5761:5830   */\n      tag_139\n        /* \"#utility.yul\":5827:5828   */\n      0x00\n        /* \"#utility.yul\":5816:5825   */\n      dup4\n        /* \"#utility.yul\":5812:5829   */\n      add\n        /* \"#utility.yul\":5803:5809   */\n      dup5\n        /* \"#utility.yul\":5761:5830   */\n      tag_69\n      jump\t// in\n    tag_139:\n        /* \"#utility.yul\":5619:5837   */\n      swap3\n      swap2\n      pop\n      pop\n      jump\t// out\n        /* \"#utility.yul\":5843:6011   */\n    tag_70:\n        /* \"#utility.yul\":5926:5937   */\n      0x00\n        /* \"#utility.yul\":5960:5966   */\n      dup3\n        /* \"#utility.yul\":5955:5958   */\n      dup3\n        /* \"#utility.yul\":5948:5967   */\n      mstore\n        /* \"#utility.yul\":6000:6004   */\n      0x20\n        /* \"#utility.yul\":5995:5998   */\n      dup3\n        /* \"#utility.yul\":5991:6005   */\n      add\n        /* \"#utility.yul\":5976:6005   */\n      swap1\n      pop\n        /* \"#utility.yul\":5843:6011   */\n      swap3\n      swap2\n      pop\n      pop\n      jump\t// out\n        /* \"#utility.yul\":6017:6171   */\n    tag_71:\n        /* \"#utility.yul\":6157:6163   */\n      0x3078303000000000000000000000000000000000000000000000000000000000\n        /* \"#utility.yul\":6153:6154   */\n      0x00\n        /* \"#utility.yul\":6145:6151   */\n      dup3\n        /* \"#utility.yul\":6141:6155   */\n      add\n        /* \"#utility.yul\":6134:6164   */\n      mstore\n        /* \"#utility.yul\":6017:6171   */\n      pop\n      jump\t// out\n        /* \"#utility.yul\":6177:6540   */\n    tag_72:\n        /* \"#utility.yul\":6318:6321   */\n      0x00\n        /* \"#utility.yul\":6339:6404   */\n      tag_143\n        /* \"#utility.yul\":6402:6403   */\n      0x04\n        /* \"#utility.yul\":6397:6400   */\n      dup4\n        /* \"#utility.yul\":6339:6404   */\n      tag_70\n      jump\t// in\n    tag_143:\n        /* \"#utility.yul\":6332:6404   */\n      swap2\n      pop\n        /* \"#utility.yul\":6413:6506   */\n      tag_144\n        /* \"#utility.yul\":6502:6505   */\n      dup3\n        /* \"#utility.yul\":6413:6506   */\n      tag_71\n      jump\t// in\n    tag_144:\n        /* \"#utility.yul\":6531:6533   */\n      0x20\n        /* \"#utility.yul\":6526:6529   */\n      dup3\n        /* \"#utility.yul\":6522:6534   */\n      add\n        /* \"#utility.yul\":6515:6534   */\n      swap1\n      pop\n        /* \"#utility.yul\":6177:6540   */\n      swap2\n      swap1\n      pop\n      jump\t// out\n        /* \"#utility.yul\":6546:7405   */\n    tag_36:\n        /* \"#utility.yul\":6823:6827   */\n      0x00\n        /* \"#utility.yul\":6861:6864   */\n      0xa0\n        /* \"#utility.yul\":6850:6859   */\n      dup3\n        /* \"#utility.yul\":6846:6865   */\n      add\n        /* \"#utility.yul\":6838:6865   */\n      swap1\n      pop\n        /* \"#utility.yul\":6875:6946   */\n      tag_146\n        /* \"#utility.yul\":6943:6944   */\n      0x00\n        /* \"#utility.yul\":6932:6941   */\n      dup4\n        /* \"#utility.yul\":6928:6945   */\n      add\n        /* \"#utility.yul\":6919:6925   */\n      dup8\n        /* \"#utility.yul\":6875:6946   */\n      tag_63\n      jump\t// in\n    tag_146:\n        /* \"#utility.yul\":6956:7028   */\n      tag_147\n        /* \"#utility.yul\":7024:7026   */\n      0x20\n        /* \"#utility.yul\":7013:7022   */\n      dup4\n        /* \"#utility.yul\":7009:7027   */\n      add\n        /* \"#utility.yul\":7000:7006   */\n      dup7\n        /* \"#utility.yul\":6956:7028   */\n      tag_63\n      jump\t// in\n    tag_147:\n        /* \"#utility.yul\":7038:7110   */\n      tag_148\n        /* \"#utility.yul\":7106:7108   */\n      0x40\n        /* \"#utility.yul\":7095:7104   */\n      dup4\n        /* \"#utility.yul\":7091:7109   */\n      add\n        /* \"#utility.yul\":7082:7088   */\n      dup6\n        /* \"#utility.yul\":7038:7110   */\n      tag_62\n      jump\t// in\n    tag_148:\n        /* \"#utility.yul\":7120:7192   */\n      tag_149\n        /* \"#utility.yul\":7188:7190   */\n      0x60\n        /* \"#utility.yul\":7177:7186   */\n      dup4\n        /* \"#utility.yul\":7173:7191   */\n      add\n        /* \"#utility.yul\":7164:7170   */\n      dup5\n        /* \"#utility.yul\":7120:7192   */\n      tag_62\n      jump\t// in\n    tag_149:\n        /* \"#utility.yul\":7240:7249   */\n      dup2\n        /* \"#utility.yul\":7234:7238   */\n      dup2\n        /* \"#utility.yul\":7230:7250   */\n      sub\n        /* \"#utility.yul\":7224:7227   */\n      0x80\n        /* \"#utility.yul\":7213:7222   */\n      dup4\n        /* \"#utility.yul\":7209:7228   */\n      add\n        /* \"#utility.yul\":7202:7251   */\n      mstore\n        /* \"#utility.yul\":7268:7398   */\n      tag_150\n        /* \"#utility.yul\":7393:7397   */\n      dup2\n        /* \"#utility.yul\":7268:7398   */\n      tag_72\n      jump\t// in\n    tag_150:\n        /* \"#utility.yul\":7260:7398   */\n      swap1\n      pop\n        /* \"#utility.yul\":6546:7405   */\n      swap6\n      swap5\n      pop\n      pop\n      pop\n      pop\n      pop\n      jump\t// out\n        /* \"#utility.yul\":7411:7591   */\n    tag_73:\n        /* \"#utility.yul\":7459:7536   */\n      0x4e487b7100000000000000000000000000000000000000000000000000000000\n        /* \"#utility.yul\":7456:7457   */\n      0x00\n        /* \"#utility.yul\":7449:7537   */\n      mstore\n        /* \"#utility.yul\":7556:7560   */\n      0x11\n        /* \"#utility.yul\":7553:7554   */\n      0x04\n        /* \"#utility.yul\":7546:7561   */\n      mstore\n        /* \"#utility.yul\":7580:7584   */\n      0x24\n        /* \"#utility.yul\":7577:7578   */\n      0x00\n        /* \"#utility.yul\":7570:7585   */\n      revert\n        /* \"#utility.yul\":7597:7902   */\n    tag_46:\n        /* \"#utility.yul\":7637:7640   */\n      0x00\n        /* \"#utility.yul\":7656:7676   */\n      tag_153\n        /* \"#utility.yul\":7674:7675   */\n      dup3\n        /* \"#utility.yul\":7656:7676   */\n      tag_53\n      jump\t// in\n    tag_153:\n        /* \"#utility.yul\":7651:7676   */\n      swap2\n      pop\n        /* \"#utility.yul\":7690:7710   */\n      tag_154\n        /* \"#utility.yul\":7708:7709   */\n      dup4\n        /* \"#utility.yul\":7690:7710   */\n      tag_53\n      jump\t// in\n    tag_154:\n        /* \"#utility.yul\":7685:7710   */\n      swap3\n      pop\n        /* \"#utility.yul\":7844:7845   */\n      dup3\n        /* \"#utility.yul\":7776:7842   */\n      0xffffffffffffffffffffffffffffffffffffffffffffffffffffffffffffffff\n        /* \"#utility.yul\":7772:7846   */\n      sub\n        /* \"#utility.yul\":7769:7770   */\n      dup3\n        /* \"#utility.yul\":7766:7847   */\n      gt\n        /* \"#utility.yul\":7763:7870   */\n      iszero\n      tag_155\n      jumpi\n        /* \"#utility.yul\":7850:7868   */\n      tag_156\n      tag_73\n      jump\t// in\n    tag_156:\n        /* \"#utility.yul\":7763:7870   */\n    tag_155:\n        /* \"#utility.yul\":7894:7895   */\n      dup3\n        /* \"#utility.yul\":7891:7892   */\n      dup3\n        /* \"#utility.yul\":7887:7896   */\n      add\n        /* \"#utility.yul\":7880:7896   */\n      swap1\n      pop\n        /* \"#utility.yul\":7597:7902   */\n      swap3\n      swap2\n      pop\n      pop\n      jump\t// out\n        /* \"#utility.yul\":7908:8099   */\n    tag_49:\n        /* \"#utility.yul\":7948:7952   */\n      0x00\n        /* \"#utility.yul\":7968:7988   */\n      tag_158\n        /* \"#utility.yul\":7986:7987   */\n      dup3\n        /* \"#utility.yul\":7968:7988   */\n      tag_53\n      jump\t// in\n    tag_158:\n        /* \"#utility.yul\":7963:7988   */\n      swap2\n      pop\n        /* \"#utility.yul\":8002:8022   */\n      tag_159\n        /* \"#utility.yul\":8020:8021   */\n      dup4\n        /* \"#utility.yul\":8002:8022   */\n      tag_53\n      jump\t// in\n    tag_159:\n        /* \"#utility.yul\":7997:8022   */\n      swap3\n      pop\n        /* \"#utility.yul\":8041:8042   */\n      dup3\n        /* \"#utility.yul\":8038:8039   */\n      dup3\n        /* \"#utility.yul\":8035:8043   */\n      lt\n        /* \"#utility.yul\":8032:8066   */\n      iszero\n      tag_160\n      jumpi\n        /* \"#utility.yul\":8046:8064   */\n      tag_161\n      tag_73\n      jump\t// in\n    tag_161:\n        /* \"#utility.yul\":8032:8066   */\n    tag_160:\n        /* \"#utility.yul\":8091:8092   */\n      dup3\n        /* \"#utility.yul\":8088:8089   */\n      dup3\n        /* \"#utility.yul\":8084:8093   */\n      sub\n        /* \"#utility.yul\":8076:8093   */\n      swap1\n      pop\n        /* \"#utility.yul\":7908:8099   */\n      swap3\n      swap2\n      pop\n      pop\n      jump\t// out\n\n    auxdata: 0xa2646970667358221220aad71b7d825ad304acae86494862ee3427a8f874cdb7442645bf1fea1c6c041f64736f6c634300080a0033\n}\n",
				"bytecode": {
					"linkReferences": {},
					"object": "608060405234801561001057600080fd5b50610822806100206000396000f3fe60806040526004361061003f5760003560e01c806301edf85c146100445780638b0d025814610074578063aacdfe6f146100b1578063f23a6e61146100ee575b600080fd5b61005e6004803603810190610059919061041f565b61012b565b60405161006b919061048d565b60405180910390f35b34801561008057600080fd5b5061009b600480360381019061009691906104a8565b610238565b6040516100a891906104e4565b60405180910390f35b3480156100bd57600080fd5b506100d860048036038101906100d391906104a8565b610255565b6040516100e5919061050e565b60405180910390f35b3480156100fa57600080fd5b506101156004803603810190610110919061058e565b610291565b6040516101229190610663565b60405180910390f35b60008060008086815260200190815260200160002060009054906101000a900473ffffffffffffffffffffffffffffffffffffffff1690506000600190508173ffffffffffffffffffffffffffffffffffffffff166108fc829081150290604051600060405180830381858888f193505050501580156101af573d6000803e3d6000fd5b508373ffffffffffffffffffffffffffffffffffffffff1663f242432a303389896040518563ffffffff1660e01b81526004016101ef94939291906106db565b600060405180830381600087803b15801561020957600080fd5b505af115801561021d573d6000803e3d6000fd5b5050505061022b8686610347565b6001925050509392505050565b600060016000838152602001908152602001600020549050919050565b600080600083815260200190815260200160002060009054906101000a900473ffffffffffffffffffffffffffffffffffffffff169050919050565b60008560008087815260200190815260200160002060006101000a81548173ffffffffffffffffffffffffffffffffffffffff021916908373ffffffffffffffffffffffffffffffffffffffff1602179055508360016000878152602001908152602001600020546103039190610762565b60016000878152602001908152602001600020819055507ff23a6e612e1ff4830e658fe43f4e3cb4a5f8170bd5d9e69fb5d7a7fa9e4fdf9790509695505050505050565b80600160008481526020019081526020016000205461036691906107b8565b60016000848152602001908152602001600020819055505050565b600080fd5b600080fd5b6000819050919050565b61039e8161038b565b81146103a957600080fd5b50565b6000813590506103bb81610395565b92915050565b600073ffffffffffffffffffffffffffffffffffffffff82169050919050565b60006103ec826103c1565b9050919050565b6103fc816103e1565b811461040757600080fd5b50565b600081359050610419816103f3565b92915050565b60008060006060848603121561043857610437610381565b5b6000610446868287016103ac565b9350506020610457868287016103ac565b92505060406104688682870161040a565b9150509250925092565b60008115159050919050565b61048781610472565b82525050565b60006020820190506104a2600083018461047e565b92915050565b6000602082840312156104be576104bd610381565b5b60006104cc848285016103ac565b91505092915050565b6104de8161038b565b82525050565b60006020820190506104f960008301846104d5565b92915050565b610508816103e1565b82525050565b600060208201905061052360008301846104ff565b92915050565b600080fd5b600080fd5b600080fd5b60008083601f84011261054e5761054d610529565b5b8235905067ffffffffffffffff81111561056b5761056a61052e565b5b60208301915083600182028301111561058757610586610533565b5b9250929050565b60008060008060008060a087890312156105ab576105aa610381565b5b60006105b989828a0161040a565b96505060206105ca89828a0161040a565b95505060406105db89828a016103ac565b94505060606105ec89828a016103ac565b935050608087013567ffffffffffffffff81111561060d5761060c610386565b5b61061989828a01610538565b92509250509295509295509295565b60007fffffffff0000000000000000000000000000000000000000000000000000000082169050919050565b61065d81610628565b82525050565b60006020820190506106786000830184610654565b92915050565b600082825260208201905092915050565b7f3078303000000000000000000000000000000000000000000000000000000000600082015250565b60006106c560048361067e565b91506106d08261068f565b602082019050919050565b600060a0820190506106f060008301876104ff565b6106fd60208301866104ff565b61070a60408301856104d5565b61071760608301846104d5565b8181036080830152610728816106b8565b905095945050505050565b7f4e487b7100000000000000000000000000000000000000000000000000000000600052601160045260246000fd5b600061076d8261038b565b91506107788361038b565b9250827fffffffffffffffffffffffffffffffffffffffffffffffffffffffffffffffff038211156107ad576107ac610733565b5b828201905092915050565b60006107c38261038b565b91506107ce8361038b565b9250828210156107e1576107e0610733565b5b82820390509291505056fea2646970667358221220aad71b7d825ad304acae86494862ee3427a8f874cdb7442645bf1fea1c6c041f64736f6c634300080a0033",
					"opcodes": "PUSH1 0x80 PUSH1 0x40 MSTORE CALLVALUE DUP1 ISZERO PUSH2 0x10 JUMPI PUSH1 0x0 DUP1 REVERT JUMPDEST POP PUSH2 0x822 DUP1 PUSH2 0x20 PUSH1 0x0 CODECOPY PUSH1 0x0 RETURN INVALID PUSH1 0x80 PUSH1 0x40 MSTORE PUSH1 0x4 CALLDATASIZE LT PUSH2 0x3F JUMPI PUSH1 0x0 CALLDATALOAD PUSH1 0xE0 SHR DUP1 PUSH4 0x1EDF85C EQ PUSH2 0x44 JUMPI DUP1 PUSH4 0x8B0D0258 EQ PUSH2 0x74 JUMPI DUP1 PUSH4 0xAACDFE6F EQ PUSH2 0xB1 JUMPI DUP1 PUSH4 0xF23A6E61 EQ PUSH2 0xEE JUMPI JUMPDEST PUSH1 0x0 DUP1 REVERT JUMPDEST PUSH2 0x5E PUSH1 0x4 DUP1 CALLDATASIZE SUB DUP2 ADD SWAP1 PUSH2 0x59 SWAP2 SWAP1 PUSH2 0x41F JUMP JUMPDEST PUSH2 0x12B JUMP JUMPDEST PUSH1 0x40 MLOAD PUSH2 0x6B SWAP2 SWAP1 PUSH2 0x48D JUMP JUMPDEST PUSH1 0x40 MLOAD DUP1 SWAP2 SUB SWAP1 RETURN JUMPDEST CALLVALUE DUP1 ISZERO PUSH2 0x80 JUMPI PUSH1 0x0 DUP1 REVERT JUMPDEST POP PUSH2 0x9B PUSH1 0x4 DUP1 CALLDATASIZE SUB DUP2 ADD SWAP1 PUSH2 0x96 SWAP2 SWAP1 PUSH2 0x4A8 JUMP JUMPDEST PUSH2 0x238 JUMP JUMPDEST PUSH1 0x40 MLOAD PUSH2 0xA8 SWAP2 SWAP1 PUSH2 0x4E4 JUMP JUMPDEST PUSH1 0x40 MLOAD DUP1 SWAP2 SUB SWAP1 RETURN JUMPDEST CALLVALUE DUP1 ISZERO PUSH2 0xBD JUMPI PUSH1 0x0 DUP1 REVERT JUMPDEST POP PUSH2 0xD8 PUSH1 0x4 DUP1 CALLDATASIZE SUB DUP2 ADD SWAP1 PUSH2 0xD3 SWAP2 SWAP1 PUSH2 0x4A8 JUMP JUMPDEST PUSH2 0x255 JUMP JUMPDEST PUSH1 0x40 MLOAD PUSH2 0xE5 SWAP2 SWAP1 PUSH2 0x50E JUMP JUMPDEST PUSH1 0x40 MLOAD DUP1 SWAP2 SUB SWAP1 RETURN JUMPDEST CALLVALUE DUP1 ISZERO PUSH2 0xFA JUMPI PUSH1 0x0 DUP1 REVERT JUMPDEST POP PUSH2 0x115 PUSH1 0x4 DUP1 CALLDATASIZE SUB DUP2 ADD SWAP1 PUSH2 0x110 SWAP2 SWAP1 PUSH2 0x58E JUMP JUMPDEST PUSH2 0x291 JUMP JUMPDEST PUSH1 0x40 MLOAD PUSH2 0x122 SWAP2 SWAP1 PUSH2 0x663 JUMP JUMPDEST PUSH1 0x40 MLOAD DUP1 SWAP2 SUB SWAP1 RETURN JUMPDEST PUSH1 0x0 DUP1 PUSH1 0x0 DUP1 DUP7 DUP2 MSTORE PUSH1 0x20 ADD SWAP1 DUP2 MSTORE PUSH1 0x20 ADD PUSH1 0x0 KECCAK256 PUSH1 0x0 SWAP1 SLOAD SWAP1 PUSH2 0x100 EXP SWAP1 DIV PUSH20 0xFFFFFFFFFFFFFFFFFFFFFFFFFFFFFFFFFFFFFFFF AND SWAP1 POP PUSH1 0x0 PUSH1 0x1 SWAP1 POP DUP2 PUSH20 0xFFFFFFFFFFFFFFFFFFFFFFFFFFFFFFFFFFFFFFFF AND PUSH2 0x8FC DUP3 SWAP1 DUP2 ISZERO MUL SWAP1 PUSH1 0x40 MLOAD PUSH1 0x0 PUSH1 0x40 MLOAD DUP1 DUP4 SUB DUP2 DUP6 DUP9 DUP9 CALL SWAP4 POP POP POP POP ISZERO DUP1 ISZERO PUSH2 0x1AF JUMPI RETURNDATASIZE PUSH1 0x0 DUP1 RETURNDATACOPY RETURNDATASIZE PUSH1 0x0 REVERT JUMPDEST POP DUP4 PUSH20 0xFFFFFFFFFFFFFFFFFFFFFFFFFFFFFFFFFFFFFFFF AND PUSH4 0xF242432A ADDRESS CALLER DUP10 DUP10 PUSH1 0x40 MLOAD DUP6 PUSH4 0xFFFFFFFF AND PUSH1 0xE0 SHL DUP2 MSTORE PUSH1 0x4 ADD PUSH2 0x1EF SWAP5 SWAP4 SWAP3 SWAP2 SWAP1 PUSH2 0x6DB JUMP JUMPDEST PUSH1 0x0 PUSH1 0x40 MLOAD DUP1 DUP4 SUB DUP2 PUSH1 0x0 DUP8 DUP1 EXTCODESIZE ISZERO DUP1 ISZERO PUSH2 0x209 JUMPI PUSH1 0x0 DUP1 REVERT JUMPDEST POP GAS CALL ISZERO DUP1 ISZERO PUSH2 0x21D JUMPI RETURNDATASIZE PUSH1 0x0 DUP1 RETURNDATACOPY RETURNDATASIZE PUSH1 0x0 REVERT JUMPDEST POP POP POP POP PUSH2 0x22B DUP7 DUP7 PUSH2 0x347 JUMP JUMPDEST PUSH1 0x1 SWAP3 POP POP POP SWAP4 SWAP3 POP POP POP JUMP JUMPDEST PUSH1 0x0 PUSH1 0x1 PUSH1 0x0 DUP4 DUP2 MSTORE PUSH1 0x20 ADD SWAP1 DUP2 MSTORE PUSH1 0x20 ADD PUSH1 0x0 KECCAK256 SLOAD SWAP1 POP SWAP2 SWAP1 POP JUMP JUMPDEST PUSH1 0x0 DUP1 PUSH1 0x0 DUP4 DUP2 MSTORE PUSH1 0x20 ADD SWAP1 DUP2 MSTORE PUSH1 0x20 ADD PUSH1 0x0 KECCAK256 PUSH1 0x0 SWAP1 SLOAD SWAP1 PUSH2 0x100 EXP SWAP1 DIV PUSH20 0xFFFFFFFFFFFFFFFFFFFFFFFFFFFFFFFFFFFFFFFF AND SWAP1 POP SWAP2 SWAP1 POP JUMP JUMPDEST PUSH1 0x0 DUP6 PUSH1 0x0 DUP1 DUP8 DUP2 MSTORE PUSH1 0x20 ADD SWAP1 DUP2 MSTORE PUSH1 0x20 ADD PUSH1 0x0 KECCAK256 PUSH1 0x0 PUSH2 0x100 EXP DUP2 SLOAD DUP2 PUSH20 0xFFFFFFFFFFFFFFFFFFFFFFFFFFFFFFFFFFFFFFFF MUL NOT AND SWAP1 DUP4 PUSH20 0xFFFFFFFFFFFFFFFFFFFFFFFFFFFFFFFFFFFFFFFF AND MUL OR SWAP1 SSTORE POP DUP4 PUSH1 0x1 PUSH1 0x0 DUP8 DUP2 MSTORE PUSH1 0x20 ADD SWAP1 DUP2 MSTORE PUSH1 0x20 ADD PUSH1 0x0 KECCAK256 SLOAD PUSH2 0x303 SWAP2 SWAP1 PUSH2 0x762 JUMP JUMPDEST PUSH1 0x1 PUSH1 0x0 DUP8 DUP2 MSTORE PUSH1 0x20 ADD SWAP1 DUP2 MSTORE PUSH1 0x20 ADD PUSH1 0x0 KECCAK256 DUP2 SWAP1 SSTORE POP PUSH32 0xF23A6E612E1FF4830E658FE43F4E3CB4A5F8170BD5D9E69FB5D7A7FA9E4FDF97 SWAP1 POP SWAP7 SWAP6 POP POP POP POP POP POP JUMP JUMPDEST DUP1 PUSH1 0x1 PUSH1 0x0 DUP5 DUP2 MSTORE PUSH1 0x20 ADD SWAP1 DUP2 MSTORE PUSH1 0x20 ADD PUSH1 0x0 KECCAK256 SLOAD PUSH2 0x366 SWAP2 SWAP1 PUSH2 0x7B8 JUMP JUMPDEST PUSH1 0x1 PUSH1 0x0 DUP5 DUP2 MSTORE PUSH1 0x20 ADD SWAP1 DUP2 MSTORE PUSH1 0x20 ADD PUSH1 0x0 KECCAK256 DUP2 SWAP1 SSTORE POP POP POP JUMP JUMPDEST PUSH1 0x0 DUP1 REVERT JUMPDEST PUSH1 0x0 DUP1 REVERT JUMPDEST PUSH1 0x0 DUP2 SWAP1 POP SWAP2 SWAP1 POP JUMP JUMPDEST PUSH2 0x39E DUP2 PUSH2 0x38B JUMP JUMPDEST DUP2 EQ PUSH2 0x3A9 JUMPI PUSH1 0x0 DUP1 REVERT JUMPDEST POP JUMP JUMPDEST PUSH1 0x0 DUP2 CALLDATALOAD SWAP1 POP PUSH2 0x3BB DUP2 PUSH2 0x395 JUMP JUMPDEST SWAP3 SWAP2 POP POP JUMP JUMPDEST PUSH1 0x0 PUSH20 0xFFFFFFFFFFFFFFFFFFFFFFFFFFFFFFFFFFFFFFFF DUP3 AND SWAP1 POP SWAP2 SWAP1 POP JUMP JUMPDEST PUSH1 0x0 PUSH2 0x3EC DUP3 PUSH2 0x3C1 JUMP JUMPDEST SWAP1 POP SWAP2 SWAP1 POP JUMP JUMPDEST PUSH2 0x3FC DUP2 PUSH2 0x3E1 JUMP JUMPDEST DUP2 EQ PUSH2 0x407 JUMPI PUSH1 0x0 DUP1 REVERT JUMPDEST POP JUMP JUMPDEST PUSH1 0x0 DUP2 CALLDATALOAD SWAP1 POP PUSH2 0x419 DUP2 PUSH2 0x3F3 JUMP JUMPDEST SWAP3 SWAP2 POP POP JUMP JUMPDEST PUSH1 0x0 DUP1 PUSH1 0x0 PUSH1 0x60 DUP5 DUP7 SUB SLT ISZERO PUSH2 0x438 JUMPI PUSH2 0x437 PUSH2 0x381 JUMP JUMPDEST JUMPDEST PUSH1 0x0 PUSH2 0x446 DUP7 DUP3 DUP8 ADD PUSH2 0x3AC JUMP JUMPDEST SWAP4 POP POP PUSH1 0x20 PUSH2 0x457 DUP7 DUP3 DUP8 ADD PUSH2 0x3AC JUMP JUMPDEST SWAP3 POP POP PUSH1 0x40 PUSH2 0x468 DUP7 DUP3 DUP8 ADD PUSH2 0x40A JUMP JUMPDEST SWAP2 POP POP SWAP3 POP SWAP3 POP SWAP3 JUMP JUMPDEST PUSH1 0x0 DUP2 ISZERO ISZERO SWAP1 POP SWAP2 SWAP1 POP JUMP JUMPDEST PUSH2 0x487 DUP2 PUSH2 0x472 JUMP JUMPDEST DUP3 MSTORE POP POP JUMP JUMPDEST PUSH1 0x0 PUSH1 0x20 DUP3 ADD SWAP1 POP PUSH2 0x4A2 PUSH1 0x0 DUP4 ADD DUP5 PUSH2 0x47E JUMP JUMPDEST SWAP3 SWAP2 POP POP JUMP JUMPDEST PUSH1 0x0 PUSH1 0x20 DUP3 DUP5 SUB SLT ISZERO PUSH2 0x4BE JUMPI PUSH2 0x4BD PUSH2 0x381 JUMP JUMPDEST JUMPDEST PUSH1 0x0 PUSH2 0x4CC DUP5 DUP3 DUP6 ADD PUSH2 0x3AC JUMP JUMPDEST SWAP2 POP POP SWAP3 SWAP2 POP POP JUMP JUMPDEST PUSH2 0x4DE DUP2 PUSH2 0x38B JUMP JUMPDEST DUP3 MSTORE POP POP JUMP JUMPDEST PUSH1 0x0 PUSH1 0x20 DUP3 ADD SWAP1 POP PUSH2 0x4F9 PUSH1 0x0 DUP4 ADD DUP5 PUSH2 0x4D5 JUMP JUMPDEST SWAP3 SWAP2 POP POP JUMP JUMPDEST PUSH2 0x508 DUP2 PUSH2 0x3E1 JUMP JUMPDEST DUP3 MSTORE POP POP JUMP JUMPDEST PUSH1 0x0 PUSH1 0x20 DUP3 ADD SWAP1 POP PUSH2 0x523 PUSH1 0x0 DUP4 ADD DUP5 PUSH2 0x4FF JUMP JUMPDEST SWAP3 SWAP2 POP POP JUMP JUMPDEST PUSH1 0x0 DUP1 REVERT JUMPDEST PUSH1 0x0 DUP1 REVERT JUMPDEST PUSH1 0x0 DUP1 REVERT JUMPDEST PUSH1 0x0 DUP1 DUP4 PUSH1 0x1F DUP5 ADD SLT PUSH2 0x54E JUMPI PUSH2 0x54D PUSH2 0x529 JUMP JUMPDEST JUMPDEST DUP3 CALLDATALOAD SWAP1 POP PUSH8 0xFFFFFFFFFFFFFFFF DUP2 GT ISZERO PUSH2 0x56B JUMPI PUSH2 0x56A PUSH2 0x52E JUMP JUMPDEST JUMPDEST PUSH1 0x20 DUP4 ADD SWAP2 POP DUP4 PUSH1 0x1 DUP3 MUL DUP4 ADD GT ISZERO PUSH2 0x587 JUMPI PUSH2 0x586 PUSH2 0x533 JUMP JUMPDEST JUMPDEST SWAP3 POP SWAP3 SWAP1 POP JUMP JUMPDEST PUSH1 0x0 DUP1 PUSH1 0x0 DUP1 PUSH1 0x0 DUP1 PUSH1 0xA0 DUP8 DUP10 SUB SLT ISZERO PUSH2 0x5AB JUMPI PUSH2 0x5AA PUSH2 0x381 JUMP JUMPDEST JUMPDEST PUSH1 0x0 PUSH2 0x5B9 DUP10 DUP3 DUP11 ADD PUSH2 0x40A JUMP JUMPDEST SWAP7 POP POP PUSH1 0x20 PUSH2 0x5CA DUP10 DUP3 DUP11 ADD PUSH2 0x40A JUMP JUMPDEST SWAP6 POP POP PUSH1 0x40 PUSH2 0x5DB DUP10 DUP3 DUP11 ADD PUSH2 0x3AC JUMP JUMPDEST SWAP5 POP POP PUSH1 0x60 PUSH2 0x5EC DUP10 DUP3 DUP11 ADD PUSH2 0x3AC JUMP JUMPDEST SWAP4 POP POP PUSH1 0x80 DUP8 ADD CALLDATALOAD PUSH8 0xFFFFFFFFFFFFFFFF DUP2 GT ISZERO PUSH2 0x60D JUMPI PUSH2 0x60C PUSH2 0x386 JUMP JUMPDEST JUMPDEST PUSH2 0x619 DUP10 DUP3 DUP11 ADD PUSH2 0x538 JUMP JUMPDEST SWAP3 POP SWAP3 POP POP SWAP3 SWAP6 POP SWAP3 SWAP6 POP SWAP3 SWAP6 JUMP JUMPDEST PUSH1 0x0 PUSH32 0xFFFFFFFF00000000000000000000000000000000000000000000000000000000 DUP3 AND SWAP1 POP SWAP2 SWAP1 POP JUMP JUMPDEST PUSH2 0x65D DUP2 PUSH2 0x628 JUMP JUMPDEST DUP3 MSTORE POP POP JUMP JUMPDEST PUSH1 0x0 PUSH1 0x20 DUP3 ADD SWAP1 POP PUSH2 0x678 PUSH1 0x0 DUP4 ADD DUP5 PUSH2 0x654 JUMP JUMPDEST SWAP3 SWAP2 POP POP JUMP JUMPDEST PUSH1 0x0 DUP3 DUP3 MSTORE PUSH1 0x20 DUP3 ADD SWAP1 POP SWAP3 SWAP2 POP POP JUMP JUMPDEST PUSH32 0x3078303000000000000000000000000000000000000000000000000000000000 PUSH1 0x0 DUP3 ADD MSTORE POP JUMP JUMPDEST PUSH1 0x0 PUSH2 0x6C5 PUSH1 0x4 DUP4 PUSH2 0x67E JUMP JUMPDEST SWAP2 POP PUSH2 0x6D0 DUP3 PUSH2 0x68F JUMP JUMPDEST PUSH1 0x20 DUP3 ADD SWAP1 POP SWAP2 SWAP1 POP JUMP JUMPDEST PUSH1 0x0 PUSH1 0xA0 DUP3 ADD SWAP1 POP PUSH2 0x6F0 PUSH1 0x0 DUP4 ADD DUP8 PUSH2 0x4FF JUMP JUMPDEST PUSH2 0x6FD PUSH1 0x20 DUP4 ADD DUP7 PUSH2 0x4FF JUMP JUMPDEST PUSH2 0x70A PUSH1 0x40 DUP4 ADD DUP6 PUSH2 0x4D5 JUMP JUMPDEST PUSH2 0x717 PUSH1 0x60 DUP4 ADD DUP5 PUSH2 0x4D5 JUMP JUMPDEST DUP2 DUP2 SUB PUSH1 0x80 DUP4 ADD MSTORE PUSH2 0x728 DUP2 PUSH2 0x6B8 JUMP JUMPDEST SWAP1 POP SWAP6 SWAP5 POP POP POP POP POP JUMP JUMPDEST PUSH32 0x4E487B7100000000000000000000000000000000000000000000000000000000 PUSH1 0x0 MSTORE PUSH1 0x11 PUSH1 0x4 MSTORE PUSH1 0x24 PUSH1 0x0 REVERT JUMPDEST PUSH1 0x0 PUSH2 0x76D DUP3 PUSH2 0x38B JUMP JUMPDEST SWAP2 POP PUSH2 0x778 DUP4 PUSH2 0x38B JUMP JUMPDEST SWAP3 POP DUP3 PUSH32 0xFFFFFFFFFFFFFFFFFFFFFFFFFFFFFFFFFFFFFFFFFFFFFFFFFFFFFFFFFFFFFFFF SUB DUP3 GT ISZERO PUSH2 0x7AD JUMPI PUSH2 0x7AC PUSH2 0x733 JUMP JUMPDEST JUMPDEST DUP3 DUP3 ADD SWAP1 POP SWAP3 SWAP2 POP POP JUMP JUMPDEST PUSH1 0x0 PUSH2 0x7C3 DUP3 PUSH2 0x38B JUMP JUMPDEST SWAP2 POP PUSH2 0x7CE DUP4 PUSH2 0x38B JUMP JUMPDEST SWAP3 POP DUP3 DUP3 LT ISZERO PUSH2 0x7E1 JUMPI PUSH2 0x7E0 PUSH2 0x733 JUMP JUMPDEST JUMPDEST DUP3 DUP3 SUB SWAP1 POP SWAP3 SWAP2 POP POP JUMP INVALID LOG2 PUSH5 0x6970667358 0x22 SLT KECCAK256 0xAA 0xD7 SHL PUSH30 0x825AD304ACAE86494862EE3427A8F874CDB7442645BF1FEA1C6C041F6473 PUSH16 0x6C634300080A00330000000000000000 "
				},
				"gasEstimates": {
					"creation": {
						"codeDepositCost": "416400",
						"executionCost": "455",
						"totalCost": "416855"
					},
					"external": {
						"amount(uint256)": "infinite",
						"buyCoupon(uint256,uint256,address)": "infinite",
						"onERC1155Received(address,address,uint256,uint256,bytes)": "infinite",
						"seller(uint256)": "2887"
					},
					"internal": {
						"_reduceAmount(uint256,uint256)": "infinite"
					}
				},
				"methodIdentifiers": {
					"amount(uint256)": "8b0d0258",
					"buyCoupon(uint256,uint256,address)": "01edf85c",
					"onERC1155Received(address,address,uint256,uint256,bytes)": "f23a6e61",
					"seller(uint256)": "aacdfe6f"
				}
			},
			"storageLayout": {
				"storage": [
					{
						"astId": 1784,
						"contract": "contracts/CouponMarket.sol:CouponMarket",
						"label": "_seller",
						"offset": 0,
						"slot": "0",
						"type": "t_mapping(t_uint256,t_address)"
					},
					{
						"astId": 1788,
						"contract": "contracts/CouponMarket.sol:CouponMarket",
						"label": "_amount",
						"offset": 0,
						"slot": "1",
						"type": "t_mapping(t_uint256,t_uint256)"
					}
				],
				"types": {
					"t_address": {
						"encoding": "inplace",
						"label": "address",
						"numberOfBytes": "20"
					},
					"t_mapping(t_uint256,t_address)": {
						"encoding": "mapping",
						"key": "t_uint256",
						"label": "mapping(uint256 => address)",
						"numberOfBytes": "32",
						"value": "t_address"
					},
					"t_mapping(t_uint256,t_uint256)": {
						"encoding": "mapping",
						"key": "t_uint256",
						"label": "mapping(uint256 => uint256)",
						"numberOfBytes": "32",
						"value": "t_uint256"
					},
					"t_uint256": {
						"encoding": "inplace",
						"label": "uint256",
						"numberOfBytes": "32"
					}
				}
			},
			"userdoc": {
				"kind": "user",
				"methods": {},
				"version": 1
			}
		}
	}
}