{
	"contracts/Coupon.sol": {
		"CouponMarket": {
			"abi": [
				{
					"inputs": [],
					"stateMutability": "nonpayable",
					"type": "constructor"
				},
				{
					"anonymous": false,
					"inputs": [
						{
							"indexed": false,
							"internalType": "address",
							"name": "operator",
							"type": "address"
						},
						{
							"indexed": false,
							"internalType": "address",
							"name": "from",
							"type": "address"
						},
						{
							"indexed": false,
							"internalType": "uint256",
							"name": "id",
							"type": "uint256"
						},
						{
							"indexed": false,
							"internalType": "uint256",
							"name": "value",
							"type": "uint256"
						},
						{
							"indexed": false,
							"internalType": "bytes",
							"name": "data",
							"type": "bytes"
						},
						{
							"indexed": false,
							"internalType": "uint256",
							"name": "gas",
							"type": "uint256"
						}
					],
					"name": "Received",
					"type": "event"
				},
				{
					"anonymous": false,
					"inputs": [
						{
							"indexed": true,
							"internalType": "address",
							"name": "operator",
							"type": "address"
						},
						{
							"indexed": true,
							"internalType": "address",
							"name": "from",
							"type": "address"
						},
						{
							"indexed": true,
							"internalType": "address",
							"name": "to",
							"type": "address"
						},
						{
							"indexed": false,
							"internalType": "uint256",
							"name": "id",
							"type": "uint256"
						},
						{
							"indexed": false,
							"internalType": "uint256",
							"name": "value",
							"type": "uint256"
						}
					],
					"name": "TransferSingle",
					"type": "event"
				},
				{
					"inputs": [
						{
							"internalType": "uint256",
							"name": "discount",
							"type": "uint256"
						},
						{
							"internalType": "uint256",
							"name": "amount",
							"type": "uint256"
						}
					],
					"name": "CouponMint",
					"outputs": [],
					"stateMutability": "nonpayable",
					"type": "function"
				},
				{
					"inputs": [],
					"name": "HowMuchKindsOfCoupons",
					"outputs": [
						{
							"internalType": "uint256",
							"name": "",
							"type": "uint256"
						}
					],
					"stateMutability": "view",
					"type": "function"
				},
				{
					"inputs": [],
					"name": "KindsOfCoupons",
					"outputs": [
						{
							"internalType": "uint256[]",
							"name": "",
							"type": "uint256[]"
						}
					],
					"stateMutability": "view",
					"type": "function"
				},
				{
					"inputs": [
						{
							"internalType": "uint256",
							"name": "discount",
							"type": "uint256"
						}
					],
					"name": "Stocks",
					"outputs": [
						{
							"internalType": "uint256[]",
							"name": "",
							"type": "uint256[]"
						},
						{
							"internalType": "uint256[]",
							"name": "",
							"type": "uint256[]"
						}
					],
					"stateMutability": "view",
					"type": "function"
				},
				{
					"inputs": [
						{
							"internalType": "address",
							"name": "account",
							"type": "address"
						},
						{
							"internalType": "uint256",
							"name": "id",
							"type": "uint256"
						}
					],
					"name": "balanceOf",
					"outputs": [
						{
							"internalType": "uint256",
							"name": "",
							"type": "uint256"
						}
					],
					"stateMutability": "view",
					"type": "function"
				},
				{
					"inputs": [
						{
							"internalType": "uint256",
							"name": "discount",
							"type": "uint256"
						},
						{
							"internalType": "uint256",
							"name": "amount",
							"type": "uint256"
						},
						{
							"internalType": "uint256",
							"name": "price",
							"type": "uint256"
						},
						{
							"internalType": "address",
							"name": "TokenContractAddr",
							"type": "address"
						}
					],
					"name": "buyCoupon",
					"outputs": [
						{
							"internalType": "bool",
							"name": "",
							"type": "bool"
						}
					],
					"stateMutability": "payable",
					"type": "function"
				},
				{
					"inputs": [
						{
							"internalType": "address",
							"name": "operator",
							"type": "address"
						},
						{
							"internalType": "address",
							"name": "from",
							"type": "address"
						},
						{
							"internalType": "uint256",
							"name": "id",
							"type": "uint256"
						},
						{
							"internalType": "uint256",
							"name": "value",
							"type": "uint256"
						},
						{
							"internalType": "bytes",
							"name": "data",
							"type": "bytes"
						}
					],
					"name": "onERC1155Received",
					"outputs": [
						{
							"internalType": "bytes4",
							"name": "",
							"type": "bytes4"
						}
					],
					"stateMutability": "nonpayable",
					"type": "function"
				},
				{
					"inputs": [
						{
							"internalType": "address",
							"name": "from",
							"type": "address"
						},
						{
							"internalType": "address",
							"name": "to",
							"type": "address"
						},
						{
							"internalType": "uint256",
							"name": "id",
							"type": "uint256"
						},
						{
							"internalType": "uint256",
							"name": "amount",
							"type": "uint256"
						},
						{
							"internalType": "bytes",
							"name": "data",
							"type": "bytes"
						}
					],
					"name": "safeTransferFrom",
					"outputs": [],
					"stateMutability": "nonpayable",
					"type": "function"
				},
				{
					"inputs": [],
					"name": "serverAddr",
					"outputs": [
						{
							"internalType": "address",
							"name": "",
							"type": "address"
						}
					],
					"stateMutability": "view",
					"type": "function"
				},
				{
					"inputs": [
						{
							"internalType": "address",
							"name": "addr",
							"type": "address"
						}
					],
					"name": "setServerAddr",
					"outputs": [
						{
							"internalType": "address",
							"name": "",
							"type": "address"
						}
					],
					"stateMutability": "nonpayable",
					"type": "function"
				}
			],
			"devdoc": {
				"kind": "dev",
				"methods": {
					"balanceOf(address,uint256)": {
						"details": "See {IERC1155-balanceOf}. Requirements: - `account` cannot be the zero address."
					},
					"safeTransferFrom(address,address,uint256,uint256,bytes)": {
						"details": "See {IERC1155-safeTransferFrom}."
					}
				},
				"version": 1
			},
			"evm": {
				"assembly": "    /* \"contracts/Coupon.sol\":11712:15435  contract CouponMarket is ERC1155 {... */\n  mstore(0x40, 0x80)\n    /* \"contracts/Coupon.sol\":11751:11970  constructor() {... */\n  callvalue\n  dup1\n  iszero\n  tag_1\n  jumpi\n  0x00\n  dup1\n  revert\ntag_1:\n  pop\n    /* \"contracts/Coupon.sol\":11789:11799  msg.sender */\n  caller\n    /* \"contracts/Coupon.sol\":11775:11786  _serverAddr */\n  0x02\n  0x00\n    /* \"contracts/Coupon.sol\":11775:11799  _serverAddr = msg.sender */\n  0x0100\n  exp\n  dup2\n  sload\n  dup2\n  0xffffffffffffffffffffffffffffffffffffffff\n  mul\n  not\n  and\n  swap1\n  dup4\n  0xffffffffffffffffffffffffffffffffffffffff\n  and\n  mul\n  or\n  swap1\n  sstore\n  pop\n    /* \"contracts/Coupon.sol\":11809:11827  CouponMint(1, 100) */\n  tag_4\n    /* \"contracts/Coupon.sol\":11820:11821  1 */\n  0x01\n    /* \"contracts/Coupon.sol\":11823:11826  100 */\n  0x64\n    /* \"contracts/Coupon.sol\":11809:11819  CouponMint */\n  shl(0x20, tag_5)\n    /* \"contracts/Coupon.sol\":11809:11827  CouponMint(1, 100) */\n  0x20\n  shr\n  jump\t// in\ntag_4:\n    /* \"contracts/Coupon.sol\":11837:11854  CouponMint(2, 50) */\n  tag_6\n    /* \"contracts/Coupon.sol\":11848:11849  2 */\n  0x02\n    /* \"contracts/Coupon.sol\":11851:11853  50 */\n  0x32\n    /* \"contracts/Coupon.sol\":11837:11847  CouponMint */\n  shl(0x20, tag_5)\n    /* \"contracts/Coupon.sol\":11837:11854  CouponMint(2, 50) */\n  0x20\n  shr\n  jump\t// in\ntag_6:\n    /* \"contracts/Coupon.sol\":11864:11881  CouponMint(3, 33) */\n  tag_7\n    /* \"contracts/Coupon.sol\":11875:11876  3 */\n  0x03\n    /* \"contracts/Coupon.sol\":11878:11880  33 */\n  0x21\n    /* \"contracts/Coupon.sol\":11864:11874  CouponMint */\n  shl(0x20, tag_5)\n    /* \"contracts/Coupon.sol\":11864:11881  CouponMint(3, 33) */\n  0x20\n  shr\n  jump\t// in\ntag_7:\n    /* \"contracts/Coupon.sol\":11891:11908  CouponMint(5, 20) */\n  tag_8\n    /* \"contracts/Coupon.sol\":11902:11903  5 */\n  0x05\n    /* \"contracts/Coupon.sol\":11905:11907  20 */\n  0x14\n    /* \"contracts/Coupon.sol\":11891:11901  CouponMint */\n  shl(0x20, tag_5)\n    /* \"contracts/Coupon.sol\":11891:11908  CouponMint(5, 20) */\n  0x20\n  shr\n  jump\t// in\ntag_8:\n    /* \"contracts/Coupon.sol\":11918:11936  CouponMint(10, 10) */\n  tag_9\n    /* \"contracts/Coupon.sol\":11929:11931  10 */\n  0x0a\n    /* \"contracts/Coupon.sol\":11933:11935  10 */\n  dup1\n    /* \"contracts/Coupon.sol\":11918:11928  CouponMint */\n  shl(0x20, tag_5)\n    /* \"contracts/Coupon.sol\":11918:11936  CouponMint(10, 10) */\n  0x20\n  shr\n  jump\t// in\ntag_9:\n    /* \"contracts/Coupon.sol\":11946:11963  CouponMint(20, 5) */\n  tag_10\n    /* \"contracts/Coupon.sol\":11957:11959  20 */\n  0x14\n    /* \"contracts/Coupon.sol\":11961:11962  5 */\n  0x05\n    /* \"contracts/Coupon.sol\":11946:11956  CouponMint */\n  shl(0x20, tag_5)\n    /* \"contracts/Coupon.sol\":11946:11963  CouponMint(20, 5) */\n  0x20\n  shr\n  jump\t// in\ntag_10:\n    /* \"contracts/Coupon.sol\":11712:15435  contract CouponMarket is ERC1155 {... */\n  jump(tag_11)\n    /* \"contracts/Coupon.sol\":11976:12387  function CouponMint(uint256 discount, uint256 amount) public {... */\ntag_5:\n    /* \"contracts/Coupon.sol\":12083:12094  _serverAddr */\n  0x02\n  0x00\n  swap1\n  sload\n  swap1\n  0x0100\n  exp\n  swap1\n  div\n  0xffffffffffffffffffffffffffffffffffffffff\n  and\n    /* \"contracts/Coupon.sol\":12069:12094  msg.sender == _serverAddr */\n  0xffffffffffffffffffffffffffffffffffffffff\n  and\n    /* \"contracts/Coupon.sol\":12069:12079  msg.sender */\n  caller\n    /* \"contracts/Coupon.sol\":12069:12094  msg.sender == _serverAddr */\n  0xffffffffffffffffffffffffffffffffffffffff\n  and\n  eq\n    /* \"contracts/Coupon.sol\":12068:12128  (msg.sender == _serverAddr) || (msg.sender == address(this)) */\n  dup1\n  tag_13\n  jumpi\n  pop\n    /* \"contracts/Coupon.sol\":12122:12126  this */\n  address\n    /* \"contracts/Coupon.sol\":12100:12127  msg.sender == address(this) */\n  0xffffffffffffffffffffffffffffffffffffffff\n  and\n    /* \"contracts/Coupon.sol\":12100:12110  msg.sender */\n  caller\n    /* \"contracts/Coupon.sol\":12100:12127  msg.sender == address(this) */\n  0xffffffffffffffffffffffffffffffffffffffff\n  and\n  eq\n    /* \"contracts/Coupon.sol\":12068:12128  (msg.sender == _serverAddr) || (msg.sender == address(this)) */\ntag_13:\n    /* \"contracts/Coupon.sol\":12047:12192  require(... */\n  tag_14\n  jumpi\n  mload(0x40)\n  0x08c379a000000000000000000000000000000000000000000000000000000000\n  dup2\n  mstore\n  0x04\n  add\n  tag_15\n  swap1\n  tag_16\n  jump\t// in\ntag_15:\n  mload(0x40)\n  dup1\n  swap2\n  sub\n  swap1\n  revert\ntag_14:\n    /* \"contracts/Coupon.sol\":12202:12244  _mint(address(this), discount, amount, \"\") */\n  tag_17\n    /* \"contracts/Coupon.sol\":12216:12220  this */\n  address\n    /* \"contracts/Coupon.sol\":12223:12231  discount */\n  dup4\n    /* \"contracts/Coupon.sol\":12233:12239  amount */\n  dup4\n    /* \"contracts/Coupon.sol\":12202:12244  _mint(address(this), discount, amount, \"\") */\n  mload(0x40)\n  dup1\n  0x20\n  add\n  0x40\n  mstore\n  dup1\n  0x00\n  dup2\n  mstore\n  pop\n    /* \"contracts/Coupon.sol\":12202:12207  _mint */\n  shl(0x20, tag_18)\n    /* \"contracts/Coupon.sol\":12202:12244  _mint(address(this), discount, amount, \"\") */\n  0x20\n  shr\n  jump\t// in\ntag_17:\n    /* \"contracts/Coupon.sol\":12294:12300  amount */\n  dup1\n    /* \"contracts/Coupon.sol\":12274:12281  _amount */\n  0x03\n    /* \"contracts/Coupon.sol\":12274:12291  _amount[discount] */\n  0x00\n    /* \"contracts/Coupon.sol\":12282:12290  discount */\n  dup5\n    /* \"contracts/Coupon.sol\":12274:12291  _amount[discount] */\n  dup2\n  mstore\n  0x20\n  add\n  swap1\n  dup2\n  mstore\n  0x20\n  add\n  0x00\n  keccak256\n  sload\n    /* \"contracts/Coupon.sol\":12274:12300  _amount[discount] + amount */\n  tag_19\n  swap2\n  swap1\n  tag_20\n  jump\t// in\ntag_19:\n    /* \"contracts/Coupon.sol\":12254:12261  _amount */\n  0x03\n    /* \"contracts/Coupon.sol\":12254:12271  _amount[discount] */\n  0x00\n    /* \"contracts/Coupon.sol\":12262:12270  discount */\n  dup5\n    /* \"contracts/Coupon.sol\":12254:12271  _amount[discount] */\n  dup2\n  mstore\n  0x20\n  add\n  swap1\n  dup2\n  mstore\n  0x20\n  add\n  0x00\n  keccak256\n    /* \"contracts/Coupon.sol\":12254:12300  _amount[discount] = _amount[discount] + amount */\n  dup2\n  swap1\n  sstore\n  pop\n    /* \"contracts/Coupon.sol\":11976:12387  function CouponMint(uint256 discount, uint256 amount) public {... */\n  pop\n  pop\n  jump\t// out\n    /* \"contracts/Coupon.sol\":6295:7086  function _mint(... */\ntag_18:\n    /* \"contracts/Coupon.sol\":6456:6457  0 */\n  0x00\n    /* \"contracts/Coupon.sol\":6442:6458  to != address(0) */\n  0xffffffffffffffffffffffffffffffffffffffff\n  and\n    /* \"contracts/Coupon.sol\":6442:6444  to */\n  dup5\n    /* \"contracts/Coupon.sol\":6442:6458  to != address(0) */\n  0xffffffffffffffffffffffffffffffffffffffff\n  and\n  eq\n  iszero\n    /* \"contracts/Coupon.sol\":6434:6496  require(to != address(0), \"ERC1155: mint to the zero address\") */\n  tag_22\n  jumpi\n  mload(0x40)\n  0x08c379a000000000000000000000000000000000000000000000000000000000\n  dup2\n  mstore\n  0x04\n  add\n  tag_23\n  swap1\n  tag_24\n  jump\t// in\ntag_23:\n  mload(0x40)\n  dup1\n  swap2\n  sub\n  swap1\n  revert\ntag_22:\n    /* \"contracts/Coupon.sol\":6507:6523  address operator */\n  0x00\n    /* \"contracts/Coupon.sol\":6526:6538  _msgSender() */\n  tag_25\n    /* \"contracts/Coupon.sol\":6526:6536  _msgSender */\n  shl(0x20, tag_26)\n    /* \"contracts/Coupon.sol\":6526:6538  _msgSender() */\n  0x20\n  shr\n  jump\t// in\ntag_25:\n    /* \"contracts/Coupon.sol\":6507:6538  address operator = _msgSender() */\n  swap1\n  pop\n    /* \"contracts/Coupon.sol\":6548:6568  uint256[] memory ids */\n  0x00\n    /* \"contracts/Coupon.sol\":6571:6592  _asSingletonArray(id) */\n  tag_27\n    /* \"contracts/Coupon.sol\":6589:6591  id */\n  dup6\n    /* \"contracts/Coupon.sol\":6571:6588  _asSingletonArray */\n  shl(0x20, tag_28)\n    /* \"contracts/Coupon.sol\":6571:6592  _asSingletonArray(id) */\n  0x20\n  shr\n  jump\t// in\ntag_27:\n    /* \"contracts/Coupon.sol\":6548:6592  uint256[] memory ids = _asSingletonArray(id) */\n  swap1\n  pop\n    /* \"contracts/Coupon.sol\":6602:6626  uint256[] memory amounts */\n  0x00\n    /* \"contracts/Coupon.sol\":6629:6654  _asSingletonArray(amount) */\n  tag_29\n    /* \"contracts/Coupon.sol\":6647:6653  amount */\n  dup6\n    /* \"contracts/Coupon.sol\":6629:6646  _asSingletonArray */\n  shl(0x20, tag_28)\n    /* \"contracts/Coupon.sol\":6629:6654  _asSingletonArray(amount) */\n  0x20\n  shr\n  jump\t// in\ntag_29:\n    /* \"contracts/Coupon.sol\":6602:6654  uint256[] memory amounts = _asSingletonArray(amount) */\n  swap1\n  pop\n    /* \"contracts/Coupon.sol\":6665:6731  _beforeTokenTransfer(operator, address(0), to, ids, amounts, data) */\n  tag_30\n    /* \"contracts/Coupon.sol\":6686:6694  operator */\n  dup4\n    /* \"contracts/Coupon.sol\":6704:6705  0 */\n  0x00\n    /* \"contracts/Coupon.sol\":6708:6710  to */\n  dup10\n    /* \"contracts/Coupon.sol\":6712:6715  ids */\n  dup6\n    /* \"contracts/Coupon.sol\":6717:6724  amounts */\n  dup6\n    /* \"contracts/Coupon.sol\":6726:6730  data */\n  dup10\n    /* \"contracts/Coupon.sol\":6665:6685  _beforeTokenTransfer */\n  shl(0x20, tag_31)\n    /* \"contracts/Coupon.sol\":6665:6731  _beforeTokenTransfer(operator, address(0), to, ids, amounts, data) */\n  0x20\n  shr\n  jump\t// in\ntag_30:\n    /* \"contracts/Coupon.sol\":6763:6769  amount */\n  dup5\n    /* \"contracts/Coupon.sol\":6742:6751  _balances */\n  0x00\n    /* \"contracts/Coupon.sol\":6742:6755  _balances[id] */\n  dup1\n    /* \"contracts/Coupon.sol\":6752:6754  id */\n  dup9\n    /* \"contracts/Coupon.sol\":6742:6755  _balances[id] */\n  dup2\n  mstore\n  0x20\n  add\n  swap1\n  dup2\n  mstore\n  0x20\n  add\n  0x00\n  keccak256\n    /* \"contracts/Coupon.sol\":6742:6759  _balances[id][to] */\n  0x00\n    /* \"contracts/Coupon.sol\":6756:6758  to */\n  dup10\n    /* \"contracts/Coupon.sol\":6742:6759  _balances[id][to] */\n  0xffffffffffffffffffffffffffffffffffffffff\n  and\n  0xffffffffffffffffffffffffffffffffffffffff\n  and\n  dup2\n  mstore\n  0x20\n  add\n  swap1\n  dup2\n  mstore\n  0x20\n  add\n  0x00\n  keccak256\n  0x00\n    /* \"contracts/Coupon.sol\":6742:6769  _balances[id][to] += amount */\n  dup3\n  dup3\n  sload\n  tag_32\n  swap2\n  swap1\n  tag_20\n  jump\t// in\ntag_32:\n  swap3\n  pop\n  pop\n  dup2\n  swap1\n  sstore\n  pop\n    /* \"contracts/Coupon.sol\":6821:6823  to */\n  dup7\n    /* \"contracts/Coupon.sol\":6784:6836  TransferSingle(operator, address(0), to, id, amount) */\n  0xffffffffffffffffffffffffffffffffffffffff\n  and\n    /* \"contracts/Coupon.sol\":6817:6818  0 */\n  0x00\n    /* \"contracts/Coupon.sol\":6784:6836  TransferSingle(operator, address(0), to, id, amount) */\n  0xffffffffffffffffffffffffffffffffffffffff\n  and\n    /* \"contracts/Coupon.sol\":6799:6807  operator */\n  dup5\n    /* \"contracts/Coupon.sol\":6784:6836  TransferSingle(operator, address(0), to, id, amount) */\n  0xffffffffffffffffffffffffffffffffffffffff\n  and\n  0xc3d58168c5ae7397731d063d5bbf3d657854427343f4c083240f7aacaa2d0f62\n    /* \"contracts/Coupon.sol\":6825:6827  id */\n  dup10\n    /* \"contracts/Coupon.sol\":6829:6835  amount */\n  dup10\n    /* \"contracts/Coupon.sol\":6784:6836  TransferSingle(operator, address(0), to, id, amount) */\n  mload(0x40)\n  tag_33\n  swap3\n  swap2\n  swap1\n  tag_34\n  jump\t// in\ntag_33:\n  mload(0x40)\n  dup1\n  swap2\n  sub\n  swap1\n  log4\n    /* \"contracts/Coupon.sol\":6847:6912  _afterTokenTransfer(operator, address(0), to, ids, amounts, data) */\n  tag_35\n    /* \"contracts/Coupon.sol\":6867:6875  operator */\n  dup4\n    /* \"contracts/Coupon.sol\":6885:6886  0 */\n  0x00\n    /* \"contracts/Coupon.sol\":6889:6891  to */\n  dup10\n    /* \"contracts/Coupon.sol\":6893:6896  ids */\n  dup6\n    /* \"contracts/Coupon.sol\":6898:6905  amounts */\n  dup6\n    /* \"contracts/Coupon.sol\":6907:6911  data */\n  dup10\n    /* \"contracts/Coupon.sol\":6847:6866  _afterTokenTransfer */\n  shl(0x20, tag_36)\n    /* \"contracts/Coupon.sol\":6847:6912  _afterTokenTransfer(operator, address(0), to, ids, amounts, data) */\n  0x20\n  shr\n  jump\t// in\ntag_35:\n    /* \"contracts/Coupon.sol\":6923:7079  _doSafeTransferAcceptanceCheck(... */\n  tag_37\n    /* \"contracts/Coupon.sol\":6967:6975  operator */\n  dup4\n    /* \"contracts/Coupon.sol\":6997:6998  0 */\n  0x00\n    /* \"contracts/Coupon.sol\":7013:7015  to */\n  dup10\n    /* \"contracts/Coupon.sol\":7029:7031  id */\n  dup10\n    /* \"contracts/Coupon.sol\":7045:7051  amount */\n  dup10\n    /* \"contracts/Coupon.sol\":7065:7069  data */\n  dup10\n    /* \"contracts/Coupon.sol\":6923:6953  _doSafeTransferAcceptanceCheck */\n  shl(0x20, tag_38)\n    /* \"contracts/Coupon.sol\":6923:7079  _doSafeTransferAcceptanceCheck(... */\n  0x20\n  shr\n  jump\t// in\ntag_37:\n    /* \"contracts/Coupon.sol\":6424:7086  {... */\n  pop\n  pop\n  pop\n    /* \"contracts/Coupon.sol\":6295:7086  function _mint(... */\n  pop\n  pop\n  pop\n  pop\n  jump\t// out\n    /* \"contracts/Coupon.sol\":3532:3619  function _msgSender() private view returns (address) {... */\ntag_26:\n    /* \"contracts/Coupon.sol\":3576:3583  address */\n  0x00\n    /* \"contracts/Coupon.sol\":3602:3612  msg.sender */\n  caller\n    /* \"contracts/Coupon.sol\":3595:3612  return msg.sender */\n  swap1\n  pop\n    /* \"contracts/Coupon.sol\":3532:3619  function _msgSender() private view returns (address) {... */\n  swap1\n  jump\t// out\n    /* \"contracts/Coupon.sol\":11336:11557  function _asSingletonArray(uint256 element)... */\ntag_28:\n    /* \"contracts/Coupon.sol\":11426:11442  uint256[] memory */\n  0x60\n    /* \"contracts/Coupon.sol\":11458:11480  uint256[] memory array */\n  0x00\n    /* \"contracts/Coupon.sol\":11497:11498  1 */\n  0x01\n    /* \"contracts/Coupon.sol\":11483:11499  new uint256[](1) */\n  0xffffffffffffffff\n  dup2\n  gt\n  iszero\n  tag_41\n  jumpi\n  tag_42\n  tag_43\n  jump\t// in\ntag_42:\ntag_41:\n  mload(0x40)\n  swap1\n  dup1\n  dup3\n  mstore\n  dup1\n  0x20\n  mul\n  0x20\n  add\n  dup3\n  add\n  0x40\n  mstore\n  dup1\n  iszero\n  tag_44\n  jumpi\n  dup2\n  0x20\n  add\n  0x20\n  dup3\n  mul\n  dup1\n  calldatasize\n  dup4\n  calldatacopy\n  dup1\n  dup3\n  add\n  swap2\n  pop\n  pop\n  swap1\n  pop\ntag_44:\n  pop\n    /* \"contracts/Coupon.sol\":11458:11499  uint256[] memory array = new uint256[](1) */\n  swap1\n  pop\n    /* \"contracts/Coupon.sol\":11520:11527  element */\n  dup3\n    /* \"contracts/Coupon.sol\":11509:11514  array */\n  dup2\n    /* \"contracts/Coupon.sol\":11515:11516  0 */\n  0x00\n    /* \"contracts/Coupon.sol\":11509:11517  array[0] */\n  dup2\n  mload\n  dup2\n  lt\n  tag_45\n  jumpi\n  tag_46\n  tag_47\n  jump\t// in\ntag_46:\ntag_45:\n  0x20\n  mul\n  0x20\n  add\n  add\n    /* \"contracts/Coupon.sol\":11509:11527  array[0] = element */\n  dup2\n  dup2\n  mstore\n  pop\n  pop\n    /* \"contracts/Coupon.sol\":11545:11550  array */\n  dup1\n    /* \"contracts/Coupon.sol\":11538:11550  return array */\n  swap2\n  pop\n  pop\n    /* \"contracts/Coupon.sol\":11336:11557  function _asSingletonArray(uint256 element)... */\n  swap2\n  swap1\n  pop\n  jump\t// out\n    /* \"contracts/Coupon.sol\":9094:9308  function _beforeTokenTransfer(... */\ntag_31:\n  pop\n  pop\n  pop\n  pop\n  pop\n  pop\n  jump\t// out\n    /* \"contracts/Coupon.sol\":10241:10454  function _afterTokenTransfer(... */\ntag_36:\n  pop\n  pop\n  pop\n  pop\n  pop\n  pop\n  jump\t// out\n    /* \"contracts/Coupon.sol\":10460:11330  function _doSafeTransferAcceptanceCheck(... */\ntag_38:\n    /* \"contracts/Coupon.sol\":10667:10681  isContract(to) */\n  tag_51\n    /* \"contracts/Coupon.sol\":10678:10680  to */\n  dup5\n    /* \"contracts/Coupon.sol\":10667:10677  isContract */\n  shl(0x20, tag_52)\n    /* \"contracts/Coupon.sol\":10667:10681  isContract(to) */\n  0x20\n  shr\n  jump\t// in\ntag_51:\n    /* \"contracts/Coupon.sol\":10663:11324  if (isContract(to)) {... */\n  iszero\n  tag_53\n  jumpi\n    /* \"contracts/Coupon.sol\":10734:10736  to */\n  dup4\n    /* \"contracts/Coupon.sol\":10717:10755  IERC1155Receiver(to).onERC1155Received */\n  0xffffffffffffffffffffffffffffffffffffffff\n  and\n  0xf23a6e61\n    /* \"contracts/Coupon.sol\":10777:10785  operator */\n  dup8\n    /* \"contracts/Coupon.sol\":10807:10811  from */\n  dup8\n    /* \"contracts/Coupon.sol\":10833:10835  id */\n  dup7\n    /* \"contracts/Coupon.sol\":10857:10863  amount */\n  dup7\n    /* \"contracts/Coupon.sol\":10885:10889  data */\n  dup7\n    /* \"contracts/Coupon.sol\":10717:10907  IERC1155Receiver(to).onERC1155Received(... */\n  mload(0x40)\n  dup7\n  0xffffffff\n  and\n  0xe0\n  shl\n  dup2\n  mstore\n  0x04\n  add\n  tag_54\n  swap6\n  swap5\n  swap4\n  swap3\n  swap2\n  swap1\n  tag_55\n  jump\t// in\ntag_54:\n  0x20\n  mload(0x40)\n  dup1\n  dup4\n  sub\n  dup2\n  0x00\n  dup8\n  dup1\n  extcodesize\n  iszero\n  dup1\n  iszero\n  tag_56\n  jumpi\n  0x00\n  dup1\n  revert\ntag_56:\n  pop\n  gas\n  call\n  swap3\n  pop\n  pop\n  pop\n  dup1\n  iszero\n  tag_57\n  jumpi\n  pop\n  mload(0x40)\n  returndatasize\n  not(0x1f)\n  0x1f\n  dup3\n  add\n  and\n  dup3\n  add\n  dup1\n  0x40\n  mstore\n  pop\n  dup2\n  add\n  swap1\n  tag_58\n  swap2\n  swap1\n  tag_59\n  jump\t// in\ntag_58:\n  0x01\ntag_57:\n    /* \"contracts/Coupon.sol\":10697:11314  try... */\n  tag_60\n  jumpi\n  tag_64\n  tag_65\n  jump\t// in\ntag_64:\n  dup1\n  0x08c379a0\n  eq\n  iszero\n  tag_63\n  jumpi\n  pop\n  tag_66\n  tag_67\n  jump\t// in\ntag_66:\n  dup1\n  tag_68\n  jumpi\n  pop\n  jump(tag_62)\ntag_68:\n    /* \"contracts/Coupon.sol\":11190:11196  reason */\n  dup1\n    /* \"contracts/Coupon.sol\":11183:11197  revert(reason) */\n  mload(0x40)\n  0x08c379a000000000000000000000000000000000000000000000000000000000\n  dup2\n  mstore\n  0x04\n  add\n  tag_69\n  swap2\n  swap1\n  tag_70\n  jump\t// in\ntag_69:\n  mload(0x40)\n  dup1\n  swap2\n  sub\n  swap1\n  revert\n    /* \"contracts/Coupon.sol\":10697:11314  try... */\ntag_63:\n  pop\ntag_62:\n    /* \"contracts/Coupon.sol\":11237:11299  revert(\"ERC1155: transfer to non ERC1155Receiver implementer\") */\n  mload(0x40)\n  0x08c379a000000000000000000000000000000000000000000000000000000000\n  dup2\n  mstore\n  0x04\n  add\n  tag_71\n  swap1\n  tag_72\n  jump\t// in\ntag_71:\n  mload(0x40)\n  dup1\n  swap2\n  sub\n  swap1\n  revert\n    /* \"contracts/Coupon.sol\":10697:11314  try... */\ntag_60:\n    /* \"contracts/Coupon.sol\":10980:11023  IERC1155Receiver.onERC1155Received.selector */\n  shl(0xe0, 0xf23a6e61)\n    /* \"contracts/Coupon.sol\":10968:11023  response != IERC1155Receiver.onERC1155Received.selector */\n  not(0xffffffffffffffffffffffffffffffffffffffffffffffffffffffff)\n  and\n    /* \"contracts/Coupon.sol\":10968:10976  response */\n  dup2\n    /* \"contracts/Coupon.sol\":10968:11023  response != IERC1155Receiver.onERC1155Received.selector */\n  not(0xffffffffffffffffffffffffffffffffffffffffffffffffffffffff)\n  and\n  eq\n    /* \"contracts/Coupon.sol\":10964:11116  if (response != IERC1155Receiver.onERC1155Received.selector) {... */\n  tag_74\n  jumpi\n    /* \"contracts/Coupon.sol\":11047:11097  revert(\"ERC1155: ERC1155Receiver rejected tokens\") */\n  mload(0x40)\n  0x08c379a000000000000000000000000000000000000000000000000000000000\n  dup2\n  mstore\n  0x04\n  add\n  tag_75\n  swap1\n  tag_76\n  jump\t// in\ntag_75:\n  mload(0x40)\n  dup1\n  swap2\n  sub\n  swap1\n  revert\n    /* \"contracts/Coupon.sol\":10964:11116  if (response != IERC1155Receiver.onERC1155Received.selector) {... */\ntag_74:\n    /* \"contracts/Coupon.sol\":10920:11130  returns (bytes4 response) {... */\n  pop\n    /* \"contracts/Coupon.sol\":10663:11324  if (isContract(to)) {... */\ntag_53:\n    /* \"contracts/Coupon.sol\":10460:11330  function _doSafeTransferAcceptanceCheck(... */\n  pop\n  pop\n  pop\n  pop\n  pop\n  pop\n  jump\t// out\n    /* \"contracts/Coupon.sol\":3207:3526  function isContract(address account) private view returns (bool) {... */\ntag_52:\n    /* \"contracts/Coupon.sol\":3266:3270  bool */\n  0x00\n    /* \"contracts/Coupon.sol\":3518:3519  0 */\n  dup1\n    /* \"contracts/Coupon.sol\":3496:3503  account */\n  dup3\n    /* \"contracts/Coupon.sol\":3496:3515  account.code.length */\n  0xffffffffffffffffffffffffffffffffffffffff\n  and\n  extcodesize\n    /* \"contracts/Coupon.sol\":3496:3519  account.code.length > 0 */\n  gt\n    /* \"contracts/Coupon.sol\":3489:3519  return account.code.length > 0 */\n  swap1\n  pop\n    /* \"contracts/Coupon.sol\":3207:3526  function isContract(address account) private view returns (bool) {... */\n  swap2\n  swap1\n  pop\n  jump\t// out\n    /* \"#utility.yul\":7:148   */\ntag_79:\n    /* \"#utility.yul\":63:68   */\n  0x00\n    /* \"#utility.yul\":94:100   */\n  dup2\n    /* \"#utility.yul\":88:101   */\n  mload\n    /* \"#utility.yul\":79:101   */\n  swap1\n  pop\n    /* \"#utility.yul\":110:142   */\n  tag_81\n    /* \"#utility.yul\":136:141   */\n  dup2\n    /* \"#utility.yul\":110:142   */\n  tag_82\n  jump\t// in\ntag_81:\n    /* \"#utility.yul\":7:148   */\n  swap3\n  swap2\n  pop\n  pop\n  jump\t// out\n    /* \"#utility.yul\":154:503   */\ntag_59:\n    /* \"#utility.yul\":223:229   */\n  0x00\n    /* \"#utility.yul\":272:274   */\n  0x20\n    /* \"#utility.yul\":260:269   */\n  dup3\n    /* \"#utility.yul\":251:258   */\n  dup5\n    /* \"#utility.yul\":247:270   */\n  sub\n    /* \"#utility.yul\":243:275   */\n  slt\n    /* \"#utility.yul\":240:359   */\n  iszero\n  tag_84\n  jumpi\n    /* \"#utility.yul\":278:357   */\n  tag_85\n  tag_86\n  jump\t// in\ntag_85:\n    /* \"#utility.yul\":240:359   */\ntag_84:\n    /* \"#utility.yul\":398:399   */\n  0x00\n    /* \"#utility.yul\":423:486   */\n  tag_87\n    /* \"#utility.yul\":478:485   */\n  dup5\n    /* \"#utility.yul\":469:475   */\n  dup3\n    /* \"#utility.yul\":458:467   */\n  dup6\n    /* \"#utility.yul\":454:476   */\n  add\n    /* \"#utility.yul\":423:486   */\n  tag_79\n  jump\t// in\ntag_87:\n    /* \"#utility.yul\":413:486   */\n  swap2\n  pop\n    /* \"#utility.yul\":369:496   */\n  pop\n    /* \"#utility.yul\":154:503   */\n  swap3\n  swap2\n  pop\n  pop\n  jump\t// out\n    /* \"#utility.yul\":509:627   */\ntag_88:\n    /* \"#utility.yul\":596:620   */\n  tag_90\n    /* \"#utility.yul\":614:619   */\n  dup2\n    /* \"#utility.yul\":596:620   */\n  tag_91\n  jump\t// in\ntag_90:\n    /* \"#utility.yul\":591:594   */\n  dup3\n    /* \"#utility.yul\":584:621   */\n  mstore\n    /* \"#utility.yul\":509:627   */\n  pop\n  pop\n  jump\t// out\n    /* \"#utility.yul\":633:993   */\ntag_92:\n    /* \"#utility.yul\":719:722   */\n  0x00\n    /* \"#utility.yul\":747:785   */\n  tag_94\n    /* \"#utility.yul\":779:784   */\n  dup3\n    /* \"#utility.yul\":747:785   */\n  tag_95\n  jump\t// in\ntag_94:\n    /* \"#utility.yul\":801:871   */\n  tag_96\n    /* \"#utility.yul\":864:870   */\n  dup2\n    /* \"#utility.yul\":859:862   */\n  dup6\n    /* \"#utility.yul\":801:871   */\n  tag_97\n  jump\t// in\ntag_96:\n    /* \"#utility.yul\":794:871   */\n  swap4\n  pop\n    /* \"#utility.yul\":880:932   */\n  tag_98\n    /* \"#utility.yul\":925:931   */\n  dup2\n    /* \"#utility.yul\":920:923   */\n  dup6\n    /* \"#utility.yul\":913:917   */\n  0x20\n    /* \"#utility.yul\":906:911   */\n  dup7\n    /* \"#utility.yul\":902:918   */\n  add\n    /* \"#utility.yul\":880:932   */\n  tag_99\n  jump\t// in\ntag_98:\n    /* \"#utility.yul\":957:986   */\n  tag_100\n    /* \"#utility.yul\":979:985   */\n  dup2\n    /* \"#utility.yul\":957:986   */\n  tag_101\n  jump\t// in\ntag_100:\n    /* \"#utility.yul\":952:955   */\n  dup5\n    /* \"#utility.yul\":948:987   */\n  add\n    /* \"#utility.yul\":941:987   */\n  swap2\n  pop\n    /* \"#utility.yul\":723:993   */\n  pop\n    /* \"#utility.yul\":633:993   */\n  swap3\n  swap2\n  pop\n  pop\n  jump\t// out\n    /* \"#utility.yul\":999:1363   */\ntag_102:\n    /* \"#utility.yul\":1087:1090   */\n  0x00\n    /* \"#utility.yul\":1115:1154   */\n  tag_104\n    /* \"#utility.yul\":1148:1153   */\n  dup3\n    /* \"#utility.yul\":1115:1154   */\n  tag_105\n  jump\t// in\ntag_104:\n    /* \"#utility.yul\":1170:1241   */\n  tag_106\n    /* \"#utility.yul\":1234:1240   */\n  dup2\n    /* \"#utility.yul\":1229:1232   */\n  dup6\n    /* \"#utility.yul\":1170:1241   */\n  tag_107\n  jump\t// in\ntag_106:\n    /* \"#utility.yul\":1163:1241   */\n  swap4\n  pop\n    /* \"#utility.yul\":1250:1302   */\n  tag_108\n    /* \"#utility.yul\":1295:1301   */\n  dup2\n    /* \"#utility.yul\":1290:1293   */\n  dup6\n    /* \"#utility.yul\":1283:1287   */\n  0x20\n    /* \"#utility.yul\":1276:1281   */\n  dup7\n    /* \"#utility.yul\":1272:1288   */\n  add\n    /* \"#utility.yul\":1250:1302   */\n  tag_99\n  jump\t// in\ntag_108:\n    /* \"#utility.yul\":1327:1356   */\n  tag_109\n    /* \"#utility.yul\":1349:1355   */\n  dup2\n    /* \"#utility.yul\":1327:1356   */\n  tag_101\n  jump\t// in\ntag_109:\n    /* \"#utility.yul\":1322:1325   */\n  dup5\n    /* \"#utility.yul\":1318:1357   */\n  add\n    /* \"#utility.yul\":1311:1357   */\n  swap2\n  pop\n    /* \"#utility.yul\":1091:1363   */\n  pop\n    /* \"#utility.yul\":999:1363   */\n  swap3\n  swap2\n  pop\n  pop\n  jump\t// out\n    /* \"#utility.yul\":1369:1735   */\ntag_110:\n    /* \"#utility.yul\":1511:1514   */\n  0x00\n    /* \"#utility.yul\":1532:1599   */\n  tag_112\n    /* \"#utility.yul\":1596:1598   */\n  0x34\n    /* \"#utility.yul\":1591:1594   */\n  dup4\n    /* \"#utility.yul\":1532:1599   */\n  tag_107\n  jump\t// in\ntag_112:\n    /* \"#utility.yul\":1525:1599   */\n  swap2\n  pop\n    /* \"#utility.yul\":1608:1701   */\n  tag_113\n    /* \"#utility.yul\":1697:1700   */\n  dup3\n    /* \"#utility.yul\":1608:1701   */\n  tag_114\n  jump\t// in\ntag_113:\n    /* \"#utility.yul\":1726:1728   */\n  0x40\n    /* \"#utility.yul\":1721:1724   */\n  dup3\n    /* \"#utility.yul\":1717:1729   */\n  add\n    /* \"#utility.yul\":1710:1729   */\n  swap1\n  pop\n    /* \"#utility.yul\":1369:1735   */\n  swap2\n  swap1\n  pop\n  jump\t// out\n    /* \"#utility.yul\":1741:2107   */\ntag_115:\n    /* \"#utility.yul\":1883:1886   */\n  0x00\n    /* \"#utility.yul\":1904:1971   */\n  tag_117\n    /* \"#utility.yul\":1968:1970   */\n  0x28\n    /* \"#utility.yul\":1963:1966   */\n  dup4\n    /* \"#utility.yul\":1904:1971   */\n  tag_107\n  jump\t// in\ntag_117:\n    /* \"#utility.yul\":1897:1971   */\n  swap2\n  pop\n    /* \"#utility.yul\":1980:2073   */\n  tag_118\n    /* \"#utility.yul\":2069:2072   */\n  dup3\n    /* \"#utility.yul\":1980:2073   */\n  tag_119\n  jump\t// in\ntag_118:\n    /* \"#utility.yul\":2098:2100   */\n  0x40\n    /* \"#utility.yul\":2093:2096   */\n  dup3\n    /* \"#utility.yul\":2089:2101   */\n  add\n    /* \"#utility.yul\":2082:2101   */\n  swap1\n  pop\n    /* \"#utility.yul\":1741:2107   */\n  swap2\n  swap1\n  pop\n  jump\t// out\n    /* \"#utility.yul\":2113:2479   */\ntag_120:\n    /* \"#utility.yul\":2255:2258   */\n  0x00\n    /* \"#utility.yul\":2276:2343   */\n  tag_122\n    /* \"#utility.yul\":2340:2342   */\n  0x26\n    /* \"#utility.yul\":2335:2338   */\n  dup4\n    /* \"#utility.yul\":2276:2343   */\n  tag_107\n  jump\t// in\ntag_122:\n    /* \"#utility.yul\":2269:2343   */\n  swap2\n  pop\n    /* \"#utility.yul\":2352:2445   */\n  tag_123\n    /* \"#utility.yul\":2441:2444   */\n  dup3\n    /* \"#utility.yul\":2352:2445   */\n  tag_124\n  jump\t// in\ntag_123:\n    /* \"#utility.yul\":2470:2472   */\n  0x40\n    /* \"#utility.yul\":2465:2468   */\n  dup3\n    /* \"#utility.yul\":2461:2473   */\n  add\n    /* \"#utility.yul\":2454:2473   */\n  swap1\n  pop\n    /* \"#utility.yul\":2113:2479   */\n  swap2\n  swap1\n  pop\n  jump\t// out\n    /* \"#utility.yul\":2485:2851   */\ntag_125:\n    /* \"#utility.yul\":2627:2630   */\n  0x00\n    /* \"#utility.yul\":2648:2715   */\n  tag_127\n    /* \"#utility.yul\":2712:2714   */\n  0x21\n    /* \"#utility.yul\":2707:2710   */\n  dup4\n    /* \"#utility.yul\":2648:2715   */\n  tag_107\n  jump\t// in\ntag_127:\n    /* \"#utility.yul\":2641:2715   */\n  swap2\n  pop\n    /* \"#utility.yul\":2724:2817   */\n  tag_128\n    /* \"#utility.yul\":2813:2816   */\n  dup3\n    /* \"#utility.yul\":2724:2817   */\n  tag_129\n  jump\t// in\ntag_128:\n    /* \"#utility.yul\":2842:2844   */\n  0x40\n    /* \"#utility.yul\":2837:2840   */\n  dup3\n    /* \"#utility.yul\":2833:2845   */\n  add\n    /* \"#utility.yul\":2826:2845   */\n  swap1\n  pop\n    /* \"#utility.yul\":2485:2851   */\n  swap2\n  swap1\n  pop\n  jump\t// out\n    /* \"#utility.yul\":2857:2975   */\ntag_130:\n    /* \"#utility.yul\":2944:2968   */\n  tag_132\n    /* \"#utility.yul\":2962:2967   */\n  dup2\n    /* \"#utility.yul\":2944:2968   */\n  tag_133\n  jump\t// in\ntag_132:\n    /* \"#utility.yul\":2939:2942   */\n  dup3\n    /* \"#utility.yul\":2932:2969   */\n  mstore\n    /* \"#utility.yul\":2857:2975   */\n  pop\n  pop\n  jump\t// out\n    /* \"#utility.yul\":2981:3732   */\ntag_55:\n    /* \"#utility.yul\":3204:3208   */\n  0x00\n    /* \"#utility.yul\":3242:3245   */\n  0xa0\n    /* \"#utility.yul\":3231:3240   */\n  dup3\n    /* \"#utility.yul\":3227:3246   */\n  add\n    /* \"#utility.yul\":3219:3246   */\n  swap1\n  pop\n    /* \"#utility.yul\":3256:3327   */\n  tag_135\n    /* \"#utility.yul\":3324:3325   */\n  0x00\n    /* \"#utility.yul\":3313:3322   */\n  dup4\n    /* \"#utility.yul\":3309:3326   */\n  add\n    /* \"#utility.yul\":3300:3306   */\n  dup9\n    /* \"#utility.yul\":3256:3327   */\n  tag_88\n  jump\t// in\ntag_135:\n    /* \"#utility.yul\":3337:3409   */\n  tag_136\n    /* \"#utility.yul\":3405:3407   */\n  0x20\n    /* \"#utility.yul\":3394:3403   */\n  dup4\n    /* \"#utility.yul\":3390:3408   */\n  add\n    /* \"#utility.yul\":3381:3387   */\n  dup8\n    /* \"#utility.yul\":3337:3409   */\n  tag_88\n  jump\t// in\ntag_136:\n    /* \"#utility.yul\":3419:3491   */\n  tag_137\n    /* \"#utility.yul\":3487:3489   */\n  0x40\n    /* \"#utility.yul\":3476:3485   */\n  dup4\n    /* \"#utility.yul\":3472:3490   */\n  add\n    /* \"#utility.yul\":3463:3469   */\n  dup7\n    /* \"#utility.yul\":3419:3491   */\n  tag_130\n  jump\t// in\ntag_137:\n    /* \"#utility.yul\":3501:3573   */\n  tag_138\n    /* \"#utility.yul\":3569:3571   */\n  0x60\n    /* \"#utility.yul\":3558:3567   */\n  dup4\n    /* \"#utility.yul\":3554:3572   */\n  add\n    /* \"#utility.yul\":3545:3551   */\n  dup6\n    /* \"#utility.yul\":3501:3573   */\n  tag_130\n  jump\t// in\ntag_138:\n    /* \"#utility.yul\":3621:3630   */\n  dup2\n    /* \"#utility.yul\":3615:3619   */\n  dup2\n    /* \"#utility.yul\":3611:3631   */\n  sub\n    /* \"#utility.yul\":3605:3608   */\n  0x80\n    /* \"#utility.yul\":3594:3603   */\n  dup4\n    /* \"#utility.yul\":3590:3609   */\n  add\n    /* \"#utility.yul\":3583:3632   */\n  mstore\n    /* \"#utility.yul\":3649:3725   */\n  tag_139\n    /* \"#utility.yul\":3720:3724   */\n  dup2\n    /* \"#utility.yul\":3711:3717   */\n  dup5\n    /* \"#utility.yul\":3649:3725   */\n  tag_92\n  jump\t// in\ntag_139:\n    /* \"#utility.yul\":3641:3725   */\n  swap1\n  pop\n    /* \"#utility.yul\":2981:3732   */\n  swap7\n  swap6\n  pop\n  pop\n  pop\n  pop\n  pop\n  pop\n  jump\t// out\n    /* \"#utility.yul\":3738:4051   */\ntag_70:\n    /* \"#utility.yul\":3851:3855   */\n  0x00\n    /* \"#utility.yul\":3889:3891   */\n  0x20\n    /* \"#utility.yul\":3878:3887   */\n  dup3\n    /* \"#utility.yul\":3874:3892   */\n  add\n    /* \"#utility.yul\":3866:3892   */\n  swap1\n  pop\n    /* \"#utility.yul\":3938:3947   */\n  dup2\n    /* \"#utility.yul\":3932:3936   */\n  dup2\n    /* \"#utility.yul\":3928:3948   */\n  sub\n    /* \"#utility.yul\":3924:3925   */\n  0x00\n    /* \"#utility.yul\":3913:3922   */\n  dup4\n    /* \"#utility.yul\":3909:3926   */\n  add\n    /* \"#utility.yul\":3902:3949   */\n  mstore\n    /* \"#utility.yul\":3966:4044   */\n  tag_141\n    /* \"#utility.yul\":4039:4043   */\n  dup2\n    /* \"#utility.yul\":4030:4036   */\n  dup5\n    /* \"#utility.yul\":3966:4044   */\n  tag_102\n  jump\t// in\ntag_141:\n    /* \"#utility.yul\":3958:4044   */\n  swap1\n  pop\n    /* \"#utility.yul\":3738:4051   */\n  swap3\n  swap2\n  pop\n  pop\n  jump\t// out\n    /* \"#utility.yul\":4057:4476   */\ntag_72:\n    /* \"#utility.yul\":4223:4227   */\n  0x00\n    /* \"#utility.yul\":4261:4263   */\n  0x20\n    /* \"#utility.yul\":4250:4259   */\n  dup3\n    /* \"#utility.yul\":4246:4264   */\n  add\n    /* \"#utility.yul\":4238:4264   */\n  swap1\n  pop\n    /* \"#utility.yul\":4310:4319   */\n  dup2\n    /* \"#utility.yul\":4304:4308   */\n  dup2\n    /* \"#utility.yul\":4300:4320   */\n  sub\n    /* \"#utility.yul\":4296:4297   */\n  0x00\n    /* \"#utility.yul\":4285:4294   */\n  dup4\n    /* \"#utility.yul\":4281:4298   */\n  add\n    /* \"#utility.yul\":4274:4321   */\n  mstore\n    /* \"#utility.yul\":4338:4469   */\n  tag_143\n    /* \"#utility.yul\":4464:4468   */\n  dup2\n    /* \"#utility.yul\":4338:4469   */\n  tag_110\n  jump\t// in\ntag_143:\n    /* \"#utility.yul\":4330:4469   */\n  swap1\n  pop\n    /* \"#utility.yul\":4057:4476   */\n  swap2\n  swap1\n  pop\n  jump\t// out\n    /* \"#utility.yul\":4482:4901   */\ntag_76:\n    /* \"#utility.yul\":4648:4652   */\n  0x00\n    /* \"#utility.yul\":4686:4688   */\n  0x20\n    /* \"#utility.yul\":4675:4684   */\n  dup3\n    /* \"#utility.yul\":4671:4689   */\n  add\n    /* \"#utility.yul\":4663:4689   */\n  swap1\n  pop\n    /* \"#utility.yul\":4735:4744   */\n  dup2\n    /* \"#utility.yul\":4729:4733   */\n  dup2\n    /* \"#utility.yul\":4725:4745   */\n  sub\n    /* \"#utility.yul\":4721:4722   */\n  0x00\n    /* \"#utility.yul\":4710:4719   */\n  dup4\n    /* \"#utility.yul\":4706:4723   */\n  add\n    /* \"#utility.yul\":4699:4746   */\n  mstore\n    /* \"#utility.yul\":4763:4894   */\n  tag_145\n    /* \"#utility.yul\":4889:4893   */\n  dup2\n    /* \"#utility.yul\":4763:4894   */\n  tag_115\n  jump\t// in\ntag_145:\n    /* \"#utility.yul\":4755:4894   */\n  swap1\n  pop\n    /* \"#utility.yul\":4482:4901   */\n  swap2\n  swap1\n  pop\n  jump\t// out\n    /* \"#utility.yul\":4907:5326   */\ntag_16:\n    /* \"#utility.yul\":5073:5077   */\n  0x00\n    /* \"#utility.yul\":5111:5113   */\n  0x20\n    /* \"#utility.yul\":5100:5109   */\n  dup3\n    /* \"#utility.yul\":5096:5114   */\n  add\n    /* \"#utility.yul\":5088:5114   */\n  swap1\n  pop\n    /* \"#utility.yul\":5160:5169   */\n  dup2\n    /* \"#utility.yul\":5154:5158   */\n  dup2\n    /* \"#utility.yul\":5150:5170   */\n  sub\n    /* \"#utility.yul\":5146:5147   */\n  0x00\n    /* \"#utility.yul\":5135:5144   */\n  dup4\n    /* \"#utility.yul\":5131:5148   */\n  add\n    /* \"#utility.yul\":5124:5171   */\n  mstore\n    /* \"#utility.yul\":5188:5319   */\n  tag_147\n    /* \"#utility.yul\":5314:5318   */\n  dup2\n    /* \"#utility.yul\":5188:5319   */\n  tag_120\n  jump\t// in\ntag_147:\n    /* \"#utility.yul\":5180:5319   */\n  swap1\n  pop\n    /* \"#utility.yul\":4907:5326   */\n  swap2\n  swap1\n  pop\n  jump\t// out\n    /* \"#utility.yul\":5332:5751   */\ntag_24:\n    /* \"#utility.yul\":5498:5502   */\n  0x00\n    /* \"#utility.yul\":5536:5538   */\n  0x20\n    /* \"#utility.yul\":5525:5534   */\n  dup3\n    /* \"#utility.yul\":5521:5539   */\n  add\n    /* \"#utility.yul\":5513:5539   */\n  swap1\n  pop\n    /* \"#utility.yul\":5585:5594   */\n  dup2\n    /* \"#utility.yul\":5579:5583   */\n  dup2\n    /* \"#utility.yul\":5575:5595   */\n  sub\n    /* \"#utility.yul\":5571:5572   */\n  0x00\n    /* \"#utility.yul\":5560:5569   */\n  dup4\n    /* \"#utility.yul\":5556:5573   */\n  add\n    /* \"#utility.yul\":5549:5596   */\n  mstore\n    /* \"#utility.yul\":5613:5744   */\n  tag_149\n    /* \"#utility.yul\":5739:5743   */\n  dup2\n    /* \"#utility.yul\":5613:5744   */\n  tag_125\n  jump\t// in\ntag_149:\n    /* \"#utility.yul\":5605:5744   */\n  swap1\n  pop\n    /* \"#utility.yul\":5332:5751   */\n  swap2\n  swap1\n  pop\n  jump\t// out\n    /* \"#utility.yul\":5757:6089   */\ntag_34:\n    /* \"#utility.yul\":5878:5882   */\n  0x00\n    /* \"#utility.yul\":5916:5918   */\n  0x40\n    /* \"#utility.yul\":5905:5914   */\n  dup3\n    /* \"#utility.yul\":5901:5919   */\n  add\n    /* \"#utility.yul\":5893:5919   */\n  swap1\n  pop\n    /* \"#utility.yul\":5929:6000   */\n  tag_151\n    /* \"#utility.yul\":5997:5998   */\n  0x00\n    /* \"#utility.yul\":5986:5995   */\n  dup4\n    /* \"#utility.yul\":5982:5999   */\n  add\n    /* \"#utility.yul\":5973:5979   */\n  dup6\n    /* \"#utility.yul\":5929:6000   */\n  tag_130\n  jump\t// in\ntag_151:\n    /* \"#utility.yul\":6010:6082   */\n  tag_152\n    /* \"#utility.yul\":6078:6080   */\n  0x20\n    /* \"#utility.yul\":6067:6076   */\n  dup4\n    /* \"#utility.yul\":6063:6081   */\n  add\n    /* \"#utility.yul\":6054:6060   */\n  dup5\n    /* \"#utility.yul\":6010:6082   */\n  tag_130\n  jump\t// in\ntag_152:\n    /* \"#utility.yul\":5757:6089   */\n  swap4\n  swap3\n  pop\n  pop\n  pop\n  jump\t// out\n    /* \"#utility.yul\":6095:6170   */\ntag_153:\n    /* \"#utility.yul\":6128:6134   */\n  0x00\n    /* \"#utility.yul\":6161:6163   */\n  0x40\n    /* \"#utility.yul\":6155:6164   */\n  mload\n    /* \"#utility.yul\":6145:6164   */\n  swap1\n  pop\n    /* \"#utility.yul\":6095:6170   */\n  swap1\n  jump\t// out\n    /* \"#utility.yul\":6176:6274   */\ntag_95:\n    /* \"#utility.yul\":6227:6233   */\n  0x00\n    /* \"#utility.yul\":6261:6266   */\n  dup2\n    /* \"#utility.yul\":6255:6267   */\n  mload\n    /* \"#utility.yul\":6245:6267   */\n  swap1\n  pop\n    /* \"#utility.yul\":6176:6274   */\n  swap2\n  swap1\n  pop\n  jump\t// out\n    /* \"#utility.yul\":6280:6379   */\ntag_105:\n    /* \"#utility.yul\":6332:6338   */\n  0x00\n    /* \"#utility.yul\":6366:6371   */\n  dup2\n    /* \"#utility.yul\":6360:6372   */\n  mload\n    /* \"#utility.yul\":6350:6372   */\n  swap1\n  pop\n    /* \"#utility.yul\":6280:6379   */\n  swap2\n  swap1\n  pop\n  jump\t// out\n    /* \"#utility.yul\":6385:6553   */\ntag_97:\n    /* \"#utility.yul\":6468:6479   */\n  0x00\n    /* \"#utility.yul\":6502:6508   */\n  dup3\n    /* \"#utility.yul\":6497:6500   */\n  dup3\n    /* \"#utility.yul\":6490:6509   */\n  mstore\n    /* \"#utility.yul\":6542:6546   */\n  0x20\n    /* \"#utility.yul\":6537:6540   */\n  dup3\n    /* \"#utility.yul\":6533:6547   */\n  add\n    /* \"#utility.yul\":6518:6547   */\n  swap1\n  pop\n    /* \"#utility.yul\":6385:6553   */\n  swap3\n  swap2\n  pop\n  pop\n  jump\t// out\n    /* \"#utility.yul\":6559:6728   */\ntag_107:\n    /* \"#utility.yul\":6643:6654   */\n  0x00\n    /* \"#utility.yul\":6677:6683   */\n  dup3\n    /* \"#utility.yul\":6672:6675   */\n  dup3\n    /* \"#utility.yul\":6665:6684   */\n  mstore\n    /* \"#utility.yul\":6717:6721   */\n  0x20\n    /* \"#utility.yul\":6712:6715   */\n  dup3\n    /* \"#utility.yul\":6708:6722   */\n  add\n    /* \"#utility.yul\":6693:6722   */\n  swap1\n  pop\n    /* \"#utility.yul\":6559:6728   */\n  swap3\n  swap2\n  pop\n  pop\n  jump\t// out\n    /* \"#utility.yul\":6734:7039   */\ntag_20:\n    /* \"#utility.yul\":6774:6777   */\n  0x00\n    /* \"#utility.yul\":6793:6813   */\n  tag_160\n    /* \"#utility.yul\":6811:6812   */\n  dup3\n    /* \"#utility.yul\":6793:6813   */\n  tag_133\n  jump\t// in\ntag_160:\n    /* \"#utility.yul\":6788:6813   */\n  swap2\n  pop\n    /* \"#utility.yul\":6827:6847   */\n  tag_161\n    /* \"#utility.yul\":6845:6846   */\n  dup4\n    /* \"#utility.yul\":6827:6847   */\n  tag_133\n  jump\t// in\ntag_161:\n    /* \"#utility.yul\":6822:6847   */\n  swap3\n  pop\n    /* \"#utility.yul\":6981:6982   */\n  dup3\n    /* \"#utility.yul\":6913:6979   */\n  0xffffffffffffffffffffffffffffffffffffffffffffffffffffffffffffffff\n    /* \"#utility.yul\":6909:6983   */\n  sub\n    /* \"#utility.yul\":6906:6907   */\n  dup3\n    /* \"#utility.yul\":6903:6984   */\n  gt\n    /* \"#utility.yul\":6900:7007   */\n  iszero\n  tag_162\n  jumpi\n    /* \"#utility.yul\":6987:7005   */\n  tag_163\n  tag_164\n  jump\t// in\ntag_163:\n    /* \"#utility.yul\":6900:7007   */\ntag_162:\n    /* \"#utility.yul\":7031:7032   */\n  dup3\n    /* \"#utility.yul\":7028:7029   */\n  dup3\n    /* \"#utility.yul\":7024:7033   */\n  add\n    /* \"#utility.yul\":7017:7033   */\n  swap1\n  pop\n    /* \"#utility.yul\":6734:7039   */\n  swap3\n  swap2\n  pop\n  pop\n  jump\t// out\n    /* \"#utility.yul\":7045:7141   */\ntag_91:\n    /* \"#utility.yul\":7082:7089   */\n  0x00\n    /* \"#utility.yul\":7111:7135   */\n  tag_166\n    /* \"#utility.yul\":7129:7134   */\n  dup3\n    /* \"#utility.yul\":7111:7135   */\n  tag_167\n  jump\t// in\ntag_166:\n    /* \"#utility.yul\":7100:7135   */\n  swap1\n  pop\n    /* \"#utility.yul\":7045:7141   */\n  swap2\n  swap1\n  pop\n  jump\t// out\n    /* \"#utility.yul\":7147:7296   */\ntag_168:\n    /* \"#utility.yul\":7183:7190   */\n  0x00\n    /* \"#utility.yul\":7223:7289   */\n  0xffffffff00000000000000000000000000000000000000000000000000000000\n    /* \"#utility.yul\":7216:7221   */\n  dup3\n    /* \"#utility.yul\":7212:7290   */\n  and\n    /* \"#utility.yul\":7201:7290   */\n  swap1\n  pop\n    /* \"#utility.yul\":7147:7296   */\n  swap2\n  swap1\n  pop\n  jump\t// out\n    /* \"#utility.yul\":7302:7428   */\ntag_167:\n    /* \"#utility.yul\":7339:7346   */\n  0x00\n    /* \"#utility.yul\":7379:7421   */\n  0xffffffffffffffffffffffffffffffffffffffff\n    /* \"#utility.yul\":7372:7377   */\n  dup3\n    /* \"#utility.yul\":7368:7422   */\n  and\n    /* \"#utility.yul\":7357:7422   */\n  swap1\n  pop\n    /* \"#utility.yul\":7302:7428   */\n  swap2\n  swap1\n  pop\n  jump\t// out\n    /* \"#utility.yul\":7434:7511   */\ntag_133:\n    /* \"#utility.yul\":7471:7478   */\n  0x00\n    /* \"#utility.yul\":7500:7505   */\n  dup2\n    /* \"#utility.yul\":7489:7505   */\n  swap1\n  pop\n    /* \"#utility.yul\":7434:7511   */\n  swap2\n  swap1\n  pop\n  jump\t// out\n    /* \"#utility.yul\":7517:7824   */\ntag_99:\n    /* \"#utility.yul\":7585:7586   */\n  0x00\n    /* \"#utility.yul\":7595:7708   */\ntag_173:\n    /* \"#utility.yul\":7609:7615   */\n  dup4\n    /* \"#utility.yul\":7606:7607   */\n  dup2\n    /* \"#utility.yul\":7603:7616   */\n  lt\n    /* \"#utility.yul\":7595:7708   */\n  iszero\n  tag_175\n  jumpi\n    /* \"#utility.yul\":7694:7695   */\n  dup1\n    /* \"#utility.yul\":7689:7692   */\n  dup3\n    /* \"#utility.yul\":7685:7696   */\n  add\n    /* \"#utility.yul\":7679:7697   */\n  mload\n    /* \"#utility.yul\":7675:7676   */\n  dup2\n    /* \"#utility.yul\":7670:7673   */\n  dup5\n    /* \"#utility.yul\":7666:7677   */\n  add\n    /* \"#utility.yul\":7659:7698   */\n  mstore\n    /* \"#utility.yul\":7631:7633   */\n  0x20\n    /* \"#utility.yul\":7628:7629   */\n  dup2\n    /* \"#utility.yul\":7624:7634   */\n  add\n    /* \"#utility.yul\":7619:7634   */\n  swap1\n  pop\n    /* \"#utility.yul\":7595:7708   */\n  jump(tag_173)\ntag_175:\n    /* \"#utility.yul\":7726:7732   */\n  dup4\n    /* \"#utility.yul\":7723:7724   */\n  dup2\n    /* \"#utility.yul\":7720:7733   */\n  gt\n    /* \"#utility.yul\":7717:7818   */\n  iszero\n  tag_176\n  jumpi\n    /* \"#utility.yul\":7806:7807   */\n  0x00\n    /* \"#utility.yul\":7797:7803   */\n  dup5\n    /* \"#utility.yul\":7792:7795   */\n  dup5\n    /* \"#utility.yul\":7788:7804   */\n  add\n    /* \"#utility.yul\":7781:7808   */\n  mstore\n    /* \"#utility.yul\":7717:7818   */\ntag_176:\n    /* \"#utility.yul\":7566:7824   */\n  pop\n    /* \"#utility.yul\":7517:7824   */\n  pop\n  pop\n  pop\n  jump\t// out\n    /* \"#utility.yul\":7830:8111   */\ntag_177:\n    /* \"#utility.yul\":7913:7940   */\n  tag_179\n    /* \"#utility.yul\":7935:7939   */\n  dup3\n    /* \"#utility.yul\":7913:7940   */\n  tag_101\n  jump\t// in\ntag_179:\n    /* \"#utility.yul\":7905:7911   */\n  dup2\n    /* \"#utility.yul\":7901:7941   */\n  add\n    /* \"#utility.yul\":8043:8049   */\n  dup2\n    /* \"#utility.yul\":8031:8041   */\n  dup2\n    /* \"#utility.yul\":8028:8050   */\n  lt\n    /* \"#utility.yul\":8007:8025   */\n  0xffffffffffffffff\n    /* \"#utility.yul\":7995:8005   */\n  dup3\n    /* \"#utility.yul\":7992:8026   */\n  gt\n    /* \"#utility.yul\":7989:8051   */\n  or\n    /* \"#utility.yul\":7986:8074   */\n  iszero\n  tag_180\n  jumpi\n    /* \"#utility.yul\":8054:8072   */\n  tag_181\n  tag_43\n  jump\t// in\ntag_181:\n    /* \"#utility.yul\":7986:8074   */\ntag_180:\n    /* \"#utility.yul\":8094:8104   */\n  dup1\n    /* \"#utility.yul\":8090:8092   */\n  0x40\n    /* \"#utility.yul\":8083:8105   */\n  mstore\n    /* \"#utility.yul\":7873:8111   */\n  pop\n    /* \"#utility.yul\":7830:8111   */\n  pop\n  pop\n  jump\t// out\n    /* \"#utility.yul\":8117:8297   */\ntag_164:\n    /* \"#utility.yul\":8165:8242   */\n  0x4e487b7100000000000000000000000000000000000000000000000000000000\n    /* \"#utility.yul\":8162:8163   */\n  0x00\n    /* \"#utility.yul\":8155:8243   */\n  mstore\n    /* \"#utility.yul\":8262:8266   */\n  0x11\n    /* \"#utility.yul\":8259:8260   */\n  0x04\n    /* \"#utility.yul\":8252:8267   */\n  mstore\n    /* \"#utility.yul\":8286:8290   */\n  0x24\n    /* \"#utility.yul\":8283:8284   */\n  0x00\n    /* \"#utility.yul\":8276:8291   */\n  revert\n    /* \"#utility.yul\":8303:8483   */\ntag_47:\n    /* \"#utility.yul\":8351:8428   */\n  0x4e487b7100000000000000000000000000000000000000000000000000000000\n    /* \"#utility.yul\":8348:8349   */\n  0x00\n    /* \"#utility.yul\":8341:8429   */\n  mstore\n    /* \"#utility.yul\":8448:8452   */\n  0x32\n    /* \"#utility.yul\":8445:8446   */\n  0x04\n    /* \"#utility.yul\":8438:8453   */\n  mstore\n    /* \"#utility.yul\":8472:8476   */\n  0x24\n    /* \"#utility.yul\":8469:8470   */\n  0x00\n    /* \"#utility.yul\":8462:8477   */\n  revert\n    /* \"#utility.yul\":8489:8669   */\ntag_43:\n    /* \"#utility.yul\":8537:8614   */\n  0x4e487b7100000000000000000000000000000000000000000000000000000000\n    /* \"#utility.yul\":8534:8535   */\n  0x00\n    /* \"#utility.yul\":8527:8615   */\n  mstore\n    /* \"#utility.yul\":8634:8638   */\n  0x41\n    /* \"#utility.yul\":8631:8632   */\n  0x04\n    /* \"#utility.yul\":8624:8639   */\n  mstore\n    /* \"#utility.yul\":8658:8662   */\n  0x24\n    /* \"#utility.yul\":8655:8656   */\n  0x00\n    /* \"#utility.yul\":8648:8663   */\n  revert\n    /* \"#utility.yul\":8675:8858   */\ntag_65:\n    /* \"#utility.yul\":8710:8713   */\n  0x00\n    /* \"#utility.yul\":8748:8749   */\n  0x03\n    /* \"#utility.yul\":8730:8746   */\n  returndatasize\n    /* \"#utility.yul\":8727:8750   */\n  gt\n    /* \"#utility.yul\":8724:8852   */\n  iszero\n  tag_186\n  jumpi\n    /* \"#utility.yul\":8786:8787   */\n  0x04\n    /* \"#utility.yul\":8783:8784   */\n  0x00\n    /* \"#utility.yul\":8780:8781   */\n  dup1\n    /* \"#utility.yul\":8765:8788   */\n  returndatacopy\n    /* \"#utility.yul\":8808:8842   */\n  tag_187\n    /* \"#utility.yul\":8839:8840   */\n  0x00\n    /* \"#utility.yul\":8833:8841   */\n  mload\n    /* \"#utility.yul\":8808:8842   */\n  tag_188\n  jump\t// in\ntag_187:\n    /* \"#utility.yul\":8801:8842   */\n  swap1\n  pop\n    /* \"#utility.yul\":8724:8852   */\ntag_186:\n    /* \"#utility.yul\":8675:8858   */\n  swap1\n  jump\t// out\n    /* \"#utility.yul\":8987:9104   */\ntag_86:\n    /* \"#utility.yul\":9096:9097   */\n  0x00\n    /* \"#utility.yul\":9093:9094   */\n  dup1\n    /* \"#utility.yul\":9086:9098   */\n  revert\n    /* \"#utility.yul\":9110:9212   */\ntag_101:\n    /* \"#utility.yul\":9151:9157   */\n  0x00\n    /* \"#utility.yul\":9202:9204   */\n  0x1f\n    /* \"#utility.yul\":9198:9205   */\n  not\n    /* \"#utility.yul\":9193:9195   */\n  0x1f\n    /* \"#utility.yul\":9186:9191   */\n  dup4\n    /* \"#utility.yul\":9182:9196   */\n  add\n    /* \"#utility.yul\":9178:9206   */\n  and\n    /* \"#utility.yul\":9168:9206   */\n  swap1\n  pop\n    /* \"#utility.yul\":9110:9212   */\n  swap2\n  swap1\n  pop\n  jump\t// out\n    /* \"#utility.yul\":9218:9324   */\ntag_188:\n    /* \"#utility.yul\":9262:9270   */\n  0x00\n    /* \"#utility.yul\":9311:9316   */\n  dup2\n    /* \"#utility.yul\":9306:9309   */\n  0xe0\n    /* \"#utility.yul\":9302:9317   */\n  shr\n    /* \"#utility.yul\":9281:9317   */\n  swap1\n  pop\n    /* \"#utility.yul\":9218:9324   */\n  swap2\n  swap1\n  pop\n  jump\t// out\n    /* \"#utility.yul\":9330:9569   */\ntag_114:\n    /* \"#utility.yul\":9470:9504   */\n  0x455243313135353a207472616e7366657220746f206e6f6e2045524331313535\n    /* \"#utility.yul\":9466:9467   */\n  0x00\n    /* \"#utility.yul\":9458:9464   */\n  dup3\n    /* \"#utility.yul\":9454:9468   */\n  add\n    /* \"#utility.yul\":9447:9505   */\n  mstore\n    /* \"#utility.yul\":9539:9561   */\n  0x526563656976657220696d706c656d656e746572000000000000000000000000\n    /* \"#utility.yul\":9534:9536   */\n  0x20\n    /* \"#utility.yul\":9526:9532   */\n  dup3\n    /* \"#utility.yul\":9522:9537   */\n  add\n    /* \"#utility.yul\":9515:9562   */\n  mstore\n    /* \"#utility.yul\":9330:9569   */\n  pop\n  jump\t// out\n    /* \"#utility.yul\":9575:9802   */\ntag_119:\n    /* \"#utility.yul\":9715:9749   */\n  0x455243313135353a204552433131353552656365697665722072656a65637465\n    /* \"#utility.yul\":9711:9712   */\n  0x00\n    /* \"#utility.yul\":9703:9709   */\n  dup3\n    /* \"#utility.yul\":9699:9713   */\n  add\n    /* \"#utility.yul\":9692:9750   */\n  mstore\n    /* \"#utility.yul\":9784:9794   */\n  0x6420746f6b656e73000000000000000000000000000000000000000000000000\n    /* \"#utility.yul\":9779:9781   */\n  0x20\n    /* \"#utility.yul\":9771:9777   */\n  dup3\n    /* \"#utility.yul\":9767:9782   */\n  add\n    /* \"#utility.yul\":9760:9795   */\n  mstore\n    /* \"#utility.yul\":9575:9802   */\n  pop\n  jump\t// out\n    /* \"#utility.yul\":9808:10033   */\ntag_124:\n    /* \"#utility.yul\":9948:9982   */\n  0x746869732046756e6374696f6e206973206f6e6c792063616c6c656420627920\n    /* \"#utility.yul\":9944:9945   */\n  0x00\n    /* \"#utility.yul\":9936:9942   */\n  dup3\n    /* \"#utility.yul\":9932:9946   */\n  add\n    /* \"#utility.yul\":9925:9983   */\n  mstore\n    /* \"#utility.yul\":10017:10025   */\n  0x7365727665720000000000000000000000000000000000000000000000000000\n    /* \"#utility.yul\":10012:10014   */\n  0x20\n    /* \"#utility.yul\":10004:10010   */\n  dup3\n    /* \"#utility.yul\":10000:10015   */\n  add\n    /* \"#utility.yul\":9993:10026   */\n  mstore\n    /* \"#utility.yul\":9808:10033   */\n  pop\n  jump\t// out\n    /* \"#utility.yul\":10039:10259   */\ntag_129:\n    /* \"#utility.yul\":10179:10213   */\n  0x455243313135353a206d696e7420746f20746865207a65726f20616464726573\n    /* \"#utility.yul\":10175:10176   */\n  0x00\n    /* \"#utility.yul\":10167:10173   */\n  dup3\n    /* \"#utility.yul\":10163:10177   */\n  add\n    /* \"#utility.yul\":10156:10214   */\n  mstore\n    /* \"#utility.yul\":10248:10251   */\n  0x7300000000000000000000000000000000000000000000000000000000000000\n    /* \"#utility.yul\":10243:10245   */\n  0x20\n    /* \"#utility.yul\":10235:10241   */\n  dup3\n    /* \"#utility.yul\":10231:10246   */\n  add\n    /* \"#utility.yul\":10224:10252   */\n  mstore\n    /* \"#utility.yul\":10039:10259   */\n  pop\n  jump\t// out\n    /* \"#utility.yul\":10265:10976   */\ntag_67:\n    /* \"#utility.yul\":10304:10307   */\n  0x00\n    /* \"#utility.yul\":10342:10346   */\n  0x44\n    /* \"#utility.yul\":10324:10340   */\n  returndatasize\n    /* \"#utility.yul\":10321:10347   */\n  lt\n    /* \"#utility.yul\":10318:10357   */\n  iszero\n  tag_199\n  jumpi\n    /* \"#utility.yul\":10350:10355   */\n  jump(tag_198)\n    /* \"#utility.yul\":10318:10357   */\ntag_199:\n    /* \"#utility.yul\":10379:10399   */\n  tag_200\n  tag_153\n  jump\t// in\ntag_200:\n    /* \"#utility.yul\":10454:10455   */\n  0x04\n    /* \"#utility.yul\":10436:10452   */\n  returndatasize\n    /* \"#utility.yul\":10432:10456   */\n  sub\n    /* \"#utility.yul\":10429:10430   */\n  0x04\n    /* \"#utility.yul\":10423:10427   */\n  dup3\n    /* \"#utility.yul\":10408:10457   */\n  returndatacopy\n    /* \"#utility.yul\":10487:10491   */\n  dup1\n    /* \"#utility.yul\":10481:10492   */\n  mload\n    /* \"#utility.yul\":10586:10602   */\n  returndatasize\n    /* \"#utility.yul\":10579:10583   */\n  0x24\n    /* \"#utility.yul\":10571:10577   */\n  dup3\n    /* \"#utility.yul\":10567:10584   */\n  add\n    /* \"#utility.yul\":10564:10603   */\n  gt\n    /* \"#utility.yul\":10531:10549   */\n  0xffffffffffffffff\n    /* \"#utility.yul\":10523:10529   */\n  dup3\n    /* \"#utility.yul\":10520:10550   */\n  gt\n    /* \"#utility.yul\":10504:10617   */\n  or\n    /* \"#utility.yul\":10501:10647   */\n  iszero\n  tag_201\n  jumpi\n    /* \"#utility.yul\":10632:10637   */\n  pop\n  pop\n  jump(tag_198)\n    /* \"#utility.yul\":10501:10647   */\ntag_201:\n    /* \"#utility.yul\":10678:10684   */\n  dup1\n    /* \"#utility.yul\":10672:10676   */\n  dup3\n    /* \"#utility.yul\":10668:10685   */\n  add\n    /* \"#utility.yul\":10714:10717   */\n  dup1\n    /* \"#utility.yul\":10708:10718   */\n  mload\n    /* \"#utility.yul\":10741:10759   */\n  0xffffffffffffffff\n    /* \"#utility.yul\":10733:10739   */\n  dup2\n    /* \"#utility.yul\":10730:10760   */\n  gt\n    /* \"#utility.yul\":10727:10770   */\n  iszero\n  tag_202\n  jumpi\n    /* \"#utility.yul\":10763:10768   */\n  pop\n  pop\n  pop\n  pop\n  jump(tag_198)\n    /* \"#utility.yul\":10727:10770   */\ntag_202:\n    /* \"#utility.yul\":10811:10817   */\n  dup1\n    /* \"#utility.yul\":10804:10808   */\n  0x20\n    /* \"#utility.yul\":10799:10802   */\n  dup4\n    /* \"#utility.yul\":10795:10809   */\n  add\n    /* \"#utility.yul\":10791:10818   */\n  add\n    /* \"#utility.yul\":10870:10871   */\n  0x04\n    /* \"#utility.yul\":10852:10868   */\n  returndatasize\n    /* \"#utility.yul\":10848:10872   */\n  sub\n    /* \"#utility.yul\":10842:10846   */\n  dup6\n    /* \"#utility.yul\":10838:10873   */\n  add\n    /* \"#utility.yul\":10833:10836   */\n  dup2\n    /* \"#utility.yul\":10830:10874   */\n  gt\n    /* \"#utility.yul\":10827:10884   */\n  iszero\n  tag_203\n  jumpi\n    /* \"#utility.yul\":10877:10882   */\n  pop\n  pop\n  pop\n  pop\n  pop\n  jump(tag_198)\n    /* \"#utility.yul\":10827:10884   */\ntag_203:\n    /* \"#utility.yul\":10894:10951   */\n  tag_204\n    /* \"#utility.yul\":10942:10948   */\n  dup3\n    /* \"#utility.yul\":10936:10940   */\n  0x20\n    /* \"#utility.yul\":10932:10949   */\n  add\n    /* \"#utility.yul\":10924:10930   */\n  dup6\n    /* \"#utility.yul\":10920:10950   */\n  add\n    /* \"#utility.yul\":10914:10918   */\n  dup7\n    /* \"#utility.yul\":10894:10951   */\n  tag_177\n  jump\t// in\ntag_204:\n    /* \"#utility.yul\":10967:10970   */\n  dup3\n    /* \"#utility.yul\":10960:10970   */\n  swap6\n  pop\n    /* \"#utility.yul\":10308:10976   */\n  pop\n  pop\n  pop\n  pop\n  pop\n    /* \"#utility.yul\":10265:10976   */\ntag_198:\n  swap1\n  jump\t// out\n    /* \"#utility.yul\":10982:11102   */\ntag_82:\n    /* \"#utility.yul\":11054:11077   */\n  tag_206\n    /* \"#utility.yul\":11071:11076   */\n  dup2\n    /* \"#utility.yul\":11054:11077   */\n  tag_168\n  jump\t// in\ntag_206:\n    /* \"#utility.yul\":11047:11052   */\n  dup2\n    /* \"#utility.yul\":11044:11078   */\n  eq\n    /* \"#utility.yul\":11034:11096   */\n  tag_207\n  jumpi\n    /* \"#utility.yul\":11092:11093   */\n  0x00\n    /* \"#utility.yul\":11089:11090   */\n  dup1\n    /* \"#utility.yul\":11082:11094   */\n  revert\n    /* \"#utility.yul\":11034:11096   */\ntag_207:\n    /* \"#utility.yul\":10982:11102   */\n  pop\n  jump\t// out\n    /* \"contracts/Coupon.sol\":11712:15435  contract CouponMarket is ERC1155 {... */\ntag_11:\n  dataSize(sub_0)\n  dup1\n  dataOffset(sub_0)\n  0x00\n  codecopy\n  0x00\n  return\nstop\n\nsub_0: assembly {\n        /* \"contracts/Coupon.sol\":11712:15435  contract CouponMarket is ERC1155 {... */\n      mstore(0x40, 0x80)\n      jumpi(tag_1, lt(calldatasize, 0x04))\n      shr(0xe0, calldataload(0x00))\n      dup1\n      0x9bb7e310\n      gt\n      tag_12\n      jumpi\n      dup1\n      0x9bb7e310\n      eq\n      tag_7\n      jumpi\n      dup1\n      0xe9207304\n      eq\n      tag_8\n      jumpi\n      dup1\n      0xef3975fd\n      eq\n      tag_9\n      jumpi\n      dup1\n      0xf23a6e61\n      eq\n      tag_10\n      jumpi\n      dup1\n      0xf242432a\n      eq\n      tag_11\n      jumpi\n      jump(tag_1)\n    tag_12:\n      dup1\n      0xfdd58e\n      eq\n      tag_2\n      jumpi\n      dup1\n      0x22a22ec3\n      eq\n      tag_3\n      jumpi\n      dup1\n      0x2344c006\n      eq\n      tag_4\n      jumpi\n      dup1\n      0x242fd022\n      eq\n      tag_5\n      jumpi\n      dup1\n      0x57e87575\n      eq\n      tag_6\n      jumpi\n    tag_1:\n      0x00\n      dup1\n      revert\n        /* \"contracts/Coupon.sol\":3761:4049  function balanceOf(address account, uint256 id)... */\n    tag_2:\n      callvalue\n      dup1\n      iszero\n      tag_13\n      jumpi\n      0x00\n      dup1\n      revert\n    tag_13:\n      pop\n      tag_14\n      0x04\n      dup1\n      calldatasize\n      sub\n      dup2\n      add\n      swap1\n      tag_15\n      swap2\n      swap1\n      tag_16\n      jump\t// in\n    tag_15:\n      tag_17\n      jump\t// in\n    tag_14:\n      mload(0x40)\n      tag_18\n      swap2\n      swap1\n      tag_19\n      jump\t// in\n    tag_18:\n      mload(0x40)\n      dup1\n      swap2\n      sub\n      swap1\n      return\n        /* \"contracts/Coupon.sol\":13509:13834  function HowMuchKindsOfCoupons() public view returns (uint256) {... */\n    tag_3:\n      callvalue\n      dup1\n      iszero\n      tag_20\n      jumpi\n      0x00\n      dup1\n      revert\n    tag_20:\n      pop\n      tag_21\n      tag_22\n      jump\t// in\n    tag_21:\n      mload(0x40)\n      tag_23\n      swap2\n      swap1\n      tag_19\n      jump\t// in\n    tag_23:\n      mload(0x40)\n      dup1\n      swap2\n      sub\n      swap1\n      return\n        /* \"contracts/Coupon.sol\":12979:13503  function Stocks(uint256 discount)... */\n    tag_4:\n      callvalue\n      dup1\n      iszero\n      tag_24\n      jumpi\n      0x00\n      dup1\n      revert\n    tag_24:\n      pop\n      tag_25\n      0x04\n      dup1\n      calldatasize\n      sub\n      dup2\n      add\n      swap1\n      tag_26\n      swap2\n      swap1\n      tag_27\n      jump\t// in\n    tag_26:\n      tag_28\n      jump\t// in\n    tag_25:\n      mload(0x40)\n      tag_29\n      swap3\n      swap2\n      swap1\n      tag_30\n      jump\t// in\n    tag_29:\n      mload(0x40)\n      dup1\n      swap2\n      sub\n      swap1\n      return\n        /* \"contracts/Coupon.sol\":14244:14823  function buyCoupon(... */\n    tag_5:\n      tag_31\n      0x04\n      dup1\n      calldatasize\n      sub\n      dup2\n      add\n      swap1\n      tag_32\n      swap2\n      swap1\n      tag_33\n      jump\t// in\n    tag_32:\n      tag_34\n      jump\t// in\n    tag_31:\n      mload(0x40)\n      tag_35\n      swap2\n      swap1\n      tag_36\n      jump\t// in\n    tag_35:\n      mload(0x40)\n      dup1\n      swap2\n      sub\n      swap1\n      return\n        /* \"contracts/Coupon.sol\":11976:12387  function CouponMint(uint256 discount, uint256 amount) public {... */\n    tag_6:\n      callvalue\n      dup1\n      iszero\n      tag_37\n      jumpi\n      0x00\n      dup1\n      revert\n    tag_37:\n      pop\n      tag_38\n      0x04\n      dup1\n      calldatasize\n      sub\n      dup2\n      add\n      swap1\n      tag_39\n      swap2\n      swap1\n      tag_40\n      jump\t// in\n    tag_39:\n      tag_41\n      jump\t// in\n    tag_38:\n      stop\n        /* \"contracts/Coupon.sol\":12635:12880  function setServerAddr(address addr) public returns (address) {... */\n    tag_7:\n      callvalue\n      dup1\n      iszero\n      tag_42\n      jumpi\n      0x00\n      dup1\n      revert\n    tag_42:\n      pop\n      tag_43\n      0x04\n      dup1\n      calldatasize\n      sub\n      dup2\n      add\n      swap1\n      tag_44\n      swap2\n      swap1\n      tag_45\n      jump\t// in\n    tag_44:\n      tag_46\n      jump\t// in\n    tag_43:\n      mload(0x40)\n      tag_47\n      swap2\n      swap1\n      tag_48\n      jump\t// in\n    tag_47:\n      mload(0x40)\n      dup1\n      swap2\n      sub\n      swap1\n      return\n        /* \"contracts/Coupon.sol\":12886:12973  function serverAddr() public view returns (address) {... */\n    tag_8:\n      callvalue\n      dup1\n      iszero\n      tag_49\n      jumpi\n      0x00\n      dup1\n      revert\n    tag_49:\n      pop\n      tag_50\n      tag_51\n      jump\t// in\n    tag_50:\n      mload(0x40)\n      tag_52\n      swap2\n      swap1\n      tag_48\n      jump\t// in\n    tag_52:\n      mload(0x40)\n      dup1\n      swap2\n      sub\n      swap1\n      return\n        /* \"contracts/Coupon.sol\":13840:14238  function KindsOfCoupons() public view returns (uint256[] memory) {... */\n    tag_9:\n      callvalue\n      dup1\n      iszero\n      tag_53\n      jumpi\n      0x00\n      dup1\n      revert\n    tag_53:\n      pop\n      tag_54\n      tag_55\n      jump\t// in\n    tag_54:\n      mload(0x40)\n      tag_56\n      swap2\n      swap1\n      tag_57\n      jump\t// in\n    tag_56:\n      mload(0x40)\n      dup1\n      swap2\n      sub\n      swap1\n      return\n        /* \"contracts/Coupon.sol\":14963:15433  function onERC1155Received(... */\n    tag_10:\n      callvalue\n      dup1\n      iszero\n      tag_58\n      jumpi\n      0x00\n      dup1\n      revert\n    tag_58:\n      pop\n      tag_59\n      0x04\n      dup1\n      calldatasize\n      sub\n      dup2\n      add\n      swap1\n      tag_60\n      swap2\n      swap1\n      tag_61\n      jump\t// in\n    tag_60:\n      tag_62\n      jump\t// in\n    tag_59:\n      mload(0x40)\n      tag_63\n      swap2\n      swap1\n      tag_64\n      jump\t// in\n    tag_63:\n      mload(0x40)\n      dup1\n      swap2\n      sub\n      swap1\n      return\n        /* \"contracts/Coupon.sol\":4116:4491  function safeTransferFrom(... */\n    tag_11:\n      callvalue\n      dup1\n      iszero\n      tag_65\n      jumpi\n      0x00\n      dup1\n      revert\n    tag_65:\n      pop\n      tag_66\n      0x04\n      dup1\n      calldatasize\n      sub\n      dup2\n      add\n      swap1\n      tag_67\n      swap2\n      swap1\n      tag_68\n      jump\t// in\n    tag_67:\n      tag_69\n      jump\t// in\n    tag_66:\n      stop\n        /* \"contracts/Coupon.sol\":3761:4049  function balanceOf(address account, uint256 id)... */\n    tag_17:\n        /* \"contracts/Coupon.sol\":3870:3877  uint256 */\n      0x00\n        /* \"contracts/Coupon.sol\":3933:3934  0 */\n      dup1\n        /* \"contracts/Coupon.sol\":3914:3935  account != address(0) */\n      0xffffffffffffffffffffffffffffffffffffffff\n      and\n        /* \"contracts/Coupon.sol\":3914:3921  account */\n      dup4\n        /* \"contracts/Coupon.sol\":3914:3935  account != address(0) */\n      0xffffffffffffffffffffffffffffffffffffffff\n      and\n      eq\n      iszero\n        /* \"contracts/Coupon.sol\":3893:4003  require(... */\n      tag_71\n      jumpi\n      mload(0x40)\n      0x08c379a000000000000000000000000000000000000000000000000000000000\n      dup2\n      mstore\n      0x04\n      add\n      tag_72\n      swap1\n      tag_73\n      jump\t// in\n    tag_72:\n      mload(0x40)\n      dup1\n      swap2\n      sub\n      swap1\n      revert\n    tag_71:\n        /* \"contracts/Coupon.sol\":4020:4029  _balances */\n      0x00\n        /* \"contracts/Coupon.sol\":4020:4033  _balances[id] */\n      dup1\n        /* \"contracts/Coupon.sol\":4030:4032  id */\n      dup4\n        /* \"contracts/Coupon.sol\":4020:4033  _balances[id] */\n      dup2\n      mstore\n      0x20\n      add\n      swap1\n      dup2\n      mstore\n      0x20\n      add\n      0x00\n      keccak256\n        /* \"contracts/Coupon.sol\":4020:4042  _balances[id][account] */\n      0x00\n        /* \"contracts/Coupon.sol\":4034:4041  account */\n      dup5\n        /* \"contracts/Coupon.sol\":4020:4042  _balances[id][account] */\n      0xffffffffffffffffffffffffffffffffffffffff\n      and\n      0xffffffffffffffffffffffffffffffffffffffff\n      and\n      dup2\n      mstore\n      0x20\n      add\n      swap1\n      dup2\n      mstore\n      0x20\n      add\n      0x00\n      keccak256\n      sload\n        /* \"contracts/Coupon.sol\":4013:4042  return _balances[id][account] */\n      swap1\n      pop\n        /* \"contracts/Coupon.sol\":3761:4049  function balanceOf(address account, uint256 id)... */\n      swap3\n      swap2\n      pop\n      pop\n      jump\t// out\n        /* \"contracts/Coupon.sol\":13509:13834  function HowMuchKindsOfCoupons() public view returns (uint256) {... */\n    tag_22:\n        /* \"contracts/Coupon.sol\":13563:13570  uint256 */\n      0x00\n        /* \"contracts/Coupon.sol\":13582:13593  uint256 res */\n      dup1\n        /* \"contracts/Coupon.sol\":13596:13597  0 */\n      0x00\n        /* \"contracts/Coupon.sol\":13582:13597  uint256 res = 0 */\n      swap1\n      pop\n        /* \"contracts/Coupon.sol\":13612:13621  uint256 i */\n      0x00\n        /* \"contracts/Coupon.sol\":13607:13808  for (uint256 i = 0; i <= 100; i++) {... */\n    tag_75:\n        /* \"contracts/Coupon.sol\":13632:13635  100 */\n      0x64\n        /* \"contracts/Coupon.sol\":13627:13628  i */\n      dup2\n        /* \"contracts/Coupon.sol\":13627:13635  i <= 100 */\n      gt\n        /* \"contracts/Coupon.sol\":13607:13808  for (uint256 i = 0; i <= 100; i++) {... */\n      tag_76\n      jumpi\n        /* \"contracts/Coupon.sol\":13674:13675  0 */\n      0x00\n        /* \"contracts/Coupon.sol\":13660:13667  _amount */\n      0x03\n        /* \"contracts/Coupon.sol\":13660:13670  _amount[i] */\n      0x00\n        /* \"contracts/Coupon.sol\":13668:13669  i */\n      dup4\n        /* \"contracts/Coupon.sol\":13660:13670  _amount[i] */\n      dup2\n      mstore\n      0x20\n      add\n      swap1\n      dup2\n      mstore\n      0x20\n      add\n      0x00\n      keccak256\n      sload\n        /* \"contracts/Coupon.sol\":13660:13675  _amount[i] == 0 */\n      eq\n        /* \"contracts/Coupon.sol\":13656:13718  if (_amount[i] == 0) {... */\n      iszero\n      tag_78\n      jumpi\n        /* \"contracts/Coupon.sol\":13695:13703  continue */\n      jump(tag_77)\n        /* \"contracts/Coupon.sol\":13656:13718  if (_amount[i] == 0) {... */\n    tag_78:\n        /* \"contracts/Coupon.sol\":13749:13750  0 */\n      0x00\n        /* \"contracts/Coupon.sol\":13735:13742  _amount */\n      0x03\n        /* \"contracts/Coupon.sol\":13735:13745  _amount[i] */\n      0x00\n        /* \"contracts/Coupon.sol\":13743:13744  i */\n      dup4\n        /* \"contracts/Coupon.sol\":13735:13745  _amount[i] */\n      dup2\n      mstore\n      0x20\n      add\n      swap1\n      dup2\n      mstore\n      0x20\n      add\n      0x00\n      keccak256\n      sload\n        /* \"contracts/Coupon.sol\":13735:13750  _amount[i] != 0 */\n      eq\n        /* \"contracts/Coupon.sol\":13731:13798  if (_amount[i] != 0) {... */\n      tag_79\n      jumpi\n        /* \"contracts/Coupon.sol\":13782:13783  1 */\n      0x01\n        /* \"contracts/Coupon.sol\":13776:13779  res */\n      dup3\n        /* \"contracts/Coupon.sol\":13776:13783  res + 1 */\n      tag_80\n      swap2\n      swap1\n      tag_81\n      jump\t// in\n    tag_80:\n        /* \"contracts/Coupon.sol\":13770:13783  res = res + 1 */\n      swap2\n      pop\n        /* \"contracts/Coupon.sol\":13731:13798  if (_amount[i] != 0) {... */\n    tag_79:\n        /* \"contracts/Coupon.sol\":13607:13808  for (uint256 i = 0; i <= 100; i++) {... */\n    tag_77:\n        /* \"contracts/Coupon.sol\":13637:13640  i++ */\n      dup1\n      dup1\n      tag_82\n      swap1\n      tag_83\n      jump\t// in\n    tag_82:\n      swap2\n      pop\n      pop\n        /* \"contracts/Coupon.sol\":13607:13808  for (uint256 i = 0; i <= 100; i++) {... */\n      jump(tag_75)\n    tag_76:\n      pop\n        /* \"contracts/Coupon.sol\":13824:13827  res */\n      dup1\n        /* \"contracts/Coupon.sol\":13817:13827  return res */\n      swap2\n      pop\n      pop\n        /* \"contracts/Coupon.sol\":13509:13834  function HowMuchKindsOfCoupons() public view returns (uint256) {... */\n      swap1\n      jump\t// out\n        /* \"contracts/Coupon.sol\":12979:13503  function Stocks(uint256 discount)... */\n    tag_28:\n        /* \"contracts/Coupon.sol\":13058:13074  uint256[] memory */\n      0x60\n        /* \"contracts/Coupon.sol\":13076:13092  uint256[] memory */\n      dup1\n        /* \"contracts/Coupon.sol\":13108:13123  uint256 balance */\n      0x00\n        /* \"contracts/Coupon.sol\":13126:13149  HowMuchKindsOfCoupons() */\n      tag_85\n        /* \"contracts/Coupon.sol\":13126:13147  HowMuchKindsOfCoupons */\n      tag_22\n        /* \"contracts/Coupon.sol\":13126:13149  HowMuchKindsOfCoupons() */\n      jump\t// in\n    tag_85:\n        /* \"contracts/Coupon.sol\":13108:13149  uint256 balance = HowMuchKindsOfCoupons() */\n      swap1\n      pop\n        /* \"contracts/Coupon.sol\":13159:13180  uint256[] memory keys */\n      0x00\n        /* \"contracts/Coupon.sol\":13183:13199  KindsOfCoupons() */\n      tag_86\n        /* \"contracts/Coupon.sol\":13183:13197  KindsOfCoupons */\n      tag_55\n        /* \"contracts/Coupon.sol\":13183:13199  KindsOfCoupons() */\n      jump\t// in\n    tag_86:\n        /* \"contracts/Coupon.sol\":13159:13199  uint256[] memory keys = KindsOfCoupons() */\n      swap1\n      pop\n        /* \"contracts/Coupon.sol\":13209:13235  uint256[] memory discounts */\n      0x00\n        /* \"contracts/Coupon.sol\":13252:13259  balance */\n      dup3\n        /* \"contracts/Coupon.sol\":13238:13260  new uint256[](balance) */\n      0xffffffffffffffff\n      dup2\n      gt\n      iszero\n      tag_87\n      jumpi\n      tag_88\n      tag_89\n      jump\t// in\n    tag_88:\n    tag_87:\n      mload(0x40)\n      swap1\n      dup1\n      dup3\n      mstore\n      dup1\n      0x20\n      mul\n      0x20\n      add\n      dup3\n      add\n      0x40\n      mstore\n      dup1\n      iszero\n      tag_90\n      jumpi\n      dup2\n      0x20\n      add\n      0x20\n      dup3\n      mul\n      dup1\n      calldatasize\n      dup4\n      calldatacopy\n      dup1\n      dup3\n      add\n      swap2\n      pop\n      pop\n      swap1\n      pop\n    tag_90:\n      pop\n        /* \"contracts/Coupon.sol\":13209:13260  uint256[] memory discounts = new uint256[](balance) */\n      swap1\n      pop\n        /* \"contracts/Coupon.sol\":13270:13295  uint256[] memory balances */\n      0x00\n        /* \"contracts/Coupon.sol\":13312:13319  balance */\n      dup4\n        /* \"contracts/Coupon.sol\":13298:13320  new uint256[](balance) */\n      0xffffffffffffffff\n      dup2\n      gt\n      iszero\n      tag_91\n      jumpi\n      tag_92\n      tag_89\n      jump\t// in\n    tag_92:\n    tag_91:\n      mload(0x40)\n      swap1\n      dup1\n      dup3\n      mstore\n      dup1\n      0x20\n      mul\n      0x20\n      add\n      dup3\n      add\n      0x40\n      mstore\n      dup1\n      iszero\n      tag_93\n      jumpi\n      dup2\n      0x20\n      add\n      0x20\n      dup3\n      mul\n      dup1\n      calldatasize\n      dup4\n      calldatacopy\n      dup1\n      dup3\n      add\n      swap2\n      pop\n      pop\n      swap1\n      pop\n    tag_93:\n      pop\n        /* \"contracts/Coupon.sol\":13270:13320  uint256[] memory balances = new uint256[](balance) */\n      swap1\n      pop\n        /* \"contracts/Coupon.sol\":13335:13344  uint256 i */\n      0x00\n        /* \"contracts/Coupon.sol\":13330:13459  for (uint256 i = 0; i < balance; i++) {... */\n    tag_94:\n        /* \"contracts/Coupon.sol\":13354:13361  balance */\n      dup5\n        /* \"contracts/Coupon.sol\":13350:13351  i */\n      dup2\n        /* \"contracts/Coupon.sol\":13350:13361  i < balance */\n      lt\n        /* \"contracts/Coupon.sol\":13330:13459  for (uint256 i = 0; i < balance; i++) {... */\n      iszero\n      tag_95\n      jumpi\n        /* \"contracts/Coupon.sol\":13397:13401  keys */\n      dup4\n        /* \"contracts/Coupon.sol\":13402:13403  i */\n      dup2\n        /* \"contracts/Coupon.sol\":13397:13404  keys[i] */\n      dup2\n      mload\n      dup2\n      lt\n      tag_97\n      jumpi\n      tag_98\n      tag_99\n      jump\t// in\n    tag_98:\n    tag_97:\n      0x20\n      mul\n      0x20\n      add\n      add\n      mload\n        /* \"contracts/Coupon.sol\":13382:13391  discounts */\n      dup4\n        /* \"contracts/Coupon.sol\":13392:13393  i */\n      dup3\n        /* \"contracts/Coupon.sol\":13382:13394  discounts[i] */\n      dup2\n      mload\n      dup2\n      lt\n      tag_100\n      jumpi\n      tag_101\n      tag_99\n      jump\t// in\n    tag_101:\n    tag_100:\n      0x20\n      mul\n      0x20\n      add\n      add\n        /* \"contracts/Coupon.sol\":13382:13404  discounts[i] = keys[i] */\n      dup2\n      dup2\n      mstore\n      pop\n      pop\n        /* \"contracts/Coupon.sol\":13432:13439  _amount */\n      0x03\n        /* \"contracts/Coupon.sol\":13432:13448  _amount[keys[i]] */\n      0x00\n        /* \"contracts/Coupon.sol\":13440:13444  keys */\n      dup6\n        /* \"contracts/Coupon.sol\":13445:13446  i */\n      dup4\n        /* \"contracts/Coupon.sol\":13440:13447  keys[i] */\n      dup2\n      mload\n      dup2\n      lt\n      tag_102\n      jumpi\n      tag_103\n      tag_99\n      jump\t// in\n    tag_103:\n    tag_102:\n      0x20\n      mul\n      0x20\n      add\n      add\n      mload\n        /* \"contracts/Coupon.sol\":13432:13448  _amount[keys[i]] */\n      dup2\n      mstore\n      0x20\n      add\n      swap1\n      dup2\n      mstore\n      0x20\n      add\n      0x00\n      keccak256\n      sload\n        /* \"contracts/Coupon.sol\":13418:13426  balances */\n      dup3\n        /* \"contracts/Coupon.sol\":13427:13428  i */\n      dup3\n        /* \"contracts/Coupon.sol\":13418:13429  balances[i] */\n      dup2\n      mload\n      dup2\n      lt\n      tag_104\n      jumpi\n      tag_105\n      tag_99\n      jump\t// in\n    tag_105:\n    tag_104:\n      0x20\n      mul\n      0x20\n      add\n      add\n        /* \"contracts/Coupon.sol\":13418:13448  balances[i] = _amount[keys[i]] */\n      dup2\n      dup2\n      mstore\n      pop\n      pop\n        /* \"contracts/Coupon.sol\":13363:13366  i++ */\n      dup1\n      dup1\n      tag_106\n      swap1\n      tag_83\n      jump\t// in\n    tag_106:\n      swap2\n      pop\n      pop\n        /* \"contracts/Coupon.sol\":13330:13459  for (uint256 i = 0; i < balance; i++) {... */\n      jump(tag_94)\n    tag_95:\n      pop\n        /* \"contracts/Coupon.sol\":13476:13485  discounts */\n      dup2\n        /* \"contracts/Coupon.sol\":13487:13495  balances */\n      dup2\n        /* \"contracts/Coupon.sol\":13468:13496  return (discounts, balances) */\n      swap6\n      pop\n      swap6\n      pop\n      pop\n      pop\n      pop\n      pop\n        /* \"contracts/Coupon.sol\":12979:13503  function Stocks(uint256 discount)... */\n      swap2\n      pop\n      swap2\n      jump\t// out\n        /* \"contracts/Coupon.sol\":14244:14823  function buyCoupon(... */\n    tag_34:\n        /* \"contracts/Coupon.sol\":14401:14405  bool */\n      0x00\n        /* \"contracts/Coupon.sol\":14559:14576  TokenContractAddr */\n      dup2\n        /* \"contracts/Coupon.sol\":14552:14596  others(TokenContractAddr).transferWithMarket */\n      0xffffffffffffffffffffffffffffffffffffffff\n      and\n      0xe12163d6\n        /* \"contracts/Coupon.sol\":14610:14620  msg.sender */\n      caller\n        /* \"contracts/Coupon.sol\":14634:14645  _serverAddr */\n      0x02\n      0x00\n      swap1\n      sload\n      swap1\n      0x0100\n      exp\n      swap1\n      div\n      0xffffffffffffffffffffffffffffffffffffffff\n      and\n        /* \"contracts/Coupon.sol\":14659:14664  price */\n      dup7\n        /* \"contracts/Coupon.sol\":14552:14674  others(TokenContractAddr).transferWithMarket(... */\n      mload(0x40)\n      dup5\n      0xffffffff\n      and\n      0xe0\n      shl\n      dup2\n      mstore\n      0x04\n      add\n      tag_108\n      swap4\n      swap3\n      swap2\n      swap1\n      tag_109\n      jump\t// in\n    tag_108:\n      0x20\n      mload(0x40)\n      dup1\n      dup4\n      sub\n      dup2\n      0x00\n      dup8\n      dup1\n      extcodesize\n      iszero\n      dup1\n      iszero\n      tag_110\n      jumpi\n      0x00\n      dup1\n      revert\n    tag_110:\n      pop\n      gas\n      call\n      iszero\n      dup1\n      iszero\n      tag_112\n      jumpi\n      returndatasize\n      0x00\n      dup1\n      returndatacopy\n      revert(0x00, returndatasize)\n    tag_112:\n      pop\n      pop\n      pop\n      pop\n      mload(0x40)\n      returndatasize\n      not(0x1f)\n      0x1f\n      dup3\n      add\n      and\n      dup3\n      add\n      dup1\n      0x40\n      mstore\n      pop\n      dup2\n      add\n      swap1\n      tag_113\n      swap2\n      swap1\n      tag_114\n      jump\t// in\n    tag_113:\n      pop\n        /* \"contracts/Coupon.sol\":14685:14754  safeTransferFrom(address(this), msg.sender, discount, amount, \"0x00\") */\n      tag_115\n        /* \"contracts/Coupon.sol\":14710:14714  this */\n      address\n        /* \"contracts/Coupon.sol\":14717:14727  msg.sender */\n      caller\n        /* \"contracts/Coupon.sol\":14729:14737  discount */\n      dup8\n        /* \"contracts/Coupon.sol\":14739:14745  amount */\n      dup8\n        /* \"contracts/Coupon.sol\":14685:14754  safeTransferFrom(address(this), msg.sender, discount, amount, \"0x00\") */\n      mload(0x40)\n      dup1\n      0x40\n      add\n      0x40\n      mstore\n      dup1\n      0x04\n      dup2\n      mstore\n      0x20\n      add\n      0x3078303000000000000000000000000000000000000000000000000000000000\n      dup2\n      mstore\n      pop\n        /* \"contracts/Coupon.sol\":14685:14701  safeTransferFrom */\n      tag_69\n        /* \"contracts/Coupon.sol\":14685:14754  safeTransferFrom(address(this), msg.sender, discount, amount, \"0x00\") */\n      jump\t// in\n    tag_115:\n        /* \"contracts/Coupon.sol\":14764:14795  _reduceAmount(discount, amount) */\n      tag_116\n        /* \"contracts/Coupon.sol\":14778:14786  discount */\n      dup6\n        /* \"contracts/Coupon.sol\":14788:14794  amount */\n      dup6\n        /* \"contracts/Coupon.sol\":14764:14777  _reduceAmount */\n      tag_117\n        /* \"contracts/Coupon.sol\":14764:14795  _reduceAmount(discount, amount) */\n      jump\t// in\n    tag_116:\n        /* \"contracts/Coupon.sol\":14812:14816  true */\n      0x01\n        /* \"contracts/Coupon.sol\":14805:14816  return true */\n      swap1\n      pop\n        /* \"contracts/Coupon.sol\":14244:14823  function buyCoupon(... */\n      swap5\n      swap4\n      pop\n      pop\n      pop\n      pop\n      jump\t// out\n        /* \"contracts/Coupon.sol\":11976:12387  function CouponMint(uint256 discount, uint256 amount) public {... */\n    tag_41:\n        /* \"contracts/Coupon.sol\":12083:12094  _serverAddr */\n      0x02\n      0x00\n      swap1\n      sload\n      swap1\n      0x0100\n      exp\n      swap1\n      div\n      0xffffffffffffffffffffffffffffffffffffffff\n      and\n        /* \"contracts/Coupon.sol\":12069:12094  msg.sender == _serverAddr */\n      0xffffffffffffffffffffffffffffffffffffffff\n      and\n        /* \"contracts/Coupon.sol\":12069:12079  msg.sender */\n      caller\n        /* \"contracts/Coupon.sol\":12069:12094  msg.sender == _serverAddr */\n      0xffffffffffffffffffffffffffffffffffffffff\n      and\n      eq\n        /* \"contracts/Coupon.sol\":12068:12128  (msg.sender == _serverAddr) || (msg.sender == address(this)) */\n      dup1\n      tag_119\n      jumpi\n      pop\n        /* \"contracts/Coupon.sol\":12122:12126  this */\n      address\n        /* \"contracts/Coupon.sol\":12100:12127  msg.sender == address(this) */\n      0xffffffffffffffffffffffffffffffffffffffff\n      and\n        /* \"contracts/Coupon.sol\":12100:12110  msg.sender */\n      caller\n        /* \"contracts/Coupon.sol\":12100:12127  msg.sender == address(this) */\n      0xffffffffffffffffffffffffffffffffffffffff\n      and\n      eq\n        /* \"contracts/Coupon.sol\":12068:12128  (msg.sender == _serverAddr) || (msg.sender == address(this)) */\n    tag_119:\n        /* \"contracts/Coupon.sol\":12047:12192  require(... */\n      tag_120\n      jumpi\n      mload(0x40)\n      0x08c379a000000000000000000000000000000000000000000000000000000000\n      dup2\n      mstore\n      0x04\n      add\n      tag_121\n      swap1\n      tag_122\n      jump\t// in\n    tag_121:\n      mload(0x40)\n      dup1\n      swap2\n      sub\n      swap1\n      revert\n    tag_120:\n        /* \"contracts/Coupon.sol\":12202:12244  _mint(address(this), discount, amount, \"\") */\n      tag_123\n        /* \"contracts/Coupon.sol\":12216:12220  this */\n      address\n        /* \"contracts/Coupon.sol\":12223:12231  discount */\n      dup4\n        /* \"contracts/Coupon.sol\":12233:12239  amount */\n      dup4\n        /* \"contracts/Coupon.sol\":12202:12244  _mint(address(this), discount, amount, \"\") */\n      mload(0x40)\n      dup1\n      0x20\n      add\n      0x40\n      mstore\n      dup1\n      0x00\n      dup2\n      mstore\n      pop\n        /* \"contracts/Coupon.sol\":12202:12207  _mint */\n      tag_124\n        /* \"contracts/Coupon.sol\":12202:12244  _mint(address(this), discount, amount, \"\") */\n      jump\t// in\n    tag_123:\n        /* \"contracts/Coupon.sol\":12294:12300  amount */\n      dup1\n        /* \"contracts/Coupon.sol\":12274:12281  _amount */\n      0x03\n        /* \"contracts/Coupon.sol\":12274:12291  _amount[discount] */\n      0x00\n        /* \"contracts/Coupon.sol\":12282:12290  discount */\n      dup5\n        /* \"contracts/Coupon.sol\":12274:12291  _amount[discount] */\n      dup2\n      mstore\n      0x20\n      add\n      swap1\n      dup2\n      mstore\n      0x20\n      add\n      0x00\n      keccak256\n      sload\n        /* \"contracts/Coupon.sol\":12274:12300  _amount[discount] + amount */\n      tag_125\n      swap2\n      swap1\n      tag_81\n      jump\t// in\n    tag_125:\n        /* \"contracts/Coupon.sol\":12254:12261  _amount */\n      0x03\n        /* \"contracts/Coupon.sol\":12254:12271  _amount[discount] */\n      0x00\n        /* \"contracts/Coupon.sol\":12262:12270  discount */\n      dup5\n        /* \"contracts/Coupon.sol\":12254:12271  _amount[discount] */\n      dup2\n      mstore\n      0x20\n      add\n      swap1\n      dup2\n      mstore\n      0x20\n      add\n      0x00\n      keccak256\n        /* \"contracts/Coupon.sol\":12254:12300  _amount[discount] = _amount[discount] + amount */\n      dup2\n      swap1\n      sstore\n      pop\n        /* \"contracts/Coupon.sol\":11976:12387  function CouponMint(uint256 discount, uint256 amount) public {... */\n      pop\n      pop\n      jump\t// out\n        /* \"contracts/Coupon.sol\":12635:12880  function setServerAddr(address addr) public returns (address) {... */\n    tag_46:\n        /* \"contracts/Coupon.sol\":12688:12695  address */\n      0x00\n        /* \"contracts/Coupon.sol\":12742:12753  _serverAddr */\n      0x02\n      0x00\n      swap1\n      sload\n      swap1\n      0x0100\n      exp\n      swap1\n      div\n      0xffffffffffffffffffffffffffffffffffffffff\n      and\n        /* \"contracts/Coupon.sol\":12728:12753  msg.sender == _serverAddr */\n      0xffffffffffffffffffffffffffffffffffffffff\n      and\n        /* \"contracts/Coupon.sol\":12728:12738  msg.sender */\n      caller\n        /* \"contracts/Coupon.sol\":12728:12753  msg.sender == _serverAddr */\n      0xffffffffffffffffffffffffffffffffffffffff\n      and\n      eq\n        /* \"contracts/Coupon.sol\":12707:12817  require(... */\n      tag_127\n      jumpi\n      mload(0x40)\n      0x08c379a000000000000000000000000000000000000000000000000000000000\n      dup2\n      mstore\n      0x04\n      add\n      tag_128\n      swap1\n      tag_122\n      jump\t// in\n    tag_128:\n      mload(0x40)\n      dup1\n      swap2\n      sub\n      swap1\n      revert\n    tag_127:\n        /* \"contracts/Coupon.sol\":12841:12845  addr */\n      dup2\n        /* \"contracts/Coupon.sol\":12827:12838  _serverAddr */\n      0x02\n      0x00\n        /* \"contracts/Coupon.sol\":12827:12845  _serverAddr = addr */\n      0x0100\n      exp\n      dup2\n      sload\n      dup2\n      0xffffffffffffffffffffffffffffffffffffffff\n      mul\n      not\n      and\n      swap1\n      dup4\n      0xffffffffffffffffffffffffffffffffffffffff\n      and\n      mul\n      or\n      swap1\n      sstore\n      pop\n        /* \"contracts/Coupon.sol\":12862:12873  _serverAddr */\n      0x02\n      0x00\n      swap1\n      sload\n      swap1\n      0x0100\n      exp\n      swap1\n      div\n      0xffffffffffffffffffffffffffffffffffffffff\n      and\n        /* \"contracts/Coupon.sol\":12855:12873  return _serverAddr */\n      swap1\n      pop\n        /* \"contracts/Coupon.sol\":12635:12880  function setServerAddr(address addr) public returns (address) {... */\n      swap2\n      swap1\n      pop\n      jump\t// out\n        /* \"contracts/Coupon.sol\":12886:12973  function serverAddr() public view returns (address) {... */\n    tag_51:\n        /* \"contracts/Coupon.sol\":12929:12936  address */\n      0x00\n        /* \"contracts/Coupon.sol\":12955:12966  _serverAddr */\n      0x02\n      0x00\n      swap1\n      sload\n      swap1\n      0x0100\n      exp\n      swap1\n      div\n      0xffffffffffffffffffffffffffffffffffffffff\n      and\n        /* \"contracts/Coupon.sol\":12948:12966  return _serverAddr */\n      swap1\n      pop\n        /* \"contracts/Coupon.sol\":12886:12973  function serverAddr() public view returns (address) {... */\n      swap1\n      jump\t// out\n        /* \"contracts/Coupon.sol\":13840:14238  function KindsOfCoupons() public view returns (uint256[] memory) {... */\n    tag_55:\n        /* \"contracts/Coupon.sol\":13887:13903  uint256[] memory */\n      0x60\n        /* \"contracts/Coupon.sol\":13915:13930  uint256 balance */\n      0x00\n        /* \"contracts/Coupon.sol\":13933:13956  HowMuchKindsOfCoupons() */\n      tag_131\n        /* \"contracts/Coupon.sol\":13933:13954  HowMuchKindsOfCoupons */\n      tag_22\n        /* \"contracts/Coupon.sol\":13933:13956  HowMuchKindsOfCoupons() */\n      jump\t// in\n    tag_131:\n        /* \"contracts/Coupon.sol\":13915:13956  uint256 balance = HowMuchKindsOfCoupons() */\n      swap1\n      pop\n        /* \"contracts/Coupon.sol\":13966:13975  uint256 j */\n      0x00\n        /* \"contracts/Coupon.sol\":13989:14009  uint256[] memory res */\n      dup1\n        /* \"contracts/Coupon.sol\":14026:14033  balance */\n      dup3\n        /* \"contracts/Coupon.sol\":14012:14034  new uint256[](balance) */\n      0xffffffffffffffff\n      dup2\n      gt\n      iszero\n      tag_132\n      jumpi\n      tag_133\n      tag_89\n      jump\t// in\n    tag_133:\n    tag_132:\n      mload(0x40)\n      swap1\n      dup1\n      dup3\n      mstore\n      dup1\n      0x20\n      mul\n      0x20\n      add\n      dup3\n      add\n      0x40\n      mstore\n      dup1\n      iszero\n      tag_134\n      jumpi\n      dup2\n      0x20\n      add\n      0x20\n      dup3\n      mul\n      dup1\n      calldatasize\n      dup4\n      calldatacopy\n      dup1\n      dup3\n      add\n      swap2\n      pop\n      pop\n      swap1\n      pop\n    tag_134:\n      pop\n        /* \"contracts/Coupon.sol\":13989:14034  uint256[] memory res = new uint256[](balance) */\n      swap1\n      pop\n        /* \"contracts/Coupon.sol\":14049:14058  uint256 i */\n      0x00\n        /* \"contracts/Coupon.sol\":14044:14212  for (uint256 i = 0; i <= 100; i++) {... */\n    tag_135:\n        /* \"contracts/Coupon.sol\":14069:14072  100 */\n      0x64\n        /* \"contracts/Coupon.sol\":14064:14065  i */\n      dup2\n        /* \"contracts/Coupon.sol\":14064:14072  i <= 100 */\n      gt\n        /* \"contracts/Coupon.sol\":14044:14212  for (uint256 i = 0; i <= 100; i++) {... */\n      tag_136\n      jumpi\n        /* \"contracts/Coupon.sol\":14111:14112  0 */\n      0x00\n        /* \"contracts/Coupon.sol\":14097:14104  _amount */\n      0x03\n        /* \"contracts/Coupon.sol\":14097:14107  _amount[i] */\n      0x00\n        /* \"contracts/Coupon.sol\":14105:14106  i */\n      dup4\n        /* \"contracts/Coupon.sol\":14097:14107  _amount[i] */\n      dup2\n      mstore\n      0x20\n      add\n      swap1\n      dup2\n      mstore\n      0x20\n      add\n      0x00\n      keccak256\n      sload\n        /* \"contracts/Coupon.sol\":14097:14112  _amount[i] == 0 */\n      eq\n        /* \"contracts/Coupon.sol\":14093:14155  if (_amount[i] == 0) {... */\n      iszero\n      tag_138\n      jumpi\n        /* \"contracts/Coupon.sol\":14132:14140  continue */\n      jump(tag_137)\n        /* \"contracts/Coupon.sol\":14093:14155  if (_amount[i] == 0) {... */\n    tag_138:\n        /* \"contracts/Coupon.sol\":14177:14178  i */\n      dup1\n        /* \"contracts/Coupon.sol\":14168:14171  res */\n      dup3\n        /* \"contracts/Coupon.sol\":14172:14173  j */\n      dup5\n        /* \"contracts/Coupon.sol\":14168:14174  res[j] */\n      dup2\n      mload\n      dup2\n      lt\n      tag_139\n      jumpi\n      tag_140\n      tag_99\n      jump\t// in\n    tag_140:\n    tag_139:\n      0x20\n      mul\n      0x20\n      add\n      add\n        /* \"contracts/Coupon.sol\":14168:14178  res[j] = i */\n      dup2\n      dup2\n      mstore\n      pop\n      pop\n        /* \"contracts/Coupon.sol\":14200:14201  1 */\n      0x01\n        /* \"contracts/Coupon.sol\":14196:14197  j */\n      dup4\n        /* \"contracts/Coupon.sol\":14196:14201  j + 1 */\n      tag_141\n      swap2\n      swap1\n      tag_81\n      jump\t// in\n    tag_141:\n        /* \"contracts/Coupon.sol\":14192:14201  j = j + 1 */\n      swap3\n      pop\n        /* \"contracts/Coupon.sol\":14044:14212  for (uint256 i = 0; i <= 100; i++) {... */\n    tag_137:\n        /* \"contracts/Coupon.sol\":14074:14077  i++ */\n      dup1\n      dup1\n      tag_142\n      swap1\n      tag_83\n      jump\t// in\n    tag_142:\n      swap2\n      pop\n      pop\n        /* \"contracts/Coupon.sol\":14044:14212  for (uint256 i = 0; i <= 100; i++) {... */\n      jump(tag_135)\n    tag_136:\n      pop\n        /* \"contracts/Coupon.sol\":14228:14231  res */\n      dup1\n        /* \"contracts/Coupon.sol\":14221:14231  return res */\n      swap4\n      pop\n      pop\n      pop\n      pop\n        /* \"contracts/Coupon.sol\":13840:14238  function KindsOfCoupons() public view returns (uint256[] memory) {... */\n      swap1\n      jump\t// out\n        /* \"contracts/Coupon.sol\":14963:15433  function onERC1155Received(... */\n    tag_62:\n        /* \"contracts/Coupon.sol\":15132:15138  bytes4 */\n      0x00\n        /* \"contracts/Coupon.sol\":15178:15183  value */\n      dup4\n        /* \"contracts/Coupon.sol\":15164:15171  _amount */\n      0x03\n        /* \"contracts/Coupon.sol\":15164:15175  _amount[id] */\n      0x00\n        /* \"contracts/Coupon.sol\":15172:15174  id */\n      dup8\n        /* \"contracts/Coupon.sol\":15164:15175  _amount[id] */\n      dup2\n      mstore\n      0x20\n      add\n      swap1\n      dup2\n      mstore\n      0x20\n      add\n      0x00\n      keccak256\n      sload\n        /* \"contracts/Coupon.sol\":15164:15183  _amount[id] + value */\n      tag_144\n      swap2\n      swap1\n      tag_81\n      jump\t// in\n    tag_144:\n        /* \"contracts/Coupon.sol\":15150:15157  _amount */\n      0x03\n        /* \"contracts/Coupon.sol\":15150:15161  _amount[id] */\n      0x00\n        /* \"contracts/Coupon.sol\":15158:15160  id */\n      dup8\n        /* \"contracts/Coupon.sol\":15150:15161  _amount[id] */\n      dup2\n      mstore\n      0x20\n      add\n      swap1\n      dup2\n      mstore\n      0x20\n      add\n      0x00\n      keccak256\n        /* \"contracts/Coupon.sol\":15150:15183  _amount[id] = _amount[id] + value */\n      dup2\n      swap1\n      sstore\n      pop\n        /* \"contracts/Coupon.sol\":15198:15250  Received(operator, from, id, value, data, gasleft()) */\n      0x20dfa9f79060c8c4d7fe892c97c71bcf6e3b63d1dcf66fea7aefc0211628cf29\n        /* \"contracts/Coupon.sol\":15207:15215  operator */\n      dup8\n        /* \"contracts/Coupon.sol\":15217:15221  from */\n      dup8\n        /* \"contracts/Coupon.sol\":15223:15225  id */\n      dup8\n        /* \"contracts/Coupon.sol\":15227:15232  value */\n      dup8\n        /* \"contracts/Coupon.sol\":15234:15238  data */\n      dup8\n      dup8\n        /* \"contracts/Coupon.sol\":15240:15249  gasleft() */\n      gas\n        /* \"contracts/Coupon.sol\":15198:15250  Received(operator, from, id, value, data, gasleft()) */\n      mload(0x40)\n      tag_145\n      swap8\n      swap7\n      swap6\n      swap5\n      swap4\n      swap3\n      swap2\n      swap1\n      tag_146\n      jump\t// in\n    tag_145:\n      mload(0x40)\n      dup1\n      swap2\n      sub\n      swap1\n      log1\n        /* \"contracts/Coupon.sol\":15303:15412  keccak256(... */\n      0xf23a6e612e1ff4830e658fe43f4e3cb4a5f8170bd5d9e69fb5d7a7fa9e4fdf97\n        /* \"contracts/Coupon.sol\":15260:15426  return... */\n      swap1\n      pop\n        /* \"contracts/Coupon.sol\":14963:15433  function onERC1155Received(... */\n      swap7\n      swap6\n      pop\n      pop\n      pop\n      pop\n      pop\n      pop\n      jump\t// out\n        /* \"contracts/Coupon.sol\":4116:4491  function safeTransferFrom(... */\n    tag_69:\n        /* \"contracts/Coupon.sol\":4316:4328  _msgSender() */\n      tag_148\n        /* \"contracts/Coupon.sol\":4316:4326  _msgSender */\n      tag_149\n        /* \"contracts/Coupon.sol\":4316:4328  _msgSender() */\n      jump\t// in\n    tag_148:\n        /* \"contracts/Coupon.sol\":4308:4328  from == _msgSender() */\n      0xffffffffffffffffffffffffffffffffffffffff\n      and\n        /* \"contracts/Coupon.sol\":4308:4312  from */\n      dup6\n        /* \"contracts/Coupon.sol\":4308:4328  from == _msgSender() */\n      0xffffffffffffffffffffffffffffffffffffffff\n      and\n      eq\n        /* \"contracts/Coupon.sol\":4307:4356  (from == _msgSender()) || (from == address(this)) */\n      dup1\n      tag_150\n      jumpi\n      pop\n        /* \"contracts/Coupon.sol\":4350:4354  this */\n      address\n        /* \"contracts/Coupon.sol\":4334:4355  from == address(this) */\n      0xffffffffffffffffffffffffffffffffffffffff\n      and\n        /* \"contracts/Coupon.sol\":4334:4338  from */\n      dup6\n        /* \"contracts/Coupon.sol\":4334:4355  from == address(this) */\n      0xffffffffffffffffffffffffffffffffffffffff\n      and\n      eq\n        /* \"contracts/Coupon.sol\":4307:4356  (from == _msgSender()) || (from == address(this)) */\n    tag_150:\n        /* \"contracts/Coupon.sol\":4286:4429  require(... */\n      tag_151\n      jumpi\n      mload(0x40)\n      0x08c379a000000000000000000000000000000000000000000000000000000000\n      dup2\n      mstore\n      0x04\n      add\n      tag_152\n      swap1\n      tag_153\n      jump\t// in\n    tag_152:\n      mload(0x40)\n      dup1\n      swap2\n      sub\n      swap1\n      revert\n    tag_151:\n        /* \"contracts/Coupon.sol\":4439:4484  _safeTransferFrom(from, to, id, amount, data) */\n      tag_154\n        /* \"contracts/Coupon.sol\":4457:4461  from */\n      dup6\n        /* \"contracts/Coupon.sol\":4463:4465  to */\n      dup6\n        /* \"contracts/Coupon.sol\":4467:4469  id */\n      dup6\n        /* \"contracts/Coupon.sol\":4471:4477  amount */\n      dup6\n        /* \"contracts/Coupon.sol\":4479:4483  data */\n      dup6\n        /* \"contracts/Coupon.sol\":4439:4456  _safeTransferFrom */\n      tag_155\n        /* \"contracts/Coupon.sol\":4439:4484  _safeTransferFrom(from, to, id, amount, data) */\n      jump\t// in\n    tag_154:\n        /* \"contracts/Coupon.sol\":4116:4491  function safeTransferFrom(... */\n      pop\n      pop\n      pop\n      pop\n      pop\n      jump\t// out\n        /* \"contracts/Coupon.sol\":14829:14957  function _reduceAmount(uint256 discount, uint256 amount) private {... */\n    tag_117:\n        /* \"contracts/Coupon.sol\":14944:14950  amount */\n      dup1\n        /* \"contracts/Coupon.sol\":14924:14931  _amount */\n      0x03\n        /* \"contracts/Coupon.sol\":14924:14941  _amount[discount] */\n      0x00\n        /* \"contracts/Coupon.sol\":14932:14940  discount */\n      dup5\n        /* \"contracts/Coupon.sol\":14924:14941  _amount[discount] */\n      dup2\n      mstore\n      0x20\n      add\n      swap1\n      dup2\n      mstore\n      0x20\n      add\n      0x00\n      keccak256\n      sload\n        /* \"contracts/Coupon.sol\":14924:14950  _amount[discount] - amount */\n      tag_157\n      swap2\n      swap1\n      tag_158\n      jump\t// in\n    tag_157:\n        /* \"contracts/Coupon.sol\":14904:14911  _amount */\n      0x03\n        /* \"contracts/Coupon.sol\":14904:14921  _amount[discount] */\n      0x00\n        /* \"contracts/Coupon.sol\":14912:14920  discount */\n      dup5\n        /* \"contracts/Coupon.sol\":14904:14921  _amount[discount] */\n      dup2\n      mstore\n      0x20\n      add\n      swap1\n      dup2\n      mstore\n      0x20\n      add\n      0x00\n      keccak256\n        /* \"contracts/Coupon.sol\":14904:14950  _amount[discount] = _amount[discount] - amount */\n      dup2\n      swap1\n      sstore\n      pop\n        /* \"contracts/Coupon.sol\":14829:14957  function _reduceAmount(uint256 discount, uint256 amount) private {... */\n      pop\n      pop\n      jump\t// out\n        /* \"contracts/Coupon.sol\":6295:7086  function _mint(... */\n    tag_124:\n        /* \"contracts/Coupon.sol\":6456:6457  0 */\n      0x00\n        /* \"contracts/Coupon.sol\":6442:6458  to != address(0) */\n      0xffffffffffffffffffffffffffffffffffffffff\n      and\n        /* \"contracts/Coupon.sol\":6442:6444  to */\n      dup5\n        /* \"contracts/Coupon.sol\":6442:6458  to != address(0) */\n      0xffffffffffffffffffffffffffffffffffffffff\n      and\n      eq\n      iszero\n        /* \"contracts/Coupon.sol\":6434:6496  require(to != address(0), \"ERC1155: mint to the zero address\") */\n      tag_160\n      jumpi\n      mload(0x40)\n      0x08c379a000000000000000000000000000000000000000000000000000000000\n      dup2\n      mstore\n      0x04\n      add\n      tag_161\n      swap1\n      tag_162\n      jump\t// in\n    tag_161:\n      mload(0x40)\n      dup1\n      swap2\n      sub\n      swap1\n      revert\n    tag_160:\n        /* \"contracts/Coupon.sol\":6507:6523  address operator */\n      0x00\n        /* \"contracts/Coupon.sol\":6526:6538  _msgSender() */\n      tag_163\n        /* \"contracts/Coupon.sol\":6526:6536  _msgSender */\n      tag_149\n        /* \"contracts/Coupon.sol\":6526:6538  _msgSender() */\n      jump\t// in\n    tag_163:\n        /* \"contracts/Coupon.sol\":6507:6538  address operator = _msgSender() */\n      swap1\n      pop\n        /* \"contracts/Coupon.sol\":6548:6568  uint256[] memory ids */\n      0x00\n        /* \"contracts/Coupon.sol\":6571:6592  _asSingletonArray(id) */\n      tag_164\n        /* \"contracts/Coupon.sol\":6589:6591  id */\n      dup6\n        /* \"contracts/Coupon.sol\":6571:6588  _asSingletonArray */\n      tag_165\n        /* \"contracts/Coupon.sol\":6571:6592  _asSingletonArray(id) */\n      jump\t// in\n    tag_164:\n        /* \"contracts/Coupon.sol\":6548:6592  uint256[] memory ids = _asSingletonArray(id) */\n      swap1\n      pop\n        /* \"contracts/Coupon.sol\":6602:6626  uint256[] memory amounts */\n      0x00\n        /* \"contracts/Coupon.sol\":6629:6654  _asSingletonArray(amount) */\n      tag_166\n        /* \"contracts/Coupon.sol\":6647:6653  amount */\n      dup6\n        /* \"contracts/Coupon.sol\":6629:6646  _asSingletonArray */\n      tag_165\n        /* \"contracts/Coupon.sol\":6629:6654  _asSingletonArray(amount) */\n      jump\t// in\n    tag_166:\n        /* \"contracts/Coupon.sol\":6602:6654  uint256[] memory amounts = _asSingletonArray(amount) */\n      swap1\n      pop\n        /* \"contracts/Coupon.sol\":6665:6731  _beforeTokenTransfer(operator, address(0), to, ids, amounts, data) */\n      tag_167\n        /* \"contracts/Coupon.sol\":6686:6694  operator */\n      dup4\n        /* \"contracts/Coupon.sol\":6704:6705  0 */\n      0x00\n        /* \"contracts/Coupon.sol\":6708:6710  to */\n      dup10\n        /* \"contracts/Coupon.sol\":6712:6715  ids */\n      dup6\n        /* \"contracts/Coupon.sol\":6717:6724  amounts */\n      dup6\n        /* \"contracts/Coupon.sol\":6726:6730  data */\n      dup10\n        /* \"contracts/Coupon.sol\":6665:6685  _beforeTokenTransfer */\n      tag_168\n        /* \"contracts/Coupon.sol\":6665:6731  _beforeTokenTransfer(operator, address(0), to, ids, amounts, data) */\n      jump\t// in\n    tag_167:\n        /* \"contracts/Coupon.sol\":6763:6769  amount */\n      dup5\n        /* \"contracts/Coupon.sol\":6742:6751  _balances */\n      0x00\n        /* \"contracts/Coupon.sol\":6742:6755  _balances[id] */\n      dup1\n        /* \"contracts/Coupon.sol\":6752:6754  id */\n      dup9\n        /* \"contracts/Coupon.sol\":6742:6755  _balances[id] */\n      dup2\n      mstore\n      0x20\n      add\n      swap1\n      dup2\n      mstore\n      0x20\n      add\n      0x00\n      keccak256\n        /* \"contracts/Coupon.sol\":6742:6759  _balances[id][to] */\n      0x00\n        /* \"contracts/Coupon.sol\":6756:6758  to */\n      dup10\n        /* \"contracts/Coupon.sol\":6742:6759  _balances[id][to] */\n      0xffffffffffffffffffffffffffffffffffffffff\n      and\n      0xffffffffffffffffffffffffffffffffffffffff\n      and\n      dup2\n      mstore\n      0x20\n      add\n      swap1\n      dup2\n      mstore\n      0x20\n      add\n      0x00\n      keccak256\n      0x00\n        /* \"contracts/Coupon.sol\":6742:6769  _balances[id][to] += amount */\n      dup3\n      dup3\n      sload\n      tag_169\n      swap2\n      swap1\n      tag_81\n      jump\t// in\n    tag_169:\n      swap3\n      pop\n      pop\n      dup2\n      swap1\n      sstore\n      pop\n        /* \"contracts/Coupon.sol\":6821:6823  to */\n      dup7\n        /* \"contracts/Coupon.sol\":6784:6836  TransferSingle(operator, address(0), to, id, amount) */\n      0xffffffffffffffffffffffffffffffffffffffff\n      and\n        /* \"contracts/Coupon.sol\":6817:6818  0 */\n      0x00\n        /* \"contracts/Coupon.sol\":6784:6836  TransferSingle(operator, address(0), to, id, amount) */\n      0xffffffffffffffffffffffffffffffffffffffff\n      and\n        /* \"contracts/Coupon.sol\":6799:6807  operator */\n      dup5\n        /* \"contracts/Coupon.sol\":6784:6836  TransferSingle(operator, address(0), to, id, amount) */\n      0xffffffffffffffffffffffffffffffffffffffff\n      and\n      0xc3d58168c5ae7397731d063d5bbf3d657854427343f4c083240f7aacaa2d0f62\n        /* \"contracts/Coupon.sol\":6825:6827  id */\n      dup10\n        /* \"contracts/Coupon.sol\":6829:6835  amount */\n      dup10\n        /* \"contracts/Coupon.sol\":6784:6836  TransferSingle(operator, address(0), to, id, amount) */\n      mload(0x40)\n      tag_170\n      swap3\n      swap2\n      swap1\n      tag_171\n      jump\t// in\n    tag_170:\n      mload(0x40)\n      dup1\n      swap2\n      sub\n      swap1\n      log4\n        /* \"contracts/Coupon.sol\":6847:6912  _afterTokenTransfer(operator, address(0), to, ids, amounts, data) */\n      tag_172\n        /* \"contracts/Coupon.sol\":6867:6875  operator */\n      dup4\n        /* \"contracts/Coupon.sol\":6885:6886  0 */\n      0x00\n        /* \"contracts/Coupon.sol\":6889:6891  to */\n      dup10\n        /* \"contracts/Coupon.sol\":6893:6896  ids */\n      dup6\n        /* \"contracts/Coupon.sol\":6898:6905  amounts */\n      dup6\n        /* \"contracts/Coupon.sol\":6907:6911  data */\n      dup10\n        /* \"contracts/Coupon.sol\":6847:6866  _afterTokenTransfer */\n      tag_173\n        /* \"contracts/Coupon.sol\":6847:6912  _afterTokenTransfer(operator, address(0), to, ids, amounts, data) */\n      jump\t// in\n    tag_172:\n        /* \"contracts/Coupon.sol\":6923:7079  _doSafeTransferAcceptanceCheck(... */\n      tag_174\n        /* \"contracts/Coupon.sol\":6967:6975  operator */\n      dup4\n        /* \"contracts/Coupon.sol\":6997:6998  0 */\n      0x00\n        /* \"contracts/Coupon.sol\":7013:7015  to */\n      dup10\n        /* \"contracts/Coupon.sol\":7029:7031  id */\n      dup10\n        /* \"contracts/Coupon.sol\":7045:7051  amount */\n      dup10\n        /* \"contracts/Coupon.sol\":7065:7069  data */\n      dup10\n        /* \"contracts/Coupon.sol\":6923:6953  _doSafeTransferAcceptanceCheck */\n      tag_175\n        /* \"contracts/Coupon.sol\":6923:7079  _doSafeTransferAcceptanceCheck(... */\n      jump\t// in\n    tag_174:\n        /* \"contracts/Coupon.sol\":6424:7086  {... */\n      pop\n      pop\n      pop\n        /* \"contracts/Coupon.sol\":6295:7086  function _mint(... */\n      pop\n      pop\n      pop\n      pop\n      jump\t// out\n        /* \"contracts/Coupon.sol\":3532:3619  function _msgSender() private view returns (address) {... */\n    tag_149:\n        /* \"contracts/Coupon.sol\":3576:3583  address */\n      0x00\n        /* \"contracts/Coupon.sol\":3602:3612  msg.sender */\n      caller\n        /* \"contracts/Coupon.sol\":3595:3612  return msg.sender */\n      swap1\n      pop\n        /* \"contracts/Coupon.sol\":3532:3619  function _msgSender() private view returns (address) {... */\n      swap1\n      jump\t// out\n        /* \"contracts/Coupon.sol\":4941:5922  function _safeTransferFrom(... */\n    tag_155:\n        /* \"contracts/Coupon.sol\":5136:5137  0 */\n      0x00\n        /* \"contracts/Coupon.sol\":5122:5138  to != address(0) */\n      0xffffffffffffffffffffffffffffffffffffffff\n      and\n        /* \"contracts/Coupon.sol\":5122:5124  to */\n      dup5\n        /* \"contracts/Coupon.sol\":5122:5138  to != address(0) */\n      0xffffffffffffffffffffffffffffffffffffffff\n      and\n      eq\n      iszero\n        /* \"contracts/Coupon.sol\":5114:5180  require(to != address(0), \"ERC1155: transfer to the zero address\") */\n      tag_178\n      jumpi\n      mload(0x40)\n      0x08c379a000000000000000000000000000000000000000000000000000000000\n      dup2\n      mstore\n      0x04\n      add\n      tag_179\n      swap1\n      tag_180\n      jump\t// in\n    tag_179:\n      mload(0x40)\n      dup1\n      swap2\n      sub\n      swap1\n      revert\n    tag_178:\n        /* \"contracts/Coupon.sol\":5191:5207  address operator */\n      0x00\n        /* \"contracts/Coupon.sol\":5210:5222  _msgSender() */\n      tag_181\n        /* \"contracts/Coupon.sol\":5210:5220  _msgSender */\n      tag_149\n        /* \"contracts/Coupon.sol\":5210:5222  _msgSender() */\n      jump\t// in\n    tag_181:\n        /* \"contracts/Coupon.sol\":5191:5222  address operator = _msgSender() */\n      swap1\n      pop\n        /* \"contracts/Coupon.sol\":5232:5252  uint256[] memory ids */\n      0x00\n        /* \"contracts/Coupon.sol\":5255:5276  _asSingletonArray(id) */\n      tag_182\n        /* \"contracts/Coupon.sol\":5273:5275  id */\n      dup6\n        /* \"contracts/Coupon.sol\":5255:5272  _asSingletonArray */\n      tag_165\n        /* \"contracts/Coupon.sol\":5255:5276  _asSingletonArray(id) */\n      jump\t// in\n    tag_182:\n        /* \"contracts/Coupon.sol\":5232:5276  uint256[] memory ids = _asSingletonArray(id) */\n      swap1\n      pop\n        /* \"contracts/Coupon.sol\":5286:5310  uint256[] memory amounts */\n      0x00\n        /* \"contracts/Coupon.sol\":5313:5338  _asSingletonArray(amount) */\n      tag_183\n        /* \"contracts/Coupon.sol\":5331:5337  amount */\n      dup6\n        /* \"contracts/Coupon.sol\":5313:5330  _asSingletonArray */\n      tag_165\n        /* \"contracts/Coupon.sol\":5313:5338  _asSingletonArray(amount) */\n      jump\t// in\n    tag_183:\n        /* \"contracts/Coupon.sol\":5286:5338  uint256[] memory amounts = _asSingletonArray(amount) */\n      swap1\n      pop\n        /* \"contracts/Coupon.sol\":5349:5409  _beforeTokenTransfer(operator, from, to, ids, amounts, data) */\n      tag_184\n        /* \"contracts/Coupon.sol\":5370:5378  operator */\n      dup4\n        /* \"contracts/Coupon.sol\":5380:5384  from */\n      dup10\n        /* \"contracts/Coupon.sol\":5386:5388  to */\n      dup10\n        /* \"contracts/Coupon.sol\":5390:5393  ids */\n      dup6\n        /* \"contracts/Coupon.sol\":5395:5402  amounts */\n      dup6\n        /* \"contracts/Coupon.sol\":5404:5408  data */\n      dup10\n        /* \"contracts/Coupon.sol\":5349:5369  _beforeTokenTransfer */\n      tag_168\n        /* \"contracts/Coupon.sol\":5349:5409  _beforeTokenTransfer(operator, from, to, ids, amounts, data) */\n      jump\t// in\n    tag_184:\n        /* \"contracts/Coupon.sol\":5420:5439  uint256 fromBalance */\n      0x00\n        /* \"contracts/Coupon.sol\":5442:5451  _balances */\n      dup1\n        /* \"contracts/Coupon.sol\":5442:5455  _balances[id] */\n      0x00\n        /* \"contracts/Coupon.sol\":5452:5454  id */\n      dup9\n        /* \"contracts/Coupon.sol\":5442:5455  _balances[id] */\n      dup2\n      mstore\n      0x20\n      add\n      swap1\n      dup2\n      mstore\n      0x20\n      add\n      0x00\n      keccak256\n        /* \"contracts/Coupon.sol\":5442:5461  _balances[id][from] */\n      0x00\n        /* \"contracts/Coupon.sol\":5456:5460  from */\n      dup11\n        /* \"contracts/Coupon.sol\":5442:5461  _balances[id][from] */\n      0xffffffffffffffffffffffffffffffffffffffff\n      and\n      0xffffffffffffffffffffffffffffffffffffffff\n      and\n      dup2\n      mstore\n      0x20\n      add\n      swap1\n      dup2\n      mstore\n      0x20\n      add\n      0x00\n      keccak256\n      sload\n        /* \"contracts/Coupon.sol\":5420:5461  uint256 fromBalance = _balances[id][from] */\n      swap1\n      pop\n        /* \"contracts/Coupon.sol\":5507:5513  amount */\n      dup6\n        /* \"contracts/Coupon.sol\":5492:5503  fromBalance */\n      dup2\n        /* \"contracts/Coupon.sol\":5492:5513  fromBalance >= amount */\n      lt\n      iszero\n        /* \"contracts/Coupon.sol\":5471:5581  require(... */\n      tag_185\n      jumpi\n      mload(0x40)\n      0x08c379a000000000000000000000000000000000000000000000000000000000\n      dup2\n      mstore\n      0x04\n      add\n      tag_186\n      swap1\n      tag_187\n      jump\t// in\n    tag_186:\n      mload(0x40)\n      dup1\n      swap2\n      sub\n      swap1\n      revert\n    tag_185:\n        /* \"contracts/Coupon.sol\":5651:5657  amount */\n      dup6\n        /* \"contracts/Coupon.sol\":5637:5648  fromBalance */\n      dup2\n        /* \"contracts/Coupon.sol\":5637:5657  fromBalance - amount */\n      sub\n        /* \"contracts/Coupon.sol\":5615:5624  _balances */\n      0x00\n        /* \"contracts/Coupon.sol\":5615:5628  _balances[id] */\n      dup1\n        /* \"contracts/Coupon.sol\":5625:5627  id */\n      dup10\n        /* \"contracts/Coupon.sol\":5615:5628  _balances[id] */\n      dup2\n      mstore\n      0x20\n      add\n      swap1\n      dup2\n      mstore\n      0x20\n      add\n      0x00\n      keccak256\n        /* \"contracts/Coupon.sol\":5615:5634  _balances[id][from] */\n      0x00\n        /* \"contracts/Coupon.sol\":5629:5633  from */\n      dup12\n        /* \"contracts/Coupon.sol\":5615:5634  _balances[id][from] */\n      0xffffffffffffffffffffffffffffffffffffffff\n      and\n      0xffffffffffffffffffffffffffffffffffffffff\n      and\n      dup2\n      mstore\n      0x20\n      add\n      swap1\n      dup2\n      mstore\n      0x20\n      add\n      0x00\n      keccak256\n        /* \"contracts/Coupon.sol\":5615:5657  _balances[id][from] = fromBalance - amount */\n      dup2\n      swap1\n      sstore\n      pop\n        /* \"contracts/Coupon.sol\":5698:5704  amount */\n      dup6\n        /* \"contracts/Coupon.sol\":5677:5686  _balances */\n      0x00\n        /* \"contracts/Coupon.sol\":5677:5690  _balances[id] */\n      dup1\n        /* \"contracts/Coupon.sol\":5687:5689  id */\n      dup10\n        /* \"contracts/Coupon.sol\":5677:5690  _balances[id] */\n      dup2\n      mstore\n      0x20\n      add\n      swap1\n      dup2\n      mstore\n      0x20\n      add\n      0x00\n      keccak256\n        /* \"contracts/Coupon.sol\":5677:5694  _balances[id][to] */\n      0x00\n        /* \"contracts/Coupon.sol\":5691:5693  to */\n      dup11\n        /* \"contracts/Coupon.sol\":5677:5694  _balances[id][to] */\n      0xffffffffffffffffffffffffffffffffffffffff\n      and\n      0xffffffffffffffffffffffffffffffffffffffff\n      and\n      dup2\n      mstore\n      0x20\n      add\n      swap1\n      dup2\n      mstore\n      0x20\n      add\n      0x00\n      keccak256\n      0x00\n        /* \"contracts/Coupon.sol\":5677:5704  _balances[id][to] += amount */\n      dup3\n      dup3\n      sload\n      tag_188\n      swap2\n      swap1\n      tag_81\n      jump\t// in\n    tag_188:\n      swap3\n      pop\n      pop\n      dup2\n      swap1\n      sstore\n      pop\n        /* \"contracts/Coupon.sol\":5751:5753  to */\n      dup8\n        /* \"contracts/Coupon.sol\":5720:5766  TransferSingle(operator, from, to, id, amount) */\n      0xffffffffffffffffffffffffffffffffffffffff\n      and\n        /* \"contracts/Coupon.sol\":5745:5749  from */\n      dup10\n        /* \"contracts/Coupon.sol\":5720:5766  TransferSingle(operator, from, to, id, amount) */\n      0xffffffffffffffffffffffffffffffffffffffff\n      and\n        /* \"contracts/Coupon.sol\":5735:5743  operator */\n      dup6\n        /* \"contracts/Coupon.sol\":5720:5766  TransferSingle(operator, from, to, id, amount) */\n      0xffffffffffffffffffffffffffffffffffffffff\n      and\n      0xc3d58168c5ae7397731d063d5bbf3d657854427343f4c083240f7aacaa2d0f62\n        /* \"contracts/Coupon.sol\":5755:5757  id */\n      dup11\n        /* \"contracts/Coupon.sol\":5759:5765  amount */\n      dup11\n        /* \"contracts/Coupon.sol\":5720:5766  TransferSingle(operator, from, to, id, amount) */\n      mload(0x40)\n      tag_189\n      swap3\n      swap2\n      swap1\n      tag_171\n      jump\t// in\n    tag_189:\n      mload(0x40)\n      dup1\n      swap2\n      sub\n      swap1\n      log4\n        /* \"contracts/Coupon.sol\":5777:5836  _afterTokenTransfer(operator, from, to, ids, amounts, data) */\n      tag_190\n        /* \"contracts/Coupon.sol\":5797:5805  operator */\n      dup5\n        /* \"contracts/Coupon.sol\":5807:5811  from */\n      dup11\n        /* \"contracts/Coupon.sol\":5813:5815  to */\n      dup11\n        /* \"contracts/Coupon.sol\":5817:5820  ids */\n      dup7\n        /* \"contracts/Coupon.sol\":5822:5829  amounts */\n      dup7\n        /* \"contracts/Coupon.sol\":5831:5835  data */\n      dup11\n        /* \"contracts/Coupon.sol\":5777:5796  _afterTokenTransfer */\n      tag_173\n        /* \"contracts/Coupon.sol\":5777:5836  _afterTokenTransfer(operator, from, to, ids, amounts, data) */\n      jump\t// in\n    tag_190:\n        /* \"contracts/Coupon.sol\":5847:5915  _doSafeTransferAcceptanceCheck(operator, from, to, id, amount, data) */\n      tag_191\n        /* \"contracts/Coupon.sol\":5878:5886  operator */\n      dup5\n        /* \"contracts/Coupon.sol\":5888:5892  from */\n      dup11\n        /* \"contracts/Coupon.sol\":5894:5896  to */\n      dup11\n        /* \"contracts/Coupon.sol\":5898:5900  id */\n      dup11\n        /* \"contracts/Coupon.sol\":5902:5908  amount */\n      dup11\n        /* \"contracts/Coupon.sol\":5910:5914  data */\n      dup11\n        /* \"contracts/Coupon.sol\":5847:5877  _doSafeTransferAcceptanceCheck */\n      tag_175\n        /* \"contracts/Coupon.sol\":5847:5915  _doSafeTransferAcceptanceCheck(operator, from, to, id, amount, data) */\n      jump\t// in\n    tag_191:\n        /* \"contracts/Coupon.sol\":5104:5922  {... */\n      pop\n      pop\n      pop\n      pop\n        /* \"contracts/Coupon.sol\":4941:5922  function _safeTransferFrom(... */\n      pop\n      pop\n      pop\n      pop\n      pop\n      jump\t// out\n        /* \"contracts/Coupon.sol\":11336:11557  function _asSingletonArray(uint256 element)... */\n    tag_165:\n        /* \"contracts/Coupon.sol\":11426:11442  uint256[] memory */\n      0x60\n        /* \"contracts/Coupon.sol\":11458:11480  uint256[] memory array */\n      0x00\n        /* \"contracts/Coupon.sol\":11497:11498  1 */\n      0x01\n        /* \"contracts/Coupon.sol\":11483:11499  new uint256[](1) */\n      0xffffffffffffffff\n      dup2\n      gt\n      iszero\n      tag_193\n      jumpi\n      tag_194\n      tag_89\n      jump\t// in\n    tag_194:\n    tag_193:\n      mload(0x40)\n      swap1\n      dup1\n      dup3\n      mstore\n      dup1\n      0x20\n      mul\n      0x20\n      add\n      dup3\n      add\n      0x40\n      mstore\n      dup1\n      iszero\n      tag_195\n      jumpi\n      dup2\n      0x20\n      add\n      0x20\n      dup3\n      mul\n      dup1\n      calldatasize\n      dup4\n      calldatacopy\n      dup1\n      dup3\n      add\n      swap2\n      pop\n      pop\n      swap1\n      pop\n    tag_195:\n      pop\n        /* \"contracts/Coupon.sol\":11458:11499  uint256[] memory array = new uint256[](1) */\n      swap1\n      pop\n        /* \"contracts/Coupon.sol\":11520:11527  element */\n      dup3\n        /* \"contracts/Coupon.sol\":11509:11514  array */\n      dup2\n        /* \"contracts/Coupon.sol\":11515:11516  0 */\n      0x00\n        /* \"contracts/Coupon.sol\":11509:11517  array[0] */\n      dup2\n      mload\n      dup2\n      lt\n      tag_196\n      jumpi\n      tag_197\n      tag_99\n      jump\t// in\n    tag_197:\n    tag_196:\n      0x20\n      mul\n      0x20\n      add\n      add\n        /* \"contracts/Coupon.sol\":11509:11527  array[0] = element */\n      dup2\n      dup2\n      mstore\n      pop\n      pop\n        /* \"contracts/Coupon.sol\":11545:11550  array */\n      dup1\n        /* \"contracts/Coupon.sol\":11538:11550  return array */\n      swap2\n      pop\n      pop\n        /* \"contracts/Coupon.sol\":11336:11557  function _asSingletonArray(uint256 element)... */\n      swap2\n      swap1\n      pop\n      jump\t// out\n        /* \"contracts/Coupon.sol\":9094:9308  function _beforeTokenTransfer(... */\n    tag_168:\n      pop\n      pop\n      pop\n      pop\n      pop\n      pop\n      jump\t// out\n        /* \"contracts/Coupon.sol\":10241:10454  function _afterTokenTransfer(... */\n    tag_173:\n      pop\n      pop\n      pop\n      pop\n      pop\n      pop\n      jump\t// out\n        /* \"contracts/Coupon.sol\":10460:11330  function _doSafeTransferAcceptanceCheck(... */\n    tag_175:\n        /* \"contracts/Coupon.sol\":10667:10681  isContract(to) */\n      tag_201\n        /* \"contracts/Coupon.sol\":10678:10680  to */\n      dup5\n        /* \"contracts/Coupon.sol\":10667:10677  isContract */\n      tag_202\n        /* \"contracts/Coupon.sol\":10667:10681  isContract(to) */\n      jump\t// in\n    tag_201:\n        /* \"contracts/Coupon.sol\":10663:11324  if (isContract(to)) {... */\n      iszero\n      tag_203\n      jumpi\n        /* \"contracts/Coupon.sol\":10734:10736  to */\n      dup4\n        /* \"contracts/Coupon.sol\":10717:10755  IERC1155Receiver(to).onERC1155Received */\n      0xffffffffffffffffffffffffffffffffffffffff\n      and\n      0xf23a6e61\n        /* \"contracts/Coupon.sol\":10777:10785  operator */\n      dup8\n        /* \"contracts/Coupon.sol\":10807:10811  from */\n      dup8\n        /* \"contracts/Coupon.sol\":10833:10835  id */\n      dup7\n        /* \"contracts/Coupon.sol\":10857:10863  amount */\n      dup7\n        /* \"contracts/Coupon.sol\":10885:10889  data */\n      dup7\n        /* \"contracts/Coupon.sol\":10717:10907  IERC1155Receiver(to).onERC1155Received(... */\n      mload(0x40)\n      dup7\n      0xffffffff\n      and\n      0xe0\n      shl\n      dup2\n      mstore\n      0x04\n      add\n      tag_204\n      swap6\n      swap5\n      swap4\n      swap3\n      swap2\n      swap1\n      tag_205\n      jump\t// in\n    tag_204:\n      0x20\n      mload(0x40)\n      dup1\n      dup4\n      sub\n      dup2\n      0x00\n      dup8\n      dup1\n      extcodesize\n      iszero\n      dup1\n      iszero\n      tag_206\n      jumpi\n      0x00\n      dup1\n      revert\n    tag_206:\n      pop\n      gas\n      call\n      swap3\n      pop\n      pop\n      pop\n      dup1\n      iszero\n      tag_207\n      jumpi\n      pop\n      mload(0x40)\n      returndatasize\n      not(0x1f)\n      0x1f\n      dup3\n      add\n      and\n      dup3\n      add\n      dup1\n      0x40\n      mstore\n      pop\n      dup2\n      add\n      swap1\n      tag_208\n      swap2\n      swap1\n      tag_209\n      jump\t// in\n    tag_208:\n      0x01\n    tag_207:\n        /* \"contracts/Coupon.sol\":10697:11314  try... */\n      tag_210\n      jumpi\n      tag_214\n      tag_215\n      jump\t// in\n    tag_214:\n      dup1\n      0x08c379a0\n      eq\n      iszero\n      tag_213\n      jumpi\n      pop\n      tag_216\n      tag_217\n      jump\t// in\n    tag_216:\n      dup1\n      tag_218\n      jumpi\n      pop\n      jump(tag_212)\n    tag_218:\n        /* \"contracts/Coupon.sol\":11190:11196  reason */\n      dup1\n        /* \"contracts/Coupon.sol\":11183:11197  revert(reason) */\n      mload(0x40)\n      0x08c379a000000000000000000000000000000000000000000000000000000000\n      dup2\n      mstore\n      0x04\n      add\n      tag_219\n      swap2\n      swap1\n      tag_220\n      jump\t// in\n    tag_219:\n      mload(0x40)\n      dup1\n      swap2\n      sub\n      swap1\n      revert\n        /* \"contracts/Coupon.sol\":10697:11314  try... */\n    tag_213:\n      pop\n    tag_212:\n        /* \"contracts/Coupon.sol\":11237:11299  revert(\"ERC1155: transfer to non ERC1155Receiver implementer\") */\n      mload(0x40)\n      0x08c379a000000000000000000000000000000000000000000000000000000000\n      dup2\n      mstore\n      0x04\n      add\n      tag_221\n      swap1\n      tag_222\n      jump\t// in\n    tag_221:\n      mload(0x40)\n      dup1\n      swap2\n      sub\n      swap1\n      revert\n        /* \"contracts/Coupon.sol\":10697:11314  try... */\n    tag_210:\n        /* \"contracts/Coupon.sol\":10980:11023  IERC1155Receiver.onERC1155Received.selector */\n      shl(0xe0, 0xf23a6e61)\n        /* \"contracts/Coupon.sol\":10968:11023  response != IERC1155Receiver.onERC1155Received.selector */\n      not(0xffffffffffffffffffffffffffffffffffffffffffffffffffffffff)\n      and\n        /* \"contracts/Coupon.sol\":10968:10976  response */\n      dup2\n        /* \"contracts/Coupon.sol\":10968:11023  response != IERC1155Receiver.onERC1155Received.selector */\n      not(0xffffffffffffffffffffffffffffffffffffffffffffffffffffffff)\n      and\n      eq\n        /* \"contracts/Coupon.sol\":10964:11116  if (response != IERC1155Receiver.onERC1155Received.selector) {... */\n      tag_224\n      jumpi\n        /* \"contracts/Coupon.sol\":11047:11097  revert(\"ERC1155: ERC1155Receiver rejected tokens\") */\n      mload(0x40)\n      0x08c379a000000000000000000000000000000000000000000000000000000000\n      dup2\n      mstore\n      0x04\n      add\n      tag_225\n      swap1\n      tag_226\n      jump\t// in\n    tag_225:\n      mload(0x40)\n      dup1\n      swap2\n      sub\n      swap1\n      revert\n        /* \"contracts/Coupon.sol\":10964:11116  if (response != IERC1155Receiver.onERC1155Received.selector) {... */\n    tag_224:\n        /* \"contracts/Coupon.sol\":10920:11130  returns (bytes4 response) {... */\n      pop\n        /* \"contracts/Coupon.sol\":10663:11324  if (isContract(to)) {... */\n    tag_203:\n        /* \"contracts/Coupon.sol\":10460:11330  function _doSafeTransferAcceptanceCheck(... */\n      pop\n      pop\n      pop\n      pop\n      pop\n      pop\n      jump\t// out\n        /* \"contracts/Coupon.sol\":3207:3526  function isContract(address account) private view returns (bool) {... */\n    tag_202:\n        /* \"contracts/Coupon.sol\":3266:3270  bool */\n      0x00\n        /* \"contracts/Coupon.sol\":3518:3519  0 */\n      dup1\n        /* \"contracts/Coupon.sol\":3496:3503  account */\n      dup3\n        /* \"contracts/Coupon.sol\":3496:3515  account.code.length */\n      0xffffffffffffffffffffffffffffffffffffffff\n      and\n      extcodesize\n        /* \"contracts/Coupon.sol\":3496:3519  account.code.length > 0 */\n      gt\n        /* \"contracts/Coupon.sol\":3489:3519  return account.code.length > 0 */\n      swap1\n      pop\n        /* \"contracts/Coupon.sol\":3207:3526  function isContract(address account) private view returns (bool) {... */\n      swap2\n      swap1\n      pop\n      jump\t// out\n        /* \"#utility.yul\":7:417   */\n    tag_229:\n        /* \"#utility.yul\":84:89   */\n      0x00\n        /* \"#utility.yul\":109:174   */\n      tag_231\n        /* \"#utility.yul\":125:173   */\n      tag_232\n        /* \"#utility.yul\":166:172   */\n      dup5\n        /* \"#utility.yul\":125:173   */\n      tag_233\n      jump\t// in\n    tag_232:\n        /* \"#utility.yul\":109:174   */\n      tag_234\n      jump\t// in\n    tag_231:\n        /* \"#utility.yul\":100:174   */\n      swap1\n      pop\n        /* \"#utility.yul\":197:203   */\n      dup3\n        /* \"#utility.yul\":190:195   */\n      dup2\n        /* \"#utility.yul\":183:204   */\n      mstore\n        /* \"#utility.yul\":235:239   */\n      0x20\n        /* \"#utility.yul\":228:233   */\n      dup2\n        /* \"#utility.yul\":224:240   */\n      add\n        /* \"#utility.yul\":273:276   */\n      dup5\n        /* \"#utility.yul\":264:270   */\n      dup5\n        /* \"#utility.yul\":259:262   */\n      dup5\n        /* \"#utility.yul\":255:271   */\n      add\n        /* \"#utility.yul\":252:277   */\n      gt\n        /* \"#utility.yul\":249:361   */\n      iszero\n      tag_235\n      jumpi\n        /* \"#utility.yul\":280:359   */\n      tag_236\n      tag_237\n      jump\t// in\n    tag_236:\n        /* \"#utility.yul\":249:361   */\n    tag_235:\n        /* \"#utility.yul\":370:411   */\n      tag_238\n        /* \"#utility.yul\":404:410   */\n      dup5\n        /* \"#utility.yul\":399:402   */\n      dup3\n        /* \"#utility.yul\":394:397   */\n      dup6\n        /* \"#utility.yul\":370:411   */\n      tag_239\n      jump\t// in\n    tag_238:\n        /* \"#utility.yul\":90:417   */\n      pop\n        /* \"#utility.yul\":7:417   */\n      swap4\n      swap3\n      pop\n      pop\n      pop\n      jump\t// out\n        /* \"#utility.yul\":423:562   */\n    tag_240:\n        /* \"#utility.yul\":469:474   */\n      0x00\n        /* \"#utility.yul\":507:513   */\n      dup2\n        /* \"#utility.yul\":494:514   */\n      calldataload\n        /* \"#utility.yul\":485:514   */\n      swap1\n      pop\n        /* \"#utility.yul\":523:556   */\n      tag_242\n        /* \"#utility.yul\":550:555   */\n      dup2\n        /* \"#utility.yul\":523:556   */\n      tag_243\n      jump\t// in\n    tag_242:\n        /* \"#utility.yul\":423:562   */\n      swap3\n      swap2\n      pop\n      pop\n      jump\t// out\n        /* \"#utility.yul\":568:705   */\n    tag_244:\n        /* \"#utility.yul\":622:627   */\n      0x00\n        /* \"#utility.yul\":653:659   */\n      dup2\n        /* \"#utility.yul\":647:660   */\n      mload\n        /* \"#utility.yul\":638:660   */\n      swap1\n      pop\n        /* \"#utility.yul\":669:699   */\n      tag_246\n        /* \"#utility.yul\":693:698   */\n      dup2\n        /* \"#utility.yul\":669:699   */\n      tag_247\n      jump\t// in\n    tag_246:\n        /* \"#utility.yul\":568:705   */\n      swap3\n      swap2\n      pop\n      pop\n      jump\t// out\n        /* \"#utility.yul\":711:852   */\n    tag_248:\n        /* \"#utility.yul\":767:772   */\n      0x00\n        /* \"#utility.yul\":798:804   */\n      dup2\n        /* \"#utility.yul\":792:805   */\n      mload\n        /* \"#utility.yul\":783:805   */\n      swap1\n      pop\n        /* \"#utility.yul\":814:846   */\n      tag_250\n        /* \"#utility.yul\":840:845   */\n      dup2\n        /* \"#utility.yul\":814:846   */\n      tag_251\n      jump\t// in\n    tag_250:\n        /* \"#utility.yul\":711:852   */\n      swap3\n      swap2\n      pop\n      pop\n      jump\t// out\n        /* \"#utility.yul\":871:1423   */\n    tag_252:\n        /* \"#utility.yul\":928:936   */\n      0x00\n        /* \"#utility.yul\":938:944   */\n      dup1\n        /* \"#utility.yul\":988:991   */\n      dup4\n        /* \"#utility.yul\":981:985   */\n      0x1f\n        /* \"#utility.yul\":973:979   */\n      dup5\n        /* \"#utility.yul\":969:986   */\n      add\n        /* \"#utility.yul\":965:992   */\n      slt\n        /* \"#utility.yul\":955:1077   */\n      tag_254\n      jumpi\n        /* \"#utility.yul\":996:1075   */\n      tag_255\n      tag_256\n      jump\t// in\n    tag_255:\n        /* \"#utility.yul\":955:1077   */\n    tag_254:\n        /* \"#utility.yul\":1109:1115   */\n      dup3\n        /* \"#utility.yul\":1096:1116   */\n      calldataload\n        /* \"#utility.yul\":1086:1116   */\n      swap1\n      pop\n        /* \"#utility.yul\":1139:1157   */\n      0xffffffffffffffff\n        /* \"#utility.yul\":1131:1137   */\n      dup2\n        /* \"#utility.yul\":1128:1158   */\n      gt\n        /* \"#utility.yul\":1125:1242   */\n      iszero\n      tag_257\n      jumpi\n        /* \"#utility.yul\":1161:1240   */\n      tag_258\n      tag_259\n      jump\t// in\n    tag_258:\n        /* \"#utility.yul\":1125:1242   */\n    tag_257:\n        /* \"#utility.yul\":1275:1279   */\n      0x20\n        /* \"#utility.yul\":1267:1273   */\n      dup4\n        /* \"#utility.yul\":1263:1280   */\n      add\n        /* \"#utility.yul\":1251:1280   */\n      swap2\n      pop\n        /* \"#utility.yul\":1329:1332   */\n      dup4\n        /* \"#utility.yul\":1321:1325   */\n      0x01\n        /* \"#utility.yul\":1313:1319   */\n      dup3\n        /* \"#utility.yul\":1309:1326   */\n      mul\n        /* \"#utility.yul\":1299:1307   */\n      dup4\n        /* \"#utility.yul\":1295:1327   */\n      add\n        /* \"#utility.yul\":1292:1333   */\n      gt\n        /* \"#utility.yul\":1289:1417   */\n      iszero\n      tag_260\n      jumpi\n        /* \"#utility.yul\":1336:1415   */\n      tag_261\n      tag_262\n      jump\t// in\n    tag_261:\n        /* \"#utility.yul\":1289:1417   */\n    tag_260:\n        /* \"#utility.yul\":871:1423   */\n      swap3\n      pop\n      swap3\n      swap1\n      pop\n      jump\t// out\n        /* \"#utility.yul\":1442:1780   */\n    tag_263:\n        /* \"#utility.yul\":1497:1502   */\n      0x00\n        /* \"#utility.yul\":1546:1549   */\n      dup3\n        /* \"#utility.yul\":1539:1543   */\n      0x1f\n        /* \"#utility.yul\":1531:1537   */\n      dup4\n        /* \"#utility.yul\":1527:1544   */\n      add\n        /* \"#utility.yul\":1523:1550   */\n      slt\n        /* \"#utility.yul\":1513:1635   */\n      tag_265\n      jumpi\n        /* \"#utility.yul\":1554:1633   */\n      tag_266\n      tag_256\n      jump\t// in\n    tag_266:\n        /* \"#utility.yul\":1513:1635   */\n    tag_265:\n        /* \"#utility.yul\":1671:1677   */\n      dup2\n        /* \"#utility.yul\":1658:1678   */\n      calldataload\n        /* \"#utility.yul\":1696:1774   */\n      tag_267\n        /* \"#utility.yul\":1770:1773   */\n      dup5\n        /* \"#utility.yul\":1762:1768   */\n      dup3\n        /* \"#utility.yul\":1755:1759   */\n      0x20\n        /* \"#utility.yul\":1747:1753   */\n      dup7\n        /* \"#utility.yul\":1743:1760   */\n      add\n        /* \"#utility.yul\":1696:1774   */\n      tag_229\n      jump\t// in\n    tag_267:\n        /* \"#utility.yul\":1687:1774   */\n      swap2\n      pop\n        /* \"#utility.yul\":1503:1780   */\n      pop\n        /* \"#utility.yul\":1442:1780   */\n      swap3\n      swap2\n      pop\n      pop\n      jump\t// out\n        /* \"#utility.yul\":1786:1925   */\n    tag_268:\n        /* \"#utility.yul\":1832:1837   */\n      0x00\n        /* \"#utility.yul\":1870:1876   */\n      dup2\n        /* \"#utility.yul\":1857:1877   */\n      calldataload\n        /* \"#utility.yul\":1848:1877   */\n      swap1\n      pop\n        /* \"#utility.yul\":1886:1919   */\n      tag_270\n        /* \"#utility.yul\":1913:1918   */\n      dup2\n        /* \"#utility.yul\":1886:1919   */\n      tag_271\n      jump\t// in\n    tag_270:\n        /* \"#utility.yul\":1786:1925   */\n      swap3\n      swap2\n      pop\n      pop\n      jump\t// out\n        /* \"#utility.yul\":1931:2260   */\n    tag_45:\n        /* \"#utility.yul\":1990:1996   */\n      0x00\n        /* \"#utility.yul\":2039:2041   */\n      0x20\n        /* \"#utility.yul\":2027:2036   */\n      dup3\n        /* \"#utility.yul\":2018:2025   */\n      dup5\n        /* \"#utility.yul\":2014:2037   */\n      sub\n        /* \"#utility.yul\":2010:2042   */\n      slt\n        /* \"#utility.yul\":2007:2126   */\n      iszero\n      tag_273\n      jumpi\n        /* \"#utility.yul\":2045:2124   */\n      tag_274\n      tag_275\n      jump\t// in\n    tag_274:\n        /* \"#utility.yul\":2007:2126   */\n    tag_273:\n        /* \"#utility.yul\":2165:2166   */\n      0x00\n        /* \"#utility.yul\":2190:2243   */\n      tag_276\n        /* \"#utility.yul\":2235:2242   */\n      dup5\n        /* \"#utility.yul\":2226:2232   */\n      dup3\n        /* \"#utility.yul\":2215:2224   */\n      dup6\n        /* \"#utility.yul\":2211:2233   */\n      add\n        /* \"#utility.yul\":2190:2243   */\n      tag_240\n      jump\t// in\n    tag_276:\n        /* \"#utility.yul\":2180:2243   */\n      swap2\n      pop\n        /* \"#utility.yul\":2136:2253   */\n      pop\n        /* \"#utility.yul\":1931:2260   */\n      swap3\n      swap2\n      pop\n      pop\n      jump\t// out\n        /* \"#utility.yul\":2266:3375   */\n    tag_61:\n        /* \"#utility.yul\":2372:2378   */\n      0x00\n        /* \"#utility.yul\":2380:2386   */\n      dup1\n        /* \"#utility.yul\":2388:2394   */\n      0x00\n        /* \"#utility.yul\":2396:2402   */\n      dup1\n        /* \"#utility.yul\":2404:2410   */\n      0x00\n        /* \"#utility.yul\":2412:2418   */\n      dup1\n        /* \"#utility.yul\":2461:2464   */\n      0xa0\n        /* \"#utility.yul\":2449:2458   */\n      dup8\n        /* \"#utility.yul\":2440:2447   */\n      dup10\n        /* \"#utility.yul\":2436:2459   */\n      sub\n        /* \"#utility.yul\":2432:2465   */\n      slt\n        /* \"#utility.yul\":2429:2549   */\n      iszero\n      tag_278\n      jumpi\n        /* \"#utility.yul\":2468:2547   */\n      tag_279\n      tag_275\n      jump\t// in\n    tag_279:\n        /* \"#utility.yul\":2429:2549   */\n    tag_278:\n        /* \"#utility.yul\":2588:2589   */\n      0x00\n        /* \"#utility.yul\":2613:2666   */\n      tag_280\n        /* \"#utility.yul\":2658:2665   */\n      dup10\n        /* \"#utility.yul\":2649:2655   */\n      dup3\n        /* \"#utility.yul\":2638:2647   */\n      dup11\n        /* \"#utility.yul\":2634:2656   */\n      add\n        /* \"#utility.yul\":2613:2666   */\n      tag_240\n      jump\t// in\n    tag_280:\n        /* \"#utility.yul\":2603:2666   */\n      swap7\n      pop\n        /* \"#utility.yul\":2559:2676   */\n      pop\n        /* \"#utility.yul\":2715:2717   */\n      0x20\n        /* \"#utility.yul\":2741:2794   */\n      tag_281\n        /* \"#utility.yul\":2786:2793   */\n      dup10\n        /* \"#utility.yul\":2777:2783   */\n      dup3\n        /* \"#utility.yul\":2766:2775   */\n      dup11\n        /* \"#utility.yul\":2762:2784   */\n      add\n        /* \"#utility.yul\":2741:2794   */\n      tag_240\n      jump\t// in\n    tag_281:\n        /* \"#utility.yul\":2731:2794   */\n      swap6\n      pop\n        /* \"#utility.yul\":2686:2804   */\n      pop\n        /* \"#utility.yul\":2843:2845   */\n      0x40\n        /* \"#utility.yul\":2869:2922   */\n      tag_282\n        /* \"#utility.yul\":2914:2921   */\n      dup10\n        /* \"#utility.yul\":2905:2911   */\n      dup3\n        /* \"#utility.yul\":2894:2903   */\n      dup11\n        /* \"#utility.yul\":2890:2912   */\n      add\n        /* \"#utility.yul\":2869:2922   */\n      tag_268\n      jump\t// in\n    tag_282:\n        /* \"#utility.yul\":2859:2922   */\n      swap5\n      pop\n        /* \"#utility.yul\":2814:2932   */\n      pop\n        /* \"#utility.yul\":2971:2973   */\n      0x60\n        /* \"#utility.yul\":2997:3050   */\n      tag_283\n        /* \"#utility.yul\":3042:3049   */\n      dup10\n        /* \"#utility.yul\":3033:3039   */\n      dup3\n        /* \"#utility.yul\":3022:3031   */\n      dup11\n        /* \"#utility.yul\":3018:3040   */\n      add\n        /* \"#utility.yul\":2997:3050   */\n      tag_268\n      jump\t// in\n    tag_283:\n        /* \"#utility.yul\":2987:3050   */\n      swap4\n      pop\n        /* \"#utility.yul\":2942:3060   */\n      pop\n        /* \"#utility.yul\":3127:3130   */\n      0x80\n        /* \"#utility.yul\":3116:3125   */\n      dup8\n        /* \"#utility.yul\":3112:3131   */\n      add\n        /* \"#utility.yul\":3099:3132   */\n      calldataload\n        /* \"#utility.yul\":3159:3177   */\n      0xffffffffffffffff\n        /* \"#utility.yul\":3151:3157   */\n      dup2\n        /* \"#utility.yul\":3148:3178   */\n      gt\n        /* \"#utility.yul\":3145:3262   */\n      iszero\n      tag_284\n      jumpi\n        /* \"#utility.yul\":3181:3260   */\n      tag_285\n      tag_286\n      jump\t// in\n    tag_285:\n        /* \"#utility.yul\":3145:3262   */\n    tag_284:\n        /* \"#utility.yul\":3294:3358   */\n      tag_287\n        /* \"#utility.yul\":3350:3357   */\n      dup10\n        /* \"#utility.yul\":3341:3347   */\n      dup3\n        /* \"#utility.yul\":3330:3339   */\n      dup11\n        /* \"#utility.yul\":3326:3348   */\n      add\n        /* \"#utility.yul\":3294:3358   */\n      tag_252\n      jump\t// in\n    tag_287:\n        /* \"#utility.yul\":3276:3358   */\n      swap3\n      pop\n      swap3\n      pop\n        /* \"#utility.yul\":3070:3368   */\n      pop\n        /* \"#utility.yul\":2266:3375   */\n      swap3\n      swap6\n      pop\n      swap3\n      swap6\n      pop\n      swap3\n      swap6\n      jump\t// out\n        /* \"#utility.yul\":3381:4470   */\n    tag_68:\n        /* \"#utility.yul\":3485:3491   */\n      0x00\n        /* \"#utility.yul\":3493:3499   */\n      dup1\n        /* \"#utility.yul\":3501:3507   */\n      0x00\n        /* \"#utility.yul\":3509:3515   */\n      dup1\n        /* \"#utility.yul\":3517:3523   */\n      0x00\n        /* \"#utility.yul\":3566:3569   */\n      0xa0\n        /* \"#utility.yul\":3554:3563   */\n      dup7\n        /* \"#utility.yul\":3545:3552   */\n      dup9\n        /* \"#utility.yul\":3541:3564   */\n      sub\n        /* \"#utility.yul\":3537:3570   */\n      slt\n        /* \"#utility.yul\":3534:3654   */\n      iszero\n      tag_289\n      jumpi\n        /* \"#utility.yul\":3573:3652   */\n      tag_290\n      tag_275\n      jump\t// in\n    tag_290:\n        /* \"#utility.yul\":3534:3654   */\n    tag_289:\n        /* \"#utility.yul\":3693:3694   */\n      0x00\n        /* \"#utility.yul\":3718:3771   */\n      tag_291\n        /* \"#utility.yul\":3763:3770   */\n      dup9\n        /* \"#utility.yul\":3754:3760   */\n      dup3\n        /* \"#utility.yul\":3743:3752   */\n      dup10\n        /* \"#utility.yul\":3739:3761   */\n      add\n        /* \"#utility.yul\":3718:3771   */\n      tag_240\n      jump\t// in\n    tag_291:\n        /* \"#utility.yul\":3708:3771   */\n      swap6\n      pop\n        /* \"#utility.yul\":3664:3781   */\n      pop\n        /* \"#utility.yul\":3820:3822   */\n      0x20\n        /* \"#utility.yul\":3846:3899   */\n      tag_292\n        /* \"#utility.yul\":3891:3898   */\n      dup9\n        /* \"#utility.yul\":3882:3888   */\n      dup3\n        /* \"#utility.yul\":3871:3880   */\n      dup10\n        /* \"#utility.yul\":3867:3889   */\n      add\n        /* \"#utility.yul\":3846:3899   */\n      tag_240\n      jump\t// in\n    tag_292:\n        /* \"#utility.yul\":3836:3899   */\n      swap5\n      pop\n        /* \"#utility.yul\":3791:3909   */\n      pop\n        /* \"#utility.yul\":3948:3950   */\n      0x40\n        /* \"#utility.yul\":3974:4027   */\n      tag_293\n        /* \"#utility.yul\":4019:4026   */\n      dup9\n        /* \"#utility.yul\":4010:4016   */\n      dup3\n        /* \"#utility.yul\":3999:4008   */\n      dup10\n        /* \"#utility.yul\":3995:4017   */\n      add\n        /* \"#utility.yul\":3974:4027   */\n      tag_268\n      jump\t// in\n    tag_293:\n        /* \"#utility.yul\":3964:4027   */\n      swap4\n      pop\n        /* \"#utility.yul\":3919:4037   */\n      pop\n        /* \"#utility.yul\":4076:4078   */\n      0x60\n        /* \"#utility.yul\":4102:4155   */\n      tag_294\n        /* \"#utility.yul\":4147:4154   */\n      dup9\n        /* \"#utility.yul\":4138:4144   */\n      dup3\n        /* \"#utility.yul\":4127:4136   */\n      dup10\n        /* \"#utility.yul\":4123:4145   */\n      add\n        /* \"#utility.yul\":4102:4155   */\n      tag_268\n      jump\t// in\n    tag_294:\n        /* \"#utility.yul\":4092:4155   */\n      swap3\n      pop\n        /* \"#utility.yul\":4047:4165   */\n      pop\n        /* \"#utility.yul\":4232:4235   */\n      0x80\n        /* \"#utility.yul\":4221:4230   */\n      dup7\n        /* \"#utility.yul\":4217:4236   */\n      add\n        /* \"#utility.yul\":4204:4237   */\n      calldataload\n        /* \"#utility.yul\":4264:4282   */\n      0xffffffffffffffff\n        /* \"#utility.yul\":4256:4262   */\n      dup2\n        /* \"#utility.yul\":4253:4283   */\n      gt\n        /* \"#utility.yul\":4250:4367   */\n      iszero\n      tag_295\n      jumpi\n        /* \"#utility.yul\":4286:4365   */\n      tag_296\n      tag_286\n      jump\t// in\n    tag_296:\n        /* \"#utility.yul\":4250:4367   */\n    tag_295:\n        /* \"#utility.yul\":4391:4453   */\n      tag_297\n        /* \"#utility.yul\":4445:4452   */\n      dup9\n        /* \"#utility.yul\":4436:4442   */\n      dup3\n        /* \"#utility.yul\":4425:4434   */\n      dup10\n        /* \"#utility.yul\":4421:4443   */\n      add\n        /* \"#utility.yul\":4391:4453   */\n      tag_263\n      jump\t// in\n    tag_297:\n        /* \"#utility.yul\":4381:4453   */\n      swap2\n      pop\n        /* \"#utility.yul\":4175:4463   */\n      pop\n        /* \"#utility.yul\":3381:4470   */\n      swap3\n      swap6\n      pop\n      swap3\n      swap6\n      swap1\n      swap4\n      pop\n      jump\t// out\n        /* \"#utility.yul\":4476:4950   */\n    tag_16:\n        /* \"#utility.yul\":4544:4550   */\n      0x00\n        /* \"#utility.yul\":4552:4558   */\n      dup1\n        /* \"#utility.yul\":4601:4603   */\n      0x40\n        /* \"#utility.yul\":4589:4598   */\n      dup4\n        /* \"#utility.yul\":4580:4587   */\n      dup6\n        /* \"#utility.yul\":4576:4599   */\n      sub\n        /* \"#utility.yul\":4572:4604   */\n      slt\n        /* \"#utility.yul\":4569:4688   */\n      iszero\n      tag_299\n      jumpi\n        /* \"#utility.yul\":4607:4686   */\n      tag_300\n      tag_275\n      jump\t// in\n    tag_300:\n        /* \"#utility.yul\":4569:4688   */\n    tag_299:\n        /* \"#utility.yul\":4727:4728   */\n      0x00\n        /* \"#utility.yul\":4752:4805   */\n      tag_301\n        /* \"#utility.yul\":4797:4804   */\n      dup6\n        /* \"#utility.yul\":4788:4794   */\n      dup3\n        /* \"#utility.yul\":4777:4786   */\n      dup7\n        /* \"#utility.yul\":4773:4795   */\n      add\n        /* \"#utility.yul\":4752:4805   */\n      tag_240\n      jump\t// in\n    tag_301:\n        /* \"#utility.yul\":4742:4805   */\n      swap3\n      pop\n        /* \"#utility.yul\":4698:4815   */\n      pop\n        /* \"#utility.yul\":4854:4856   */\n      0x20\n        /* \"#utility.yul\":4880:4933   */\n      tag_302\n        /* \"#utility.yul\":4925:4932   */\n      dup6\n        /* \"#utility.yul\":4916:4922   */\n      dup3\n        /* \"#utility.yul\":4905:4914   */\n      dup7\n        /* \"#utility.yul\":4901:4923   */\n      add\n        /* \"#utility.yul\":4880:4933   */\n      tag_268\n      jump\t// in\n    tag_302:\n        /* \"#utility.yul\":4870:4933   */\n      swap2\n      pop\n        /* \"#utility.yul\":4825:4943   */\n      pop\n        /* \"#utility.yul\":4476:4950   */\n      swap3\n      pop\n      swap3\n      swap1\n      pop\n      jump\t// out\n        /* \"#utility.yul\":4956:5301   */\n    tag_114:\n        /* \"#utility.yul\":5023:5029   */\n      0x00\n        /* \"#utility.yul\":5072:5074   */\n      0x20\n        /* \"#utility.yul\":5060:5069   */\n      dup3\n        /* \"#utility.yul\":5051:5058   */\n      dup5\n        /* \"#utility.yul\":5047:5070   */\n      sub\n        /* \"#utility.yul\":5043:5075   */\n      slt\n        /* \"#utility.yul\":5040:5159   */\n      iszero\n      tag_304\n      jumpi\n        /* \"#utility.yul\":5078:5157   */\n      tag_305\n      tag_275\n      jump\t// in\n    tag_305:\n        /* \"#utility.yul\":5040:5159   */\n    tag_304:\n        /* \"#utility.yul\":5198:5199   */\n      0x00\n        /* \"#utility.yul\":5223:5284   */\n      tag_306\n        /* \"#utility.yul\":5276:5283   */\n      dup5\n        /* \"#utility.yul\":5267:5273   */\n      dup3\n        /* \"#utility.yul\":5256:5265   */\n      dup6\n        /* \"#utility.yul\":5252:5274   */\n      add\n        /* \"#utility.yul\":5223:5284   */\n      tag_244\n      jump\t// in\n    tag_306:\n        /* \"#utility.yul\":5213:5284   */\n      swap2\n      pop\n        /* \"#utility.yul\":5169:5294   */\n      pop\n        /* \"#utility.yul\":4956:5301   */\n      swap3\n      swap2\n      pop\n      pop\n      jump\t// out\n        /* \"#utility.yul\":5307:5656   */\n    tag_209:\n        /* \"#utility.yul\":5376:5382   */\n      0x00\n        /* \"#utility.yul\":5425:5427   */\n      0x20\n        /* \"#utility.yul\":5413:5422   */\n      dup3\n        /* \"#utility.yul\":5404:5411   */\n      dup5\n        /* \"#utility.yul\":5400:5423   */\n      sub\n        /* \"#utility.yul\":5396:5428   */\n      slt\n        /* \"#utility.yul\":5393:5512   */\n      iszero\n      tag_308\n      jumpi\n        /* \"#utility.yul\":5431:5510   */\n      tag_309\n      tag_275\n      jump\t// in\n    tag_309:\n        /* \"#utility.yul\":5393:5512   */\n    tag_308:\n        /* \"#utility.yul\":5551:5552   */\n      0x00\n        /* \"#utility.yul\":5576:5639   */\n      tag_310\n        /* \"#utility.yul\":5631:5638   */\n      dup5\n        /* \"#utility.yul\":5622:5628   */\n      dup3\n        /* \"#utility.yul\":5611:5620   */\n      dup6\n        /* \"#utility.yul\":5607:5629   */\n      add\n        /* \"#utility.yul\":5576:5639   */\n      tag_248\n      jump\t// in\n    tag_310:\n        /* \"#utility.yul\":5566:5639   */\n      swap2\n      pop\n        /* \"#utility.yul\":5522:5649   */\n      pop\n        /* \"#utility.yul\":5307:5656   */\n      swap3\n      swap2\n      pop\n      pop\n      jump\t// out\n        /* \"#utility.yul\":5662:5991   */\n    tag_27:\n        /* \"#utility.yul\":5721:5727   */\n      0x00\n        /* \"#utility.yul\":5770:5772   */\n      0x20\n        /* \"#utility.yul\":5758:5767   */\n      dup3\n        /* \"#utility.yul\":5749:5756   */\n      dup5\n        /* \"#utility.yul\":5745:5768   */\n      sub\n        /* \"#utility.yul\":5741:5773   */\n      slt\n        /* \"#utility.yul\":5738:5857   */\n      iszero\n      tag_312\n      jumpi\n        /* \"#utility.yul\":5776:5855   */\n      tag_313\n      tag_275\n      jump\t// in\n    tag_313:\n        /* \"#utility.yul\":5738:5857   */\n    tag_312:\n        /* \"#utility.yul\":5896:5897   */\n      0x00\n        /* \"#utility.yul\":5921:5974   */\n      tag_314\n        /* \"#utility.yul\":5966:5973   */\n      dup5\n        /* \"#utility.yul\":5957:5963   */\n      dup3\n        /* \"#utility.yul\":5946:5955   */\n      dup6\n        /* \"#utility.yul\":5942:5964   */\n      add\n        /* \"#utility.yul\":5921:5974   */\n      tag_268\n      jump\t// in\n    tag_314:\n        /* \"#utility.yul\":5911:5974   */\n      swap2\n      pop\n        /* \"#utility.yul\":5867:5984   */\n      pop\n        /* \"#utility.yul\":5662:5991   */\n      swap3\n      swap2\n      pop\n      pop\n      jump\t// out\n        /* \"#utility.yul\":5997:6471   */\n    tag_40:\n        /* \"#utility.yul\":6065:6071   */\n      0x00\n        /* \"#utility.yul\":6073:6079   */\n      dup1\n        /* \"#utility.yul\":6122:6124   */\n      0x40\n        /* \"#utility.yul\":6110:6119   */\n      dup4\n        /* \"#utility.yul\":6101:6108   */\n      dup6\n        /* \"#utility.yul\":6097:6120   */\n      sub\n        /* \"#utility.yul\":6093:6125   */\n      slt\n        /* \"#utility.yul\":6090:6209   */\n      iszero\n      tag_316\n      jumpi\n        /* \"#utility.yul\":6128:6207   */\n      tag_317\n      tag_275\n      jump\t// in\n    tag_317:\n        /* \"#utility.yul\":6090:6209   */\n    tag_316:\n        /* \"#utility.yul\":6248:6249   */\n      0x00\n        /* \"#utility.yul\":6273:6326   */\n      tag_318\n        /* \"#utility.yul\":6318:6325   */\n      dup6\n        /* \"#utility.yul\":6309:6315   */\n      dup3\n        /* \"#utility.yul\":6298:6307   */\n      dup7\n        /* \"#utility.yul\":6294:6316   */\n      add\n        /* \"#utility.yul\":6273:6326   */\n      tag_268\n      jump\t// in\n    tag_318:\n        /* \"#utility.yul\":6263:6326   */\n      swap3\n      pop\n        /* \"#utility.yul\":6219:6336   */\n      pop\n        /* \"#utility.yul\":6375:6377   */\n      0x20\n        /* \"#utility.yul\":6401:6454   */\n      tag_319\n        /* \"#utility.yul\":6446:6453   */\n      dup6\n        /* \"#utility.yul\":6437:6443   */\n      dup3\n        /* \"#utility.yul\":6426:6435   */\n      dup7\n        /* \"#utility.yul\":6422:6444   */\n      add\n        /* \"#utility.yul\":6401:6454   */\n      tag_268\n      jump\t// in\n    tag_319:\n        /* \"#utility.yul\":6391:6454   */\n      swap2\n      pop\n        /* \"#utility.yul\":6346:6464   */\n      pop\n        /* \"#utility.yul\":5997:6471   */\n      swap3\n      pop\n      swap3\n      swap1\n      pop\n      jump\t// out\n        /* \"#utility.yul\":6477:7242   */\n    tag_33:\n        /* \"#utility.yul\":6563:6569   */\n      0x00\n        /* \"#utility.yul\":6571:6577   */\n      dup1\n        /* \"#utility.yul\":6579:6585   */\n      0x00\n        /* \"#utility.yul\":6587:6593   */\n      dup1\n        /* \"#utility.yul\":6636:6639   */\n      0x80\n        /* \"#utility.yul\":6624:6633   */\n      dup6\n        /* \"#utility.yul\":6615:6622   */\n      dup8\n        /* \"#utility.yul\":6611:6634   */\n      sub\n        /* \"#utility.yul\":6607:6640   */\n      slt\n        /* \"#utility.yul\":6604:6724   */\n      iszero\n      tag_321\n      jumpi\n        /* \"#utility.yul\":6643:6722   */\n      tag_322\n      tag_275\n      jump\t// in\n    tag_322:\n        /* \"#utility.yul\":6604:6724   */\n    tag_321:\n        /* \"#utility.yul\":6763:6764   */\n      0x00\n        /* \"#utility.yul\":6788:6841   */\n      tag_323\n        /* \"#utility.yul\":6833:6840   */\n      dup8\n        /* \"#utility.yul\":6824:6830   */\n      dup3\n        /* \"#utility.yul\":6813:6822   */\n      dup9\n        /* \"#utility.yul\":6809:6831   */\n      add\n        /* \"#utility.yul\":6788:6841   */\n      tag_268\n      jump\t// in\n    tag_323:\n        /* \"#utility.yul\":6778:6841   */\n      swap5\n      pop\n        /* \"#utility.yul\":6734:6851   */\n      pop\n        /* \"#utility.yul\":6890:6892   */\n      0x20\n        /* \"#utility.yul\":6916:6969   */\n      tag_324\n        /* \"#utility.yul\":6961:6968   */\n      dup8\n        /* \"#utility.yul\":6952:6958   */\n      dup3\n        /* \"#utility.yul\":6941:6950   */\n      dup9\n        /* \"#utility.yul\":6937:6959   */\n      add\n        /* \"#utility.yul\":6916:6969   */\n      tag_268\n      jump\t// in\n    tag_324:\n        /* \"#utility.yul\":6906:6969   */\n      swap4\n      pop\n        /* \"#utility.yul\":6861:6979   */\n      pop\n        /* \"#utility.yul\":7018:7020   */\n      0x40\n        /* \"#utility.yul\":7044:7097   */\n      tag_325\n        /* \"#utility.yul\":7089:7096   */\n      dup8\n        /* \"#utility.yul\":7080:7086   */\n      dup3\n        /* \"#utility.yul\":7069:7078   */\n      dup9\n        /* \"#utility.yul\":7065:7087   */\n      add\n        /* \"#utility.yul\":7044:7097   */\n      tag_268\n      jump\t// in\n    tag_325:\n        /* \"#utility.yul\":7034:7097   */\n      swap3\n      pop\n        /* \"#utility.yul\":6989:7107   */\n      pop\n        /* \"#utility.yul\":7146:7148   */\n      0x60\n        /* \"#utility.yul\":7172:7225   */\n      tag_326\n        /* \"#utility.yul\":7217:7224   */\n      dup8\n        /* \"#utility.yul\":7208:7214   */\n      dup3\n        /* \"#utility.yul\":7197:7206   */\n      dup9\n        /* \"#utility.yul\":7193:7215   */\n      add\n        /* \"#utility.yul\":7172:7225   */\n      tag_240\n      jump\t// in\n    tag_326:\n        /* \"#utility.yul\":7162:7225   */\n      swap2\n      pop\n        /* \"#utility.yul\":7117:7235   */\n      pop\n        /* \"#utility.yul\":6477:7242   */\n      swap3\n      swap6\n      swap2\n      swap5\n      pop\n      swap3\n      pop\n      jump\t// out\n        /* \"#utility.yul\":7248:7427   */\n    tag_327:\n        /* \"#utility.yul\":7317:7327   */\n      0x00\n        /* \"#utility.yul\":7338:7384   */\n      tag_329\n        /* \"#utility.yul\":7380:7383   */\n      dup4\n        /* \"#utility.yul\":7372:7378   */\n      dup4\n        /* \"#utility.yul\":7338:7384   */\n      tag_330\n      jump\t// in\n    tag_329:\n        /* \"#utility.yul\":7416:7420   */\n      0x20\n        /* \"#utility.yul\":7411:7414   */\n      dup4\n        /* \"#utility.yul\":7407:7421   */\n      add\n        /* \"#utility.yul\":7393:7421   */\n      swap1\n      pop\n        /* \"#utility.yul\":7248:7427   */\n      swap3\n      swap2\n      pop\n      pop\n      jump\t// out\n        /* \"#utility.yul\":7433:7551   */\n    tag_331:\n        /* \"#utility.yul\":7520:7544   */\n      tag_333\n        /* \"#utility.yul\":7538:7543   */\n      dup2\n        /* \"#utility.yul\":7520:7544   */\n      tag_334\n      jump\t// in\n    tag_333:\n        /* \"#utility.yul\":7515:7518   */\n      dup3\n        /* \"#utility.yul\":7508:7545   */\n      mstore\n        /* \"#utility.yul\":7433:7551   */\n      pop\n      pop\n      jump\t// out\n        /* \"#utility.yul\":7587:8319   */\n    tag_335:\n        /* \"#utility.yul\":7706:7709   */\n      0x00\n        /* \"#utility.yul\":7735:7789   */\n      tag_337\n        /* \"#utility.yul\":7783:7788   */\n      dup3\n        /* \"#utility.yul\":7735:7789   */\n      tag_338\n      jump\t// in\n    tag_337:\n        /* \"#utility.yul\":7805:7891   */\n      tag_339\n        /* \"#utility.yul\":7884:7890   */\n      dup2\n        /* \"#utility.yul\":7879:7882   */\n      dup6\n        /* \"#utility.yul\":7805:7891   */\n      tag_340\n      jump\t// in\n    tag_339:\n        /* \"#utility.yul\":7798:7891   */\n      swap4\n      pop\n        /* \"#utility.yul\":7915:7971   */\n      tag_341\n        /* \"#utility.yul\":7965:7970   */\n      dup4\n        /* \"#utility.yul\":7915:7971   */\n      tag_342\n      jump\t// in\n    tag_341:\n        /* \"#utility.yul\":7994:8001   */\n      dup1\n        /* \"#utility.yul\":8025:8026   */\n      0x00\n        /* \"#utility.yul\":8010:8294   */\n    tag_343:\n        /* \"#utility.yul\":8035:8041   */\n      dup4\n        /* \"#utility.yul\":8032:8033   */\n      dup2\n        /* \"#utility.yul\":8029:8042   */\n      lt\n        /* \"#utility.yul\":8010:8294   */\n      iszero\n      tag_345\n      jumpi\n        /* \"#utility.yul\":8111:8117   */\n      dup2\n        /* \"#utility.yul\":8105:8118   */\n      mload\n        /* \"#utility.yul\":8138:8201   */\n      tag_346\n        /* \"#utility.yul\":8197:8200   */\n      dup9\n        /* \"#utility.yul\":8182:8195   */\n      dup3\n        /* \"#utility.yul\":8138:8201   */\n      tag_327\n      jump\t// in\n    tag_346:\n        /* \"#utility.yul\":8131:8201   */\n      swap8\n      pop\n        /* \"#utility.yul\":8224:8284   */\n      tag_347\n        /* \"#utility.yul\":8277:8283   */\n      dup4\n        /* \"#utility.yul\":8224:8284   */\n      tag_348\n      jump\t// in\n    tag_347:\n        /* \"#utility.yul\":8214:8284   */\n      swap3\n      pop\n        /* \"#utility.yul\":8070:8294   */\n      pop\n        /* \"#utility.yul\":8057:8058   */\n      0x01\n        /* \"#utility.yul\":8054:8055   */\n      dup2\n        /* \"#utility.yul\":8050:8059   */\n      add\n        /* \"#utility.yul\":8045:8059   */\n      swap1\n      pop\n        /* \"#utility.yul\":8010:8294   */\n      jump(tag_343)\n    tag_345:\n        /* \"#utility.yul\":8014:8028   */\n      pop\n        /* \"#utility.yul\":8310:8313   */\n      dup6\n        /* \"#utility.yul\":8303:8313   */\n      swap4\n      pop\n        /* \"#utility.yul\":7711:8319   */\n      pop\n      pop\n      pop\n        /* \"#utility.yul\":7587:8319   */\n      swap3\n      swap2\n      pop\n      pop\n      jump\t// out\n        /* \"#utility.yul\":8325:8434   */\n    tag_349:\n        /* \"#utility.yul\":8406:8427   */\n      tag_351\n        /* \"#utility.yul\":8421:8426   */\n      dup2\n        /* \"#utility.yul\":8406:8427   */\n      tag_352\n      jump\t// in\n    tag_351:\n        /* \"#utility.yul\":8401:8404   */\n      dup3\n        /* \"#utility.yul\":8394:8428   */\n      mstore\n        /* \"#utility.yul\":8325:8434   */\n      pop\n      pop\n      jump\t// out\n        /* \"#utility.yul\":8440:8555   */\n    tag_353:\n        /* \"#utility.yul\":8525:8548   */\n      tag_355\n        /* \"#utility.yul\":8542:8547   */\n      dup2\n        /* \"#utility.yul\":8525:8548   */\n      tag_356\n      jump\t// in\n    tag_355:\n        /* \"#utility.yul\":8520:8523   */\n      dup3\n        /* \"#utility.yul\":8513:8549   */\n      mstore\n        /* \"#utility.yul\":8440:8555   */\n      pop\n      pop\n      jump\t// out\n        /* \"#utility.yul\":8583:8884   */\n    tag_357:\n        /* \"#utility.yul\":8679:8682   */\n      0x00\n        /* \"#utility.yul\":8700:8770   */\n      tag_359\n        /* \"#utility.yul\":8763:8769   */\n      dup4\n        /* \"#utility.yul\":8758:8761   */\n      dup6\n        /* \"#utility.yul\":8700:8770   */\n      tag_360\n      jump\t// in\n    tag_359:\n        /* \"#utility.yul\":8693:8770   */\n      swap4\n      pop\n        /* \"#utility.yul\":8780:8823   */\n      tag_361\n        /* \"#utility.yul\":8816:8822   */\n      dup4\n        /* \"#utility.yul\":8811:8814   */\n      dup6\n        /* \"#utility.yul\":8804:8809   */\n      dup5\n        /* \"#utility.yul\":8780:8823   */\n      tag_239\n      jump\t// in\n    tag_361:\n        /* \"#utility.yul\":8848:8877   */\n      tag_362\n        /* \"#utility.yul\":8870:8876   */\n      dup4\n        /* \"#utility.yul\":8848:8877   */\n      tag_363\n      jump\t// in\n    tag_362:\n        /* \"#utility.yul\":8843:8846   */\n      dup5\n        /* \"#utility.yul\":8839:8878   */\n      add\n        /* \"#utility.yul\":8832:8878   */\n      swap1\n      pop\n        /* \"#utility.yul\":8583:8884   */\n      swap4\n      swap3\n      pop\n      pop\n      pop\n      jump\t// out\n        /* \"#utility.yul\":8890:9250   */\n    tag_364:\n        /* \"#utility.yul\":8976:8979   */\n      0x00\n        /* \"#utility.yul\":9004:9042   */\n      tag_366\n        /* \"#utility.yul\":9036:9041   */\n      dup3\n        /* \"#utility.yul\":9004:9042   */\n      tag_367\n      jump\t// in\n    tag_366:\n        /* \"#utility.yul\":9058:9128   */\n      tag_368\n        /* \"#utility.yul\":9121:9127   */\n      dup2\n        /* \"#utility.yul\":9116:9119   */\n      dup6\n        /* \"#utility.yul\":9058:9128   */\n      tag_360\n      jump\t// in\n    tag_368:\n        /* \"#utility.yul\":9051:9128   */\n      swap4\n      pop\n        /* \"#utility.yul\":9137:9189   */\n      tag_369\n        /* \"#utility.yul\":9182:9188   */\n      dup2\n        /* \"#utility.yul\":9177:9180   */\n      dup6\n        /* \"#utility.yul\":9170:9174   */\n      0x20\n        /* \"#utility.yul\":9163:9168   */\n      dup7\n        /* \"#utility.yul\":9159:9175   */\n      add\n        /* \"#utility.yul\":9137:9189   */\n      tag_370\n      jump\t// in\n    tag_369:\n        /* \"#utility.yul\":9214:9243   */\n      tag_371\n        /* \"#utility.yul\":9236:9242   */\n      dup2\n        /* \"#utility.yul\":9214:9243   */\n      tag_363\n      jump\t// in\n    tag_371:\n        /* \"#utility.yul\":9209:9212   */\n      dup5\n        /* \"#utility.yul\":9205:9244   */\n      add\n        /* \"#utility.yul\":9198:9244   */\n      swap2\n      pop\n        /* \"#utility.yul\":8980:9250   */\n      pop\n        /* \"#utility.yul\":8890:9250   */\n      swap3\n      swap2\n      pop\n      pop\n      jump\t// out\n        /* \"#utility.yul\":9256:9620   */\n    tag_372:\n        /* \"#utility.yul\":9344:9347   */\n      0x00\n        /* \"#utility.yul\":9372:9411   */\n      tag_374\n        /* \"#utility.yul\":9405:9410   */\n      dup3\n        /* \"#utility.yul\":9372:9411   */\n      tag_375\n      jump\t// in\n    tag_374:\n        /* \"#utility.yul\":9427:9498   */\n      tag_376\n        /* \"#utility.yul\":9491:9497   */\n      dup2\n        /* \"#utility.yul\":9486:9489   */\n      dup6\n        /* \"#utility.yul\":9427:9498   */\n      tag_377\n      jump\t// in\n    tag_376:\n        /* \"#utility.yul\":9420:9498   */\n      swap4\n      pop\n        /* \"#utility.yul\":9507:9559   */\n      tag_378\n        /* \"#utility.yul\":9552:9558   */\n      dup2\n        /* \"#utility.yul\":9547:9550   */\n      dup6\n        /* \"#utility.yul\":9540:9544   */\n      0x20\n        /* \"#utility.yul\":9533:9538   */\n      dup7\n        /* \"#utility.yul\":9529:9545   */\n      add\n        /* \"#utility.yul\":9507:9559   */\n      tag_370\n      jump\t// in\n    tag_378:\n        /* \"#utility.yul\":9584:9613   */\n      tag_379\n        /* \"#utility.yul\":9606:9612   */\n      dup2\n        /* \"#utility.yul\":9584:9613   */\n      tag_363\n      jump\t// in\n    tag_379:\n        /* \"#utility.yul\":9579:9582   */\n      dup5\n        /* \"#utility.yul\":9575:9614   */\n      add\n        /* \"#utility.yul\":9568:9614   */\n      swap2\n      pop\n        /* \"#utility.yul\":9348:9620   */\n      pop\n        /* \"#utility.yul\":9256:9620   */\n      swap3\n      swap2\n      pop\n      pop\n      jump\t// out\n        /* \"#utility.yul\":9626:9992   */\n    tag_380:\n        /* \"#utility.yul\":9768:9771   */\n      0x00\n        /* \"#utility.yul\":9789:9856   */\n      tag_382\n        /* \"#utility.yul\":9853:9855   */\n      0x34\n        /* \"#utility.yul\":9848:9851   */\n      dup4\n        /* \"#utility.yul\":9789:9856   */\n      tag_377\n      jump\t// in\n    tag_382:\n        /* \"#utility.yul\":9782:9856   */\n      swap2\n      pop\n        /* \"#utility.yul\":9865:9958   */\n      tag_383\n        /* \"#utility.yul\":9954:9957   */\n      dup3\n        /* \"#utility.yul\":9865:9958   */\n      tag_384\n      jump\t// in\n    tag_383:\n        /* \"#utility.yul\":9983:9985   */\n      0x40\n        /* \"#utility.yul\":9978:9981   */\n      dup3\n        /* \"#utility.yul\":9974:9986   */\n      add\n        /* \"#utility.yul\":9967:9986   */\n      swap1\n      pop\n        /* \"#utility.yul\":9626:9992   */\n      swap2\n      swap1\n      pop\n      jump\t// out\n        /* \"#utility.yul\":9998:10364   */\n    tag_385:\n        /* \"#utility.yul\":10140:10143   */\n      0x00\n        /* \"#utility.yul\":10161:10228   */\n      tag_387\n        /* \"#utility.yul\":10225:10227   */\n      0x2f\n        /* \"#utility.yul\":10220:10223   */\n      dup4\n        /* \"#utility.yul\":10161:10228   */\n      tag_377\n      jump\t// in\n    tag_387:\n        /* \"#utility.yul\":10154:10228   */\n      swap2\n      pop\n        /* \"#utility.yul\":10237:10330   */\n      tag_388\n        /* \"#utility.yul\":10326:10329   */\n      dup3\n        /* \"#utility.yul\":10237:10330   */\n      tag_389\n      jump\t// in\n    tag_388:\n        /* \"#utility.yul\":10355:10357   */\n      0x40\n        /* \"#utility.yul\":10350:10353   */\n      dup3\n        /* \"#utility.yul\":10346:10358   */\n      add\n        /* \"#utility.yul\":10339:10358   */\n      swap1\n      pop\n        /* \"#utility.yul\":9998:10364   */\n      swap2\n      swap1\n      pop\n      jump\t// out\n        /* \"#utility.yul\":10370:10736   */\n    tag_390:\n        /* \"#utility.yul\":10512:10515   */\n      0x00\n        /* \"#utility.yul\":10533:10600   */\n      tag_392\n        /* \"#utility.yul\":10597:10599   */\n      0x28\n        /* \"#utility.yul\":10592:10595   */\n      dup4\n        /* \"#utility.yul\":10533:10600   */\n      tag_377\n      jump\t// in\n    tag_392:\n        /* \"#utility.yul\":10526:10600   */\n      swap2\n      pop\n        /* \"#utility.yul\":10609:10702   */\n      tag_393\n        /* \"#utility.yul\":10698:10701   */\n      dup3\n        /* \"#utility.yul\":10609:10702   */\n      tag_394\n      jump\t// in\n    tag_393:\n        /* \"#utility.yul\":10727:10729   */\n      0x40\n        /* \"#utility.yul\":10722:10725   */\n      dup3\n        /* \"#utility.yul\":10718:10730   */\n      add\n        /* \"#utility.yul\":10711:10730   */\n      swap1\n      pop\n        /* \"#utility.yul\":10370:10736   */\n      swap2\n      swap1\n      pop\n      jump\t// out\n        /* \"#utility.yul\":10742:11108   */\n    tag_395:\n        /* \"#utility.yul\":10884:10887   */\n      0x00\n        /* \"#utility.yul\":10905:10972   */\n      tag_397\n        /* \"#utility.yul\":10969:10971   */\n      0x2a\n        /* \"#utility.yul\":10964:10967   */\n      dup4\n        /* \"#utility.yul\":10905:10972   */\n      tag_377\n      jump\t// in\n    tag_397:\n        /* \"#utility.yul\":10898:10972   */\n      swap2\n      pop\n        /* \"#utility.yul\":10981:11074   */\n      tag_398\n        /* \"#utility.yul\":11070:11073   */\n      dup3\n        /* \"#utility.yul\":10981:11074   */\n      tag_399\n      jump\t// in\n    tag_398:\n        /* \"#utility.yul\":11099:11101   */\n      0x40\n        /* \"#utility.yul\":11094:11097   */\n      dup3\n        /* \"#utility.yul\":11090:11102   */\n      add\n        /* \"#utility.yul\":11083:11102   */\n      swap1\n      pop\n        /* \"#utility.yul\":10742:11108   */\n      swap2\n      swap1\n      pop\n      jump\t// out\n        /* \"#utility.yul\":11114:11480   */\n    tag_400:\n        /* \"#utility.yul\":11256:11259   */\n      0x00\n        /* \"#utility.yul\":11277:11344   */\n      tag_402\n        /* \"#utility.yul\":11341:11343   */\n      0x26\n        /* \"#utility.yul\":11336:11339   */\n      dup4\n        /* \"#utility.yul\":11277:11344   */\n      tag_377\n      jump\t// in\n    tag_402:\n        /* \"#utility.yul\":11270:11344   */\n      swap2\n      pop\n        /* \"#utility.yul\":11353:11446   */\n      tag_403\n        /* \"#utility.yul\":11442:11445   */\n      dup3\n        /* \"#utility.yul\":11353:11446   */\n      tag_404\n      jump\t// in\n    tag_403:\n        /* \"#utility.yul\":11471:11473   */\n      0x40\n        /* \"#utility.yul\":11466:11469   */\n      dup3\n        /* \"#utility.yul\":11462:11474   */\n      add\n        /* \"#utility.yul\":11455:11474   */\n      swap1\n      pop\n        /* \"#utility.yul\":11114:11480   */\n      swap2\n      swap1\n      pop\n      jump\t// out\n        /* \"#utility.yul\":11486:11852   */\n    tag_405:\n        /* \"#utility.yul\":11628:11631   */\n      0x00\n        /* \"#utility.yul\":11649:11716   */\n      tag_407\n        /* \"#utility.yul\":11713:11715   */\n      0x25\n        /* \"#utility.yul\":11708:11711   */\n      dup4\n        /* \"#utility.yul\":11649:11716   */\n      tag_377\n      jump\t// in\n    tag_407:\n        /* \"#utility.yul\":11642:11716   */\n      swap2\n      pop\n        /* \"#utility.yul\":11725:11818   */\n      tag_408\n        /* \"#utility.yul\":11814:11817   */\n      dup3\n        /* \"#utility.yul\":11725:11818   */\n      tag_409\n      jump\t// in\n    tag_408:\n        /* \"#utility.yul\":11843:11845   */\n      0x40\n        /* \"#utility.yul\":11838:11841   */\n      dup3\n        /* \"#utility.yul\":11834:11846   */\n      add\n        /* \"#utility.yul\":11827:11846   */\n      swap1\n      pop\n        /* \"#utility.yul\":11486:11852   */\n      swap2\n      swap1\n      pop\n      jump\t// out\n        /* \"#utility.yul\":11858:12224   */\n    tag_410:\n        /* \"#utility.yul\":12000:12003   */\n      0x00\n        /* \"#utility.yul\":12021:12088   */\n      tag_412\n        /* \"#utility.yul\":12085:12087   */\n      0x2a\n        /* \"#utility.yul\":12080:12083   */\n      dup4\n        /* \"#utility.yul\":12021:12088   */\n      tag_377\n      jump\t// in\n    tag_412:\n        /* \"#utility.yul\":12014:12088   */\n      swap2\n      pop\n        /* \"#utility.yul\":12097:12190   */\n      tag_413\n        /* \"#utility.yul\":12186:12189   */\n      dup3\n        /* \"#utility.yul\":12097:12190   */\n      tag_414\n      jump\t// in\n    tag_413:\n        /* \"#utility.yul\":12215:12217   */\n      0x40\n        /* \"#utility.yul\":12210:12213   */\n      dup3\n        /* \"#utility.yul\":12206:12218   */\n      add\n        /* \"#utility.yul\":12199:12218   */\n      swap1\n      pop\n        /* \"#utility.yul\":11858:12224   */\n      swap2\n      swap1\n      pop\n      jump\t// out\n        /* \"#utility.yul\":12230:12596   */\n    tag_415:\n        /* \"#utility.yul\":12372:12375   */\n      0x00\n        /* \"#utility.yul\":12393:12460   */\n      tag_417\n        /* \"#utility.yul\":12457:12459   */\n      0x21\n        /* \"#utility.yul\":12452:12455   */\n      dup4\n        /* \"#utility.yul\":12393:12460   */\n      tag_377\n      jump\t// in\n    tag_417:\n        /* \"#utility.yul\":12386:12460   */\n      swap2\n      pop\n        /* \"#utility.yul\":12469:12562   */\n      tag_418\n        /* \"#utility.yul\":12558:12561   */\n      dup3\n        /* \"#utility.yul\":12469:12562   */\n      tag_419\n      jump\t// in\n    tag_418:\n        /* \"#utility.yul\":12587:12589   */\n      0x40\n        /* \"#utility.yul\":12582:12585   */\n      dup3\n        /* \"#utility.yul\":12578:12590   */\n      add\n        /* \"#utility.yul\":12571:12590   */\n      swap1\n      pop\n        /* \"#utility.yul\":12230:12596   */\n      swap2\n      swap1\n      pop\n      jump\t// out\n        /* \"#utility.yul\":12602:12710   */\n    tag_330:\n        /* \"#utility.yul\":12679:12703   */\n      tag_421\n        /* \"#utility.yul\":12697:12702   */\n      dup2\n        /* \"#utility.yul\":12679:12703   */\n      tag_422\n      jump\t// in\n    tag_421:\n        /* \"#utility.yul\":12674:12677   */\n      dup3\n        /* \"#utility.yul\":12667:12704   */\n      mstore\n        /* \"#utility.yul\":12602:12710   */\n      pop\n      pop\n      jump\t// out\n        /* \"#utility.yul\":12716:12834   */\n    tag_423:\n        /* \"#utility.yul\":12803:12827   */\n      tag_425\n        /* \"#utility.yul\":12821:12826   */\n      dup2\n        /* \"#utility.yul\":12803:12827   */\n      tag_422\n      jump\t// in\n    tag_425:\n        /* \"#utility.yul\":12798:12801   */\n      dup3\n        /* \"#utility.yul\":12791:12828   */\n      mstore\n        /* \"#utility.yul\":12716:12834   */\n      pop\n      pop\n      jump\t// out\n        /* \"#utility.yul\":12840:13062   */\n    tag_48:\n        /* \"#utility.yul\":12933:12937   */\n      0x00\n        /* \"#utility.yul\":12971:12973   */\n      0x20\n        /* \"#utility.yul\":12960:12969   */\n      dup3\n        /* \"#utility.yul\":12956:12974   */\n      add\n        /* \"#utility.yul\":12948:12974   */\n      swap1\n      pop\n        /* \"#utility.yul\":12984:13055   */\n      tag_427\n        /* \"#utility.yul\":13052:13053   */\n      0x00\n        /* \"#utility.yul\":13041:13050   */\n      dup4\n        /* \"#utility.yul\":13037:13054   */\n      add\n        /* \"#utility.yul\":13028:13034   */\n      dup5\n        /* \"#utility.yul\":12984:13055   */\n      tag_331\n      jump\t// in\n    tag_427:\n        /* \"#utility.yul\":12840:13062   */\n      swap3\n      swap2\n      pop\n      pop\n      jump\t// out\n        /* \"#utility.yul\":13068:13510   */\n    tag_109:\n        /* \"#utility.yul\":13217:13221   */\n      0x00\n        /* \"#utility.yul\":13255:13257   */\n      0x60\n        /* \"#utility.yul\":13244:13253   */\n      dup3\n        /* \"#utility.yul\":13240:13258   */\n      add\n        /* \"#utility.yul\":13232:13258   */\n      swap1\n      pop\n        /* \"#utility.yul\":13268:13339   */\n      tag_429\n        /* \"#utility.yul\":13336:13337   */\n      0x00\n        /* \"#utility.yul\":13325:13334   */\n      dup4\n        /* \"#utility.yul\":13321:13338   */\n      add\n        /* \"#utility.yul\":13312:13318   */\n      dup7\n        /* \"#utility.yul\":13268:13339   */\n      tag_331\n      jump\t// in\n    tag_429:\n        /* \"#utility.yul\":13349:13421   */\n      tag_430\n        /* \"#utility.yul\":13417:13419   */\n      0x20\n        /* \"#utility.yul\":13406:13415   */\n      dup4\n        /* \"#utility.yul\":13402:13420   */\n      add\n        /* \"#utility.yul\":13393:13399   */\n      dup6\n        /* \"#utility.yul\":13349:13421   */\n      tag_331\n      jump\t// in\n    tag_430:\n        /* \"#utility.yul\":13431:13503   */\n      tag_431\n        /* \"#utility.yul\":13499:13501   */\n      0x40\n        /* \"#utility.yul\":13488:13497   */\n      dup4\n        /* \"#utility.yul\":13484:13502   */\n      add\n        /* \"#utility.yul\":13475:13481   */\n      dup5\n        /* \"#utility.yul\":13431:13503   */\n      tag_423\n      jump\t// in\n    tag_431:\n        /* \"#utility.yul\":13068:13510   */\n      swap5\n      swap4\n      pop\n      pop\n      pop\n      pop\n      jump\t// out\n        /* \"#utility.yul\":13516:14398   */\n    tag_146:\n        /* \"#utility.yul\":13777:13781   */\n      0x00\n        /* \"#utility.yul\":13815:13818   */\n      0xc0\n        /* \"#utility.yul\":13804:13813   */\n      dup3\n        /* \"#utility.yul\":13800:13819   */\n      add\n        /* \"#utility.yul\":13792:13819   */\n      swap1\n      pop\n        /* \"#utility.yul\":13829:13900   */\n      tag_433\n        /* \"#utility.yul\":13897:13898   */\n      0x00\n        /* \"#utility.yul\":13886:13895   */\n      dup4\n        /* \"#utility.yul\":13882:13899   */\n      add\n        /* \"#utility.yul\":13873:13879   */\n      dup11\n        /* \"#utility.yul\":13829:13900   */\n      tag_331\n      jump\t// in\n    tag_433:\n        /* \"#utility.yul\":13910:13982   */\n      tag_434\n        /* \"#utility.yul\":13978:13980   */\n      0x20\n        /* \"#utility.yul\":13967:13976   */\n      dup4\n        /* \"#utility.yul\":13963:13981   */\n      add\n        /* \"#utility.yul\":13954:13960   */\n      dup10\n        /* \"#utility.yul\":13910:13982   */\n      tag_331\n      jump\t// in\n    tag_434:\n        /* \"#utility.yul\":13992:14064   */\n      tag_435\n        /* \"#utility.yul\":14060:14062   */\n      0x40\n        /* \"#utility.yul\":14049:14058   */\n      dup4\n        /* \"#utility.yul\":14045:14063   */\n      add\n        /* \"#utility.yul\":14036:14042   */\n      dup9\n        /* \"#utility.yul\":13992:14064   */\n      tag_423\n      jump\t// in\n    tag_435:\n        /* \"#utility.yul\":14074:14146   */\n      tag_436\n        /* \"#utility.yul\":14142:14144   */\n      0x60\n        /* \"#utility.yul\":14131:14140   */\n      dup4\n        /* \"#utility.yul\":14127:14145   */\n      add\n        /* \"#utility.yul\":14118:14124   */\n      dup8\n        /* \"#utility.yul\":14074:14146   */\n      tag_423\n      jump\t// in\n    tag_436:\n        /* \"#utility.yul\":14194:14203   */\n      dup2\n        /* \"#utility.yul\":14188:14192   */\n      dup2\n        /* \"#utility.yul\":14184:14204   */\n      sub\n        /* \"#utility.yul\":14178:14181   */\n      0x80\n        /* \"#utility.yul\":14167:14176   */\n      dup4\n        /* \"#utility.yul\":14163:14182   */\n      add\n        /* \"#utility.yul\":14156:14205   */\n      mstore\n        /* \"#utility.yul\":14222:14308   */\n      tag_437\n        /* \"#utility.yul\":14303:14307   */\n      dup2\n        /* \"#utility.yul\":14294:14300   */\n      dup6\n        /* \"#utility.yul\":14286:14292   */\n      dup8\n        /* \"#utility.yul\":14222:14308   */\n      tag_357\n      jump\t// in\n    tag_437:\n        /* \"#utility.yul\":14214:14308   */\n      swap1\n      pop\n        /* \"#utility.yul\":14318:14391   */\n      tag_438\n        /* \"#utility.yul\":14386:14389   */\n      0xa0\n        /* \"#utility.yul\":14375:14384   */\n      dup4\n        /* \"#utility.yul\":14371:14390   */\n      add\n        /* \"#utility.yul\":14362:14368   */\n      dup5\n        /* \"#utility.yul\":14318:14391   */\n      tag_423\n      jump\t// in\n    tag_438:\n        /* \"#utility.yul\":13516:14398   */\n      swap9\n      swap8\n      pop\n      pop\n      pop\n      pop\n      pop\n      pop\n      pop\n      pop\n      jump\t// out\n        /* \"#utility.yul\":14404:15155   */\n    tag_205:\n        /* \"#utility.yul\":14627:14631   */\n      0x00\n        /* \"#utility.yul\":14665:14668   */\n      0xa0\n        /* \"#utility.yul\":14654:14663   */\n      dup3\n        /* \"#utility.yul\":14650:14669   */\n      add\n        /* \"#utility.yul\":14642:14669   */\n      swap1\n      pop\n        /* \"#utility.yul\":14679:14750   */\n      tag_440\n        /* \"#utility.yul\":14747:14748   */\n      0x00\n        /* \"#utility.yul\":14736:14745   */\n      dup4\n        /* \"#utility.yul\":14732:14749   */\n      add\n        /* \"#utility.yul\":14723:14729   */\n      dup9\n        /* \"#utility.yul\":14679:14750   */\n      tag_331\n      jump\t// in\n    tag_440:\n        /* \"#utility.yul\":14760:14832   */\n      tag_441\n        /* \"#utility.yul\":14828:14830   */\n      0x20\n        /* \"#utility.yul\":14817:14826   */\n      dup4\n        /* \"#utility.yul\":14813:14831   */\n      add\n        /* \"#utility.yul\":14804:14810   */\n      dup8\n        /* \"#utility.yul\":14760:14832   */\n      tag_331\n      jump\t// in\n    tag_441:\n        /* \"#utility.yul\":14842:14914   */\n      tag_442\n        /* \"#utility.yul\":14910:14912   */\n      0x40\n        /* \"#utility.yul\":14899:14908   */\n      dup4\n        /* \"#utility.yul\":14895:14913   */\n      add\n        /* \"#utility.yul\":14886:14892   */\n      dup7\n        /* \"#utility.yul\":14842:14914   */\n      tag_423\n      jump\t// in\n    tag_442:\n        /* \"#utility.yul\":14924:14996   */\n      tag_443\n        /* \"#utility.yul\":14992:14994   */\n      0x60\n        /* \"#utility.yul\":14981:14990   */\n      dup4\n        /* \"#utility.yul\":14977:14995   */\n      add\n        /* \"#utility.yul\":14968:14974   */\n      dup6\n        /* \"#utility.yul\":14924:14996   */\n      tag_423\n      jump\t// in\n    tag_443:\n        /* \"#utility.yul\":15044:15053   */\n      dup2\n        /* \"#utility.yul\":15038:15042   */\n      dup2\n        /* \"#utility.yul\":15034:15054   */\n      sub\n        /* \"#utility.yul\":15028:15031   */\n      0x80\n        /* \"#utility.yul\":15017:15026   */\n      dup4\n        /* \"#utility.yul\":15013:15032   */\n      add\n        /* \"#utility.yul\":15006:15055   */\n      mstore\n        /* \"#utility.yul\":15072:15148   */\n      tag_444\n        /* \"#utility.yul\":15143:15147   */\n      dup2\n        /* \"#utility.yul\":15134:15140   */\n      dup5\n        /* \"#utility.yul\":15072:15148   */\n      tag_364\n      jump\t// in\n    tag_444:\n        /* \"#utility.yul\":15064:15148   */\n      swap1\n      pop\n        /* \"#utility.yul\":14404:15155   */\n      swap7\n      swap6\n      pop\n      pop\n      pop\n      pop\n      pop\n      pop\n      jump\t// out\n        /* \"#utility.yul\":15161:15534   */\n    tag_57:\n        /* \"#utility.yul\":15304:15308   */\n      0x00\n        /* \"#utility.yul\":15342:15344   */\n      0x20\n        /* \"#utility.yul\":15331:15340   */\n      dup3\n        /* \"#utility.yul\":15327:15345   */\n      add\n        /* \"#utility.yul\":15319:15345   */\n      swap1\n      pop\n        /* \"#utility.yul\":15391:15400   */\n      dup2\n        /* \"#utility.yul\":15385:15389   */\n      dup2\n        /* \"#utility.yul\":15381:15401   */\n      sub\n        /* \"#utility.yul\":15377:15378   */\n      0x00\n        /* \"#utility.yul\":15366:15375   */\n      dup4\n        /* \"#utility.yul\":15362:15379   */\n      add\n        /* \"#utility.yul\":15355:15402   */\n      mstore\n        /* \"#utility.yul\":15419:15527   */\n      tag_446\n        /* \"#utility.yul\":15522:15526   */\n      dup2\n        /* \"#utility.yul\":15513:15519   */\n      dup5\n        /* \"#utility.yul\":15419:15527   */\n      tag_335\n      jump\t// in\n    tag_446:\n        /* \"#utility.yul\":15411:15527   */\n      swap1\n      pop\n        /* \"#utility.yul\":15161:15534   */\n      swap3\n      swap2\n      pop\n      pop\n      jump\t// out\n        /* \"#utility.yul\":15540:16174   */\n    tag_30:\n        /* \"#utility.yul\":15761:15765   */\n      0x00\n        /* \"#utility.yul\":15799:15801   */\n      0x40\n        /* \"#utility.yul\":15788:15797   */\n      dup3\n        /* \"#utility.yul\":15784:15802   */\n      add\n        /* \"#utility.yul\":15776:15802   */\n      swap1\n      pop\n        /* \"#utility.yul\":15848:15857   */\n      dup2\n        /* \"#utility.yul\":15842:15846   */\n      dup2\n        /* \"#utility.yul\":15838:15858   */\n      sub\n        /* \"#utility.yul\":15834:15835   */\n      0x00\n        /* \"#utility.yul\":15823:15832   */\n      dup4\n        /* \"#utility.yul\":15819:15836   */\n      add\n        /* \"#utility.yul\":15812:15859   */\n      mstore\n        /* \"#utility.yul\":15876:15984   */\n      tag_448\n        /* \"#utility.yul\":15979:15983   */\n      dup2\n        /* \"#utility.yul\":15970:15976   */\n      dup6\n        /* \"#utility.yul\":15876:15984   */\n      tag_335\n      jump\t// in\n    tag_448:\n        /* \"#utility.yul\":15868:15984   */\n      swap1\n      pop\n        /* \"#utility.yul\":16031:16040   */\n      dup2\n        /* \"#utility.yul\":16025:16029   */\n      dup2\n        /* \"#utility.yul\":16021:16041   */\n      sub\n        /* \"#utility.yul\":16016:16018   */\n      0x20\n        /* \"#utility.yul\":16005:16014   */\n      dup4\n        /* \"#utility.yul\":16001:16019   */\n      add\n        /* \"#utility.yul\":15994:16042   */\n      mstore\n        /* \"#utility.yul\":16059:16167   */\n      tag_449\n        /* \"#utility.yul\":16162:16166   */\n      dup2\n        /* \"#utility.yul\":16153:16159   */\n      dup5\n        /* \"#utility.yul\":16059:16167   */\n      tag_335\n      jump\t// in\n    tag_449:\n        /* \"#utility.yul\":16051:16167   */\n      swap1\n      pop\n        /* \"#utility.yul\":15540:16174   */\n      swap4\n      swap3\n      pop\n      pop\n      pop\n      jump\t// out\n        /* \"#utility.yul\":16180:16390   */\n    tag_36:\n        /* \"#utility.yul\":16267:16271   */\n      0x00\n        /* \"#utility.yul\":16305:16307   */\n      0x20\n        /* \"#utility.yul\":16294:16303   */\n      dup3\n        /* \"#utility.yul\":16290:16308   */\n      add\n        /* \"#utility.yul\":16282:16308   */\n      swap1\n      pop\n        /* \"#utility.yul\":16318:16383   */\n      tag_451\n        /* \"#utility.yul\":16380:16381   */\n      0x00\n        /* \"#utility.yul\":16369:16378   */\n      dup4\n        /* \"#utility.yul\":16365:16382   */\n      add\n        /* \"#utility.yul\":16356:16362   */\n      dup5\n        /* \"#utility.yul\":16318:16383   */\n      tag_349\n      jump\t// in\n    tag_451:\n        /* \"#utility.yul\":16180:16390   */\n      swap3\n      swap2\n      pop\n      pop\n      jump\t// out\n        /* \"#utility.yul\":16396:16614   */\n    tag_64:\n        /* \"#utility.yul\":16487:16491   */\n      0x00\n        /* \"#utility.yul\":16525:16527   */\n      0x20\n        /* \"#utility.yul\":16514:16523   */\n      dup3\n        /* \"#utility.yul\":16510:16528   */\n      add\n        /* \"#utility.yul\":16502:16528   */\n      swap1\n      pop\n        /* \"#utility.yul\":16538:16607   */\n      tag_453\n        /* \"#utility.yul\":16604:16605   */\n      0x00\n        /* \"#utility.yul\":16593:16602   */\n      dup4\n        /* \"#utility.yul\":16589:16606   */\n      add\n        /* \"#utility.yul\":16580:16586   */\n      dup5\n        /* \"#utility.yul\":16538:16607   */\n      tag_353\n      jump\t// in\n    tag_453:\n        /* \"#utility.yul\":16396:16614   */\n      swap3\n      swap2\n      pop\n      pop\n      jump\t// out\n        /* \"#utility.yul\":16620:16933   */\n    tag_220:\n        /* \"#utility.yul\":16733:16737   */\n      0x00\n        /* \"#utility.yul\":16771:16773   */\n      0x20\n        /* \"#utility.yul\":16760:16769   */\n      dup3\n        /* \"#utility.yul\":16756:16774   */\n      add\n        /* \"#utility.yul\":16748:16774   */\n      swap1\n      pop\n        /* \"#utility.yul\":16820:16829   */\n      dup2\n        /* \"#utility.yul\":16814:16818   */\n      dup2\n        /* \"#utility.yul\":16810:16830   */\n      sub\n        /* \"#utility.yul\":16806:16807   */\n      0x00\n        /* \"#utility.yul\":16795:16804   */\n      dup4\n        /* \"#utility.yul\":16791:16808   */\n      add\n        /* \"#utility.yul\":16784:16831   */\n      mstore\n        /* \"#utility.yul\":16848:16926   */\n      tag_455\n        /* \"#utility.yul\":16921:16925   */\n      dup2\n        /* \"#utility.yul\":16912:16918   */\n      dup5\n        /* \"#utility.yul\":16848:16926   */\n      tag_372\n      jump\t// in\n    tag_455:\n        /* \"#utility.yul\":16840:16926   */\n      swap1\n      pop\n        /* \"#utility.yul\":16620:16933   */\n      swap3\n      swap2\n      pop\n      pop\n      jump\t// out\n        /* \"#utility.yul\":16939:17358   */\n    tag_222:\n        /* \"#utility.yul\":17105:17109   */\n      0x00\n        /* \"#utility.yul\":17143:17145   */\n      0x20\n        /* \"#utility.yul\":17132:17141   */\n      dup3\n        /* \"#utility.yul\":17128:17146   */\n      add\n        /* \"#utility.yul\":17120:17146   */\n      swap1\n      pop\n        /* \"#utility.yul\":17192:17201   */\n      dup2\n        /* \"#utility.yul\":17186:17190   */\n      dup2\n        /* \"#utility.yul\":17182:17202   */\n      sub\n        /* \"#utility.yul\":17178:17179   */\n      0x00\n        /* \"#utility.yul\":17167:17176   */\n      dup4\n        /* \"#utility.yul\":17163:17180   */\n      add\n        /* \"#utility.yul\":17156:17203   */\n      mstore\n        /* \"#utility.yul\":17220:17351   */\n      tag_457\n        /* \"#utility.yul\":17346:17350   */\n      dup2\n        /* \"#utility.yul\":17220:17351   */\n      tag_380\n      jump\t// in\n    tag_457:\n        /* \"#utility.yul\":17212:17351   */\n      swap1\n      pop\n        /* \"#utility.yul\":16939:17358   */\n      swap2\n      swap1\n      pop\n      jump\t// out\n        /* \"#utility.yul\":17364:17783   */\n    tag_153:\n        /* \"#utility.yul\":17530:17534   */\n      0x00\n        /* \"#utility.yul\":17568:17570   */\n      0x20\n        /* \"#utility.yul\":17557:17566   */\n      dup3\n        /* \"#utility.yul\":17553:17571   */\n      add\n        /* \"#utility.yul\":17545:17571   */\n      swap1\n      pop\n        /* \"#utility.yul\":17617:17626   */\n      dup2\n        /* \"#utility.yul\":17611:17615   */\n      dup2\n        /* \"#utility.yul\":17607:17627   */\n      sub\n        /* \"#utility.yul\":17603:17604   */\n      0x00\n        /* \"#utility.yul\":17592:17601   */\n      dup4\n        /* \"#utility.yul\":17588:17605   */\n      add\n        /* \"#utility.yul\":17581:17628   */\n      mstore\n        /* \"#utility.yul\":17645:17776   */\n      tag_459\n        /* \"#utility.yul\":17771:17775   */\n      dup2\n        /* \"#utility.yul\":17645:17776   */\n      tag_385\n      jump\t// in\n    tag_459:\n        /* \"#utility.yul\":17637:17776   */\n      swap1\n      pop\n        /* \"#utility.yul\":17364:17783   */\n      swap2\n      swap1\n      pop\n      jump\t// out\n        /* \"#utility.yul\":17789:18208   */\n    tag_226:\n        /* \"#utility.yul\":17955:17959   */\n      0x00\n        /* \"#utility.yul\":17993:17995   */\n      0x20\n        /* \"#utility.yul\":17982:17991   */\n      dup3\n        /* \"#utility.yul\":17978:17996   */\n      add\n        /* \"#utility.yul\":17970:17996   */\n      swap1\n      pop\n        /* \"#utility.yul\":18042:18051   */\n      dup2\n        /* \"#utility.yul\":18036:18040   */\n      dup2\n        /* \"#utility.yul\":18032:18052   */\n      sub\n        /* \"#utility.yul\":18028:18029   */\n      0x00\n        /* \"#utility.yul\":18017:18026   */\n      dup4\n        /* \"#utility.yul\":18013:18030   */\n      add\n        /* \"#utility.yul\":18006:18053   */\n      mstore\n        /* \"#utility.yul\":18070:18201   */\n      tag_461\n        /* \"#utility.yul\":18196:18200   */\n      dup2\n        /* \"#utility.yul\":18070:18201   */\n      tag_390\n      jump\t// in\n    tag_461:\n        /* \"#utility.yul\":18062:18201   */\n      swap1\n      pop\n        /* \"#utility.yul\":17789:18208   */\n      swap2\n      swap1\n      pop\n      jump\t// out\n        /* \"#utility.yul\":18214:18633   */\n    tag_73:\n        /* \"#utility.yul\":18380:18384   */\n      0x00\n        /* \"#utility.yul\":18418:18420   */\n      0x20\n        /* \"#utility.yul\":18407:18416   */\n      dup3\n        /* \"#utility.yul\":18403:18421   */\n      add\n        /* \"#utility.yul\":18395:18421   */\n      swap1\n      pop\n        /* \"#utility.yul\":18467:18476   */\n      dup2\n        /* \"#utility.yul\":18461:18465   */\n      dup2\n        /* \"#utility.yul\":18457:18477   */\n      sub\n        /* \"#utility.yul\":18453:18454   */\n      0x00\n        /* \"#utility.yul\":18442:18451   */\n      dup4\n        /* \"#utility.yul\":18438:18455   */\n      add\n        /* \"#utility.yul\":18431:18478   */\n      mstore\n        /* \"#utility.yul\":18495:18626   */\n      tag_463\n        /* \"#utility.yul\":18621:18625   */\n      dup2\n        /* \"#utility.yul\":18495:18626   */\n      tag_395\n      jump\t// in\n    tag_463:\n        /* \"#utility.yul\":18487:18626   */\n      swap1\n      pop\n        /* \"#utility.yul\":18214:18633   */\n      swap2\n      swap1\n      pop\n      jump\t// out\n        /* \"#utility.yul\":18639:19058   */\n    tag_122:\n        /* \"#utility.yul\":18805:18809   */\n      0x00\n        /* \"#utility.yul\":18843:18845   */\n      0x20\n        /* \"#utility.yul\":18832:18841   */\n      dup3\n        /* \"#utility.yul\":18828:18846   */\n      add\n        /* \"#utility.yul\":18820:18846   */\n      swap1\n      pop\n        /* \"#utility.yul\":18892:18901   */\n      dup2\n        /* \"#utility.yul\":18886:18890   */\n      dup2\n        /* \"#utility.yul\":18882:18902   */\n      sub\n        /* \"#utility.yul\":18878:18879   */\n      0x00\n        /* \"#utility.yul\":18867:18876   */\n      dup4\n        /* \"#utility.yul\":18863:18880   */\n      add\n        /* \"#utility.yul\":18856:18903   */\n      mstore\n        /* \"#utility.yul\":18920:19051   */\n      tag_465\n        /* \"#utility.yul\":19046:19050   */\n      dup2\n        /* \"#utility.yul\":18920:19051   */\n      tag_400\n      jump\t// in\n    tag_465:\n        /* \"#utility.yul\":18912:19051   */\n      swap1\n      pop\n        /* \"#utility.yul\":18639:19058   */\n      swap2\n      swap1\n      pop\n      jump\t// out\n        /* \"#utility.yul\":19064:19483   */\n    tag_180:\n        /* \"#utility.yul\":19230:19234   */\n      0x00\n        /* \"#utility.yul\":19268:19270   */\n      0x20\n        /* \"#utility.yul\":19257:19266   */\n      dup3\n        /* \"#utility.yul\":19253:19271   */\n      add\n        /* \"#utility.yul\":19245:19271   */\n      swap1\n      pop\n        /* \"#utility.yul\":19317:19326   */\n      dup2\n        /* \"#utility.yul\":19311:19315   */\n      dup2\n        /* \"#utility.yul\":19307:19327   */\n      sub\n        /* \"#utility.yul\":19303:19304   */\n      0x00\n        /* \"#utility.yul\":19292:19301   */\n      dup4\n        /* \"#utility.yul\":19288:19305   */\n      add\n        /* \"#utility.yul\":19281:19328   */\n      mstore\n        /* \"#utility.yul\":19345:19476   */\n      tag_467\n        /* \"#utility.yul\":19471:19475   */\n      dup2\n        /* \"#utility.yul\":19345:19476   */\n      tag_405\n      jump\t// in\n    tag_467:\n        /* \"#utility.yul\":19337:19476   */\n      swap1\n      pop\n        /* \"#utility.yul\":19064:19483   */\n      swap2\n      swap1\n      pop\n      jump\t// out\n        /* \"#utility.yul\":19489:19908   */\n    tag_187:\n        /* \"#utility.yul\":19655:19659   */\n      0x00\n        /* \"#utility.yul\":19693:19695   */\n      0x20\n        /* \"#utility.yul\":19682:19691   */\n      dup3\n        /* \"#utility.yul\":19678:19696   */\n      add\n        /* \"#utility.yul\":19670:19696   */\n      swap1\n      pop\n        /* \"#utility.yul\":19742:19751   */\n      dup2\n        /* \"#utility.yul\":19736:19740   */\n      dup2\n        /* \"#utility.yul\":19732:19752   */\n      sub\n        /* \"#utility.yul\":19728:19729   */\n      0x00\n        /* \"#utility.yul\":19717:19726   */\n      dup4\n        /* \"#utility.yul\":19713:19730   */\n      add\n        /* \"#utility.yul\":19706:19753   */\n      mstore\n        /* \"#utility.yul\":19770:19901   */\n      tag_469\n        /* \"#utility.yul\":19896:19900   */\n      dup2\n        /* \"#utility.yul\":19770:19901   */\n      tag_410\n      jump\t// in\n    tag_469:\n        /* \"#utility.yul\":19762:19901   */\n      swap1\n      pop\n        /* \"#utility.yul\":19489:19908   */\n      swap2\n      swap1\n      pop\n      jump\t// out\n        /* \"#utility.yul\":19914:20333   */\n    tag_162:\n        /* \"#utility.yul\":20080:20084   */\n      0x00\n        /* \"#utility.yul\":20118:20120   */\n      0x20\n        /* \"#utility.yul\":20107:20116   */\n      dup3\n        /* \"#utility.yul\":20103:20121   */\n      add\n        /* \"#utility.yul\":20095:20121   */\n      swap1\n      pop\n        /* \"#utility.yul\":20167:20176   */\n      dup2\n        /* \"#utility.yul\":20161:20165   */\n      dup2\n        /* \"#utility.yul\":20157:20177   */\n      sub\n        /* \"#utility.yul\":20153:20154   */\n      0x00\n        /* \"#utility.yul\":20142:20151   */\n      dup4\n        /* \"#utility.yul\":20138:20155   */\n      add\n        /* \"#utility.yul\":20131:20178   */\n      mstore\n        /* \"#utility.yul\":20195:20326   */\n      tag_471\n        /* \"#utility.yul\":20321:20325   */\n      dup2\n        /* \"#utility.yul\":20195:20326   */\n      tag_415\n      jump\t// in\n    tag_471:\n        /* \"#utility.yul\":20187:20326   */\n      swap1\n      pop\n        /* \"#utility.yul\":19914:20333   */\n      swap2\n      swap1\n      pop\n      jump\t// out\n        /* \"#utility.yul\":20339:20561   */\n    tag_19:\n        /* \"#utility.yul\":20432:20436   */\n      0x00\n        /* \"#utility.yul\":20470:20472   */\n      0x20\n        /* \"#utility.yul\":20459:20468   */\n      dup3\n        /* \"#utility.yul\":20455:20473   */\n      add\n        /* \"#utility.yul\":20447:20473   */\n      swap1\n      pop\n        /* \"#utility.yul\":20483:20554   */\n      tag_473\n        /* \"#utility.yul\":20551:20552   */\n      0x00\n        /* \"#utility.yul\":20540:20549   */\n      dup4\n        /* \"#utility.yul\":20536:20553   */\n      add\n        /* \"#utility.yul\":20527:20533   */\n      dup5\n        /* \"#utility.yul\":20483:20554   */\n      tag_423\n      jump\t// in\n    tag_473:\n        /* \"#utility.yul\":20339:20561   */\n      swap3\n      swap2\n      pop\n      pop\n      jump\t// out\n        /* \"#utility.yul\":20567:20899   */\n    tag_171:\n        /* \"#utility.yul\":20688:20692   */\n      0x00\n        /* \"#utility.yul\":20726:20728   */\n      0x40\n        /* \"#utility.yul\":20715:20724   */\n      dup3\n        /* \"#utility.yul\":20711:20729   */\n      add\n        /* \"#utility.yul\":20703:20729   */\n      swap1\n      pop\n        /* \"#utility.yul\":20739:20810   */\n      tag_475\n        /* \"#utility.yul\":20807:20808   */\n      0x00\n        /* \"#utility.yul\":20796:20805   */\n      dup4\n        /* \"#utility.yul\":20792:20809   */\n      add\n        /* \"#utility.yul\":20783:20789   */\n      dup6\n        /* \"#utility.yul\":20739:20810   */\n      tag_423\n      jump\t// in\n    tag_475:\n        /* \"#utility.yul\":20820:20892   */\n      tag_476\n        /* \"#utility.yul\":20888:20890   */\n      0x20\n        /* \"#utility.yul\":20877:20886   */\n      dup4\n        /* \"#utility.yul\":20873:20891   */\n      add\n        /* \"#utility.yul\":20864:20870   */\n      dup5\n        /* \"#utility.yul\":20820:20892   */\n      tag_423\n      jump\t// in\n    tag_476:\n        /* \"#utility.yul\":20567:20899   */\n      swap4\n      swap3\n      pop\n      pop\n      pop\n      jump\t// out\n        /* \"#utility.yul\":20905:21034   */\n    tag_234:\n        /* \"#utility.yul\":20939:20945   */\n      0x00\n        /* \"#utility.yul\":20966:20986   */\n      tag_478\n      tag_479\n      jump\t// in\n    tag_478:\n        /* \"#utility.yul\":20956:20986   */\n      swap1\n      pop\n        /* \"#utility.yul\":20995:21028   */\n      tag_480\n        /* \"#utility.yul\":21023:21027   */\n      dup3\n        /* \"#utility.yul\":21015:21021   */\n      dup3\n        /* \"#utility.yul\":20995:21028   */\n      tag_481\n      jump\t// in\n    tag_480:\n        /* \"#utility.yul\":20905:21034   */\n      swap2\n      swap1\n      pop\n      jump\t// out\n        /* \"#utility.yul\":21040:21115   */\n    tag_479:\n        /* \"#utility.yul\":21073:21079   */\n      0x00\n        /* \"#utility.yul\":21106:21108   */\n      0x40\n        /* \"#utility.yul\":21100:21109   */\n      mload\n        /* \"#utility.yul\":21090:21109   */\n      swap1\n      pop\n        /* \"#utility.yul\":21040:21115   */\n      swap1\n      jump\t// out\n        /* \"#utility.yul\":21121:21428   */\n    tag_233:\n        /* \"#utility.yul\":21182:21186   */\n      0x00\n        /* \"#utility.yul\":21272:21290   */\n      0xffffffffffffffff\n        /* \"#utility.yul\":21264:21270   */\n      dup3\n        /* \"#utility.yul\":21261:21291   */\n      gt\n        /* \"#utility.yul\":21258:21314   */\n      iszero\n      tag_484\n      jumpi\n        /* \"#utility.yul\":21294:21312   */\n      tag_485\n      tag_89\n      jump\t// in\n    tag_485:\n        /* \"#utility.yul\":21258:21314   */\n    tag_484:\n        /* \"#utility.yul\":21332:21361   */\n      tag_486\n        /* \"#utility.yul\":21354:21360   */\n      dup3\n        /* \"#utility.yul\":21332:21361   */\n      tag_363\n      jump\t// in\n    tag_486:\n        /* \"#utility.yul\":21324:21361   */\n      swap1\n      pop\n        /* \"#utility.yul\":21416:21420   */\n      0x20\n        /* \"#utility.yul\":21410:21414   */\n      dup2\n        /* \"#utility.yul\":21406:21421   */\n      add\n        /* \"#utility.yul\":21398:21421   */\n      swap1\n      pop\n        /* \"#utility.yul\":21121:21428   */\n      swap2\n      swap1\n      pop\n      jump\t// out\n        /* \"#utility.yul\":21434:21566   */\n    tag_342:\n        /* \"#utility.yul\":21501:21505   */\n      0x00\n        /* \"#utility.yul\":21524:21527   */\n      dup2\n        /* \"#utility.yul\":21516:21527   */\n      swap1\n      pop\n        /* \"#utility.yul\":21554:21558   */\n      0x20\n        /* \"#utility.yul\":21549:21552   */\n      dup3\n        /* \"#utility.yul\":21545:21559   */\n      add\n        /* \"#utility.yul\":21537:21559   */\n      swap1\n      pop\n        /* \"#utility.yul\":21434:21566   */\n      swap2\n      swap1\n      pop\n      jump\t// out\n        /* \"#utility.yul\":21572:21686   */\n    tag_338:\n        /* \"#utility.yul\":21639:21645   */\n      0x00\n        /* \"#utility.yul\":21673:21678   */\n      dup2\n        /* \"#utility.yul\":21667:21679   */\n      mload\n        /* \"#utility.yul\":21657:21679   */\n      swap1\n      pop\n        /* \"#utility.yul\":21572:21686   */\n      swap2\n      swap1\n      pop\n      jump\t// out\n        /* \"#utility.yul\":21692:21790   */\n    tag_367:\n        /* \"#utility.yul\":21743:21749   */\n      0x00\n        /* \"#utility.yul\":21777:21782   */\n      dup2\n        /* \"#utility.yul\":21771:21783   */\n      mload\n        /* \"#utility.yul\":21761:21783   */\n      swap1\n      pop\n        /* \"#utility.yul\":21692:21790   */\n      swap2\n      swap1\n      pop\n      jump\t// out\n        /* \"#utility.yul\":21796:21895   */\n    tag_375:\n        /* \"#utility.yul\":21848:21854   */\n      0x00\n        /* \"#utility.yul\":21882:21887   */\n      dup2\n        /* \"#utility.yul\":21876:21888   */\n      mload\n        /* \"#utility.yul\":21866:21888   */\n      swap1\n      pop\n        /* \"#utility.yul\":21796:21895   */\n      swap2\n      swap1\n      pop\n      jump\t// out\n        /* \"#utility.yul\":21901:22014   */\n    tag_348:\n        /* \"#utility.yul\":21971:21975   */\n      0x00\n        /* \"#utility.yul\":22003:22007   */\n      0x20\n        /* \"#utility.yul\":21998:22001   */\n      dup3\n        /* \"#utility.yul\":21994:22008   */\n      add\n        /* \"#utility.yul\":21986:22008   */\n      swap1\n      pop\n        /* \"#utility.yul\":21901:22014   */\n      swap2\n      swap1\n      pop\n      jump\t// out\n        /* \"#utility.yul\":22020:22204   */\n    tag_340:\n        /* \"#utility.yul\":22119:22130   */\n      0x00\n        /* \"#utility.yul\":22153:22159   */\n      dup3\n        /* \"#utility.yul\":22148:22151   */\n      dup3\n        /* \"#utility.yul\":22141:22160   */\n      mstore\n        /* \"#utility.yul\":22193:22197   */\n      0x20\n        /* \"#utility.yul\":22188:22191   */\n      dup3\n        /* \"#utility.yul\":22184:22198   */\n      add\n        /* \"#utility.yul\":22169:22198   */\n      swap1\n      pop\n        /* \"#utility.yul\":22020:22204   */\n      swap3\n      swap2\n      pop\n      pop\n      jump\t// out\n        /* \"#utility.yul\":22210:22378   */\n    tag_360:\n        /* \"#utility.yul\":22293:22304   */\n      0x00\n        /* \"#utility.yul\":22327:22333   */\n      dup3\n        /* \"#utility.yul\":22322:22325   */\n      dup3\n        /* \"#utility.yul\":22315:22334   */\n      mstore\n        /* \"#utility.yul\":22367:22371   */\n      0x20\n        /* \"#utility.yul\":22362:22365   */\n      dup3\n        /* \"#utility.yul\":22358:22372   */\n      add\n        /* \"#utility.yul\":22343:22372   */\n      swap1\n      pop\n        /* \"#utility.yul\":22210:22378   */\n      swap3\n      swap2\n      pop\n      pop\n      jump\t// out\n        /* \"#utility.yul\":22384:22553   */\n    tag_377:\n        /* \"#utility.yul\":22468:22479   */\n      0x00\n        /* \"#utility.yul\":22502:22508   */\n      dup3\n        /* \"#utility.yul\":22497:22500   */\n      dup3\n        /* \"#utility.yul\":22490:22509   */\n      mstore\n        /* \"#utility.yul\":22542:22546   */\n      0x20\n        /* \"#utility.yul\":22537:22540   */\n      dup3\n        /* \"#utility.yul\":22533:22547   */\n      add\n        /* \"#utility.yul\":22518:22547   */\n      swap1\n      pop\n        /* \"#utility.yul\":22384:22553   */\n      swap3\n      swap2\n      pop\n      pop\n      jump\t// out\n        /* \"#utility.yul\":22559:22864   */\n    tag_81:\n        /* \"#utility.yul\":22599:22602   */\n      0x00\n        /* \"#utility.yul\":22618:22638   */\n      tag_496\n        /* \"#utility.yul\":22636:22637   */\n      dup3\n        /* \"#utility.yul\":22618:22638   */\n      tag_422\n      jump\t// in\n    tag_496:\n        /* \"#utility.yul\":22613:22638   */\n      swap2\n      pop\n        /* \"#utility.yul\":22652:22672   */\n      tag_497\n        /* \"#utility.yul\":22670:22671   */\n      dup4\n        /* \"#utility.yul\":22652:22672   */\n      tag_422\n      jump\t// in\n    tag_497:\n        /* \"#utility.yul\":22647:22672   */\n      swap3\n      pop\n        /* \"#utility.yul\":22806:22807   */\n      dup3\n        /* \"#utility.yul\":22738:22804   */\n      0xffffffffffffffffffffffffffffffffffffffffffffffffffffffffffffffff\n        /* \"#utility.yul\":22734:22808   */\n      sub\n        /* \"#utility.yul\":22731:22732   */\n      dup3\n        /* \"#utility.yul\":22728:22809   */\n      gt\n        /* \"#utility.yul\":22725:22832   */\n      iszero\n      tag_498\n      jumpi\n        /* \"#utility.yul\":22812:22830   */\n      tag_499\n      tag_500\n      jump\t// in\n    tag_499:\n        /* \"#utility.yul\":22725:22832   */\n    tag_498:\n        /* \"#utility.yul\":22856:22857   */\n      dup3\n        /* \"#utility.yul\":22853:22854   */\n      dup3\n        /* \"#utility.yul\":22849:22858   */\n      add\n        /* \"#utility.yul\":22842:22858   */\n      swap1\n      pop\n        /* \"#utility.yul\":22559:22864   */\n      swap3\n      swap2\n      pop\n      pop\n      jump\t// out\n        /* \"#utility.yul\":22870:23061   */\n    tag_158:\n        /* \"#utility.yul\":22910:22914   */\n      0x00\n        /* \"#utility.yul\":22930:22950   */\n      tag_502\n        /* \"#utility.yul\":22948:22949   */\n      dup3\n        /* \"#utility.yul\":22930:22950   */\n      tag_422\n      jump\t// in\n    tag_502:\n        /* \"#utility.yul\":22925:22950   */\n      swap2\n      pop\n        /* \"#utility.yul\":22964:22984   */\n      tag_503\n        /* \"#utility.yul\":22982:22983   */\n      dup4\n        /* \"#utility.yul\":22964:22984   */\n      tag_422\n      jump\t// in\n    tag_503:\n        /* \"#utility.yul\":22959:22984   */\n      swap3\n      pop\n        /* \"#utility.yul\":23003:23004   */\n      dup3\n        /* \"#utility.yul\":23000:23001   */\n      dup3\n        /* \"#utility.yul\":22997:23005   */\n      lt\n        /* \"#utility.yul\":22994:23028   */\n      iszero\n      tag_504\n      jumpi\n        /* \"#utility.yul\":23008:23026   */\n      tag_505\n      tag_500\n      jump\t// in\n    tag_505:\n        /* \"#utility.yul\":22994:23028   */\n    tag_504:\n        /* \"#utility.yul\":23053:23054   */\n      dup3\n        /* \"#utility.yul\":23050:23051   */\n      dup3\n        /* \"#utility.yul\":23046:23055   */\n      sub\n        /* \"#utility.yul\":23038:23055   */\n      swap1\n      pop\n        /* \"#utility.yul\":22870:23061   */\n      swap3\n      swap2\n      pop\n      pop\n      jump\t// out\n        /* \"#utility.yul\":23067:23163   */\n    tag_334:\n        /* \"#utility.yul\":23104:23111   */\n      0x00\n        /* \"#utility.yul\":23133:23157   */\n      tag_507\n        /* \"#utility.yul\":23151:23156   */\n      dup3\n        /* \"#utility.yul\":23133:23157   */\n      tag_508\n      jump\t// in\n    tag_507:\n        /* \"#utility.yul\":23122:23157   */\n      swap1\n      pop\n        /* \"#utility.yul\":23067:23163   */\n      swap2\n      swap1\n      pop\n      jump\t// out\n        /* \"#utility.yul\":23169:23259   */\n    tag_352:\n        /* \"#utility.yul\":23203:23210   */\n      0x00\n        /* \"#utility.yul\":23246:23251   */\n      dup2\n        /* \"#utility.yul\":23239:23252   */\n      iszero\n        /* \"#utility.yul\":23232:23253   */\n      iszero\n        /* \"#utility.yul\":23221:23253   */\n      swap1\n      pop\n        /* \"#utility.yul\":23169:23259   */\n      swap2\n      swap1\n      pop\n      jump\t// out\n        /* \"#utility.yul\":23265:23414   */\n    tag_356:\n        /* \"#utility.yul\":23301:23308   */\n      0x00\n        /* \"#utility.yul\":23341:23407   */\n      0xffffffff00000000000000000000000000000000000000000000000000000000\n        /* \"#utility.yul\":23334:23339   */\n      dup3\n        /* \"#utility.yul\":23330:23408   */\n      and\n        /* \"#utility.yul\":23319:23408   */\n      swap1\n      pop\n        /* \"#utility.yul\":23265:23414   */\n      swap2\n      swap1\n      pop\n      jump\t// out\n        /* \"#utility.yul\":23420:23546   */\n    tag_508:\n        /* \"#utility.yul\":23457:23464   */\n      0x00\n        /* \"#utility.yul\":23497:23539   */\n      0xffffffffffffffffffffffffffffffffffffffff\n        /* \"#utility.yul\":23490:23495   */\n      dup3\n        /* \"#utility.yul\":23486:23540   */\n      and\n        /* \"#utility.yul\":23475:23540   */\n      swap1\n      pop\n        /* \"#utility.yul\":23420:23546   */\n      swap2\n      swap1\n      pop\n      jump\t// out\n        /* \"#utility.yul\":23552:23629   */\n    tag_422:\n        /* \"#utility.yul\":23589:23596   */\n      0x00\n        /* \"#utility.yul\":23618:23623   */\n      dup2\n        /* \"#utility.yul\":23607:23623   */\n      swap1\n      pop\n        /* \"#utility.yul\":23552:23629   */\n      swap2\n      swap1\n      pop\n      jump\t// out\n        /* \"#utility.yul\":23635:23789   */\n    tag_239:\n        /* \"#utility.yul\":23719:23725   */\n      dup3\n        /* \"#utility.yul\":23714:23717   */\n      dup2\n        /* \"#utility.yul\":23709:23712   */\n      dup4\n        /* \"#utility.yul\":23696:23726   */\n      calldatacopy\n        /* \"#utility.yul\":23781:23782   */\n      0x00\n        /* \"#utility.yul\":23772:23778   */\n      dup4\n        /* \"#utility.yul\":23767:23770   */\n      dup4\n        /* \"#utility.yul\":23763:23779   */\n      add\n        /* \"#utility.yul\":23756:23783   */\n      mstore\n        /* \"#utility.yul\":23635:23789   */\n      pop\n      pop\n      pop\n      jump\t// out\n        /* \"#utility.yul\":23795:24102   */\n    tag_370:\n        /* \"#utility.yul\":23863:23864   */\n      0x00\n        /* \"#utility.yul\":23873:23986   */\n    tag_515:\n        /* \"#utility.yul\":23887:23893   */\n      dup4\n        /* \"#utility.yul\":23884:23885   */\n      dup2\n        /* \"#utility.yul\":23881:23894   */\n      lt\n        /* \"#utility.yul\":23873:23986   */\n      iszero\n      tag_517\n      jumpi\n        /* \"#utility.yul\":23972:23973   */\n      dup1\n        /* \"#utility.yul\":23967:23970   */\n      dup3\n        /* \"#utility.yul\":23963:23974   */\n      add\n        /* \"#utility.yul\":23957:23975   */\n      mload\n        /* \"#utility.yul\":23953:23954   */\n      dup2\n        /* \"#utility.yul\":23948:23951   */\n      dup5\n        /* \"#utility.yul\":23944:23955   */\n      add\n        /* \"#utility.yul\":23937:23976   */\n      mstore\n        /* \"#utility.yul\":23909:23911   */\n      0x20\n        /* \"#utility.yul\":23906:23907   */\n      dup2\n        /* \"#utility.yul\":23902:23912   */\n      add\n        /* \"#utility.yul\":23897:23912   */\n      swap1\n      pop\n        /* \"#utility.yul\":23873:23986   */\n      jump(tag_515)\n    tag_517:\n        /* \"#utility.yul\":24004:24010   */\n      dup4\n        /* \"#utility.yul\":24001:24002   */\n      dup2\n        /* \"#utility.yul\":23998:24011   */\n      gt\n        /* \"#utility.yul\":23995:24096   */\n      iszero\n      tag_518\n      jumpi\n        /* \"#utility.yul\":24084:24085   */\n      0x00\n        /* \"#utility.yul\":24075:24081   */\n      dup5\n        /* \"#utility.yul\":24070:24073   */\n      dup5\n        /* \"#utility.yul\":24066:24082   */\n      add\n        /* \"#utility.yul\":24059:24086   */\n      mstore\n        /* \"#utility.yul\":23995:24096   */\n    tag_518:\n        /* \"#utility.yul\":23844:24102   */\n      pop\n        /* \"#utility.yul\":23795:24102   */\n      pop\n      pop\n      pop\n      jump\t// out\n        /* \"#utility.yul\":24108:24389   */\n    tag_481:\n        /* \"#utility.yul\":24191:24218   */\n      tag_520\n        /* \"#utility.yul\":24213:24217   */\n      dup3\n        /* \"#utility.yul\":24191:24218   */\n      tag_363\n      jump\t// in\n    tag_520:\n        /* \"#utility.yul\":24183:24189   */\n      dup2\n        /* \"#utility.yul\":24179:24219   */\n      add\n        /* \"#utility.yul\":24321:24327   */\n      dup2\n        /* \"#utility.yul\":24309:24319   */\n      dup2\n        /* \"#utility.yul\":24306:24328   */\n      lt\n        /* \"#utility.yul\":24285:24303   */\n      0xffffffffffffffff\n        /* \"#utility.yul\":24273:24283   */\n      dup3\n        /* \"#utility.yul\":24270:24304   */\n      gt\n        /* \"#utility.yul\":24267:24329   */\n      or\n        /* \"#utility.yul\":24264:24352   */\n      iszero\n      tag_521\n      jumpi\n        /* \"#utility.yul\":24332:24350   */\n      tag_522\n      tag_89\n      jump\t// in\n    tag_522:\n        /* \"#utility.yul\":24264:24352   */\n    tag_521:\n        /* \"#utility.yul\":24372:24382   */\n      dup1\n        /* \"#utility.yul\":24368:24370   */\n      0x40\n        /* \"#utility.yul\":24361:24383   */\n      mstore\n        /* \"#utility.yul\":24151:24389   */\n      pop\n        /* \"#utility.yul\":24108:24389   */\n      pop\n      pop\n      jump\t// out\n        /* \"#utility.yul\":24395:24628   */\n    tag_83:\n        /* \"#utility.yul\":24434:24437   */\n      0x00\n        /* \"#utility.yul\":24457:24481   */\n      tag_524\n        /* \"#utility.yul\":24475:24480   */\n      dup3\n        /* \"#utility.yul\":24457:24481   */\n      tag_422\n      jump\t// in\n    tag_524:\n        /* \"#utility.yul\":24448:24481   */\n      swap2\n      pop\n        /* \"#utility.yul\":24503:24569   */\n      0xffffffffffffffffffffffffffffffffffffffffffffffffffffffffffffffff\n        /* \"#utility.yul\":24496:24501   */\n      dup3\n        /* \"#utility.yul\":24493:24570   */\n      eq\n        /* \"#utility.yul\":24490:24593   */\n      iszero\n      tag_525\n      jumpi\n        /* \"#utility.yul\":24573:24591   */\n      tag_526\n      tag_500\n      jump\t// in\n    tag_526:\n        /* \"#utility.yul\":24490:24593   */\n    tag_525:\n        /* \"#utility.yul\":24620:24621   */\n      0x01\n        /* \"#utility.yul\":24613:24618   */\n      dup3\n        /* \"#utility.yul\":24609:24622   */\n      add\n        /* \"#utility.yul\":24602:24622   */\n      swap1\n      pop\n        /* \"#utility.yul\":24395:24628   */\n      swap2\n      swap1\n      pop\n      jump\t// out\n        /* \"#utility.yul\":24634:24814   */\n    tag_500:\n        /* \"#utility.yul\":24682:24759   */\n      0x4e487b7100000000000000000000000000000000000000000000000000000000\n        /* \"#utility.yul\":24679:24680   */\n      0x00\n        /* \"#utility.yul\":24672:24760   */\n      mstore\n        /* \"#utility.yul\":24779:24783   */\n      0x11\n        /* \"#utility.yul\":24776:24777   */\n      0x04\n        /* \"#utility.yul\":24769:24784   */\n      mstore\n        /* \"#utility.yul\":24803:24807   */\n      0x24\n        /* \"#utility.yul\":24800:24801   */\n      0x00\n        /* \"#utility.yul\":24793:24808   */\n      revert\n        /* \"#utility.yul\":24820:25000   */\n    tag_99:\n        /* \"#utility.yul\":24868:24945   */\n      0x4e487b7100000000000000000000000000000000000000000000000000000000\n        /* \"#utility.yul\":24865:24866   */\n      0x00\n        /* \"#utility.yul\":24858:24946   */\n      mstore\n        /* \"#utility.yul\":24965:24969   */\n      0x32\n        /* \"#utility.yul\":24962:24963   */\n      0x04\n        /* \"#utility.yul\":24955:24970   */\n      mstore\n        /* \"#utility.yul\":24989:24993   */\n      0x24\n        /* \"#utility.yul\":24986:24987   */\n      0x00\n        /* \"#utility.yul\":24979:24994   */\n      revert\n        /* \"#utility.yul\":25006:25186   */\n    tag_89:\n        /* \"#utility.yul\":25054:25131   */\n      0x4e487b7100000000000000000000000000000000000000000000000000000000\n        /* \"#utility.yul\":25051:25052   */\n      0x00\n        /* \"#utility.yul\":25044:25132   */\n      mstore\n        /* \"#utility.yul\":25151:25155   */\n      0x41\n        /* \"#utility.yul\":25148:25149   */\n      0x04\n        /* \"#utility.yul\":25141:25156   */\n      mstore\n        /* \"#utility.yul\":25175:25179   */\n      0x24\n        /* \"#utility.yul\":25172:25173   */\n      0x00\n        /* \"#utility.yul\":25165:25180   */\n      revert\n        /* \"#utility.yul\":25192:25375   */\n    tag_215:\n        /* \"#utility.yul\":25227:25230   */\n      0x00\n        /* \"#utility.yul\":25265:25266   */\n      0x03\n        /* \"#utility.yul\":25247:25263   */\n      returndatasize\n        /* \"#utility.yul\":25244:25267   */\n      gt\n        /* \"#utility.yul\":25241:25369   */\n      iszero\n      tag_531\n      jumpi\n        /* \"#utility.yul\":25303:25304   */\n      0x04\n        /* \"#utility.yul\":25300:25301   */\n      0x00\n        /* \"#utility.yul\":25297:25298   */\n      dup1\n        /* \"#utility.yul\":25282:25305   */\n      returndatacopy\n        /* \"#utility.yul\":25325:25359   */\n      tag_532\n        /* \"#utility.yul\":25356:25357   */\n      0x00\n        /* \"#utility.yul\":25350:25358   */\n      mload\n        /* \"#utility.yul\":25325:25359   */\n      tag_533\n      jump\t// in\n    tag_532:\n        /* \"#utility.yul\":25318:25359   */\n      swap1\n      pop\n        /* \"#utility.yul\":25241:25369   */\n    tag_531:\n        /* \"#utility.yul\":25192:25375   */\n      swap1\n      jump\t// out\n        /* \"#utility.yul\":25381:25498   */\n    tag_259:\n        /* \"#utility.yul\":25490:25491   */\n      0x00\n        /* \"#utility.yul\":25487:25488   */\n      dup1\n        /* \"#utility.yul\":25480:25492   */\n      revert\n        /* \"#utility.yul\":25504:25621   */\n    tag_256:\n        /* \"#utility.yul\":25613:25614   */\n      0x00\n        /* \"#utility.yul\":25610:25611   */\n      dup1\n        /* \"#utility.yul\":25603:25615   */\n      revert\n        /* \"#utility.yul\":25627:25744   */\n    tag_262:\n        /* \"#utility.yul\":25736:25737   */\n      0x00\n        /* \"#utility.yul\":25733:25734   */\n      dup1\n        /* \"#utility.yul\":25726:25738   */\n      revert\n        /* \"#utility.yul\":25750:25867   */\n    tag_237:\n        /* \"#utility.yul\":25859:25860   */\n      0x00\n        /* \"#utility.yul\":25856:25857   */\n      dup1\n        /* \"#utility.yul\":25849:25861   */\n      revert\n        /* \"#utility.yul\":25873:25990   */\n    tag_286:\n        /* \"#utility.yul\":25982:25983   */\n      0x00\n        /* \"#utility.yul\":25979:25980   */\n      dup1\n        /* \"#utility.yul\":25972:25984   */\n      revert\n        /* \"#utility.yul\":25996:26113   */\n    tag_275:\n        /* \"#utility.yul\":26105:26106   */\n      0x00\n        /* \"#utility.yul\":26102:26103   */\n      dup1\n        /* \"#utility.yul\":26095:26107   */\n      revert\n        /* \"#utility.yul\":26119:26221   */\n    tag_363:\n        /* \"#utility.yul\":26160:26166   */\n      0x00\n        /* \"#utility.yul\":26211:26213   */\n      0x1f\n        /* \"#utility.yul\":26207:26214   */\n      not\n        /* \"#utility.yul\":26202:26204   */\n      0x1f\n        /* \"#utility.yul\":26195:26200   */\n      dup4\n        /* \"#utility.yul\":26191:26205   */\n      add\n        /* \"#utility.yul\":26187:26215   */\n      and\n        /* \"#utility.yul\":26177:26215   */\n      swap1\n      pop\n        /* \"#utility.yul\":26119:26221   */\n      swap2\n      swap1\n      pop\n      jump\t// out\n        /* \"#utility.yul\":26227:26333   */\n    tag_533:\n        /* \"#utility.yul\":26271:26279   */\n      0x00\n        /* \"#utility.yul\":26320:26325   */\n      dup2\n        /* \"#utility.yul\":26315:26318   */\n      0xe0\n        /* \"#utility.yul\":26311:26326   */\n      shr\n        /* \"#utility.yul\":26290:26326   */\n      swap1\n      pop\n        /* \"#utility.yul\":26227:26333   */\n      swap2\n      swap1\n      pop\n      jump\t// out\n        /* \"#utility.yul\":26339:26578   */\n    tag_384:\n        /* \"#utility.yul\":26479:26513   */\n      0x455243313135353a207472616e7366657220746f206e6f6e2045524331313535\n        /* \"#utility.yul\":26475:26476   */\n      0x00\n        /* \"#utility.yul\":26467:26473   */\n      dup3\n        /* \"#utility.yul\":26463:26477   */\n      add\n        /* \"#utility.yul\":26456:26514   */\n      mstore\n        /* \"#utility.yul\":26548:26570   */\n      0x526563656976657220696d706c656d656e746572000000000000000000000000\n        /* \"#utility.yul\":26543:26545   */\n      0x20\n        /* \"#utility.yul\":26535:26541   */\n      dup3\n        /* \"#utility.yul\":26531:26546   */\n      add\n        /* \"#utility.yul\":26524:26571   */\n      mstore\n        /* \"#utility.yul\":26339:26578   */\n      pop\n      jump\t// out\n        /* \"#utility.yul\":26584:26818   */\n    tag_389:\n        /* \"#utility.yul\":26724:26758   */\n      0x455243313135353a2063616c6c6572206973206e6f7420746f6b656e206f776e\n        /* \"#utility.yul\":26720:26721   */\n      0x00\n        /* \"#utility.yul\":26712:26718   */\n      dup3\n        /* \"#utility.yul\":26708:26722   */\n      add\n        /* \"#utility.yul\":26701:26759   */\n      mstore\n        /* \"#utility.yul\":26793:26810   */\n      0x6572206e6f7220617070726f7665640000000000000000000000000000000000\n        /* \"#utility.yul\":26788:26790   */\n      0x20\n        /* \"#utility.yul\":26780:26786   */\n      dup3\n        /* \"#utility.yul\":26776:26791   */\n      add\n        /* \"#utility.yul\":26769:26811   */\n      mstore\n        /* \"#utility.yul\":26584:26818   */\n      pop\n      jump\t// out\n        /* \"#utility.yul\":26824:27051   */\n    tag_394:\n        /* \"#utility.yul\":26964:26998   */\n      0x455243313135353a204552433131353552656365697665722072656a65637465\n        /* \"#utility.yul\":26960:26961   */\n      0x00\n        /* \"#utility.yul\":26952:26958   */\n      dup3\n        /* \"#utility.yul\":26948:26962   */\n      add\n        /* \"#utility.yul\":26941:26999   */\n      mstore\n        /* \"#utility.yul\":27033:27043   */\n      0x6420746f6b656e73000000000000000000000000000000000000000000000000\n        /* \"#utility.yul\":27028:27030   */\n      0x20\n        /* \"#utility.yul\":27020:27026   */\n      dup3\n        /* \"#utility.yul\":27016:27031   */\n      add\n        /* \"#utility.yul\":27009:27044   */\n      mstore\n        /* \"#utility.yul\":26824:27051   */\n      pop\n      jump\t// out\n        /* \"#utility.yul\":27057:27286   */\n    tag_399:\n        /* \"#utility.yul\":27197:27231   */\n      0x455243313135353a2061646472657373207a65726f206973206e6f7420612076\n        /* \"#utility.yul\":27193:27194   */\n      0x00\n        /* \"#utility.yul\":27185:27191   */\n      dup3\n        /* \"#utility.yul\":27181:27195   */\n      add\n        /* \"#utility.yul\":27174:27232   */\n      mstore\n        /* \"#utility.yul\":27266:27278   */\n      0x616c6964206f776e657200000000000000000000000000000000000000000000\n        /* \"#utility.yul\":27261:27263   */\n      0x20\n        /* \"#utility.yul\":27253:27259   */\n      dup3\n        /* \"#utility.yul\":27249:27264   */\n      add\n        /* \"#utility.yul\":27242:27279   */\n      mstore\n        /* \"#utility.yul\":27057:27286   */\n      pop\n      jump\t// out\n        /* \"#utility.yul\":27292:27517   */\n    tag_404:\n        /* \"#utility.yul\":27432:27466   */\n      0x746869732046756e6374696f6e206973206f6e6c792063616c6c656420627920\n        /* \"#utility.yul\":27428:27429   */\n      0x00\n        /* \"#utility.yul\":27420:27426   */\n      dup3\n        /* \"#utility.yul\":27416:27430   */\n      add\n        /* \"#utility.yul\":27409:27467   */\n      mstore\n        /* \"#utility.yul\":27501:27509   */\n      0x7365727665720000000000000000000000000000000000000000000000000000\n        /* \"#utility.yul\":27496:27498   */\n      0x20\n        /* \"#utility.yul\":27488:27494   */\n      dup3\n        /* \"#utility.yul\":27484:27499   */\n      add\n        /* \"#utility.yul\":27477:27510   */\n      mstore\n        /* \"#utility.yul\":27292:27517   */\n      pop\n      jump\t// out\n        /* \"#utility.yul\":27523:27747   */\n    tag_409:\n        /* \"#utility.yul\":27663:27697   */\n      0x455243313135353a207472616e7366657220746f20746865207a65726f206164\n        /* \"#utility.yul\":27659:27660   */\n      0x00\n        /* \"#utility.yul\":27651:27657   */\n      dup3\n        /* \"#utility.yul\":27647:27661   */\n      add\n        /* \"#utility.yul\":27640:27698   */\n      mstore\n        /* \"#utility.yul\":27732:27739   */\n      0x6472657373000000000000000000000000000000000000000000000000000000\n        /* \"#utility.yul\":27727:27729   */\n      0x20\n        /* \"#utility.yul\":27719:27725   */\n      dup3\n        /* \"#utility.yul\":27715:27730   */\n      add\n        /* \"#utility.yul\":27708:27740   */\n      mstore\n        /* \"#utility.yul\":27523:27747   */\n      pop\n      jump\t// out\n        /* \"#utility.yul\":27753:27982   */\n    tag_414:\n        /* \"#utility.yul\":27893:27927   */\n      0x455243313135353a20696e73756666696369656e742062616c616e636520666f\n        /* \"#utility.yul\":27889:27890   */\n      0x00\n        /* \"#utility.yul\":27881:27887   */\n      dup3\n        /* \"#utility.yul\":27877:27891   */\n      add\n        /* \"#utility.yul\":27870:27928   */\n      mstore\n        /* \"#utility.yul\":27962:27974   */\n      0x72207472616e7366657200000000000000000000000000000000000000000000\n        /* \"#utility.yul\":27957:27959   */\n      0x20\n        /* \"#utility.yul\":27949:27955   */\n      dup3\n        /* \"#utility.yul\":27945:27960   */\n      add\n        /* \"#utility.yul\":27938:27975   */\n      mstore\n        /* \"#utility.yul\":27753:27982   */\n      pop\n      jump\t// out\n        /* \"#utility.yul\":27988:28208   */\n    tag_419:\n        /* \"#utility.yul\":28128:28162   */\n      0x455243313135353a206d696e7420746f20746865207a65726f20616464726573\n        /* \"#utility.yul\":28124:28125   */\n      0x00\n        /* \"#utility.yul\":28116:28122   */\n      dup3\n        /* \"#utility.yul\":28112:28126   */\n      add\n        /* \"#utility.yul\":28105:28163   */\n      mstore\n        /* \"#utility.yul\":28197:28200   */\n      0x7300000000000000000000000000000000000000000000000000000000000000\n        /* \"#utility.yul\":28192:28194   */\n      0x20\n        /* \"#utility.yul\":28184:28190   */\n      dup3\n        /* \"#utility.yul\":28180:28195   */\n      add\n        /* \"#utility.yul\":28173:28201   */\n      mstore\n        /* \"#utility.yul\":27988:28208   */\n      pop\n      jump\t// out\n        /* \"#utility.yul\":28214:28925   */\n    tag_217:\n        /* \"#utility.yul\":28253:28256   */\n      0x00\n        /* \"#utility.yul\":28291:28295   */\n      0x44\n        /* \"#utility.yul\":28273:28289   */\n      returndatasize\n        /* \"#utility.yul\":28270:28296   */\n      lt\n        /* \"#utility.yul\":28267:28306   */\n      iszero\n      tag_551\n      jumpi\n        /* \"#utility.yul\":28299:28304   */\n      jump(tag_550)\n        /* \"#utility.yul\":28267:28306   */\n    tag_551:\n        /* \"#utility.yul\":28328:28348   */\n      tag_552\n      tag_479\n      jump\t// in\n    tag_552:\n        /* \"#utility.yul\":28403:28404   */\n      0x04\n        /* \"#utility.yul\":28385:28401   */\n      returndatasize\n        /* \"#utility.yul\":28381:28405   */\n      sub\n        /* \"#utility.yul\":28378:28379   */\n      0x04\n        /* \"#utility.yul\":28372:28376   */\n      dup3\n        /* \"#utility.yul\":28357:28406   */\n      returndatacopy\n        /* \"#utility.yul\":28436:28440   */\n      dup1\n        /* \"#utility.yul\":28430:28441   */\n      mload\n        /* \"#utility.yul\":28535:28551   */\n      returndatasize\n        /* \"#utility.yul\":28528:28532   */\n      0x24\n        /* \"#utility.yul\":28520:28526   */\n      dup3\n        /* \"#utility.yul\":28516:28533   */\n      add\n        /* \"#utility.yul\":28513:28552   */\n      gt\n        /* \"#utility.yul\":28480:28498   */\n      0xffffffffffffffff\n        /* \"#utility.yul\":28472:28478   */\n      dup3\n        /* \"#utility.yul\":28469:28499   */\n      gt\n        /* \"#utility.yul\":28453:28566   */\n      or\n        /* \"#utility.yul\":28450:28596   */\n      iszero\n      tag_553\n      jumpi\n        /* \"#utility.yul\":28581:28586   */\n      pop\n      pop\n      jump(tag_550)\n        /* \"#utility.yul\":28450:28596   */\n    tag_553:\n        /* \"#utility.yul\":28627:28633   */\n      dup1\n        /* \"#utility.yul\":28621:28625   */\n      dup3\n        /* \"#utility.yul\":28617:28634   */\n      add\n        /* \"#utility.yul\":28663:28666   */\n      dup1\n        /* \"#utility.yul\":28657:28667   */\n      mload\n        /* \"#utility.yul\":28690:28708   */\n      0xffffffffffffffff\n        /* \"#utility.yul\":28682:28688   */\n      dup2\n        /* \"#utility.yul\":28679:28709   */\n      gt\n        /* \"#utility.yul\":28676:28719   */\n      iszero\n      tag_554\n      jumpi\n        /* \"#utility.yul\":28712:28717   */\n      pop\n      pop\n      pop\n      pop\n      jump(tag_550)\n        /* \"#utility.yul\":28676:28719   */\n    tag_554:\n        /* \"#utility.yul\":28760:28766   */\n      dup1\n        /* \"#utility.yul\":28753:28757   */\n      0x20\n        /* \"#utility.yul\":28748:28751   */\n      dup4\n        /* \"#utility.yul\":28744:28758   */\n      add\n        /* \"#utility.yul\":28740:28767   */\n      add\n        /* \"#utility.yul\":28819:28820   */\n      0x04\n        /* \"#utility.yul\":28801:28817   */\n      returndatasize\n        /* \"#utility.yul\":28797:28821   */\n      sub\n        /* \"#utility.yul\":28791:28795   */\n      dup6\n        /* \"#utility.yul\":28787:28822   */\n      add\n        /* \"#utility.yul\":28782:28785   */\n      dup2\n        /* \"#utility.yul\":28779:28823   */\n      gt\n        /* \"#utility.yul\":28776:28833   */\n      iszero\n      tag_555\n      jumpi\n        /* \"#utility.yul\":28826:28831   */\n      pop\n      pop\n      pop\n      pop\n      pop\n      jump(tag_550)\n        /* \"#utility.yul\":28776:28833   */\n    tag_555:\n        /* \"#utility.yul\":28843:28900   */\n      tag_556\n        /* \"#utility.yul\":28891:28897   */\n      dup3\n        /* \"#utility.yul\":28885:28889   */\n      0x20\n        /* \"#utility.yul\":28881:28898   */\n      add\n        /* \"#utility.yul\":28873:28879   */\n      dup6\n        /* \"#utility.yul\":28869:28899   */\n      add\n        /* \"#utility.yul\":28863:28867   */\n      dup7\n        /* \"#utility.yul\":28843:28900   */\n      tag_481\n      jump\t// in\n    tag_556:\n        /* \"#utility.yul\":28916:28919   */\n      dup3\n        /* \"#utility.yul\":28909:28919   */\n      swap6\n      pop\n        /* \"#utility.yul\":28257:28925   */\n      pop\n      pop\n      pop\n      pop\n      pop\n        /* \"#utility.yul\":28214:28925   */\n    tag_550:\n      swap1\n      jump\t// out\n        /* \"#utility.yul\":28931:29053   */\n    tag_243:\n        /* \"#utility.yul\":29004:29028   */\n      tag_558\n        /* \"#utility.yul\":29022:29027   */\n      dup2\n        /* \"#utility.yul\":29004:29028   */\n      tag_334\n      jump\t// in\n    tag_558:\n        /* \"#utility.yul\":28997:29002   */\n      dup2\n        /* \"#utility.yul\":28994:29029   */\n      eq\n        /* \"#utility.yul\":28984:29047   */\n      tag_559\n      jumpi\n        /* \"#utility.yul\":29043:29044   */\n      0x00\n        /* \"#utility.yul\":29040:29041   */\n      dup1\n        /* \"#utility.yul\":29033:29045   */\n      revert\n        /* \"#utility.yul\":28984:29047   */\n    tag_559:\n        /* \"#utility.yul\":28931:29053   */\n      pop\n      jump\t// out\n        /* \"#utility.yul\":29059:29175   */\n    tag_247:\n        /* \"#utility.yul\":29129:29150   */\n      tag_561\n        /* \"#utility.yul\":29144:29149   */\n      dup2\n        /* \"#utility.yul\":29129:29150   */\n      tag_352\n      jump\t// in\n    tag_561:\n        /* \"#utility.yul\":29122:29127   */\n      dup2\n        /* \"#utility.yul\":29119:29151   */\n      eq\n        /* \"#utility.yul\":29109:29169   */\n      tag_562\n      jumpi\n        /* \"#utility.yul\":29165:29166   */\n      0x00\n        /* \"#utility.yul\":29162:29163   */\n      dup1\n        /* \"#utility.yul\":29155:29167   */\n      revert\n        /* \"#utility.yul\":29109:29169   */\n    tag_562:\n        /* \"#utility.yul\":29059:29175   */\n      pop\n      jump\t// out\n        /* \"#utility.yul\":29181:29301   */\n    tag_251:\n        /* \"#utility.yul\":29253:29276   */\n      tag_564\n        /* \"#utility.yul\":29270:29275   */\n      dup2\n        /* \"#utility.yul\":29253:29276   */\n      tag_356\n      jump\t// in\n    tag_564:\n        /* \"#utility.yul\":29246:29251   */\n      dup2\n        /* \"#utility.yul\":29243:29277   */\n      eq\n        /* \"#utility.yul\":29233:29295   */\n      tag_565\n      jumpi\n        /* \"#utility.yul\":29291:29292   */\n      0x00\n        /* \"#utility.yul\":29288:29289   */\n      dup1\n        /* \"#utility.yul\":29281:29293   */\n      revert\n        /* \"#utility.yul\":29233:29295   */\n    tag_565:\n        /* \"#utility.yul\":29181:29301   */\n      pop\n      jump\t// out\n        /* \"#utility.yul\":29307:29429   */\n    tag_271:\n        /* \"#utility.yul\":29380:29404   */\n      tag_567\n        /* \"#utility.yul\":29398:29403   */\n      dup2\n        /* \"#utility.yul\":29380:29404   */\n      tag_422\n      jump\t// in\n    tag_567:\n        /* \"#utility.yul\":29373:29378   */\n      dup2\n        /* \"#utility.yul\":29370:29405   */\n      eq\n        /* \"#utility.yul\":29360:29423   */\n      tag_568\n      jumpi\n        /* \"#utility.yul\":29419:29420   */\n      0x00\n        /* \"#utility.yul\":29416:29417   */\n      dup1\n        /* \"#utility.yul\":29409:29421   */\n      revert\n        /* \"#utility.yul\":29360:29423   */\n    tag_568:\n        /* \"#utility.yul\":29307:29429   */\n      pop\n      jump\t// out\n\n    auxdata: 0xa2646970667358221220979fd600e80585f76af4bac48f681e1606ec6a233dc04730e8849a3b86a81ddf64736f6c63430008070033\n}\n",
				"bytecode": {
					"linkReferences": {},
					"object": "60806040523480156200001157600080fd5b5033600260006101000a81548173ffffffffffffffffffffffffffffffffffffffff021916908373ffffffffffffffffffffffffffffffffffffffff1602179055506200006760016064620000d060201b60201c565b6200007b60026032620000d060201b60201c565b6200008f60036021620000d060201b60201c565b620000a360056014620000d060201b60201c565b620000b6600a80620000d060201b60201c565b620000ca60146005620000d060201b60201c565b62000d94565b600260009054906101000a900473ffffffffffffffffffffffffffffffffffffffff1673ffffffffffffffffffffffffffffffffffffffff163373ffffffffffffffffffffffffffffffffffffffff1614806200015857503073ffffffffffffffffffffffffffffffffffffffff163373ffffffffffffffffffffffffffffffffffffffff16145b6200019a576040517f08c379a00000000000000000000000000000000000000000000000000000000081526004016200019190620008e1565b60405180910390fd5b620001bd30838360405180602001604052806000815250620001f960201b60201c565b806003600084815260200190815260200160002054620001de919062000994565b60036000848152602001908152602001600020819055505050565b600073ffffffffffffffffffffffffffffffffffffffff168473ffffffffffffffffffffffffffffffffffffffff1614156200026c576040517f08c379a0000000000000000000000000000000000000000000000000000000008152600401620002639062000903565b60405180910390fd5b60006200027e620003e160201b60201c565b905060006200029385620003e960201b60201c565b90506000620002a885620003e960201b60201c565b9050620002c1836000898585896200046a60201b60201c565b8460008088815260200190815260200160002060008973ffffffffffffffffffffffffffffffffffffffff1673ffffffffffffffffffffffffffffffffffffffff168152602001908152602001600020600082825462000322919062000994565b925050819055508673ffffffffffffffffffffffffffffffffffffffff16600073ffffffffffffffffffffffffffffffffffffffff168473ffffffffffffffffffffffffffffffffffffffff167fc3d58168c5ae7397731d063d5bbf3d657854427343f4c083240f7aacaa2d0f628989604051620003a292919062000925565b60405180910390a4620003c1836000898585896200047260201b60201c565b620003d8836000898989896200047a60201b60201c565b50505050505050565b600033905090565b60606000600167ffffffffffffffff8111156200040b576200040a62000b25565b5b6040519080825280602002602001820160405280156200043a5781602001602082028036833780820191505090505b509050828160008151811062000455576200045462000af6565b5b60200260200101818152505080915050919050565b505050505050565b505050505050565b6200048b846200066960201b60201c565b1562000661578373ffffffffffffffffffffffffffffffffffffffff1663f23a6e6187878686866040518663ffffffff1660e01b8152600401620004d495949392919062000815565b602060405180830381600087803b158015620004ef57600080fd5b505af19250505080156200052357506040513d601f19601f82011682018060405250810190620005209190620006a3565b60015b620005d5576200053262000b54565b806308c379a014156200059657506200054a62000cd8565b8062000557575062000598565b806040517f08c379a00000000000000000000000000000000000000000000000000000000081526004016200058d919062000879565b60405180910390fd5b505b6040517f08c379a0000000000000000000000000000000000000000000000000000000008152600401620005cc906200089d565b60405180910390fd5b63f23a6e6160e01b7bffffffffffffffffffffffffffffffffffffffffffffffffffffffff1916817bffffffffffffffffffffffffffffffffffffffffffffffffffffffff1916146200065f576040517f08c379a00000000000000000000000000000000000000000000000000000000081526004016200065690620008bf565b60405180910390fd5b505b505050505050565b6000808273ffffffffffffffffffffffffffffffffffffffff163b119050919050565b6000815190506200069d8162000d7a565b92915050565b600060208284031215620006bc57620006bb62000b79565b5b6000620006cc848285016200068c565b91505092915050565b620006e081620009f1565b82525050565b6000620006f3826200095c565b620006ff818562000972565b93506200071181856020860162000a5b565b6200071c8162000b7e565b840191505092915050565b6000620007348262000967565b62000740818562000983565b93506200075281856020860162000a5b565b6200075d8162000b7e565b840191505092915050565b60006200077760348362000983565b9150620007848262000b9c565b604082019050919050565b60006200079e60288362000983565b9150620007ab8262000beb565b604082019050919050565b6000620007c560268362000983565b9150620007d28262000c3a565b604082019050919050565b6000620007ec60218362000983565b9150620007f98262000c89565b604082019050919050565b6200080f8162000a51565b82525050565b600060a0820190506200082c6000830188620006d5565b6200083b6020830187620006d5565b6200084a604083018662000804565b62000859606083018562000804565b81810360808301526200086d8184620006e6565b90509695505050505050565b6000602082019050818103600083015262000895818462000727565b905092915050565b60006020820190508181036000830152620008b88162000768565b9050919050565b60006020820190508181036000830152620008da816200078f565b9050919050565b60006020820190508181036000830152620008fc81620007b6565b9050919050565b600060208201905081810360008301526200091e81620007dd565b9050919050565b60006040820190506200093c600083018562000804565b6200094b602083018462000804565b9392505050565b6000604051905090565b600081519050919050565b600081519050919050565b600082825260208201905092915050565b600082825260208201905092915050565b6000620009a18262000a51565b9150620009ae8362000a51565b9250827fffffffffffffffffffffffffffffffffffffffffffffffffffffffffffffffff03821115620009e657620009e562000ac7565b5b828201905092915050565b6000620009fe8262000a31565b9050919050565b60007fffffffff0000000000000000000000000000000000000000000000000000000082169050919050565b600073ffffffffffffffffffffffffffffffffffffffff82169050919050565b6000819050919050565b60005b8381101562000a7b57808201518184015260208101905062000a5e565b8381111562000a8b576000848401525b50505050565b62000a9c8262000b7e565b810181811067ffffffffffffffff8211171562000abe5762000abd62000b25565b5b80604052505050565b7f4e487b7100000000000000000000000000000000000000000000000000000000600052601160045260246000fd5b7f4e487b7100000000000000000000000000000000000000000000000000000000600052603260045260246000fd5b7f4e487b7100000000000000000000000000000000000000000000000000000000600052604160045260246000fd5b600060033d111562000b765760046000803e62000b7360005162000b8f565b90505b90565b600080fd5b6000601f19601f8301169050919050565b60008160e01c9050919050565b7f455243313135353a207472616e7366657220746f206e6f6e204552433131353560008201527f526563656976657220696d706c656d656e746572000000000000000000000000602082015250565b7f455243313135353a204552433131353552656365697665722072656a6563746560008201527f6420746f6b656e73000000000000000000000000000000000000000000000000602082015250565b7f746869732046756e6374696f6e206973206f6e6c792063616c6c65642062792060008201527f7365727665720000000000000000000000000000000000000000000000000000602082015250565b7f455243313135353a206d696e7420746f20746865207a65726f2061646472657360008201527f7300000000000000000000000000000000000000000000000000000000000000602082015250565b600060443d101562000cea5762000d77565b62000cf462000952565b60043d036004823e80513d602482011167ffffffffffffffff8211171562000d1e57505062000d77565b808201805167ffffffffffffffff81111562000d3e575050505062000d77565b80602083010160043d03850181111562000d5d57505050505062000d77565b62000d6e8260200185018662000a91565b82955050505050505b90565b62000d858162000a05565b811462000d9157600080fd5b50565b6122468062000da46000396000f3fe6080604052600436106100905760003560e01c80639bb7e310116100595780639bb7e31014610194578063e9207304146101d1578063ef3975fd146101fc578063f23a6e6114610227578063f242432a1461026457610090565b8062fdd58e1461009557806322a22ec3146100d25780632344c006146100fd578063242fd0221461013b57806357e875751461016b575b600080fd5b3480156100a157600080fd5b506100bc60048036038101906100b79190611449565b61028d565b6040516100c99190611af6565b60405180910390f35b3480156100de57600080fd5b506100e7610356565b6040516100f49190611af6565b60405180910390f35b34801561010957600080fd5b50610124600480360381019061011f91906114e3565b6103d0565b604051610132929190611967565b60405180910390f35b61015560048036038101906101509190611550565b61053a565b604051610162919061199e565b60405180910390f35b34801561017757600080fd5b50610192600480360381019061018d9190611510565b610646565b005b3480156101a057600080fd5b506101bb60048036038101906101b691906112eb565b610761565b6040516101c8919061182f565b60405180910390f35b3480156101dd57600080fd5b506101e661085e565b6040516101f3919061182f565b60405180910390f35b34801561020857600080fd5b50610211610888565b60405161021e9190611945565b60405180910390f35b34801561023357600080fd5b5061024e60048036038101906102499190611318565b61095d565b60405161025b91906119b9565b60405180910390f35b34801561027057600080fd5b5061028b600480360381019061028691906113b2565b610a05565b005b60008073ffffffffffffffffffffffffffffffffffffffff168373ffffffffffffffffffffffffffffffffffffffff1614156102fe576040517f08c379a00000000000000000000000000000000000000000000000000000000081526004016102f590611a56565b60405180910390fd5b60008083815260200190815260200160002060008473ffffffffffffffffffffffffffffffffffffffff1673ffffffffffffffffffffffffffffffffffffffff16815260200190815260200160002054905092915050565b6000806000905060005b606481116103c857600060036000838152602001908152602001600020541415610389576103b5565b60006003600083815260200190815260200160002054146103b4576001826103b19190611c01565b91505b5b80806103c090611d72565b915050610360565b508091505090565b60608060006103dd610356565b905060006103e9610888565b905060008267ffffffffffffffff81111561040757610406611e19565b5b6040519080825280602002602001820160405280156104355781602001602082028036833780820191505090505b50905060008367ffffffffffffffff81111561045457610453611e19565b5b6040519080825280602002602001820160405280156104825781602001602082028036833780820191505090505b50905060005b8481101561052a578381815181106104a3576104a2611dea565b5b60200260200101518382815181106104be576104bd611dea565b5b602002602001018181525050600360008583815181106104e1576104e0611dea565b5b602002602001015181526020019081526020016000205482828151811061050b5761050a611dea565b5b602002602001018181525050808061052290611d72565b915050610488565b5081819550955050505050915091565b60008173ffffffffffffffffffffffffffffffffffffffff1663e12163d633600260009054906101000a900473ffffffffffffffffffffffffffffffffffffffff16866040518463ffffffff1660e01b815260040161059b9392919061184a565b602060405180830381600087803b1580156105b557600080fd5b505af11580156105c9573d6000803e3d6000fd5b505050506040513d601f19601f820116820180604052508101906105ed9190611489565b50610630303387876040518060400160405280600481526020017f3078303000000000000000000000000000000000000000000000000000000000815250610a05565b61063a8585610ac4565b60019050949350505050565b600260009054906101000a900473ffffffffffffffffffffffffffffffffffffffff1673ffffffffffffffffffffffffffffffffffffffff163373ffffffffffffffffffffffffffffffffffffffff1614806106cd57503073ffffffffffffffffffffffffffffffffffffffff163373ffffffffffffffffffffffffffffffffffffffff16145b61070c576040517f08c379a000000000000000000000000000000000000000000000000000000000815260040161070390611a76565b60405180910390fd5b61072730838360405180602001604052806000815250610afe565b8060036000848152602001908152602001600020546107469190611c01565b60036000848152602001908152602001600020819055505050565b6000600260009054906101000a900473ffffffffffffffffffffffffffffffffffffffff1673ffffffffffffffffffffffffffffffffffffffff163373ffffffffffffffffffffffffffffffffffffffff16146107f3576040517f08c379a00000000000000000000000000000000000000000000000000000000081526004016107ea90611a76565b60405180910390fd5b81600260006101000a81548173ffffffffffffffffffffffffffffffffffffffff021916908373ffffffffffffffffffffffffffffffffffffffff160217905550600260009054906101000a900473ffffffffffffffffffffffffffffffffffffffff169050919050565b6000600260009054906101000a900473ffffffffffffffffffffffffffffffffffffffff16905090565b60606000610894610356565b90506000808267ffffffffffffffff8111156108b3576108b2611e19565b5b6040519080825280602002602001820160405280156108e15781602001602082028036833780820191505090505b50905060005b606481116109535760006003600083815260200190815260200160002054141561091057610940565b8082848151811061092457610923611dea565b5b60200260200101818152505060018361093d9190611c01565b92505b808061094b90611d72565b9150506108e7565b5080935050505090565b600083600360008781526020019081526020016000205461097e9190611c01565b60036000878152602001908152602001600020819055507f20dfa9f79060c8c4d7fe892c97c71bcf6e3b63d1dcf66fea7aefc0211628cf298787878787875a6040516109d09796959493929190611881565b60405180910390a17ff23a6e612e1ff4830e658fe43f4e3cb4a5f8170bd5d9e69fb5d7a7fa9e4fdf9790509695505050505050565b610a0d610caf565b73ffffffffffffffffffffffffffffffffffffffff168573ffffffffffffffffffffffffffffffffffffffff161480610a7157503073ffffffffffffffffffffffffffffffffffffffff168573ffffffffffffffffffffffffffffffffffffffff16145b610ab0576040517f08c379a0000000000000000000000000000000000000000000000000000000008152600401610aa790611a16565b60405180910390fd5b610abd8585858585610cb7565b5050505050565b806003600084815260200190815260200160002054610ae39190611c57565b60036000848152602001908152602001600020819055505050565b600073ffffffffffffffffffffffffffffffffffffffff168473ffffffffffffffffffffffffffffffffffffffff161415610b6e576040517f08c379a0000000000000000000000000000000000000000000000000000000008152600401610b6590611ad6565b60405180910390fd5b6000610b78610caf565b90506000610b8585610f53565b90506000610b9285610f53565b9050610ba383600089858589610fcd565b8460008088815260200190815260200160002060008973ffffffffffffffffffffffffffffffffffffffff1673ffffffffffffffffffffffffffffffffffffffff1681526020019081526020016000206000828254610c029190611c01565b925050819055508673ffffffffffffffffffffffffffffffffffffffff16600073ffffffffffffffffffffffffffffffffffffffff168473ffffffffffffffffffffffffffffffffffffffff167fc3d58168c5ae7397731d063d5bbf3d657854427343f4c083240f7aacaa2d0f628989604051610c80929190611b11565b60405180910390a4610c9783600089858589610fd5565b610ca683600089898989610fdd565b50505050505050565b600033905090565b600073ffffffffffffffffffffffffffffffffffffffff168473ffffffffffffffffffffffffffffffffffffffff161415610d27576040517f08c379a0000000000000000000000000000000000000000000000000000000008152600401610d1e90611a96565b60405180910390fd5b6000610d31610caf565b90506000610d3e85610f53565b90506000610d4b85610f53565b9050610d5b838989858589610fcd565b600080600088815260200190815260200160002060008a73ffffffffffffffffffffffffffffffffffffffff1673ffffffffffffffffffffffffffffffffffffffff16815260200190815260200160002054905085811015610df2576040517f08c379a0000000000000000000000000000000000000000000000000000000008152600401610de990611ab6565b60405180910390fd5b85810360008089815260200190815260200160002060008b73ffffffffffffffffffffffffffffffffffffffff1673ffffffffffffffffffffffffffffffffffffffff168152602001908152602001600020819055508560008089815260200190815260200160002060008a73ffffffffffffffffffffffffffffffffffffffff1673ffffffffffffffffffffffffffffffffffffffff1681526020019081526020016000206000828254610ea79190611c01565b925050819055508773ffffffffffffffffffffffffffffffffffffffff168973ffffffffffffffffffffffffffffffffffffffff168573ffffffffffffffffffffffffffffffffffffffff167fc3d58168c5ae7397731d063d5bbf3d657854427343f4c083240f7aacaa2d0f628a8a604051610f24929190611b11565b60405180910390a4610f3a848a8a86868a610fd5565b610f48848a8a8a8a8a610fdd565b505050505050505050565b60606000600167ffffffffffffffff811115610f7257610f71611e19565b5b604051908082528060200260200182016040528015610fa05781602001602082028036833780820191505090505b5090508281600081518110610fb857610fb7611dea565b5b60200260200101818152505080915050919050565b505050505050565b505050505050565b610fe6846111ae565b156111a6578373ffffffffffffffffffffffffffffffffffffffff1663f23a6e6187878686866040518663ffffffff1660e01b815260040161102c9594939291906118eb565b602060405180830381600087803b15801561104657600080fd5b505af192505050801561107757506040513d601f19601f8201168201806040525081019061107491906114b6565b60015b61111d57611083611e48565b806308c379a014156110e0575061109861211e565b806110a357506110e2565b806040517f08c379a00000000000000000000000000000000000000000000000000000000081526004016110d791906119d4565b60405180910390fd5b505b6040517f08c379a0000000000000000000000000000000000000000000000000000000008152600401611114906119f6565b60405180910390fd5b63f23a6e6160e01b7bffffffffffffffffffffffffffffffffffffffffffffffffffffffff1916817bffffffffffffffffffffffffffffffffffffffffffffffffffffffff1916146111a4576040517f08c379a000000000000000000000000000000000000000000000000000000000815260040161119b90611a36565b60405180910390fd5b505b505050505050565b6000808273ffffffffffffffffffffffffffffffffffffffff163b119050919050565b60006111e46111df84611b5f565b611b3a565b905082815260208101848484011115611200576111ff611e79565b5b61120b848285611cff565b509392505050565b600081359050611222816121b4565b92915050565b600081519050611237816121cb565b92915050565b60008151905061124c816121e2565b92915050565b60008083601f84011261126857611267611e6f565b5b8235905067ffffffffffffffff81111561128557611284611e6a565b5b6020830191508360018202830111156112a1576112a0611e74565b5b9250929050565b600082601f8301126112bd576112bc611e6f565b5b81356112cd8482602086016111d1565b91505092915050565b6000813590506112e5816121f9565b92915050565b60006020828403121561130157611300611e83565b5b600061130f84828501611213565b91505092915050565b60008060008060008060a0878903121561133557611334611e83565b5b600061134389828a01611213565b965050602061135489828a01611213565b955050604061136589828a016112d6565b945050606061137689828a016112d6565b935050608087013567ffffffffffffffff81111561139757611396611e7e565b5b6113a389828a01611252565b92509250509295509295509295565b600080600080600060a086880312156113ce576113cd611e83565b5b60006113dc88828901611213565b95505060206113ed88828901611213565b94505060406113fe888289016112d6565b935050606061140f888289016112d6565b925050608086013567ffffffffffffffff8111156114305761142f611e7e565b5b61143c888289016112a8565b9150509295509295909350565b600080604083850312156114605761145f611e83565b5b600061146e85828601611213565b925050602061147f858286016112d6565b9150509250929050565b60006020828403121561149f5761149e611e83565b5b60006114ad84828501611228565b91505092915050565b6000602082840312156114cc576114cb611e83565b5b60006114da8482850161123d565b91505092915050565b6000602082840312156114f9576114f8611e83565b5b6000611507848285016112d6565b91505092915050565b6000806040838503121561152757611526611e83565b5b6000611535858286016112d6565b9250506020611546858286016112d6565b9150509250929050565b6000806000806080858703121561156a57611569611e83565b5b6000611578878288016112d6565b9450506020611589878288016112d6565b935050604061159a878288016112d6565b92505060606115ab87828801611213565b91505092959194509250565b60006115c38383611811565b60208301905092915050565b6115d881611c8b565b82525050565b60006115e982611ba0565b6115f38185611bce565b93506115fe83611b90565b8060005b8381101561162f57815161161688826115b7565b975061162183611bc1565b925050600181019050611602565b5085935050505092915050565b61164581611c9d565b82525050565b61165481611ca9565b82525050565b60006116668385611bdf565b9350611673838584611cff565b61167c83611e88565b840190509392505050565b600061169282611bab565b61169c8185611bdf565b93506116ac818560208601611d0e565b6116b581611e88565b840191505092915050565b60006116cb82611bb6565b6116d58185611bf0565b93506116e5818560208601611d0e565b6116ee81611e88565b840191505092915050565b6000611706603483611bf0565b915061171182611ea6565b604082019050919050565b6000611729602f83611bf0565b915061173482611ef5565b604082019050919050565b600061174c602883611bf0565b915061175782611f44565b604082019050919050565b600061176f602a83611bf0565b915061177a82611f93565b604082019050919050565b6000611792602683611bf0565b915061179d82611fe2565b604082019050919050565b60006117b5602583611bf0565b91506117c082612031565b604082019050919050565b60006117d8602a83611bf0565b91506117e382612080565b604082019050919050565b60006117fb602183611bf0565b9150611806826120cf565b604082019050919050565b61181a81611cf5565b82525050565b61182981611cf5565b82525050565b600060208201905061184460008301846115cf565b92915050565b600060608201905061185f60008301866115cf565b61186c60208301856115cf565b6118796040830184611820565b949350505050565b600060c082019050611896600083018a6115cf565b6118a360208301896115cf565b6118b06040830188611820565b6118bd6060830187611820565b81810360808301526118d081858761165a565b90506118df60a0830184611820565b98975050505050505050565b600060a08201905061190060008301886115cf565b61190d60208301876115cf565b61191a6040830186611820565b6119276060830185611820565b81810360808301526119398184611687565b90509695505050505050565b6000602082019050818103600083015261195f81846115de565b905092915050565b6000604082019050818103600083015261198181856115de565b9050818103602083015261199581846115de565b90509392505050565b60006020820190506119b3600083018461163c565b92915050565b60006020820190506119ce600083018461164b565b92915050565b600060208201905081810360008301526119ee81846116c0565b905092915050565b60006020820190508181036000830152611a0f816116f9565b9050919050565b60006020820190508181036000830152611a2f8161171c565b9050919050565b60006020820190508181036000830152611a4f8161173f565b9050919050565b60006020820190508181036000830152611a6f81611762565b9050919050565b60006020820190508181036000830152611a8f81611785565b9050919050565b60006020820190508181036000830152611aaf816117a8565b9050919050565b60006020820190508181036000830152611acf816117cb565b9050919050565b60006020820190508181036000830152611aef816117ee565b9050919050565b6000602082019050611b0b6000830184611820565b92915050565b6000604082019050611b266000830185611820565b611b336020830184611820565b9392505050565b6000611b44611b55565b9050611b508282611d41565b919050565b6000604051905090565b600067ffffffffffffffff821115611b7a57611b79611e19565b5b611b8382611e88565b9050602081019050919050565b6000819050602082019050919050565b600081519050919050565b600081519050919050565b600081519050919050565b6000602082019050919050565b600082825260208201905092915050565b600082825260208201905092915050565b600082825260208201905092915050565b6000611c0c82611cf5565b9150611c1783611cf5565b9250827fffffffffffffffffffffffffffffffffffffffffffffffffffffffffffffffff03821115611c4c57611c4b611dbb565b5b828201905092915050565b6000611c6282611cf5565b9150611c6d83611cf5565b925082821015611c8057611c7f611dbb565b5b828203905092915050565b6000611c9682611cd5565b9050919050565b60008115159050919050565b60007fffffffff0000000000000000000000000000000000000000000000000000000082169050919050565b600073ffffffffffffffffffffffffffffffffffffffff82169050919050565b6000819050919050565b82818337600083830152505050565b60005b83811015611d2c578082015181840152602081019050611d11565b83811115611d3b576000848401525b50505050565b611d4a82611e88565b810181811067ffffffffffffffff82111715611d6957611d68611e19565b5b80604052505050565b6000611d7d82611cf5565b91507fffffffffffffffffffffffffffffffffffffffffffffffffffffffffffffffff821415611db057611daf611dbb565b5b600182019050919050565b7f4e487b7100000000000000000000000000000000000000000000000000000000600052601160045260246000fd5b7f4e487b7100000000000000000000000000000000000000000000000000000000600052603260045260246000fd5b7f4e487b7100000000000000000000000000000000000000000000000000000000600052604160045260246000fd5b600060033d1115611e675760046000803e611e64600051611e99565b90505b90565b600080fd5b600080fd5b600080fd5b600080fd5b600080fd5b600080fd5b6000601f19601f8301169050919050565b60008160e01c9050919050565b7f455243313135353a207472616e7366657220746f206e6f6e204552433131353560008201527f526563656976657220696d706c656d656e746572000000000000000000000000602082015250565b7f455243313135353a2063616c6c6572206973206e6f7420746f6b656e206f776e60008201527f6572206e6f7220617070726f7665640000000000000000000000000000000000602082015250565b7f455243313135353a204552433131353552656365697665722072656a6563746560008201527f6420746f6b656e73000000000000000000000000000000000000000000000000602082015250565b7f455243313135353a2061646472657373207a65726f206973206e6f742061207660008201527f616c6964206f776e657200000000000000000000000000000000000000000000602082015250565b7f746869732046756e6374696f6e206973206f6e6c792063616c6c65642062792060008201527f7365727665720000000000000000000000000000000000000000000000000000602082015250565b7f455243313135353a207472616e7366657220746f20746865207a65726f20616460008201527f6472657373000000000000000000000000000000000000000000000000000000602082015250565b7f455243313135353a20696e73756666696369656e742062616c616e636520666f60008201527f72207472616e7366657200000000000000000000000000000000000000000000602082015250565b7f455243313135353a206d696e7420746f20746865207a65726f2061646472657360008201527f7300000000000000000000000000000000000000000000000000000000000000602082015250565b600060443d101561212e576121b1565b612136611b55565b60043d036004823e80513d602482011167ffffffffffffffff8211171561215e5750506121b1565b808201805167ffffffffffffffff81111561217c57505050506121b1565b80602083010160043d0385018111156121995750505050506121b1565b6121a882602001850186611d41565b82955050505050505b90565b6121bd81611c8b565b81146121c857600080fd5b50565b6121d481611c9d565b81146121df57600080fd5b50565b6121eb81611ca9565b81146121f657600080fd5b50565b61220281611cf5565b811461220d57600080fd5b5056fea2646970667358221220979fd600e80585f76af4bac48f681e1606ec6a233dc04730e8849a3b86a81ddf64736f6c63430008070033",
					"opcodes": "PUSH1 0x80 PUSH1 0x40 MSTORE CALLVALUE DUP1 ISZERO PUSH3 0x11 JUMPI PUSH1 0x0 DUP1 REVERT JUMPDEST POP CALLER PUSH1 0x2 PUSH1 0x0 PUSH2 0x100 EXP DUP2 SLOAD DUP2 PUSH20 0xFFFFFFFFFFFFFFFFFFFFFFFFFFFFFFFFFFFFFFFF MUL NOT AND SWAP1 DUP4 PUSH20 0xFFFFFFFFFFFFFFFFFFFFFFFFFFFFFFFFFFFFFFFF AND MUL OR SWAP1 SSTORE POP PUSH3 0x67 PUSH1 0x1 PUSH1 0x64 PUSH3 0xD0 PUSH1 0x20 SHL PUSH1 0x20 SHR JUMP JUMPDEST PUSH3 0x7B PUSH1 0x2 PUSH1 0x32 PUSH3 0xD0 PUSH1 0x20 SHL PUSH1 0x20 SHR JUMP JUMPDEST PUSH3 0x8F PUSH1 0x3 PUSH1 0x21 PUSH3 0xD0 PUSH1 0x20 SHL PUSH1 0x20 SHR JUMP JUMPDEST PUSH3 0xA3 PUSH1 0x5 PUSH1 0x14 PUSH3 0xD0 PUSH1 0x20 SHL PUSH1 0x20 SHR JUMP JUMPDEST PUSH3 0xB6 PUSH1 0xA DUP1 PUSH3 0xD0 PUSH1 0x20 SHL PUSH1 0x20 SHR JUMP JUMPDEST PUSH3 0xCA PUSH1 0x14 PUSH1 0x5 PUSH3 0xD0 PUSH1 0x20 SHL PUSH1 0x20 SHR JUMP JUMPDEST PUSH3 0xD94 JUMP JUMPDEST PUSH1 0x2 PUSH1 0x0 SWAP1 SLOAD SWAP1 PUSH2 0x100 EXP SWAP1 DIV PUSH20 0xFFFFFFFFFFFFFFFFFFFFFFFFFFFFFFFFFFFFFFFF AND PUSH20 0xFFFFFFFFFFFFFFFFFFFFFFFFFFFFFFFFFFFFFFFF AND CALLER PUSH20 0xFFFFFFFFFFFFFFFFFFFFFFFFFFFFFFFFFFFFFFFF AND EQ DUP1 PUSH3 0x158 JUMPI POP ADDRESS PUSH20 0xFFFFFFFFFFFFFFFFFFFFFFFFFFFFFFFFFFFFFFFF AND CALLER PUSH20 0xFFFFFFFFFFFFFFFFFFFFFFFFFFFFFFFFFFFFFFFF AND EQ JUMPDEST PUSH3 0x19A JUMPI PUSH1 0x40 MLOAD PUSH32 0x8C379A000000000000000000000000000000000000000000000000000000000 DUP2 MSTORE PUSH1 0x4 ADD PUSH3 0x191 SWAP1 PUSH3 0x8E1 JUMP JUMPDEST PUSH1 0x40 MLOAD DUP1 SWAP2 SUB SWAP1 REVERT JUMPDEST PUSH3 0x1BD ADDRESS DUP4 DUP4 PUSH1 0x40 MLOAD DUP1 PUSH1 0x20 ADD PUSH1 0x40 MSTORE DUP1 PUSH1 0x0 DUP2 MSTORE POP PUSH3 0x1F9 PUSH1 0x20 SHL PUSH1 0x20 SHR JUMP JUMPDEST DUP1 PUSH1 0x3 PUSH1 0x0 DUP5 DUP2 MSTORE PUSH1 0x20 ADD SWAP1 DUP2 MSTORE PUSH1 0x20 ADD PUSH1 0x0 KECCAK256 SLOAD PUSH3 0x1DE SWAP2 SWAP1 PUSH3 0x994 JUMP JUMPDEST PUSH1 0x3 PUSH1 0x0 DUP5 DUP2 MSTORE PUSH1 0x20 ADD SWAP1 DUP2 MSTORE PUSH1 0x20 ADD PUSH1 0x0 KECCAK256 DUP2 SWAP1 SSTORE POP POP POP JUMP JUMPDEST PUSH1 0x0 PUSH20 0xFFFFFFFFFFFFFFFFFFFFFFFFFFFFFFFFFFFFFFFF AND DUP5 PUSH20 0xFFFFFFFFFFFFFFFFFFFFFFFFFFFFFFFFFFFFFFFF AND EQ ISZERO PUSH3 0x26C JUMPI PUSH1 0x40 MLOAD PUSH32 0x8C379A000000000000000000000000000000000000000000000000000000000 DUP2 MSTORE PUSH1 0x4 ADD PUSH3 0x263 SWAP1 PUSH3 0x903 JUMP JUMPDEST PUSH1 0x40 MLOAD DUP1 SWAP2 SUB SWAP1 REVERT JUMPDEST PUSH1 0x0 PUSH3 0x27E PUSH3 0x3E1 PUSH1 0x20 SHL PUSH1 0x20 SHR JUMP JUMPDEST SWAP1 POP PUSH1 0x0 PUSH3 0x293 DUP6 PUSH3 0x3E9 PUSH1 0x20 SHL PUSH1 0x20 SHR JUMP JUMPDEST SWAP1 POP PUSH1 0x0 PUSH3 0x2A8 DUP6 PUSH3 0x3E9 PUSH1 0x20 SHL PUSH1 0x20 SHR JUMP JUMPDEST SWAP1 POP PUSH3 0x2C1 DUP4 PUSH1 0x0 DUP10 DUP6 DUP6 DUP10 PUSH3 0x46A PUSH1 0x20 SHL PUSH1 0x20 SHR JUMP JUMPDEST DUP5 PUSH1 0x0 DUP1 DUP9 DUP2 MSTORE PUSH1 0x20 ADD SWAP1 DUP2 MSTORE PUSH1 0x20 ADD PUSH1 0x0 KECCAK256 PUSH1 0x0 DUP10 PUSH20 0xFFFFFFFFFFFFFFFFFFFFFFFFFFFFFFFFFFFFFFFF AND PUSH20 0xFFFFFFFFFFFFFFFFFFFFFFFFFFFFFFFFFFFFFFFF AND DUP2 MSTORE PUSH1 0x20 ADD SWAP1 DUP2 MSTORE PUSH1 0x20 ADD PUSH1 0x0 KECCAK256 PUSH1 0x0 DUP3 DUP3 SLOAD PUSH3 0x322 SWAP2 SWAP1 PUSH3 0x994 JUMP JUMPDEST SWAP3 POP POP DUP2 SWAP1 SSTORE POP DUP7 PUSH20 0xFFFFFFFFFFFFFFFFFFFFFFFFFFFFFFFFFFFFFFFF AND PUSH1 0x0 PUSH20 0xFFFFFFFFFFFFFFFFFFFFFFFFFFFFFFFFFFFFFFFF AND DUP5 PUSH20 0xFFFFFFFFFFFFFFFFFFFFFFFFFFFFFFFFFFFFFFFF AND PUSH32 0xC3D58168C5AE7397731D063D5BBF3D657854427343F4C083240F7AACAA2D0F62 DUP10 DUP10 PUSH1 0x40 MLOAD PUSH3 0x3A2 SWAP3 SWAP2 SWAP1 PUSH3 0x925 JUMP JUMPDEST PUSH1 0x40 MLOAD DUP1 SWAP2 SUB SWAP1 LOG4 PUSH3 0x3C1 DUP4 PUSH1 0x0 DUP10 DUP6 DUP6 DUP10 PUSH3 0x472 PUSH1 0x20 SHL PUSH1 0x20 SHR JUMP JUMPDEST PUSH3 0x3D8 DUP4 PUSH1 0x0 DUP10 DUP10 DUP10 DUP10 PUSH3 0x47A PUSH1 0x20 SHL PUSH1 0x20 SHR JUMP JUMPDEST POP POP POP POP POP POP POP JUMP JUMPDEST PUSH1 0x0 CALLER SWAP1 POP SWAP1 JUMP JUMPDEST PUSH1 0x60 PUSH1 0x0 PUSH1 0x1 PUSH8 0xFFFFFFFFFFFFFFFF DUP2 GT ISZERO PUSH3 0x40B JUMPI PUSH3 0x40A PUSH3 0xB25 JUMP JUMPDEST JUMPDEST PUSH1 0x40 MLOAD SWAP1 DUP1 DUP3 MSTORE DUP1 PUSH1 0x20 MUL PUSH1 0x20 ADD DUP3 ADD PUSH1 0x40 MSTORE DUP1 ISZERO PUSH3 0x43A JUMPI DUP2 PUSH1 0x20 ADD PUSH1 0x20 DUP3 MUL DUP1 CALLDATASIZE DUP4 CALLDATACOPY DUP1 DUP3 ADD SWAP2 POP POP SWAP1 POP JUMPDEST POP SWAP1 POP DUP3 DUP2 PUSH1 0x0 DUP2 MLOAD DUP2 LT PUSH3 0x455 JUMPI PUSH3 0x454 PUSH3 0xAF6 JUMP JUMPDEST JUMPDEST PUSH1 0x20 MUL PUSH1 0x20 ADD ADD DUP2 DUP2 MSTORE POP POP DUP1 SWAP2 POP POP SWAP2 SWAP1 POP JUMP JUMPDEST POP POP POP POP POP POP JUMP JUMPDEST POP POP POP POP POP POP JUMP JUMPDEST PUSH3 0x48B DUP5 PUSH3 0x669 PUSH1 0x20 SHL PUSH1 0x20 SHR JUMP JUMPDEST ISZERO PUSH3 0x661 JUMPI DUP4 PUSH20 0xFFFFFFFFFFFFFFFFFFFFFFFFFFFFFFFFFFFFFFFF AND PUSH4 0xF23A6E61 DUP8 DUP8 DUP7 DUP7 DUP7 PUSH1 0x40 MLOAD DUP7 PUSH4 0xFFFFFFFF AND PUSH1 0xE0 SHL DUP2 MSTORE PUSH1 0x4 ADD PUSH3 0x4D4 SWAP6 SWAP5 SWAP4 SWAP3 SWAP2 SWAP1 PUSH3 0x815 JUMP JUMPDEST PUSH1 0x20 PUSH1 0x40 MLOAD DUP1 DUP4 SUB DUP2 PUSH1 0x0 DUP8 DUP1 EXTCODESIZE ISZERO DUP1 ISZERO PUSH3 0x4EF JUMPI PUSH1 0x0 DUP1 REVERT JUMPDEST POP GAS CALL SWAP3 POP POP POP DUP1 ISZERO PUSH3 0x523 JUMPI POP PUSH1 0x40 MLOAD RETURNDATASIZE PUSH1 0x1F NOT PUSH1 0x1F DUP3 ADD AND DUP3 ADD DUP1 PUSH1 0x40 MSTORE POP DUP2 ADD SWAP1 PUSH3 0x520 SWAP2 SWAP1 PUSH3 0x6A3 JUMP JUMPDEST PUSH1 0x1 JUMPDEST PUSH3 0x5D5 JUMPI PUSH3 0x532 PUSH3 0xB54 JUMP JUMPDEST DUP1 PUSH4 0x8C379A0 EQ ISZERO PUSH3 0x596 JUMPI POP PUSH3 0x54A PUSH3 0xCD8 JUMP JUMPDEST DUP1 PUSH3 0x557 JUMPI POP PUSH3 0x598 JUMP JUMPDEST DUP1 PUSH1 0x40 MLOAD PUSH32 0x8C379A000000000000000000000000000000000000000000000000000000000 DUP2 MSTORE PUSH1 0x4 ADD PUSH3 0x58D SWAP2 SWAP1 PUSH3 0x879 JUMP JUMPDEST PUSH1 0x40 MLOAD DUP1 SWAP2 SUB SWAP1 REVERT JUMPDEST POP JUMPDEST PUSH1 0x40 MLOAD PUSH32 0x8C379A000000000000000000000000000000000000000000000000000000000 DUP2 MSTORE PUSH1 0x4 ADD PUSH3 0x5CC SWAP1 PUSH3 0x89D JUMP JUMPDEST PUSH1 0x40 MLOAD DUP1 SWAP2 SUB SWAP1 REVERT JUMPDEST PUSH4 0xF23A6E61 PUSH1 0xE0 SHL PUSH28 0xFFFFFFFFFFFFFFFFFFFFFFFFFFFFFFFFFFFFFFFFFFFFFFFFFFFFFFFF NOT AND DUP2 PUSH28 0xFFFFFFFFFFFFFFFFFFFFFFFFFFFFFFFFFFFFFFFFFFFFFFFFFFFFFFFF NOT AND EQ PUSH3 0x65F JUMPI PUSH1 0x40 MLOAD PUSH32 0x8C379A000000000000000000000000000000000000000000000000000000000 DUP2 MSTORE PUSH1 0x4 ADD PUSH3 0x656 SWAP1 PUSH3 0x8BF JUMP JUMPDEST PUSH1 0x40 MLOAD DUP1 SWAP2 SUB SWAP1 REVERT JUMPDEST POP JUMPDEST POP POP POP POP POP POP JUMP JUMPDEST PUSH1 0x0 DUP1 DUP3 PUSH20 0xFFFFFFFFFFFFFFFFFFFFFFFFFFFFFFFFFFFFFFFF AND EXTCODESIZE GT SWAP1 POP SWAP2 SWAP1 POP JUMP JUMPDEST PUSH1 0x0 DUP2 MLOAD SWAP1 POP PUSH3 0x69D DUP2 PUSH3 0xD7A JUMP JUMPDEST SWAP3 SWAP2 POP POP JUMP JUMPDEST PUSH1 0x0 PUSH1 0x20 DUP3 DUP5 SUB SLT ISZERO PUSH3 0x6BC JUMPI PUSH3 0x6BB PUSH3 0xB79 JUMP JUMPDEST JUMPDEST PUSH1 0x0 PUSH3 0x6CC DUP5 DUP3 DUP6 ADD PUSH3 0x68C JUMP JUMPDEST SWAP2 POP POP SWAP3 SWAP2 POP POP JUMP JUMPDEST PUSH3 0x6E0 DUP2 PUSH3 0x9F1 JUMP JUMPDEST DUP3 MSTORE POP POP JUMP JUMPDEST PUSH1 0x0 PUSH3 0x6F3 DUP3 PUSH3 0x95C JUMP JUMPDEST PUSH3 0x6FF DUP2 DUP6 PUSH3 0x972 JUMP JUMPDEST SWAP4 POP PUSH3 0x711 DUP2 DUP6 PUSH1 0x20 DUP7 ADD PUSH3 0xA5B JUMP JUMPDEST PUSH3 0x71C DUP2 PUSH3 0xB7E JUMP JUMPDEST DUP5 ADD SWAP2 POP POP SWAP3 SWAP2 POP POP JUMP JUMPDEST PUSH1 0x0 PUSH3 0x734 DUP3 PUSH3 0x967 JUMP JUMPDEST PUSH3 0x740 DUP2 DUP6 PUSH3 0x983 JUMP JUMPDEST SWAP4 POP PUSH3 0x752 DUP2 DUP6 PUSH1 0x20 DUP7 ADD PUSH3 0xA5B JUMP JUMPDEST PUSH3 0x75D DUP2 PUSH3 0xB7E JUMP JUMPDEST DUP5 ADD SWAP2 POP POP SWAP3 SWAP2 POP POP JUMP JUMPDEST PUSH1 0x0 PUSH3 0x777 PUSH1 0x34 DUP4 PUSH3 0x983 JUMP JUMPDEST SWAP2 POP PUSH3 0x784 DUP3 PUSH3 0xB9C JUMP JUMPDEST PUSH1 0x40 DUP3 ADD SWAP1 POP SWAP2 SWAP1 POP JUMP JUMPDEST PUSH1 0x0 PUSH3 0x79E PUSH1 0x28 DUP4 PUSH3 0x983 JUMP JUMPDEST SWAP2 POP PUSH3 0x7AB DUP3 PUSH3 0xBEB JUMP JUMPDEST PUSH1 0x40 DUP3 ADD SWAP1 POP SWAP2 SWAP1 POP JUMP JUMPDEST PUSH1 0x0 PUSH3 0x7C5 PUSH1 0x26 DUP4 PUSH3 0x983 JUMP JUMPDEST SWAP2 POP PUSH3 0x7D2 DUP3 PUSH3 0xC3A JUMP JUMPDEST PUSH1 0x40 DUP3 ADD SWAP1 POP SWAP2 SWAP1 POP JUMP JUMPDEST PUSH1 0x0 PUSH3 0x7EC PUSH1 0x21 DUP4 PUSH3 0x983 JUMP JUMPDEST SWAP2 POP PUSH3 0x7F9 DUP3 PUSH3 0xC89 JUMP JUMPDEST PUSH1 0x40 DUP3 ADD SWAP1 POP SWAP2 SWAP1 POP JUMP JUMPDEST PUSH3 0x80F DUP2 PUSH3 0xA51 JUMP JUMPDEST DUP3 MSTORE POP POP JUMP JUMPDEST PUSH1 0x0 PUSH1 0xA0 DUP3 ADD SWAP1 POP PUSH3 0x82C PUSH1 0x0 DUP4 ADD DUP9 PUSH3 0x6D5 JUMP JUMPDEST PUSH3 0x83B PUSH1 0x20 DUP4 ADD DUP8 PUSH3 0x6D5 JUMP JUMPDEST PUSH3 0x84A PUSH1 0x40 DUP4 ADD DUP7 PUSH3 0x804 JUMP JUMPDEST PUSH3 0x859 PUSH1 0x60 DUP4 ADD DUP6 PUSH3 0x804 JUMP JUMPDEST DUP2 DUP2 SUB PUSH1 0x80 DUP4 ADD MSTORE PUSH3 0x86D DUP2 DUP5 PUSH3 0x6E6 JUMP JUMPDEST SWAP1 POP SWAP7 SWAP6 POP POP POP POP POP POP JUMP JUMPDEST PUSH1 0x0 PUSH1 0x20 DUP3 ADD SWAP1 POP DUP2 DUP2 SUB PUSH1 0x0 DUP4 ADD MSTORE PUSH3 0x895 DUP2 DUP5 PUSH3 0x727 JUMP JUMPDEST SWAP1 POP SWAP3 SWAP2 POP POP JUMP JUMPDEST PUSH1 0x0 PUSH1 0x20 DUP3 ADD SWAP1 POP DUP2 DUP2 SUB PUSH1 0x0 DUP4 ADD MSTORE PUSH3 0x8B8 DUP2 PUSH3 0x768 JUMP JUMPDEST SWAP1 POP SWAP2 SWAP1 POP JUMP JUMPDEST PUSH1 0x0 PUSH1 0x20 DUP3 ADD SWAP1 POP DUP2 DUP2 SUB PUSH1 0x0 DUP4 ADD MSTORE PUSH3 0x8DA DUP2 PUSH3 0x78F JUMP JUMPDEST SWAP1 POP SWAP2 SWAP1 POP JUMP JUMPDEST PUSH1 0x0 PUSH1 0x20 DUP3 ADD SWAP1 POP DUP2 DUP2 SUB PUSH1 0x0 DUP4 ADD MSTORE PUSH3 0x8FC DUP2 PUSH3 0x7B6 JUMP JUMPDEST SWAP1 POP SWAP2 SWAP1 POP JUMP JUMPDEST PUSH1 0x0 PUSH1 0x20 DUP3 ADD SWAP1 POP DUP2 DUP2 SUB PUSH1 0x0 DUP4 ADD MSTORE PUSH3 0x91E DUP2 PUSH3 0x7DD JUMP JUMPDEST SWAP1 POP SWAP2 SWAP1 POP JUMP JUMPDEST PUSH1 0x0 PUSH1 0x40 DUP3 ADD SWAP1 POP PUSH3 0x93C PUSH1 0x0 DUP4 ADD DUP6 PUSH3 0x804 JUMP JUMPDEST PUSH3 0x94B PUSH1 0x20 DUP4 ADD DUP5 PUSH3 0x804 JUMP JUMPDEST SWAP4 SWAP3 POP POP POP JUMP JUMPDEST PUSH1 0x0 PUSH1 0x40 MLOAD SWAP1 POP SWAP1 JUMP JUMPDEST PUSH1 0x0 DUP2 MLOAD SWAP1 POP SWAP2 SWAP1 POP JUMP JUMPDEST PUSH1 0x0 DUP2 MLOAD SWAP1 POP SWAP2 SWAP1 POP JUMP JUMPDEST PUSH1 0x0 DUP3 DUP3 MSTORE PUSH1 0x20 DUP3 ADD SWAP1 POP SWAP3 SWAP2 POP POP JUMP JUMPDEST PUSH1 0x0 DUP3 DUP3 MSTORE PUSH1 0x20 DUP3 ADD SWAP1 POP SWAP3 SWAP2 POP POP JUMP JUMPDEST PUSH1 0x0 PUSH3 0x9A1 DUP3 PUSH3 0xA51 JUMP JUMPDEST SWAP2 POP PUSH3 0x9AE DUP4 PUSH3 0xA51 JUMP JUMPDEST SWAP3 POP DUP3 PUSH32 0xFFFFFFFFFFFFFFFFFFFFFFFFFFFFFFFFFFFFFFFFFFFFFFFFFFFFFFFFFFFFFFFF SUB DUP3 GT ISZERO PUSH3 0x9E6 JUMPI PUSH3 0x9E5 PUSH3 0xAC7 JUMP JUMPDEST JUMPDEST DUP3 DUP3 ADD SWAP1 POP SWAP3 SWAP2 POP POP JUMP JUMPDEST PUSH1 0x0 PUSH3 0x9FE DUP3 PUSH3 0xA31 JUMP JUMPDEST SWAP1 POP SWAP2 SWAP1 POP JUMP JUMPDEST PUSH1 0x0 PUSH32 0xFFFFFFFF00000000000000000000000000000000000000000000000000000000 DUP3 AND SWAP1 POP SWAP2 SWAP1 POP JUMP JUMPDEST PUSH1 0x0 PUSH20 0xFFFFFFFFFFFFFFFFFFFFFFFFFFFFFFFFFFFFFFFF DUP3 AND SWAP1 POP SWAP2 SWAP1 POP JUMP JUMPDEST PUSH1 0x0 DUP2 SWAP1 POP SWAP2 SWAP1 POP JUMP JUMPDEST PUSH1 0x0 JUMPDEST DUP4 DUP2 LT ISZERO PUSH3 0xA7B JUMPI DUP1 DUP3 ADD MLOAD DUP2 DUP5 ADD MSTORE PUSH1 0x20 DUP2 ADD SWAP1 POP PUSH3 0xA5E JUMP JUMPDEST DUP4 DUP2 GT ISZERO PUSH3 0xA8B JUMPI PUSH1 0x0 DUP5 DUP5 ADD MSTORE JUMPDEST POP POP POP POP JUMP JUMPDEST PUSH3 0xA9C DUP3 PUSH3 0xB7E JUMP JUMPDEST DUP2 ADD DUP2 DUP2 LT PUSH8 0xFFFFFFFFFFFFFFFF DUP3 GT OR ISZERO PUSH3 0xABE JUMPI PUSH3 0xABD PUSH3 0xB25 JUMP JUMPDEST JUMPDEST DUP1 PUSH1 0x40 MSTORE POP POP POP JUMP JUMPDEST PUSH32 0x4E487B7100000000000000000000000000000000000000000000000000000000 PUSH1 0x0 MSTORE PUSH1 0x11 PUSH1 0x4 MSTORE PUSH1 0x24 PUSH1 0x0 REVERT JUMPDEST PUSH32 0x4E487B7100000000000000000000000000000000000000000000000000000000 PUSH1 0x0 MSTORE PUSH1 0x32 PUSH1 0x4 MSTORE PUSH1 0x24 PUSH1 0x0 REVERT JUMPDEST PUSH32 0x4E487B7100000000000000000000000000000000000000000000000000000000 PUSH1 0x0 MSTORE PUSH1 0x41 PUSH1 0x4 MSTORE PUSH1 0x24 PUSH1 0x0 REVERT JUMPDEST PUSH1 0x0 PUSH1 0x3 RETURNDATASIZE GT ISZERO PUSH3 0xB76 JUMPI PUSH1 0x4 PUSH1 0x0 DUP1 RETURNDATACOPY PUSH3 0xB73 PUSH1 0x0 MLOAD PUSH3 0xB8F JUMP JUMPDEST SWAP1 POP JUMPDEST SWAP1 JUMP JUMPDEST PUSH1 0x0 DUP1 REVERT JUMPDEST PUSH1 0x0 PUSH1 0x1F NOT PUSH1 0x1F DUP4 ADD AND SWAP1 POP SWAP2 SWAP1 POP JUMP JUMPDEST PUSH1 0x0 DUP2 PUSH1 0xE0 SHR SWAP1 POP SWAP2 SWAP1 POP JUMP JUMPDEST PUSH32 0x455243313135353A207472616E7366657220746F206E6F6E2045524331313535 PUSH1 0x0 DUP3 ADD MSTORE PUSH32 0x526563656976657220696D706C656D656E746572000000000000000000000000 PUSH1 0x20 DUP3 ADD MSTORE POP JUMP JUMPDEST PUSH32 0x455243313135353A204552433131353552656365697665722072656A65637465 PUSH1 0x0 DUP3 ADD MSTORE PUSH32 0x6420746F6B656E73000000000000000000000000000000000000000000000000 PUSH1 0x20 DUP3 ADD MSTORE POP JUMP JUMPDEST PUSH32 0x746869732046756E6374696F6E206973206F6E6C792063616C6C656420627920 PUSH1 0x0 DUP3 ADD MSTORE PUSH32 0x7365727665720000000000000000000000000000000000000000000000000000 PUSH1 0x20 DUP3 ADD MSTORE POP JUMP JUMPDEST PUSH32 0x455243313135353A206D696E7420746F20746865207A65726F20616464726573 PUSH1 0x0 DUP3 ADD MSTORE PUSH32 0x7300000000000000000000000000000000000000000000000000000000000000 PUSH1 0x20 DUP3 ADD MSTORE POP JUMP JUMPDEST PUSH1 0x0 PUSH1 0x44 RETURNDATASIZE LT ISZERO PUSH3 0xCEA JUMPI PUSH3 0xD77 JUMP JUMPDEST PUSH3 0xCF4 PUSH3 0x952 JUMP JUMPDEST PUSH1 0x4 RETURNDATASIZE SUB PUSH1 0x4 DUP3 RETURNDATACOPY DUP1 MLOAD RETURNDATASIZE PUSH1 0x24 DUP3 ADD GT PUSH8 0xFFFFFFFFFFFFFFFF DUP3 GT OR ISZERO PUSH3 0xD1E JUMPI POP POP PUSH3 0xD77 JUMP JUMPDEST DUP1 DUP3 ADD DUP1 MLOAD PUSH8 0xFFFFFFFFFFFFFFFF DUP2 GT ISZERO PUSH3 0xD3E JUMPI POP POP POP POP PUSH3 0xD77 JUMP JUMPDEST DUP1 PUSH1 0x20 DUP4 ADD ADD PUSH1 0x4 RETURNDATASIZE SUB DUP6 ADD DUP2 GT ISZERO PUSH3 0xD5D JUMPI POP POP POP POP POP PUSH3 0xD77 JUMP JUMPDEST PUSH3 0xD6E DUP3 PUSH1 0x20 ADD DUP6 ADD DUP7 PUSH3 0xA91 JUMP JUMPDEST DUP3 SWAP6 POP POP POP POP POP POP JUMPDEST SWAP1 JUMP JUMPDEST PUSH3 0xD85 DUP2 PUSH3 0xA05 JUMP JUMPDEST DUP2 EQ PUSH3 0xD91 JUMPI PUSH1 0x0 DUP1 REVERT JUMPDEST POP JUMP JUMPDEST PUSH2 0x2246 DUP1 PUSH3 0xDA4 PUSH1 0x0 CODECOPY PUSH1 0x0 RETURN INVALID PUSH1 0x80 PUSH1 0x40 MSTORE PUSH1 0x4 CALLDATASIZE LT PUSH2 0x90 JUMPI PUSH1 0x0 CALLDATALOAD PUSH1 0xE0 SHR DUP1 PUSH4 0x9BB7E310 GT PUSH2 0x59 JUMPI DUP1 PUSH4 0x9BB7E310 EQ PUSH2 0x194 JUMPI DUP1 PUSH4 0xE9207304 EQ PUSH2 0x1D1 JUMPI DUP1 PUSH4 0xEF3975FD EQ PUSH2 0x1FC JUMPI DUP1 PUSH4 0xF23A6E61 EQ PUSH2 0x227 JUMPI DUP1 PUSH4 0xF242432A EQ PUSH2 0x264 JUMPI PUSH2 0x90 JUMP JUMPDEST DUP1 PUSH3 0xFDD58E EQ PUSH2 0x95 JUMPI DUP1 PUSH4 0x22A22EC3 EQ PUSH2 0xD2 JUMPI DUP1 PUSH4 0x2344C006 EQ PUSH2 0xFD JUMPI DUP1 PUSH4 0x242FD022 EQ PUSH2 0x13B JUMPI DUP1 PUSH4 0x57E87575 EQ PUSH2 0x16B JUMPI JUMPDEST PUSH1 0x0 DUP1 REVERT JUMPDEST CALLVALUE DUP1 ISZERO PUSH2 0xA1 JUMPI PUSH1 0x0 DUP1 REVERT JUMPDEST POP PUSH2 0xBC PUSH1 0x4 DUP1 CALLDATASIZE SUB DUP2 ADD SWAP1 PUSH2 0xB7 SWAP2 SWAP1 PUSH2 0x1449 JUMP JUMPDEST PUSH2 0x28D JUMP JUMPDEST PUSH1 0x40 MLOAD PUSH2 0xC9 SWAP2 SWAP1 PUSH2 0x1AF6 JUMP JUMPDEST PUSH1 0x40 MLOAD DUP1 SWAP2 SUB SWAP1 RETURN JUMPDEST CALLVALUE DUP1 ISZERO PUSH2 0xDE JUMPI PUSH1 0x0 DUP1 REVERT JUMPDEST POP PUSH2 0xE7 PUSH2 0x356 JUMP JUMPDEST PUSH1 0x40 MLOAD PUSH2 0xF4 SWAP2 SWAP1 PUSH2 0x1AF6 JUMP JUMPDEST PUSH1 0x40 MLOAD DUP1 SWAP2 SUB SWAP1 RETURN JUMPDEST CALLVALUE DUP1 ISZERO PUSH2 0x109 JUMPI PUSH1 0x0 DUP1 REVERT JUMPDEST POP PUSH2 0x124 PUSH1 0x4 DUP1 CALLDATASIZE SUB DUP2 ADD SWAP1 PUSH2 0x11F SWAP2 SWAP1 PUSH2 0x14E3 JUMP JUMPDEST PUSH2 0x3D0 JUMP JUMPDEST PUSH1 0x40 MLOAD PUSH2 0x132 SWAP3 SWAP2 SWAP1 PUSH2 0x1967 JUMP JUMPDEST PUSH1 0x40 MLOAD DUP1 SWAP2 SUB SWAP1 RETURN JUMPDEST PUSH2 0x155 PUSH1 0x4 DUP1 CALLDATASIZE SUB DUP2 ADD SWAP1 PUSH2 0x150 SWAP2 SWAP1 PUSH2 0x1550 JUMP JUMPDEST PUSH2 0x53A JUMP JUMPDEST PUSH1 0x40 MLOAD PUSH2 0x162 SWAP2 SWAP1 PUSH2 0x199E JUMP JUMPDEST PUSH1 0x40 MLOAD DUP1 SWAP2 SUB SWAP1 RETURN JUMPDEST CALLVALUE DUP1 ISZERO PUSH2 0x177 JUMPI PUSH1 0x0 DUP1 REVERT JUMPDEST POP PUSH2 0x192 PUSH1 0x4 DUP1 CALLDATASIZE SUB DUP2 ADD SWAP1 PUSH2 0x18D SWAP2 SWAP1 PUSH2 0x1510 JUMP JUMPDEST PUSH2 0x646 JUMP JUMPDEST STOP JUMPDEST CALLVALUE DUP1 ISZERO PUSH2 0x1A0 JUMPI PUSH1 0x0 DUP1 REVERT JUMPDEST POP PUSH2 0x1BB PUSH1 0x4 DUP1 CALLDATASIZE SUB DUP2 ADD SWAP1 PUSH2 0x1B6 SWAP2 SWAP1 PUSH2 0x12EB JUMP JUMPDEST PUSH2 0x761 JUMP JUMPDEST PUSH1 0x40 MLOAD PUSH2 0x1C8 SWAP2 SWAP1 PUSH2 0x182F JUMP JUMPDEST PUSH1 0x40 MLOAD DUP1 SWAP2 SUB SWAP1 RETURN JUMPDEST CALLVALUE DUP1 ISZERO PUSH2 0x1DD JUMPI PUSH1 0x0 DUP1 REVERT JUMPDEST POP PUSH2 0x1E6 PUSH2 0x85E JUMP JUMPDEST PUSH1 0x40 MLOAD PUSH2 0x1F3 SWAP2 SWAP1 PUSH2 0x182F JUMP JUMPDEST PUSH1 0x40 MLOAD DUP1 SWAP2 SUB SWAP1 RETURN JUMPDEST CALLVALUE DUP1 ISZERO PUSH2 0x208 JUMPI PUSH1 0x0 DUP1 REVERT JUMPDEST POP PUSH2 0x211 PUSH2 0x888 JUMP JUMPDEST PUSH1 0x40 MLOAD PUSH2 0x21E SWAP2 SWAP1 PUSH2 0x1945 JUMP JUMPDEST PUSH1 0x40 MLOAD DUP1 SWAP2 SUB SWAP1 RETURN JUMPDEST CALLVALUE DUP1 ISZERO PUSH2 0x233 JUMPI PUSH1 0x0 DUP1 REVERT JUMPDEST POP PUSH2 0x24E PUSH1 0x4 DUP1 CALLDATASIZE SUB DUP2 ADD SWAP1 PUSH2 0x249 SWAP2 SWAP1 PUSH2 0x1318 JUMP JUMPDEST PUSH2 0x95D JUMP JUMPDEST PUSH1 0x40 MLOAD PUSH2 0x25B SWAP2 SWAP1 PUSH2 0x19B9 JUMP JUMPDEST PUSH1 0x40 MLOAD DUP1 SWAP2 SUB SWAP1 RETURN JUMPDEST CALLVALUE DUP1 ISZERO PUSH2 0x270 JUMPI PUSH1 0x0 DUP1 REVERT JUMPDEST POP PUSH2 0x28B PUSH1 0x4 DUP1 CALLDATASIZE SUB DUP2 ADD SWAP1 PUSH2 0x286 SWAP2 SWAP1 PUSH2 0x13B2 JUMP JUMPDEST PUSH2 0xA05 JUMP JUMPDEST STOP JUMPDEST PUSH1 0x0 DUP1 PUSH20 0xFFFFFFFFFFFFFFFFFFFFFFFFFFFFFFFFFFFFFFFF AND DUP4 PUSH20 0xFFFFFFFFFFFFFFFFFFFFFFFFFFFFFFFFFFFFFFFF AND EQ ISZERO PUSH2 0x2FE JUMPI PUSH1 0x40 MLOAD PUSH32 0x8C379A000000000000000000000000000000000000000000000000000000000 DUP2 MSTORE PUSH1 0x4 ADD PUSH2 0x2F5 SWAP1 PUSH2 0x1A56 JUMP JUMPDEST PUSH1 0x40 MLOAD DUP1 SWAP2 SUB SWAP1 REVERT JUMPDEST PUSH1 0x0 DUP1 DUP4 DUP2 MSTORE PUSH1 0x20 ADD SWAP1 DUP2 MSTORE PUSH1 0x20 ADD PUSH1 0x0 KECCAK256 PUSH1 0x0 DUP5 PUSH20 0xFFFFFFFFFFFFFFFFFFFFFFFFFFFFFFFFFFFFFFFF AND PUSH20 0xFFFFFFFFFFFFFFFFFFFFFFFFFFFFFFFFFFFFFFFF AND DUP2 MSTORE PUSH1 0x20 ADD SWAP1 DUP2 MSTORE PUSH1 0x20 ADD PUSH1 0x0 KECCAK256 SLOAD SWAP1 POP SWAP3 SWAP2 POP POP JUMP JUMPDEST PUSH1 0x0 DUP1 PUSH1 0x0 SWAP1 POP PUSH1 0x0 JUMPDEST PUSH1 0x64 DUP2 GT PUSH2 0x3C8 JUMPI PUSH1 0x0 PUSH1 0x3 PUSH1 0x0 DUP4 DUP2 MSTORE PUSH1 0x20 ADD SWAP1 DUP2 MSTORE PUSH1 0x20 ADD PUSH1 0x0 KECCAK256 SLOAD EQ ISZERO PUSH2 0x389 JUMPI PUSH2 0x3B5 JUMP JUMPDEST PUSH1 0x0 PUSH1 0x3 PUSH1 0x0 DUP4 DUP2 MSTORE PUSH1 0x20 ADD SWAP1 DUP2 MSTORE PUSH1 0x20 ADD PUSH1 0x0 KECCAK256 SLOAD EQ PUSH2 0x3B4 JUMPI PUSH1 0x1 DUP3 PUSH2 0x3B1 SWAP2 SWAP1 PUSH2 0x1C01 JUMP JUMPDEST SWAP2 POP JUMPDEST JUMPDEST DUP1 DUP1 PUSH2 0x3C0 SWAP1 PUSH2 0x1D72 JUMP JUMPDEST SWAP2 POP POP PUSH2 0x360 JUMP JUMPDEST POP DUP1 SWAP2 POP POP SWAP1 JUMP JUMPDEST PUSH1 0x60 DUP1 PUSH1 0x0 PUSH2 0x3DD PUSH2 0x356 JUMP JUMPDEST SWAP1 POP PUSH1 0x0 PUSH2 0x3E9 PUSH2 0x888 JUMP JUMPDEST SWAP1 POP PUSH1 0x0 DUP3 PUSH8 0xFFFFFFFFFFFFFFFF DUP2 GT ISZERO PUSH2 0x407 JUMPI PUSH2 0x406 PUSH2 0x1E19 JUMP JUMPDEST JUMPDEST PUSH1 0x40 MLOAD SWAP1 DUP1 DUP3 MSTORE DUP1 PUSH1 0x20 MUL PUSH1 0x20 ADD DUP3 ADD PUSH1 0x40 MSTORE DUP1 ISZERO PUSH2 0x435 JUMPI DUP2 PUSH1 0x20 ADD PUSH1 0x20 DUP3 MUL DUP1 CALLDATASIZE DUP4 CALLDATACOPY DUP1 DUP3 ADD SWAP2 POP POP SWAP1 POP JUMPDEST POP SWAP1 POP PUSH1 0x0 DUP4 PUSH8 0xFFFFFFFFFFFFFFFF DUP2 GT ISZERO PUSH2 0x454 JUMPI PUSH2 0x453 PUSH2 0x1E19 JUMP JUMPDEST JUMPDEST PUSH1 0x40 MLOAD SWAP1 DUP1 DUP3 MSTORE DUP1 PUSH1 0x20 MUL PUSH1 0x20 ADD DUP3 ADD PUSH1 0x40 MSTORE DUP1 ISZERO PUSH2 0x482 JUMPI DUP2 PUSH1 0x20 ADD PUSH1 0x20 DUP3 MUL DUP1 CALLDATASIZE DUP4 CALLDATACOPY DUP1 DUP3 ADD SWAP2 POP POP SWAP1 POP JUMPDEST POP SWAP1 POP PUSH1 0x0 JUMPDEST DUP5 DUP2 LT ISZERO PUSH2 0x52A JUMPI DUP4 DUP2 DUP2 MLOAD DUP2 LT PUSH2 0x4A3 JUMPI PUSH2 0x4A2 PUSH2 0x1DEA JUMP JUMPDEST JUMPDEST PUSH1 0x20 MUL PUSH1 0x20 ADD ADD MLOAD DUP4 DUP3 DUP2 MLOAD DUP2 LT PUSH2 0x4BE JUMPI PUSH2 0x4BD PUSH2 0x1DEA JUMP JUMPDEST JUMPDEST PUSH1 0x20 MUL PUSH1 0x20 ADD ADD DUP2 DUP2 MSTORE POP POP PUSH1 0x3 PUSH1 0x0 DUP6 DUP4 DUP2 MLOAD DUP2 LT PUSH2 0x4E1 JUMPI PUSH2 0x4E0 PUSH2 0x1DEA JUMP JUMPDEST JUMPDEST PUSH1 0x20 MUL PUSH1 0x20 ADD ADD MLOAD DUP2 MSTORE PUSH1 0x20 ADD SWAP1 DUP2 MSTORE PUSH1 0x20 ADD PUSH1 0x0 KECCAK256 SLOAD DUP3 DUP3 DUP2 MLOAD DUP2 LT PUSH2 0x50B JUMPI PUSH2 0x50A PUSH2 0x1DEA JUMP JUMPDEST JUMPDEST PUSH1 0x20 MUL PUSH1 0x20 ADD ADD DUP2 DUP2 MSTORE POP POP DUP1 DUP1 PUSH2 0x522 SWAP1 PUSH2 0x1D72 JUMP JUMPDEST SWAP2 POP POP PUSH2 0x488 JUMP JUMPDEST POP DUP2 DUP2 SWAP6 POP SWAP6 POP POP POP POP POP SWAP2 POP SWAP2 JUMP JUMPDEST PUSH1 0x0 DUP2 PUSH20 0xFFFFFFFFFFFFFFFFFFFFFFFFFFFFFFFFFFFFFFFF AND PUSH4 0xE12163D6 CALLER PUSH1 0x2 PUSH1 0x0 SWAP1 SLOAD SWAP1 PUSH2 0x100 EXP SWAP1 DIV PUSH20 0xFFFFFFFFFFFFFFFFFFFFFFFFFFFFFFFFFFFFFFFF AND DUP7 PUSH1 0x40 MLOAD DUP5 PUSH4 0xFFFFFFFF AND PUSH1 0xE0 SHL DUP2 MSTORE PUSH1 0x4 ADD PUSH2 0x59B SWAP4 SWAP3 SWAP2 SWAP1 PUSH2 0x184A JUMP JUMPDEST PUSH1 0x20 PUSH1 0x40 MLOAD DUP1 DUP4 SUB DUP2 PUSH1 0x0 DUP8 DUP1 EXTCODESIZE ISZERO DUP1 ISZERO PUSH2 0x5B5 JUMPI PUSH1 0x0 DUP1 REVERT JUMPDEST POP GAS CALL ISZERO DUP1 ISZERO PUSH2 0x5C9 JUMPI RETURNDATASIZE PUSH1 0x0 DUP1 RETURNDATACOPY RETURNDATASIZE PUSH1 0x0 REVERT JUMPDEST POP POP POP POP PUSH1 0x40 MLOAD RETURNDATASIZE PUSH1 0x1F NOT PUSH1 0x1F DUP3 ADD AND DUP3 ADD DUP1 PUSH1 0x40 MSTORE POP DUP2 ADD SWAP1 PUSH2 0x5ED SWAP2 SWAP1 PUSH2 0x1489 JUMP JUMPDEST POP PUSH2 0x630 ADDRESS CALLER DUP8 DUP8 PUSH1 0x40 MLOAD DUP1 PUSH1 0x40 ADD PUSH1 0x40 MSTORE DUP1 PUSH1 0x4 DUP2 MSTORE PUSH1 0x20 ADD PUSH32 0x3078303000000000000000000000000000000000000000000000000000000000 DUP2 MSTORE POP PUSH2 0xA05 JUMP JUMPDEST PUSH2 0x63A DUP6 DUP6 PUSH2 0xAC4 JUMP JUMPDEST PUSH1 0x1 SWAP1 POP SWAP5 SWAP4 POP POP POP POP JUMP JUMPDEST PUSH1 0x2 PUSH1 0x0 SWAP1 SLOAD SWAP1 PUSH2 0x100 EXP SWAP1 DIV PUSH20 0xFFFFFFFFFFFFFFFFFFFFFFFFFFFFFFFFFFFFFFFF AND PUSH20 0xFFFFFFFFFFFFFFFFFFFFFFFFFFFFFFFFFFFFFFFF AND CALLER PUSH20 0xFFFFFFFFFFFFFFFFFFFFFFFFFFFFFFFFFFFFFFFF AND EQ DUP1 PUSH2 0x6CD JUMPI POP ADDRESS PUSH20 0xFFFFFFFFFFFFFFFFFFFFFFFFFFFFFFFFFFFFFFFF AND CALLER PUSH20 0xFFFFFFFFFFFFFFFFFFFFFFFFFFFFFFFFFFFFFFFF AND EQ JUMPDEST PUSH2 0x70C JUMPI PUSH1 0x40 MLOAD PUSH32 0x8C379A000000000000000000000000000000000000000000000000000000000 DUP2 MSTORE PUSH1 0x4 ADD PUSH2 0x703 SWAP1 PUSH2 0x1A76 JUMP JUMPDEST PUSH1 0x40 MLOAD DUP1 SWAP2 SUB SWAP1 REVERT JUMPDEST PUSH2 0x727 ADDRESS DUP4 DUP4 PUSH1 0x40 MLOAD DUP1 PUSH1 0x20 ADD PUSH1 0x40 MSTORE DUP1 PUSH1 0x0 DUP2 MSTORE POP PUSH2 0xAFE JUMP JUMPDEST DUP1 PUSH1 0x3 PUSH1 0x0 DUP5 DUP2 MSTORE PUSH1 0x20 ADD SWAP1 DUP2 MSTORE PUSH1 0x20 ADD PUSH1 0x0 KECCAK256 SLOAD PUSH2 0x746 SWAP2 SWAP1 PUSH2 0x1C01 JUMP JUMPDEST PUSH1 0x3 PUSH1 0x0 DUP5 DUP2 MSTORE PUSH1 0x20 ADD SWAP1 DUP2 MSTORE PUSH1 0x20 ADD PUSH1 0x0 KECCAK256 DUP2 SWAP1 SSTORE POP POP POP JUMP JUMPDEST PUSH1 0x0 PUSH1 0x2 PUSH1 0x0 SWAP1 SLOAD SWAP1 PUSH2 0x100 EXP SWAP1 DIV PUSH20 0xFFFFFFFFFFFFFFFFFFFFFFFFFFFFFFFFFFFFFFFF AND PUSH20 0xFFFFFFFFFFFFFFFFFFFFFFFFFFFFFFFFFFFFFFFF AND CALLER PUSH20 0xFFFFFFFFFFFFFFFFFFFFFFFFFFFFFFFFFFFFFFFF AND EQ PUSH2 0x7F3 JUMPI PUSH1 0x40 MLOAD PUSH32 0x8C379A000000000000000000000000000000000000000000000000000000000 DUP2 MSTORE PUSH1 0x4 ADD PUSH2 0x7EA SWAP1 PUSH2 0x1A76 JUMP JUMPDEST PUSH1 0x40 MLOAD DUP1 SWAP2 SUB SWAP1 REVERT JUMPDEST DUP2 PUSH1 0x2 PUSH1 0x0 PUSH2 0x100 EXP DUP2 SLOAD DUP2 PUSH20 0xFFFFFFFFFFFFFFFFFFFFFFFFFFFFFFFFFFFFFFFF MUL NOT AND SWAP1 DUP4 PUSH20 0xFFFFFFFFFFFFFFFFFFFFFFFFFFFFFFFFFFFFFFFF AND MUL OR SWAP1 SSTORE POP PUSH1 0x2 PUSH1 0x0 SWAP1 SLOAD SWAP1 PUSH2 0x100 EXP SWAP1 DIV PUSH20 0xFFFFFFFFFFFFFFFFFFFFFFFFFFFFFFFFFFFFFFFF AND SWAP1 POP SWAP2 SWAP1 POP JUMP JUMPDEST PUSH1 0x0 PUSH1 0x2 PUSH1 0x0 SWAP1 SLOAD SWAP1 PUSH2 0x100 EXP SWAP1 DIV PUSH20 0xFFFFFFFFFFFFFFFFFFFFFFFFFFFFFFFFFFFFFFFF AND SWAP1 POP SWAP1 JUMP JUMPDEST PUSH1 0x60 PUSH1 0x0 PUSH2 0x894 PUSH2 0x356 JUMP JUMPDEST SWAP1 POP PUSH1 0x0 DUP1 DUP3 PUSH8 0xFFFFFFFFFFFFFFFF DUP2 GT ISZERO PUSH2 0x8B3 JUMPI PUSH2 0x8B2 PUSH2 0x1E19 JUMP JUMPDEST JUMPDEST PUSH1 0x40 MLOAD SWAP1 DUP1 DUP3 MSTORE DUP1 PUSH1 0x20 MUL PUSH1 0x20 ADD DUP3 ADD PUSH1 0x40 MSTORE DUP1 ISZERO PUSH2 0x8E1 JUMPI DUP2 PUSH1 0x20 ADD PUSH1 0x20 DUP3 MUL DUP1 CALLDATASIZE DUP4 CALLDATACOPY DUP1 DUP3 ADD SWAP2 POP POP SWAP1 POP JUMPDEST POP SWAP1 POP PUSH1 0x0 JUMPDEST PUSH1 0x64 DUP2 GT PUSH2 0x953 JUMPI PUSH1 0x0 PUSH1 0x3 PUSH1 0x0 DUP4 DUP2 MSTORE PUSH1 0x20 ADD SWAP1 DUP2 MSTORE PUSH1 0x20 ADD PUSH1 0x0 KECCAK256 SLOAD EQ ISZERO PUSH2 0x910 JUMPI PUSH2 0x940 JUMP JUMPDEST DUP1 DUP3 DUP5 DUP2 MLOAD DUP2 LT PUSH2 0x924 JUMPI PUSH2 0x923 PUSH2 0x1DEA JUMP JUMPDEST JUMPDEST PUSH1 0x20 MUL PUSH1 0x20 ADD ADD DUP2 DUP2 MSTORE POP POP PUSH1 0x1 DUP4 PUSH2 0x93D SWAP2 SWAP1 PUSH2 0x1C01 JUMP JUMPDEST SWAP3 POP JUMPDEST DUP1 DUP1 PUSH2 0x94B SWAP1 PUSH2 0x1D72 JUMP JUMPDEST SWAP2 POP POP PUSH2 0x8E7 JUMP JUMPDEST POP DUP1 SWAP4 POP POP POP POP SWAP1 JUMP JUMPDEST PUSH1 0x0 DUP4 PUSH1 0x3 PUSH1 0x0 DUP8 DUP2 MSTORE PUSH1 0x20 ADD SWAP1 DUP2 MSTORE PUSH1 0x20 ADD PUSH1 0x0 KECCAK256 SLOAD PUSH2 0x97E SWAP2 SWAP1 PUSH2 0x1C01 JUMP JUMPDEST PUSH1 0x3 PUSH1 0x0 DUP8 DUP2 MSTORE PUSH1 0x20 ADD SWAP1 DUP2 MSTORE PUSH1 0x20 ADD PUSH1 0x0 KECCAK256 DUP2 SWAP1 SSTORE POP PUSH32 0x20DFA9F79060C8C4D7FE892C97C71BCF6E3B63D1DCF66FEA7AEFC0211628CF29 DUP8 DUP8 DUP8 DUP8 DUP8 DUP8 GAS PUSH1 0x40 MLOAD PUSH2 0x9D0 SWAP8 SWAP7 SWAP6 SWAP5 SWAP4 SWAP3 SWAP2 SWAP1 PUSH2 0x1881 JUMP JUMPDEST PUSH1 0x40 MLOAD DUP1 SWAP2 SUB SWAP1 LOG1 PUSH32 0xF23A6E612E1FF4830E658FE43F4E3CB4A5F8170BD5D9E69FB5D7A7FA9E4FDF97 SWAP1 POP SWAP7 SWAP6 POP POP POP POP POP POP JUMP JUMPDEST PUSH2 0xA0D PUSH2 0xCAF JUMP JUMPDEST PUSH20 0xFFFFFFFFFFFFFFFFFFFFFFFFFFFFFFFFFFFFFFFF AND DUP6 PUSH20 0xFFFFFFFFFFFFFFFFFFFFFFFFFFFFFFFFFFFFFFFF AND EQ DUP1 PUSH2 0xA71 JUMPI POP ADDRESS PUSH20 0xFFFFFFFFFFFFFFFFFFFFFFFFFFFFFFFFFFFFFFFF AND DUP6 PUSH20 0xFFFFFFFFFFFFFFFFFFFFFFFFFFFFFFFFFFFFFFFF AND EQ JUMPDEST PUSH2 0xAB0 JUMPI PUSH1 0x40 MLOAD PUSH32 0x8C379A000000000000000000000000000000000000000000000000000000000 DUP2 MSTORE PUSH1 0x4 ADD PUSH2 0xAA7 SWAP1 PUSH2 0x1A16 JUMP JUMPDEST PUSH1 0x40 MLOAD DUP1 SWAP2 SUB SWAP1 REVERT JUMPDEST PUSH2 0xABD DUP6 DUP6 DUP6 DUP6 DUP6 PUSH2 0xCB7 JUMP JUMPDEST POP POP POP POP POP JUMP JUMPDEST DUP1 PUSH1 0x3 PUSH1 0x0 DUP5 DUP2 MSTORE PUSH1 0x20 ADD SWAP1 DUP2 MSTORE PUSH1 0x20 ADD PUSH1 0x0 KECCAK256 SLOAD PUSH2 0xAE3 SWAP2 SWAP1 PUSH2 0x1C57 JUMP JUMPDEST PUSH1 0x3 PUSH1 0x0 DUP5 DUP2 MSTORE PUSH1 0x20 ADD SWAP1 DUP2 MSTORE PUSH1 0x20 ADD PUSH1 0x0 KECCAK256 DUP2 SWAP1 SSTORE POP POP POP JUMP JUMPDEST PUSH1 0x0 PUSH20 0xFFFFFFFFFFFFFFFFFFFFFFFFFFFFFFFFFFFFFFFF AND DUP5 PUSH20 0xFFFFFFFFFFFFFFFFFFFFFFFFFFFFFFFFFFFFFFFF AND EQ ISZERO PUSH2 0xB6E JUMPI PUSH1 0x40 MLOAD PUSH32 0x8C379A000000000000000000000000000000000000000000000000000000000 DUP2 MSTORE PUSH1 0x4 ADD PUSH2 0xB65 SWAP1 PUSH2 0x1AD6 JUMP JUMPDEST PUSH1 0x40 MLOAD DUP1 SWAP2 SUB SWAP1 REVERT JUMPDEST PUSH1 0x0 PUSH2 0xB78 PUSH2 0xCAF JUMP JUMPDEST SWAP1 POP PUSH1 0x0 PUSH2 0xB85 DUP6 PUSH2 0xF53 JUMP JUMPDEST SWAP1 POP PUSH1 0x0 PUSH2 0xB92 DUP6 PUSH2 0xF53 JUMP JUMPDEST SWAP1 POP PUSH2 0xBA3 DUP4 PUSH1 0x0 DUP10 DUP6 DUP6 DUP10 PUSH2 0xFCD JUMP JUMPDEST DUP5 PUSH1 0x0 DUP1 DUP9 DUP2 MSTORE PUSH1 0x20 ADD SWAP1 DUP2 MSTORE PUSH1 0x20 ADD PUSH1 0x0 KECCAK256 PUSH1 0x0 DUP10 PUSH20 0xFFFFFFFFFFFFFFFFFFFFFFFFFFFFFFFFFFFFFFFF AND PUSH20 0xFFFFFFFFFFFFFFFFFFFFFFFFFFFFFFFFFFFFFFFF AND DUP2 MSTORE PUSH1 0x20 ADD SWAP1 DUP2 MSTORE PUSH1 0x20 ADD PUSH1 0x0 KECCAK256 PUSH1 0x0 DUP3 DUP3 SLOAD PUSH2 0xC02 SWAP2 SWAP1 PUSH2 0x1C01 JUMP JUMPDEST SWAP3 POP POP DUP2 SWAP1 SSTORE POP DUP7 PUSH20 0xFFFFFFFFFFFFFFFFFFFFFFFFFFFFFFFFFFFFFFFF AND PUSH1 0x0 PUSH20 0xFFFFFFFFFFFFFFFFFFFFFFFFFFFFFFFFFFFFFFFF AND DUP5 PUSH20 0xFFFFFFFFFFFFFFFFFFFFFFFFFFFFFFFFFFFFFFFF AND PUSH32 0xC3D58168C5AE7397731D063D5BBF3D657854427343F4C083240F7AACAA2D0F62 DUP10 DUP10 PUSH1 0x40 MLOAD PUSH2 0xC80 SWAP3 SWAP2 SWAP1 PUSH2 0x1B11 JUMP JUMPDEST PUSH1 0x40 MLOAD DUP1 SWAP2 SUB SWAP1 LOG4 PUSH2 0xC97 DUP4 PUSH1 0x0 DUP10 DUP6 DUP6 DUP10 PUSH2 0xFD5 JUMP JUMPDEST PUSH2 0xCA6 DUP4 PUSH1 0x0 DUP10 DUP10 DUP10 DUP10 PUSH2 0xFDD JUMP JUMPDEST POP POP POP POP POP POP POP JUMP JUMPDEST PUSH1 0x0 CALLER SWAP1 POP SWAP1 JUMP JUMPDEST PUSH1 0x0 PUSH20 0xFFFFFFFFFFFFFFFFFFFFFFFFFFFFFFFFFFFFFFFF AND DUP5 PUSH20 0xFFFFFFFFFFFFFFFFFFFFFFFFFFFFFFFFFFFFFFFF AND EQ ISZERO PUSH2 0xD27 JUMPI PUSH1 0x40 MLOAD PUSH32 0x8C379A000000000000000000000000000000000000000000000000000000000 DUP2 MSTORE PUSH1 0x4 ADD PUSH2 0xD1E SWAP1 PUSH2 0x1A96 JUMP JUMPDEST PUSH1 0x40 MLOAD DUP1 SWAP2 SUB SWAP1 REVERT JUMPDEST PUSH1 0x0 PUSH2 0xD31 PUSH2 0xCAF JUMP JUMPDEST SWAP1 POP PUSH1 0x0 PUSH2 0xD3E DUP6 PUSH2 0xF53 JUMP JUMPDEST SWAP1 POP PUSH1 0x0 PUSH2 0xD4B DUP6 PUSH2 0xF53 JUMP JUMPDEST SWAP1 POP PUSH2 0xD5B DUP4 DUP10 DUP10 DUP6 DUP6 DUP10 PUSH2 0xFCD JUMP JUMPDEST PUSH1 0x0 DUP1 PUSH1 0x0 DUP9 DUP2 MSTORE PUSH1 0x20 ADD SWAP1 DUP2 MSTORE PUSH1 0x20 ADD PUSH1 0x0 KECCAK256 PUSH1 0x0 DUP11 PUSH20 0xFFFFFFFFFFFFFFFFFFFFFFFFFFFFFFFFFFFFFFFF AND PUSH20 0xFFFFFFFFFFFFFFFFFFFFFFFFFFFFFFFFFFFFFFFF AND DUP2 MSTORE PUSH1 0x20 ADD SWAP1 DUP2 MSTORE PUSH1 0x20 ADD PUSH1 0x0 KECCAK256 SLOAD SWAP1 POP DUP6 DUP2 LT ISZERO PUSH2 0xDF2 JUMPI PUSH1 0x40 MLOAD PUSH32 0x8C379A000000000000000000000000000000000000000000000000000000000 DUP2 MSTORE PUSH1 0x4 ADD PUSH2 0xDE9 SWAP1 PUSH2 0x1AB6 JUMP JUMPDEST PUSH1 0x40 MLOAD DUP1 SWAP2 SUB SWAP1 REVERT JUMPDEST DUP6 DUP2 SUB PUSH1 0x0 DUP1 DUP10 DUP2 MSTORE PUSH1 0x20 ADD SWAP1 DUP2 MSTORE PUSH1 0x20 ADD PUSH1 0x0 KECCAK256 PUSH1 0x0 DUP12 PUSH20 0xFFFFFFFFFFFFFFFFFFFFFFFFFFFFFFFFFFFFFFFF AND PUSH20 0xFFFFFFFFFFFFFFFFFFFFFFFFFFFFFFFFFFFFFFFF AND DUP2 MSTORE PUSH1 0x20 ADD SWAP1 DUP2 MSTORE PUSH1 0x20 ADD PUSH1 0x0 KECCAK256 DUP2 SWAP1 SSTORE POP DUP6 PUSH1 0x0 DUP1 DUP10 DUP2 MSTORE PUSH1 0x20 ADD SWAP1 DUP2 MSTORE PUSH1 0x20 ADD PUSH1 0x0 KECCAK256 PUSH1 0x0 DUP11 PUSH20 0xFFFFFFFFFFFFFFFFFFFFFFFFFFFFFFFFFFFFFFFF AND PUSH20 0xFFFFFFFFFFFFFFFFFFFFFFFFFFFFFFFFFFFFFFFF AND DUP2 MSTORE PUSH1 0x20 ADD SWAP1 DUP2 MSTORE PUSH1 0x20 ADD PUSH1 0x0 KECCAK256 PUSH1 0x0 DUP3 DUP3 SLOAD PUSH2 0xEA7 SWAP2 SWAP1 PUSH2 0x1C01 JUMP JUMPDEST SWAP3 POP POP DUP2 SWAP1 SSTORE POP DUP8 PUSH20 0xFFFFFFFFFFFFFFFFFFFFFFFFFFFFFFFFFFFFFFFF AND DUP10 PUSH20 0xFFFFFFFFFFFFFFFFFFFFFFFFFFFFFFFFFFFFFFFF AND DUP6 PUSH20 0xFFFFFFFFFFFFFFFFFFFFFFFFFFFFFFFFFFFFFFFF AND PUSH32 0xC3D58168C5AE7397731D063D5BBF3D657854427343F4C083240F7AACAA2D0F62 DUP11 DUP11 PUSH1 0x40 MLOAD PUSH2 0xF24 SWAP3 SWAP2 SWAP1 PUSH2 0x1B11 JUMP JUMPDEST PUSH1 0x40 MLOAD DUP1 SWAP2 SUB SWAP1 LOG4 PUSH2 0xF3A DUP5 DUP11 DUP11 DUP7 DUP7 DUP11 PUSH2 0xFD5 JUMP JUMPDEST PUSH2 0xF48 DUP5 DUP11 DUP11 DUP11 DUP11 DUP11 PUSH2 0xFDD JUMP JUMPDEST POP POP POP POP POP POP POP POP POP JUMP JUMPDEST PUSH1 0x60 PUSH1 0x0 PUSH1 0x1 PUSH8 0xFFFFFFFFFFFFFFFF DUP2 GT ISZERO PUSH2 0xF72 JUMPI PUSH2 0xF71 PUSH2 0x1E19 JUMP JUMPDEST JUMPDEST PUSH1 0x40 MLOAD SWAP1 DUP1 DUP3 MSTORE DUP1 PUSH1 0x20 MUL PUSH1 0x20 ADD DUP3 ADD PUSH1 0x40 MSTORE DUP1 ISZERO PUSH2 0xFA0 JUMPI DUP2 PUSH1 0x20 ADD PUSH1 0x20 DUP3 MUL DUP1 CALLDATASIZE DUP4 CALLDATACOPY DUP1 DUP3 ADD SWAP2 POP POP SWAP1 POP JUMPDEST POP SWAP1 POP DUP3 DUP2 PUSH1 0x0 DUP2 MLOAD DUP2 LT PUSH2 0xFB8 JUMPI PUSH2 0xFB7 PUSH2 0x1DEA JUMP JUMPDEST JUMPDEST PUSH1 0x20 MUL PUSH1 0x20 ADD ADD DUP2 DUP2 MSTORE POP POP DUP1 SWAP2 POP POP SWAP2 SWAP1 POP JUMP JUMPDEST POP POP POP POP POP POP JUMP JUMPDEST POP POP POP POP POP POP JUMP JUMPDEST PUSH2 0xFE6 DUP5 PUSH2 0x11AE JUMP JUMPDEST ISZERO PUSH2 0x11A6 JUMPI DUP4 PUSH20 0xFFFFFFFFFFFFFFFFFFFFFFFFFFFFFFFFFFFFFFFF AND PUSH4 0xF23A6E61 DUP8 DUP8 DUP7 DUP7 DUP7 PUSH1 0x40 MLOAD DUP7 PUSH4 0xFFFFFFFF AND PUSH1 0xE0 SHL DUP2 MSTORE PUSH1 0x4 ADD PUSH2 0x102C SWAP6 SWAP5 SWAP4 SWAP3 SWAP2 SWAP1 PUSH2 0x18EB JUMP JUMPDEST PUSH1 0x20 PUSH1 0x40 MLOAD DUP1 DUP4 SUB DUP2 PUSH1 0x0 DUP8 DUP1 EXTCODESIZE ISZERO DUP1 ISZERO PUSH2 0x1046 JUMPI PUSH1 0x0 DUP1 REVERT JUMPDEST POP GAS CALL SWAP3 POP POP POP DUP1 ISZERO PUSH2 0x1077 JUMPI POP PUSH1 0x40 MLOAD RETURNDATASIZE PUSH1 0x1F NOT PUSH1 0x1F DUP3 ADD AND DUP3 ADD DUP1 PUSH1 0x40 MSTORE POP DUP2 ADD SWAP1 PUSH2 0x1074 SWAP2 SWAP1 PUSH2 0x14B6 JUMP JUMPDEST PUSH1 0x1 JUMPDEST PUSH2 0x111D JUMPI PUSH2 0x1083 PUSH2 0x1E48 JUMP JUMPDEST DUP1 PUSH4 0x8C379A0 EQ ISZERO PUSH2 0x10E0 JUMPI POP PUSH2 0x1098 PUSH2 0x211E JUMP JUMPDEST DUP1 PUSH2 0x10A3 JUMPI POP PUSH2 0x10E2 JUMP JUMPDEST DUP1 PUSH1 0x40 MLOAD PUSH32 0x8C379A000000000000000000000000000000000000000000000000000000000 DUP2 MSTORE PUSH1 0x4 ADD PUSH2 0x10D7 SWAP2 SWAP1 PUSH2 0x19D4 JUMP JUMPDEST PUSH1 0x40 MLOAD DUP1 SWAP2 SUB SWAP1 REVERT JUMPDEST POP JUMPDEST PUSH1 0x40 MLOAD PUSH32 0x8C379A000000000000000000000000000000000000000000000000000000000 DUP2 MSTORE PUSH1 0x4 ADD PUSH2 0x1114 SWAP1 PUSH2 0x19F6 JUMP JUMPDEST PUSH1 0x40 MLOAD DUP1 SWAP2 SUB SWAP1 REVERT JUMPDEST PUSH4 0xF23A6E61 PUSH1 0xE0 SHL PUSH28 0xFFFFFFFFFFFFFFFFFFFFFFFFFFFFFFFFFFFFFFFFFFFFFFFFFFFFFFFF NOT AND DUP2 PUSH28 0xFFFFFFFFFFFFFFFFFFFFFFFFFFFFFFFFFFFFFFFFFFFFFFFFFFFFFFFF NOT AND EQ PUSH2 0x11A4 JUMPI PUSH1 0x40 MLOAD PUSH32 0x8C379A000000000000000000000000000000000000000000000000000000000 DUP2 MSTORE PUSH1 0x4 ADD PUSH2 0x119B SWAP1 PUSH2 0x1A36 JUMP JUMPDEST PUSH1 0x40 MLOAD DUP1 SWAP2 SUB SWAP1 REVERT JUMPDEST POP JUMPDEST POP POP POP POP POP POP JUMP JUMPDEST PUSH1 0x0 DUP1 DUP3 PUSH20 0xFFFFFFFFFFFFFFFFFFFFFFFFFFFFFFFFFFFFFFFF AND EXTCODESIZE GT SWAP1 POP SWAP2 SWAP1 POP JUMP JUMPDEST PUSH1 0x0 PUSH2 0x11E4 PUSH2 0x11DF DUP5 PUSH2 0x1B5F JUMP JUMPDEST PUSH2 0x1B3A JUMP JUMPDEST SWAP1 POP DUP3 DUP2 MSTORE PUSH1 0x20 DUP2 ADD DUP5 DUP5 DUP5 ADD GT ISZERO PUSH2 0x1200 JUMPI PUSH2 0x11FF PUSH2 0x1E79 JUMP JUMPDEST JUMPDEST PUSH2 0x120B DUP5 DUP3 DUP6 PUSH2 0x1CFF JUMP JUMPDEST POP SWAP4 SWAP3 POP POP POP JUMP JUMPDEST PUSH1 0x0 DUP2 CALLDATALOAD SWAP1 POP PUSH2 0x1222 DUP2 PUSH2 0x21B4 JUMP JUMPDEST SWAP3 SWAP2 POP POP JUMP JUMPDEST PUSH1 0x0 DUP2 MLOAD SWAP1 POP PUSH2 0x1237 DUP2 PUSH2 0x21CB JUMP JUMPDEST SWAP3 SWAP2 POP POP JUMP JUMPDEST PUSH1 0x0 DUP2 MLOAD SWAP1 POP PUSH2 0x124C DUP2 PUSH2 0x21E2 JUMP JUMPDEST SWAP3 SWAP2 POP POP JUMP JUMPDEST PUSH1 0x0 DUP1 DUP4 PUSH1 0x1F DUP5 ADD SLT PUSH2 0x1268 JUMPI PUSH2 0x1267 PUSH2 0x1E6F JUMP JUMPDEST JUMPDEST DUP3 CALLDATALOAD SWAP1 POP PUSH8 0xFFFFFFFFFFFFFFFF DUP2 GT ISZERO PUSH2 0x1285 JUMPI PUSH2 0x1284 PUSH2 0x1E6A JUMP JUMPDEST JUMPDEST PUSH1 0x20 DUP4 ADD SWAP2 POP DUP4 PUSH1 0x1 DUP3 MUL DUP4 ADD GT ISZERO PUSH2 0x12A1 JUMPI PUSH2 0x12A0 PUSH2 0x1E74 JUMP JUMPDEST JUMPDEST SWAP3 POP SWAP3 SWAP1 POP JUMP JUMPDEST PUSH1 0x0 DUP3 PUSH1 0x1F DUP4 ADD SLT PUSH2 0x12BD JUMPI PUSH2 0x12BC PUSH2 0x1E6F JUMP JUMPDEST JUMPDEST DUP2 CALLDATALOAD PUSH2 0x12CD DUP5 DUP3 PUSH1 0x20 DUP7 ADD PUSH2 0x11D1 JUMP JUMPDEST SWAP2 POP POP SWAP3 SWAP2 POP POP JUMP JUMPDEST PUSH1 0x0 DUP2 CALLDATALOAD SWAP1 POP PUSH2 0x12E5 DUP2 PUSH2 0x21F9 JUMP JUMPDEST SWAP3 SWAP2 POP POP JUMP JUMPDEST PUSH1 0x0 PUSH1 0x20 DUP3 DUP5 SUB SLT ISZERO PUSH2 0x1301 JUMPI PUSH2 0x1300 PUSH2 0x1E83 JUMP JUMPDEST JUMPDEST PUSH1 0x0 PUSH2 0x130F DUP5 DUP3 DUP6 ADD PUSH2 0x1213 JUMP JUMPDEST SWAP2 POP POP SWAP3 SWAP2 POP POP JUMP JUMPDEST PUSH1 0x0 DUP1 PUSH1 0x0 DUP1 PUSH1 0x0 DUP1 PUSH1 0xA0 DUP8 DUP10 SUB SLT ISZERO PUSH2 0x1335 JUMPI PUSH2 0x1334 PUSH2 0x1E83 JUMP JUMPDEST JUMPDEST PUSH1 0x0 PUSH2 0x1343 DUP10 DUP3 DUP11 ADD PUSH2 0x1213 JUMP JUMPDEST SWAP7 POP POP PUSH1 0x20 PUSH2 0x1354 DUP10 DUP3 DUP11 ADD PUSH2 0x1213 JUMP JUMPDEST SWAP6 POP POP PUSH1 0x40 PUSH2 0x1365 DUP10 DUP3 DUP11 ADD PUSH2 0x12D6 JUMP JUMPDEST SWAP5 POP POP PUSH1 0x60 PUSH2 0x1376 DUP10 DUP3 DUP11 ADD PUSH2 0x12D6 JUMP JUMPDEST SWAP4 POP POP PUSH1 0x80 DUP8 ADD CALLDATALOAD PUSH8 0xFFFFFFFFFFFFFFFF DUP2 GT ISZERO PUSH2 0x1397 JUMPI PUSH2 0x1396 PUSH2 0x1E7E JUMP JUMPDEST JUMPDEST PUSH2 0x13A3 DUP10 DUP3 DUP11 ADD PUSH2 0x1252 JUMP JUMPDEST SWAP3 POP SWAP3 POP POP SWAP3 SWAP6 POP SWAP3 SWAP6 POP SWAP3 SWAP6 JUMP JUMPDEST PUSH1 0x0 DUP1 PUSH1 0x0 DUP1 PUSH1 0x0 PUSH1 0xA0 DUP7 DUP9 SUB SLT ISZERO PUSH2 0x13CE JUMPI PUSH2 0x13CD PUSH2 0x1E83 JUMP JUMPDEST JUMPDEST PUSH1 0x0 PUSH2 0x13DC DUP9 DUP3 DUP10 ADD PUSH2 0x1213 JUMP JUMPDEST SWAP6 POP POP PUSH1 0x20 PUSH2 0x13ED DUP9 DUP3 DUP10 ADD PUSH2 0x1213 JUMP JUMPDEST SWAP5 POP POP PUSH1 0x40 PUSH2 0x13FE DUP9 DUP3 DUP10 ADD PUSH2 0x12D6 JUMP JUMPDEST SWAP4 POP POP PUSH1 0x60 PUSH2 0x140F DUP9 DUP3 DUP10 ADD PUSH2 0x12D6 JUMP JUMPDEST SWAP3 POP POP PUSH1 0x80 DUP7 ADD CALLDATALOAD PUSH8 0xFFFFFFFFFFFFFFFF DUP2 GT ISZERO PUSH2 0x1430 JUMPI PUSH2 0x142F PUSH2 0x1E7E JUMP JUMPDEST JUMPDEST PUSH2 0x143C DUP9 DUP3 DUP10 ADD PUSH2 0x12A8 JUMP JUMPDEST SWAP2 POP POP SWAP3 SWAP6 POP SWAP3 SWAP6 SWAP1 SWAP4 POP JUMP JUMPDEST PUSH1 0x0 DUP1 PUSH1 0x40 DUP4 DUP6 SUB SLT ISZERO PUSH2 0x1460 JUMPI PUSH2 0x145F PUSH2 0x1E83 JUMP JUMPDEST JUMPDEST PUSH1 0x0 PUSH2 0x146E DUP6 DUP3 DUP7 ADD PUSH2 0x1213 JUMP JUMPDEST SWAP3 POP POP PUSH1 0x20 PUSH2 0x147F DUP6 DUP3 DUP7 ADD PUSH2 0x12D6 JUMP JUMPDEST SWAP2 POP POP SWAP3 POP SWAP3 SWAP1 POP JUMP JUMPDEST PUSH1 0x0 PUSH1 0x20 DUP3 DUP5 SUB SLT ISZERO PUSH2 0x149F JUMPI PUSH2 0x149E PUSH2 0x1E83 JUMP JUMPDEST JUMPDEST PUSH1 0x0 PUSH2 0x14AD DUP5 DUP3 DUP6 ADD PUSH2 0x1228 JUMP JUMPDEST SWAP2 POP POP SWAP3 SWAP2 POP POP JUMP JUMPDEST PUSH1 0x0 PUSH1 0x20 DUP3 DUP5 SUB SLT ISZERO PUSH2 0x14CC JUMPI PUSH2 0x14CB PUSH2 0x1E83 JUMP JUMPDEST JUMPDEST PUSH1 0x0 PUSH2 0x14DA DUP5 DUP3 DUP6 ADD PUSH2 0x123D JUMP JUMPDEST SWAP2 POP POP SWAP3 SWAP2 POP POP JUMP JUMPDEST PUSH1 0x0 PUSH1 0x20 DUP3 DUP5 SUB SLT ISZERO PUSH2 0x14F9 JUMPI PUSH2 0x14F8 PUSH2 0x1E83 JUMP JUMPDEST JUMPDEST PUSH1 0x0 PUSH2 0x1507 DUP5 DUP3 DUP6 ADD PUSH2 0x12D6 JUMP JUMPDEST SWAP2 POP POP SWAP3 SWAP2 POP POP JUMP JUMPDEST PUSH1 0x0 DUP1 PUSH1 0x40 DUP4 DUP6 SUB SLT ISZERO PUSH2 0x1527 JUMPI PUSH2 0x1526 PUSH2 0x1E83 JUMP JUMPDEST JUMPDEST PUSH1 0x0 PUSH2 0x1535 DUP6 DUP3 DUP7 ADD PUSH2 0x12D6 JUMP JUMPDEST SWAP3 POP POP PUSH1 0x20 PUSH2 0x1546 DUP6 DUP3 DUP7 ADD PUSH2 0x12D6 JUMP JUMPDEST SWAP2 POP POP SWAP3 POP SWAP3 SWAP1 POP JUMP JUMPDEST PUSH1 0x0 DUP1 PUSH1 0x0 DUP1 PUSH1 0x80 DUP6 DUP8 SUB SLT ISZERO PUSH2 0x156A JUMPI PUSH2 0x1569 PUSH2 0x1E83 JUMP JUMPDEST JUMPDEST PUSH1 0x0 PUSH2 0x1578 DUP8 DUP3 DUP9 ADD PUSH2 0x12D6 JUMP JUMPDEST SWAP5 POP POP PUSH1 0x20 PUSH2 0x1589 DUP8 DUP3 DUP9 ADD PUSH2 0x12D6 JUMP JUMPDEST SWAP4 POP POP PUSH1 0x40 PUSH2 0x159A DUP8 DUP3 DUP9 ADD PUSH2 0x12D6 JUMP JUMPDEST SWAP3 POP POP PUSH1 0x60 PUSH2 0x15AB DUP8 DUP3 DUP9 ADD PUSH2 0x1213 JUMP JUMPDEST SWAP2 POP POP SWAP3 SWAP6 SWAP2 SWAP5 POP SWAP3 POP JUMP JUMPDEST PUSH1 0x0 PUSH2 0x15C3 DUP4 DUP4 PUSH2 0x1811 JUMP JUMPDEST PUSH1 0x20 DUP4 ADD SWAP1 POP SWAP3 SWAP2 POP POP JUMP JUMPDEST PUSH2 0x15D8 DUP2 PUSH2 0x1C8B JUMP JUMPDEST DUP3 MSTORE POP POP JUMP JUMPDEST PUSH1 0x0 PUSH2 0x15E9 DUP3 PUSH2 0x1BA0 JUMP JUMPDEST PUSH2 0x15F3 DUP2 DUP6 PUSH2 0x1BCE JUMP JUMPDEST SWAP4 POP PUSH2 0x15FE DUP4 PUSH2 0x1B90 JUMP JUMPDEST DUP1 PUSH1 0x0 JUMPDEST DUP4 DUP2 LT ISZERO PUSH2 0x162F JUMPI DUP2 MLOAD PUSH2 0x1616 DUP9 DUP3 PUSH2 0x15B7 JUMP JUMPDEST SWAP8 POP PUSH2 0x1621 DUP4 PUSH2 0x1BC1 JUMP JUMPDEST SWAP3 POP POP PUSH1 0x1 DUP2 ADD SWAP1 POP PUSH2 0x1602 JUMP JUMPDEST POP DUP6 SWAP4 POP POP POP POP SWAP3 SWAP2 POP POP JUMP JUMPDEST PUSH2 0x1645 DUP2 PUSH2 0x1C9D JUMP JUMPDEST DUP3 MSTORE POP POP JUMP JUMPDEST PUSH2 0x1654 DUP2 PUSH2 0x1CA9 JUMP JUMPDEST DUP3 MSTORE POP POP JUMP JUMPDEST PUSH1 0x0 PUSH2 0x1666 DUP4 DUP6 PUSH2 0x1BDF JUMP JUMPDEST SWAP4 POP PUSH2 0x1673 DUP4 DUP6 DUP5 PUSH2 0x1CFF JUMP JUMPDEST PUSH2 0x167C DUP4 PUSH2 0x1E88 JUMP JUMPDEST DUP5 ADD SWAP1 POP SWAP4 SWAP3 POP POP POP JUMP JUMPDEST PUSH1 0x0 PUSH2 0x1692 DUP3 PUSH2 0x1BAB JUMP JUMPDEST PUSH2 0x169C DUP2 DUP6 PUSH2 0x1BDF JUMP JUMPDEST SWAP4 POP PUSH2 0x16AC DUP2 DUP6 PUSH1 0x20 DUP7 ADD PUSH2 0x1D0E JUMP JUMPDEST PUSH2 0x16B5 DUP2 PUSH2 0x1E88 JUMP JUMPDEST DUP5 ADD SWAP2 POP POP SWAP3 SWAP2 POP POP JUMP JUMPDEST PUSH1 0x0 PUSH2 0x16CB DUP3 PUSH2 0x1BB6 JUMP JUMPDEST PUSH2 0x16D5 DUP2 DUP6 PUSH2 0x1BF0 JUMP JUMPDEST SWAP4 POP PUSH2 0x16E5 DUP2 DUP6 PUSH1 0x20 DUP7 ADD PUSH2 0x1D0E JUMP JUMPDEST PUSH2 0x16EE DUP2 PUSH2 0x1E88 JUMP JUMPDEST DUP5 ADD SWAP2 POP POP SWAP3 SWAP2 POP POP JUMP JUMPDEST PUSH1 0x0 PUSH2 0x1706 PUSH1 0x34 DUP4 PUSH2 0x1BF0 JUMP JUMPDEST SWAP2 POP PUSH2 0x1711 DUP3 PUSH2 0x1EA6 JUMP JUMPDEST PUSH1 0x40 DUP3 ADD SWAP1 POP SWAP2 SWAP1 POP JUMP JUMPDEST PUSH1 0x0 PUSH2 0x1729 PUSH1 0x2F DUP4 PUSH2 0x1BF0 JUMP JUMPDEST SWAP2 POP PUSH2 0x1734 DUP3 PUSH2 0x1EF5 JUMP JUMPDEST PUSH1 0x40 DUP3 ADD SWAP1 POP SWAP2 SWAP1 POP JUMP JUMPDEST PUSH1 0x0 PUSH2 0x174C PUSH1 0x28 DUP4 PUSH2 0x1BF0 JUMP JUMPDEST SWAP2 POP PUSH2 0x1757 DUP3 PUSH2 0x1F44 JUMP JUMPDEST PUSH1 0x40 DUP3 ADD SWAP1 POP SWAP2 SWAP1 POP JUMP JUMPDEST PUSH1 0x0 PUSH2 0x176F PUSH1 0x2A DUP4 PUSH2 0x1BF0 JUMP JUMPDEST SWAP2 POP PUSH2 0x177A DUP3 PUSH2 0x1F93 JUMP JUMPDEST PUSH1 0x40 DUP3 ADD SWAP1 POP SWAP2 SWAP1 POP JUMP JUMPDEST PUSH1 0x0 PUSH2 0x1792 PUSH1 0x26 DUP4 PUSH2 0x1BF0 JUMP JUMPDEST SWAP2 POP PUSH2 0x179D DUP3 PUSH2 0x1FE2 JUMP JUMPDEST PUSH1 0x40 DUP3 ADD SWAP1 POP SWAP2 SWAP1 POP JUMP JUMPDEST PUSH1 0x0 PUSH2 0x17B5 PUSH1 0x25 DUP4 PUSH2 0x1BF0 JUMP JUMPDEST SWAP2 POP PUSH2 0x17C0 DUP3 PUSH2 0x2031 JUMP JUMPDEST PUSH1 0x40 DUP3 ADD SWAP1 POP SWAP2 SWAP1 POP JUMP JUMPDEST PUSH1 0x0 PUSH2 0x17D8 PUSH1 0x2A DUP4 PUSH2 0x1BF0 JUMP JUMPDEST SWAP2 POP PUSH2 0x17E3 DUP3 PUSH2 0x2080 JUMP JUMPDEST PUSH1 0x40 DUP3 ADD SWAP1 POP SWAP2 SWAP1 POP JUMP JUMPDEST PUSH1 0x0 PUSH2 0x17FB PUSH1 0x21 DUP4 PUSH2 0x1BF0 JUMP JUMPDEST SWAP2 POP PUSH2 0x1806 DUP3 PUSH2 0x20CF JUMP JUMPDEST PUSH1 0x40 DUP3 ADD SWAP1 POP SWAP2 SWAP1 POP JUMP JUMPDEST PUSH2 0x181A DUP2 PUSH2 0x1CF5 JUMP JUMPDEST DUP3 MSTORE POP POP JUMP JUMPDEST PUSH2 0x1829 DUP2 PUSH2 0x1CF5 JUMP JUMPDEST DUP3 MSTORE POP POP JUMP JUMPDEST PUSH1 0x0 PUSH1 0x20 DUP3 ADD SWAP1 POP PUSH2 0x1844 PUSH1 0x0 DUP4 ADD DUP5 PUSH2 0x15CF JUMP JUMPDEST SWAP3 SWAP2 POP POP JUMP JUMPDEST PUSH1 0x0 PUSH1 0x60 DUP3 ADD SWAP1 POP PUSH2 0x185F PUSH1 0x0 DUP4 ADD DUP7 PUSH2 0x15CF JUMP JUMPDEST PUSH2 0x186C PUSH1 0x20 DUP4 ADD DUP6 PUSH2 0x15CF JUMP JUMPDEST PUSH2 0x1879 PUSH1 0x40 DUP4 ADD DUP5 PUSH2 0x1820 JUMP JUMPDEST SWAP5 SWAP4 POP POP POP POP JUMP JUMPDEST PUSH1 0x0 PUSH1 0xC0 DUP3 ADD SWAP1 POP PUSH2 0x1896 PUSH1 0x0 DUP4 ADD DUP11 PUSH2 0x15CF JUMP JUMPDEST PUSH2 0x18A3 PUSH1 0x20 DUP4 ADD DUP10 PUSH2 0x15CF JUMP JUMPDEST PUSH2 0x18B0 PUSH1 0x40 DUP4 ADD DUP9 PUSH2 0x1820 JUMP JUMPDEST PUSH2 0x18BD PUSH1 0x60 DUP4 ADD DUP8 PUSH2 0x1820 JUMP JUMPDEST DUP2 DUP2 SUB PUSH1 0x80 DUP4 ADD MSTORE PUSH2 0x18D0 DUP2 DUP6 DUP8 PUSH2 0x165A JUMP JUMPDEST SWAP1 POP PUSH2 0x18DF PUSH1 0xA0 DUP4 ADD DUP5 PUSH2 0x1820 JUMP JUMPDEST SWAP9 SWAP8 POP POP POP POP POP POP POP POP JUMP JUMPDEST PUSH1 0x0 PUSH1 0xA0 DUP3 ADD SWAP1 POP PUSH2 0x1900 PUSH1 0x0 DUP4 ADD DUP9 PUSH2 0x15CF JUMP JUMPDEST PUSH2 0x190D PUSH1 0x20 DUP4 ADD DUP8 PUSH2 0x15CF JUMP JUMPDEST PUSH2 0x191A PUSH1 0x40 DUP4 ADD DUP7 PUSH2 0x1820 JUMP JUMPDEST PUSH2 0x1927 PUSH1 0x60 DUP4 ADD DUP6 PUSH2 0x1820 JUMP JUMPDEST DUP2 DUP2 SUB PUSH1 0x80 DUP4 ADD MSTORE PUSH2 0x1939 DUP2 DUP5 PUSH2 0x1687 JUMP JUMPDEST SWAP1 POP SWAP7 SWAP6 POP POP POP POP POP POP JUMP JUMPDEST PUSH1 0x0 PUSH1 0x20 DUP3 ADD SWAP1 POP DUP2 DUP2 SUB PUSH1 0x0 DUP4 ADD MSTORE PUSH2 0x195F DUP2 DUP5 PUSH2 0x15DE JUMP JUMPDEST SWAP1 POP SWAP3 SWAP2 POP POP JUMP JUMPDEST PUSH1 0x0 PUSH1 0x40 DUP3 ADD SWAP1 POP DUP2 DUP2 SUB PUSH1 0x0 DUP4 ADD MSTORE PUSH2 0x1981 DUP2 DUP6 PUSH2 0x15DE JUMP JUMPDEST SWAP1 POP DUP2 DUP2 SUB PUSH1 0x20 DUP4 ADD MSTORE PUSH2 0x1995 DUP2 DUP5 PUSH2 0x15DE JUMP JUMPDEST SWAP1 POP SWAP4 SWAP3 POP POP POP JUMP JUMPDEST PUSH1 0x0 PUSH1 0x20 DUP3 ADD SWAP1 POP PUSH2 0x19B3 PUSH1 0x0 DUP4 ADD DUP5 PUSH2 0x163C JUMP JUMPDEST SWAP3 SWAP2 POP POP JUMP JUMPDEST PUSH1 0x0 PUSH1 0x20 DUP3 ADD SWAP1 POP PUSH2 0x19CE PUSH1 0x0 DUP4 ADD DUP5 PUSH2 0x164B JUMP JUMPDEST SWAP3 SWAP2 POP POP JUMP JUMPDEST PUSH1 0x0 PUSH1 0x20 DUP3 ADD SWAP1 POP DUP2 DUP2 SUB PUSH1 0x0 DUP4 ADD MSTORE PUSH2 0x19EE DUP2 DUP5 PUSH2 0x16C0 JUMP JUMPDEST SWAP1 POP SWAP3 SWAP2 POP POP JUMP JUMPDEST PUSH1 0x0 PUSH1 0x20 DUP3 ADD SWAP1 POP DUP2 DUP2 SUB PUSH1 0x0 DUP4 ADD MSTORE PUSH2 0x1A0F DUP2 PUSH2 0x16F9 JUMP JUMPDEST SWAP1 POP SWAP2 SWAP1 POP JUMP JUMPDEST PUSH1 0x0 PUSH1 0x20 DUP3 ADD SWAP1 POP DUP2 DUP2 SUB PUSH1 0x0 DUP4 ADD MSTORE PUSH2 0x1A2F DUP2 PUSH2 0x171C JUMP JUMPDEST SWAP1 POP SWAP2 SWAP1 POP JUMP JUMPDEST PUSH1 0x0 PUSH1 0x20 DUP3 ADD SWAP1 POP DUP2 DUP2 SUB PUSH1 0x0 DUP4 ADD MSTORE PUSH2 0x1A4F DUP2 PUSH2 0x173F JUMP JUMPDEST SWAP1 POP SWAP2 SWAP1 POP JUMP JUMPDEST PUSH1 0x0 PUSH1 0x20 DUP3 ADD SWAP1 POP DUP2 DUP2 SUB PUSH1 0x0 DUP4 ADD MSTORE PUSH2 0x1A6F DUP2 PUSH2 0x1762 JUMP JUMPDEST SWAP1 POP SWAP2 SWAP1 POP JUMP JUMPDEST PUSH1 0x0 PUSH1 0x20 DUP3 ADD SWAP1 POP DUP2 DUP2 SUB PUSH1 0x0 DUP4 ADD MSTORE PUSH2 0x1A8F DUP2 PUSH2 0x1785 JUMP JUMPDEST SWAP1 POP SWAP2 SWAP1 POP JUMP JUMPDEST PUSH1 0x0 PUSH1 0x20 DUP3 ADD SWAP1 POP DUP2 DUP2 SUB PUSH1 0x0 DUP4 ADD MSTORE PUSH2 0x1AAF DUP2 PUSH2 0x17A8 JUMP JUMPDEST SWAP1 POP SWAP2 SWAP1 POP JUMP JUMPDEST PUSH1 0x0 PUSH1 0x20 DUP3 ADD SWAP1 POP DUP2 DUP2 SUB PUSH1 0x0 DUP4 ADD MSTORE PUSH2 0x1ACF DUP2 PUSH2 0x17CB JUMP JUMPDEST SWAP1 POP SWAP2 SWAP1 POP JUMP JUMPDEST PUSH1 0x0 PUSH1 0x20 DUP3 ADD SWAP1 POP DUP2 DUP2 SUB PUSH1 0x0 DUP4 ADD MSTORE PUSH2 0x1AEF DUP2 PUSH2 0x17EE JUMP JUMPDEST SWAP1 POP SWAP2 SWAP1 POP JUMP JUMPDEST PUSH1 0x0 PUSH1 0x20 DUP3 ADD SWAP1 POP PUSH2 0x1B0B PUSH1 0x0 DUP4 ADD DUP5 PUSH2 0x1820 JUMP JUMPDEST SWAP3 SWAP2 POP POP JUMP JUMPDEST PUSH1 0x0 PUSH1 0x40 DUP3 ADD SWAP1 POP PUSH2 0x1B26 PUSH1 0x0 DUP4 ADD DUP6 PUSH2 0x1820 JUMP JUMPDEST PUSH2 0x1B33 PUSH1 0x20 DUP4 ADD DUP5 PUSH2 0x1820 JUMP JUMPDEST SWAP4 SWAP3 POP POP POP JUMP JUMPDEST PUSH1 0x0 PUSH2 0x1B44 PUSH2 0x1B55 JUMP JUMPDEST SWAP1 POP PUSH2 0x1B50 DUP3 DUP3 PUSH2 0x1D41 JUMP JUMPDEST SWAP2 SWAP1 POP JUMP JUMPDEST PUSH1 0x0 PUSH1 0x40 MLOAD SWAP1 POP SWAP1 JUMP JUMPDEST PUSH1 0x0 PUSH8 0xFFFFFFFFFFFFFFFF DUP3 GT ISZERO PUSH2 0x1B7A JUMPI PUSH2 0x1B79 PUSH2 0x1E19 JUMP JUMPDEST JUMPDEST PUSH2 0x1B83 DUP3 PUSH2 0x1E88 JUMP JUMPDEST SWAP1 POP PUSH1 0x20 DUP2 ADD SWAP1 POP SWAP2 SWAP1 POP JUMP JUMPDEST PUSH1 0x0 DUP2 SWAP1 POP PUSH1 0x20 DUP3 ADD SWAP1 POP SWAP2 SWAP1 POP JUMP JUMPDEST PUSH1 0x0 DUP2 MLOAD SWAP1 POP SWAP2 SWAP1 POP JUMP JUMPDEST PUSH1 0x0 DUP2 MLOAD SWAP1 POP SWAP2 SWAP1 POP JUMP JUMPDEST PUSH1 0x0 DUP2 MLOAD SWAP1 POP SWAP2 SWAP1 POP JUMP JUMPDEST PUSH1 0x0 PUSH1 0x20 DUP3 ADD SWAP1 POP SWAP2 SWAP1 POP JUMP JUMPDEST PUSH1 0x0 DUP3 DUP3 MSTORE PUSH1 0x20 DUP3 ADD SWAP1 POP SWAP3 SWAP2 POP POP JUMP JUMPDEST PUSH1 0x0 DUP3 DUP3 MSTORE PUSH1 0x20 DUP3 ADD SWAP1 POP SWAP3 SWAP2 POP POP JUMP JUMPDEST PUSH1 0x0 DUP3 DUP3 MSTORE PUSH1 0x20 DUP3 ADD SWAP1 POP SWAP3 SWAP2 POP POP JUMP JUMPDEST PUSH1 0x0 PUSH2 0x1C0C DUP3 PUSH2 0x1CF5 JUMP JUMPDEST SWAP2 POP PUSH2 0x1C17 DUP4 PUSH2 0x1CF5 JUMP JUMPDEST SWAP3 POP DUP3 PUSH32 0xFFFFFFFFFFFFFFFFFFFFFFFFFFFFFFFFFFFFFFFFFFFFFFFFFFFFFFFFFFFFFFFF SUB DUP3 GT ISZERO PUSH2 0x1C4C JUMPI PUSH2 0x1C4B PUSH2 0x1DBB JUMP JUMPDEST JUMPDEST DUP3 DUP3 ADD SWAP1 POP SWAP3 SWAP2 POP POP JUMP JUMPDEST PUSH1 0x0 PUSH2 0x1C62 DUP3 PUSH2 0x1CF5 JUMP JUMPDEST SWAP2 POP PUSH2 0x1C6D DUP4 PUSH2 0x1CF5 JUMP JUMPDEST SWAP3 POP DUP3 DUP3 LT ISZERO PUSH2 0x1C80 JUMPI PUSH2 0x1C7F PUSH2 0x1DBB JUMP JUMPDEST JUMPDEST DUP3 DUP3 SUB SWAP1 POP SWAP3 SWAP2 POP POP JUMP JUMPDEST PUSH1 0x0 PUSH2 0x1C96 DUP3 PUSH2 0x1CD5 JUMP JUMPDEST SWAP1 POP SWAP2 SWAP1 POP JUMP JUMPDEST PUSH1 0x0 DUP2 ISZERO ISZERO SWAP1 POP SWAP2 SWAP1 POP JUMP JUMPDEST PUSH1 0x0 PUSH32 0xFFFFFFFF00000000000000000000000000000000000000000000000000000000 DUP3 AND SWAP1 POP SWAP2 SWAP1 POP JUMP JUMPDEST PUSH1 0x0 PUSH20 0xFFFFFFFFFFFFFFFFFFFFFFFFFFFFFFFFFFFFFFFF DUP3 AND SWAP1 POP SWAP2 SWAP1 POP JUMP JUMPDEST PUSH1 0x0 DUP2 SWAP1 POP SWAP2 SWAP1 POP JUMP JUMPDEST DUP3 DUP2 DUP4 CALLDATACOPY PUSH1 0x0 DUP4 DUP4 ADD MSTORE POP POP POP JUMP JUMPDEST PUSH1 0x0 JUMPDEST DUP4 DUP2 LT ISZERO PUSH2 0x1D2C JUMPI DUP1 DUP3 ADD MLOAD DUP2 DUP5 ADD MSTORE PUSH1 0x20 DUP2 ADD SWAP1 POP PUSH2 0x1D11 JUMP JUMPDEST DUP4 DUP2 GT ISZERO PUSH2 0x1D3B JUMPI PUSH1 0x0 DUP5 DUP5 ADD MSTORE JUMPDEST POP POP POP POP JUMP JUMPDEST PUSH2 0x1D4A DUP3 PUSH2 0x1E88 JUMP JUMPDEST DUP2 ADD DUP2 DUP2 LT PUSH8 0xFFFFFFFFFFFFFFFF DUP3 GT OR ISZERO PUSH2 0x1D69 JUMPI PUSH2 0x1D68 PUSH2 0x1E19 JUMP JUMPDEST JUMPDEST DUP1 PUSH1 0x40 MSTORE POP POP POP JUMP JUMPDEST PUSH1 0x0 PUSH2 0x1D7D DUP3 PUSH2 0x1CF5 JUMP JUMPDEST SWAP2 POP PUSH32 0xFFFFFFFFFFFFFFFFFFFFFFFFFFFFFFFFFFFFFFFFFFFFFFFFFFFFFFFFFFFFFFFF DUP3 EQ ISZERO PUSH2 0x1DB0 JUMPI PUSH2 0x1DAF PUSH2 0x1DBB JUMP JUMPDEST JUMPDEST PUSH1 0x1 DUP3 ADD SWAP1 POP SWAP2 SWAP1 POP JUMP JUMPDEST PUSH32 0x4E487B7100000000000000000000000000000000000000000000000000000000 PUSH1 0x0 MSTORE PUSH1 0x11 PUSH1 0x4 MSTORE PUSH1 0x24 PUSH1 0x0 REVERT JUMPDEST PUSH32 0x4E487B7100000000000000000000000000000000000000000000000000000000 PUSH1 0x0 MSTORE PUSH1 0x32 PUSH1 0x4 MSTORE PUSH1 0x24 PUSH1 0x0 REVERT JUMPDEST PUSH32 0x4E487B7100000000000000000000000000000000000000000000000000000000 PUSH1 0x0 MSTORE PUSH1 0x41 PUSH1 0x4 MSTORE PUSH1 0x24 PUSH1 0x0 REVERT JUMPDEST PUSH1 0x0 PUSH1 0x3 RETURNDATASIZE GT ISZERO PUSH2 0x1E67 JUMPI PUSH1 0x4 PUSH1 0x0 DUP1 RETURNDATACOPY PUSH2 0x1E64 PUSH1 0x0 MLOAD PUSH2 0x1E99 JUMP JUMPDEST SWAP1 POP JUMPDEST SWAP1 JUMP JUMPDEST PUSH1 0x0 DUP1 REVERT JUMPDEST PUSH1 0x0 DUP1 REVERT JUMPDEST PUSH1 0x0 DUP1 REVERT JUMPDEST PUSH1 0x0 DUP1 REVERT JUMPDEST PUSH1 0x0 DUP1 REVERT JUMPDEST PUSH1 0x0 DUP1 REVERT JUMPDEST PUSH1 0x0 PUSH1 0x1F NOT PUSH1 0x1F DUP4 ADD AND SWAP1 POP SWAP2 SWAP1 POP JUMP JUMPDEST PUSH1 0x0 DUP2 PUSH1 0xE0 SHR SWAP1 POP SWAP2 SWAP1 POP JUMP JUMPDEST PUSH32 0x455243313135353A207472616E7366657220746F206E6F6E2045524331313535 PUSH1 0x0 DUP3 ADD MSTORE PUSH32 0x526563656976657220696D706C656D656E746572000000000000000000000000 PUSH1 0x20 DUP3 ADD MSTORE POP JUMP JUMPDEST PUSH32 0x455243313135353A2063616C6C6572206973206E6F7420746F6B656E206F776E PUSH1 0x0 DUP3 ADD MSTORE PUSH32 0x6572206E6F7220617070726F7665640000000000000000000000000000000000 PUSH1 0x20 DUP3 ADD MSTORE POP JUMP JUMPDEST PUSH32 0x455243313135353A204552433131353552656365697665722072656A65637465 PUSH1 0x0 DUP3 ADD MSTORE PUSH32 0x6420746F6B656E73000000000000000000000000000000000000000000000000 PUSH1 0x20 DUP3 ADD MSTORE POP JUMP JUMPDEST PUSH32 0x455243313135353A2061646472657373207A65726F206973206E6F7420612076 PUSH1 0x0 DUP3 ADD MSTORE PUSH32 0x616C6964206F776E657200000000000000000000000000000000000000000000 PUSH1 0x20 DUP3 ADD MSTORE POP JUMP JUMPDEST PUSH32 0x746869732046756E6374696F6E206973206F6E6C792063616C6C656420627920 PUSH1 0x0 DUP3 ADD MSTORE PUSH32 0x7365727665720000000000000000000000000000000000000000000000000000 PUSH1 0x20 DUP3 ADD MSTORE POP JUMP JUMPDEST PUSH32 0x455243313135353A207472616E7366657220746F20746865207A65726F206164 PUSH1 0x0 DUP3 ADD MSTORE PUSH32 0x6472657373000000000000000000000000000000000000000000000000000000 PUSH1 0x20 DUP3 ADD MSTORE POP JUMP JUMPDEST PUSH32 0x455243313135353A20696E73756666696369656E742062616C616E636520666F PUSH1 0x0 DUP3 ADD MSTORE PUSH32 0x72207472616E7366657200000000000000000000000000000000000000000000 PUSH1 0x20 DUP3 ADD MSTORE POP JUMP JUMPDEST PUSH32 0x455243313135353A206D696E7420746F20746865207A65726F20616464726573 PUSH1 0x0 DUP3 ADD MSTORE PUSH32 0x7300000000000000000000000000000000000000000000000000000000000000 PUSH1 0x20 DUP3 ADD MSTORE POP JUMP JUMPDEST PUSH1 0x0 PUSH1 0x44 RETURNDATASIZE LT ISZERO PUSH2 0x212E JUMPI PUSH2 0x21B1 JUMP JUMPDEST PUSH2 0x2136 PUSH2 0x1B55 JUMP JUMPDEST PUSH1 0x4 RETURNDATASIZE SUB PUSH1 0x4 DUP3 RETURNDATACOPY DUP1 MLOAD RETURNDATASIZE PUSH1 0x24 DUP3 ADD GT PUSH8 0xFFFFFFFFFFFFFFFF DUP3 GT OR ISZERO PUSH2 0x215E JUMPI POP POP PUSH2 0x21B1 JUMP JUMPDEST DUP1 DUP3 ADD DUP1 MLOAD PUSH8 0xFFFFFFFFFFFFFFFF DUP2 GT ISZERO PUSH2 0x217C JUMPI POP POP POP POP PUSH2 0x21B1 JUMP JUMPDEST DUP1 PUSH1 0x20 DUP4 ADD ADD PUSH1 0x4 RETURNDATASIZE SUB DUP6 ADD DUP2 GT ISZERO PUSH2 0x2199 JUMPI POP POP POP POP POP PUSH2 0x21B1 JUMP JUMPDEST PUSH2 0x21A8 DUP3 PUSH1 0x20 ADD DUP6 ADD DUP7 PUSH2 0x1D41 JUMP JUMPDEST DUP3 SWAP6 POP POP POP POP POP POP JUMPDEST SWAP1 JUMP JUMPDEST PUSH2 0x21BD DUP2 PUSH2 0x1C8B JUMP JUMPDEST DUP2 EQ PUSH2 0x21C8 JUMPI PUSH1 0x0 DUP1 REVERT JUMPDEST POP JUMP JUMPDEST PUSH2 0x21D4 DUP2 PUSH2 0x1C9D JUMP JUMPDEST DUP2 EQ PUSH2 0x21DF JUMPI PUSH1 0x0 DUP1 REVERT JUMPDEST POP JUMP JUMPDEST PUSH2 0x21EB DUP2 PUSH2 0x1CA9 JUMP JUMPDEST DUP2 EQ PUSH2 0x21F6 JUMPI PUSH1 0x0 DUP1 REVERT JUMPDEST POP JUMP JUMPDEST PUSH2 0x2202 DUP2 PUSH2 0x1CF5 JUMP JUMPDEST DUP2 EQ PUSH2 0x220D JUMPI PUSH1 0x0 DUP1 REVERT JUMPDEST POP JUMP INVALID LOG2 PUSH5 0x6970667358 0x22 SLT KECCAK256 SWAP8 SWAP16 0xD6 STOP 0xE8 SDIV DUP6 0xF7 PUSH11 0xF4BAC48F681E1606EC6A23 RETURNDATASIZE 0xC0 SELFBALANCE ADDRESS 0xE8 DUP5 SWAP11 EXTCODESIZE DUP7 0xA8 SAR 0xDF PUSH5 0x736F6C6343 STOP ADDMOD SMOD STOP CALLER "
				},
				"gasEstimates": {
					"creation": {
						"codeDepositCost": "1754800",
						"executionCost": "infinite",
						"totalCost": "infinite"
					},
					"external": {
						"CouponMint(uint256,uint256)": "infinite",
						"HowMuchKindsOfCoupons()": "infinite",
						"KindsOfCoupons()": "infinite",
						"Stocks(uint256)": "infinite",
						"balanceOf(address,uint256)": "infinite",
						"buyCoupon(uint256,uint256,uint256,address)": "infinite",
						"onERC1155Received(address,address,uint256,uint256,bytes)": "infinite",
						"safeTransferFrom(address,address,uint256,uint256,bytes)": "infinite",
						"serverAddr()": "2544",
						"setServerAddr(address)": "infinite"
					},
					"internal": {
						"_reduceAmount(uint256,uint256)": "infinite"
					}
				},
				"methodIdentifiers": {
					"CouponMint(uint256,uint256)": "57e87575",
					"HowMuchKindsOfCoupons()": "22a22ec3",
					"KindsOfCoupons()": "ef3975fd",
					"Stocks(uint256)": "2344c006",
					"balanceOf(address,uint256)": "00fdd58e",
					"buyCoupon(uint256,uint256,uint256,address)": "242fd022",
					"onERC1155Received(address,address,uint256,uint256,bytes)": "f23a6e61",
					"safeTransferFrom(address,address,uint256,uint256,bytes)": "f242432a",
					"serverAddr()": "e9207304",
					"setServerAddr(address)": "9bb7e310"
				}
			},
			"storageLayout": {
				"storage": [
					{
						"astId": 58,
						"contract": "contracts/Coupon.sol:CouponMarket",
						"label": "_balances",
						"offset": 0,
						"slot": "0",
						"type": "t_mapping(t_uint256,t_mapping(t_address,t_uint256))"
					},
					{
						"astId": 64,
						"contract": "contracts/Coupon.sol:CouponMarket",
						"label": "_operatorApprovals",
						"offset": 0,
						"slot": "1",
						"type": "t_mapping(t_address,t_mapping(t_address,t_bool))"
					},
					{
						"astId": 720,
						"contract": "contracts/Coupon.sol:CouponMarket",
						"label": "_serverAddr",
						"offset": 0,
						"slot": "2",
						"type": "t_address"
					},
					{
						"astId": 724,
						"contract": "contracts/Coupon.sol:CouponMarket",
						"label": "_amount",
						"offset": 0,
						"slot": "3",
						"type": "t_mapping(t_uint256,t_uint256)"
					}
				],
				"types": {
					"t_address": {
						"encoding": "inplace",
						"label": "address",
						"numberOfBytes": "20"
					},
					"t_bool": {
						"encoding": "inplace",
						"label": "bool",
						"numberOfBytes": "1"
					},
					"t_mapping(t_address,t_bool)": {
						"encoding": "mapping",
						"key": "t_address",
						"label": "mapping(address => bool)",
						"numberOfBytes": "32",
						"value": "t_bool"
					},
					"t_mapping(t_address,t_mapping(t_address,t_bool))": {
						"encoding": "mapping",
						"key": "t_address",
						"label": "mapping(address => mapping(address => bool))",
						"numberOfBytes": "32",
						"value": "t_mapping(t_address,t_bool)"
					},
					"t_mapping(t_address,t_uint256)": {
						"encoding": "mapping",
						"key": "t_address",
						"label": "mapping(address => uint256)",
						"numberOfBytes": "32",
						"value": "t_uint256"
					},
					"t_mapping(t_uint256,t_mapping(t_address,t_uint256))": {
						"encoding": "mapping",
						"key": "t_uint256",
						"label": "mapping(uint256 => mapping(address => uint256))",
						"numberOfBytes": "32",
						"value": "t_mapping(t_address,t_uint256)"
					},
					"t_mapping(t_uint256,t_uint256)": {
						"encoding": "mapping",
						"key": "t_uint256",
						"label": "mapping(uint256 => uint256)",
						"numberOfBytes": "32",
						"value": "t_uint256"
					},
					"t_uint256": {
						"encoding": "inplace",
						"label": "uint256",
						"numberOfBytes": "32"
					}
				}
			},
			"userdoc": {
				"kind": "user",
				"methods": {},
				"version": 1
			}
		}
	}
}