{
	"contracts/Coupon.sol": {
		"ERC1155": {
			"abi": [
				{
					"inputs": [
						{
							"internalType": "string",
							"name": "uri_",
							"type": "string"
						}
					],
					"stateMutability": "nonpayable",
					"type": "constructor"
				},
				{
					"anonymous": false,
					"inputs": [
						{
							"indexed": true,
							"internalType": "address",
							"name": "operator",
							"type": "address"
						},
						{
							"indexed": true,
							"internalType": "address",
							"name": "from",
							"type": "address"
						},
						{
							"indexed": true,
							"internalType": "address",
							"name": "to",
							"type": "address"
						},
						{
							"indexed": false,
							"internalType": "uint256",
							"name": "id",
							"type": "uint256"
						},
						{
							"indexed": false,
							"internalType": "uint256",
							"name": "value",
							"type": "uint256"
						}
					],
					"name": "TransferSingle",
					"type": "event"
				},
				{
					"inputs": [
						{
							"internalType": "address",
							"name": "account",
							"type": "address"
						},
						{
							"internalType": "uint256",
							"name": "id",
							"type": "uint256"
						}
					],
					"name": "balanceOf",
					"outputs": [
						{
							"internalType": "uint256",
							"name": "",
							"type": "uint256"
						}
					],
					"stateMutability": "view",
					"type": "function"
				},
				{
					"inputs": [
						{
							"internalType": "address",
							"name": "from",
							"type": "address"
						},
						{
							"internalType": "address",
							"name": "to",
							"type": "address"
						},
						{
							"internalType": "uint256",
							"name": "id",
							"type": "uint256"
						},
						{
							"internalType": "uint256",
							"name": "amount",
							"type": "uint256"
						},
						{
							"internalType": "bytes",
							"name": "data",
							"type": "bytes"
						}
					],
					"name": "safeTransferFrom",
					"outputs": [],
					"stateMutability": "nonpayable",
					"type": "function"
				},
				{
					"inputs": [
						{
							"internalType": "uint256",
							"name": "",
							"type": "uint256"
						}
					],
					"name": "uri",
					"outputs": [
						{
							"internalType": "string",
							"name": "",
							"type": "string"
						}
					],
					"stateMutability": "view",
					"type": "function"
				}
			],
			"devdoc": {
				"kind": "dev",
				"methods": {
					"balanceOf(address,uint256)": {
						"details": "See {IERC1155-balanceOf}. Requirements: - `account` cannot be the zero address."
					},
					"constructor": {
						"details": "See {_setURI}."
					},
					"safeTransferFrom(address,address,uint256,uint256,bytes)": {
						"details": "See {IERC1155-safeTransferFrom}."
					},
					"uri(uint256)": {
						"details": "See {IERC1155MetadataURI-uri}. This implementation returns the same URI for *all* token types. It relies on the token type ID substitution mechanism https://eips.ethereum.org/EIPS/eip-1155#metadata[defined in the EIP]. Clients calling this function must replace the `\\{id\\}` substring with the actual token type ID."
					}
				},
				"version": 1
			},
			"evm": {
				"assembly": "    /* \"contracts/Coupon.sol\":3980:14396  contract ERC1155 {... */\n  mstore(0x40, 0x80)\n    /* \"contracts/Coupon.sol\":5021:5083  constructor(string memory uri_) {... */\n  callvalue\n  dup1\n  iszero\n  tag_1\n  jumpi\n  0x00\n  dup1\n  revert\ntag_1:\n  pop\n  mload(0x40)\n  sub(codesize, bytecodeSize)\n  dup1\n  bytecodeSize\n  dup4\n  codecopy\n  dup2\n  dup2\n  add\n  0x40\n  mstore\n  dup2\n  add\n  swap1\n  tag_2\n  swap2\n  swap1\n  tag_3\n  jump\t// in\ntag_2:\n    /* \"contracts/Coupon.sol\":5063:5076  _setURI(uri_) */\n  tag_6\n    /* \"contracts/Coupon.sol\":5071:5075  uri_ */\n  dup2\n    /* \"contracts/Coupon.sol\":5063:5070  _setURI */\n  shl(0x20, tag_7)\n    /* \"contracts/Coupon.sol\":5063:5076  _setURI(uri_) */\n  0x20\n  shr\n  jump\t// in\ntag_6:\n    /* \"contracts/Coupon.sol\":5021:5083  constructor(string memory uri_) {... */\n  pop\n    /* \"contracts/Coupon.sol\":3980:14396  contract ERC1155 {... */\n  jump(tag_8)\n    /* \"contracts/Coupon.sol\":8673:8759  function _setURI(string memory newuri) internal virtual {... */\ntag_7:\n    /* \"contracts/Coupon.sol\":8746:8752  newuri */\n  dup1\n    /* \"contracts/Coupon.sol\":8739:8743  _uri */\n  0x02\n    /* \"contracts/Coupon.sol\":8739:8752  _uri = newuri */\n  swap1\n  dup1\n  mload\n  swap1\n  0x20\n  add\n  swap1\n  tag_10\n  swap3\n  swap2\n  swap1\n  tag_11\n  jump\t// in\ntag_10:\n  pop\n    /* \"contracts/Coupon.sol\":8673:8759  function _setURI(string memory newuri) internal virtual {... */\n  pop\n  jump\t// out\n    /* \"contracts/Coupon.sol\":3980:14396  contract ERC1155 {... */\ntag_11:\n  dup3\n  dup1\n  sload\n  tag_12\n  swap1\n  tag_13\n  jump\t// in\ntag_12:\n  swap1\n  0x00\n  mstore\n  keccak256(0x00, 0x20)\n  swap1\n  0x1f\n  add\n  0x20\n  swap1\n  div\n  dup2\n  add\n  swap3\n  dup3\n  tag_15\n  jumpi\n  0x00\n  dup6\n  sstore\n  jump(tag_14)\ntag_15:\n  dup3\n  0x1f\n  lt\n  tag_16\n  jumpi\n  dup1\n  mload\n  not(0xff)\n  and\n  dup4\n  dup1\n  add\n  or\n  dup6\n  sstore\n  jump(tag_14)\ntag_16:\n  dup3\n  dup1\n  add\n  0x01\n  add\n  dup6\n  sstore\n  dup3\n  iszero\n  tag_14\n  jumpi\n  swap2\n  dup3\n  add\ntag_17:\n  dup3\n  dup2\n  gt\n  iszero\n  tag_18\n  jumpi\n  dup3\n  mload\n  dup3\n  sstore\n  swap2\n  0x20\n  add\n  swap2\n  swap1\n  0x01\n  add\n  swap1\n  jump(tag_17)\ntag_18:\ntag_14:\n  pop\n  swap1\n  pop\n  tag_19\n  swap2\n  swap1\n  tag_20\n  jump\t// in\ntag_19:\n  pop\n  swap1\n  jump\t// out\ntag_20:\ntag_21:\n  dup1\n  dup3\n  gt\n  iszero\n  tag_22\n  jumpi\n  0x00\n  dup2\n  0x00\n  swap1\n  sstore\n  pop\n  0x01\n  add\n  jump(tag_21)\ntag_22:\n  pop\n  swap1\n  jump\t// out\n    /* \"#utility.yul\":7:428   */\ntag_24:\n    /* \"#utility.yul\":96:101   */\n  0x00\n    /* \"#utility.yul\":121:187   */\n  tag_26\n    /* \"#utility.yul\":137:186   */\n  tag_27\n    /* \"#utility.yul\":179:185   */\n  dup5\n    /* \"#utility.yul\":137:186   */\n  tag_28\n  jump\t// in\ntag_27:\n    /* \"#utility.yul\":121:187   */\n  tag_29\n  jump\t// in\ntag_26:\n    /* \"#utility.yul\":112:187   */\n  swap1\n  pop\n    /* \"#utility.yul\":210:216   */\n  dup3\n    /* \"#utility.yul\":203:208   */\n  dup2\n    /* \"#utility.yul\":196:217   */\n  mstore\n    /* \"#utility.yul\":248:252   */\n  0x20\n    /* \"#utility.yul\":241:246   */\n  dup2\n    /* \"#utility.yul\":237:253   */\n  add\n    /* \"#utility.yul\":286:289   */\n  dup5\n    /* \"#utility.yul\":277:283   */\n  dup5\n    /* \"#utility.yul\":272:275   */\n  dup5\n    /* \"#utility.yul\":268:284   */\n  add\n    /* \"#utility.yul\":265:290   */\n  gt\n    /* \"#utility.yul\":262:374   */\n  iszero\n  tag_30\n  jumpi\n    /* \"#utility.yul\":293:372   */\n  tag_31\n  tag_32\n  jump\t// in\ntag_31:\n    /* \"#utility.yul\":262:374   */\ntag_30:\n    /* \"#utility.yul\":383:422   */\n  tag_33\n    /* \"#utility.yul\":415:421   */\n  dup5\n    /* \"#utility.yul\":410:413   */\n  dup3\n    /* \"#utility.yul\":405:408   */\n  dup6\n    /* \"#utility.yul\":383:422   */\n  tag_34\n  jump\t// in\ntag_33:\n    /* \"#utility.yul\":102:428   */\n  pop\n    /* \"#utility.yul\":7:428   */\n  swap4\n  swap3\n  pop\n  pop\n  pop\n  jump\t// out\n    /* \"#utility.yul\":448:803   */\ntag_35:\n    /* \"#utility.yul\":515:520   */\n  0x00\n    /* \"#utility.yul\":564:567   */\n  dup3\n    /* \"#utility.yul\":557:561   */\n  0x1f\n    /* \"#utility.yul\":549:555   */\n  dup4\n    /* \"#utility.yul\":545:562   */\n  add\n    /* \"#utility.yul\":541:568   */\n  slt\n    /* \"#utility.yul\":531:653   */\n  tag_37\n  jumpi\n    /* \"#utility.yul\":572:651   */\n  tag_38\n  tag_39\n  jump\t// in\ntag_38:\n    /* \"#utility.yul\":531:653   */\ntag_37:\n    /* \"#utility.yul\":682:688   */\n  dup2\n    /* \"#utility.yul\":676:689   */\n  mload\n    /* \"#utility.yul\":707:797   */\n  tag_40\n    /* \"#utility.yul\":793:796   */\n  dup5\n    /* \"#utility.yul\":785:791   */\n  dup3\n    /* \"#utility.yul\":778:782   */\n  0x20\n    /* \"#utility.yul\":770:776   */\n  dup7\n    /* \"#utility.yul\":766:783   */\n  add\n    /* \"#utility.yul\":707:797   */\n  tag_24\n  jump\t// in\ntag_40:\n    /* \"#utility.yul\":698:797   */\n  swap2\n  pop\n    /* \"#utility.yul\":521:803   */\n  pop\n    /* \"#utility.yul\":448:803   */\n  swap3\n  swap2\n  pop\n  pop\n  jump\t// out\n    /* \"#utility.yul\":809:1333   */\ntag_3:\n    /* \"#utility.yul\":889:895   */\n  0x00\n    /* \"#utility.yul\":938:940   */\n  0x20\n    /* \"#utility.yul\":926:935   */\n  dup3\n    /* \"#utility.yul\":917:924   */\n  dup5\n    /* \"#utility.yul\":913:936   */\n  sub\n    /* \"#utility.yul\":909:941   */\n  slt\n    /* \"#utility.yul\":906:1025   */\n  iszero\n  tag_42\n  jumpi\n    /* \"#utility.yul\":944:1023   */\n  tag_43\n  tag_44\n  jump\t// in\ntag_43:\n    /* \"#utility.yul\":906:1025   */\ntag_42:\n    /* \"#utility.yul\":1085:1086   */\n  0x00\n    /* \"#utility.yul\":1074:1083   */\n  dup3\n    /* \"#utility.yul\":1070:1087   */\n  add\n    /* \"#utility.yul\":1064:1088   */\n  mload\n    /* \"#utility.yul\":1115:1133   */\n  0xffffffffffffffff\n    /* \"#utility.yul\":1107:1113   */\n  dup2\n    /* \"#utility.yul\":1104:1134   */\n  gt\n    /* \"#utility.yul\":1101:1218   */\n  iszero\n  tag_45\n  jumpi\n    /* \"#utility.yul\":1137:1216   */\n  tag_46\n  tag_47\n  jump\t// in\ntag_46:\n    /* \"#utility.yul\":1101:1218   */\ntag_45:\n    /* \"#utility.yul\":1242:1316   */\n  tag_48\n    /* \"#utility.yul\":1308:1315   */\n  dup5\n    /* \"#utility.yul\":1299:1305   */\n  dup3\n    /* \"#utility.yul\":1288:1297   */\n  dup6\n    /* \"#utility.yul\":1284:1306   */\n  add\n    /* \"#utility.yul\":1242:1316   */\n  tag_35\n  jump\t// in\ntag_48:\n    /* \"#utility.yul\":1232:1316   */\n  swap2\n  pop\n    /* \"#utility.yul\":1035:1326   */\n  pop\n    /* \"#utility.yul\":809:1333   */\n  swap3\n  swap2\n  pop\n  pop\n  jump\t// out\n    /* \"#utility.yul\":1339:1468   */\ntag_29:\n    /* \"#utility.yul\":1373:1379   */\n  0x00\n    /* \"#utility.yul\":1400:1420   */\n  tag_50\n  tag_51\n  jump\t// in\ntag_50:\n    /* \"#utility.yul\":1390:1420   */\n  swap1\n  pop\n    /* \"#utility.yul\":1429:1462   */\n  tag_52\n    /* \"#utility.yul\":1457:1461   */\n  dup3\n    /* \"#utility.yul\":1449:1455   */\n  dup3\n    /* \"#utility.yul\":1429:1462   */\n  tag_53\n  jump\t// in\ntag_52:\n    /* \"#utility.yul\":1339:1468   */\n  swap2\n  swap1\n  pop\n  jump\t// out\n    /* \"#utility.yul\":1474:1549   */\ntag_51:\n    /* \"#utility.yul\":1507:1513   */\n  0x00\n    /* \"#utility.yul\":1540:1542   */\n  0x40\n    /* \"#utility.yul\":1534:1543   */\n  mload\n    /* \"#utility.yul\":1524:1543   */\n  swap1\n  pop\n    /* \"#utility.yul\":1474:1549   */\n  swap1\n  jump\t// out\n    /* \"#utility.yul\":1555:1863   */\ntag_28:\n    /* \"#utility.yul\":1617:1621   */\n  0x00\n    /* \"#utility.yul\":1707:1725   */\n  0xffffffffffffffff\n    /* \"#utility.yul\":1699:1705   */\n  dup3\n    /* \"#utility.yul\":1696:1726   */\n  gt\n    /* \"#utility.yul\":1693:1749   */\n  iszero\n  tag_56\n  jumpi\n    /* \"#utility.yul\":1729:1747   */\n  tag_57\n  tag_58\n  jump\t// in\ntag_57:\n    /* \"#utility.yul\":1693:1749   */\ntag_56:\n    /* \"#utility.yul\":1767:1796   */\n  tag_59\n    /* \"#utility.yul\":1789:1795   */\n  dup3\n    /* \"#utility.yul\":1767:1796   */\n  tag_60\n  jump\t// in\ntag_59:\n    /* \"#utility.yul\":1759:1796   */\n  swap1\n  pop\n    /* \"#utility.yul\":1851:1855   */\n  0x20\n    /* \"#utility.yul\":1845:1849   */\n  dup2\n    /* \"#utility.yul\":1841:1856   */\n  add\n    /* \"#utility.yul\":1833:1856   */\n  swap1\n  pop\n    /* \"#utility.yul\":1555:1863   */\n  swap2\n  swap1\n  pop\n  jump\t// out\n    /* \"#utility.yul\":1869:2176   */\ntag_34:\n    /* \"#utility.yul\":1937:1938   */\n  0x00\n    /* \"#utility.yul\":1947:2060   */\ntag_62:\n    /* \"#utility.yul\":1961:1967   */\n  dup4\n    /* \"#utility.yul\":1958:1959   */\n  dup2\n    /* \"#utility.yul\":1955:1968   */\n  lt\n    /* \"#utility.yul\":1947:2060   */\n  iszero\n  tag_64\n  jumpi\n    /* \"#utility.yul\":2046:2047   */\n  dup1\n    /* \"#utility.yul\":2041:2044   */\n  dup3\n    /* \"#utility.yul\":2037:2048   */\n  add\n    /* \"#utility.yul\":2031:2049   */\n  mload\n    /* \"#utility.yul\":2027:2028   */\n  dup2\n    /* \"#utility.yul\":2022:2025   */\n  dup5\n    /* \"#utility.yul\":2018:2029   */\n  add\n    /* \"#utility.yul\":2011:2050   */\n  mstore\n    /* \"#utility.yul\":1983:1985   */\n  0x20\n    /* \"#utility.yul\":1980:1981   */\n  dup2\n    /* \"#utility.yul\":1976:1986   */\n  add\n    /* \"#utility.yul\":1971:1986   */\n  swap1\n  pop\n    /* \"#utility.yul\":1947:2060   */\n  jump(tag_62)\ntag_64:\n    /* \"#utility.yul\":2078:2084   */\n  dup4\n    /* \"#utility.yul\":2075:2076   */\n  dup2\n    /* \"#utility.yul\":2072:2085   */\n  gt\n    /* \"#utility.yul\":2069:2170   */\n  iszero\n  tag_65\n  jumpi\n    /* \"#utility.yul\":2158:2159   */\n  0x00\n    /* \"#utility.yul\":2149:2155   */\n  dup5\n    /* \"#utility.yul\":2144:2147   */\n  dup5\n    /* \"#utility.yul\":2140:2156   */\n  add\n    /* \"#utility.yul\":2133:2160   */\n  mstore\n    /* \"#utility.yul\":2069:2170   */\ntag_65:\n    /* \"#utility.yul\":1918:2176   */\n  pop\n    /* \"#utility.yul\":1869:2176   */\n  pop\n  pop\n  pop\n  jump\t// out\n    /* \"#utility.yul\":2182:2502   */\ntag_13:\n    /* \"#utility.yul\":2226:2232   */\n  0x00\n    /* \"#utility.yul\":2263:2264   */\n  0x02\n    /* \"#utility.yul\":2257:2261   */\n  dup3\n    /* \"#utility.yul\":2253:2265   */\n  div\n    /* \"#utility.yul\":2243:2265   */\n  swap1\n  pop\n    /* \"#utility.yul\":2310:2311   */\n  0x01\n    /* \"#utility.yul\":2304:2308   */\n  dup3\n    /* \"#utility.yul\":2300:2312   */\n  and\n    /* \"#utility.yul\":2331:2349   */\n  dup1\n    /* \"#utility.yul\":2321:2402   */\n  tag_67\n  jumpi\n    /* \"#utility.yul\":2387:2391   */\n  0x7f\n    /* \"#utility.yul\":2379:2385   */\n  dup3\n    /* \"#utility.yul\":2375:2392   */\n  and\n    /* \"#utility.yul\":2365:2392   */\n  swap2\n  pop\n    /* \"#utility.yul\":2321:2402   */\ntag_67:\n    /* \"#utility.yul\":2449:2451   */\n  0x20\n    /* \"#utility.yul\":2441:2447   */\n  dup3\n    /* \"#utility.yul\":2438:2452   */\n  lt\n    /* \"#utility.yul\":2418:2436   */\n  dup2\n    /* \"#utility.yul\":2415:2453   */\n  eq\n    /* \"#utility.yul\":2412:2496   */\n  iszero\n  tag_68\n  jumpi\n    /* \"#utility.yul\":2468:2486   */\n  tag_69\n  tag_70\n  jump\t// in\ntag_69:\n    /* \"#utility.yul\":2412:2496   */\ntag_68:\n    /* \"#utility.yul\":2233:2502   */\n  pop\n    /* \"#utility.yul\":2182:2502   */\n  swap2\n  swap1\n  pop\n  jump\t// out\n    /* \"#utility.yul\":2508:2789   */\ntag_53:\n    /* \"#utility.yul\":2591:2618   */\n  tag_72\n    /* \"#utility.yul\":2613:2617   */\n  dup3\n    /* \"#utility.yul\":2591:2618   */\n  tag_60\n  jump\t// in\ntag_72:\n    /* \"#utility.yul\":2583:2589   */\n  dup2\n    /* \"#utility.yul\":2579:2619   */\n  add\n    /* \"#utility.yul\":2721:2727   */\n  dup2\n    /* \"#utility.yul\":2709:2719   */\n  dup2\n    /* \"#utility.yul\":2706:2728   */\n  lt\n    /* \"#utility.yul\":2685:2703   */\n  0xffffffffffffffff\n    /* \"#utility.yul\":2673:2683   */\n  dup3\n    /* \"#utility.yul\":2670:2704   */\n  gt\n    /* \"#utility.yul\":2667:2729   */\n  or\n    /* \"#utility.yul\":2664:2752   */\n  iszero\n  tag_73\n  jumpi\n    /* \"#utility.yul\":2732:2750   */\n  tag_74\n  tag_58\n  jump\t// in\ntag_74:\n    /* \"#utility.yul\":2664:2752   */\ntag_73:\n    /* \"#utility.yul\":2772:2782   */\n  dup1\n    /* \"#utility.yul\":2768:2770   */\n  0x40\n    /* \"#utility.yul\":2761:2783   */\n  mstore\n    /* \"#utility.yul\":2551:2789   */\n  pop\n    /* \"#utility.yul\":2508:2789   */\n  pop\n  pop\n  jump\t// out\n    /* \"#utility.yul\":2795:2975   */\ntag_70:\n    /* \"#utility.yul\":2843:2920   */\n  0x4e487b7100000000000000000000000000000000000000000000000000000000\n    /* \"#utility.yul\":2840:2841   */\n  0x00\n    /* \"#utility.yul\":2833:2921   */\n  mstore\n    /* \"#utility.yul\":2940:2944   */\n  0x22\n    /* \"#utility.yul\":2937:2938   */\n  0x04\n    /* \"#utility.yul\":2930:2945   */\n  mstore\n    /* \"#utility.yul\":2964:2968   */\n  0x24\n    /* \"#utility.yul\":2961:2962   */\n  0x00\n    /* \"#utility.yul\":2954:2969   */\n  revert\n    /* \"#utility.yul\":2981:3161   */\ntag_58:\n    /* \"#utility.yul\":3029:3106   */\n  0x4e487b7100000000000000000000000000000000000000000000000000000000\n    /* \"#utility.yul\":3026:3027   */\n  0x00\n    /* \"#utility.yul\":3019:3107   */\n  mstore\n    /* \"#utility.yul\":3126:3130   */\n  0x41\n    /* \"#utility.yul\":3123:3124   */\n  0x04\n    /* \"#utility.yul\":3116:3131   */\n  mstore\n    /* \"#utility.yul\":3150:3154   */\n  0x24\n    /* \"#utility.yul\":3147:3148   */\n  0x00\n    /* \"#utility.yul\":3140:3155   */\n  revert\n    /* \"#utility.yul\":3167:3284   */\ntag_39:\n    /* \"#utility.yul\":3276:3277   */\n  0x00\n    /* \"#utility.yul\":3273:3274   */\n  dup1\n    /* \"#utility.yul\":3266:3278   */\n  revert\n    /* \"#utility.yul\":3290:3407   */\ntag_32:\n    /* \"#utility.yul\":3399:3400   */\n  0x00\n    /* \"#utility.yul\":3396:3397   */\n  dup1\n    /* \"#utility.yul\":3389:3401   */\n  revert\n    /* \"#utility.yul\":3413:3530   */\ntag_47:\n    /* \"#utility.yul\":3522:3523   */\n  0x00\n    /* \"#utility.yul\":3519:3520   */\n  dup1\n    /* \"#utility.yul\":3512:3524   */\n  revert\n    /* \"#utility.yul\":3536:3653   */\ntag_44:\n    /* \"#utility.yul\":3645:3646   */\n  0x00\n    /* \"#utility.yul\":3642:3643   */\n  dup1\n    /* \"#utility.yul\":3635:3647   */\n  revert\n    /* \"#utility.yul\":3659:3761   */\ntag_60:\n    /* \"#utility.yul\":3700:3706   */\n  0x00\n    /* \"#utility.yul\":3751:3753   */\n  0x1f\n    /* \"#utility.yul\":3747:3754   */\n  not\n    /* \"#utility.yul\":3742:3744   */\n  0x1f\n    /* \"#utility.yul\":3735:3740   */\n  dup4\n    /* \"#utility.yul\":3731:3745   */\n  add\n    /* \"#utility.yul\":3727:3755   */\n  and\n    /* \"#utility.yul\":3717:3755   */\n  swap1\n  pop\n    /* \"#utility.yul\":3659:3761   */\n  swap2\n  swap1\n  pop\n  jump\t// out\n    /* \"contracts/Coupon.sol\":3980:14396  contract ERC1155 {... */\ntag_8:\n  dataSize(sub_0)\n  dup1\n  dataOffset(sub_0)\n  0x00\n  codecopy\n  0x00\n  return\nstop\n\nsub_0: assembly {\n        /* \"contracts/Coupon.sol\":3980:14396  contract ERC1155 {... */\n      mstore(0x40, 0x80)\n      callvalue\n      dup1\n      iszero\n      tag_1\n      jumpi\n      0x00\n      dup1\n      revert\n    tag_1:\n      pop\n      jumpi(tag_2, lt(calldatasize, 0x04))\n      shr(0xe0, calldataload(0x00))\n      dup1\n      0xfdd58e\n      eq\n      tag_3\n      jumpi\n      dup1\n      0x0e89341c\n      eq\n      tag_4\n      jumpi\n      dup1\n      0xf242432a\n      eq\n      tag_5\n      jumpi\n    tag_2:\n      0x00\n      dup1\n      revert\n        /* \"contracts/Coupon.sol\":5718:6006  function balanceOf(address account, uint256 id)... */\n    tag_3:\n      tag_6\n      0x04\n      dup1\n      calldatasize\n      sub\n      dup2\n      add\n      swap1\n      tag_7\n      swap2\n      swap1\n      tag_8\n      jump\t// in\n    tag_7:\n      tag_9\n      jump\t// in\n    tag_6:\n      mload(0x40)\n      tag_10\n      swap2\n      swap1\n      tag_11\n      jump\t// in\n    tag_10:\n      mload(0x40)\n      dup1\n      swap2\n      sub\n      swap1\n      return\n        /* \"contracts/Coupon.sol\":5482:5576  function uri(uint256) public view virtual returns (string memory) {... */\n    tag_4:\n      tag_12\n      0x04\n      dup1\n      calldatasize\n      sub\n      dup2\n      add\n      swap1\n      tag_13\n      swap2\n      swap1\n      tag_14\n      jump\t// in\n    tag_13:\n      tag_15\n      jump\t// in\n    tag_12:\n      mload(0x40)\n      tag_16\n      swap2\n      swap1\n      tag_17\n      jump\t// in\n    tag_16:\n      mload(0x40)\n      dup1\n      swap2\n      sub\n      swap1\n      return\n        /* \"contracts/Coupon.sol\":6073:6419  function safeTransferFrom(... */\n    tag_5:\n      tag_18\n      0x04\n      dup1\n      calldatasize\n      sub\n      dup2\n      add\n      swap1\n      tag_19\n      swap2\n      swap1\n      tag_20\n      jump\t// in\n    tag_19:\n      tag_21\n      jump\t// in\n    tag_18:\n      stop\n        /* \"contracts/Coupon.sol\":5718:6006  function balanceOf(address account, uint256 id)... */\n    tag_9:\n        /* \"contracts/Coupon.sol\":5827:5834  uint256 */\n      0x00\n        /* \"contracts/Coupon.sol\":5890:5891  0 */\n      dup1\n        /* \"contracts/Coupon.sol\":5871:5892  account != address(0) */\n      0xffffffffffffffffffffffffffffffffffffffff\n      and\n        /* \"contracts/Coupon.sol\":5871:5878  account */\n      dup4\n        /* \"contracts/Coupon.sol\":5871:5892  account != address(0) */\n      0xffffffffffffffffffffffffffffffffffffffff\n      and\n      eq\n      iszero\n        /* \"contracts/Coupon.sol\":5850:5960  require(... */\n      tag_23\n      jumpi\n      mload(0x40)\n      0x08c379a000000000000000000000000000000000000000000000000000000000\n      dup2\n      mstore\n      0x04\n      add\n      tag_24\n      swap1\n      tag_25\n      jump\t// in\n    tag_24:\n      mload(0x40)\n      dup1\n      swap2\n      sub\n      swap1\n      revert\n    tag_23:\n        /* \"contracts/Coupon.sol\":5977:5986  _balances */\n      0x00\n        /* \"contracts/Coupon.sol\":5977:5990  _balances[id] */\n      dup1\n        /* \"contracts/Coupon.sol\":5987:5989  id */\n      dup4\n        /* \"contracts/Coupon.sol\":5977:5990  _balances[id] */\n      dup2\n      mstore\n      0x20\n      add\n      swap1\n      dup2\n      mstore\n      0x20\n      add\n      0x00\n      keccak256\n        /* \"contracts/Coupon.sol\":5977:5999  _balances[id][account] */\n      0x00\n        /* \"contracts/Coupon.sol\":5991:5998  account */\n      dup5\n        /* \"contracts/Coupon.sol\":5977:5999  _balances[id][account] */\n      0xffffffffffffffffffffffffffffffffffffffff\n      and\n      0xffffffffffffffffffffffffffffffffffffffff\n      and\n      dup2\n      mstore\n      0x20\n      add\n      swap1\n      dup2\n      mstore\n      0x20\n      add\n      0x00\n      keccak256\n      sload\n        /* \"contracts/Coupon.sol\":5970:5999  return _balances[id][account] */\n      swap1\n      pop\n        /* \"contracts/Coupon.sol\":5718:6006  function balanceOf(address account, uint256 id)... */\n      swap3\n      swap2\n      pop\n      pop\n      jump\t// out\n        /* \"contracts/Coupon.sol\":5482:5576  function uri(uint256) public view virtual returns (string memory) {... */\n    tag_15:\n        /* \"contracts/Coupon.sol\":5533:5546  string memory */\n      0x60\n        /* \"contracts/Coupon.sol\":5565:5569  _uri */\n      0x02\n        /* \"contracts/Coupon.sol\":5558:5569  return _uri */\n      dup1\n      sload\n      tag_27\n      swap1\n      tag_28\n      jump\t// in\n    tag_27:\n      dup1\n      0x1f\n      add\n      0x20\n      dup1\n      swap2\n      div\n      mul\n      0x20\n      add\n      mload(0x40)\n      swap1\n      dup2\n      add\n      0x40\n      mstore\n      dup1\n      swap3\n      swap2\n      swap1\n      dup2\n      dup2\n      mstore\n      0x20\n      add\n      dup3\n      dup1\n      sload\n      tag_29\n      swap1\n      tag_28\n      jump\t// in\n    tag_29:\n      dup1\n      iszero\n      tag_30\n      jumpi\n      dup1\n      0x1f\n      lt\n      tag_31\n      jumpi\n      0x0100\n      dup1\n      dup4\n      sload\n      div\n      mul\n      dup4\n      mstore\n      swap2\n      0x20\n      add\n      swap2\n      jump(tag_30)\n    tag_31:\n      dup3\n      add\n      swap2\n      swap1\n      0x00\n      mstore\n      keccak256(0x00, 0x20)\n      swap1\n    tag_32:\n      dup2\n      sload\n      dup2\n      mstore\n      swap1\n      0x01\n      add\n      swap1\n      0x20\n      add\n      dup1\n      dup4\n      gt\n      tag_32\n      jumpi\n      dup3\n      swap1\n      sub\n      0x1f\n      and\n      dup3\n      add\n      swap2\n    tag_30:\n      pop\n      pop\n      pop\n      pop\n      pop\n      swap1\n      pop\n        /* \"contracts/Coupon.sol\":5482:5576  function uri(uint256) public view virtual returns (string memory) {... */\n      swap2\n      swap1\n      pop\n      jump\t// out\n        /* \"contracts/Coupon.sol\":6073:6419  function safeTransferFrom(... */\n    tag_21:\n        /* \"contracts/Coupon.sol\":6272:6284  _msgSender() */\n      tag_34\n        /* \"contracts/Coupon.sol\":6272:6282  _msgSender */\n      tag_35\n        /* \"contracts/Coupon.sol\":6272:6284  _msgSender() */\n      jump\t// in\n    tag_34:\n        /* \"contracts/Coupon.sol\":6264:6284  from == _msgSender() */\n      0xffffffffffffffffffffffffffffffffffffffff\n      and\n        /* \"contracts/Coupon.sol\":6264:6268  from */\n      dup6\n        /* \"contracts/Coupon.sol\":6264:6284  from == _msgSender() */\n      0xffffffffffffffffffffffffffffffffffffffff\n      and\n      eq\n        /* \"contracts/Coupon.sol\":6243:6357  require(... */\n      tag_36\n      jumpi\n      mload(0x40)\n      0x08c379a000000000000000000000000000000000000000000000000000000000\n      dup2\n      mstore\n      0x04\n      add\n      tag_37\n      swap1\n      tag_38\n      jump\t// in\n    tag_37:\n      mload(0x40)\n      dup1\n      swap2\n      sub\n      swap1\n      revert\n    tag_36:\n        /* \"contracts/Coupon.sol\":6367:6412  _safeTransferFrom(from, to, id, amount, data) */\n      tag_39\n        /* \"contracts/Coupon.sol\":6385:6389  from */\n      dup6\n        /* \"contracts/Coupon.sol\":6391:6393  to */\n      dup6\n        /* \"contracts/Coupon.sol\":6395:6397  id */\n      dup6\n        /* \"contracts/Coupon.sol\":6399:6405  amount */\n      dup6\n        /* \"contracts/Coupon.sol\":6407:6411  data */\n      dup6\n        /* \"contracts/Coupon.sol\":6367:6384  _safeTransferFrom */\n      tag_40\n        /* \"contracts/Coupon.sol\":6367:6412  _safeTransferFrom(from, to, id, amount, data) */\n      jump\t// in\n    tag_39:\n        /* \"contracts/Coupon.sol\":6073:6419  function safeTransferFrom(... */\n      pop\n      pop\n      pop\n      pop\n      pop\n      jump\t// out\n        /* \"contracts/Coupon.sol\":4885:4972  function _msgSender() private view returns (address) {... */\n    tag_35:\n        /* \"contracts/Coupon.sol\":4929:4936  address */\n      0x00\n        /* \"contracts/Coupon.sol\":4955:4965  msg.sender */\n      caller\n        /* \"contracts/Coupon.sol\":4948:4965  return msg.sender */\n      swap1\n      pop\n        /* \"contracts/Coupon.sol\":4885:4972  function _msgSender() private view returns (address) {... */\n      swap1\n      jump\t// out\n        /* \"contracts/Coupon.sol\":6869:7850  function _safeTransferFrom(... */\n    tag_40:\n        /* \"contracts/Coupon.sol\":7064:7065  0 */\n      0x00\n        /* \"contracts/Coupon.sol\":7050:7066  to != address(0) */\n      0xffffffffffffffffffffffffffffffffffffffff\n      and\n        /* \"contracts/Coupon.sol\":7050:7052  to */\n      dup5\n        /* \"contracts/Coupon.sol\":7050:7066  to != address(0) */\n      0xffffffffffffffffffffffffffffffffffffffff\n      and\n      eq\n      iszero\n        /* \"contracts/Coupon.sol\":7042:7108  require(to != address(0), \"ERC1155: transfer to the zero address\") */\n      tag_43\n      jumpi\n      mload(0x40)\n      0x08c379a000000000000000000000000000000000000000000000000000000000\n      dup2\n      mstore\n      0x04\n      add\n      tag_44\n      swap1\n      tag_45\n      jump\t// in\n    tag_44:\n      mload(0x40)\n      dup1\n      swap2\n      sub\n      swap1\n      revert\n    tag_43:\n        /* \"contracts/Coupon.sol\":7119:7135  address operator */\n      0x00\n        /* \"contracts/Coupon.sol\":7138:7150  _msgSender() */\n      tag_46\n        /* \"contracts/Coupon.sol\":7138:7148  _msgSender */\n      tag_35\n        /* \"contracts/Coupon.sol\":7138:7150  _msgSender() */\n      jump\t// in\n    tag_46:\n        /* \"contracts/Coupon.sol\":7119:7150  address operator = _msgSender() */\n      swap1\n      pop\n        /* \"contracts/Coupon.sol\":7160:7180  uint256[] memory ids */\n      0x00\n        /* \"contracts/Coupon.sol\":7183:7204  _asSingletonArray(id) */\n      tag_47\n        /* \"contracts/Coupon.sol\":7201:7203  id */\n      dup6\n        /* \"contracts/Coupon.sol\":7183:7200  _asSingletonArray */\n      tag_48\n        /* \"contracts/Coupon.sol\":7183:7204  _asSingletonArray(id) */\n      jump\t// in\n    tag_47:\n        /* \"contracts/Coupon.sol\":7160:7204  uint256[] memory ids = _asSingletonArray(id) */\n      swap1\n      pop\n        /* \"contracts/Coupon.sol\":7214:7238  uint256[] memory amounts */\n      0x00\n        /* \"contracts/Coupon.sol\":7241:7266  _asSingletonArray(amount) */\n      tag_49\n        /* \"contracts/Coupon.sol\":7259:7265  amount */\n      dup6\n        /* \"contracts/Coupon.sol\":7241:7258  _asSingletonArray */\n      tag_48\n        /* \"contracts/Coupon.sol\":7241:7266  _asSingletonArray(amount) */\n      jump\t// in\n    tag_49:\n        /* \"contracts/Coupon.sol\":7214:7266  uint256[] memory amounts = _asSingletonArray(amount) */\n      swap1\n      pop\n        /* \"contracts/Coupon.sol\":7277:7337  _beforeTokenTransfer(operator, from, to, ids, amounts, data) */\n      tag_50\n        /* \"contracts/Coupon.sol\":7298:7306  operator */\n      dup4\n        /* \"contracts/Coupon.sol\":7308:7312  from */\n      dup10\n        /* \"contracts/Coupon.sol\":7314:7316  to */\n      dup10\n        /* \"contracts/Coupon.sol\":7318:7321  ids */\n      dup6\n        /* \"contracts/Coupon.sol\":7323:7330  amounts */\n      dup6\n        /* \"contracts/Coupon.sol\":7332:7336  data */\n      dup10\n        /* \"contracts/Coupon.sol\":7277:7297  _beforeTokenTransfer */\n      tag_51\n        /* \"contracts/Coupon.sol\":7277:7337  _beforeTokenTransfer(operator, from, to, ids, amounts, data) */\n      jump\t// in\n    tag_50:\n        /* \"contracts/Coupon.sol\":7348:7367  uint256 fromBalance */\n      0x00\n        /* \"contracts/Coupon.sol\":7370:7379  _balances */\n      dup1\n        /* \"contracts/Coupon.sol\":7370:7383  _balances[id] */\n      0x00\n        /* \"contracts/Coupon.sol\":7380:7382  id */\n      dup9\n        /* \"contracts/Coupon.sol\":7370:7383  _balances[id] */\n      dup2\n      mstore\n      0x20\n      add\n      swap1\n      dup2\n      mstore\n      0x20\n      add\n      0x00\n      keccak256\n        /* \"contracts/Coupon.sol\":7370:7389  _balances[id][from] */\n      0x00\n        /* \"contracts/Coupon.sol\":7384:7388  from */\n      dup11\n        /* \"contracts/Coupon.sol\":7370:7389  _balances[id][from] */\n      0xffffffffffffffffffffffffffffffffffffffff\n      and\n      0xffffffffffffffffffffffffffffffffffffffff\n      and\n      dup2\n      mstore\n      0x20\n      add\n      swap1\n      dup2\n      mstore\n      0x20\n      add\n      0x00\n      keccak256\n      sload\n        /* \"contracts/Coupon.sol\":7348:7389  uint256 fromBalance = _balances[id][from] */\n      swap1\n      pop\n        /* \"contracts/Coupon.sol\":7435:7441  amount */\n      dup6\n        /* \"contracts/Coupon.sol\":7420:7431  fromBalance */\n      dup2\n        /* \"contracts/Coupon.sol\":7420:7441  fromBalance >= amount */\n      lt\n      iszero\n        /* \"contracts/Coupon.sol\":7399:7509  require(... */\n      tag_52\n      jumpi\n      mload(0x40)\n      0x08c379a000000000000000000000000000000000000000000000000000000000\n      dup2\n      mstore\n      0x04\n      add\n      tag_53\n      swap1\n      tag_54\n      jump\t// in\n    tag_53:\n      mload(0x40)\n      dup1\n      swap2\n      sub\n      swap1\n      revert\n    tag_52:\n        /* \"contracts/Coupon.sol\":7579:7585  amount */\n      dup6\n        /* \"contracts/Coupon.sol\":7565:7576  fromBalance */\n      dup2\n        /* \"contracts/Coupon.sol\":7565:7585  fromBalance - amount */\n      sub\n        /* \"contracts/Coupon.sol\":7543:7552  _balances */\n      0x00\n        /* \"contracts/Coupon.sol\":7543:7556  _balances[id] */\n      dup1\n        /* \"contracts/Coupon.sol\":7553:7555  id */\n      dup10\n        /* \"contracts/Coupon.sol\":7543:7556  _balances[id] */\n      dup2\n      mstore\n      0x20\n      add\n      swap1\n      dup2\n      mstore\n      0x20\n      add\n      0x00\n      keccak256\n        /* \"contracts/Coupon.sol\":7543:7562  _balances[id][from] */\n      0x00\n        /* \"contracts/Coupon.sol\":7557:7561  from */\n      dup12\n        /* \"contracts/Coupon.sol\":7543:7562  _balances[id][from] */\n      0xffffffffffffffffffffffffffffffffffffffff\n      and\n      0xffffffffffffffffffffffffffffffffffffffff\n      and\n      dup2\n      mstore\n      0x20\n      add\n      swap1\n      dup2\n      mstore\n      0x20\n      add\n      0x00\n      keccak256\n        /* \"contracts/Coupon.sol\":7543:7585  _balances[id][from] = fromBalance - amount */\n      dup2\n      swap1\n      sstore\n      pop\n        /* \"contracts/Coupon.sol\":7626:7632  amount */\n      dup6\n        /* \"contracts/Coupon.sol\":7605:7614  _balances */\n      0x00\n        /* \"contracts/Coupon.sol\":7605:7618  _balances[id] */\n      dup1\n        /* \"contracts/Coupon.sol\":7615:7617  id */\n      dup10\n        /* \"contracts/Coupon.sol\":7605:7618  _balances[id] */\n      dup2\n      mstore\n      0x20\n      add\n      swap1\n      dup2\n      mstore\n      0x20\n      add\n      0x00\n      keccak256\n        /* \"contracts/Coupon.sol\":7605:7622  _balances[id][to] */\n      0x00\n        /* \"contracts/Coupon.sol\":7619:7621  to */\n      dup11\n        /* \"contracts/Coupon.sol\":7605:7622  _balances[id][to] */\n      0xffffffffffffffffffffffffffffffffffffffff\n      and\n      0xffffffffffffffffffffffffffffffffffffffff\n      and\n      dup2\n      mstore\n      0x20\n      add\n      swap1\n      dup2\n      mstore\n      0x20\n      add\n      0x00\n      keccak256\n      0x00\n        /* \"contracts/Coupon.sol\":7605:7632  _balances[id][to] += amount */\n      dup3\n      dup3\n      sload\n      tag_55\n      swap2\n      swap1\n      tag_56\n      jump\t// in\n    tag_55:\n      swap3\n      pop\n      pop\n      dup2\n      swap1\n      sstore\n      pop\n        /* \"contracts/Coupon.sol\":7679:7681  to */\n      dup8\n        /* \"contracts/Coupon.sol\":7648:7694  TransferSingle(operator, from, to, id, amount) */\n      0xffffffffffffffffffffffffffffffffffffffff\n      and\n        /* \"contracts/Coupon.sol\":7673:7677  from */\n      dup10\n        /* \"contracts/Coupon.sol\":7648:7694  TransferSingle(operator, from, to, id, amount) */\n      0xffffffffffffffffffffffffffffffffffffffff\n      and\n        /* \"contracts/Coupon.sol\":7663:7671  operator */\n      dup6\n        /* \"contracts/Coupon.sol\":7648:7694  TransferSingle(operator, from, to, id, amount) */\n      0xffffffffffffffffffffffffffffffffffffffff\n      and\n      0xc3d58168c5ae7397731d063d5bbf3d657854427343f4c083240f7aacaa2d0f62\n        /* \"contracts/Coupon.sol\":7683:7685  id */\n      dup11\n        /* \"contracts/Coupon.sol\":7687:7693  amount */\n      dup11\n        /* \"contracts/Coupon.sol\":7648:7694  TransferSingle(operator, from, to, id, amount) */\n      mload(0x40)\n      tag_57\n      swap3\n      swap2\n      swap1\n      tag_58\n      jump\t// in\n    tag_57:\n      mload(0x40)\n      dup1\n      swap2\n      sub\n      swap1\n      log4\n        /* \"contracts/Coupon.sol\":7705:7764  _afterTokenTransfer(operator, from, to, ids, amounts, data) */\n      tag_59\n        /* \"contracts/Coupon.sol\":7725:7733  operator */\n      dup5\n        /* \"contracts/Coupon.sol\":7735:7739  from */\n      dup11\n        /* \"contracts/Coupon.sol\":7741:7743  to */\n      dup11\n        /* \"contracts/Coupon.sol\":7745:7748  ids */\n      dup7\n        /* \"contracts/Coupon.sol\":7750:7757  amounts */\n      dup7\n        /* \"contracts/Coupon.sol\":7759:7763  data */\n      dup11\n        /* \"contracts/Coupon.sol\":7705:7724  _afterTokenTransfer */\n      tag_60\n        /* \"contracts/Coupon.sol\":7705:7764  _afterTokenTransfer(operator, from, to, ids, amounts, data) */\n      jump\t// in\n    tag_59:\n        /* \"contracts/Coupon.sol\":7775:7843  _doSafeTransferAcceptanceCheck(operator, from, to, id, amount, data) */\n      tag_61\n        /* \"contracts/Coupon.sol\":7806:7814  operator */\n      dup5\n        /* \"contracts/Coupon.sol\":7816:7820  from */\n      dup11\n        /* \"contracts/Coupon.sol\":7822:7824  to */\n      dup11\n        /* \"contracts/Coupon.sol\":7826:7828  id */\n      dup11\n        /* \"contracts/Coupon.sol\":7830:7836  amount */\n      dup11\n        /* \"contracts/Coupon.sol\":7838:7842  data */\n      dup11\n        /* \"contracts/Coupon.sol\":7775:7805  _doSafeTransferAcceptanceCheck */\n      tag_62\n        /* \"contracts/Coupon.sol\":7775:7843  _doSafeTransferAcceptanceCheck(operator, from, to, id, amount, data) */\n      jump\t// in\n    tag_61:\n        /* \"contracts/Coupon.sol\":7032:7850  {... */\n      pop\n      pop\n      pop\n      pop\n        /* \"contracts/Coupon.sol\":6869:7850  function _safeTransferFrom(... */\n      pop\n      pop\n      pop\n      pop\n      pop\n      jump\t// out\n        /* \"contracts/Coupon.sol\":14173:14394  function _asSingletonArray(uint256 element)... */\n    tag_48:\n        /* \"contracts/Coupon.sol\":14263:14279  uint256[] memory */\n      0x60\n        /* \"contracts/Coupon.sol\":14295:14317  uint256[] memory array */\n      0x00\n        /* \"contracts/Coupon.sol\":14334:14335  1 */\n      0x01\n        /* \"contracts/Coupon.sol\":14320:14336  new uint256[](1) */\n      0xffffffffffffffff\n      dup2\n      gt\n      iszero\n      tag_64\n      jumpi\n      tag_65\n      tag_66\n      jump\t// in\n    tag_65:\n    tag_64:\n      mload(0x40)\n      swap1\n      dup1\n      dup3\n      mstore\n      dup1\n      0x20\n      mul\n      0x20\n      add\n      dup3\n      add\n      0x40\n      mstore\n      dup1\n      iszero\n      tag_67\n      jumpi\n      dup2\n      0x20\n      add\n      0x20\n      dup3\n      mul\n      dup1\n      calldatasize\n      dup4\n      calldatacopy\n      dup1\n      dup3\n      add\n      swap2\n      pop\n      pop\n      swap1\n      pop\n    tag_67:\n      pop\n        /* \"contracts/Coupon.sol\":14295:14336  uint256[] memory array = new uint256[](1) */\n      swap1\n      pop\n        /* \"contracts/Coupon.sol\":14357:14364  element */\n      dup3\n        /* \"contracts/Coupon.sol\":14346:14351  array */\n      dup2\n        /* \"contracts/Coupon.sol\":14352:14353  0 */\n      0x00\n        /* \"contracts/Coupon.sol\":14346:14354  array[0] */\n      dup2\n      mload\n      dup2\n      lt\n      tag_68\n      jumpi\n      tag_69\n      tag_70\n      jump\t// in\n    tag_69:\n    tag_68:\n      0x20\n      mul\n      0x20\n      add\n      add\n        /* \"contracts/Coupon.sol\":14346:14364  array[0] = element */\n      dup2\n      dup2\n      mstore\n      pop\n      pop\n        /* \"contracts/Coupon.sol\":14382:14387  array */\n      dup1\n        /* \"contracts/Coupon.sol\":14375:14387  return array */\n      swap2\n      pop\n      pop\n        /* \"contracts/Coupon.sol\":14173:14394  function _asSingletonArray(uint256 element)... */\n      swap2\n      swap1\n      pop\n      jump\t// out\n        /* \"contracts/Coupon.sol\":11931:12145  function _beforeTokenTransfer(... */\n    tag_51:\n      pop\n      pop\n      pop\n      pop\n      pop\n      pop\n      jump\t// out\n        /* \"contracts/Coupon.sol\":13078:13291  function _afterTokenTransfer(... */\n    tag_60:\n      pop\n      pop\n      pop\n      pop\n      pop\n      pop\n      jump\t// out\n        /* \"contracts/Coupon.sol\":13297:14167  function _doSafeTransferAcceptanceCheck(... */\n    tag_62:\n        /* \"contracts/Coupon.sol\":13504:13518  isContract(to) */\n      tag_74\n        /* \"contracts/Coupon.sol\":13515:13517  to */\n      dup5\n        /* \"contracts/Coupon.sol\":13504:13514  isContract */\n      tag_75\n        /* \"contracts/Coupon.sol\":13504:13518  isContract(to) */\n      jump\t// in\n    tag_74:\n        /* \"contracts/Coupon.sol\":13500:14161  if (isContract(to)) {... */\n      iszero\n      tag_76\n      jumpi\n        /* \"contracts/Coupon.sol\":13571:13573  to */\n      dup4\n        /* \"contracts/Coupon.sol\":13554:13592  IERC1155Receiver(to).onERC1155Received */\n      0xffffffffffffffffffffffffffffffffffffffff\n      and\n      0xf23a6e61\n        /* \"contracts/Coupon.sol\":13614:13622  operator */\n      dup8\n        /* \"contracts/Coupon.sol\":13644:13648  from */\n      dup8\n        /* \"contracts/Coupon.sol\":13670:13672  id */\n      dup7\n        /* \"contracts/Coupon.sol\":13694:13700  amount */\n      dup7\n        /* \"contracts/Coupon.sol\":13722:13726  data */\n      dup7\n        /* \"contracts/Coupon.sol\":13554:13744  IERC1155Receiver(to).onERC1155Received(... */\n      mload(0x40)\n      dup7\n      0xffffffff\n      and\n      0xe0\n      shl\n      dup2\n      mstore\n      0x04\n      add\n      tag_77\n      swap6\n      swap5\n      swap4\n      swap3\n      swap2\n      swap1\n      tag_78\n      jump\t// in\n    tag_77:\n      0x20\n      mload(0x40)\n      dup1\n      dup4\n      sub\n      dup2\n      0x00\n      dup8\n      dup1\n      extcodesize\n      iszero\n      dup1\n      iszero\n      tag_79\n      jumpi\n      0x00\n      dup1\n      revert\n    tag_79:\n      pop\n      gas\n      call\n      swap3\n      pop\n      pop\n      pop\n      dup1\n      iszero\n      tag_80\n      jumpi\n      pop\n      mload(0x40)\n      returndatasize\n      not(0x1f)\n      0x1f\n      dup3\n      add\n      and\n      dup3\n      add\n      dup1\n      0x40\n      mstore\n      pop\n      dup2\n      add\n      swap1\n      tag_81\n      swap2\n      swap1\n      tag_82\n      jump\t// in\n    tag_81:\n      0x01\n    tag_80:\n        /* \"contracts/Coupon.sol\":13534:14151  try... */\n      tag_83\n      jumpi\n      tag_87\n      tag_88\n      jump\t// in\n    tag_87:\n      dup1\n      0x08c379a0\n      eq\n      iszero\n      tag_86\n      jumpi\n      pop\n      tag_89\n      tag_90\n      jump\t// in\n    tag_89:\n      dup1\n      tag_91\n      jumpi\n      pop\n      jump(tag_85)\n    tag_91:\n        /* \"contracts/Coupon.sol\":14027:14033  reason */\n      dup1\n        /* \"contracts/Coupon.sol\":14020:14034  revert(reason) */\n      mload(0x40)\n      0x08c379a000000000000000000000000000000000000000000000000000000000\n      dup2\n      mstore\n      0x04\n      add\n      tag_92\n      swap2\n      swap1\n      tag_17\n      jump\t// in\n    tag_92:\n      mload(0x40)\n      dup1\n      swap2\n      sub\n      swap1\n      revert\n        /* \"contracts/Coupon.sol\":13534:14151  try... */\n    tag_86:\n      pop\n    tag_85:\n        /* \"contracts/Coupon.sol\":14074:14136  revert(\"ERC1155: transfer to non ERC1155Receiver implementer\") */\n      mload(0x40)\n      0x08c379a000000000000000000000000000000000000000000000000000000000\n      dup2\n      mstore\n      0x04\n      add\n      tag_93\n      swap1\n      tag_94\n      jump\t// in\n    tag_93:\n      mload(0x40)\n      dup1\n      swap2\n      sub\n      swap1\n      revert\n        /* \"contracts/Coupon.sol\":13534:14151  try... */\n    tag_83:\n        /* \"contracts/Coupon.sol\":13817:13860  IERC1155Receiver.onERC1155Received.selector */\n      shl(0xe0, 0xf23a6e61)\n        /* \"contracts/Coupon.sol\":13805:13860  response != IERC1155Receiver.onERC1155Received.selector */\n      not(0xffffffffffffffffffffffffffffffffffffffffffffffffffffffff)\n      and\n        /* \"contracts/Coupon.sol\":13805:13813  response */\n      dup2\n        /* \"contracts/Coupon.sol\":13805:13860  response != IERC1155Receiver.onERC1155Received.selector */\n      not(0xffffffffffffffffffffffffffffffffffffffffffffffffffffffff)\n      and\n      eq\n        /* \"contracts/Coupon.sol\":13801:13953  if (response != IERC1155Receiver.onERC1155Received.selector) {... */\n      tag_96\n      jumpi\n        /* \"contracts/Coupon.sol\":13884:13934  revert(\"ERC1155: ERC1155Receiver rejected tokens\") */\n      mload(0x40)\n      0x08c379a000000000000000000000000000000000000000000000000000000000\n      dup2\n      mstore\n      0x04\n      add\n      tag_97\n      swap1\n      tag_98\n      jump\t// in\n    tag_97:\n      mload(0x40)\n      dup1\n      swap2\n      sub\n      swap1\n      revert\n        /* \"contracts/Coupon.sol\":13801:13953  if (response != IERC1155Receiver.onERC1155Received.selector) {... */\n    tag_96:\n        /* \"contracts/Coupon.sol\":13757:13967  returns (bytes4 response) {... */\n      pop\n        /* \"contracts/Coupon.sol\":13500:14161  if (isContract(to)) {... */\n    tag_76:\n        /* \"contracts/Coupon.sol\":13297:14167  function _doSafeTransferAcceptanceCheck(... */\n      pop\n      pop\n      pop\n      pop\n      pop\n      pop\n      jump\t// out\n        /* \"contracts/Coupon.sol\":4560:4879  function isContract(address account) private view returns (bool) {... */\n    tag_75:\n        /* \"contracts/Coupon.sol\":4619:4623  bool */\n      0x00\n        /* \"contracts/Coupon.sol\":4871:4872  0 */\n      dup1\n        /* \"contracts/Coupon.sol\":4849:4856  account */\n      dup3\n        /* \"contracts/Coupon.sol\":4849:4868  account.code.length */\n      0xffffffffffffffffffffffffffffffffffffffff\n      and\n      extcodesize\n        /* \"contracts/Coupon.sol\":4849:4872  account.code.length > 0 */\n      gt\n        /* \"contracts/Coupon.sol\":4842:4872  return account.code.length > 0 */\n      swap1\n      pop\n        /* \"contracts/Coupon.sol\":4560:4879  function isContract(address account) private view returns (bool) {... */\n      swap2\n      swap1\n      pop\n      jump\t// out\n        /* \"#utility.yul\":7:417   */\n    tag_101:\n        /* \"#utility.yul\":84:89   */\n      0x00\n        /* \"#utility.yul\":109:174   */\n      tag_103\n        /* \"#utility.yul\":125:173   */\n      tag_104\n        /* \"#utility.yul\":166:172   */\n      dup5\n        /* \"#utility.yul\":125:173   */\n      tag_105\n      jump\t// in\n    tag_104:\n        /* \"#utility.yul\":109:174   */\n      tag_106\n      jump\t// in\n    tag_103:\n        /* \"#utility.yul\":100:174   */\n      swap1\n      pop\n        /* \"#utility.yul\":197:203   */\n      dup3\n        /* \"#utility.yul\":190:195   */\n      dup2\n        /* \"#utility.yul\":183:204   */\n      mstore\n        /* \"#utility.yul\":235:239   */\n      0x20\n        /* \"#utility.yul\":228:233   */\n      dup2\n        /* \"#utility.yul\":224:240   */\n      add\n        /* \"#utility.yul\":273:276   */\n      dup5\n        /* \"#utility.yul\":264:270   */\n      dup5\n        /* \"#utility.yul\":259:262   */\n      dup5\n        /* \"#utility.yul\":255:271   */\n      add\n        /* \"#utility.yul\":252:277   */\n      gt\n        /* \"#utility.yul\":249:361   */\n      iszero\n      tag_107\n      jumpi\n        /* \"#utility.yul\":280:359   */\n      tag_108\n      tag_109\n      jump\t// in\n    tag_108:\n        /* \"#utility.yul\":249:361   */\n    tag_107:\n        /* \"#utility.yul\":370:411   */\n      tag_110\n        /* \"#utility.yul\":404:410   */\n      dup5\n        /* \"#utility.yul\":399:402   */\n      dup3\n        /* \"#utility.yul\":394:397   */\n      dup6\n        /* \"#utility.yul\":370:411   */\n      tag_111\n      jump\t// in\n    tag_110:\n        /* \"#utility.yul\":90:417   */\n      pop\n        /* \"#utility.yul\":7:417   */\n      swap4\n      swap3\n      pop\n      pop\n      pop\n      jump\t// out\n        /* \"#utility.yul\":423:562   */\n    tag_112:\n        /* \"#utility.yul\":469:474   */\n      0x00\n        /* \"#utility.yul\":507:513   */\n      dup2\n        /* \"#utility.yul\":494:514   */\n      calldataload\n        /* \"#utility.yul\":485:514   */\n      swap1\n      pop\n        /* \"#utility.yul\":523:556   */\n      tag_114\n        /* \"#utility.yul\":550:555   */\n      dup2\n        /* \"#utility.yul\":523:556   */\n      tag_115\n      jump\t// in\n    tag_114:\n        /* \"#utility.yul\":423:562   */\n      swap3\n      swap2\n      pop\n      pop\n      jump\t// out\n        /* \"#utility.yul\":568:709   */\n    tag_116:\n        /* \"#utility.yul\":624:629   */\n      0x00\n        /* \"#utility.yul\":655:661   */\n      dup2\n        /* \"#utility.yul\":649:662   */\n      mload\n        /* \"#utility.yul\":640:662   */\n      swap1\n      pop\n        /* \"#utility.yul\":671:703   */\n      tag_118\n        /* \"#utility.yul\":697:702   */\n      dup2\n        /* \"#utility.yul\":671:703   */\n      tag_119\n      jump\t// in\n    tag_118:\n        /* \"#utility.yul\":568:709   */\n      swap3\n      swap2\n      pop\n      pop\n      jump\t// out\n        /* \"#utility.yul\":728:1066   */\n    tag_120:\n        /* \"#utility.yul\":783:788   */\n      0x00\n        /* \"#utility.yul\":832:835   */\n      dup3\n        /* \"#utility.yul\":825:829   */\n      0x1f\n        /* \"#utility.yul\":817:823   */\n      dup4\n        /* \"#utility.yul\":813:830   */\n      add\n        /* \"#utility.yul\":809:836   */\n      slt\n        /* \"#utility.yul\":799:921   */\n      tag_122\n      jumpi\n        /* \"#utility.yul\":840:919   */\n      tag_123\n      tag_124\n      jump\t// in\n    tag_123:\n        /* \"#utility.yul\":799:921   */\n    tag_122:\n        /* \"#utility.yul\":957:963   */\n      dup2\n        /* \"#utility.yul\":944:964   */\n      calldataload\n        /* \"#utility.yul\":982:1060   */\n      tag_125\n        /* \"#utility.yul\":1056:1059   */\n      dup5\n        /* \"#utility.yul\":1048:1054   */\n      dup3\n        /* \"#utility.yul\":1041:1045   */\n      0x20\n        /* \"#utility.yul\":1033:1039   */\n      dup7\n        /* \"#utility.yul\":1029:1046   */\n      add\n        /* \"#utility.yul\":982:1060   */\n      tag_101\n      jump\t// in\n    tag_125:\n        /* \"#utility.yul\":973:1060   */\n      swap2\n      pop\n        /* \"#utility.yul\":789:1066   */\n      pop\n        /* \"#utility.yul\":728:1066   */\n      swap3\n      swap2\n      pop\n      pop\n      jump\t// out\n        /* \"#utility.yul\":1072:1211   */\n    tag_126:\n        /* \"#utility.yul\":1118:1123   */\n      0x00\n        /* \"#utility.yul\":1156:1162   */\n      dup2\n        /* \"#utility.yul\":1143:1163   */\n      calldataload\n        /* \"#utility.yul\":1134:1163   */\n      swap1\n      pop\n        /* \"#utility.yul\":1172:1205   */\n      tag_128\n        /* \"#utility.yul\":1199:1204   */\n      dup2\n        /* \"#utility.yul\":1172:1205   */\n      tag_129\n      jump\t// in\n    tag_128:\n        /* \"#utility.yul\":1072:1211   */\n      swap3\n      swap2\n      pop\n      pop\n      jump\t// out\n        /* \"#utility.yul\":1217:2306   */\n    tag_20:\n        /* \"#utility.yul\":1321:1327   */\n      0x00\n        /* \"#utility.yul\":1329:1335   */\n      dup1\n        /* \"#utility.yul\":1337:1343   */\n      0x00\n        /* \"#utility.yul\":1345:1351   */\n      dup1\n        /* \"#utility.yul\":1353:1359   */\n      0x00\n        /* \"#utility.yul\":1402:1405   */\n      0xa0\n        /* \"#utility.yul\":1390:1399   */\n      dup7\n        /* \"#utility.yul\":1381:1388   */\n      dup9\n        /* \"#utility.yul\":1377:1400   */\n      sub\n        /* \"#utility.yul\":1373:1406   */\n      slt\n        /* \"#utility.yul\":1370:1490   */\n      iszero\n      tag_131\n      jumpi\n        /* \"#utility.yul\":1409:1488   */\n      tag_132\n      tag_133\n      jump\t// in\n    tag_132:\n        /* \"#utility.yul\":1370:1490   */\n    tag_131:\n        /* \"#utility.yul\":1529:1530   */\n      0x00\n        /* \"#utility.yul\":1554:1607   */\n      tag_134\n        /* \"#utility.yul\":1599:1606   */\n      dup9\n        /* \"#utility.yul\":1590:1596   */\n      dup3\n        /* \"#utility.yul\":1579:1588   */\n      dup10\n        /* \"#utility.yul\":1575:1597   */\n      add\n        /* \"#utility.yul\":1554:1607   */\n      tag_112\n      jump\t// in\n    tag_134:\n        /* \"#utility.yul\":1544:1607   */\n      swap6\n      pop\n        /* \"#utility.yul\":1500:1617   */\n      pop\n        /* \"#utility.yul\":1656:1658   */\n      0x20\n        /* \"#utility.yul\":1682:1735   */\n      tag_135\n        /* \"#utility.yul\":1727:1734   */\n      dup9\n        /* \"#utility.yul\":1718:1724   */\n      dup3\n        /* \"#utility.yul\":1707:1716   */\n      dup10\n        /* \"#utility.yul\":1703:1725   */\n      add\n        /* \"#utility.yul\":1682:1735   */\n      tag_112\n      jump\t// in\n    tag_135:\n        /* \"#utility.yul\":1672:1735   */\n      swap5\n      pop\n        /* \"#utility.yul\":1627:1745   */\n      pop\n        /* \"#utility.yul\":1784:1786   */\n      0x40\n        /* \"#utility.yul\":1810:1863   */\n      tag_136\n        /* \"#utility.yul\":1855:1862   */\n      dup9\n        /* \"#utility.yul\":1846:1852   */\n      dup3\n        /* \"#utility.yul\":1835:1844   */\n      dup10\n        /* \"#utility.yul\":1831:1853   */\n      add\n        /* \"#utility.yul\":1810:1863   */\n      tag_126\n      jump\t// in\n    tag_136:\n        /* \"#utility.yul\":1800:1863   */\n      swap4\n      pop\n        /* \"#utility.yul\":1755:1873   */\n      pop\n        /* \"#utility.yul\":1912:1914   */\n      0x60\n        /* \"#utility.yul\":1938:1991   */\n      tag_137\n        /* \"#utility.yul\":1983:1990   */\n      dup9\n        /* \"#utility.yul\":1974:1980   */\n      dup3\n        /* \"#utility.yul\":1963:1972   */\n      dup10\n        /* \"#utility.yul\":1959:1981   */\n      add\n        /* \"#utility.yul\":1938:1991   */\n      tag_126\n      jump\t// in\n    tag_137:\n        /* \"#utility.yul\":1928:1991   */\n      swap3\n      pop\n        /* \"#utility.yul\":1883:2001   */\n      pop\n        /* \"#utility.yul\":2068:2071   */\n      0x80\n        /* \"#utility.yul\":2057:2066   */\n      dup7\n        /* \"#utility.yul\":2053:2072   */\n      add\n        /* \"#utility.yul\":2040:2073   */\n      calldataload\n        /* \"#utility.yul\":2100:2118   */\n      0xffffffffffffffff\n        /* \"#utility.yul\":2092:2098   */\n      dup2\n        /* \"#utility.yul\":2089:2119   */\n      gt\n        /* \"#utility.yul\":2086:2203   */\n      iszero\n      tag_138\n      jumpi\n        /* \"#utility.yul\":2122:2201   */\n      tag_139\n      tag_140\n      jump\t// in\n    tag_139:\n        /* \"#utility.yul\":2086:2203   */\n    tag_138:\n        /* \"#utility.yul\":2227:2289   */\n      tag_141\n        /* \"#utility.yul\":2281:2288   */\n      dup9\n        /* \"#utility.yul\":2272:2278   */\n      dup3\n        /* \"#utility.yul\":2261:2270   */\n      dup10\n        /* \"#utility.yul\":2257:2279   */\n      add\n        /* \"#utility.yul\":2227:2289   */\n      tag_120\n      jump\t// in\n    tag_141:\n        /* \"#utility.yul\":2217:2289   */\n      swap2\n      pop\n        /* \"#utility.yul\":2011:2299   */\n      pop\n        /* \"#utility.yul\":1217:2306   */\n      swap3\n      swap6\n      pop\n      swap3\n      swap6\n      swap1\n      swap4\n      pop\n      jump\t// out\n        /* \"#utility.yul\":2312:2786   */\n    tag_8:\n        /* \"#utility.yul\":2380:2386   */\n      0x00\n        /* \"#utility.yul\":2388:2394   */\n      dup1\n        /* \"#utility.yul\":2437:2439   */\n      0x40\n        /* \"#utility.yul\":2425:2434   */\n      dup4\n        /* \"#utility.yul\":2416:2423   */\n      dup6\n        /* \"#utility.yul\":2412:2435   */\n      sub\n        /* \"#utility.yul\":2408:2440   */\n      slt\n        /* \"#utility.yul\":2405:2524   */\n      iszero\n      tag_143\n      jumpi\n        /* \"#utility.yul\":2443:2522   */\n      tag_144\n      tag_133\n      jump\t// in\n    tag_144:\n        /* \"#utility.yul\":2405:2524   */\n    tag_143:\n        /* \"#utility.yul\":2563:2564   */\n      0x00\n        /* \"#utility.yul\":2588:2641   */\n      tag_145\n        /* \"#utility.yul\":2633:2640   */\n      dup6\n        /* \"#utility.yul\":2624:2630   */\n      dup3\n        /* \"#utility.yul\":2613:2622   */\n      dup7\n        /* \"#utility.yul\":2609:2631   */\n      add\n        /* \"#utility.yul\":2588:2641   */\n      tag_112\n      jump\t// in\n    tag_145:\n        /* \"#utility.yul\":2578:2641   */\n      swap3\n      pop\n        /* \"#utility.yul\":2534:2651   */\n      pop\n        /* \"#utility.yul\":2690:2692   */\n      0x20\n        /* \"#utility.yul\":2716:2769   */\n      tag_146\n        /* \"#utility.yul\":2761:2768   */\n      dup6\n        /* \"#utility.yul\":2752:2758   */\n      dup3\n        /* \"#utility.yul\":2741:2750   */\n      dup7\n        /* \"#utility.yul\":2737:2759   */\n      add\n        /* \"#utility.yul\":2716:2769   */\n      tag_126\n      jump\t// in\n    tag_146:\n        /* \"#utility.yul\":2706:2769   */\n      swap2\n      pop\n        /* \"#utility.yul\":2661:2779   */\n      pop\n        /* \"#utility.yul\":2312:2786   */\n      swap3\n      pop\n      swap3\n      swap1\n      pop\n      jump\t// out\n        /* \"#utility.yul\":2792:3141   */\n    tag_82:\n        /* \"#utility.yul\":2861:2867   */\n      0x00\n        /* \"#utility.yul\":2910:2912   */\n      0x20\n        /* \"#utility.yul\":2898:2907   */\n      dup3\n        /* \"#utility.yul\":2889:2896   */\n      dup5\n        /* \"#utility.yul\":2885:2908   */\n      sub\n        /* \"#utility.yul\":2881:2913   */\n      slt\n        /* \"#utility.yul\":2878:2997   */\n      iszero\n      tag_148\n      jumpi\n        /* \"#utility.yul\":2916:2995   */\n      tag_149\n      tag_133\n      jump\t// in\n    tag_149:\n        /* \"#utility.yul\":2878:2997   */\n    tag_148:\n        /* \"#utility.yul\":3036:3037   */\n      0x00\n        /* \"#utility.yul\":3061:3124   */\n      tag_150\n        /* \"#utility.yul\":3116:3123   */\n      dup5\n        /* \"#utility.yul\":3107:3113   */\n      dup3\n        /* \"#utility.yul\":3096:3105   */\n      dup6\n        /* \"#utility.yul\":3092:3114   */\n      add\n        /* \"#utility.yul\":3061:3124   */\n      tag_116\n      jump\t// in\n    tag_150:\n        /* \"#utility.yul\":3051:3124   */\n      swap2\n      pop\n        /* \"#utility.yul\":3007:3134   */\n      pop\n        /* \"#utility.yul\":2792:3141   */\n      swap3\n      swap2\n      pop\n      pop\n      jump\t// out\n        /* \"#utility.yul\":3147:3476   */\n    tag_14:\n        /* \"#utility.yul\":3206:3212   */\n      0x00\n        /* \"#utility.yul\":3255:3257   */\n      0x20\n        /* \"#utility.yul\":3243:3252   */\n      dup3\n        /* \"#utility.yul\":3234:3241   */\n      dup5\n        /* \"#utility.yul\":3230:3253   */\n      sub\n        /* \"#utility.yul\":3226:3258   */\n      slt\n        /* \"#utility.yul\":3223:3342   */\n      iszero\n      tag_152\n      jumpi\n        /* \"#utility.yul\":3261:3340   */\n      tag_153\n      tag_133\n      jump\t// in\n    tag_153:\n        /* \"#utility.yul\":3223:3342   */\n    tag_152:\n        /* \"#utility.yul\":3381:3382   */\n      0x00\n        /* \"#utility.yul\":3406:3459   */\n      tag_154\n        /* \"#utility.yul\":3451:3458   */\n      dup5\n        /* \"#utility.yul\":3442:3448   */\n      dup3\n        /* \"#utility.yul\":3431:3440   */\n      dup6\n        /* \"#utility.yul\":3427:3449   */\n      add\n        /* \"#utility.yul\":3406:3459   */\n      tag_126\n      jump\t// in\n    tag_154:\n        /* \"#utility.yul\":3396:3459   */\n      swap2\n      pop\n        /* \"#utility.yul\":3352:3469   */\n      pop\n        /* \"#utility.yul\":3147:3476   */\n      swap3\n      swap2\n      pop\n      pop\n      jump\t// out\n        /* \"#utility.yul\":3482:3600   */\n    tag_155:\n        /* \"#utility.yul\":3569:3593   */\n      tag_157\n        /* \"#utility.yul\":3587:3592   */\n      dup2\n        /* \"#utility.yul\":3569:3593   */\n      tag_158\n      jump\t// in\n    tag_157:\n        /* \"#utility.yul\":3564:3567   */\n      dup3\n        /* \"#utility.yul\":3557:3594   */\n      mstore\n        /* \"#utility.yul\":3482:3600   */\n      pop\n      pop\n      jump\t// out\n        /* \"#utility.yul\":3606:3966   */\n    tag_159:\n        /* \"#utility.yul\":3692:3695   */\n      0x00\n        /* \"#utility.yul\":3720:3758   */\n      tag_161\n        /* \"#utility.yul\":3752:3757   */\n      dup3\n        /* \"#utility.yul\":3720:3758   */\n      tag_162\n      jump\t// in\n    tag_161:\n        /* \"#utility.yul\":3774:3844   */\n      tag_163\n        /* \"#utility.yul\":3837:3843   */\n      dup2\n        /* \"#utility.yul\":3832:3835   */\n      dup6\n        /* \"#utility.yul\":3774:3844   */\n      tag_164\n      jump\t// in\n    tag_163:\n        /* \"#utility.yul\":3767:3844   */\n      swap4\n      pop\n        /* \"#utility.yul\":3853:3905   */\n      tag_165\n        /* \"#utility.yul\":3898:3904   */\n      dup2\n        /* \"#utility.yul\":3893:3896   */\n      dup6\n        /* \"#utility.yul\":3886:3890   */\n      0x20\n        /* \"#utility.yul\":3879:3884   */\n      dup7\n        /* \"#utility.yul\":3875:3891   */\n      add\n        /* \"#utility.yul\":3853:3905   */\n      tag_166\n      jump\t// in\n    tag_165:\n        /* \"#utility.yul\":3930:3959   */\n      tag_167\n        /* \"#utility.yul\":3952:3958   */\n      dup2\n        /* \"#utility.yul\":3930:3959   */\n      tag_168\n      jump\t// in\n    tag_167:\n        /* \"#utility.yul\":3925:3928   */\n      dup5\n        /* \"#utility.yul\":3921:3960   */\n      add\n        /* \"#utility.yul\":3914:3960   */\n      swap2\n      pop\n        /* \"#utility.yul\":3696:3966   */\n      pop\n        /* \"#utility.yul\":3606:3966   */\n      swap3\n      swap2\n      pop\n      pop\n      jump\t// out\n        /* \"#utility.yul\":3972:4336   */\n    tag_169:\n        /* \"#utility.yul\":4060:4063   */\n      0x00\n        /* \"#utility.yul\":4088:4127   */\n      tag_171\n        /* \"#utility.yul\":4121:4126   */\n      dup3\n        /* \"#utility.yul\":4088:4127   */\n      tag_172\n      jump\t// in\n    tag_171:\n        /* \"#utility.yul\":4143:4214   */\n      tag_173\n        /* \"#utility.yul\":4207:4213   */\n      dup2\n        /* \"#utility.yul\":4202:4205   */\n      dup6\n        /* \"#utility.yul\":4143:4214   */\n      tag_174\n      jump\t// in\n    tag_173:\n        /* \"#utility.yul\":4136:4214   */\n      swap4\n      pop\n        /* \"#utility.yul\":4223:4275   */\n      tag_175\n        /* \"#utility.yul\":4268:4274   */\n      dup2\n        /* \"#utility.yul\":4263:4266   */\n      dup6\n        /* \"#utility.yul\":4256:4260   */\n      0x20\n        /* \"#utility.yul\":4249:4254   */\n      dup7\n        /* \"#utility.yul\":4245:4261   */\n      add\n        /* \"#utility.yul\":4223:4275   */\n      tag_166\n      jump\t// in\n    tag_175:\n        /* \"#utility.yul\":4300:4329   */\n      tag_176\n        /* \"#utility.yul\":4322:4328   */\n      dup2\n        /* \"#utility.yul\":4300:4329   */\n      tag_168\n      jump\t// in\n    tag_176:\n        /* \"#utility.yul\":4295:4298   */\n      dup5\n        /* \"#utility.yul\":4291:4330   */\n      add\n        /* \"#utility.yul\":4284:4330   */\n      swap2\n      pop\n        /* \"#utility.yul\":4064:4336   */\n      pop\n        /* \"#utility.yul\":3972:4336   */\n      swap3\n      swap2\n      pop\n      pop\n      jump\t// out\n        /* \"#utility.yul\":4342:4708   */\n    tag_177:\n        /* \"#utility.yul\":4484:4487   */\n      0x00\n        /* \"#utility.yul\":4505:4572   */\n      tag_179\n        /* \"#utility.yul\":4569:4571   */\n      0x34\n        /* \"#utility.yul\":4564:4567   */\n      dup4\n        /* \"#utility.yul\":4505:4572   */\n      tag_174\n      jump\t// in\n    tag_179:\n        /* \"#utility.yul\":4498:4572   */\n      swap2\n      pop\n        /* \"#utility.yul\":4581:4674   */\n      tag_180\n        /* \"#utility.yul\":4670:4673   */\n      dup3\n        /* \"#utility.yul\":4581:4674   */\n      tag_181\n      jump\t// in\n    tag_180:\n        /* \"#utility.yul\":4699:4701   */\n      0x40\n        /* \"#utility.yul\":4694:4697   */\n      dup3\n        /* \"#utility.yul\":4690:4702   */\n      add\n        /* \"#utility.yul\":4683:4702   */\n      swap1\n      pop\n        /* \"#utility.yul\":4342:4708   */\n      swap2\n      swap1\n      pop\n      jump\t// out\n        /* \"#utility.yul\":4714:5080   */\n    tag_182:\n        /* \"#utility.yul\":4856:4859   */\n      0x00\n        /* \"#utility.yul\":4877:4944   */\n      tag_184\n        /* \"#utility.yul\":4941:4943   */\n      0x2f\n        /* \"#utility.yul\":4936:4939   */\n      dup4\n        /* \"#utility.yul\":4877:4944   */\n      tag_174\n      jump\t// in\n    tag_184:\n        /* \"#utility.yul\":4870:4944   */\n      swap2\n      pop\n        /* \"#utility.yul\":4953:5046   */\n      tag_185\n        /* \"#utility.yul\":5042:5045   */\n      dup3\n        /* \"#utility.yul\":4953:5046   */\n      tag_186\n      jump\t// in\n    tag_185:\n        /* \"#utility.yul\":5071:5073   */\n      0x40\n        /* \"#utility.yul\":5066:5069   */\n      dup3\n        /* \"#utility.yul\":5062:5074   */\n      add\n        /* \"#utility.yul\":5055:5074   */\n      swap1\n      pop\n        /* \"#utility.yul\":4714:5080   */\n      swap2\n      swap1\n      pop\n      jump\t// out\n        /* \"#utility.yul\":5086:5452   */\n    tag_187:\n        /* \"#utility.yul\":5228:5231   */\n      0x00\n        /* \"#utility.yul\":5249:5316   */\n      tag_189\n        /* \"#utility.yul\":5313:5315   */\n      0x28\n        /* \"#utility.yul\":5308:5311   */\n      dup4\n        /* \"#utility.yul\":5249:5316   */\n      tag_174\n      jump\t// in\n    tag_189:\n        /* \"#utility.yul\":5242:5316   */\n      swap2\n      pop\n        /* \"#utility.yul\":5325:5418   */\n      tag_190\n        /* \"#utility.yul\":5414:5417   */\n      dup3\n        /* \"#utility.yul\":5325:5418   */\n      tag_191\n      jump\t// in\n    tag_190:\n        /* \"#utility.yul\":5443:5445   */\n      0x40\n        /* \"#utility.yul\":5438:5441   */\n      dup3\n        /* \"#utility.yul\":5434:5446   */\n      add\n        /* \"#utility.yul\":5427:5446   */\n      swap1\n      pop\n        /* \"#utility.yul\":5086:5452   */\n      swap2\n      swap1\n      pop\n      jump\t// out\n        /* \"#utility.yul\":5458:5824   */\n    tag_192:\n        /* \"#utility.yul\":5600:5603   */\n      0x00\n        /* \"#utility.yul\":5621:5688   */\n      tag_194\n        /* \"#utility.yul\":5685:5687   */\n      0x2a\n        /* \"#utility.yul\":5680:5683   */\n      dup4\n        /* \"#utility.yul\":5621:5688   */\n      tag_174\n      jump\t// in\n    tag_194:\n        /* \"#utility.yul\":5614:5688   */\n      swap2\n      pop\n        /* \"#utility.yul\":5697:5790   */\n      tag_195\n        /* \"#utility.yul\":5786:5789   */\n      dup3\n        /* \"#utility.yul\":5697:5790   */\n      tag_196\n      jump\t// in\n    tag_195:\n        /* \"#utility.yul\":5815:5817   */\n      0x40\n        /* \"#utility.yul\":5810:5813   */\n      dup3\n        /* \"#utility.yul\":5806:5818   */\n      add\n        /* \"#utility.yul\":5799:5818   */\n      swap1\n      pop\n        /* \"#utility.yul\":5458:5824   */\n      swap2\n      swap1\n      pop\n      jump\t// out\n        /* \"#utility.yul\":5830:6196   */\n    tag_197:\n        /* \"#utility.yul\":5972:5975   */\n      0x00\n        /* \"#utility.yul\":5993:6060   */\n      tag_199\n        /* \"#utility.yul\":6057:6059   */\n      0x25\n        /* \"#utility.yul\":6052:6055   */\n      dup4\n        /* \"#utility.yul\":5993:6060   */\n      tag_174\n      jump\t// in\n    tag_199:\n        /* \"#utility.yul\":5986:6060   */\n      swap2\n      pop\n        /* \"#utility.yul\":6069:6162   */\n      tag_200\n        /* \"#utility.yul\":6158:6161   */\n      dup3\n        /* \"#utility.yul\":6069:6162   */\n      tag_201\n      jump\t// in\n    tag_200:\n        /* \"#utility.yul\":6187:6189   */\n      0x40\n        /* \"#utility.yul\":6182:6185   */\n      dup3\n        /* \"#utility.yul\":6178:6190   */\n      add\n        /* \"#utility.yul\":6171:6190   */\n      swap1\n      pop\n        /* \"#utility.yul\":5830:6196   */\n      swap2\n      swap1\n      pop\n      jump\t// out\n        /* \"#utility.yul\":6202:6568   */\n    tag_202:\n        /* \"#utility.yul\":6344:6347   */\n      0x00\n        /* \"#utility.yul\":6365:6432   */\n      tag_204\n        /* \"#utility.yul\":6429:6431   */\n      0x2a\n        /* \"#utility.yul\":6424:6427   */\n      dup4\n        /* \"#utility.yul\":6365:6432   */\n      tag_174\n      jump\t// in\n    tag_204:\n        /* \"#utility.yul\":6358:6432   */\n      swap2\n      pop\n        /* \"#utility.yul\":6441:6534   */\n      tag_205\n        /* \"#utility.yul\":6530:6533   */\n      dup3\n        /* \"#utility.yul\":6441:6534   */\n      tag_206\n      jump\t// in\n    tag_205:\n        /* \"#utility.yul\":6559:6561   */\n      0x40\n        /* \"#utility.yul\":6554:6557   */\n      dup3\n        /* \"#utility.yul\":6550:6562   */\n      add\n        /* \"#utility.yul\":6543:6562   */\n      swap1\n      pop\n        /* \"#utility.yul\":6202:6568   */\n      swap2\n      swap1\n      pop\n      jump\t// out\n        /* \"#utility.yul\":6574:6692   */\n    tag_207:\n        /* \"#utility.yul\":6661:6685   */\n      tag_209\n        /* \"#utility.yul\":6679:6684   */\n      dup2\n        /* \"#utility.yul\":6661:6685   */\n      tag_210\n      jump\t// in\n    tag_209:\n        /* \"#utility.yul\":6656:6659   */\n      dup3\n        /* \"#utility.yul\":6649:6686   */\n      mstore\n        /* \"#utility.yul\":6574:6692   */\n      pop\n      pop\n      jump\t// out\n        /* \"#utility.yul\":6698:7449   */\n    tag_78:\n        /* \"#utility.yul\":6921:6925   */\n      0x00\n        /* \"#utility.yul\":6959:6962   */\n      0xa0\n        /* \"#utility.yul\":6948:6957   */\n      dup3\n        /* \"#utility.yul\":6944:6963   */\n      add\n        /* \"#utility.yul\":6936:6963   */\n      swap1\n      pop\n        /* \"#utility.yul\":6973:7044   */\n      tag_212\n        /* \"#utility.yul\":7041:7042   */\n      0x00\n        /* \"#utility.yul\":7030:7039   */\n      dup4\n        /* \"#utility.yul\":7026:7043   */\n      add\n        /* \"#utility.yul\":7017:7023   */\n      dup9\n        /* \"#utility.yul\":6973:7044   */\n      tag_155\n      jump\t// in\n    tag_212:\n        /* \"#utility.yul\":7054:7126   */\n      tag_213\n        /* \"#utility.yul\":7122:7124   */\n      0x20\n        /* \"#utility.yul\":7111:7120   */\n      dup4\n        /* \"#utility.yul\":7107:7125   */\n      add\n        /* \"#utility.yul\":7098:7104   */\n      dup8\n        /* \"#utility.yul\":7054:7126   */\n      tag_155\n      jump\t// in\n    tag_213:\n        /* \"#utility.yul\":7136:7208   */\n      tag_214\n        /* \"#utility.yul\":7204:7206   */\n      0x40\n        /* \"#utility.yul\":7193:7202   */\n      dup4\n        /* \"#utility.yul\":7189:7207   */\n      add\n        /* \"#utility.yul\":7180:7186   */\n      dup7\n        /* \"#utility.yul\":7136:7208   */\n      tag_207\n      jump\t// in\n    tag_214:\n        /* \"#utility.yul\":7218:7290   */\n      tag_215\n        /* \"#utility.yul\":7286:7288   */\n      0x60\n        /* \"#utility.yul\":7275:7284   */\n      dup4\n        /* \"#utility.yul\":7271:7289   */\n      add\n        /* \"#utility.yul\":7262:7268   */\n      dup6\n        /* \"#utility.yul\":7218:7290   */\n      tag_207\n      jump\t// in\n    tag_215:\n        /* \"#utility.yul\":7338:7347   */\n      dup2\n        /* \"#utility.yul\":7332:7336   */\n      dup2\n        /* \"#utility.yul\":7328:7348   */\n      sub\n        /* \"#utility.yul\":7322:7325   */\n      0x80\n        /* \"#utility.yul\":7311:7320   */\n      dup4\n        /* \"#utility.yul\":7307:7326   */\n      add\n        /* \"#utility.yul\":7300:7349   */\n      mstore\n        /* \"#utility.yul\":7366:7442   */\n      tag_216\n        /* \"#utility.yul\":7437:7441   */\n      dup2\n        /* \"#utility.yul\":7428:7434   */\n      dup5\n        /* \"#utility.yul\":7366:7442   */\n      tag_159\n      jump\t// in\n    tag_216:\n        /* \"#utility.yul\":7358:7442   */\n      swap1\n      pop\n        /* \"#utility.yul\":6698:7449   */\n      swap7\n      swap6\n      pop\n      pop\n      pop\n      pop\n      pop\n      pop\n      jump\t// out\n        /* \"#utility.yul\":7455:7768   */\n    tag_17:\n        /* \"#utility.yul\":7568:7572   */\n      0x00\n        /* \"#utility.yul\":7606:7608   */\n      0x20\n        /* \"#utility.yul\":7595:7604   */\n      dup3\n        /* \"#utility.yul\":7591:7609   */\n      add\n        /* \"#utility.yul\":7583:7609   */\n      swap1\n      pop\n        /* \"#utility.yul\":7655:7664   */\n      dup2\n        /* \"#utility.yul\":7649:7653   */\n      dup2\n        /* \"#utility.yul\":7645:7665   */\n      sub\n        /* \"#utility.yul\":7641:7642   */\n      0x00\n        /* \"#utility.yul\":7630:7639   */\n      dup4\n        /* \"#utility.yul\":7626:7643   */\n      add\n        /* \"#utility.yul\":7619:7666   */\n      mstore\n        /* \"#utility.yul\":7683:7761   */\n      tag_218\n        /* \"#utility.yul\":7756:7760   */\n      dup2\n        /* \"#utility.yul\":7747:7753   */\n      dup5\n        /* \"#utility.yul\":7683:7761   */\n      tag_169\n      jump\t// in\n    tag_218:\n        /* \"#utility.yul\":7675:7761   */\n      swap1\n      pop\n        /* \"#utility.yul\":7455:7768   */\n      swap3\n      swap2\n      pop\n      pop\n      jump\t// out\n        /* \"#utility.yul\":7774:8193   */\n    tag_94:\n        /* \"#utility.yul\":7940:7944   */\n      0x00\n        /* \"#utility.yul\":7978:7980   */\n      0x20\n        /* \"#utility.yul\":7967:7976   */\n      dup3\n        /* \"#utility.yul\":7963:7981   */\n      add\n        /* \"#utility.yul\":7955:7981   */\n      swap1\n      pop\n        /* \"#utility.yul\":8027:8036   */\n      dup2\n        /* \"#utility.yul\":8021:8025   */\n      dup2\n        /* \"#utility.yul\":8017:8037   */\n      sub\n        /* \"#utility.yul\":8013:8014   */\n      0x00\n        /* \"#utility.yul\":8002:8011   */\n      dup4\n        /* \"#utility.yul\":7998:8015   */\n      add\n        /* \"#utility.yul\":7991:8038   */\n      mstore\n        /* \"#utility.yul\":8055:8186   */\n      tag_220\n        /* \"#utility.yul\":8181:8185   */\n      dup2\n        /* \"#utility.yul\":8055:8186   */\n      tag_177\n      jump\t// in\n    tag_220:\n        /* \"#utility.yul\":8047:8186   */\n      swap1\n      pop\n        /* \"#utility.yul\":7774:8193   */\n      swap2\n      swap1\n      pop\n      jump\t// out\n        /* \"#utility.yul\":8199:8618   */\n    tag_38:\n        /* \"#utility.yul\":8365:8369   */\n      0x00\n        /* \"#utility.yul\":8403:8405   */\n      0x20\n        /* \"#utility.yul\":8392:8401   */\n      dup3\n        /* \"#utility.yul\":8388:8406   */\n      add\n        /* \"#utility.yul\":8380:8406   */\n      swap1\n      pop\n        /* \"#utility.yul\":8452:8461   */\n      dup2\n        /* \"#utility.yul\":8446:8450   */\n      dup2\n        /* \"#utility.yul\":8442:8462   */\n      sub\n        /* \"#utility.yul\":8438:8439   */\n      0x00\n        /* \"#utility.yul\":8427:8436   */\n      dup4\n        /* \"#utility.yul\":8423:8440   */\n      add\n        /* \"#utility.yul\":8416:8463   */\n      mstore\n        /* \"#utility.yul\":8480:8611   */\n      tag_222\n        /* \"#utility.yul\":8606:8610   */\n      dup2\n        /* \"#utility.yul\":8480:8611   */\n      tag_182\n      jump\t// in\n    tag_222:\n        /* \"#utility.yul\":8472:8611   */\n      swap1\n      pop\n        /* \"#utility.yul\":8199:8618   */\n      swap2\n      swap1\n      pop\n      jump\t// out\n        /* \"#utility.yul\":8624:9043   */\n    tag_98:\n        /* \"#utility.yul\":8790:8794   */\n      0x00\n        /* \"#utility.yul\":8828:8830   */\n      0x20\n        /* \"#utility.yul\":8817:8826   */\n      dup3\n        /* \"#utility.yul\":8813:8831   */\n      add\n        /* \"#utility.yul\":8805:8831   */\n      swap1\n      pop\n        /* \"#utility.yul\":8877:8886   */\n      dup2\n        /* \"#utility.yul\":8871:8875   */\n      dup2\n        /* \"#utility.yul\":8867:8887   */\n      sub\n        /* \"#utility.yul\":8863:8864   */\n      0x00\n        /* \"#utility.yul\":8852:8861   */\n      dup4\n        /* \"#utility.yul\":8848:8865   */\n      add\n        /* \"#utility.yul\":8841:8888   */\n      mstore\n        /* \"#utility.yul\":8905:9036   */\n      tag_224\n        /* \"#utility.yul\":9031:9035   */\n      dup2\n        /* \"#utility.yul\":8905:9036   */\n      tag_187\n      jump\t// in\n    tag_224:\n        /* \"#utility.yul\":8897:9036   */\n      swap1\n      pop\n        /* \"#utility.yul\":8624:9043   */\n      swap2\n      swap1\n      pop\n      jump\t// out\n        /* \"#utility.yul\":9049:9468   */\n    tag_25:\n        /* \"#utility.yul\":9215:9219   */\n      0x00\n        /* \"#utility.yul\":9253:9255   */\n      0x20\n        /* \"#utility.yul\":9242:9251   */\n      dup3\n        /* \"#utility.yul\":9238:9256   */\n      add\n        /* \"#utility.yul\":9230:9256   */\n      swap1\n      pop\n        /* \"#utility.yul\":9302:9311   */\n      dup2\n        /* \"#utility.yul\":9296:9300   */\n      dup2\n        /* \"#utility.yul\":9292:9312   */\n      sub\n        /* \"#utility.yul\":9288:9289   */\n      0x00\n        /* \"#utility.yul\":9277:9286   */\n      dup4\n        /* \"#utility.yul\":9273:9290   */\n      add\n        /* \"#utility.yul\":9266:9313   */\n      mstore\n        /* \"#utility.yul\":9330:9461   */\n      tag_226\n        /* \"#utility.yul\":9456:9460   */\n      dup2\n        /* \"#utility.yul\":9330:9461   */\n      tag_192\n      jump\t// in\n    tag_226:\n        /* \"#utility.yul\":9322:9461   */\n      swap1\n      pop\n        /* \"#utility.yul\":9049:9468   */\n      swap2\n      swap1\n      pop\n      jump\t// out\n        /* \"#utility.yul\":9474:9893   */\n    tag_45:\n        /* \"#utility.yul\":9640:9644   */\n      0x00\n        /* \"#utility.yul\":9678:9680   */\n      0x20\n        /* \"#utility.yul\":9667:9676   */\n      dup3\n        /* \"#utility.yul\":9663:9681   */\n      add\n        /* \"#utility.yul\":9655:9681   */\n      swap1\n      pop\n        /* \"#utility.yul\":9727:9736   */\n      dup2\n        /* \"#utility.yul\":9721:9725   */\n      dup2\n        /* \"#utility.yul\":9717:9737   */\n      sub\n        /* \"#utility.yul\":9713:9714   */\n      0x00\n        /* \"#utility.yul\":9702:9711   */\n      dup4\n        /* \"#utility.yul\":9698:9715   */\n      add\n        /* \"#utility.yul\":9691:9738   */\n      mstore\n        /* \"#utility.yul\":9755:9886   */\n      tag_228\n        /* \"#utility.yul\":9881:9885   */\n      dup2\n        /* \"#utility.yul\":9755:9886   */\n      tag_197\n      jump\t// in\n    tag_228:\n        /* \"#utility.yul\":9747:9886   */\n      swap1\n      pop\n        /* \"#utility.yul\":9474:9893   */\n      swap2\n      swap1\n      pop\n      jump\t// out\n        /* \"#utility.yul\":9899:10318   */\n    tag_54:\n        /* \"#utility.yul\":10065:10069   */\n      0x00\n        /* \"#utility.yul\":10103:10105   */\n      0x20\n        /* \"#utility.yul\":10092:10101   */\n      dup3\n        /* \"#utility.yul\":10088:10106   */\n      add\n        /* \"#utility.yul\":10080:10106   */\n      swap1\n      pop\n        /* \"#utility.yul\":10152:10161   */\n      dup2\n        /* \"#utility.yul\":10146:10150   */\n      dup2\n        /* \"#utility.yul\":10142:10162   */\n      sub\n        /* \"#utility.yul\":10138:10139   */\n      0x00\n        /* \"#utility.yul\":10127:10136   */\n      dup4\n        /* \"#utility.yul\":10123:10140   */\n      add\n        /* \"#utility.yul\":10116:10163   */\n      mstore\n        /* \"#utility.yul\":10180:10311   */\n      tag_230\n        /* \"#utility.yul\":10306:10310   */\n      dup2\n        /* \"#utility.yul\":10180:10311   */\n      tag_202\n      jump\t// in\n    tag_230:\n        /* \"#utility.yul\":10172:10311   */\n      swap1\n      pop\n        /* \"#utility.yul\":9899:10318   */\n      swap2\n      swap1\n      pop\n      jump\t// out\n        /* \"#utility.yul\":10324:10546   */\n    tag_11:\n        /* \"#utility.yul\":10417:10421   */\n      0x00\n        /* \"#utility.yul\":10455:10457   */\n      0x20\n        /* \"#utility.yul\":10444:10453   */\n      dup3\n        /* \"#utility.yul\":10440:10458   */\n      add\n        /* \"#utility.yul\":10432:10458   */\n      swap1\n      pop\n        /* \"#utility.yul\":10468:10539   */\n      tag_232\n        /* \"#utility.yul\":10536:10537   */\n      0x00\n        /* \"#utility.yul\":10525:10534   */\n      dup4\n        /* \"#utility.yul\":10521:10538   */\n      add\n        /* \"#utility.yul\":10512:10518   */\n      dup5\n        /* \"#utility.yul\":10468:10539   */\n      tag_207\n      jump\t// in\n    tag_232:\n        /* \"#utility.yul\":10324:10546   */\n      swap3\n      swap2\n      pop\n      pop\n      jump\t// out\n        /* \"#utility.yul\":10552:10884   */\n    tag_58:\n        /* \"#utility.yul\":10673:10677   */\n      0x00\n        /* \"#utility.yul\":10711:10713   */\n      0x40\n        /* \"#utility.yul\":10700:10709   */\n      dup3\n        /* \"#utility.yul\":10696:10714   */\n      add\n        /* \"#utility.yul\":10688:10714   */\n      swap1\n      pop\n        /* \"#utility.yul\":10724:10795   */\n      tag_234\n        /* \"#utility.yul\":10792:10793   */\n      0x00\n        /* \"#utility.yul\":10781:10790   */\n      dup4\n        /* \"#utility.yul\":10777:10794   */\n      add\n        /* \"#utility.yul\":10768:10774   */\n      dup6\n        /* \"#utility.yul\":10724:10795   */\n      tag_207\n      jump\t// in\n    tag_234:\n        /* \"#utility.yul\":10805:10877   */\n      tag_235\n        /* \"#utility.yul\":10873:10875   */\n      0x20\n        /* \"#utility.yul\":10862:10871   */\n      dup4\n        /* \"#utility.yul\":10858:10876   */\n      add\n        /* \"#utility.yul\":10849:10855   */\n      dup5\n        /* \"#utility.yul\":10805:10877   */\n      tag_207\n      jump\t// in\n    tag_235:\n        /* \"#utility.yul\":10552:10884   */\n      swap4\n      swap3\n      pop\n      pop\n      pop\n      jump\t// out\n        /* \"#utility.yul\":10890:11019   */\n    tag_106:\n        /* \"#utility.yul\":10924:10930   */\n      0x00\n        /* \"#utility.yul\":10951:10971   */\n      tag_237\n      tag_238\n      jump\t// in\n    tag_237:\n        /* \"#utility.yul\":10941:10971   */\n      swap1\n      pop\n        /* \"#utility.yul\":10980:11013   */\n      tag_239\n        /* \"#utility.yul\":11008:11012   */\n      dup3\n        /* \"#utility.yul\":11000:11006   */\n      dup3\n        /* \"#utility.yul\":10980:11013   */\n      tag_240\n      jump\t// in\n    tag_239:\n        /* \"#utility.yul\":10890:11019   */\n      swap2\n      swap1\n      pop\n      jump\t// out\n        /* \"#utility.yul\":11025:11100   */\n    tag_238:\n        /* \"#utility.yul\":11058:11064   */\n      0x00\n        /* \"#utility.yul\":11091:11093   */\n      0x40\n        /* \"#utility.yul\":11085:11094   */\n      mload\n        /* \"#utility.yul\":11075:11094   */\n      swap1\n      pop\n        /* \"#utility.yul\":11025:11100   */\n      swap1\n      jump\t// out\n        /* \"#utility.yul\":11106:11413   */\n    tag_105:\n        /* \"#utility.yul\":11167:11171   */\n      0x00\n        /* \"#utility.yul\":11257:11275   */\n      0xffffffffffffffff\n        /* \"#utility.yul\":11249:11255   */\n      dup3\n        /* \"#utility.yul\":11246:11276   */\n      gt\n        /* \"#utility.yul\":11243:11299   */\n      iszero\n      tag_243\n      jumpi\n        /* \"#utility.yul\":11279:11297   */\n      tag_244\n      tag_66\n      jump\t// in\n    tag_244:\n        /* \"#utility.yul\":11243:11299   */\n    tag_243:\n        /* \"#utility.yul\":11317:11346   */\n      tag_245\n        /* \"#utility.yul\":11339:11345   */\n      dup3\n        /* \"#utility.yul\":11317:11346   */\n      tag_168\n      jump\t// in\n    tag_245:\n        /* \"#utility.yul\":11309:11346   */\n      swap1\n      pop\n        /* \"#utility.yul\":11401:11405   */\n      0x20\n        /* \"#utility.yul\":11395:11399   */\n      dup2\n        /* \"#utility.yul\":11391:11406   */\n      add\n        /* \"#utility.yul\":11383:11406   */\n      swap1\n      pop\n        /* \"#utility.yul\":11106:11413   */\n      swap2\n      swap1\n      pop\n      jump\t// out\n        /* \"#utility.yul\":11419:11517   */\n    tag_162:\n        /* \"#utility.yul\":11470:11476   */\n      0x00\n        /* \"#utility.yul\":11504:11509   */\n      dup2\n        /* \"#utility.yul\":11498:11510   */\n      mload\n        /* \"#utility.yul\":11488:11510   */\n      swap1\n      pop\n        /* \"#utility.yul\":11419:11517   */\n      swap2\n      swap1\n      pop\n      jump\t// out\n        /* \"#utility.yul\":11523:11622   */\n    tag_172:\n        /* \"#utility.yul\":11575:11581   */\n      0x00\n        /* \"#utility.yul\":11609:11614   */\n      dup2\n        /* \"#utility.yul\":11603:11615   */\n      mload\n        /* \"#utility.yul\":11593:11615   */\n      swap1\n      pop\n        /* \"#utility.yul\":11523:11622   */\n      swap2\n      swap1\n      pop\n      jump\t// out\n        /* \"#utility.yul\":11628:11796   */\n    tag_164:\n        /* \"#utility.yul\":11711:11722   */\n      0x00\n        /* \"#utility.yul\":11745:11751   */\n      dup3\n        /* \"#utility.yul\":11740:11743   */\n      dup3\n        /* \"#utility.yul\":11733:11752   */\n      mstore\n        /* \"#utility.yul\":11785:11789   */\n      0x20\n        /* \"#utility.yul\":11780:11783   */\n      dup3\n        /* \"#utility.yul\":11776:11790   */\n      add\n        /* \"#utility.yul\":11761:11790   */\n      swap1\n      pop\n        /* \"#utility.yul\":11628:11796   */\n      swap3\n      swap2\n      pop\n      pop\n      jump\t// out\n        /* \"#utility.yul\":11802:11971   */\n    tag_174:\n        /* \"#utility.yul\":11886:11897   */\n      0x00\n        /* \"#utility.yul\":11920:11926   */\n      dup3\n        /* \"#utility.yul\":11915:11918   */\n      dup3\n        /* \"#utility.yul\":11908:11927   */\n      mstore\n        /* \"#utility.yul\":11960:11964   */\n      0x20\n        /* \"#utility.yul\":11955:11958   */\n      dup3\n        /* \"#utility.yul\":11951:11965   */\n      add\n        /* \"#utility.yul\":11936:11965   */\n      swap1\n      pop\n        /* \"#utility.yul\":11802:11971   */\n      swap3\n      swap2\n      pop\n      pop\n      jump\t// out\n        /* \"#utility.yul\":11977:12282   */\n    tag_56:\n        /* \"#utility.yul\":12017:12020   */\n      0x00\n        /* \"#utility.yul\":12036:12056   */\n      tag_251\n        /* \"#utility.yul\":12054:12055   */\n      dup3\n        /* \"#utility.yul\":12036:12056   */\n      tag_210\n      jump\t// in\n    tag_251:\n        /* \"#utility.yul\":12031:12056   */\n      swap2\n      pop\n        /* \"#utility.yul\":12070:12090   */\n      tag_252\n        /* \"#utility.yul\":12088:12089   */\n      dup4\n        /* \"#utility.yul\":12070:12090   */\n      tag_210\n      jump\t// in\n    tag_252:\n        /* \"#utility.yul\":12065:12090   */\n      swap3\n      pop\n        /* \"#utility.yul\":12224:12225   */\n      dup3\n        /* \"#utility.yul\":12156:12222   */\n      0xffffffffffffffffffffffffffffffffffffffffffffffffffffffffffffffff\n        /* \"#utility.yul\":12152:12226   */\n      sub\n        /* \"#utility.yul\":12149:12150   */\n      dup3\n        /* \"#utility.yul\":12146:12227   */\n      gt\n        /* \"#utility.yul\":12143:12250   */\n      iszero\n      tag_253\n      jumpi\n        /* \"#utility.yul\":12230:12248   */\n      tag_254\n      tag_255\n      jump\t// in\n    tag_254:\n        /* \"#utility.yul\":12143:12250   */\n    tag_253:\n        /* \"#utility.yul\":12274:12275   */\n      dup3\n        /* \"#utility.yul\":12271:12272   */\n      dup3\n        /* \"#utility.yul\":12267:12276   */\n      add\n        /* \"#utility.yul\":12260:12276   */\n      swap1\n      pop\n        /* \"#utility.yul\":11977:12282   */\n      swap3\n      swap2\n      pop\n      pop\n      jump\t// out\n        /* \"#utility.yul\":12288:12384   */\n    tag_158:\n        /* \"#utility.yul\":12325:12332   */\n      0x00\n        /* \"#utility.yul\":12354:12378   */\n      tag_257\n        /* \"#utility.yul\":12372:12377   */\n      dup3\n        /* \"#utility.yul\":12354:12378   */\n      tag_258\n      jump\t// in\n    tag_257:\n        /* \"#utility.yul\":12343:12378   */\n      swap1\n      pop\n        /* \"#utility.yul\":12288:12384   */\n      swap2\n      swap1\n      pop\n      jump\t// out\n        /* \"#utility.yul\":12390:12539   */\n    tag_259:\n        /* \"#utility.yul\":12426:12433   */\n      0x00\n        /* \"#utility.yul\":12466:12532   */\n      0xffffffff00000000000000000000000000000000000000000000000000000000\n        /* \"#utility.yul\":12459:12464   */\n      dup3\n        /* \"#utility.yul\":12455:12533   */\n      and\n        /* \"#utility.yul\":12444:12533   */\n      swap1\n      pop\n        /* \"#utility.yul\":12390:12539   */\n      swap2\n      swap1\n      pop\n      jump\t// out\n        /* \"#utility.yul\":12545:12671   */\n    tag_258:\n        /* \"#utility.yul\":12582:12589   */\n      0x00\n        /* \"#utility.yul\":12622:12664   */\n      0xffffffffffffffffffffffffffffffffffffffff\n        /* \"#utility.yul\":12615:12620   */\n      dup3\n        /* \"#utility.yul\":12611:12665   */\n      and\n        /* \"#utility.yul\":12600:12665   */\n      swap1\n      pop\n        /* \"#utility.yul\":12545:12671   */\n      swap2\n      swap1\n      pop\n      jump\t// out\n        /* \"#utility.yul\":12677:12754   */\n    tag_210:\n        /* \"#utility.yul\":12714:12721   */\n      0x00\n        /* \"#utility.yul\":12743:12748   */\n      dup2\n        /* \"#utility.yul\":12732:12748   */\n      swap1\n      pop\n        /* \"#utility.yul\":12677:12754   */\n      swap2\n      swap1\n      pop\n      jump\t// out\n        /* \"#utility.yul\":12760:12914   */\n    tag_111:\n        /* \"#utility.yul\":12844:12850   */\n      dup3\n        /* \"#utility.yul\":12839:12842   */\n      dup2\n        /* \"#utility.yul\":12834:12837   */\n      dup4\n        /* \"#utility.yul\":12821:12851   */\n      calldatacopy\n        /* \"#utility.yul\":12906:12907   */\n      0x00\n        /* \"#utility.yul\":12897:12903   */\n      dup4\n        /* \"#utility.yul\":12892:12895   */\n      dup4\n        /* \"#utility.yul\":12888:12904   */\n      add\n        /* \"#utility.yul\":12881:12908   */\n      mstore\n        /* \"#utility.yul\":12760:12914   */\n      pop\n      pop\n      pop\n      jump\t// out\n        /* \"#utility.yul\":12920:13227   */\n    tag_166:\n        /* \"#utility.yul\":12988:12989   */\n      0x00\n        /* \"#utility.yul\":12998:13111   */\n    tag_265:\n        /* \"#utility.yul\":13012:13018   */\n      dup4\n        /* \"#utility.yul\":13009:13010   */\n      dup2\n        /* \"#utility.yul\":13006:13019   */\n      lt\n        /* \"#utility.yul\":12998:13111   */\n      iszero\n      tag_267\n      jumpi\n        /* \"#utility.yul\":13097:13098   */\n      dup1\n        /* \"#utility.yul\":13092:13095   */\n      dup3\n        /* \"#utility.yul\":13088:13099   */\n      add\n        /* \"#utility.yul\":13082:13100   */\n      mload\n        /* \"#utility.yul\":13078:13079   */\n      dup2\n        /* \"#utility.yul\":13073:13076   */\n      dup5\n        /* \"#utility.yul\":13069:13080   */\n      add\n        /* \"#utility.yul\":13062:13101   */\n      mstore\n        /* \"#utility.yul\":13034:13036   */\n      0x20\n        /* \"#utility.yul\":13031:13032   */\n      dup2\n        /* \"#utility.yul\":13027:13037   */\n      add\n        /* \"#utility.yul\":13022:13037   */\n      swap1\n      pop\n        /* \"#utility.yul\":12998:13111   */\n      jump(tag_265)\n    tag_267:\n        /* \"#utility.yul\":13129:13135   */\n      dup4\n        /* \"#utility.yul\":13126:13127   */\n      dup2\n        /* \"#utility.yul\":13123:13136   */\n      gt\n        /* \"#utility.yul\":13120:13221   */\n      iszero\n      tag_268\n      jumpi\n        /* \"#utility.yul\":13209:13210   */\n      0x00\n        /* \"#utility.yul\":13200:13206   */\n      dup5\n        /* \"#utility.yul\":13195:13198   */\n      dup5\n        /* \"#utility.yul\":13191:13207   */\n      add\n        /* \"#utility.yul\":13184:13211   */\n      mstore\n        /* \"#utility.yul\":13120:13221   */\n    tag_268:\n        /* \"#utility.yul\":12969:13227   */\n      pop\n        /* \"#utility.yul\":12920:13227   */\n      pop\n      pop\n      pop\n      jump\t// out\n        /* \"#utility.yul\":13233:13553   */\n    tag_28:\n        /* \"#utility.yul\":13277:13283   */\n      0x00\n        /* \"#utility.yul\":13314:13315   */\n      0x02\n        /* \"#utility.yul\":13308:13312   */\n      dup3\n        /* \"#utility.yul\":13304:13316   */\n      div\n        /* \"#utility.yul\":13294:13316   */\n      swap1\n      pop\n        /* \"#utility.yul\":13361:13362   */\n      0x01\n        /* \"#utility.yul\":13355:13359   */\n      dup3\n        /* \"#utility.yul\":13351:13363   */\n      and\n        /* \"#utility.yul\":13382:13400   */\n      dup1\n        /* \"#utility.yul\":13372:13453   */\n      tag_270\n      jumpi\n        /* \"#utility.yul\":13438:13442   */\n      0x7f\n        /* \"#utility.yul\":13430:13436   */\n      dup3\n        /* \"#utility.yul\":13426:13443   */\n      and\n        /* \"#utility.yul\":13416:13443   */\n      swap2\n      pop\n        /* \"#utility.yul\":13372:13453   */\n    tag_270:\n        /* \"#utility.yul\":13500:13502   */\n      0x20\n        /* \"#utility.yul\":13492:13498   */\n      dup3\n        /* \"#utility.yul\":13489:13503   */\n      lt\n        /* \"#utility.yul\":13469:13487   */\n      dup2\n        /* \"#utility.yul\":13466:13504   */\n      eq\n        /* \"#utility.yul\":13463:13547   */\n      iszero\n      tag_271\n      jumpi\n        /* \"#utility.yul\":13519:13537   */\n      tag_272\n      tag_273\n      jump\t// in\n    tag_272:\n        /* \"#utility.yul\":13463:13547   */\n    tag_271:\n        /* \"#utility.yul\":13284:13553   */\n      pop\n        /* \"#utility.yul\":13233:13553   */\n      swap2\n      swap1\n      pop\n      jump\t// out\n        /* \"#utility.yul\":13559:13840   */\n    tag_240:\n        /* \"#utility.yul\":13642:13669   */\n      tag_275\n        /* \"#utility.yul\":13664:13668   */\n      dup3\n        /* \"#utility.yul\":13642:13669   */\n      tag_168\n      jump\t// in\n    tag_275:\n        /* \"#utility.yul\":13634:13640   */\n      dup2\n        /* \"#utility.yul\":13630:13670   */\n      add\n        /* \"#utility.yul\":13772:13778   */\n      dup2\n        /* \"#utility.yul\":13760:13770   */\n      dup2\n        /* \"#utility.yul\":13757:13779   */\n      lt\n        /* \"#utility.yul\":13736:13754   */\n      0xffffffffffffffff\n        /* \"#utility.yul\":13724:13734   */\n      dup3\n        /* \"#utility.yul\":13721:13755   */\n      gt\n        /* \"#utility.yul\":13718:13780   */\n      or\n        /* \"#utility.yul\":13715:13803   */\n      iszero\n      tag_276\n      jumpi\n        /* \"#utility.yul\":13783:13801   */\n      tag_277\n      tag_66\n      jump\t// in\n    tag_277:\n        /* \"#utility.yul\":13715:13803   */\n    tag_276:\n        /* \"#utility.yul\":13823:13833   */\n      dup1\n        /* \"#utility.yul\":13819:13821   */\n      0x40\n        /* \"#utility.yul\":13812:13834   */\n      mstore\n        /* \"#utility.yul\":13602:13840   */\n      pop\n        /* \"#utility.yul\":13559:13840   */\n      pop\n      pop\n      jump\t// out\n        /* \"#utility.yul\":13846:14026   */\n    tag_255:\n        /* \"#utility.yul\":13894:13971   */\n      0x4e487b7100000000000000000000000000000000000000000000000000000000\n        /* \"#utility.yul\":13891:13892   */\n      0x00\n        /* \"#utility.yul\":13884:13972   */\n      mstore\n        /* \"#utility.yul\":13991:13995   */\n      0x11\n        /* \"#utility.yul\":13988:13989   */\n      0x04\n        /* \"#utility.yul\":13981:13996   */\n      mstore\n        /* \"#utility.yul\":14015:14019   */\n      0x24\n        /* \"#utility.yul\":14012:14013   */\n      0x00\n        /* \"#utility.yul\":14005:14020   */\n      revert\n        /* \"#utility.yul\":14032:14212   */\n    tag_273:\n        /* \"#utility.yul\":14080:14157   */\n      0x4e487b7100000000000000000000000000000000000000000000000000000000\n        /* \"#utility.yul\":14077:14078   */\n      0x00\n        /* \"#utility.yul\":14070:14158   */\n      mstore\n        /* \"#utility.yul\":14177:14181   */\n      0x22\n        /* \"#utility.yul\":14174:14175   */\n      0x04\n        /* \"#utility.yul\":14167:14182   */\n      mstore\n        /* \"#utility.yul\":14201:14205   */\n      0x24\n        /* \"#utility.yul\":14198:14199   */\n      0x00\n        /* \"#utility.yul\":14191:14206   */\n      revert\n        /* \"#utility.yul\":14218:14398   */\n    tag_70:\n        /* \"#utility.yul\":14266:14343   */\n      0x4e487b7100000000000000000000000000000000000000000000000000000000\n        /* \"#utility.yul\":14263:14264   */\n      0x00\n        /* \"#utility.yul\":14256:14344   */\n      mstore\n        /* \"#utility.yul\":14363:14367   */\n      0x32\n        /* \"#utility.yul\":14360:14361   */\n      0x04\n        /* \"#utility.yul\":14353:14368   */\n      mstore\n        /* \"#utility.yul\":14387:14391   */\n      0x24\n        /* \"#utility.yul\":14384:14385   */\n      0x00\n        /* \"#utility.yul\":14377:14392   */\n      revert\n        /* \"#utility.yul\":14404:14584   */\n    tag_66:\n        /* \"#utility.yul\":14452:14529   */\n      0x4e487b7100000000000000000000000000000000000000000000000000000000\n        /* \"#utility.yul\":14449:14450   */\n      0x00\n        /* \"#utility.yul\":14442:14530   */\n      mstore\n        /* \"#utility.yul\":14549:14553   */\n      0x41\n        /* \"#utility.yul\":14546:14547   */\n      0x04\n        /* \"#utility.yul\":14539:14554   */\n      mstore\n        /* \"#utility.yul\":14573:14577   */\n      0x24\n        /* \"#utility.yul\":14570:14571   */\n      0x00\n        /* \"#utility.yul\":14563:14578   */\n      revert\n        /* \"#utility.yul\":14590:14773   */\n    tag_88:\n        /* \"#utility.yul\":14625:14628   */\n      0x00\n        /* \"#utility.yul\":14663:14664   */\n      0x03\n        /* \"#utility.yul\":14645:14661   */\n      returndatasize\n        /* \"#utility.yul\":14642:14665   */\n      gt\n        /* \"#utility.yul\":14639:14767   */\n      iszero\n      tag_283\n      jumpi\n        /* \"#utility.yul\":14701:14702   */\n      0x04\n        /* \"#utility.yul\":14698:14699   */\n      0x00\n        /* \"#utility.yul\":14695:14696   */\n      dup1\n        /* \"#utility.yul\":14680:14703   */\n      returndatacopy\n        /* \"#utility.yul\":14723:14757   */\n      tag_284\n        /* \"#utility.yul\":14754:14755   */\n      0x00\n        /* \"#utility.yul\":14748:14756   */\n      mload\n        /* \"#utility.yul\":14723:14757   */\n      tag_285\n      jump\t// in\n    tag_284:\n        /* \"#utility.yul\":14716:14757   */\n      swap1\n      pop\n        /* \"#utility.yul\":14639:14767   */\n    tag_283:\n        /* \"#utility.yul\":14590:14773   */\n      swap1\n      jump\t// out\n        /* \"#utility.yul\":14779:14896   */\n    tag_124:\n        /* \"#utility.yul\":14888:14889   */\n      0x00\n        /* \"#utility.yul\":14885:14886   */\n      dup1\n        /* \"#utility.yul\":14878:14890   */\n      revert\n        /* \"#utility.yul\":14902:15019   */\n    tag_109:\n        /* \"#utility.yul\":15011:15012   */\n      0x00\n        /* \"#utility.yul\":15008:15009   */\n      dup1\n        /* \"#utility.yul\":15001:15013   */\n      revert\n        /* \"#utility.yul\":15025:15142   */\n    tag_140:\n        /* \"#utility.yul\":15134:15135   */\n      0x00\n        /* \"#utility.yul\":15131:15132   */\n      dup1\n        /* \"#utility.yul\":15124:15136   */\n      revert\n        /* \"#utility.yul\":15148:15265   */\n    tag_133:\n        /* \"#utility.yul\":15257:15258   */\n      0x00\n        /* \"#utility.yul\":15254:15255   */\n      dup1\n        /* \"#utility.yul\":15247:15259   */\n      revert\n        /* \"#utility.yul\":15271:15373   */\n    tag_168:\n        /* \"#utility.yul\":15312:15318   */\n      0x00\n        /* \"#utility.yul\":15363:15365   */\n      0x1f\n        /* \"#utility.yul\":15359:15366   */\n      not\n        /* \"#utility.yul\":15354:15356   */\n      0x1f\n        /* \"#utility.yul\":15347:15352   */\n      dup4\n        /* \"#utility.yul\":15343:15357   */\n      add\n        /* \"#utility.yul\":15339:15367   */\n      and\n        /* \"#utility.yul\":15329:15367   */\n      swap1\n      pop\n        /* \"#utility.yul\":15271:15373   */\n      swap2\n      swap1\n      pop\n      jump\t// out\n        /* \"#utility.yul\":15379:15485   */\n    tag_285:\n        /* \"#utility.yul\":15423:15431   */\n      0x00\n        /* \"#utility.yul\":15472:15477   */\n      dup2\n        /* \"#utility.yul\":15467:15470   */\n      0xe0\n        /* \"#utility.yul\":15463:15478   */\n      shr\n        /* \"#utility.yul\":15442:15478   */\n      swap1\n      pop\n        /* \"#utility.yul\":15379:15485   */\n      swap2\n      swap1\n      pop\n      jump\t// out\n        /* \"#utility.yul\":15491:15730   */\n    tag_181:\n        /* \"#utility.yul\":15631:15665   */\n      0x455243313135353a207472616e7366657220746f206e6f6e2045524331313535\n        /* \"#utility.yul\":15627:15628   */\n      0x00\n        /* \"#utility.yul\":15619:15625   */\n      dup3\n        /* \"#utility.yul\":15615:15629   */\n      add\n        /* \"#utility.yul\":15608:15666   */\n      mstore\n        /* \"#utility.yul\":15700:15722   */\n      0x526563656976657220696d706c656d656e746572000000000000000000000000\n        /* \"#utility.yul\":15695:15697   */\n      0x20\n        /* \"#utility.yul\":15687:15693   */\n      dup3\n        /* \"#utility.yul\":15683:15698   */\n      add\n        /* \"#utility.yul\":15676:15723   */\n      mstore\n        /* \"#utility.yul\":15491:15730   */\n      pop\n      jump\t// out\n        /* \"#utility.yul\":15736:15970   */\n    tag_186:\n        /* \"#utility.yul\":15876:15910   */\n      0x455243313135353a2063616c6c6572206973206e6f7420746f6b656e206f776e\n        /* \"#utility.yul\":15872:15873   */\n      0x00\n        /* \"#utility.yul\":15864:15870   */\n      dup3\n        /* \"#utility.yul\":15860:15874   */\n      add\n        /* \"#utility.yul\":15853:15911   */\n      mstore\n        /* \"#utility.yul\":15945:15962   */\n      0x6572206e6f7220617070726f7665640000000000000000000000000000000000\n        /* \"#utility.yul\":15940:15942   */\n      0x20\n        /* \"#utility.yul\":15932:15938   */\n      dup3\n        /* \"#utility.yul\":15928:15943   */\n      add\n        /* \"#utility.yul\":15921:15963   */\n      mstore\n        /* \"#utility.yul\":15736:15970   */\n      pop\n      jump\t// out\n        /* \"#utility.yul\":15976:16203   */\n    tag_191:\n        /* \"#utility.yul\":16116:16150   */\n      0x455243313135353a204552433131353552656365697665722072656a65637465\n        /* \"#utility.yul\":16112:16113   */\n      0x00\n        /* \"#utility.yul\":16104:16110   */\n      dup3\n        /* \"#utility.yul\":16100:16114   */\n      add\n        /* \"#utility.yul\":16093:16151   */\n      mstore\n        /* \"#utility.yul\":16185:16195   */\n      0x6420746f6b656e73000000000000000000000000000000000000000000000000\n        /* \"#utility.yul\":16180:16182   */\n      0x20\n        /* \"#utility.yul\":16172:16178   */\n      dup3\n        /* \"#utility.yul\":16168:16183   */\n      add\n        /* \"#utility.yul\":16161:16196   */\n      mstore\n        /* \"#utility.yul\":15976:16203   */\n      pop\n      jump\t// out\n        /* \"#utility.yul\":16209:16438   */\n    tag_196:\n        /* \"#utility.yul\":16349:16383   */\n      0x455243313135353a2061646472657373207a65726f206973206e6f7420612076\n        /* \"#utility.yul\":16345:16346   */\n      0x00\n        /* \"#utility.yul\":16337:16343   */\n      dup3\n        /* \"#utility.yul\":16333:16347   */\n      add\n        /* \"#utility.yul\":16326:16384   */\n      mstore\n        /* \"#utility.yul\":16418:16430   */\n      0x616c6964206f776e657200000000000000000000000000000000000000000000\n        /* \"#utility.yul\":16413:16415   */\n      0x20\n        /* \"#utility.yul\":16405:16411   */\n      dup3\n        /* \"#utility.yul\":16401:16416   */\n      add\n        /* \"#utility.yul\":16394:16431   */\n      mstore\n        /* \"#utility.yul\":16209:16438   */\n      pop\n      jump\t// out\n        /* \"#utility.yul\":16444:16668   */\n    tag_201:\n        /* \"#utility.yul\":16584:16618   */\n      0x455243313135353a207472616e7366657220746f20746865207a65726f206164\n        /* \"#utility.yul\":16580:16581   */\n      0x00\n        /* \"#utility.yul\":16572:16578   */\n      dup3\n        /* \"#utility.yul\":16568:16582   */\n      add\n        /* \"#utility.yul\":16561:16619   */\n      mstore\n        /* \"#utility.yul\":16653:16660   */\n      0x6472657373000000000000000000000000000000000000000000000000000000\n        /* \"#utility.yul\":16648:16650   */\n      0x20\n        /* \"#utility.yul\":16640:16646   */\n      dup3\n        /* \"#utility.yul\":16636:16651   */\n      add\n        /* \"#utility.yul\":16629:16661   */\n      mstore\n        /* \"#utility.yul\":16444:16668   */\n      pop\n      jump\t// out\n        /* \"#utility.yul\":16674:16903   */\n    tag_206:\n        /* \"#utility.yul\":16814:16848   */\n      0x455243313135353a20696e73756666696369656e742062616c616e636520666f\n        /* \"#utility.yul\":16810:16811   */\n      0x00\n        /* \"#utility.yul\":16802:16808   */\n      dup3\n        /* \"#utility.yul\":16798:16812   */\n      add\n        /* \"#utility.yul\":16791:16849   */\n      mstore\n        /* \"#utility.yul\":16883:16895   */\n      0x72207472616e7366657200000000000000000000000000000000000000000000\n        /* \"#utility.yul\":16878:16880   */\n      0x20\n        /* \"#utility.yul\":16870:16876   */\n      dup3\n        /* \"#utility.yul\":16866:16881   */\n      add\n        /* \"#utility.yul\":16859:16896   */\n      mstore\n        /* \"#utility.yul\":16674:16903   */\n      pop\n      jump\t// out\n        /* \"#utility.yul\":16909:17620   */\n    tag_90:\n        /* \"#utility.yul\":16948:16951   */\n      0x00\n        /* \"#utility.yul\":16986:16990   */\n      0x44\n        /* \"#utility.yul\":16968:16984   */\n      returndatasize\n        /* \"#utility.yul\":16965:16991   */\n      lt\n        /* \"#utility.yul\":16962:17001   */\n      iszero\n      tag_299\n      jumpi\n        /* \"#utility.yul\":16994:16999   */\n      jump(tag_298)\n        /* \"#utility.yul\":16962:17001   */\n    tag_299:\n        /* \"#utility.yul\":17023:17043   */\n      tag_300\n      tag_238\n      jump\t// in\n    tag_300:\n        /* \"#utility.yul\":17098:17099   */\n      0x04\n        /* \"#utility.yul\":17080:17096   */\n      returndatasize\n        /* \"#utility.yul\":17076:17100   */\n      sub\n        /* \"#utility.yul\":17073:17074   */\n      0x04\n        /* \"#utility.yul\":17067:17071   */\n      dup3\n        /* \"#utility.yul\":17052:17101   */\n      returndatacopy\n        /* \"#utility.yul\":17131:17135   */\n      dup1\n        /* \"#utility.yul\":17125:17136   */\n      mload\n        /* \"#utility.yul\":17230:17246   */\n      returndatasize\n        /* \"#utility.yul\":17223:17227   */\n      0x24\n        /* \"#utility.yul\":17215:17221   */\n      dup3\n        /* \"#utility.yul\":17211:17228   */\n      add\n        /* \"#utility.yul\":17208:17247   */\n      gt\n        /* \"#utility.yul\":17175:17193   */\n      0xffffffffffffffff\n        /* \"#utility.yul\":17167:17173   */\n      dup3\n        /* \"#utility.yul\":17164:17194   */\n      gt\n        /* \"#utility.yul\":17148:17261   */\n      or\n        /* \"#utility.yul\":17145:17291   */\n      iszero\n      tag_301\n      jumpi\n        /* \"#utility.yul\":17276:17281   */\n      pop\n      pop\n      jump(tag_298)\n        /* \"#utility.yul\":17145:17291   */\n    tag_301:\n        /* \"#utility.yul\":17322:17328   */\n      dup1\n        /* \"#utility.yul\":17316:17320   */\n      dup3\n        /* \"#utility.yul\":17312:17329   */\n      add\n        /* \"#utility.yul\":17358:17361   */\n      dup1\n        /* \"#utility.yul\":17352:17362   */\n      mload\n        /* \"#utility.yul\":17385:17403   */\n      0xffffffffffffffff\n        /* \"#utility.yul\":17377:17383   */\n      dup2\n        /* \"#utility.yul\":17374:17404   */\n      gt\n        /* \"#utility.yul\":17371:17414   */\n      iszero\n      tag_302\n      jumpi\n        /* \"#utility.yul\":17407:17412   */\n      pop\n      pop\n      pop\n      pop\n      jump(tag_298)\n        /* \"#utility.yul\":17371:17414   */\n    tag_302:\n        /* \"#utility.yul\":17455:17461   */\n      dup1\n        /* \"#utility.yul\":17448:17452   */\n      0x20\n        /* \"#utility.yul\":17443:17446   */\n      dup4\n        /* \"#utility.yul\":17439:17453   */\n      add\n        /* \"#utility.yul\":17435:17462   */\n      add\n        /* \"#utility.yul\":17514:17515   */\n      0x04\n        /* \"#utility.yul\":17496:17512   */\n      returndatasize\n        /* \"#utility.yul\":17492:17516   */\n      sub\n        /* \"#utility.yul\":17486:17490   */\n      dup6\n        /* \"#utility.yul\":17482:17517   */\n      add\n        /* \"#utility.yul\":17477:17480   */\n      dup2\n        /* \"#utility.yul\":17474:17518   */\n      gt\n        /* \"#utility.yul\":17471:17528   */\n      iszero\n      tag_303\n      jumpi\n        /* \"#utility.yul\":17521:17526   */\n      pop\n      pop\n      pop\n      pop\n      pop\n      jump(tag_298)\n        /* \"#utility.yul\":17471:17528   */\n    tag_303:\n        /* \"#utility.yul\":17538:17595   */\n      tag_304\n        /* \"#utility.yul\":17586:17592   */\n      dup3\n        /* \"#utility.yul\":17580:17584   */\n      0x20\n        /* \"#utility.yul\":17576:17593   */\n      add\n        /* \"#utility.yul\":17568:17574   */\n      dup6\n        /* \"#utility.yul\":17564:17594   */\n      add\n        /* \"#utility.yul\":17558:17562   */\n      dup7\n        /* \"#utility.yul\":17538:17595   */\n      tag_240\n      jump\t// in\n    tag_304:\n        /* \"#utility.yul\":17611:17614   */\n      dup3\n        /* \"#utility.yul\":17604:17614   */\n      swap6\n      pop\n        /* \"#utility.yul\":16952:17620   */\n      pop\n      pop\n      pop\n      pop\n      pop\n        /* \"#utility.yul\":16909:17620   */\n    tag_298:\n      swap1\n      jump\t// out\n        /* \"#utility.yul\":17626:17748   */\n    tag_115:\n        /* \"#utility.yul\":17699:17723   */\n      tag_306\n        /* \"#utility.yul\":17717:17722   */\n      dup2\n        /* \"#utility.yul\":17699:17723   */\n      tag_158\n      jump\t// in\n    tag_306:\n        /* \"#utility.yul\":17692:17697   */\n      dup2\n        /* \"#utility.yul\":17689:17724   */\n      eq\n        /* \"#utility.yul\":17679:17742   */\n      tag_307\n      jumpi\n        /* \"#utility.yul\":17738:17739   */\n      0x00\n        /* \"#utility.yul\":17735:17736   */\n      dup1\n        /* \"#utility.yul\":17728:17740   */\n      revert\n        /* \"#utility.yul\":17679:17742   */\n    tag_307:\n        /* \"#utility.yul\":17626:17748   */\n      pop\n      jump\t// out\n        /* \"#utility.yul\":17754:17874   */\n    tag_119:\n        /* \"#utility.yul\":17826:17849   */\n      tag_309\n        /* \"#utility.yul\":17843:17848   */\n      dup2\n        /* \"#utility.yul\":17826:17849   */\n      tag_259\n      jump\t// in\n    tag_309:\n        /* \"#utility.yul\":17819:17824   */\n      dup2\n        /* \"#utility.yul\":17816:17850   */\n      eq\n        /* \"#utility.yul\":17806:17868   */\n      tag_310\n      jumpi\n        /* \"#utility.yul\":17864:17865   */\n      0x00\n        /* \"#utility.yul\":17861:17862   */\n      dup1\n        /* \"#utility.yul\":17854:17866   */\n      revert\n        /* \"#utility.yul\":17806:17868   */\n    tag_310:\n        /* \"#utility.yul\":17754:17874   */\n      pop\n      jump\t// out\n        /* \"#utility.yul\":17880:18002   */\n    tag_129:\n        /* \"#utility.yul\":17953:17977   */\n      tag_312\n        /* \"#utility.yul\":17971:17976   */\n      dup2\n        /* \"#utility.yul\":17953:17977   */\n      tag_210\n      jump\t// in\n    tag_312:\n        /* \"#utility.yul\":17946:17951   */\n      dup2\n        /* \"#utility.yul\":17943:17978   */\n      eq\n        /* \"#utility.yul\":17933:17996   */\n      tag_313\n      jumpi\n        /* \"#utility.yul\":17992:17993   */\n      0x00\n        /* \"#utility.yul\":17989:17990   */\n      dup1\n        /* \"#utility.yul\":17982:17994   */\n      revert\n        /* \"#utility.yul\":17933:17996   */\n    tag_313:\n        /* \"#utility.yul\":17880:18002   */\n      pop\n      jump\t// out\n\n    auxdata: 0xa2646970667358221220145c2aecfe763e9e87047efa7b52e61dd0dc052951d7662c2dc6f5be729868f264736f6c63430008070033\n}\n",
				"bytecode": {
					"linkReferences": {},
					"object": "60806040523480156200001157600080fd5b50604051620015f5380380620015f5833981810160405281019062000037919062000199565b62000048816200004f60201b60201c565b506200036e565b8060029080519060200190620000679291906200006b565b5050565b82805462000079906200027f565b90600052602060002090601f0160209004810192826200009d5760008555620000e9565b82601f10620000b857805160ff1916838001178555620000e9565b82800160010185558215620000e9579182015b82811115620000e8578251825591602001919060010190620000cb565b5b509050620000f89190620000fc565b5090565b5b8082111562000117576000816000905550600101620000fd565b5090565b6000620001326200012c8462000213565b620001ea565b9050828152602081018484840111156200015157620001506200034e565b5b6200015e84828562000249565b509392505050565b600082601f8301126200017e576200017d62000349565b5b8151620001908482602086016200011b565b91505092915050565b600060208284031215620001b257620001b162000358565b5b600082015167ffffffffffffffff811115620001d357620001d262000353565b5b620001e18482850162000166565b91505092915050565b6000620001f662000209565b9050620002048282620002b5565b919050565b6000604051905090565b600067ffffffffffffffff8211156200023157620002306200031a565b5b6200023c826200035d565b9050602081019050919050565b60005b83811015620002695780820151818401526020810190506200024c565b8381111562000279576000848401525b50505050565b600060028204905060018216806200029857607f821691505b60208210811415620002af57620002ae620002eb565b5b50919050565b620002c0826200035d565b810181811067ffffffffffffffff82111715620002e257620002e16200031a565b5b80604052505050565b7f4e487b7100000000000000000000000000000000000000000000000000000000600052602260045260246000fd5b7f4e487b7100000000000000000000000000000000000000000000000000000000600052604160045260246000fd5b600080fd5b600080fd5b600080fd5b600080fd5b6000601f19601f8301169050919050565b611277806200037e6000396000f3fe608060405234801561001057600080fd5b50600436106100405760003560e01c8062fdd58e146100455780630e89341c14610075578063f242432a146100a5575b600080fd5b61005f600480360381019061005a919061090f565b6100c1565b60405161006c9190610c47565b60405180910390f35b61008f600480360381019061008a919061097c565b61018a565b60405161009c9190610b65565b60405180910390f35b6100bf60048036038101906100ba9190610878565b61021e565b005b60008073ffffffffffffffffffffffffffffffffffffffff168373ffffffffffffffffffffffffffffffffffffffff161415610132576040517f08c379a000000000000000000000000000000000000000000000000000000000815260040161012990610be7565b60405180910390fd5b60008083815260200190815260200160002060008473ffffffffffffffffffffffffffffffffffffffff1673ffffffffffffffffffffffffffffffffffffffff16815260200190815260200160002054905092915050565b60606002805461019990610e19565b80601f01602080910402602001604051908101604052809291908181526020018280546101c590610e19565b80156102125780601f106101e757610100808354040283529160200191610212565b820191906000526020600020905b8154815290600101906020018083116101f557829003601f168201915b50505050509050919050565b6102266102a7565b73ffffffffffffffffffffffffffffffffffffffff168573ffffffffffffffffffffffffffffffffffffffff1614610293576040517f08c379a000000000000000000000000000000000000000000000000000000000815260040161028a90610ba7565b60405180910390fd5b6102a085858585856102af565b5050505050565b600033905090565b600073ffffffffffffffffffffffffffffffffffffffff168473ffffffffffffffffffffffffffffffffffffffff16141561031f576040517f08c379a000000000000000000000000000000000000000000000000000000000815260040161031690610c07565b60405180910390fd5b60006103296102a7565b905060006103368561054b565b905060006103438561054b565b90506103538389898585896105c5565b600080600088815260200190815260200160002060008a73ffffffffffffffffffffffffffffffffffffffff1673ffffffffffffffffffffffffffffffffffffffff168152602001908152602001600020549050858110156103ea576040517f08c379a00000000000000000000000000000000000000000000000000000000081526004016103e190610c27565b60405180910390fd5b85810360008089815260200190815260200160002060008b73ffffffffffffffffffffffffffffffffffffffff1673ffffffffffffffffffffffffffffffffffffffff168152602001908152602001600020819055508560008089815260200190815260200160002060008a73ffffffffffffffffffffffffffffffffffffffff1673ffffffffffffffffffffffffffffffffffffffff168152602001908152602001600020600082825461049f9190610d19565b925050819055508773ffffffffffffffffffffffffffffffffffffffff168973ffffffffffffffffffffffffffffffffffffffff168573ffffffffffffffffffffffffffffffffffffffff167fc3d58168c5ae7397731d063d5bbf3d657854427343f4c083240f7aacaa2d0f628a8a60405161051c929190610c62565b60405180910390a4610532848a8a86868a6105cd565b610540848a8a8a8a8a6105d5565b505050505050505050565b60606000600167ffffffffffffffff81111561056a57610569610f09565b5b6040519080825280602002602001820160405280156105985781602001602082028036833780820191505090505b50905082816000815181106105b0576105af610eda565b5b60200260200101818152505080915050919050565b505050505050565b505050505050565b6105de846107a6565b1561079e578373ffffffffffffffffffffffffffffffffffffffff1663f23a6e6187878686866040518663ffffffff1660e01b8152600401610624959493929190610b0b565b602060405180830381600087803b15801561063e57600080fd5b505af192505050801561066f57506040513d601f19601f8201168201806040525081019061066c919061094f565b60015b6107155761067b610f38565b806308c379a014156106d85750610690611166565b8061069b57506106da565b806040517f08c379a00000000000000000000000000000000000000000000000000000000081526004016106cf9190610b65565b60405180910390fd5b505b6040517f08c379a000000000000000000000000000000000000000000000000000000000815260040161070c90610b87565b60405180910390fd5b63f23a6e6160e01b7bffffffffffffffffffffffffffffffffffffffffffffffffffffffff1916817bffffffffffffffffffffffffffffffffffffffffffffffffffffffff19161461079c576040517f08c379a000000000000000000000000000000000000000000000000000000000815260040161079390610bc7565b60405180910390fd5b505b505050505050565b6000808273ffffffffffffffffffffffffffffffffffffffff163b119050919050565b60006107dc6107d784610cb0565b610c8b565b9050828152602081018484840111156107f8576107f7610f5f565b5b610803848285610dd7565b509392505050565b60008135905061081a816111fc565b92915050565b60008151905061082f81611213565b92915050565b600082601f83011261084a57610849610f5a565b5b813561085a8482602086016107c9565b91505092915050565b6000813590506108728161122a565b92915050565b600080600080600060a0868803121561089457610893610f69565b5b60006108a28882890161080b565b95505060206108b38882890161080b565b94505060406108c488828901610863565b93505060606108d588828901610863565b925050608086013567ffffffffffffffff8111156108f6576108f5610f64565b5b61090288828901610835565b9150509295509295909350565b6000806040838503121561092657610925610f69565b5b60006109348582860161080b565b925050602061094585828601610863565b9150509250929050565b60006020828403121561096557610964610f69565b5b600061097384828501610820565b91505092915050565b60006020828403121561099257610991610f69565b5b60006109a084828501610863565b91505092915050565b6109b281610d6f565b82525050565b60006109c382610ce1565b6109cd8185610cf7565b93506109dd818560208601610de6565b6109e681610f6e565b840191505092915050565b60006109fc82610cec565b610a068185610d08565b9350610a16818560208601610de6565b610a1f81610f6e565b840191505092915050565b6000610a37603483610d08565b9150610a4282610f8c565b604082019050919050565b6000610a5a602f83610d08565b9150610a6582610fdb565b604082019050919050565b6000610a7d602883610d08565b9150610a888261102a565b604082019050919050565b6000610aa0602a83610d08565b9150610aab82611079565b604082019050919050565b6000610ac3602583610d08565b9150610ace826110c8565b604082019050919050565b6000610ae6602a83610d08565b9150610af182611117565b604082019050919050565b610b0581610dcd565b82525050565b600060a082019050610b2060008301886109a9565b610b2d60208301876109a9565b610b3a6040830186610afc565b610b476060830185610afc565b8181036080830152610b5981846109b8565b90509695505050505050565b60006020820190508181036000830152610b7f81846109f1565b905092915050565b60006020820190508181036000830152610ba081610a2a565b9050919050565b60006020820190508181036000830152610bc081610a4d565b9050919050565b60006020820190508181036000830152610be081610a70565b9050919050565b60006020820190508181036000830152610c0081610a93565b9050919050565b60006020820190508181036000830152610c2081610ab6565b9050919050565b60006020820190508181036000830152610c4081610ad9565b9050919050565b6000602082019050610c5c6000830184610afc565b92915050565b6000604082019050610c776000830185610afc565b610c846020830184610afc565b9392505050565b6000610c95610ca6565b9050610ca18282610e4b565b919050565b6000604051905090565b600067ffffffffffffffff821115610ccb57610cca610f09565b5b610cd482610f6e565b9050602081019050919050565b600081519050919050565b600081519050919050565b600082825260208201905092915050565b600082825260208201905092915050565b6000610d2482610dcd565b9150610d2f83610dcd565b9250827fffffffffffffffffffffffffffffffffffffffffffffffffffffffffffffffff03821115610d6457610d63610e7c565b5b828201905092915050565b6000610d7a82610dad565b9050919050565b60007fffffffff0000000000000000000000000000000000000000000000000000000082169050919050565b600073ffffffffffffffffffffffffffffffffffffffff82169050919050565b6000819050919050565b82818337600083830152505050565b60005b83811015610e04578082015181840152602081019050610de9565b83811115610e13576000848401525b50505050565b60006002820490506001821680610e3157607f821691505b60208210811415610e4557610e44610eab565b5b50919050565b610e5482610f6e565b810181811067ffffffffffffffff82111715610e7357610e72610f09565b5b80604052505050565b7f4e487b7100000000000000000000000000000000000000000000000000000000600052601160045260246000fd5b7f4e487b7100000000000000000000000000000000000000000000000000000000600052602260045260246000fd5b7f4e487b7100000000000000000000000000000000000000000000000000000000600052603260045260246000fd5b7f4e487b7100000000000000000000000000000000000000000000000000000000600052604160045260246000fd5b600060033d1115610f575760046000803e610f54600051610f7f565b90505b90565b600080fd5b600080fd5b600080fd5b600080fd5b6000601f19601f8301169050919050565b60008160e01c9050919050565b7f455243313135353a207472616e7366657220746f206e6f6e204552433131353560008201527f526563656976657220696d706c656d656e746572000000000000000000000000602082015250565b7f455243313135353a2063616c6c6572206973206e6f7420746f6b656e206f776e60008201527f6572206e6f7220617070726f7665640000000000000000000000000000000000602082015250565b7f455243313135353a204552433131353552656365697665722072656a6563746560008201527f6420746f6b656e73000000000000000000000000000000000000000000000000602082015250565b7f455243313135353a2061646472657373207a65726f206973206e6f742061207660008201527f616c6964206f776e657200000000000000000000000000000000000000000000602082015250565b7f455243313135353a207472616e7366657220746f20746865207a65726f20616460008201527f6472657373000000000000000000000000000000000000000000000000000000602082015250565b7f455243313135353a20696e73756666696369656e742062616c616e636520666f60008201527f72207472616e7366657200000000000000000000000000000000000000000000602082015250565b600060443d1015611176576111f9565b61117e610ca6565b60043d036004823e80513d602482011167ffffffffffffffff821117156111a65750506111f9565b808201805167ffffffffffffffff8111156111c457505050506111f9565b80602083010160043d0385018111156111e15750505050506111f9565b6111f082602001850186610e4b565b82955050505050505b90565b61120581610d6f565b811461121057600080fd5b50565b61121c81610d81565b811461122757600080fd5b50565b61123381610dcd565b811461123e57600080fd5b5056fea2646970667358221220145c2aecfe763e9e87047efa7b52e61dd0dc052951d7662c2dc6f5be729868f264736f6c63430008070033",
					"opcodes": "PUSH1 0x80 PUSH1 0x40 MSTORE CALLVALUE DUP1 ISZERO PUSH3 0x11 JUMPI PUSH1 0x0 DUP1 REVERT JUMPDEST POP PUSH1 0x40 MLOAD PUSH3 0x15F5 CODESIZE SUB DUP1 PUSH3 0x15F5 DUP4 CODECOPY DUP2 DUP2 ADD PUSH1 0x40 MSTORE DUP2 ADD SWAP1 PUSH3 0x37 SWAP2 SWAP1 PUSH3 0x199 JUMP JUMPDEST PUSH3 0x48 DUP2 PUSH3 0x4F PUSH1 0x20 SHL PUSH1 0x20 SHR JUMP JUMPDEST POP PUSH3 0x36E JUMP JUMPDEST DUP1 PUSH1 0x2 SWAP1 DUP1 MLOAD SWAP1 PUSH1 0x20 ADD SWAP1 PUSH3 0x67 SWAP3 SWAP2 SWAP1 PUSH3 0x6B JUMP JUMPDEST POP POP JUMP JUMPDEST DUP3 DUP1 SLOAD PUSH3 0x79 SWAP1 PUSH3 0x27F JUMP JUMPDEST SWAP1 PUSH1 0x0 MSTORE PUSH1 0x20 PUSH1 0x0 KECCAK256 SWAP1 PUSH1 0x1F ADD PUSH1 0x20 SWAP1 DIV DUP2 ADD SWAP3 DUP3 PUSH3 0x9D JUMPI PUSH1 0x0 DUP6 SSTORE PUSH3 0xE9 JUMP JUMPDEST DUP3 PUSH1 0x1F LT PUSH3 0xB8 JUMPI DUP1 MLOAD PUSH1 0xFF NOT AND DUP4 DUP1 ADD OR DUP6 SSTORE PUSH3 0xE9 JUMP JUMPDEST DUP3 DUP1 ADD PUSH1 0x1 ADD DUP6 SSTORE DUP3 ISZERO PUSH3 0xE9 JUMPI SWAP2 DUP3 ADD JUMPDEST DUP3 DUP2 GT ISZERO PUSH3 0xE8 JUMPI DUP3 MLOAD DUP3 SSTORE SWAP2 PUSH1 0x20 ADD SWAP2 SWAP1 PUSH1 0x1 ADD SWAP1 PUSH3 0xCB JUMP JUMPDEST JUMPDEST POP SWAP1 POP PUSH3 0xF8 SWAP2 SWAP1 PUSH3 0xFC JUMP JUMPDEST POP SWAP1 JUMP JUMPDEST JUMPDEST DUP1 DUP3 GT ISZERO PUSH3 0x117 JUMPI PUSH1 0x0 DUP2 PUSH1 0x0 SWAP1 SSTORE POP PUSH1 0x1 ADD PUSH3 0xFD JUMP JUMPDEST POP SWAP1 JUMP JUMPDEST PUSH1 0x0 PUSH3 0x132 PUSH3 0x12C DUP5 PUSH3 0x213 JUMP JUMPDEST PUSH3 0x1EA JUMP JUMPDEST SWAP1 POP DUP3 DUP2 MSTORE PUSH1 0x20 DUP2 ADD DUP5 DUP5 DUP5 ADD GT ISZERO PUSH3 0x151 JUMPI PUSH3 0x150 PUSH3 0x34E JUMP JUMPDEST JUMPDEST PUSH3 0x15E DUP5 DUP3 DUP6 PUSH3 0x249 JUMP JUMPDEST POP SWAP4 SWAP3 POP POP POP JUMP JUMPDEST PUSH1 0x0 DUP3 PUSH1 0x1F DUP4 ADD SLT PUSH3 0x17E JUMPI PUSH3 0x17D PUSH3 0x349 JUMP JUMPDEST JUMPDEST DUP2 MLOAD PUSH3 0x190 DUP5 DUP3 PUSH1 0x20 DUP7 ADD PUSH3 0x11B JUMP JUMPDEST SWAP2 POP POP SWAP3 SWAP2 POP POP JUMP JUMPDEST PUSH1 0x0 PUSH1 0x20 DUP3 DUP5 SUB SLT ISZERO PUSH3 0x1B2 JUMPI PUSH3 0x1B1 PUSH3 0x358 JUMP JUMPDEST JUMPDEST PUSH1 0x0 DUP3 ADD MLOAD PUSH8 0xFFFFFFFFFFFFFFFF DUP2 GT ISZERO PUSH3 0x1D3 JUMPI PUSH3 0x1D2 PUSH3 0x353 JUMP JUMPDEST JUMPDEST PUSH3 0x1E1 DUP5 DUP3 DUP6 ADD PUSH3 0x166 JUMP JUMPDEST SWAP2 POP POP SWAP3 SWAP2 POP POP JUMP JUMPDEST PUSH1 0x0 PUSH3 0x1F6 PUSH3 0x209 JUMP JUMPDEST SWAP1 POP PUSH3 0x204 DUP3 DUP3 PUSH3 0x2B5 JUMP JUMPDEST SWAP2 SWAP1 POP JUMP JUMPDEST PUSH1 0x0 PUSH1 0x40 MLOAD SWAP1 POP SWAP1 JUMP JUMPDEST PUSH1 0x0 PUSH8 0xFFFFFFFFFFFFFFFF DUP3 GT ISZERO PUSH3 0x231 JUMPI PUSH3 0x230 PUSH3 0x31A JUMP JUMPDEST JUMPDEST PUSH3 0x23C DUP3 PUSH3 0x35D JUMP JUMPDEST SWAP1 POP PUSH1 0x20 DUP2 ADD SWAP1 POP SWAP2 SWAP1 POP JUMP JUMPDEST PUSH1 0x0 JUMPDEST DUP4 DUP2 LT ISZERO PUSH3 0x269 JUMPI DUP1 DUP3 ADD MLOAD DUP2 DUP5 ADD MSTORE PUSH1 0x20 DUP2 ADD SWAP1 POP PUSH3 0x24C JUMP JUMPDEST DUP4 DUP2 GT ISZERO PUSH3 0x279 JUMPI PUSH1 0x0 DUP5 DUP5 ADD MSTORE JUMPDEST POP POP POP POP JUMP JUMPDEST PUSH1 0x0 PUSH1 0x2 DUP3 DIV SWAP1 POP PUSH1 0x1 DUP3 AND DUP1 PUSH3 0x298 JUMPI PUSH1 0x7F DUP3 AND SWAP2 POP JUMPDEST PUSH1 0x20 DUP3 LT DUP2 EQ ISZERO PUSH3 0x2AF JUMPI PUSH3 0x2AE PUSH3 0x2EB JUMP JUMPDEST JUMPDEST POP SWAP2 SWAP1 POP JUMP JUMPDEST PUSH3 0x2C0 DUP3 PUSH3 0x35D JUMP JUMPDEST DUP2 ADD DUP2 DUP2 LT PUSH8 0xFFFFFFFFFFFFFFFF DUP3 GT OR ISZERO PUSH3 0x2E2 JUMPI PUSH3 0x2E1 PUSH3 0x31A JUMP JUMPDEST JUMPDEST DUP1 PUSH1 0x40 MSTORE POP POP POP JUMP JUMPDEST PUSH32 0x4E487B7100000000000000000000000000000000000000000000000000000000 PUSH1 0x0 MSTORE PUSH1 0x22 PUSH1 0x4 MSTORE PUSH1 0x24 PUSH1 0x0 REVERT JUMPDEST PUSH32 0x4E487B7100000000000000000000000000000000000000000000000000000000 PUSH1 0x0 MSTORE PUSH1 0x41 PUSH1 0x4 MSTORE PUSH1 0x24 PUSH1 0x0 REVERT JUMPDEST PUSH1 0x0 DUP1 REVERT JUMPDEST PUSH1 0x0 DUP1 REVERT JUMPDEST PUSH1 0x0 DUP1 REVERT JUMPDEST PUSH1 0x0 DUP1 REVERT JUMPDEST PUSH1 0x0 PUSH1 0x1F NOT PUSH1 0x1F DUP4 ADD AND SWAP1 POP SWAP2 SWAP1 POP JUMP JUMPDEST PUSH2 0x1277 DUP1 PUSH3 0x37E PUSH1 0x0 CODECOPY PUSH1 0x0 RETURN INVALID PUSH1 0x80 PUSH1 0x40 MSTORE CALLVALUE DUP1 ISZERO PUSH2 0x10 JUMPI PUSH1 0x0 DUP1 REVERT JUMPDEST POP PUSH1 0x4 CALLDATASIZE LT PUSH2 0x40 JUMPI PUSH1 0x0 CALLDATALOAD PUSH1 0xE0 SHR DUP1 PUSH3 0xFDD58E EQ PUSH2 0x45 JUMPI DUP1 PUSH4 0xE89341C EQ PUSH2 0x75 JUMPI DUP1 PUSH4 0xF242432A EQ PUSH2 0xA5 JUMPI JUMPDEST PUSH1 0x0 DUP1 REVERT JUMPDEST PUSH2 0x5F PUSH1 0x4 DUP1 CALLDATASIZE SUB DUP2 ADD SWAP1 PUSH2 0x5A SWAP2 SWAP1 PUSH2 0x90F JUMP JUMPDEST PUSH2 0xC1 JUMP JUMPDEST PUSH1 0x40 MLOAD PUSH2 0x6C SWAP2 SWAP1 PUSH2 0xC47 JUMP JUMPDEST PUSH1 0x40 MLOAD DUP1 SWAP2 SUB SWAP1 RETURN JUMPDEST PUSH2 0x8F PUSH1 0x4 DUP1 CALLDATASIZE SUB DUP2 ADD SWAP1 PUSH2 0x8A SWAP2 SWAP1 PUSH2 0x97C JUMP JUMPDEST PUSH2 0x18A JUMP JUMPDEST PUSH1 0x40 MLOAD PUSH2 0x9C SWAP2 SWAP1 PUSH2 0xB65 JUMP JUMPDEST PUSH1 0x40 MLOAD DUP1 SWAP2 SUB SWAP1 RETURN JUMPDEST PUSH2 0xBF PUSH1 0x4 DUP1 CALLDATASIZE SUB DUP2 ADD SWAP1 PUSH2 0xBA SWAP2 SWAP1 PUSH2 0x878 JUMP JUMPDEST PUSH2 0x21E JUMP JUMPDEST STOP JUMPDEST PUSH1 0x0 DUP1 PUSH20 0xFFFFFFFFFFFFFFFFFFFFFFFFFFFFFFFFFFFFFFFF AND DUP4 PUSH20 0xFFFFFFFFFFFFFFFFFFFFFFFFFFFFFFFFFFFFFFFF AND EQ ISZERO PUSH2 0x132 JUMPI PUSH1 0x40 MLOAD PUSH32 0x8C379A000000000000000000000000000000000000000000000000000000000 DUP2 MSTORE PUSH1 0x4 ADD PUSH2 0x129 SWAP1 PUSH2 0xBE7 JUMP JUMPDEST PUSH1 0x40 MLOAD DUP1 SWAP2 SUB SWAP1 REVERT JUMPDEST PUSH1 0x0 DUP1 DUP4 DUP2 MSTORE PUSH1 0x20 ADD SWAP1 DUP2 MSTORE PUSH1 0x20 ADD PUSH1 0x0 KECCAK256 PUSH1 0x0 DUP5 PUSH20 0xFFFFFFFFFFFFFFFFFFFFFFFFFFFFFFFFFFFFFFFF AND PUSH20 0xFFFFFFFFFFFFFFFFFFFFFFFFFFFFFFFFFFFFFFFF AND DUP2 MSTORE PUSH1 0x20 ADD SWAP1 DUP2 MSTORE PUSH1 0x20 ADD PUSH1 0x0 KECCAK256 SLOAD SWAP1 POP SWAP3 SWAP2 POP POP JUMP JUMPDEST PUSH1 0x60 PUSH1 0x2 DUP1 SLOAD PUSH2 0x199 SWAP1 PUSH2 0xE19 JUMP JUMPDEST DUP1 PUSH1 0x1F ADD PUSH1 0x20 DUP1 SWAP2 DIV MUL PUSH1 0x20 ADD PUSH1 0x40 MLOAD SWAP1 DUP2 ADD PUSH1 0x40 MSTORE DUP1 SWAP3 SWAP2 SWAP1 DUP2 DUP2 MSTORE PUSH1 0x20 ADD DUP3 DUP1 SLOAD PUSH2 0x1C5 SWAP1 PUSH2 0xE19 JUMP JUMPDEST DUP1 ISZERO PUSH2 0x212 JUMPI DUP1 PUSH1 0x1F LT PUSH2 0x1E7 JUMPI PUSH2 0x100 DUP1 DUP4 SLOAD DIV MUL DUP4 MSTORE SWAP2 PUSH1 0x20 ADD SWAP2 PUSH2 0x212 JUMP JUMPDEST DUP3 ADD SWAP2 SWAP1 PUSH1 0x0 MSTORE PUSH1 0x20 PUSH1 0x0 KECCAK256 SWAP1 JUMPDEST DUP2 SLOAD DUP2 MSTORE SWAP1 PUSH1 0x1 ADD SWAP1 PUSH1 0x20 ADD DUP1 DUP4 GT PUSH2 0x1F5 JUMPI DUP3 SWAP1 SUB PUSH1 0x1F AND DUP3 ADD SWAP2 JUMPDEST POP POP POP POP POP SWAP1 POP SWAP2 SWAP1 POP JUMP JUMPDEST PUSH2 0x226 PUSH2 0x2A7 JUMP JUMPDEST PUSH20 0xFFFFFFFFFFFFFFFFFFFFFFFFFFFFFFFFFFFFFFFF AND DUP6 PUSH20 0xFFFFFFFFFFFFFFFFFFFFFFFFFFFFFFFFFFFFFFFF AND EQ PUSH2 0x293 JUMPI PUSH1 0x40 MLOAD PUSH32 0x8C379A000000000000000000000000000000000000000000000000000000000 DUP2 MSTORE PUSH1 0x4 ADD PUSH2 0x28A SWAP1 PUSH2 0xBA7 JUMP JUMPDEST PUSH1 0x40 MLOAD DUP1 SWAP2 SUB SWAP1 REVERT JUMPDEST PUSH2 0x2A0 DUP6 DUP6 DUP6 DUP6 DUP6 PUSH2 0x2AF JUMP JUMPDEST POP POP POP POP POP JUMP JUMPDEST PUSH1 0x0 CALLER SWAP1 POP SWAP1 JUMP JUMPDEST PUSH1 0x0 PUSH20 0xFFFFFFFFFFFFFFFFFFFFFFFFFFFFFFFFFFFFFFFF AND DUP5 PUSH20 0xFFFFFFFFFFFFFFFFFFFFFFFFFFFFFFFFFFFFFFFF AND EQ ISZERO PUSH2 0x31F JUMPI PUSH1 0x40 MLOAD PUSH32 0x8C379A000000000000000000000000000000000000000000000000000000000 DUP2 MSTORE PUSH1 0x4 ADD PUSH2 0x316 SWAP1 PUSH2 0xC07 JUMP JUMPDEST PUSH1 0x40 MLOAD DUP1 SWAP2 SUB SWAP1 REVERT JUMPDEST PUSH1 0x0 PUSH2 0x329 PUSH2 0x2A7 JUMP JUMPDEST SWAP1 POP PUSH1 0x0 PUSH2 0x336 DUP6 PUSH2 0x54B JUMP JUMPDEST SWAP1 POP PUSH1 0x0 PUSH2 0x343 DUP6 PUSH2 0x54B JUMP JUMPDEST SWAP1 POP PUSH2 0x353 DUP4 DUP10 DUP10 DUP6 DUP6 DUP10 PUSH2 0x5C5 JUMP JUMPDEST PUSH1 0x0 DUP1 PUSH1 0x0 DUP9 DUP2 MSTORE PUSH1 0x20 ADD SWAP1 DUP2 MSTORE PUSH1 0x20 ADD PUSH1 0x0 KECCAK256 PUSH1 0x0 DUP11 PUSH20 0xFFFFFFFFFFFFFFFFFFFFFFFFFFFFFFFFFFFFFFFF AND PUSH20 0xFFFFFFFFFFFFFFFFFFFFFFFFFFFFFFFFFFFFFFFF AND DUP2 MSTORE PUSH1 0x20 ADD SWAP1 DUP2 MSTORE PUSH1 0x20 ADD PUSH1 0x0 KECCAK256 SLOAD SWAP1 POP DUP6 DUP2 LT ISZERO PUSH2 0x3EA JUMPI PUSH1 0x40 MLOAD PUSH32 0x8C379A000000000000000000000000000000000000000000000000000000000 DUP2 MSTORE PUSH1 0x4 ADD PUSH2 0x3E1 SWAP1 PUSH2 0xC27 JUMP JUMPDEST PUSH1 0x40 MLOAD DUP1 SWAP2 SUB SWAP1 REVERT JUMPDEST DUP6 DUP2 SUB PUSH1 0x0 DUP1 DUP10 DUP2 MSTORE PUSH1 0x20 ADD SWAP1 DUP2 MSTORE PUSH1 0x20 ADD PUSH1 0x0 KECCAK256 PUSH1 0x0 DUP12 PUSH20 0xFFFFFFFFFFFFFFFFFFFFFFFFFFFFFFFFFFFFFFFF AND PUSH20 0xFFFFFFFFFFFFFFFFFFFFFFFFFFFFFFFFFFFFFFFF AND DUP2 MSTORE PUSH1 0x20 ADD SWAP1 DUP2 MSTORE PUSH1 0x20 ADD PUSH1 0x0 KECCAK256 DUP2 SWAP1 SSTORE POP DUP6 PUSH1 0x0 DUP1 DUP10 DUP2 MSTORE PUSH1 0x20 ADD SWAP1 DUP2 MSTORE PUSH1 0x20 ADD PUSH1 0x0 KECCAK256 PUSH1 0x0 DUP11 PUSH20 0xFFFFFFFFFFFFFFFFFFFFFFFFFFFFFFFFFFFFFFFF AND PUSH20 0xFFFFFFFFFFFFFFFFFFFFFFFFFFFFFFFFFFFFFFFF AND DUP2 MSTORE PUSH1 0x20 ADD SWAP1 DUP2 MSTORE PUSH1 0x20 ADD PUSH1 0x0 KECCAK256 PUSH1 0x0 DUP3 DUP3 SLOAD PUSH2 0x49F SWAP2 SWAP1 PUSH2 0xD19 JUMP JUMPDEST SWAP3 POP POP DUP2 SWAP1 SSTORE POP DUP8 PUSH20 0xFFFFFFFFFFFFFFFFFFFFFFFFFFFFFFFFFFFFFFFF AND DUP10 PUSH20 0xFFFFFFFFFFFFFFFFFFFFFFFFFFFFFFFFFFFFFFFF AND DUP6 PUSH20 0xFFFFFFFFFFFFFFFFFFFFFFFFFFFFFFFFFFFFFFFF AND PUSH32 0xC3D58168C5AE7397731D063D5BBF3D657854427343F4C083240F7AACAA2D0F62 DUP11 DUP11 PUSH1 0x40 MLOAD PUSH2 0x51C SWAP3 SWAP2 SWAP1 PUSH2 0xC62 JUMP JUMPDEST PUSH1 0x40 MLOAD DUP1 SWAP2 SUB SWAP1 LOG4 PUSH2 0x532 DUP5 DUP11 DUP11 DUP7 DUP7 DUP11 PUSH2 0x5CD JUMP JUMPDEST PUSH2 0x540 DUP5 DUP11 DUP11 DUP11 DUP11 DUP11 PUSH2 0x5D5 JUMP JUMPDEST POP POP POP POP POP POP POP POP POP JUMP JUMPDEST PUSH1 0x60 PUSH1 0x0 PUSH1 0x1 PUSH8 0xFFFFFFFFFFFFFFFF DUP2 GT ISZERO PUSH2 0x56A JUMPI PUSH2 0x569 PUSH2 0xF09 JUMP JUMPDEST JUMPDEST PUSH1 0x40 MLOAD SWAP1 DUP1 DUP3 MSTORE DUP1 PUSH1 0x20 MUL PUSH1 0x20 ADD DUP3 ADD PUSH1 0x40 MSTORE DUP1 ISZERO PUSH2 0x598 JUMPI DUP2 PUSH1 0x20 ADD PUSH1 0x20 DUP3 MUL DUP1 CALLDATASIZE DUP4 CALLDATACOPY DUP1 DUP3 ADD SWAP2 POP POP SWAP1 POP JUMPDEST POP SWAP1 POP DUP3 DUP2 PUSH1 0x0 DUP2 MLOAD DUP2 LT PUSH2 0x5B0 JUMPI PUSH2 0x5AF PUSH2 0xEDA JUMP JUMPDEST JUMPDEST PUSH1 0x20 MUL PUSH1 0x20 ADD ADD DUP2 DUP2 MSTORE POP POP DUP1 SWAP2 POP POP SWAP2 SWAP1 POP JUMP JUMPDEST POP POP POP POP POP POP JUMP JUMPDEST POP POP POP POP POP POP JUMP JUMPDEST PUSH2 0x5DE DUP5 PUSH2 0x7A6 JUMP JUMPDEST ISZERO PUSH2 0x79E JUMPI DUP4 PUSH20 0xFFFFFFFFFFFFFFFFFFFFFFFFFFFFFFFFFFFFFFFF AND PUSH4 0xF23A6E61 DUP8 DUP8 DUP7 DUP7 DUP7 PUSH1 0x40 MLOAD DUP7 PUSH4 0xFFFFFFFF AND PUSH1 0xE0 SHL DUP2 MSTORE PUSH1 0x4 ADD PUSH2 0x624 SWAP6 SWAP5 SWAP4 SWAP3 SWAP2 SWAP1 PUSH2 0xB0B JUMP JUMPDEST PUSH1 0x20 PUSH1 0x40 MLOAD DUP1 DUP4 SUB DUP2 PUSH1 0x0 DUP8 DUP1 EXTCODESIZE ISZERO DUP1 ISZERO PUSH2 0x63E JUMPI PUSH1 0x0 DUP1 REVERT JUMPDEST POP GAS CALL SWAP3 POP POP POP DUP1 ISZERO PUSH2 0x66F JUMPI POP PUSH1 0x40 MLOAD RETURNDATASIZE PUSH1 0x1F NOT PUSH1 0x1F DUP3 ADD AND DUP3 ADD DUP1 PUSH1 0x40 MSTORE POP DUP2 ADD SWAP1 PUSH2 0x66C SWAP2 SWAP1 PUSH2 0x94F JUMP JUMPDEST PUSH1 0x1 JUMPDEST PUSH2 0x715 JUMPI PUSH2 0x67B PUSH2 0xF38 JUMP JUMPDEST DUP1 PUSH4 0x8C379A0 EQ ISZERO PUSH2 0x6D8 JUMPI POP PUSH2 0x690 PUSH2 0x1166 JUMP JUMPDEST DUP1 PUSH2 0x69B JUMPI POP PUSH2 0x6DA JUMP JUMPDEST DUP1 PUSH1 0x40 MLOAD PUSH32 0x8C379A000000000000000000000000000000000000000000000000000000000 DUP2 MSTORE PUSH1 0x4 ADD PUSH2 0x6CF SWAP2 SWAP1 PUSH2 0xB65 JUMP JUMPDEST PUSH1 0x40 MLOAD DUP1 SWAP2 SUB SWAP1 REVERT JUMPDEST POP JUMPDEST PUSH1 0x40 MLOAD PUSH32 0x8C379A000000000000000000000000000000000000000000000000000000000 DUP2 MSTORE PUSH1 0x4 ADD PUSH2 0x70C SWAP1 PUSH2 0xB87 JUMP JUMPDEST PUSH1 0x40 MLOAD DUP1 SWAP2 SUB SWAP1 REVERT JUMPDEST PUSH4 0xF23A6E61 PUSH1 0xE0 SHL PUSH28 0xFFFFFFFFFFFFFFFFFFFFFFFFFFFFFFFFFFFFFFFFFFFFFFFFFFFFFFFF NOT AND DUP2 PUSH28 0xFFFFFFFFFFFFFFFFFFFFFFFFFFFFFFFFFFFFFFFFFFFFFFFFFFFFFFFF NOT AND EQ PUSH2 0x79C JUMPI PUSH1 0x40 MLOAD PUSH32 0x8C379A000000000000000000000000000000000000000000000000000000000 DUP2 MSTORE PUSH1 0x4 ADD PUSH2 0x793 SWAP1 PUSH2 0xBC7 JUMP JUMPDEST PUSH1 0x40 MLOAD DUP1 SWAP2 SUB SWAP1 REVERT JUMPDEST POP JUMPDEST POP POP POP POP POP POP JUMP JUMPDEST PUSH1 0x0 DUP1 DUP3 PUSH20 0xFFFFFFFFFFFFFFFFFFFFFFFFFFFFFFFFFFFFFFFF AND EXTCODESIZE GT SWAP1 POP SWAP2 SWAP1 POP JUMP JUMPDEST PUSH1 0x0 PUSH2 0x7DC PUSH2 0x7D7 DUP5 PUSH2 0xCB0 JUMP JUMPDEST PUSH2 0xC8B JUMP JUMPDEST SWAP1 POP DUP3 DUP2 MSTORE PUSH1 0x20 DUP2 ADD DUP5 DUP5 DUP5 ADD GT ISZERO PUSH2 0x7F8 JUMPI PUSH2 0x7F7 PUSH2 0xF5F JUMP JUMPDEST JUMPDEST PUSH2 0x803 DUP5 DUP3 DUP6 PUSH2 0xDD7 JUMP JUMPDEST POP SWAP4 SWAP3 POP POP POP JUMP JUMPDEST PUSH1 0x0 DUP2 CALLDATALOAD SWAP1 POP PUSH2 0x81A DUP2 PUSH2 0x11FC JUMP JUMPDEST SWAP3 SWAP2 POP POP JUMP JUMPDEST PUSH1 0x0 DUP2 MLOAD SWAP1 POP PUSH2 0x82F DUP2 PUSH2 0x1213 JUMP JUMPDEST SWAP3 SWAP2 POP POP JUMP JUMPDEST PUSH1 0x0 DUP3 PUSH1 0x1F DUP4 ADD SLT PUSH2 0x84A JUMPI PUSH2 0x849 PUSH2 0xF5A JUMP JUMPDEST JUMPDEST DUP2 CALLDATALOAD PUSH2 0x85A DUP5 DUP3 PUSH1 0x20 DUP7 ADD PUSH2 0x7C9 JUMP JUMPDEST SWAP2 POP POP SWAP3 SWAP2 POP POP JUMP JUMPDEST PUSH1 0x0 DUP2 CALLDATALOAD SWAP1 POP PUSH2 0x872 DUP2 PUSH2 0x122A JUMP JUMPDEST SWAP3 SWAP2 POP POP JUMP JUMPDEST PUSH1 0x0 DUP1 PUSH1 0x0 DUP1 PUSH1 0x0 PUSH1 0xA0 DUP7 DUP9 SUB SLT ISZERO PUSH2 0x894 JUMPI PUSH2 0x893 PUSH2 0xF69 JUMP JUMPDEST JUMPDEST PUSH1 0x0 PUSH2 0x8A2 DUP9 DUP3 DUP10 ADD PUSH2 0x80B JUMP JUMPDEST SWAP6 POP POP PUSH1 0x20 PUSH2 0x8B3 DUP9 DUP3 DUP10 ADD PUSH2 0x80B JUMP JUMPDEST SWAP5 POP POP PUSH1 0x40 PUSH2 0x8C4 DUP9 DUP3 DUP10 ADD PUSH2 0x863 JUMP JUMPDEST SWAP4 POP POP PUSH1 0x60 PUSH2 0x8D5 DUP9 DUP3 DUP10 ADD PUSH2 0x863 JUMP JUMPDEST SWAP3 POP POP PUSH1 0x80 DUP7 ADD CALLDATALOAD PUSH8 0xFFFFFFFFFFFFFFFF DUP2 GT ISZERO PUSH2 0x8F6 JUMPI PUSH2 0x8F5 PUSH2 0xF64 JUMP JUMPDEST JUMPDEST PUSH2 0x902 DUP9 DUP3 DUP10 ADD PUSH2 0x835 JUMP JUMPDEST SWAP2 POP POP SWAP3 SWAP6 POP SWAP3 SWAP6 SWAP1 SWAP4 POP JUMP JUMPDEST PUSH1 0x0 DUP1 PUSH1 0x40 DUP4 DUP6 SUB SLT ISZERO PUSH2 0x926 JUMPI PUSH2 0x925 PUSH2 0xF69 JUMP JUMPDEST JUMPDEST PUSH1 0x0 PUSH2 0x934 DUP6 DUP3 DUP7 ADD PUSH2 0x80B JUMP JUMPDEST SWAP3 POP POP PUSH1 0x20 PUSH2 0x945 DUP6 DUP3 DUP7 ADD PUSH2 0x863 JUMP JUMPDEST SWAP2 POP POP SWAP3 POP SWAP3 SWAP1 POP JUMP JUMPDEST PUSH1 0x0 PUSH1 0x20 DUP3 DUP5 SUB SLT ISZERO PUSH2 0x965 JUMPI PUSH2 0x964 PUSH2 0xF69 JUMP JUMPDEST JUMPDEST PUSH1 0x0 PUSH2 0x973 DUP5 DUP3 DUP6 ADD PUSH2 0x820 JUMP JUMPDEST SWAP2 POP POP SWAP3 SWAP2 POP POP JUMP JUMPDEST PUSH1 0x0 PUSH1 0x20 DUP3 DUP5 SUB SLT ISZERO PUSH2 0x992 JUMPI PUSH2 0x991 PUSH2 0xF69 JUMP JUMPDEST JUMPDEST PUSH1 0x0 PUSH2 0x9A0 DUP5 DUP3 DUP6 ADD PUSH2 0x863 JUMP JUMPDEST SWAP2 POP POP SWAP3 SWAP2 POP POP JUMP JUMPDEST PUSH2 0x9B2 DUP2 PUSH2 0xD6F JUMP JUMPDEST DUP3 MSTORE POP POP JUMP JUMPDEST PUSH1 0x0 PUSH2 0x9C3 DUP3 PUSH2 0xCE1 JUMP JUMPDEST PUSH2 0x9CD DUP2 DUP6 PUSH2 0xCF7 JUMP JUMPDEST SWAP4 POP PUSH2 0x9DD DUP2 DUP6 PUSH1 0x20 DUP7 ADD PUSH2 0xDE6 JUMP JUMPDEST PUSH2 0x9E6 DUP2 PUSH2 0xF6E JUMP JUMPDEST DUP5 ADD SWAP2 POP POP SWAP3 SWAP2 POP POP JUMP JUMPDEST PUSH1 0x0 PUSH2 0x9FC DUP3 PUSH2 0xCEC JUMP JUMPDEST PUSH2 0xA06 DUP2 DUP6 PUSH2 0xD08 JUMP JUMPDEST SWAP4 POP PUSH2 0xA16 DUP2 DUP6 PUSH1 0x20 DUP7 ADD PUSH2 0xDE6 JUMP JUMPDEST PUSH2 0xA1F DUP2 PUSH2 0xF6E JUMP JUMPDEST DUP5 ADD SWAP2 POP POP SWAP3 SWAP2 POP POP JUMP JUMPDEST PUSH1 0x0 PUSH2 0xA37 PUSH1 0x34 DUP4 PUSH2 0xD08 JUMP JUMPDEST SWAP2 POP PUSH2 0xA42 DUP3 PUSH2 0xF8C JUMP JUMPDEST PUSH1 0x40 DUP3 ADD SWAP1 POP SWAP2 SWAP1 POP JUMP JUMPDEST PUSH1 0x0 PUSH2 0xA5A PUSH1 0x2F DUP4 PUSH2 0xD08 JUMP JUMPDEST SWAP2 POP PUSH2 0xA65 DUP3 PUSH2 0xFDB JUMP JUMPDEST PUSH1 0x40 DUP3 ADD SWAP1 POP SWAP2 SWAP1 POP JUMP JUMPDEST PUSH1 0x0 PUSH2 0xA7D PUSH1 0x28 DUP4 PUSH2 0xD08 JUMP JUMPDEST SWAP2 POP PUSH2 0xA88 DUP3 PUSH2 0x102A JUMP JUMPDEST PUSH1 0x40 DUP3 ADD SWAP1 POP SWAP2 SWAP1 POP JUMP JUMPDEST PUSH1 0x0 PUSH2 0xAA0 PUSH1 0x2A DUP4 PUSH2 0xD08 JUMP JUMPDEST SWAP2 POP PUSH2 0xAAB DUP3 PUSH2 0x1079 JUMP JUMPDEST PUSH1 0x40 DUP3 ADD SWAP1 POP SWAP2 SWAP1 POP JUMP JUMPDEST PUSH1 0x0 PUSH2 0xAC3 PUSH1 0x25 DUP4 PUSH2 0xD08 JUMP JUMPDEST SWAP2 POP PUSH2 0xACE DUP3 PUSH2 0x10C8 JUMP JUMPDEST PUSH1 0x40 DUP3 ADD SWAP1 POP SWAP2 SWAP1 POP JUMP JUMPDEST PUSH1 0x0 PUSH2 0xAE6 PUSH1 0x2A DUP4 PUSH2 0xD08 JUMP JUMPDEST SWAP2 POP PUSH2 0xAF1 DUP3 PUSH2 0x1117 JUMP JUMPDEST PUSH1 0x40 DUP3 ADD SWAP1 POP SWAP2 SWAP1 POP JUMP JUMPDEST PUSH2 0xB05 DUP2 PUSH2 0xDCD JUMP JUMPDEST DUP3 MSTORE POP POP JUMP JUMPDEST PUSH1 0x0 PUSH1 0xA0 DUP3 ADD SWAP1 POP PUSH2 0xB20 PUSH1 0x0 DUP4 ADD DUP9 PUSH2 0x9A9 JUMP JUMPDEST PUSH2 0xB2D PUSH1 0x20 DUP4 ADD DUP8 PUSH2 0x9A9 JUMP JUMPDEST PUSH2 0xB3A PUSH1 0x40 DUP4 ADD DUP7 PUSH2 0xAFC JUMP JUMPDEST PUSH2 0xB47 PUSH1 0x60 DUP4 ADD DUP6 PUSH2 0xAFC JUMP JUMPDEST DUP2 DUP2 SUB PUSH1 0x80 DUP4 ADD MSTORE PUSH2 0xB59 DUP2 DUP5 PUSH2 0x9B8 JUMP JUMPDEST SWAP1 POP SWAP7 SWAP6 POP POP POP POP POP POP JUMP JUMPDEST PUSH1 0x0 PUSH1 0x20 DUP3 ADD SWAP1 POP DUP2 DUP2 SUB PUSH1 0x0 DUP4 ADD MSTORE PUSH2 0xB7F DUP2 DUP5 PUSH2 0x9F1 JUMP JUMPDEST SWAP1 POP SWAP3 SWAP2 POP POP JUMP JUMPDEST PUSH1 0x0 PUSH1 0x20 DUP3 ADD SWAP1 POP DUP2 DUP2 SUB PUSH1 0x0 DUP4 ADD MSTORE PUSH2 0xBA0 DUP2 PUSH2 0xA2A JUMP JUMPDEST SWAP1 POP SWAP2 SWAP1 POP JUMP JUMPDEST PUSH1 0x0 PUSH1 0x20 DUP3 ADD SWAP1 POP DUP2 DUP2 SUB PUSH1 0x0 DUP4 ADD MSTORE PUSH2 0xBC0 DUP2 PUSH2 0xA4D JUMP JUMPDEST SWAP1 POP SWAP2 SWAP1 POP JUMP JUMPDEST PUSH1 0x0 PUSH1 0x20 DUP3 ADD SWAP1 POP DUP2 DUP2 SUB PUSH1 0x0 DUP4 ADD MSTORE PUSH2 0xBE0 DUP2 PUSH2 0xA70 JUMP JUMPDEST SWAP1 POP SWAP2 SWAP1 POP JUMP JUMPDEST PUSH1 0x0 PUSH1 0x20 DUP3 ADD SWAP1 POP DUP2 DUP2 SUB PUSH1 0x0 DUP4 ADD MSTORE PUSH2 0xC00 DUP2 PUSH2 0xA93 JUMP JUMPDEST SWAP1 POP SWAP2 SWAP1 POP JUMP JUMPDEST PUSH1 0x0 PUSH1 0x20 DUP3 ADD SWAP1 POP DUP2 DUP2 SUB PUSH1 0x0 DUP4 ADD MSTORE PUSH2 0xC20 DUP2 PUSH2 0xAB6 JUMP JUMPDEST SWAP1 POP SWAP2 SWAP1 POP JUMP JUMPDEST PUSH1 0x0 PUSH1 0x20 DUP3 ADD SWAP1 POP DUP2 DUP2 SUB PUSH1 0x0 DUP4 ADD MSTORE PUSH2 0xC40 DUP2 PUSH2 0xAD9 JUMP JUMPDEST SWAP1 POP SWAP2 SWAP1 POP JUMP JUMPDEST PUSH1 0x0 PUSH1 0x20 DUP3 ADD SWAP1 POP PUSH2 0xC5C PUSH1 0x0 DUP4 ADD DUP5 PUSH2 0xAFC JUMP JUMPDEST SWAP3 SWAP2 POP POP JUMP JUMPDEST PUSH1 0x0 PUSH1 0x40 DUP3 ADD SWAP1 POP PUSH2 0xC77 PUSH1 0x0 DUP4 ADD DUP6 PUSH2 0xAFC JUMP JUMPDEST PUSH2 0xC84 PUSH1 0x20 DUP4 ADD DUP5 PUSH2 0xAFC JUMP JUMPDEST SWAP4 SWAP3 POP POP POP JUMP JUMPDEST PUSH1 0x0 PUSH2 0xC95 PUSH2 0xCA6 JUMP JUMPDEST SWAP1 POP PUSH2 0xCA1 DUP3 DUP3 PUSH2 0xE4B JUMP JUMPDEST SWAP2 SWAP1 POP JUMP JUMPDEST PUSH1 0x0 PUSH1 0x40 MLOAD SWAP1 POP SWAP1 JUMP JUMPDEST PUSH1 0x0 PUSH8 0xFFFFFFFFFFFFFFFF DUP3 GT ISZERO PUSH2 0xCCB JUMPI PUSH2 0xCCA PUSH2 0xF09 JUMP JUMPDEST JUMPDEST PUSH2 0xCD4 DUP3 PUSH2 0xF6E JUMP JUMPDEST SWAP1 POP PUSH1 0x20 DUP2 ADD SWAP1 POP SWAP2 SWAP1 POP JUMP JUMPDEST PUSH1 0x0 DUP2 MLOAD SWAP1 POP SWAP2 SWAP1 POP JUMP JUMPDEST PUSH1 0x0 DUP2 MLOAD SWAP1 POP SWAP2 SWAP1 POP JUMP JUMPDEST PUSH1 0x0 DUP3 DUP3 MSTORE PUSH1 0x20 DUP3 ADD SWAP1 POP SWAP3 SWAP2 POP POP JUMP JUMPDEST PUSH1 0x0 DUP3 DUP3 MSTORE PUSH1 0x20 DUP3 ADD SWAP1 POP SWAP3 SWAP2 POP POP JUMP JUMPDEST PUSH1 0x0 PUSH2 0xD24 DUP3 PUSH2 0xDCD JUMP JUMPDEST SWAP2 POP PUSH2 0xD2F DUP4 PUSH2 0xDCD JUMP JUMPDEST SWAP3 POP DUP3 PUSH32 0xFFFFFFFFFFFFFFFFFFFFFFFFFFFFFFFFFFFFFFFFFFFFFFFFFFFFFFFFFFFFFFFF SUB DUP3 GT ISZERO PUSH2 0xD64 JUMPI PUSH2 0xD63 PUSH2 0xE7C JUMP JUMPDEST JUMPDEST DUP3 DUP3 ADD SWAP1 POP SWAP3 SWAP2 POP POP JUMP JUMPDEST PUSH1 0x0 PUSH2 0xD7A DUP3 PUSH2 0xDAD JUMP JUMPDEST SWAP1 POP SWAP2 SWAP1 POP JUMP JUMPDEST PUSH1 0x0 PUSH32 0xFFFFFFFF00000000000000000000000000000000000000000000000000000000 DUP3 AND SWAP1 POP SWAP2 SWAP1 POP JUMP JUMPDEST PUSH1 0x0 PUSH20 0xFFFFFFFFFFFFFFFFFFFFFFFFFFFFFFFFFFFFFFFF DUP3 AND SWAP1 POP SWAP2 SWAP1 POP JUMP JUMPDEST PUSH1 0x0 DUP2 SWAP1 POP SWAP2 SWAP1 POP JUMP JUMPDEST DUP3 DUP2 DUP4 CALLDATACOPY PUSH1 0x0 DUP4 DUP4 ADD MSTORE POP POP POP JUMP JUMPDEST PUSH1 0x0 JUMPDEST DUP4 DUP2 LT ISZERO PUSH2 0xE04 JUMPI DUP1 DUP3 ADD MLOAD DUP2 DUP5 ADD MSTORE PUSH1 0x20 DUP2 ADD SWAP1 POP PUSH2 0xDE9 JUMP JUMPDEST DUP4 DUP2 GT ISZERO PUSH2 0xE13 JUMPI PUSH1 0x0 DUP5 DUP5 ADD MSTORE JUMPDEST POP POP POP POP JUMP JUMPDEST PUSH1 0x0 PUSH1 0x2 DUP3 DIV SWAP1 POP PUSH1 0x1 DUP3 AND DUP1 PUSH2 0xE31 JUMPI PUSH1 0x7F DUP3 AND SWAP2 POP JUMPDEST PUSH1 0x20 DUP3 LT DUP2 EQ ISZERO PUSH2 0xE45 JUMPI PUSH2 0xE44 PUSH2 0xEAB JUMP JUMPDEST JUMPDEST POP SWAP2 SWAP1 POP JUMP JUMPDEST PUSH2 0xE54 DUP3 PUSH2 0xF6E JUMP JUMPDEST DUP2 ADD DUP2 DUP2 LT PUSH8 0xFFFFFFFFFFFFFFFF DUP3 GT OR ISZERO PUSH2 0xE73 JUMPI PUSH2 0xE72 PUSH2 0xF09 JUMP JUMPDEST JUMPDEST DUP1 PUSH1 0x40 MSTORE POP POP POP JUMP JUMPDEST PUSH32 0x4E487B7100000000000000000000000000000000000000000000000000000000 PUSH1 0x0 MSTORE PUSH1 0x11 PUSH1 0x4 MSTORE PUSH1 0x24 PUSH1 0x0 REVERT JUMPDEST PUSH32 0x4E487B7100000000000000000000000000000000000000000000000000000000 PUSH1 0x0 MSTORE PUSH1 0x22 PUSH1 0x4 MSTORE PUSH1 0x24 PUSH1 0x0 REVERT JUMPDEST PUSH32 0x4E487B7100000000000000000000000000000000000000000000000000000000 PUSH1 0x0 MSTORE PUSH1 0x32 PUSH1 0x4 MSTORE PUSH1 0x24 PUSH1 0x0 REVERT JUMPDEST PUSH32 0x4E487B7100000000000000000000000000000000000000000000000000000000 PUSH1 0x0 MSTORE PUSH1 0x41 PUSH1 0x4 MSTORE PUSH1 0x24 PUSH1 0x0 REVERT JUMPDEST PUSH1 0x0 PUSH1 0x3 RETURNDATASIZE GT ISZERO PUSH2 0xF57 JUMPI PUSH1 0x4 PUSH1 0x0 DUP1 RETURNDATACOPY PUSH2 0xF54 PUSH1 0x0 MLOAD PUSH2 0xF7F JUMP JUMPDEST SWAP1 POP JUMPDEST SWAP1 JUMP JUMPDEST PUSH1 0x0 DUP1 REVERT JUMPDEST PUSH1 0x0 DUP1 REVERT JUMPDEST PUSH1 0x0 DUP1 REVERT JUMPDEST PUSH1 0x0 DUP1 REVERT JUMPDEST PUSH1 0x0 PUSH1 0x1F NOT PUSH1 0x1F DUP4 ADD AND SWAP1 POP SWAP2 SWAP1 POP JUMP JUMPDEST PUSH1 0x0 DUP2 PUSH1 0xE0 SHR SWAP1 POP SWAP2 SWAP1 POP JUMP JUMPDEST PUSH32 0x455243313135353A207472616E7366657220746F206E6F6E2045524331313535 PUSH1 0x0 DUP3 ADD MSTORE PUSH32 0x526563656976657220696D706C656D656E746572000000000000000000000000 PUSH1 0x20 DUP3 ADD MSTORE POP JUMP JUMPDEST PUSH32 0x455243313135353A2063616C6C6572206973206E6F7420746F6B656E206F776E PUSH1 0x0 DUP3 ADD MSTORE PUSH32 0x6572206E6F7220617070726F7665640000000000000000000000000000000000 PUSH1 0x20 DUP3 ADD MSTORE POP JUMP JUMPDEST PUSH32 0x455243313135353A204552433131353552656365697665722072656A65637465 PUSH1 0x0 DUP3 ADD MSTORE PUSH32 0x6420746F6B656E73000000000000000000000000000000000000000000000000 PUSH1 0x20 DUP3 ADD MSTORE POP JUMP JUMPDEST PUSH32 0x455243313135353A2061646472657373207A65726F206973206E6F7420612076 PUSH1 0x0 DUP3 ADD MSTORE PUSH32 0x616C6964206F776E657200000000000000000000000000000000000000000000 PUSH1 0x20 DUP3 ADD MSTORE POP JUMP JUMPDEST PUSH32 0x455243313135353A207472616E7366657220746F20746865207A65726F206164 PUSH1 0x0 DUP3 ADD MSTORE PUSH32 0x6472657373000000000000000000000000000000000000000000000000000000 PUSH1 0x20 DUP3 ADD MSTORE POP JUMP JUMPDEST PUSH32 0x455243313135353A20696E73756666696369656E742062616C616E636520666F PUSH1 0x0 DUP3 ADD MSTORE PUSH32 0x72207472616E7366657200000000000000000000000000000000000000000000 PUSH1 0x20 DUP3 ADD MSTORE POP JUMP JUMPDEST PUSH1 0x0 PUSH1 0x44 RETURNDATASIZE LT ISZERO PUSH2 0x1176 JUMPI PUSH2 0x11F9 JUMP JUMPDEST PUSH2 0x117E PUSH2 0xCA6 JUMP JUMPDEST PUSH1 0x4 RETURNDATASIZE SUB PUSH1 0x4 DUP3 RETURNDATACOPY DUP1 MLOAD RETURNDATASIZE PUSH1 0x24 DUP3 ADD GT PUSH8 0xFFFFFFFFFFFFFFFF DUP3 GT OR ISZERO PUSH2 0x11A6 JUMPI POP POP PUSH2 0x11F9 JUMP JUMPDEST DUP1 DUP3 ADD DUP1 MLOAD PUSH8 0xFFFFFFFFFFFFFFFF DUP2 GT ISZERO PUSH2 0x11C4 JUMPI POP POP POP POP PUSH2 0x11F9 JUMP JUMPDEST DUP1 PUSH1 0x20 DUP4 ADD ADD PUSH1 0x4 RETURNDATASIZE SUB DUP6 ADD DUP2 GT ISZERO PUSH2 0x11E1 JUMPI POP POP POP POP POP PUSH2 0x11F9 JUMP JUMPDEST PUSH2 0x11F0 DUP3 PUSH1 0x20 ADD DUP6 ADD DUP7 PUSH2 0xE4B JUMP JUMPDEST DUP3 SWAP6 POP POP POP POP POP POP JUMPDEST SWAP1 JUMP JUMPDEST PUSH2 0x1205 DUP2 PUSH2 0xD6F JUMP JUMPDEST DUP2 EQ PUSH2 0x1210 JUMPI PUSH1 0x0 DUP1 REVERT JUMPDEST POP JUMP JUMPDEST PUSH2 0x121C DUP2 PUSH2 0xD81 JUMP JUMPDEST DUP2 EQ PUSH2 0x1227 JUMPI PUSH1 0x0 DUP1 REVERT JUMPDEST POP JUMP JUMPDEST PUSH2 0x1233 DUP2 PUSH2 0xDCD JUMP JUMPDEST DUP2 EQ PUSH2 0x123E JUMPI PUSH1 0x0 DUP1 REVERT JUMPDEST POP JUMP INVALID LOG2 PUSH5 0x6970667358 0x22 SLT KECCAK256 EQ 0x5C 0x2A 0xEC INVALID PUSH23 0x3E9E87047EFA7B52E61DD0DC052951D7662C2DC6F5BE72 SWAP9 PUSH9 0xF264736F6C63430008 SMOD STOP CALLER "
				},
				"gasEstimates": {
					"creation": {
						"codeDepositCost": "945400",
						"executionCost": "infinite",
						"totalCost": "infinite"
					},
					"external": {
						"balanceOf(address,uint256)": "infinite",
						"safeTransferFrom(address,address,uint256,uint256,bytes)": "infinite",
						"uri(uint256)": "infinite"
					},
					"internal": {
						"_afterTokenTransfer(address,address,address,uint256[] memory,uint256[] memory,bytes memory)": "21",
						"_asSingletonArray(uint256)": "infinite",
						"_beforeTokenTransfer(address,address,address,uint256[] memory,uint256[] memory,bytes memory)": "21",
						"_burn(address,uint256,uint256)": "infinite",
						"_doSafeTransferAcceptanceCheck(address,address,address,uint256,uint256,bytes memory)": "infinite",
						"_mint(address,uint256,uint256,bytes memory)": "infinite",
						"_msgSender()": "22",
						"_safeTransferFrom(address,address,uint256,uint256,bytes memory)": "infinite",
						"_setURI(string memory)": "infinite",
						"isContract(address)": "2640"
					}
				},
				"methodIdentifiers": {
					"balanceOf(address,uint256)": "00fdd58e",
					"safeTransferFrom(address,address,uint256,uint256,bytes)": "f242432a",
					"uri(uint256)": "0e89341c"
				}
			},
			"storageLayout": {
				"storage": [
					{
						"astId": 76,
						"contract": "contracts/Coupon.sol:ERC1155",
						"label": "_balances",
						"offset": 0,
						"slot": "0",
						"type": "t_mapping(t_uint256,t_mapping(t_address,t_uint256))"
					},
					{
						"astId": 82,
						"contract": "contracts/Coupon.sol:ERC1155",
						"label": "_operatorApprovals",
						"offset": 0,
						"slot": "1",
						"type": "t_mapping(t_address,t_mapping(t_address,t_bool))"
					},
					{
						"astId": 96,
						"contract": "contracts/Coupon.sol:ERC1155",
						"label": "_uri",
						"offset": 0,
						"slot": "2",
						"type": "t_string_storage"
					}
				],
				"types": {
					"t_address": {
						"encoding": "inplace",
						"label": "address",
						"numberOfBytes": "20"
					},
					"t_bool": {
						"encoding": "inplace",
						"label": "bool",
						"numberOfBytes": "1"
					},
					"t_mapping(t_address,t_bool)": {
						"encoding": "mapping",
						"key": "t_address",
						"label": "mapping(address => bool)",
						"numberOfBytes": "32",
						"value": "t_bool"
					},
					"t_mapping(t_address,t_mapping(t_address,t_bool))": {
						"encoding": "mapping",
						"key": "t_address",
						"label": "mapping(address => mapping(address => bool))",
						"numberOfBytes": "32",
						"value": "t_mapping(t_address,t_bool)"
					},
					"t_mapping(t_address,t_uint256)": {
						"encoding": "mapping",
						"key": "t_address",
						"label": "mapping(address => uint256)",
						"numberOfBytes": "32",
						"value": "t_uint256"
					},
					"t_mapping(t_uint256,t_mapping(t_address,t_uint256))": {
						"encoding": "mapping",
						"key": "t_uint256",
						"label": "mapping(uint256 => mapping(address => uint256))",
						"numberOfBytes": "32",
						"value": "t_mapping(t_address,t_uint256)"
					},
					"t_string_storage": {
						"encoding": "bytes",
						"label": "string",
						"numberOfBytes": "32"
					},
					"t_uint256": {
						"encoding": "inplace",
						"label": "uint256",
						"numberOfBytes": "32"
					}
				}
			},
			"userdoc": {
				"kind": "user",
				"methods": {},
				"version": 1
			}
		}
	}
}