{
	"contracts/Coupon.sol": {
		"Coupon": {
			"abi": [
				{
					"inputs": [],
					"stateMutability": "nonpayable",
					"type": "constructor"
				},
				{
					"anonymous": false,
					"inputs": [
						{
							"indexed": true,
							"internalType": "address",
							"name": "operator",
							"type": "address"
						},
						{
							"indexed": true,
							"internalType": "address",
							"name": "from",
							"type": "address"
						},
						{
							"indexed": true,
							"internalType": "address",
							"name": "to",
							"type": "address"
						},
						{
							"indexed": false,
							"internalType": "uint256",
							"name": "id",
							"type": "uint256"
						},
						{
							"indexed": false,
							"internalType": "uint256",
							"name": "value",
							"type": "uint256"
						}
					],
					"name": "TransferSingle",
					"type": "event"
				},
				{
					"inputs": [
						{
							"internalType": "uint256",
							"name": "discount",
							"type": "uint256"
						},
						{
							"internalType": "uint256",
							"name": "amount",
							"type": "uint256"
						}
					],
					"name": "CouponMint",
					"outputs": [],
					"stateMutability": "nonpayable",
					"type": "function"
				},
				{
					"inputs": [
						{
							"internalType": "address",
							"name": "account",
							"type": "address"
						},
						{
							"internalType": "uint256",
							"name": "id",
							"type": "uint256"
						}
					],
					"name": "balanceOf",
					"outputs": [
						{
							"internalType": "uint256",
							"name": "",
							"type": "uint256"
						}
					],
					"stateMutability": "view",
					"type": "function"
				},
				{
					"inputs": [
						{
							"internalType": "address",
							"name": "from",
							"type": "address"
						},
						{
							"internalType": "address",
							"name": "to",
							"type": "address"
						},
						{
							"internalType": "uint256",
							"name": "id",
							"type": "uint256"
						},
						{
							"internalType": "uint256",
							"name": "amount",
							"type": "uint256"
						},
						{
							"internalType": "bytes",
							"name": "data",
							"type": "bytes"
						}
					],
					"name": "safeTransferFrom",
					"outputs": [],
					"stateMutability": "nonpayable",
					"type": "function"
				},
				{
					"inputs": [
						{
							"internalType": "address",
							"name": "from",
							"type": "address"
						},
						{
							"internalType": "address",
							"name": "marketContract",
							"type": "address"
						},
						{
							"internalType": "uint256",
							"name": "discount",
							"type": "uint256"
						},
						{
							"internalType": "uint256",
							"name": "amount",
							"type": "uint256"
						}
					],
					"name": "transf",
					"outputs": [],
					"stateMutability": "nonpayable",
					"type": "function"
				},
				{
					"inputs": [
						{
							"internalType": "uint256",
							"name": "",
							"type": "uint256"
						}
					],
					"name": "uri",
					"outputs": [
						{
							"internalType": "string",
							"name": "",
							"type": "string"
						}
					],
					"stateMutability": "view",
					"type": "function"
				}
			],
			"devdoc": {
				"kind": "dev",
				"methods": {
					"balanceOf(address,uint256)": {
						"details": "See {IERC1155-balanceOf}. Requirements: - `account` cannot be the zero address."
					},
					"safeTransferFrom(address,address,uint256,uint256,bytes)": {
						"details": "See {IERC1155-safeTransferFrom}."
					},
					"uri(uint256)": {
						"details": "See {IERC1155MetadataURI-uri}. This implementation returns the same URI for *all* token types. It relies on the token type ID substitution mechanism https://eips.ethereum.org/EIPS/eip-1155#metadata[defined in the EIP]. Clients calling this function must replace the `\\{id\\}` substring with the actual token type ID."
					}
				},
				"version": 1
			},
			"evm": {
				"assembly": "    /* \"contracts/Coupon.sol\":14398:14895  contract Coupon is ERC1155 {... */\n  mstore(0x40, 0x80)\n    /* \"contracts/Coupon.sol\":14431:14469  constructor() public ERC1155(\"uri\") {} */\n  callvalue\n  dup1\n  iszero\n  tag_1\n  jumpi\n  0x00\n  dup1\n  revert\ntag_1:\n  pop\n    /* \"contracts/Coupon.sol\":5021:5083  constructor(string memory uri_) {... */\n  mload(0x40)\n  dup1\n  0x40\n  add\n  0x40\n  mstore\n  dup1\n  0x03\n  dup2\n  mstore\n  0x20\n  add\n  0x7572690000000000000000000000000000000000000000000000000000000000\n  dup2\n  mstore\n  pop\n    /* \"contracts/Coupon.sol\":5063:5076  _setURI(uri_) */\n  tag_5\n    /* \"contracts/Coupon.sol\":5071:5075  uri_ */\n  dup2\n    /* \"contracts/Coupon.sol\":5063:5070  _setURI */\n  shl(0x20, tag_6)\n    /* \"contracts/Coupon.sol\":5063:5076  _setURI(uri_) */\n  0x20\n  shr\n  jump\t// in\ntag_5:\n    /* \"contracts/Coupon.sol\":5021:5083  constructor(string memory uri_) {... */\n  pop\n    /* \"contracts/Coupon.sol\":14398:14895  contract Coupon is ERC1155 {... */\n  jump(tag_8)\n    /* \"contracts/Coupon.sol\":8673:8759  function _setURI(string memory newuri) internal virtual {... */\ntag_6:\n    /* \"contracts/Coupon.sol\":8746:8752  newuri */\n  dup1\n    /* \"contracts/Coupon.sol\":8739:8743  _uri */\n  0x02\n    /* \"contracts/Coupon.sol\":8739:8752  _uri = newuri */\n  swap1\n  dup1\n  mload\n  swap1\n  0x20\n  add\n  swap1\n  tag_10\n  swap3\n  swap2\n  swap1\n  tag_11\n  jump\t// in\ntag_10:\n  pop\n    /* \"contracts/Coupon.sol\":8673:8759  function _setURI(string memory newuri) internal virtual {... */\n  pop\n  jump\t// out\n    /* \"contracts/Coupon.sol\":14398:14895  contract Coupon is ERC1155 {... */\ntag_11:\n  dup3\n  dup1\n  sload\n  tag_12\n  swap1\n  tag_13\n  jump\t// in\ntag_12:\n  swap1\n  0x00\n  mstore\n  keccak256(0x00, 0x20)\n  swap1\n  0x1f\n  add\n  0x20\n  swap1\n  div\n  dup2\n  add\n  swap3\n  dup3\n  tag_15\n  jumpi\n  0x00\n  dup6\n  sstore\n  jump(tag_14)\ntag_15:\n  dup3\n  0x1f\n  lt\n  tag_16\n  jumpi\n  dup1\n  mload\n  not(0xff)\n  and\n  dup4\n  dup1\n  add\n  or\n  dup6\n  sstore\n  jump(tag_14)\ntag_16:\n  dup3\n  dup1\n  add\n  0x01\n  add\n  dup6\n  sstore\n  dup3\n  iszero\n  tag_14\n  jumpi\n  swap2\n  dup3\n  add\ntag_17:\n  dup3\n  dup2\n  gt\n  iszero\n  tag_18\n  jumpi\n  dup3\n  mload\n  dup3\n  sstore\n  swap2\n  0x20\n  add\n  swap2\n  swap1\n  0x01\n  add\n  swap1\n  jump(tag_17)\ntag_18:\ntag_14:\n  pop\n  swap1\n  pop\n  tag_19\n  swap2\n  swap1\n  tag_20\n  jump\t// in\ntag_19:\n  pop\n  swap1\n  jump\t// out\ntag_20:\ntag_21:\n  dup1\n  dup3\n  gt\n  iszero\n  tag_22\n  jumpi\n  0x00\n  dup2\n  0x00\n  swap1\n  sstore\n  pop\n  0x01\n  add\n  jump(tag_21)\ntag_22:\n  pop\n  swap1\n  jump\t// out\n    /* \"#utility.yul\":7:327   */\ntag_13:\n    /* \"#utility.yul\":51:57   */\n  0x00\n    /* \"#utility.yul\":88:89   */\n  0x02\n    /* \"#utility.yul\":82:86   */\n  dup3\n    /* \"#utility.yul\":78:90   */\n  div\n    /* \"#utility.yul\":68:90   */\n  swap1\n  pop\n    /* \"#utility.yul\":135:136   */\n  0x01\n    /* \"#utility.yul\":129:133   */\n  dup3\n    /* \"#utility.yul\":125:137   */\n  and\n    /* \"#utility.yul\":156:174   */\n  dup1\n    /* \"#utility.yul\":146:227   */\n  tag_25\n  jumpi\n    /* \"#utility.yul\":212:216   */\n  0x7f\n    /* \"#utility.yul\":204:210   */\n  dup3\n    /* \"#utility.yul\":200:217   */\n  and\n    /* \"#utility.yul\":190:217   */\n  swap2\n  pop\n    /* \"#utility.yul\":146:227   */\ntag_25:\n    /* \"#utility.yul\":274:276   */\n  0x20\n    /* \"#utility.yul\":266:272   */\n  dup3\n    /* \"#utility.yul\":263:277   */\n  lt\n    /* \"#utility.yul\":243:261   */\n  dup2\n    /* \"#utility.yul\":240:278   */\n  eq\n    /* \"#utility.yul\":237:321   */\n  iszero\n  tag_26\n  jumpi\n    /* \"#utility.yul\":293:311   */\n  tag_27\n  tag_28\n  jump\t// in\ntag_27:\n    /* \"#utility.yul\":237:321   */\ntag_26:\n    /* \"#utility.yul\":58:327   */\n  pop\n    /* \"#utility.yul\":7:327   */\n  swap2\n  swap1\n  pop\n  jump\t// out\n    /* \"#utility.yul\":333:513   */\ntag_28:\n    /* \"#utility.yul\":381:458   */\n  0x4e487b7100000000000000000000000000000000000000000000000000000000\n    /* \"#utility.yul\":378:379   */\n  0x00\n    /* \"#utility.yul\":371:459   */\n  mstore\n    /* \"#utility.yul\":478:482   */\n  0x22\n    /* \"#utility.yul\":475:476   */\n  0x04\n    /* \"#utility.yul\":468:483   */\n  mstore\n    /* \"#utility.yul\":502:506   */\n  0x24\n    /* \"#utility.yul\":499:500   */\n  0x00\n    /* \"#utility.yul\":492:507   */\n  revert\n    /* \"contracts/Coupon.sol\":14398:14895  contract Coupon is ERC1155 {... */\ntag_8:\n  dataSize(sub_0)\n  dup1\n  dataOffset(sub_0)\n  0x00\n  codecopy\n  0x00\n  return\nstop\n\nsub_0: assembly {\n        /* \"contracts/Coupon.sol\":14398:14895  contract Coupon is ERC1155 {... */\n      mstore(0x40, 0x80)\n      callvalue\n      dup1\n      iszero\n      tag_1\n      jumpi\n      0x00\n      dup1\n      revert\n    tag_1:\n      pop\n      jumpi(tag_2, lt(calldatasize, 0x04))\n      shr(0xe0, calldataload(0x00))\n      dup1\n      0xfdd58e\n      eq\n      tag_3\n      jumpi\n      dup1\n      0x0e89341c\n      eq\n      tag_4\n      jumpi\n      dup1\n      0x57e87575\n      eq\n      tag_5\n      jumpi\n      dup1\n      0x5d059581\n      eq\n      tag_6\n      jumpi\n      dup1\n      0xf242432a\n      eq\n      tag_7\n      jumpi\n    tag_2:\n      0x00\n      dup1\n      revert\n        /* \"contracts/Coupon.sol\":5718:6006  function balanceOf(address account, uint256 id)... */\n    tag_3:\n      tag_8\n      0x04\n      dup1\n      calldatasize\n      sub\n      dup2\n      add\n      swap1\n      tag_9\n      swap2\n      swap1\n      tag_10\n      jump\t// in\n    tag_9:\n      tag_11\n      jump\t// in\n    tag_8:\n      mload(0x40)\n      tag_12\n      swap2\n      swap1\n      tag_13\n      jump\t// in\n    tag_12:\n      mload(0x40)\n      dup1\n      swap2\n      sub\n      swap1\n      return\n        /* \"contracts/Coupon.sol\":5482:5576  function uri(uint256) public view virtual returns (string memory) {... */\n    tag_4:\n      tag_14\n      0x04\n      dup1\n      calldatasize\n      sub\n      dup2\n      add\n      swap1\n      tag_15\n      swap2\n      swap1\n      tag_16\n      jump\t// in\n    tag_15:\n      tag_17\n      jump\t// in\n    tag_14:\n      mload(0x40)\n      tag_18\n      swap2\n      swap1\n      tag_19\n      jump\t// in\n    tag_18:\n      mload(0x40)\n      dup1\n      swap2\n      sub\n      swap1\n      return\n        /* \"contracts/Coupon.sol\":14475:14672  function CouponMint(uint256 discount, uint256 amount) public {... */\n    tag_5:\n      tag_20\n      0x04\n      dup1\n      calldatasize\n      sub\n      dup2\n      add\n      swap1\n      tag_21\n      swap2\n      swap1\n      tag_22\n      jump\t// in\n    tag_21:\n      tag_23\n      jump\t// in\n    tag_20:\n      stop\n        /* \"contracts/Coupon.sol\":14678:14893  function transf(... */\n    tag_6:\n      tag_24\n      0x04\n      dup1\n      calldatasize\n      sub\n      dup2\n      add\n      swap1\n      tag_25\n      swap2\n      swap1\n      tag_26\n      jump\t// in\n    tag_25:\n      tag_27\n      jump\t// in\n    tag_24:\n      stop\n        /* \"contracts/Coupon.sol\":6073:6419  function safeTransferFrom(... */\n    tag_7:\n      tag_28\n      0x04\n      dup1\n      calldatasize\n      sub\n      dup2\n      add\n      swap1\n      tag_29\n      swap2\n      swap1\n      tag_30\n      jump\t// in\n    tag_29:\n      tag_31\n      jump\t// in\n    tag_28:\n      stop\n        /* \"contracts/Coupon.sol\":5718:6006  function balanceOf(address account, uint256 id)... */\n    tag_11:\n        /* \"contracts/Coupon.sol\":5827:5834  uint256 */\n      0x00\n        /* \"contracts/Coupon.sol\":5890:5891  0 */\n      dup1\n        /* \"contracts/Coupon.sol\":5871:5892  account != address(0) */\n      0xffffffffffffffffffffffffffffffffffffffff\n      and\n        /* \"contracts/Coupon.sol\":5871:5878  account */\n      dup4\n        /* \"contracts/Coupon.sol\":5871:5892  account != address(0) */\n      0xffffffffffffffffffffffffffffffffffffffff\n      and\n      eq\n      iszero\n        /* \"contracts/Coupon.sol\":5850:5960  require(... */\n      tag_33\n      jumpi\n      mload(0x40)\n      0x08c379a000000000000000000000000000000000000000000000000000000000\n      dup2\n      mstore\n      0x04\n      add\n      tag_34\n      swap1\n      tag_35\n      jump\t// in\n    tag_34:\n      mload(0x40)\n      dup1\n      swap2\n      sub\n      swap1\n      revert\n    tag_33:\n        /* \"contracts/Coupon.sol\":5977:5986  _balances */\n      0x00\n        /* \"contracts/Coupon.sol\":5977:5990  _balances[id] */\n      dup1\n        /* \"contracts/Coupon.sol\":5987:5989  id */\n      dup4\n        /* \"contracts/Coupon.sol\":5977:5990  _balances[id] */\n      dup2\n      mstore\n      0x20\n      add\n      swap1\n      dup2\n      mstore\n      0x20\n      add\n      0x00\n      keccak256\n        /* \"contracts/Coupon.sol\":5977:5999  _balances[id][account] */\n      0x00\n        /* \"contracts/Coupon.sol\":5991:5998  account */\n      dup5\n        /* \"contracts/Coupon.sol\":5977:5999  _balances[id][account] */\n      0xffffffffffffffffffffffffffffffffffffffff\n      and\n      0xffffffffffffffffffffffffffffffffffffffff\n      and\n      dup2\n      mstore\n      0x20\n      add\n      swap1\n      dup2\n      mstore\n      0x20\n      add\n      0x00\n      keccak256\n      sload\n        /* \"contracts/Coupon.sol\":5970:5999  return _balances[id][account] */\n      swap1\n      pop\n        /* \"contracts/Coupon.sol\":5718:6006  function balanceOf(address account, uint256 id)... */\n      swap3\n      swap2\n      pop\n      pop\n      jump\t// out\n        /* \"contracts/Coupon.sol\":5482:5576  function uri(uint256) public view virtual returns (string memory) {... */\n    tag_17:\n        /* \"contracts/Coupon.sol\":5533:5546  string memory */\n      0x60\n        /* \"contracts/Coupon.sol\":5565:5569  _uri */\n      0x02\n        /* \"contracts/Coupon.sol\":5558:5569  return _uri */\n      dup1\n      sload\n      tag_37\n      swap1\n      tag_38\n      jump\t// in\n    tag_37:\n      dup1\n      0x1f\n      add\n      0x20\n      dup1\n      swap2\n      div\n      mul\n      0x20\n      add\n      mload(0x40)\n      swap1\n      dup2\n      add\n      0x40\n      mstore\n      dup1\n      swap3\n      swap2\n      swap1\n      dup2\n      dup2\n      mstore\n      0x20\n      add\n      dup3\n      dup1\n      sload\n      tag_39\n      swap1\n      tag_38\n      jump\t// in\n    tag_39:\n      dup1\n      iszero\n      tag_40\n      jumpi\n      dup1\n      0x1f\n      lt\n      tag_41\n      jumpi\n      0x0100\n      dup1\n      dup4\n      sload\n      div\n      mul\n      dup4\n      mstore\n      swap2\n      0x20\n      add\n      swap2\n      jump(tag_40)\n    tag_41:\n      dup3\n      add\n      swap2\n      swap1\n      0x00\n      mstore\n      keccak256(0x00, 0x20)\n      swap1\n    tag_42:\n      dup2\n      sload\n      dup2\n      mstore\n      swap1\n      0x01\n      add\n      swap1\n      0x20\n      add\n      dup1\n      dup4\n      gt\n      tag_42\n      jumpi\n      dup3\n      swap1\n      sub\n      0x1f\n      and\n      dup3\n      add\n      swap2\n    tag_40:\n      pop\n      pop\n      pop\n      pop\n      pop\n      swap1\n      pop\n        /* \"contracts/Coupon.sol\":5482:5576  function uri(uint256) public view virtual returns (string memory) {... */\n      swap2\n      swap1\n      pop\n      jump\t// out\n        /* \"contracts/Coupon.sol\":14475:14672  function CouponMint(uint256 discount, uint256 amount) public {... */\n    tag_23:\n        /* \"contracts/Coupon.sol\":14546:14585  _mint(msg.sender, discount, amount, \"\") */\n      tag_44\n        /* \"contracts/Coupon.sol\":14552:14562  msg.sender */\n      caller\n        /* \"contracts/Coupon.sol\":14564:14572  discount */\n      dup4\n        /* \"contracts/Coupon.sol\":14574:14580  amount */\n      dup4\n        /* \"contracts/Coupon.sol\":14546:14585  _mint(msg.sender, discount, amount, \"\") */\n      mload(0x40)\n      dup1\n      0x20\n      add\n      0x40\n      mstore\n      dup1\n      0x00\n      dup2\n      mstore\n      pop\n        /* \"contracts/Coupon.sol\":14546:14551  _mint */\n      tag_45\n        /* \"contracts/Coupon.sol\":14546:14585  _mint(msg.sender, discount, amount, \"\") */\n      jump\t// in\n    tag_44:\n        /* \"contracts/Coupon.sol\":14475:14672  function CouponMint(uint256 discount, uint256 amount) public {... */\n      pop\n      pop\n      jump\t// out\n        /* \"contracts/Coupon.sol\":14678:14893  function transf(... */\n    tag_27:\n        /* \"contracts/Coupon.sol\":14821:14886  _safeTransferFrom(from, marketContract, discount, amount, \"0x00\") */\n      tag_47\n        /* \"contracts/Coupon.sol\":14839:14843  from */\n      dup5\n        /* \"contracts/Coupon.sol\":14845:14859  marketContract */\n      dup5\n        /* \"contracts/Coupon.sol\":14861:14869  discount */\n      dup5\n        /* \"contracts/Coupon.sol\":14871:14877  amount */\n      dup5\n        /* \"contracts/Coupon.sol\":14821:14886  _safeTransferFrom(from, marketContract, discount, amount, \"0x00\") */\n      mload(0x40)\n      dup1\n      0x40\n      add\n      0x40\n      mstore\n      dup1\n      0x04\n      dup2\n      mstore\n      0x20\n      add\n      0x3078303000000000000000000000000000000000000000000000000000000000\n      dup2\n      mstore\n      pop\n        /* \"contracts/Coupon.sol\":14821:14838  _safeTransferFrom */\n      tag_48\n        /* \"contracts/Coupon.sol\":14821:14886  _safeTransferFrom(from, marketContract, discount, amount, \"0x00\") */\n      jump\t// in\n    tag_47:\n        /* \"contracts/Coupon.sol\":14678:14893  function transf(... */\n      pop\n      pop\n      pop\n      pop\n      jump\t// out\n        /* \"contracts/Coupon.sol\":6073:6419  function safeTransferFrom(... */\n    tag_31:\n        /* \"contracts/Coupon.sol\":6272:6284  _msgSender() */\n      tag_50\n        /* \"contracts/Coupon.sol\":6272:6282  _msgSender */\n      tag_51\n        /* \"contracts/Coupon.sol\":6272:6284  _msgSender() */\n      jump\t// in\n    tag_50:\n        /* \"contracts/Coupon.sol\":6264:6284  from == _msgSender() */\n      0xffffffffffffffffffffffffffffffffffffffff\n      and\n        /* \"contracts/Coupon.sol\":6264:6268  from */\n      dup6\n        /* \"contracts/Coupon.sol\":6264:6284  from == _msgSender() */\n      0xffffffffffffffffffffffffffffffffffffffff\n      and\n      eq\n        /* \"contracts/Coupon.sol\":6243:6357  require(... */\n      tag_52\n      jumpi\n      mload(0x40)\n      0x08c379a000000000000000000000000000000000000000000000000000000000\n      dup2\n      mstore\n      0x04\n      add\n      tag_53\n      swap1\n      tag_54\n      jump\t// in\n    tag_53:\n      mload(0x40)\n      dup1\n      swap2\n      sub\n      swap1\n      revert\n    tag_52:\n        /* \"contracts/Coupon.sol\":6367:6412  _safeTransferFrom(from, to, id, amount, data) */\n      tag_55\n        /* \"contracts/Coupon.sol\":6385:6389  from */\n      dup6\n        /* \"contracts/Coupon.sol\":6391:6393  to */\n      dup6\n        /* \"contracts/Coupon.sol\":6395:6397  id */\n      dup6\n        /* \"contracts/Coupon.sol\":6399:6405  amount */\n      dup6\n        /* \"contracts/Coupon.sol\":6407:6411  data */\n      dup6\n        /* \"contracts/Coupon.sol\":6367:6384  _safeTransferFrom */\n      tag_48\n        /* \"contracts/Coupon.sol\":6367:6412  _safeTransferFrom(from, to, id, amount, data) */\n      jump\t// in\n    tag_55:\n        /* \"contracts/Coupon.sol\":6073:6419  function safeTransferFrom(... */\n      pop\n      pop\n      pop\n      pop\n      pop\n      jump\t// out\n        /* \"contracts/Coupon.sol\":9132:9923  function _mint(... */\n    tag_45:\n        /* \"contracts/Coupon.sol\":9293:9294  0 */\n      0x00\n        /* \"contracts/Coupon.sol\":9279:9295  to != address(0) */\n      0xffffffffffffffffffffffffffffffffffffffff\n      and\n        /* \"contracts/Coupon.sol\":9279:9281  to */\n      dup5\n        /* \"contracts/Coupon.sol\":9279:9295  to != address(0) */\n      0xffffffffffffffffffffffffffffffffffffffff\n      and\n      eq\n      iszero\n        /* \"contracts/Coupon.sol\":9271:9333  require(to != address(0), \"ERC1155: mint to the zero address\") */\n      tag_57\n      jumpi\n      mload(0x40)\n      0x08c379a000000000000000000000000000000000000000000000000000000000\n      dup2\n      mstore\n      0x04\n      add\n      tag_58\n      swap1\n      tag_59\n      jump\t// in\n    tag_58:\n      mload(0x40)\n      dup1\n      swap2\n      sub\n      swap1\n      revert\n    tag_57:\n        /* \"contracts/Coupon.sol\":9344:9360  address operator */\n      0x00\n        /* \"contracts/Coupon.sol\":9363:9375  _msgSender() */\n      tag_60\n        /* \"contracts/Coupon.sol\":9363:9373  _msgSender */\n      tag_51\n        /* \"contracts/Coupon.sol\":9363:9375  _msgSender() */\n      jump\t// in\n    tag_60:\n        /* \"contracts/Coupon.sol\":9344:9375  address operator = _msgSender() */\n      swap1\n      pop\n        /* \"contracts/Coupon.sol\":9385:9405  uint256[] memory ids */\n      0x00\n        /* \"contracts/Coupon.sol\":9408:9429  _asSingletonArray(id) */\n      tag_61\n        /* \"contracts/Coupon.sol\":9426:9428  id */\n      dup6\n        /* \"contracts/Coupon.sol\":9408:9425  _asSingletonArray */\n      tag_62\n        /* \"contracts/Coupon.sol\":9408:9429  _asSingletonArray(id) */\n      jump\t// in\n    tag_61:\n        /* \"contracts/Coupon.sol\":9385:9429  uint256[] memory ids = _asSingletonArray(id) */\n      swap1\n      pop\n        /* \"contracts/Coupon.sol\":9439:9463  uint256[] memory amounts */\n      0x00\n        /* \"contracts/Coupon.sol\":9466:9491  _asSingletonArray(amount) */\n      tag_63\n        /* \"contracts/Coupon.sol\":9484:9490  amount */\n      dup6\n        /* \"contracts/Coupon.sol\":9466:9483  _asSingletonArray */\n      tag_62\n        /* \"contracts/Coupon.sol\":9466:9491  _asSingletonArray(amount) */\n      jump\t// in\n    tag_63:\n        /* \"contracts/Coupon.sol\":9439:9491  uint256[] memory amounts = _asSingletonArray(amount) */\n      swap1\n      pop\n        /* \"contracts/Coupon.sol\":9502:9568  _beforeTokenTransfer(operator, address(0), to, ids, amounts, data) */\n      tag_64\n        /* \"contracts/Coupon.sol\":9523:9531  operator */\n      dup4\n        /* \"contracts/Coupon.sol\":9541:9542  0 */\n      0x00\n        /* \"contracts/Coupon.sol\":9545:9547  to */\n      dup10\n        /* \"contracts/Coupon.sol\":9549:9552  ids */\n      dup6\n        /* \"contracts/Coupon.sol\":9554:9561  amounts */\n      dup6\n        /* \"contracts/Coupon.sol\":9563:9567  data */\n      dup10\n        /* \"contracts/Coupon.sol\":9502:9522  _beforeTokenTransfer */\n      tag_65\n        /* \"contracts/Coupon.sol\":9502:9568  _beforeTokenTransfer(operator, address(0), to, ids, amounts, data) */\n      jump\t// in\n    tag_64:\n        /* \"contracts/Coupon.sol\":9600:9606  amount */\n      dup5\n        /* \"contracts/Coupon.sol\":9579:9588  _balances */\n      0x00\n        /* \"contracts/Coupon.sol\":9579:9592  _balances[id] */\n      dup1\n        /* \"contracts/Coupon.sol\":9589:9591  id */\n      dup9\n        /* \"contracts/Coupon.sol\":9579:9592  _balances[id] */\n      dup2\n      mstore\n      0x20\n      add\n      swap1\n      dup2\n      mstore\n      0x20\n      add\n      0x00\n      keccak256\n        /* \"contracts/Coupon.sol\":9579:9596  _balances[id][to] */\n      0x00\n        /* \"contracts/Coupon.sol\":9593:9595  to */\n      dup10\n        /* \"contracts/Coupon.sol\":9579:9596  _balances[id][to] */\n      0xffffffffffffffffffffffffffffffffffffffff\n      and\n      0xffffffffffffffffffffffffffffffffffffffff\n      and\n      dup2\n      mstore\n      0x20\n      add\n      swap1\n      dup2\n      mstore\n      0x20\n      add\n      0x00\n      keccak256\n      0x00\n        /* \"contracts/Coupon.sol\":9579:9606  _balances[id][to] += amount */\n      dup3\n      dup3\n      sload\n      tag_66\n      swap2\n      swap1\n      tag_67\n      jump\t// in\n    tag_66:\n      swap3\n      pop\n      pop\n      dup2\n      swap1\n      sstore\n      pop\n        /* \"contracts/Coupon.sol\":9658:9660  to */\n      dup7\n        /* \"contracts/Coupon.sol\":9621:9673  TransferSingle(operator, address(0), to, id, amount) */\n      0xffffffffffffffffffffffffffffffffffffffff\n      and\n        /* \"contracts/Coupon.sol\":9654:9655  0 */\n      0x00\n        /* \"contracts/Coupon.sol\":9621:9673  TransferSingle(operator, address(0), to, id, amount) */\n      0xffffffffffffffffffffffffffffffffffffffff\n      and\n        /* \"contracts/Coupon.sol\":9636:9644  operator */\n      dup5\n        /* \"contracts/Coupon.sol\":9621:9673  TransferSingle(operator, address(0), to, id, amount) */\n      0xffffffffffffffffffffffffffffffffffffffff\n      and\n      0xc3d58168c5ae7397731d063d5bbf3d657854427343f4c083240f7aacaa2d0f62\n        /* \"contracts/Coupon.sol\":9662:9664  id */\n      dup10\n        /* \"contracts/Coupon.sol\":9666:9672  amount */\n      dup10\n        /* \"contracts/Coupon.sol\":9621:9673  TransferSingle(operator, address(0), to, id, amount) */\n      mload(0x40)\n      tag_68\n      swap3\n      swap2\n      swap1\n      tag_69\n      jump\t// in\n    tag_68:\n      mload(0x40)\n      dup1\n      swap2\n      sub\n      swap1\n      log4\n        /* \"contracts/Coupon.sol\":9684:9749  _afterTokenTransfer(operator, address(0), to, ids, amounts, data) */\n      tag_70\n        /* \"contracts/Coupon.sol\":9704:9712  operator */\n      dup4\n        /* \"contracts/Coupon.sol\":9722:9723  0 */\n      0x00\n        /* \"contracts/Coupon.sol\":9726:9728  to */\n      dup10\n        /* \"contracts/Coupon.sol\":9730:9733  ids */\n      dup6\n        /* \"contracts/Coupon.sol\":9735:9742  amounts */\n      dup6\n        /* \"contracts/Coupon.sol\":9744:9748  data */\n      dup10\n        /* \"contracts/Coupon.sol\":9684:9703  _afterTokenTransfer */\n      tag_71\n        /* \"contracts/Coupon.sol\":9684:9749  _afterTokenTransfer(operator, address(0), to, ids, amounts, data) */\n      jump\t// in\n    tag_70:\n        /* \"contracts/Coupon.sol\":9760:9916  _doSafeTransferAcceptanceCheck(... */\n      tag_72\n        /* \"contracts/Coupon.sol\":9804:9812  operator */\n      dup4\n        /* \"contracts/Coupon.sol\":9834:9835  0 */\n      0x00\n        /* \"contracts/Coupon.sol\":9850:9852  to */\n      dup10\n        /* \"contracts/Coupon.sol\":9866:9868  id */\n      dup10\n        /* \"contracts/Coupon.sol\":9882:9888  amount */\n      dup10\n        /* \"contracts/Coupon.sol\":9902:9906  data */\n      dup10\n        /* \"contracts/Coupon.sol\":9760:9790  _doSafeTransferAcceptanceCheck */\n      tag_73\n        /* \"contracts/Coupon.sol\":9760:9916  _doSafeTransferAcceptanceCheck(... */\n      jump\t// in\n    tag_72:\n        /* \"contracts/Coupon.sol\":9261:9923  {... */\n      pop\n      pop\n      pop\n        /* \"contracts/Coupon.sol\":9132:9923  function _mint(... */\n      pop\n      pop\n      pop\n      pop\n      jump\t// out\n        /* \"contracts/Coupon.sol\":6869:7850  function _safeTransferFrom(... */\n    tag_48:\n        /* \"contracts/Coupon.sol\":7064:7065  0 */\n      0x00\n        /* \"contracts/Coupon.sol\":7050:7066  to != address(0) */\n      0xffffffffffffffffffffffffffffffffffffffff\n      and\n        /* \"contracts/Coupon.sol\":7050:7052  to */\n      dup5\n        /* \"contracts/Coupon.sol\":7050:7066  to != address(0) */\n      0xffffffffffffffffffffffffffffffffffffffff\n      and\n      eq\n      iszero\n        /* \"contracts/Coupon.sol\":7042:7108  require(to != address(0), \"ERC1155: transfer to the zero address\") */\n      tag_75\n      jumpi\n      mload(0x40)\n      0x08c379a000000000000000000000000000000000000000000000000000000000\n      dup2\n      mstore\n      0x04\n      add\n      tag_76\n      swap1\n      tag_77\n      jump\t// in\n    tag_76:\n      mload(0x40)\n      dup1\n      swap2\n      sub\n      swap1\n      revert\n    tag_75:\n        /* \"contracts/Coupon.sol\":7119:7135  address operator */\n      0x00\n        /* \"contracts/Coupon.sol\":7138:7150  _msgSender() */\n      tag_78\n        /* \"contracts/Coupon.sol\":7138:7148  _msgSender */\n      tag_51\n        /* \"contracts/Coupon.sol\":7138:7150  _msgSender() */\n      jump\t// in\n    tag_78:\n        /* \"contracts/Coupon.sol\":7119:7150  address operator = _msgSender() */\n      swap1\n      pop\n        /* \"contracts/Coupon.sol\":7160:7180  uint256[] memory ids */\n      0x00\n        /* \"contracts/Coupon.sol\":7183:7204  _asSingletonArray(id) */\n      tag_79\n        /* \"contracts/Coupon.sol\":7201:7203  id */\n      dup6\n        /* \"contracts/Coupon.sol\":7183:7200  _asSingletonArray */\n      tag_62\n        /* \"contracts/Coupon.sol\":7183:7204  _asSingletonArray(id) */\n      jump\t// in\n    tag_79:\n        /* \"contracts/Coupon.sol\":7160:7204  uint256[] memory ids = _asSingletonArray(id) */\n      swap1\n      pop\n        /* \"contracts/Coupon.sol\":7214:7238  uint256[] memory amounts */\n      0x00\n        /* \"contracts/Coupon.sol\":7241:7266  _asSingletonArray(amount) */\n      tag_80\n        /* \"contracts/Coupon.sol\":7259:7265  amount */\n      dup6\n        /* \"contracts/Coupon.sol\":7241:7258  _asSingletonArray */\n      tag_62\n        /* \"contracts/Coupon.sol\":7241:7266  _asSingletonArray(amount) */\n      jump\t// in\n    tag_80:\n        /* \"contracts/Coupon.sol\":7214:7266  uint256[] memory amounts = _asSingletonArray(amount) */\n      swap1\n      pop\n        /* \"contracts/Coupon.sol\":7277:7337  _beforeTokenTransfer(operator, from, to, ids, amounts, data) */\n      tag_81\n        /* \"contracts/Coupon.sol\":7298:7306  operator */\n      dup4\n        /* \"contracts/Coupon.sol\":7308:7312  from */\n      dup10\n        /* \"contracts/Coupon.sol\":7314:7316  to */\n      dup10\n        /* \"contracts/Coupon.sol\":7318:7321  ids */\n      dup6\n        /* \"contracts/Coupon.sol\":7323:7330  amounts */\n      dup6\n        /* \"contracts/Coupon.sol\":7332:7336  data */\n      dup10\n        /* \"contracts/Coupon.sol\":7277:7297  _beforeTokenTransfer */\n      tag_65\n        /* \"contracts/Coupon.sol\":7277:7337  _beforeTokenTransfer(operator, from, to, ids, amounts, data) */\n      jump\t// in\n    tag_81:\n        /* \"contracts/Coupon.sol\":7348:7367  uint256 fromBalance */\n      0x00\n        /* \"contracts/Coupon.sol\":7370:7379  _balances */\n      dup1\n        /* \"contracts/Coupon.sol\":7370:7383  _balances[id] */\n      0x00\n        /* \"contracts/Coupon.sol\":7380:7382  id */\n      dup9\n        /* \"contracts/Coupon.sol\":7370:7383  _balances[id] */\n      dup2\n      mstore\n      0x20\n      add\n      swap1\n      dup2\n      mstore\n      0x20\n      add\n      0x00\n      keccak256\n        /* \"contracts/Coupon.sol\":7370:7389  _balances[id][from] */\n      0x00\n        /* \"contracts/Coupon.sol\":7384:7388  from */\n      dup11\n        /* \"contracts/Coupon.sol\":7370:7389  _balances[id][from] */\n      0xffffffffffffffffffffffffffffffffffffffff\n      and\n      0xffffffffffffffffffffffffffffffffffffffff\n      and\n      dup2\n      mstore\n      0x20\n      add\n      swap1\n      dup2\n      mstore\n      0x20\n      add\n      0x00\n      keccak256\n      sload\n        /* \"contracts/Coupon.sol\":7348:7389  uint256 fromBalance = _balances[id][from] */\n      swap1\n      pop\n        /* \"contracts/Coupon.sol\":7435:7441  amount */\n      dup6\n        /* \"contracts/Coupon.sol\":7420:7431  fromBalance */\n      dup2\n        /* \"contracts/Coupon.sol\":7420:7441  fromBalance >= amount */\n      lt\n      iszero\n        /* \"contracts/Coupon.sol\":7399:7509  require(... */\n      tag_82\n      jumpi\n      mload(0x40)\n      0x08c379a000000000000000000000000000000000000000000000000000000000\n      dup2\n      mstore\n      0x04\n      add\n      tag_83\n      swap1\n      tag_84\n      jump\t// in\n    tag_83:\n      mload(0x40)\n      dup1\n      swap2\n      sub\n      swap1\n      revert\n    tag_82:\n        /* \"contracts/Coupon.sol\":7579:7585  amount */\n      dup6\n        /* \"contracts/Coupon.sol\":7565:7576  fromBalance */\n      dup2\n        /* \"contracts/Coupon.sol\":7565:7585  fromBalance - amount */\n      sub\n        /* \"contracts/Coupon.sol\":7543:7552  _balances */\n      0x00\n        /* \"contracts/Coupon.sol\":7543:7556  _balances[id] */\n      dup1\n        /* \"contracts/Coupon.sol\":7553:7555  id */\n      dup10\n        /* \"contracts/Coupon.sol\":7543:7556  _balances[id] */\n      dup2\n      mstore\n      0x20\n      add\n      swap1\n      dup2\n      mstore\n      0x20\n      add\n      0x00\n      keccak256\n        /* \"contracts/Coupon.sol\":7543:7562  _balances[id][from] */\n      0x00\n        /* \"contracts/Coupon.sol\":7557:7561  from */\n      dup12\n        /* \"contracts/Coupon.sol\":7543:7562  _balances[id][from] */\n      0xffffffffffffffffffffffffffffffffffffffff\n      and\n      0xffffffffffffffffffffffffffffffffffffffff\n      and\n      dup2\n      mstore\n      0x20\n      add\n      swap1\n      dup2\n      mstore\n      0x20\n      add\n      0x00\n      keccak256\n        /* \"contracts/Coupon.sol\":7543:7585  _balances[id][from] = fromBalance - amount */\n      dup2\n      swap1\n      sstore\n      pop\n        /* \"contracts/Coupon.sol\":7626:7632  amount */\n      dup6\n        /* \"contracts/Coupon.sol\":7605:7614  _balances */\n      0x00\n        /* \"contracts/Coupon.sol\":7605:7618  _balances[id] */\n      dup1\n        /* \"contracts/Coupon.sol\":7615:7617  id */\n      dup10\n        /* \"contracts/Coupon.sol\":7605:7618  _balances[id] */\n      dup2\n      mstore\n      0x20\n      add\n      swap1\n      dup2\n      mstore\n      0x20\n      add\n      0x00\n      keccak256\n        /* \"contracts/Coupon.sol\":7605:7622  _balances[id][to] */\n      0x00\n        /* \"contracts/Coupon.sol\":7619:7621  to */\n      dup11\n        /* \"contracts/Coupon.sol\":7605:7622  _balances[id][to] */\n      0xffffffffffffffffffffffffffffffffffffffff\n      and\n      0xffffffffffffffffffffffffffffffffffffffff\n      and\n      dup2\n      mstore\n      0x20\n      add\n      swap1\n      dup2\n      mstore\n      0x20\n      add\n      0x00\n      keccak256\n      0x00\n        /* \"contracts/Coupon.sol\":7605:7632  _balances[id][to] += amount */\n      dup3\n      dup3\n      sload\n      tag_85\n      swap2\n      swap1\n      tag_67\n      jump\t// in\n    tag_85:\n      swap3\n      pop\n      pop\n      dup2\n      swap1\n      sstore\n      pop\n        /* \"contracts/Coupon.sol\":7679:7681  to */\n      dup8\n        /* \"contracts/Coupon.sol\":7648:7694  TransferSingle(operator, from, to, id, amount) */\n      0xffffffffffffffffffffffffffffffffffffffff\n      and\n        /* \"contracts/Coupon.sol\":7673:7677  from */\n      dup10\n        /* \"contracts/Coupon.sol\":7648:7694  TransferSingle(operator, from, to, id, amount) */\n      0xffffffffffffffffffffffffffffffffffffffff\n      and\n        /* \"contracts/Coupon.sol\":7663:7671  operator */\n      dup6\n        /* \"contracts/Coupon.sol\":7648:7694  TransferSingle(operator, from, to, id, amount) */\n      0xffffffffffffffffffffffffffffffffffffffff\n      and\n      0xc3d58168c5ae7397731d063d5bbf3d657854427343f4c083240f7aacaa2d0f62\n        /* \"contracts/Coupon.sol\":7683:7685  id */\n      dup11\n        /* \"contracts/Coupon.sol\":7687:7693  amount */\n      dup11\n        /* \"contracts/Coupon.sol\":7648:7694  TransferSingle(operator, from, to, id, amount) */\n      mload(0x40)\n      tag_86\n      swap3\n      swap2\n      swap1\n      tag_69\n      jump\t// in\n    tag_86:\n      mload(0x40)\n      dup1\n      swap2\n      sub\n      swap1\n      log4\n        /* \"contracts/Coupon.sol\":7705:7764  _afterTokenTransfer(operator, from, to, ids, amounts, data) */\n      tag_87\n        /* \"contracts/Coupon.sol\":7725:7733  operator */\n      dup5\n        /* \"contracts/Coupon.sol\":7735:7739  from */\n      dup11\n        /* \"contracts/Coupon.sol\":7741:7743  to */\n      dup11\n        /* \"contracts/Coupon.sol\":7745:7748  ids */\n      dup7\n        /* \"contracts/Coupon.sol\":7750:7757  amounts */\n      dup7\n        /* \"contracts/Coupon.sol\":7759:7763  data */\n      dup11\n        /* \"contracts/Coupon.sol\":7705:7724  _afterTokenTransfer */\n      tag_71\n        /* \"contracts/Coupon.sol\":7705:7764  _afterTokenTransfer(operator, from, to, ids, amounts, data) */\n      jump\t// in\n    tag_87:\n        /* \"contracts/Coupon.sol\":7775:7843  _doSafeTransferAcceptanceCheck(operator, from, to, id, amount, data) */\n      tag_88\n        /* \"contracts/Coupon.sol\":7806:7814  operator */\n      dup5\n        /* \"contracts/Coupon.sol\":7816:7820  from */\n      dup11\n        /* \"contracts/Coupon.sol\":7822:7824  to */\n      dup11\n        /* \"contracts/Coupon.sol\":7826:7828  id */\n      dup11\n        /* \"contracts/Coupon.sol\":7830:7836  amount */\n      dup11\n        /* \"contracts/Coupon.sol\":7838:7842  data */\n      dup11\n        /* \"contracts/Coupon.sol\":7775:7805  _doSafeTransferAcceptanceCheck */\n      tag_73\n        /* \"contracts/Coupon.sol\":7775:7843  _doSafeTransferAcceptanceCheck(operator, from, to, id, amount, data) */\n      jump\t// in\n    tag_88:\n        /* \"contracts/Coupon.sol\":7032:7850  {... */\n      pop\n      pop\n      pop\n      pop\n        /* \"contracts/Coupon.sol\":6869:7850  function _safeTransferFrom(... */\n      pop\n      pop\n      pop\n      pop\n      pop\n      jump\t// out\n        /* \"contracts/Coupon.sol\":4885:4972  function _msgSender() private view returns (address) {... */\n    tag_51:\n        /* \"contracts/Coupon.sol\":4929:4936  address */\n      0x00\n        /* \"contracts/Coupon.sol\":4955:4965  msg.sender */\n      caller\n        /* \"contracts/Coupon.sol\":4948:4965  return msg.sender */\n      swap1\n      pop\n        /* \"contracts/Coupon.sol\":4885:4972  function _msgSender() private view returns (address) {... */\n      swap1\n      jump\t// out\n        /* \"contracts/Coupon.sol\":14173:14394  function _asSingletonArray(uint256 element)... */\n    tag_62:\n        /* \"contracts/Coupon.sol\":14263:14279  uint256[] memory */\n      0x60\n        /* \"contracts/Coupon.sol\":14295:14317  uint256[] memory array */\n      0x00\n        /* \"contracts/Coupon.sol\":14334:14335  1 */\n      0x01\n        /* \"contracts/Coupon.sol\":14320:14336  new uint256[](1) */\n      0xffffffffffffffff\n      dup2\n      gt\n      iszero\n      tag_91\n      jumpi\n      tag_92\n      tag_93\n      jump\t// in\n    tag_92:\n    tag_91:\n      mload(0x40)\n      swap1\n      dup1\n      dup3\n      mstore\n      dup1\n      0x20\n      mul\n      0x20\n      add\n      dup3\n      add\n      0x40\n      mstore\n      dup1\n      iszero\n      tag_94\n      jumpi\n      dup2\n      0x20\n      add\n      0x20\n      dup3\n      mul\n      dup1\n      calldatasize\n      dup4\n      calldatacopy\n      dup1\n      dup3\n      add\n      swap2\n      pop\n      pop\n      swap1\n      pop\n    tag_94:\n      pop\n        /* \"contracts/Coupon.sol\":14295:14336  uint256[] memory array = new uint256[](1) */\n      swap1\n      pop\n        /* \"contracts/Coupon.sol\":14357:14364  element */\n      dup3\n        /* \"contracts/Coupon.sol\":14346:14351  array */\n      dup2\n        /* \"contracts/Coupon.sol\":14352:14353  0 */\n      0x00\n        /* \"contracts/Coupon.sol\":14346:14354  array[0] */\n      dup2\n      mload\n      dup2\n      lt\n      tag_95\n      jumpi\n      tag_96\n      tag_97\n      jump\t// in\n    tag_96:\n    tag_95:\n      0x20\n      mul\n      0x20\n      add\n      add\n        /* \"contracts/Coupon.sol\":14346:14364  array[0] = element */\n      dup2\n      dup2\n      mstore\n      pop\n      pop\n        /* \"contracts/Coupon.sol\":14382:14387  array */\n      dup1\n        /* \"contracts/Coupon.sol\":14375:14387  return array */\n      swap2\n      pop\n      pop\n        /* \"contracts/Coupon.sol\":14173:14394  function _asSingletonArray(uint256 element)... */\n      swap2\n      swap1\n      pop\n      jump\t// out\n        /* \"contracts/Coupon.sol\":11931:12145  function _beforeTokenTransfer(... */\n    tag_65:\n      pop\n      pop\n      pop\n      pop\n      pop\n      pop\n      jump\t// out\n        /* \"contracts/Coupon.sol\":13078:13291  function _afterTokenTransfer(... */\n    tag_71:\n      pop\n      pop\n      pop\n      pop\n      pop\n      pop\n      jump\t// out\n        /* \"contracts/Coupon.sol\":13297:14167  function _doSafeTransferAcceptanceCheck(... */\n    tag_73:\n        /* \"contracts/Coupon.sol\":13504:13518  isContract(to) */\n      tag_101\n        /* \"contracts/Coupon.sol\":13515:13517  to */\n      dup5\n        /* \"contracts/Coupon.sol\":13504:13514  isContract */\n      tag_102\n        /* \"contracts/Coupon.sol\":13504:13518  isContract(to) */\n      jump\t// in\n    tag_101:\n        /* \"contracts/Coupon.sol\":13500:14161  if (isContract(to)) {... */\n      iszero\n      tag_103\n      jumpi\n        /* \"contracts/Coupon.sol\":13571:13573  to */\n      dup4\n        /* \"contracts/Coupon.sol\":13554:13592  IERC1155Receiver(to).onERC1155Received */\n      0xffffffffffffffffffffffffffffffffffffffff\n      and\n      0xf23a6e61\n        /* \"contracts/Coupon.sol\":13614:13622  operator */\n      dup8\n        /* \"contracts/Coupon.sol\":13644:13648  from */\n      dup8\n        /* \"contracts/Coupon.sol\":13670:13672  id */\n      dup7\n        /* \"contracts/Coupon.sol\":13694:13700  amount */\n      dup7\n        /* \"contracts/Coupon.sol\":13722:13726  data */\n      dup7\n        /* \"contracts/Coupon.sol\":13554:13744  IERC1155Receiver(to).onERC1155Received(... */\n      mload(0x40)\n      dup7\n      0xffffffff\n      and\n      0xe0\n      shl\n      dup2\n      mstore\n      0x04\n      add\n      tag_104\n      swap6\n      swap5\n      swap4\n      swap3\n      swap2\n      swap1\n      tag_105\n      jump\t// in\n    tag_104:\n      0x20\n      mload(0x40)\n      dup1\n      dup4\n      sub\n      dup2\n      0x00\n      dup8\n      dup1\n      extcodesize\n      iszero\n      dup1\n      iszero\n      tag_106\n      jumpi\n      0x00\n      dup1\n      revert\n    tag_106:\n      pop\n      gas\n      call\n      swap3\n      pop\n      pop\n      pop\n      dup1\n      iszero\n      tag_107\n      jumpi\n      pop\n      mload(0x40)\n      returndatasize\n      not(0x1f)\n      0x1f\n      dup3\n      add\n      and\n      dup3\n      add\n      dup1\n      0x40\n      mstore\n      pop\n      dup2\n      add\n      swap1\n      tag_108\n      swap2\n      swap1\n      tag_109\n      jump\t// in\n    tag_108:\n      0x01\n    tag_107:\n        /* \"contracts/Coupon.sol\":13534:14151  try... */\n      tag_110\n      jumpi\n      tag_114\n      tag_115\n      jump\t// in\n    tag_114:\n      dup1\n      0x08c379a0\n      eq\n      iszero\n      tag_113\n      jumpi\n      pop\n      tag_116\n      tag_117\n      jump\t// in\n    tag_116:\n      dup1\n      tag_118\n      jumpi\n      pop\n      jump(tag_112)\n    tag_118:\n        /* \"contracts/Coupon.sol\":14027:14033  reason */\n      dup1\n        /* \"contracts/Coupon.sol\":14020:14034  revert(reason) */\n      mload(0x40)\n      0x08c379a000000000000000000000000000000000000000000000000000000000\n      dup2\n      mstore\n      0x04\n      add\n      tag_119\n      swap2\n      swap1\n      tag_19\n      jump\t// in\n    tag_119:\n      mload(0x40)\n      dup1\n      swap2\n      sub\n      swap1\n      revert\n        /* \"contracts/Coupon.sol\":13534:14151  try... */\n    tag_113:\n      pop\n    tag_112:\n        /* \"contracts/Coupon.sol\":14074:14136  revert(\"ERC1155: transfer to non ERC1155Receiver implementer\") */\n      mload(0x40)\n      0x08c379a000000000000000000000000000000000000000000000000000000000\n      dup2\n      mstore\n      0x04\n      add\n      tag_120\n      swap1\n      tag_121\n      jump\t// in\n    tag_120:\n      mload(0x40)\n      dup1\n      swap2\n      sub\n      swap1\n      revert\n        /* \"contracts/Coupon.sol\":13534:14151  try... */\n    tag_110:\n        /* \"contracts/Coupon.sol\":13817:13860  IERC1155Receiver.onERC1155Received.selector */\n      shl(0xe0, 0xf23a6e61)\n        /* \"contracts/Coupon.sol\":13805:13860  response != IERC1155Receiver.onERC1155Received.selector */\n      not(0xffffffffffffffffffffffffffffffffffffffffffffffffffffffff)\n      and\n        /* \"contracts/Coupon.sol\":13805:13813  response */\n      dup2\n        /* \"contracts/Coupon.sol\":13805:13860  response != IERC1155Receiver.onERC1155Received.selector */\n      not(0xffffffffffffffffffffffffffffffffffffffffffffffffffffffff)\n      and\n      eq\n        /* \"contracts/Coupon.sol\":13801:13953  if (response != IERC1155Receiver.onERC1155Received.selector) {... */\n      tag_123\n      jumpi\n        /* \"contracts/Coupon.sol\":13884:13934  revert(\"ERC1155: ERC1155Receiver rejected tokens\") */\n      mload(0x40)\n      0x08c379a000000000000000000000000000000000000000000000000000000000\n      dup2\n      mstore\n      0x04\n      add\n      tag_124\n      swap1\n      tag_125\n      jump\t// in\n    tag_124:\n      mload(0x40)\n      dup1\n      swap2\n      sub\n      swap1\n      revert\n        /* \"contracts/Coupon.sol\":13801:13953  if (response != IERC1155Receiver.onERC1155Received.selector) {... */\n    tag_123:\n        /* \"contracts/Coupon.sol\":13757:13967  returns (bytes4 response) {... */\n      pop\n        /* \"contracts/Coupon.sol\":13500:14161  if (isContract(to)) {... */\n    tag_103:\n        /* \"contracts/Coupon.sol\":13297:14167  function _doSafeTransferAcceptanceCheck(... */\n      pop\n      pop\n      pop\n      pop\n      pop\n      pop\n      jump\t// out\n        /* \"contracts/Coupon.sol\":4560:4879  function isContract(address account) private view returns (bool) {... */\n    tag_102:\n        /* \"contracts/Coupon.sol\":4619:4623  bool */\n      0x00\n        /* \"contracts/Coupon.sol\":4871:4872  0 */\n      dup1\n        /* \"contracts/Coupon.sol\":4849:4856  account */\n      dup3\n        /* \"contracts/Coupon.sol\":4849:4868  account.code.length */\n      0xffffffffffffffffffffffffffffffffffffffff\n      and\n      extcodesize\n        /* \"contracts/Coupon.sol\":4849:4872  account.code.length > 0 */\n      gt\n        /* \"contracts/Coupon.sol\":4842:4872  return account.code.length > 0 */\n      swap1\n      pop\n        /* \"contracts/Coupon.sol\":4560:4879  function isContract(address account) private view returns (bool) {... */\n      swap2\n      swap1\n      pop\n      jump\t// out\n        /* \"#utility.yul\":7:417   */\n    tag_128:\n        /* \"#utility.yul\":84:89   */\n      0x00\n        /* \"#utility.yul\":109:174   */\n      tag_130\n        /* \"#utility.yul\":125:173   */\n      tag_131\n        /* \"#utility.yul\":166:172   */\n      dup5\n        /* \"#utility.yul\":125:173   */\n      tag_132\n      jump\t// in\n    tag_131:\n        /* \"#utility.yul\":109:174   */\n      tag_133\n      jump\t// in\n    tag_130:\n        /* \"#utility.yul\":100:174   */\n      swap1\n      pop\n        /* \"#utility.yul\":197:203   */\n      dup3\n        /* \"#utility.yul\":190:195   */\n      dup2\n        /* \"#utility.yul\":183:204   */\n      mstore\n        /* \"#utility.yul\":235:239   */\n      0x20\n        /* \"#utility.yul\":228:233   */\n      dup2\n        /* \"#utility.yul\":224:240   */\n      add\n        /* \"#utility.yul\":273:276   */\n      dup5\n        /* \"#utility.yul\":264:270   */\n      dup5\n        /* \"#utility.yul\":259:262   */\n      dup5\n        /* \"#utility.yul\":255:271   */\n      add\n        /* \"#utility.yul\":252:277   */\n      gt\n        /* \"#utility.yul\":249:361   */\n      iszero\n      tag_134\n      jumpi\n        /* \"#utility.yul\":280:359   */\n      tag_135\n      tag_136\n      jump\t// in\n    tag_135:\n        /* \"#utility.yul\":249:361   */\n    tag_134:\n        /* \"#utility.yul\":370:411   */\n      tag_137\n        /* \"#utility.yul\":404:410   */\n      dup5\n        /* \"#utility.yul\":399:402   */\n      dup3\n        /* \"#utility.yul\":394:397   */\n      dup6\n        /* \"#utility.yul\":370:411   */\n      tag_138\n      jump\t// in\n    tag_137:\n        /* \"#utility.yul\":90:417   */\n      pop\n        /* \"#utility.yul\":7:417   */\n      swap4\n      swap3\n      pop\n      pop\n      pop\n      jump\t// out\n        /* \"#utility.yul\":423:562   */\n    tag_139:\n        /* \"#utility.yul\":469:474   */\n      0x00\n        /* \"#utility.yul\":507:513   */\n      dup2\n        /* \"#utility.yul\":494:514   */\n      calldataload\n        /* \"#utility.yul\":485:514   */\n      swap1\n      pop\n        /* \"#utility.yul\":523:556   */\n      tag_141\n        /* \"#utility.yul\":550:555   */\n      dup2\n        /* \"#utility.yul\":523:556   */\n      tag_142\n      jump\t// in\n    tag_141:\n        /* \"#utility.yul\":423:562   */\n      swap3\n      swap2\n      pop\n      pop\n      jump\t// out\n        /* \"#utility.yul\":568:709   */\n    tag_143:\n        /* \"#utility.yul\":624:629   */\n      0x00\n        /* \"#utility.yul\":655:661   */\n      dup2\n        /* \"#utility.yul\":649:662   */\n      mload\n        /* \"#utility.yul\":640:662   */\n      swap1\n      pop\n        /* \"#utility.yul\":671:703   */\n      tag_145\n        /* \"#utility.yul\":697:702   */\n      dup2\n        /* \"#utility.yul\":671:703   */\n      tag_146\n      jump\t// in\n    tag_145:\n        /* \"#utility.yul\":568:709   */\n      swap3\n      swap2\n      pop\n      pop\n      jump\t// out\n        /* \"#utility.yul\":728:1066   */\n    tag_147:\n        /* \"#utility.yul\":783:788   */\n      0x00\n        /* \"#utility.yul\":832:835   */\n      dup3\n        /* \"#utility.yul\":825:829   */\n      0x1f\n        /* \"#utility.yul\":817:823   */\n      dup4\n        /* \"#utility.yul\":813:830   */\n      add\n        /* \"#utility.yul\":809:836   */\n      slt\n        /* \"#utility.yul\":799:921   */\n      tag_149\n      jumpi\n        /* \"#utility.yul\":840:919   */\n      tag_150\n      tag_151\n      jump\t// in\n    tag_150:\n        /* \"#utility.yul\":799:921   */\n    tag_149:\n        /* \"#utility.yul\":957:963   */\n      dup2\n        /* \"#utility.yul\":944:964   */\n      calldataload\n        /* \"#utility.yul\":982:1060   */\n      tag_152\n        /* \"#utility.yul\":1056:1059   */\n      dup5\n        /* \"#utility.yul\":1048:1054   */\n      dup3\n        /* \"#utility.yul\":1041:1045   */\n      0x20\n        /* \"#utility.yul\":1033:1039   */\n      dup7\n        /* \"#utility.yul\":1029:1046   */\n      add\n        /* \"#utility.yul\":982:1060   */\n      tag_128\n      jump\t// in\n    tag_152:\n        /* \"#utility.yul\":973:1060   */\n      swap2\n      pop\n        /* \"#utility.yul\":789:1066   */\n      pop\n        /* \"#utility.yul\":728:1066   */\n      swap3\n      swap2\n      pop\n      pop\n      jump\t// out\n        /* \"#utility.yul\":1072:1211   */\n    tag_153:\n        /* \"#utility.yul\":1118:1123   */\n      0x00\n        /* \"#utility.yul\":1156:1162   */\n      dup2\n        /* \"#utility.yul\":1143:1163   */\n      calldataload\n        /* \"#utility.yul\":1134:1163   */\n      swap1\n      pop\n        /* \"#utility.yul\":1172:1205   */\n      tag_155\n        /* \"#utility.yul\":1199:1204   */\n      dup2\n        /* \"#utility.yul\":1172:1205   */\n      tag_156\n      jump\t// in\n    tag_155:\n        /* \"#utility.yul\":1072:1211   */\n      swap3\n      swap2\n      pop\n      pop\n      jump\t// out\n        /* \"#utility.yul\":1217:1982   */\n    tag_26:\n        /* \"#utility.yul\":1303:1309   */\n      0x00\n        /* \"#utility.yul\":1311:1317   */\n      dup1\n        /* \"#utility.yul\":1319:1325   */\n      0x00\n        /* \"#utility.yul\":1327:1333   */\n      dup1\n        /* \"#utility.yul\":1376:1379   */\n      0x80\n        /* \"#utility.yul\":1364:1373   */\n      dup6\n        /* \"#utility.yul\":1355:1362   */\n      dup8\n        /* \"#utility.yul\":1351:1374   */\n      sub\n        /* \"#utility.yul\":1347:1380   */\n      slt\n        /* \"#utility.yul\":1344:1464   */\n      iszero\n      tag_158\n      jumpi\n        /* \"#utility.yul\":1383:1462   */\n      tag_159\n      tag_160\n      jump\t// in\n    tag_159:\n        /* \"#utility.yul\":1344:1464   */\n    tag_158:\n        /* \"#utility.yul\":1503:1504   */\n      0x00\n        /* \"#utility.yul\":1528:1581   */\n      tag_161\n        /* \"#utility.yul\":1573:1580   */\n      dup8\n        /* \"#utility.yul\":1564:1570   */\n      dup3\n        /* \"#utility.yul\":1553:1562   */\n      dup9\n        /* \"#utility.yul\":1549:1571   */\n      add\n        /* \"#utility.yul\":1528:1581   */\n      tag_139\n      jump\t// in\n    tag_161:\n        /* \"#utility.yul\":1518:1581   */\n      swap5\n      pop\n        /* \"#utility.yul\":1474:1591   */\n      pop\n        /* \"#utility.yul\":1630:1632   */\n      0x20\n        /* \"#utility.yul\":1656:1709   */\n      tag_162\n        /* \"#utility.yul\":1701:1708   */\n      dup8\n        /* \"#utility.yul\":1692:1698   */\n      dup3\n        /* \"#utility.yul\":1681:1690   */\n      dup9\n        /* \"#utility.yul\":1677:1699   */\n      add\n        /* \"#utility.yul\":1656:1709   */\n      tag_139\n      jump\t// in\n    tag_162:\n        /* \"#utility.yul\":1646:1709   */\n      swap4\n      pop\n        /* \"#utility.yul\":1601:1719   */\n      pop\n        /* \"#utility.yul\":1758:1760   */\n      0x40\n        /* \"#utility.yul\":1784:1837   */\n      tag_163\n        /* \"#utility.yul\":1829:1836   */\n      dup8\n        /* \"#utility.yul\":1820:1826   */\n      dup3\n        /* \"#utility.yul\":1809:1818   */\n      dup9\n        /* \"#utility.yul\":1805:1827   */\n      add\n        /* \"#utility.yul\":1784:1837   */\n      tag_153\n      jump\t// in\n    tag_163:\n        /* \"#utility.yul\":1774:1837   */\n      swap3\n      pop\n        /* \"#utility.yul\":1729:1847   */\n      pop\n        /* \"#utility.yul\":1886:1888   */\n      0x60\n        /* \"#utility.yul\":1912:1965   */\n      tag_164\n        /* \"#utility.yul\":1957:1964   */\n      dup8\n        /* \"#utility.yul\":1948:1954   */\n      dup3\n        /* \"#utility.yul\":1937:1946   */\n      dup9\n        /* \"#utility.yul\":1933:1955   */\n      add\n        /* \"#utility.yul\":1912:1965   */\n      tag_153\n      jump\t// in\n    tag_164:\n        /* \"#utility.yul\":1902:1965   */\n      swap2\n      pop\n        /* \"#utility.yul\":1857:1975   */\n      pop\n        /* \"#utility.yul\":1217:1982   */\n      swap3\n      swap6\n      swap2\n      swap5\n      pop\n      swap3\n      pop\n      jump\t// out\n        /* \"#utility.yul\":1988:3077   */\n    tag_30:\n        /* \"#utility.yul\":2092:2098   */\n      0x00\n        /* \"#utility.yul\":2100:2106   */\n      dup1\n        /* \"#utility.yul\":2108:2114   */\n      0x00\n        /* \"#utility.yul\":2116:2122   */\n      dup1\n        /* \"#utility.yul\":2124:2130   */\n      0x00\n        /* \"#utility.yul\":2173:2176   */\n      0xa0\n        /* \"#utility.yul\":2161:2170   */\n      dup7\n        /* \"#utility.yul\":2152:2159   */\n      dup9\n        /* \"#utility.yul\":2148:2171   */\n      sub\n        /* \"#utility.yul\":2144:2177   */\n      slt\n        /* \"#utility.yul\":2141:2261   */\n      iszero\n      tag_166\n      jumpi\n        /* \"#utility.yul\":2180:2259   */\n      tag_167\n      tag_160\n      jump\t// in\n    tag_167:\n        /* \"#utility.yul\":2141:2261   */\n    tag_166:\n        /* \"#utility.yul\":2300:2301   */\n      0x00\n        /* \"#utility.yul\":2325:2378   */\n      tag_168\n        /* \"#utility.yul\":2370:2377   */\n      dup9\n        /* \"#utility.yul\":2361:2367   */\n      dup3\n        /* \"#utility.yul\":2350:2359   */\n      dup10\n        /* \"#utility.yul\":2346:2368   */\n      add\n        /* \"#utility.yul\":2325:2378   */\n      tag_139\n      jump\t// in\n    tag_168:\n        /* \"#utility.yul\":2315:2378   */\n      swap6\n      pop\n        /* \"#utility.yul\":2271:2388   */\n      pop\n        /* \"#utility.yul\":2427:2429   */\n      0x20\n        /* \"#utility.yul\":2453:2506   */\n      tag_169\n        /* \"#utility.yul\":2498:2505   */\n      dup9\n        /* \"#utility.yul\":2489:2495   */\n      dup3\n        /* \"#utility.yul\":2478:2487   */\n      dup10\n        /* \"#utility.yul\":2474:2496   */\n      add\n        /* \"#utility.yul\":2453:2506   */\n      tag_139\n      jump\t// in\n    tag_169:\n        /* \"#utility.yul\":2443:2506   */\n      swap5\n      pop\n        /* \"#utility.yul\":2398:2516   */\n      pop\n        /* \"#utility.yul\":2555:2557   */\n      0x40\n        /* \"#utility.yul\":2581:2634   */\n      tag_170\n        /* \"#utility.yul\":2626:2633   */\n      dup9\n        /* \"#utility.yul\":2617:2623   */\n      dup3\n        /* \"#utility.yul\":2606:2615   */\n      dup10\n        /* \"#utility.yul\":2602:2624   */\n      add\n        /* \"#utility.yul\":2581:2634   */\n      tag_153\n      jump\t// in\n    tag_170:\n        /* \"#utility.yul\":2571:2634   */\n      swap4\n      pop\n        /* \"#utility.yul\":2526:2644   */\n      pop\n        /* \"#utility.yul\":2683:2685   */\n      0x60\n        /* \"#utility.yul\":2709:2762   */\n      tag_171\n        /* \"#utility.yul\":2754:2761   */\n      dup9\n        /* \"#utility.yul\":2745:2751   */\n      dup3\n        /* \"#utility.yul\":2734:2743   */\n      dup10\n        /* \"#utility.yul\":2730:2752   */\n      add\n        /* \"#utility.yul\":2709:2762   */\n      tag_153\n      jump\t// in\n    tag_171:\n        /* \"#utility.yul\":2699:2762   */\n      swap3\n      pop\n        /* \"#utility.yul\":2654:2772   */\n      pop\n        /* \"#utility.yul\":2839:2842   */\n      0x80\n        /* \"#utility.yul\":2828:2837   */\n      dup7\n        /* \"#utility.yul\":2824:2843   */\n      add\n        /* \"#utility.yul\":2811:2844   */\n      calldataload\n        /* \"#utility.yul\":2871:2889   */\n      0xffffffffffffffff\n        /* \"#utility.yul\":2863:2869   */\n      dup2\n        /* \"#utility.yul\":2860:2890   */\n      gt\n        /* \"#utility.yul\":2857:2974   */\n      iszero\n      tag_172\n      jumpi\n        /* \"#utility.yul\":2893:2972   */\n      tag_173\n      tag_174\n      jump\t// in\n    tag_173:\n        /* \"#utility.yul\":2857:2974   */\n    tag_172:\n        /* \"#utility.yul\":2998:3060   */\n      tag_175\n        /* \"#utility.yul\":3052:3059   */\n      dup9\n        /* \"#utility.yul\":3043:3049   */\n      dup3\n        /* \"#utility.yul\":3032:3041   */\n      dup10\n        /* \"#utility.yul\":3028:3050   */\n      add\n        /* \"#utility.yul\":2998:3060   */\n      tag_147\n      jump\t// in\n    tag_175:\n        /* \"#utility.yul\":2988:3060   */\n      swap2\n      pop\n        /* \"#utility.yul\":2782:3070   */\n      pop\n        /* \"#utility.yul\":1988:3077   */\n      swap3\n      swap6\n      pop\n      swap3\n      swap6\n      swap1\n      swap4\n      pop\n      jump\t// out\n        /* \"#utility.yul\":3083:3557   */\n    tag_10:\n        /* \"#utility.yul\":3151:3157   */\n      0x00\n        /* \"#utility.yul\":3159:3165   */\n      dup1\n        /* \"#utility.yul\":3208:3210   */\n      0x40\n        /* \"#utility.yul\":3196:3205   */\n      dup4\n        /* \"#utility.yul\":3187:3194   */\n      dup6\n        /* \"#utility.yul\":3183:3206   */\n      sub\n        /* \"#utility.yul\":3179:3211   */\n      slt\n        /* \"#utility.yul\":3176:3295   */\n      iszero\n      tag_177\n      jumpi\n        /* \"#utility.yul\":3214:3293   */\n      tag_178\n      tag_160\n      jump\t// in\n    tag_178:\n        /* \"#utility.yul\":3176:3295   */\n    tag_177:\n        /* \"#utility.yul\":3334:3335   */\n      0x00\n        /* \"#utility.yul\":3359:3412   */\n      tag_179\n        /* \"#utility.yul\":3404:3411   */\n      dup6\n        /* \"#utility.yul\":3395:3401   */\n      dup3\n        /* \"#utility.yul\":3384:3393   */\n      dup7\n        /* \"#utility.yul\":3380:3402   */\n      add\n        /* \"#utility.yul\":3359:3412   */\n      tag_139\n      jump\t// in\n    tag_179:\n        /* \"#utility.yul\":3349:3412   */\n      swap3\n      pop\n        /* \"#utility.yul\":3305:3422   */\n      pop\n        /* \"#utility.yul\":3461:3463   */\n      0x20\n        /* \"#utility.yul\":3487:3540   */\n      tag_180\n        /* \"#utility.yul\":3532:3539   */\n      dup6\n        /* \"#utility.yul\":3523:3529   */\n      dup3\n        /* \"#utility.yul\":3512:3521   */\n      dup7\n        /* \"#utility.yul\":3508:3530   */\n      add\n        /* \"#utility.yul\":3487:3540   */\n      tag_153\n      jump\t// in\n    tag_180:\n        /* \"#utility.yul\":3477:3540   */\n      swap2\n      pop\n        /* \"#utility.yul\":3432:3550   */\n      pop\n        /* \"#utility.yul\":3083:3557   */\n      swap3\n      pop\n      swap3\n      swap1\n      pop\n      jump\t// out\n        /* \"#utility.yul\":3563:3912   */\n    tag_109:\n        /* \"#utility.yul\":3632:3638   */\n      0x00\n        /* \"#utility.yul\":3681:3683   */\n      0x20\n        /* \"#utility.yul\":3669:3678   */\n      dup3\n        /* \"#utility.yul\":3660:3667   */\n      dup5\n        /* \"#utility.yul\":3656:3679   */\n      sub\n        /* \"#utility.yul\":3652:3684   */\n      slt\n        /* \"#utility.yul\":3649:3768   */\n      iszero\n      tag_182\n      jumpi\n        /* \"#utility.yul\":3687:3766   */\n      tag_183\n      tag_160\n      jump\t// in\n    tag_183:\n        /* \"#utility.yul\":3649:3768   */\n    tag_182:\n        /* \"#utility.yul\":3807:3808   */\n      0x00\n        /* \"#utility.yul\":3832:3895   */\n      tag_184\n        /* \"#utility.yul\":3887:3894   */\n      dup5\n        /* \"#utility.yul\":3878:3884   */\n      dup3\n        /* \"#utility.yul\":3867:3876   */\n      dup6\n        /* \"#utility.yul\":3863:3885   */\n      add\n        /* \"#utility.yul\":3832:3895   */\n      tag_143\n      jump\t// in\n    tag_184:\n        /* \"#utility.yul\":3822:3895   */\n      swap2\n      pop\n        /* \"#utility.yul\":3778:3905   */\n      pop\n        /* \"#utility.yul\":3563:3912   */\n      swap3\n      swap2\n      pop\n      pop\n      jump\t// out\n        /* \"#utility.yul\":3918:4247   */\n    tag_16:\n        /* \"#utility.yul\":3977:3983   */\n      0x00\n        /* \"#utility.yul\":4026:4028   */\n      0x20\n        /* \"#utility.yul\":4014:4023   */\n      dup3\n        /* \"#utility.yul\":4005:4012   */\n      dup5\n        /* \"#utility.yul\":4001:4024   */\n      sub\n        /* \"#utility.yul\":3997:4029   */\n      slt\n        /* \"#utility.yul\":3994:4113   */\n      iszero\n      tag_186\n      jumpi\n        /* \"#utility.yul\":4032:4111   */\n      tag_187\n      tag_160\n      jump\t// in\n    tag_187:\n        /* \"#utility.yul\":3994:4113   */\n    tag_186:\n        /* \"#utility.yul\":4152:4153   */\n      0x00\n        /* \"#utility.yul\":4177:4230   */\n      tag_188\n        /* \"#utility.yul\":4222:4229   */\n      dup5\n        /* \"#utility.yul\":4213:4219   */\n      dup3\n        /* \"#utility.yul\":4202:4211   */\n      dup6\n        /* \"#utility.yul\":4198:4220   */\n      add\n        /* \"#utility.yul\":4177:4230   */\n      tag_153\n      jump\t// in\n    tag_188:\n        /* \"#utility.yul\":4167:4230   */\n      swap2\n      pop\n        /* \"#utility.yul\":4123:4240   */\n      pop\n        /* \"#utility.yul\":3918:4247   */\n      swap3\n      swap2\n      pop\n      pop\n      jump\t// out\n        /* \"#utility.yul\":4253:4727   */\n    tag_22:\n        /* \"#utility.yul\":4321:4327   */\n      0x00\n        /* \"#utility.yul\":4329:4335   */\n      dup1\n        /* \"#utility.yul\":4378:4380   */\n      0x40\n        /* \"#utility.yul\":4366:4375   */\n      dup4\n        /* \"#utility.yul\":4357:4364   */\n      dup6\n        /* \"#utility.yul\":4353:4376   */\n      sub\n        /* \"#utility.yul\":4349:4381   */\n      slt\n        /* \"#utility.yul\":4346:4465   */\n      iszero\n      tag_190\n      jumpi\n        /* \"#utility.yul\":4384:4463   */\n      tag_191\n      tag_160\n      jump\t// in\n    tag_191:\n        /* \"#utility.yul\":4346:4465   */\n    tag_190:\n        /* \"#utility.yul\":4504:4505   */\n      0x00\n        /* \"#utility.yul\":4529:4582   */\n      tag_192\n        /* \"#utility.yul\":4574:4581   */\n      dup6\n        /* \"#utility.yul\":4565:4571   */\n      dup3\n        /* \"#utility.yul\":4554:4563   */\n      dup7\n        /* \"#utility.yul\":4550:4572   */\n      add\n        /* \"#utility.yul\":4529:4582   */\n      tag_153\n      jump\t// in\n    tag_192:\n        /* \"#utility.yul\":4519:4582   */\n      swap3\n      pop\n        /* \"#utility.yul\":4475:4592   */\n      pop\n        /* \"#utility.yul\":4631:4633   */\n      0x20\n        /* \"#utility.yul\":4657:4710   */\n      tag_193\n        /* \"#utility.yul\":4702:4709   */\n      dup6\n        /* \"#utility.yul\":4693:4699   */\n      dup3\n        /* \"#utility.yul\":4682:4691   */\n      dup7\n        /* \"#utility.yul\":4678:4700   */\n      add\n        /* \"#utility.yul\":4657:4710   */\n      tag_153\n      jump\t// in\n    tag_193:\n        /* \"#utility.yul\":4647:4710   */\n      swap2\n      pop\n        /* \"#utility.yul\":4602:4720   */\n      pop\n        /* \"#utility.yul\":4253:4727   */\n      swap3\n      pop\n      swap3\n      swap1\n      pop\n      jump\t// out\n        /* \"#utility.yul\":4733:4851   */\n    tag_194:\n        /* \"#utility.yul\":4820:4844   */\n      tag_196\n        /* \"#utility.yul\":4838:4843   */\n      dup2\n        /* \"#utility.yul\":4820:4844   */\n      tag_197\n      jump\t// in\n    tag_196:\n        /* \"#utility.yul\":4815:4818   */\n      dup3\n        /* \"#utility.yul\":4808:4845   */\n      mstore\n        /* \"#utility.yul\":4733:4851   */\n      pop\n      pop\n      jump\t// out\n        /* \"#utility.yul\":4857:5217   */\n    tag_198:\n        /* \"#utility.yul\":4943:4946   */\n      0x00\n        /* \"#utility.yul\":4971:5009   */\n      tag_200\n        /* \"#utility.yul\":5003:5008   */\n      dup3\n        /* \"#utility.yul\":4971:5009   */\n      tag_201\n      jump\t// in\n    tag_200:\n        /* \"#utility.yul\":5025:5095   */\n      tag_202\n        /* \"#utility.yul\":5088:5094   */\n      dup2\n        /* \"#utility.yul\":5083:5086   */\n      dup6\n        /* \"#utility.yul\":5025:5095   */\n      tag_203\n      jump\t// in\n    tag_202:\n        /* \"#utility.yul\":5018:5095   */\n      swap4\n      pop\n        /* \"#utility.yul\":5104:5156   */\n      tag_204\n        /* \"#utility.yul\":5149:5155   */\n      dup2\n        /* \"#utility.yul\":5144:5147   */\n      dup6\n        /* \"#utility.yul\":5137:5141   */\n      0x20\n        /* \"#utility.yul\":5130:5135   */\n      dup7\n        /* \"#utility.yul\":5126:5142   */\n      add\n        /* \"#utility.yul\":5104:5156   */\n      tag_205\n      jump\t// in\n    tag_204:\n        /* \"#utility.yul\":5181:5210   */\n      tag_206\n        /* \"#utility.yul\":5203:5209   */\n      dup2\n        /* \"#utility.yul\":5181:5210   */\n      tag_207\n      jump\t// in\n    tag_206:\n        /* \"#utility.yul\":5176:5179   */\n      dup5\n        /* \"#utility.yul\":5172:5211   */\n      add\n        /* \"#utility.yul\":5165:5211   */\n      swap2\n      pop\n        /* \"#utility.yul\":4947:5217   */\n      pop\n        /* \"#utility.yul\":4857:5217   */\n      swap3\n      swap2\n      pop\n      pop\n      jump\t// out\n        /* \"#utility.yul\":5223:5587   */\n    tag_208:\n        /* \"#utility.yul\":5311:5314   */\n      0x00\n        /* \"#utility.yul\":5339:5378   */\n      tag_210\n        /* \"#utility.yul\":5372:5377   */\n      dup3\n        /* \"#utility.yul\":5339:5378   */\n      tag_211\n      jump\t// in\n    tag_210:\n        /* \"#utility.yul\":5394:5465   */\n      tag_212\n        /* \"#utility.yul\":5458:5464   */\n      dup2\n        /* \"#utility.yul\":5453:5456   */\n      dup6\n        /* \"#utility.yul\":5394:5465   */\n      tag_213\n      jump\t// in\n    tag_212:\n        /* \"#utility.yul\":5387:5465   */\n      swap4\n      pop\n        /* \"#utility.yul\":5474:5526   */\n      tag_214\n        /* \"#utility.yul\":5519:5525   */\n      dup2\n        /* \"#utility.yul\":5514:5517   */\n      dup6\n        /* \"#utility.yul\":5507:5511   */\n      0x20\n        /* \"#utility.yul\":5500:5505   */\n      dup7\n        /* \"#utility.yul\":5496:5512   */\n      add\n        /* \"#utility.yul\":5474:5526   */\n      tag_205\n      jump\t// in\n    tag_214:\n        /* \"#utility.yul\":5551:5580   */\n      tag_215\n        /* \"#utility.yul\":5573:5579   */\n      dup2\n        /* \"#utility.yul\":5551:5580   */\n      tag_207\n      jump\t// in\n    tag_215:\n        /* \"#utility.yul\":5546:5549   */\n      dup5\n        /* \"#utility.yul\":5542:5581   */\n      add\n        /* \"#utility.yul\":5535:5581   */\n      swap2\n      pop\n        /* \"#utility.yul\":5315:5587   */\n      pop\n        /* \"#utility.yul\":5223:5587   */\n      swap3\n      swap2\n      pop\n      pop\n      jump\t// out\n        /* \"#utility.yul\":5593:5959   */\n    tag_216:\n        /* \"#utility.yul\":5735:5738   */\n      0x00\n        /* \"#utility.yul\":5756:5823   */\n      tag_218\n        /* \"#utility.yul\":5820:5822   */\n      0x34\n        /* \"#utility.yul\":5815:5818   */\n      dup4\n        /* \"#utility.yul\":5756:5823   */\n      tag_213\n      jump\t// in\n    tag_218:\n        /* \"#utility.yul\":5749:5823   */\n      swap2\n      pop\n        /* \"#utility.yul\":5832:5925   */\n      tag_219\n        /* \"#utility.yul\":5921:5924   */\n      dup3\n        /* \"#utility.yul\":5832:5925   */\n      tag_220\n      jump\t// in\n    tag_219:\n        /* \"#utility.yul\":5950:5952   */\n      0x40\n        /* \"#utility.yul\":5945:5948   */\n      dup3\n        /* \"#utility.yul\":5941:5953   */\n      add\n        /* \"#utility.yul\":5934:5953   */\n      swap1\n      pop\n        /* \"#utility.yul\":5593:5959   */\n      swap2\n      swap1\n      pop\n      jump\t// out\n        /* \"#utility.yul\":5965:6331   */\n    tag_221:\n        /* \"#utility.yul\":6107:6110   */\n      0x00\n        /* \"#utility.yul\":6128:6195   */\n      tag_223\n        /* \"#utility.yul\":6192:6194   */\n      0x2f\n        /* \"#utility.yul\":6187:6190   */\n      dup4\n        /* \"#utility.yul\":6128:6195   */\n      tag_213\n      jump\t// in\n    tag_223:\n        /* \"#utility.yul\":6121:6195   */\n      swap2\n      pop\n        /* \"#utility.yul\":6204:6297   */\n      tag_224\n        /* \"#utility.yul\":6293:6296   */\n      dup3\n        /* \"#utility.yul\":6204:6297   */\n      tag_225\n      jump\t// in\n    tag_224:\n        /* \"#utility.yul\":6322:6324   */\n      0x40\n        /* \"#utility.yul\":6317:6320   */\n      dup3\n        /* \"#utility.yul\":6313:6325   */\n      add\n        /* \"#utility.yul\":6306:6325   */\n      swap1\n      pop\n        /* \"#utility.yul\":5965:6331   */\n      swap2\n      swap1\n      pop\n      jump\t// out\n        /* \"#utility.yul\":6337:6703   */\n    tag_226:\n        /* \"#utility.yul\":6479:6482   */\n      0x00\n        /* \"#utility.yul\":6500:6567   */\n      tag_228\n        /* \"#utility.yul\":6564:6566   */\n      0x28\n        /* \"#utility.yul\":6559:6562   */\n      dup4\n        /* \"#utility.yul\":6500:6567   */\n      tag_213\n      jump\t// in\n    tag_228:\n        /* \"#utility.yul\":6493:6567   */\n      swap2\n      pop\n        /* \"#utility.yul\":6576:6669   */\n      tag_229\n        /* \"#utility.yul\":6665:6668   */\n      dup3\n        /* \"#utility.yul\":6576:6669   */\n      tag_230\n      jump\t// in\n    tag_229:\n        /* \"#utility.yul\":6694:6696   */\n      0x40\n        /* \"#utility.yul\":6689:6692   */\n      dup3\n        /* \"#utility.yul\":6685:6697   */\n      add\n        /* \"#utility.yul\":6678:6697   */\n      swap1\n      pop\n        /* \"#utility.yul\":6337:6703   */\n      swap2\n      swap1\n      pop\n      jump\t// out\n        /* \"#utility.yul\":6709:7075   */\n    tag_231:\n        /* \"#utility.yul\":6851:6854   */\n      0x00\n        /* \"#utility.yul\":6872:6939   */\n      tag_233\n        /* \"#utility.yul\":6936:6938   */\n      0x2a\n        /* \"#utility.yul\":6931:6934   */\n      dup4\n        /* \"#utility.yul\":6872:6939   */\n      tag_213\n      jump\t// in\n    tag_233:\n        /* \"#utility.yul\":6865:6939   */\n      swap2\n      pop\n        /* \"#utility.yul\":6948:7041   */\n      tag_234\n        /* \"#utility.yul\":7037:7040   */\n      dup3\n        /* \"#utility.yul\":6948:7041   */\n      tag_235\n      jump\t// in\n    tag_234:\n        /* \"#utility.yul\":7066:7068   */\n      0x40\n        /* \"#utility.yul\":7061:7064   */\n      dup3\n        /* \"#utility.yul\":7057:7069   */\n      add\n        /* \"#utility.yul\":7050:7069   */\n      swap1\n      pop\n        /* \"#utility.yul\":6709:7075   */\n      swap2\n      swap1\n      pop\n      jump\t// out\n        /* \"#utility.yul\":7081:7447   */\n    tag_236:\n        /* \"#utility.yul\":7223:7226   */\n      0x00\n        /* \"#utility.yul\":7244:7311   */\n      tag_238\n        /* \"#utility.yul\":7308:7310   */\n      0x25\n        /* \"#utility.yul\":7303:7306   */\n      dup4\n        /* \"#utility.yul\":7244:7311   */\n      tag_213\n      jump\t// in\n    tag_238:\n        /* \"#utility.yul\":7237:7311   */\n      swap2\n      pop\n        /* \"#utility.yul\":7320:7413   */\n      tag_239\n        /* \"#utility.yul\":7409:7412   */\n      dup3\n        /* \"#utility.yul\":7320:7413   */\n      tag_240\n      jump\t// in\n    tag_239:\n        /* \"#utility.yul\":7438:7440   */\n      0x40\n        /* \"#utility.yul\":7433:7436   */\n      dup3\n        /* \"#utility.yul\":7429:7441   */\n      add\n        /* \"#utility.yul\":7422:7441   */\n      swap1\n      pop\n        /* \"#utility.yul\":7081:7447   */\n      swap2\n      swap1\n      pop\n      jump\t// out\n        /* \"#utility.yul\":7453:7819   */\n    tag_241:\n        /* \"#utility.yul\":7595:7598   */\n      0x00\n        /* \"#utility.yul\":7616:7683   */\n      tag_243\n        /* \"#utility.yul\":7680:7682   */\n      0x2a\n        /* \"#utility.yul\":7675:7678   */\n      dup4\n        /* \"#utility.yul\":7616:7683   */\n      tag_213\n      jump\t// in\n    tag_243:\n        /* \"#utility.yul\":7609:7683   */\n      swap2\n      pop\n        /* \"#utility.yul\":7692:7785   */\n      tag_244\n        /* \"#utility.yul\":7781:7784   */\n      dup3\n        /* \"#utility.yul\":7692:7785   */\n      tag_245\n      jump\t// in\n    tag_244:\n        /* \"#utility.yul\":7810:7812   */\n      0x40\n        /* \"#utility.yul\":7805:7808   */\n      dup3\n        /* \"#utility.yul\":7801:7813   */\n      add\n        /* \"#utility.yul\":7794:7813   */\n      swap1\n      pop\n        /* \"#utility.yul\":7453:7819   */\n      swap2\n      swap1\n      pop\n      jump\t// out\n        /* \"#utility.yul\":7825:8191   */\n    tag_246:\n        /* \"#utility.yul\":7967:7970   */\n      0x00\n        /* \"#utility.yul\":7988:8055   */\n      tag_248\n        /* \"#utility.yul\":8052:8054   */\n      0x21\n        /* \"#utility.yul\":8047:8050   */\n      dup4\n        /* \"#utility.yul\":7988:8055   */\n      tag_213\n      jump\t// in\n    tag_248:\n        /* \"#utility.yul\":7981:8055   */\n      swap2\n      pop\n        /* \"#utility.yul\":8064:8157   */\n      tag_249\n        /* \"#utility.yul\":8153:8156   */\n      dup3\n        /* \"#utility.yul\":8064:8157   */\n      tag_250\n      jump\t// in\n    tag_249:\n        /* \"#utility.yul\":8182:8184   */\n      0x40\n        /* \"#utility.yul\":8177:8180   */\n      dup3\n        /* \"#utility.yul\":8173:8185   */\n      add\n        /* \"#utility.yul\":8166:8185   */\n      swap1\n      pop\n        /* \"#utility.yul\":7825:8191   */\n      swap2\n      swap1\n      pop\n      jump\t// out\n        /* \"#utility.yul\":8197:8315   */\n    tag_251:\n        /* \"#utility.yul\":8284:8308   */\n      tag_253\n        /* \"#utility.yul\":8302:8307   */\n      dup2\n        /* \"#utility.yul\":8284:8308   */\n      tag_254\n      jump\t// in\n    tag_253:\n        /* \"#utility.yul\":8279:8282   */\n      dup3\n        /* \"#utility.yul\":8272:8309   */\n      mstore\n        /* \"#utility.yul\":8197:8315   */\n      pop\n      pop\n      jump\t// out\n        /* \"#utility.yul\":8321:9072   */\n    tag_105:\n        /* \"#utility.yul\":8544:8548   */\n      0x00\n        /* \"#utility.yul\":8582:8585   */\n      0xa0\n        /* \"#utility.yul\":8571:8580   */\n      dup3\n        /* \"#utility.yul\":8567:8586   */\n      add\n        /* \"#utility.yul\":8559:8586   */\n      swap1\n      pop\n        /* \"#utility.yul\":8596:8667   */\n      tag_256\n        /* \"#utility.yul\":8664:8665   */\n      0x00\n        /* \"#utility.yul\":8653:8662   */\n      dup4\n        /* \"#utility.yul\":8649:8666   */\n      add\n        /* \"#utility.yul\":8640:8646   */\n      dup9\n        /* \"#utility.yul\":8596:8667   */\n      tag_194\n      jump\t// in\n    tag_256:\n        /* \"#utility.yul\":8677:8749   */\n      tag_257\n        /* \"#utility.yul\":8745:8747   */\n      0x20\n        /* \"#utility.yul\":8734:8743   */\n      dup4\n        /* \"#utility.yul\":8730:8748   */\n      add\n        /* \"#utility.yul\":8721:8727   */\n      dup8\n        /* \"#utility.yul\":8677:8749   */\n      tag_194\n      jump\t// in\n    tag_257:\n        /* \"#utility.yul\":8759:8831   */\n      tag_258\n        /* \"#utility.yul\":8827:8829   */\n      0x40\n        /* \"#utility.yul\":8816:8825   */\n      dup4\n        /* \"#utility.yul\":8812:8830   */\n      add\n        /* \"#utility.yul\":8803:8809   */\n      dup7\n        /* \"#utility.yul\":8759:8831   */\n      tag_251\n      jump\t// in\n    tag_258:\n        /* \"#utility.yul\":8841:8913   */\n      tag_259\n        /* \"#utility.yul\":8909:8911   */\n      0x60\n        /* \"#utility.yul\":8898:8907   */\n      dup4\n        /* \"#utility.yul\":8894:8912   */\n      add\n        /* \"#utility.yul\":8885:8891   */\n      dup6\n        /* \"#utility.yul\":8841:8913   */\n      tag_251\n      jump\t// in\n    tag_259:\n        /* \"#utility.yul\":8961:8970   */\n      dup2\n        /* \"#utility.yul\":8955:8959   */\n      dup2\n        /* \"#utility.yul\":8951:8971   */\n      sub\n        /* \"#utility.yul\":8945:8948   */\n      0x80\n        /* \"#utility.yul\":8934:8943   */\n      dup4\n        /* \"#utility.yul\":8930:8949   */\n      add\n        /* \"#utility.yul\":8923:8972   */\n      mstore\n        /* \"#utility.yul\":8989:9065   */\n      tag_260\n        /* \"#utility.yul\":9060:9064   */\n      dup2\n        /* \"#utility.yul\":9051:9057   */\n      dup5\n        /* \"#utility.yul\":8989:9065   */\n      tag_198\n      jump\t// in\n    tag_260:\n        /* \"#utility.yul\":8981:9065   */\n      swap1\n      pop\n        /* \"#utility.yul\":8321:9072   */\n      swap7\n      swap6\n      pop\n      pop\n      pop\n      pop\n      pop\n      pop\n      jump\t// out\n        /* \"#utility.yul\":9078:9391   */\n    tag_19:\n        /* \"#utility.yul\":9191:9195   */\n      0x00\n        /* \"#utility.yul\":9229:9231   */\n      0x20\n        /* \"#utility.yul\":9218:9227   */\n      dup3\n        /* \"#utility.yul\":9214:9232   */\n      add\n        /* \"#utility.yul\":9206:9232   */\n      swap1\n      pop\n        /* \"#utility.yul\":9278:9287   */\n      dup2\n        /* \"#utility.yul\":9272:9276   */\n      dup2\n        /* \"#utility.yul\":9268:9288   */\n      sub\n        /* \"#utility.yul\":9264:9265   */\n      0x00\n        /* \"#utility.yul\":9253:9262   */\n      dup4\n        /* \"#utility.yul\":9249:9266   */\n      add\n        /* \"#utility.yul\":9242:9289   */\n      mstore\n        /* \"#utility.yul\":9306:9384   */\n      tag_262\n        /* \"#utility.yul\":9379:9383   */\n      dup2\n        /* \"#utility.yul\":9370:9376   */\n      dup5\n        /* \"#utility.yul\":9306:9384   */\n      tag_208\n      jump\t// in\n    tag_262:\n        /* \"#utility.yul\":9298:9384   */\n      swap1\n      pop\n        /* \"#utility.yul\":9078:9391   */\n      swap3\n      swap2\n      pop\n      pop\n      jump\t// out\n        /* \"#utility.yul\":9397:9816   */\n    tag_121:\n        /* \"#utility.yul\":9563:9567   */\n      0x00\n        /* \"#utility.yul\":9601:9603   */\n      0x20\n        /* \"#utility.yul\":9590:9599   */\n      dup3\n        /* \"#utility.yul\":9586:9604   */\n      add\n        /* \"#utility.yul\":9578:9604   */\n      swap1\n      pop\n        /* \"#utility.yul\":9650:9659   */\n      dup2\n        /* \"#utility.yul\":9644:9648   */\n      dup2\n        /* \"#utility.yul\":9640:9660   */\n      sub\n        /* \"#utility.yul\":9636:9637   */\n      0x00\n        /* \"#utility.yul\":9625:9634   */\n      dup4\n        /* \"#utility.yul\":9621:9638   */\n      add\n        /* \"#utility.yul\":9614:9661   */\n      mstore\n        /* \"#utility.yul\":9678:9809   */\n      tag_264\n        /* \"#utility.yul\":9804:9808   */\n      dup2\n        /* \"#utility.yul\":9678:9809   */\n      tag_216\n      jump\t// in\n    tag_264:\n        /* \"#utility.yul\":9670:9809   */\n      swap1\n      pop\n        /* \"#utility.yul\":9397:9816   */\n      swap2\n      swap1\n      pop\n      jump\t// out\n        /* \"#utility.yul\":9822:10241   */\n    tag_54:\n        /* \"#utility.yul\":9988:9992   */\n      0x00\n        /* \"#utility.yul\":10026:10028   */\n      0x20\n        /* \"#utility.yul\":10015:10024   */\n      dup3\n        /* \"#utility.yul\":10011:10029   */\n      add\n        /* \"#utility.yul\":10003:10029   */\n      swap1\n      pop\n        /* \"#utility.yul\":10075:10084   */\n      dup2\n        /* \"#utility.yul\":10069:10073   */\n      dup2\n        /* \"#utility.yul\":10065:10085   */\n      sub\n        /* \"#utility.yul\":10061:10062   */\n      0x00\n        /* \"#utility.yul\":10050:10059   */\n      dup4\n        /* \"#utility.yul\":10046:10063   */\n      add\n        /* \"#utility.yul\":10039:10086   */\n      mstore\n        /* \"#utility.yul\":10103:10234   */\n      tag_266\n        /* \"#utility.yul\":10229:10233   */\n      dup2\n        /* \"#utility.yul\":10103:10234   */\n      tag_221\n      jump\t// in\n    tag_266:\n        /* \"#utility.yul\":10095:10234   */\n      swap1\n      pop\n        /* \"#utility.yul\":9822:10241   */\n      swap2\n      swap1\n      pop\n      jump\t// out\n        /* \"#utility.yul\":10247:10666   */\n    tag_125:\n        /* \"#utility.yul\":10413:10417   */\n      0x00\n        /* \"#utility.yul\":10451:10453   */\n      0x20\n        /* \"#utility.yul\":10440:10449   */\n      dup3\n        /* \"#utility.yul\":10436:10454   */\n      add\n        /* \"#utility.yul\":10428:10454   */\n      swap1\n      pop\n        /* \"#utility.yul\":10500:10509   */\n      dup2\n        /* \"#utility.yul\":10494:10498   */\n      dup2\n        /* \"#utility.yul\":10490:10510   */\n      sub\n        /* \"#utility.yul\":10486:10487   */\n      0x00\n        /* \"#utility.yul\":10475:10484   */\n      dup4\n        /* \"#utility.yul\":10471:10488   */\n      add\n        /* \"#utility.yul\":10464:10511   */\n      mstore\n        /* \"#utility.yul\":10528:10659   */\n      tag_268\n        /* \"#utility.yul\":10654:10658   */\n      dup2\n        /* \"#utility.yul\":10528:10659   */\n      tag_226\n      jump\t// in\n    tag_268:\n        /* \"#utility.yul\":10520:10659   */\n      swap1\n      pop\n        /* \"#utility.yul\":10247:10666   */\n      swap2\n      swap1\n      pop\n      jump\t// out\n        /* \"#utility.yul\":10672:11091   */\n    tag_35:\n        /* \"#utility.yul\":10838:10842   */\n      0x00\n        /* \"#utility.yul\":10876:10878   */\n      0x20\n        /* \"#utility.yul\":10865:10874   */\n      dup3\n        /* \"#utility.yul\":10861:10879   */\n      add\n        /* \"#utility.yul\":10853:10879   */\n      swap1\n      pop\n        /* \"#utility.yul\":10925:10934   */\n      dup2\n        /* \"#utility.yul\":10919:10923   */\n      dup2\n        /* \"#utility.yul\":10915:10935   */\n      sub\n        /* \"#utility.yul\":10911:10912   */\n      0x00\n        /* \"#utility.yul\":10900:10909   */\n      dup4\n        /* \"#utility.yul\":10896:10913   */\n      add\n        /* \"#utility.yul\":10889:10936   */\n      mstore\n        /* \"#utility.yul\":10953:11084   */\n      tag_270\n        /* \"#utility.yul\":11079:11083   */\n      dup2\n        /* \"#utility.yul\":10953:11084   */\n      tag_231\n      jump\t// in\n    tag_270:\n        /* \"#utility.yul\":10945:11084   */\n      swap1\n      pop\n        /* \"#utility.yul\":10672:11091   */\n      swap2\n      swap1\n      pop\n      jump\t// out\n        /* \"#utility.yul\":11097:11516   */\n    tag_77:\n        /* \"#utility.yul\":11263:11267   */\n      0x00\n        /* \"#utility.yul\":11301:11303   */\n      0x20\n        /* \"#utility.yul\":11290:11299   */\n      dup3\n        /* \"#utility.yul\":11286:11304   */\n      add\n        /* \"#utility.yul\":11278:11304   */\n      swap1\n      pop\n        /* \"#utility.yul\":11350:11359   */\n      dup2\n        /* \"#utility.yul\":11344:11348   */\n      dup2\n        /* \"#utility.yul\":11340:11360   */\n      sub\n        /* \"#utility.yul\":11336:11337   */\n      0x00\n        /* \"#utility.yul\":11325:11334   */\n      dup4\n        /* \"#utility.yul\":11321:11338   */\n      add\n        /* \"#utility.yul\":11314:11361   */\n      mstore\n        /* \"#utility.yul\":11378:11509   */\n      tag_272\n        /* \"#utility.yul\":11504:11508   */\n      dup2\n        /* \"#utility.yul\":11378:11509   */\n      tag_236\n      jump\t// in\n    tag_272:\n        /* \"#utility.yul\":11370:11509   */\n      swap1\n      pop\n        /* \"#utility.yul\":11097:11516   */\n      swap2\n      swap1\n      pop\n      jump\t// out\n        /* \"#utility.yul\":11522:11941   */\n    tag_84:\n        /* \"#utility.yul\":11688:11692   */\n      0x00\n        /* \"#utility.yul\":11726:11728   */\n      0x20\n        /* \"#utility.yul\":11715:11724   */\n      dup3\n        /* \"#utility.yul\":11711:11729   */\n      add\n        /* \"#utility.yul\":11703:11729   */\n      swap1\n      pop\n        /* \"#utility.yul\":11775:11784   */\n      dup2\n        /* \"#utility.yul\":11769:11773   */\n      dup2\n        /* \"#utility.yul\":11765:11785   */\n      sub\n        /* \"#utility.yul\":11761:11762   */\n      0x00\n        /* \"#utility.yul\":11750:11759   */\n      dup4\n        /* \"#utility.yul\":11746:11763   */\n      add\n        /* \"#utility.yul\":11739:11786   */\n      mstore\n        /* \"#utility.yul\":11803:11934   */\n      tag_274\n        /* \"#utility.yul\":11929:11933   */\n      dup2\n        /* \"#utility.yul\":11803:11934   */\n      tag_241\n      jump\t// in\n    tag_274:\n        /* \"#utility.yul\":11795:11934   */\n      swap1\n      pop\n        /* \"#utility.yul\":11522:11941   */\n      swap2\n      swap1\n      pop\n      jump\t// out\n        /* \"#utility.yul\":11947:12366   */\n    tag_59:\n        /* \"#utility.yul\":12113:12117   */\n      0x00\n        /* \"#utility.yul\":12151:12153   */\n      0x20\n        /* \"#utility.yul\":12140:12149   */\n      dup3\n        /* \"#utility.yul\":12136:12154   */\n      add\n        /* \"#utility.yul\":12128:12154   */\n      swap1\n      pop\n        /* \"#utility.yul\":12200:12209   */\n      dup2\n        /* \"#utility.yul\":12194:12198   */\n      dup2\n        /* \"#utility.yul\":12190:12210   */\n      sub\n        /* \"#utility.yul\":12186:12187   */\n      0x00\n        /* \"#utility.yul\":12175:12184   */\n      dup4\n        /* \"#utility.yul\":12171:12188   */\n      add\n        /* \"#utility.yul\":12164:12211   */\n      mstore\n        /* \"#utility.yul\":12228:12359   */\n      tag_276\n        /* \"#utility.yul\":12354:12358   */\n      dup2\n        /* \"#utility.yul\":12228:12359   */\n      tag_246\n      jump\t// in\n    tag_276:\n        /* \"#utility.yul\":12220:12359   */\n      swap1\n      pop\n        /* \"#utility.yul\":11947:12366   */\n      swap2\n      swap1\n      pop\n      jump\t// out\n        /* \"#utility.yul\":12372:12594   */\n    tag_13:\n        /* \"#utility.yul\":12465:12469   */\n      0x00\n        /* \"#utility.yul\":12503:12505   */\n      0x20\n        /* \"#utility.yul\":12492:12501   */\n      dup3\n        /* \"#utility.yul\":12488:12506   */\n      add\n        /* \"#utility.yul\":12480:12506   */\n      swap1\n      pop\n        /* \"#utility.yul\":12516:12587   */\n      tag_278\n        /* \"#utility.yul\":12584:12585   */\n      0x00\n        /* \"#utility.yul\":12573:12582   */\n      dup4\n        /* \"#utility.yul\":12569:12586   */\n      add\n        /* \"#utility.yul\":12560:12566   */\n      dup5\n        /* \"#utility.yul\":12516:12587   */\n      tag_251\n      jump\t// in\n    tag_278:\n        /* \"#utility.yul\":12372:12594   */\n      swap3\n      swap2\n      pop\n      pop\n      jump\t// out\n        /* \"#utility.yul\":12600:12932   */\n    tag_69:\n        /* \"#utility.yul\":12721:12725   */\n      0x00\n        /* \"#utility.yul\":12759:12761   */\n      0x40\n        /* \"#utility.yul\":12748:12757   */\n      dup3\n        /* \"#utility.yul\":12744:12762   */\n      add\n        /* \"#utility.yul\":12736:12762   */\n      swap1\n      pop\n        /* \"#utility.yul\":12772:12843   */\n      tag_280\n        /* \"#utility.yul\":12840:12841   */\n      0x00\n        /* \"#utility.yul\":12829:12838   */\n      dup4\n        /* \"#utility.yul\":12825:12842   */\n      add\n        /* \"#utility.yul\":12816:12822   */\n      dup6\n        /* \"#utility.yul\":12772:12843   */\n      tag_251\n      jump\t// in\n    tag_280:\n        /* \"#utility.yul\":12853:12925   */\n      tag_281\n        /* \"#utility.yul\":12921:12923   */\n      0x20\n        /* \"#utility.yul\":12910:12919   */\n      dup4\n        /* \"#utility.yul\":12906:12924   */\n      add\n        /* \"#utility.yul\":12897:12903   */\n      dup5\n        /* \"#utility.yul\":12853:12925   */\n      tag_251\n      jump\t// in\n    tag_281:\n        /* \"#utility.yul\":12600:12932   */\n      swap4\n      swap3\n      pop\n      pop\n      pop\n      jump\t// out\n        /* \"#utility.yul\":12938:13067   */\n    tag_133:\n        /* \"#utility.yul\":12972:12978   */\n      0x00\n        /* \"#utility.yul\":12999:13019   */\n      tag_283\n      tag_284\n      jump\t// in\n    tag_283:\n        /* \"#utility.yul\":12989:13019   */\n      swap1\n      pop\n        /* \"#utility.yul\":13028:13061   */\n      tag_285\n        /* \"#utility.yul\":13056:13060   */\n      dup3\n        /* \"#utility.yul\":13048:13054   */\n      dup3\n        /* \"#utility.yul\":13028:13061   */\n      tag_286\n      jump\t// in\n    tag_285:\n        /* \"#utility.yul\":12938:13067   */\n      swap2\n      swap1\n      pop\n      jump\t// out\n        /* \"#utility.yul\":13073:13148   */\n    tag_284:\n        /* \"#utility.yul\":13106:13112   */\n      0x00\n        /* \"#utility.yul\":13139:13141   */\n      0x40\n        /* \"#utility.yul\":13133:13142   */\n      mload\n        /* \"#utility.yul\":13123:13142   */\n      swap1\n      pop\n        /* \"#utility.yul\":13073:13148   */\n      swap1\n      jump\t// out\n        /* \"#utility.yul\":13154:13461   */\n    tag_132:\n        /* \"#utility.yul\":13215:13219   */\n      0x00\n        /* \"#utility.yul\":13305:13323   */\n      0xffffffffffffffff\n        /* \"#utility.yul\":13297:13303   */\n      dup3\n        /* \"#utility.yul\":13294:13324   */\n      gt\n        /* \"#utility.yul\":13291:13347   */\n      iszero\n      tag_289\n      jumpi\n        /* \"#utility.yul\":13327:13345   */\n      tag_290\n      tag_93\n      jump\t// in\n    tag_290:\n        /* \"#utility.yul\":13291:13347   */\n    tag_289:\n        /* \"#utility.yul\":13365:13394   */\n      tag_291\n        /* \"#utility.yul\":13387:13393   */\n      dup3\n        /* \"#utility.yul\":13365:13394   */\n      tag_207\n      jump\t// in\n    tag_291:\n        /* \"#utility.yul\":13357:13394   */\n      swap1\n      pop\n        /* \"#utility.yul\":13449:13453   */\n      0x20\n        /* \"#utility.yul\":13443:13447   */\n      dup2\n        /* \"#utility.yul\":13439:13454   */\n      add\n        /* \"#utility.yul\":13431:13454   */\n      swap1\n      pop\n        /* \"#utility.yul\":13154:13461   */\n      swap2\n      swap1\n      pop\n      jump\t// out\n        /* \"#utility.yul\":13467:13565   */\n    tag_201:\n        /* \"#utility.yul\":13518:13524   */\n      0x00\n        /* \"#utility.yul\":13552:13557   */\n      dup2\n        /* \"#utility.yul\":13546:13558   */\n      mload\n        /* \"#utility.yul\":13536:13558   */\n      swap1\n      pop\n        /* \"#utility.yul\":13467:13565   */\n      swap2\n      swap1\n      pop\n      jump\t// out\n        /* \"#utility.yul\":13571:13670   */\n    tag_211:\n        /* \"#utility.yul\":13623:13629   */\n      0x00\n        /* \"#utility.yul\":13657:13662   */\n      dup2\n        /* \"#utility.yul\":13651:13663   */\n      mload\n        /* \"#utility.yul\":13641:13663   */\n      swap1\n      pop\n        /* \"#utility.yul\":13571:13670   */\n      swap2\n      swap1\n      pop\n      jump\t// out\n        /* \"#utility.yul\":13676:13844   */\n    tag_203:\n        /* \"#utility.yul\":13759:13770   */\n      0x00\n        /* \"#utility.yul\":13793:13799   */\n      dup3\n        /* \"#utility.yul\":13788:13791   */\n      dup3\n        /* \"#utility.yul\":13781:13800   */\n      mstore\n        /* \"#utility.yul\":13833:13837   */\n      0x20\n        /* \"#utility.yul\":13828:13831   */\n      dup3\n        /* \"#utility.yul\":13824:13838   */\n      add\n        /* \"#utility.yul\":13809:13838   */\n      swap1\n      pop\n        /* \"#utility.yul\":13676:13844   */\n      swap3\n      swap2\n      pop\n      pop\n      jump\t// out\n        /* \"#utility.yul\":13850:14019   */\n    tag_213:\n        /* \"#utility.yul\":13934:13945   */\n      0x00\n        /* \"#utility.yul\":13968:13974   */\n      dup3\n        /* \"#utility.yul\":13963:13966   */\n      dup3\n        /* \"#utility.yul\":13956:13975   */\n      mstore\n        /* \"#utility.yul\":14008:14012   */\n      0x20\n        /* \"#utility.yul\":14003:14006   */\n      dup3\n        /* \"#utility.yul\":13999:14013   */\n      add\n        /* \"#utility.yul\":13984:14013   */\n      swap1\n      pop\n        /* \"#utility.yul\":13850:14019   */\n      swap3\n      swap2\n      pop\n      pop\n      jump\t// out\n        /* \"#utility.yul\":14025:14330   */\n    tag_67:\n        /* \"#utility.yul\":14065:14068   */\n      0x00\n        /* \"#utility.yul\":14084:14104   */\n      tag_297\n        /* \"#utility.yul\":14102:14103   */\n      dup3\n        /* \"#utility.yul\":14084:14104   */\n      tag_254\n      jump\t// in\n    tag_297:\n        /* \"#utility.yul\":14079:14104   */\n      swap2\n      pop\n        /* \"#utility.yul\":14118:14138   */\n      tag_298\n        /* \"#utility.yul\":14136:14137   */\n      dup4\n        /* \"#utility.yul\":14118:14138   */\n      tag_254\n      jump\t// in\n    tag_298:\n        /* \"#utility.yul\":14113:14138   */\n      swap3\n      pop\n        /* \"#utility.yul\":14272:14273   */\n      dup3\n        /* \"#utility.yul\":14204:14270   */\n      0xffffffffffffffffffffffffffffffffffffffffffffffffffffffffffffffff\n        /* \"#utility.yul\":14200:14274   */\n      sub\n        /* \"#utility.yul\":14197:14198   */\n      dup3\n        /* \"#utility.yul\":14194:14275   */\n      gt\n        /* \"#utility.yul\":14191:14298   */\n      iszero\n      tag_299\n      jumpi\n        /* \"#utility.yul\":14278:14296   */\n      tag_300\n      tag_301\n      jump\t// in\n    tag_300:\n        /* \"#utility.yul\":14191:14298   */\n    tag_299:\n        /* \"#utility.yul\":14322:14323   */\n      dup3\n        /* \"#utility.yul\":14319:14320   */\n      dup3\n        /* \"#utility.yul\":14315:14324   */\n      add\n        /* \"#utility.yul\":14308:14324   */\n      swap1\n      pop\n        /* \"#utility.yul\":14025:14330   */\n      swap3\n      swap2\n      pop\n      pop\n      jump\t// out\n        /* \"#utility.yul\":14336:14432   */\n    tag_197:\n        /* \"#utility.yul\":14373:14380   */\n      0x00\n        /* \"#utility.yul\":14402:14426   */\n      tag_303\n        /* \"#utility.yul\":14420:14425   */\n      dup3\n        /* \"#utility.yul\":14402:14426   */\n      tag_304\n      jump\t// in\n    tag_303:\n        /* \"#utility.yul\":14391:14426   */\n      swap1\n      pop\n        /* \"#utility.yul\":14336:14432   */\n      swap2\n      swap1\n      pop\n      jump\t// out\n        /* \"#utility.yul\":14438:14587   */\n    tag_305:\n        /* \"#utility.yul\":14474:14481   */\n      0x00\n        /* \"#utility.yul\":14514:14580   */\n      0xffffffff00000000000000000000000000000000000000000000000000000000\n        /* \"#utility.yul\":14507:14512   */\n      dup3\n        /* \"#utility.yul\":14503:14581   */\n      and\n        /* \"#utility.yul\":14492:14581   */\n      swap1\n      pop\n        /* \"#utility.yul\":14438:14587   */\n      swap2\n      swap1\n      pop\n      jump\t// out\n        /* \"#utility.yul\":14593:14719   */\n    tag_304:\n        /* \"#utility.yul\":14630:14637   */\n      0x00\n        /* \"#utility.yul\":14670:14712   */\n      0xffffffffffffffffffffffffffffffffffffffff\n        /* \"#utility.yul\":14663:14668   */\n      dup3\n        /* \"#utility.yul\":14659:14713   */\n      and\n        /* \"#utility.yul\":14648:14713   */\n      swap1\n      pop\n        /* \"#utility.yul\":14593:14719   */\n      swap2\n      swap1\n      pop\n      jump\t// out\n        /* \"#utility.yul\":14725:14802   */\n    tag_254:\n        /* \"#utility.yul\":14762:14769   */\n      0x00\n        /* \"#utility.yul\":14791:14796   */\n      dup2\n        /* \"#utility.yul\":14780:14796   */\n      swap1\n      pop\n        /* \"#utility.yul\":14725:14802   */\n      swap2\n      swap1\n      pop\n      jump\t// out\n        /* \"#utility.yul\":14808:14962   */\n    tag_138:\n        /* \"#utility.yul\":14892:14898   */\n      dup3\n        /* \"#utility.yul\":14887:14890   */\n      dup2\n        /* \"#utility.yul\":14882:14885   */\n      dup4\n        /* \"#utility.yul\":14869:14899   */\n      calldatacopy\n        /* \"#utility.yul\":14954:14955   */\n      0x00\n        /* \"#utility.yul\":14945:14951   */\n      dup4\n        /* \"#utility.yul\":14940:14943   */\n      dup4\n        /* \"#utility.yul\":14936:14952   */\n      add\n        /* \"#utility.yul\":14929:14956   */\n      mstore\n        /* \"#utility.yul\":14808:14962   */\n      pop\n      pop\n      pop\n      jump\t// out\n        /* \"#utility.yul\":14968:15275   */\n    tag_205:\n        /* \"#utility.yul\":15036:15037   */\n      0x00\n        /* \"#utility.yul\":15046:15159   */\n    tag_311:\n        /* \"#utility.yul\":15060:15066   */\n      dup4\n        /* \"#utility.yul\":15057:15058   */\n      dup2\n        /* \"#utility.yul\":15054:15067   */\n      lt\n        /* \"#utility.yul\":15046:15159   */\n      iszero\n      tag_313\n      jumpi\n        /* \"#utility.yul\":15145:15146   */\n      dup1\n        /* \"#utility.yul\":15140:15143   */\n      dup3\n        /* \"#utility.yul\":15136:15147   */\n      add\n        /* \"#utility.yul\":15130:15148   */\n      mload\n        /* \"#utility.yul\":15126:15127   */\n      dup2\n        /* \"#utility.yul\":15121:15124   */\n      dup5\n        /* \"#utility.yul\":15117:15128   */\n      add\n        /* \"#utility.yul\":15110:15149   */\n      mstore\n        /* \"#utility.yul\":15082:15084   */\n      0x20\n        /* \"#utility.yul\":15079:15080   */\n      dup2\n        /* \"#utility.yul\":15075:15085   */\n      add\n        /* \"#utility.yul\":15070:15085   */\n      swap1\n      pop\n        /* \"#utility.yul\":15046:15159   */\n      jump(tag_311)\n    tag_313:\n        /* \"#utility.yul\":15177:15183   */\n      dup4\n        /* \"#utility.yul\":15174:15175   */\n      dup2\n        /* \"#utility.yul\":15171:15184   */\n      gt\n        /* \"#utility.yul\":15168:15269   */\n      iszero\n      tag_314\n      jumpi\n        /* \"#utility.yul\":15257:15258   */\n      0x00\n        /* \"#utility.yul\":15248:15254   */\n      dup5\n        /* \"#utility.yul\":15243:15246   */\n      dup5\n        /* \"#utility.yul\":15239:15255   */\n      add\n        /* \"#utility.yul\":15232:15259   */\n      mstore\n        /* \"#utility.yul\":15168:15269   */\n    tag_314:\n        /* \"#utility.yul\":15017:15275   */\n      pop\n        /* \"#utility.yul\":14968:15275   */\n      pop\n      pop\n      pop\n      jump\t// out\n        /* \"#utility.yul\":15281:15601   */\n    tag_38:\n        /* \"#utility.yul\":15325:15331   */\n      0x00\n        /* \"#utility.yul\":15362:15363   */\n      0x02\n        /* \"#utility.yul\":15356:15360   */\n      dup3\n        /* \"#utility.yul\":15352:15364   */\n      div\n        /* \"#utility.yul\":15342:15364   */\n      swap1\n      pop\n        /* \"#utility.yul\":15409:15410   */\n      0x01\n        /* \"#utility.yul\":15403:15407   */\n      dup3\n        /* \"#utility.yul\":15399:15411   */\n      and\n        /* \"#utility.yul\":15430:15448   */\n      dup1\n        /* \"#utility.yul\":15420:15501   */\n      tag_316\n      jumpi\n        /* \"#utility.yul\":15486:15490   */\n      0x7f\n        /* \"#utility.yul\":15478:15484   */\n      dup3\n        /* \"#utility.yul\":15474:15491   */\n      and\n        /* \"#utility.yul\":15464:15491   */\n      swap2\n      pop\n        /* \"#utility.yul\":15420:15501   */\n    tag_316:\n        /* \"#utility.yul\":15548:15550   */\n      0x20\n        /* \"#utility.yul\":15540:15546   */\n      dup3\n        /* \"#utility.yul\":15537:15551   */\n      lt\n        /* \"#utility.yul\":15517:15535   */\n      dup2\n        /* \"#utility.yul\":15514:15552   */\n      eq\n        /* \"#utility.yul\":15511:15595   */\n      iszero\n      tag_317\n      jumpi\n        /* \"#utility.yul\":15567:15585   */\n      tag_318\n      tag_319\n      jump\t// in\n    tag_318:\n        /* \"#utility.yul\":15511:15595   */\n    tag_317:\n        /* \"#utility.yul\":15332:15601   */\n      pop\n        /* \"#utility.yul\":15281:15601   */\n      swap2\n      swap1\n      pop\n      jump\t// out\n        /* \"#utility.yul\":15607:15888   */\n    tag_286:\n        /* \"#utility.yul\":15690:15717   */\n      tag_321\n        /* \"#utility.yul\":15712:15716   */\n      dup3\n        /* \"#utility.yul\":15690:15717   */\n      tag_207\n      jump\t// in\n    tag_321:\n        /* \"#utility.yul\":15682:15688   */\n      dup2\n        /* \"#utility.yul\":15678:15718   */\n      add\n        /* \"#utility.yul\":15820:15826   */\n      dup2\n        /* \"#utility.yul\":15808:15818   */\n      dup2\n        /* \"#utility.yul\":15805:15827   */\n      lt\n        /* \"#utility.yul\":15784:15802   */\n      0xffffffffffffffff\n        /* \"#utility.yul\":15772:15782   */\n      dup3\n        /* \"#utility.yul\":15769:15803   */\n      gt\n        /* \"#utility.yul\":15766:15828   */\n      or\n        /* \"#utility.yul\":15763:15851   */\n      iszero\n      tag_322\n      jumpi\n        /* \"#utility.yul\":15831:15849   */\n      tag_323\n      tag_93\n      jump\t// in\n    tag_323:\n        /* \"#utility.yul\":15763:15851   */\n    tag_322:\n        /* \"#utility.yul\":15871:15881   */\n      dup1\n        /* \"#utility.yul\":15867:15869   */\n      0x40\n        /* \"#utility.yul\":15860:15882   */\n      mstore\n        /* \"#utility.yul\":15650:15888   */\n      pop\n        /* \"#utility.yul\":15607:15888   */\n      pop\n      pop\n      jump\t// out\n        /* \"#utility.yul\":15894:16074   */\n    tag_301:\n        /* \"#utility.yul\":15942:16019   */\n      0x4e487b7100000000000000000000000000000000000000000000000000000000\n        /* \"#utility.yul\":15939:15940   */\n      0x00\n        /* \"#utility.yul\":15932:16020   */\n      mstore\n        /* \"#utility.yul\":16039:16043   */\n      0x11\n        /* \"#utility.yul\":16036:16037   */\n      0x04\n        /* \"#utility.yul\":16029:16044   */\n      mstore\n        /* \"#utility.yul\":16063:16067   */\n      0x24\n        /* \"#utility.yul\":16060:16061   */\n      0x00\n        /* \"#utility.yul\":16053:16068   */\n      revert\n        /* \"#utility.yul\":16080:16260   */\n    tag_319:\n        /* \"#utility.yul\":16128:16205   */\n      0x4e487b7100000000000000000000000000000000000000000000000000000000\n        /* \"#utility.yul\":16125:16126   */\n      0x00\n        /* \"#utility.yul\":16118:16206   */\n      mstore\n        /* \"#utility.yul\":16225:16229   */\n      0x22\n        /* \"#utility.yul\":16222:16223   */\n      0x04\n        /* \"#utility.yul\":16215:16230   */\n      mstore\n        /* \"#utility.yul\":16249:16253   */\n      0x24\n        /* \"#utility.yul\":16246:16247   */\n      0x00\n        /* \"#utility.yul\":16239:16254   */\n      revert\n        /* \"#utility.yul\":16266:16446   */\n    tag_97:\n        /* \"#utility.yul\":16314:16391   */\n      0x4e487b7100000000000000000000000000000000000000000000000000000000\n        /* \"#utility.yul\":16311:16312   */\n      0x00\n        /* \"#utility.yul\":16304:16392   */\n      mstore\n        /* \"#utility.yul\":16411:16415   */\n      0x32\n        /* \"#utility.yul\":16408:16409   */\n      0x04\n        /* \"#utility.yul\":16401:16416   */\n      mstore\n        /* \"#utility.yul\":16435:16439   */\n      0x24\n        /* \"#utility.yul\":16432:16433   */\n      0x00\n        /* \"#utility.yul\":16425:16440   */\n      revert\n        /* \"#utility.yul\":16452:16632   */\n    tag_93:\n        /* \"#utility.yul\":16500:16577   */\n      0x4e487b7100000000000000000000000000000000000000000000000000000000\n        /* \"#utility.yul\":16497:16498   */\n      0x00\n        /* \"#utility.yul\":16490:16578   */\n      mstore\n        /* \"#utility.yul\":16597:16601   */\n      0x41\n        /* \"#utility.yul\":16594:16595   */\n      0x04\n        /* \"#utility.yul\":16587:16602   */\n      mstore\n        /* \"#utility.yul\":16621:16625   */\n      0x24\n        /* \"#utility.yul\":16618:16619   */\n      0x00\n        /* \"#utility.yul\":16611:16626   */\n      revert\n        /* \"#utility.yul\":16638:16821   */\n    tag_115:\n        /* \"#utility.yul\":16673:16676   */\n      0x00\n        /* \"#utility.yul\":16711:16712   */\n      0x03\n        /* \"#utility.yul\":16693:16709   */\n      returndatasize\n        /* \"#utility.yul\":16690:16713   */\n      gt\n        /* \"#utility.yul\":16687:16815   */\n      iszero\n      tag_329\n      jumpi\n        /* \"#utility.yul\":16749:16750   */\n      0x04\n        /* \"#utility.yul\":16746:16747   */\n      0x00\n        /* \"#utility.yul\":16743:16744   */\n      dup1\n        /* \"#utility.yul\":16728:16751   */\n      returndatacopy\n        /* \"#utility.yul\":16771:16805   */\n      tag_330\n        /* \"#utility.yul\":16802:16803   */\n      0x00\n        /* \"#utility.yul\":16796:16804   */\n      mload\n        /* \"#utility.yul\":16771:16805   */\n      tag_331\n      jump\t// in\n    tag_330:\n        /* \"#utility.yul\":16764:16805   */\n      swap1\n      pop\n        /* \"#utility.yul\":16687:16815   */\n    tag_329:\n        /* \"#utility.yul\":16638:16821   */\n      swap1\n      jump\t// out\n        /* \"#utility.yul\":16827:16944   */\n    tag_151:\n        /* \"#utility.yul\":16936:16937   */\n      0x00\n        /* \"#utility.yul\":16933:16934   */\n      dup1\n        /* \"#utility.yul\":16926:16938   */\n      revert\n        /* \"#utility.yul\":16950:17067   */\n    tag_136:\n        /* \"#utility.yul\":17059:17060   */\n      0x00\n        /* \"#utility.yul\":17056:17057   */\n      dup1\n        /* \"#utility.yul\":17049:17061   */\n      revert\n        /* \"#utility.yul\":17073:17190   */\n    tag_174:\n        /* \"#utility.yul\":17182:17183   */\n      0x00\n        /* \"#utility.yul\":17179:17180   */\n      dup1\n        /* \"#utility.yul\":17172:17184   */\n      revert\n        /* \"#utility.yul\":17196:17313   */\n    tag_160:\n        /* \"#utility.yul\":17305:17306   */\n      0x00\n        /* \"#utility.yul\":17302:17303   */\n      dup1\n        /* \"#utility.yul\":17295:17307   */\n      revert\n        /* \"#utility.yul\":17319:17421   */\n    tag_207:\n        /* \"#utility.yul\":17360:17366   */\n      0x00\n        /* \"#utility.yul\":17411:17413   */\n      0x1f\n        /* \"#utility.yul\":17407:17414   */\n      not\n        /* \"#utility.yul\":17402:17404   */\n      0x1f\n        /* \"#utility.yul\":17395:17400   */\n      dup4\n        /* \"#utility.yul\":17391:17405   */\n      add\n        /* \"#utility.yul\":17387:17415   */\n      and\n        /* \"#utility.yul\":17377:17415   */\n      swap1\n      pop\n        /* \"#utility.yul\":17319:17421   */\n      swap2\n      swap1\n      pop\n      jump\t// out\n        /* \"#utility.yul\":17427:17533   */\n    tag_331:\n        /* \"#utility.yul\":17471:17479   */\n      0x00\n        /* \"#utility.yul\":17520:17525   */\n      dup2\n        /* \"#utility.yul\":17515:17518   */\n      0xe0\n        /* \"#utility.yul\":17511:17526   */\n      shr\n        /* \"#utility.yul\":17490:17526   */\n      swap1\n      pop\n        /* \"#utility.yul\":17427:17533   */\n      swap2\n      swap1\n      pop\n      jump\t// out\n        /* \"#utility.yul\":17539:17778   */\n    tag_220:\n        /* \"#utility.yul\":17679:17713   */\n      0x455243313135353a207472616e7366657220746f206e6f6e2045524331313535\n        /* \"#utility.yul\":17675:17676   */\n      0x00\n        /* \"#utility.yul\":17667:17673   */\n      dup3\n        /* \"#utility.yul\":17663:17677   */\n      add\n        /* \"#utility.yul\":17656:17714   */\n      mstore\n        /* \"#utility.yul\":17748:17770   */\n      0x526563656976657220696d706c656d656e746572000000000000000000000000\n        /* \"#utility.yul\":17743:17745   */\n      0x20\n        /* \"#utility.yul\":17735:17741   */\n      dup3\n        /* \"#utility.yul\":17731:17746   */\n      add\n        /* \"#utility.yul\":17724:17771   */\n      mstore\n        /* \"#utility.yul\":17539:17778   */\n      pop\n      jump\t// out\n        /* \"#utility.yul\":17784:18018   */\n    tag_225:\n        /* \"#utility.yul\":17924:17958   */\n      0x455243313135353a2063616c6c6572206973206e6f7420746f6b656e206f776e\n        /* \"#utility.yul\":17920:17921   */\n      0x00\n        /* \"#utility.yul\":17912:17918   */\n      dup3\n        /* \"#utility.yul\":17908:17922   */\n      add\n        /* \"#utility.yul\":17901:17959   */\n      mstore\n        /* \"#utility.yul\":17993:18010   */\n      0x6572206e6f7220617070726f7665640000000000000000000000000000000000\n        /* \"#utility.yul\":17988:17990   */\n      0x20\n        /* \"#utility.yul\":17980:17986   */\n      dup3\n        /* \"#utility.yul\":17976:17991   */\n      add\n        /* \"#utility.yul\":17969:18011   */\n      mstore\n        /* \"#utility.yul\":17784:18018   */\n      pop\n      jump\t// out\n        /* \"#utility.yul\":18024:18251   */\n    tag_230:\n        /* \"#utility.yul\":18164:18198   */\n      0x455243313135353a204552433131353552656365697665722072656a65637465\n        /* \"#utility.yul\":18160:18161   */\n      0x00\n        /* \"#utility.yul\":18152:18158   */\n      dup3\n        /* \"#utility.yul\":18148:18162   */\n      add\n        /* \"#utility.yul\":18141:18199   */\n      mstore\n        /* \"#utility.yul\":18233:18243   */\n      0x6420746f6b656e73000000000000000000000000000000000000000000000000\n        /* \"#utility.yul\":18228:18230   */\n      0x20\n        /* \"#utility.yul\":18220:18226   */\n      dup3\n        /* \"#utility.yul\":18216:18231   */\n      add\n        /* \"#utility.yul\":18209:18244   */\n      mstore\n        /* \"#utility.yul\":18024:18251   */\n      pop\n      jump\t// out\n        /* \"#utility.yul\":18257:18486   */\n    tag_235:\n        /* \"#utility.yul\":18397:18431   */\n      0x455243313135353a2061646472657373207a65726f206973206e6f7420612076\n        /* \"#utility.yul\":18393:18394   */\n      0x00\n        /* \"#utility.yul\":18385:18391   */\n      dup3\n        /* \"#utility.yul\":18381:18395   */\n      add\n        /* \"#utility.yul\":18374:18432   */\n      mstore\n        /* \"#utility.yul\":18466:18478   */\n      0x616c6964206f776e657200000000000000000000000000000000000000000000\n        /* \"#utility.yul\":18461:18463   */\n      0x20\n        /* \"#utility.yul\":18453:18459   */\n      dup3\n        /* \"#utility.yul\":18449:18464   */\n      add\n        /* \"#utility.yul\":18442:18479   */\n      mstore\n        /* \"#utility.yul\":18257:18486   */\n      pop\n      jump\t// out\n        /* \"#utility.yul\":18492:18716   */\n    tag_240:\n        /* \"#utility.yul\":18632:18666   */\n      0x455243313135353a207472616e7366657220746f20746865207a65726f206164\n        /* \"#utility.yul\":18628:18629   */\n      0x00\n        /* \"#utility.yul\":18620:18626   */\n      dup3\n        /* \"#utility.yul\":18616:18630   */\n      add\n        /* \"#utility.yul\":18609:18667   */\n      mstore\n        /* \"#utility.yul\":18701:18708   */\n      0x6472657373000000000000000000000000000000000000000000000000000000\n        /* \"#utility.yul\":18696:18698   */\n      0x20\n        /* \"#utility.yul\":18688:18694   */\n      dup3\n        /* \"#utility.yul\":18684:18699   */\n      add\n        /* \"#utility.yul\":18677:18709   */\n      mstore\n        /* \"#utility.yul\":18492:18716   */\n      pop\n      jump\t// out\n        /* \"#utility.yul\":18722:18951   */\n    tag_245:\n        /* \"#utility.yul\":18862:18896   */\n      0x455243313135353a20696e73756666696369656e742062616c616e636520666f\n        /* \"#utility.yul\":18858:18859   */\n      0x00\n        /* \"#utility.yul\":18850:18856   */\n      dup3\n        /* \"#utility.yul\":18846:18860   */\n      add\n        /* \"#utility.yul\":18839:18897   */\n      mstore\n        /* \"#utility.yul\":18931:18943   */\n      0x72207472616e7366657200000000000000000000000000000000000000000000\n        /* \"#utility.yul\":18926:18928   */\n      0x20\n        /* \"#utility.yul\":18918:18924   */\n      dup3\n        /* \"#utility.yul\":18914:18929   */\n      add\n        /* \"#utility.yul\":18907:18944   */\n      mstore\n        /* \"#utility.yul\":18722:18951   */\n      pop\n      jump\t// out\n        /* \"#utility.yul\":18957:19177   */\n    tag_250:\n        /* \"#utility.yul\":19097:19131   */\n      0x455243313135353a206d696e7420746f20746865207a65726f20616464726573\n        /* \"#utility.yul\":19093:19094   */\n      0x00\n        /* \"#utility.yul\":19085:19091   */\n      dup3\n        /* \"#utility.yul\":19081:19095   */\n      add\n        /* \"#utility.yul\":19074:19132   */\n      mstore\n        /* \"#utility.yul\":19166:19169   */\n      0x7300000000000000000000000000000000000000000000000000000000000000\n        /* \"#utility.yul\":19161:19163   */\n      0x20\n        /* \"#utility.yul\":19153:19159   */\n      dup3\n        /* \"#utility.yul\":19149:19164   */\n      add\n        /* \"#utility.yul\":19142:19170   */\n      mstore\n        /* \"#utility.yul\":18957:19177   */\n      pop\n      jump\t// out\n        /* \"#utility.yul\":19183:19894   */\n    tag_117:\n        /* \"#utility.yul\":19222:19225   */\n      0x00\n        /* \"#utility.yul\":19260:19264   */\n      0x44\n        /* \"#utility.yul\":19242:19258   */\n      returndatasize\n        /* \"#utility.yul\":19239:19265   */\n      lt\n        /* \"#utility.yul\":19236:19275   */\n      iszero\n      tag_346\n      jumpi\n        /* \"#utility.yul\":19268:19273   */\n      jump(tag_345)\n        /* \"#utility.yul\":19236:19275   */\n    tag_346:\n        /* \"#utility.yul\":19297:19317   */\n      tag_347\n      tag_284\n      jump\t// in\n    tag_347:\n        /* \"#utility.yul\":19372:19373   */\n      0x04\n        /* \"#utility.yul\":19354:19370   */\n      returndatasize\n        /* \"#utility.yul\":19350:19374   */\n      sub\n        /* \"#utility.yul\":19347:19348   */\n      0x04\n        /* \"#utility.yul\":19341:19345   */\n      dup3\n        /* \"#utility.yul\":19326:19375   */\n      returndatacopy\n        /* \"#utility.yul\":19405:19409   */\n      dup1\n        /* \"#utility.yul\":19399:19410   */\n      mload\n        /* \"#utility.yul\":19504:19520   */\n      returndatasize\n        /* \"#utility.yul\":19497:19501   */\n      0x24\n        /* \"#utility.yul\":19489:19495   */\n      dup3\n        /* \"#utility.yul\":19485:19502   */\n      add\n        /* \"#utility.yul\":19482:19521   */\n      gt\n        /* \"#utility.yul\":19449:19467   */\n      0xffffffffffffffff\n        /* \"#utility.yul\":19441:19447   */\n      dup3\n        /* \"#utility.yul\":19438:19468   */\n      gt\n        /* \"#utility.yul\":19422:19535   */\n      or\n        /* \"#utility.yul\":19419:19565   */\n      iszero\n      tag_348\n      jumpi\n        /* \"#utility.yul\":19550:19555   */\n      pop\n      pop\n      jump(tag_345)\n        /* \"#utility.yul\":19419:19565   */\n    tag_348:\n        /* \"#utility.yul\":19596:19602   */\n      dup1\n        /* \"#utility.yul\":19590:19594   */\n      dup3\n        /* \"#utility.yul\":19586:19603   */\n      add\n        /* \"#utility.yul\":19632:19635   */\n      dup1\n        /* \"#utility.yul\":19626:19636   */\n      mload\n        /* \"#utility.yul\":19659:19677   */\n      0xffffffffffffffff\n        /* \"#utility.yul\":19651:19657   */\n      dup2\n        /* \"#utility.yul\":19648:19678   */\n      gt\n        /* \"#utility.yul\":19645:19688   */\n      iszero\n      tag_349\n      jumpi\n        /* \"#utility.yul\":19681:19686   */\n      pop\n      pop\n      pop\n      pop\n      jump(tag_345)\n        /* \"#utility.yul\":19645:19688   */\n    tag_349:\n        /* \"#utility.yul\":19729:19735   */\n      dup1\n        /* \"#utility.yul\":19722:19726   */\n      0x20\n        /* \"#utility.yul\":19717:19720   */\n      dup4\n        /* \"#utility.yul\":19713:19727   */\n      add\n        /* \"#utility.yul\":19709:19736   */\n      add\n        /* \"#utility.yul\":19788:19789   */\n      0x04\n        /* \"#utility.yul\":19770:19786   */\n      returndatasize\n        /* \"#utility.yul\":19766:19790   */\n      sub\n        /* \"#utility.yul\":19760:19764   */\n      dup6\n        /* \"#utility.yul\":19756:19791   */\n      add\n        /* \"#utility.yul\":19751:19754   */\n      dup2\n        /* \"#utility.yul\":19748:19792   */\n      gt\n        /* \"#utility.yul\":19745:19802   */\n      iszero\n      tag_350\n      jumpi\n        /* \"#utility.yul\":19795:19800   */\n      pop\n      pop\n      pop\n      pop\n      pop\n      jump(tag_345)\n        /* \"#utility.yul\":19745:19802   */\n    tag_350:\n        /* \"#utility.yul\":19812:19869   */\n      tag_351\n        /* \"#utility.yul\":19860:19866   */\n      dup3\n        /* \"#utility.yul\":19854:19858   */\n      0x20\n        /* \"#utility.yul\":19850:19867   */\n      add\n        /* \"#utility.yul\":19842:19848   */\n      dup6\n        /* \"#utility.yul\":19838:19868   */\n      add\n        /* \"#utility.yul\":19832:19836   */\n      dup7\n        /* \"#utility.yul\":19812:19869   */\n      tag_286\n      jump\t// in\n    tag_351:\n        /* \"#utility.yul\":19885:19888   */\n      dup3\n        /* \"#utility.yul\":19878:19888   */\n      swap6\n      pop\n        /* \"#utility.yul\":19226:19894   */\n      pop\n      pop\n      pop\n      pop\n      pop\n        /* \"#utility.yul\":19183:19894   */\n    tag_345:\n      swap1\n      jump\t// out\n        /* \"#utility.yul\":19900:20022   */\n    tag_142:\n        /* \"#utility.yul\":19973:19997   */\n      tag_353\n        /* \"#utility.yul\":19991:19996   */\n      dup2\n        /* \"#utility.yul\":19973:19997   */\n      tag_197\n      jump\t// in\n    tag_353:\n        /* \"#utility.yul\":19966:19971   */\n      dup2\n        /* \"#utility.yul\":19963:19998   */\n      eq\n        /* \"#utility.yul\":19953:20016   */\n      tag_354\n      jumpi\n        /* \"#utility.yul\":20012:20013   */\n      0x00\n        /* \"#utility.yul\":20009:20010   */\n      dup1\n        /* \"#utility.yul\":20002:20014   */\n      revert\n        /* \"#utility.yul\":19953:20016   */\n    tag_354:\n        /* \"#utility.yul\":19900:20022   */\n      pop\n      jump\t// out\n        /* \"#utility.yul\":20028:20148   */\n    tag_146:\n        /* \"#utility.yul\":20100:20123   */\n      tag_356\n        /* \"#utility.yul\":20117:20122   */\n      dup2\n        /* \"#utility.yul\":20100:20123   */\n      tag_305\n      jump\t// in\n    tag_356:\n        /* \"#utility.yul\":20093:20098   */\n      dup2\n        /* \"#utility.yul\":20090:20124   */\n      eq\n        /* \"#utility.yul\":20080:20142   */\n      tag_357\n      jumpi\n        /* \"#utility.yul\":20138:20139   */\n      0x00\n        /* \"#utility.yul\":20135:20136   */\n      dup1\n        /* \"#utility.yul\":20128:20140   */\n      revert\n        /* \"#utility.yul\":20080:20142   */\n    tag_357:\n        /* \"#utility.yul\":20028:20148   */\n      pop\n      jump\t// out\n        /* \"#utility.yul\":20154:20276   */\n    tag_156:\n        /* \"#utility.yul\":20227:20251   */\n      tag_359\n        /* \"#utility.yul\":20245:20250   */\n      dup2\n        /* \"#utility.yul\":20227:20251   */\n      tag_254\n      jump\t// in\n    tag_359:\n        /* \"#utility.yul\":20220:20225   */\n      dup2\n        /* \"#utility.yul\":20217:20252   */\n      eq\n        /* \"#utility.yul\":20207:20270   */\n      tag_360\n      jumpi\n        /* \"#utility.yul\":20266:20267   */\n      0x00\n        /* \"#utility.yul\":20263:20264   */\n      dup1\n        /* \"#utility.yul\":20256:20268   */\n      revert\n        /* \"#utility.yul\":20207:20270   */\n    tag_360:\n        /* \"#utility.yul\":20154:20276   */\n      pop\n      jump\t// out\n\n    auxdata: 0xa264697066735822122098419c7b96d078f06d36345192b6774a6f9c720211aac446b5cf7c7e72cf9a0764736f6c63430008070033\n}\n",
				"bytecode": {
					"linkReferences": {},
					"object": "60806040523480156200001157600080fd5b506040518060400160405280600381526020017f757269000000000000000000000000000000000000000000000000000000000081525062000059816200006060201b60201c565b5062000191565b8060029080519060200190620000789291906200007c565b5050565b8280546200008a906200012c565b90600052602060002090601f016020900481019282620000ae5760008555620000fa565b82601f10620000c957805160ff1916838001178555620000fa565b82800160010185558215620000fa579182015b82811115620000f9578251825591602001919060010190620000dc565b5b5090506200010991906200010d565b5090565b5b80821115620001285760008160009055506001016200010e565b5090565b600060028204905060018216806200014557607f821691505b602082108114156200015c576200015b62000162565b5b50919050565b7f4e487b7100000000000000000000000000000000000000000000000000000000600052602260045260246000fd5b61161680620001a16000396000f3fe608060405234801561001057600080fd5b50600436106100565760003560e01c8062fdd58e1461005b5780630e89341c1461008b57806357e87575146100bb5780635d059581146100d7578063f242432a146100f3575b600080fd5b61007560048036038101906100709190610bdc565b61010f565b6040516100829190610f97565b60405180910390f35b6100a560048036038101906100a09190610c49565b6101d8565b6040516100b29190610e95565b60405180910390f35b6100d560048036038101906100d09190610c76565b61026c565b005b6100f160048036038101906100ec9190610ade565b61028b565b005b61010d60048036038101906101089190610b45565b6102d3565b005b60008073ffffffffffffffffffffffffffffffffffffffff168373ffffffffffffffffffffffffffffffffffffffff161415610180576040517f08c379a000000000000000000000000000000000000000000000000000000000815260040161017790610f17565b60405180910390fd5b60008083815260200190815260200160002060008473ffffffffffffffffffffffffffffffffffffffff1673ffffffffffffffffffffffffffffffffffffffff16815260200190815260200160002054905092915050565b6060600280546101e790611169565b80601f016020809104026020016040519081016040528092919081815260200182805461021390611169565b80156102605780601f1061023557610100808354040283529160200191610260565b820191906000526020600020905b81548152906001019060200180831161024357829003601f168201915b50505050509050919050565b6102873383836040518060200160405280600081525061035c565b5050565b6102cd848484846040518060400160405280600481526020017f307830300000000000000000000000000000000000000000000000000000000081525061050d565b50505050565b6102db6107a9565b73ffffffffffffffffffffffffffffffffffffffff168573ffffffffffffffffffffffffffffffffffffffff1614610348576040517f08c379a000000000000000000000000000000000000000000000000000000000815260040161033f90610ed7565b60405180910390fd5b610355858585858561050d565b5050505050565b600073ffffffffffffffffffffffffffffffffffffffff168473ffffffffffffffffffffffffffffffffffffffff1614156103cc576040517f08c379a00000000000000000000000000000000000000000000000000000000081526004016103c390610f77565b60405180910390fd5b60006103d66107a9565b905060006103e3856107b1565b905060006103f0856107b1565b90506104018360008985858961082b565b8460008088815260200190815260200160002060008973ffffffffffffffffffffffffffffffffffffffff1673ffffffffffffffffffffffffffffffffffffffff16815260200190815260200160002060008282546104609190611069565b925050819055508673ffffffffffffffffffffffffffffffffffffffff16600073ffffffffffffffffffffffffffffffffffffffff168473ffffffffffffffffffffffffffffffffffffffff167fc3d58168c5ae7397731d063d5bbf3d657854427343f4c083240f7aacaa2d0f6289896040516104de929190610fb2565b60405180910390a46104f583600089858589610833565b6105048360008989898961083b565b50505050505050565b600073ffffffffffffffffffffffffffffffffffffffff168473ffffffffffffffffffffffffffffffffffffffff16141561057d576040517f08c379a000000000000000000000000000000000000000000000000000000000815260040161057490610f37565b60405180910390fd5b60006105876107a9565b90506000610594856107b1565b905060006105a1856107b1565b90506105b183898985858961082b565b600080600088815260200190815260200160002060008a73ffffffffffffffffffffffffffffffffffffffff1673ffffffffffffffffffffffffffffffffffffffff16815260200190815260200160002054905085811015610648576040517f08c379a000000000000000000000000000000000000000000000000000000000815260040161063f90610f57565b60405180910390fd5b85810360008089815260200190815260200160002060008b73ffffffffffffffffffffffffffffffffffffffff1673ffffffffffffffffffffffffffffffffffffffff168152602001908152602001600020819055508560008089815260200190815260200160002060008a73ffffffffffffffffffffffffffffffffffffffff1673ffffffffffffffffffffffffffffffffffffffff16815260200190815260200160002060008282546106fd9190611069565b925050819055508773ffffffffffffffffffffffffffffffffffffffff168973ffffffffffffffffffffffffffffffffffffffff168573ffffffffffffffffffffffffffffffffffffffff167fc3d58168c5ae7397731d063d5bbf3d657854427343f4c083240f7aacaa2d0f628a8a60405161077a929190610fb2565b60405180910390a4610790848a8a86868a610833565b61079e848a8a8a8a8a61083b565b505050505050505050565b600033905090565b60606000600167ffffffffffffffff8111156107d0576107cf611259565b5b6040519080825280602002602001820160405280156107fe5781602001602082028036833780820191505090505b50905082816000815181106108165761081561122a565b5b60200260200101818152505080915050919050565b505050505050565b505050505050565b61084484610a0c565b15610a04578373ffffffffffffffffffffffffffffffffffffffff1663f23a6e6187878686866040518663ffffffff1660e01b815260040161088a959493929190610e3b565b602060405180830381600087803b1580156108a457600080fd5b505af19250505080156108d557506040513d601f19601f820116820180604052508101906108d29190610c1c565b60015b61097b576108e1611288565b806308c379a0141561093e57506108f6611505565b806109015750610940565b806040517f08c379a00000000000000000000000000000000000000000000000000000000081526004016109359190610e95565b60405180910390fd5b505b6040517f08c379a000000000000000000000000000000000000000000000000000000000815260040161097290610eb7565b60405180910390fd5b63f23a6e6160e01b7bffffffffffffffffffffffffffffffffffffffffffffffffffffffff1916817bffffffffffffffffffffffffffffffffffffffffffffffffffffffff191614610a02576040517f08c379a00000000000000000000000000000000000000000000000000000000081526004016109f990610ef7565b60405180910390fd5b505b505050505050565b6000808273ffffffffffffffffffffffffffffffffffffffff163b119050919050565b6000610a42610a3d84611000565b610fdb565b905082815260208101848484011115610a5e57610a5d6112af565b5b610a69848285611127565b509392505050565b600081359050610a808161159b565b92915050565b600081519050610a95816115b2565b92915050565b600082601f830112610ab057610aaf6112aa565b5b8135610ac0848260208601610a2f565b91505092915050565b600081359050610ad8816115c9565b92915050565b60008060008060808587031215610af857610af76112b9565b5b6000610b0687828801610a71565b9450506020610b1787828801610a71565b9350506040610b2887828801610ac9565b9250506060610b3987828801610ac9565b91505092959194509250565b600080600080600060a08688031215610b6157610b606112b9565b5b6000610b6f88828901610a71565b9550506020610b8088828901610a71565b9450506040610b9188828901610ac9565b9350506060610ba288828901610ac9565b925050608086013567ffffffffffffffff811115610bc357610bc26112b4565b5b610bcf88828901610a9b565b9150509295509295909350565b60008060408385031215610bf357610bf26112b9565b5b6000610c0185828601610a71565b9250506020610c1285828601610ac9565b9150509250929050565b600060208284031215610c3257610c316112b9565b5b6000610c4084828501610a86565b91505092915050565b600060208284031215610c5f57610c5e6112b9565b5b6000610c6d84828501610ac9565b91505092915050565b60008060408385031215610c8d57610c8c6112b9565b5b6000610c9b85828601610ac9565b9250506020610cac85828601610ac9565b9150509250929050565b610cbf816110bf565b82525050565b6000610cd082611031565b610cda8185611047565b9350610cea818560208601611136565b610cf3816112be565b840191505092915050565b6000610d098261103c565b610d138185611058565b9350610d23818560208601611136565b610d2c816112be565b840191505092915050565b6000610d44603483611058565b9150610d4f826112dc565b604082019050919050565b6000610d67602f83611058565b9150610d728261132b565b604082019050919050565b6000610d8a602883611058565b9150610d958261137a565b604082019050919050565b6000610dad602a83611058565b9150610db8826113c9565b604082019050919050565b6000610dd0602583611058565b9150610ddb82611418565b604082019050919050565b6000610df3602a83611058565b9150610dfe82611467565b604082019050919050565b6000610e16602183611058565b9150610e21826114b6565b604082019050919050565b610e358161111d565b82525050565b600060a082019050610e506000830188610cb6565b610e5d6020830187610cb6565b610e6a6040830186610e2c565b610e776060830185610e2c565b8181036080830152610e898184610cc5565b90509695505050505050565b60006020820190508181036000830152610eaf8184610cfe565b905092915050565b60006020820190508181036000830152610ed081610d37565b9050919050565b60006020820190508181036000830152610ef081610d5a565b9050919050565b60006020820190508181036000830152610f1081610d7d565b9050919050565b60006020820190508181036000830152610f3081610da0565b9050919050565b60006020820190508181036000830152610f5081610dc3565b9050919050565b60006020820190508181036000830152610f7081610de6565b9050919050565b60006020820190508181036000830152610f9081610e09565b9050919050565b6000602082019050610fac6000830184610e2c565b92915050565b6000604082019050610fc76000830185610e2c565b610fd46020830184610e2c565b9392505050565b6000610fe5610ff6565b9050610ff1828261119b565b919050565b6000604051905090565b600067ffffffffffffffff82111561101b5761101a611259565b5b611024826112be565b9050602081019050919050565b600081519050919050565b600081519050919050565b600082825260208201905092915050565b600082825260208201905092915050565b60006110748261111d565b915061107f8361111d565b9250827fffffffffffffffffffffffffffffffffffffffffffffffffffffffffffffffff038211156110b4576110b36111cc565b5b828201905092915050565b60006110ca826110fd565b9050919050565b60007fffffffff0000000000000000000000000000000000000000000000000000000082169050919050565b600073ffffffffffffffffffffffffffffffffffffffff82169050919050565b6000819050919050565b82818337600083830152505050565b60005b83811015611154578082015181840152602081019050611139565b83811115611163576000848401525b50505050565b6000600282049050600182168061118157607f821691505b60208210811415611195576111946111fb565b5b50919050565b6111a4826112be565b810181811067ffffffffffffffff821117156111c3576111c2611259565b5b80604052505050565b7f4e487b7100000000000000000000000000000000000000000000000000000000600052601160045260246000fd5b7f4e487b7100000000000000000000000000000000000000000000000000000000600052602260045260246000fd5b7f4e487b7100000000000000000000000000000000000000000000000000000000600052603260045260246000fd5b7f4e487b7100000000000000000000000000000000000000000000000000000000600052604160045260246000fd5b600060033d11156112a75760046000803e6112a46000516112cf565b90505b90565b600080fd5b600080fd5b600080fd5b600080fd5b6000601f19601f8301169050919050565b60008160e01c9050919050565b7f455243313135353a207472616e7366657220746f206e6f6e204552433131353560008201527f526563656976657220696d706c656d656e746572000000000000000000000000602082015250565b7f455243313135353a2063616c6c6572206973206e6f7420746f6b656e206f776e60008201527f6572206e6f7220617070726f7665640000000000000000000000000000000000602082015250565b7f455243313135353a204552433131353552656365697665722072656a6563746560008201527f6420746f6b656e73000000000000000000000000000000000000000000000000602082015250565b7f455243313135353a2061646472657373207a65726f206973206e6f742061207660008201527f616c6964206f776e657200000000000000000000000000000000000000000000602082015250565b7f455243313135353a207472616e7366657220746f20746865207a65726f20616460008201527f6472657373000000000000000000000000000000000000000000000000000000602082015250565b7f455243313135353a20696e73756666696369656e742062616c616e636520666f60008201527f72207472616e7366657200000000000000000000000000000000000000000000602082015250565b7f455243313135353a206d696e7420746f20746865207a65726f2061646472657360008201527f7300000000000000000000000000000000000000000000000000000000000000602082015250565b600060443d101561151557611598565b61151d610ff6565b60043d036004823e80513d602482011167ffffffffffffffff82111715611545575050611598565b808201805167ffffffffffffffff8111156115635750505050611598565b80602083010160043d038501811115611580575050505050611598565b61158f8260200185018661119b565b82955050505050505b90565b6115a4816110bf565b81146115af57600080fd5b50565b6115bb816110d1565b81146115c657600080fd5b50565b6115d28161111d565b81146115dd57600080fd5b5056fea264697066735822122098419c7b96d078f06d36345192b6774a6f9c720211aac446b5cf7c7e72cf9a0764736f6c63430008070033",
					"opcodes": "PUSH1 0x80 PUSH1 0x40 MSTORE CALLVALUE DUP1 ISZERO PUSH3 0x11 JUMPI PUSH1 0x0 DUP1 REVERT JUMPDEST POP PUSH1 0x40 MLOAD DUP1 PUSH1 0x40 ADD PUSH1 0x40 MSTORE DUP1 PUSH1 0x3 DUP2 MSTORE PUSH1 0x20 ADD PUSH32 0x7572690000000000000000000000000000000000000000000000000000000000 DUP2 MSTORE POP PUSH3 0x59 DUP2 PUSH3 0x60 PUSH1 0x20 SHL PUSH1 0x20 SHR JUMP JUMPDEST POP PUSH3 0x191 JUMP JUMPDEST DUP1 PUSH1 0x2 SWAP1 DUP1 MLOAD SWAP1 PUSH1 0x20 ADD SWAP1 PUSH3 0x78 SWAP3 SWAP2 SWAP1 PUSH3 0x7C JUMP JUMPDEST POP POP JUMP JUMPDEST DUP3 DUP1 SLOAD PUSH3 0x8A SWAP1 PUSH3 0x12C JUMP JUMPDEST SWAP1 PUSH1 0x0 MSTORE PUSH1 0x20 PUSH1 0x0 KECCAK256 SWAP1 PUSH1 0x1F ADD PUSH1 0x20 SWAP1 DIV DUP2 ADD SWAP3 DUP3 PUSH3 0xAE JUMPI PUSH1 0x0 DUP6 SSTORE PUSH3 0xFA JUMP JUMPDEST DUP3 PUSH1 0x1F LT PUSH3 0xC9 JUMPI DUP1 MLOAD PUSH1 0xFF NOT AND DUP4 DUP1 ADD OR DUP6 SSTORE PUSH3 0xFA JUMP JUMPDEST DUP3 DUP1 ADD PUSH1 0x1 ADD DUP6 SSTORE DUP3 ISZERO PUSH3 0xFA JUMPI SWAP2 DUP3 ADD JUMPDEST DUP3 DUP2 GT ISZERO PUSH3 0xF9 JUMPI DUP3 MLOAD DUP3 SSTORE SWAP2 PUSH1 0x20 ADD SWAP2 SWAP1 PUSH1 0x1 ADD SWAP1 PUSH3 0xDC JUMP JUMPDEST JUMPDEST POP SWAP1 POP PUSH3 0x109 SWAP2 SWAP1 PUSH3 0x10D JUMP JUMPDEST POP SWAP1 JUMP JUMPDEST JUMPDEST DUP1 DUP3 GT ISZERO PUSH3 0x128 JUMPI PUSH1 0x0 DUP2 PUSH1 0x0 SWAP1 SSTORE POP PUSH1 0x1 ADD PUSH3 0x10E JUMP JUMPDEST POP SWAP1 JUMP JUMPDEST PUSH1 0x0 PUSH1 0x2 DUP3 DIV SWAP1 POP PUSH1 0x1 DUP3 AND DUP1 PUSH3 0x145 JUMPI PUSH1 0x7F DUP3 AND SWAP2 POP JUMPDEST PUSH1 0x20 DUP3 LT DUP2 EQ ISZERO PUSH3 0x15C JUMPI PUSH3 0x15B PUSH3 0x162 JUMP JUMPDEST JUMPDEST POP SWAP2 SWAP1 POP JUMP JUMPDEST PUSH32 0x4E487B7100000000000000000000000000000000000000000000000000000000 PUSH1 0x0 MSTORE PUSH1 0x22 PUSH1 0x4 MSTORE PUSH1 0x24 PUSH1 0x0 REVERT JUMPDEST PUSH2 0x1616 DUP1 PUSH3 0x1A1 PUSH1 0x0 CODECOPY PUSH1 0x0 RETURN INVALID PUSH1 0x80 PUSH1 0x40 MSTORE CALLVALUE DUP1 ISZERO PUSH2 0x10 JUMPI PUSH1 0x0 DUP1 REVERT JUMPDEST POP PUSH1 0x4 CALLDATASIZE LT PUSH2 0x56 JUMPI PUSH1 0x0 CALLDATALOAD PUSH1 0xE0 SHR DUP1 PUSH3 0xFDD58E EQ PUSH2 0x5B JUMPI DUP1 PUSH4 0xE89341C EQ PUSH2 0x8B JUMPI DUP1 PUSH4 0x57E87575 EQ PUSH2 0xBB JUMPI DUP1 PUSH4 0x5D059581 EQ PUSH2 0xD7 JUMPI DUP1 PUSH4 0xF242432A EQ PUSH2 0xF3 JUMPI JUMPDEST PUSH1 0x0 DUP1 REVERT JUMPDEST PUSH2 0x75 PUSH1 0x4 DUP1 CALLDATASIZE SUB DUP2 ADD SWAP1 PUSH2 0x70 SWAP2 SWAP1 PUSH2 0xBDC JUMP JUMPDEST PUSH2 0x10F JUMP JUMPDEST PUSH1 0x40 MLOAD PUSH2 0x82 SWAP2 SWAP1 PUSH2 0xF97 JUMP JUMPDEST PUSH1 0x40 MLOAD DUP1 SWAP2 SUB SWAP1 RETURN JUMPDEST PUSH2 0xA5 PUSH1 0x4 DUP1 CALLDATASIZE SUB DUP2 ADD SWAP1 PUSH2 0xA0 SWAP2 SWAP1 PUSH2 0xC49 JUMP JUMPDEST PUSH2 0x1D8 JUMP JUMPDEST PUSH1 0x40 MLOAD PUSH2 0xB2 SWAP2 SWAP1 PUSH2 0xE95 JUMP JUMPDEST PUSH1 0x40 MLOAD DUP1 SWAP2 SUB SWAP1 RETURN JUMPDEST PUSH2 0xD5 PUSH1 0x4 DUP1 CALLDATASIZE SUB DUP2 ADD SWAP1 PUSH2 0xD0 SWAP2 SWAP1 PUSH2 0xC76 JUMP JUMPDEST PUSH2 0x26C JUMP JUMPDEST STOP JUMPDEST PUSH2 0xF1 PUSH1 0x4 DUP1 CALLDATASIZE SUB DUP2 ADD SWAP1 PUSH2 0xEC SWAP2 SWAP1 PUSH2 0xADE JUMP JUMPDEST PUSH2 0x28B JUMP JUMPDEST STOP JUMPDEST PUSH2 0x10D PUSH1 0x4 DUP1 CALLDATASIZE SUB DUP2 ADD SWAP1 PUSH2 0x108 SWAP2 SWAP1 PUSH2 0xB45 JUMP JUMPDEST PUSH2 0x2D3 JUMP JUMPDEST STOP JUMPDEST PUSH1 0x0 DUP1 PUSH20 0xFFFFFFFFFFFFFFFFFFFFFFFFFFFFFFFFFFFFFFFF AND DUP4 PUSH20 0xFFFFFFFFFFFFFFFFFFFFFFFFFFFFFFFFFFFFFFFF AND EQ ISZERO PUSH2 0x180 JUMPI PUSH1 0x40 MLOAD PUSH32 0x8C379A000000000000000000000000000000000000000000000000000000000 DUP2 MSTORE PUSH1 0x4 ADD PUSH2 0x177 SWAP1 PUSH2 0xF17 JUMP JUMPDEST PUSH1 0x40 MLOAD DUP1 SWAP2 SUB SWAP1 REVERT JUMPDEST PUSH1 0x0 DUP1 DUP4 DUP2 MSTORE PUSH1 0x20 ADD SWAP1 DUP2 MSTORE PUSH1 0x20 ADD PUSH1 0x0 KECCAK256 PUSH1 0x0 DUP5 PUSH20 0xFFFFFFFFFFFFFFFFFFFFFFFFFFFFFFFFFFFFFFFF AND PUSH20 0xFFFFFFFFFFFFFFFFFFFFFFFFFFFFFFFFFFFFFFFF AND DUP2 MSTORE PUSH1 0x20 ADD SWAP1 DUP2 MSTORE PUSH1 0x20 ADD PUSH1 0x0 KECCAK256 SLOAD SWAP1 POP SWAP3 SWAP2 POP POP JUMP JUMPDEST PUSH1 0x60 PUSH1 0x2 DUP1 SLOAD PUSH2 0x1E7 SWAP1 PUSH2 0x1169 JUMP JUMPDEST DUP1 PUSH1 0x1F ADD PUSH1 0x20 DUP1 SWAP2 DIV MUL PUSH1 0x20 ADD PUSH1 0x40 MLOAD SWAP1 DUP2 ADD PUSH1 0x40 MSTORE DUP1 SWAP3 SWAP2 SWAP1 DUP2 DUP2 MSTORE PUSH1 0x20 ADD DUP3 DUP1 SLOAD PUSH2 0x213 SWAP1 PUSH2 0x1169 JUMP JUMPDEST DUP1 ISZERO PUSH2 0x260 JUMPI DUP1 PUSH1 0x1F LT PUSH2 0x235 JUMPI PUSH2 0x100 DUP1 DUP4 SLOAD DIV MUL DUP4 MSTORE SWAP2 PUSH1 0x20 ADD SWAP2 PUSH2 0x260 JUMP JUMPDEST DUP3 ADD SWAP2 SWAP1 PUSH1 0x0 MSTORE PUSH1 0x20 PUSH1 0x0 KECCAK256 SWAP1 JUMPDEST DUP2 SLOAD DUP2 MSTORE SWAP1 PUSH1 0x1 ADD SWAP1 PUSH1 0x20 ADD DUP1 DUP4 GT PUSH2 0x243 JUMPI DUP3 SWAP1 SUB PUSH1 0x1F AND DUP3 ADD SWAP2 JUMPDEST POP POP POP POP POP SWAP1 POP SWAP2 SWAP1 POP JUMP JUMPDEST PUSH2 0x287 CALLER DUP4 DUP4 PUSH1 0x40 MLOAD DUP1 PUSH1 0x20 ADD PUSH1 0x40 MSTORE DUP1 PUSH1 0x0 DUP2 MSTORE POP PUSH2 0x35C JUMP JUMPDEST POP POP JUMP JUMPDEST PUSH2 0x2CD DUP5 DUP5 DUP5 DUP5 PUSH1 0x40 MLOAD DUP1 PUSH1 0x40 ADD PUSH1 0x40 MSTORE DUP1 PUSH1 0x4 DUP2 MSTORE PUSH1 0x20 ADD PUSH32 0x3078303000000000000000000000000000000000000000000000000000000000 DUP2 MSTORE POP PUSH2 0x50D JUMP JUMPDEST POP POP POP POP JUMP JUMPDEST PUSH2 0x2DB PUSH2 0x7A9 JUMP JUMPDEST PUSH20 0xFFFFFFFFFFFFFFFFFFFFFFFFFFFFFFFFFFFFFFFF AND DUP6 PUSH20 0xFFFFFFFFFFFFFFFFFFFFFFFFFFFFFFFFFFFFFFFF AND EQ PUSH2 0x348 JUMPI PUSH1 0x40 MLOAD PUSH32 0x8C379A000000000000000000000000000000000000000000000000000000000 DUP2 MSTORE PUSH1 0x4 ADD PUSH2 0x33F SWAP1 PUSH2 0xED7 JUMP JUMPDEST PUSH1 0x40 MLOAD DUP1 SWAP2 SUB SWAP1 REVERT JUMPDEST PUSH2 0x355 DUP6 DUP6 DUP6 DUP6 DUP6 PUSH2 0x50D JUMP JUMPDEST POP POP POP POP POP JUMP JUMPDEST PUSH1 0x0 PUSH20 0xFFFFFFFFFFFFFFFFFFFFFFFFFFFFFFFFFFFFFFFF AND DUP5 PUSH20 0xFFFFFFFFFFFFFFFFFFFFFFFFFFFFFFFFFFFFFFFF AND EQ ISZERO PUSH2 0x3CC JUMPI PUSH1 0x40 MLOAD PUSH32 0x8C379A000000000000000000000000000000000000000000000000000000000 DUP2 MSTORE PUSH1 0x4 ADD PUSH2 0x3C3 SWAP1 PUSH2 0xF77 JUMP JUMPDEST PUSH1 0x40 MLOAD DUP1 SWAP2 SUB SWAP1 REVERT JUMPDEST PUSH1 0x0 PUSH2 0x3D6 PUSH2 0x7A9 JUMP JUMPDEST SWAP1 POP PUSH1 0x0 PUSH2 0x3E3 DUP6 PUSH2 0x7B1 JUMP JUMPDEST SWAP1 POP PUSH1 0x0 PUSH2 0x3F0 DUP6 PUSH2 0x7B1 JUMP JUMPDEST SWAP1 POP PUSH2 0x401 DUP4 PUSH1 0x0 DUP10 DUP6 DUP6 DUP10 PUSH2 0x82B JUMP JUMPDEST DUP5 PUSH1 0x0 DUP1 DUP9 DUP2 MSTORE PUSH1 0x20 ADD SWAP1 DUP2 MSTORE PUSH1 0x20 ADD PUSH1 0x0 KECCAK256 PUSH1 0x0 DUP10 PUSH20 0xFFFFFFFFFFFFFFFFFFFFFFFFFFFFFFFFFFFFFFFF AND PUSH20 0xFFFFFFFFFFFFFFFFFFFFFFFFFFFFFFFFFFFFFFFF AND DUP2 MSTORE PUSH1 0x20 ADD SWAP1 DUP2 MSTORE PUSH1 0x20 ADD PUSH1 0x0 KECCAK256 PUSH1 0x0 DUP3 DUP3 SLOAD PUSH2 0x460 SWAP2 SWAP1 PUSH2 0x1069 JUMP JUMPDEST SWAP3 POP POP DUP2 SWAP1 SSTORE POP DUP7 PUSH20 0xFFFFFFFFFFFFFFFFFFFFFFFFFFFFFFFFFFFFFFFF AND PUSH1 0x0 PUSH20 0xFFFFFFFFFFFFFFFFFFFFFFFFFFFFFFFFFFFFFFFF AND DUP5 PUSH20 0xFFFFFFFFFFFFFFFFFFFFFFFFFFFFFFFFFFFFFFFF AND PUSH32 0xC3D58168C5AE7397731D063D5BBF3D657854427343F4C083240F7AACAA2D0F62 DUP10 DUP10 PUSH1 0x40 MLOAD PUSH2 0x4DE SWAP3 SWAP2 SWAP1 PUSH2 0xFB2 JUMP JUMPDEST PUSH1 0x40 MLOAD DUP1 SWAP2 SUB SWAP1 LOG4 PUSH2 0x4F5 DUP4 PUSH1 0x0 DUP10 DUP6 DUP6 DUP10 PUSH2 0x833 JUMP JUMPDEST PUSH2 0x504 DUP4 PUSH1 0x0 DUP10 DUP10 DUP10 DUP10 PUSH2 0x83B JUMP JUMPDEST POP POP POP POP POP POP POP JUMP JUMPDEST PUSH1 0x0 PUSH20 0xFFFFFFFFFFFFFFFFFFFFFFFFFFFFFFFFFFFFFFFF AND DUP5 PUSH20 0xFFFFFFFFFFFFFFFFFFFFFFFFFFFFFFFFFFFFFFFF AND EQ ISZERO PUSH2 0x57D JUMPI PUSH1 0x40 MLOAD PUSH32 0x8C379A000000000000000000000000000000000000000000000000000000000 DUP2 MSTORE PUSH1 0x4 ADD PUSH2 0x574 SWAP1 PUSH2 0xF37 JUMP JUMPDEST PUSH1 0x40 MLOAD DUP1 SWAP2 SUB SWAP1 REVERT JUMPDEST PUSH1 0x0 PUSH2 0x587 PUSH2 0x7A9 JUMP JUMPDEST SWAP1 POP PUSH1 0x0 PUSH2 0x594 DUP6 PUSH2 0x7B1 JUMP JUMPDEST SWAP1 POP PUSH1 0x0 PUSH2 0x5A1 DUP6 PUSH2 0x7B1 JUMP JUMPDEST SWAP1 POP PUSH2 0x5B1 DUP4 DUP10 DUP10 DUP6 DUP6 DUP10 PUSH2 0x82B JUMP JUMPDEST PUSH1 0x0 DUP1 PUSH1 0x0 DUP9 DUP2 MSTORE PUSH1 0x20 ADD SWAP1 DUP2 MSTORE PUSH1 0x20 ADD PUSH1 0x0 KECCAK256 PUSH1 0x0 DUP11 PUSH20 0xFFFFFFFFFFFFFFFFFFFFFFFFFFFFFFFFFFFFFFFF AND PUSH20 0xFFFFFFFFFFFFFFFFFFFFFFFFFFFFFFFFFFFFFFFF AND DUP2 MSTORE PUSH1 0x20 ADD SWAP1 DUP2 MSTORE PUSH1 0x20 ADD PUSH1 0x0 KECCAK256 SLOAD SWAP1 POP DUP6 DUP2 LT ISZERO PUSH2 0x648 JUMPI PUSH1 0x40 MLOAD PUSH32 0x8C379A000000000000000000000000000000000000000000000000000000000 DUP2 MSTORE PUSH1 0x4 ADD PUSH2 0x63F SWAP1 PUSH2 0xF57 JUMP JUMPDEST PUSH1 0x40 MLOAD DUP1 SWAP2 SUB SWAP1 REVERT JUMPDEST DUP6 DUP2 SUB PUSH1 0x0 DUP1 DUP10 DUP2 MSTORE PUSH1 0x20 ADD SWAP1 DUP2 MSTORE PUSH1 0x20 ADD PUSH1 0x0 KECCAK256 PUSH1 0x0 DUP12 PUSH20 0xFFFFFFFFFFFFFFFFFFFFFFFFFFFFFFFFFFFFFFFF AND PUSH20 0xFFFFFFFFFFFFFFFFFFFFFFFFFFFFFFFFFFFFFFFF AND DUP2 MSTORE PUSH1 0x20 ADD SWAP1 DUP2 MSTORE PUSH1 0x20 ADD PUSH1 0x0 KECCAK256 DUP2 SWAP1 SSTORE POP DUP6 PUSH1 0x0 DUP1 DUP10 DUP2 MSTORE PUSH1 0x20 ADD SWAP1 DUP2 MSTORE PUSH1 0x20 ADD PUSH1 0x0 KECCAK256 PUSH1 0x0 DUP11 PUSH20 0xFFFFFFFFFFFFFFFFFFFFFFFFFFFFFFFFFFFFFFFF AND PUSH20 0xFFFFFFFFFFFFFFFFFFFFFFFFFFFFFFFFFFFFFFFF AND DUP2 MSTORE PUSH1 0x20 ADD SWAP1 DUP2 MSTORE PUSH1 0x20 ADD PUSH1 0x0 KECCAK256 PUSH1 0x0 DUP3 DUP3 SLOAD PUSH2 0x6FD SWAP2 SWAP1 PUSH2 0x1069 JUMP JUMPDEST SWAP3 POP POP DUP2 SWAP1 SSTORE POP DUP8 PUSH20 0xFFFFFFFFFFFFFFFFFFFFFFFFFFFFFFFFFFFFFFFF AND DUP10 PUSH20 0xFFFFFFFFFFFFFFFFFFFFFFFFFFFFFFFFFFFFFFFF AND DUP6 PUSH20 0xFFFFFFFFFFFFFFFFFFFFFFFFFFFFFFFFFFFFFFFF AND PUSH32 0xC3D58168C5AE7397731D063D5BBF3D657854427343F4C083240F7AACAA2D0F62 DUP11 DUP11 PUSH1 0x40 MLOAD PUSH2 0x77A SWAP3 SWAP2 SWAP1 PUSH2 0xFB2 JUMP JUMPDEST PUSH1 0x40 MLOAD DUP1 SWAP2 SUB SWAP1 LOG4 PUSH2 0x790 DUP5 DUP11 DUP11 DUP7 DUP7 DUP11 PUSH2 0x833 JUMP JUMPDEST PUSH2 0x79E DUP5 DUP11 DUP11 DUP11 DUP11 DUP11 PUSH2 0x83B JUMP JUMPDEST POP POP POP POP POP POP POP POP POP JUMP JUMPDEST PUSH1 0x0 CALLER SWAP1 POP SWAP1 JUMP JUMPDEST PUSH1 0x60 PUSH1 0x0 PUSH1 0x1 PUSH8 0xFFFFFFFFFFFFFFFF DUP2 GT ISZERO PUSH2 0x7D0 JUMPI PUSH2 0x7CF PUSH2 0x1259 JUMP JUMPDEST JUMPDEST PUSH1 0x40 MLOAD SWAP1 DUP1 DUP3 MSTORE DUP1 PUSH1 0x20 MUL PUSH1 0x20 ADD DUP3 ADD PUSH1 0x40 MSTORE DUP1 ISZERO PUSH2 0x7FE JUMPI DUP2 PUSH1 0x20 ADD PUSH1 0x20 DUP3 MUL DUP1 CALLDATASIZE DUP4 CALLDATACOPY DUP1 DUP3 ADD SWAP2 POP POP SWAP1 POP JUMPDEST POP SWAP1 POP DUP3 DUP2 PUSH1 0x0 DUP2 MLOAD DUP2 LT PUSH2 0x816 JUMPI PUSH2 0x815 PUSH2 0x122A JUMP JUMPDEST JUMPDEST PUSH1 0x20 MUL PUSH1 0x20 ADD ADD DUP2 DUP2 MSTORE POP POP DUP1 SWAP2 POP POP SWAP2 SWAP1 POP JUMP JUMPDEST POP POP POP POP POP POP JUMP JUMPDEST POP POP POP POP POP POP JUMP JUMPDEST PUSH2 0x844 DUP5 PUSH2 0xA0C JUMP JUMPDEST ISZERO PUSH2 0xA04 JUMPI DUP4 PUSH20 0xFFFFFFFFFFFFFFFFFFFFFFFFFFFFFFFFFFFFFFFF AND PUSH4 0xF23A6E61 DUP8 DUP8 DUP7 DUP7 DUP7 PUSH1 0x40 MLOAD DUP7 PUSH4 0xFFFFFFFF AND PUSH1 0xE0 SHL DUP2 MSTORE PUSH1 0x4 ADD PUSH2 0x88A SWAP6 SWAP5 SWAP4 SWAP3 SWAP2 SWAP1 PUSH2 0xE3B JUMP JUMPDEST PUSH1 0x20 PUSH1 0x40 MLOAD DUP1 DUP4 SUB DUP2 PUSH1 0x0 DUP8 DUP1 EXTCODESIZE ISZERO DUP1 ISZERO PUSH2 0x8A4 JUMPI PUSH1 0x0 DUP1 REVERT JUMPDEST POP GAS CALL SWAP3 POP POP POP DUP1 ISZERO PUSH2 0x8D5 JUMPI POP PUSH1 0x40 MLOAD RETURNDATASIZE PUSH1 0x1F NOT PUSH1 0x1F DUP3 ADD AND DUP3 ADD DUP1 PUSH1 0x40 MSTORE POP DUP2 ADD SWAP1 PUSH2 0x8D2 SWAP2 SWAP1 PUSH2 0xC1C JUMP JUMPDEST PUSH1 0x1 JUMPDEST PUSH2 0x97B JUMPI PUSH2 0x8E1 PUSH2 0x1288 JUMP JUMPDEST DUP1 PUSH4 0x8C379A0 EQ ISZERO PUSH2 0x93E JUMPI POP PUSH2 0x8F6 PUSH2 0x1505 JUMP JUMPDEST DUP1 PUSH2 0x901 JUMPI POP PUSH2 0x940 JUMP JUMPDEST DUP1 PUSH1 0x40 MLOAD PUSH32 0x8C379A000000000000000000000000000000000000000000000000000000000 DUP2 MSTORE PUSH1 0x4 ADD PUSH2 0x935 SWAP2 SWAP1 PUSH2 0xE95 JUMP JUMPDEST PUSH1 0x40 MLOAD DUP1 SWAP2 SUB SWAP1 REVERT JUMPDEST POP JUMPDEST PUSH1 0x40 MLOAD PUSH32 0x8C379A000000000000000000000000000000000000000000000000000000000 DUP2 MSTORE PUSH1 0x4 ADD PUSH2 0x972 SWAP1 PUSH2 0xEB7 JUMP JUMPDEST PUSH1 0x40 MLOAD DUP1 SWAP2 SUB SWAP1 REVERT JUMPDEST PUSH4 0xF23A6E61 PUSH1 0xE0 SHL PUSH28 0xFFFFFFFFFFFFFFFFFFFFFFFFFFFFFFFFFFFFFFFFFFFFFFFFFFFFFFFF NOT AND DUP2 PUSH28 0xFFFFFFFFFFFFFFFFFFFFFFFFFFFFFFFFFFFFFFFFFFFFFFFFFFFFFFFF NOT AND EQ PUSH2 0xA02 JUMPI PUSH1 0x40 MLOAD PUSH32 0x8C379A000000000000000000000000000000000000000000000000000000000 DUP2 MSTORE PUSH1 0x4 ADD PUSH2 0x9F9 SWAP1 PUSH2 0xEF7 JUMP JUMPDEST PUSH1 0x40 MLOAD DUP1 SWAP2 SUB SWAP1 REVERT JUMPDEST POP JUMPDEST POP POP POP POP POP POP JUMP JUMPDEST PUSH1 0x0 DUP1 DUP3 PUSH20 0xFFFFFFFFFFFFFFFFFFFFFFFFFFFFFFFFFFFFFFFF AND EXTCODESIZE GT SWAP1 POP SWAP2 SWAP1 POP JUMP JUMPDEST PUSH1 0x0 PUSH2 0xA42 PUSH2 0xA3D DUP5 PUSH2 0x1000 JUMP JUMPDEST PUSH2 0xFDB JUMP JUMPDEST SWAP1 POP DUP3 DUP2 MSTORE PUSH1 0x20 DUP2 ADD DUP5 DUP5 DUP5 ADD GT ISZERO PUSH2 0xA5E JUMPI PUSH2 0xA5D PUSH2 0x12AF JUMP JUMPDEST JUMPDEST PUSH2 0xA69 DUP5 DUP3 DUP6 PUSH2 0x1127 JUMP JUMPDEST POP SWAP4 SWAP3 POP POP POP JUMP JUMPDEST PUSH1 0x0 DUP2 CALLDATALOAD SWAP1 POP PUSH2 0xA80 DUP2 PUSH2 0x159B JUMP JUMPDEST SWAP3 SWAP2 POP POP JUMP JUMPDEST PUSH1 0x0 DUP2 MLOAD SWAP1 POP PUSH2 0xA95 DUP2 PUSH2 0x15B2 JUMP JUMPDEST SWAP3 SWAP2 POP POP JUMP JUMPDEST PUSH1 0x0 DUP3 PUSH1 0x1F DUP4 ADD SLT PUSH2 0xAB0 JUMPI PUSH2 0xAAF PUSH2 0x12AA JUMP JUMPDEST JUMPDEST DUP2 CALLDATALOAD PUSH2 0xAC0 DUP5 DUP3 PUSH1 0x20 DUP7 ADD PUSH2 0xA2F JUMP JUMPDEST SWAP2 POP POP SWAP3 SWAP2 POP POP JUMP JUMPDEST PUSH1 0x0 DUP2 CALLDATALOAD SWAP1 POP PUSH2 0xAD8 DUP2 PUSH2 0x15C9 JUMP JUMPDEST SWAP3 SWAP2 POP POP JUMP JUMPDEST PUSH1 0x0 DUP1 PUSH1 0x0 DUP1 PUSH1 0x80 DUP6 DUP8 SUB SLT ISZERO PUSH2 0xAF8 JUMPI PUSH2 0xAF7 PUSH2 0x12B9 JUMP JUMPDEST JUMPDEST PUSH1 0x0 PUSH2 0xB06 DUP8 DUP3 DUP9 ADD PUSH2 0xA71 JUMP JUMPDEST SWAP5 POP POP PUSH1 0x20 PUSH2 0xB17 DUP8 DUP3 DUP9 ADD PUSH2 0xA71 JUMP JUMPDEST SWAP4 POP POP PUSH1 0x40 PUSH2 0xB28 DUP8 DUP3 DUP9 ADD PUSH2 0xAC9 JUMP JUMPDEST SWAP3 POP POP PUSH1 0x60 PUSH2 0xB39 DUP8 DUP3 DUP9 ADD PUSH2 0xAC9 JUMP JUMPDEST SWAP2 POP POP SWAP3 SWAP6 SWAP2 SWAP5 POP SWAP3 POP JUMP JUMPDEST PUSH1 0x0 DUP1 PUSH1 0x0 DUP1 PUSH1 0x0 PUSH1 0xA0 DUP7 DUP9 SUB SLT ISZERO PUSH2 0xB61 JUMPI PUSH2 0xB60 PUSH2 0x12B9 JUMP JUMPDEST JUMPDEST PUSH1 0x0 PUSH2 0xB6F DUP9 DUP3 DUP10 ADD PUSH2 0xA71 JUMP JUMPDEST SWAP6 POP POP PUSH1 0x20 PUSH2 0xB80 DUP9 DUP3 DUP10 ADD PUSH2 0xA71 JUMP JUMPDEST SWAP5 POP POP PUSH1 0x40 PUSH2 0xB91 DUP9 DUP3 DUP10 ADD PUSH2 0xAC9 JUMP JUMPDEST SWAP4 POP POP PUSH1 0x60 PUSH2 0xBA2 DUP9 DUP3 DUP10 ADD PUSH2 0xAC9 JUMP JUMPDEST SWAP3 POP POP PUSH1 0x80 DUP7 ADD CALLDATALOAD PUSH8 0xFFFFFFFFFFFFFFFF DUP2 GT ISZERO PUSH2 0xBC3 JUMPI PUSH2 0xBC2 PUSH2 0x12B4 JUMP JUMPDEST JUMPDEST PUSH2 0xBCF DUP9 DUP3 DUP10 ADD PUSH2 0xA9B JUMP JUMPDEST SWAP2 POP POP SWAP3 SWAP6 POP SWAP3 SWAP6 SWAP1 SWAP4 POP JUMP JUMPDEST PUSH1 0x0 DUP1 PUSH1 0x40 DUP4 DUP6 SUB SLT ISZERO PUSH2 0xBF3 JUMPI PUSH2 0xBF2 PUSH2 0x12B9 JUMP JUMPDEST JUMPDEST PUSH1 0x0 PUSH2 0xC01 DUP6 DUP3 DUP7 ADD PUSH2 0xA71 JUMP JUMPDEST SWAP3 POP POP PUSH1 0x20 PUSH2 0xC12 DUP6 DUP3 DUP7 ADD PUSH2 0xAC9 JUMP JUMPDEST SWAP2 POP POP SWAP3 POP SWAP3 SWAP1 POP JUMP JUMPDEST PUSH1 0x0 PUSH1 0x20 DUP3 DUP5 SUB SLT ISZERO PUSH2 0xC32 JUMPI PUSH2 0xC31 PUSH2 0x12B9 JUMP JUMPDEST JUMPDEST PUSH1 0x0 PUSH2 0xC40 DUP5 DUP3 DUP6 ADD PUSH2 0xA86 JUMP JUMPDEST SWAP2 POP POP SWAP3 SWAP2 POP POP JUMP JUMPDEST PUSH1 0x0 PUSH1 0x20 DUP3 DUP5 SUB SLT ISZERO PUSH2 0xC5F JUMPI PUSH2 0xC5E PUSH2 0x12B9 JUMP JUMPDEST JUMPDEST PUSH1 0x0 PUSH2 0xC6D DUP5 DUP3 DUP6 ADD PUSH2 0xAC9 JUMP JUMPDEST SWAP2 POP POP SWAP3 SWAP2 POP POP JUMP JUMPDEST PUSH1 0x0 DUP1 PUSH1 0x40 DUP4 DUP6 SUB SLT ISZERO PUSH2 0xC8D JUMPI PUSH2 0xC8C PUSH2 0x12B9 JUMP JUMPDEST JUMPDEST PUSH1 0x0 PUSH2 0xC9B DUP6 DUP3 DUP7 ADD PUSH2 0xAC9 JUMP JUMPDEST SWAP3 POP POP PUSH1 0x20 PUSH2 0xCAC DUP6 DUP3 DUP7 ADD PUSH2 0xAC9 JUMP JUMPDEST SWAP2 POP POP SWAP3 POP SWAP3 SWAP1 POP JUMP JUMPDEST PUSH2 0xCBF DUP2 PUSH2 0x10BF JUMP JUMPDEST DUP3 MSTORE POP POP JUMP JUMPDEST PUSH1 0x0 PUSH2 0xCD0 DUP3 PUSH2 0x1031 JUMP JUMPDEST PUSH2 0xCDA DUP2 DUP6 PUSH2 0x1047 JUMP JUMPDEST SWAP4 POP PUSH2 0xCEA DUP2 DUP6 PUSH1 0x20 DUP7 ADD PUSH2 0x1136 JUMP JUMPDEST PUSH2 0xCF3 DUP2 PUSH2 0x12BE JUMP JUMPDEST DUP5 ADD SWAP2 POP POP SWAP3 SWAP2 POP POP JUMP JUMPDEST PUSH1 0x0 PUSH2 0xD09 DUP3 PUSH2 0x103C JUMP JUMPDEST PUSH2 0xD13 DUP2 DUP6 PUSH2 0x1058 JUMP JUMPDEST SWAP4 POP PUSH2 0xD23 DUP2 DUP6 PUSH1 0x20 DUP7 ADD PUSH2 0x1136 JUMP JUMPDEST PUSH2 0xD2C DUP2 PUSH2 0x12BE JUMP JUMPDEST DUP5 ADD SWAP2 POP POP SWAP3 SWAP2 POP POP JUMP JUMPDEST PUSH1 0x0 PUSH2 0xD44 PUSH1 0x34 DUP4 PUSH2 0x1058 JUMP JUMPDEST SWAP2 POP PUSH2 0xD4F DUP3 PUSH2 0x12DC JUMP JUMPDEST PUSH1 0x40 DUP3 ADD SWAP1 POP SWAP2 SWAP1 POP JUMP JUMPDEST PUSH1 0x0 PUSH2 0xD67 PUSH1 0x2F DUP4 PUSH2 0x1058 JUMP JUMPDEST SWAP2 POP PUSH2 0xD72 DUP3 PUSH2 0x132B JUMP JUMPDEST PUSH1 0x40 DUP3 ADD SWAP1 POP SWAP2 SWAP1 POP JUMP JUMPDEST PUSH1 0x0 PUSH2 0xD8A PUSH1 0x28 DUP4 PUSH2 0x1058 JUMP JUMPDEST SWAP2 POP PUSH2 0xD95 DUP3 PUSH2 0x137A JUMP JUMPDEST PUSH1 0x40 DUP3 ADD SWAP1 POP SWAP2 SWAP1 POP JUMP JUMPDEST PUSH1 0x0 PUSH2 0xDAD PUSH1 0x2A DUP4 PUSH2 0x1058 JUMP JUMPDEST SWAP2 POP PUSH2 0xDB8 DUP3 PUSH2 0x13C9 JUMP JUMPDEST PUSH1 0x40 DUP3 ADD SWAP1 POP SWAP2 SWAP1 POP JUMP JUMPDEST PUSH1 0x0 PUSH2 0xDD0 PUSH1 0x25 DUP4 PUSH2 0x1058 JUMP JUMPDEST SWAP2 POP PUSH2 0xDDB DUP3 PUSH2 0x1418 JUMP JUMPDEST PUSH1 0x40 DUP3 ADD SWAP1 POP SWAP2 SWAP1 POP JUMP JUMPDEST PUSH1 0x0 PUSH2 0xDF3 PUSH1 0x2A DUP4 PUSH2 0x1058 JUMP JUMPDEST SWAP2 POP PUSH2 0xDFE DUP3 PUSH2 0x1467 JUMP JUMPDEST PUSH1 0x40 DUP3 ADD SWAP1 POP SWAP2 SWAP1 POP JUMP JUMPDEST PUSH1 0x0 PUSH2 0xE16 PUSH1 0x21 DUP4 PUSH2 0x1058 JUMP JUMPDEST SWAP2 POP PUSH2 0xE21 DUP3 PUSH2 0x14B6 JUMP JUMPDEST PUSH1 0x40 DUP3 ADD SWAP1 POP SWAP2 SWAP1 POP JUMP JUMPDEST PUSH2 0xE35 DUP2 PUSH2 0x111D JUMP JUMPDEST DUP3 MSTORE POP POP JUMP JUMPDEST PUSH1 0x0 PUSH1 0xA0 DUP3 ADD SWAP1 POP PUSH2 0xE50 PUSH1 0x0 DUP4 ADD DUP9 PUSH2 0xCB6 JUMP JUMPDEST PUSH2 0xE5D PUSH1 0x20 DUP4 ADD DUP8 PUSH2 0xCB6 JUMP JUMPDEST PUSH2 0xE6A PUSH1 0x40 DUP4 ADD DUP7 PUSH2 0xE2C JUMP JUMPDEST PUSH2 0xE77 PUSH1 0x60 DUP4 ADD DUP6 PUSH2 0xE2C JUMP JUMPDEST DUP2 DUP2 SUB PUSH1 0x80 DUP4 ADD MSTORE PUSH2 0xE89 DUP2 DUP5 PUSH2 0xCC5 JUMP JUMPDEST SWAP1 POP SWAP7 SWAP6 POP POP POP POP POP POP JUMP JUMPDEST PUSH1 0x0 PUSH1 0x20 DUP3 ADD SWAP1 POP DUP2 DUP2 SUB PUSH1 0x0 DUP4 ADD MSTORE PUSH2 0xEAF DUP2 DUP5 PUSH2 0xCFE JUMP JUMPDEST SWAP1 POP SWAP3 SWAP2 POP POP JUMP JUMPDEST PUSH1 0x0 PUSH1 0x20 DUP3 ADD SWAP1 POP DUP2 DUP2 SUB PUSH1 0x0 DUP4 ADD MSTORE PUSH2 0xED0 DUP2 PUSH2 0xD37 JUMP JUMPDEST SWAP1 POP SWAP2 SWAP1 POP JUMP JUMPDEST PUSH1 0x0 PUSH1 0x20 DUP3 ADD SWAP1 POP DUP2 DUP2 SUB PUSH1 0x0 DUP4 ADD MSTORE PUSH2 0xEF0 DUP2 PUSH2 0xD5A JUMP JUMPDEST SWAP1 POP SWAP2 SWAP1 POP JUMP JUMPDEST PUSH1 0x0 PUSH1 0x20 DUP3 ADD SWAP1 POP DUP2 DUP2 SUB PUSH1 0x0 DUP4 ADD MSTORE PUSH2 0xF10 DUP2 PUSH2 0xD7D JUMP JUMPDEST SWAP1 POP SWAP2 SWAP1 POP JUMP JUMPDEST PUSH1 0x0 PUSH1 0x20 DUP3 ADD SWAP1 POP DUP2 DUP2 SUB PUSH1 0x0 DUP4 ADD MSTORE PUSH2 0xF30 DUP2 PUSH2 0xDA0 JUMP JUMPDEST SWAP1 POP SWAP2 SWAP1 POP JUMP JUMPDEST PUSH1 0x0 PUSH1 0x20 DUP3 ADD SWAP1 POP DUP2 DUP2 SUB PUSH1 0x0 DUP4 ADD MSTORE PUSH2 0xF50 DUP2 PUSH2 0xDC3 JUMP JUMPDEST SWAP1 POP SWAP2 SWAP1 POP JUMP JUMPDEST PUSH1 0x0 PUSH1 0x20 DUP3 ADD SWAP1 POP DUP2 DUP2 SUB PUSH1 0x0 DUP4 ADD MSTORE PUSH2 0xF70 DUP2 PUSH2 0xDE6 JUMP JUMPDEST SWAP1 POP SWAP2 SWAP1 POP JUMP JUMPDEST PUSH1 0x0 PUSH1 0x20 DUP3 ADD SWAP1 POP DUP2 DUP2 SUB PUSH1 0x0 DUP4 ADD MSTORE PUSH2 0xF90 DUP2 PUSH2 0xE09 JUMP JUMPDEST SWAP1 POP SWAP2 SWAP1 POP JUMP JUMPDEST PUSH1 0x0 PUSH1 0x20 DUP3 ADD SWAP1 POP PUSH2 0xFAC PUSH1 0x0 DUP4 ADD DUP5 PUSH2 0xE2C JUMP JUMPDEST SWAP3 SWAP2 POP POP JUMP JUMPDEST PUSH1 0x0 PUSH1 0x40 DUP3 ADD SWAP1 POP PUSH2 0xFC7 PUSH1 0x0 DUP4 ADD DUP6 PUSH2 0xE2C JUMP JUMPDEST PUSH2 0xFD4 PUSH1 0x20 DUP4 ADD DUP5 PUSH2 0xE2C JUMP JUMPDEST SWAP4 SWAP3 POP POP POP JUMP JUMPDEST PUSH1 0x0 PUSH2 0xFE5 PUSH2 0xFF6 JUMP JUMPDEST SWAP1 POP PUSH2 0xFF1 DUP3 DUP3 PUSH2 0x119B JUMP JUMPDEST SWAP2 SWAP1 POP JUMP JUMPDEST PUSH1 0x0 PUSH1 0x40 MLOAD SWAP1 POP SWAP1 JUMP JUMPDEST PUSH1 0x0 PUSH8 0xFFFFFFFFFFFFFFFF DUP3 GT ISZERO PUSH2 0x101B JUMPI PUSH2 0x101A PUSH2 0x1259 JUMP JUMPDEST JUMPDEST PUSH2 0x1024 DUP3 PUSH2 0x12BE JUMP JUMPDEST SWAP1 POP PUSH1 0x20 DUP2 ADD SWAP1 POP SWAP2 SWAP1 POP JUMP JUMPDEST PUSH1 0x0 DUP2 MLOAD SWAP1 POP SWAP2 SWAP1 POP JUMP JUMPDEST PUSH1 0x0 DUP2 MLOAD SWAP1 POP SWAP2 SWAP1 POP JUMP JUMPDEST PUSH1 0x0 DUP3 DUP3 MSTORE PUSH1 0x20 DUP3 ADD SWAP1 POP SWAP3 SWAP2 POP POP JUMP JUMPDEST PUSH1 0x0 DUP3 DUP3 MSTORE PUSH1 0x20 DUP3 ADD SWAP1 POP SWAP3 SWAP2 POP POP JUMP JUMPDEST PUSH1 0x0 PUSH2 0x1074 DUP3 PUSH2 0x111D JUMP JUMPDEST SWAP2 POP PUSH2 0x107F DUP4 PUSH2 0x111D JUMP JUMPDEST SWAP3 POP DUP3 PUSH32 0xFFFFFFFFFFFFFFFFFFFFFFFFFFFFFFFFFFFFFFFFFFFFFFFFFFFFFFFFFFFFFFFF SUB DUP3 GT ISZERO PUSH2 0x10B4 JUMPI PUSH2 0x10B3 PUSH2 0x11CC JUMP JUMPDEST JUMPDEST DUP3 DUP3 ADD SWAP1 POP SWAP3 SWAP2 POP POP JUMP JUMPDEST PUSH1 0x0 PUSH2 0x10CA DUP3 PUSH2 0x10FD JUMP JUMPDEST SWAP1 POP SWAP2 SWAP1 POP JUMP JUMPDEST PUSH1 0x0 PUSH32 0xFFFFFFFF00000000000000000000000000000000000000000000000000000000 DUP3 AND SWAP1 POP SWAP2 SWAP1 POP JUMP JUMPDEST PUSH1 0x0 PUSH20 0xFFFFFFFFFFFFFFFFFFFFFFFFFFFFFFFFFFFFFFFF DUP3 AND SWAP1 POP SWAP2 SWAP1 POP JUMP JUMPDEST PUSH1 0x0 DUP2 SWAP1 POP SWAP2 SWAP1 POP JUMP JUMPDEST DUP3 DUP2 DUP4 CALLDATACOPY PUSH1 0x0 DUP4 DUP4 ADD MSTORE POP POP POP JUMP JUMPDEST PUSH1 0x0 JUMPDEST DUP4 DUP2 LT ISZERO PUSH2 0x1154 JUMPI DUP1 DUP3 ADD MLOAD DUP2 DUP5 ADD MSTORE PUSH1 0x20 DUP2 ADD SWAP1 POP PUSH2 0x1139 JUMP JUMPDEST DUP4 DUP2 GT ISZERO PUSH2 0x1163 JUMPI PUSH1 0x0 DUP5 DUP5 ADD MSTORE JUMPDEST POP POP POP POP JUMP JUMPDEST PUSH1 0x0 PUSH1 0x2 DUP3 DIV SWAP1 POP PUSH1 0x1 DUP3 AND DUP1 PUSH2 0x1181 JUMPI PUSH1 0x7F DUP3 AND SWAP2 POP JUMPDEST PUSH1 0x20 DUP3 LT DUP2 EQ ISZERO PUSH2 0x1195 JUMPI PUSH2 0x1194 PUSH2 0x11FB JUMP JUMPDEST JUMPDEST POP SWAP2 SWAP1 POP JUMP JUMPDEST PUSH2 0x11A4 DUP3 PUSH2 0x12BE JUMP JUMPDEST DUP2 ADD DUP2 DUP2 LT PUSH8 0xFFFFFFFFFFFFFFFF DUP3 GT OR ISZERO PUSH2 0x11C3 JUMPI PUSH2 0x11C2 PUSH2 0x1259 JUMP JUMPDEST JUMPDEST DUP1 PUSH1 0x40 MSTORE POP POP POP JUMP JUMPDEST PUSH32 0x4E487B7100000000000000000000000000000000000000000000000000000000 PUSH1 0x0 MSTORE PUSH1 0x11 PUSH1 0x4 MSTORE PUSH1 0x24 PUSH1 0x0 REVERT JUMPDEST PUSH32 0x4E487B7100000000000000000000000000000000000000000000000000000000 PUSH1 0x0 MSTORE PUSH1 0x22 PUSH1 0x4 MSTORE PUSH1 0x24 PUSH1 0x0 REVERT JUMPDEST PUSH32 0x4E487B7100000000000000000000000000000000000000000000000000000000 PUSH1 0x0 MSTORE PUSH1 0x32 PUSH1 0x4 MSTORE PUSH1 0x24 PUSH1 0x0 REVERT JUMPDEST PUSH32 0x4E487B7100000000000000000000000000000000000000000000000000000000 PUSH1 0x0 MSTORE PUSH1 0x41 PUSH1 0x4 MSTORE PUSH1 0x24 PUSH1 0x0 REVERT JUMPDEST PUSH1 0x0 PUSH1 0x3 RETURNDATASIZE GT ISZERO PUSH2 0x12A7 JUMPI PUSH1 0x4 PUSH1 0x0 DUP1 RETURNDATACOPY PUSH2 0x12A4 PUSH1 0x0 MLOAD PUSH2 0x12CF JUMP JUMPDEST SWAP1 POP JUMPDEST SWAP1 JUMP JUMPDEST PUSH1 0x0 DUP1 REVERT JUMPDEST PUSH1 0x0 DUP1 REVERT JUMPDEST PUSH1 0x0 DUP1 REVERT JUMPDEST PUSH1 0x0 DUP1 REVERT JUMPDEST PUSH1 0x0 PUSH1 0x1F NOT PUSH1 0x1F DUP4 ADD AND SWAP1 POP SWAP2 SWAP1 POP JUMP JUMPDEST PUSH1 0x0 DUP2 PUSH1 0xE0 SHR SWAP1 POP SWAP2 SWAP1 POP JUMP JUMPDEST PUSH32 0x455243313135353A207472616E7366657220746F206E6F6E2045524331313535 PUSH1 0x0 DUP3 ADD MSTORE PUSH32 0x526563656976657220696D706C656D656E746572000000000000000000000000 PUSH1 0x20 DUP3 ADD MSTORE POP JUMP JUMPDEST PUSH32 0x455243313135353A2063616C6C6572206973206E6F7420746F6B656E206F776E PUSH1 0x0 DUP3 ADD MSTORE PUSH32 0x6572206E6F7220617070726F7665640000000000000000000000000000000000 PUSH1 0x20 DUP3 ADD MSTORE POP JUMP JUMPDEST PUSH32 0x455243313135353A204552433131353552656365697665722072656A65637465 PUSH1 0x0 DUP3 ADD MSTORE PUSH32 0x6420746F6B656E73000000000000000000000000000000000000000000000000 PUSH1 0x20 DUP3 ADD MSTORE POP JUMP JUMPDEST PUSH32 0x455243313135353A2061646472657373207A65726F206973206E6F7420612076 PUSH1 0x0 DUP3 ADD MSTORE PUSH32 0x616C6964206F776E657200000000000000000000000000000000000000000000 PUSH1 0x20 DUP3 ADD MSTORE POP JUMP JUMPDEST PUSH32 0x455243313135353A207472616E7366657220746F20746865207A65726F206164 PUSH1 0x0 DUP3 ADD MSTORE PUSH32 0x6472657373000000000000000000000000000000000000000000000000000000 PUSH1 0x20 DUP3 ADD MSTORE POP JUMP JUMPDEST PUSH32 0x455243313135353A20696E73756666696369656E742062616C616E636520666F PUSH1 0x0 DUP3 ADD MSTORE PUSH32 0x72207472616E7366657200000000000000000000000000000000000000000000 PUSH1 0x20 DUP3 ADD MSTORE POP JUMP JUMPDEST PUSH32 0x455243313135353A206D696E7420746F20746865207A65726F20616464726573 PUSH1 0x0 DUP3 ADD MSTORE PUSH32 0x7300000000000000000000000000000000000000000000000000000000000000 PUSH1 0x20 DUP3 ADD MSTORE POP JUMP JUMPDEST PUSH1 0x0 PUSH1 0x44 RETURNDATASIZE LT ISZERO PUSH2 0x1515 JUMPI PUSH2 0x1598 JUMP JUMPDEST PUSH2 0x151D PUSH2 0xFF6 JUMP JUMPDEST PUSH1 0x4 RETURNDATASIZE SUB PUSH1 0x4 DUP3 RETURNDATACOPY DUP1 MLOAD RETURNDATASIZE PUSH1 0x24 DUP3 ADD GT PUSH8 0xFFFFFFFFFFFFFFFF DUP3 GT OR ISZERO PUSH2 0x1545 JUMPI POP POP PUSH2 0x1598 JUMP JUMPDEST DUP1 DUP3 ADD DUP1 MLOAD PUSH8 0xFFFFFFFFFFFFFFFF DUP2 GT ISZERO PUSH2 0x1563 JUMPI POP POP POP POP PUSH2 0x1598 JUMP JUMPDEST DUP1 PUSH1 0x20 DUP4 ADD ADD PUSH1 0x4 RETURNDATASIZE SUB DUP6 ADD DUP2 GT ISZERO PUSH2 0x1580 JUMPI POP POP POP POP POP PUSH2 0x1598 JUMP JUMPDEST PUSH2 0x158F DUP3 PUSH1 0x20 ADD DUP6 ADD DUP7 PUSH2 0x119B JUMP JUMPDEST DUP3 SWAP6 POP POP POP POP POP POP JUMPDEST SWAP1 JUMP JUMPDEST PUSH2 0x15A4 DUP2 PUSH2 0x10BF JUMP JUMPDEST DUP2 EQ PUSH2 0x15AF JUMPI PUSH1 0x0 DUP1 REVERT JUMPDEST POP JUMP JUMPDEST PUSH2 0x15BB DUP2 PUSH2 0x10D1 JUMP JUMPDEST DUP2 EQ PUSH2 0x15C6 JUMPI PUSH1 0x0 DUP1 REVERT JUMPDEST POP JUMP JUMPDEST PUSH2 0x15D2 DUP2 PUSH2 0x111D JUMP JUMPDEST DUP2 EQ PUSH2 0x15DD JUMPI PUSH1 0x0 DUP1 REVERT JUMPDEST POP JUMP INVALID LOG2 PUSH5 0x6970667358 0x22 SLT KECCAK256 SWAP9 COINBASE SWAP13 PUSH28 0x96D078F06D36345192B6774A6F9C720211AAC446B5CF7C7E72CF9A07 PUSH5 0x736F6C6343 STOP ADDMOD SMOD STOP CALLER "
				},
				"gasEstimates": {
					"creation": {
						"codeDepositCost": "1130800",
						"executionCost": "infinite",
						"totalCost": "infinite"
					},
					"external": {
						"CouponMint(uint256,uint256)": "infinite",
						"balanceOf(address,uint256)": "infinite",
						"safeTransferFrom(address,address,uint256,uint256,bytes)": "infinite",
						"transf(address,address,uint256,uint256)": "infinite",
						"uri(uint256)": "infinite"
					}
				},
				"methodIdentifiers": {
					"CouponMint(uint256,uint256)": "57e87575",
					"balanceOf(address,uint256)": "00fdd58e",
					"safeTransferFrom(address,address,uint256,uint256,bytes)": "f242432a",
					"transf(address,address,uint256,uint256)": "5d059581",
					"uri(uint256)": "0e89341c"
				}
			},
			"storageLayout": {
				"storage": [
					{
						"astId": 76,
						"contract": "contracts/Coupon.sol:Coupon",
						"label": "_balances",
						"offset": 0,
						"slot": "0",
						"type": "t_mapping(t_uint256,t_mapping(t_address,t_uint256))"
					},
					{
						"astId": 82,
						"contract": "contracts/Coupon.sol:Coupon",
						"label": "_operatorApprovals",
						"offset": 0,
						"slot": "1",
						"type": "t_mapping(t_address,t_mapping(t_address,t_bool))"
					},
					{
						"astId": 96,
						"contract": "contracts/Coupon.sol:Coupon",
						"label": "_uri",
						"offset": 0,
						"slot": "2",
						"type": "t_string_storage"
					}
				],
				"types": {
					"t_address": {
						"encoding": "inplace",
						"label": "address",
						"numberOfBytes": "20"
					},
					"t_bool": {
						"encoding": "inplace",
						"label": "bool",
						"numberOfBytes": "1"
					},
					"t_mapping(t_address,t_bool)": {
						"encoding": "mapping",
						"key": "t_address",
						"label": "mapping(address => bool)",
						"numberOfBytes": "32",
						"value": "t_bool"
					},
					"t_mapping(t_address,t_mapping(t_address,t_bool))": {
						"encoding": "mapping",
						"key": "t_address",
						"label": "mapping(address => mapping(address => bool))",
						"numberOfBytes": "32",
						"value": "t_mapping(t_address,t_bool)"
					},
					"t_mapping(t_address,t_uint256)": {
						"encoding": "mapping",
						"key": "t_address",
						"label": "mapping(address => uint256)",
						"numberOfBytes": "32",
						"value": "t_uint256"
					},
					"t_mapping(t_uint256,t_mapping(t_address,t_uint256))": {
						"encoding": "mapping",
						"key": "t_uint256",
						"label": "mapping(uint256 => mapping(address => uint256))",
						"numberOfBytes": "32",
						"value": "t_mapping(t_address,t_uint256)"
					},
					"t_string_storage": {
						"encoding": "bytes",
						"label": "string",
						"numberOfBytes": "32"
					},
					"t_uint256": {
						"encoding": "inplace",
						"label": "uint256",
						"numberOfBytes": "32"
					}
				}
			},
			"userdoc": {
				"kind": "user",
				"methods": {},
				"version": 1
			}
		}
	}
}