{
	"contracts/Coupon.sol": {
		"CouponMarket": {
			"abi": [
				{
					"inputs": [],
					"stateMutability": "nonpayable",
					"type": "constructor"
				},
				{
					"anonymous": false,
					"inputs": [
						{
							"indexed": false,
							"internalType": "address",
							"name": "operator",
							"type": "address"
						},
						{
							"indexed": false,
							"internalType": "address",
							"name": "from",
							"type": "address"
						},
						{
							"indexed": false,
							"internalType": "uint256",
							"name": "id",
							"type": "uint256"
						},
						{
							"indexed": false,
							"internalType": "uint256",
							"name": "value",
							"type": "uint256"
						},
						{
							"indexed": false,
							"internalType": "bytes",
							"name": "data",
							"type": "bytes"
						},
						{
							"indexed": false,
							"internalType": "uint256",
							"name": "gas",
							"type": "uint256"
						}
					],
					"name": "Received",
					"type": "event"
				},
				{
					"anonymous": false,
					"inputs": [
						{
							"indexed": true,
							"internalType": "address",
							"name": "operator",
							"type": "address"
						},
						{
							"indexed": true,
							"internalType": "address",
							"name": "from",
							"type": "address"
						},
						{
							"indexed": true,
							"internalType": "address",
							"name": "to",
							"type": "address"
						},
						{
							"indexed": false,
							"internalType": "uint256",
							"name": "id",
							"type": "uint256"
						},
						{
							"indexed": false,
							"internalType": "uint256",
							"name": "value",
							"type": "uint256"
						}
					],
					"name": "TransferSingle",
					"type": "event"
				},
				{
					"inputs": [],
					"name": "AllStocks",
					"outputs": [
						{
							"internalType": "uint256[]",
							"name": "",
							"type": "uint256[]"
						},
						{
							"internalType": "uint256[]",
							"name": "",
							"type": "uint256[]"
						}
					],
					"stateMutability": "view",
					"type": "function"
				},
				{
					"inputs": [
						{
							"internalType": "uint256",
							"name": "discount",
							"type": "uint256"
						},
						{
							"internalType": "uint256",
							"name": "amount",
							"type": "uint256"
						}
					],
					"name": "CouponMint",
					"outputs": [],
					"stateMutability": "nonpayable",
					"type": "function"
				},
				{
					"inputs": [],
					"name": "HowMuchKindsOfCoupons",
					"outputs": [
						{
							"internalType": "uint256",
							"name": "",
							"type": "uint256"
						}
					],
					"stateMutability": "view",
					"type": "function"
				},
				{
					"inputs": [],
					"name": "KindsOfCoupons",
					"outputs": [
						{
							"internalType": "uint256[]",
							"name": "",
							"type": "uint256[]"
						}
					],
					"stateMutability": "view",
					"type": "function"
				},
				{
					"inputs": [
						{
							"internalType": "uint256",
							"name": "discount",
							"type": "uint256"
						}
					],
					"name": "StocksByDiscount",
					"outputs": [
						{
							"internalType": "uint256",
							"name": "",
							"type": "uint256"
						}
					],
					"stateMutability": "view",
					"type": "function"
				},
				{
					"inputs": [
						{
							"internalType": "address",
							"name": "account",
							"type": "address"
						},
						{
							"internalType": "uint256",
							"name": "id",
							"type": "uint256"
						}
					],
					"name": "balanceOf",
					"outputs": [
						{
							"internalType": "uint256",
							"name": "",
							"type": "uint256"
						}
					],
					"stateMutability": "view",
					"type": "function"
				},
				{
					"inputs": [
						{
							"internalType": "uint256",
							"name": "discount",
							"type": "uint256"
						},
						{
							"internalType": "uint256",
							"name": "amount",
							"type": "uint256"
						},
						{
							"internalType": "uint256",
							"name": "price",
							"type": "uint256"
						},
						{
							"internalType": "address",
							"name": "TokenContractAddr",
							"type": "address"
						}
					],
					"name": "buyCoupon",
					"outputs": [
						{
							"internalType": "bool",
							"name": "",
							"type": "bool"
						}
					],
					"stateMutability": "payable",
					"type": "function"
				},
				{
					"inputs": [
						{
							"internalType": "address",
							"name": "from",
							"type": "address"
						},
						{
							"internalType": "address",
							"name": "to",
							"type": "address"
						},
						{
							"internalType": "uint256",
							"name": "id",
							"type": "uint256"
						},
						{
							"internalType": "uint256",
							"name": "amount",
							"type": "uint256"
						},
						{
							"internalType": "bytes",
							"name": "data",
							"type": "bytes"
						}
					],
					"name": "safeTransferFrom",
					"outputs": [],
					"stateMutability": "nonpayable",
					"type": "function"
				},
				{
					"inputs": [],
					"name": "serverAddr",
					"outputs": [
						{
							"internalType": "address",
							"name": "",
							"type": "address"
						}
					],
					"stateMutability": "view",
					"type": "function"
				},
				{
					"inputs": [
						{
							"internalType": "address",
							"name": "addr",
							"type": "address"
						}
					],
					"name": "setServerAddr",
					"outputs": [
						{
							"internalType": "address",
							"name": "",
							"type": "address"
						}
					],
					"stateMutability": "nonpayable",
					"type": "function"
				}
			],
			"devdoc": {
				"kind": "dev",
				"methods": {
					"balanceOf(address,uint256)": {
						"details": "See {IERC1155-balanceOf}. Requirements: - `account` cannot be the zero address."
					},
					"safeTransferFrom(address,address,uint256,uint256,bytes)": {
						"details": "See {IERC1155-safeTransferFrom}."
					}
				},
				"version": 1
			},
			"evm": {
				"assembly": "    /* \"contracts/Coupon.sol\":10124:13479  contract CouponMarket is ERC1155 {... */\n  mstore(0x40, 0x80)\n    /* \"contracts/Coupon.sol\":10163:10382  constructor() {... */\n  callvalue\n  dup1\n  iszero\n  tag_1\n  jumpi\n  0x00\n  dup1\n  revert\ntag_1:\n  pop\n    /* \"contracts/Coupon.sol\":10201:10211  msg.sender */\n  caller\n    /* \"contracts/Coupon.sol\":10187:10198  _serverAddr */\n  0x02\n  0x00\n    /* \"contracts/Coupon.sol\":10187:10211  _serverAddr = msg.sender */\n  0x0100\n  exp\n  dup2\n  sload\n  dup2\n  0xffffffffffffffffffffffffffffffffffffffff\n  mul\n  not\n  and\n  swap1\n  dup4\n  0xffffffffffffffffffffffffffffffffffffffff\n  and\n  mul\n  or\n  swap1\n  sstore\n  pop\n    /* \"contracts/Coupon.sol\":10221:10239  CouponMint(1, 100) */\n  tag_4\n    /* \"contracts/Coupon.sol\":10232:10233  1 */\n  0x01\n    /* \"contracts/Coupon.sol\":10235:10238  100 */\n  0x64\n    /* \"contracts/Coupon.sol\":10221:10231  CouponMint */\n  shl(0x20, tag_5)\n    /* \"contracts/Coupon.sol\":10221:10239  CouponMint(1, 100) */\n  0x20\n  shr\n  jump\t// in\ntag_4:\n    /* \"contracts/Coupon.sol\":10249:10266  CouponMint(2, 50) */\n  tag_6\n    /* \"contracts/Coupon.sol\":10260:10261  2 */\n  0x02\n    /* \"contracts/Coupon.sol\":10263:10265  50 */\n  0x32\n    /* \"contracts/Coupon.sol\":10249:10259  CouponMint */\n  shl(0x20, tag_5)\n    /* \"contracts/Coupon.sol\":10249:10266  CouponMint(2, 50) */\n  0x20\n  shr\n  jump\t// in\ntag_6:\n    /* \"contracts/Coupon.sol\":10276:10293  CouponMint(3, 33) */\n  tag_7\n    /* \"contracts/Coupon.sol\":10287:10288  3 */\n  0x03\n    /* \"contracts/Coupon.sol\":10290:10292  33 */\n  0x21\n    /* \"contracts/Coupon.sol\":10276:10286  CouponMint */\n  shl(0x20, tag_5)\n    /* \"contracts/Coupon.sol\":10276:10293  CouponMint(3, 33) */\n  0x20\n  shr\n  jump\t// in\ntag_7:\n    /* \"contracts/Coupon.sol\":10303:10320  CouponMint(5, 20) */\n  tag_8\n    /* \"contracts/Coupon.sol\":10314:10315  5 */\n  0x05\n    /* \"contracts/Coupon.sol\":10317:10319  20 */\n  0x14\n    /* \"contracts/Coupon.sol\":10303:10313  CouponMint */\n  shl(0x20, tag_5)\n    /* \"contracts/Coupon.sol\":10303:10320  CouponMint(5, 20) */\n  0x20\n  shr\n  jump\t// in\ntag_8:\n    /* \"contracts/Coupon.sol\":10330:10348  CouponMint(10, 10) */\n  tag_9\n    /* \"contracts/Coupon.sol\":10341:10343  10 */\n  0x0a\n    /* \"contracts/Coupon.sol\":10345:10347  10 */\n  dup1\n    /* \"contracts/Coupon.sol\":10330:10340  CouponMint */\n  shl(0x20, tag_5)\n    /* \"contracts/Coupon.sol\":10330:10348  CouponMint(10, 10) */\n  0x20\n  shr\n  jump\t// in\ntag_9:\n    /* \"contracts/Coupon.sol\":10358:10375  CouponMint(20, 5) */\n  tag_10\n    /* \"contracts/Coupon.sol\":10369:10371  20 */\n  0x14\n    /* \"contracts/Coupon.sol\":10373:10374  5 */\n  0x05\n    /* \"contracts/Coupon.sol\":10358:10368  CouponMint */\n  shl(0x20, tag_5)\n    /* \"contracts/Coupon.sol\":10358:10375  CouponMint(20, 5) */\n  0x20\n  shr\n  jump\t// in\ntag_10:\n    /* \"contracts/Coupon.sol\":10124:13479  contract CouponMarket is ERC1155 {... */\n  jump(tag_11)\n    /* \"contracts/Coupon.sol\":10388:10799  function CouponMint(uint256 discount, uint256 amount) public {... */\ntag_5:\n    /* \"contracts/Coupon.sol\":10495:10506  _serverAddr */\n  0x02\n  0x00\n  swap1\n  sload\n  swap1\n  0x0100\n  exp\n  swap1\n  div\n  0xffffffffffffffffffffffffffffffffffffffff\n  and\n    /* \"contracts/Coupon.sol\":10481:10506  msg.sender == _serverAddr */\n  0xffffffffffffffffffffffffffffffffffffffff\n  and\n    /* \"contracts/Coupon.sol\":10481:10491  msg.sender */\n  caller\n    /* \"contracts/Coupon.sol\":10481:10506  msg.sender == _serverAddr */\n  0xffffffffffffffffffffffffffffffffffffffff\n  and\n  eq\n    /* \"contracts/Coupon.sol\":10480:10540  (msg.sender == _serverAddr) || (msg.sender == address(this)) */\n  dup1\n  tag_13\n  jumpi\n  pop\n    /* \"contracts/Coupon.sol\":10534:10538  this */\n  address\n    /* \"contracts/Coupon.sol\":10512:10539  msg.sender == address(this) */\n  0xffffffffffffffffffffffffffffffffffffffff\n  and\n    /* \"contracts/Coupon.sol\":10512:10522  msg.sender */\n  caller\n    /* \"contracts/Coupon.sol\":10512:10539  msg.sender == address(this) */\n  0xffffffffffffffffffffffffffffffffffffffff\n  and\n  eq\n    /* \"contracts/Coupon.sol\":10480:10540  (msg.sender == _serverAddr) || (msg.sender == address(this)) */\ntag_13:\n    /* \"contracts/Coupon.sol\":10459:10604  require(... */\n  tag_14\n  jumpi\n  mload(0x40)\n  0x08c379a000000000000000000000000000000000000000000000000000000000\n  dup2\n  mstore\n  0x04\n  add\n  tag_15\n  swap1\n  tag_16\n  jump\t// in\ntag_15:\n  mload(0x40)\n  dup1\n  swap2\n  sub\n  swap1\n  revert\ntag_14:\n    /* \"contracts/Coupon.sol\":10614:10656  _mint(address(this), discount, amount, \"\") */\n  tag_17\n    /* \"contracts/Coupon.sol\":10628:10632  this */\n  address\n    /* \"contracts/Coupon.sol\":10635:10643  discount */\n  dup4\n    /* \"contracts/Coupon.sol\":10645:10651  amount */\n  dup4\n    /* \"contracts/Coupon.sol\":10614:10656  _mint(address(this), discount, amount, \"\") */\n  mload(0x40)\n  dup1\n  0x20\n  add\n  0x40\n  mstore\n  dup1\n  0x00\n  dup2\n  mstore\n  pop\n    /* \"contracts/Coupon.sol\":10614:10619  _mint */\n  shl(0x20, tag_18)\n    /* \"contracts/Coupon.sol\":10614:10656  _mint(address(this), discount, amount, \"\") */\n  0x20\n  shr\n  jump\t// in\ntag_17:\n    /* \"contracts/Coupon.sol\":10706:10712  amount */\n  dup1\n    /* \"contracts/Coupon.sol\":10686:10693  _amount */\n  0x03\n    /* \"contracts/Coupon.sol\":10686:10703  _amount[discount] */\n  0x00\n    /* \"contracts/Coupon.sol\":10694:10702  discount */\n  dup5\n    /* \"contracts/Coupon.sol\":10686:10703  _amount[discount] */\n  dup2\n  mstore\n  0x20\n  add\n  swap1\n  dup2\n  mstore\n  0x20\n  add\n  0x00\n  keccak256\n  sload\n    /* \"contracts/Coupon.sol\":10686:10712  _amount[discount] + amount */\n  tag_19\n  swap2\n  swap1\n  tag_20\n  jump\t// in\ntag_19:\n    /* \"contracts/Coupon.sol\":10666:10673  _amount */\n  0x03\n    /* \"contracts/Coupon.sol\":10666:10683  _amount[discount] */\n  0x00\n    /* \"contracts/Coupon.sol\":10674:10682  discount */\n  dup5\n    /* \"contracts/Coupon.sol\":10666:10683  _amount[discount] */\n  dup2\n  mstore\n  0x20\n  add\n  swap1\n  dup2\n  mstore\n  0x20\n  add\n  0x00\n  keccak256\n    /* \"contracts/Coupon.sol\":10666:10712  _amount[discount] = _amount[discount] + amount */\n  dup2\n  swap1\n  sstore\n  pop\n    /* \"contracts/Coupon.sol\":10388:10799  function CouponMint(uint256 discount, uint256 amount) public {... */\n  pop\n  pop\n  jump\t// out\n    /* \"contracts/Coupon.sol\":4707:5498  function _mint(... */\ntag_18:\n    /* \"contracts/Coupon.sol\":4868:4869  0 */\n  0x00\n    /* \"contracts/Coupon.sol\":4854:4870  to != address(0) */\n  0xffffffffffffffffffffffffffffffffffffffff\n  and\n    /* \"contracts/Coupon.sol\":4854:4856  to */\n  dup5\n    /* \"contracts/Coupon.sol\":4854:4870  to != address(0) */\n  0xffffffffffffffffffffffffffffffffffffffff\n  and\n  eq\n  iszero\n    /* \"contracts/Coupon.sol\":4846:4908  require(to != address(0), \"ERC1155: mint to the zero address\") */\n  tag_22\n  jumpi\n  mload(0x40)\n  0x08c379a000000000000000000000000000000000000000000000000000000000\n  dup2\n  mstore\n  0x04\n  add\n  tag_23\n  swap1\n  tag_24\n  jump\t// in\ntag_23:\n  mload(0x40)\n  dup1\n  swap2\n  sub\n  swap1\n  revert\ntag_22:\n    /* \"contracts/Coupon.sol\":4919:4935  address operator */\n  0x00\n    /* \"contracts/Coupon.sol\":4938:4950  _msgSender() */\n  tag_25\n    /* \"contracts/Coupon.sol\":4938:4948  _msgSender */\n  shl(0x20, tag_26)\n    /* \"contracts/Coupon.sol\":4938:4950  _msgSender() */\n  0x20\n  shr\n  jump\t// in\ntag_25:\n    /* \"contracts/Coupon.sol\":4919:4950  address operator = _msgSender() */\n  swap1\n  pop\n    /* \"contracts/Coupon.sol\":4960:4980  uint256[] memory ids */\n  0x00\n    /* \"contracts/Coupon.sol\":4983:5004  _asSingletonArray(id) */\n  tag_27\n    /* \"contracts/Coupon.sol\":5001:5003  id */\n  dup6\n    /* \"contracts/Coupon.sol\":4983:5000  _asSingletonArray */\n  shl(0x20, tag_28)\n    /* \"contracts/Coupon.sol\":4983:5004  _asSingletonArray(id) */\n  0x20\n  shr\n  jump\t// in\ntag_27:\n    /* \"contracts/Coupon.sol\":4960:5004  uint256[] memory ids = _asSingletonArray(id) */\n  swap1\n  pop\n    /* \"contracts/Coupon.sol\":5014:5038  uint256[] memory amounts */\n  0x00\n    /* \"contracts/Coupon.sol\":5041:5066  _asSingletonArray(amount) */\n  tag_29\n    /* \"contracts/Coupon.sol\":5059:5065  amount */\n  dup6\n    /* \"contracts/Coupon.sol\":5041:5058  _asSingletonArray */\n  shl(0x20, tag_28)\n    /* \"contracts/Coupon.sol\":5041:5066  _asSingletonArray(amount) */\n  0x20\n  shr\n  jump\t// in\ntag_29:\n    /* \"contracts/Coupon.sol\":5014:5066  uint256[] memory amounts = _asSingletonArray(amount) */\n  swap1\n  pop\n    /* \"contracts/Coupon.sol\":5077:5143  _beforeTokenTransfer(operator, address(0), to, ids, amounts, data) */\n  tag_30\n    /* \"contracts/Coupon.sol\":5098:5106  operator */\n  dup4\n    /* \"contracts/Coupon.sol\":5116:5117  0 */\n  0x00\n    /* \"contracts/Coupon.sol\":5120:5122  to */\n  dup10\n    /* \"contracts/Coupon.sol\":5124:5127  ids */\n  dup6\n    /* \"contracts/Coupon.sol\":5129:5136  amounts */\n  dup6\n    /* \"contracts/Coupon.sol\":5138:5142  data */\n  dup10\n    /* \"contracts/Coupon.sol\":5077:5097  _beforeTokenTransfer */\n  shl(0x20, tag_31)\n    /* \"contracts/Coupon.sol\":5077:5143  _beforeTokenTransfer(operator, address(0), to, ids, amounts, data) */\n  0x20\n  shr\n  jump\t// in\ntag_30:\n    /* \"contracts/Coupon.sol\":5175:5181  amount */\n  dup5\n    /* \"contracts/Coupon.sol\":5154:5163  _balances */\n  0x00\n    /* \"contracts/Coupon.sol\":5154:5167  _balances[id] */\n  dup1\n    /* \"contracts/Coupon.sol\":5164:5166  id */\n  dup9\n    /* \"contracts/Coupon.sol\":5154:5167  _balances[id] */\n  dup2\n  mstore\n  0x20\n  add\n  swap1\n  dup2\n  mstore\n  0x20\n  add\n  0x00\n  keccak256\n    /* \"contracts/Coupon.sol\":5154:5171  _balances[id][to] */\n  0x00\n    /* \"contracts/Coupon.sol\":5168:5170  to */\n  dup10\n    /* \"contracts/Coupon.sol\":5154:5171  _balances[id][to] */\n  0xffffffffffffffffffffffffffffffffffffffff\n  and\n  0xffffffffffffffffffffffffffffffffffffffff\n  and\n  dup2\n  mstore\n  0x20\n  add\n  swap1\n  dup2\n  mstore\n  0x20\n  add\n  0x00\n  keccak256\n  0x00\n    /* \"contracts/Coupon.sol\":5154:5181  _balances[id][to] += amount */\n  dup3\n  dup3\n  sload\n  tag_32\n  swap2\n  swap1\n  tag_20\n  jump\t// in\ntag_32:\n  swap3\n  pop\n  pop\n  dup2\n  swap1\n  sstore\n  pop\n    /* \"contracts/Coupon.sol\":5233:5235  to */\n  dup7\n    /* \"contracts/Coupon.sol\":5196:5248  TransferSingle(operator, address(0), to, id, amount) */\n  0xffffffffffffffffffffffffffffffffffffffff\n  and\n    /* \"contracts/Coupon.sol\":5229:5230  0 */\n  0x00\n    /* \"contracts/Coupon.sol\":5196:5248  TransferSingle(operator, address(0), to, id, amount) */\n  0xffffffffffffffffffffffffffffffffffffffff\n  and\n    /* \"contracts/Coupon.sol\":5211:5219  operator */\n  dup5\n    /* \"contracts/Coupon.sol\":5196:5248  TransferSingle(operator, address(0), to, id, amount) */\n  0xffffffffffffffffffffffffffffffffffffffff\n  and\n  0xc3d58168c5ae7397731d063d5bbf3d657854427343f4c083240f7aacaa2d0f62\n    /* \"contracts/Coupon.sol\":5237:5239  id */\n  dup10\n    /* \"contracts/Coupon.sol\":5241:5247  amount */\n  dup10\n    /* \"contracts/Coupon.sol\":5196:5248  TransferSingle(operator, address(0), to, id, amount) */\n  mload(0x40)\n  tag_33\n  swap3\n  swap2\n  swap1\n  tag_34\n  jump\t// in\ntag_33:\n  mload(0x40)\n  dup1\n  swap2\n  sub\n  swap1\n  log4\n    /* \"contracts/Coupon.sol\":5259:5324  _afterTokenTransfer(operator, address(0), to, ids, amounts, data) */\n  tag_35\n    /* \"contracts/Coupon.sol\":5279:5287  operator */\n  dup4\n    /* \"contracts/Coupon.sol\":5297:5298  0 */\n  0x00\n    /* \"contracts/Coupon.sol\":5301:5303  to */\n  dup10\n    /* \"contracts/Coupon.sol\":5305:5308  ids */\n  dup6\n    /* \"contracts/Coupon.sol\":5310:5317  amounts */\n  dup6\n    /* \"contracts/Coupon.sol\":5319:5323  data */\n  dup10\n    /* \"contracts/Coupon.sol\":5259:5278  _afterTokenTransfer */\n  shl(0x20, tag_36)\n    /* \"contracts/Coupon.sol\":5259:5324  _afterTokenTransfer(operator, address(0), to, ids, amounts, data) */\n  0x20\n  shr\n  jump\t// in\ntag_35:\n    /* \"contracts/Coupon.sol\":5335:5491  _doSafeTransferAcceptanceCheck(... */\n  tag_37\n    /* \"contracts/Coupon.sol\":5379:5387  operator */\n  dup4\n    /* \"contracts/Coupon.sol\":5409:5410  0 */\n  0x00\n    /* \"contracts/Coupon.sol\":5425:5427  to */\n  dup10\n    /* \"contracts/Coupon.sol\":5441:5443  id */\n  dup10\n    /* \"contracts/Coupon.sol\":5457:5463  amount */\n  dup10\n    /* \"contracts/Coupon.sol\":5477:5481  data */\n  dup10\n    /* \"contracts/Coupon.sol\":5335:5365  _doSafeTransferAcceptanceCheck */\n  shl(0x20, tag_38)\n    /* \"contracts/Coupon.sol\":5335:5491  _doSafeTransferAcceptanceCheck(... */\n  0x20\n  shr\n  jump\t// in\ntag_37:\n    /* \"contracts/Coupon.sol\":4836:5498  {... */\n  pop\n  pop\n  pop\n    /* \"contracts/Coupon.sol\":4707:5498  function _mint(... */\n  pop\n  pop\n  pop\n  pop\n  jump\t// out\n    /* \"contracts/Coupon.sol\":1944:2031  function _msgSender() private view returns (address) {... */\ntag_26:\n    /* \"contracts/Coupon.sol\":1988:1995  address */\n  0x00\n    /* \"contracts/Coupon.sol\":2014:2024  msg.sender */\n  caller\n    /* \"contracts/Coupon.sol\":2007:2024  return msg.sender */\n  swap1\n  pop\n    /* \"contracts/Coupon.sol\":1944:2031  function _msgSender() private view returns (address) {... */\n  swap1\n  jump\t// out\n    /* \"contracts/Coupon.sol\":9748:9969  function _asSingletonArray(uint256 element)... */\ntag_28:\n    /* \"contracts/Coupon.sol\":9838:9854  uint256[] memory */\n  0x60\n    /* \"contracts/Coupon.sol\":9870:9892  uint256[] memory array */\n  0x00\n    /* \"contracts/Coupon.sol\":9909:9910  1 */\n  0x01\n    /* \"contracts/Coupon.sol\":9895:9911  new uint256[](1) */\n  0xffffffffffffffff\n  dup2\n  gt\n  iszero\n  tag_41\n  jumpi\n  tag_42\n  tag_43\n  jump\t// in\ntag_42:\ntag_41:\n  mload(0x40)\n  swap1\n  dup1\n  dup3\n  mstore\n  dup1\n  0x20\n  mul\n  0x20\n  add\n  dup3\n  add\n  0x40\n  mstore\n  dup1\n  iszero\n  tag_44\n  jumpi\n  dup2\n  0x20\n  add\n  0x20\n  dup3\n  mul\n  dup1\n  calldatasize\n  dup4\n  calldatacopy\n  dup1\n  dup3\n  add\n  swap2\n  pop\n  pop\n  swap1\n  pop\ntag_44:\n  pop\n    /* \"contracts/Coupon.sol\":9870:9911  uint256[] memory array = new uint256[](1) */\n  swap1\n  pop\n    /* \"contracts/Coupon.sol\":9932:9939  element */\n  dup3\n    /* \"contracts/Coupon.sol\":9921:9926  array */\n  dup2\n    /* \"contracts/Coupon.sol\":9927:9928  0 */\n  0x00\n    /* \"contracts/Coupon.sol\":9921:9929  array[0] */\n  dup2\n  mload\n  dup2\n  lt\n  tag_45\n  jumpi\n  tag_46\n  tag_47\n  jump\t// in\ntag_46:\ntag_45:\n  0x20\n  mul\n  0x20\n  add\n  add\n    /* \"contracts/Coupon.sol\":9921:9939  array[0] = element */\n  dup2\n  dup2\n  mstore\n  pop\n  pop\n    /* \"contracts/Coupon.sol\":9957:9962  array */\n  dup1\n    /* \"contracts/Coupon.sol\":9950:9962  return array */\n  swap2\n  pop\n  pop\n    /* \"contracts/Coupon.sol\":9748:9969  function _asSingletonArray(uint256 element)... */\n  swap2\n  swap1\n  pop\n  jump\t// out\n    /* \"contracts/Coupon.sol\":7506:7720  function _beforeTokenTransfer(... */\ntag_31:\n  pop\n  pop\n  pop\n  pop\n  pop\n  pop\n  jump\t// out\n    /* \"contracts/Coupon.sol\":8653:8866  function _afterTokenTransfer(... */\ntag_36:\n  pop\n  pop\n  pop\n  pop\n  pop\n  pop\n  jump\t// out\n    /* \"contracts/Coupon.sol\":8872:9742  function _doSafeTransferAcceptanceCheck(... */\ntag_38:\n    /* \"contracts/Coupon.sol\":9079:9093  isContract(to) */\n  tag_51\n    /* \"contracts/Coupon.sol\":9090:9092  to */\n  dup5\n    /* \"contracts/Coupon.sol\":9079:9089  isContract */\n  shl(0x20, tag_52)\n    /* \"contracts/Coupon.sol\":9079:9093  isContract(to) */\n  0x20\n  shr\n  jump\t// in\ntag_51:\n    /* \"contracts/Coupon.sol\":9075:9736  if (isContract(to)) {... */\n  iszero\n  tag_53\n  jumpi\n    /* \"contracts/Coupon.sol\":9146:9148  to */\n  dup4\n    /* \"contracts/Coupon.sol\":9129:9167  IERC1155Receiver(to).onERC1155Received */\n  0xffffffffffffffffffffffffffffffffffffffff\n  and\n  0xf23a6e61\n    /* \"contracts/Coupon.sol\":9189:9197  operator */\n  dup8\n    /* \"contracts/Coupon.sol\":9219:9223  from */\n  dup8\n    /* \"contracts/Coupon.sol\":9245:9247  id */\n  dup7\n    /* \"contracts/Coupon.sol\":9269:9275  amount */\n  dup7\n    /* \"contracts/Coupon.sol\":9297:9301  data */\n  dup7\n    /* \"contracts/Coupon.sol\":9129:9319  IERC1155Receiver(to).onERC1155Received(... */\n  mload(0x40)\n  dup7\n  0xffffffff\n  and\n  0xe0\n  shl\n  dup2\n  mstore\n  0x04\n  add\n  tag_54\n  swap6\n  swap5\n  swap4\n  swap3\n  swap2\n  swap1\n  tag_55\n  jump\t// in\ntag_54:\n  0x20\n  mload(0x40)\n  dup1\n  dup4\n  sub\n  dup2\n  0x00\n  dup8\n  dup1\n  extcodesize\n  iszero\n  dup1\n  iszero\n  tag_56\n  jumpi\n  0x00\n  dup1\n  revert\ntag_56:\n  pop\n  gas\n  call\n  swap3\n  pop\n  pop\n  pop\n  dup1\n  iszero\n  tag_57\n  jumpi\n  pop\n  mload(0x40)\n  returndatasize\n  not(0x1f)\n  0x1f\n  dup3\n  add\n  and\n  dup3\n  add\n  dup1\n  0x40\n  mstore\n  pop\n  dup2\n  add\n  swap1\n  tag_58\n  swap2\n  swap1\n  tag_59\n  jump\t// in\ntag_58:\n  0x01\ntag_57:\n    /* \"contracts/Coupon.sol\":9109:9726  try... */\n  tag_60\n  jumpi\n  tag_64\n  tag_65\n  jump\t// in\ntag_64:\n  dup1\n  0x08c379a0\n  eq\n  iszero\n  tag_63\n  jumpi\n  pop\n  tag_66\n  tag_67\n  jump\t// in\ntag_66:\n  dup1\n  tag_68\n  jumpi\n  pop\n  jump(tag_62)\ntag_68:\n    /* \"contracts/Coupon.sol\":9602:9608  reason */\n  dup1\n    /* \"contracts/Coupon.sol\":9595:9609  revert(reason) */\n  mload(0x40)\n  0x08c379a000000000000000000000000000000000000000000000000000000000\n  dup2\n  mstore\n  0x04\n  add\n  tag_69\n  swap2\n  swap1\n  tag_70\n  jump\t// in\ntag_69:\n  mload(0x40)\n  dup1\n  swap2\n  sub\n  swap1\n  revert\n    /* \"contracts/Coupon.sol\":9109:9726  try... */\ntag_63:\n  pop\ntag_62:\n    /* \"contracts/Coupon.sol\":9649:9711  revert(\"ERC1155: transfer to non ERC1155Receiver implementer\") */\n  mload(0x40)\n  0x08c379a000000000000000000000000000000000000000000000000000000000\n  dup2\n  mstore\n  0x04\n  add\n  tag_71\n  swap1\n  tag_72\n  jump\t// in\ntag_71:\n  mload(0x40)\n  dup1\n  swap2\n  sub\n  swap1\n  revert\n    /* \"contracts/Coupon.sol\":9109:9726  try... */\ntag_60:\n    /* \"contracts/Coupon.sol\":9392:9435  IERC1155Receiver.onERC1155Received.selector */\n  shl(0xe0, 0xf23a6e61)\n    /* \"contracts/Coupon.sol\":9380:9435  response != IERC1155Receiver.onERC1155Received.selector */\n  not(0xffffffffffffffffffffffffffffffffffffffffffffffffffffffff)\n  and\n    /* \"contracts/Coupon.sol\":9380:9388  response */\n  dup2\n    /* \"contracts/Coupon.sol\":9380:9435  response != IERC1155Receiver.onERC1155Received.selector */\n  not(0xffffffffffffffffffffffffffffffffffffffffffffffffffffffff)\n  and\n  eq\n    /* \"contracts/Coupon.sol\":9376:9528  if (response != IERC1155Receiver.onERC1155Received.selector) {... */\n  tag_74\n  jumpi\n    /* \"contracts/Coupon.sol\":9459:9509  revert(\"ERC1155: ERC1155Receiver rejected tokens\") */\n  mload(0x40)\n  0x08c379a000000000000000000000000000000000000000000000000000000000\n  dup2\n  mstore\n  0x04\n  add\n  tag_75\n  swap1\n  tag_76\n  jump\t// in\ntag_75:\n  mload(0x40)\n  dup1\n  swap2\n  sub\n  swap1\n  revert\n    /* \"contracts/Coupon.sol\":9376:9528  if (response != IERC1155Receiver.onERC1155Received.selector) {... */\ntag_74:\n    /* \"contracts/Coupon.sol\":9332:9542  returns (bytes4 response) {... */\n  pop\n    /* \"contracts/Coupon.sol\":9075:9736  if (isContract(to)) {... */\ntag_53:\n    /* \"contracts/Coupon.sol\":8872:9742  function _doSafeTransferAcceptanceCheck(... */\n  pop\n  pop\n  pop\n  pop\n  pop\n  pop\n  jump\t// out\n    /* \"contracts/Coupon.sol\":1619:1938  function isContract(address account) private view returns (bool) {... */\ntag_52:\n    /* \"contracts/Coupon.sol\":1678:1682  bool */\n  0x00\n    /* \"contracts/Coupon.sol\":1930:1931  0 */\n  dup1\n    /* \"contracts/Coupon.sol\":1908:1915  account */\n  dup3\n    /* \"contracts/Coupon.sol\":1908:1927  account.code.length */\n  0xffffffffffffffffffffffffffffffffffffffff\n  and\n  extcodesize\n    /* \"contracts/Coupon.sol\":1908:1931  account.code.length > 0 */\n  gt\n    /* \"contracts/Coupon.sol\":1901:1931  return account.code.length > 0 */\n  swap1\n  pop\n    /* \"contracts/Coupon.sol\":1619:1938  function isContract(address account) private view returns (bool) {... */\n  swap2\n  swap1\n  pop\n  jump\t// out\n    /* \"#utility.yul\":7:148   */\ntag_79:\n    /* \"#utility.yul\":63:68   */\n  0x00\n    /* \"#utility.yul\":94:100   */\n  dup2\n    /* \"#utility.yul\":88:101   */\n  mload\n    /* \"#utility.yul\":79:101   */\n  swap1\n  pop\n    /* \"#utility.yul\":110:142   */\n  tag_81\n    /* \"#utility.yul\":136:141   */\n  dup2\n    /* \"#utility.yul\":110:142   */\n  tag_82\n  jump\t// in\ntag_81:\n    /* \"#utility.yul\":7:148   */\n  swap3\n  swap2\n  pop\n  pop\n  jump\t// out\n    /* \"#utility.yul\":154:503   */\ntag_59:\n    /* \"#utility.yul\":223:229   */\n  0x00\n    /* \"#utility.yul\":272:274   */\n  0x20\n    /* \"#utility.yul\":260:269   */\n  dup3\n    /* \"#utility.yul\":251:258   */\n  dup5\n    /* \"#utility.yul\":247:270   */\n  sub\n    /* \"#utility.yul\":243:275   */\n  slt\n    /* \"#utility.yul\":240:359   */\n  iszero\n  tag_84\n  jumpi\n    /* \"#utility.yul\":278:357   */\n  tag_85\n  tag_86\n  jump\t// in\ntag_85:\n    /* \"#utility.yul\":240:359   */\ntag_84:\n    /* \"#utility.yul\":398:399   */\n  0x00\n    /* \"#utility.yul\":423:486   */\n  tag_87\n    /* \"#utility.yul\":478:485   */\n  dup5\n    /* \"#utility.yul\":469:475   */\n  dup3\n    /* \"#utility.yul\":458:467   */\n  dup6\n    /* \"#utility.yul\":454:476   */\n  add\n    /* \"#utility.yul\":423:486   */\n  tag_79\n  jump\t// in\ntag_87:\n    /* \"#utility.yul\":413:486   */\n  swap2\n  pop\n    /* \"#utility.yul\":369:496   */\n  pop\n    /* \"#utility.yul\":154:503   */\n  swap3\n  swap2\n  pop\n  pop\n  jump\t// out\n    /* \"#utility.yul\":509:627   */\ntag_88:\n    /* \"#utility.yul\":596:620   */\n  tag_90\n    /* \"#utility.yul\":614:619   */\n  dup2\n    /* \"#utility.yul\":596:620   */\n  tag_91\n  jump\t// in\ntag_90:\n    /* \"#utility.yul\":591:594   */\n  dup3\n    /* \"#utility.yul\":584:621   */\n  mstore\n    /* \"#utility.yul\":509:627   */\n  pop\n  pop\n  jump\t// out\n    /* \"#utility.yul\":633:993   */\ntag_92:\n    /* \"#utility.yul\":719:722   */\n  0x00\n    /* \"#utility.yul\":747:785   */\n  tag_94\n    /* \"#utility.yul\":779:784   */\n  dup3\n    /* \"#utility.yul\":747:785   */\n  tag_95\n  jump\t// in\ntag_94:\n    /* \"#utility.yul\":801:871   */\n  tag_96\n    /* \"#utility.yul\":864:870   */\n  dup2\n    /* \"#utility.yul\":859:862   */\n  dup6\n    /* \"#utility.yul\":801:871   */\n  tag_97\n  jump\t// in\ntag_96:\n    /* \"#utility.yul\":794:871   */\n  swap4\n  pop\n    /* \"#utility.yul\":880:932   */\n  tag_98\n    /* \"#utility.yul\":925:931   */\n  dup2\n    /* \"#utility.yul\":920:923   */\n  dup6\n    /* \"#utility.yul\":913:917   */\n  0x20\n    /* \"#utility.yul\":906:911   */\n  dup7\n    /* \"#utility.yul\":902:918   */\n  add\n    /* \"#utility.yul\":880:932   */\n  tag_99\n  jump\t// in\ntag_98:\n    /* \"#utility.yul\":957:986   */\n  tag_100\n    /* \"#utility.yul\":979:985   */\n  dup2\n    /* \"#utility.yul\":957:986   */\n  tag_101\n  jump\t// in\ntag_100:\n    /* \"#utility.yul\":952:955   */\n  dup5\n    /* \"#utility.yul\":948:987   */\n  add\n    /* \"#utility.yul\":941:987   */\n  swap2\n  pop\n    /* \"#utility.yul\":723:993   */\n  pop\n    /* \"#utility.yul\":633:993   */\n  swap3\n  swap2\n  pop\n  pop\n  jump\t// out\n    /* \"#utility.yul\":999:1363   */\ntag_102:\n    /* \"#utility.yul\":1087:1090   */\n  0x00\n    /* \"#utility.yul\":1115:1154   */\n  tag_104\n    /* \"#utility.yul\":1148:1153   */\n  dup3\n    /* \"#utility.yul\":1115:1154   */\n  tag_105\n  jump\t// in\ntag_104:\n    /* \"#utility.yul\":1170:1241   */\n  tag_106\n    /* \"#utility.yul\":1234:1240   */\n  dup2\n    /* \"#utility.yul\":1229:1232   */\n  dup6\n    /* \"#utility.yul\":1170:1241   */\n  tag_107\n  jump\t// in\ntag_106:\n    /* \"#utility.yul\":1163:1241   */\n  swap4\n  pop\n    /* \"#utility.yul\":1250:1302   */\n  tag_108\n    /* \"#utility.yul\":1295:1301   */\n  dup2\n    /* \"#utility.yul\":1290:1293   */\n  dup6\n    /* \"#utility.yul\":1283:1287   */\n  0x20\n    /* \"#utility.yul\":1276:1281   */\n  dup7\n    /* \"#utility.yul\":1272:1288   */\n  add\n    /* \"#utility.yul\":1250:1302   */\n  tag_99\n  jump\t// in\ntag_108:\n    /* \"#utility.yul\":1327:1356   */\n  tag_109\n    /* \"#utility.yul\":1349:1355   */\n  dup2\n    /* \"#utility.yul\":1327:1356   */\n  tag_101\n  jump\t// in\ntag_109:\n    /* \"#utility.yul\":1322:1325   */\n  dup5\n    /* \"#utility.yul\":1318:1357   */\n  add\n    /* \"#utility.yul\":1311:1357   */\n  swap2\n  pop\n    /* \"#utility.yul\":1091:1363   */\n  pop\n    /* \"#utility.yul\":999:1363   */\n  swap3\n  swap2\n  pop\n  pop\n  jump\t// out\n    /* \"#utility.yul\":1369:1735   */\ntag_110:\n    /* \"#utility.yul\":1511:1514   */\n  0x00\n    /* \"#utility.yul\":1532:1599   */\n  tag_112\n    /* \"#utility.yul\":1596:1598   */\n  0x34\n    /* \"#utility.yul\":1591:1594   */\n  dup4\n    /* \"#utility.yul\":1532:1599   */\n  tag_107\n  jump\t// in\ntag_112:\n    /* \"#utility.yul\":1525:1599   */\n  swap2\n  pop\n    /* \"#utility.yul\":1608:1701   */\n  tag_113\n    /* \"#utility.yul\":1697:1700   */\n  dup3\n    /* \"#utility.yul\":1608:1701   */\n  tag_114\n  jump\t// in\ntag_113:\n    /* \"#utility.yul\":1726:1728   */\n  0x40\n    /* \"#utility.yul\":1721:1724   */\n  dup3\n    /* \"#utility.yul\":1717:1729   */\n  add\n    /* \"#utility.yul\":1710:1729   */\n  swap1\n  pop\n    /* \"#utility.yul\":1369:1735   */\n  swap2\n  swap1\n  pop\n  jump\t// out\n    /* \"#utility.yul\":1741:2107   */\ntag_115:\n    /* \"#utility.yul\":1883:1886   */\n  0x00\n    /* \"#utility.yul\":1904:1971   */\n  tag_117\n    /* \"#utility.yul\":1968:1970   */\n  0x28\n    /* \"#utility.yul\":1963:1966   */\n  dup4\n    /* \"#utility.yul\":1904:1971   */\n  tag_107\n  jump\t// in\ntag_117:\n    /* \"#utility.yul\":1897:1971   */\n  swap2\n  pop\n    /* \"#utility.yul\":1980:2073   */\n  tag_118\n    /* \"#utility.yul\":2069:2072   */\n  dup3\n    /* \"#utility.yul\":1980:2073   */\n  tag_119\n  jump\t// in\ntag_118:\n    /* \"#utility.yul\":2098:2100   */\n  0x40\n    /* \"#utility.yul\":2093:2096   */\n  dup3\n    /* \"#utility.yul\":2089:2101   */\n  add\n    /* \"#utility.yul\":2082:2101   */\n  swap1\n  pop\n    /* \"#utility.yul\":1741:2107   */\n  swap2\n  swap1\n  pop\n  jump\t// out\n    /* \"#utility.yul\":2113:2479   */\ntag_120:\n    /* \"#utility.yul\":2255:2258   */\n  0x00\n    /* \"#utility.yul\":2276:2343   */\n  tag_122\n    /* \"#utility.yul\":2340:2342   */\n  0x26\n    /* \"#utility.yul\":2335:2338   */\n  dup4\n    /* \"#utility.yul\":2276:2343   */\n  tag_107\n  jump\t// in\ntag_122:\n    /* \"#utility.yul\":2269:2343   */\n  swap2\n  pop\n    /* \"#utility.yul\":2352:2445   */\n  tag_123\n    /* \"#utility.yul\":2441:2444   */\n  dup3\n    /* \"#utility.yul\":2352:2445   */\n  tag_124\n  jump\t// in\ntag_123:\n    /* \"#utility.yul\":2470:2472   */\n  0x40\n    /* \"#utility.yul\":2465:2468   */\n  dup3\n    /* \"#utility.yul\":2461:2473   */\n  add\n    /* \"#utility.yul\":2454:2473   */\n  swap1\n  pop\n    /* \"#utility.yul\":2113:2479   */\n  swap2\n  swap1\n  pop\n  jump\t// out\n    /* \"#utility.yul\":2485:2851   */\ntag_125:\n    /* \"#utility.yul\":2627:2630   */\n  0x00\n    /* \"#utility.yul\":2648:2715   */\n  tag_127\n    /* \"#utility.yul\":2712:2714   */\n  0x21\n    /* \"#utility.yul\":2707:2710   */\n  dup4\n    /* \"#utility.yul\":2648:2715   */\n  tag_107\n  jump\t// in\ntag_127:\n    /* \"#utility.yul\":2641:2715   */\n  swap2\n  pop\n    /* \"#utility.yul\":2724:2817   */\n  tag_128\n    /* \"#utility.yul\":2813:2816   */\n  dup3\n    /* \"#utility.yul\":2724:2817   */\n  tag_129\n  jump\t// in\ntag_128:\n    /* \"#utility.yul\":2842:2844   */\n  0x40\n    /* \"#utility.yul\":2837:2840   */\n  dup3\n    /* \"#utility.yul\":2833:2845   */\n  add\n    /* \"#utility.yul\":2826:2845   */\n  swap1\n  pop\n    /* \"#utility.yul\":2485:2851   */\n  swap2\n  swap1\n  pop\n  jump\t// out\n    /* \"#utility.yul\":2857:2975   */\ntag_130:\n    /* \"#utility.yul\":2944:2968   */\n  tag_132\n    /* \"#utility.yul\":2962:2967   */\n  dup2\n    /* \"#utility.yul\":2944:2968   */\n  tag_133\n  jump\t// in\ntag_132:\n    /* \"#utility.yul\":2939:2942   */\n  dup3\n    /* \"#utility.yul\":2932:2969   */\n  mstore\n    /* \"#utility.yul\":2857:2975   */\n  pop\n  pop\n  jump\t// out\n    /* \"#utility.yul\":2981:3732   */\ntag_55:\n    /* \"#utility.yul\":3204:3208   */\n  0x00\n    /* \"#utility.yul\":3242:3245   */\n  0xa0\n    /* \"#utility.yul\":3231:3240   */\n  dup3\n    /* \"#utility.yul\":3227:3246   */\n  add\n    /* \"#utility.yul\":3219:3246   */\n  swap1\n  pop\n    /* \"#utility.yul\":3256:3327   */\n  tag_135\n    /* \"#utility.yul\":3324:3325   */\n  0x00\n    /* \"#utility.yul\":3313:3322   */\n  dup4\n    /* \"#utility.yul\":3309:3326   */\n  add\n    /* \"#utility.yul\":3300:3306   */\n  dup9\n    /* \"#utility.yul\":3256:3327   */\n  tag_88\n  jump\t// in\ntag_135:\n    /* \"#utility.yul\":3337:3409   */\n  tag_136\n    /* \"#utility.yul\":3405:3407   */\n  0x20\n    /* \"#utility.yul\":3394:3403   */\n  dup4\n    /* \"#utility.yul\":3390:3408   */\n  add\n    /* \"#utility.yul\":3381:3387   */\n  dup8\n    /* \"#utility.yul\":3337:3409   */\n  tag_88\n  jump\t// in\ntag_136:\n    /* \"#utility.yul\":3419:3491   */\n  tag_137\n    /* \"#utility.yul\":3487:3489   */\n  0x40\n    /* \"#utility.yul\":3476:3485   */\n  dup4\n    /* \"#utility.yul\":3472:3490   */\n  add\n    /* \"#utility.yul\":3463:3469   */\n  dup7\n    /* \"#utility.yul\":3419:3491   */\n  tag_130\n  jump\t// in\ntag_137:\n    /* \"#utility.yul\":3501:3573   */\n  tag_138\n    /* \"#utility.yul\":3569:3571   */\n  0x60\n    /* \"#utility.yul\":3558:3567   */\n  dup4\n    /* \"#utility.yul\":3554:3572   */\n  add\n    /* \"#utility.yul\":3545:3551   */\n  dup6\n    /* \"#utility.yul\":3501:3573   */\n  tag_130\n  jump\t// in\ntag_138:\n    /* \"#utility.yul\":3621:3630   */\n  dup2\n    /* \"#utility.yul\":3615:3619   */\n  dup2\n    /* \"#utility.yul\":3611:3631   */\n  sub\n    /* \"#utility.yul\":3605:3608   */\n  0x80\n    /* \"#utility.yul\":3594:3603   */\n  dup4\n    /* \"#utility.yul\":3590:3609   */\n  add\n    /* \"#utility.yul\":3583:3632   */\n  mstore\n    /* \"#utility.yul\":3649:3725   */\n  tag_139\n    /* \"#utility.yul\":3720:3724   */\n  dup2\n    /* \"#utility.yul\":3711:3717   */\n  dup5\n    /* \"#utility.yul\":3649:3725   */\n  tag_92\n  jump\t// in\ntag_139:\n    /* \"#utility.yul\":3641:3725   */\n  swap1\n  pop\n    /* \"#utility.yul\":2981:3732   */\n  swap7\n  swap6\n  pop\n  pop\n  pop\n  pop\n  pop\n  pop\n  jump\t// out\n    /* \"#utility.yul\":3738:4051   */\ntag_70:\n    /* \"#utility.yul\":3851:3855   */\n  0x00\n    /* \"#utility.yul\":3889:3891   */\n  0x20\n    /* \"#utility.yul\":3878:3887   */\n  dup3\n    /* \"#utility.yul\":3874:3892   */\n  add\n    /* \"#utility.yul\":3866:3892   */\n  swap1\n  pop\n    /* \"#utility.yul\":3938:3947   */\n  dup2\n    /* \"#utility.yul\":3932:3936   */\n  dup2\n    /* \"#utility.yul\":3928:3948   */\n  sub\n    /* \"#utility.yul\":3924:3925   */\n  0x00\n    /* \"#utility.yul\":3913:3922   */\n  dup4\n    /* \"#utility.yul\":3909:3926   */\n  add\n    /* \"#utility.yul\":3902:3949   */\n  mstore\n    /* \"#utility.yul\":3966:4044   */\n  tag_141\n    /* \"#utility.yul\":4039:4043   */\n  dup2\n    /* \"#utility.yul\":4030:4036   */\n  dup5\n    /* \"#utility.yul\":3966:4044   */\n  tag_102\n  jump\t// in\ntag_141:\n    /* \"#utility.yul\":3958:4044   */\n  swap1\n  pop\n    /* \"#utility.yul\":3738:4051   */\n  swap3\n  swap2\n  pop\n  pop\n  jump\t// out\n    /* \"#utility.yul\":4057:4476   */\ntag_72:\n    /* \"#utility.yul\":4223:4227   */\n  0x00\n    /* \"#utility.yul\":4261:4263   */\n  0x20\n    /* \"#utility.yul\":4250:4259   */\n  dup3\n    /* \"#utility.yul\":4246:4264   */\n  add\n    /* \"#utility.yul\":4238:4264   */\n  swap1\n  pop\n    /* \"#utility.yul\":4310:4319   */\n  dup2\n    /* \"#utility.yul\":4304:4308   */\n  dup2\n    /* \"#utility.yul\":4300:4320   */\n  sub\n    /* \"#utility.yul\":4296:4297   */\n  0x00\n    /* \"#utility.yul\":4285:4294   */\n  dup4\n    /* \"#utility.yul\":4281:4298   */\n  add\n    /* \"#utility.yul\":4274:4321   */\n  mstore\n    /* \"#utility.yul\":4338:4469   */\n  tag_143\n    /* \"#utility.yul\":4464:4468   */\n  dup2\n    /* \"#utility.yul\":4338:4469   */\n  tag_110\n  jump\t// in\ntag_143:\n    /* \"#utility.yul\":4330:4469   */\n  swap1\n  pop\n    /* \"#utility.yul\":4057:4476   */\n  swap2\n  swap1\n  pop\n  jump\t// out\n    /* \"#utility.yul\":4482:4901   */\ntag_76:\n    /* \"#utility.yul\":4648:4652   */\n  0x00\n    /* \"#utility.yul\":4686:4688   */\n  0x20\n    /* \"#utility.yul\":4675:4684   */\n  dup3\n    /* \"#utility.yul\":4671:4689   */\n  add\n    /* \"#utility.yul\":4663:4689   */\n  swap1\n  pop\n    /* \"#utility.yul\":4735:4744   */\n  dup2\n    /* \"#utility.yul\":4729:4733   */\n  dup2\n    /* \"#utility.yul\":4725:4745   */\n  sub\n    /* \"#utility.yul\":4721:4722   */\n  0x00\n    /* \"#utility.yul\":4710:4719   */\n  dup4\n    /* \"#utility.yul\":4706:4723   */\n  add\n    /* \"#utility.yul\":4699:4746   */\n  mstore\n    /* \"#utility.yul\":4763:4894   */\n  tag_145\n    /* \"#utility.yul\":4889:4893   */\n  dup2\n    /* \"#utility.yul\":4763:4894   */\n  tag_115\n  jump\t// in\ntag_145:\n    /* \"#utility.yul\":4755:4894   */\n  swap1\n  pop\n    /* \"#utility.yul\":4482:4901   */\n  swap2\n  swap1\n  pop\n  jump\t// out\n    /* \"#utility.yul\":4907:5326   */\ntag_16:\n    /* \"#utility.yul\":5073:5077   */\n  0x00\n    /* \"#utility.yul\":5111:5113   */\n  0x20\n    /* \"#utility.yul\":5100:5109   */\n  dup3\n    /* \"#utility.yul\":5096:5114   */\n  add\n    /* \"#utility.yul\":5088:5114   */\n  swap1\n  pop\n    /* \"#utility.yul\":5160:5169   */\n  dup2\n    /* \"#utility.yul\":5154:5158   */\n  dup2\n    /* \"#utility.yul\":5150:5170   */\n  sub\n    /* \"#utility.yul\":5146:5147   */\n  0x00\n    /* \"#utility.yul\":5135:5144   */\n  dup4\n    /* \"#utility.yul\":5131:5148   */\n  add\n    /* \"#utility.yul\":5124:5171   */\n  mstore\n    /* \"#utility.yul\":5188:5319   */\n  tag_147\n    /* \"#utility.yul\":5314:5318   */\n  dup2\n    /* \"#utility.yul\":5188:5319   */\n  tag_120\n  jump\t// in\ntag_147:\n    /* \"#utility.yul\":5180:5319   */\n  swap1\n  pop\n    /* \"#utility.yul\":4907:5326   */\n  swap2\n  swap1\n  pop\n  jump\t// out\n    /* \"#utility.yul\":5332:5751   */\ntag_24:\n    /* \"#utility.yul\":5498:5502   */\n  0x00\n    /* \"#utility.yul\":5536:5538   */\n  0x20\n    /* \"#utility.yul\":5525:5534   */\n  dup3\n    /* \"#utility.yul\":5521:5539   */\n  add\n    /* \"#utility.yul\":5513:5539   */\n  swap1\n  pop\n    /* \"#utility.yul\":5585:5594   */\n  dup2\n    /* \"#utility.yul\":5579:5583   */\n  dup2\n    /* \"#utility.yul\":5575:5595   */\n  sub\n    /* \"#utility.yul\":5571:5572   */\n  0x00\n    /* \"#utility.yul\":5560:5569   */\n  dup4\n    /* \"#utility.yul\":5556:5573   */\n  add\n    /* \"#utility.yul\":5549:5596   */\n  mstore\n    /* \"#utility.yul\":5613:5744   */\n  tag_149\n    /* \"#utility.yul\":5739:5743   */\n  dup2\n    /* \"#utility.yul\":5613:5744   */\n  tag_125\n  jump\t// in\ntag_149:\n    /* \"#utility.yul\":5605:5744   */\n  swap1\n  pop\n    /* \"#utility.yul\":5332:5751   */\n  swap2\n  swap1\n  pop\n  jump\t// out\n    /* \"#utility.yul\":5757:6089   */\ntag_34:\n    /* \"#utility.yul\":5878:5882   */\n  0x00\n    /* \"#utility.yul\":5916:5918   */\n  0x40\n    /* \"#utility.yul\":5905:5914   */\n  dup3\n    /* \"#utility.yul\":5901:5919   */\n  add\n    /* \"#utility.yul\":5893:5919   */\n  swap1\n  pop\n    /* \"#utility.yul\":5929:6000   */\n  tag_151\n    /* \"#utility.yul\":5997:5998   */\n  0x00\n    /* \"#utility.yul\":5986:5995   */\n  dup4\n    /* \"#utility.yul\":5982:5999   */\n  add\n    /* \"#utility.yul\":5973:5979   */\n  dup6\n    /* \"#utility.yul\":5929:6000   */\n  tag_130\n  jump\t// in\ntag_151:\n    /* \"#utility.yul\":6010:6082   */\n  tag_152\n    /* \"#utility.yul\":6078:6080   */\n  0x20\n    /* \"#utility.yul\":6067:6076   */\n  dup4\n    /* \"#utility.yul\":6063:6081   */\n  add\n    /* \"#utility.yul\":6054:6060   */\n  dup5\n    /* \"#utility.yul\":6010:6082   */\n  tag_130\n  jump\t// in\ntag_152:\n    /* \"#utility.yul\":5757:6089   */\n  swap4\n  swap3\n  pop\n  pop\n  pop\n  jump\t// out\n    /* \"#utility.yul\":6095:6170   */\ntag_153:\n    /* \"#utility.yul\":6128:6134   */\n  0x00\n    /* \"#utility.yul\":6161:6163   */\n  0x40\n    /* \"#utility.yul\":6155:6164   */\n  mload\n    /* \"#utility.yul\":6145:6164   */\n  swap1\n  pop\n    /* \"#utility.yul\":6095:6170   */\n  swap1\n  jump\t// out\n    /* \"#utility.yul\":6176:6274   */\ntag_95:\n    /* \"#utility.yul\":6227:6233   */\n  0x00\n    /* \"#utility.yul\":6261:6266   */\n  dup2\n    /* \"#utility.yul\":6255:6267   */\n  mload\n    /* \"#utility.yul\":6245:6267   */\n  swap1\n  pop\n    /* \"#utility.yul\":6176:6274   */\n  swap2\n  swap1\n  pop\n  jump\t// out\n    /* \"#utility.yul\":6280:6379   */\ntag_105:\n    /* \"#utility.yul\":6332:6338   */\n  0x00\n    /* \"#utility.yul\":6366:6371   */\n  dup2\n    /* \"#utility.yul\":6360:6372   */\n  mload\n    /* \"#utility.yul\":6350:6372   */\n  swap1\n  pop\n    /* \"#utility.yul\":6280:6379   */\n  swap2\n  swap1\n  pop\n  jump\t// out\n    /* \"#utility.yul\":6385:6553   */\ntag_97:\n    /* \"#utility.yul\":6468:6479   */\n  0x00\n    /* \"#utility.yul\":6502:6508   */\n  dup3\n    /* \"#utility.yul\":6497:6500   */\n  dup3\n    /* \"#utility.yul\":6490:6509   */\n  mstore\n    /* \"#utility.yul\":6542:6546   */\n  0x20\n    /* \"#utility.yul\":6537:6540   */\n  dup3\n    /* \"#utility.yul\":6533:6547   */\n  add\n    /* \"#utility.yul\":6518:6547   */\n  swap1\n  pop\n    /* \"#utility.yul\":6385:6553   */\n  swap3\n  swap2\n  pop\n  pop\n  jump\t// out\n    /* \"#utility.yul\":6559:6728   */\ntag_107:\n    /* \"#utility.yul\":6643:6654   */\n  0x00\n    /* \"#utility.yul\":6677:6683   */\n  dup3\n    /* \"#utility.yul\":6672:6675   */\n  dup3\n    /* \"#utility.yul\":6665:6684   */\n  mstore\n    /* \"#utility.yul\":6717:6721   */\n  0x20\n    /* \"#utility.yul\":6712:6715   */\n  dup3\n    /* \"#utility.yul\":6708:6722   */\n  add\n    /* \"#utility.yul\":6693:6722   */\n  swap1\n  pop\n    /* \"#utility.yul\":6559:6728   */\n  swap3\n  swap2\n  pop\n  pop\n  jump\t// out\n    /* \"#utility.yul\":6734:7039   */\ntag_20:\n    /* \"#utility.yul\":6774:6777   */\n  0x00\n    /* \"#utility.yul\":6793:6813   */\n  tag_160\n    /* \"#utility.yul\":6811:6812   */\n  dup3\n    /* \"#utility.yul\":6793:6813   */\n  tag_133\n  jump\t// in\ntag_160:\n    /* \"#utility.yul\":6788:6813   */\n  swap2\n  pop\n    /* \"#utility.yul\":6827:6847   */\n  tag_161\n    /* \"#utility.yul\":6845:6846   */\n  dup4\n    /* \"#utility.yul\":6827:6847   */\n  tag_133\n  jump\t// in\ntag_161:\n    /* \"#utility.yul\":6822:6847   */\n  swap3\n  pop\n    /* \"#utility.yul\":6981:6982   */\n  dup3\n    /* \"#utility.yul\":6913:6979   */\n  0xffffffffffffffffffffffffffffffffffffffffffffffffffffffffffffffff\n    /* \"#utility.yul\":6909:6983   */\n  sub\n    /* \"#utility.yul\":6906:6907   */\n  dup3\n    /* \"#utility.yul\":6903:6984   */\n  gt\n    /* \"#utility.yul\":6900:7007   */\n  iszero\n  tag_162\n  jumpi\n    /* \"#utility.yul\":6987:7005   */\n  tag_163\n  tag_164\n  jump\t// in\ntag_163:\n    /* \"#utility.yul\":6900:7007   */\ntag_162:\n    /* \"#utility.yul\":7031:7032   */\n  dup3\n    /* \"#utility.yul\":7028:7029   */\n  dup3\n    /* \"#utility.yul\":7024:7033   */\n  add\n    /* \"#utility.yul\":7017:7033   */\n  swap1\n  pop\n    /* \"#utility.yul\":6734:7039   */\n  swap3\n  swap2\n  pop\n  pop\n  jump\t// out\n    /* \"#utility.yul\":7045:7141   */\ntag_91:\n    /* \"#utility.yul\":7082:7089   */\n  0x00\n    /* \"#utility.yul\":7111:7135   */\n  tag_166\n    /* \"#utility.yul\":7129:7134   */\n  dup3\n    /* \"#utility.yul\":7111:7135   */\n  tag_167\n  jump\t// in\ntag_166:\n    /* \"#utility.yul\":7100:7135   */\n  swap1\n  pop\n    /* \"#utility.yul\":7045:7141   */\n  swap2\n  swap1\n  pop\n  jump\t// out\n    /* \"#utility.yul\":7147:7296   */\ntag_168:\n    /* \"#utility.yul\":7183:7190   */\n  0x00\n    /* \"#utility.yul\":7223:7289   */\n  0xffffffff00000000000000000000000000000000000000000000000000000000\n    /* \"#utility.yul\":7216:7221   */\n  dup3\n    /* \"#utility.yul\":7212:7290   */\n  and\n    /* \"#utility.yul\":7201:7290   */\n  swap1\n  pop\n    /* \"#utility.yul\":7147:7296   */\n  swap2\n  swap1\n  pop\n  jump\t// out\n    /* \"#utility.yul\":7302:7428   */\ntag_167:\n    /* \"#utility.yul\":7339:7346   */\n  0x00\n    /* \"#utility.yul\":7379:7421   */\n  0xffffffffffffffffffffffffffffffffffffffff\n    /* \"#utility.yul\":7372:7377   */\n  dup3\n    /* \"#utility.yul\":7368:7422   */\n  and\n    /* \"#utility.yul\":7357:7422   */\n  swap1\n  pop\n    /* \"#utility.yul\":7302:7428   */\n  swap2\n  swap1\n  pop\n  jump\t// out\n    /* \"#utility.yul\":7434:7511   */\ntag_133:\n    /* \"#utility.yul\":7471:7478   */\n  0x00\n    /* \"#utility.yul\":7500:7505   */\n  dup2\n    /* \"#utility.yul\":7489:7505   */\n  swap1\n  pop\n    /* \"#utility.yul\":7434:7511   */\n  swap2\n  swap1\n  pop\n  jump\t// out\n    /* \"#utility.yul\":7517:7824   */\ntag_99:\n    /* \"#utility.yul\":7585:7586   */\n  0x00\n    /* \"#utility.yul\":7595:7708   */\ntag_173:\n    /* \"#utility.yul\":7609:7615   */\n  dup4\n    /* \"#utility.yul\":7606:7607   */\n  dup2\n    /* \"#utility.yul\":7603:7616   */\n  lt\n    /* \"#utility.yul\":7595:7708   */\n  iszero\n  tag_175\n  jumpi\n    /* \"#utility.yul\":7694:7695   */\n  dup1\n    /* \"#utility.yul\":7689:7692   */\n  dup3\n    /* \"#utility.yul\":7685:7696   */\n  add\n    /* \"#utility.yul\":7679:7697   */\n  mload\n    /* \"#utility.yul\":7675:7676   */\n  dup2\n    /* \"#utility.yul\":7670:7673   */\n  dup5\n    /* \"#utility.yul\":7666:7677   */\n  add\n    /* \"#utility.yul\":7659:7698   */\n  mstore\n    /* \"#utility.yul\":7631:7633   */\n  0x20\n    /* \"#utility.yul\":7628:7629   */\n  dup2\n    /* \"#utility.yul\":7624:7634   */\n  add\n    /* \"#utility.yul\":7619:7634   */\n  swap1\n  pop\n    /* \"#utility.yul\":7595:7708   */\n  jump(tag_173)\ntag_175:\n    /* \"#utility.yul\":7726:7732   */\n  dup4\n    /* \"#utility.yul\":7723:7724   */\n  dup2\n    /* \"#utility.yul\":7720:7733   */\n  gt\n    /* \"#utility.yul\":7717:7818   */\n  iszero\n  tag_176\n  jumpi\n    /* \"#utility.yul\":7806:7807   */\n  0x00\n    /* \"#utility.yul\":7797:7803   */\n  dup5\n    /* \"#utility.yul\":7792:7795   */\n  dup5\n    /* \"#utility.yul\":7788:7804   */\n  add\n    /* \"#utility.yul\":7781:7808   */\n  mstore\n    /* \"#utility.yul\":7717:7818   */\ntag_176:\n    /* \"#utility.yul\":7566:7824   */\n  pop\n    /* \"#utility.yul\":7517:7824   */\n  pop\n  pop\n  pop\n  jump\t// out\n    /* \"#utility.yul\":7830:8111   */\ntag_177:\n    /* \"#utility.yul\":7913:7940   */\n  tag_179\n    /* \"#utility.yul\":7935:7939   */\n  dup3\n    /* \"#utility.yul\":7913:7940   */\n  tag_101\n  jump\t// in\ntag_179:\n    /* \"#utility.yul\":7905:7911   */\n  dup2\n    /* \"#utility.yul\":7901:7941   */\n  add\n    /* \"#utility.yul\":8043:8049   */\n  dup2\n    /* \"#utility.yul\":8031:8041   */\n  dup2\n    /* \"#utility.yul\":8028:8050   */\n  lt\n    /* \"#utility.yul\":8007:8025   */\n  0xffffffffffffffff\n    /* \"#utility.yul\":7995:8005   */\n  dup3\n    /* \"#utility.yul\":7992:8026   */\n  gt\n    /* \"#utility.yul\":7989:8051   */\n  or\n    /* \"#utility.yul\":7986:8074   */\n  iszero\n  tag_180\n  jumpi\n    /* \"#utility.yul\":8054:8072   */\n  tag_181\n  tag_43\n  jump\t// in\ntag_181:\n    /* \"#utility.yul\":7986:8074   */\ntag_180:\n    /* \"#utility.yul\":8094:8104   */\n  dup1\n    /* \"#utility.yul\":8090:8092   */\n  0x40\n    /* \"#utility.yul\":8083:8105   */\n  mstore\n    /* \"#utility.yul\":7873:8111   */\n  pop\n    /* \"#utility.yul\":7830:8111   */\n  pop\n  pop\n  jump\t// out\n    /* \"#utility.yul\":8117:8297   */\ntag_164:\n    /* \"#utility.yul\":8165:8242   */\n  0x4e487b7100000000000000000000000000000000000000000000000000000000\n    /* \"#utility.yul\":8162:8163   */\n  0x00\n    /* \"#utility.yul\":8155:8243   */\n  mstore\n    /* \"#utility.yul\":8262:8266   */\n  0x11\n    /* \"#utility.yul\":8259:8260   */\n  0x04\n    /* \"#utility.yul\":8252:8267   */\n  mstore\n    /* \"#utility.yul\":8286:8290   */\n  0x24\n    /* \"#utility.yul\":8283:8284   */\n  0x00\n    /* \"#utility.yul\":8276:8291   */\n  revert\n    /* \"#utility.yul\":8303:8483   */\ntag_47:\n    /* \"#utility.yul\":8351:8428   */\n  0x4e487b7100000000000000000000000000000000000000000000000000000000\n    /* \"#utility.yul\":8348:8349   */\n  0x00\n    /* \"#utility.yul\":8341:8429   */\n  mstore\n    /* \"#utility.yul\":8448:8452   */\n  0x32\n    /* \"#utility.yul\":8445:8446   */\n  0x04\n    /* \"#utility.yul\":8438:8453   */\n  mstore\n    /* \"#utility.yul\":8472:8476   */\n  0x24\n    /* \"#utility.yul\":8469:8470   */\n  0x00\n    /* \"#utility.yul\":8462:8477   */\n  revert\n    /* \"#utility.yul\":8489:8669   */\ntag_43:\n    /* \"#utility.yul\":8537:8614   */\n  0x4e487b7100000000000000000000000000000000000000000000000000000000\n    /* \"#utility.yul\":8534:8535   */\n  0x00\n    /* \"#utility.yul\":8527:8615   */\n  mstore\n    /* \"#utility.yul\":8634:8638   */\n  0x41\n    /* \"#utility.yul\":8631:8632   */\n  0x04\n    /* \"#utility.yul\":8624:8639   */\n  mstore\n    /* \"#utility.yul\":8658:8662   */\n  0x24\n    /* \"#utility.yul\":8655:8656   */\n  0x00\n    /* \"#utility.yul\":8648:8663   */\n  revert\n    /* \"#utility.yul\":8675:8858   */\ntag_65:\n    /* \"#utility.yul\":8710:8713   */\n  0x00\n    /* \"#utility.yul\":8748:8749   */\n  0x03\n    /* \"#utility.yul\":8730:8746   */\n  returndatasize\n    /* \"#utility.yul\":8727:8750   */\n  gt\n    /* \"#utility.yul\":8724:8852   */\n  iszero\n  tag_186\n  jumpi\n    /* \"#utility.yul\":8786:8787   */\n  0x04\n    /* \"#utility.yul\":8783:8784   */\n  0x00\n    /* \"#utility.yul\":8780:8781   */\n  dup1\n    /* \"#utility.yul\":8765:8788   */\n  returndatacopy\n    /* \"#utility.yul\":8808:8842   */\n  tag_187\n    /* \"#utility.yul\":8839:8840   */\n  0x00\n    /* \"#utility.yul\":8833:8841   */\n  mload\n    /* \"#utility.yul\":8808:8842   */\n  tag_188\n  jump\t// in\ntag_187:\n    /* \"#utility.yul\":8801:8842   */\n  swap1\n  pop\n    /* \"#utility.yul\":8724:8852   */\ntag_186:\n    /* \"#utility.yul\":8675:8858   */\n  swap1\n  jump\t// out\n    /* \"#utility.yul\":8987:9104   */\ntag_86:\n    /* \"#utility.yul\":9096:9097   */\n  0x00\n    /* \"#utility.yul\":9093:9094   */\n  dup1\n    /* \"#utility.yul\":9086:9098   */\n  revert\n    /* \"#utility.yul\":9110:9212   */\ntag_101:\n    /* \"#utility.yul\":9151:9157   */\n  0x00\n    /* \"#utility.yul\":9202:9204   */\n  0x1f\n    /* \"#utility.yul\":9198:9205   */\n  not\n    /* \"#utility.yul\":9193:9195   */\n  0x1f\n    /* \"#utility.yul\":9186:9191   */\n  dup4\n    /* \"#utility.yul\":9182:9196   */\n  add\n    /* \"#utility.yul\":9178:9206   */\n  and\n    /* \"#utility.yul\":9168:9206   */\n  swap1\n  pop\n    /* \"#utility.yul\":9110:9212   */\n  swap2\n  swap1\n  pop\n  jump\t// out\n    /* \"#utility.yul\":9218:9324   */\ntag_188:\n    /* \"#utility.yul\":9262:9270   */\n  0x00\n    /* \"#utility.yul\":9311:9316   */\n  dup2\n    /* \"#utility.yul\":9306:9309   */\n  0xe0\n    /* \"#utility.yul\":9302:9317   */\n  shr\n    /* \"#utility.yul\":9281:9317   */\n  swap1\n  pop\n    /* \"#utility.yul\":9218:9324   */\n  swap2\n  swap1\n  pop\n  jump\t// out\n    /* \"#utility.yul\":9330:9569   */\ntag_114:\n    /* \"#utility.yul\":9470:9504   */\n  0x455243313135353a207472616e7366657220746f206e6f6e2045524331313535\n    /* \"#utility.yul\":9466:9467   */\n  0x00\n    /* \"#utility.yul\":9458:9464   */\n  dup3\n    /* \"#utility.yul\":9454:9468   */\n  add\n    /* \"#utility.yul\":9447:9505   */\n  mstore\n    /* \"#utility.yul\":9539:9561   */\n  0x526563656976657220696d706c656d656e746572000000000000000000000000\n    /* \"#utility.yul\":9534:9536   */\n  0x20\n    /* \"#utility.yul\":9526:9532   */\n  dup3\n    /* \"#utility.yul\":9522:9537   */\n  add\n    /* \"#utility.yul\":9515:9562   */\n  mstore\n    /* \"#utility.yul\":9330:9569   */\n  pop\n  jump\t// out\n    /* \"#utility.yul\":9575:9802   */\ntag_119:\n    /* \"#utility.yul\":9715:9749   */\n  0x455243313135353a204552433131353552656365697665722072656a65637465\n    /* \"#utility.yul\":9711:9712   */\n  0x00\n    /* \"#utility.yul\":9703:9709   */\n  dup3\n    /* \"#utility.yul\":9699:9713   */\n  add\n    /* \"#utility.yul\":9692:9750   */\n  mstore\n    /* \"#utility.yul\":9784:9794   */\n  0x6420746f6b656e73000000000000000000000000000000000000000000000000\n    /* \"#utility.yul\":9779:9781   */\n  0x20\n    /* \"#utility.yul\":9771:9777   */\n  dup3\n    /* \"#utility.yul\":9767:9782   */\n  add\n    /* \"#utility.yul\":9760:9795   */\n  mstore\n    /* \"#utility.yul\":9575:9802   */\n  pop\n  jump\t// out\n    /* \"#utility.yul\":9808:10033   */\ntag_124:\n    /* \"#utility.yul\":9948:9982   */\n  0x746869732046756e6374696f6e206973206f6e6c792063616c6c656420627920\n    /* \"#utility.yul\":9944:9945   */\n  0x00\n    /* \"#utility.yul\":9936:9942   */\n  dup3\n    /* \"#utility.yul\":9932:9946   */\n  add\n    /* \"#utility.yul\":9925:9983   */\n  mstore\n    /* \"#utility.yul\":10017:10025   */\n  0x7365727665720000000000000000000000000000000000000000000000000000\n    /* \"#utility.yul\":10012:10014   */\n  0x20\n    /* \"#utility.yul\":10004:10010   */\n  dup3\n    /* \"#utility.yul\":10000:10015   */\n  add\n    /* \"#utility.yul\":9993:10026   */\n  mstore\n    /* \"#utility.yul\":9808:10033   */\n  pop\n  jump\t// out\n    /* \"#utility.yul\":10039:10259   */\ntag_129:\n    /* \"#utility.yul\":10179:10213   */\n  0x455243313135353a206d696e7420746f20746865207a65726f20616464726573\n    /* \"#utility.yul\":10175:10176   */\n  0x00\n    /* \"#utility.yul\":10167:10173   */\n  dup3\n    /* \"#utility.yul\":10163:10177   */\n  add\n    /* \"#utility.yul\":10156:10214   */\n  mstore\n    /* \"#utility.yul\":10248:10251   */\n  0x7300000000000000000000000000000000000000000000000000000000000000\n    /* \"#utility.yul\":10243:10245   */\n  0x20\n    /* \"#utility.yul\":10235:10241   */\n  dup3\n    /* \"#utility.yul\":10231:10246   */\n  add\n    /* \"#utility.yul\":10224:10252   */\n  mstore\n    /* \"#utility.yul\":10039:10259   */\n  pop\n  jump\t// out\n    /* \"#utility.yul\":10265:10976   */\ntag_67:\n    /* \"#utility.yul\":10304:10307   */\n  0x00\n    /* \"#utility.yul\":10342:10346   */\n  0x44\n    /* \"#utility.yul\":10324:10340   */\n  returndatasize\n    /* \"#utility.yul\":10321:10347   */\n  lt\n    /* \"#utility.yul\":10318:10357   */\n  iszero\n  tag_199\n  jumpi\n    /* \"#utility.yul\":10350:10355   */\n  jump(tag_198)\n    /* \"#utility.yul\":10318:10357   */\ntag_199:\n    /* \"#utility.yul\":10379:10399   */\n  tag_200\n  tag_153\n  jump\t// in\ntag_200:\n    /* \"#utility.yul\":10454:10455   */\n  0x04\n    /* \"#utility.yul\":10436:10452   */\n  returndatasize\n    /* \"#utility.yul\":10432:10456   */\n  sub\n    /* \"#utility.yul\":10429:10430   */\n  0x04\n    /* \"#utility.yul\":10423:10427   */\n  dup3\n    /* \"#utility.yul\":10408:10457   */\n  returndatacopy\n    /* \"#utility.yul\":10487:10491   */\n  dup1\n    /* \"#utility.yul\":10481:10492   */\n  mload\n    /* \"#utility.yul\":10586:10602   */\n  returndatasize\n    /* \"#utility.yul\":10579:10583   */\n  0x24\n    /* \"#utility.yul\":10571:10577   */\n  dup3\n    /* \"#utility.yul\":10567:10584   */\n  add\n    /* \"#utility.yul\":10564:10603   */\n  gt\n    /* \"#utility.yul\":10531:10549   */\n  0xffffffffffffffff\n    /* \"#utility.yul\":10523:10529   */\n  dup3\n    /* \"#utility.yul\":10520:10550   */\n  gt\n    /* \"#utility.yul\":10504:10617   */\n  or\n    /* \"#utility.yul\":10501:10647   */\n  iszero\n  tag_201\n  jumpi\n    /* \"#utility.yul\":10632:10637   */\n  pop\n  pop\n  jump(tag_198)\n    /* \"#utility.yul\":10501:10647   */\ntag_201:\n    /* \"#utility.yul\":10678:10684   */\n  dup1\n    /* \"#utility.yul\":10672:10676   */\n  dup3\n    /* \"#utility.yul\":10668:10685   */\n  add\n    /* \"#utility.yul\":10714:10717   */\n  dup1\n    /* \"#utility.yul\":10708:10718   */\n  mload\n    /* \"#utility.yul\":10741:10759   */\n  0xffffffffffffffff\n    /* \"#utility.yul\":10733:10739   */\n  dup2\n    /* \"#utility.yul\":10730:10760   */\n  gt\n    /* \"#utility.yul\":10727:10770   */\n  iszero\n  tag_202\n  jumpi\n    /* \"#utility.yul\":10763:10768   */\n  pop\n  pop\n  pop\n  pop\n  jump(tag_198)\n    /* \"#utility.yul\":10727:10770   */\ntag_202:\n    /* \"#utility.yul\":10811:10817   */\n  dup1\n    /* \"#utility.yul\":10804:10808   */\n  0x20\n    /* \"#utility.yul\":10799:10802   */\n  dup4\n    /* \"#utility.yul\":10795:10809   */\n  add\n    /* \"#utility.yul\":10791:10818   */\n  add\n    /* \"#utility.yul\":10870:10871   */\n  0x04\n    /* \"#utility.yul\":10852:10868   */\n  returndatasize\n    /* \"#utility.yul\":10848:10872   */\n  sub\n    /* \"#utility.yul\":10842:10846   */\n  dup6\n    /* \"#utility.yul\":10838:10873   */\n  add\n    /* \"#utility.yul\":10833:10836   */\n  dup2\n    /* \"#utility.yul\":10830:10874   */\n  gt\n    /* \"#utility.yul\":10827:10884   */\n  iszero\n  tag_203\n  jumpi\n    /* \"#utility.yul\":10877:10882   */\n  pop\n  pop\n  pop\n  pop\n  pop\n  jump(tag_198)\n    /* \"#utility.yul\":10827:10884   */\ntag_203:\n    /* \"#utility.yul\":10894:10951   */\n  tag_204\n    /* \"#utility.yul\":10942:10948   */\n  dup3\n    /* \"#utility.yul\":10936:10940   */\n  0x20\n    /* \"#utility.yul\":10932:10949   */\n  add\n    /* \"#utility.yul\":10924:10930   */\n  dup6\n    /* \"#utility.yul\":10920:10950   */\n  add\n    /* \"#utility.yul\":10914:10918   */\n  dup7\n    /* \"#utility.yul\":10894:10951   */\n  tag_177\n  jump\t// in\ntag_204:\n    /* \"#utility.yul\":10967:10970   */\n  dup3\n    /* \"#utility.yul\":10960:10970   */\n  swap6\n  pop\n    /* \"#utility.yul\":10308:10976   */\n  pop\n  pop\n  pop\n  pop\n  pop\n    /* \"#utility.yul\":10265:10976   */\ntag_198:\n  swap1\n  jump\t// out\n    /* \"#utility.yul\":10982:11102   */\ntag_82:\n    /* \"#utility.yul\":11054:11077   */\n  tag_206\n    /* \"#utility.yul\":11071:11076   */\n  dup2\n    /* \"#utility.yul\":11054:11077   */\n  tag_168\n  jump\t// in\ntag_206:\n    /* \"#utility.yul\":11047:11052   */\n  dup2\n    /* \"#utility.yul\":11044:11078   */\n  eq\n    /* \"#utility.yul\":11034:11096   */\n  tag_207\n  jumpi\n    /* \"#utility.yul\":11092:11093   */\n  0x00\n    /* \"#utility.yul\":11089:11090   */\n  dup1\n    /* \"#utility.yul\":11082:11094   */\n  revert\n    /* \"#utility.yul\":11034:11096   */\ntag_207:\n    /* \"#utility.yul\":10982:11102   */\n  pop\n  jump\t// out\n    /* \"contracts/Coupon.sol\":10124:13479  contract CouponMarket is ERC1155 {... */\ntag_11:\n  dataSize(sub_0)\n  dup1\n  dataOffset(sub_0)\n  0x00\n  codecopy\n  0x00\n  return\nstop\n\nsub_0: assembly {\n        /* \"contracts/Coupon.sol\":10124:13479  contract CouponMarket is ERC1155 {... */\n      mstore(0x40, 0x80)\n      jumpi(tag_1, lt(calldatasize, 0x04))\n      shr(0xe0, calldataload(0x00))\n      dup1\n      0x59bc9c29\n      gt\n      tag_12\n      jumpi\n      dup1\n      0x59bc9c29\n      eq\n      tag_7\n      jumpi\n      dup1\n      0x9bb7e310\n      eq\n      tag_8\n      jumpi\n      dup1\n      0xe9207304\n      eq\n      tag_9\n      jumpi\n      dup1\n      0xef3975fd\n      eq\n      tag_10\n      jumpi\n      dup1\n      0xf242432a\n      eq\n      tag_11\n      jumpi\n      jump(tag_1)\n    tag_12:\n      dup1\n      0xfdd58e\n      eq\n      tag_2\n      jumpi\n      dup1\n      0x22a22ec3\n      eq\n      tag_3\n      jumpi\n      dup1\n      0x242fd022\n      eq\n      tag_4\n      jumpi\n      dup1\n      0x3adaa53d\n      eq\n      tag_5\n      jumpi\n      dup1\n      0x57e87575\n      eq\n      tag_6\n      jumpi\n    tag_1:\n      0x00\n      dup1\n      revert\n        /* \"contracts/Coupon.sol\":2173:2461  function balanceOf(address account, uint256 id)... */\n    tag_2:\n      callvalue\n      dup1\n      iszero\n      tag_13\n      jumpi\n      0x00\n      dup1\n      revert\n    tag_13:\n      pop\n      tag_14\n      0x04\n      dup1\n      calldatasize\n      sub\n      dup2\n      add\n      swap1\n      tag_15\n      swap2\n      swap1\n      tag_16\n      jump\t// in\n    tag_15:\n      tag_17\n      jump\t// in\n    tag_14:\n      mload(0x40)\n      tag_18\n      swap2\n      swap1\n      tag_19\n      jump\t// in\n    tag_18:\n      mload(0x40)\n      dup1\n      swap2\n      sub\n      swap1\n      return\n        /* \"contracts/Coupon.sol\":12029:12354  function HowMuchKindsOfCoupons() public view returns (uint256) {... */\n    tag_3:\n      callvalue\n      dup1\n      iszero\n      tag_20\n      jumpi\n      0x00\n      dup1\n      revert\n    tag_20:\n      pop\n      tag_21\n      tag_22\n      jump\t// in\n    tag_21:\n      mload(0x40)\n      tag_23\n      swap2\n      swap1\n      tag_19\n      jump\t// in\n    tag_23:\n      mload(0x40)\n      dup1\n      swap2\n      sub\n      swap1\n      return\n        /* \"contracts/Coupon.sol\":12764:13343  function buyCoupon(... */\n    tag_4:\n      tag_24\n      0x04\n      dup1\n      calldatasize\n      sub\n      dup2\n      add\n      swap1\n      tag_25\n      swap2\n      swap1\n      tag_26\n      jump\t// in\n    tag_25:\n      tag_27\n      jump\t// in\n    tag_24:\n      mload(0x40)\n      tag_28\n      swap2\n      swap1\n      tag_29\n      jump\t// in\n    tag_28:\n      mload(0x40)\n      dup1\n      swap2\n      sub\n      swap1\n      return\n        /* \"contracts/Coupon.sol\":11512:12023  function AllStocks()... */\n    tag_5:\n      callvalue\n      dup1\n      iszero\n      tag_30\n      jumpi\n      0x00\n      dup1\n      revert\n    tag_30:\n      pop\n      tag_31\n      tag_32\n      jump\t// in\n    tag_31:\n      mload(0x40)\n      tag_33\n      swap3\n      swap2\n      swap1\n      tag_34\n      jump\t// in\n    tag_33:\n      mload(0x40)\n      dup1\n      swap2\n      sub\n      swap1\n      return\n        /* \"contracts/Coupon.sol\":10388:10799  function CouponMint(uint256 discount, uint256 amount) public {... */\n    tag_6:\n      callvalue\n      dup1\n      iszero\n      tag_35\n      jumpi\n      0x00\n      dup1\n      revert\n    tag_35:\n      pop\n      tag_36\n      0x04\n      dup1\n      calldatasize\n      sub\n      dup2\n      add\n      swap1\n      tag_37\n      swap2\n      swap1\n      tag_38\n      jump\t// in\n    tag_37:\n      tag_39\n      jump\t// in\n    tag_36:\n      stop\n        /* \"contracts/Coupon.sol\":11391:11506  function StocksByDiscount(uint256 discount) public view returns (uint256) {... */\n    tag_7:\n      callvalue\n      dup1\n      iszero\n      tag_40\n      jumpi\n      0x00\n      dup1\n      revert\n    tag_40:\n      pop\n      tag_41\n      0x04\n      dup1\n      calldatasize\n      sub\n      dup2\n      add\n      swap1\n      tag_42\n      swap2\n      swap1\n      tag_43\n      jump\t// in\n    tag_42:\n      tag_44\n      jump\t// in\n    tag_41:\n      mload(0x40)\n      tag_45\n      swap2\n      swap1\n      tag_19\n      jump\t// in\n    tag_45:\n      mload(0x40)\n      dup1\n      swap2\n      sub\n      swap1\n      return\n        /* \"contracts/Coupon.sol\":11047:11292  function setServerAddr(address addr) public returns (address) {... */\n    tag_8:\n      callvalue\n      dup1\n      iszero\n      tag_46\n      jumpi\n      0x00\n      dup1\n      revert\n    tag_46:\n      pop\n      tag_47\n      0x04\n      dup1\n      calldatasize\n      sub\n      dup2\n      add\n      swap1\n      tag_48\n      swap2\n      swap1\n      tag_49\n      jump\t// in\n    tag_48:\n      tag_50\n      jump\t// in\n    tag_47:\n      mload(0x40)\n      tag_51\n      swap2\n      swap1\n      tag_52\n      jump\t// in\n    tag_51:\n      mload(0x40)\n      dup1\n      swap2\n      sub\n      swap1\n      return\n        /* \"contracts/Coupon.sol\":11298:11385  function serverAddr() public view returns (address) {... */\n    tag_9:\n      callvalue\n      dup1\n      iszero\n      tag_53\n      jumpi\n      0x00\n      dup1\n      revert\n    tag_53:\n      pop\n      tag_54\n      tag_55\n      jump\t// in\n    tag_54:\n      mload(0x40)\n      tag_56\n      swap2\n      swap1\n      tag_52\n      jump\t// in\n    tag_56:\n      mload(0x40)\n      dup1\n      swap2\n      sub\n      swap1\n      return\n        /* \"contracts/Coupon.sol\":12360:12758  function KindsOfCoupons() public view returns (uint256[] memory) {... */\n    tag_10:\n      callvalue\n      dup1\n      iszero\n      tag_57\n      jumpi\n      0x00\n      dup1\n      revert\n    tag_57:\n      pop\n      tag_58\n      tag_59\n      jump\t// in\n    tag_58:\n      mload(0x40)\n      tag_60\n      swap2\n      swap1\n      tag_61\n      jump\t// in\n    tag_60:\n      mload(0x40)\n      dup1\n      swap2\n      sub\n      swap1\n      return\n        /* \"contracts/Coupon.sol\":2528:2903  function safeTransferFrom(... */\n    tag_11:\n      callvalue\n      dup1\n      iszero\n      tag_62\n      jumpi\n      0x00\n      dup1\n      revert\n    tag_62:\n      pop\n      tag_63\n      0x04\n      dup1\n      calldatasize\n      sub\n      dup2\n      add\n      swap1\n      tag_64\n      swap2\n      swap1\n      tag_65\n      jump\t// in\n    tag_64:\n      tag_66\n      jump\t// in\n    tag_63:\n      stop\n        /* \"contracts/Coupon.sol\":2173:2461  function balanceOf(address account, uint256 id)... */\n    tag_17:\n        /* \"contracts/Coupon.sol\":2282:2289  uint256 */\n      0x00\n        /* \"contracts/Coupon.sol\":2345:2346  0 */\n      dup1\n        /* \"contracts/Coupon.sol\":2326:2347  account != address(0) */\n      0xffffffffffffffffffffffffffffffffffffffff\n      and\n        /* \"contracts/Coupon.sol\":2326:2333  account */\n      dup4\n        /* \"contracts/Coupon.sol\":2326:2347  account != address(0) */\n      0xffffffffffffffffffffffffffffffffffffffff\n      and\n      eq\n      iszero\n        /* \"contracts/Coupon.sol\":2305:2415  require(... */\n      tag_68\n      jumpi\n      mload(0x40)\n      0x08c379a000000000000000000000000000000000000000000000000000000000\n      dup2\n      mstore\n      0x04\n      add\n      tag_69\n      swap1\n      tag_70\n      jump\t// in\n    tag_69:\n      mload(0x40)\n      dup1\n      swap2\n      sub\n      swap1\n      revert\n    tag_68:\n        /* \"contracts/Coupon.sol\":2432:2441  _balances */\n      0x00\n        /* \"contracts/Coupon.sol\":2432:2445  _balances[id] */\n      dup1\n        /* \"contracts/Coupon.sol\":2442:2444  id */\n      dup4\n        /* \"contracts/Coupon.sol\":2432:2445  _balances[id] */\n      dup2\n      mstore\n      0x20\n      add\n      swap1\n      dup2\n      mstore\n      0x20\n      add\n      0x00\n      keccak256\n        /* \"contracts/Coupon.sol\":2432:2454  _balances[id][account] */\n      0x00\n        /* \"contracts/Coupon.sol\":2446:2453  account */\n      dup5\n        /* \"contracts/Coupon.sol\":2432:2454  _balances[id][account] */\n      0xffffffffffffffffffffffffffffffffffffffff\n      and\n      0xffffffffffffffffffffffffffffffffffffffff\n      and\n      dup2\n      mstore\n      0x20\n      add\n      swap1\n      dup2\n      mstore\n      0x20\n      add\n      0x00\n      keccak256\n      sload\n        /* \"contracts/Coupon.sol\":2425:2454  return _balances[id][account] */\n      swap1\n      pop\n        /* \"contracts/Coupon.sol\":2173:2461  function balanceOf(address account, uint256 id)... */\n      swap3\n      swap2\n      pop\n      pop\n      jump\t// out\n        /* \"contracts/Coupon.sol\":12029:12354  function HowMuchKindsOfCoupons() public view returns (uint256) {... */\n    tag_22:\n        /* \"contracts/Coupon.sol\":12083:12090  uint256 */\n      0x00\n        /* \"contracts/Coupon.sol\":12102:12113  uint256 res */\n      dup1\n        /* \"contracts/Coupon.sol\":12116:12117  0 */\n      0x00\n        /* \"contracts/Coupon.sol\":12102:12117  uint256 res = 0 */\n      swap1\n      pop\n        /* \"contracts/Coupon.sol\":12132:12141  uint256 i */\n      0x00\n        /* \"contracts/Coupon.sol\":12127:12328  for (uint256 i = 0; i <= 100; i++) {... */\n    tag_72:\n        /* \"contracts/Coupon.sol\":12152:12155  100 */\n      0x64\n        /* \"contracts/Coupon.sol\":12147:12148  i */\n      dup2\n        /* \"contracts/Coupon.sol\":12147:12155  i <= 100 */\n      gt\n        /* \"contracts/Coupon.sol\":12127:12328  for (uint256 i = 0; i <= 100; i++) {... */\n      tag_73\n      jumpi\n        /* \"contracts/Coupon.sol\":12194:12195  0 */\n      0x00\n        /* \"contracts/Coupon.sol\":12180:12187  _amount */\n      0x03\n        /* \"contracts/Coupon.sol\":12180:12190  _amount[i] */\n      0x00\n        /* \"contracts/Coupon.sol\":12188:12189  i */\n      dup4\n        /* \"contracts/Coupon.sol\":12180:12190  _amount[i] */\n      dup2\n      mstore\n      0x20\n      add\n      swap1\n      dup2\n      mstore\n      0x20\n      add\n      0x00\n      keccak256\n      sload\n        /* \"contracts/Coupon.sol\":12180:12195  _amount[i] == 0 */\n      eq\n        /* \"contracts/Coupon.sol\":12176:12238  if (_amount[i] == 0) {... */\n      iszero\n      tag_75\n      jumpi\n        /* \"contracts/Coupon.sol\":12215:12223  continue */\n      jump(tag_74)\n        /* \"contracts/Coupon.sol\":12176:12238  if (_amount[i] == 0) {... */\n    tag_75:\n        /* \"contracts/Coupon.sol\":12269:12270  0 */\n      0x00\n        /* \"contracts/Coupon.sol\":12255:12262  _amount */\n      0x03\n        /* \"contracts/Coupon.sol\":12255:12265  _amount[i] */\n      0x00\n        /* \"contracts/Coupon.sol\":12263:12264  i */\n      dup4\n        /* \"contracts/Coupon.sol\":12255:12265  _amount[i] */\n      dup2\n      mstore\n      0x20\n      add\n      swap1\n      dup2\n      mstore\n      0x20\n      add\n      0x00\n      keccak256\n      sload\n        /* \"contracts/Coupon.sol\":12255:12270  _amount[i] != 0 */\n      eq\n        /* \"contracts/Coupon.sol\":12251:12318  if (_amount[i] != 0) {... */\n      tag_76\n      jumpi\n        /* \"contracts/Coupon.sol\":12302:12303  1 */\n      0x01\n        /* \"contracts/Coupon.sol\":12296:12299  res */\n      dup3\n        /* \"contracts/Coupon.sol\":12296:12303  res + 1 */\n      tag_77\n      swap2\n      swap1\n      tag_78\n      jump\t// in\n    tag_77:\n        /* \"contracts/Coupon.sol\":12290:12303  res = res + 1 */\n      swap2\n      pop\n        /* \"contracts/Coupon.sol\":12251:12318  if (_amount[i] != 0) {... */\n    tag_76:\n        /* \"contracts/Coupon.sol\":12127:12328  for (uint256 i = 0; i <= 100; i++) {... */\n    tag_74:\n        /* \"contracts/Coupon.sol\":12157:12160  i++ */\n      dup1\n      dup1\n      tag_79\n      swap1\n      tag_80\n      jump\t// in\n    tag_79:\n      swap2\n      pop\n      pop\n        /* \"contracts/Coupon.sol\":12127:12328  for (uint256 i = 0; i <= 100; i++) {... */\n      jump(tag_72)\n    tag_73:\n      pop\n        /* \"contracts/Coupon.sol\":12344:12347  res */\n      dup1\n        /* \"contracts/Coupon.sol\":12337:12347  return res */\n      swap2\n      pop\n      pop\n        /* \"contracts/Coupon.sol\":12029:12354  function HowMuchKindsOfCoupons() public view returns (uint256) {... */\n      swap1\n      jump\t// out\n        /* \"contracts/Coupon.sol\":12764:13343  function buyCoupon(... */\n    tag_27:\n        /* \"contracts/Coupon.sol\":12921:12925  bool */\n      0x00\n        /* \"contracts/Coupon.sol\":13079:13096  TokenContractAddr */\n      dup2\n        /* \"contracts/Coupon.sol\":13072:13116  others(TokenContractAddr).transferWithMarket */\n      0xffffffffffffffffffffffffffffffffffffffff\n      and\n      0xe12163d6\n        /* \"contracts/Coupon.sol\":13130:13140  msg.sender */\n      caller\n        /* \"contracts/Coupon.sol\":13154:13165  _serverAddr */\n      0x02\n      0x00\n      swap1\n      sload\n      swap1\n      0x0100\n      exp\n      swap1\n      div\n      0xffffffffffffffffffffffffffffffffffffffff\n      and\n        /* \"contracts/Coupon.sol\":13179:13184  price */\n      dup7\n        /* \"contracts/Coupon.sol\":13072:13194  others(TokenContractAddr).transferWithMarket(... */\n      mload(0x40)\n      dup5\n      0xffffffff\n      and\n      0xe0\n      shl\n      dup2\n      mstore\n      0x04\n      add\n      tag_82\n      swap4\n      swap3\n      swap2\n      swap1\n      tag_83\n      jump\t// in\n    tag_82:\n      0x20\n      mload(0x40)\n      dup1\n      dup4\n      sub\n      dup2\n      0x00\n      dup8\n      dup1\n      extcodesize\n      iszero\n      dup1\n      iszero\n      tag_84\n      jumpi\n      0x00\n      dup1\n      revert\n    tag_84:\n      pop\n      gas\n      call\n      iszero\n      dup1\n      iszero\n      tag_86\n      jumpi\n      returndatasize\n      0x00\n      dup1\n      returndatacopy\n      revert(0x00, returndatasize)\n    tag_86:\n      pop\n      pop\n      pop\n      pop\n      mload(0x40)\n      returndatasize\n      not(0x1f)\n      0x1f\n      dup3\n      add\n      and\n      dup3\n      add\n      dup1\n      0x40\n      mstore\n      pop\n      dup2\n      add\n      swap1\n      tag_87\n      swap2\n      swap1\n      tag_88\n      jump\t// in\n    tag_87:\n      pop\n        /* \"contracts/Coupon.sol\":13205:13274  safeTransferFrom(address(this), msg.sender, discount, amount, \"0x00\") */\n      tag_89\n        /* \"contracts/Coupon.sol\":13230:13234  this */\n      address\n        /* \"contracts/Coupon.sol\":13237:13247  msg.sender */\n      caller\n        /* \"contracts/Coupon.sol\":13249:13257  discount */\n      dup8\n        /* \"contracts/Coupon.sol\":13259:13265  amount */\n      dup8\n        /* \"contracts/Coupon.sol\":13205:13274  safeTransferFrom(address(this), msg.sender, discount, amount, \"0x00\") */\n      mload(0x40)\n      dup1\n      0x40\n      add\n      0x40\n      mstore\n      dup1\n      0x04\n      dup2\n      mstore\n      0x20\n      add\n      0x3078303000000000000000000000000000000000000000000000000000000000\n      dup2\n      mstore\n      pop\n        /* \"contracts/Coupon.sol\":13205:13221  safeTransferFrom */\n      tag_66\n        /* \"contracts/Coupon.sol\":13205:13274  safeTransferFrom(address(this), msg.sender, discount, amount, \"0x00\") */\n      jump\t// in\n    tag_89:\n        /* \"contracts/Coupon.sol\":13284:13315  _reduceAmount(discount, amount) */\n      tag_90\n        /* \"contracts/Coupon.sol\":13298:13306  discount */\n      dup6\n        /* \"contracts/Coupon.sol\":13308:13314  amount */\n      dup6\n        /* \"contracts/Coupon.sol\":13284:13297  _reduceAmount */\n      tag_91\n        /* \"contracts/Coupon.sol\":13284:13315  _reduceAmount(discount, amount) */\n      jump\t// in\n    tag_90:\n        /* \"contracts/Coupon.sol\":13332:13336  true */\n      0x01\n        /* \"contracts/Coupon.sol\":13325:13336  return true */\n      swap1\n      pop\n        /* \"contracts/Coupon.sol\":12764:13343  function buyCoupon(... */\n      swap5\n      swap4\n      pop\n      pop\n      pop\n      pop\n      jump\t// out\n        /* \"contracts/Coupon.sol\":11512:12023  function AllStocks()... */\n    tag_32:\n        /* \"contracts/Coupon.sol\":11578:11594  uint256[] memory */\n      0x60\n        /* \"contracts/Coupon.sol\":11596:11612  uint256[] memory */\n      dup1\n        /* \"contracts/Coupon.sol\":11628:11643  uint256 balance */\n      0x00\n        /* \"contracts/Coupon.sol\":11646:11669  HowMuchKindsOfCoupons() */\n      tag_93\n        /* \"contracts/Coupon.sol\":11646:11667  HowMuchKindsOfCoupons */\n      tag_22\n        /* \"contracts/Coupon.sol\":11646:11669  HowMuchKindsOfCoupons() */\n      jump\t// in\n    tag_93:\n        /* \"contracts/Coupon.sol\":11628:11669  uint256 balance = HowMuchKindsOfCoupons() */\n      swap1\n      pop\n        /* \"contracts/Coupon.sol\":11679:11700  uint256[] memory keys */\n      0x00\n        /* \"contracts/Coupon.sol\":11703:11719  KindsOfCoupons() */\n      tag_94\n        /* \"contracts/Coupon.sol\":11703:11717  KindsOfCoupons */\n      tag_59\n        /* \"contracts/Coupon.sol\":11703:11719  KindsOfCoupons() */\n      jump\t// in\n    tag_94:\n        /* \"contracts/Coupon.sol\":11679:11719  uint256[] memory keys = KindsOfCoupons() */\n      swap1\n      pop\n        /* \"contracts/Coupon.sol\":11729:11755  uint256[] memory discounts */\n      0x00\n        /* \"contracts/Coupon.sol\":11772:11779  balance */\n      dup3\n        /* \"contracts/Coupon.sol\":11758:11780  new uint256[](balance) */\n      0xffffffffffffffff\n      dup2\n      gt\n      iszero\n      tag_95\n      jumpi\n      tag_96\n      tag_97\n      jump\t// in\n    tag_96:\n    tag_95:\n      mload(0x40)\n      swap1\n      dup1\n      dup3\n      mstore\n      dup1\n      0x20\n      mul\n      0x20\n      add\n      dup3\n      add\n      0x40\n      mstore\n      dup1\n      iszero\n      tag_98\n      jumpi\n      dup2\n      0x20\n      add\n      0x20\n      dup3\n      mul\n      dup1\n      calldatasize\n      dup4\n      calldatacopy\n      dup1\n      dup3\n      add\n      swap2\n      pop\n      pop\n      swap1\n      pop\n    tag_98:\n      pop\n        /* \"contracts/Coupon.sol\":11729:11780  uint256[] memory discounts = new uint256[](balance) */\n      swap1\n      pop\n        /* \"contracts/Coupon.sol\":11790:11815  uint256[] memory balances */\n      0x00\n        /* \"contracts/Coupon.sol\":11832:11839  balance */\n      dup4\n        /* \"contracts/Coupon.sol\":11818:11840  new uint256[](balance) */\n      0xffffffffffffffff\n      dup2\n      gt\n      iszero\n      tag_99\n      jumpi\n      tag_100\n      tag_97\n      jump\t// in\n    tag_100:\n    tag_99:\n      mload(0x40)\n      swap1\n      dup1\n      dup3\n      mstore\n      dup1\n      0x20\n      mul\n      0x20\n      add\n      dup3\n      add\n      0x40\n      mstore\n      dup1\n      iszero\n      tag_101\n      jumpi\n      dup2\n      0x20\n      add\n      0x20\n      dup3\n      mul\n      dup1\n      calldatasize\n      dup4\n      calldatacopy\n      dup1\n      dup3\n      add\n      swap2\n      pop\n      pop\n      swap1\n      pop\n    tag_101:\n      pop\n        /* \"contracts/Coupon.sol\":11790:11840  uint256[] memory balances = new uint256[](balance) */\n      swap1\n      pop\n        /* \"contracts/Coupon.sol\":11855:11864  uint256 i */\n      0x00\n        /* \"contracts/Coupon.sol\":11850:11979  for (uint256 i = 0; i < balance; i++) {... */\n    tag_102:\n        /* \"contracts/Coupon.sol\":11874:11881  balance */\n      dup5\n        /* \"contracts/Coupon.sol\":11870:11871  i */\n      dup2\n        /* \"contracts/Coupon.sol\":11870:11881  i < balance */\n      lt\n        /* \"contracts/Coupon.sol\":11850:11979  for (uint256 i = 0; i < balance; i++) {... */\n      iszero\n      tag_103\n      jumpi\n        /* \"contracts/Coupon.sol\":11917:11921  keys */\n      dup4\n        /* \"contracts/Coupon.sol\":11922:11923  i */\n      dup2\n        /* \"contracts/Coupon.sol\":11917:11924  keys[i] */\n      dup2\n      mload\n      dup2\n      lt\n      tag_105\n      jumpi\n      tag_106\n      tag_107\n      jump\t// in\n    tag_106:\n    tag_105:\n      0x20\n      mul\n      0x20\n      add\n      add\n      mload\n        /* \"contracts/Coupon.sol\":11902:11911  discounts */\n      dup4\n        /* \"contracts/Coupon.sol\":11912:11913  i */\n      dup3\n        /* \"contracts/Coupon.sol\":11902:11914  discounts[i] */\n      dup2\n      mload\n      dup2\n      lt\n      tag_108\n      jumpi\n      tag_109\n      tag_107\n      jump\t// in\n    tag_109:\n    tag_108:\n      0x20\n      mul\n      0x20\n      add\n      add\n        /* \"contracts/Coupon.sol\":11902:11924  discounts[i] = keys[i] */\n      dup2\n      dup2\n      mstore\n      pop\n      pop\n        /* \"contracts/Coupon.sol\":11952:11959  _amount */\n      0x03\n        /* \"contracts/Coupon.sol\":11952:11968  _amount[keys[i]] */\n      0x00\n        /* \"contracts/Coupon.sol\":11960:11964  keys */\n      dup6\n        /* \"contracts/Coupon.sol\":11965:11966  i */\n      dup4\n        /* \"contracts/Coupon.sol\":11960:11967  keys[i] */\n      dup2\n      mload\n      dup2\n      lt\n      tag_110\n      jumpi\n      tag_111\n      tag_107\n      jump\t// in\n    tag_111:\n    tag_110:\n      0x20\n      mul\n      0x20\n      add\n      add\n      mload\n        /* \"contracts/Coupon.sol\":11952:11968  _amount[keys[i]] */\n      dup2\n      mstore\n      0x20\n      add\n      swap1\n      dup2\n      mstore\n      0x20\n      add\n      0x00\n      keccak256\n      sload\n        /* \"contracts/Coupon.sol\":11938:11946  balances */\n      dup3\n        /* \"contracts/Coupon.sol\":11947:11948  i */\n      dup3\n        /* \"contracts/Coupon.sol\":11938:11949  balances[i] */\n      dup2\n      mload\n      dup2\n      lt\n      tag_112\n      jumpi\n      tag_113\n      tag_107\n      jump\t// in\n    tag_113:\n    tag_112:\n      0x20\n      mul\n      0x20\n      add\n      add\n        /* \"contracts/Coupon.sol\":11938:11968  balances[i] = _amount[keys[i]] */\n      dup2\n      dup2\n      mstore\n      pop\n      pop\n        /* \"contracts/Coupon.sol\":11883:11886  i++ */\n      dup1\n      dup1\n      tag_114\n      swap1\n      tag_80\n      jump\t// in\n    tag_114:\n      swap2\n      pop\n      pop\n        /* \"contracts/Coupon.sol\":11850:11979  for (uint256 i = 0; i < balance; i++) {... */\n      jump(tag_102)\n    tag_103:\n      pop\n        /* \"contracts/Coupon.sol\":11996:12005  discounts */\n      dup2\n        /* \"contracts/Coupon.sol\":12007:12015  balances */\n      dup2\n        /* \"contracts/Coupon.sol\":11988:12016  return (discounts, balances) */\n      swap6\n      pop\n      swap6\n      pop\n      pop\n      pop\n      pop\n      pop\n        /* \"contracts/Coupon.sol\":11512:12023  function AllStocks()... */\n      swap1\n      swap2\n      jump\t// out\n        /* \"contracts/Coupon.sol\":10388:10799  function CouponMint(uint256 discount, uint256 amount) public {... */\n    tag_39:\n        /* \"contracts/Coupon.sol\":10495:10506  _serverAddr */\n      0x02\n      0x00\n      swap1\n      sload\n      swap1\n      0x0100\n      exp\n      swap1\n      div\n      0xffffffffffffffffffffffffffffffffffffffff\n      and\n        /* \"contracts/Coupon.sol\":10481:10506  msg.sender == _serverAddr */\n      0xffffffffffffffffffffffffffffffffffffffff\n      and\n        /* \"contracts/Coupon.sol\":10481:10491  msg.sender */\n      caller\n        /* \"contracts/Coupon.sol\":10481:10506  msg.sender == _serverAddr */\n      0xffffffffffffffffffffffffffffffffffffffff\n      and\n      eq\n        /* \"contracts/Coupon.sol\":10480:10540  (msg.sender == _serverAddr) || (msg.sender == address(this)) */\n      dup1\n      tag_116\n      jumpi\n      pop\n        /* \"contracts/Coupon.sol\":10534:10538  this */\n      address\n        /* \"contracts/Coupon.sol\":10512:10539  msg.sender == address(this) */\n      0xffffffffffffffffffffffffffffffffffffffff\n      and\n        /* \"contracts/Coupon.sol\":10512:10522  msg.sender */\n      caller\n        /* \"contracts/Coupon.sol\":10512:10539  msg.sender == address(this) */\n      0xffffffffffffffffffffffffffffffffffffffff\n      and\n      eq\n        /* \"contracts/Coupon.sol\":10480:10540  (msg.sender == _serverAddr) || (msg.sender == address(this)) */\n    tag_116:\n        /* \"contracts/Coupon.sol\":10459:10604  require(... */\n      tag_117\n      jumpi\n      mload(0x40)\n      0x08c379a000000000000000000000000000000000000000000000000000000000\n      dup2\n      mstore\n      0x04\n      add\n      tag_118\n      swap1\n      tag_119\n      jump\t// in\n    tag_118:\n      mload(0x40)\n      dup1\n      swap2\n      sub\n      swap1\n      revert\n    tag_117:\n        /* \"contracts/Coupon.sol\":10614:10656  _mint(address(this), discount, amount, \"\") */\n      tag_120\n        /* \"contracts/Coupon.sol\":10628:10632  this */\n      address\n        /* \"contracts/Coupon.sol\":10635:10643  discount */\n      dup4\n        /* \"contracts/Coupon.sol\":10645:10651  amount */\n      dup4\n        /* \"contracts/Coupon.sol\":10614:10656  _mint(address(this), discount, amount, \"\") */\n      mload(0x40)\n      dup1\n      0x20\n      add\n      0x40\n      mstore\n      dup1\n      0x00\n      dup2\n      mstore\n      pop\n        /* \"contracts/Coupon.sol\":10614:10619  _mint */\n      tag_121\n        /* \"contracts/Coupon.sol\":10614:10656  _mint(address(this), discount, amount, \"\") */\n      jump\t// in\n    tag_120:\n        /* \"contracts/Coupon.sol\":10706:10712  amount */\n      dup1\n        /* \"contracts/Coupon.sol\":10686:10693  _amount */\n      0x03\n        /* \"contracts/Coupon.sol\":10686:10703  _amount[discount] */\n      0x00\n        /* \"contracts/Coupon.sol\":10694:10702  discount */\n      dup5\n        /* \"contracts/Coupon.sol\":10686:10703  _amount[discount] */\n      dup2\n      mstore\n      0x20\n      add\n      swap1\n      dup2\n      mstore\n      0x20\n      add\n      0x00\n      keccak256\n      sload\n        /* \"contracts/Coupon.sol\":10686:10712  _amount[discount] + amount */\n      tag_122\n      swap2\n      swap1\n      tag_78\n      jump\t// in\n    tag_122:\n        /* \"contracts/Coupon.sol\":10666:10673  _amount */\n      0x03\n        /* \"contracts/Coupon.sol\":10666:10683  _amount[discount] */\n      0x00\n        /* \"contracts/Coupon.sol\":10674:10682  discount */\n      dup5\n        /* \"contracts/Coupon.sol\":10666:10683  _amount[discount] */\n      dup2\n      mstore\n      0x20\n      add\n      swap1\n      dup2\n      mstore\n      0x20\n      add\n      0x00\n      keccak256\n        /* \"contracts/Coupon.sol\":10666:10712  _amount[discount] = _amount[discount] + amount */\n      dup2\n      swap1\n      sstore\n      pop\n        /* \"contracts/Coupon.sol\":10388:10799  function CouponMint(uint256 discount, uint256 amount) public {... */\n      pop\n      pop\n      jump\t// out\n        /* \"contracts/Coupon.sol\":11391:11506  function StocksByDiscount(uint256 discount) public view returns (uint256) {... */\n    tag_44:\n        /* \"contracts/Coupon.sol\":11456:11463  uint256 */\n      0x00\n        /* \"contracts/Coupon.sol\":11482:11489  _amount */\n      0x03\n        /* \"contracts/Coupon.sol\":11482:11499  _amount[discount] */\n      0x00\n        /* \"contracts/Coupon.sol\":11490:11498  discount */\n      dup4\n        /* \"contracts/Coupon.sol\":11482:11499  _amount[discount] */\n      dup2\n      mstore\n      0x20\n      add\n      swap1\n      dup2\n      mstore\n      0x20\n      add\n      0x00\n      keccak256\n      sload\n        /* \"contracts/Coupon.sol\":11475:11499  return _amount[discount] */\n      swap1\n      pop\n        /* \"contracts/Coupon.sol\":11391:11506  function StocksByDiscount(uint256 discount) public view returns (uint256) {... */\n      swap2\n      swap1\n      pop\n      jump\t// out\n        /* \"contracts/Coupon.sol\":11047:11292  function setServerAddr(address addr) public returns (address) {... */\n    tag_50:\n        /* \"contracts/Coupon.sol\":11100:11107  address */\n      0x00\n        /* \"contracts/Coupon.sol\":11154:11165  _serverAddr */\n      0x02\n      0x00\n      swap1\n      sload\n      swap1\n      0x0100\n      exp\n      swap1\n      div\n      0xffffffffffffffffffffffffffffffffffffffff\n      and\n        /* \"contracts/Coupon.sol\":11140:11165  msg.sender == _serverAddr */\n      0xffffffffffffffffffffffffffffffffffffffff\n      and\n        /* \"contracts/Coupon.sol\":11140:11150  msg.sender */\n      caller\n        /* \"contracts/Coupon.sol\":11140:11165  msg.sender == _serverAddr */\n      0xffffffffffffffffffffffffffffffffffffffff\n      and\n      eq\n        /* \"contracts/Coupon.sol\":11119:11229  require(... */\n      tag_125\n      jumpi\n      mload(0x40)\n      0x08c379a000000000000000000000000000000000000000000000000000000000\n      dup2\n      mstore\n      0x04\n      add\n      tag_126\n      swap1\n      tag_119\n      jump\t// in\n    tag_126:\n      mload(0x40)\n      dup1\n      swap2\n      sub\n      swap1\n      revert\n    tag_125:\n        /* \"contracts/Coupon.sol\":11253:11257  addr */\n      dup2\n        /* \"contracts/Coupon.sol\":11239:11250  _serverAddr */\n      0x02\n      0x00\n        /* \"contracts/Coupon.sol\":11239:11257  _serverAddr = addr */\n      0x0100\n      exp\n      dup2\n      sload\n      dup2\n      0xffffffffffffffffffffffffffffffffffffffff\n      mul\n      not\n      and\n      swap1\n      dup4\n      0xffffffffffffffffffffffffffffffffffffffff\n      and\n      mul\n      or\n      swap1\n      sstore\n      pop\n        /* \"contracts/Coupon.sol\":11274:11285  _serverAddr */\n      0x02\n      0x00\n      swap1\n      sload\n      swap1\n      0x0100\n      exp\n      swap1\n      div\n      0xffffffffffffffffffffffffffffffffffffffff\n      and\n        /* \"contracts/Coupon.sol\":11267:11285  return _serverAddr */\n      swap1\n      pop\n        /* \"contracts/Coupon.sol\":11047:11292  function setServerAddr(address addr) public returns (address) {... */\n      swap2\n      swap1\n      pop\n      jump\t// out\n        /* \"contracts/Coupon.sol\":11298:11385  function serverAddr() public view returns (address) {... */\n    tag_55:\n        /* \"contracts/Coupon.sol\":11341:11348  address */\n      0x00\n        /* \"contracts/Coupon.sol\":11367:11378  _serverAddr */\n      0x02\n      0x00\n      swap1\n      sload\n      swap1\n      0x0100\n      exp\n      swap1\n      div\n      0xffffffffffffffffffffffffffffffffffffffff\n      and\n        /* \"contracts/Coupon.sol\":11360:11378  return _serverAddr */\n      swap1\n      pop\n        /* \"contracts/Coupon.sol\":11298:11385  function serverAddr() public view returns (address) {... */\n      swap1\n      jump\t// out\n        /* \"contracts/Coupon.sol\":12360:12758  function KindsOfCoupons() public view returns (uint256[] memory) {... */\n    tag_59:\n        /* \"contracts/Coupon.sol\":12407:12423  uint256[] memory */\n      0x60\n        /* \"contracts/Coupon.sol\":12435:12450  uint256 balance */\n      0x00\n        /* \"contracts/Coupon.sol\":12453:12476  HowMuchKindsOfCoupons() */\n      tag_129\n        /* \"contracts/Coupon.sol\":12453:12474  HowMuchKindsOfCoupons */\n      tag_22\n        /* \"contracts/Coupon.sol\":12453:12476  HowMuchKindsOfCoupons() */\n      jump\t// in\n    tag_129:\n        /* \"contracts/Coupon.sol\":12435:12476  uint256 balance = HowMuchKindsOfCoupons() */\n      swap1\n      pop\n        /* \"contracts/Coupon.sol\":12486:12495  uint256 j */\n      0x00\n        /* \"contracts/Coupon.sol\":12509:12529  uint256[] memory res */\n      dup1\n        /* \"contracts/Coupon.sol\":12546:12553  balance */\n      dup3\n        /* \"contracts/Coupon.sol\":12532:12554  new uint256[](balance) */\n      0xffffffffffffffff\n      dup2\n      gt\n      iszero\n      tag_130\n      jumpi\n      tag_131\n      tag_97\n      jump\t// in\n    tag_131:\n    tag_130:\n      mload(0x40)\n      swap1\n      dup1\n      dup3\n      mstore\n      dup1\n      0x20\n      mul\n      0x20\n      add\n      dup3\n      add\n      0x40\n      mstore\n      dup1\n      iszero\n      tag_132\n      jumpi\n      dup2\n      0x20\n      add\n      0x20\n      dup3\n      mul\n      dup1\n      calldatasize\n      dup4\n      calldatacopy\n      dup1\n      dup3\n      add\n      swap2\n      pop\n      pop\n      swap1\n      pop\n    tag_132:\n      pop\n        /* \"contracts/Coupon.sol\":12509:12554  uint256[] memory res = new uint256[](balance) */\n      swap1\n      pop\n        /* \"contracts/Coupon.sol\":12569:12578  uint256 i */\n      0x00\n        /* \"contracts/Coupon.sol\":12564:12732  for (uint256 i = 0; i <= 100; i++) {... */\n    tag_133:\n        /* \"contracts/Coupon.sol\":12589:12592  100 */\n      0x64\n        /* \"contracts/Coupon.sol\":12584:12585  i */\n      dup2\n        /* \"contracts/Coupon.sol\":12584:12592  i <= 100 */\n      gt\n        /* \"contracts/Coupon.sol\":12564:12732  for (uint256 i = 0; i <= 100; i++) {... */\n      tag_134\n      jumpi\n        /* \"contracts/Coupon.sol\":12631:12632  0 */\n      0x00\n        /* \"contracts/Coupon.sol\":12617:12624  _amount */\n      0x03\n        /* \"contracts/Coupon.sol\":12617:12627  _amount[i] */\n      0x00\n        /* \"contracts/Coupon.sol\":12625:12626  i */\n      dup4\n        /* \"contracts/Coupon.sol\":12617:12627  _amount[i] */\n      dup2\n      mstore\n      0x20\n      add\n      swap1\n      dup2\n      mstore\n      0x20\n      add\n      0x00\n      keccak256\n      sload\n        /* \"contracts/Coupon.sol\":12617:12632  _amount[i] == 0 */\n      eq\n        /* \"contracts/Coupon.sol\":12613:12675  if (_amount[i] == 0) {... */\n      iszero\n      tag_136\n      jumpi\n        /* \"contracts/Coupon.sol\":12652:12660  continue */\n      jump(tag_135)\n        /* \"contracts/Coupon.sol\":12613:12675  if (_amount[i] == 0) {... */\n    tag_136:\n        /* \"contracts/Coupon.sol\":12697:12698  i */\n      dup1\n        /* \"contracts/Coupon.sol\":12688:12691  res */\n      dup3\n        /* \"contracts/Coupon.sol\":12692:12693  j */\n      dup5\n        /* \"contracts/Coupon.sol\":12688:12694  res[j] */\n      dup2\n      mload\n      dup2\n      lt\n      tag_137\n      jumpi\n      tag_138\n      tag_107\n      jump\t// in\n    tag_138:\n    tag_137:\n      0x20\n      mul\n      0x20\n      add\n      add\n        /* \"contracts/Coupon.sol\":12688:12698  res[j] = i */\n      dup2\n      dup2\n      mstore\n      pop\n      pop\n        /* \"contracts/Coupon.sol\":12720:12721  1 */\n      0x01\n        /* \"contracts/Coupon.sol\":12716:12717  j */\n      dup4\n        /* \"contracts/Coupon.sol\":12716:12721  j + 1 */\n      tag_139\n      swap2\n      swap1\n      tag_78\n      jump\t// in\n    tag_139:\n        /* \"contracts/Coupon.sol\":12712:12721  j = j + 1 */\n      swap3\n      pop\n        /* \"contracts/Coupon.sol\":12564:12732  for (uint256 i = 0; i <= 100; i++) {... */\n    tag_135:\n        /* \"contracts/Coupon.sol\":12594:12597  i++ */\n      dup1\n      dup1\n      tag_140\n      swap1\n      tag_80\n      jump\t// in\n    tag_140:\n      swap2\n      pop\n      pop\n        /* \"contracts/Coupon.sol\":12564:12732  for (uint256 i = 0; i <= 100; i++) {... */\n      jump(tag_133)\n    tag_134:\n      pop\n        /* \"contracts/Coupon.sol\":12748:12751  res */\n      dup1\n        /* \"contracts/Coupon.sol\":12741:12751  return res */\n      swap4\n      pop\n      pop\n      pop\n      pop\n        /* \"contracts/Coupon.sol\":12360:12758  function KindsOfCoupons() public view returns (uint256[] memory) {... */\n      swap1\n      jump\t// out\n        /* \"contracts/Coupon.sol\":2528:2903  function safeTransferFrom(... */\n    tag_66:\n        /* \"contracts/Coupon.sol\":2728:2740  _msgSender() */\n      tag_142\n        /* \"contracts/Coupon.sol\":2728:2738  _msgSender */\n      tag_143\n        /* \"contracts/Coupon.sol\":2728:2740  _msgSender() */\n      jump\t// in\n    tag_142:\n        /* \"contracts/Coupon.sol\":2720:2740  from == _msgSender() */\n      0xffffffffffffffffffffffffffffffffffffffff\n      and\n        /* \"contracts/Coupon.sol\":2720:2724  from */\n      dup6\n        /* \"contracts/Coupon.sol\":2720:2740  from == _msgSender() */\n      0xffffffffffffffffffffffffffffffffffffffff\n      and\n      eq\n        /* \"contracts/Coupon.sol\":2719:2768  (from == _msgSender()) || (from == address(this)) */\n      dup1\n      tag_144\n      jumpi\n      pop\n        /* \"contracts/Coupon.sol\":2762:2766  this */\n      address\n        /* \"contracts/Coupon.sol\":2746:2767  from == address(this) */\n      0xffffffffffffffffffffffffffffffffffffffff\n      and\n        /* \"contracts/Coupon.sol\":2746:2750  from */\n      dup6\n        /* \"contracts/Coupon.sol\":2746:2767  from == address(this) */\n      0xffffffffffffffffffffffffffffffffffffffff\n      and\n      eq\n        /* \"contracts/Coupon.sol\":2719:2768  (from == _msgSender()) || (from == address(this)) */\n    tag_144:\n        /* \"contracts/Coupon.sol\":2698:2841  require(... */\n      tag_145\n      jumpi\n      mload(0x40)\n      0x08c379a000000000000000000000000000000000000000000000000000000000\n      dup2\n      mstore\n      0x04\n      add\n      tag_146\n      swap1\n      tag_147\n      jump\t// in\n    tag_146:\n      mload(0x40)\n      dup1\n      swap2\n      sub\n      swap1\n      revert\n    tag_145:\n        /* \"contracts/Coupon.sol\":2851:2896  _safeTransferFrom(from, to, id, amount, data) */\n      tag_148\n        /* \"contracts/Coupon.sol\":2869:2873  from */\n      dup6\n        /* \"contracts/Coupon.sol\":2875:2877  to */\n      dup6\n        /* \"contracts/Coupon.sol\":2879:2881  id */\n      dup6\n        /* \"contracts/Coupon.sol\":2883:2889  amount */\n      dup6\n        /* \"contracts/Coupon.sol\":2891:2895  data */\n      dup6\n        /* \"contracts/Coupon.sol\":2851:2868  _safeTransferFrom */\n      tag_149\n        /* \"contracts/Coupon.sol\":2851:2896  _safeTransferFrom(from, to, id, amount, data) */\n      jump\t// in\n    tag_148:\n        /* \"contracts/Coupon.sol\":2528:2903  function safeTransferFrom(... */\n      pop\n      pop\n      pop\n      pop\n      pop\n      jump\t// out\n        /* \"contracts/Coupon.sol\":13349:13477  function _reduceAmount(uint256 discount, uint256 amount) private {... */\n    tag_91:\n        /* \"contracts/Coupon.sol\":13464:13470  amount */\n      dup1\n        /* \"contracts/Coupon.sol\":13444:13451  _amount */\n      0x03\n        /* \"contracts/Coupon.sol\":13444:13461  _amount[discount] */\n      0x00\n        /* \"contracts/Coupon.sol\":13452:13460  discount */\n      dup5\n        /* \"contracts/Coupon.sol\":13444:13461  _amount[discount] */\n      dup2\n      mstore\n      0x20\n      add\n      swap1\n      dup2\n      mstore\n      0x20\n      add\n      0x00\n      keccak256\n      sload\n        /* \"contracts/Coupon.sol\":13444:13470  _amount[discount] - amount */\n      tag_151\n      swap2\n      swap1\n      tag_152\n      jump\t// in\n    tag_151:\n        /* \"contracts/Coupon.sol\":13424:13431  _amount */\n      0x03\n        /* \"contracts/Coupon.sol\":13424:13441  _amount[discount] */\n      0x00\n        /* \"contracts/Coupon.sol\":13432:13440  discount */\n      dup5\n        /* \"contracts/Coupon.sol\":13424:13441  _amount[discount] */\n      dup2\n      mstore\n      0x20\n      add\n      swap1\n      dup2\n      mstore\n      0x20\n      add\n      0x00\n      keccak256\n        /* \"contracts/Coupon.sol\":13424:13470  _amount[discount] = _amount[discount] - amount */\n      dup2\n      swap1\n      sstore\n      pop\n        /* \"contracts/Coupon.sol\":13349:13477  function _reduceAmount(uint256 discount, uint256 amount) private {... */\n      pop\n      pop\n      jump\t// out\n        /* \"contracts/Coupon.sol\":4707:5498  function _mint(... */\n    tag_121:\n        /* \"contracts/Coupon.sol\":4868:4869  0 */\n      0x00\n        /* \"contracts/Coupon.sol\":4854:4870  to != address(0) */\n      0xffffffffffffffffffffffffffffffffffffffff\n      and\n        /* \"contracts/Coupon.sol\":4854:4856  to */\n      dup5\n        /* \"contracts/Coupon.sol\":4854:4870  to != address(0) */\n      0xffffffffffffffffffffffffffffffffffffffff\n      and\n      eq\n      iszero\n        /* \"contracts/Coupon.sol\":4846:4908  require(to != address(0), \"ERC1155: mint to the zero address\") */\n      tag_154\n      jumpi\n      mload(0x40)\n      0x08c379a000000000000000000000000000000000000000000000000000000000\n      dup2\n      mstore\n      0x04\n      add\n      tag_155\n      swap1\n      tag_156\n      jump\t// in\n    tag_155:\n      mload(0x40)\n      dup1\n      swap2\n      sub\n      swap1\n      revert\n    tag_154:\n        /* \"contracts/Coupon.sol\":4919:4935  address operator */\n      0x00\n        /* \"contracts/Coupon.sol\":4938:4950  _msgSender() */\n      tag_157\n        /* \"contracts/Coupon.sol\":4938:4948  _msgSender */\n      tag_143\n        /* \"contracts/Coupon.sol\":4938:4950  _msgSender() */\n      jump\t// in\n    tag_157:\n        /* \"contracts/Coupon.sol\":4919:4950  address operator = _msgSender() */\n      swap1\n      pop\n        /* \"contracts/Coupon.sol\":4960:4980  uint256[] memory ids */\n      0x00\n        /* \"contracts/Coupon.sol\":4983:5004  _asSingletonArray(id) */\n      tag_158\n        /* \"contracts/Coupon.sol\":5001:5003  id */\n      dup6\n        /* \"contracts/Coupon.sol\":4983:5000  _asSingletonArray */\n      tag_159\n        /* \"contracts/Coupon.sol\":4983:5004  _asSingletonArray(id) */\n      jump\t// in\n    tag_158:\n        /* \"contracts/Coupon.sol\":4960:5004  uint256[] memory ids = _asSingletonArray(id) */\n      swap1\n      pop\n        /* \"contracts/Coupon.sol\":5014:5038  uint256[] memory amounts */\n      0x00\n        /* \"contracts/Coupon.sol\":5041:5066  _asSingletonArray(amount) */\n      tag_160\n        /* \"contracts/Coupon.sol\":5059:5065  amount */\n      dup6\n        /* \"contracts/Coupon.sol\":5041:5058  _asSingletonArray */\n      tag_159\n        /* \"contracts/Coupon.sol\":5041:5066  _asSingletonArray(amount) */\n      jump\t// in\n    tag_160:\n        /* \"contracts/Coupon.sol\":5014:5066  uint256[] memory amounts = _asSingletonArray(amount) */\n      swap1\n      pop\n        /* \"contracts/Coupon.sol\":5077:5143  _beforeTokenTransfer(operator, address(0), to, ids, amounts, data) */\n      tag_161\n        /* \"contracts/Coupon.sol\":5098:5106  operator */\n      dup4\n        /* \"contracts/Coupon.sol\":5116:5117  0 */\n      0x00\n        /* \"contracts/Coupon.sol\":5120:5122  to */\n      dup10\n        /* \"contracts/Coupon.sol\":5124:5127  ids */\n      dup6\n        /* \"contracts/Coupon.sol\":5129:5136  amounts */\n      dup6\n        /* \"contracts/Coupon.sol\":5138:5142  data */\n      dup10\n        /* \"contracts/Coupon.sol\":5077:5097  _beforeTokenTransfer */\n      tag_162\n        /* \"contracts/Coupon.sol\":5077:5143  _beforeTokenTransfer(operator, address(0), to, ids, amounts, data) */\n      jump\t// in\n    tag_161:\n        /* \"contracts/Coupon.sol\":5175:5181  amount */\n      dup5\n        /* \"contracts/Coupon.sol\":5154:5163  _balances */\n      0x00\n        /* \"contracts/Coupon.sol\":5154:5167  _balances[id] */\n      dup1\n        /* \"contracts/Coupon.sol\":5164:5166  id */\n      dup9\n        /* \"contracts/Coupon.sol\":5154:5167  _balances[id] */\n      dup2\n      mstore\n      0x20\n      add\n      swap1\n      dup2\n      mstore\n      0x20\n      add\n      0x00\n      keccak256\n        /* \"contracts/Coupon.sol\":5154:5171  _balances[id][to] */\n      0x00\n        /* \"contracts/Coupon.sol\":5168:5170  to */\n      dup10\n        /* \"contracts/Coupon.sol\":5154:5171  _balances[id][to] */\n      0xffffffffffffffffffffffffffffffffffffffff\n      and\n      0xffffffffffffffffffffffffffffffffffffffff\n      and\n      dup2\n      mstore\n      0x20\n      add\n      swap1\n      dup2\n      mstore\n      0x20\n      add\n      0x00\n      keccak256\n      0x00\n        /* \"contracts/Coupon.sol\":5154:5181  _balances[id][to] += amount */\n      dup3\n      dup3\n      sload\n      tag_163\n      swap2\n      swap1\n      tag_78\n      jump\t// in\n    tag_163:\n      swap3\n      pop\n      pop\n      dup2\n      swap1\n      sstore\n      pop\n        /* \"contracts/Coupon.sol\":5233:5235  to */\n      dup7\n        /* \"contracts/Coupon.sol\":5196:5248  TransferSingle(operator, address(0), to, id, amount) */\n      0xffffffffffffffffffffffffffffffffffffffff\n      and\n        /* \"contracts/Coupon.sol\":5229:5230  0 */\n      0x00\n        /* \"contracts/Coupon.sol\":5196:5248  TransferSingle(operator, address(0), to, id, amount) */\n      0xffffffffffffffffffffffffffffffffffffffff\n      and\n        /* \"contracts/Coupon.sol\":5211:5219  operator */\n      dup5\n        /* \"contracts/Coupon.sol\":5196:5248  TransferSingle(operator, address(0), to, id, amount) */\n      0xffffffffffffffffffffffffffffffffffffffff\n      and\n      0xc3d58168c5ae7397731d063d5bbf3d657854427343f4c083240f7aacaa2d0f62\n        /* \"contracts/Coupon.sol\":5237:5239  id */\n      dup10\n        /* \"contracts/Coupon.sol\":5241:5247  amount */\n      dup10\n        /* \"contracts/Coupon.sol\":5196:5248  TransferSingle(operator, address(0), to, id, amount) */\n      mload(0x40)\n      tag_164\n      swap3\n      swap2\n      swap1\n      tag_165\n      jump\t// in\n    tag_164:\n      mload(0x40)\n      dup1\n      swap2\n      sub\n      swap1\n      log4\n        /* \"contracts/Coupon.sol\":5259:5324  _afterTokenTransfer(operator, address(0), to, ids, amounts, data) */\n      tag_166\n        /* \"contracts/Coupon.sol\":5279:5287  operator */\n      dup4\n        /* \"contracts/Coupon.sol\":5297:5298  0 */\n      0x00\n        /* \"contracts/Coupon.sol\":5301:5303  to */\n      dup10\n        /* \"contracts/Coupon.sol\":5305:5308  ids */\n      dup6\n        /* \"contracts/Coupon.sol\":5310:5317  amounts */\n      dup6\n        /* \"contracts/Coupon.sol\":5319:5323  data */\n      dup10\n        /* \"contracts/Coupon.sol\":5259:5278  _afterTokenTransfer */\n      tag_167\n        /* \"contracts/Coupon.sol\":5259:5324  _afterTokenTransfer(operator, address(0), to, ids, amounts, data) */\n      jump\t// in\n    tag_166:\n        /* \"contracts/Coupon.sol\":5335:5491  _doSafeTransferAcceptanceCheck(... */\n      tag_168\n        /* \"contracts/Coupon.sol\":5379:5387  operator */\n      dup4\n        /* \"contracts/Coupon.sol\":5409:5410  0 */\n      0x00\n        /* \"contracts/Coupon.sol\":5425:5427  to */\n      dup10\n        /* \"contracts/Coupon.sol\":5441:5443  id */\n      dup10\n        /* \"contracts/Coupon.sol\":5457:5463  amount */\n      dup10\n        /* \"contracts/Coupon.sol\":5477:5481  data */\n      dup10\n        /* \"contracts/Coupon.sol\":5335:5365  _doSafeTransferAcceptanceCheck */\n      tag_169\n        /* \"contracts/Coupon.sol\":5335:5491  _doSafeTransferAcceptanceCheck(... */\n      jump\t// in\n    tag_168:\n        /* \"contracts/Coupon.sol\":4836:5498  {... */\n      pop\n      pop\n      pop\n        /* \"contracts/Coupon.sol\":4707:5498  function _mint(... */\n      pop\n      pop\n      pop\n      pop\n      jump\t// out\n        /* \"contracts/Coupon.sol\":1944:2031  function _msgSender() private view returns (address) {... */\n    tag_143:\n        /* \"contracts/Coupon.sol\":1988:1995  address */\n      0x00\n        /* \"contracts/Coupon.sol\":2014:2024  msg.sender */\n      caller\n        /* \"contracts/Coupon.sol\":2007:2024  return msg.sender */\n      swap1\n      pop\n        /* \"contracts/Coupon.sol\":1944:2031  function _msgSender() private view returns (address) {... */\n      swap1\n      jump\t// out\n        /* \"contracts/Coupon.sol\":3353:4334  function _safeTransferFrom(... */\n    tag_149:\n        /* \"contracts/Coupon.sol\":3548:3549  0 */\n      0x00\n        /* \"contracts/Coupon.sol\":3534:3550  to != address(0) */\n      0xffffffffffffffffffffffffffffffffffffffff\n      and\n        /* \"contracts/Coupon.sol\":3534:3536  to */\n      dup5\n        /* \"contracts/Coupon.sol\":3534:3550  to != address(0) */\n      0xffffffffffffffffffffffffffffffffffffffff\n      and\n      eq\n      iszero\n        /* \"contracts/Coupon.sol\":3526:3592  require(to != address(0), \"ERC1155: transfer to the zero address\") */\n      tag_172\n      jumpi\n      mload(0x40)\n      0x08c379a000000000000000000000000000000000000000000000000000000000\n      dup2\n      mstore\n      0x04\n      add\n      tag_173\n      swap1\n      tag_174\n      jump\t// in\n    tag_173:\n      mload(0x40)\n      dup1\n      swap2\n      sub\n      swap1\n      revert\n    tag_172:\n        /* \"contracts/Coupon.sol\":3603:3619  address operator */\n      0x00\n        /* \"contracts/Coupon.sol\":3622:3634  _msgSender() */\n      tag_175\n        /* \"contracts/Coupon.sol\":3622:3632  _msgSender */\n      tag_143\n        /* \"contracts/Coupon.sol\":3622:3634  _msgSender() */\n      jump\t// in\n    tag_175:\n        /* \"contracts/Coupon.sol\":3603:3634  address operator = _msgSender() */\n      swap1\n      pop\n        /* \"contracts/Coupon.sol\":3644:3664  uint256[] memory ids */\n      0x00\n        /* \"contracts/Coupon.sol\":3667:3688  _asSingletonArray(id) */\n      tag_176\n        /* \"contracts/Coupon.sol\":3685:3687  id */\n      dup6\n        /* \"contracts/Coupon.sol\":3667:3684  _asSingletonArray */\n      tag_159\n        /* \"contracts/Coupon.sol\":3667:3688  _asSingletonArray(id) */\n      jump\t// in\n    tag_176:\n        /* \"contracts/Coupon.sol\":3644:3688  uint256[] memory ids = _asSingletonArray(id) */\n      swap1\n      pop\n        /* \"contracts/Coupon.sol\":3698:3722  uint256[] memory amounts */\n      0x00\n        /* \"contracts/Coupon.sol\":3725:3750  _asSingletonArray(amount) */\n      tag_177\n        /* \"contracts/Coupon.sol\":3743:3749  amount */\n      dup6\n        /* \"contracts/Coupon.sol\":3725:3742  _asSingletonArray */\n      tag_159\n        /* \"contracts/Coupon.sol\":3725:3750  _asSingletonArray(amount) */\n      jump\t// in\n    tag_177:\n        /* \"contracts/Coupon.sol\":3698:3750  uint256[] memory amounts = _asSingletonArray(amount) */\n      swap1\n      pop\n        /* \"contracts/Coupon.sol\":3761:3821  _beforeTokenTransfer(operator, from, to, ids, amounts, data) */\n      tag_178\n        /* \"contracts/Coupon.sol\":3782:3790  operator */\n      dup4\n        /* \"contracts/Coupon.sol\":3792:3796  from */\n      dup10\n        /* \"contracts/Coupon.sol\":3798:3800  to */\n      dup10\n        /* \"contracts/Coupon.sol\":3802:3805  ids */\n      dup6\n        /* \"contracts/Coupon.sol\":3807:3814  amounts */\n      dup6\n        /* \"contracts/Coupon.sol\":3816:3820  data */\n      dup10\n        /* \"contracts/Coupon.sol\":3761:3781  _beforeTokenTransfer */\n      tag_162\n        /* \"contracts/Coupon.sol\":3761:3821  _beforeTokenTransfer(operator, from, to, ids, amounts, data) */\n      jump\t// in\n    tag_178:\n        /* \"contracts/Coupon.sol\":3832:3851  uint256 fromBalance */\n      0x00\n        /* \"contracts/Coupon.sol\":3854:3863  _balances */\n      dup1\n        /* \"contracts/Coupon.sol\":3854:3867  _balances[id] */\n      0x00\n        /* \"contracts/Coupon.sol\":3864:3866  id */\n      dup9\n        /* \"contracts/Coupon.sol\":3854:3867  _balances[id] */\n      dup2\n      mstore\n      0x20\n      add\n      swap1\n      dup2\n      mstore\n      0x20\n      add\n      0x00\n      keccak256\n        /* \"contracts/Coupon.sol\":3854:3873  _balances[id][from] */\n      0x00\n        /* \"contracts/Coupon.sol\":3868:3872  from */\n      dup11\n        /* \"contracts/Coupon.sol\":3854:3873  _balances[id][from] */\n      0xffffffffffffffffffffffffffffffffffffffff\n      and\n      0xffffffffffffffffffffffffffffffffffffffff\n      and\n      dup2\n      mstore\n      0x20\n      add\n      swap1\n      dup2\n      mstore\n      0x20\n      add\n      0x00\n      keccak256\n      sload\n        /* \"contracts/Coupon.sol\":3832:3873  uint256 fromBalance = _balances[id][from] */\n      swap1\n      pop\n        /* \"contracts/Coupon.sol\":3919:3925  amount */\n      dup6\n        /* \"contracts/Coupon.sol\":3904:3915  fromBalance */\n      dup2\n        /* \"contracts/Coupon.sol\":3904:3925  fromBalance >= amount */\n      lt\n      iszero\n        /* \"contracts/Coupon.sol\":3883:3993  require(... */\n      tag_179\n      jumpi\n      mload(0x40)\n      0x08c379a000000000000000000000000000000000000000000000000000000000\n      dup2\n      mstore\n      0x04\n      add\n      tag_180\n      swap1\n      tag_181\n      jump\t// in\n    tag_180:\n      mload(0x40)\n      dup1\n      swap2\n      sub\n      swap1\n      revert\n    tag_179:\n        /* \"contracts/Coupon.sol\":4063:4069  amount */\n      dup6\n        /* \"contracts/Coupon.sol\":4049:4060  fromBalance */\n      dup2\n        /* \"contracts/Coupon.sol\":4049:4069  fromBalance - amount */\n      sub\n        /* \"contracts/Coupon.sol\":4027:4036  _balances */\n      0x00\n        /* \"contracts/Coupon.sol\":4027:4040  _balances[id] */\n      dup1\n        /* \"contracts/Coupon.sol\":4037:4039  id */\n      dup10\n        /* \"contracts/Coupon.sol\":4027:4040  _balances[id] */\n      dup2\n      mstore\n      0x20\n      add\n      swap1\n      dup2\n      mstore\n      0x20\n      add\n      0x00\n      keccak256\n        /* \"contracts/Coupon.sol\":4027:4046  _balances[id][from] */\n      0x00\n        /* \"contracts/Coupon.sol\":4041:4045  from */\n      dup12\n        /* \"contracts/Coupon.sol\":4027:4046  _balances[id][from] */\n      0xffffffffffffffffffffffffffffffffffffffff\n      and\n      0xffffffffffffffffffffffffffffffffffffffff\n      and\n      dup2\n      mstore\n      0x20\n      add\n      swap1\n      dup2\n      mstore\n      0x20\n      add\n      0x00\n      keccak256\n        /* \"contracts/Coupon.sol\":4027:4069  _balances[id][from] = fromBalance - amount */\n      dup2\n      swap1\n      sstore\n      pop\n        /* \"contracts/Coupon.sol\":4110:4116  amount */\n      dup6\n        /* \"contracts/Coupon.sol\":4089:4098  _balances */\n      0x00\n        /* \"contracts/Coupon.sol\":4089:4102  _balances[id] */\n      dup1\n        /* \"contracts/Coupon.sol\":4099:4101  id */\n      dup10\n        /* \"contracts/Coupon.sol\":4089:4102  _balances[id] */\n      dup2\n      mstore\n      0x20\n      add\n      swap1\n      dup2\n      mstore\n      0x20\n      add\n      0x00\n      keccak256\n        /* \"contracts/Coupon.sol\":4089:4106  _balances[id][to] */\n      0x00\n        /* \"contracts/Coupon.sol\":4103:4105  to */\n      dup11\n        /* \"contracts/Coupon.sol\":4089:4106  _balances[id][to] */\n      0xffffffffffffffffffffffffffffffffffffffff\n      and\n      0xffffffffffffffffffffffffffffffffffffffff\n      and\n      dup2\n      mstore\n      0x20\n      add\n      swap1\n      dup2\n      mstore\n      0x20\n      add\n      0x00\n      keccak256\n      0x00\n        /* \"contracts/Coupon.sol\":4089:4116  _balances[id][to] += amount */\n      dup3\n      dup3\n      sload\n      tag_182\n      swap2\n      swap1\n      tag_78\n      jump\t// in\n    tag_182:\n      swap3\n      pop\n      pop\n      dup2\n      swap1\n      sstore\n      pop\n        /* \"contracts/Coupon.sol\":4163:4165  to */\n      dup8\n        /* \"contracts/Coupon.sol\":4132:4178  TransferSingle(operator, from, to, id, amount) */\n      0xffffffffffffffffffffffffffffffffffffffff\n      and\n        /* \"contracts/Coupon.sol\":4157:4161  from */\n      dup10\n        /* \"contracts/Coupon.sol\":4132:4178  TransferSingle(operator, from, to, id, amount) */\n      0xffffffffffffffffffffffffffffffffffffffff\n      and\n        /* \"contracts/Coupon.sol\":4147:4155  operator */\n      dup6\n        /* \"contracts/Coupon.sol\":4132:4178  TransferSingle(operator, from, to, id, amount) */\n      0xffffffffffffffffffffffffffffffffffffffff\n      and\n      0xc3d58168c5ae7397731d063d5bbf3d657854427343f4c083240f7aacaa2d0f62\n        /* \"contracts/Coupon.sol\":4167:4169  id */\n      dup11\n        /* \"contracts/Coupon.sol\":4171:4177  amount */\n      dup11\n        /* \"contracts/Coupon.sol\":4132:4178  TransferSingle(operator, from, to, id, amount) */\n      mload(0x40)\n      tag_183\n      swap3\n      swap2\n      swap1\n      tag_165\n      jump\t// in\n    tag_183:\n      mload(0x40)\n      dup1\n      swap2\n      sub\n      swap1\n      log4\n        /* \"contracts/Coupon.sol\":4189:4248  _afterTokenTransfer(operator, from, to, ids, amounts, data) */\n      tag_184\n        /* \"contracts/Coupon.sol\":4209:4217  operator */\n      dup5\n        /* \"contracts/Coupon.sol\":4219:4223  from */\n      dup11\n        /* \"contracts/Coupon.sol\":4225:4227  to */\n      dup11\n        /* \"contracts/Coupon.sol\":4229:4232  ids */\n      dup7\n        /* \"contracts/Coupon.sol\":4234:4241  amounts */\n      dup7\n        /* \"contracts/Coupon.sol\":4243:4247  data */\n      dup11\n        /* \"contracts/Coupon.sol\":4189:4208  _afterTokenTransfer */\n      tag_167\n        /* \"contracts/Coupon.sol\":4189:4248  _afterTokenTransfer(operator, from, to, ids, amounts, data) */\n      jump\t// in\n    tag_184:\n        /* \"contracts/Coupon.sol\":4259:4327  _doSafeTransferAcceptanceCheck(operator, from, to, id, amount, data) */\n      tag_185\n        /* \"contracts/Coupon.sol\":4290:4298  operator */\n      dup5\n        /* \"contracts/Coupon.sol\":4300:4304  from */\n      dup11\n        /* \"contracts/Coupon.sol\":4306:4308  to */\n      dup11\n        /* \"contracts/Coupon.sol\":4310:4312  id */\n      dup11\n        /* \"contracts/Coupon.sol\":4314:4320  amount */\n      dup11\n        /* \"contracts/Coupon.sol\":4322:4326  data */\n      dup11\n        /* \"contracts/Coupon.sol\":4259:4289  _doSafeTransferAcceptanceCheck */\n      tag_169\n        /* \"contracts/Coupon.sol\":4259:4327  _doSafeTransferAcceptanceCheck(operator, from, to, id, amount, data) */\n      jump\t// in\n    tag_185:\n        /* \"contracts/Coupon.sol\":3516:4334  {... */\n      pop\n      pop\n      pop\n      pop\n        /* \"contracts/Coupon.sol\":3353:4334  function _safeTransferFrom(... */\n      pop\n      pop\n      pop\n      pop\n      pop\n      jump\t// out\n        /* \"contracts/Coupon.sol\":9748:9969  function _asSingletonArray(uint256 element)... */\n    tag_159:\n        /* \"contracts/Coupon.sol\":9838:9854  uint256[] memory */\n      0x60\n        /* \"contracts/Coupon.sol\":9870:9892  uint256[] memory array */\n      0x00\n        /* \"contracts/Coupon.sol\":9909:9910  1 */\n      0x01\n        /* \"contracts/Coupon.sol\":9895:9911  new uint256[](1) */\n      0xffffffffffffffff\n      dup2\n      gt\n      iszero\n      tag_187\n      jumpi\n      tag_188\n      tag_97\n      jump\t// in\n    tag_188:\n    tag_187:\n      mload(0x40)\n      swap1\n      dup1\n      dup3\n      mstore\n      dup1\n      0x20\n      mul\n      0x20\n      add\n      dup3\n      add\n      0x40\n      mstore\n      dup1\n      iszero\n      tag_189\n      jumpi\n      dup2\n      0x20\n      add\n      0x20\n      dup3\n      mul\n      dup1\n      calldatasize\n      dup4\n      calldatacopy\n      dup1\n      dup3\n      add\n      swap2\n      pop\n      pop\n      swap1\n      pop\n    tag_189:\n      pop\n        /* \"contracts/Coupon.sol\":9870:9911  uint256[] memory array = new uint256[](1) */\n      swap1\n      pop\n        /* \"contracts/Coupon.sol\":9932:9939  element */\n      dup3\n        /* \"contracts/Coupon.sol\":9921:9926  array */\n      dup2\n        /* \"contracts/Coupon.sol\":9927:9928  0 */\n      0x00\n        /* \"contracts/Coupon.sol\":9921:9929  array[0] */\n      dup2\n      mload\n      dup2\n      lt\n      tag_190\n      jumpi\n      tag_191\n      tag_107\n      jump\t// in\n    tag_191:\n    tag_190:\n      0x20\n      mul\n      0x20\n      add\n      add\n        /* \"contracts/Coupon.sol\":9921:9939  array[0] = element */\n      dup2\n      dup2\n      mstore\n      pop\n      pop\n        /* \"contracts/Coupon.sol\":9957:9962  array */\n      dup1\n        /* \"contracts/Coupon.sol\":9950:9962  return array */\n      swap2\n      pop\n      pop\n        /* \"contracts/Coupon.sol\":9748:9969  function _asSingletonArray(uint256 element)... */\n      swap2\n      swap1\n      pop\n      jump\t// out\n        /* \"contracts/Coupon.sol\":7506:7720  function _beforeTokenTransfer(... */\n    tag_162:\n      pop\n      pop\n      pop\n      pop\n      pop\n      pop\n      jump\t// out\n        /* \"contracts/Coupon.sol\":8653:8866  function _afterTokenTransfer(... */\n    tag_167:\n      pop\n      pop\n      pop\n      pop\n      pop\n      pop\n      jump\t// out\n        /* \"contracts/Coupon.sol\":8872:9742  function _doSafeTransferAcceptanceCheck(... */\n    tag_169:\n        /* \"contracts/Coupon.sol\":9079:9093  isContract(to) */\n      tag_195\n        /* \"contracts/Coupon.sol\":9090:9092  to */\n      dup5\n        /* \"contracts/Coupon.sol\":9079:9089  isContract */\n      tag_196\n        /* \"contracts/Coupon.sol\":9079:9093  isContract(to) */\n      jump\t// in\n    tag_195:\n        /* \"contracts/Coupon.sol\":9075:9736  if (isContract(to)) {... */\n      iszero\n      tag_197\n      jumpi\n        /* \"contracts/Coupon.sol\":9146:9148  to */\n      dup4\n        /* \"contracts/Coupon.sol\":9129:9167  IERC1155Receiver(to).onERC1155Received */\n      0xffffffffffffffffffffffffffffffffffffffff\n      and\n      0xf23a6e61\n        /* \"contracts/Coupon.sol\":9189:9197  operator */\n      dup8\n        /* \"contracts/Coupon.sol\":9219:9223  from */\n      dup8\n        /* \"contracts/Coupon.sol\":9245:9247  id */\n      dup7\n        /* \"contracts/Coupon.sol\":9269:9275  amount */\n      dup7\n        /* \"contracts/Coupon.sol\":9297:9301  data */\n      dup7\n        /* \"contracts/Coupon.sol\":9129:9319  IERC1155Receiver(to).onERC1155Received(... */\n      mload(0x40)\n      dup7\n      0xffffffff\n      and\n      0xe0\n      shl\n      dup2\n      mstore\n      0x04\n      add\n      tag_198\n      swap6\n      swap5\n      swap4\n      swap3\n      swap2\n      swap1\n      tag_199\n      jump\t// in\n    tag_198:\n      0x20\n      mload(0x40)\n      dup1\n      dup4\n      sub\n      dup2\n      0x00\n      dup8\n      dup1\n      extcodesize\n      iszero\n      dup1\n      iszero\n      tag_200\n      jumpi\n      0x00\n      dup1\n      revert\n    tag_200:\n      pop\n      gas\n      call\n      swap3\n      pop\n      pop\n      pop\n      dup1\n      iszero\n      tag_201\n      jumpi\n      pop\n      mload(0x40)\n      returndatasize\n      not(0x1f)\n      0x1f\n      dup3\n      add\n      and\n      dup3\n      add\n      dup1\n      0x40\n      mstore\n      pop\n      dup2\n      add\n      swap1\n      tag_202\n      swap2\n      swap1\n      tag_203\n      jump\t// in\n    tag_202:\n      0x01\n    tag_201:\n        /* \"contracts/Coupon.sol\":9109:9726  try... */\n      tag_204\n      jumpi\n      tag_208\n      tag_209\n      jump\t// in\n    tag_208:\n      dup1\n      0x08c379a0\n      eq\n      iszero\n      tag_207\n      jumpi\n      pop\n      tag_210\n      tag_211\n      jump\t// in\n    tag_210:\n      dup1\n      tag_212\n      jumpi\n      pop\n      jump(tag_206)\n    tag_212:\n        /* \"contracts/Coupon.sol\":9602:9608  reason */\n      dup1\n        /* \"contracts/Coupon.sol\":9595:9609  revert(reason) */\n      mload(0x40)\n      0x08c379a000000000000000000000000000000000000000000000000000000000\n      dup2\n      mstore\n      0x04\n      add\n      tag_213\n      swap2\n      swap1\n      tag_214\n      jump\t// in\n    tag_213:\n      mload(0x40)\n      dup1\n      swap2\n      sub\n      swap1\n      revert\n        /* \"contracts/Coupon.sol\":9109:9726  try... */\n    tag_207:\n      pop\n    tag_206:\n        /* \"contracts/Coupon.sol\":9649:9711  revert(\"ERC1155: transfer to non ERC1155Receiver implementer\") */\n      mload(0x40)\n      0x08c379a000000000000000000000000000000000000000000000000000000000\n      dup2\n      mstore\n      0x04\n      add\n      tag_215\n      swap1\n      tag_216\n      jump\t// in\n    tag_215:\n      mload(0x40)\n      dup1\n      swap2\n      sub\n      swap1\n      revert\n        /* \"contracts/Coupon.sol\":9109:9726  try... */\n    tag_204:\n        /* \"contracts/Coupon.sol\":9392:9435  IERC1155Receiver.onERC1155Received.selector */\n      shl(0xe0, 0xf23a6e61)\n        /* \"contracts/Coupon.sol\":9380:9435  response != IERC1155Receiver.onERC1155Received.selector */\n      not(0xffffffffffffffffffffffffffffffffffffffffffffffffffffffff)\n      and\n        /* \"contracts/Coupon.sol\":9380:9388  response */\n      dup2\n        /* \"contracts/Coupon.sol\":9380:9435  response != IERC1155Receiver.onERC1155Received.selector */\n      not(0xffffffffffffffffffffffffffffffffffffffffffffffffffffffff)\n      and\n      eq\n        /* \"contracts/Coupon.sol\":9376:9528  if (response != IERC1155Receiver.onERC1155Received.selector) {... */\n      tag_218\n      jumpi\n        /* \"contracts/Coupon.sol\":9459:9509  revert(\"ERC1155: ERC1155Receiver rejected tokens\") */\n      mload(0x40)\n      0x08c379a000000000000000000000000000000000000000000000000000000000\n      dup2\n      mstore\n      0x04\n      add\n      tag_219\n      swap1\n      tag_220\n      jump\t// in\n    tag_219:\n      mload(0x40)\n      dup1\n      swap2\n      sub\n      swap1\n      revert\n        /* \"contracts/Coupon.sol\":9376:9528  if (response != IERC1155Receiver.onERC1155Received.selector) {... */\n    tag_218:\n        /* \"contracts/Coupon.sol\":9332:9542  returns (bytes4 response) {... */\n      pop\n        /* \"contracts/Coupon.sol\":9075:9736  if (isContract(to)) {... */\n    tag_197:\n        /* \"contracts/Coupon.sol\":8872:9742  function _doSafeTransferAcceptanceCheck(... */\n      pop\n      pop\n      pop\n      pop\n      pop\n      pop\n      jump\t// out\n        /* \"contracts/Coupon.sol\":1619:1938  function isContract(address account) private view returns (bool) {... */\n    tag_196:\n        /* \"contracts/Coupon.sol\":1678:1682  bool */\n      0x00\n        /* \"contracts/Coupon.sol\":1930:1931  0 */\n      dup1\n        /* \"contracts/Coupon.sol\":1908:1915  account */\n      dup3\n        /* \"contracts/Coupon.sol\":1908:1927  account.code.length */\n      0xffffffffffffffffffffffffffffffffffffffff\n      and\n      extcodesize\n        /* \"contracts/Coupon.sol\":1908:1931  account.code.length > 0 */\n      gt\n        /* \"contracts/Coupon.sol\":1901:1931  return account.code.length > 0 */\n      swap1\n      pop\n        /* \"contracts/Coupon.sol\":1619:1938  function isContract(address account) private view returns (bool) {... */\n      swap2\n      swap1\n      pop\n      jump\t// out\n        /* \"#utility.yul\":7:417   */\n    tag_223:\n        /* \"#utility.yul\":84:89   */\n      0x00\n        /* \"#utility.yul\":109:174   */\n      tag_225\n        /* \"#utility.yul\":125:173   */\n      tag_226\n        /* \"#utility.yul\":166:172   */\n      dup5\n        /* \"#utility.yul\":125:173   */\n      tag_227\n      jump\t// in\n    tag_226:\n        /* \"#utility.yul\":109:174   */\n      tag_228\n      jump\t// in\n    tag_225:\n        /* \"#utility.yul\":100:174   */\n      swap1\n      pop\n        /* \"#utility.yul\":197:203   */\n      dup3\n        /* \"#utility.yul\":190:195   */\n      dup2\n        /* \"#utility.yul\":183:204   */\n      mstore\n        /* \"#utility.yul\":235:239   */\n      0x20\n        /* \"#utility.yul\":228:233   */\n      dup2\n        /* \"#utility.yul\":224:240   */\n      add\n        /* \"#utility.yul\":273:276   */\n      dup5\n        /* \"#utility.yul\":264:270   */\n      dup5\n        /* \"#utility.yul\":259:262   */\n      dup5\n        /* \"#utility.yul\":255:271   */\n      add\n        /* \"#utility.yul\":252:277   */\n      gt\n        /* \"#utility.yul\":249:361   */\n      iszero\n      tag_229\n      jumpi\n        /* \"#utility.yul\":280:359   */\n      tag_230\n      tag_231\n      jump\t// in\n    tag_230:\n        /* \"#utility.yul\":249:361   */\n    tag_229:\n        /* \"#utility.yul\":370:411   */\n      tag_232\n        /* \"#utility.yul\":404:410   */\n      dup5\n        /* \"#utility.yul\":399:402   */\n      dup3\n        /* \"#utility.yul\":394:397   */\n      dup6\n        /* \"#utility.yul\":370:411   */\n      tag_233\n      jump\t// in\n    tag_232:\n        /* \"#utility.yul\":90:417   */\n      pop\n        /* \"#utility.yul\":7:417   */\n      swap4\n      swap3\n      pop\n      pop\n      pop\n      jump\t// out\n        /* \"#utility.yul\":423:562   */\n    tag_234:\n        /* \"#utility.yul\":469:474   */\n      0x00\n        /* \"#utility.yul\":507:513   */\n      dup2\n        /* \"#utility.yul\":494:514   */\n      calldataload\n        /* \"#utility.yul\":485:514   */\n      swap1\n      pop\n        /* \"#utility.yul\":523:556   */\n      tag_236\n        /* \"#utility.yul\":550:555   */\n      dup2\n        /* \"#utility.yul\":523:556   */\n      tag_237\n      jump\t// in\n    tag_236:\n        /* \"#utility.yul\":423:562   */\n      swap3\n      swap2\n      pop\n      pop\n      jump\t// out\n        /* \"#utility.yul\":568:705   */\n    tag_238:\n        /* \"#utility.yul\":622:627   */\n      0x00\n        /* \"#utility.yul\":653:659   */\n      dup2\n        /* \"#utility.yul\":647:660   */\n      mload\n        /* \"#utility.yul\":638:660   */\n      swap1\n      pop\n        /* \"#utility.yul\":669:699   */\n      tag_240\n        /* \"#utility.yul\":693:698   */\n      dup2\n        /* \"#utility.yul\":669:699   */\n      tag_241\n      jump\t// in\n    tag_240:\n        /* \"#utility.yul\":568:705   */\n      swap3\n      swap2\n      pop\n      pop\n      jump\t// out\n        /* \"#utility.yul\":711:852   */\n    tag_242:\n        /* \"#utility.yul\":767:772   */\n      0x00\n        /* \"#utility.yul\":798:804   */\n      dup2\n        /* \"#utility.yul\":792:805   */\n      mload\n        /* \"#utility.yul\":783:805   */\n      swap1\n      pop\n        /* \"#utility.yul\":814:846   */\n      tag_244\n        /* \"#utility.yul\":840:845   */\n      dup2\n        /* \"#utility.yul\":814:846   */\n      tag_245\n      jump\t// in\n    tag_244:\n        /* \"#utility.yul\":711:852   */\n      swap3\n      swap2\n      pop\n      pop\n      jump\t// out\n        /* \"#utility.yul\":871:1209   */\n    tag_246:\n        /* \"#utility.yul\":926:931   */\n      0x00\n        /* \"#utility.yul\":975:978   */\n      dup3\n        /* \"#utility.yul\":968:972   */\n      0x1f\n        /* \"#utility.yul\":960:966   */\n      dup4\n        /* \"#utility.yul\":956:973   */\n      add\n        /* \"#utility.yul\":952:979   */\n      slt\n        /* \"#utility.yul\":942:1064   */\n      tag_248\n      jumpi\n        /* \"#utility.yul\":983:1062   */\n      tag_249\n      tag_250\n      jump\t// in\n    tag_249:\n        /* \"#utility.yul\":942:1064   */\n    tag_248:\n        /* \"#utility.yul\":1100:1106   */\n      dup2\n        /* \"#utility.yul\":1087:1107   */\n      calldataload\n        /* \"#utility.yul\":1125:1203   */\n      tag_251\n        /* \"#utility.yul\":1199:1202   */\n      dup5\n        /* \"#utility.yul\":1191:1197   */\n      dup3\n        /* \"#utility.yul\":1184:1188   */\n      0x20\n        /* \"#utility.yul\":1176:1182   */\n      dup7\n        /* \"#utility.yul\":1172:1189   */\n      add\n        /* \"#utility.yul\":1125:1203   */\n      tag_223\n      jump\t// in\n    tag_251:\n        /* \"#utility.yul\":1116:1203   */\n      swap2\n      pop\n        /* \"#utility.yul\":932:1209   */\n      pop\n        /* \"#utility.yul\":871:1209   */\n      swap3\n      swap2\n      pop\n      pop\n      jump\t// out\n        /* \"#utility.yul\":1215:1354   */\n    tag_252:\n        /* \"#utility.yul\":1261:1266   */\n      0x00\n        /* \"#utility.yul\":1299:1305   */\n      dup2\n        /* \"#utility.yul\":1286:1306   */\n      calldataload\n        /* \"#utility.yul\":1277:1306   */\n      swap1\n      pop\n        /* \"#utility.yul\":1315:1348   */\n      tag_254\n        /* \"#utility.yul\":1342:1347   */\n      dup2\n        /* \"#utility.yul\":1315:1348   */\n      tag_255\n      jump\t// in\n    tag_254:\n        /* \"#utility.yul\":1215:1354   */\n      swap3\n      swap2\n      pop\n      pop\n      jump\t// out\n        /* \"#utility.yul\":1360:1689   */\n    tag_49:\n        /* \"#utility.yul\":1419:1425   */\n      0x00\n        /* \"#utility.yul\":1468:1470   */\n      0x20\n        /* \"#utility.yul\":1456:1465   */\n      dup3\n        /* \"#utility.yul\":1447:1454   */\n      dup5\n        /* \"#utility.yul\":1443:1466   */\n      sub\n        /* \"#utility.yul\":1439:1471   */\n      slt\n        /* \"#utility.yul\":1436:1555   */\n      iszero\n      tag_257\n      jumpi\n        /* \"#utility.yul\":1474:1553   */\n      tag_258\n      tag_259\n      jump\t// in\n    tag_258:\n        /* \"#utility.yul\":1436:1555   */\n    tag_257:\n        /* \"#utility.yul\":1594:1595   */\n      0x00\n        /* \"#utility.yul\":1619:1672   */\n      tag_260\n        /* \"#utility.yul\":1664:1671   */\n      dup5\n        /* \"#utility.yul\":1655:1661   */\n      dup3\n        /* \"#utility.yul\":1644:1653   */\n      dup6\n        /* \"#utility.yul\":1640:1662   */\n      add\n        /* \"#utility.yul\":1619:1672   */\n      tag_234\n      jump\t// in\n    tag_260:\n        /* \"#utility.yul\":1609:1672   */\n      swap2\n      pop\n        /* \"#utility.yul\":1565:1682   */\n      pop\n        /* \"#utility.yul\":1360:1689   */\n      swap3\n      swap2\n      pop\n      pop\n      jump\t// out\n        /* \"#utility.yul\":1695:2784   */\n    tag_65:\n        /* \"#utility.yul\":1799:1805   */\n      0x00\n        /* \"#utility.yul\":1807:1813   */\n      dup1\n        /* \"#utility.yul\":1815:1821   */\n      0x00\n        /* \"#utility.yul\":1823:1829   */\n      dup1\n        /* \"#utility.yul\":1831:1837   */\n      0x00\n        /* \"#utility.yul\":1880:1883   */\n      0xa0\n        /* \"#utility.yul\":1868:1877   */\n      dup7\n        /* \"#utility.yul\":1859:1866   */\n      dup9\n        /* \"#utility.yul\":1855:1878   */\n      sub\n        /* \"#utility.yul\":1851:1884   */\n      slt\n        /* \"#utility.yul\":1848:1968   */\n      iszero\n      tag_262\n      jumpi\n        /* \"#utility.yul\":1887:1966   */\n      tag_263\n      tag_259\n      jump\t// in\n    tag_263:\n        /* \"#utility.yul\":1848:1968   */\n    tag_262:\n        /* \"#utility.yul\":2007:2008   */\n      0x00\n        /* \"#utility.yul\":2032:2085   */\n      tag_264\n        /* \"#utility.yul\":2077:2084   */\n      dup9\n        /* \"#utility.yul\":2068:2074   */\n      dup3\n        /* \"#utility.yul\":2057:2066   */\n      dup10\n        /* \"#utility.yul\":2053:2075   */\n      add\n        /* \"#utility.yul\":2032:2085   */\n      tag_234\n      jump\t// in\n    tag_264:\n        /* \"#utility.yul\":2022:2085   */\n      swap6\n      pop\n        /* \"#utility.yul\":1978:2095   */\n      pop\n        /* \"#utility.yul\":2134:2136   */\n      0x20\n        /* \"#utility.yul\":2160:2213   */\n      tag_265\n        /* \"#utility.yul\":2205:2212   */\n      dup9\n        /* \"#utility.yul\":2196:2202   */\n      dup3\n        /* \"#utility.yul\":2185:2194   */\n      dup10\n        /* \"#utility.yul\":2181:2203   */\n      add\n        /* \"#utility.yul\":2160:2213   */\n      tag_234\n      jump\t// in\n    tag_265:\n        /* \"#utility.yul\":2150:2213   */\n      swap5\n      pop\n        /* \"#utility.yul\":2105:2223   */\n      pop\n        /* \"#utility.yul\":2262:2264   */\n      0x40\n        /* \"#utility.yul\":2288:2341   */\n      tag_266\n        /* \"#utility.yul\":2333:2340   */\n      dup9\n        /* \"#utility.yul\":2324:2330   */\n      dup3\n        /* \"#utility.yul\":2313:2322   */\n      dup10\n        /* \"#utility.yul\":2309:2331   */\n      add\n        /* \"#utility.yul\":2288:2341   */\n      tag_252\n      jump\t// in\n    tag_266:\n        /* \"#utility.yul\":2278:2341   */\n      swap4\n      pop\n        /* \"#utility.yul\":2233:2351   */\n      pop\n        /* \"#utility.yul\":2390:2392   */\n      0x60\n        /* \"#utility.yul\":2416:2469   */\n      tag_267\n        /* \"#utility.yul\":2461:2468   */\n      dup9\n        /* \"#utility.yul\":2452:2458   */\n      dup3\n        /* \"#utility.yul\":2441:2450   */\n      dup10\n        /* \"#utility.yul\":2437:2459   */\n      add\n        /* \"#utility.yul\":2416:2469   */\n      tag_252\n      jump\t// in\n    tag_267:\n        /* \"#utility.yul\":2406:2469   */\n      swap3\n      pop\n        /* \"#utility.yul\":2361:2479   */\n      pop\n        /* \"#utility.yul\":2546:2549   */\n      0x80\n        /* \"#utility.yul\":2535:2544   */\n      dup7\n        /* \"#utility.yul\":2531:2550   */\n      add\n        /* \"#utility.yul\":2518:2551   */\n      calldataload\n        /* \"#utility.yul\":2578:2596   */\n      0xffffffffffffffff\n        /* \"#utility.yul\":2570:2576   */\n      dup2\n        /* \"#utility.yul\":2567:2597   */\n      gt\n        /* \"#utility.yul\":2564:2681   */\n      iszero\n      tag_268\n      jumpi\n        /* \"#utility.yul\":2600:2679   */\n      tag_269\n      tag_270\n      jump\t// in\n    tag_269:\n        /* \"#utility.yul\":2564:2681   */\n    tag_268:\n        /* \"#utility.yul\":2705:2767   */\n      tag_271\n        /* \"#utility.yul\":2759:2766   */\n      dup9\n        /* \"#utility.yul\":2750:2756   */\n      dup3\n        /* \"#utility.yul\":2739:2748   */\n      dup10\n        /* \"#utility.yul\":2735:2757   */\n      add\n        /* \"#utility.yul\":2705:2767   */\n      tag_246\n      jump\t// in\n    tag_271:\n        /* \"#utility.yul\":2695:2767   */\n      swap2\n      pop\n        /* \"#utility.yul\":2489:2777   */\n      pop\n        /* \"#utility.yul\":1695:2784   */\n      swap3\n      swap6\n      pop\n      swap3\n      swap6\n      swap1\n      swap4\n      pop\n      jump\t// out\n        /* \"#utility.yul\":2790:3264   */\n    tag_16:\n        /* \"#utility.yul\":2858:2864   */\n      0x00\n        /* \"#utility.yul\":2866:2872   */\n      dup1\n        /* \"#utility.yul\":2915:2917   */\n      0x40\n        /* \"#utility.yul\":2903:2912   */\n      dup4\n        /* \"#utility.yul\":2894:2901   */\n      dup6\n        /* \"#utility.yul\":2890:2913   */\n      sub\n        /* \"#utility.yul\":2886:2918   */\n      slt\n        /* \"#utility.yul\":2883:3002   */\n      iszero\n      tag_273\n      jumpi\n        /* \"#utility.yul\":2921:3000   */\n      tag_274\n      tag_259\n      jump\t// in\n    tag_274:\n        /* \"#utility.yul\":2883:3002   */\n    tag_273:\n        /* \"#utility.yul\":3041:3042   */\n      0x00\n        /* \"#utility.yul\":3066:3119   */\n      tag_275\n        /* \"#utility.yul\":3111:3118   */\n      dup6\n        /* \"#utility.yul\":3102:3108   */\n      dup3\n        /* \"#utility.yul\":3091:3100   */\n      dup7\n        /* \"#utility.yul\":3087:3109   */\n      add\n        /* \"#utility.yul\":3066:3119   */\n      tag_234\n      jump\t// in\n    tag_275:\n        /* \"#utility.yul\":3056:3119   */\n      swap3\n      pop\n        /* \"#utility.yul\":3012:3129   */\n      pop\n        /* \"#utility.yul\":3168:3170   */\n      0x20\n        /* \"#utility.yul\":3194:3247   */\n      tag_276\n        /* \"#utility.yul\":3239:3246   */\n      dup6\n        /* \"#utility.yul\":3230:3236   */\n      dup3\n        /* \"#utility.yul\":3219:3228   */\n      dup7\n        /* \"#utility.yul\":3215:3237   */\n      add\n        /* \"#utility.yul\":3194:3247   */\n      tag_252\n      jump\t// in\n    tag_276:\n        /* \"#utility.yul\":3184:3247   */\n      swap2\n      pop\n        /* \"#utility.yul\":3139:3257   */\n      pop\n        /* \"#utility.yul\":2790:3264   */\n      swap3\n      pop\n      swap3\n      swap1\n      pop\n      jump\t// out\n        /* \"#utility.yul\":3270:3615   */\n    tag_88:\n        /* \"#utility.yul\":3337:3343   */\n      0x00\n        /* \"#utility.yul\":3386:3388   */\n      0x20\n        /* \"#utility.yul\":3374:3383   */\n      dup3\n        /* \"#utility.yul\":3365:3372   */\n      dup5\n        /* \"#utility.yul\":3361:3384   */\n      sub\n        /* \"#utility.yul\":3357:3389   */\n      slt\n        /* \"#utility.yul\":3354:3473   */\n      iszero\n      tag_278\n      jumpi\n        /* \"#utility.yul\":3392:3471   */\n      tag_279\n      tag_259\n      jump\t// in\n    tag_279:\n        /* \"#utility.yul\":3354:3473   */\n    tag_278:\n        /* \"#utility.yul\":3512:3513   */\n      0x00\n        /* \"#utility.yul\":3537:3598   */\n      tag_280\n        /* \"#utility.yul\":3590:3597   */\n      dup5\n        /* \"#utility.yul\":3581:3587   */\n      dup3\n        /* \"#utility.yul\":3570:3579   */\n      dup6\n        /* \"#utility.yul\":3566:3588   */\n      add\n        /* \"#utility.yul\":3537:3598   */\n      tag_238\n      jump\t// in\n    tag_280:\n        /* \"#utility.yul\":3527:3598   */\n      swap2\n      pop\n        /* \"#utility.yul\":3483:3608   */\n      pop\n        /* \"#utility.yul\":3270:3615   */\n      swap3\n      swap2\n      pop\n      pop\n      jump\t// out\n        /* \"#utility.yul\":3621:3970   */\n    tag_203:\n        /* \"#utility.yul\":3690:3696   */\n      0x00\n        /* \"#utility.yul\":3739:3741   */\n      0x20\n        /* \"#utility.yul\":3727:3736   */\n      dup3\n        /* \"#utility.yul\":3718:3725   */\n      dup5\n        /* \"#utility.yul\":3714:3737   */\n      sub\n        /* \"#utility.yul\":3710:3742   */\n      slt\n        /* \"#utility.yul\":3707:3826   */\n      iszero\n      tag_282\n      jumpi\n        /* \"#utility.yul\":3745:3824   */\n      tag_283\n      tag_259\n      jump\t// in\n    tag_283:\n        /* \"#utility.yul\":3707:3826   */\n    tag_282:\n        /* \"#utility.yul\":3865:3866   */\n      0x00\n        /* \"#utility.yul\":3890:3953   */\n      tag_284\n        /* \"#utility.yul\":3945:3952   */\n      dup5\n        /* \"#utility.yul\":3936:3942   */\n      dup3\n        /* \"#utility.yul\":3925:3934   */\n      dup6\n        /* \"#utility.yul\":3921:3943   */\n      add\n        /* \"#utility.yul\":3890:3953   */\n      tag_242\n      jump\t// in\n    tag_284:\n        /* \"#utility.yul\":3880:3953   */\n      swap2\n      pop\n        /* \"#utility.yul\":3836:3963   */\n      pop\n        /* \"#utility.yul\":3621:3970   */\n      swap3\n      swap2\n      pop\n      pop\n      jump\t// out\n        /* \"#utility.yul\":3976:4305   */\n    tag_43:\n        /* \"#utility.yul\":4035:4041   */\n      0x00\n        /* \"#utility.yul\":4084:4086   */\n      0x20\n        /* \"#utility.yul\":4072:4081   */\n      dup3\n        /* \"#utility.yul\":4063:4070   */\n      dup5\n        /* \"#utility.yul\":4059:4082   */\n      sub\n        /* \"#utility.yul\":4055:4087   */\n      slt\n        /* \"#utility.yul\":4052:4171   */\n      iszero\n      tag_286\n      jumpi\n        /* \"#utility.yul\":4090:4169   */\n      tag_287\n      tag_259\n      jump\t// in\n    tag_287:\n        /* \"#utility.yul\":4052:4171   */\n    tag_286:\n        /* \"#utility.yul\":4210:4211   */\n      0x00\n        /* \"#utility.yul\":4235:4288   */\n      tag_288\n        /* \"#utility.yul\":4280:4287   */\n      dup5\n        /* \"#utility.yul\":4271:4277   */\n      dup3\n        /* \"#utility.yul\":4260:4269   */\n      dup6\n        /* \"#utility.yul\":4256:4278   */\n      add\n        /* \"#utility.yul\":4235:4288   */\n      tag_252\n      jump\t// in\n    tag_288:\n        /* \"#utility.yul\":4225:4288   */\n      swap2\n      pop\n        /* \"#utility.yul\":4181:4298   */\n      pop\n        /* \"#utility.yul\":3976:4305   */\n      swap3\n      swap2\n      pop\n      pop\n      jump\t// out\n        /* \"#utility.yul\":4311:4785   */\n    tag_38:\n        /* \"#utility.yul\":4379:4385   */\n      0x00\n        /* \"#utility.yul\":4387:4393   */\n      dup1\n        /* \"#utility.yul\":4436:4438   */\n      0x40\n        /* \"#utility.yul\":4424:4433   */\n      dup4\n        /* \"#utility.yul\":4415:4422   */\n      dup6\n        /* \"#utility.yul\":4411:4434   */\n      sub\n        /* \"#utility.yul\":4407:4439   */\n      slt\n        /* \"#utility.yul\":4404:4523   */\n      iszero\n      tag_290\n      jumpi\n        /* \"#utility.yul\":4442:4521   */\n      tag_291\n      tag_259\n      jump\t// in\n    tag_291:\n        /* \"#utility.yul\":4404:4523   */\n    tag_290:\n        /* \"#utility.yul\":4562:4563   */\n      0x00\n        /* \"#utility.yul\":4587:4640   */\n      tag_292\n        /* \"#utility.yul\":4632:4639   */\n      dup6\n        /* \"#utility.yul\":4623:4629   */\n      dup3\n        /* \"#utility.yul\":4612:4621   */\n      dup7\n        /* \"#utility.yul\":4608:4630   */\n      add\n        /* \"#utility.yul\":4587:4640   */\n      tag_252\n      jump\t// in\n    tag_292:\n        /* \"#utility.yul\":4577:4640   */\n      swap3\n      pop\n        /* \"#utility.yul\":4533:4650   */\n      pop\n        /* \"#utility.yul\":4689:4691   */\n      0x20\n        /* \"#utility.yul\":4715:4768   */\n      tag_293\n        /* \"#utility.yul\":4760:4767   */\n      dup6\n        /* \"#utility.yul\":4751:4757   */\n      dup3\n        /* \"#utility.yul\":4740:4749   */\n      dup7\n        /* \"#utility.yul\":4736:4758   */\n      add\n        /* \"#utility.yul\":4715:4768   */\n      tag_252\n      jump\t// in\n    tag_293:\n        /* \"#utility.yul\":4705:4768   */\n      swap2\n      pop\n        /* \"#utility.yul\":4660:4778   */\n      pop\n        /* \"#utility.yul\":4311:4785   */\n      swap3\n      pop\n      swap3\n      swap1\n      pop\n      jump\t// out\n        /* \"#utility.yul\":4791:5556   */\n    tag_26:\n        /* \"#utility.yul\":4877:4883   */\n      0x00\n        /* \"#utility.yul\":4885:4891   */\n      dup1\n        /* \"#utility.yul\":4893:4899   */\n      0x00\n        /* \"#utility.yul\":4901:4907   */\n      dup1\n        /* \"#utility.yul\":4950:4953   */\n      0x80\n        /* \"#utility.yul\":4938:4947   */\n      dup6\n        /* \"#utility.yul\":4929:4936   */\n      dup8\n        /* \"#utility.yul\":4925:4948   */\n      sub\n        /* \"#utility.yul\":4921:4954   */\n      slt\n        /* \"#utility.yul\":4918:5038   */\n      iszero\n      tag_295\n      jumpi\n        /* \"#utility.yul\":4957:5036   */\n      tag_296\n      tag_259\n      jump\t// in\n    tag_296:\n        /* \"#utility.yul\":4918:5038   */\n    tag_295:\n        /* \"#utility.yul\":5077:5078   */\n      0x00\n        /* \"#utility.yul\":5102:5155   */\n      tag_297\n        /* \"#utility.yul\":5147:5154   */\n      dup8\n        /* \"#utility.yul\":5138:5144   */\n      dup3\n        /* \"#utility.yul\":5127:5136   */\n      dup9\n        /* \"#utility.yul\":5123:5145   */\n      add\n        /* \"#utility.yul\":5102:5155   */\n      tag_252\n      jump\t// in\n    tag_297:\n        /* \"#utility.yul\":5092:5155   */\n      swap5\n      pop\n        /* \"#utility.yul\":5048:5165   */\n      pop\n        /* \"#utility.yul\":5204:5206   */\n      0x20\n        /* \"#utility.yul\":5230:5283   */\n      tag_298\n        /* \"#utility.yul\":5275:5282   */\n      dup8\n        /* \"#utility.yul\":5266:5272   */\n      dup3\n        /* \"#utility.yul\":5255:5264   */\n      dup9\n        /* \"#utility.yul\":5251:5273   */\n      add\n        /* \"#utility.yul\":5230:5283   */\n      tag_252\n      jump\t// in\n    tag_298:\n        /* \"#utility.yul\":5220:5283   */\n      swap4\n      pop\n        /* \"#utility.yul\":5175:5293   */\n      pop\n        /* \"#utility.yul\":5332:5334   */\n      0x40\n        /* \"#utility.yul\":5358:5411   */\n      tag_299\n        /* \"#utility.yul\":5403:5410   */\n      dup8\n        /* \"#utility.yul\":5394:5400   */\n      dup3\n        /* \"#utility.yul\":5383:5392   */\n      dup9\n        /* \"#utility.yul\":5379:5401   */\n      add\n        /* \"#utility.yul\":5358:5411   */\n      tag_252\n      jump\t// in\n    tag_299:\n        /* \"#utility.yul\":5348:5411   */\n      swap3\n      pop\n        /* \"#utility.yul\":5303:5421   */\n      pop\n        /* \"#utility.yul\":5460:5462   */\n      0x60\n        /* \"#utility.yul\":5486:5539   */\n      tag_300\n        /* \"#utility.yul\":5531:5538   */\n      dup8\n        /* \"#utility.yul\":5522:5528   */\n      dup3\n        /* \"#utility.yul\":5511:5520   */\n      dup9\n        /* \"#utility.yul\":5507:5529   */\n      add\n        /* \"#utility.yul\":5486:5539   */\n      tag_234\n      jump\t// in\n    tag_300:\n        /* \"#utility.yul\":5476:5539   */\n      swap2\n      pop\n        /* \"#utility.yul\":5431:5549   */\n      pop\n        /* \"#utility.yul\":4791:5556   */\n      swap3\n      swap6\n      swap2\n      swap5\n      pop\n      swap3\n      pop\n      jump\t// out\n        /* \"#utility.yul\":5562:5741   */\n    tag_301:\n        /* \"#utility.yul\":5631:5641   */\n      0x00\n        /* \"#utility.yul\":5652:5698   */\n      tag_303\n        /* \"#utility.yul\":5694:5697   */\n      dup4\n        /* \"#utility.yul\":5686:5692   */\n      dup4\n        /* \"#utility.yul\":5652:5698   */\n      tag_304\n      jump\t// in\n    tag_303:\n        /* \"#utility.yul\":5730:5734   */\n      0x20\n        /* \"#utility.yul\":5725:5728   */\n      dup4\n        /* \"#utility.yul\":5721:5735   */\n      add\n        /* \"#utility.yul\":5707:5735   */\n      swap1\n      pop\n        /* \"#utility.yul\":5562:5741   */\n      swap3\n      swap2\n      pop\n      pop\n      jump\t// out\n        /* \"#utility.yul\":5747:5865   */\n    tag_305:\n        /* \"#utility.yul\":5834:5858   */\n      tag_307\n        /* \"#utility.yul\":5852:5857   */\n      dup2\n        /* \"#utility.yul\":5834:5858   */\n      tag_308\n      jump\t// in\n    tag_307:\n        /* \"#utility.yul\":5829:5832   */\n      dup3\n        /* \"#utility.yul\":5822:5859   */\n      mstore\n        /* \"#utility.yul\":5747:5865   */\n      pop\n      pop\n      jump\t// out\n        /* \"#utility.yul\":5901:6633   */\n    tag_309:\n        /* \"#utility.yul\":6020:6023   */\n      0x00\n        /* \"#utility.yul\":6049:6103   */\n      tag_311\n        /* \"#utility.yul\":6097:6102   */\n      dup3\n        /* \"#utility.yul\":6049:6103   */\n      tag_312\n      jump\t// in\n    tag_311:\n        /* \"#utility.yul\":6119:6205   */\n      tag_313\n        /* \"#utility.yul\":6198:6204   */\n      dup2\n        /* \"#utility.yul\":6193:6196   */\n      dup6\n        /* \"#utility.yul\":6119:6205   */\n      tag_314\n      jump\t// in\n    tag_313:\n        /* \"#utility.yul\":6112:6205   */\n      swap4\n      pop\n        /* \"#utility.yul\":6229:6285   */\n      tag_315\n        /* \"#utility.yul\":6279:6284   */\n      dup4\n        /* \"#utility.yul\":6229:6285   */\n      tag_316\n      jump\t// in\n    tag_315:\n        /* \"#utility.yul\":6308:6315   */\n      dup1\n        /* \"#utility.yul\":6339:6340   */\n      0x00\n        /* \"#utility.yul\":6324:6608   */\n    tag_317:\n        /* \"#utility.yul\":6349:6355   */\n      dup4\n        /* \"#utility.yul\":6346:6347   */\n      dup2\n        /* \"#utility.yul\":6343:6356   */\n      lt\n        /* \"#utility.yul\":6324:6608   */\n      iszero\n      tag_319\n      jumpi\n        /* \"#utility.yul\":6425:6431   */\n      dup2\n        /* \"#utility.yul\":6419:6432   */\n      mload\n        /* \"#utility.yul\":6452:6515   */\n      tag_320\n        /* \"#utility.yul\":6511:6514   */\n      dup9\n        /* \"#utility.yul\":6496:6509   */\n      dup3\n        /* \"#utility.yul\":6452:6515   */\n      tag_301\n      jump\t// in\n    tag_320:\n        /* \"#utility.yul\":6445:6515   */\n      swap8\n      pop\n        /* \"#utility.yul\":6538:6598   */\n      tag_321\n        /* \"#utility.yul\":6591:6597   */\n      dup4\n        /* \"#utility.yul\":6538:6598   */\n      tag_322\n      jump\t// in\n    tag_321:\n        /* \"#utility.yul\":6528:6598   */\n      swap3\n      pop\n        /* \"#utility.yul\":6384:6608   */\n      pop\n        /* \"#utility.yul\":6371:6372   */\n      0x01\n        /* \"#utility.yul\":6368:6369   */\n      dup2\n        /* \"#utility.yul\":6364:6373   */\n      add\n        /* \"#utility.yul\":6359:6373   */\n      swap1\n      pop\n        /* \"#utility.yul\":6324:6608   */\n      jump(tag_317)\n    tag_319:\n        /* \"#utility.yul\":6328:6342   */\n      pop\n        /* \"#utility.yul\":6624:6627   */\n      dup6\n        /* \"#utility.yul\":6617:6627   */\n      swap4\n      pop\n        /* \"#utility.yul\":6025:6633   */\n      pop\n      pop\n      pop\n        /* \"#utility.yul\":5901:6633   */\n      swap3\n      swap2\n      pop\n      pop\n      jump\t// out\n        /* \"#utility.yul\":6639:6748   */\n    tag_323:\n        /* \"#utility.yul\":6720:6741   */\n      tag_325\n        /* \"#utility.yul\":6735:6740   */\n      dup2\n        /* \"#utility.yul\":6720:6741   */\n      tag_326\n      jump\t// in\n    tag_325:\n        /* \"#utility.yul\":6715:6718   */\n      dup3\n        /* \"#utility.yul\":6708:6742   */\n      mstore\n        /* \"#utility.yul\":6639:6748   */\n      pop\n      pop\n      jump\t// out\n        /* \"#utility.yul\":6754:7114   */\n    tag_327:\n        /* \"#utility.yul\":6840:6843   */\n      0x00\n        /* \"#utility.yul\":6868:6906   */\n      tag_329\n        /* \"#utility.yul\":6900:6905   */\n      dup3\n        /* \"#utility.yul\":6868:6906   */\n      tag_330\n      jump\t// in\n    tag_329:\n        /* \"#utility.yul\":6922:6992   */\n      tag_331\n        /* \"#utility.yul\":6985:6991   */\n      dup2\n        /* \"#utility.yul\":6980:6983   */\n      dup6\n        /* \"#utility.yul\":6922:6992   */\n      tag_332\n      jump\t// in\n    tag_331:\n        /* \"#utility.yul\":6915:6992   */\n      swap4\n      pop\n        /* \"#utility.yul\":7001:7053   */\n      tag_333\n        /* \"#utility.yul\":7046:7052   */\n      dup2\n        /* \"#utility.yul\":7041:7044   */\n      dup6\n        /* \"#utility.yul\":7034:7038   */\n      0x20\n        /* \"#utility.yul\":7027:7032   */\n      dup7\n        /* \"#utility.yul\":7023:7039   */\n      add\n        /* \"#utility.yul\":7001:7053   */\n      tag_334\n      jump\t// in\n    tag_333:\n        /* \"#utility.yul\":7078:7107   */\n      tag_335\n        /* \"#utility.yul\":7100:7106   */\n      dup2\n        /* \"#utility.yul\":7078:7107   */\n      tag_336\n      jump\t// in\n    tag_335:\n        /* \"#utility.yul\":7073:7076   */\n      dup5\n        /* \"#utility.yul\":7069:7108   */\n      add\n        /* \"#utility.yul\":7062:7108   */\n      swap2\n      pop\n        /* \"#utility.yul\":6844:7114   */\n      pop\n        /* \"#utility.yul\":6754:7114   */\n      swap3\n      swap2\n      pop\n      pop\n      jump\t// out\n        /* \"#utility.yul\":7120:7484   */\n    tag_337:\n        /* \"#utility.yul\":7208:7211   */\n      0x00\n        /* \"#utility.yul\":7236:7275   */\n      tag_339\n        /* \"#utility.yul\":7269:7274   */\n      dup3\n        /* \"#utility.yul\":7236:7275   */\n      tag_340\n      jump\t// in\n    tag_339:\n        /* \"#utility.yul\":7291:7362   */\n      tag_341\n        /* \"#utility.yul\":7355:7361   */\n      dup2\n        /* \"#utility.yul\":7350:7353   */\n      dup6\n        /* \"#utility.yul\":7291:7362   */\n      tag_342\n      jump\t// in\n    tag_341:\n        /* \"#utility.yul\":7284:7362   */\n      swap4\n      pop\n        /* \"#utility.yul\":7371:7423   */\n      tag_343\n        /* \"#utility.yul\":7416:7422   */\n      dup2\n        /* \"#utility.yul\":7411:7414   */\n      dup6\n        /* \"#utility.yul\":7404:7408   */\n      0x20\n        /* \"#utility.yul\":7397:7402   */\n      dup7\n        /* \"#utility.yul\":7393:7409   */\n      add\n        /* \"#utility.yul\":7371:7423   */\n      tag_334\n      jump\t// in\n    tag_343:\n        /* \"#utility.yul\":7448:7477   */\n      tag_344\n        /* \"#utility.yul\":7470:7476   */\n      dup2\n        /* \"#utility.yul\":7448:7477   */\n      tag_336\n      jump\t// in\n    tag_344:\n        /* \"#utility.yul\":7443:7446   */\n      dup5\n        /* \"#utility.yul\":7439:7478   */\n      add\n        /* \"#utility.yul\":7432:7478   */\n      swap2\n      pop\n        /* \"#utility.yul\":7212:7484   */\n      pop\n        /* \"#utility.yul\":7120:7484   */\n      swap3\n      swap2\n      pop\n      pop\n      jump\t// out\n        /* \"#utility.yul\":7490:7856   */\n    tag_345:\n        /* \"#utility.yul\":7632:7635   */\n      0x00\n        /* \"#utility.yul\":7653:7720   */\n      tag_347\n        /* \"#utility.yul\":7717:7719   */\n      0x34\n        /* \"#utility.yul\":7712:7715   */\n      dup4\n        /* \"#utility.yul\":7653:7720   */\n      tag_342\n      jump\t// in\n    tag_347:\n        /* \"#utility.yul\":7646:7720   */\n      swap2\n      pop\n        /* \"#utility.yul\":7729:7822   */\n      tag_348\n        /* \"#utility.yul\":7818:7821   */\n      dup3\n        /* \"#utility.yul\":7729:7822   */\n      tag_349\n      jump\t// in\n    tag_348:\n        /* \"#utility.yul\":7847:7849   */\n      0x40\n        /* \"#utility.yul\":7842:7845   */\n      dup3\n        /* \"#utility.yul\":7838:7850   */\n      add\n        /* \"#utility.yul\":7831:7850   */\n      swap1\n      pop\n        /* \"#utility.yul\":7490:7856   */\n      swap2\n      swap1\n      pop\n      jump\t// out\n        /* \"#utility.yul\":7862:8228   */\n    tag_350:\n        /* \"#utility.yul\":8004:8007   */\n      0x00\n        /* \"#utility.yul\":8025:8092   */\n      tag_352\n        /* \"#utility.yul\":8089:8091   */\n      0x2f\n        /* \"#utility.yul\":8084:8087   */\n      dup4\n        /* \"#utility.yul\":8025:8092   */\n      tag_342\n      jump\t// in\n    tag_352:\n        /* \"#utility.yul\":8018:8092   */\n      swap2\n      pop\n        /* \"#utility.yul\":8101:8194   */\n      tag_353\n        /* \"#utility.yul\":8190:8193   */\n      dup3\n        /* \"#utility.yul\":8101:8194   */\n      tag_354\n      jump\t// in\n    tag_353:\n        /* \"#utility.yul\":8219:8221   */\n      0x40\n        /* \"#utility.yul\":8214:8217   */\n      dup3\n        /* \"#utility.yul\":8210:8222   */\n      add\n        /* \"#utility.yul\":8203:8222   */\n      swap1\n      pop\n        /* \"#utility.yul\":7862:8228   */\n      swap2\n      swap1\n      pop\n      jump\t// out\n        /* \"#utility.yul\":8234:8600   */\n    tag_355:\n        /* \"#utility.yul\":8376:8379   */\n      0x00\n        /* \"#utility.yul\":8397:8464   */\n      tag_357\n        /* \"#utility.yul\":8461:8463   */\n      0x28\n        /* \"#utility.yul\":8456:8459   */\n      dup4\n        /* \"#utility.yul\":8397:8464   */\n      tag_342\n      jump\t// in\n    tag_357:\n        /* \"#utility.yul\":8390:8464   */\n      swap2\n      pop\n        /* \"#utility.yul\":8473:8566   */\n      tag_358\n        /* \"#utility.yul\":8562:8565   */\n      dup3\n        /* \"#utility.yul\":8473:8566   */\n      tag_359\n      jump\t// in\n    tag_358:\n        /* \"#utility.yul\":8591:8593   */\n      0x40\n        /* \"#utility.yul\":8586:8589   */\n      dup3\n        /* \"#utility.yul\":8582:8594   */\n      add\n        /* \"#utility.yul\":8575:8594   */\n      swap1\n      pop\n        /* \"#utility.yul\":8234:8600   */\n      swap2\n      swap1\n      pop\n      jump\t// out\n        /* \"#utility.yul\":8606:8972   */\n    tag_360:\n        /* \"#utility.yul\":8748:8751   */\n      0x00\n        /* \"#utility.yul\":8769:8836   */\n      tag_362\n        /* \"#utility.yul\":8833:8835   */\n      0x2a\n        /* \"#utility.yul\":8828:8831   */\n      dup4\n        /* \"#utility.yul\":8769:8836   */\n      tag_342\n      jump\t// in\n    tag_362:\n        /* \"#utility.yul\":8762:8836   */\n      swap2\n      pop\n        /* \"#utility.yul\":8845:8938   */\n      tag_363\n        /* \"#utility.yul\":8934:8937   */\n      dup3\n        /* \"#utility.yul\":8845:8938   */\n      tag_364\n      jump\t// in\n    tag_363:\n        /* \"#utility.yul\":8963:8965   */\n      0x40\n        /* \"#utility.yul\":8958:8961   */\n      dup3\n        /* \"#utility.yul\":8954:8966   */\n      add\n        /* \"#utility.yul\":8947:8966   */\n      swap1\n      pop\n        /* \"#utility.yul\":8606:8972   */\n      swap2\n      swap1\n      pop\n      jump\t// out\n        /* \"#utility.yul\":8978:9344   */\n    tag_365:\n        /* \"#utility.yul\":9120:9123   */\n      0x00\n        /* \"#utility.yul\":9141:9208   */\n      tag_367\n        /* \"#utility.yul\":9205:9207   */\n      0x26\n        /* \"#utility.yul\":9200:9203   */\n      dup4\n        /* \"#utility.yul\":9141:9208   */\n      tag_342\n      jump\t// in\n    tag_367:\n        /* \"#utility.yul\":9134:9208   */\n      swap2\n      pop\n        /* \"#utility.yul\":9217:9310   */\n      tag_368\n        /* \"#utility.yul\":9306:9309   */\n      dup3\n        /* \"#utility.yul\":9217:9310   */\n      tag_369\n      jump\t// in\n    tag_368:\n        /* \"#utility.yul\":9335:9337   */\n      0x40\n        /* \"#utility.yul\":9330:9333   */\n      dup3\n        /* \"#utility.yul\":9326:9338   */\n      add\n        /* \"#utility.yul\":9319:9338   */\n      swap1\n      pop\n        /* \"#utility.yul\":8978:9344   */\n      swap2\n      swap1\n      pop\n      jump\t// out\n        /* \"#utility.yul\":9350:9716   */\n    tag_370:\n        /* \"#utility.yul\":9492:9495   */\n      0x00\n        /* \"#utility.yul\":9513:9580   */\n      tag_372\n        /* \"#utility.yul\":9577:9579   */\n      0x25\n        /* \"#utility.yul\":9572:9575   */\n      dup4\n        /* \"#utility.yul\":9513:9580   */\n      tag_342\n      jump\t// in\n    tag_372:\n        /* \"#utility.yul\":9506:9580   */\n      swap2\n      pop\n        /* \"#utility.yul\":9589:9682   */\n      tag_373\n        /* \"#utility.yul\":9678:9681   */\n      dup3\n        /* \"#utility.yul\":9589:9682   */\n      tag_374\n      jump\t// in\n    tag_373:\n        /* \"#utility.yul\":9707:9709   */\n      0x40\n        /* \"#utility.yul\":9702:9705   */\n      dup3\n        /* \"#utility.yul\":9698:9710   */\n      add\n        /* \"#utility.yul\":9691:9710   */\n      swap1\n      pop\n        /* \"#utility.yul\":9350:9716   */\n      swap2\n      swap1\n      pop\n      jump\t// out\n        /* \"#utility.yul\":9722:10088   */\n    tag_375:\n        /* \"#utility.yul\":9864:9867   */\n      0x00\n        /* \"#utility.yul\":9885:9952   */\n      tag_377\n        /* \"#utility.yul\":9949:9951   */\n      0x2a\n        /* \"#utility.yul\":9944:9947   */\n      dup4\n        /* \"#utility.yul\":9885:9952   */\n      tag_342\n      jump\t// in\n    tag_377:\n        /* \"#utility.yul\":9878:9952   */\n      swap2\n      pop\n        /* \"#utility.yul\":9961:10054   */\n      tag_378\n        /* \"#utility.yul\":10050:10053   */\n      dup3\n        /* \"#utility.yul\":9961:10054   */\n      tag_379\n      jump\t// in\n    tag_378:\n        /* \"#utility.yul\":10079:10081   */\n      0x40\n        /* \"#utility.yul\":10074:10077   */\n      dup3\n        /* \"#utility.yul\":10070:10082   */\n      add\n        /* \"#utility.yul\":10063:10082   */\n      swap1\n      pop\n        /* \"#utility.yul\":9722:10088   */\n      swap2\n      swap1\n      pop\n      jump\t// out\n        /* \"#utility.yul\":10094:10460   */\n    tag_380:\n        /* \"#utility.yul\":10236:10239   */\n      0x00\n        /* \"#utility.yul\":10257:10324   */\n      tag_382\n        /* \"#utility.yul\":10321:10323   */\n      0x21\n        /* \"#utility.yul\":10316:10319   */\n      dup4\n        /* \"#utility.yul\":10257:10324   */\n      tag_342\n      jump\t// in\n    tag_382:\n        /* \"#utility.yul\":10250:10324   */\n      swap2\n      pop\n        /* \"#utility.yul\":10333:10426   */\n      tag_383\n        /* \"#utility.yul\":10422:10425   */\n      dup3\n        /* \"#utility.yul\":10333:10426   */\n      tag_384\n      jump\t// in\n    tag_383:\n        /* \"#utility.yul\":10451:10453   */\n      0x40\n        /* \"#utility.yul\":10446:10449   */\n      dup3\n        /* \"#utility.yul\":10442:10454   */\n      add\n        /* \"#utility.yul\":10435:10454   */\n      swap1\n      pop\n        /* \"#utility.yul\":10094:10460   */\n      swap2\n      swap1\n      pop\n      jump\t// out\n        /* \"#utility.yul\":10466:10574   */\n    tag_304:\n        /* \"#utility.yul\":10543:10567   */\n      tag_386\n        /* \"#utility.yul\":10561:10566   */\n      dup2\n        /* \"#utility.yul\":10543:10567   */\n      tag_387\n      jump\t// in\n    tag_386:\n        /* \"#utility.yul\":10538:10541   */\n      dup3\n        /* \"#utility.yul\":10531:10568   */\n      mstore\n        /* \"#utility.yul\":10466:10574   */\n      pop\n      pop\n      jump\t// out\n        /* \"#utility.yul\":10580:10698   */\n    tag_388:\n        /* \"#utility.yul\":10667:10691   */\n      tag_390\n        /* \"#utility.yul\":10685:10690   */\n      dup2\n        /* \"#utility.yul\":10667:10691   */\n      tag_387\n      jump\t// in\n    tag_390:\n        /* \"#utility.yul\":10662:10665   */\n      dup3\n        /* \"#utility.yul\":10655:10692   */\n      mstore\n        /* \"#utility.yul\":10580:10698   */\n      pop\n      pop\n      jump\t// out\n        /* \"#utility.yul\":10704:10926   */\n    tag_52:\n        /* \"#utility.yul\":10797:10801   */\n      0x00\n        /* \"#utility.yul\":10835:10837   */\n      0x20\n        /* \"#utility.yul\":10824:10833   */\n      dup3\n        /* \"#utility.yul\":10820:10838   */\n      add\n        /* \"#utility.yul\":10812:10838   */\n      swap1\n      pop\n        /* \"#utility.yul\":10848:10919   */\n      tag_392\n        /* \"#utility.yul\":10916:10917   */\n      0x00\n        /* \"#utility.yul\":10905:10914   */\n      dup4\n        /* \"#utility.yul\":10901:10918   */\n      add\n        /* \"#utility.yul\":10892:10898   */\n      dup5\n        /* \"#utility.yul\":10848:10919   */\n      tag_305\n      jump\t// in\n    tag_392:\n        /* \"#utility.yul\":10704:10926   */\n      swap3\n      swap2\n      pop\n      pop\n      jump\t// out\n        /* \"#utility.yul\":10932:11374   */\n    tag_83:\n        /* \"#utility.yul\":11081:11085   */\n      0x00\n        /* \"#utility.yul\":11119:11121   */\n      0x60\n        /* \"#utility.yul\":11108:11117   */\n      dup3\n        /* \"#utility.yul\":11104:11122   */\n      add\n        /* \"#utility.yul\":11096:11122   */\n      swap1\n      pop\n        /* \"#utility.yul\":11132:11203   */\n      tag_394\n        /* \"#utility.yul\":11200:11201   */\n      0x00\n        /* \"#utility.yul\":11189:11198   */\n      dup4\n        /* \"#utility.yul\":11185:11202   */\n      add\n        /* \"#utility.yul\":11176:11182   */\n      dup7\n        /* \"#utility.yul\":11132:11203   */\n      tag_305\n      jump\t// in\n    tag_394:\n        /* \"#utility.yul\":11213:11285   */\n      tag_395\n        /* \"#utility.yul\":11281:11283   */\n      0x20\n        /* \"#utility.yul\":11270:11279   */\n      dup4\n        /* \"#utility.yul\":11266:11284   */\n      add\n        /* \"#utility.yul\":11257:11263   */\n      dup6\n        /* \"#utility.yul\":11213:11285   */\n      tag_305\n      jump\t// in\n    tag_395:\n        /* \"#utility.yul\":11295:11367   */\n      tag_396\n        /* \"#utility.yul\":11363:11365   */\n      0x40\n        /* \"#utility.yul\":11352:11361   */\n      dup4\n        /* \"#utility.yul\":11348:11366   */\n      add\n        /* \"#utility.yul\":11339:11345   */\n      dup5\n        /* \"#utility.yul\":11295:11367   */\n      tag_388\n      jump\t// in\n    tag_396:\n        /* \"#utility.yul\":10932:11374   */\n      swap5\n      swap4\n      pop\n      pop\n      pop\n      pop\n      jump\t// out\n        /* \"#utility.yul\":11380:12131   */\n    tag_199:\n        /* \"#utility.yul\":11603:11607   */\n      0x00\n        /* \"#utility.yul\":11641:11644   */\n      0xa0\n        /* \"#utility.yul\":11630:11639   */\n      dup3\n        /* \"#utility.yul\":11626:11645   */\n      add\n        /* \"#utility.yul\":11618:11645   */\n      swap1\n      pop\n        /* \"#utility.yul\":11655:11726   */\n      tag_398\n        /* \"#utility.yul\":11723:11724   */\n      0x00\n        /* \"#utility.yul\":11712:11721   */\n      dup4\n        /* \"#utility.yul\":11708:11725   */\n      add\n        /* \"#utility.yul\":11699:11705   */\n      dup9\n        /* \"#utility.yul\":11655:11726   */\n      tag_305\n      jump\t// in\n    tag_398:\n        /* \"#utility.yul\":11736:11808   */\n      tag_399\n        /* \"#utility.yul\":11804:11806   */\n      0x20\n        /* \"#utility.yul\":11793:11802   */\n      dup4\n        /* \"#utility.yul\":11789:11807   */\n      add\n        /* \"#utility.yul\":11780:11786   */\n      dup8\n        /* \"#utility.yul\":11736:11808   */\n      tag_305\n      jump\t// in\n    tag_399:\n        /* \"#utility.yul\":11818:11890   */\n      tag_400\n        /* \"#utility.yul\":11886:11888   */\n      0x40\n        /* \"#utility.yul\":11875:11884   */\n      dup4\n        /* \"#utility.yul\":11871:11889   */\n      add\n        /* \"#utility.yul\":11862:11868   */\n      dup7\n        /* \"#utility.yul\":11818:11890   */\n      tag_388\n      jump\t// in\n    tag_400:\n        /* \"#utility.yul\":11900:11972   */\n      tag_401\n        /* \"#utility.yul\":11968:11970   */\n      0x60\n        /* \"#utility.yul\":11957:11966   */\n      dup4\n        /* \"#utility.yul\":11953:11971   */\n      add\n        /* \"#utility.yul\":11944:11950   */\n      dup6\n        /* \"#utility.yul\":11900:11972   */\n      tag_388\n      jump\t// in\n    tag_401:\n        /* \"#utility.yul\":12020:12029   */\n      dup2\n        /* \"#utility.yul\":12014:12018   */\n      dup2\n        /* \"#utility.yul\":12010:12030   */\n      sub\n        /* \"#utility.yul\":12004:12007   */\n      0x80\n        /* \"#utility.yul\":11993:12002   */\n      dup4\n        /* \"#utility.yul\":11989:12008   */\n      add\n        /* \"#utility.yul\":11982:12031   */\n      mstore\n        /* \"#utility.yul\":12048:12124   */\n      tag_402\n        /* \"#utility.yul\":12119:12123   */\n      dup2\n        /* \"#utility.yul\":12110:12116   */\n      dup5\n        /* \"#utility.yul\":12048:12124   */\n      tag_327\n      jump\t// in\n    tag_402:\n        /* \"#utility.yul\":12040:12124   */\n      swap1\n      pop\n        /* \"#utility.yul\":11380:12131   */\n      swap7\n      swap6\n      pop\n      pop\n      pop\n      pop\n      pop\n      pop\n      jump\t// out\n        /* \"#utility.yul\":12137:12510   */\n    tag_61:\n        /* \"#utility.yul\":12280:12284   */\n      0x00\n        /* \"#utility.yul\":12318:12320   */\n      0x20\n        /* \"#utility.yul\":12307:12316   */\n      dup3\n        /* \"#utility.yul\":12303:12321   */\n      add\n        /* \"#utility.yul\":12295:12321   */\n      swap1\n      pop\n        /* \"#utility.yul\":12367:12376   */\n      dup2\n        /* \"#utility.yul\":12361:12365   */\n      dup2\n        /* \"#utility.yul\":12357:12377   */\n      sub\n        /* \"#utility.yul\":12353:12354   */\n      0x00\n        /* \"#utility.yul\":12342:12351   */\n      dup4\n        /* \"#utility.yul\":12338:12355   */\n      add\n        /* \"#utility.yul\":12331:12378   */\n      mstore\n        /* \"#utility.yul\":12395:12503   */\n      tag_404\n        /* \"#utility.yul\":12498:12502   */\n      dup2\n        /* \"#utility.yul\":12489:12495   */\n      dup5\n        /* \"#utility.yul\":12395:12503   */\n      tag_309\n      jump\t// in\n    tag_404:\n        /* \"#utility.yul\":12387:12503   */\n      swap1\n      pop\n        /* \"#utility.yul\":12137:12510   */\n      swap3\n      swap2\n      pop\n      pop\n      jump\t// out\n        /* \"#utility.yul\":12516:13150   */\n    tag_34:\n        /* \"#utility.yul\":12737:12741   */\n      0x00\n        /* \"#utility.yul\":12775:12777   */\n      0x40\n        /* \"#utility.yul\":12764:12773   */\n      dup3\n        /* \"#utility.yul\":12760:12778   */\n      add\n        /* \"#utility.yul\":12752:12778   */\n      swap1\n      pop\n        /* \"#utility.yul\":12824:12833   */\n      dup2\n        /* \"#utility.yul\":12818:12822   */\n      dup2\n        /* \"#utility.yul\":12814:12834   */\n      sub\n        /* \"#utility.yul\":12810:12811   */\n      0x00\n        /* \"#utility.yul\":12799:12808   */\n      dup4\n        /* \"#utility.yul\":12795:12812   */\n      add\n        /* \"#utility.yul\":12788:12835   */\n      mstore\n        /* \"#utility.yul\":12852:12960   */\n      tag_406\n        /* \"#utility.yul\":12955:12959   */\n      dup2\n        /* \"#utility.yul\":12946:12952   */\n      dup6\n        /* \"#utility.yul\":12852:12960   */\n      tag_309\n      jump\t// in\n    tag_406:\n        /* \"#utility.yul\":12844:12960   */\n      swap1\n      pop\n        /* \"#utility.yul\":13007:13016   */\n      dup2\n        /* \"#utility.yul\":13001:13005   */\n      dup2\n        /* \"#utility.yul\":12997:13017   */\n      sub\n        /* \"#utility.yul\":12992:12994   */\n      0x20\n        /* \"#utility.yul\":12981:12990   */\n      dup4\n        /* \"#utility.yul\":12977:12995   */\n      add\n        /* \"#utility.yul\":12970:13018   */\n      mstore\n        /* \"#utility.yul\":13035:13143   */\n      tag_407\n        /* \"#utility.yul\":13138:13142   */\n      dup2\n        /* \"#utility.yul\":13129:13135   */\n      dup5\n        /* \"#utility.yul\":13035:13143   */\n      tag_309\n      jump\t// in\n    tag_407:\n        /* \"#utility.yul\":13027:13143   */\n      swap1\n      pop\n        /* \"#utility.yul\":12516:13150   */\n      swap4\n      swap3\n      pop\n      pop\n      pop\n      jump\t// out\n        /* \"#utility.yul\":13156:13366   */\n    tag_29:\n        /* \"#utility.yul\":13243:13247   */\n      0x00\n        /* \"#utility.yul\":13281:13283   */\n      0x20\n        /* \"#utility.yul\":13270:13279   */\n      dup3\n        /* \"#utility.yul\":13266:13284   */\n      add\n        /* \"#utility.yul\":13258:13284   */\n      swap1\n      pop\n        /* \"#utility.yul\":13294:13359   */\n      tag_409\n        /* \"#utility.yul\":13356:13357   */\n      0x00\n        /* \"#utility.yul\":13345:13354   */\n      dup4\n        /* \"#utility.yul\":13341:13358   */\n      add\n        /* \"#utility.yul\":13332:13338   */\n      dup5\n        /* \"#utility.yul\":13294:13359   */\n      tag_323\n      jump\t// in\n    tag_409:\n        /* \"#utility.yul\":13156:13366   */\n      swap3\n      swap2\n      pop\n      pop\n      jump\t// out\n        /* \"#utility.yul\":13372:13685   */\n    tag_214:\n        /* \"#utility.yul\":13485:13489   */\n      0x00\n        /* \"#utility.yul\":13523:13525   */\n      0x20\n        /* \"#utility.yul\":13512:13521   */\n      dup3\n        /* \"#utility.yul\":13508:13526   */\n      add\n        /* \"#utility.yul\":13500:13526   */\n      swap1\n      pop\n        /* \"#utility.yul\":13572:13581   */\n      dup2\n        /* \"#utility.yul\":13566:13570   */\n      dup2\n        /* \"#utility.yul\":13562:13582   */\n      sub\n        /* \"#utility.yul\":13558:13559   */\n      0x00\n        /* \"#utility.yul\":13547:13556   */\n      dup4\n        /* \"#utility.yul\":13543:13560   */\n      add\n        /* \"#utility.yul\":13536:13583   */\n      mstore\n        /* \"#utility.yul\":13600:13678   */\n      tag_411\n        /* \"#utility.yul\":13673:13677   */\n      dup2\n        /* \"#utility.yul\":13664:13670   */\n      dup5\n        /* \"#utility.yul\":13600:13678   */\n      tag_337\n      jump\t// in\n    tag_411:\n        /* \"#utility.yul\":13592:13678   */\n      swap1\n      pop\n        /* \"#utility.yul\":13372:13685   */\n      swap3\n      swap2\n      pop\n      pop\n      jump\t// out\n        /* \"#utility.yul\":13691:14110   */\n    tag_216:\n        /* \"#utility.yul\":13857:13861   */\n      0x00\n        /* \"#utility.yul\":13895:13897   */\n      0x20\n        /* \"#utility.yul\":13884:13893   */\n      dup3\n        /* \"#utility.yul\":13880:13898   */\n      add\n        /* \"#utility.yul\":13872:13898   */\n      swap1\n      pop\n        /* \"#utility.yul\":13944:13953   */\n      dup2\n        /* \"#utility.yul\":13938:13942   */\n      dup2\n        /* \"#utility.yul\":13934:13954   */\n      sub\n        /* \"#utility.yul\":13930:13931   */\n      0x00\n        /* \"#utility.yul\":13919:13928   */\n      dup4\n        /* \"#utility.yul\":13915:13932   */\n      add\n        /* \"#utility.yul\":13908:13955   */\n      mstore\n        /* \"#utility.yul\":13972:14103   */\n      tag_413\n        /* \"#utility.yul\":14098:14102   */\n      dup2\n        /* \"#utility.yul\":13972:14103   */\n      tag_345\n      jump\t// in\n    tag_413:\n        /* \"#utility.yul\":13964:14103   */\n      swap1\n      pop\n        /* \"#utility.yul\":13691:14110   */\n      swap2\n      swap1\n      pop\n      jump\t// out\n        /* \"#utility.yul\":14116:14535   */\n    tag_147:\n        /* \"#utility.yul\":14282:14286   */\n      0x00\n        /* \"#utility.yul\":14320:14322   */\n      0x20\n        /* \"#utility.yul\":14309:14318   */\n      dup3\n        /* \"#utility.yul\":14305:14323   */\n      add\n        /* \"#utility.yul\":14297:14323   */\n      swap1\n      pop\n        /* \"#utility.yul\":14369:14378   */\n      dup2\n        /* \"#utility.yul\":14363:14367   */\n      dup2\n        /* \"#utility.yul\":14359:14379   */\n      sub\n        /* \"#utility.yul\":14355:14356   */\n      0x00\n        /* \"#utility.yul\":14344:14353   */\n      dup4\n        /* \"#utility.yul\":14340:14357   */\n      add\n        /* \"#utility.yul\":14333:14380   */\n      mstore\n        /* \"#utility.yul\":14397:14528   */\n      tag_415\n        /* \"#utility.yul\":14523:14527   */\n      dup2\n        /* \"#utility.yul\":14397:14528   */\n      tag_350\n      jump\t// in\n    tag_415:\n        /* \"#utility.yul\":14389:14528   */\n      swap1\n      pop\n        /* \"#utility.yul\":14116:14535   */\n      swap2\n      swap1\n      pop\n      jump\t// out\n        /* \"#utility.yul\":14541:14960   */\n    tag_220:\n        /* \"#utility.yul\":14707:14711   */\n      0x00\n        /* \"#utility.yul\":14745:14747   */\n      0x20\n        /* \"#utility.yul\":14734:14743   */\n      dup3\n        /* \"#utility.yul\":14730:14748   */\n      add\n        /* \"#utility.yul\":14722:14748   */\n      swap1\n      pop\n        /* \"#utility.yul\":14794:14803   */\n      dup2\n        /* \"#utility.yul\":14788:14792   */\n      dup2\n        /* \"#utility.yul\":14784:14804   */\n      sub\n        /* \"#utility.yul\":14780:14781   */\n      0x00\n        /* \"#utility.yul\":14769:14778   */\n      dup4\n        /* \"#utility.yul\":14765:14782   */\n      add\n        /* \"#utility.yul\":14758:14805   */\n      mstore\n        /* \"#utility.yul\":14822:14953   */\n      tag_417\n        /* \"#utility.yul\":14948:14952   */\n      dup2\n        /* \"#utility.yul\":14822:14953   */\n      tag_355\n      jump\t// in\n    tag_417:\n        /* \"#utility.yul\":14814:14953   */\n      swap1\n      pop\n        /* \"#utility.yul\":14541:14960   */\n      swap2\n      swap1\n      pop\n      jump\t// out\n        /* \"#utility.yul\":14966:15385   */\n    tag_70:\n        /* \"#utility.yul\":15132:15136   */\n      0x00\n        /* \"#utility.yul\":15170:15172   */\n      0x20\n        /* \"#utility.yul\":15159:15168   */\n      dup3\n        /* \"#utility.yul\":15155:15173   */\n      add\n        /* \"#utility.yul\":15147:15173   */\n      swap1\n      pop\n        /* \"#utility.yul\":15219:15228   */\n      dup2\n        /* \"#utility.yul\":15213:15217   */\n      dup2\n        /* \"#utility.yul\":15209:15229   */\n      sub\n        /* \"#utility.yul\":15205:15206   */\n      0x00\n        /* \"#utility.yul\":15194:15203   */\n      dup4\n        /* \"#utility.yul\":15190:15207   */\n      add\n        /* \"#utility.yul\":15183:15230   */\n      mstore\n        /* \"#utility.yul\":15247:15378   */\n      tag_419\n        /* \"#utility.yul\":15373:15377   */\n      dup2\n        /* \"#utility.yul\":15247:15378   */\n      tag_360\n      jump\t// in\n    tag_419:\n        /* \"#utility.yul\":15239:15378   */\n      swap1\n      pop\n        /* \"#utility.yul\":14966:15385   */\n      swap2\n      swap1\n      pop\n      jump\t// out\n        /* \"#utility.yul\":15391:15810   */\n    tag_119:\n        /* \"#utility.yul\":15557:15561   */\n      0x00\n        /* \"#utility.yul\":15595:15597   */\n      0x20\n        /* \"#utility.yul\":15584:15593   */\n      dup3\n        /* \"#utility.yul\":15580:15598   */\n      add\n        /* \"#utility.yul\":15572:15598   */\n      swap1\n      pop\n        /* \"#utility.yul\":15644:15653   */\n      dup2\n        /* \"#utility.yul\":15638:15642   */\n      dup2\n        /* \"#utility.yul\":15634:15654   */\n      sub\n        /* \"#utility.yul\":15630:15631   */\n      0x00\n        /* \"#utility.yul\":15619:15628   */\n      dup4\n        /* \"#utility.yul\":15615:15632   */\n      add\n        /* \"#utility.yul\":15608:15655   */\n      mstore\n        /* \"#utility.yul\":15672:15803   */\n      tag_421\n        /* \"#utility.yul\":15798:15802   */\n      dup2\n        /* \"#utility.yul\":15672:15803   */\n      tag_365\n      jump\t// in\n    tag_421:\n        /* \"#utility.yul\":15664:15803   */\n      swap1\n      pop\n        /* \"#utility.yul\":15391:15810   */\n      swap2\n      swap1\n      pop\n      jump\t// out\n        /* \"#utility.yul\":15816:16235   */\n    tag_174:\n        /* \"#utility.yul\":15982:15986   */\n      0x00\n        /* \"#utility.yul\":16020:16022   */\n      0x20\n        /* \"#utility.yul\":16009:16018   */\n      dup3\n        /* \"#utility.yul\":16005:16023   */\n      add\n        /* \"#utility.yul\":15997:16023   */\n      swap1\n      pop\n        /* \"#utility.yul\":16069:16078   */\n      dup2\n        /* \"#utility.yul\":16063:16067   */\n      dup2\n        /* \"#utility.yul\":16059:16079   */\n      sub\n        /* \"#utility.yul\":16055:16056   */\n      0x00\n        /* \"#utility.yul\":16044:16053   */\n      dup4\n        /* \"#utility.yul\":16040:16057   */\n      add\n        /* \"#utility.yul\":16033:16080   */\n      mstore\n        /* \"#utility.yul\":16097:16228   */\n      tag_423\n        /* \"#utility.yul\":16223:16227   */\n      dup2\n        /* \"#utility.yul\":16097:16228   */\n      tag_370\n      jump\t// in\n    tag_423:\n        /* \"#utility.yul\":16089:16228   */\n      swap1\n      pop\n        /* \"#utility.yul\":15816:16235   */\n      swap2\n      swap1\n      pop\n      jump\t// out\n        /* \"#utility.yul\":16241:16660   */\n    tag_181:\n        /* \"#utility.yul\":16407:16411   */\n      0x00\n        /* \"#utility.yul\":16445:16447   */\n      0x20\n        /* \"#utility.yul\":16434:16443   */\n      dup3\n        /* \"#utility.yul\":16430:16448   */\n      add\n        /* \"#utility.yul\":16422:16448   */\n      swap1\n      pop\n        /* \"#utility.yul\":16494:16503   */\n      dup2\n        /* \"#utility.yul\":16488:16492   */\n      dup2\n        /* \"#utility.yul\":16484:16504   */\n      sub\n        /* \"#utility.yul\":16480:16481   */\n      0x00\n        /* \"#utility.yul\":16469:16478   */\n      dup4\n        /* \"#utility.yul\":16465:16482   */\n      add\n        /* \"#utility.yul\":16458:16505   */\n      mstore\n        /* \"#utility.yul\":16522:16653   */\n      tag_425\n        /* \"#utility.yul\":16648:16652   */\n      dup2\n        /* \"#utility.yul\":16522:16653   */\n      tag_375\n      jump\t// in\n    tag_425:\n        /* \"#utility.yul\":16514:16653   */\n      swap1\n      pop\n        /* \"#utility.yul\":16241:16660   */\n      swap2\n      swap1\n      pop\n      jump\t// out\n        /* \"#utility.yul\":16666:17085   */\n    tag_156:\n        /* \"#utility.yul\":16832:16836   */\n      0x00\n        /* \"#utility.yul\":16870:16872   */\n      0x20\n        /* \"#utility.yul\":16859:16868   */\n      dup3\n        /* \"#utility.yul\":16855:16873   */\n      add\n        /* \"#utility.yul\":16847:16873   */\n      swap1\n      pop\n        /* \"#utility.yul\":16919:16928   */\n      dup2\n        /* \"#utility.yul\":16913:16917   */\n      dup2\n        /* \"#utility.yul\":16909:16929   */\n      sub\n        /* \"#utility.yul\":16905:16906   */\n      0x00\n        /* \"#utility.yul\":16894:16903   */\n      dup4\n        /* \"#utility.yul\":16890:16907   */\n      add\n        /* \"#utility.yul\":16883:16930   */\n      mstore\n        /* \"#utility.yul\":16947:17078   */\n      tag_427\n        /* \"#utility.yul\":17073:17077   */\n      dup2\n        /* \"#utility.yul\":16947:17078   */\n      tag_380\n      jump\t// in\n    tag_427:\n        /* \"#utility.yul\":16939:17078   */\n      swap1\n      pop\n        /* \"#utility.yul\":16666:17085   */\n      swap2\n      swap1\n      pop\n      jump\t// out\n        /* \"#utility.yul\":17091:17313   */\n    tag_19:\n        /* \"#utility.yul\":17184:17188   */\n      0x00\n        /* \"#utility.yul\":17222:17224   */\n      0x20\n        /* \"#utility.yul\":17211:17220   */\n      dup3\n        /* \"#utility.yul\":17207:17225   */\n      add\n        /* \"#utility.yul\":17199:17225   */\n      swap1\n      pop\n        /* \"#utility.yul\":17235:17306   */\n      tag_429\n        /* \"#utility.yul\":17303:17304   */\n      0x00\n        /* \"#utility.yul\":17292:17301   */\n      dup4\n        /* \"#utility.yul\":17288:17305   */\n      add\n        /* \"#utility.yul\":17279:17285   */\n      dup5\n        /* \"#utility.yul\":17235:17306   */\n      tag_388\n      jump\t// in\n    tag_429:\n        /* \"#utility.yul\":17091:17313   */\n      swap3\n      swap2\n      pop\n      pop\n      jump\t// out\n        /* \"#utility.yul\":17319:17651   */\n    tag_165:\n        /* \"#utility.yul\":17440:17444   */\n      0x00\n        /* \"#utility.yul\":17478:17480   */\n      0x40\n        /* \"#utility.yul\":17467:17476   */\n      dup3\n        /* \"#utility.yul\":17463:17481   */\n      add\n        /* \"#utility.yul\":17455:17481   */\n      swap1\n      pop\n        /* \"#utility.yul\":17491:17562   */\n      tag_431\n        /* \"#utility.yul\":17559:17560   */\n      0x00\n        /* \"#utility.yul\":17548:17557   */\n      dup4\n        /* \"#utility.yul\":17544:17561   */\n      add\n        /* \"#utility.yul\":17535:17541   */\n      dup6\n        /* \"#utility.yul\":17491:17562   */\n      tag_388\n      jump\t// in\n    tag_431:\n        /* \"#utility.yul\":17572:17644   */\n      tag_432\n        /* \"#utility.yul\":17640:17642   */\n      0x20\n        /* \"#utility.yul\":17629:17638   */\n      dup4\n        /* \"#utility.yul\":17625:17643   */\n      add\n        /* \"#utility.yul\":17616:17622   */\n      dup5\n        /* \"#utility.yul\":17572:17644   */\n      tag_388\n      jump\t// in\n    tag_432:\n        /* \"#utility.yul\":17319:17651   */\n      swap4\n      swap3\n      pop\n      pop\n      pop\n      jump\t// out\n        /* \"#utility.yul\":17657:17786   */\n    tag_228:\n        /* \"#utility.yul\":17691:17697   */\n      0x00\n        /* \"#utility.yul\":17718:17738   */\n      tag_434\n      tag_435\n      jump\t// in\n    tag_434:\n        /* \"#utility.yul\":17708:17738   */\n      swap1\n      pop\n        /* \"#utility.yul\":17747:17780   */\n      tag_436\n        /* \"#utility.yul\":17775:17779   */\n      dup3\n        /* \"#utility.yul\":17767:17773   */\n      dup3\n        /* \"#utility.yul\":17747:17780   */\n      tag_437\n      jump\t// in\n    tag_436:\n        /* \"#utility.yul\":17657:17786   */\n      swap2\n      swap1\n      pop\n      jump\t// out\n        /* \"#utility.yul\":17792:17867   */\n    tag_435:\n        /* \"#utility.yul\":17825:17831   */\n      0x00\n        /* \"#utility.yul\":17858:17860   */\n      0x40\n        /* \"#utility.yul\":17852:17861   */\n      mload\n        /* \"#utility.yul\":17842:17861   */\n      swap1\n      pop\n        /* \"#utility.yul\":17792:17867   */\n      swap1\n      jump\t// out\n        /* \"#utility.yul\":17873:18180   */\n    tag_227:\n        /* \"#utility.yul\":17934:17938   */\n      0x00\n        /* \"#utility.yul\":18024:18042   */\n      0xffffffffffffffff\n        /* \"#utility.yul\":18016:18022   */\n      dup3\n        /* \"#utility.yul\":18013:18043   */\n      gt\n        /* \"#utility.yul\":18010:18066   */\n      iszero\n      tag_440\n      jumpi\n        /* \"#utility.yul\":18046:18064   */\n      tag_441\n      tag_97\n      jump\t// in\n    tag_441:\n        /* \"#utility.yul\":18010:18066   */\n    tag_440:\n        /* \"#utility.yul\":18084:18113   */\n      tag_442\n        /* \"#utility.yul\":18106:18112   */\n      dup3\n        /* \"#utility.yul\":18084:18113   */\n      tag_336\n      jump\t// in\n    tag_442:\n        /* \"#utility.yul\":18076:18113   */\n      swap1\n      pop\n        /* \"#utility.yul\":18168:18172   */\n      0x20\n        /* \"#utility.yul\":18162:18166   */\n      dup2\n        /* \"#utility.yul\":18158:18173   */\n      add\n        /* \"#utility.yul\":18150:18173   */\n      swap1\n      pop\n        /* \"#utility.yul\":17873:18180   */\n      swap2\n      swap1\n      pop\n      jump\t// out\n        /* \"#utility.yul\":18186:18318   */\n    tag_316:\n        /* \"#utility.yul\":18253:18257   */\n      0x00\n        /* \"#utility.yul\":18276:18279   */\n      dup2\n        /* \"#utility.yul\":18268:18279   */\n      swap1\n      pop\n        /* \"#utility.yul\":18306:18310   */\n      0x20\n        /* \"#utility.yul\":18301:18304   */\n      dup3\n        /* \"#utility.yul\":18297:18311   */\n      add\n        /* \"#utility.yul\":18289:18311   */\n      swap1\n      pop\n        /* \"#utility.yul\":18186:18318   */\n      swap2\n      swap1\n      pop\n      jump\t// out\n        /* \"#utility.yul\":18324:18438   */\n    tag_312:\n        /* \"#utility.yul\":18391:18397   */\n      0x00\n        /* \"#utility.yul\":18425:18430   */\n      dup2\n        /* \"#utility.yul\":18419:18431   */\n      mload\n        /* \"#utility.yul\":18409:18431   */\n      swap1\n      pop\n        /* \"#utility.yul\":18324:18438   */\n      swap2\n      swap1\n      pop\n      jump\t// out\n        /* \"#utility.yul\":18444:18542   */\n    tag_330:\n        /* \"#utility.yul\":18495:18501   */\n      0x00\n        /* \"#utility.yul\":18529:18534   */\n      dup2\n        /* \"#utility.yul\":18523:18535   */\n      mload\n        /* \"#utility.yul\":18513:18535   */\n      swap1\n      pop\n        /* \"#utility.yul\":18444:18542   */\n      swap2\n      swap1\n      pop\n      jump\t// out\n        /* \"#utility.yul\":18548:18647   */\n    tag_340:\n        /* \"#utility.yul\":18600:18606   */\n      0x00\n        /* \"#utility.yul\":18634:18639   */\n      dup2\n        /* \"#utility.yul\":18628:18640   */\n      mload\n        /* \"#utility.yul\":18618:18640   */\n      swap1\n      pop\n        /* \"#utility.yul\":18548:18647   */\n      swap2\n      swap1\n      pop\n      jump\t// out\n        /* \"#utility.yul\":18653:18766   */\n    tag_322:\n        /* \"#utility.yul\":18723:18727   */\n      0x00\n        /* \"#utility.yul\":18755:18759   */\n      0x20\n        /* \"#utility.yul\":18750:18753   */\n      dup3\n        /* \"#utility.yul\":18746:18760   */\n      add\n        /* \"#utility.yul\":18738:18760   */\n      swap1\n      pop\n        /* \"#utility.yul\":18653:18766   */\n      swap2\n      swap1\n      pop\n      jump\t// out\n        /* \"#utility.yul\":18772:18956   */\n    tag_314:\n        /* \"#utility.yul\":18871:18882   */\n      0x00\n        /* \"#utility.yul\":18905:18911   */\n      dup3\n        /* \"#utility.yul\":18900:18903   */\n      dup3\n        /* \"#utility.yul\":18893:18912   */\n      mstore\n        /* \"#utility.yul\":18945:18949   */\n      0x20\n        /* \"#utility.yul\":18940:18943   */\n      dup3\n        /* \"#utility.yul\":18936:18950   */\n      add\n        /* \"#utility.yul\":18921:18950   */\n      swap1\n      pop\n        /* \"#utility.yul\":18772:18956   */\n      swap3\n      swap2\n      pop\n      pop\n      jump\t// out\n        /* \"#utility.yul\":18962:19130   */\n    tag_332:\n        /* \"#utility.yul\":19045:19056   */\n      0x00\n        /* \"#utility.yul\":19079:19085   */\n      dup3\n        /* \"#utility.yul\":19074:19077   */\n      dup3\n        /* \"#utility.yul\":19067:19086   */\n      mstore\n        /* \"#utility.yul\":19119:19123   */\n      0x20\n        /* \"#utility.yul\":19114:19117   */\n      dup3\n        /* \"#utility.yul\":19110:19124   */\n      add\n        /* \"#utility.yul\":19095:19124   */\n      swap1\n      pop\n        /* \"#utility.yul\":18962:19130   */\n      swap3\n      swap2\n      pop\n      pop\n      jump\t// out\n        /* \"#utility.yul\":19136:19305   */\n    tag_342:\n        /* \"#utility.yul\":19220:19231   */\n      0x00\n        /* \"#utility.yul\":19254:19260   */\n      dup3\n        /* \"#utility.yul\":19249:19252   */\n      dup3\n        /* \"#utility.yul\":19242:19261   */\n      mstore\n        /* \"#utility.yul\":19294:19298   */\n      0x20\n        /* \"#utility.yul\":19289:19292   */\n      dup3\n        /* \"#utility.yul\":19285:19299   */\n      add\n        /* \"#utility.yul\":19270:19299   */\n      swap1\n      pop\n        /* \"#utility.yul\":19136:19305   */\n      swap3\n      swap2\n      pop\n      pop\n      jump\t// out\n        /* \"#utility.yul\":19311:19616   */\n    tag_78:\n        /* \"#utility.yul\":19351:19354   */\n      0x00\n        /* \"#utility.yul\":19370:19390   */\n      tag_452\n        /* \"#utility.yul\":19388:19389   */\n      dup3\n        /* \"#utility.yul\":19370:19390   */\n      tag_387\n      jump\t// in\n    tag_452:\n        /* \"#utility.yul\":19365:19390   */\n      swap2\n      pop\n        /* \"#utility.yul\":19404:19424   */\n      tag_453\n        /* \"#utility.yul\":19422:19423   */\n      dup4\n        /* \"#utility.yul\":19404:19424   */\n      tag_387\n      jump\t// in\n    tag_453:\n        /* \"#utility.yul\":19399:19424   */\n      swap3\n      pop\n        /* \"#utility.yul\":19558:19559   */\n      dup3\n        /* \"#utility.yul\":19490:19556   */\n      0xffffffffffffffffffffffffffffffffffffffffffffffffffffffffffffffff\n        /* \"#utility.yul\":19486:19560   */\n      sub\n        /* \"#utility.yul\":19483:19484   */\n      dup3\n        /* \"#utility.yul\":19480:19561   */\n      gt\n        /* \"#utility.yul\":19477:19584   */\n      iszero\n      tag_454\n      jumpi\n        /* \"#utility.yul\":19564:19582   */\n      tag_455\n      tag_456\n      jump\t// in\n    tag_455:\n        /* \"#utility.yul\":19477:19584   */\n    tag_454:\n        /* \"#utility.yul\":19608:19609   */\n      dup3\n        /* \"#utility.yul\":19605:19606   */\n      dup3\n        /* \"#utility.yul\":19601:19610   */\n      add\n        /* \"#utility.yul\":19594:19610   */\n      swap1\n      pop\n        /* \"#utility.yul\":19311:19616   */\n      swap3\n      swap2\n      pop\n      pop\n      jump\t// out\n        /* \"#utility.yul\":19622:19813   */\n    tag_152:\n        /* \"#utility.yul\":19662:19666   */\n      0x00\n        /* \"#utility.yul\":19682:19702   */\n      tag_458\n        /* \"#utility.yul\":19700:19701   */\n      dup3\n        /* \"#utility.yul\":19682:19702   */\n      tag_387\n      jump\t// in\n    tag_458:\n        /* \"#utility.yul\":19677:19702   */\n      swap2\n      pop\n        /* \"#utility.yul\":19716:19736   */\n      tag_459\n        /* \"#utility.yul\":19734:19735   */\n      dup4\n        /* \"#utility.yul\":19716:19736   */\n      tag_387\n      jump\t// in\n    tag_459:\n        /* \"#utility.yul\":19711:19736   */\n      swap3\n      pop\n        /* \"#utility.yul\":19755:19756   */\n      dup3\n        /* \"#utility.yul\":19752:19753   */\n      dup3\n        /* \"#utility.yul\":19749:19757   */\n      lt\n        /* \"#utility.yul\":19746:19780   */\n      iszero\n      tag_460\n      jumpi\n        /* \"#utility.yul\":19760:19778   */\n      tag_461\n      tag_456\n      jump\t// in\n    tag_461:\n        /* \"#utility.yul\":19746:19780   */\n    tag_460:\n        /* \"#utility.yul\":19805:19806   */\n      dup3\n        /* \"#utility.yul\":19802:19803   */\n      dup3\n        /* \"#utility.yul\":19798:19807   */\n      sub\n        /* \"#utility.yul\":19790:19807   */\n      swap1\n      pop\n        /* \"#utility.yul\":19622:19813   */\n      swap3\n      swap2\n      pop\n      pop\n      jump\t// out\n        /* \"#utility.yul\":19819:19915   */\n    tag_308:\n        /* \"#utility.yul\":19856:19863   */\n      0x00\n        /* \"#utility.yul\":19885:19909   */\n      tag_463\n        /* \"#utility.yul\":19903:19908   */\n      dup3\n        /* \"#utility.yul\":19885:19909   */\n      tag_464\n      jump\t// in\n    tag_463:\n        /* \"#utility.yul\":19874:19909   */\n      swap1\n      pop\n        /* \"#utility.yul\":19819:19915   */\n      swap2\n      swap1\n      pop\n      jump\t// out\n        /* \"#utility.yul\":19921:20011   */\n    tag_326:\n        /* \"#utility.yul\":19955:19962   */\n      0x00\n        /* \"#utility.yul\":19998:20003   */\n      dup2\n        /* \"#utility.yul\":19991:20004   */\n      iszero\n        /* \"#utility.yul\":19984:20005   */\n      iszero\n        /* \"#utility.yul\":19973:20005   */\n      swap1\n      pop\n        /* \"#utility.yul\":19921:20011   */\n      swap2\n      swap1\n      pop\n      jump\t// out\n        /* \"#utility.yul\":20017:20166   */\n    tag_466:\n        /* \"#utility.yul\":20053:20060   */\n      0x00\n        /* \"#utility.yul\":20093:20159   */\n      0xffffffff00000000000000000000000000000000000000000000000000000000\n        /* \"#utility.yul\":20086:20091   */\n      dup3\n        /* \"#utility.yul\":20082:20160   */\n      and\n        /* \"#utility.yul\":20071:20160   */\n      swap1\n      pop\n        /* \"#utility.yul\":20017:20166   */\n      swap2\n      swap1\n      pop\n      jump\t// out\n        /* \"#utility.yul\":20172:20298   */\n    tag_464:\n        /* \"#utility.yul\":20209:20216   */\n      0x00\n        /* \"#utility.yul\":20249:20291   */\n      0xffffffffffffffffffffffffffffffffffffffff\n        /* \"#utility.yul\":20242:20247   */\n      dup3\n        /* \"#utility.yul\":20238:20292   */\n      and\n        /* \"#utility.yul\":20227:20292   */\n      swap1\n      pop\n        /* \"#utility.yul\":20172:20298   */\n      swap2\n      swap1\n      pop\n      jump\t// out\n        /* \"#utility.yul\":20304:20381   */\n    tag_387:\n        /* \"#utility.yul\":20341:20348   */\n      0x00\n        /* \"#utility.yul\":20370:20375   */\n      dup2\n        /* \"#utility.yul\":20359:20375   */\n      swap1\n      pop\n        /* \"#utility.yul\":20304:20381   */\n      swap2\n      swap1\n      pop\n      jump\t// out\n        /* \"#utility.yul\":20387:20541   */\n    tag_233:\n        /* \"#utility.yul\":20471:20477   */\n      dup3\n        /* \"#utility.yul\":20466:20469   */\n      dup2\n        /* \"#utility.yul\":20461:20464   */\n      dup4\n        /* \"#utility.yul\":20448:20478   */\n      calldatacopy\n        /* \"#utility.yul\":20533:20534   */\n      0x00\n        /* \"#utility.yul\":20524:20530   */\n      dup4\n        /* \"#utility.yul\":20519:20522   */\n      dup4\n        /* \"#utility.yul\":20515:20531   */\n      add\n        /* \"#utility.yul\":20508:20535   */\n      mstore\n        /* \"#utility.yul\":20387:20541   */\n      pop\n      pop\n      pop\n      jump\t// out\n        /* \"#utility.yul\":20547:20854   */\n    tag_334:\n        /* \"#utility.yul\":20615:20616   */\n      0x00\n        /* \"#utility.yul\":20625:20738   */\n    tag_472:\n        /* \"#utility.yul\":20639:20645   */\n      dup4\n        /* \"#utility.yul\":20636:20637   */\n      dup2\n        /* \"#utility.yul\":20633:20646   */\n      lt\n        /* \"#utility.yul\":20625:20738   */\n      iszero\n      tag_474\n      jumpi\n        /* \"#utility.yul\":20724:20725   */\n      dup1\n        /* \"#utility.yul\":20719:20722   */\n      dup3\n        /* \"#utility.yul\":20715:20726   */\n      add\n        /* \"#utility.yul\":20709:20727   */\n      mload\n        /* \"#utility.yul\":20705:20706   */\n      dup2\n        /* \"#utility.yul\":20700:20703   */\n      dup5\n        /* \"#utility.yul\":20696:20707   */\n      add\n        /* \"#utility.yul\":20689:20728   */\n      mstore\n        /* \"#utility.yul\":20661:20663   */\n      0x20\n        /* \"#utility.yul\":20658:20659   */\n      dup2\n        /* \"#utility.yul\":20654:20664   */\n      add\n        /* \"#utility.yul\":20649:20664   */\n      swap1\n      pop\n        /* \"#utility.yul\":20625:20738   */\n      jump(tag_472)\n    tag_474:\n        /* \"#utility.yul\":20756:20762   */\n      dup4\n        /* \"#utility.yul\":20753:20754   */\n      dup2\n        /* \"#utility.yul\":20750:20763   */\n      gt\n        /* \"#utility.yul\":20747:20848   */\n      iszero\n      tag_475\n      jumpi\n        /* \"#utility.yul\":20836:20837   */\n      0x00\n        /* \"#utility.yul\":20827:20833   */\n      dup5\n        /* \"#utility.yul\":20822:20825   */\n      dup5\n        /* \"#utility.yul\":20818:20834   */\n      add\n        /* \"#utility.yul\":20811:20838   */\n      mstore\n        /* \"#utility.yul\":20747:20848   */\n    tag_475:\n        /* \"#utility.yul\":20596:20854   */\n      pop\n        /* \"#utility.yul\":20547:20854   */\n      pop\n      pop\n      pop\n      jump\t// out\n        /* \"#utility.yul\":20860:21141   */\n    tag_437:\n        /* \"#utility.yul\":20943:20970   */\n      tag_477\n        /* \"#utility.yul\":20965:20969   */\n      dup3\n        /* \"#utility.yul\":20943:20970   */\n      tag_336\n      jump\t// in\n    tag_477:\n        /* \"#utility.yul\":20935:20941   */\n      dup2\n        /* \"#utility.yul\":20931:20971   */\n      add\n        /* \"#utility.yul\":21073:21079   */\n      dup2\n        /* \"#utility.yul\":21061:21071   */\n      dup2\n        /* \"#utility.yul\":21058:21080   */\n      lt\n        /* \"#utility.yul\":21037:21055   */\n      0xffffffffffffffff\n        /* \"#utility.yul\":21025:21035   */\n      dup3\n        /* \"#utility.yul\":21022:21056   */\n      gt\n        /* \"#utility.yul\":21019:21081   */\n      or\n        /* \"#utility.yul\":21016:21104   */\n      iszero\n      tag_478\n      jumpi\n        /* \"#utility.yul\":21084:21102   */\n      tag_479\n      tag_97\n      jump\t// in\n    tag_479:\n        /* \"#utility.yul\":21016:21104   */\n    tag_478:\n        /* \"#utility.yul\":21124:21134   */\n      dup1\n        /* \"#utility.yul\":21120:21122   */\n      0x40\n        /* \"#utility.yul\":21113:21135   */\n      mstore\n        /* \"#utility.yul\":20903:21141   */\n      pop\n        /* \"#utility.yul\":20860:21141   */\n      pop\n      pop\n      jump\t// out\n        /* \"#utility.yul\":21147:21380   */\n    tag_80:\n        /* \"#utility.yul\":21186:21189   */\n      0x00\n        /* \"#utility.yul\":21209:21233   */\n      tag_481\n        /* \"#utility.yul\":21227:21232   */\n      dup3\n        /* \"#utility.yul\":21209:21233   */\n      tag_387\n      jump\t// in\n    tag_481:\n        /* \"#utility.yul\":21200:21233   */\n      swap2\n      pop\n        /* \"#utility.yul\":21255:21321   */\n      0xffffffffffffffffffffffffffffffffffffffffffffffffffffffffffffffff\n        /* \"#utility.yul\":21248:21253   */\n      dup3\n        /* \"#utility.yul\":21245:21322   */\n      eq\n        /* \"#utility.yul\":21242:21345   */\n      iszero\n      tag_482\n      jumpi\n        /* \"#utility.yul\":21325:21343   */\n      tag_483\n      tag_456\n      jump\t// in\n    tag_483:\n        /* \"#utility.yul\":21242:21345   */\n    tag_482:\n        /* \"#utility.yul\":21372:21373   */\n      0x01\n        /* \"#utility.yul\":21365:21370   */\n      dup3\n        /* \"#utility.yul\":21361:21374   */\n      add\n        /* \"#utility.yul\":21354:21374   */\n      swap1\n      pop\n        /* \"#utility.yul\":21147:21380   */\n      swap2\n      swap1\n      pop\n      jump\t// out\n        /* \"#utility.yul\":21386:21566   */\n    tag_456:\n        /* \"#utility.yul\":21434:21511   */\n      0x4e487b7100000000000000000000000000000000000000000000000000000000\n        /* \"#utility.yul\":21431:21432   */\n      0x00\n        /* \"#utility.yul\":21424:21512   */\n      mstore\n        /* \"#utility.yul\":21531:21535   */\n      0x11\n        /* \"#utility.yul\":21528:21529   */\n      0x04\n        /* \"#utility.yul\":21521:21536   */\n      mstore\n        /* \"#utility.yul\":21555:21559   */\n      0x24\n        /* \"#utility.yul\":21552:21553   */\n      0x00\n        /* \"#utility.yul\":21545:21560   */\n      revert\n        /* \"#utility.yul\":21572:21752   */\n    tag_107:\n        /* \"#utility.yul\":21620:21697   */\n      0x4e487b7100000000000000000000000000000000000000000000000000000000\n        /* \"#utility.yul\":21617:21618   */\n      0x00\n        /* \"#utility.yul\":21610:21698   */\n      mstore\n        /* \"#utility.yul\":21717:21721   */\n      0x32\n        /* \"#utility.yul\":21714:21715   */\n      0x04\n        /* \"#utility.yul\":21707:21722   */\n      mstore\n        /* \"#utility.yul\":21741:21745   */\n      0x24\n        /* \"#utility.yul\":21738:21739   */\n      0x00\n        /* \"#utility.yul\":21731:21746   */\n      revert\n        /* \"#utility.yul\":21758:21938   */\n    tag_97:\n        /* \"#utility.yul\":21806:21883   */\n      0x4e487b7100000000000000000000000000000000000000000000000000000000\n        /* \"#utility.yul\":21803:21804   */\n      0x00\n        /* \"#utility.yul\":21796:21884   */\n      mstore\n        /* \"#utility.yul\":21903:21907   */\n      0x41\n        /* \"#utility.yul\":21900:21901   */\n      0x04\n        /* \"#utility.yul\":21893:21908   */\n      mstore\n        /* \"#utility.yul\":21927:21931   */\n      0x24\n        /* \"#utility.yul\":21924:21925   */\n      0x00\n        /* \"#utility.yul\":21917:21932   */\n      revert\n        /* \"#utility.yul\":21944:22127   */\n    tag_209:\n        /* \"#utility.yul\":21979:21982   */\n      0x00\n        /* \"#utility.yul\":22017:22018   */\n      0x03\n        /* \"#utility.yul\":21999:22015   */\n      returndatasize\n        /* \"#utility.yul\":21996:22019   */\n      gt\n        /* \"#utility.yul\":21993:22121   */\n      iszero\n      tag_488\n      jumpi\n        /* \"#utility.yul\":22055:22056   */\n      0x04\n        /* \"#utility.yul\":22052:22053   */\n      0x00\n        /* \"#utility.yul\":22049:22050   */\n      dup1\n        /* \"#utility.yul\":22034:22057   */\n      returndatacopy\n        /* \"#utility.yul\":22077:22111   */\n      tag_489\n        /* \"#utility.yul\":22108:22109   */\n      0x00\n        /* \"#utility.yul\":22102:22110   */\n      mload\n        /* \"#utility.yul\":22077:22111   */\n      tag_490\n      jump\t// in\n    tag_489:\n        /* \"#utility.yul\":22070:22111   */\n      swap1\n      pop\n        /* \"#utility.yul\":21993:22121   */\n    tag_488:\n        /* \"#utility.yul\":21944:22127   */\n      swap1\n      jump\t// out\n        /* \"#utility.yul\":22133:22250   */\n    tag_250:\n        /* \"#utility.yul\":22242:22243   */\n      0x00\n        /* \"#utility.yul\":22239:22240   */\n      dup1\n        /* \"#utility.yul\":22232:22244   */\n      revert\n        /* \"#utility.yul\":22256:22373   */\n    tag_231:\n        /* \"#utility.yul\":22365:22366   */\n      0x00\n        /* \"#utility.yul\":22362:22363   */\n      dup1\n        /* \"#utility.yul\":22355:22367   */\n      revert\n        /* \"#utility.yul\":22379:22496   */\n    tag_270:\n        /* \"#utility.yul\":22488:22489   */\n      0x00\n        /* \"#utility.yul\":22485:22486   */\n      dup1\n        /* \"#utility.yul\":22478:22490   */\n      revert\n        /* \"#utility.yul\":22502:22619   */\n    tag_259:\n        /* \"#utility.yul\":22611:22612   */\n      0x00\n        /* \"#utility.yul\":22608:22609   */\n      dup1\n        /* \"#utility.yul\":22601:22613   */\n      revert\n        /* \"#utility.yul\":22625:22727   */\n    tag_336:\n        /* \"#utility.yul\":22666:22672   */\n      0x00\n        /* \"#utility.yul\":22717:22719   */\n      0x1f\n        /* \"#utility.yul\":22713:22720   */\n      not\n        /* \"#utility.yul\":22708:22710   */\n      0x1f\n        /* \"#utility.yul\":22701:22706   */\n      dup4\n        /* \"#utility.yul\":22697:22711   */\n      add\n        /* \"#utility.yul\":22693:22721   */\n      and\n        /* \"#utility.yul\":22683:22721   */\n      swap1\n      pop\n        /* \"#utility.yul\":22625:22727   */\n      swap2\n      swap1\n      pop\n      jump\t// out\n        /* \"#utility.yul\":22733:22839   */\n    tag_490:\n        /* \"#utility.yul\":22777:22785   */\n      0x00\n        /* \"#utility.yul\":22826:22831   */\n      dup2\n        /* \"#utility.yul\":22821:22824   */\n      0xe0\n        /* \"#utility.yul\":22817:22832   */\n      shr\n        /* \"#utility.yul\":22796:22832   */\n      swap1\n      pop\n        /* \"#utility.yul\":22733:22839   */\n      swap2\n      swap1\n      pop\n      jump\t// out\n        /* \"#utility.yul\":22845:23084   */\n    tag_349:\n        /* \"#utility.yul\":22985:23019   */\n      0x455243313135353a207472616e7366657220746f206e6f6e2045524331313535\n        /* \"#utility.yul\":22981:22982   */\n      0x00\n        /* \"#utility.yul\":22973:22979   */\n      dup3\n        /* \"#utility.yul\":22969:22983   */\n      add\n        /* \"#utility.yul\":22962:23020   */\n      mstore\n        /* \"#utility.yul\":23054:23076   */\n      0x526563656976657220696d706c656d656e746572000000000000000000000000\n        /* \"#utility.yul\":23049:23051   */\n      0x20\n        /* \"#utility.yul\":23041:23047   */\n      dup3\n        /* \"#utility.yul\":23037:23052   */\n      add\n        /* \"#utility.yul\":23030:23077   */\n      mstore\n        /* \"#utility.yul\":22845:23084   */\n      pop\n      jump\t// out\n        /* \"#utility.yul\":23090:23324   */\n    tag_354:\n        /* \"#utility.yul\":23230:23264   */\n      0x455243313135353a2063616c6c6572206973206e6f7420746f6b656e206f776e\n        /* \"#utility.yul\":23226:23227   */\n      0x00\n        /* \"#utility.yul\":23218:23224   */\n      dup3\n        /* \"#utility.yul\":23214:23228   */\n      add\n        /* \"#utility.yul\":23207:23265   */\n      mstore\n        /* \"#utility.yul\":23299:23316   */\n      0x6572206e6f7220617070726f7665640000000000000000000000000000000000\n        /* \"#utility.yul\":23294:23296   */\n      0x20\n        /* \"#utility.yul\":23286:23292   */\n      dup3\n        /* \"#utility.yul\":23282:23297   */\n      add\n        /* \"#utility.yul\":23275:23317   */\n      mstore\n        /* \"#utility.yul\":23090:23324   */\n      pop\n      jump\t// out\n        /* \"#utility.yul\":23330:23557   */\n    tag_359:\n        /* \"#utility.yul\":23470:23504   */\n      0x455243313135353a204552433131353552656365697665722072656a65637465\n        /* \"#utility.yul\":23466:23467   */\n      0x00\n        /* \"#utility.yul\":23458:23464   */\n      dup3\n        /* \"#utility.yul\":23454:23468   */\n      add\n        /* \"#utility.yul\":23447:23505   */\n      mstore\n        /* \"#utility.yul\":23539:23549   */\n      0x6420746f6b656e73000000000000000000000000000000000000000000000000\n        /* \"#utility.yul\":23534:23536   */\n      0x20\n        /* \"#utility.yul\":23526:23532   */\n      dup3\n        /* \"#utility.yul\":23522:23537   */\n      add\n        /* \"#utility.yul\":23515:23550   */\n      mstore\n        /* \"#utility.yul\":23330:23557   */\n      pop\n      jump\t// out\n        /* \"#utility.yul\":23563:23792   */\n    tag_364:\n        /* \"#utility.yul\":23703:23737   */\n      0x455243313135353a2061646472657373207a65726f206973206e6f7420612076\n        /* \"#utility.yul\":23699:23700   */\n      0x00\n        /* \"#utility.yul\":23691:23697   */\n      dup3\n        /* \"#utility.yul\":23687:23701   */\n      add\n        /* \"#utility.yul\":23680:23738   */\n      mstore\n        /* \"#utility.yul\":23772:23784   */\n      0x616c6964206f776e657200000000000000000000000000000000000000000000\n        /* \"#utility.yul\":23767:23769   */\n      0x20\n        /* \"#utility.yul\":23759:23765   */\n      dup3\n        /* \"#utility.yul\":23755:23770   */\n      add\n        /* \"#utility.yul\":23748:23785   */\n      mstore\n        /* \"#utility.yul\":23563:23792   */\n      pop\n      jump\t// out\n        /* \"#utility.yul\":23798:24023   */\n    tag_369:\n        /* \"#utility.yul\":23938:23972   */\n      0x746869732046756e6374696f6e206973206f6e6c792063616c6c656420627920\n        /* \"#utility.yul\":23934:23935   */\n      0x00\n        /* \"#utility.yul\":23926:23932   */\n      dup3\n        /* \"#utility.yul\":23922:23936   */\n      add\n        /* \"#utility.yul\":23915:23973   */\n      mstore\n        /* \"#utility.yul\":24007:24015   */\n      0x7365727665720000000000000000000000000000000000000000000000000000\n        /* \"#utility.yul\":24002:24004   */\n      0x20\n        /* \"#utility.yul\":23994:24000   */\n      dup3\n        /* \"#utility.yul\":23990:24005   */\n      add\n        /* \"#utility.yul\":23983:24016   */\n      mstore\n        /* \"#utility.yul\":23798:24023   */\n      pop\n      jump\t// out\n        /* \"#utility.yul\":24029:24253   */\n    tag_374:\n        /* \"#utility.yul\":24169:24203   */\n      0x455243313135353a207472616e7366657220746f20746865207a65726f206164\n        /* \"#utility.yul\":24165:24166   */\n      0x00\n        /* \"#utility.yul\":24157:24163   */\n      dup3\n        /* \"#utility.yul\":24153:24167   */\n      add\n        /* \"#utility.yul\":24146:24204   */\n      mstore\n        /* \"#utility.yul\":24238:24245   */\n      0x6472657373000000000000000000000000000000000000000000000000000000\n        /* \"#utility.yul\":24233:24235   */\n      0x20\n        /* \"#utility.yul\":24225:24231   */\n      dup3\n        /* \"#utility.yul\":24221:24236   */\n      add\n        /* \"#utility.yul\":24214:24246   */\n      mstore\n        /* \"#utility.yul\":24029:24253   */\n      pop\n      jump\t// out\n        /* \"#utility.yul\":24259:24488   */\n    tag_379:\n        /* \"#utility.yul\":24399:24433   */\n      0x455243313135353a20696e73756666696369656e742062616c616e636520666f\n        /* \"#utility.yul\":24395:24396   */\n      0x00\n        /* \"#utility.yul\":24387:24393   */\n      dup3\n        /* \"#utility.yul\":24383:24397   */\n      add\n        /* \"#utility.yul\":24376:24434   */\n      mstore\n        /* \"#utility.yul\":24468:24480   */\n      0x72207472616e7366657200000000000000000000000000000000000000000000\n        /* \"#utility.yul\":24463:24465   */\n      0x20\n        /* \"#utility.yul\":24455:24461   */\n      dup3\n        /* \"#utility.yul\":24451:24466   */\n      add\n        /* \"#utility.yul\":24444:24481   */\n      mstore\n        /* \"#utility.yul\":24259:24488   */\n      pop\n      jump\t// out\n        /* \"#utility.yul\":24494:24714   */\n    tag_384:\n        /* \"#utility.yul\":24634:24668   */\n      0x455243313135353a206d696e7420746f20746865207a65726f20616464726573\n        /* \"#utility.yul\":24630:24631   */\n      0x00\n        /* \"#utility.yul\":24622:24628   */\n      dup3\n        /* \"#utility.yul\":24618:24632   */\n      add\n        /* \"#utility.yul\":24611:24669   */\n      mstore\n        /* \"#utility.yul\":24703:24706   */\n      0x7300000000000000000000000000000000000000000000000000000000000000\n        /* \"#utility.yul\":24698:24700   */\n      0x20\n        /* \"#utility.yul\":24690:24696   */\n      dup3\n        /* \"#utility.yul\":24686:24701   */\n      add\n        /* \"#utility.yul\":24679:24707   */\n      mstore\n        /* \"#utility.yul\":24494:24714   */\n      pop\n      jump\t// out\n        /* \"#utility.yul\":24720:25431   */\n    tag_211:\n        /* \"#utility.yul\":24759:24762   */\n      0x00\n        /* \"#utility.yul\":24797:24801   */\n      0x44\n        /* \"#utility.yul\":24779:24795   */\n      returndatasize\n        /* \"#utility.yul\":24776:24802   */\n      lt\n        /* \"#utility.yul\":24773:24812   */\n      iszero\n      tag_506\n      jumpi\n        /* \"#utility.yul\":24805:24810   */\n      jump(tag_505)\n        /* \"#utility.yul\":24773:24812   */\n    tag_506:\n        /* \"#utility.yul\":24834:24854   */\n      tag_507\n      tag_435\n      jump\t// in\n    tag_507:\n        /* \"#utility.yul\":24909:24910   */\n      0x04\n        /* \"#utility.yul\":24891:24907   */\n      returndatasize\n        /* \"#utility.yul\":24887:24911   */\n      sub\n        /* \"#utility.yul\":24884:24885   */\n      0x04\n        /* \"#utility.yul\":24878:24882   */\n      dup3\n        /* \"#utility.yul\":24863:24912   */\n      returndatacopy\n        /* \"#utility.yul\":24942:24946   */\n      dup1\n        /* \"#utility.yul\":24936:24947   */\n      mload\n        /* \"#utility.yul\":25041:25057   */\n      returndatasize\n        /* \"#utility.yul\":25034:25038   */\n      0x24\n        /* \"#utility.yul\":25026:25032   */\n      dup3\n        /* \"#utility.yul\":25022:25039   */\n      add\n        /* \"#utility.yul\":25019:25058   */\n      gt\n        /* \"#utility.yul\":24986:25004   */\n      0xffffffffffffffff\n        /* \"#utility.yul\":24978:24984   */\n      dup3\n        /* \"#utility.yul\":24975:25005   */\n      gt\n        /* \"#utility.yul\":24959:25072   */\n      or\n        /* \"#utility.yul\":24956:25102   */\n      iszero\n      tag_508\n      jumpi\n        /* \"#utility.yul\":25087:25092   */\n      pop\n      pop\n      jump(tag_505)\n        /* \"#utility.yul\":24956:25102   */\n    tag_508:\n        /* \"#utility.yul\":25133:25139   */\n      dup1\n        /* \"#utility.yul\":25127:25131   */\n      dup3\n        /* \"#utility.yul\":25123:25140   */\n      add\n        /* \"#utility.yul\":25169:25172   */\n      dup1\n        /* \"#utility.yul\":25163:25173   */\n      mload\n        /* \"#utility.yul\":25196:25214   */\n      0xffffffffffffffff\n        /* \"#utility.yul\":25188:25194   */\n      dup2\n        /* \"#utility.yul\":25185:25215   */\n      gt\n        /* \"#utility.yul\":25182:25225   */\n      iszero\n      tag_509\n      jumpi\n        /* \"#utility.yul\":25218:25223   */\n      pop\n      pop\n      pop\n      pop\n      jump(tag_505)\n        /* \"#utility.yul\":25182:25225   */\n    tag_509:\n        /* \"#utility.yul\":25266:25272   */\n      dup1\n        /* \"#utility.yul\":25259:25263   */\n      0x20\n        /* \"#utility.yul\":25254:25257   */\n      dup4\n        /* \"#utility.yul\":25250:25264   */\n      add\n        /* \"#utility.yul\":25246:25273   */\n      add\n        /* \"#utility.yul\":25325:25326   */\n      0x04\n        /* \"#utility.yul\":25307:25323   */\n      returndatasize\n        /* \"#utility.yul\":25303:25327   */\n      sub\n        /* \"#utility.yul\":25297:25301   */\n      dup6\n        /* \"#utility.yul\":25293:25328   */\n      add\n        /* \"#utility.yul\":25288:25291   */\n      dup2\n        /* \"#utility.yul\":25285:25329   */\n      gt\n        /* \"#utility.yul\":25282:25339   */\n      iszero\n      tag_510\n      jumpi\n        /* \"#utility.yul\":25332:25337   */\n      pop\n      pop\n      pop\n      pop\n      pop\n      jump(tag_505)\n        /* \"#utility.yul\":25282:25339   */\n    tag_510:\n        /* \"#utility.yul\":25349:25406   */\n      tag_511\n        /* \"#utility.yul\":25397:25403   */\n      dup3\n        /* \"#utility.yul\":25391:25395   */\n      0x20\n        /* \"#utility.yul\":25387:25404   */\n      add\n        /* \"#utility.yul\":25379:25385   */\n      dup6\n        /* \"#utility.yul\":25375:25405   */\n      add\n        /* \"#utility.yul\":25369:25373   */\n      dup7\n        /* \"#utility.yul\":25349:25406   */\n      tag_437\n      jump\t// in\n    tag_511:\n        /* \"#utility.yul\":25422:25425   */\n      dup3\n        /* \"#utility.yul\":25415:25425   */\n      swap6\n      pop\n        /* \"#utility.yul\":24763:25431   */\n      pop\n      pop\n      pop\n      pop\n      pop\n        /* \"#utility.yul\":24720:25431   */\n    tag_505:\n      swap1\n      jump\t// out\n        /* \"#utility.yul\":25437:25559   */\n    tag_237:\n        /* \"#utility.yul\":25510:25534   */\n      tag_513\n        /* \"#utility.yul\":25528:25533   */\n      dup2\n        /* \"#utility.yul\":25510:25534   */\n      tag_308\n      jump\t// in\n    tag_513:\n        /* \"#utility.yul\":25503:25508   */\n      dup2\n        /* \"#utility.yul\":25500:25535   */\n      eq\n        /* \"#utility.yul\":25490:25553   */\n      tag_514\n      jumpi\n        /* \"#utility.yul\":25549:25550   */\n      0x00\n        /* \"#utility.yul\":25546:25547   */\n      dup1\n        /* \"#utility.yul\":25539:25551   */\n      revert\n        /* \"#utility.yul\":25490:25553   */\n    tag_514:\n        /* \"#utility.yul\":25437:25559   */\n      pop\n      jump\t// out\n        /* \"#utility.yul\":25565:25681   */\n    tag_241:\n        /* \"#utility.yul\":25635:25656   */\n      tag_516\n        /* \"#utility.yul\":25650:25655   */\n      dup2\n        /* \"#utility.yul\":25635:25656   */\n      tag_326\n      jump\t// in\n    tag_516:\n        /* \"#utility.yul\":25628:25633   */\n      dup2\n        /* \"#utility.yul\":25625:25657   */\n      eq\n        /* \"#utility.yul\":25615:25675   */\n      tag_517\n      jumpi\n        /* \"#utility.yul\":25671:25672   */\n      0x00\n        /* \"#utility.yul\":25668:25669   */\n      dup1\n        /* \"#utility.yul\":25661:25673   */\n      revert\n        /* \"#utility.yul\":25615:25675   */\n    tag_517:\n        /* \"#utility.yul\":25565:25681   */\n      pop\n      jump\t// out\n        /* \"#utility.yul\":25687:25807   */\n    tag_245:\n        /* \"#utility.yul\":25759:25782   */\n      tag_519\n        /* \"#utility.yul\":25776:25781   */\n      dup2\n        /* \"#utility.yul\":25759:25782   */\n      tag_466\n      jump\t// in\n    tag_519:\n        /* \"#utility.yul\":25752:25757   */\n      dup2\n        /* \"#utility.yul\":25749:25783   */\n      eq\n        /* \"#utility.yul\":25739:25801   */\n      tag_520\n      jumpi\n        /* \"#utility.yul\":25797:25798   */\n      0x00\n        /* \"#utility.yul\":25794:25795   */\n      dup1\n        /* \"#utility.yul\":25787:25799   */\n      revert\n        /* \"#utility.yul\":25739:25801   */\n    tag_520:\n        /* \"#utility.yul\":25687:25807   */\n      pop\n      jump\t// out\n        /* \"#utility.yul\":25813:25935   */\n    tag_255:\n        /* \"#utility.yul\":25886:25910   */\n      tag_522\n        /* \"#utility.yul\":25904:25909   */\n      dup2\n        /* \"#utility.yul\":25886:25910   */\n      tag_387\n      jump\t// in\n    tag_522:\n        /* \"#utility.yul\":25879:25884   */\n      dup2\n        /* \"#utility.yul\":25876:25911   */\n      eq\n        /* \"#utility.yul\":25866:25929   */\n      tag_523\n      jumpi\n        /* \"#utility.yul\":25925:25926   */\n      0x00\n        /* \"#utility.yul\":25922:25923   */\n      dup1\n        /* \"#utility.yul\":25915:25927   */\n      revert\n        /* \"#utility.yul\":25866:25929   */\n    tag_523:\n        /* \"#utility.yul\":25813:25935   */\n      pop\n      jump\t// out\n\n    auxdata: 0xa2646970667358221220d6a0a912d1368b0bba672a8cb755bee01851f69a10f49b3364ea71dbe089377964736f6c63430008070033\n}\n",
				"bytecode": {
					"linkReferences": {},
					"object": "60806040523480156200001157600080fd5b5033600260006101000a81548173ffffffffffffffffffffffffffffffffffffffff021916908373ffffffffffffffffffffffffffffffffffffffff1602179055506200006760016064620000d060201b60201c565b6200007b60026032620000d060201b60201c565b6200008f60036021620000d060201b60201c565b620000a360056014620000d060201b60201c565b620000b6600a80620000d060201b60201c565b620000ca60146005620000d060201b60201c565b62000d94565b600260009054906101000a900473ffffffffffffffffffffffffffffffffffffffff1673ffffffffffffffffffffffffffffffffffffffff163373ffffffffffffffffffffffffffffffffffffffff1614806200015857503073ffffffffffffffffffffffffffffffffffffffff163373ffffffffffffffffffffffffffffffffffffffff16145b6200019a576040517f08c379a00000000000000000000000000000000000000000000000000000000081526004016200019190620008e1565b60405180910390fd5b620001bd30838360405180602001604052806000815250620001f960201b60201c565b806003600084815260200190815260200160002054620001de919062000994565b60036000848152602001908152602001600020819055505050565b600073ffffffffffffffffffffffffffffffffffffffff168473ffffffffffffffffffffffffffffffffffffffff1614156200026c576040517f08c379a0000000000000000000000000000000000000000000000000000000008152600401620002639062000903565b60405180910390fd5b60006200027e620003e160201b60201c565b905060006200029385620003e960201b60201c565b90506000620002a885620003e960201b60201c565b9050620002c1836000898585896200046a60201b60201c565b8460008088815260200190815260200160002060008973ffffffffffffffffffffffffffffffffffffffff1673ffffffffffffffffffffffffffffffffffffffff168152602001908152602001600020600082825462000322919062000994565b925050819055508673ffffffffffffffffffffffffffffffffffffffff16600073ffffffffffffffffffffffffffffffffffffffff168473ffffffffffffffffffffffffffffffffffffffff167fc3d58168c5ae7397731d063d5bbf3d657854427343f4c083240f7aacaa2d0f628989604051620003a292919062000925565b60405180910390a4620003c1836000898585896200047260201b60201c565b620003d8836000898989896200047a60201b60201c565b50505050505050565b600033905090565b60606000600167ffffffffffffffff8111156200040b576200040a62000b25565b5b6040519080825280602002602001820160405280156200043a5781602001602082028036833780820191505090505b509050828160008151811062000455576200045462000af6565b5b60200260200101818152505080915050919050565b505050505050565b505050505050565b6200048b846200066960201b60201c565b1562000661578373ffffffffffffffffffffffffffffffffffffffff1663f23a6e6187878686866040518663ffffffff1660e01b8152600401620004d495949392919062000815565b602060405180830381600087803b158015620004ef57600080fd5b505af19250505080156200052357506040513d601f19601f82011682018060405250810190620005209190620006a3565b60015b620005d5576200053262000b54565b806308c379a014156200059657506200054a62000cd8565b8062000557575062000598565b806040517f08c379a00000000000000000000000000000000000000000000000000000000081526004016200058d919062000879565b60405180910390fd5b505b6040517f08c379a0000000000000000000000000000000000000000000000000000000008152600401620005cc906200089d565b60405180910390fd5b63f23a6e6160e01b7bffffffffffffffffffffffffffffffffffffffffffffffffffffffff1916817bffffffffffffffffffffffffffffffffffffffffffffffffffffffff1916146200065f576040517f08c379a00000000000000000000000000000000000000000000000000000000081526004016200065690620008bf565b60405180910390fd5b505b505050505050565b6000808273ffffffffffffffffffffffffffffffffffffffff163b119050919050565b6000815190506200069d8162000d7a565b92915050565b600060208284031215620006bc57620006bb62000b79565b5b6000620006cc848285016200068c565b91505092915050565b620006e081620009f1565b82525050565b6000620006f3826200095c565b620006ff818562000972565b93506200071181856020860162000a5b565b6200071c8162000b7e565b840191505092915050565b6000620007348262000967565b62000740818562000983565b93506200075281856020860162000a5b565b6200075d8162000b7e565b840191505092915050565b60006200077760348362000983565b9150620007848262000b9c565b604082019050919050565b60006200079e60288362000983565b9150620007ab8262000beb565b604082019050919050565b6000620007c560268362000983565b9150620007d28262000c3a565b604082019050919050565b6000620007ec60218362000983565b9150620007f98262000c89565b604082019050919050565b6200080f8162000a51565b82525050565b600060a0820190506200082c6000830188620006d5565b6200083b6020830187620006d5565b6200084a604083018662000804565b62000859606083018562000804565b81810360808301526200086d8184620006e6565b90509695505050505050565b6000602082019050818103600083015262000895818462000727565b905092915050565b60006020820190508181036000830152620008b88162000768565b9050919050565b60006020820190508181036000830152620008da816200078f565b9050919050565b60006020820190508181036000830152620008fc81620007b6565b9050919050565b600060208201905081810360008301526200091e81620007dd565b9050919050565b60006040820190506200093c600083018562000804565b6200094b602083018462000804565b9392505050565b6000604051905090565b600081519050919050565b600081519050919050565b600082825260208201905092915050565b600082825260208201905092915050565b6000620009a18262000a51565b9150620009ae8362000a51565b9250827fffffffffffffffffffffffffffffffffffffffffffffffffffffffffffffffff03821115620009e657620009e562000ac7565b5b828201905092915050565b6000620009fe8262000a31565b9050919050565b60007fffffffff0000000000000000000000000000000000000000000000000000000082169050919050565b600073ffffffffffffffffffffffffffffffffffffffff82169050919050565b6000819050919050565b60005b8381101562000a7b57808201518184015260208101905062000a5e565b8381111562000a8b576000848401525b50505050565b62000a9c8262000b7e565b810181811067ffffffffffffffff8211171562000abe5762000abd62000b25565b5b80604052505050565b7f4e487b7100000000000000000000000000000000000000000000000000000000600052601160045260246000fd5b7f4e487b7100000000000000000000000000000000000000000000000000000000600052603260045260246000fd5b7f4e487b7100000000000000000000000000000000000000000000000000000000600052604160045260246000fd5b600060033d111562000b765760046000803e62000b7360005162000b8f565b90505b90565b600080fd5b6000601f19601f8301169050919050565b60008160e01c9050919050565b7f455243313135353a207472616e7366657220746f206e6f6e204552433131353560008201527f526563656976657220696d706c656d656e746572000000000000000000000000602082015250565b7f455243313135353a204552433131353552656365697665722072656a6563746560008201527f6420746f6b656e73000000000000000000000000000000000000000000000000602082015250565b7f746869732046756e6374696f6e206973206f6e6c792063616c6c65642062792060008201527f7365727665720000000000000000000000000000000000000000000000000000602082015250565b7f455243313135353a206d696e7420746f20746865207a65726f2061646472657360008201527f7300000000000000000000000000000000000000000000000000000000000000602082015250565b600060443d101562000cea5762000d77565b62000cf462000952565b60043d036004823e80513d602482011167ffffffffffffffff8211171562000d1e57505062000d77565b808201805167ffffffffffffffff81111562000d3e575050505062000d77565b80602083010160043d03850181111562000d5d57505050505062000d77565b62000d6e8260200185018662000a91565b82955050505050505b90565b62000d858162000a05565b811462000d9157600080fd5b50565b611fed8062000da46000396000f3fe6080604052600436106100905760003560e01c806359bc9c291161005957806359bc9c29146101825780639bb7e310146101bf578063e9207304146101fc578063ef3975fd14610227578063f242432a1461025257610090565b8062fdd58e1461009557806322a22ec3146100d2578063242fd022146100fd5780633adaa53d1461012d57806357e8757514610159575b600080fd5b3480156100a157600080fd5b506100bc60048036038101906100b791906112bb565b61027b565b6040516100c991906118a7565b60405180910390f35b3480156100de57600080fd5b506100e7610344565b6040516100f491906118a7565b60405180910390f35b610117600480360381019061011291906113c2565b6103be565b604051610124919061176a565b60405180910390f35b34801561013957600080fd5b506101426104ca565b604051610150929190611733565b60405180910390f35b34801561016557600080fd5b50610180600480360381019061017b9190611382565b610633565b005b34801561018e57600080fd5b506101a960048036038101906101a49190611355565b61074e565b6040516101b691906118a7565b60405180910390f35b3480156101cb57600080fd5b506101e660048036038101906101e191906111f7565b61076b565b6040516101f39190611665565b60405180910390f35b34801561020857600080fd5b50610211610868565b60405161021e9190611665565b60405180910390f35b34801561023357600080fd5b5061023c610892565b6040516102499190611711565b60405180910390f35b34801561025e57600080fd5b5061027960048036038101906102749190611224565b610967565b005b60008073ffffffffffffffffffffffffffffffffffffffff168373ffffffffffffffffffffffffffffffffffffffff1614156102ec576040517f08c379a00000000000000000000000000000000000000000000000000000000081526004016102e390611807565b60405180910390fd5b60008083815260200190815260200160002060008473ffffffffffffffffffffffffffffffffffffffff1673ffffffffffffffffffffffffffffffffffffffff16815260200190815260200160002054905092915050565b6000806000905060005b606481116103b657600060036000838152602001908152602001600020541415610377576103a3565b60006003600083815260200190815260200160002054146103a25760018261039f91906119b2565b91505b5b80806103ae90611b23565b91505061034e565b508091505090565b60008173ffffffffffffffffffffffffffffffffffffffff1663e12163d633600260009054906101000a900473ffffffffffffffffffffffffffffffffffffffff16866040518463ffffffff1660e01b815260040161041f93929190611680565b602060405180830381600087803b15801561043957600080fd5b505af115801561044d573d6000803e3d6000fd5b505050506040513d601f19601f8201168201806040525081019061047191906112fb565b506104b4303387876040518060400160405280600481526020017f3078303000000000000000000000000000000000000000000000000000000000815250610967565b6104be8585610a26565b60019050949350505050565b60608060006104d7610344565b905060006104e3610892565b905060008267ffffffffffffffff81111561050157610500611bca565b5b60405190808252806020026020018201604052801561052f5781602001602082028036833780820191505090505b50905060008367ffffffffffffffff81111561054e5761054d611bca565b5b60405190808252806020026020018201604052801561057c5781602001602082028036833780820191505090505b50905060005b848110156106245783818151811061059d5761059c611b9b565b5b60200260200101518382815181106105b8576105b7611b9b565b5b602002602001018181525050600360008583815181106105db576105da611b9b565b5b602002602001015181526020019081526020016000205482828151811061060557610604611b9b565b5b602002602001018181525050808061061c90611b23565b915050610582565b50818195509550505050509091565b600260009054906101000a900473ffffffffffffffffffffffffffffffffffffffff1673ffffffffffffffffffffffffffffffffffffffff163373ffffffffffffffffffffffffffffffffffffffff1614806106ba57503073ffffffffffffffffffffffffffffffffffffffff163373ffffffffffffffffffffffffffffffffffffffff16145b6106f9576040517f08c379a00000000000000000000000000000000000000000000000000000000081526004016106f090611827565b60405180910390fd5b61071430838360405180602001604052806000815250610a60565b80600360008481526020019081526020016000205461073391906119b2565b60036000848152602001908152602001600020819055505050565b600060036000838152602001908152602001600020549050919050565b6000600260009054906101000a900473ffffffffffffffffffffffffffffffffffffffff1673ffffffffffffffffffffffffffffffffffffffff163373ffffffffffffffffffffffffffffffffffffffff16146107fd576040517f08c379a00000000000000000000000000000000000000000000000000000000081526004016107f490611827565b60405180910390fd5b81600260006101000a81548173ffffffffffffffffffffffffffffffffffffffff021916908373ffffffffffffffffffffffffffffffffffffffff160217905550600260009054906101000a900473ffffffffffffffffffffffffffffffffffffffff169050919050565b6000600260009054906101000a900473ffffffffffffffffffffffffffffffffffffffff16905090565b6060600061089e610344565b90506000808267ffffffffffffffff8111156108bd576108bc611bca565b5b6040519080825280602002602001820160405280156108eb5781602001602082028036833780820191505090505b50905060005b6064811161095d5760006003600083815260200190815260200160002054141561091a5761094a565b8082848151811061092e5761092d611b9b565b5b60200260200101818152505060018361094791906119b2565b92505b808061095590611b23565b9150506108f1565b5080935050505090565b61096f610c11565b73ffffffffffffffffffffffffffffffffffffffff168573ffffffffffffffffffffffffffffffffffffffff1614806109d357503073ffffffffffffffffffffffffffffffffffffffff168573ffffffffffffffffffffffffffffffffffffffff16145b610a12576040517f08c379a0000000000000000000000000000000000000000000000000000000008152600401610a09906117c7565b60405180910390fd5b610a1f8585858585610c19565b5050505050565b806003600084815260200190815260200160002054610a459190611a08565b60036000848152602001908152602001600020819055505050565b600073ffffffffffffffffffffffffffffffffffffffff168473ffffffffffffffffffffffffffffffffffffffff161415610ad0576040517f08c379a0000000000000000000000000000000000000000000000000000000008152600401610ac790611887565b60405180910390fd5b6000610ada610c11565b90506000610ae785610eb5565b90506000610af485610eb5565b9050610b0583600089858589610f2f565b8460008088815260200190815260200160002060008973ffffffffffffffffffffffffffffffffffffffff1673ffffffffffffffffffffffffffffffffffffffff1681526020019081526020016000206000828254610b6491906119b2565b925050819055508673ffffffffffffffffffffffffffffffffffffffff16600073ffffffffffffffffffffffffffffffffffffffff168473ffffffffffffffffffffffffffffffffffffffff167fc3d58168c5ae7397731d063d5bbf3d657854427343f4c083240f7aacaa2d0f628989604051610be29291906118c2565b60405180910390a4610bf983600089858589610f37565b610c0883600089898989610f3f565b50505050505050565b600033905090565b600073ffffffffffffffffffffffffffffffffffffffff168473ffffffffffffffffffffffffffffffffffffffff161415610c89576040517f08c379a0000000000000000000000000000000000000000000000000000000008152600401610c8090611847565b60405180910390fd5b6000610c93610c11565b90506000610ca085610eb5565b90506000610cad85610eb5565b9050610cbd838989858589610f2f565b600080600088815260200190815260200160002060008a73ffffffffffffffffffffffffffffffffffffffff1673ffffffffffffffffffffffffffffffffffffffff16815260200190815260200160002054905085811015610d54576040517f08c379a0000000000000000000000000000000000000000000000000000000008152600401610d4b90611867565b60405180910390fd5b85810360008089815260200190815260200160002060008b73ffffffffffffffffffffffffffffffffffffffff1673ffffffffffffffffffffffffffffffffffffffff168152602001908152602001600020819055508560008089815260200190815260200160002060008a73ffffffffffffffffffffffffffffffffffffffff1673ffffffffffffffffffffffffffffffffffffffff1681526020019081526020016000206000828254610e0991906119b2565b925050819055508773ffffffffffffffffffffffffffffffffffffffff168973ffffffffffffffffffffffffffffffffffffffff168573ffffffffffffffffffffffffffffffffffffffff167fc3d58168c5ae7397731d063d5bbf3d657854427343f4c083240f7aacaa2d0f628a8a604051610e869291906118c2565b60405180910390a4610e9c848a8a86868a610f37565b610eaa848a8a8a8a8a610f3f565b505050505050505050565b60606000600167ffffffffffffffff811115610ed457610ed3611bca565b5b604051908082528060200260200182016040528015610f025781602001602082028036833780820191505090505b5090508281600081518110610f1a57610f19611b9b565b5b60200260200101818152505080915050919050565b505050505050565b505050505050565b610f4884611110565b15611108578373ffffffffffffffffffffffffffffffffffffffff1663f23a6e6187878686866040518663ffffffff1660e01b8152600401610f8e9594939291906116b7565b602060405180830381600087803b158015610fa857600080fd5b505af1925050508015610fd957506040513d601f19601f82011682018060405250810190610fd69190611328565b60015b61107f57610fe5611bf9565b806308c379a014156110425750610ffa611ec5565b806110055750611044565b806040517f08c379a00000000000000000000000000000000000000000000000000000000081526004016110399190611785565b60405180910390fd5b505b6040517f08c379a0000000000000000000000000000000000000000000000000000000008152600401611076906117a7565b60405180910390fd5b63f23a6e6160e01b7bffffffffffffffffffffffffffffffffffffffffffffffffffffffff1916817bffffffffffffffffffffffffffffffffffffffffffffffffffffffff191614611106576040517f08c379a00000000000000000000000000000000000000000000000000000000081526004016110fd906117e7565b60405180910390fd5b505b505050505050565b6000808273ffffffffffffffffffffffffffffffffffffffff163b119050919050565b600061114661114184611910565b6118eb565b90508281526020810184848401111561116257611161611c20565b5b61116d848285611ab0565b509392505050565b60008135905061118481611f5b565b92915050565b60008151905061119981611f72565b92915050565b6000815190506111ae81611f89565b92915050565b600082601f8301126111c9576111c8611c1b565b5b81356111d9848260208601611133565b91505092915050565b6000813590506111f181611fa0565b92915050565b60006020828403121561120d5761120c611c2a565b5b600061121b84828501611175565b91505092915050565b600080600080600060a086880312156112405761123f611c2a565b5b600061124e88828901611175565b955050602061125f88828901611175565b9450506040611270888289016111e2565b9350506060611281888289016111e2565b925050608086013567ffffffffffffffff8111156112a2576112a1611c25565b5b6112ae888289016111b4565b9150509295509295909350565b600080604083850312156112d2576112d1611c2a565b5b60006112e085828601611175565b92505060206112f1858286016111e2565b9150509250929050565b60006020828403121561131157611310611c2a565b5b600061131f8482850161118a565b91505092915050565b60006020828403121561133e5761133d611c2a565b5b600061134c8482850161119f565b91505092915050565b60006020828403121561136b5761136a611c2a565b5b6000611379848285016111e2565b91505092915050565b6000806040838503121561139957611398611c2a565b5b60006113a7858286016111e2565b92505060206113b8858286016111e2565b9150509250929050565b600080600080608085870312156113dc576113db611c2a565b5b60006113ea878288016111e2565b94505060206113fb878288016111e2565b935050604061140c878288016111e2565b925050606061141d87828801611175565b91505092959194509250565b60006114358383611647565b60208301905092915050565b61144a81611a3c565b82525050565b600061145b82611951565b611465818561197f565b935061147083611941565b8060005b838110156114a15781516114888882611429565b975061149383611972565b925050600181019050611474565b5085935050505092915050565b6114b781611a4e565b82525050565b60006114c88261195c565b6114d28185611990565b93506114e2818560208601611abf565b6114eb81611c2f565b840191505092915050565b600061150182611967565b61150b81856119a1565b935061151b818560208601611abf565b61152481611c2f565b840191505092915050565b600061153c6034836119a1565b915061154782611c4d565b604082019050919050565b600061155f602f836119a1565b915061156a82611c9c565b604082019050919050565b60006115826028836119a1565b915061158d82611ceb565b604082019050919050565b60006115a5602a836119a1565b91506115b082611d3a565b604082019050919050565b60006115c86026836119a1565b91506115d382611d89565b604082019050919050565b60006115eb6025836119a1565b91506115f682611dd8565b604082019050919050565b600061160e602a836119a1565b915061161982611e27565b604082019050919050565b60006116316021836119a1565b915061163c82611e76565b604082019050919050565b61165081611aa6565b82525050565b61165f81611aa6565b82525050565b600060208201905061167a6000830184611441565b92915050565b60006060820190506116956000830186611441565b6116a26020830185611441565b6116af6040830184611656565b949350505050565b600060a0820190506116cc6000830188611441565b6116d96020830187611441565b6116e66040830186611656565b6116f36060830185611656565b818103608083015261170581846114bd565b90509695505050505050565b6000602082019050818103600083015261172b8184611450565b905092915050565b6000604082019050818103600083015261174d8185611450565b905081810360208301526117618184611450565b90509392505050565b600060208201905061177f60008301846114ae565b92915050565b6000602082019050818103600083015261179f81846114f6565b905092915050565b600060208201905081810360008301526117c08161152f565b9050919050565b600060208201905081810360008301526117e081611552565b9050919050565b6000602082019050818103600083015261180081611575565b9050919050565b6000602082019050818103600083015261182081611598565b9050919050565b60006020820190508181036000830152611840816115bb565b9050919050565b60006020820190508181036000830152611860816115de565b9050919050565b6000602082019050818103600083015261188081611601565b9050919050565b600060208201905081810360008301526118a081611624565b9050919050565b60006020820190506118bc6000830184611656565b92915050565b60006040820190506118d76000830185611656565b6118e46020830184611656565b9392505050565b60006118f5611906565b90506119018282611af2565b919050565b6000604051905090565b600067ffffffffffffffff82111561192b5761192a611bca565b5b61193482611c2f565b9050602081019050919050565b6000819050602082019050919050565b600081519050919050565b600081519050919050565b600081519050919050565b6000602082019050919050565b600082825260208201905092915050565b600082825260208201905092915050565b600082825260208201905092915050565b60006119bd82611aa6565b91506119c883611aa6565b9250827fffffffffffffffffffffffffffffffffffffffffffffffffffffffffffffffff038211156119fd576119fc611b6c565b5b828201905092915050565b6000611a1382611aa6565b9150611a1e83611aa6565b925082821015611a3157611a30611b6c565b5b828203905092915050565b6000611a4782611a86565b9050919050565b60008115159050919050565b60007fffffffff0000000000000000000000000000000000000000000000000000000082169050919050565b600073ffffffffffffffffffffffffffffffffffffffff82169050919050565b6000819050919050565b82818337600083830152505050565b60005b83811015611add578082015181840152602081019050611ac2565b83811115611aec576000848401525b50505050565b611afb82611c2f565b810181811067ffffffffffffffff82111715611b1a57611b19611bca565b5b80604052505050565b6000611b2e82611aa6565b91507fffffffffffffffffffffffffffffffffffffffffffffffffffffffffffffffff821415611b6157611b60611b6c565b5b600182019050919050565b7f4e487b7100000000000000000000000000000000000000000000000000000000600052601160045260246000fd5b7f4e487b7100000000000000000000000000000000000000000000000000000000600052603260045260246000fd5b7f4e487b7100000000000000000000000000000000000000000000000000000000600052604160045260246000fd5b600060033d1115611c185760046000803e611c15600051611c40565b90505b90565b600080fd5b600080fd5b600080fd5b600080fd5b6000601f19601f8301169050919050565b60008160e01c9050919050565b7f455243313135353a207472616e7366657220746f206e6f6e204552433131353560008201527f526563656976657220696d706c656d656e746572000000000000000000000000602082015250565b7f455243313135353a2063616c6c6572206973206e6f7420746f6b656e206f776e60008201527f6572206e6f7220617070726f7665640000000000000000000000000000000000602082015250565b7f455243313135353a204552433131353552656365697665722072656a6563746560008201527f6420746f6b656e73000000000000000000000000000000000000000000000000602082015250565b7f455243313135353a2061646472657373207a65726f206973206e6f742061207660008201527f616c6964206f776e657200000000000000000000000000000000000000000000602082015250565b7f746869732046756e6374696f6e206973206f6e6c792063616c6c65642062792060008201527f7365727665720000000000000000000000000000000000000000000000000000602082015250565b7f455243313135353a207472616e7366657220746f20746865207a65726f20616460008201527f6472657373000000000000000000000000000000000000000000000000000000602082015250565b7f455243313135353a20696e73756666696369656e742062616c616e636520666f60008201527f72207472616e7366657200000000000000000000000000000000000000000000602082015250565b7f455243313135353a206d696e7420746f20746865207a65726f2061646472657360008201527f7300000000000000000000000000000000000000000000000000000000000000602082015250565b600060443d1015611ed557611f58565b611edd611906565b60043d036004823e80513d602482011167ffffffffffffffff82111715611f05575050611f58565b808201805167ffffffffffffffff811115611f235750505050611f58565b80602083010160043d038501811115611f40575050505050611f58565b611f4f82602001850186611af2565b82955050505050505b90565b611f6481611a3c565b8114611f6f57600080fd5b50565b611f7b81611a4e565b8114611f8657600080fd5b50565b611f9281611a5a565b8114611f9d57600080fd5b50565b611fa981611aa6565b8114611fb457600080fd5b5056fea2646970667358221220d6a0a912d1368b0bba672a8cb755bee01851f69a10f49b3364ea71dbe089377964736f6c63430008070033",
					"opcodes": "PUSH1 0x80 PUSH1 0x40 MSTORE CALLVALUE DUP1 ISZERO PUSH3 0x11 JUMPI PUSH1 0x0 DUP1 REVERT JUMPDEST POP CALLER PUSH1 0x2 PUSH1 0x0 PUSH2 0x100 EXP DUP2 SLOAD DUP2 PUSH20 0xFFFFFFFFFFFFFFFFFFFFFFFFFFFFFFFFFFFFFFFF MUL NOT AND SWAP1 DUP4 PUSH20 0xFFFFFFFFFFFFFFFFFFFFFFFFFFFFFFFFFFFFFFFF AND MUL OR SWAP1 SSTORE POP PUSH3 0x67 PUSH1 0x1 PUSH1 0x64 PUSH3 0xD0 PUSH1 0x20 SHL PUSH1 0x20 SHR JUMP JUMPDEST PUSH3 0x7B PUSH1 0x2 PUSH1 0x32 PUSH3 0xD0 PUSH1 0x20 SHL PUSH1 0x20 SHR JUMP JUMPDEST PUSH3 0x8F PUSH1 0x3 PUSH1 0x21 PUSH3 0xD0 PUSH1 0x20 SHL PUSH1 0x20 SHR JUMP JUMPDEST PUSH3 0xA3 PUSH1 0x5 PUSH1 0x14 PUSH3 0xD0 PUSH1 0x20 SHL PUSH1 0x20 SHR JUMP JUMPDEST PUSH3 0xB6 PUSH1 0xA DUP1 PUSH3 0xD0 PUSH1 0x20 SHL PUSH1 0x20 SHR JUMP JUMPDEST PUSH3 0xCA PUSH1 0x14 PUSH1 0x5 PUSH3 0xD0 PUSH1 0x20 SHL PUSH1 0x20 SHR JUMP JUMPDEST PUSH3 0xD94 JUMP JUMPDEST PUSH1 0x2 PUSH1 0x0 SWAP1 SLOAD SWAP1 PUSH2 0x100 EXP SWAP1 DIV PUSH20 0xFFFFFFFFFFFFFFFFFFFFFFFFFFFFFFFFFFFFFFFF AND PUSH20 0xFFFFFFFFFFFFFFFFFFFFFFFFFFFFFFFFFFFFFFFF AND CALLER PUSH20 0xFFFFFFFFFFFFFFFFFFFFFFFFFFFFFFFFFFFFFFFF AND EQ DUP1 PUSH3 0x158 JUMPI POP ADDRESS PUSH20 0xFFFFFFFFFFFFFFFFFFFFFFFFFFFFFFFFFFFFFFFF AND CALLER PUSH20 0xFFFFFFFFFFFFFFFFFFFFFFFFFFFFFFFFFFFFFFFF AND EQ JUMPDEST PUSH3 0x19A JUMPI PUSH1 0x40 MLOAD PUSH32 0x8C379A000000000000000000000000000000000000000000000000000000000 DUP2 MSTORE PUSH1 0x4 ADD PUSH3 0x191 SWAP1 PUSH3 0x8E1 JUMP JUMPDEST PUSH1 0x40 MLOAD DUP1 SWAP2 SUB SWAP1 REVERT JUMPDEST PUSH3 0x1BD ADDRESS DUP4 DUP4 PUSH1 0x40 MLOAD DUP1 PUSH1 0x20 ADD PUSH1 0x40 MSTORE DUP1 PUSH1 0x0 DUP2 MSTORE POP PUSH3 0x1F9 PUSH1 0x20 SHL PUSH1 0x20 SHR JUMP JUMPDEST DUP1 PUSH1 0x3 PUSH1 0x0 DUP5 DUP2 MSTORE PUSH1 0x20 ADD SWAP1 DUP2 MSTORE PUSH1 0x20 ADD PUSH1 0x0 KECCAK256 SLOAD PUSH3 0x1DE SWAP2 SWAP1 PUSH3 0x994 JUMP JUMPDEST PUSH1 0x3 PUSH1 0x0 DUP5 DUP2 MSTORE PUSH1 0x20 ADD SWAP1 DUP2 MSTORE PUSH1 0x20 ADD PUSH1 0x0 KECCAK256 DUP2 SWAP1 SSTORE POP POP POP JUMP JUMPDEST PUSH1 0x0 PUSH20 0xFFFFFFFFFFFFFFFFFFFFFFFFFFFFFFFFFFFFFFFF AND DUP5 PUSH20 0xFFFFFFFFFFFFFFFFFFFFFFFFFFFFFFFFFFFFFFFF AND EQ ISZERO PUSH3 0x26C JUMPI PUSH1 0x40 MLOAD PUSH32 0x8C379A000000000000000000000000000000000000000000000000000000000 DUP2 MSTORE PUSH1 0x4 ADD PUSH3 0x263 SWAP1 PUSH3 0x903 JUMP JUMPDEST PUSH1 0x40 MLOAD DUP1 SWAP2 SUB SWAP1 REVERT JUMPDEST PUSH1 0x0 PUSH3 0x27E PUSH3 0x3E1 PUSH1 0x20 SHL PUSH1 0x20 SHR JUMP JUMPDEST SWAP1 POP PUSH1 0x0 PUSH3 0x293 DUP6 PUSH3 0x3E9 PUSH1 0x20 SHL PUSH1 0x20 SHR JUMP JUMPDEST SWAP1 POP PUSH1 0x0 PUSH3 0x2A8 DUP6 PUSH3 0x3E9 PUSH1 0x20 SHL PUSH1 0x20 SHR JUMP JUMPDEST SWAP1 POP PUSH3 0x2C1 DUP4 PUSH1 0x0 DUP10 DUP6 DUP6 DUP10 PUSH3 0x46A PUSH1 0x20 SHL PUSH1 0x20 SHR JUMP JUMPDEST DUP5 PUSH1 0x0 DUP1 DUP9 DUP2 MSTORE PUSH1 0x20 ADD SWAP1 DUP2 MSTORE PUSH1 0x20 ADD PUSH1 0x0 KECCAK256 PUSH1 0x0 DUP10 PUSH20 0xFFFFFFFFFFFFFFFFFFFFFFFFFFFFFFFFFFFFFFFF AND PUSH20 0xFFFFFFFFFFFFFFFFFFFFFFFFFFFFFFFFFFFFFFFF AND DUP2 MSTORE PUSH1 0x20 ADD SWAP1 DUP2 MSTORE PUSH1 0x20 ADD PUSH1 0x0 KECCAK256 PUSH1 0x0 DUP3 DUP3 SLOAD PUSH3 0x322 SWAP2 SWAP1 PUSH3 0x994 JUMP JUMPDEST SWAP3 POP POP DUP2 SWAP1 SSTORE POP DUP7 PUSH20 0xFFFFFFFFFFFFFFFFFFFFFFFFFFFFFFFFFFFFFFFF AND PUSH1 0x0 PUSH20 0xFFFFFFFFFFFFFFFFFFFFFFFFFFFFFFFFFFFFFFFF AND DUP5 PUSH20 0xFFFFFFFFFFFFFFFFFFFFFFFFFFFFFFFFFFFFFFFF AND PUSH32 0xC3D58168C5AE7397731D063D5BBF3D657854427343F4C083240F7AACAA2D0F62 DUP10 DUP10 PUSH1 0x40 MLOAD PUSH3 0x3A2 SWAP3 SWAP2 SWAP1 PUSH3 0x925 JUMP JUMPDEST PUSH1 0x40 MLOAD DUP1 SWAP2 SUB SWAP1 LOG4 PUSH3 0x3C1 DUP4 PUSH1 0x0 DUP10 DUP6 DUP6 DUP10 PUSH3 0x472 PUSH1 0x20 SHL PUSH1 0x20 SHR JUMP JUMPDEST PUSH3 0x3D8 DUP4 PUSH1 0x0 DUP10 DUP10 DUP10 DUP10 PUSH3 0x47A PUSH1 0x20 SHL PUSH1 0x20 SHR JUMP JUMPDEST POP POP POP POP POP POP POP JUMP JUMPDEST PUSH1 0x0 CALLER SWAP1 POP SWAP1 JUMP JUMPDEST PUSH1 0x60 PUSH1 0x0 PUSH1 0x1 PUSH8 0xFFFFFFFFFFFFFFFF DUP2 GT ISZERO PUSH3 0x40B JUMPI PUSH3 0x40A PUSH3 0xB25 JUMP JUMPDEST JUMPDEST PUSH1 0x40 MLOAD SWAP1 DUP1 DUP3 MSTORE DUP1 PUSH1 0x20 MUL PUSH1 0x20 ADD DUP3 ADD PUSH1 0x40 MSTORE DUP1 ISZERO PUSH3 0x43A JUMPI DUP2 PUSH1 0x20 ADD PUSH1 0x20 DUP3 MUL DUP1 CALLDATASIZE DUP4 CALLDATACOPY DUP1 DUP3 ADD SWAP2 POP POP SWAP1 POP JUMPDEST POP SWAP1 POP DUP3 DUP2 PUSH1 0x0 DUP2 MLOAD DUP2 LT PUSH3 0x455 JUMPI PUSH3 0x454 PUSH3 0xAF6 JUMP JUMPDEST JUMPDEST PUSH1 0x20 MUL PUSH1 0x20 ADD ADD DUP2 DUP2 MSTORE POP POP DUP1 SWAP2 POP POP SWAP2 SWAP1 POP JUMP JUMPDEST POP POP POP POP POP POP JUMP JUMPDEST POP POP POP POP POP POP JUMP JUMPDEST PUSH3 0x48B DUP5 PUSH3 0x669 PUSH1 0x20 SHL PUSH1 0x20 SHR JUMP JUMPDEST ISZERO PUSH3 0x661 JUMPI DUP4 PUSH20 0xFFFFFFFFFFFFFFFFFFFFFFFFFFFFFFFFFFFFFFFF AND PUSH4 0xF23A6E61 DUP8 DUP8 DUP7 DUP7 DUP7 PUSH1 0x40 MLOAD DUP7 PUSH4 0xFFFFFFFF AND PUSH1 0xE0 SHL DUP2 MSTORE PUSH1 0x4 ADD PUSH3 0x4D4 SWAP6 SWAP5 SWAP4 SWAP3 SWAP2 SWAP1 PUSH3 0x815 JUMP JUMPDEST PUSH1 0x20 PUSH1 0x40 MLOAD DUP1 DUP4 SUB DUP2 PUSH1 0x0 DUP8 DUP1 EXTCODESIZE ISZERO DUP1 ISZERO PUSH3 0x4EF JUMPI PUSH1 0x0 DUP1 REVERT JUMPDEST POP GAS CALL SWAP3 POP POP POP DUP1 ISZERO PUSH3 0x523 JUMPI POP PUSH1 0x40 MLOAD RETURNDATASIZE PUSH1 0x1F NOT PUSH1 0x1F DUP3 ADD AND DUP3 ADD DUP1 PUSH1 0x40 MSTORE POP DUP2 ADD SWAP1 PUSH3 0x520 SWAP2 SWAP1 PUSH3 0x6A3 JUMP JUMPDEST PUSH1 0x1 JUMPDEST PUSH3 0x5D5 JUMPI PUSH3 0x532 PUSH3 0xB54 JUMP JUMPDEST DUP1 PUSH4 0x8C379A0 EQ ISZERO PUSH3 0x596 JUMPI POP PUSH3 0x54A PUSH3 0xCD8 JUMP JUMPDEST DUP1 PUSH3 0x557 JUMPI POP PUSH3 0x598 JUMP JUMPDEST DUP1 PUSH1 0x40 MLOAD PUSH32 0x8C379A000000000000000000000000000000000000000000000000000000000 DUP2 MSTORE PUSH1 0x4 ADD PUSH3 0x58D SWAP2 SWAP1 PUSH3 0x879 JUMP JUMPDEST PUSH1 0x40 MLOAD DUP1 SWAP2 SUB SWAP1 REVERT JUMPDEST POP JUMPDEST PUSH1 0x40 MLOAD PUSH32 0x8C379A000000000000000000000000000000000000000000000000000000000 DUP2 MSTORE PUSH1 0x4 ADD PUSH3 0x5CC SWAP1 PUSH3 0x89D JUMP JUMPDEST PUSH1 0x40 MLOAD DUP1 SWAP2 SUB SWAP1 REVERT JUMPDEST PUSH4 0xF23A6E61 PUSH1 0xE0 SHL PUSH28 0xFFFFFFFFFFFFFFFFFFFFFFFFFFFFFFFFFFFFFFFFFFFFFFFFFFFFFFFF NOT AND DUP2 PUSH28 0xFFFFFFFFFFFFFFFFFFFFFFFFFFFFFFFFFFFFFFFFFFFFFFFFFFFFFFFF NOT AND EQ PUSH3 0x65F JUMPI PUSH1 0x40 MLOAD PUSH32 0x8C379A000000000000000000000000000000000000000000000000000000000 DUP2 MSTORE PUSH1 0x4 ADD PUSH3 0x656 SWAP1 PUSH3 0x8BF JUMP JUMPDEST PUSH1 0x40 MLOAD DUP1 SWAP2 SUB SWAP1 REVERT JUMPDEST POP JUMPDEST POP POP POP POP POP POP JUMP JUMPDEST PUSH1 0x0 DUP1 DUP3 PUSH20 0xFFFFFFFFFFFFFFFFFFFFFFFFFFFFFFFFFFFFFFFF AND EXTCODESIZE GT SWAP1 POP SWAP2 SWAP1 POP JUMP JUMPDEST PUSH1 0x0 DUP2 MLOAD SWAP1 POP PUSH3 0x69D DUP2 PUSH3 0xD7A JUMP JUMPDEST SWAP3 SWAP2 POP POP JUMP JUMPDEST PUSH1 0x0 PUSH1 0x20 DUP3 DUP5 SUB SLT ISZERO PUSH3 0x6BC JUMPI PUSH3 0x6BB PUSH3 0xB79 JUMP JUMPDEST JUMPDEST PUSH1 0x0 PUSH3 0x6CC DUP5 DUP3 DUP6 ADD PUSH3 0x68C JUMP JUMPDEST SWAP2 POP POP SWAP3 SWAP2 POP POP JUMP JUMPDEST PUSH3 0x6E0 DUP2 PUSH3 0x9F1 JUMP JUMPDEST DUP3 MSTORE POP POP JUMP JUMPDEST PUSH1 0x0 PUSH3 0x6F3 DUP3 PUSH3 0x95C JUMP JUMPDEST PUSH3 0x6FF DUP2 DUP6 PUSH3 0x972 JUMP JUMPDEST SWAP4 POP PUSH3 0x711 DUP2 DUP6 PUSH1 0x20 DUP7 ADD PUSH3 0xA5B JUMP JUMPDEST PUSH3 0x71C DUP2 PUSH3 0xB7E JUMP JUMPDEST DUP5 ADD SWAP2 POP POP SWAP3 SWAP2 POP POP JUMP JUMPDEST PUSH1 0x0 PUSH3 0x734 DUP3 PUSH3 0x967 JUMP JUMPDEST PUSH3 0x740 DUP2 DUP6 PUSH3 0x983 JUMP JUMPDEST SWAP4 POP PUSH3 0x752 DUP2 DUP6 PUSH1 0x20 DUP7 ADD PUSH3 0xA5B JUMP JUMPDEST PUSH3 0x75D DUP2 PUSH3 0xB7E JUMP JUMPDEST DUP5 ADD SWAP2 POP POP SWAP3 SWAP2 POP POP JUMP JUMPDEST PUSH1 0x0 PUSH3 0x777 PUSH1 0x34 DUP4 PUSH3 0x983 JUMP JUMPDEST SWAP2 POP PUSH3 0x784 DUP3 PUSH3 0xB9C JUMP JUMPDEST PUSH1 0x40 DUP3 ADD SWAP1 POP SWAP2 SWAP1 POP JUMP JUMPDEST PUSH1 0x0 PUSH3 0x79E PUSH1 0x28 DUP4 PUSH3 0x983 JUMP JUMPDEST SWAP2 POP PUSH3 0x7AB DUP3 PUSH3 0xBEB JUMP JUMPDEST PUSH1 0x40 DUP3 ADD SWAP1 POP SWAP2 SWAP1 POP JUMP JUMPDEST PUSH1 0x0 PUSH3 0x7C5 PUSH1 0x26 DUP4 PUSH3 0x983 JUMP JUMPDEST SWAP2 POP PUSH3 0x7D2 DUP3 PUSH3 0xC3A JUMP JUMPDEST PUSH1 0x40 DUP3 ADD SWAP1 POP SWAP2 SWAP1 POP JUMP JUMPDEST PUSH1 0x0 PUSH3 0x7EC PUSH1 0x21 DUP4 PUSH3 0x983 JUMP JUMPDEST SWAP2 POP PUSH3 0x7F9 DUP3 PUSH3 0xC89 JUMP JUMPDEST PUSH1 0x40 DUP3 ADD SWAP1 POP SWAP2 SWAP1 POP JUMP JUMPDEST PUSH3 0x80F DUP2 PUSH3 0xA51 JUMP JUMPDEST DUP3 MSTORE POP POP JUMP JUMPDEST PUSH1 0x0 PUSH1 0xA0 DUP3 ADD SWAP1 POP PUSH3 0x82C PUSH1 0x0 DUP4 ADD DUP9 PUSH3 0x6D5 JUMP JUMPDEST PUSH3 0x83B PUSH1 0x20 DUP4 ADD DUP8 PUSH3 0x6D5 JUMP JUMPDEST PUSH3 0x84A PUSH1 0x40 DUP4 ADD DUP7 PUSH3 0x804 JUMP JUMPDEST PUSH3 0x859 PUSH1 0x60 DUP4 ADD DUP6 PUSH3 0x804 JUMP JUMPDEST DUP2 DUP2 SUB PUSH1 0x80 DUP4 ADD MSTORE PUSH3 0x86D DUP2 DUP5 PUSH3 0x6E6 JUMP JUMPDEST SWAP1 POP SWAP7 SWAP6 POP POP POP POP POP POP JUMP JUMPDEST PUSH1 0x0 PUSH1 0x20 DUP3 ADD SWAP1 POP DUP2 DUP2 SUB PUSH1 0x0 DUP4 ADD MSTORE PUSH3 0x895 DUP2 DUP5 PUSH3 0x727 JUMP JUMPDEST SWAP1 POP SWAP3 SWAP2 POP POP JUMP JUMPDEST PUSH1 0x0 PUSH1 0x20 DUP3 ADD SWAP1 POP DUP2 DUP2 SUB PUSH1 0x0 DUP4 ADD MSTORE PUSH3 0x8B8 DUP2 PUSH3 0x768 JUMP JUMPDEST SWAP1 POP SWAP2 SWAP1 POP JUMP JUMPDEST PUSH1 0x0 PUSH1 0x20 DUP3 ADD SWAP1 POP DUP2 DUP2 SUB PUSH1 0x0 DUP4 ADD MSTORE PUSH3 0x8DA DUP2 PUSH3 0x78F JUMP JUMPDEST SWAP1 POP SWAP2 SWAP1 POP JUMP JUMPDEST PUSH1 0x0 PUSH1 0x20 DUP3 ADD SWAP1 POP DUP2 DUP2 SUB PUSH1 0x0 DUP4 ADD MSTORE PUSH3 0x8FC DUP2 PUSH3 0x7B6 JUMP JUMPDEST SWAP1 POP SWAP2 SWAP1 POP JUMP JUMPDEST PUSH1 0x0 PUSH1 0x20 DUP3 ADD SWAP1 POP DUP2 DUP2 SUB PUSH1 0x0 DUP4 ADD MSTORE PUSH3 0x91E DUP2 PUSH3 0x7DD JUMP JUMPDEST SWAP1 POP SWAP2 SWAP1 POP JUMP JUMPDEST PUSH1 0x0 PUSH1 0x40 DUP3 ADD SWAP1 POP PUSH3 0x93C PUSH1 0x0 DUP4 ADD DUP6 PUSH3 0x804 JUMP JUMPDEST PUSH3 0x94B PUSH1 0x20 DUP4 ADD DUP5 PUSH3 0x804 JUMP JUMPDEST SWAP4 SWAP3 POP POP POP JUMP JUMPDEST PUSH1 0x0 PUSH1 0x40 MLOAD SWAP1 POP SWAP1 JUMP JUMPDEST PUSH1 0x0 DUP2 MLOAD SWAP1 POP SWAP2 SWAP1 POP JUMP JUMPDEST PUSH1 0x0 DUP2 MLOAD SWAP1 POP SWAP2 SWAP1 POP JUMP JUMPDEST PUSH1 0x0 DUP3 DUP3 MSTORE PUSH1 0x20 DUP3 ADD SWAP1 POP SWAP3 SWAP2 POP POP JUMP JUMPDEST PUSH1 0x0 DUP3 DUP3 MSTORE PUSH1 0x20 DUP3 ADD SWAP1 POP SWAP3 SWAP2 POP POP JUMP JUMPDEST PUSH1 0x0 PUSH3 0x9A1 DUP3 PUSH3 0xA51 JUMP JUMPDEST SWAP2 POP PUSH3 0x9AE DUP4 PUSH3 0xA51 JUMP JUMPDEST SWAP3 POP DUP3 PUSH32 0xFFFFFFFFFFFFFFFFFFFFFFFFFFFFFFFFFFFFFFFFFFFFFFFFFFFFFFFFFFFFFFFF SUB DUP3 GT ISZERO PUSH3 0x9E6 JUMPI PUSH3 0x9E5 PUSH3 0xAC7 JUMP JUMPDEST JUMPDEST DUP3 DUP3 ADD SWAP1 POP SWAP3 SWAP2 POP POP JUMP JUMPDEST PUSH1 0x0 PUSH3 0x9FE DUP3 PUSH3 0xA31 JUMP JUMPDEST SWAP1 POP SWAP2 SWAP1 POP JUMP JUMPDEST PUSH1 0x0 PUSH32 0xFFFFFFFF00000000000000000000000000000000000000000000000000000000 DUP3 AND SWAP1 POP SWAP2 SWAP1 POP JUMP JUMPDEST PUSH1 0x0 PUSH20 0xFFFFFFFFFFFFFFFFFFFFFFFFFFFFFFFFFFFFFFFF DUP3 AND SWAP1 POP SWAP2 SWAP1 POP JUMP JUMPDEST PUSH1 0x0 DUP2 SWAP1 POP SWAP2 SWAP1 POP JUMP JUMPDEST PUSH1 0x0 JUMPDEST DUP4 DUP2 LT ISZERO PUSH3 0xA7B JUMPI DUP1 DUP3 ADD MLOAD DUP2 DUP5 ADD MSTORE PUSH1 0x20 DUP2 ADD SWAP1 POP PUSH3 0xA5E JUMP JUMPDEST DUP4 DUP2 GT ISZERO PUSH3 0xA8B JUMPI PUSH1 0x0 DUP5 DUP5 ADD MSTORE JUMPDEST POP POP POP POP JUMP JUMPDEST PUSH3 0xA9C DUP3 PUSH3 0xB7E JUMP JUMPDEST DUP2 ADD DUP2 DUP2 LT PUSH8 0xFFFFFFFFFFFFFFFF DUP3 GT OR ISZERO PUSH3 0xABE JUMPI PUSH3 0xABD PUSH3 0xB25 JUMP JUMPDEST JUMPDEST DUP1 PUSH1 0x40 MSTORE POP POP POP JUMP JUMPDEST PUSH32 0x4E487B7100000000000000000000000000000000000000000000000000000000 PUSH1 0x0 MSTORE PUSH1 0x11 PUSH1 0x4 MSTORE PUSH1 0x24 PUSH1 0x0 REVERT JUMPDEST PUSH32 0x4E487B7100000000000000000000000000000000000000000000000000000000 PUSH1 0x0 MSTORE PUSH1 0x32 PUSH1 0x4 MSTORE PUSH1 0x24 PUSH1 0x0 REVERT JUMPDEST PUSH32 0x4E487B7100000000000000000000000000000000000000000000000000000000 PUSH1 0x0 MSTORE PUSH1 0x41 PUSH1 0x4 MSTORE PUSH1 0x24 PUSH1 0x0 REVERT JUMPDEST PUSH1 0x0 PUSH1 0x3 RETURNDATASIZE GT ISZERO PUSH3 0xB76 JUMPI PUSH1 0x4 PUSH1 0x0 DUP1 RETURNDATACOPY PUSH3 0xB73 PUSH1 0x0 MLOAD PUSH3 0xB8F JUMP JUMPDEST SWAP1 POP JUMPDEST SWAP1 JUMP JUMPDEST PUSH1 0x0 DUP1 REVERT JUMPDEST PUSH1 0x0 PUSH1 0x1F NOT PUSH1 0x1F DUP4 ADD AND SWAP1 POP SWAP2 SWAP1 POP JUMP JUMPDEST PUSH1 0x0 DUP2 PUSH1 0xE0 SHR SWAP1 POP SWAP2 SWAP1 POP JUMP JUMPDEST PUSH32 0x455243313135353A207472616E7366657220746F206E6F6E2045524331313535 PUSH1 0x0 DUP3 ADD MSTORE PUSH32 0x526563656976657220696D706C656D656E746572000000000000000000000000 PUSH1 0x20 DUP3 ADD MSTORE POP JUMP JUMPDEST PUSH32 0x455243313135353A204552433131353552656365697665722072656A65637465 PUSH1 0x0 DUP3 ADD MSTORE PUSH32 0x6420746F6B656E73000000000000000000000000000000000000000000000000 PUSH1 0x20 DUP3 ADD MSTORE POP JUMP JUMPDEST PUSH32 0x746869732046756E6374696F6E206973206F6E6C792063616C6C656420627920 PUSH1 0x0 DUP3 ADD MSTORE PUSH32 0x7365727665720000000000000000000000000000000000000000000000000000 PUSH1 0x20 DUP3 ADD MSTORE POP JUMP JUMPDEST PUSH32 0x455243313135353A206D696E7420746F20746865207A65726F20616464726573 PUSH1 0x0 DUP3 ADD MSTORE PUSH32 0x7300000000000000000000000000000000000000000000000000000000000000 PUSH1 0x20 DUP3 ADD MSTORE POP JUMP JUMPDEST PUSH1 0x0 PUSH1 0x44 RETURNDATASIZE LT ISZERO PUSH3 0xCEA JUMPI PUSH3 0xD77 JUMP JUMPDEST PUSH3 0xCF4 PUSH3 0x952 JUMP JUMPDEST PUSH1 0x4 RETURNDATASIZE SUB PUSH1 0x4 DUP3 RETURNDATACOPY DUP1 MLOAD RETURNDATASIZE PUSH1 0x24 DUP3 ADD GT PUSH8 0xFFFFFFFFFFFFFFFF DUP3 GT OR ISZERO PUSH3 0xD1E JUMPI POP POP PUSH3 0xD77 JUMP JUMPDEST DUP1 DUP3 ADD DUP1 MLOAD PUSH8 0xFFFFFFFFFFFFFFFF DUP2 GT ISZERO PUSH3 0xD3E JUMPI POP POP POP POP PUSH3 0xD77 JUMP JUMPDEST DUP1 PUSH1 0x20 DUP4 ADD ADD PUSH1 0x4 RETURNDATASIZE SUB DUP6 ADD DUP2 GT ISZERO PUSH3 0xD5D JUMPI POP POP POP POP POP PUSH3 0xD77 JUMP JUMPDEST PUSH3 0xD6E DUP3 PUSH1 0x20 ADD DUP6 ADD DUP7 PUSH3 0xA91 JUMP JUMPDEST DUP3 SWAP6 POP POP POP POP POP POP JUMPDEST SWAP1 JUMP JUMPDEST PUSH3 0xD85 DUP2 PUSH3 0xA05 JUMP JUMPDEST DUP2 EQ PUSH3 0xD91 JUMPI PUSH1 0x0 DUP1 REVERT JUMPDEST POP JUMP JUMPDEST PUSH2 0x1FED DUP1 PUSH3 0xDA4 PUSH1 0x0 CODECOPY PUSH1 0x0 RETURN INVALID PUSH1 0x80 PUSH1 0x40 MSTORE PUSH1 0x4 CALLDATASIZE LT PUSH2 0x90 JUMPI PUSH1 0x0 CALLDATALOAD PUSH1 0xE0 SHR DUP1 PUSH4 0x59BC9C29 GT PUSH2 0x59 JUMPI DUP1 PUSH4 0x59BC9C29 EQ PUSH2 0x182 JUMPI DUP1 PUSH4 0x9BB7E310 EQ PUSH2 0x1BF JUMPI DUP1 PUSH4 0xE9207304 EQ PUSH2 0x1FC JUMPI DUP1 PUSH4 0xEF3975FD EQ PUSH2 0x227 JUMPI DUP1 PUSH4 0xF242432A EQ PUSH2 0x252 JUMPI PUSH2 0x90 JUMP JUMPDEST DUP1 PUSH3 0xFDD58E EQ PUSH2 0x95 JUMPI DUP1 PUSH4 0x22A22EC3 EQ PUSH2 0xD2 JUMPI DUP1 PUSH4 0x242FD022 EQ PUSH2 0xFD JUMPI DUP1 PUSH4 0x3ADAA53D EQ PUSH2 0x12D JUMPI DUP1 PUSH4 0x57E87575 EQ PUSH2 0x159 JUMPI JUMPDEST PUSH1 0x0 DUP1 REVERT JUMPDEST CALLVALUE DUP1 ISZERO PUSH2 0xA1 JUMPI PUSH1 0x0 DUP1 REVERT JUMPDEST POP PUSH2 0xBC PUSH1 0x4 DUP1 CALLDATASIZE SUB DUP2 ADD SWAP1 PUSH2 0xB7 SWAP2 SWAP1 PUSH2 0x12BB JUMP JUMPDEST PUSH2 0x27B JUMP JUMPDEST PUSH1 0x40 MLOAD PUSH2 0xC9 SWAP2 SWAP1 PUSH2 0x18A7 JUMP JUMPDEST PUSH1 0x40 MLOAD DUP1 SWAP2 SUB SWAP1 RETURN JUMPDEST CALLVALUE DUP1 ISZERO PUSH2 0xDE JUMPI PUSH1 0x0 DUP1 REVERT JUMPDEST POP PUSH2 0xE7 PUSH2 0x344 JUMP JUMPDEST PUSH1 0x40 MLOAD PUSH2 0xF4 SWAP2 SWAP1 PUSH2 0x18A7 JUMP JUMPDEST PUSH1 0x40 MLOAD DUP1 SWAP2 SUB SWAP1 RETURN JUMPDEST PUSH2 0x117 PUSH1 0x4 DUP1 CALLDATASIZE SUB DUP2 ADD SWAP1 PUSH2 0x112 SWAP2 SWAP1 PUSH2 0x13C2 JUMP JUMPDEST PUSH2 0x3BE JUMP JUMPDEST PUSH1 0x40 MLOAD PUSH2 0x124 SWAP2 SWAP1 PUSH2 0x176A JUMP JUMPDEST PUSH1 0x40 MLOAD DUP1 SWAP2 SUB SWAP1 RETURN JUMPDEST CALLVALUE DUP1 ISZERO PUSH2 0x139 JUMPI PUSH1 0x0 DUP1 REVERT JUMPDEST POP PUSH2 0x142 PUSH2 0x4CA JUMP JUMPDEST PUSH1 0x40 MLOAD PUSH2 0x150 SWAP3 SWAP2 SWAP1 PUSH2 0x1733 JUMP JUMPDEST PUSH1 0x40 MLOAD DUP1 SWAP2 SUB SWAP1 RETURN JUMPDEST CALLVALUE DUP1 ISZERO PUSH2 0x165 JUMPI PUSH1 0x0 DUP1 REVERT JUMPDEST POP PUSH2 0x180 PUSH1 0x4 DUP1 CALLDATASIZE SUB DUP2 ADD SWAP1 PUSH2 0x17B SWAP2 SWAP1 PUSH2 0x1382 JUMP JUMPDEST PUSH2 0x633 JUMP JUMPDEST STOP JUMPDEST CALLVALUE DUP1 ISZERO PUSH2 0x18E JUMPI PUSH1 0x0 DUP1 REVERT JUMPDEST POP PUSH2 0x1A9 PUSH1 0x4 DUP1 CALLDATASIZE SUB DUP2 ADD SWAP1 PUSH2 0x1A4 SWAP2 SWAP1 PUSH2 0x1355 JUMP JUMPDEST PUSH2 0x74E JUMP JUMPDEST PUSH1 0x40 MLOAD PUSH2 0x1B6 SWAP2 SWAP1 PUSH2 0x18A7 JUMP JUMPDEST PUSH1 0x40 MLOAD DUP1 SWAP2 SUB SWAP1 RETURN JUMPDEST CALLVALUE DUP1 ISZERO PUSH2 0x1CB JUMPI PUSH1 0x0 DUP1 REVERT JUMPDEST POP PUSH2 0x1E6 PUSH1 0x4 DUP1 CALLDATASIZE SUB DUP2 ADD SWAP1 PUSH2 0x1E1 SWAP2 SWAP1 PUSH2 0x11F7 JUMP JUMPDEST PUSH2 0x76B JUMP JUMPDEST PUSH1 0x40 MLOAD PUSH2 0x1F3 SWAP2 SWAP1 PUSH2 0x1665 JUMP JUMPDEST PUSH1 0x40 MLOAD DUP1 SWAP2 SUB SWAP1 RETURN JUMPDEST CALLVALUE DUP1 ISZERO PUSH2 0x208 JUMPI PUSH1 0x0 DUP1 REVERT JUMPDEST POP PUSH2 0x211 PUSH2 0x868 JUMP JUMPDEST PUSH1 0x40 MLOAD PUSH2 0x21E SWAP2 SWAP1 PUSH2 0x1665 JUMP JUMPDEST PUSH1 0x40 MLOAD DUP1 SWAP2 SUB SWAP1 RETURN JUMPDEST CALLVALUE DUP1 ISZERO PUSH2 0x233 JUMPI PUSH1 0x0 DUP1 REVERT JUMPDEST POP PUSH2 0x23C PUSH2 0x892 JUMP JUMPDEST PUSH1 0x40 MLOAD PUSH2 0x249 SWAP2 SWAP1 PUSH2 0x1711 JUMP JUMPDEST PUSH1 0x40 MLOAD DUP1 SWAP2 SUB SWAP1 RETURN JUMPDEST CALLVALUE DUP1 ISZERO PUSH2 0x25E JUMPI PUSH1 0x0 DUP1 REVERT JUMPDEST POP PUSH2 0x279 PUSH1 0x4 DUP1 CALLDATASIZE SUB DUP2 ADD SWAP1 PUSH2 0x274 SWAP2 SWAP1 PUSH2 0x1224 JUMP JUMPDEST PUSH2 0x967 JUMP JUMPDEST STOP JUMPDEST PUSH1 0x0 DUP1 PUSH20 0xFFFFFFFFFFFFFFFFFFFFFFFFFFFFFFFFFFFFFFFF AND DUP4 PUSH20 0xFFFFFFFFFFFFFFFFFFFFFFFFFFFFFFFFFFFFFFFF AND EQ ISZERO PUSH2 0x2EC JUMPI PUSH1 0x40 MLOAD PUSH32 0x8C379A000000000000000000000000000000000000000000000000000000000 DUP2 MSTORE PUSH1 0x4 ADD PUSH2 0x2E3 SWAP1 PUSH2 0x1807 JUMP JUMPDEST PUSH1 0x40 MLOAD DUP1 SWAP2 SUB SWAP1 REVERT JUMPDEST PUSH1 0x0 DUP1 DUP4 DUP2 MSTORE PUSH1 0x20 ADD SWAP1 DUP2 MSTORE PUSH1 0x20 ADD PUSH1 0x0 KECCAK256 PUSH1 0x0 DUP5 PUSH20 0xFFFFFFFFFFFFFFFFFFFFFFFFFFFFFFFFFFFFFFFF AND PUSH20 0xFFFFFFFFFFFFFFFFFFFFFFFFFFFFFFFFFFFFFFFF AND DUP2 MSTORE PUSH1 0x20 ADD SWAP1 DUP2 MSTORE PUSH1 0x20 ADD PUSH1 0x0 KECCAK256 SLOAD SWAP1 POP SWAP3 SWAP2 POP POP JUMP JUMPDEST PUSH1 0x0 DUP1 PUSH1 0x0 SWAP1 POP PUSH1 0x0 JUMPDEST PUSH1 0x64 DUP2 GT PUSH2 0x3B6 JUMPI PUSH1 0x0 PUSH1 0x3 PUSH1 0x0 DUP4 DUP2 MSTORE PUSH1 0x20 ADD SWAP1 DUP2 MSTORE PUSH1 0x20 ADD PUSH1 0x0 KECCAK256 SLOAD EQ ISZERO PUSH2 0x377 JUMPI PUSH2 0x3A3 JUMP JUMPDEST PUSH1 0x0 PUSH1 0x3 PUSH1 0x0 DUP4 DUP2 MSTORE PUSH1 0x20 ADD SWAP1 DUP2 MSTORE PUSH1 0x20 ADD PUSH1 0x0 KECCAK256 SLOAD EQ PUSH2 0x3A2 JUMPI PUSH1 0x1 DUP3 PUSH2 0x39F SWAP2 SWAP1 PUSH2 0x19B2 JUMP JUMPDEST SWAP2 POP JUMPDEST JUMPDEST DUP1 DUP1 PUSH2 0x3AE SWAP1 PUSH2 0x1B23 JUMP JUMPDEST SWAP2 POP POP PUSH2 0x34E JUMP JUMPDEST POP DUP1 SWAP2 POP POP SWAP1 JUMP JUMPDEST PUSH1 0x0 DUP2 PUSH20 0xFFFFFFFFFFFFFFFFFFFFFFFFFFFFFFFFFFFFFFFF AND PUSH4 0xE12163D6 CALLER PUSH1 0x2 PUSH1 0x0 SWAP1 SLOAD SWAP1 PUSH2 0x100 EXP SWAP1 DIV PUSH20 0xFFFFFFFFFFFFFFFFFFFFFFFFFFFFFFFFFFFFFFFF AND DUP7 PUSH1 0x40 MLOAD DUP5 PUSH4 0xFFFFFFFF AND PUSH1 0xE0 SHL DUP2 MSTORE PUSH1 0x4 ADD PUSH2 0x41F SWAP4 SWAP3 SWAP2 SWAP1 PUSH2 0x1680 JUMP JUMPDEST PUSH1 0x20 PUSH1 0x40 MLOAD DUP1 DUP4 SUB DUP2 PUSH1 0x0 DUP8 DUP1 EXTCODESIZE ISZERO DUP1 ISZERO PUSH2 0x439 JUMPI PUSH1 0x0 DUP1 REVERT JUMPDEST POP GAS CALL ISZERO DUP1 ISZERO PUSH2 0x44D JUMPI RETURNDATASIZE PUSH1 0x0 DUP1 RETURNDATACOPY RETURNDATASIZE PUSH1 0x0 REVERT JUMPDEST POP POP POP POP PUSH1 0x40 MLOAD RETURNDATASIZE PUSH1 0x1F NOT PUSH1 0x1F DUP3 ADD AND DUP3 ADD DUP1 PUSH1 0x40 MSTORE POP DUP2 ADD SWAP1 PUSH2 0x471 SWAP2 SWAP1 PUSH2 0x12FB JUMP JUMPDEST POP PUSH2 0x4B4 ADDRESS CALLER DUP8 DUP8 PUSH1 0x40 MLOAD DUP1 PUSH1 0x40 ADD PUSH1 0x40 MSTORE DUP1 PUSH1 0x4 DUP2 MSTORE PUSH1 0x20 ADD PUSH32 0x3078303000000000000000000000000000000000000000000000000000000000 DUP2 MSTORE POP PUSH2 0x967 JUMP JUMPDEST PUSH2 0x4BE DUP6 DUP6 PUSH2 0xA26 JUMP JUMPDEST PUSH1 0x1 SWAP1 POP SWAP5 SWAP4 POP POP POP POP JUMP JUMPDEST PUSH1 0x60 DUP1 PUSH1 0x0 PUSH2 0x4D7 PUSH2 0x344 JUMP JUMPDEST SWAP1 POP PUSH1 0x0 PUSH2 0x4E3 PUSH2 0x892 JUMP JUMPDEST SWAP1 POP PUSH1 0x0 DUP3 PUSH8 0xFFFFFFFFFFFFFFFF DUP2 GT ISZERO PUSH2 0x501 JUMPI PUSH2 0x500 PUSH2 0x1BCA JUMP JUMPDEST JUMPDEST PUSH1 0x40 MLOAD SWAP1 DUP1 DUP3 MSTORE DUP1 PUSH1 0x20 MUL PUSH1 0x20 ADD DUP3 ADD PUSH1 0x40 MSTORE DUP1 ISZERO PUSH2 0x52F JUMPI DUP2 PUSH1 0x20 ADD PUSH1 0x20 DUP3 MUL DUP1 CALLDATASIZE DUP4 CALLDATACOPY DUP1 DUP3 ADD SWAP2 POP POP SWAP1 POP JUMPDEST POP SWAP1 POP PUSH1 0x0 DUP4 PUSH8 0xFFFFFFFFFFFFFFFF DUP2 GT ISZERO PUSH2 0x54E JUMPI PUSH2 0x54D PUSH2 0x1BCA JUMP JUMPDEST JUMPDEST PUSH1 0x40 MLOAD SWAP1 DUP1 DUP3 MSTORE DUP1 PUSH1 0x20 MUL PUSH1 0x20 ADD DUP3 ADD PUSH1 0x40 MSTORE DUP1 ISZERO PUSH2 0x57C JUMPI DUP2 PUSH1 0x20 ADD PUSH1 0x20 DUP3 MUL DUP1 CALLDATASIZE DUP4 CALLDATACOPY DUP1 DUP3 ADD SWAP2 POP POP SWAP1 POP JUMPDEST POP SWAP1 POP PUSH1 0x0 JUMPDEST DUP5 DUP2 LT ISZERO PUSH2 0x624 JUMPI DUP4 DUP2 DUP2 MLOAD DUP2 LT PUSH2 0x59D JUMPI PUSH2 0x59C PUSH2 0x1B9B JUMP JUMPDEST JUMPDEST PUSH1 0x20 MUL PUSH1 0x20 ADD ADD MLOAD DUP4 DUP3 DUP2 MLOAD DUP2 LT PUSH2 0x5B8 JUMPI PUSH2 0x5B7 PUSH2 0x1B9B JUMP JUMPDEST JUMPDEST PUSH1 0x20 MUL PUSH1 0x20 ADD ADD DUP2 DUP2 MSTORE POP POP PUSH1 0x3 PUSH1 0x0 DUP6 DUP4 DUP2 MLOAD DUP2 LT PUSH2 0x5DB JUMPI PUSH2 0x5DA PUSH2 0x1B9B JUMP JUMPDEST JUMPDEST PUSH1 0x20 MUL PUSH1 0x20 ADD ADD MLOAD DUP2 MSTORE PUSH1 0x20 ADD SWAP1 DUP2 MSTORE PUSH1 0x20 ADD PUSH1 0x0 KECCAK256 SLOAD DUP3 DUP3 DUP2 MLOAD DUP2 LT PUSH2 0x605 JUMPI PUSH2 0x604 PUSH2 0x1B9B JUMP JUMPDEST JUMPDEST PUSH1 0x20 MUL PUSH1 0x20 ADD ADD DUP2 DUP2 MSTORE POP POP DUP1 DUP1 PUSH2 0x61C SWAP1 PUSH2 0x1B23 JUMP JUMPDEST SWAP2 POP POP PUSH2 0x582 JUMP JUMPDEST POP DUP2 DUP2 SWAP6 POP SWAP6 POP POP POP POP POP SWAP1 SWAP2 JUMP JUMPDEST PUSH1 0x2 PUSH1 0x0 SWAP1 SLOAD SWAP1 PUSH2 0x100 EXP SWAP1 DIV PUSH20 0xFFFFFFFFFFFFFFFFFFFFFFFFFFFFFFFFFFFFFFFF AND PUSH20 0xFFFFFFFFFFFFFFFFFFFFFFFFFFFFFFFFFFFFFFFF AND CALLER PUSH20 0xFFFFFFFFFFFFFFFFFFFFFFFFFFFFFFFFFFFFFFFF AND EQ DUP1 PUSH2 0x6BA JUMPI POP ADDRESS PUSH20 0xFFFFFFFFFFFFFFFFFFFFFFFFFFFFFFFFFFFFFFFF AND CALLER PUSH20 0xFFFFFFFFFFFFFFFFFFFFFFFFFFFFFFFFFFFFFFFF AND EQ JUMPDEST PUSH2 0x6F9 JUMPI PUSH1 0x40 MLOAD PUSH32 0x8C379A000000000000000000000000000000000000000000000000000000000 DUP2 MSTORE PUSH1 0x4 ADD PUSH2 0x6F0 SWAP1 PUSH2 0x1827 JUMP JUMPDEST PUSH1 0x40 MLOAD DUP1 SWAP2 SUB SWAP1 REVERT JUMPDEST PUSH2 0x714 ADDRESS DUP4 DUP4 PUSH1 0x40 MLOAD DUP1 PUSH1 0x20 ADD PUSH1 0x40 MSTORE DUP1 PUSH1 0x0 DUP2 MSTORE POP PUSH2 0xA60 JUMP JUMPDEST DUP1 PUSH1 0x3 PUSH1 0x0 DUP5 DUP2 MSTORE PUSH1 0x20 ADD SWAP1 DUP2 MSTORE PUSH1 0x20 ADD PUSH1 0x0 KECCAK256 SLOAD PUSH2 0x733 SWAP2 SWAP1 PUSH2 0x19B2 JUMP JUMPDEST PUSH1 0x3 PUSH1 0x0 DUP5 DUP2 MSTORE PUSH1 0x20 ADD SWAP1 DUP2 MSTORE PUSH1 0x20 ADD PUSH1 0x0 KECCAK256 DUP2 SWAP1 SSTORE POP POP POP JUMP JUMPDEST PUSH1 0x0 PUSH1 0x3 PUSH1 0x0 DUP4 DUP2 MSTORE PUSH1 0x20 ADD SWAP1 DUP2 MSTORE PUSH1 0x20 ADD PUSH1 0x0 KECCAK256 SLOAD SWAP1 POP SWAP2 SWAP1 POP JUMP JUMPDEST PUSH1 0x0 PUSH1 0x2 PUSH1 0x0 SWAP1 SLOAD SWAP1 PUSH2 0x100 EXP SWAP1 DIV PUSH20 0xFFFFFFFFFFFFFFFFFFFFFFFFFFFFFFFFFFFFFFFF AND PUSH20 0xFFFFFFFFFFFFFFFFFFFFFFFFFFFFFFFFFFFFFFFF AND CALLER PUSH20 0xFFFFFFFFFFFFFFFFFFFFFFFFFFFFFFFFFFFFFFFF AND EQ PUSH2 0x7FD JUMPI PUSH1 0x40 MLOAD PUSH32 0x8C379A000000000000000000000000000000000000000000000000000000000 DUP2 MSTORE PUSH1 0x4 ADD PUSH2 0x7F4 SWAP1 PUSH2 0x1827 JUMP JUMPDEST PUSH1 0x40 MLOAD DUP1 SWAP2 SUB SWAP1 REVERT JUMPDEST DUP2 PUSH1 0x2 PUSH1 0x0 PUSH2 0x100 EXP DUP2 SLOAD DUP2 PUSH20 0xFFFFFFFFFFFFFFFFFFFFFFFFFFFFFFFFFFFFFFFF MUL NOT AND SWAP1 DUP4 PUSH20 0xFFFFFFFFFFFFFFFFFFFFFFFFFFFFFFFFFFFFFFFF AND MUL OR SWAP1 SSTORE POP PUSH1 0x2 PUSH1 0x0 SWAP1 SLOAD SWAP1 PUSH2 0x100 EXP SWAP1 DIV PUSH20 0xFFFFFFFFFFFFFFFFFFFFFFFFFFFFFFFFFFFFFFFF AND SWAP1 POP SWAP2 SWAP1 POP JUMP JUMPDEST PUSH1 0x0 PUSH1 0x2 PUSH1 0x0 SWAP1 SLOAD SWAP1 PUSH2 0x100 EXP SWAP1 DIV PUSH20 0xFFFFFFFFFFFFFFFFFFFFFFFFFFFFFFFFFFFFFFFF AND SWAP1 POP SWAP1 JUMP JUMPDEST PUSH1 0x60 PUSH1 0x0 PUSH2 0x89E PUSH2 0x344 JUMP JUMPDEST SWAP1 POP PUSH1 0x0 DUP1 DUP3 PUSH8 0xFFFFFFFFFFFFFFFF DUP2 GT ISZERO PUSH2 0x8BD JUMPI PUSH2 0x8BC PUSH2 0x1BCA JUMP JUMPDEST JUMPDEST PUSH1 0x40 MLOAD SWAP1 DUP1 DUP3 MSTORE DUP1 PUSH1 0x20 MUL PUSH1 0x20 ADD DUP3 ADD PUSH1 0x40 MSTORE DUP1 ISZERO PUSH2 0x8EB JUMPI DUP2 PUSH1 0x20 ADD PUSH1 0x20 DUP3 MUL DUP1 CALLDATASIZE DUP4 CALLDATACOPY DUP1 DUP3 ADD SWAP2 POP POP SWAP1 POP JUMPDEST POP SWAP1 POP PUSH1 0x0 JUMPDEST PUSH1 0x64 DUP2 GT PUSH2 0x95D JUMPI PUSH1 0x0 PUSH1 0x3 PUSH1 0x0 DUP4 DUP2 MSTORE PUSH1 0x20 ADD SWAP1 DUP2 MSTORE PUSH1 0x20 ADD PUSH1 0x0 KECCAK256 SLOAD EQ ISZERO PUSH2 0x91A JUMPI PUSH2 0x94A JUMP JUMPDEST DUP1 DUP3 DUP5 DUP2 MLOAD DUP2 LT PUSH2 0x92E JUMPI PUSH2 0x92D PUSH2 0x1B9B JUMP JUMPDEST JUMPDEST PUSH1 0x20 MUL PUSH1 0x20 ADD ADD DUP2 DUP2 MSTORE POP POP PUSH1 0x1 DUP4 PUSH2 0x947 SWAP2 SWAP1 PUSH2 0x19B2 JUMP JUMPDEST SWAP3 POP JUMPDEST DUP1 DUP1 PUSH2 0x955 SWAP1 PUSH2 0x1B23 JUMP JUMPDEST SWAP2 POP POP PUSH2 0x8F1 JUMP JUMPDEST POP DUP1 SWAP4 POP POP POP POP SWAP1 JUMP JUMPDEST PUSH2 0x96F PUSH2 0xC11 JUMP JUMPDEST PUSH20 0xFFFFFFFFFFFFFFFFFFFFFFFFFFFFFFFFFFFFFFFF AND DUP6 PUSH20 0xFFFFFFFFFFFFFFFFFFFFFFFFFFFFFFFFFFFFFFFF AND EQ DUP1 PUSH2 0x9D3 JUMPI POP ADDRESS PUSH20 0xFFFFFFFFFFFFFFFFFFFFFFFFFFFFFFFFFFFFFFFF AND DUP6 PUSH20 0xFFFFFFFFFFFFFFFFFFFFFFFFFFFFFFFFFFFFFFFF AND EQ JUMPDEST PUSH2 0xA12 JUMPI PUSH1 0x40 MLOAD PUSH32 0x8C379A000000000000000000000000000000000000000000000000000000000 DUP2 MSTORE PUSH1 0x4 ADD PUSH2 0xA09 SWAP1 PUSH2 0x17C7 JUMP JUMPDEST PUSH1 0x40 MLOAD DUP1 SWAP2 SUB SWAP1 REVERT JUMPDEST PUSH2 0xA1F DUP6 DUP6 DUP6 DUP6 DUP6 PUSH2 0xC19 JUMP JUMPDEST POP POP POP POP POP JUMP JUMPDEST DUP1 PUSH1 0x3 PUSH1 0x0 DUP5 DUP2 MSTORE PUSH1 0x20 ADD SWAP1 DUP2 MSTORE PUSH1 0x20 ADD PUSH1 0x0 KECCAK256 SLOAD PUSH2 0xA45 SWAP2 SWAP1 PUSH2 0x1A08 JUMP JUMPDEST PUSH1 0x3 PUSH1 0x0 DUP5 DUP2 MSTORE PUSH1 0x20 ADD SWAP1 DUP2 MSTORE PUSH1 0x20 ADD PUSH1 0x0 KECCAK256 DUP2 SWAP1 SSTORE POP POP POP JUMP JUMPDEST PUSH1 0x0 PUSH20 0xFFFFFFFFFFFFFFFFFFFFFFFFFFFFFFFFFFFFFFFF AND DUP5 PUSH20 0xFFFFFFFFFFFFFFFFFFFFFFFFFFFFFFFFFFFFFFFF AND EQ ISZERO PUSH2 0xAD0 JUMPI PUSH1 0x40 MLOAD PUSH32 0x8C379A000000000000000000000000000000000000000000000000000000000 DUP2 MSTORE PUSH1 0x4 ADD PUSH2 0xAC7 SWAP1 PUSH2 0x1887 JUMP JUMPDEST PUSH1 0x40 MLOAD DUP1 SWAP2 SUB SWAP1 REVERT JUMPDEST PUSH1 0x0 PUSH2 0xADA PUSH2 0xC11 JUMP JUMPDEST SWAP1 POP PUSH1 0x0 PUSH2 0xAE7 DUP6 PUSH2 0xEB5 JUMP JUMPDEST SWAP1 POP PUSH1 0x0 PUSH2 0xAF4 DUP6 PUSH2 0xEB5 JUMP JUMPDEST SWAP1 POP PUSH2 0xB05 DUP4 PUSH1 0x0 DUP10 DUP6 DUP6 DUP10 PUSH2 0xF2F JUMP JUMPDEST DUP5 PUSH1 0x0 DUP1 DUP9 DUP2 MSTORE PUSH1 0x20 ADD SWAP1 DUP2 MSTORE PUSH1 0x20 ADD PUSH1 0x0 KECCAK256 PUSH1 0x0 DUP10 PUSH20 0xFFFFFFFFFFFFFFFFFFFFFFFFFFFFFFFFFFFFFFFF AND PUSH20 0xFFFFFFFFFFFFFFFFFFFFFFFFFFFFFFFFFFFFFFFF AND DUP2 MSTORE PUSH1 0x20 ADD SWAP1 DUP2 MSTORE PUSH1 0x20 ADD PUSH1 0x0 KECCAK256 PUSH1 0x0 DUP3 DUP3 SLOAD PUSH2 0xB64 SWAP2 SWAP1 PUSH2 0x19B2 JUMP JUMPDEST SWAP3 POP POP DUP2 SWAP1 SSTORE POP DUP7 PUSH20 0xFFFFFFFFFFFFFFFFFFFFFFFFFFFFFFFFFFFFFFFF AND PUSH1 0x0 PUSH20 0xFFFFFFFFFFFFFFFFFFFFFFFFFFFFFFFFFFFFFFFF AND DUP5 PUSH20 0xFFFFFFFFFFFFFFFFFFFFFFFFFFFFFFFFFFFFFFFF AND PUSH32 0xC3D58168C5AE7397731D063D5BBF3D657854427343F4C083240F7AACAA2D0F62 DUP10 DUP10 PUSH1 0x40 MLOAD PUSH2 0xBE2 SWAP3 SWAP2 SWAP1 PUSH2 0x18C2 JUMP JUMPDEST PUSH1 0x40 MLOAD DUP1 SWAP2 SUB SWAP1 LOG4 PUSH2 0xBF9 DUP4 PUSH1 0x0 DUP10 DUP6 DUP6 DUP10 PUSH2 0xF37 JUMP JUMPDEST PUSH2 0xC08 DUP4 PUSH1 0x0 DUP10 DUP10 DUP10 DUP10 PUSH2 0xF3F JUMP JUMPDEST POP POP POP POP POP POP POP JUMP JUMPDEST PUSH1 0x0 CALLER SWAP1 POP SWAP1 JUMP JUMPDEST PUSH1 0x0 PUSH20 0xFFFFFFFFFFFFFFFFFFFFFFFFFFFFFFFFFFFFFFFF AND DUP5 PUSH20 0xFFFFFFFFFFFFFFFFFFFFFFFFFFFFFFFFFFFFFFFF AND EQ ISZERO PUSH2 0xC89 JUMPI PUSH1 0x40 MLOAD PUSH32 0x8C379A000000000000000000000000000000000000000000000000000000000 DUP2 MSTORE PUSH1 0x4 ADD PUSH2 0xC80 SWAP1 PUSH2 0x1847 JUMP JUMPDEST PUSH1 0x40 MLOAD DUP1 SWAP2 SUB SWAP1 REVERT JUMPDEST PUSH1 0x0 PUSH2 0xC93 PUSH2 0xC11 JUMP JUMPDEST SWAP1 POP PUSH1 0x0 PUSH2 0xCA0 DUP6 PUSH2 0xEB5 JUMP JUMPDEST SWAP1 POP PUSH1 0x0 PUSH2 0xCAD DUP6 PUSH2 0xEB5 JUMP JUMPDEST SWAP1 POP PUSH2 0xCBD DUP4 DUP10 DUP10 DUP6 DUP6 DUP10 PUSH2 0xF2F JUMP JUMPDEST PUSH1 0x0 DUP1 PUSH1 0x0 DUP9 DUP2 MSTORE PUSH1 0x20 ADD SWAP1 DUP2 MSTORE PUSH1 0x20 ADD PUSH1 0x0 KECCAK256 PUSH1 0x0 DUP11 PUSH20 0xFFFFFFFFFFFFFFFFFFFFFFFFFFFFFFFFFFFFFFFF AND PUSH20 0xFFFFFFFFFFFFFFFFFFFFFFFFFFFFFFFFFFFFFFFF AND DUP2 MSTORE PUSH1 0x20 ADD SWAP1 DUP2 MSTORE PUSH1 0x20 ADD PUSH1 0x0 KECCAK256 SLOAD SWAP1 POP DUP6 DUP2 LT ISZERO PUSH2 0xD54 JUMPI PUSH1 0x40 MLOAD PUSH32 0x8C379A000000000000000000000000000000000000000000000000000000000 DUP2 MSTORE PUSH1 0x4 ADD PUSH2 0xD4B SWAP1 PUSH2 0x1867 JUMP JUMPDEST PUSH1 0x40 MLOAD DUP1 SWAP2 SUB SWAP1 REVERT JUMPDEST DUP6 DUP2 SUB PUSH1 0x0 DUP1 DUP10 DUP2 MSTORE PUSH1 0x20 ADD SWAP1 DUP2 MSTORE PUSH1 0x20 ADD PUSH1 0x0 KECCAK256 PUSH1 0x0 DUP12 PUSH20 0xFFFFFFFFFFFFFFFFFFFFFFFFFFFFFFFFFFFFFFFF AND PUSH20 0xFFFFFFFFFFFFFFFFFFFFFFFFFFFFFFFFFFFFFFFF AND DUP2 MSTORE PUSH1 0x20 ADD SWAP1 DUP2 MSTORE PUSH1 0x20 ADD PUSH1 0x0 KECCAK256 DUP2 SWAP1 SSTORE POP DUP6 PUSH1 0x0 DUP1 DUP10 DUP2 MSTORE PUSH1 0x20 ADD SWAP1 DUP2 MSTORE PUSH1 0x20 ADD PUSH1 0x0 KECCAK256 PUSH1 0x0 DUP11 PUSH20 0xFFFFFFFFFFFFFFFFFFFFFFFFFFFFFFFFFFFFFFFF AND PUSH20 0xFFFFFFFFFFFFFFFFFFFFFFFFFFFFFFFFFFFFFFFF AND DUP2 MSTORE PUSH1 0x20 ADD SWAP1 DUP2 MSTORE PUSH1 0x20 ADD PUSH1 0x0 KECCAK256 PUSH1 0x0 DUP3 DUP3 SLOAD PUSH2 0xE09 SWAP2 SWAP1 PUSH2 0x19B2 JUMP JUMPDEST SWAP3 POP POP DUP2 SWAP1 SSTORE POP DUP8 PUSH20 0xFFFFFFFFFFFFFFFFFFFFFFFFFFFFFFFFFFFFFFFF AND DUP10 PUSH20 0xFFFFFFFFFFFFFFFFFFFFFFFFFFFFFFFFFFFFFFFF AND DUP6 PUSH20 0xFFFFFFFFFFFFFFFFFFFFFFFFFFFFFFFFFFFFFFFF AND PUSH32 0xC3D58168C5AE7397731D063D5BBF3D657854427343F4C083240F7AACAA2D0F62 DUP11 DUP11 PUSH1 0x40 MLOAD PUSH2 0xE86 SWAP3 SWAP2 SWAP1 PUSH2 0x18C2 JUMP JUMPDEST PUSH1 0x40 MLOAD DUP1 SWAP2 SUB SWAP1 LOG4 PUSH2 0xE9C DUP5 DUP11 DUP11 DUP7 DUP7 DUP11 PUSH2 0xF37 JUMP JUMPDEST PUSH2 0xEAA DUP5 DUP11 DUP11 DUP11 DUP11 DUP11 PUSH2 0xF3F JUMP JUMPDEST POP POP POP POP POP POP POP POP POP JUMP JUMPDEST PUSH1 0x60 PUSH1 0x0 PUSH1 0x1 PUSH8 0xFFFFFFFFFFFFFFFF DUP2 GT ISZERO PUSH2 0xED4 JUMPI PUSH2 0xED3 PUSH2 0x1BCA JUMP JUMPDEST JUMPDEST PUSH1 0x40 MLOAD SWAP1 DUP1 DUP3 MSTORE DUP1 PUSH1 0x20 MUL PUSH1 0x20 ADD DUP3 ADD PUSH1 0x40 MSTORE DUP1 ISZERO PUSH2 0xF02 JUMPI DUP2 PUSH1 0x20 ADD PUSH1 0x20 DUP3 MUL DUP1 CALLDATASIZE DUP4 CALLDATACOPY DUP1 DUP3 ADD SWAP2 POP POP SWAP1 POP JUMPDEST POP SWAP1 POP DUP3 DUP2 PUSH1 0x0 DUP2 MLOAD DUP2 LT PUSH2 0xF1A JUMPI PUSH2 0xF19 PUSH2 0x1B9B JUMP JUMPDEST JUMPDEST PUSH1 0x20 MUL PUSH1 0x20 ADD ADD DUP2 DUP2 MSTORE POP POP DUP1 SWAP2 POP POP SWAP2 SWAP1 POP JUMP JUMPDEST POP POP POP POP POP POP JUMP JUMPDEST POP POP POP POP POP POP JUMP JUMPDEST PUSH2 0xF48 DUP5 PUSH2 0x1110 JUMP JUMPDEST ISZERO PUSH2 0x1108 JUMPI DUP4 PUSH20 0xFFFFFFFFFFFFFFFFFFFFFFFFFFFFFFFFFFFFFFFF AND PUSH4 0xF23A6E61 DUP8 DUP8 DUP7 DUP7 DUP7 PUSH1 0x40 MLOAD DUP7 PUSH4 0xFFFFFFFF AND PUSH1 0xE0 SHL DUP2 MSTORE PUSH1 0x4 ADD PUSH2 0xF8E SWAP6 SWAP5 SWAP4 SWAP3 SWAP2 SWAP1 PUSH2 0x16B7 JUMP JUMPDEST PUSH1 0x20 PUSH1 0x40 MLOAD DUP1 DUP4 SUB DUP2 PUSH1 0x0 DUP8 DUP1 EXTCODESIZE ISZERO DUP1 ISZERO PUSH2 0xFA8 JUMPI PUSH1 0x0 DUP1 REVERT JUMPDEST POP GAS CALL SWAP3 POP POP POP DUP1 ISZERO PUSH2 0xFD9 JUMPI POP PUSH1 0x40 MLOAD RETURNDATASIZE PUSH1 0x1F NOT PUSH1 0x1F DUP3 ADD AND DUP3 ADD DUP1 PUSH1 0x40 MSTORE POP DUP2 ADD SWAP1 PUSH2 0xFD6 SWAP2 SWAP1 PUSH2 0x1328 JUMP JUMPDEST PUSH1 0x1 JUMPDEST PUSH2 0x107F JUMPI PUSH2 0xFE5 PUSH2 0x1BF9 JUMP JUMPDEST DUP1 PUSH4 0x8C379A0 EQ ISZERO PUSH2 0x1042 JUMPI POP PUSH2 0xFFA PUSH2 0x1EC5 JUMP JUMPDEST DUP1 PUSH2 0x1005 JUMPI POP PUSH2 0x1044 JUMP JUMPDEST DUP1 PUSH1 0x40 MLOAD PUSH32 0x8C379A000000000000000000000000000000000000000000000000000000000 DUP2 MSTORE PUSH1 0x4 ADD PUSH2 0x1039 SWAP2 SWAP1 PUSH2 0x1785 JUMP JUMPDEST PUSH1 0x40 MLOAD DUP1 SWAP2 SUB SWAP1 REVERT JUMPDEST POP JUMPDEST PUSH1 0x40 MLOAD PUSH32 0x8C379A000000000000000000000000000000000000000000000000000000000 DUP2 MSTORE PUSH1 0x4 ADD PUSH2 0x1076 SWAP1 PUSH2 0x17A7 JUMP JUMPDEST PUSH1 0x40 MLOAD DUP1 SWAP2 SUB SWAP1 REVERT JUMPDEST PUSH4 0xF23A6E61 PUSH1 0xE0 SHL PUSH28 0xFFFFFFFFFFFFFFFFFFFFFFFFFFFFFFFFFFFFFFFFFFFFFFFFFFFFFFFF NOT AND DUP2 PUSH28 0xFFFFFFFFFFFFFFFFFFFFFFFFFFFFFFFFFFFFFFFFFFFFFFFFFFFFFFFF NOT AND EQ PUSH2 0x1106 JUMPI PUSH1 0x40 MLOAD PUSH32 0x8C379A000000000000000000000000000000000000000000000000000000000 DUP2 MSTORE PUSH1 0x4 ADD PUSH2 0x10FD SWAP1 PUSH2 0x17E7 JUMP JUMPDEST PUSH1 0x40 MLOAD DUP1 SWAP2 SUB SWAP1 REVERT JUMPDEST POP JUMPDEST POP POP POP POP POP POP JUMP JUMPDEST PUSH1 0x0 DUP1 DUP3 PUSH20 0xFFFFFFFFFFFFFFFFFFFFFFFFFFFFFFFFFFFFFFFF AND EXTCODESIZE GT SWAP1 POP SWAP2 SWAP1 POP JUMP JUMPDEST PUSH1 0x0 PUSH2 0x1146 PUSH2 0x1141 DUP5 PUSH2 0x1910 JUMP JUMPDEST PUSH2 0x18EB JUMP JUMPDEST SWAP1 POP DUP3 DUP2 MSTORE PUSH1 0x20 DUP2 ADD DUP5 DUP5 DUP5 ADD GT ISZERO PUSH2 0x1162 JUMPI PUSH2 0x1161 PUSH2 0x1C20 JUMP JUMPDEST JUMPDEST PUSH2 0x116D DUP5 DUP3 DUP6 PUSH2 0x1AB0 JUMP JUMPDEST POP SWAP4 SWAP3 POP POP POP JUMP JUMPDEST PUSH1 0x0 DUP2 CALLDATALOAD SWAP1 POP PUSH2 0x1184 DUP2 PUSH2 0x1F5B JUMP JUMPDEST SWAP3 SWAP2 POP POP JUMP JUMPDEST PUSH1 0x0 DUP2 MLOAD SWAP1 POP PUSH2 0x1199 DUP2 PUSH2 0x1F72 JUMP JUMPDEST SWAP3 SWAP2 POP POP JUMP JUMPDEST PUSH1 0x0 DUP2 MLOAD SWAP1 POP PUSH2 0x11AE DUP2 PUSH2 0x1F89 JUMP JUMPDEST SWAP3 SWAP2 POP POP JUMP JUMPDEST PUSH1 0x0 DUP3 PUSH1 0x1F DUP4 ADD SLT PUSH2 0x11C9 JUMPI PUSH2 0x11C8 PUSH2 0x1C1B JUMP JUMPDEST JUMPDEST DUP2 CALLDATALOAD PUSH2 0x11D9 DUP5 DUP3 PUSH1 0x20 DUP7 ADD PUSH2 0x1133 JUMP JUMPDEST SWAP2 POP POP SWAP3 SWAP2 POP POP JUMP JUMPDEST PUSH1 0x0 DUP2 CALLDATALOAD SWAP1 POP PUSH2 0x11F1 DUP2 PUSH2 0x1FA0 JUMP JUMPDEST SWAP3 SWAP2 POP POP JUMP JUMPDEST PUSH1 0x0 PUSH1 0x20 DUP3 DUP5 SUB SLT ISZERO PUSH2 0x120D JUMPI PUSH2 0x120C PUSH2 0x1C2A JUMP JUMPDEST JUMPDEST PUSH1 0x0 PUSH2 0x121B DUP5 DUP3 DUP6 ADD PUSH2 0x1175 JUMP JUMPDEST SWAP2 POP POP SWAP3 SWAP2 POP POP JUMP JUMPDEST PUSH1 0x0 DUP1 PUSH1 0x0 DUP1 PUSH1 0x0 PUSH1 0xA0 DUP7 DUP9 SUB SLT ISZERO PUSH2 0x1240 JUMPI PUSH2 0x123F PUSH2 0x1C2A JUMP JUMPDEST JUMPDEST PUSH1 0x0 PUSH2 0x124E DUP9 DUP3 DUP10 ADD PUSH2 0x1175 JUMP JUMPDEST SWAP6 POP POP PUSH1 0x20 PUSH2 0x125F DUP9 DUP3 DUP10 ADD PUSH2 0x1175 JUMP JUMPDEST SWAP5 POP POP PUSH1 0x40 PUSH2 0x1270 DUP9 DUP3 DUP10 ADD PUSH2 0x11E2 JUMP JUMPDEST SWAP4 POP POP PUSH1 0x60 PUSH2 0x1281 DUP9 DUP3 DUP10 ADD PUSH2 0x11E2 JUMP JUMPDEST SWAP3 POP POP PUSH1 0x80 DUP7 ADD CALLDATALOAD PUSH8 0xFFFFFFFFFFFFFFFF DUP2 GT ISZERO PUSH2 0x12A2 JUMPI PUSH2 0x12A1 PUSH2 0x1C25 JUMP JUMPDEST JUMPDEST PUSH2 0x12AE DUP9 DUP3 DUP10 ADD PUSH2 0x11B4 JUMP JUMPDEST SWAP2 POP POP SWAP3 SWAP6 POP SWAP3 SWAP6 SWAP1 SWAP4 POP JUMP JUMPDEST PUSH1 0x0 DUP1 PUSH1 0x40 DUP4 DUP6 SUB SLT ISZERO PUSH2 0x12D2 JUMPI PUSH2 0x12D1 PUSH2 0x1C2A JUMP JUMPDEST JUMPDEST PUSH1 0x0 PUSH2 0x12E0 DUP6 DUP3 DUP7 ADD PUSH2 0x1175 JUMP JUMPDEST SWAP3 POP POP PUSH1 0x20 PUSH2 0x12F1 DUP6 DUP3 DUP7 ADD PUSH2 0x11E2 JUMP JUMPDEST SWAP2 POP POP SWAP3 POP SWAP3 SWAP1 POP JUMP JUMPDEST PUSH1 0x0 PUSH1 0x20 DUP3 DUP5 SUB SLT ISZERO PUSH2 0x1311 JUMPI PUSH2 0x1310 PUSH2 0x1C2A JUMP JUMPDEST JUMPDEST PUSH1 0x0 PUSH2 0x131F DUP5 DUP3 DUP6 ADD PUSH2 0x118A JUMP JUMPDEST SWAP2 POP POP SWAP3 SWAP2 POP POP JUMP JUMPDEST PUSH1 0x0 PUSH1 0x20 DUP3 DUP5 SUB SLT ISZERO PUSH2 0x133E JUMPI PUSH2 0x133D PUSH2 0x1C2A JUMP JUMPDEST JUMPDEST PUSH1 0x0 PUSH2 0x134C DUP5 DUP3 DUP6 ADD PUSH2 0x119F JUMP JUMPDEST SWAP2 POP POP SWAP3 SWAP2 POP POP JUMP JUMPDEST PUSH1 0x0 PUSH1 0x20 DUP3 DUP5 SUB SLT ISZERO PUSH2 0x136B JUMPI PUSH2 0x136A PUSH2 0x1C2A JUMP JUMPDEST JUMPDEST PUSH1 0x0 PUSH2 0x1379 DUP5 DUP3 DUP6 ADD PUSH2 0x11E2 JUMP JUMPDEST SWAP2 POP POP SWAP3 SWAP2 POP POP JUMP JUMPDEST PUSH1 0x0 DUP1 PUSH1 0x40 DUP4 DUP6 SUB SLT ISZERO PUSH2 0x1399 JUMPI PUSH2 0x1398 PUSH2 0x1C2A JUMP JUMPDEST JUMPDEST PUSH1 0x0 PUSH2 0x13A7 DUP6 DUP3 DUP7 ADD PUSH2 0x11E2 JUMP JUMPDEST SWAP3 POP POP PUSH1 0x20 PUSH2 0x13B8 DUP6 DUP3 DUP7 ADD PUSH2 0x11E2 JUMP JUMPDEST SWAP2 POP POP SWAP3 POP SWAP3 SWAP1 POP JUMP JUMPDEST PUSH1 0x0 DUP1 PUSH1 0x0 DUP1 PUSH1 0x80 DUP6 DUP8 SUB SLT ISZERO PUSH2 0x13DC JUMPI PUSH2 0x13DB PUSH2 0x1C2A JUMP JUMPDEST JUMPDEST PUSH1 0x0 PUSH2 0x13EA DUP8 DUP3 DUP9 ADD PUSH2 0x11E2 JUMP JUMPDEST SWAP5 POP POP PUSH1 0x20 PUSH2 0x13FB DUP8 DUP3 DUP9 ADD PUSH2 0x11E2 JUMP JUMPDEST SWAP4 POP POP PUSH1 0x40 PUSH2 0x140C DUP8 DUP3 DUP9 ADD PUSH2 0x11E2 JUMP JUMPDEST SWAP3 POP POP PUSH1 0x60 PUSH2 0x141D DUP8 DUP3 DUP9 ADD PUSH2 0x1175 JUMP JUMPDEST SWAP2 POP POP SWAP3 SWAP6 SWAP2 SWAP5 POP SWAP3 POP JUMP JUMPDEST PUSH1 0x0 PUSH2 0x1435 DUP4 DUP4 PUSH2 0x1647 JUMP JUMPDEST PUSH1 0x20 DUP4 ADD SWAP1 POP SWAP3 SWAP2 POP POP JUMP JUMPDEST PUSH2 0x144A DUP2 PUSH2 0x1A3C JUMP JUMPDEST DUP3 MSTORE POP POP JUMP JUMPDEST PUSH1 0x0 PUSH2 0x145B DUP3 PUSH2 0x1951 JUMP JUMPDEST PUSH2 0x1465 DUP2 DUP6 PUSH2 0x197F JUMP JUMPDEST SWAP4 POP PUSH2 0x1470 DUP4 PUSH2 0x1941 JUMP JUMPDEST DUP1 PUSH1 0x0 JUMPDEST DUP4 DUP2 LT ISZERO PUSH2 0x14A1 JUMPI DUP2 MLOAD PUSH2 0x1488 DUP9 DUP3 PUSH2 0x1429 JUMP JUMPDEST SWAP8 POP PUSH2 0x1493 DUP4 PUSH2 0x1972 JUMP JUMPDEST SWAP3 POP POP PUSH1 0x1 DUP2 ADD SWAP1 POP PUSH2 0x1474 JUMP JUMPDEST POP DUP6 SWAP4 POP POP POP POP SWAP3 SWAP2 POP POP JUMP JUMPDEST PUSH2 0x14B7 DUP2 PUSH2 0x1A4E JUMP JUMPDEST DUP3 MSTORE POP POP JUMP JUMPDEST PUSH1 0x0 PUSH2 0x14C8 DUP3 PUSH2 0x195C JUMP JUMPDEST PUSH2 0x14D2 DUP2 DUP6 PUSH2 0x1990 JUMP JUMPDEST SWAP4 POP PUSH2 0x14E2 DUP2 DUP6 PUSH1 0x20 DUP7 ADD PUSH2 0x1ABF JUMP JUMPDEST PUSH2 0x14EB DUP2 PUSH2 0x1C2F JUMP JUMPDEST DUP5 ADD SWAP2 POP POP SWAP3 SWAP2 POP POP JUMP JUMPDEST PUSH1 0x0 PUSH2 0x1501 DUP3 PUSH2 0x1967 JUMP JUMPDEST PUSH2 0x150B DUP2 DUP6 PUSH2 0x19A1 JUMP JUMPDEST SWAP4 POP PUSH2 0x151B DUP2 DUP6 PUSH1 0x20 DUP7 ADD PUSH2 0x1ABF JUMP JUMPDEST PUSH2 0x1524 DUP2 PUSH2 0x1C2F JUMP JUMPDEST DUP5 ADD SWAP2 POP POP SWAP3 SWAP2 POP POP JUMP JUMPDEST PUSH1 0x0 PUSH2 0x153C PUSH1 0x34 DUP4 PUSH2 0x19A1 JUMP JUMPDEST SWAP2 POP PUSH2 0x1547 DUP3 PUSH2 0x1C4D JUMP JUMPDEST PUSH1 0x40 DUP3 ADD SWAP1 POP SWAP2 SWAP1 POP JUMP JUMPDEST PUSH1 0x0 PUSH2 0x155F PUSH1 0x2F DUP4 PUSH2 0x19A1 JUMP JUMPDEST SWAP2 POP PUSH2 0x156A DUP3 PUSH2 0x1C9C JUMP JUMPDEST PUSH1 0x40 DUP3 ADD SWAP1 POP SWAP2 SWAP1 POP JUMP JUMPDEST PUSH1 0x0 PUSH2 0x1582 PUSH1 0x28 DUP4 PUSH2 0x19A1 JUMP JUMPDEST SWAP2 POP PUSH2 0x158D DUP3 PUSH2 0x1CEB JUMP JUMPDEST PUSH1 0x40 DUP3 ADD SWAP1 POP SWAP2 SWAP1 POP JUMP JUMPDEST PUSH1 0x0 PUSH2 0x15A5 PUSH1 0x2A DUP4 PUSH2 0x19A1 JUMP JUMPDEST SWAP2 POP PUSH2 0x15B0 DUP3 PUSH2 0x1D3A JUMP JUMPDEST PUSH1 0x40 DUP3 ADD SWAP1 POP SWAP2 SWAP1 POP JUMP JUMPDEST PUSH1 0x0 PUSH2 0x15C8 PUSH1 0x26 DUP4 PUSH2 0x19A1 JUMP JUMPDEST SWAP2 POP PUSH2 0x15D3 DUP3 PUSH2 0x1D89 JUMP JUMPDEST PUSH1 0x40 DUP3 ADD SWAP1 POP SWAP2 SWAP1 POP JUMP JUMPDEST PUSH1 0x0 PUSH2 0x15EB PUSH1 0x25 DUP4 PUSH2 0x19A1 JUMP JUMPDEST SWAP2 POP PUSH2 0x15F6 DUP3 PUSH2 0x1DD8 JUMP JUMPDEST PUSH1 0x40 DUP3 ADD SWAP1 POP SWAP2 SWAP1 POP JUMP JUMPDEST PUSH1 0x0 PUSH2 0x160E PUSH1 0x2A DUP4 PUSH2 0x19A1 JUMP JUMPDEST SWAP2 POP PUSH2 0x1619 DUP3 PUSH2 0x1E27 JUMP JUMPDEST PUSH1 0x40 DUP3 ADD SWAP1 POP SWAP2 SWAP1 POP JUMP JUMPDEST PUSH1 0x0 PUSH2 0x1631 PUSH1 0x21 DUP4 PUSH2 0x19A1 JUMP JUMPDEST SWAP2 POP PUSH2 0x163C DUP3 PUSH2 0x1E76 JUMP JUMPDEST PUSH1 0x40 DUP3 ADD SWAP1 POP SWAP2 SWAP1 POP JUMP JUMPDEST PUSH2 0x1650 DUP2 PUSH2 0x1AA6 JUMP JUMPDEST DUP3 MSTORE POP POP JUMP JUMPDEST PUSH2 0x165F DUP2 PUSH2 0x1AA6 JUMP JUMPDEST DUP3 MSTORE POP POP JUMP JUMPDEST PUSH1 0x0 PUSH1 0x20 DUP3 ADD SWAP1 POP PUSH2 0x167A PUSH1 0x0 DUP4 ADD DUP5 PUSH2 0x1441 JUMP JUMPDEST SWAP3 SWAP2 POP POP JUMP JUMPDEST PUSH1 0x0 PUSH1 0x60 DUP3 ADD SWAP1 POP PUSH2 0x1695 PUSH1 0x0 DUP4 ADD DUP7 PUSH2 0x1441 JUMP JUMPDEST PUSH2 0x16A2 PUSH1 0x20 DUP4 ADD DUP6 PUSH2 0x1441 JUMP JUMPDEST PUSH2 0x16AF PUSH1 0x40 DUP4 ADD DUP5 PUSH2 0x1656 JUMP JUMPDEST SWAP5 SWAP4 POP POP POP POP JUMP JUMPDEST PUSH1 0x0 PUSH1 0xA0 DUP3 ADD SWAP1 POP PUSH2 0x16CC PUSH1 0x0 DUP4 ADD DUP9 PUSH2 0x1441 JUMP JUMPDEST PUSH2 0x16D9 PUSH1 0x20 DUP4 ADD DUP8 PUSH2 0x1441 JUMP JUMPDEST PUSH2 0x16E6 PUSH1 0x40 DUP4 ADD DUP7 PUSH2 0x1656 JUMP JUMPDEST PUSH2 0x16F3 PUSH1 0x60 DUP4 ADD DUP6 PUSH2 0x1656 JUMP JUMPDEST DUP2 DUP2 SUB PUSH1 0x80 DUP4 ADD MSTORE PUSH2 0x1705 DUP2 DUP5 PUSH2 0x14BD JUMP JUMPDEST SWAP1 POP SWAP7 SWAP6 POP POP POP POP POP POP JUMP JUMPDEST PUSH1 0x0 PUSH1 0x20 DUP3 ADD SWAP1 POP DUP2 DUP2 SUB PUSH1 0x0 DUP4 ADD MSTORE PUSH2 0x172B DUP2 DUP5 PUSH2 0x1450 JUMP JUMPDEST SWAP1 POP SWAP3 SWAP2 POP POP JUMP JUMPDEST PUSH1 0x0 PUSH1 0x40 DUP3 ADD SWAP1 POP DUP2 DUP2 SUB PUSH1 0x0 DUP4 ADD MSTORE PUSH2 0x174D DUP2 DUP6 PUSH2 0x1450 JUMP JUMPDEST SWAP1 POP DUP2 DUP2 SUB PUSH1 0x20 DUP4 ADD MSTORE PUSH2 0x1761 DUP2 DUP5 PUSH2 0x1450 JUMP JUMPDEST SWAP1 POP SWAP4 SWAP3 POP POP POP JUMP JUMPDEST PUSH1 0x0 PUSH1 0x20 DUP3 ADD SWAP1 POP PUSH2 0x177F PUSH1 0x0 DUP4 ADD DUP5 PUSH2 0x14AE JUMP JUMPDEST SWAP3 SWAP2 POP POP JUMP JUMPDEST PUSH1 0x0 PUSH1 0x20 DUP3 ADD SWAP1 POP DUP2 DUP2 SUB PUSH1 0x0 DUP4 ADD MSTORE PUSH2 0x179F DUP2 DUP5 PUSH2 0x14F6 JUMP JUMPDEST SWAP1 POP SWAP3 SWAP2 POP POP JUMP JUMPDEST PUSH1 0x0 PUSH1 0x20 DUP3 ADD SWAP1 POP DUP2 DUP2 SUB PUSH1 0x0 DUP4 ADD MSTORE PUSH2 0x17C0 DUP2 PUSH2 0x152F JUMP JUMPDEST SWAP1 POP SWAP2 SWAP1 POP JUMP JUMPDEST PUSH1 0x0 PUSH1 0x20 DUP3 ADD SWAP1 POP DUP2 DUP2 SUB PUSH1 0x0 DUP4 ADD MSTORE PUSH2 0x17E0 DUP2 PUSH2 0x1552 JUMP JUMPDEST SWAP1 POP SWAP2 SWAP1 POP JUMP JUMPDEST PUSH1 0x0 PUSH1 0x20 DUP3 ADD SWAP1 POP DUP2 DUP2 SUB PUSH1 0x0 DUP4 ADD MSTORE PUSH2 0x1800 DUP2 PUSH2 0x1575 JUMP JUMPDEST SWAP1 POP SWAP2 SWAP1 POP JUMP JUMPDEST PUSH1 0x0 PUSH1 0x20 DUP3 ADD SWAP1 POP DUP2 DUP2 SUB PUSH1 0x0 DUP4 ADD MSTORE PUSH2 0x1820 DUP2 PUSH2 0x1598 JUMP JUMPDEST SWAP1 POP SWAP2 SWAP1 POP JUMP JUMPDEST PUSH1 0x0 PUSH1 0x20 DUP3 ADD SWAP1 POP DUP2 DUP2 SUB PUSH1 0x0 DUP4 ADD MSTORE PUSH2 0x1840 DUP2 PUSH2 0x15BB JUMP JUMPDEST SWAP1 POP SWAP2 SWAP1 POP JUMP JUMPDEST PUSH1 0x0 PUSH1 0x20 DUP3 ADD SWAP1 POP DUP2 DUP2 SUB PUSH1 0x0 DUP4 ADD MSTORE PUSH2 0x1860 DUP2 PUSH2 0x15DE JUMP JUMPDEST SWAP1 POP SWAP2 SWAP1 POP JUMP JUMPDEST PUSH1 0x0 PUSH1 0x20 DUP3 ADD SWAP1 POP DUP2 DUP2 SUB PUSH1 0x0 DUP4 ADD MSTORE PUSH2 0x1880 DUP2 PUSH2 0x1601 JUMP JUMPDEST SWAP1 POP SWAP2 SWAP1 POP JUMP JUMPDEST PUSH1 0x0 PUSH1 0x20 DUP3 ADD SWAP1 POP DUP2 DUP2 SUB PUSH1 0x0 DUP4 ADD MSTORE PUSH2 0x18A0 DUP2 PUSH2 0x1624 JUMP JUMPDEST SWAP1 POP SWAP2 SWAP1 POP JUMP JUMPDEST PUSH1 0x0 PUSH1 0x20 DUP3 ADD SWAP1 POP PUSH2 0x18BC PUSH1 0x0 DUP4 ADD DUP5 PUSH2 0x1656 JUMP JUMPDEST SWAP3 SWAP2 POP POP JUMP JUMPDEST PUSH1 0x0 PUSH1 0x40 DUP3 ADD SWAP1 POP PUSH2 0x18D7 PUSH1 0x0 DUP4 ADD DUP6 PUSH2 0x1656 JUMP JUMPDEST PUSH2 0x18E4 PUSH1 0x20 DUP4 ADD DUP5 PUSH2 0x1656 JUMP JUMPDEST SWAP4 SWAP3 POP POP POP JUMP JUMPDEST PUSH1 0x0 PUSH2 0x18F5 PUSH2 0x1906 JUMP JUMPDEST SWAP1 POP PUSH2 0x1901 DUP3 DUP3 PUSH2 0x1AF2 JUMP JUMPDEST SWAP2 SWAP1 POP JUMP JUMPDEST PUSH1 0x0 PUSH1 0x40 MLOAD SWAP1 POP SWAP1 JUMP JUMPDEST PUSH1 0x0 PUSH8 0xFFFFFFFFFFFFFFFF DUP3 GT ISZERO PUSH2 0x192B JUMPI PUSH2 0x192A PUSH2 0x1BCA JUMP JUMPDEST JUMPDEST PUSH2 0x1934 DUP3 PUSH2 0x1C2F JUMP JUMPDEST SWAP1 POP PUSH1 0x20 DUP2 ADD SWAP1 POP SWAP2 SWAP1 POP JUMP JUMPDEST PUSH1 0x0 DUP2 SWAP1 POP PUSH1 0x20 DUP3 ADD SWAP1 POP SWAP2 SWAP1 POP JUMP JUMPDEST PUSH1 0x0 DUP2 MLOAD SWAP1 POP SWAP2 SWAP1 POP JUMP JUMPDEST PUSH1 0x0 DUP2 MLOAD SWAP1 POP SWAP2 SWAP1 POP JUMP JUMPDEST PUSH1 0x0 DUP2 MLOAD SWAP1 POP SWAP2 SWAP1 POP JUMP JUMPDEST PUSH1 0x0 PUSH1 0x20 DUP3 ADD SWAP1 POP SWAP2 SWAP1 POP JUMP JUMPDEST PUSH1 0x0 DUP3 DUP3 MSTORE PUSH1 0x20 DUP3 ADD SWAP1 POP SWAP3 SWAP2 POP POP JUMP JUMPDEST PUSH1 0x0 DUP3 DUP3 MSTORE PUSH1 0x20 DUP3 ADD SWAP1 POP SWAP3 SWAP2 POP POP JUMP JUMPDEST PUSH1 0x0 DUP3 DUP3 MSTORE PUSH1 0x20 DUP3 ADD SWAP1 POP SWAP3 SWAP2 POP POP JUMP JUMPDEST PUSH1 0x0 PUSH2 0x19BD DUP3 PUSH2 0x1AA6 JUMP JUMPDEST SWAP2 POP PUSH2 0x19C8 DUP4 PUSH2 0x1AA6 JUMP JUMPDEST SWAP3 POP DUP3 PUSH32 0xFFFFFFFFFFFFFFFFFFFFFFFFFFFFFFFFFFFFFFFFFFFFFFFFFFFFFFFFFFFFFFFF SUB DUP3 GT ISZERO PUSH2 0x19FD JUMPI PUSH2 0x19FC PUSH2 0x1B6C JUMP JUMPDEST JUMPDEST DUP3 DUP3 ADD SWAP1 POP SWAP3 SWAP2 POP POP JUMP JUMPDEST PUSH1 0x0 PUSH2 0x1A13 DUP3 PUSH2 0x1AA6 JUMP JUMPDEST SWAP2 POP PUSH2 0x1A1E DUP4 PUSH2 0x1AA6 JUMP JUMPDEST SWAP3 POP DUP3 DUP3 LT ISZERO PUSH2 0x1A31 JUMPI PUSH2 0x1A30 PUSH2 0x1B6C JUMP JUMPDEST JUMPDEST DUP3 DUP3 SUB SWAP1 POP SWAP3 SWAP2 POP POP JUMP JUMPDEST PUSH1 0x0 PUSH2 0x1A47 DUP3 PUSH2 0x1A86 JUMP JUMPDEST SWAP1 POP SWAP2 SWAP1 POP JUMP JUMPDEST PUSH1 0x0 DUP2 ISZERO ISZERO SWAP1 POP SWAP2 SWAP1 POP JUMP JUMPDEST PUSH1 0x0 PUSH32 0xFFFFFFFF00000000000000000000000000000000000000000000000000000000 DUP3 AND SWAP1 POP SWAP2 SWAP1 POP JUMP JUMPDEST PUSH1 0x0 PUSH20 0xFFFFFFFFFFFFFFFFFFFFFFFFFFFFFFFFFFFFFFFF DUP3 AND SWAP1 POP SWAP2 SWAP1 POP JUMP JUMPDEST PUSH1 0x0 DUP2 SWAP1 POP SWAP2 SWAP1 POP JUMP JUMPDEST DUP3 DUP2 DUP4 CALLDATACOPY PUSH1 0x0 DUP4 DUP4 ADD MSTORE POP POP POP JUMP JUMPDEST PUSH1 0x0 JUMPDEST DUP4 DUP2 LT ISZERO PUSH2 0x1ADD JUMPI DUP1 DUP3 ADD MLOAD DUP2 DUP5 ADD MSTORE PUSH1 0x20 DUP2 ADD SWAP1 POP PUSH2 0x1AC2 JUMP JUMPDEST DUP4 DUP2 GT ISZERO PUSH2 0x1AEC JUMPI PUSH1 0x0 DUP5 DUP5 ADD MSTORE JUMPDEST POP POP POP POP JUMP JUMPDEST PUSH2 0x1AFB DUP3 PUSH2 0x1C2F JUMP JUMPDEST DUP2 ADD DUP2 DUP2 LT PUSH8 0xFFFFFFFFFFFFFFFF DUP3 GT OR ISZERO PUSH2 0x1B1A JUMPI PUSH2 0x1B19 PUSH2 0x1BCA JUMP JUMPDEST JUMPDEST DUP1 PUSH1 0x40 MSTORE POP POP POP JUMP JUMPDEST PUSH1 0x0 PUSH2 0x1B2E DUP3 PUSH2 0x1AA6 JUMP JUMPDEST SWAP2 POP PUSH32 0xFFFFFFFFFFFFFFFFFFFFFFFFFFFFFFFFFFFFFFFFFFFFFFFFFFFFFFFFFFFFFFFF DUP3 EQ ISZERO PUSH2 0x1B61 JUMPI PUSH2 0x1B60 PUSH2 0x1B6C JUMP JUMPDEST JUMPDEST PUSH1 0x1 DUP3 ADD SWAP1 POP SWAP2 SWAP1 POP JUMP JUMPDEST PUSH32 0x4E487B7100000000000000000000000000000000000000000000000000000000 PUSH1 0x0 MSTORE PUSH1 0x11 PUSH1 0x4 MSTORE PUSH1 0x24 PUSH1 0x0 REVERT JUMPDEST PUSH32 0x4E487B7100000000000000000000000000000000000000000000000000000000 PUSH1 0x0 MSTORE PUSH1 0x32 PUSH1 0x4 MSTORE PUSH1 0x24 PUSH1 0x0 REVERT JUMPDEST PUSH32 0x4E487B7100000000000000000000000000000000000000000000000000000000 PUSH1 0x0 MSTORE PUSH1 0x41 PUSH1 0x4 MSTORE PUSH1 0x24 PUSH1 0x0 REVERT JUMPDEST PUSH1 0x0 PUSH1 0x3 RETURNDATASIZE GT ISZERO PUSH2 0x1C18 JUMPI PUSH1 0x4 PUSH1 0x0 DUP1 RETURNDATACOPY PUSH2 0x1C15 PUSH1 0x0 MLOAD PUSH2 0x1C40 JUMP JUMPDEST SWAP1 POP JUMPDEST SWAP1 JUMP JUMPDEST PUSH1 0x0 DUP1 REVERT JUMPDEST PUSH1 0x0 DUP1 REVERT JUMPDEST PUSH1 0x0 DUP1 REVERT JUMPDEST PUSH1 0x0 DUP1 REVERT JUMPDEST PUSH1 0x0 PUSH1 0x1F NOT PUSH1 0x1F DUP4 ADD AND SWAP1 POP SWAP2 SWAP1 POP JUMP JUMPDEST PUSH1 0x0 DUP2 PUSH1 0xE0 SHR SWAP1 POP SWAP2 SWAP1 POP JUMP JUMPDEST PUSH32 0x455243313135353A207472616E7366657220746F206E6F6E2045524331313535 PUSH1 0x0 DUP3 ADD MSTORE PUSH32 0x526563656976657220696D706C656D656E746572000000000000000000000000 PUSH1 0x20 DUP3 ADD MSTORE POP JUMP JUMPDEST PUSH32 0x455243313135353A2063616C6C6572206973206E6F7420746F6B656E206F776E PUSH1 0x0 DUP3 ADD MSTORE PUSH32 0x6572206E6F7220617070726F7665640000000000000000000000000000000000 PUSH1 0x20 DUP3 ADD MSTORE POP JUMP JUMPDEST PUSH32 0x455243313135353A204552433131353552656365697665722072656A65637465 PUSH1 0x0 DUP3 ADD MSTORE PUSH32 0x6420746F6B656E73000000000000000000000000000000000000000000000000 PUSH1 0x20 DUP3 ADD MSTORE POP JUMP JUMPDEST PUSH32 0x455243313135353A2061646472657373207A65726F206973206E6F7420612076 PUSH1 0x0 DUP3 ADD MSTORE PUSH32 0x616C6964206F776E657200000000000000000000000000000000000000000000 PUSH1 0x20 DUP3 ADD MSTORE POP JUMP JUMPDEST PUSH32 0x746869732046756E6374696F6E206973206F6E6C792063616C6C656420627920 PUSH1 0x0 DUP3 ADD MSTORE PUSH32 0x7365727665720000000000000000000000000000000000000000000000000000 PUSH1 0x20 DUP3 ADD MSTORE POP JUMP JUMPDEST PUSH32 0x455243313135353A207472616E7366657220746F20746865207A65726F206164 PUSH1 0x0 DUP3 ADD MSTORE PUSH32 0x6472657373000000000000000000000000000000000000000000000000000000 PUSH1 0x20 DUP3 ADD MSTORE POP JUMP JUMPDEST PUSH32 0x455243313135353A20696E73756666696369656E742062616C616E636520666F PUSH1 0x0 DUP3 ADD MSTORE PUSH32 0x72207472616E7366657200000000000000000000000000000000000000000000 PUSH1 0x20 DUP3 ADD MSTORE POP JUMP JUMPDEST PUSH32 0x455243313135353A206D696E7420746F20746865207A65726F20616464726573 PUSH1 0x0 DUP3 ADD MSTORE PUSH32 0x7300000000000000000000000000000000000000000000000000000000000000 PUSH1 0x20 DUP3 ADD MSTORE POP JUMP JUMPDEST PUSH1 0x0 PUSH1 0x44 RETURNDATASIZE LT ISZERO PUSH2 0x1ED5 JUMPI PUSH2 0x1F58 JUMP JUMPDEST PUSH2 0x1EDD PUSH2 0x1906 JUMP JUMPDEST PUSH1 0x4 RETURNDATASIZE SUB PUSH1 0x4 DUP3 RETURNDATACOPY DUP1 MLOAD RETURNDATASIZE PUSH1 0x24 DUP3 ADD GT PUSH8 0xFFFFFFFFFFFFFFFF DUP3 GT OR ISZERO PUSH2 0x1F05 JUMPI POP POP PUSH2 0x1F58 JUMP JUMPDEST DUP1 DUP3 ADD DUP1 MLOAD PUSH8 0xFFFFFFFFFFFFFFFF DUP2 GT ISZERO PUSH2 0x1F23 JUMPI POP POP POP POP PUSH2 0x1F58 JUMP JUMPDEST DUP1 PUSH1 0x20 DUP4 ADD ADD PUSH1 0x4 RETURNDATASIZE SUB DUP6 ADD DUP2 GT ISZERO PUSH2 0x1F40 JUMPI POP POP POP POP POP PUSH2 0x1F58 JUMP JUMPDEST PUSH2 0x1F4F DUP3 PUSH1 0x20 ADD DUP6 ADD DUP7 PUSH2 0x1AF2 JUMP JUMPDEST DUP3 SWAP6 POP POP POP POP POP POP JUMPDEST SWAP1 JUMP JUMPDEST PUSH2 0x1F64 DUP2 PUSH2 0x1A3C JUMP JUMPDEST DUP2 EQ PUSH2 0x1F6F JUMPI PUSH1 0x0 DUP1 REVERT JUMPDEST POP JUMP JUMPDEST PUSH2 0x1F7B DUP2 PUSH2 0x1A4E JUMP JUMPDEST DUP2 EQ PUSH2 0x1F86 JUMPI PUSH1 0x0 DUP1 REVERT JUMPDEST POP JUMP JUMPDEST PUSH2 0x1F92 DUP2 PUSH2 0x1A5A JUMP JUMPDEST DUP2 EQ PUSH2 0x1F9D JUMPI PUSH1 0x0 DUP1 REVERT JUMPDEST POP JUMP JUMPDEST PUSH2 0x1FA9 DUP2 PUSH2 0x1AA6 JUMP JUMPDEST DUP2 EQ PUSH2 0x1FB4 JUMPI PUSH1 0x0 DUP1 REVERT JUMPDEST POP JUMP INVALID LOG2 PUSH5 0x6970667358 0x22 SLT KECCAK256 0xD6 LOG0 0xA9 SLT 0xD1 CALLDATASIZE DUP12 SIGNEXTEND 0xBA PUSH8 0x2A8CB755BEE01851 0xF6 SWAP11 LT DELEGATECALL SWAP12 CALLER PUSH5 0xEA71DBE089 CALLDATACOPY PUSH26 0x64736F6C63430008070033000000000000000000000000000000 "
				},
				"gasEstimates": {
					"creation": {
						"codeDepositCost": "1634600",
						"executionCost": "infinite",
						"totalCost": "infinite"
					},
					"external": {
						"AllStocks()": "infinite",
						"CouponMint(uint256,uint256)": "infinite",
						"HowMuchKindsOfCoupons()": "infinite",
						"KindsOfCoupons()": "infinite",
						"StocksByDiscount(uint256)": "infinite",
						"balanceOf(address,uint256)": "infinite",
						"buyCoupon(uint256,uint256,uint256,address)": "infinite",
						"safeTransferFrom(address,address,uint256,uint256,bytes)": "infinite",
						"serverAddr()": "2566",
						"setServerAddr(address)": "infinite"
					},
					"internal": {
						"_reduceAmount(uint256,uint256)": "infinite"
					}
				},
				"methodIdentifiers": {
					"AllStocks()": "3adaa53d",
					"CouponMint(uint256,uint256)": "57e87575",
					"HowMuchKindsOfCoupons()": "22a22ec3",
					"KindsOfCoupons()": "ef3975fd",
					"StocksByDiscount(uint256)": "59bc9c29",
					"balanceOf(address,uint256)": "00fdd58e",
					"buyCoupon(uint256,uint256,uint256,address)": "242fd022",
					"safeTransferFrom(address,address,uint256,uint256,bytes)": "f242432a",
					"serverAddr()": "e9207304",
					"setServerAddr(address)": "9bb7e310"
				}
			},
			"storageLayout": {
				"storage": [
					{
						"astId": 28,
						"contract": "contracts/Coupon.sol:CouponMarket",
						"label": "_balances",
						"offset": 0,
						"slot": "0",
						"type": "t_mapping(t_uint256,t_mapping(t_address,t_uint256))"
					},
					{
						"astId": 34,
						"contract": "contracts/Coupon.sol:CouponMarket",
						"label": "_operatorApprovals",
						"offset": 0,
						"slot": "1",
						"type": "t_mapping(t_address,t_mapping(t_address,t_bool))"
					},
					{
						"astId": 690,
						"contract": "contracts/Coupon.sol:CouponMarket",
						"label": "_serverAddr",
						"offset": 0,
						"slot": "2",
						"type": "t_address"
					},
					{
						"astId": 694,
						"contract": "contracts/Coupon.sol:CouponMarket",
						"label": "_amount",
						"offset": 0,
						"slot": "3",
						"type": "t_mapping(t_uint256,t_uint256)"
					}
				],
				"types": {
					"t_address": {
						"encoding": "inplace",
						"label": "address",
						"numberOfBytes": "20"
					},
					"t_bool": {
						"encoding": "inplace",
						"label": "bool",
						"numberOfBytes": "1"
					},
					"t_mapping(t_address,t_bool)": {
						"encoding": "mapping",
						"key": "t_address",
						"label": "mapping(address => bool)",
						"numberOfBytes": "32",
						"value": "t_bool"
					},
					"t_mapping(t_address,t_mapping(t_address,t_bool))": {
						"encoding": "mapping",
						"key": "t_address",
						"label": "mapping(address => mapping(address => bool))",
						"numberOfBytes": "32",
						"value": "t_mapping(t_address,t_bool)"
					},
					"t_mapping(t_address,t_uint256)": {
						"encoding": "mapping",
						"key": "t_address",
						"label": "mapping(address => uint256)",
						"numberOfBytes": "32",
						"value": "t_uint256"
					},
					"t_mapping(t_uint256,t_mapping(t_address,t_uint256))": {
						"encoding": "mapping",
						"key": "t_uint256",
						"label": "mapping(uint256 => mapping(address => uint256))",
						"numberOfBytes": "32",
						"value": "t_mapping(t_address,t_uint256)"
					},
					"t_mapping(t_uint256,t_uint256)": {
						"encoding": "mapping",
						"key": "t_uint256",
						"label": "mapping(uint256 => uint256)",
						"numberOfBytes": "32",
						"value": "t_uint256"
					},
					"t_uint256": {
						"encoding": "inplace",
						"label": "uint256",
						"numberOfBytes": "32"
					}
				}
			},
			"userdoc": {
				"kind": "user",
				"methods": {},
				"version": 1
			}
		}
	}
}