{
	"contracts/Coupon.sol": {
		"CouponMarket": {
			"abi": [
				{
					"inputs": [],
					"stateMutability": "nonpayable",
					"type": "constructor"
				},
				{
					"anonymous": false,
					"inputs": [
						{
							"indexed": false,
							"internalType": "address",
							"name": "operator",
							"type": "address"
						},
						{
							"indexed": false,
							"internalType": "address",
							"name": "from",
							"type": "address"
						},
						{
							"indexed": false,
							"internalType": "uint256",
							"name": "id",
							"type": "uint256"
						},
						{
							"indexed": false,
							"internalType": "uint256",
							"name": "value",
							"type": "uint256"
						},
						{
							"indexed": false,
							"internalType": "bytes",
							"name": "data",
							"type": "bytes"
						},
						{
							"indexed": false,
							"internalType": "uint256",
							"name": "gas",
							"type": "uint256"
						}
					],
					"name": "Received",
					"type": "event"
				},
				{
					"anonymous": false,
					"inputs": [
						{
							"indexed": true,
							"internalType": "address",
							"name": "operator",
							"type": "address"
						},
						{
							"indexed": true,
							"internalType": "address",
							"name": "from",
							"type": "address"
						},
						{
							"indexed": true,
							"internalType": "address",
							"name": "to",
							"type": "address"
						},
						{
							"indexed": false,
							"internalType": "uint256",
							"name": "id",
							"type": "uint256"
						},
						{
							"indexed": false,
							"internalType": "uint256",
							"name": "value",
							"type": "uint256"
						}
					],
					"name": "TransferSingle",
					"type": "event"
				},
				{
					"inputs": [
						{
							"internalType": "uint256",
							"name": "discount",
							"type": "uint256"
						},
						{
							"internalType": "uint256",
							"name": "amount",
							"type": "uint256"
						}
					],
					"name": "CouponMint",
					"outputs": [],
					"stateMutability": "nonpayable",
					"type": "function"
				},
				{
					"inputs": [
						{
							"internalType": "uint256",
							"name": "discount",
							"type": "uint256"
						}
					],
					"name": "amount",
					"outputs": [
						{
							"internalType": "uint256",
							"name": "",
							"type": "uint256"
						}
					],
					"stateMutability": "view",
					"type": "function"
				},
				{
					"inputs": [
						{
							"internalType": "address",
							"name": "account",
							"type": "address"
						},
						{
							"internalType": "uint256",
							"name": "id",
							"type": "uint256"
						}
					],
					"name": "balanceOf",
					"outputs": [
						{
							"internalType": "uint256",
							"name": "",
							"type": "uint256"
						}
					],
					"stateMutability": "view",
					"type": "function"
				},
				{
					"inputs": [
						{
							"internalType": "uint256",
							"name": "discount",
							"type": "uint256"
						},
						{
							"internalType": "uint256",
							"name": "amount",
							"type": "uint256"
						},
						{
							"internalType": "uint256",
							"name": "price",
							"type": "uint256"
						},
						{
							"internalType": "address",
							"name": "TokenContractAddr",
							"type": "address"
						}
					],
					"name": "buyCoupon",
					"outputs": [
						{
							"internalType": "bool",
							"name": "",
							"type": "bool"
						}
					],
					"stateMutability": "payable",
					"type": "function"
				},
				{
					"inputs": [
						{
							"internalType": "address",
							"name": "operator",
							"type": "address"
						},
						{
							"internalType": "address",
							"name": "from",
							"type": "address"
						},
						{
							"internalType": "uint256",
							"name": "id",
							"type": "uint256"
						},
						{
							"internalType": "uint256",
							"name": "value",
							"type": "uint256"
						},
						{
							"internalType": "bytes",
							"name": "data",
							"type": "bytes"
						}
					],
					"name": "onERC1155Received",
					"outputs": [
						{
							"internalType": "bytes4",
							"name": "",
							"type": "bytes4"
						}
					],
					"stateMutability": "nonpayable",
					"type": "function"
				},
				{
					"inputs": [
						{
							"internalType": "address",
							"name": "from",
							"type": "address"
						},
						{
							"internalType": "address",
							"name": "to",
							"type": "address"
						},
						{
							"internalType": "uint256",
							"name": "id",
							"type": "uint256"
						},
						{
							"internalType": "uint256",
							"name": "amount",
							"type": "uint256"
						},
						{
							"internalType": "bytes",
							"name": "data",
							"type": "bytes"
						}
					],
					"name": "safeTransferFrom",
					"outputs": [],
					"stateMutability": "nonpayable",
					"type": "function"
				},
				{
					"inputs": [],
					"name": "serverAddr",
					"outputs": [
						{
							"internalType": "address",
							"name": "",
							"type": "address"
						}
					],
					"stateMutability": "view",
					"type": "function"
				},
				{
					"inputs": [
						{
							"internalType": "address",
							"name": "addr",
							"type": "address"
						}
					],
					"name": "setServerAddr",
					"outputs": [
						{
							"internalType": "address",
							"name": "",
							"type": "address"
						}
					],
					"stateMutability": "nonpayable",
					"type": "function"
				}
			],
			"devdoc": {
				"kind": "dev",
				"methods": {
					"balanceOf(address,uint256)": {
						"details": "See {IERC1155-balanceOf}. Requirements: - `account` cannot be the zero address."
					},
					"safeTransferFrom(address,address,uint256,uint256,bytes)": {
						"details": "See {IERC1155-safeTransferFrom}."
					}
				},
				"version": 1
			},
			"evm": {
				"assembly": "    /* \"contracts/Coupon.sol\":11712:14026  contract CouponMarket is ERC1155 {... */\n  mstore(0x40, 0x80)\n    /* \"contracts/Coupon.sol\":11751:11806  constructor() {... */\n  callvalue\n  dup1\n  iszero\n  tag_1\n  jumpi\n  0x00\n  dup1\n  revert\ntag_1:\n  pop\n    /* \"contracts/Coupon.sol\":11789:11799  msg.sender */\n  caller\n    /* \"contracts/Coupon.sol\":11775:11786  _serverAddr */\n  0x02\n  0x00\n    /* \"contracts/Coupon.sol\":11775:11799  _serverAddr = msg.sender */\n  0x0100\n  exp\n  dup2\n  sload\n  dup2\n  0xffffffffffffffffffffffffffffffffffffffff\n  mul\n  not\n  and\n  swap1\n  dup4\n  0xffffffffffffffffffffffffffffffffffffffff\n  and\n  mul\n  or\n  swap1\n  sstore\n  pop\n    /* \"contracts/Coupon.sol\":11712:14026  contract CouponMarket is ERC1155 {... */\n  dataSize(sub_0)\n  dup1\n  dataOffset(sub_0)\n  0x00\n  codecopy\n  0x00\n  return\nstop\n\nsub_0: assembly {\n        /* \"contracts/Coupon.sol\":11712:14026  contract CouponMarket is ERC1155 {... */\n      mstore(0x40, 0x80)\n      jumpi(tag_1, lt(calldatasize, 0x04))\n      shr(0xe0, calldataload(0x00))\n      dup1\n      0x9bb7e310\n      gt\n      tag_10\n      jumpi\n      dup1\n      0x9bb7e310\n      eq\n      tag_6\n      jumpi\n      dup1\n      0xe9207304\n      eq\n      tag_7\n      jumpi\n      dup1\n      0xf23a6e61\n      eq\n      tag_8\n      jumpi\n      dup1\n      0xf242432a\n      eq\n      tag_9\n      jumpi\n      jump(tag_1)\n    tag_10:\n      dup1\n      0xfdd58e\n      eq\n      tag_2\n      jumpi\n      dup1\n      0x242fd022\n      eq\n      tag_3\n      jumpi\n      dup1\n      0x57e87575\n      eq\n      tag_4\n      jumpi\n      dup1\n      0x8b0d0258\n      eq\n      tag_5\n      jumpi\n    tag_1:\n      0x00\n      dup1\n      revert\n        /* \"contracts/Coupon.sol\":3761:4049  function balanceOf(address account, uint256 id)... */\n    tag_2:\n      callvalue\n      dup1\n      iszero\n      tag_11\n      jumpi\n      0x00\n      dup1\n      revert\n    tag_11:\n      pop\n      tag_12\n      0x04\n      dup1\n      calldatasize\n      sub\n      dup2\n      add\n      swap1\n      tag_13\n      swap2\n      swap1\n      tag_14\n      jump\t// in\n    tag_13:\n      tag_15\n      jump\t// in\n    tag_12:\n      mload(0x40)\n      tag_16\n      swap2\n      swap1\n      tag_17\n      jump\t// in\n    tag_16:\n      mload(0x40)\n      dup1\n      swap2\n      sub\n      swap1\n      return\n        /* \"contracts/Coupon.sol\":12835:13414  function buyCoupon(... */\n    tag_3:\n      tag_18\n      0x04\n      dup1\n      calldatasize\n      sub\n      dup2\n      add\n      swap1\n      tag_19\n      swap2\n      swap1\n      tag_20\n      jump\t// in\n    tag_19:\n      tag_21\n      jump\t// in\n    tag_18:\n      mload(0x40)\n      tag_22\n      swap2\n      swap1\n      tag_23\n      jump\t// in\n    tag_22:\n      mload(0x40)\n      dup1\n      swap2\n      sub\n      swap1\n      return\n        /* \"contracts/Coupon.sol\":11812:12132  function CouponMint(uint256 discount, uint256 amount) public {... */\n    tag_4:\n      callvalue\n      dup1\n      iszero\n      tag_24\n      jumpi\n      0x00\n      dup1\n      revert\n    tag_24:\n      pop\n      tag_25\n      0x04\n      dup1\n      calldatasize\n      sub\n      dup2\n      add\n      swap1\n      tag_26\n      swap2\n      swap1\n      tag_27\n      jump\t// in\n    tag_26:\n      tag_28\n      jump\t// in\n    tag_25:\n      stop\n        /* \"contracts/Coupon.sol\":12724:12829  function amount(uint256 discount) public view returns (uint256) {... */\n    tag_5:\n      callvalue\n      dup1\n      iszero\n      tag_29\n      jumpi\n      0x00\n      dup1\n      revert\n    tag_29:\n      pop\n      tag_30\n      0x04\n      dup1\n      calldatasize\n      sub\n      dup2\n      add\n      swap1\n      tag_31\n      swap2\n      swap1\n      tag_32\n      jump\t// in\n    tag_31:\n      tag_33\n      jump\t// in\n    tag_30:\n      mload(0x40)\n      tag_34\n      swap2\n      swap1\n      tag_17\n      jump\t// in\n    tag_34:\n      mload(0x40)\n      dup1\n      swap2\n      sub\n      swap1\n      return\n        /* \"contracts/Coupon.sol\":12380:12625  function setServerAddr(address addr) public returns (address) {... */\n    tag_6:\n      callvalue\n      dup1\n      iszero\n      tag_35\n      jumpi\n      0x00\n      dup1\n      revert\n    tag_35:\n      pop\n      tag_36\n      0x04\n      dup1\n      calldatasize\n      sub\n      dup2\n      add\n      swap1\n      tag_37\n      swap2\n      swap1\n      tag_38\n      jump\t// in\n    tag_37:\n      tag_39\n      jump\t// in\n    tag_36:\n      mload(0x40)\n      tag_40\n      swap2\n      swap1\n      tag_41\n      jump\t// in\n    tag_40:\n      mload(0x40)\n      dup1\n      swap2\n      sub\n      swap1\n      return\n        /* \"contracts/Coupon.sol\":12631:12718  function serverAddr() public view returns (address) {... */\n    tag_7:\n      callvalue\n      dup1\n      iszero\n      tag_42\n      jumpi\n      0x00\n      dup1\n      revert\n    tag_42:\n      pop\n      tag_43\n      tag_44\n      jump\t// in\n    tag_43:\n      mload(0x40)\n      tag_45\n      swap2\n      swap1\n      tag_41\n      jump\t// in\n    tag_45:\n      mload(0x40)\n      dup1\n      swap2\n      sub\n      swap1\n      return\n        /* \"contracts/Coupon.sol\":13554:14024  function onERC1155Received(... */\n    tag_8:\n      callvalue\n      dup1\n      iszero\n      tag_46\n      jumpi\n      0x00\n      dup1\n      revert\n    tag_46:\n      pop\n      tag_47\n      0x04\n      dup1\n      calldatasize\n      sub\n      dup2\n      add\n      swap1\n      tag_48\n      swap2\n      swap1\n      tag_49\n      jump\t// in\n    tag_48:\n      tag_50\n      jump\t// in\n    tag_47:\n      mload(0x40)\n      tag_51\n      swap2\n      swap1\n      tag_52\n      jump\t// in\n    tag_51:\n      mload(0x40)\n      dup1\n      swap2\n      sub\n      swap1\n      return\n        /* \"contracts/Coupon.sol\":4116:4491  function safeTransferFrom(... */\n    tag_9:\n      callvalue\n      dup1\n      iszero\n      tag_53\n      jumpi\n      0x00\n      dup1\n      revert\n    tag_53:\n      pop\n      tag_54\n      0x04\n      dup1\n      calldatasize\n      sub\n      dup2\n      add\n      swap1\n      tag_55\n      swap2\n      swap1\n      tag_56\n      jump\t// in\n    tag_55:\n      tag_57\n      jump\t// in\n    tag_54:\n      stop\n        /* \"contracts/Coupon.sol\":3761:4049  function balanceOf(address account, uint256 id)... */\n    tag_15:\n        /* \"contracts/Coupon.sol\":3870:3877  uint256 */\n      0x00\n        /* \"contracts/Coupon.sol\":3933:3934  0 */\n      dup1\n        /* \"contracts/Coupon.sol\":3914:3935  account != address(0) */\n      0xffffffffffffffffffffffffffffffffffffffff\n      and\n        /* \"contracts/Coupon.sol\":3914:3921  account */\n      dup4\n        /* \"contracts/Coupon.sol\":3914:3935  account != address(0) */\n      0xffffffffffffffffffffffffffffffffffffffff\n      and\n      eq\n      iszero\n        /* \"contracts/Coupon.sol\":3893:4003  require(... */\n      tag_59\n      jumpi\n      mload(0x40)\n      0x08c379a000000000000000000000000000000000000000000000000000000000\n      dup2\n      mstore\n      0x04\n      add\n      tag_60\n      swap1\n      tag_61\n      jump\t// in\n    tag_60:\n      mload(0x40)\n      dup1\n      swap2\n      sub\n      swap1\n      revert\n    tag_59:\n        /* \"contracts/Coupon.sol\":4020:4029  _balances */\n      0x00\n        /* \"contracts/Coupon.sol\":4020:4033  _balances[id] */\n      dup1\n        /* \"contracts/Coupon.sol\":4030:4032  id */\n      dup4\n        /* \"contracts/Coupon.sol\":4020:4033  _balances[id] */\n      dup2\n      mstore\n      0x20\n      add\n      swap1\n      dup2\n      mstore\n      0x20\n      add\n      0x00\n      keccak256\n        /* \"contracts/Coupon.sol\":4020:4042  _balances[id][account] */\n      0x00\n        /* \"contracts/Coupon.sol\":4034:4041  account */\n      dup5\n        /* \"contracts/Coupon.sol\":4020:4042  _balances[id][account] */\n      0xffffffffffffffffffffffffffffffffffffffff\n      and\n      0xffffffffffffffffffffffffffffffffffffffff\n      and\n      dup2\n      mstore\n      0x20\n      add\n      swap1\n      dup2\n      mstore\n      0x20\n      add\n      0x00\n      keccak256\n      sload\n        /* \"contracts/Coupon.sol\":4013:4042  return _balances[id][account] */\n      swap1\n      pop\n        /* \"contracts/Coupon.sol\":3761:4049  function balanceOf(address account, uint256 id)... */\n      swap3\n      swap2\n      pop\n      pop\n      jump\t// out\n        /* \"contracts/Coupon.sol\":12835:13414  function buyCoupon(... */\n    tag_21:\n        /* \"contracts/Coupon.sol\":12992:12996  bool */\n      0x00\n        /* \"contracts/Coupon.sol\":13150:13167  TokenContractAddr */\n      dup2\n        /* \"contracts/Coupon.sol\":13143:13187  others(TokenContractAddr).transferWithMarket */\n      0xffffffffffffffffffffffffffffffffffffffff\n      and\n      0xe12163d6\n        /* \"contracts/Coupon.sol\":13201:13211  msg.sender */\n      caller\n        /* \"contracts/Coupon.sol\":13225:13236  _serverAddr */\n      0x02\n      0x00\n      swap1\n      sload\n      swap1\n      0x0100\n      exp\n      swap1\n      div\n      0xffffffffffffffffffffffffffffffffffffffff\n      and\n        /* \"contracts/Coupon.sol\":13250:13255  price */\n      dup7\n        /* \"contracts/Coupon.sol\":13143:13265  others(TokenContractAddr).transferWithMarket(... */\n      mload(0x40)\n      dup5\n      0xffffffff\n      and\n      0xe0\n      shl\n      dup2\n      mstore\n      0x04\n      add\n      tag_63\n      swap4\n      swap3\n      swap2\n      swap1\n      tag_64\n      jump\t// in\n    tag_63:\n      0x20\n      mload(0x40)\n      dup1\n      dup4\n      sub\n      dup2\n      0x00\n      dup8\n      dup1\n      extcodesize\n      iszero\n      dup1\n      iszero\n      tag_65\n      jumpi\n      0x00\n      dup1\n      revert\n    tag_65:\n      pop\n      gas\n      call\n      iszero\n      dup1\n      iszero\n      tag_67\n      jumpi\n      returndatasize\n      0x00\n      dup1\n      returndatacopy\n      revert(0x00, returndatasize)\n    tag_67:\n      pop\n      pop\n      pop\n      pop\n      mload(0x40)\n      returndatasize\n      not(0x1f)\n      0x1f\n      dup3\n      add\n      and\n      dup3\n      add\n      dup1\n      0x40\n      mstore\n      pop\n      dup2\n      add\n      swap1\n      tag_68\n      swap2\n      swap1\n      tag_69\n      jump\t// in\n    tag_68:\n      pop\n        /* \"contracts/Coupon.sol\":13276:13345  safeTransferFrom(address(this), msg.sender, discount, amount, \"0x00\") */\n      tag_70\n        /* \"contracts/Coupon.sol\":13301:13305  this */\n      address\n        /* \"contracts/Coupon.sol\":13308:13318  msg.sender */\n      caller\n        /* \"contracts/Coupon.sol\":13320:13328  discount */\n      dup8\n        /* \"contracts/Coupon.sol\":13330:13336  amount */\n      dup8\n        /* \"contracts/Coupon.sol\":13276:13345  safeTransferFrom(address(this), msg.sender, discount, amount, \"0x00\") */\n      mload(0x40)\n      dup1\n      0x40\n      add\n      0x40\n      mstore\n      dup1\n      0x04\n      dup2\n      mstore\n      0x20\n      add\n      0x3078303000000000000000000000000000000000000000000000000000000000\n      dup2\n      mstore\n      pop\n        /* \"contracts/Coupon.sol\":13276:13292  safeTransferFrom */\n      tag_57\n        /* \"contracts/Coupon.sol\":13276:13345  safeTransferFrom(address(this), msg.sender, discount, amount, \"0x00\") */\n      jump\t// in\n    tag_70:\n        /* \"contracts/Coupon.sol\":13355:13386  _reduceAmount(discount, amount) */\n      tag_71\n        /* \"contracts/Coupon.sol\":13369:13377  discount */\n      dup6\n        /* \"contracts/Coupon.sol\":13379:13385  amount */\n      dup6\n        /* \"contracts/Coupon.sol\":13355:13368  _reduceAmount */\n      tag_72\n        /* \"contracts/Coupon.sol\":13355:13386  _reduceAmount(discount, amount) */\n      jump\t// in\n    tag_71:\n        /* \"contracts/Coupon.sol\":13403:13407  true */\n      0x01\n        /* \"contracts/Coupon.sol\":13396:13407  return true */\n      swap1\n      pop\n        /* \"contracts/Coupon.sol\":12835:13414  function buyCoupon(... */\n      swap5\n      swap4\n      pop\n      pop\n      pop\n      pop\n      jump\t// out\n        /* \"contracts/Coupon.sol\":11812:12132  function CouponMint(uint256 discount, uint256 amount) public {... */\n    tag_28:\n        /* \"contracts/Coupon.sol\":11918:11929  _serverAddr */\n      0x02\n      0x00\n      swap1\n      sload\n      swap1\n      0x0100\n      exp\n      swap1\n      div\n      0xffffffffffffffffffffffffffffffffffffffff\n      and\n        /* \"contracts/Coupon.sol\":11904:11929  msg.sender == _serverAddr */\n      0xffffffffffffffffffffffffffffffffffffffff\n      and\n        /* \"contracts/Coupon.sol\":11904:11914  msg.sender */\n      caller\n        /* \"contracts/Coupon.sol\":11904:11929  msg.sender == _serverAddr */\n      0xffffffffffffffffffffffffffffffffffffffff\n      and\n      eq\n        /* \"contracts/Coupon.sol\":11883:11993  require(... */\n      tag_74\n      jumpi\n      mload(0x40)\n      0x08c379a000000000000000000000000000000000000000000000000000000000\n      dup2\n      mstore\n      0x04\n      add\n      tag_75\n      swap1\n      tag_76\n      jump\t// in\n    tag_75:\n      mload(0x40)\n      dup1\n      swap2\n      sub\n      swap1\n      revert\n    tag_74:\n        /* \"contracts/Coupon.sol\":12003:12045  _mint(address(this), discount, amount, \"\") */\n      tag_77\n        /* \"contracts/Coupon.sol\":12017:12021  this */\n      address\n        /* \"contracts/Coupon.sol\":12024:12032  discount */\n      dup4\n        /* \"contracts/Coupon.sol\":12034:12040  amount */\n      dup4\n        /* \"contracts/Coupon.sol\":12003:12045  _mint(address(this), discount, amount, \"\") */\n      mload(0x40)\n      dup1\n      0x20\n      add\n      0x40\n      mstore\n      dup1\n      0x00\n      dup2\n      mstore\n      pop\n        /* \"contracts/Coupon.sol\":12003:12008  _mint */\n      tag_78\n        /* \"contracts/Coupon.sol\":12003:12045  _mint(address(this), discount, amount, \"\") */\n      jump\t// in\n    tag_77:\n        /* \"contracts/Coupon.sol\":11812:12132  function CouponMint(uint256 discount, uint256 amount) public {... */\n      pop\n      pop\n      jump\t// out\n        /* \"contracts/Coupon.sol\":12724:12829  function amount(uint256 discount) public view returns (uint256) {... */\n    tag_33:\n        /* \"contracts/Coupon.sol\":12779:12786  uint256 */\n      0x00\n        /* \"contracts/Coupon.sol\":12805:12812  _amount */\n      0x03\n        /* \"contracts/Coupon.sol\":12805:12822  _amount[discount] */\n      0x00\n        /* \"contracts/Coupon.sol\":12813:12821  discount */\n      dup4\n        /* \"contracts/Coupon.sol\":12805:12822  _amount[discount] */\n      dup2\n      mstore\n      0x20\n      add\n      swap1\n      dup2\n      mstore\n      0x20\n      add\n      0x00\n      keccak256\n      sload\n        /* \"contracts/Coupon.sol\":12798:12822  return _amount[discount] */\n      swap1\n      pop\n        /* \"contracts/Coupon.sol\":12724:12829  function amount(uint256 discount) public view returns (uint256) {... */\n      swap2\n      swap1\n      pop\n      jump\t// out\n        /* \"contracts/Coupon.sol\":12380:12625  function setServerAddr(address addr) public returns (address) {... */\n    tag_39:\n        /* \"contracts/Coupon.sol\":12433:12440  address */\n      0x00\n        /* \"contracts/Coupon.sol\":12487:12498  _serverAddr */\n      0x02\n      0x00\n      swap1\n      sload\n      swap1\n      0x0100\n      exp\n      swap1\n      div\n      0xffffffffffffffffffffffffffffffffffffffff\n      and\n        /* \"contracts/Coupon.sol\":12473:12498  msg.sender == _serverAddr */\n      0xffffffffffffffffffffffffffffffffffffffff\n      and\n        /* \"contracts/Coupon.sol\":12473:12483  msg.sender */\n      caller\n        /* \"contracts/Coupon.sol\":12473:12498  msg.sender == _serverAddr */\n      0xffffffffffffffffffffffffffffffffffffffff\n      and\n      eq\n        /* \"contracts/Coupon.sol\":12452:12562  require(... */\n      tag_81\n      jumpi\n      mload(0x40)\n      0x08c379a000000000000000000000000000000000000000000000000000000000\n      dup2\n      mstore\n      0x04\n      add\n      tag_82\n      swap1\n      tag_76\n      jump\t// in\n    tag_82:\n      mload(0x40)\n      dup1\n      swap2\n      sub\n      swap1\n      revert\n    tag_81:\n        /* \"contracts/Coupon.sol\":12586:12590  addr */\n      dup2\n        /* \"contracts/Coupon.sol\":12572:12583  _serverAddr */\n      0x02\n      0x00\n        /* \"contracts/Coupon.sol\":12572:12590  _serverAddr = addr */\n      0x0100\n      exp\n      dup2\n      sload\n      dup2\n      0xffffffffffffffffffffffffffffffffffffffff\n      mul\n      not\n      and\n      swap1\n      dup4\n      0xffffffffffffffffffffffffffffffffffffffff\n      and\n      mul\n      or\n      swap1\n      sstore\n      pop\n        /* \"contracts/Coupon.sol\":12607:12618  _serverAddr */\n      0x02\n      0x00\n      swap1\n      sload\n      swap1\n      0x0100\n      exp\n      swap1\n      div\n      0xffffffffffffffffffffffffffffffffffffffff\n      and\n        /* \"contracts/Coupon.sol\":12600:12618  return _serverAddr */\n      swap1\n      pop\n        /* \"contracts/Coupon.sol\":12380:12625  function setServerAddr(address addr) public returns (address) {... */\n      swap2\n      swap1\n      pop\n      jump\t// out\n        /* \"contracts/Coupon.sol\":12631:12718  function serverAddr() public view returns (address) {... */\n    tag_44:\n        /* \"contracts/Coupon.sol\":12674:12681  address */\n      0x00\n        /* \"contracts/Coupon.sol\":12700:12711  _serverAddr */\n      0x02\n      0x00\n      swap1\n      sload\n      swap1\n      0x0100\n      exp\n      swap1\n      div\n      0xffffffffffffffffffffffffffffffffffffffff\n      and\n        /* \"contracts/Coupon.sol\":12693:12711  return _serverAddr */\n      swap1\n      pop\n        /* \"contracts/Coupon.sol\":12631:12718  function serverAddr() public view returns (address) {... */\n      swap1\n      jump\t// out\n        /* \"contracts/Coupon.sol\":13554:14024  function onERC1155Received(... */\n    tag_50:\n        /* \"contracts/Coupon.sol\":13723:13729  bytes4 */\n      0x00\n        /* \"contracts/Coupon.sol\":13769:13774  value */\n      dup4\n        /* \"contracts/Coupon.sol\":13755:13762  _amount */\n      0x03\n        /* \"contracts/Coupon.sol\":13755:13766  _amount[id] */\n      0x00\n        /* \"contracts/Coupon.sol\":13763:13765  id */\n      dup8\n        /* \"contracts/Coupon.sol\":13755:13766  _amount[id] */\n      dup2\n      mstore\n      0x20\n      add\n      swap1\n      dup2\n      mstore\n      0x20\n      add\n      0x00\n      keccak256\n      sload\n        /* \"contracts/Coupon.sol\":13755:13774  _amount[id] + value */\n      tag_85\n      swap2\n      swap1\n      tag_86\n      jump\t// in\n    tag_85:\n        /* \"contracts/Coupon.sol\":13741:13748  _amount */\n      0x03\n        /* \"contracts/Coupon.sol\":13741:13752  _amount[id] */\n      0x00\n        /* \"contracts/Coupon.sol\":13749:13751  id */\n      dup8\n        /* \"contracts/Coupon.sol\":13741:13752  _amount[id] */\n      dup2\n      mstore\n      0x20\n      add\n      swap1\n      dup2\n      mstore\n      0x20\n      add\n      0x00\n      keccak256\n        /* \"contracts/Coupon.sol\":13741:13774  _amount[id] = _amount[id] + value */\n      dup2\n      swap1\n      sstore\n      pop\n        /* \"contracts/Coupon.sol\":13789:13841  Received(operator, from, id, value, data, gasleft()) */\n      0x20dfa9f79060c8c4d7fe892c97c71bcf6e3b63d1dcf66fea7aefc0211628cf29\n        /* \"contracts/Coupon.sol\":13798:13806  operator */\n      dup8\n        /* \"contracts/Coupon.sol\":13808:13812  from */\n      dup8\n        /* \"contracts/Coupon.sol\":13814:13816  id */\n      dup8\n        /* \"contracts/Coupon.sol\":13818:13823  value */\n      dup8\n        /* \"contracts/Coupon.sol\":13825:13829  data */\n      dup8\n      dup8\n        /* \"contracts/Coupon.sol\":13831:13840  gasleft() */\n      gas\n        /* \"contracts/Coupon.sol\":13789:13841  Received(operator, from, id, value, data, gasleft()) */\n      mload(0x40)\n      tag_87\n      swap8\n      swap7\n      swap6\n      swap5\n      swap4\n      swap3\n      swap2\n      swap1\n      tag_88\n      jump\t// in\n    tag_87:\n      mload(0x40)\n      dup1\n      swap2\n      sub\n      swap1\n      log1\n        /* \"contracts/Coupon.sol\":13894:14003  keccak256(... */\n      0xf23a6e612e1ff4830e658fe43f4e3cb4a5f8170bd5d9e69fb5d7a7fa9e4fdf97\n        /* \"contracts/Coupon.sol\":13851:14017  return... */\n      swap1\n      pop\n        /* \"contracts/Coupon.sol\":13554:14024  function onERC1155Received(... */\n      swap7\n      swap6\n      pop\n      pop\n      pop\n      pop\n      pop\n      pop\n      jump\t// out\n        /* \"contracts/Coupon.sol\":4116:4491  function safeTransferFrom(... */\n    tag_57:\n        /* \"contracts/Coupon.sol\":4316:4328  _msgSender() */\n      tag_90\n        /* \"contracts/Coupon.sol\":4316:4326  _msgSender */\n      tag_91\n        /* \"contracts/Coupon.sol\":4316:4328  _msgSender() */\n      jump\t// in\n    tag_90:\n        /* \"contracts/Coupon.sol\":4308:4328  from == _msgSender() */\n      0xffffffffffffffffffffffffffffffffffffffff\n      and\n        /* \"contracts/Coupon.sol\":4308:4312  from */\n      dup6\n        /* \"contracts/Coupon.sol\":4308:4328  from == _msgSender() */\n      0xffffffffffffffffffffffffffffffffffffffff\n      and\n      eq\n        /* \"contracts/Coupon.sol\":4307:4356  (from == _msgSender()) || (from == address(this)) */\n      dup1\n      tag_92\n      jumpi\n      pop\n        /* \"contracts/Coupon.sol\":4350:4354  this */\n      address\n        /* \"contracts/Coupon.sol\":4334:4355  from == address(this) */\n      0xffffffffffffffffffffffffffffffffffffffff\n      and\n        /* \"contracts/Coupon.sol\":4334:4338  from */\n      dup6\n        /* \"contracts/Coupon.sol\":4334:4355  from == address(this) */\n      0xffffffffffffffffffffffffffffffffffffffff\n      and\n      eq\n        /* \"contracts/Coupon.sol\":4307:4356  (from == _msgSender()) || (from == address(this)) */\n    tag_92:\n        /* \"contracts/Coupon.sol\":4286:4429  require(... */\n      tag_93\n      jumpi\n      mload(0x40)\n      0x08c379a000000000000000000000000000000000000000000000000000000000\n      dup2\n      mstore\n      0x04\n      add\n      tag_94\n      swap1\n      tag_95\n      jump\t// in\n    tag_94:\n      mload(0x40)\n      dup1\n      swap2\n      sub\n      swap1\n      revert\n    tag_93:\n        /* \"contracts/Coupon.sol\":4439:4484  _safeTransferFrom(from, to, id, amount, data) */\n      tag_96\n        /* \"contracts/Coupon.sol\":4457:4461  from */\n      dup6\n        /* \"contracts/Coupon.sol\":4463:4465  to */\n      dup6\n        /* \"contracts/Coupon.sol\":4467:4469  id */\n      dup6\n        /* \"contracts/Coupon.sol\":4471:4477  amount */\n      dup6\n        /* \"contracts/Coupon.sol\":4479:4483  data */\n      dup6\n        /* \"contracts/Coupon.sol\":4439:4456  _safeTransferFrom */\n      tag_97\n        /* \"contracts/Coupon.sol\":4439:4484  _safeTransferFrom(from, to, id, amount, data) */\n      jump\t// in\n    tag_96:\n        /* \"contracts/Coupon.sol\":4116:4491  function safeTransferFrom(... */\n      pop\n      pop\n      pop\n      pop\n      pop\n      jump\t// out\n        /* \"contracts/Coupon.sol\":13420:13548  function _reduceAmount(uint256 discount, uint256 amount) private {... */\n    tag_72:\n        /* \"contracts/Coupon.sol\":13535:13541  amount */\n      dup1\n        /* \"contracts/Coupon.sol\":13515:13522  _amount */\n      0x03\n        /* \"contracts/Coupon.sol\":13515:13532  _amount[discount] */\n      0x00\n        /* \"contracts/Coupon.sol\":13523:13531  discount */\n      dup5\n        /* \"contracts/Coupon.sol\":13515:13532  _amount[discount] */\n      dup2\n      mstore\n      0x20\n      add\n      swap1\n      dup2\n      mstore\n      0x20\n      add\n      0x00\n      keccak256\n      sload\n        /* \"contracts/Coupon.sol\":13515:13541  _amount[discount] - amount */\n      tag_99\n      swap2\n      swap1\n      tag_100\n      jump\t// in\n    tag_99:\n        /* \"contracts/Coupon.sol\":13495:13502  _amount */\n      0x03\n        /* \"contracts/Coupon.sol\":13495:13512  _amount[discount] */\n      0x00\n        /* \"contracts/Coupon.sol\":13503:13511  discount */\n      dup5\n        /* \"contracts/Coupon.sol\":13495:13512  _amount[discount] */\n      dup2\n      mstore\n      0x20\n      add\n      swap1\n      dup2\n      mstore\n      0x20\n      add\n      0x00\n      keccak256\n        /* \"contracts/Coupon.sol\":13495:13541  _amount[discount] = _amount[discount] - amount */\n      dup2\n      swap1\n      sstore\n      pop\n        /* \"contracts/Coupon.sol\":13420:13548  function _reduceAmount(uint256 discount, uint256 amount) private {... */\n      pop\n      pop\n      jump\t// out\n        /* \"contracts/Coupon.sol\":6295:7086  function _mint(... */\n    tag_78:\n        /* \"contracts/Coupon.sol\":6456:6457  0 */\n      0x00\n        /* \"contracts/Coupon.sol\":6442:6458  to != address(0) */\n      0xffffffffffffffffffffffffffffffffffffffff\n      and\n        /* \"contracts/Coupon.sol\":6442:6444  to */\n      dup5\n        /* \"contracts/Coupon.sol\":6442:6458  to != address(0) */\n      0xffffffffffffffffffffffffffffffffffffffff\n      and\n      eq\n      iszero\n        /* \"contracts/Coupon.sol\":6434:6496  require(to != address(0), \"ERC1155: mint to the zero address\") */\n      tag_102\n      jumpi\n      mload(0x40)\n      0x08c379a000000000000000000000000000000000000000000000000000000000\n      dup2\n      mstore\n      0x04\n      add\n      tag_103\n      swap1\n      tag_104\n      jump\t// in\n    tag_103:\n      mload(0x40)\n      dup1\n      swap2\n      sub\n      swap1\n      revert\n    tag_102:\n        /* \"contracts/Coupon.sol\":6507:6523  address operator */\n      0x00\n        /* \"contracts/Coupon.sol\":6526:6538  _msgSender() */\n      tag_105\n        /* \"contracts/Coupon.sol\":6526:6536  _msgSender */\n      tag_91\n        /* \"contracts/Coupon.sol\":6526:6538  _msgSender() */\n      jump\t// in\n    tag_105:\n        /* \"contracts/Coupon.sol\":6507:6538  address operator = _msgSender() */\n      swap1\n      pop\n        /* \"contracts/Coupon.sol\":6548:6568  uint256[] memory ids */\n      0x00\n        /* \"contracts/Coupon.sol\":6571:6592  _asSingletonArray(id) */\n      tag_106\n        /* \"contracts/Coupon.sol\":6589:6591  id */\n      dup6\n        /* \"contracts/Coupon.sol\":6571:6588  _asSingletonArray */\n      tag_107\n        /* \"contracts/Coupon.sol\":6571:6592  _asSingletonArray(id) */\n      jump\t// in\n    tag_106:\n        /* \"contracts/Coupon.sol\":6548:6592  uint256[] memory ids = _asSingletonArray(id) */\n      swap1\n      pop\n        /* \"contracts/Coupon.sol\":6602:6626  uint256[] memory amounts */\n      0x00\n        /* \"contracts/Coupon.sol\":6629:6654  _asSingletonArray(amount) */\n      tag_108\n        /* \"contracts/Coupon.sol\":6647:6653  amount */\n      dup6\n        /* \"contracts/Coupon.sol\":6629:6646  _asSingletonArray */\n      tag_107\n        /* \"contracts/Coupon.sol\":6629:6654  _asSingletonArray(amount) */\n      jump\t// in\n    tag_108:\n        /* \"contracts/Coupon.sol\":6602:6654  uint256[] memory amounts = _asSingletonArray(amount) */\n      swap1\n      pop\n        /* \"contracts/Coupon.sol\":6665:6731  _beforeTokenTransfer(operator, address(0), to, ids, amounts, data) */\n      tag_109\n        /* \"contracts/Coupon.sol\":6686:6694  operator */\n      dup4\n        /* \"contracts/Coupon.sol\":6704:6705  0 */\n      0x00\n        /* \"contracts/Coupon.sol\":6708:6710  to */\n      dup10\n        /* \"contracts/Coupon.sol\":6712:6715  ids */\n      dup6\n        /* \"contracts/Coupon.sol\":6717:6724  amounts */\n      dup6\n        /* \"contracts/Coupon.sol\":6726:6730  data */\n      dup10\n        /* \"contracts/Coupon.sol\":6665:6685  _beforeTokenTransfer */\n      tag_110\n        /* \"contracts/Coupon.sol\":6665:6731  _beforeTokenTransfer(operator, address(0), to, ids, amounts, data) */\n      jump\t// in\n    tag_109:\n        /* \"contracts/Coupon.sol\":6763:6769  amount */\n      dup5\n        /* \"contracts/Coupon.sol\":6742:6751  _balances */\n      0x00\n        /* \"contracts/Coupon.sol\":6742:6755  _balances[id] */\n      dup1\n        /* \"contracts/Coupon.sol\":6752:6754  id */\n      dup9\n        /* \"contracts/Coupon.sol\":6742:6755  _balances[id] */\n      dup2\n      mstore\n      0x20\n      add\n      swap1\n      dup2\n      mstore\n      0x20\n      add\n      0x00\n      keccak256\n        /* \"contracts/Coupon.sol\":6742:6759  _balances[id][to] */\n      0x00\n        /* \"contracts/Coupon.sol\":6756:6758  to */\n      dup10\n        /* \"contracts/Coupon.sol\":6742:6759  _balances[id][to] */\n      0xffffffffffffffffffffffffffffffffffffffff\n      and\n      0xffffffffffffffffffffffffffffffffffffffff\n      and\n      dup2\n      mstore\n      0x20\n      add\n      swap1\n      dup2\n      mstore\n      0x20\n      add\n      0x00\n      keccak256\n      0x00\n        /* \"contracts/Coupon.sol\":6742:6769  _balances[id][to] += amount */\n      dup3\n      dup3\n      sload\n      tag_111\n      swap2\n      swap1\n      tag_86\n      jump\t// in\n    tag_111:\n      swap3\n      pop\n      pop\n      dup2\n      swap1\n      sstore\n      pop\n        /* \"contracts/Coupon.sol\":6821:6823  to */\n      dup7\n        /* \"contracts/Coupon.sol\":6784:6836  TransferSingle(operator, address(0), to, id, amount) */\n      0xffffffffffffffffffffffffffffffffffffffff\n      and\n        /* \"contracts/Coupon.sol\":6817:6818  0 */\n      0x00\n        /* \"contracts/Coupon.sol\":6784:6836  TransferSingle(operator, address(0), to, id, amount) */\n      0xffffffffffffffffffffffffffffffffffffffff\n      and\n        /* \"contracts/Coupon.sol\":6799:6807  operator */\n      dup5\n        /* \"contracts/Coupon.sol\":6784:6836  TransferSingle(operator, address(0), to, id, amount) */\n      0xffffffffffffffffffffffffffffffffffffffff\n      and\n      0xc3d58168c5ae7397731d063d5bbf3d657854427343f4c083240f7aacaa2d0f62\n        /* \"contracts/Coupon.sol\":6825:6827  id */\n      dup10\n        /* \"contracts/Coupon.sol\":6829:6835  amount */\n      dup10\n        /* \"contracts/Coupon.sol\":6784:6836  TransferSingle(operator, address(0), to, id, amount) */\n      mload(0x40)\n      tag_112\n      swap3\n      swap2\n      swap1\n      tag_113\n      jump\t// in\n    tag_112:\n      mload(0x40)\n      dup1\n      swap2\n      sub\n      swap1\n      log4\n        /* \"contracts/Coupon.sol\":6847:6912  _afterTokenTransfer(operator, address(0), to, ids, amounts, data) */\n      tag_114\n        /* \"contracts/Coupon.sol\":6867:6875  operator */\n      dup4\n        /* \"contracts/Coupon.sol\":6885:6886  0 */\n      0x00\n        /* \"contracts/Coupon.sol\":6889:6891  to */\n      dup10\n        /* \"contracts/Coupon.sol\":6893:6896  ids */\n      dup6\n        /* \"contracts/Coupon.sol\":6898:6905  amounts */\n      dup6\n        /* \"contracts/Coupon.sol\":6907:6911  data */\n      dup10\n        /* \"contracts/Coupon.sol\":6847:6866  _afterTokenTransfer */\n      tag_115\n        /* \"contracts/Coupon.sol\":6847:6912  _afterTokenTransfer(operator, address(0), to, ids, amounts, data) */\n      jump\t// in\n    tag_114:\n        /* \"contracts/Coupon.sol\":6923:7079  _doSafeTransferAcceptanceCheck(... */\n      tag_116\n        /* \"contracts/Coupon.sol\":6967:6975  operator */\n      dup4\n        /* \"contracts/Coupon.sol\":6997:6998  0 */\n      0x00\n        /* \"contracts/Coupon.sol\":7013:7015  to */\n      dup10\n        /* \"contracts/Coupon.sol\":7029:7031  id */\n      dup10\n        /* \"contracts/Coupon.sol\":7045:7051  amount */\n      dup10\n        /* \"contracts/Coupon.sol\":7065:7069  data */\n      dup10\n        /* \"contracts/Coupon.sol\":6923:6953  _doSafeTransferAcceptanceCheck */\n      tag_117\n        /* \"contracts/Coupon.sol\":6923:7079  _doSafeTransferAcceptanceCheck(... */\n      jump\t// in\n    tag_116:\n        /* \"contracts/Coupon.sol\":6424:7086  {... */\n      pop\n      pop\n      pop\n        /* \"contracts/Coupon.sol\":6295:7086  function _mint(... */\n      pop\n      pop\n      pop\n      pop\n      jump\t// out\n        /* \"contracts/Coupon.sol\":3532:3619  function _msgSender() private view returns (address) {... */\n    tag_91:\n        /* \"contracts/Coupon.sol\":3576:3583  address */\n      0x00\n        /* \"contracts/Coupon.sol\":3602:3612  msg.sender */\n      caller\n        /* \"contracts/Coupon.sol\":3595:3612  return msg.sender */\n      swap1\n      pop\n        /* \"contracts/Coupon.sol\":3532:3619  function _msgSender() private view returns (address) {... */\n      swap1\n      jump\t// out\n        /* \"contracts/Coupon.sol\":4941:5922  function _safeTransferFrom(... */\n    tag_97:\n        /* \"contracts/Coupon.sol\":5136:5137  0 */\n      0x00\n        /* \"contracts/Coupon.sol\":5122:5138  to != address(0) */\n      0xffffffffffffffffffffffffffffffffffffffff\n      and\n        /* \"contracts/Coupon.sol\":5122:5124  to */\n      dup5\n        /* \"contracts/Coupon.sol\":5122:5138  to != address(0) */\n      0xffffffffffffffffffffffffffffffffffffffff\n      and\n      eq\n      iszero\n        /* \"contracts/Coupon.sol\":5114:5180  require(to != address(0), \"ERC1155: transfer to the zero address\") */\n      tag_120\n      jumpi\n      mload(0x40)\n      0x08c379a000000000000000000000000000000000000000000000000000000000\n      dup2\n      mstore\n      0x04\n      add\n      tag_121\n      swap1\n      tag_122\n      jump\t// in\n    tag_121:\n      mload(0x40)\n      dup1\n      swap2\n      sub\n      swap1\n      revert\n    tag_120:\n        /* \"contracts/Coupon.sol\":5191:5207  address operator */\n      0x00\n        /* \"contracts/Coupon.sol\":5210:5222  _msgSender() */\n      tag_123\n        /* \"contracts/Coupon.sol\":5210:5220  _msgSender */\n      tag_91\n        /* \"contracts/Coupon.sol\":5210:5222  _msgSender() */\n      jump\t// in\n    tag_123:\n        /* \"contracts/Coupon.sol\":5191:5222  address operator = _msgSender() */\n      swap1\n      pop\n        /* \"contracts/Coupon.sol\":5232:5252  uint256[] memory ids */\n      0x00\n        /* \"contracts/Coupon.sol\":5255:5276  _asSingletonArray(id) */\n      tag_124\n        /* \"contracts/Coupon.sol\":5273:5275  id */\n      dup6\n        /* \"contracts/Coupon.sol\":5255:5272  _asSingletonArray */\n      tag_107\n        /* \"contracts/Coupon.sol\":5255:5276  _asSingletonArray(id) */\n      jump\t// in\n    tag_124:\n        /* \"contracts/Coupon.sol\":5232:5276  uint256[] memory ids = _asSingletonArray(id) */\n      swap1\n      pop\n        /* \"contracts/Coupon.sol\":5286:5310  uint256[] memory amounts */\n      0x00\n        /* \"contracts/Coupon.sol\":5313:5338  _asSingletonArray(amount) */\n      tag_125\n        /* \"contracts/Coupon.sol\":5331:5337  amount */\n      dup6\n        /* \"contracts/Coupon.sol\":5313:5330  _asSingletonArray */\n      tag_107\n        /* \"contracts/Coupon.sol\":5313:5338  _asSingletonArray(amount) */\n      jump\t// in\n    tag_125:\n        /* \"contracts/Coupon.sol\":5286:5338  uint256[] memory amounts = _asSingletonArray(amount) */\n      swap1\n      pop\n        /* \"contracts/Coupon.sol\":5349:5409  _beforeTokenTransfer(operator, from, to, ids, amounts, data) */\n      tag_126\n        /* \"contracts/Coupon.sol\":5370:5378  operator */\n      dup4\n        /* \"contracts/Coupon.sol\":5380:5384  from */\n      dup10\n        /* \"contracts/Coupon.sol\":5386:5388  to */\n      dup10\n        /* \"contracts/Coupon.sol\":5390:5393  ids */\n      dup6\n        /* \"contracts/Coupon.sol\":5395:5402  amounts */\n      dup6\n        /* \"contracts/Coupon.sol\":5404:5408  data */\n      dup10\n        /* \"contracts/Coupon.sol\":5349:5369  _beforeTokenTransfer */\n      tag_110\n        /* \"contracts/Coupon.sol\":5349:5409  _beforeTokenTransfer(operator, from, to, ids, amounts, data) */\n      jump\t// in\n    tag_126:\n        /* \"contracts/Coupon.sol\":5420:5439  uint256 fromBalance */\n      0x00\n        /* \"contracts/Coupon.sol\":5442:5451  _balances */\n      dup1\n        /* \"contracts/Coupon.sol\":5442:5455  _balances[id] */\n      0x00\n        /* \"contracts/Coupon.sol\":5452:5454  id */\n      dup9\n        /* \"contracts/Coupon.sol\":5442:5455  _balances[id] */\n      dup2\n      mstore\n      0x20\n      add\n      swap1\n      dup2\n      mstore\n      0x20\n      add\n      0x00\n      keccak256\n        /* \"contracts/Coupon.sol\":5442:5461  _balances[id][from] */\n      0x00\n        /* \"contracts/Coupon.sol\":5456:5460  from */\n      dup11\n        /* \"contracts/Coupon.sol\":5442:5461  _balances[id][from] */\n      0xffffffffffffffffffffffffffffffffffffffff\n      and\n      0xffffffffffffffffffffffffffffffffffffffff\n      and\n      dup2\n      mstore\n      0x20\n      add\n      swap1\n      dup2\n      mstore\n      0x20\n      add\n      0x00\n      keccak256\n      sload\n        /* \"contracts/Coupon.sol\":5420:5461  uint256 fromBalance = _balances[id][from] */\n      swap1\n      pop\n        /* \"contracts/Coupon.sol\":5507:5513  amount */\n      dup6\n        /* \"contracts/Coupon.sol\":5492:5503  fromBalance */\n      dup2\n        /* \"contracts/Coupon.sol\":5492:5513  fromBalance >= amount */\n      lt\n      iszero\n        /* \"contracts/Coupon.sol\":5471:5581  require(... */\n      tag_127\n      jumpi\n      mload(0x40)\n      0x08c379a000000000000000000000000000000000000000000000000000000000\n      dup2\n      mstore\n      0x04\n      add\n      tag_128\n      swap1\n      tag_129\n      jump\t// in\n    tag_128:\n      mload(0x40)\n      dup1\n      swap2\n      sub\n      swap1\n      revert\n    tag_127:\n        /* \"contracts/Coupon.sol\":5651:5657  amount */\n      dup6\n        /* \"contracts/Coupon.sol\":5637:5648  fromBalance */\n      dup2\n        /* \"contracts/Coupon.sol\":5637:5657  fromBalance - amount */\n      sub\n        /* \"contracts/Coupon.sol\":5615:5624  _balances */\n      0x00\n        /* \"contracts/Coupon.sol\":5615:5628  _balances[id] */\n      dup1\n        /* \"contracts/Coupon.sol\":5625:5627  id */\n      dup10\n        /* \"contracts/Coupon.sol\":5615:5628  _balances[id] */\n      dup2\n      mstore\n      0x20\n      add\n      swap1\n      dup2\n      mstore\n      0x20\n      add\n      0x00\n      keccak256\n        /* \"contracts/Coupon.sol\":5615:5634  _balances[id][from] */\n      0x00\n        /* \"contracts/Coupon.sol\":5629:5633  from */\n      dup12\n        /* \"contracts/Coupon.sol\":5615:5634  _balances[id][from] */\n      0xffffffffffffffffffffffffffffffffffffffff\n      and\n      0xffffffffffffffffffffffffffffffffffffffff\n      and\n      dup2\n      mstore\n      0x20\n      add\n      swap1\n      dup2\n      mstore\n      0x20\n      add\n      0x00\n      keccak256\n        /* \"contracts/Coupon.sol\":5615:5657  _balances[id][from] = fromBalance - amount */\n      dup2\n      swap1\n      sstore\n      pop\n        /* \"contracts/Coupon.sol\":5698:5704  amount */\n      dup6\n        /* \"contracts/Coupon.sol\":5677:5686  _balances */\n      0x00\n        /* \"contracts/Coupon.sol\":5677:5690  _balances[id] */\n      dup1\n        /* \"contracts/Coupon.sol\":5687:5689  id */\n      dup10\n        /* \"contracts/Coupon.sol\":5677:5690  _balances[id] */\n      dup2\n      mstore\n      0x20\n      add\n      swap1\n      dup2\n      mstore\n      0x20\n      add\n      0x00\n      keccak256\n        /* \"contracts/Coupon.sol\":5677:5694  _balances[id][to] */\n      0x00\n        /* \"contracts/Coupon.sol\":5691:5693  to */\n      dup11\n        /* \"contracts/Coupon.sol\":5677:5694  _balances[id][to] */\n      0xffffffffffffffffffffffffffffffffffffffff\n      and\n      0xffffffffffffffffffffffffffffffffffffffff\n      and\n      dup2\n      mstore\n      0x20\n      add\n      swap1\n      dup2\n      mstore\n      0x20\n      add\n      0x00\n      keccak256\n      0x00\n        /* \"contracts/Coupon.sol\":5677:5704  _balances[id][to] += amount */\n      dup3\n      dup3\n      sload\n      tag_130\n      swap2\n      swap1\n      tag_86\n      jump\t// in\n    tag_130:\n      swap3\n      pop\n      pop\n      dup2\n      swap1\n      sstore\n      pop\n        /* \"contracts/Coupon.sol\":5751:5753  to */\n      dup8\n        /* \"contracts/Coupon.sol\":5720:5766  TransferSingle(operator, from, to, id, amount) */\n      0xffffffffffffffffffffffffffffffffffffffff\n      and\n        /* \"contracts/Coupon.sol\":5745:5749  from */\n      dup10\n        /* \"contracts/Coupon.sol\":5720:5766  TransferSingle(operator, from, to, id, amount) */\n      0xffffffffffffffffffffffffffffffffffffffff\n      and\n        /* \"contracts/Coupon.sol\":5735:5743  operator */\n      dup6\n        /* \"contracts/Coupon.sol\":5720:5766  TransferSingle(operator, from, to, id, amount) */\n      0xffffffffffffffffffffffffffffffffffffffff\n      and\n      0xc3d58168c5ae7397731d063d5bbf3d657854427343f4c083240f7aacaa2d0f62\n        /* \"contracts/Coupon.sol\":5755:5757  id */\n      dup11\n        /* \"contracts/Coupon.sol\":5759:5765  amount */\n      dup11\n        /* \"contracts/Coupon.sol\":5720:5766  TransferSingle(operator, from, to, id, amount) */\n      mload(0x40)\n      tag_131\n      swap3\n      swap2\n      swap1\n      tag_113\n      jump\t// in\n    tag_131:\n      mload(0x40)\n      dup1\n      swap2\n      sub\n      swap1\n      log4\n        /* \"contracts/Coupon.sol\":5777:5836  _afterTokenTransfer(operator, from, to, ids, amounts, data) */\n      tag_132\n        /* \"contracts/Coupon.sol\":5797:5805  operator */\n      dup5\n        /* \"contracts/Coupon.sol\":5807:5811  from */\n      dup11\n        /* \"contracts/Coupon.sol\":5813:5815  to */\n      dup11\n        /* \"contracts/Coupon.sol\":5817:5820  ids */\n      dup7\n        /* \"contracts/Coupon.sol\":5822:5829  amounts */\n      dup7\n        /* \"contracts/Coupon.sol\":5831:5835  data */\n      dup11\n        /* \"contracts/Coupon.sol\":5777:5796  _afterTokenTransfer */\n      tag_115\n        /* \"contracts/Coupon.sol\":5777:5836  _afterTokenTransfer(operator, from, to, ids, amounts, data) */\n      jump\t// in\n    tag_132:\n        /* \"contracts/Coupon.sol\":5847:5915  _doSafeTransferAcceptanceCheck(operator, from, to, id, amount, data) */\n      tag_133\n        /* \"contracts/Coupon.sol\":5878:5886  operator */\n      dup5\n        /* \"contracts/Coupon.sol\":5888:5892  from */\n      dup11\n        /* \"contracts/Coupon.sol\":5894:5896  to */\n      dup11\n        /* \"contracts/Coupon.sol\":5898:5900  id */\n      dup11\n        /* \"contracts/Coupon.sol\":5902:5908  amount */\n      dup11\n        /* \"contracts/Coupon.sol\":5910:5914  data */\n      dup11\n        /* \"contracts/Coupon.sol\":5847:5877  _doSafeTransferAcceptanceCheck */\n      tag_117\n        /* \"contracts/Coupon.sol\":5847:5915  _doSafeTransferAcceptanceCheck(operator, from, to, id, amount, data) */\n      jump\t// in\n    tag_133:\n        /* \"contracts/Coupon.sol\":5104:5922  {... */\n      pop\n      pop\n      pop\n      pop\n        /* \"contracts/Coupon.sol\":4941:5922  function _safeTransferFrom(... */\n      pop\n      pop\n      pop\n      pop\n      pop\n      jump\t// out\n        /* \"contracts/Coupon.sol\":11336:11557  function _asSingletonArray(uint256 element)... */\n    tag_107:\n        /* \"contracts/Coupon.sol\":11426:11442  uint256[] memory */\n      0x60\n        /* \"contracts/Coupon.sol\":11458:11480  uint256[] memory array */\n      0x00\n        /* \"contracts/Coupon.sol\":11497:11498  1 */\n      0x01\n        /* \"contracts/Coupon.sol\":11483:11499  new uint256[](1) */\n      0xffffffffffffffff\n      dup2\n      gt\n      iszero\n      tag_135\n      jumpi\n      tag_136\n      tag_137\n      jump\t// in\n    tag_136:\n    tag_135:\n      mload(0x40)\n      swap1\n      dup1\n      dup3\n      mstore\n      dup1\n      0x20\n      mul\n      0x20\n      add\n      dup3\n      add\n      0x40\n      mstore\n      dup1\n      iszero\n      tag_138\n      jumpi\n      dup2\n      0x20\n      add\n      0x20\n      dup3\n      mul\n      dup1\n      calldatasize\n      dup4\n      calldatacopy\n      dup1\n      dup3\n      add\n      swap2\n      pop\n      pop\n      swap1\n      pop\n    tag_138:\n      pop\n        /* \"contracts/Coupon.sol\":11458:11499  uint256[] memory array = new uint256[](1) */\n      swap1\n      pop\n        /* \"contracts/Coupon.sol\":11520:11527  element */\n      dup3\n        /* \"contracts/Coupon.sol\":11509:11514  array */\n      dup2\n        /* \"contracts/Coupon.sol\":11515:11516  0 */\n      0x00\n        /* \"contracts/Coupon.sol\":11509:11517  array[0] */\n      dup2\n      mload\n      dup2\n      lt\n      tag_139\n      jumpi\n      tag_140\n      tag_141\n      jump\t// in\n    tag_140:\n    tag_139:\n      0x20\n      mul\n      0x20\n      add\n      add\n        /* \"contracts/Coupon.sol\":11509:11527  array[0] = element */\n      dup2\n      dup2\n      mstore\n      pop\n      pop\n        /* \"contracts/Coupon.sol\":11545:11550  array */\n      dup1\n        /* \"contracts/Coupon.sol\":11538:11550  return array */\n      swap2\n      pop\n      pop\n        /* \"contracts/Coupon.sol\":11336:11557  function _asSingletonArray(uint256 element)... */\n      swap2\n      swap1\n      pop\n      jump\t// out\n        /* \"contracts/Coupon.sol\":9094:9308  function _beforeTokenTransfer(... */\n    tag_110:\n      pop\n      pop\n      pop\n      pop\n      pop\n      pop\n      jump\t// out\n        /* \"contracts/Coupon.sol\":10241:10454  function _afterTokenTransfer(... */\n    tag_115:\n      pop\n      pop\n      pop\n      pop\n      pop\n      pop\n      jump\t// out\n        /* \"contracts/Coupon.sol\":10460:11330  function _doSafeTransferAcceptanceCheck(... */\n    tag_117:\n        /* \"contracts/Coupon.sol\":10667:10681  isContract(to) */\n      tag_145\n        /* \"contracts/Coupon.sol\":10678:10680  to */\n      dup5\n        /* \"contracts/Coupon.sol\":10667:10677  isContract */\n      tag_146\n        /* \"contracts/Coupon.sol\":10667:10681  isContract(to) */\n      jump\t// in\n    tag_145:\n        /* \"contracts/Coupon.sol\":10663:11324  if (isContract(to)) {... */\n      iszero\n      tag_147\n      jumpi\n        /* \"contracts/Coupon.sol\":10734:10736  to */\n      dup4\n        /* \"contracts/Coupon.sol\":10717:10755  IERC1155Receiver(to).onERC1155Received */\n      0xffffffffffffffffffffffffffffffffffffffff\n      and\n      0xf23a6e61\n        /* \"contracts/Coupon.sol\":10777:10785  operator */\n      dup8\n        /* \"contracts/Coupon.sol\":10807:10811  from */\n      dup8\n        /* \"contracts/Coupon.sol\":10833:10835  id */\n      dup7\n        /* \"contracts/Coupon.sol\":10857:10863  amount */\n      dup7\n        /* \"contracts/Coupon.sol\":10885:10889  data */\n      dup7\n        /* \"contracts/Coupon.sol\":10717:10907  IERC1155Receiver(to).onERC1155Received(... */\n      mload(0x40)\n      dup7\n      0xffffffff\n      and\n      0xe0\n      shl\n      dup2\n      mstore\n      0x04\n      add\n      tag_148\n      swap6\n      swap5\n      swap4\n      swap3\n      swap2\n      swap1\n      tag_149\n      jump\t// in\n    tag_148:\n      0x20\n      mload(0x40)\n      dup1\n      dup4\n      sub\n      dup2\n      0x00\n      dup8\n      dup1\n      extcodesize\n      iszero\n      dup1\n      iszero\n      tag_150\n      jumpi\n      0x00\n      dup1\n      revert\n    tag_150:\n      pop\n      gas\n      call\n      swap3\n      pop\n      pop\n      pop\n      dup1\n      iszero\n      tag_151\n      jumpi\n      pop\n      mload(0x40)\n      returndatasize\n      not(0x1f)\n      0x1f\n      dup3\n      add\n      and\n      dup3\n      add\n      dup1\n      0x40\n      mstore\n      pop\n      dup2\n      add\n      swap1\n      tag_152\n      swap2\n      swap1\n      tag_153\n      jump\t// in\n    tag_152:\n      0x01\n    tag_151:\n        /* \"contracts/Coupon.sol\":10697:11314  try... */\n      tag_154\n      jumpi\n      tag_158\n      tag_159\n      jump\t// in\n    tag_158:\n      dup1\n      0x08c379a0\n      eq\n      iszero\n      tag_157\n      jumpi\n      pop\n      tag_160\n      tag_161\n      jump\t// in\n    tag_160:\n      dup1\n      tag_162\n      jumpi\n      pop\n      jump(tag_156)\n    tag_162:\n        /* \"contracts/Coupon.sol\":11190:11196  reason */\n      dup1\n        /* \"contracts/Coupon.sol\":11183:11197  revert(reason) */\n      mload(0x40)\n      0x08c379a000000000000000000000000000000000000000000000000000000000\n      dup2\n      mstore\n      0x04\n      add\n      tag_163\n      swap2\n      swap1\n      tag_164\n      jump\t// in\n    tag_163:\n      mload(0x40)\n      dup1\n      swap2\n      sub\n      swap1\n      revert\n        /* \"contracts/Coupon.sol\":10697:11314  try... */\n    tag_157:\n      pop\n    tag_156:\n        /* \"contracts/Coupon.sol\":11237:11299  revert(\"ERC1155: transfer to non ERC1155Receiver implementer\") */\n      mload(0x40)\n      0x08c379a000000000000000000000000000000000000000000000000000000000\n      dup2\n      mstore\n      0x04\n      add\n      tag_165\n      swap1\n      tag_166\n      jump\t// in\n    tag_165:\n      mload(0x40)\n      dup1\n      swap2\n      sub\n      swap1\n      revert\n        /* \"contracts/Coupon.sol\":10697:11314  try... */\n    tag_154:\n        /* \"contracts/Coupon.sol\":10980:11023  IERC1155Receiver.onERC1155Received.selector */\n      shl(0xe0, 0xf23a6e61)\n        /* \"contracts/Coupon.sol\":10968:11023  response != IERC1155Receiver.onERC1155Received.selector */\n      not(0xffffffffffffffffffffffffffffffffffffffffffffffffffffffff)\n      and\n        /* \"contracts/Coupon.sol\":10968:10976  response */\n      dup2\n        /* \"contracts/Coupon.sol\":10968:11023  response != IERC1155Receiver.onERC1155Received.selector */\n      not(0xffffffffffffffffffffffffffffffffffffffffffffffffffffffff)\n      and\n      eq\n        /* \"contracts/Coupon.sol\":10964:11116  if (response != IERC1155Receiver.onERC1155Received.selector) {... */\n      tag_168\n      jumpi\n        /* \"contracts/Coupon.sol\":11047:11097  revert(\"ERC1155: ERC1155Receiver rejected tokens\") */\n      mload(0x40)\n      0x08c379a000000000000000000000000000000000000000000000000000000000\n      dup2\n      mstore\n      0x04\n      add\n      tag_169\n      swap1\n      tag_170\n      jump\t// in\n    tag_169:\n      mload(0x40)\n      dup1\n      swap2\n      sub\n      swap1\n      revert\n        /* \"contracts/Coupon.sol\":10964:11116  if (response != IERC1155Receiver.onERC1155Received.selector) {... */\n    tag_168:\n        /* \"contracts/Coupon.sol\":10920:11130  returns (bytes4 response) {... */\n      pop\n        /* \"contracts/Coupon.sol\":10663:11324  if (isContract(to)) {... */\n    tag_147:\n        /* \"contracts/Coupon.sol\":10460:11330  function _doSafeTransferAcceptanceCheck(... */\n      pop\n      pop\n      pop\n      pop\n      pop\n      pop\n      jump\t// out\n        /* \"contracts/Coupon.sol\":3207:3526  function isContract(address account) private view returns (bool) {... */\n    tag_146:\n        /* \"contracts/Coupon.sol\":3266:3270  bool */\n      0x00\n        /* \"contracts/Coupon.sol\":3518:3519  0 */\n      dup1\n        /* \"contracts/Coupon.sol\":3496:3503  account */\n      dup3\n        /* \"contracts/Coupon.sol\":3496:3515  account.code.length */\n      0xffffffffffffffffffffffffffffffffffffffff\n      and\n      extcodesize\n        /* \"contracts/Coupon.sol\":3496:3519  account.code.length > 0 */\n      gt\n        /* \"contracts/Coupon.sol\":3489:3519  return account.code.length > 0 */\n      swap1\n      pop\n        /* \"contracts/Coupon.sol\":3207:3526  function isContract(address account) private view returns (bool) {... */\n      swap2\n      swap1\n      pop\n      jump\t// out\n        /* \"#utility.yul\":7:417   */\n    tag_173:\n        /* \"#utility.yul\":84:89   */\n      0x00\n        /* \"#utility.yul\":109:174   */\n      tag_175\n        /* \"#utility.yul\":125:173   */\n      tag_176\n        /* \"#utility.yul\":166:172   */\n      dup5\n        /* \"#utility.yul\":125:173   */\n      tag_177\n      jump\t// in\n    tag_176:\n        /* \"#utility.yul\":109:174   */\n      tag_178\n      jump\t// in\n    tag_175:\n        /* \"#utility.yul\":100:174   */\n      swap1\n      pop\n        /* \"#utility.yul\":197:203   */\n      dup3\n        /* \"#utility.yul\":190:195   */\n      dup2\n        /* \"#utility.yul\":183:204   */\n      mstore\n        /* \"#utility.yul\":235:239   */\n      0x20\n        /* \"#utility.yul\":228:233   */\n      dup2\n        /* \"#utility.yul\":224:240   */\n      add\n        /* \"#utility.yul\":273:276   */\n      dup5\n        /* \"#utility.yul\":264:270   */\n      dup5\n        /* \"#utility.yul\":259:262   */\n      dup5\n        /* \"#utility.yul\":255:271   */\n      add\n        /* \"#utility.yul\":252:277   */\n      gt\n        /* \"#utility.yul\":249:361   */\n      iszero\n      tag_179\n      jumpi\n        /* \"#utility.yul\":280:359   */\n      tag_180\n      tag_181\n      jump\t// in\n    tag_180:\n        /* \"#utility.yul\":249:361   */\n    tag_179:\n        /* \"#utility.yul\":370:411   */\n      tag_182\n        /* \"#utility.yul\":404:410   */\n      dup5\n        /* \"#utility.yul\":399:402   */\n      dup3\n        /* \"#utility.yul\":394:397   */\n      dup6\n        /* \"#utility.yul\":370:411   */\n      tag_183\n      jump\t// in\n    tag_182:\n        /* \"#utility.yul\":90:417   */\n      pop\n        /* \"#utility.yul\":7:417   */\n      swap4\n      swap3\n      pop\n      pop\n      pop\n      jump\t// out\n        /* \"#utility.yul\":423:562   */\n    tag_184:\n        /* \"#utility.yul\":469:474   */\n      0x00\n        /* \"#utility.yul\":507:513   */\n      dup2\n        /* \"#utility.yul\":494:514   */\n      calldataload\n        /* \"#utility.yul\":485:514   */\n      swap1\n      pop\n        /* \"#utility.yul\":523:556   */\n      tag_186\n        /* \"#utility.yul\":550:555   */\n      dup2\n        /* \"#utility.yul\":523:556   */\n      tag_187\n      jump\t// in\n    tag_186:\n        /* \"#utility.yul\":423:562   */\n      swap3\n      swap2\n      pop\n      pop\n      jump\t// out\n        /* \"#utility.yul\":568:705   */\n    tag_188:\n        /* \"#utility.yul\":622:627   */\n      0x00\n        /* \"#utility.yul\":653:659   */\n      dup2\n        /* \"#utility.yul\":647:660   */\n      mload\n        /* \"#utility.yul\":638:660   */\n      swap1\n      pop\n        /* \"#utility.yul\":669:699   */\n      tag_190\n        /* \"#utility.yul\":693:698   */\n      dup2\n        /* \"#utility.yul\":669:699   */\n      tag_191\n      jump\t// in\n    tag_190:\n        /* \"#utility.yul\":568:705   */\n      swap3\n      swap2\n      pop\n      pop\n      jump\t// out\n        /* \"#utility.yul\":711:852   */\n    tag_192:\n        /* \"#utility.yul\":767:772   */\n      0x00\n        /* \"#utility.yul\":798:804   */\n      dup2\n        /* \"#utility.yul\":792:805   */\n      mload\n        /* \"#utility.yul\":783:805   */\n      swap1\n      pop\n        /* \"#utility.yul\":814:846   */\n      tag_194\n        /* \"#utility.yul\":840:845   */\n      dup2\n        /* \"#utility.yul\":814:846   */\n      tag_195\n      jump\t// in\n    tag_194:\n        /* \"#utility.yul\":711:852   */\n      swap3\n      swap2\n      pop\n      pop\n      jump\t// out\n        /* \"#utility.yul\":871:1423   */\n    tag_196:\n        /* \"#utility.yul\":928:936   */\n      0x00\n        /* \"#utility.yul\":938:944   */\n      dup1\n        /* \"#utility.yul\":988:991   */\n      dup4\n        /* \"#utility.yul\":981:985   */\n      0x1f\n        /* \"#utility.yul\":973:979   */\n      dup5\n        /* \"#utility.yul\":969:986   */\n      add\n        /* \"#utility.yul\":965:992   */\n      slt\n        /* \"#utility.yul\":955:1077   */\n      tag_198\n      jumpi\n        /* \"#utility.yul\":996:1075   */\n      tag_199\n      tag_200\n      jump\t// in\n    tag_199:\n        /* \"#utility.yul\":955:1077   */\n    tag_198:\n        /* \"#utility.yul\":1109:1115   */\n      dup3\n        /* \"#utility.yul\":1096:1116   */\n      calldataload\n        /* \"#utility.yul\":1086:1116   */\n      swap1\n      pop\n        /* \"#utility.yul\":1139:1157   */\n      0xffffffffffffffff\n        /* \"#utility.yul\":1131:1137   */\n      dup2\n        /* \"#utility.yul\":1128:1158   */\n      gt\n        /* \"#utility.yul\":1125:1242   */\n      iszero\n      tag_201\n      jumpi\n        /* \"#utility.yul\":1161:1240   */\n      tag_202\n      tag_203\n      jump\t// in\n    tag_202:\n        /* \"#utility.yul\":1125:1242   */\n    tag_201:\n        /* \"#utility.yul\":1275:1279   */\n      0x20\n        /* \"#utility.yul\":1267:1273   */\n      dup4\n        /* \"#utility.yul\":1263:1280   */\n      add\n        /* \"#utility.yul\":1251:1280   */\n      swap2\n      pop\n        /* \"#utility.yul\":1329:1332   */\n      dup4\n        /* \"#utility.yul\":1321:1325   */\n      0x01\n        /* \"#utility.yul\":1313:1319   */\n      dup3\n        /* \"#utility.yul\":1309:1326   */\n      mul\n        /* \"#utility.yul\":1299:1307   */\n      dup4\n        /* \"#utility.yul\":1295:1327   */\n      add\n        /* \"#utility.yul\":1292:1333   */\n      gt\n        /* \"#utility.yul\":1289:1417   */\n      iszero\n      tag_204\n      jumpi\n        /* \"#utility.yul\":1336:1415   */\n      tag_205\n      tag_206\n      jump\t// in\n    tag_205:\n        /* \"#utility.yul\":1289:1417   */\n    tag_204:\n        /* \"#utility.yul\":871:1423   */\n      swap3\n      pop\n      swap3\n      swap1\n      pop\n      jump\t// out\n        /* \"#utility.yul\":1442:1780   */\n    tag_207:\n        /* \"#utility.yul\":1497:1502   */\n      0x00\n        /* \"#utility.yul\":1546:1549   */\n      dup3\n        /* \"#utility.yul\":1539:1543   */\n      0x1f\n        /* \"#utility.yul\":1531:1537   */\n      dup4\n        /* \"#utility.yul\":1527:1544   */\n      add\n        /* \"#utility.yul\":1523:1550   */\n      slt\n        /* \"#utility.yul\":1513:1635   */\n      tag_209\n      jumpi\n        /* \"#utility.yul\":1554:1633   */\n      tag_210\n      tag_200\n      jump\t// in\n    tag_210:\n        /* \"#utility.yul\":1513:1635   */\n    tag_209:\n        /* \"#utility.yul\":1671:1677   */\n      dup2\n        /* \"#utility.yul\":1658:1678   */\n      calldataload\n        /* \"#utility.yul\":1696:1774   */\n      tag_211\n        /* \"#utility.yul\":1770:1773   */\n      dup5\n        /* \"#utility.yul\":1762:1768   */\n      dup3\n        /* \"#utility.yul\":1755:1759   */\n      0x20\n        /* \"#utility.yul\":1747:1753   */\n      dup7\n        /* \"#utility.yul\":1743:1760   */\n      add\n        /* \"#utility.yul\":1696:1774   */\n      tag_173\n      jump\t// in\n    tag_211:\n        /* \"#utility.yul\":1687:1774   */\n      swap2\n      pop\n        /* \"#utility.yul\":1503:1780   */\n      pop\n        /* \"#utility.yul\":1442:1780   */\n      swap3\n      swap2\n      pop\n      pop\n      jump\t// out\n        /* \"#utility.yul\":1786:1925   */\n    tag_212:\n        /* \"#utility.yul\":1832:1837   */\n      0x00\n        /* \"#utility.yul\":1870:1876   */\n      dup2\n        /* \"#utility.yul\":1857:1877   */\n      calldataload\n        /* \"#utility.yul\":1848:1877   */\n      swap1\n      pop\n        /* \"#utility.yul\":1886:1919   */\n      tag_214\n        /* \"#utility.yul\":1913:1918   */\n      dup2\n        /* \"#utility.yul\":1886:1919   */\n      tag_215\n      jump\t// in\n    tag_214:\n        /* \"#utility.yul\":1786:1925   */\n      swap3\n      swap2\n      pop\n      pop\n      jump\t// out\n        /* \"#utility.yul\":1931:2260   */\n    tag_38:\n        /* \"#utility.yul\":1990:1996   */\n      0x00\n        /* \"#utility.yul\":2039:2041   */\n      0x20\n        /* \"#utility.yul\":2027:2036   */\n      dup3\n        /* \"#utility.yul\":2018:2025   */\n      dup5\n        /* \"#utility.yul\":2014:2037   */\n      sub\n        /* \"#utility.yul\":2010:2042   */\n      slt\n        /* \"#utility.yul\":2007:2126   */\n      iszero\n      tag_217\n      jumpi\n        /* \"#utility.yul\":2045:2124   */\n      tag_218\n      tag_219\n      jump\t// in\n    tag_218:\n        /* \"#utility.yul\":2007:2126   */\n    tag_217:\n        /* \"#utility.yul\":2165:2166   */\n      0x00\n        /* \"#utility.yul\":2190:2243   */\n      tag_220\n        /* \"#utility.yul\":2235:2242   */\n      dup5\n        /* \"#utility.yul\":2226:2232   */\n      dup3\n        /* \"#utility.yul\":2215:2224   */\n      dup6\n        /* \"#utility.yul\":2211:2233   */\n      add\n        /* \"#utility.yul\":2190:2243   */\n      tag_184\n      jump\t// in\n    tag_220:\n        /* \"#utility.yul\":2180:2243   */\n      swap2\n      pop\n        /* \"#utility.yul\":2136:2253   */\n      pop\n        /* \"#utility.yul\":1931:2260   */\n      swap3\n      swap2\n      pop\n      pop\n      jump\t// out\n        /* \"#utility.yul\":2266:3375   */\n    tag_49:\n        /* \"#utility.yul\":2372:2378   */\n      0x00\n        /* \"#utility.yul\":2380:2386   */\n      dup1\n        /* \"#utility.yul\":2388:2394   */\n      0x00\n        /* \"#utility.yul\":2396:2402   */\n      dup1\n        /* \"#utility.yul\":2404:2410   */\n      0x00\n        /* \"#utility.yul\":2412:2418   */\n      dup1\n        /* \"#utility.yul\":2461:2464   */\n      0xa0\n        /* \"#utility.yul\":2449:2458   */\n      dup8\n        /* \"#utility.yul\":2440:2447   */\n      dup10\n        /* \"#utility.yul\":2436:2459   */\n      sub\n        /* \"#utility.yul\":2432:2465   */\n      slt\n        /* \"#utility.yul\":2429:2549   */\n      iszero\n      tag_222\n      jumpi\n        /* \"#utility.yul\":2468:2547   */\n      tag_223\n      tag_219\n      jump\t// in\n    tag_223:\n        /* \"#utility.yul\":2429:2549   */\n    tag_222:\n        /* \"#utility.yul\":2588:2589   */\n      0x00\n        /* \"#utility.yul\":2613:2666   */\n      tag_224\n        /* \"#utility.yul\":2658:2665   */\n      dup10\n        /* \"#utility.yul\":2649:2655   */\n      dup3\n        /* \"#utility.yul\":2638:2647   */\n      dup11\n        /* \"#utility.yul\":2634:2656   */\n      add\n        /* \"#utility.yul\":2613:2666   */\n      tag_184\n      jump\t// in\n    tag_224:\n        /* \"#utility.yul\":2603:2666   */\n      swap7\n      pop\n        /* \"#utility.yul\":2559:2676   */\n      pop\n        /* \"#utility.yul\":2715:2717   */\n      0x20\n        /* \"#utility.yul\":2741:2794   */\n      tag_225\n        /* \"#utility.yul\":2786:2793   */\n      dup10\n        /* \"#utility.yul\":2777:2783   */\n      dup3\n        /* \"#utility.yul\":2766:2775   */\n      dup11\n        /* \"#utility.yul\":2762:2784   */\n      add\n        /* \"#utility.yul\":2741:2794   */\n      tag_184\n      jump\t// in\n    tag_225:\n        /* \"#utility.yul\":2731:2794   */\n      swap6\n      pop\n        /* \"#utility.yul\":2686:2804   */\n      pop\n        /* \"#utility.yul\":2843:2845   */\n      0x40\n        /* \"#utility.yul\":2869:2922   */\n      tag_226\n        /* \"#utility.yul\":2914:2921   */\n      dup10\n        /* \"#utility.yul\":2905:2911   */\n      dup3\n        /* \"#utility.yul\":2894:2903   */\n      dup11\n        /* \"#utility.yul\":2890:2912   */\n      add\n        /* \"#utility.yul\":2869:2922   */\n      tag_212\n      jump\t// in\n    tag_226:\n        /* \"#utility.yul\":2859:2922   */\n      swap5\n      pop\n        /* \"#utility.yul\":2814:2932   */\n      pop\n        /* \"#utility.yul\":2971:2973   */\n      0x60\n        /* \"#utility.yul\":2997:3050   */\n      tag_227\n        /* \"#utility.yul\":3042:3049   */\n      dup10\n        /* \"#utility.yul\":3033:3039   */\n      dup3\n        /* \"#utility.yul\":3022:3031   */\n      dup11\n        /* \"#utility.yul\":3018:3040   */\n      add\n        /* \"#utility.yul\":2997:3050   */\n      tag_212\n      jump\t// in\n    tag_227:\n        /* \"#utility.yul\":2987:3050   */\n      swap4\n      pop\n        /* \"#utility.yul\":2942:3060   */\n      pop\n        /* \"#utility.yul\":3127:3130   */\n      0x80\n        /* \"#utility.yul\":3116:3125   */\n      dup8\n        /* \"#utility.yul\":3112:3131   */\n      add\n        /* \"#utility.yul\":3099:3132   */\n      calldataload\n        /* \"#utility.yul\":3159:3177   */\n      0xffffffffffffffff\n        /* \"#utility.yul\":3151:3157   */\n      dup2\n        /* \"#utility.yul\":3148:3178   */\n      gt\n        /* \"#utility.yul\":3145:3262   */\n      iszero\n      tag_228\n      jumpi\n        /* \"#utility.yul\":3181:3260   */\n      tag_229\n      tag_230\n      jump\t// in\n    tag_229:\n        /* \"#utility.yul\":3145:3262   */\n    tag_228:\n        /* \"#utility.yul\":3294:3358   */\n      tag_231\n        /* \"#utility.yul\":3350:3357   */\n      dup10\n        /* \"#utility.yul\":3341:3347   */\n      dup3\n        /* \"#utility.yul\":3330:3339   */\n      dup11\n        /* \"#utility.yul\":3326:3348   */\n      add\n        /* \"#utility.yul\":3294:3358   */\n      tag_196\n      jump\t// in\n    tag_231:\n        /* \"#utility.yul\":3276:3358   */\n      swap3\n      pop\n      swap3\n      pop\n        /* \"#utility.yul\":3070:3368   */\n      pop\n        /* \"#utility.yul\":2266:3375   */\n      swap3\n      swap6\n      pop\n      swap3\n      swap6\n      pop\n      swap3\n      swap6\n      jump\t// out\n        /* \"#utility.yul\":3381:4470   */\n    tag_56:\n        /* \"#utility.yul\":3485:3491   */\n      0x00\n        /* \"#utility.yul\":3493:3499   */\n      dup1\n        /* \"#utility.yul\":3501:3507   */\n      0x00\n        /* \"#utility.yul\":3509:3515   */\n      dup1\n        /* \"#utility.yul\":3517:3523   */\n      0x00\n        /* \"#utility.yul\":3566:3569   */\n      0xa0\n        /* \"#utility.yul\":3554:3563   */\n      dup7\n        /* \"#utility.yul\":3545:3552   */\n      dup9\n        /* \"#utility.yul\":3541:3564   */\n      sub\n        /* \"#utility.yul\":3537:3570   */\n      slt\n        /* \"#utility.yul\":3534:3654   */\n      iszero\n      tag_233\n      jumpi\n        /* \"#utility.yul\":3573:3652   */\n      tag_234\n      tag_219\n      jump\t// in\n    tag_234:\n        /* \"#utility.yul\":3534:3654   */\n    tag_233:\n        /* \"#utility.yul\":3693:3694   */\n      0x00\n        /* \"#utility.yul\":3718:3771   */\n      tag_235\n        /* \"#utility.yul\":3763:3770   */\n      dup9\n        /* \"#utility.yul\":3754:3760   */\n      dup3\n        /* \"#utility.yul\":3743:3752   */\n      dup10\n        /* \"#utility.yul\":3739:3761   */\n      add\n        /* \"#utility.yul\":3718:3771   */\n      tag_184\n      jump\t// in\n    tag_235:\n        /* \"#utility.yul\":3708:3771   */\n      swap6\n      pop\n        /* \"#utility.yul\":3664:3781   */\n      pop\n        /* \"#utility.yul\":3820:3822   */\n      0x20\n        /* \"#utility.yul\":3846:3899   */\n      tag_236\n        /* \"#utility.yul\":3891:3898   */\n      dup9\n        /* \"#utility.yul\":3882:3888   */\n      dup3\n        /* \"#utility.yul\":3871:3880   */\n      dup10\n        /* \"#utility.yul\":3867:3889   */\n      add\n        /* \"#utility.yul\":3846:3899   */\n      tag_184\n      jump\t// in\n    tag_236:\n        /* \"#utility.yul\":3836:3899   */\n      swap5\n      pop\n        /* \"#utility.yul\":3791:3909   */\n      pop\n        /* \"#utility.yul\":3948:3950   */\n      0x40\n        /* \"#utility.yul\":3974:4027   */\n      tag_237\n        /* \"#utility.yul\":4019:4026   */\n      dup9\n        /* \"#utility.yul\":4010:4016   */\n      dup3\n        /* \"#utility.yul\":3999:4008   */\n      dup10\n        /* \"#utility.yul\":3995:4017   */\n      add\n        /* \"#utility.yul\":3974:4027   */\n      tag_212\n      jump\t// in\n    tag_237:\n        /* \"#utility.yul\":3964:4027   */\n      swap4\n      pop\n        /* \"#utility.yul\":3919:4037   */\n      pop\n        /* \"#utility.yul\":4076:4078   */\n      0x60\n        /* \"#utility.yul\":4102:4155   */\n      tag_238\n        /* \"#utility.yul\":4147:4154   */\n      dup9\n        /* \"#utility.yul\":4138:4144   */\n      dup3\n        /* \"#utility.yul\":4127:4136   */\n      dup10\n        /* \"#utility.yul\":4123:4145   */\n      add\n        /* \"#utility.yul\":4102:4155   */\n      tag_212\n      jump\t// in\n    tag_238:\n        /* \"#utility.yul\":4092:4155   */\n      swap3\n      pop\n        /* \"#utility.yul\":4047:4165   */\n      pop\n        /* \"#utility.yul\":4232:4235   */\n      0x80\n        /* \"#utility.yul\":4221:4230   */\n      dup7\n        /* \"#utility.yul\":4217:4236   */\n      add\n        /* \"#utility.yul\":4204:4237   */\n      calldataload\n        /* \"#utility.yul\":4264:4282   */\n      0xffffffffffffffff\n        /* \"#utility.yul\":4256:4262   */\n      dup2\n        /* \"#utility.yul\":4253:4283   */\n      gt\n        /* \"#utility.yul\":4250:4367   */\n      iszero\n      tag_239\n      jumpi\n        /* \"#utility.yul\":4286:4365   */\n      tag_240\n      tag_230\n      jump\t// in\n    tag_240:\n        /* \"#utility.yul\":4250:4367   */\n    tag_239:\n        /* \"#utility.yul\":4391:4453   */\n      tag_241\n        /* \"#utility.yul\":4445:4452   */\n      dup9\n        /* \"#utility.yul\":4436:4442   */\n      dup3\n        /* \"#utility.yul\":4425:4434   */\n      dup10\n        /* \"#utility.yul\":4421:4443   */\n      add\n        /* \"#utility.yul\":4391:4453   */\n      tag_207\n      jump\t// in\n    tag_241:\n        /* \"#utility.yul\":4381:4453   */\n      swap2\n      pop\n        /* \"#utility.yul\":4175:4463   */\n      pop\n        /* \"#utility.yul\":3381:4470   */\n      swap3\n      swap6\n      pop\n      swap3\n      swap6\n      swap1\n      swap4\n      pop\n      jump\t// out\n        /* \"#utility.yul\":4476:4950   */\n    tag_14:\n        /* \"#utility.yul\":4544:4550   */\n      0x00\n        /* \"#utility.yul\":4552:4558   */\n      dup1\n        /* \"#utility.yul\":4601:4603   */\n      0x40\n        /* \"#utility.yul\":4589:4598   */\n      dup4\n        /* \"#utility.yul\":4580:4587   */\n      dup6\n        /* \"#utility.yul\":4576:4599   */\n      sub\n        /* \"#utility.yul\":4572:4604   */\n      slt\n        /* \"#utility.yul\":4569:4688   */\n      iszero\n      tag_243\n      jumpi\n        /* \"#utility.yul\":4607:4686   */\n      tag_244\n      tag_219\n      jump\t// in\n    tag_244:\n        /* \"#utility.yul\":4569:4688   */\n    tag_243:\n        /* \"#utility.yul\":4727:4728   */\n      0x00\n        /* \"#utility.yul\":4752:4805   */\n      tag_245\n        /* \"#utility.yul\":4797:4804   */\n      dup6\n        /* \"#utility.yul\":4788:4794   */\n      dup3\n        /* \"#utility.yul\":4777:4786   */\n      dup7\n        /* \"#utility.yul\":4773:4795   */\n      add\n        /* \"#utility.yul\":4752:4805   */\n      tag_184\n      jump\t// in\n    tag_245:\n        /* \"#utility.yul\":4742:4805   */\n      swap3\n      pop\n        /* \"#utility.yul\":4698:4815   */\n      pop\n        /* \"#utility.yul\":4854:4856   */\n      0x20\n        /* \"#utility.yul\":4880:4933   */\n      tag_246\n        /* \"#utility.yul\":4925:4932   */\n      dup6\n        /* \"#utility.yul\":4916:4922   */\n      dup3\n        /* \"#utility.yul\":4905:4914   */\n      dup7\n        /* \"#utility.yul\":4901:4923   */\n      add\n        /* \"#utility.yul\":4880:4933   */\n      tag_212\n      jump\t// in\n    tag_246:\n        /* \"#utility.yul\":4870:4933   */\n      swap2\n      pop\n        /* \"#utility.yul\":4825:4943   */\n      pop\n        /* \"#utility.yul\":4476:4950   */\n      swap3\n      pop\n      swap3\n      swap1\n      pop\n      jump\t// out\n        /* \"#utility.yul\":4956:5301   */\n    tag_69:\n        /* \"#utility.yul\":5023:5029   */\n      0x00\n        /* \"#utility.yul\":5072:5074   */\n      0x20\n        /* \"#utility.yul\":5060:5069   */\n      dup3\n        /* \"#utility.yul\":5051:5058   */\n      dup5\n        /* \"#utility.yul\":5047:5070   */\n      sub\n        /* \"#utility.yul\":5043:5075   */\n      slt\n        /* \"#utility.yul\":5040:5159   */\n      iszero\n      tag_248\n      jumpi\n        /* \"#utility.yul\":5078:5157   */\n      tag_249\n      tag_219\n      jump\t// in\n    tag_249:\n        /* \"#utility.yul\":5040:5159   */\n    tag_248:\n        /* \"#utility.yul\":5198:5199   */\n      0x00\n        /* \"#utility.yul\":5223:5284   */\n      tag_250\n        /* \"#utility.yul\":5276:5283   */\n      dup5\n        /* \"#utility.yul\":5267:5273   */\n      dup3\n        /* \"#utility.yul\":5256:5265   */\n      dup6\n        /* \"#utility.yul\":5252:5274   */\n      add\n        /* \"#utility.yul\":5223:5284   */\n      tag_188\n      jump\t// in\n    tag_250:\n        /* \"#utility.yul\":5213:5284   */\n      swap2\n      pop\n        /* \"#utility.yul\":5169:5294   */\n      pop\n        /* \"#utility.yul\":4956:5301   */\n      swap3\n      swap2\n      pop\n      pop\n      jump\t// out\n        /* \"#utility.yul\":5307:5656   */\n    tag_153:\n        /* \"#utility.yul\":5376:5382   */\n      0x00\n        /* \"#utility.yul\":5425:5427   */\n      0x20\n        /* \"#utility.yul\":5413:5422   */\n      dup3\n        /* \"#utility.yul\":5404:5411   */\n      dup5\n        /* \"#utility.yul\":5400:5423   */\n      sub\n        /* \"#utility.yul\":5396:5428   */\n      slt\n        /* \"#utility.yul\":5393:5512   */\n      iszero\n      tag_252\n      jumpi\n        /* \"#utility.yul\":5431:5510   */\n      tag_253\n      tag_219\n      jump\t// in\n    tag_253:\n        /* \"#utility.yul\":5393:5512   */\n    tag_252:\n        /* \"#utility.yul\":5551:5552   */\n      0x00\n        /* \"#utility.yul\":5576:5639   */\n      tag_254\n        /* \"#utility.yul\":5631:5638   */\n      dup5\n        /* \"#utility.yul\":5622:5628   */\n      dup3\n        /* \"#utility.yul\":5611:5620   */\n      dup6\n        /* \"#utility.yul\":5607:5629   */\n      add\n        /* \"#utility.yul\":5576:5639   */\n      tag_192\n      jump\t// in\n    tag_254:\n        /* \"#utility.yul\":5566:5639   */\n      swap2\n      pop\n        /* \"#utility.yul\":5522:5649   */\n      pop\n        /* \"#utility.yul\":5307:5656   */\n      swap3\n      swap2\n      pop\n      pop\n      jump\t// out\n        /* \"#utility.yul\":5662:5991   */\n    tag_32:\n        /* \"#utility.yul\":5721:5727   */\n      0x00\n        /* \"#utility.yul\":5770:5772   */\n      0x20\n        /* \"#utility.yul\":5758:5767   */\n      dup3\n        /* \"#utility.yul\":5749:5756   */\n      dup5\n        /* \"#utility.yul\":5745:5768   */\n      sub\n        /* \"#utility.yul\":5741:5773   */\n      slt\n        /* \"#utility.yul\":5738:5857   */\n      iszero\n      tag_256\n      jumpi\n        /* \"#utility.yul\":5776:5855   */\n      tag_257\n      tag_219\n      jump\t// in\n    tag_257:\n        /* \"#utility.yul\":5738:5857   */\n    tag_256:\n        /* \"#utility.yul\":5896:5897   */\n      0x00\n        /* \"#utility.yul\":5921:5974   */\n      tag_258\n        /* \"#utility.yul\":5966:5973   */\n      dup5\n        /* \"#utility.yul\":5957:5963   */\n      dup3\n        /* \"#utility.yul\":5946:5955   */\n      dup6\n        /* \"#utility.yul\":5942:5964   */\n      add\n        /* \"#utility.yul\":5921:5974   */\n      tag_212\n      jump\t// in\n    tag_258:\n        /* \"#utility.yul\":5911:5974   */\n      swap2\n      pop\n        /* \"#utility.yul\":5867:5984   */\n      pop\n        /* \"#utility.yul\":5662:5991   */\n      swap3\n      swap2\n      pop\n      pop\n      jump\t// out\n        /* \"#utility.yul\":5997:6471   */\n    tag_27:\n        /* \"#utility.yul\":6065:6071   */\n      0x00\n        /* \"#utility.yul\":6073:6079   */\n      dup1\n        /* \"#utility.yul\":6122:6124   */\n      0x40\n        /* \"#utility.yul\":6110:6119   */\n      dup4\n        /* \"#utility.yul\":6101:6108   */\n      dup6\n        /* \"#utility.yul\":6097:6120   */\n      sub\n        /* \"#utility.yul\":6093:6125   */\n      slt\n        /* \"#utility.yul\":6090:6209   */\n      iszero\n      tag_260\n      jumpi\n        /* \"#utility.yul\":6128:6207   */\n      tag_261\n      tag_219\n      jump\t// in\n    tag_261:\n        /* \"#utility.yul\":6090:6209   */\n    tag_260:\n        /* \"#utility.yul\":6248:6249   */\n      0x00\n        /* \"#utility.yul\":6273:6326   */\n      tag_262\n        /* \"#utility.yul\":6318:6325   */\n      dup6\n        /* \"#utility.yul\":6309:6315   */\n      dup3\n        /* \"#utility.yul\":6298:6307   */\n      dup7\n        /* \"#utility.yul\":6294:6316   */\n      add\n        /* \"#utility.yul\":6273:6326   */\n      tag_212\n      jump\t// in\n    tag_262:\n        /* \"#utility.yul\":6263:6326   */\n      swap3\n      pop\n        /* \"#utility.yul\":6219:6336   */\n      pop\n        /* \"#utility.yul\":6375:6377   */\n      0x20\n        /* \"#utility.yul\":6401:6454   */\n      tag_263\n        /* \"#utility.yul\":6446:6453   */\n      dup6\n        /* \"#utility.yul\":6437:6443   */\n      dup3\n        /* \"#utility.yul\":6426:6435   */\n      dup7\n        /* \"#utility.yul\":6422:6444   */\n      add\n        /* \"#utility.yul\":6401:6454   */\n      tag_212\n      jump\t// in\n    tag_263:\n        /* \"#utility.yul\":6391:6454   */\n      swap2\n      pop\n        /* \"#utility.yul\":6346:6464   */\n      pop\n        /* \"#utility.yul\":5997:6471   */\n      swap3\n      pop\n      swap3\n      swap1\n      pop\n      jump\t// out\n        /* \"#utility.yul\":6477:7242   */\n    tag_20:\n        /* \"#utility.yul\":6563:6569   */\n      0x00\n        /* \"#utility.yul\":6571:6577   */\n      dup1\n        /* \"#utility.yul\":6579:6585   */\n      0x00\n        /* \"#utility.yul\":6587:6593   */\n      dup1\n        /* \"#utility.yul\":6636:6639   */\n      0x80\n        /* \"#utility.yul\":6624:6633   */\n      dup6\n        /* \"#utility.yul\":6615:6622   */\n      dup8\n        /* \"#utility.yul\":6611:6634   */\n      sub\n        /* \"#utility.yul\":6607:6640   */\n      slt\n        /* \"#utility.yul\":6604:6724   */\n      iszero\n      tag_265\n      jumpi\n        /* \"#utility.yul\":6643:6722   */\n      tag_266\n      tag_219\n      jump\t// in\n    tag_266:\n        /* \"#utility.yul\":6604:6724   */\n    tag_265:\n        /* \"#utility.yul\":6763:6764   */\n      0x00\n        /* \"#utility.yul\":6788:6841   */\n      tag_267\n        /* \"#utility.yul\":6833:6840   */\n      dup8\n        /* \"#utility.yul\":6824:6830   */\n      dup3\n        /* \"#utility.yul\":6813:6822   */\n      dup9\n        /* \"#utility.yul\":6809:6831   */\n      add\n        /* \"#utility.yul\":6788:6841   */\n      tag_212\n      jump\t// in\n    tag_267:\n        /* \"#utility.yul\":6778:6841   */\n      swap5\n      pop\n        /* \"#utility.yul\":6734:6851   */\n      pop\n        /* \"#utility.yul\":6890:6892   */\n      0x20\n        /* \"#utility.yul\":6916:6969   */\n      tag_268\n        /* \"#utility.yul\":6961:6968   */\n      dup8\n        /* \"#utility.yul\":6952:6958   */\n      dup3\n        /* \"#utility.yul\":6941:6950   */\n      dup9\n        /* \"#utility.yul\":6937:6959   */\n      add\n        /* \"#utility.yul\":6916:6969   */\n      tag_212\n      jump\t// in\n    tag_268:\n        /* \"#utility.yul\":6906:6969   */\n      swap4\n      pop\n        /* \"#utility.yul\":6861:6979   */\n      pop\n        /* \"#utility.yul\":7018:7020   */\n      0x40\n        /* \"#utility.yul\":7044:7097   */\n      tag_269\n        /* \"#utility.yul\":7089:7096   */\n      dup8\n        /* \"#utility.yul\":7080:7086   */\n      dup3\n        /* \"#utility.yul\":7069:7078   */\n      dup9\n        /* \"#utility.yul\":7065:7087   */\n      add\n        /* \"#utility.yul\":7044:7097   */\n      tag_212\n      jump\t// in\n    tag_269:\n        /* \"#utility.yul\":7034:7097   */\n      swap3\n      pop\n        /* \"#utility.yul\":6989:7107   */\n      pop\n        /* \"#utility.yul\":7146:7148   */\n      0x60\n        /* \"#utility.yul\":7172:7225   */\n      tag_270\n        /* \"#utility.yul\":7217:7224   */\n      dup8\n        /* \"#utility.yul\":7208:7214   */\n      dup3\n        /* \"#utility.yul\":7197:7206   */\n      dup9\n        /* \"#utility.yul\":7193:7215   */\n      add\n        /* \"#utility.yul\":7172:7225   */\n      tag_184\n      jump\t// in\n    tag_270:\n        /* \"#utility.yul\":7162:7225   */\n      swap2\n      pop\n        /* \"#utility.yul\":7117:7235   */\n      pop\n        /* \"#utility.yul\":6477:7242   */\n      swap3\n      swap6\n      swap2\n      swap5\n      pop\n      swap3\n      pop\n      jump\t// out\n        /* \"#utility.yul\":7248:7366   */\n    tag_271:\n        /* \"#utility.yul\":7335:7359   */\n      tag_273\n        /* \"#utility.yul\":7353:7358   */\n      dup2\n        /* \"#utility.yul\":7335:7359   */\n      tag_274\n      jump\t// in\n    tag_273:\n        /* \"#utility.yul\":7330:7333   */\n      dup3\n        /* \"#utility.yul\":7323:7360   */\n      mstore\n        /* \"#utility.yul\":7248:7366   */\n      pop\n      pop\n      jump\t// out\n        /* \"#utility.yul\":7372:7481   */\n    tag_275:\n        /* \"#utility.yul\":7453:7474   */\n      tag_277\n        /* \"#utility.yul\":7468:7473   */\n      dup2\n        /* \"#utility.yul\":7453:7474   */\n      tag_278\n      jump\t// in\n    tag_277:\n        /* \"#utility.yul\":7448:7451   */\n      dup3\n        /* \"#utility.yul\":7441:7475   */\n      mstore\n        /* \"#utility.yul\":7372:7481   */\n      pop\n      pop\n      jump\t// out\n        /* \"#utility.yul\":7487:7602   */\n    tag_279:\n        /* \"#utility.yul\":7572:7595   */\n      tag_281\n        /* \"#utility.yul\":7589:7594   */\n      dup2\n        /* \"#utility.yul\":7572:7595   */\n      tag_282\n      jump\t// in\n    tag_281:\n        /* \"#utility.yul\":7567:7570   */\n      dup3\n        /* \"#utility.yul\":7560:7596   */\n      mstore\n        /* \"#utility.yul\":7487:7602   */\n      pop\n      pop\n      jump\t// out\n        /* \"#utility.yul\":7630:7931   */\n    tag_283:\n        /* \"#utility.yul\":7726:7729   */\n      0x00\n        /* \"#utility.yul\":7747:7817   */\n      tag_285\n        /* \"#utility.yul\":7810:7816   */\n      dup4\n        /* \"#utility.yul\":7805:7808   */\n      dup6\n        /* \"#utility.yul\":7747:7817   */\n      tag_286\n      jump\t// in\n    tag_285:\n        /* \"#utility.yul\":7740:7817   */\n      swap4\n      pop\n        /* \"#utility.yul\":7827:7870   */\n      tag_287\n        /* \"#utility.yul\":7863:7869   */\n      dup4\n        /* \"#utility.yul\":7858:7861   */\n      dup6\n        /* \"#utility.yul\":7851:7856   */\n      dup5\n        /* \"#utility.yul\":7827:7870   */\n      tag_183\n      jump\t// in\n    tag_287:\n        /* \"#utility.yul\":7895:7924   */\n      tag_288\n        /* \"#utility.yul\":7917:7923   */\n      dup4\n        /* \"#utility.yul\":7895:7924   */\n      tag_289\n      jump\t// in\n    tag_288:\n        /* \"#utility.yul\":7890:7893   */\n      dup5\n        /* \"#utility.yul\":7886:7925   */\n      add\n        /* \"#utility.yul\":7879:7925   */\n      swap1\n      pop\n        /* \"#utility.yul\":7630:7931   */\n      swap4\n      swap3\n      pop\n      pop\n      pop\n      jump\t// out\n        /* \"#utility.yul\":7937:8297   */\n    tag_290:\n        /* \"#utility.yul\":8023:8026   */\n      0x00\n        /* \"#utility.yul\":8051:8089   */\n      tag_292\n        /* \"#utility.yul\":8083:8088   */\n      dup3\n        /* \"#utility.yul\":8051:8089   */\n      tag_293\n      jump\t// in\n    tag_292:\n        /* \"#utility.yul\":8105:8175   */\n      tag_294\n        /* \"#utility.yul\":8168:8174   */\n      dup2\n        /* \"#utility.yul\":8163:8166   */\n      dup6\n        /* \"#utility.yul\":8105:8175   */\n      tag_286\n      jump\t// in\n    tag_294:\n        /* \"#utility.yul\":8098:8175   */\n      swap4\n      pop\n        /* \"#utility.yul\":8184:8236   */\n      tag_295\n        /* \"#utility.yul\":8229:8235   */\n      dup2\n        /* \"#utility.yul\":8224:8227   */\n      dup6\n        /* \"#utility.yul\":8217:8221   */\n      0x20\n        /* \"#utility.yul\":8210:8215   */\n      dup7\n        /* \"#utility.yul\":8206:8222   */\n      add\n        /* \"#utility.yul\":8184:8236   */\n      tag_296\n      jump\t// in\n    tag_295:\n        /* \"#utility.yul\":8261:8290   */\n      tag_297\n        /* \"#utility.yul\":8283:8289   */\n      dup2\n        /* \"#utility.yul\":8261:8290   */\n      tag_289\n      jump\t// in\n    tag_297:\n        /* \"#utility.yul\":8256:8259   */\n      dup5\n        /* \"#utility.yul\":8252:8291   */\n      add\n        /* \"#utility.yul\":8245:8291   */\n      swap2\n      pop\n        /* \"#utility.yul\":8027:8297   */\n      pop\n        /* \"#utility.yul\":7937:8297   */\n      swap3\n      swap2\n      pop\n      pop\n      jump\t// out\n        /* \"#utility.yul\":8303:8667   */\n    tag_298:\n        /* \"#utility.yul\":8391:8394   */\n      0x00\n        /* \"#utility.yul\":8419:8458   */\n      tag_300\n        /* \"#utility.yul\":8452:8457   */\n      dup3\n        /* \"#utility.yul\":8419:8458   */\n      tag_301\n      jump\t// in\n    tag_300:\n        /* \"#utility.yul\":8474:8545   */\n      tag_302\n        /* \"#utility.yul\":8538:8544   */\n      dup2\n        /* \"#utility.yul\":8533:8536   */\n      dup6\n        /* \"#utility.yul\":8474:8545   */\n      tag_303\n      jump\t// in\n    tag_302:\n        /* \"#utility.yul\":8467:8545   */\n      swap4\n      pop\n        /* \"#utility.yul\":8554:8606   */\n      tag_304\n        /* \"#utility.yul\":8599:8605   */\n      dup2\n        /* \"#utility.yul\":8594:8597   */\n      dup6\n        /* \"#utility.yul\":8587:8591   */\n      0x20\n        /* \"#utility.yul\":8580:8585   */\n      dup7\n        /* \"#utility.yul\":8576:8592   */\n      add\n        /* \"#utility.yul\":8554:8606   */\n      tag_296\n      jump\t// in\n    tag_304:\n        /* \"#utility.yul\":8631:8660   */\n      tag_305\n        /* \"#utility.yul\":8653:8659   */\n      dup2\n        /* \"#utility.yul\":8631:8660   */\n      tag_289\n      jump\t// in\n    tag_305:\n        /* \"#utility.yul\":8626:8629   */\n      dup5\n        /* \"#utility.yul\":8622:8661   */\n      add\n        /* \"#utility.yul\":8615:8661   */\n      swap2\n      pop\n        /* \"#utility.yul\":8395:8667   */\n      pop\n        /* \"#utility.yul\":8303:8667   */\n      swap3\n      swap2\n      pop\n      pop\n      jump\t// out\n        /* \"#utility.yul\":8673:9039   */\n    tag_306:\n        /* \"#utility.yul\":8815:8818   */\n      0x00\n        /* \"#utility.yul\":8836:8903   */\n      tag_308\n        /* \"#utility.yul\":8900:8902   */\n      0x34\n        /* \"#utility.yul\":8895:8898   */\n      dup4\n        /* \"#utility.yul\":8836:8903   */\n      tag_303\n      jump\t// in\n    tag_308:\n        /* \"#utility.yul\":8829:8903   */\n      swap2\n      pop\n        /* \"#utility.yul\":8912:9005   */\n      tag_309\n        /* \"#utility.yul\":9001:9004   */\n      dup3\n        /* \"#utility.yul\":8912:9005   */\n      tag_310\n      jump\t// in\n    tag_309:\n        /* \"#utility.yul\":9030:9032   */\n      0x40\n        /* \"#utility.yul\":9025:9028   */\n      dup3\n        /* \"#utility.yul\":9021:9033   */\n      add\n        /* \"#utility.yul\":9014:9033   */\n      swap1\n      pop\n        /* \"#utility.yul\":8673:9039   */\n      swap2\n      swap1\n      pop\n      jump\t// out\n        /* \"#utility.yul\":9045:9411   */\n    tag_311:\n        /* \"#utility.yul\":9187:9190   */\n      0x00\n        /* \"#utility.yul\":9208:9275   */\n      tag_313\n        /* \"#utility.yul\":9272:9274   */\n      0x2f\n        /* \"#utility.yul\":9267:9270   */\n      dup4\n        /* \"#utility.yul\":9208:9275   */\n      tag_303\n      jump\t// in\n    tag_313:\n        /* \"#utility.yul\":9201:9275   */\n      swap2\n      pop\n        /* \"#utility.yul\":9284:9377   */\n      tag_314\n        /* \"#utility.yul\":9373:9376   */\n      dup3\n        /* \"#utility.yul\":9284:9377   */\n      tag_315\n      jump\t// in\n    tag_314:\n        /* \"#utility.yul\":9402:9404   */\n      0x40\n        /* \"#utility.yul\":9397:9400   */\n      dup3\n        /* \"#utility.yul\":9393:9405   */\n      add\n        /* \"#utility.yul\":9386:9405   */\n      swap1\n      pop\n        /* \"#utility.yul\":9045:9411   */\n      swap2\n      swap1\n      pop\n      jump\t// out\n        /* \"#utility.yul\":9417:9783   */\n    tag_316:\n        /* \"#utility.yul\":9559:9562   */\n      0x00\n        /* \"#utility.yul\":9580:9647   */\n      tag_318\n        /* \"#utility.yul\":9644:9646   */\n      0x28\n        /* \"#utility.yul\":9639:9642   */\n      dup4\n        /* \"#utility.yul\":9580:9647   */\n      tag_303\n      jump\t// in\n    tag_318:\n        /* \"#utility.yul\":9573:9647   */\n      swap2\n      pop\n        /* \"#utility.yul\":9656:9749   */\n      tag_319\n        /* \"#utility.yul\":9745:9748   */\n      dup3\n        /* \"#utility.yul\":9656:9749   */\n      tag_320\n      jump\t// in\n    tag_319:\n        /* \"#utility.yul\":9774:9776   */\n      0x40\n        /* \"#utility.yul\":9769:9772   */\n      dup3\n        /* \"#utility.yul\":9765:9777   */\n      add\n        /* \"#utility.yul\":9758:9777   */\n      swap1\n      pop\n        /* \"#utility.yul\":9417:9783   */\n      swap2\n      swap1\n      pop\n      jump\t// out\n        /* \"#utility.yul\":9789:10155   */\n    tag_321:\n        /* \"#utility.yul\":9931:9934   */\n      0x00\n        /* \"#utility.yul\":9952:10019   */\n      tag_323\n        /* \"#utility.yul\":10016:10018   */\n      0x2a\n        /* \"#utility.yul\":10011:10014   */\n      dup4\n        /* \"#utility.yul\":9952:10019   */\n      tag_303\n      jump\t// in\n    tag_323:\n        /* \"#utility.yul\":9945:10019   */\n      swap2\n      pop\n        /* \"#utility.yul\":10028:10121   */\n      tag_324\n        /* \"#utility.yul\":10117:10120   */\n      dup3\n        /* \"#utility.yul\":10028:10121   */\n      tag_325\n      jump\t// in\n    tag_324:\n        /* \"#utility.yul\":10146:10148   */\n      0x40\n        /* \"#utility.yul\":10141:10144   */\n      dup3\n        /* \"#utility.yul\":10137:10149   */\n      add\n        /* \"#utility.yul\":10130:10149   */\n      swap1\n      pop\n        /* \"#utility.yul\":9789:10155   */\n      swap2\n      swap1\n      pop\n      jump\t// out\n        /* \"#utility.yul\":10161:10527   */\n    tag_326:\n        /* \"#utility.yul\":10303:10306   */\n      0x00\n        /* \"#utility.yul\":10324:10391   */\n      tag_328\n        /* \"#utility.yul\":10388:10390   */\n      0x26\n        /* \"#utility.yul\":10383:10386   */\n      dup4\n        /* \"#utility.yul\":10324:10391   */\n      tag_303\n      jump\t// in\n    tag_328:\n        /* \"#utility.yul\":10317:10391   */\n      swap2\n      pop\n        /* \"#utility.yul\":10400:10493   */\n      tag_329\n        /* \"#utility.yul\":10489:10492   */\n      dup3\n        /* \"#utility.yul\":10400:10493   */\n      tag_330\n      jump\t// in\n    tag_329:\n        /* \"#utility.yul\":10518:10520   */\n      0x40\n        /* \"#utility.yul\":10513:10516   */\n      dup3\n        /* \"#utility.yul\":10509:10521   */\n      add\n        /* \"#utility.yul\":10502:10521   */\n      swap1\n      pop\n        /* \"#utility.yul\":10161:10527   */\n      swap2\n      swap1\n      pop\n      jump\t// out\n        /* \"#utility.yul\":10533:10899   */\n    tag_331:\n        /* \"#utility.yul\":10675:10678   */\n      0x00\n        /* \"#utility.yul\":10696:10763   */\n      tag_333\n        /* \"#utility.yul\":10760:10762   */\n      0x25\n        /* \"#utility.yul\":10755:10758   */\n      dup4\n        /* \"#utility.yul\":10696:10763   */\n      tag_303\n      jump\t// in\n    tag_333:\n        /* \"#utility.yul\":10689:10763   */\n      swap2\n      pop\n        /* \"#utility.yul\":10772:10865   */\n      tag_334\n        /* \"#utility.yul\":10861:10864   */\n      dup3\n        /* \"#utility.yul\":10772:10865   */\n      tag_335\n      jump\t// in\n    tag_334:\n        /* \"#utility.yul\":10890:10892   */\n      0x40\n        /* \"#utility.yul\":10885:10888   */\n      dup3\n        /* \"#utility.yul\":10881:10893   */\n      add\n        /* \"#utility.yul\":10874:10893   */\n      swap1\n      pop\n        /* \"#utility.yul\":10533:10899   */\n      swap2\n      swap1\n      pop\n      jump\t// out\n        /* \"#utility.yul\":10905:11271   */\n    tag_336:\n        /* \"#utility.yul\":11047:11050   */\n      0x00\n        /* \"#utility.yul\":11068:11135   */\n      tag_338\n        /* \"#utility.yul\":11132:11134   */\n      0x2a\n        /* \"#utility.yul\":11127:11130   */\n      dup4\n        /* \"#utility.yul\":11068:11135   */\n      tag_303\n      jump\t// in\n    tag_338:\n        /* \"#utility.yul\":11061:11135   */\n      swap2\n      pop\n        /* \"#utility.yul\":11144:11237   */\n      tag_339\n        /* \"#utility.yul\":11233:11236   */\n      dup3\n        /* \"#utility.yul\":11144:11237   */\n      tag_340\n      jump\t// in\n    tag_339:\n        /* \"#utility.yul\":11262:11264   */\n      0x40\n        /* \"#utility.yul\":11257:11260   */\n      dup3\n        /* \"#utility.yul\":11253:11265   */\n      add\n        /* \"#utility.yul\":11246:11265   */\n      swap1\n      pop\n        /* \"#utility.yul\":10905:11271   */\n      swap2\n      swap1\n      pop\n      jump\t// out\n        /* \"#utility.yul\":11277:11643   */\n    tag_341:\n        /* \"#utility.yul\":11419:11422   */\n      0x00\n        /* \"#utility.yul\":11440:11507   */\n      tag_343\n        /* \"#utility.yul\":11504:11506   */\n      0x21\n        /* \"#utility.yul\":11499:11502   */\n      dup4\n        /* \"#utility.yul\":11440:11507   */\n      tag_303\n      jump\t// in\n    tag_343:\n        /* \"#utility.yul\":11433:11507   */\n      swap2\n      pop\n        /* \"#utility.yul\":11516:11609   */\n      tag_344\n        /* \"#utility.yul\":11605:11608   */\n      dup3\n        /* \"#utility.yul\":11516:11609   */\n      tag_345\n      jump\t// in\n    tag_344:\n        /* \"#utility.yul\":11634:11636   */\n      0x40\n        /* \"#utility.yul\":11629:11632   */\n      dup3\n        /* \"#utility.yul\":11625:11637   */\n      add\n        /* \"#utility.yul\":11618:11637   */\n      swap1\n      pop\n        /* \"#utility.yul\":11277:11643   */\n      swap2\n      swap1\n      pop\n      jump\t// out\n        /* \"#utility.yul\":11649:11767   */\n    tag_346:\n        /* \"#utility.yul\":11736:11760   */\n      tag_348\n        /* \"#utility.yul\":11754:11759   */\n      dup2\n        /* \"#utility.yul\":11736:11760   */\n      tag_349\n      jump\t// in\n    tag_348:\n        /* \"#utility.yul\":11731:11734   */\n      dup3\n        /* \"#utility.yul\":11724:11761   */\n      mstore\n        /* \"#utility.yul\":11649:11767   */\n      pop\n      pop\n      jump\t// out\n        /* \"#utility.yul\":11773:11995   */\n    tag_41:\n        /* \"#utility.yul\":11866:11870   */\n      0x00\n        /* \"#utility.yul\":11904:11906   */\n      0x20\n        /* \"#utility.yul\":11893:11902   */\n      dup3\n        /* \"#utility.yul\":11889:11907   */\n      add\n        /* \"#utility.yul\":11881:11907   */\n      swap1\n      pop\n        /* \"#utility.yul\":11917:11988   */\n      tag_351\n        /* \"#utility.yul\":11985:11986   */\n      0x00\n        /* \"#utility.yul\":11974:11983   */\n      dup4\n        /* \"#utility.yul\":11970:11987   */\n      add\n        /* \"#utility.yul\":11961:11967   */\n      dup5\n        /* \"#utility.yul\":11917:11988   */\n      tag_271\n      jump\t// in\n    tag_351:\n        /* \"#utility.yul\":11773:11995   */\n      swap3\n      swap2\n      pop\n      pop\n      jump\t// out\n        /* \"#utility.yul\":12001:12443   */\n    tag_64:\n        /* \"#utility.yul\":12150:12154   */\n      0x00\n        /* \"#utility.yul\":12188:12190   */\n      0x60\n        /* \"#utility.yul\":12177:12186   */\n      dup3\n        /* \"#utility.yul\":12173:12191   */\n      add\n        /* \"#utility.yul\":12165:12191   */\n      swap1\n      pop\n        /* \"#utility.yul\":12201:12272   */\n      tag_353\n        /* \"#utility.yul\":12269:12270   */\n      0x00\n        /* \"#utility.yul\":12258:12267   */\n      dup4\n        /* \"#utility.yul\":12254:12271   */\n      add\n        /* \"#utility.yul\":12245:12251   */\n      dup7\n        /* \"#utility.yul\":12201:12272   */\n      tag_271\n      jump\t// in\n    tag_353:\n        /* \"#utility.yul\":12282:12354   */\n      tag_354\n        /* \"#utility.yul\":12350:12352   */\n      0x20\n        /* \"#utility.yul\":12339:12348   */\n      dup4\n        /* \"#utility.yul\":12335:12353   */\n      add\n        /* \"#utility.yul\":12326:12332   */\n      dup6\n        /* \"#utility.yul\":12282:12354   */\n      tag_271\n      jump\t// in\n    tag_354:\n        /* \"#utility.yul\":12364:12436   */\n      tag_355\n        /* \"#utility.yul\":12432:12434   */\n      0x40\n        /* \"#utility.yul\":12421:12430   */\n      dup4\n        /* \"#utility.yul\":12417:12435   */\n      add\n        /* \"#utility.yul\":12408:12414   */\n      dup5\n        /* \"#utility.yul\":12364:12436   */\n      tag_346\n      jump\t// in\n    tag_355:\n        /* \"#utility.yul\":12001:12443   */\n      swap5\n      swap4\n      pop\n      pop\n      pop\n      pop\n      jump\t// out\n        /* \"#utility.yul\":12449:13331   */\n    tag_88:\n        /* \"#utility.yul\":12710:12714   */\n      0x00\n        /* \"#utility.yul\":12748:12751   */\n      0xc0\n        /* \"#utility.yul\":12737:12746   */\n      dup3\n        /* \"#utility.yul\":12733:12752   */\n      add\n        /* \"#utility.yul\":12725:12752   */\n      swap1\n      pop\n        /* \"#utility.yul\":12762:12833   */\n      tag_357\n        /* \"#utility.yul\":12830:12831   */\n      0x00\n        /* \"#utility.yul\":12819:12828   */\n      dup4\n        /* \"#utility.yul\":12815:12832   */\n      add\n        /* \"#utility.yul\":12806:12812   */\n      dup11\n        /* \"#utility.yul\":12762:12833   */\n      tag_271\n      jump\t// in\n    tag_357:\n        /* \"#utility.yul\":12843:12915   */\n      tag_358\n        /* \"#utility.yul\":12911:12913   */\n      0x20\n        /* \"#utility.yul\":12900:12909   */\n      dup4\n        /* \"#utility.yul\":12896:12914   */\n      add\n        /* \"#utility.yul\":12887:12893   */\n      dup10\n        /* \"#utility.yul\":12843:12915   */\n      tag_271\n      jump\t// in\n    tag_358:\n        /* \"#utility.yul\":12925:12997   */\n      tag_359\n        /* \"#utility.yul\":12993:12995   */\n      0x40\n        /* \"#utility.yul\":12982:12991   */\n      dup4\n        /* \"#utility.yul\":12978:12996   */\n      add\n        /* \"#utility.yul\":12969:12975   */\n      dup9\n        /* \"#utility.yul\":12925:12997   */\n      tag_346\n      jump\t// in\n    tag_359:\n        /* \"#utility.yul\":13007:13079   */\n      tag_360\n        /* \"#utility.yul\":13075:13077   */\n      0x60\n        /* \"#utility.yul\":13064:13073   */\n      dup4\n        /* \"#utility.yul\":13060:13078   */\n      add\n        /* \"#utility.yul\":13051:13057   */\n      dup8\n        /* \"#utility.yul\":13007:13079   */\n      tag_346\n      jump\t// in\n    tag_360:\n        /* \"#utility.yul\":13127:13136   */\n      dup2\n        /* \"#utility.yul\":13121:13125   */\n      dup2\n        /* \"#utility.yul\":13117:13137   */\n      sub\n        /* \"#utility.yul\":13111:13114   */\n      0x80\n        /* \"#utility.yul\":13100:13109   */\n      dup4\n        /* \"#utility.yul\":13096:13115   */\n      add\n        /* \"#utility.yul\":13089:13138   */\n      mstore\n        /* \"#utility.yul\":13155:13241   */\n      tag_361\n        /* \"#utility.yul\":13236:13240   */\n      dup2\n        /* \"#utility.yul\":13227:13233   */\n      dup6\n        /* \"#utility.yul\":13219:13225   */\n      dup8\n        /* \"#utility.yul\":13155:13241   */\n      tag_283\n      jump\t// in\n    tag_361:\n        /* \"#utility.yul\":13147:13241   */\n      swap1\n      pop\n        /* \"#utility.yul\":13251:13324   */\n      tag_362\n        /* \"#utility.yul\":13319:13322   */\n      0xa0\n        /* \"#utility.yul\":13308:13317   */\n      dup4\n        /* \"#utility.yul\":13304:13323   */\n      add\n        /* \"#utility.yul\":13295:13301   */\n      dup5\n        /* \"#utility.yul\":13251:13324   */\n      tag_346\n      jump\t// in\n    tag_362:\n        /* \"#utility.yul\":12449:13331   */\n      swap9\n      swap8\n      pop\n      pop\n      pop\n      pop\n      pop\n      pop\n      pop\n      pop\n      jump\t// out\n        /* \"#utility.yul\":13337:14088   */\n    tag_149:\n        /* \"#utility.yul\":13560:13564   */\n      0x00\n        /* \"#utility.yul\":13598:13601   */\n      0xa0\n        /* \"#utility.yul\":13587:13596   */\n      dup3\n        /* \"#utility.yul\":13583:13602   */\n      add\n        /* \"#utility.yul\":13575:13602   */\n      swap1\n      pop\n        /* \"#utility.yul\":13612:13683   */\n      tag_364\n        /* \"#utility.yul\":13680:13681   */\n      0x00\n        /* \"#utility.yul\":13669:13678   */\n      dup4\n        /* \"#utility.yul\":13665:13682   */\n      add\n        /* \"#utility.yul\":13656:13662   */\n      dup9\n        /* \"#utility.yul\":13612:13683   */\n      tag_271\n      jump\t// in\n    tag_364:\n        /* \"#utility.yul\":13693:13765   */\n      tag_365\n        /* \"#utility.yul\":13761:13763   */\n      0x20\n        /* \"#utility.yul\":13750:13759   */\n      dup4\n        /* \"#utility.yul\":13746:13764   */\n      add\n        /* \"#utility.yul\":13737:13743   */\n      dup8\n        /* \"#utility.yul\":13693:13765   */\n      tag_271\n      jump\t// in\n    tag_365:\n        /* \"#utility.yul\":13775:13847   */\n      tag_366\n        /* \"#utility.yul\":13843:13845   */\n      0x40\n        /* \"#utility.yul\":13832:13841   */\n      dup4\n        /* \"#utility.yul\":13828:13846   */\n      add\n        /* \"#utility.yul\":13819:13825   */\n      dup7\n        /* \"#utility.yul\":13775:13847   */\n      tag_346\n      jump\t// in\n    tag_366:\n        /* \"#utility.yul\":13857:13929   */\n      tag_367\n        /* \"#utility.yul\":13925:13927   */\n      0x60\n        /* \"#utility.yul\":13914:13923   */\n      dup4\n        /* \"#utility.yul\":13910:13928   */\n      add\n        /* \"#utility.yul\":13901:13907   */\n      dup6\n        /* \"#utility.yul\":13857:13929   */\n      tag_346\n      jump\t// in\n    tag_367:\n        /* \"#utility.yul\":13977:13986   */\n      dup2\n        /* \"#utility.yul\":13971:13975   */\n      dup2\n        /* \"#utility.yul\":13967:13987   */\n      sub\n        /* \"#utility.yul\":13961:13964   */\n      0x80\n        /* \"#utility.yul\":13950:13959   */\n      dup4\n        /* \"#utility.yul\":13946:13965   */\n      add\n        /* \"#utility.yul\":13939:13988   */\n      mstore\n        /* \"#utility.yul\":14005:14081   */\n      tag_368\n        /* \"#utility.yul\":14076:14080   */\n      dup2\n        /* \"#utility.yul\":14067:14073   */\n      dup5\n        /* \"#utility.yul\":14005:14081   */\n      tag_290\n      jump\t// in\n    tag_368:\n        /* \"#utility.yul\":13997:14081   */\n      swap1\n      pop\n        /* \"#utility.yul\":13337:14088   */\n      swap7\n      swap6\n      pop\n      pop\n      pop\n      pop\n      pop\n      pop\n      jump\t// out\n        /* \"#utility.yul\":14094:14304   */\n    tag_23:\n        /* \"#utility.yul\":14181:14185   */\n      0x00\n        /* \"#utility.yul\":14219:14221   */\n      0x20\n        /* \"#utility.yul\":14208:14217   */\n      dup3\n        /* \"#utility.yul\":14204:14222   */\n      add\n        /* \"#utility.yul\":14196:14222   */\n      swap1\n      pop\n        /* \"#utility.yul\":14232:14297   */\n      tag_370\n        /* \"#utility.yul\":14294:14295   */\n      0x00\n        /* \"#utility.yul\":14283:14292   */\n      dup4\n        /* \"#utility.yul\":14279:14296   */\n      add\n        /* \"#utility.yul\":14270:14276   */\n      dup5\n        /* \"#utility.yul\":14232:14297   */\n      tag_275\n      jump\t// in\n    tag_370:\n        /* \"#utility.yul\":14094:14304   */\n      swap3\n      swap2\n      pop\n      pop\n      jump\t// out\n        /* \"#utility.yul\":14310:14528   */\n    tag_52:\n        /* \"#utility.yul\":14401:14405   */\n      0x00\n        /* \"#utility.yul\":14439:14441   */\n      0x20\n        /* \"#utility.yul\":14428:14437   */\n      dup3\n        /* \"#utility.yul\":14424:14442   */\n      add\n        /* \"#utility.yul\":14416:14442   */\n      swap1\n      pop\n        /* \"#utility.yul\":14452:14521   */\n      tag_372\n        /* \"#utility.yul\":14518:14519   */\n      0x00\n        /* \"#utility.yul\":14507:14516   */\n      dup4\n        /* \"#utility.yul\":14503:14520   */\n      add\n        /* \"#utility.yul\":14494:14500   */\n      dup5\n        /* \"#utility.yul\":14452:14521   */\n      tag_279\n      jump\t// in\n    tag_372:\n        /* \"#utility.yul\":14310:14528   */\n      swap3\n      swap2\n      pop\n      pop\n      jump\t// out\n        /* \"#utility.yul\":14534:14847   */\n    tag_164:\n        /* \"#utility.yul\":14647:14651   */\n      0x00\n        /* \"#utility.yul\":14685:14687   */\n      0x20\n        /* \"#utility.yul\":14674:14683   */\n      dup3\n        /* \"#utility.yul\":14670:14688   */\n      add\n        /* \"#utility.yul\":14662:14688   */\n      swap1\n      pop\n        /* \"#utility.yul\":14734:14743   */\n      dup2\n        /* \"#utility.yul\":14728:14732   */\n      dup2\n        /* \"#utility.yul\":14724:14744   */\n      sub\n        /* \"#utility.yul\":14720:14721   */\n      0x00\n        /* \"#utility.yul\":14709:14718   */\n      dup4\n        /* \"#utility.yul\":14705:14722   */\n      add\n        /* \"#utility.yul\":14698:14745   */\n      mstore\n        /* \"#utility.yul\":14762:14840   */\n      tag_374\n        /* \"#utility.yul\":14835:14839   */\n      dup2\n        /* \"#utility.yul\":14826:14832   */\n      dup5\n        /* \"#utility.yul\":14762:14840   */\n      tag_298\n      jump\t// in\n    tag_374:\n        /* \"#utility.yul\":14754:14840   */\n      swap1\n      pop\n        /* \"#utility.yul\":14534:14847   */\n      swap3\n      swap2\n      pop\n      pop\n      jump\t// out\n        /* \"#utility.yul\":14853:15272   */\n    tag_166:\n        /* \"#utility.yul\":15019:15023   */\n      0x00\n        /* \"#utility.yul\":15057:15059   */\n      0x20\n        /* \"#utility.yul\":15046:15055   */\n      dup3\n        /* \"#utility.yul\":15042:15060   */\n      add\n        /* \"#utility.yul\":15034:15060   */\n      swap1\n      pop\n        /* \"#utility.yul\":15106:15115   */\n      dup2\n        /* \"#utility.yul\":15100:15104   */\n      dup2\n        /* \"#utility.yul\":15096:15116   */\n      sub\n        /* \"#utility.yul\":15092:15093   */\n      0x00\n        /* \"#utility.yul\":15081:15090   */\n      dup4\n        /* \"#utility.yul\":15077:15094   */\n      add\n        /* \"#utility.yul\":15070:15117   */\n      mstore\n        /* \"#utility.yul\":15134:15265   */\n      tag_376\n        /* \"#utility.yul\":15260:15264   */\n      dup2\n        /* \"#utility.yul\":15134:15265   */\n      tag_306\n      jump\t// in\n    tag_376:\n        /* \"#utility.yul\":15126:15265   */\n      swap1\n      pop\n        /* \"#utility.yul\":14853:15272   */\n      swap2\n      swap1\n      pop\n      jump\t// out\n        /* \"#utility.yul\":15278:15697   */\n    tag_95:\n        /* \"#utility.yul\":15444:15448   */\n      0x00\n        /* \"#utility.yul\":15482:15484   */\n      0x20\n        /* \"#utility.yul\":15471:15480   */\n      dup3\n        /* \"#utility.yul\":15467:15485   */\n      add\n        /* \"#utility.yul\":15459:15485   */\n      swap1\n      pop\n        /* \"#utility.yul\":15531:15540   */\n      dup2\n        /* \"#utility.yul\":15525:15529   */\n      dup2\n        /* \"#utility.yul\":15521:15541   */\n      sub\n        /* \"#utility.yul\":15517:15518   */\n      0x00\n        /* \"#utility.yul\":15506:15515   */\n      dup4\n        /* \"#utility.yul\":15502:15519   */\n      add\n        /* \"#utility.yul\":15495:15542   */\n      mstore\n        /* \"#utility.yul\":15559:15690   */\n      tag_378\n        /* \"#utility.yul\":15685:15689   */\n      dup2\n        /* \"#utility.yul\":15559:15690   */\n      tag_311\n      jump\t// in\n    tag_378:\n        /* \"#utility.yul\":15551:15690   */\n      swap1\n      pop\n        /* \"#utility.yul\":15278:15697   */\n      swap2\n      swap1\n      pop\n      jump\t// out\n        /* \"#utility.yul\":15703:16122   */\n    tag_170:\n        /* \"#utility.yul\":15869:15873   */\n      0x00\n        /* \"#utility.yul\":15907:15909   */\n      0x20\n        /* \"#utility.yul\":15896:15905   */\n      dup3\n        /* \"#utility.yul\":15892:15910   */\n      add\n        /* \"#utility.yul\":15884:15910   */\n      swap1\n      pop\n        /* \"#utility.yul\":15956:15965   */\n      dup2\n        /* \"#utility.yul\":15950:15954   */\n      dup2\n        /* \"#utility.yul\":15946:15966   */\n      sub\n        /* \"#utility.yul\":15942:15943   */\n      0x00\n        /* \"#utility.yul\":15931:15940   */\n      dup4\n        /* \"#utility.yul\":15927:15944   */\n      add\n        /* \"#utility.yul\":15920:15967   */\n      mstore\n        /* \"#utility.yul\":15984:16115   */\n      tag_380\n        /* \"#utility.yul\":16110:16114   */\n      dup2\n        /* \"#utility.yul\":15984:16115   */\n      tag_316\n      jump\t// in\n    tag_380:\n        /* \"#utility.yul\":15976:16115   */\n      swap1\n      pop\n        /* \"#utility.yul\":15703:16122   */\n      swap2\n      swap1\n      pop\n      jump\t// out\n        /* \"#utility.yul\":16128:16547   */\n    tag_61:\n        /* \"#utility.yul\":16294:16298   */\n      0x00\n        /* \"#utility.yul\":16332:16334   */\n      0x20\n        /* \"#utility.yul\":16321:16330   */\n      dup3\n        /* \"#utility.yul\":16317:16335   */\n      add\n        /* \"#utility.yul\":16309:16335   */\n      swap1\n      pop\n        /* \"#utility.yul\":16381:16390   */\n      dup2\n        /* \"#utility.yul\":16375:16379   */\n      dup2\n        /* \"#utility.yul\":16371:16391   */\n      sub\n        /* \"#utility.yul\":16367:16368   */\n      0x00\n        /* \"#utility.yul\":16356:16365   */\n      dup4\n        /* \"#utility.yul\":16352:16369   */\n      add\n        /* \"#utility.yul\":16345:16392   */\n      mstore\n        /* \"#utility.yul\":16409:16540   */\n      tag_382\n        /* \"#utility.yul\":16535:16539   */\n      dup2\n        /* \"#utility.yul\":16409:16540   */\n      tag_321\n      jump\t// in\n    tag_382:\n        /* \"#utility.yul\":16401:16540   */\n      swap1\n      pop\n        /* \"#utility.yul\":16128:16547   */\n      swap2\n      swap1\n      pop\n      jump\t// out\n        /* \"#utility.yul\":16553:16972   */\n    tag_76:\n        /* \"#utility.yul\":16719:16723   */\n      0x00\n        /* \"#utility.yul\":16757:16759   */\n      0x20\n        /* \"#utility.yul\":16746:16755   */\n      dup3\n        /* \"#utility.yul\":16742:16760   */\n      add\n        /* \"#utility.yul\":16734:16760   */\n      swap1\n      pop\n        /* \"#utility.yul\":16806:16815   */\n      dup2\n        /* \"#utility.yul\":16800:16804   */\n      dup2\n        /* \"#utility.yul\":16796:16816   */\n      sub\n        /* \"#utility.yul\":16792:16793   */\n      0x00\n        /* \"#utility.yul\":16781:16790   */\n      dup4\n        /* \"#utility.yul\":16777:16794   */\n      add\n        /* \"#utility.yul\":16770:16817   */\n      mstore\n        /* \"#utility.yul\":16834:16965   */\n      tag_384\n        /* \"#utility.yul\":16960:16964   */\n      dup2\n        /* \"#utility.yul\":16834:16965   */\n      tag_326\n      jump\t// in\n    tag_384:\n        /* \"#utility.yul\":16826:16965   */\n      swap1\n      pop\n        /* \"#utility.yul\":16553:16972   */\n      swap2\n      swap1\n      pop\n      jump\t// out\n        /* \"#utility.yul\":16978:17397   */\n    tag_122:\n        /* \"#utility.yul\":17144:17148   */\n      0x00\n        /* \"#utility.yul\":17182:17184   */\n      0x20\n        /* \"#utility.yul\":17171:17180   */\n      dup3\n        /* \"#utility.yul\":17167:17185   */\n      add\n        /* \"#utility.yul\":17159:17185   */\n      swap1\n      pop\n        /* \"#utility.yul\":17231:17240   */\n      dup2\n        /* \"#utility.yul\":17225:17229   */\n      dup2\n        /* \"#utility.yul\":17221:17241   */\n      sub\n        /* \"#utility.yul\":17217:17218   */\n      0x00\n        /* \"#utility.yul\":17206:17215   */\n      dup4\n        /* \"#utility.yul\":17202:17219   */\n      add\n        /* \"#utility.yul\":17195:17242   */\n      mstore\n        /* \"#utility.yul\":17259:17390   */\n      tag_386\n        /* \"#utility.yul\":17385:17389   */\n      dup2\n        /* \"#utility.yul\":17259:17390   */\n      tag_331\n      jump\t// in\n    tag_386:\n        /* \"#utility.yul\":17251:17390   */\n      swap1\n      pop\n        /* \"#utility.yul\":16978:17397   */\n      swap2\n      swap1\n      pop\n      jump\t// out\n        /* \"#utility.yul\":17403:17822   */\n    tag_129:\n        /* \"#utility.yul\":17569:17573   */\n      0x00\n        /* \"#utility.yul\":17607:17609   */\n      0x20\n        /* \"#utility.yul\":17596:17605   */\n      dup3\n        /* \"#utility.yul\":17592:17610   */\n      add\n        /* \"#utility.yul\":17584:17610   */\n      swap1\n      pop\n        /* \"#utility.yul\":17656:17665   */\n      dup2\n        /* \"#utility.yul\":17650:17654   */\n      dup2\n        /* \"#utility.yul\":17646:17666   */\n      sub\n        /* \"#utility.yul\":17642:17643   */\n      0x00\n        /* \"#utility.yul\":17631:17640   */\n      dup4\n        /* \"#utility.yul\":17627:17644   */\n      add\n        /* \"#utility.yul\":17620:17667   */\n      mstore\n        /* \"#utility.yul\":17684:17815   */\n      tag_388\n        /* \"#utility.yul\":17810:17814   */\n      dup2\n        /* \"#utility.yul\":17684:17815   */\n      tag_336\n      jump\t// in\n    tag_388:\n        /* \"#utility.yul\":17676:17815   */\n      swap1\n      pop\n        /* \"#utility.yul\":17403:17822   */\n      swap2\n      swap1\n      pop\n      jump\t// out\n        /* \"#utility.yul\":17828:18247   */\n    tag_104:\n        /* \"#utility.yul\":17994:17998   */\n      0x00\n        /* \"#utility.yul\":18032:18034   */\n      0x20\n        /* \"#utility.yul\":18021:18030   */\n      dup3\n        /* \"#utility.yul\":18017:18035   */\n      add\n        /* \"#utility.yul\":18009:18035   */\n      swap1\n      pop\n        /* \"#utility.yul\":18081:18090   */\n      dup2\n        /* \"#utility.yul\":18075:18079   */\n      dup2\n        /* \"#utility.yul\":18071:18091   */\n      sub\n        /* \"#utility.yul\":18067:18068   */\n      0x00\n        /* \"#utility.yul\":18056:18065   */\n      dup4\n        /* \"#utility.yul\":18052:18069   */\n      add\n        /* \"#utility.yul\":18045:18092   */\n      mstore\n        /* \"#utility.yul\":18109:18240   */\n      tag_390\n        /* \"#utility.yul\":18235:18239   */\n      dup2\n        /* \"#utility.yul\":18109:18240   */\n      tag_341\n      jump\t// in\n    tag_390:\n        /* \"#utility.yul\":18101:18240   */\n      swap1\n      pop\n        /* \"#utility.yul\":17828:18247   */\n      swap2\n      swap1\n      pop\n      jump\t// out\n        /* \"#utility.yul\":18253:18475   */\n    tag_17:\n        /* \"#utility.yul\":18346:18350   */\n      0x00\n        /* \"#utility.yul\":18384:18386   */\n      0x20\n        /* \"#utility.yul\":18373:18382   */\n      dup3\n        /* \"#utility.yul\":18369:18387   */\n      add\n        /* \"#utility.yul\":18361:18387   */\n      swap1\n      pop\n        /* \"#utility.yul\":18397:18468   */\n      tag_392\n        /* \"#utility.yul\":18465:18466   */\n      0x00\n        /* \"#utility.yul\":18454:18463   */\n      dup4\n        /* \"#utility.yul\":18450:18467   */\n      add\n        /* \"#utility.yul\":18441:18447   */\n      dup5\n        /* \"#utility.yul\":18397:18468   */\n      tag_346\n      jump\t// in\n    tag_392:\n        /* \"#utility.yul\":18253:18475   */\n      swap3\n      swap2\n      pop\n      pop\n      jump\t// out\n        /* \"#utility.yul\":18481:18813   */\n    tag_113:\n        /* \"#utility.yul\":18602:18606   */\n      0x00\n        /* \"#utility.yul\":18640:18642   */\n      0x40\n        /* \"#utility.yul\":18629:18638   */\n      dup3\n        /* \"#utility.yul\":18625:18643   */\n      add\n        /* \"#utility.yul\":18617:18643   */\n      swap1\n      pop\n        /* \"#utility.yul\":18653:18724   */\n      tag_394\n        /* \"#utility.yul\":18721:18722   */\n      0x00\n        /* \"#utility.yul\":18710:18719   */\n      dup4\n        /* \"#utility.yul\":18706:18723   */\n      add\n        /* \"#utility.yul\":18697:18703   */\n      dup6\n        /* \"#utility.yul\":18653:18724   */\n      tag_346\n      jump\t// in\n    tag_394:\n        /* \"#utility.yul\":18734:18806   */\n      tag_395\n        /* \"#utility.yul\":18802:18804   */\n      0x20\n        /* \"#utility.yul\":18791:18800   */\n      dup4\n        /* \"#utility.yul\":18787:18805   */\n      add\n        /* \"#utility.yul\":18778:18784   */\n      dup5\n        /* \"#utility.yul\":18734:18806   */\n      tag_346\n      jump\t// in\n    tag_395:\n        /* \"#utility.yul\":18481:18813   */\n      swap4\n      swap3\n      pop\n      pop\n      pop\n      jump\t// out\n        /* \"#utility.yul\":18819:18948   */\n    tag_178:\n        /* \"#utility.yul\":18853:18859   */\n      0x00\n        /* \"#utility.yul\":18880:18900   */\n      tag_397\n      tag_398\n      jump\t// in\n    tag_397:\n        /* \"#utility.yul\":18870:18900   */\n      swap1\n      pop\n        /* \"#utility.yul\":18909:18942   */\n      tag_399\n        /* \"#utility.yul\":18937:18941   */\n      dup3\n        /* \"#utility.yul\":18929:18935   */\n      dup3\n        /* \"#utility.yul\":18909:18942   */\n      tag_400\n      jump\t// in\n    tag_399:\n        /* \"#utility.yul\":18819:18948   */\n      swap2\n      swap1\n      pop\n      jump\t// out\n        /* \"#utility.yul\":18954:19029   */\n    tag_398:\n        /* \"#utility.yul\":18987:18993   */\n      0x00\n        /* \"#utility.yul\":19020:19022   */\n      0x40\n        /* \"#utility.yul\":19014:19023   */\n      mload\n        /* \"#utility.yul\":19004:19023   */\n      swap1\n      pop\n        /* \"#utility.yul\":18954:19029   */\n      swap1\n      jump\t// out\n        /* \"#utility.yul\":19035:19342   */\n    tag_177:\n        /* \"#utility.yul\":19096:19100   */\n      0x00\n        /* \"#utility.yul\":19186:19204   */\n      0xffffffffffffffff\n        /* \"#utility.yul\":19178:19184   */\n      dup3\n        /* \"#utility.yul\":19175:19205   */\n      gt\n        /* \"#utility.yul\":19172:19228   */\n      iszero\n      tag_403\n      jumpi\n        /* \"#utility.yul\":19208:19226   */\n      tag_404\n      tag_137\n      jump\t// in\n    tag_404:\n        /* \"#utility.yul\":19172:19228   */\n    tag_403:\n        /* \"#utility.yul\":19246:19275   */\n      tag_405\n        /* \"#utility.yul\":19268:19274   */\n      dup3\n        /* \"#utility.yul\":19246:19275   */\n      tag_289\n      jump\t// in\n    tag_405:\n        /* \"#utility.yul\":19238:19275   */\n      swap1\n      pop\n        /* \"#utility.yul\":19330:19334   */\n      0x20\n        /* \"#utility.yul\":19324:19328   */\n      dup2\n        /* \"#utility.yul\":19320:19335   */\n      add\n        /* \"#utility.yul\":19312:19335   */\n      swap1\n      pop\n        /* \"#utility.yul\":19035:19342   */\n      swap2\n      swap1\n      pop\n      jump\t// out\n        /* \"#utility.yul\":19348:19446   */\n    tag_293:\n        /* \"#utility.yul\":19399:19405   */\n      0x00\n        /* \"#utility.yul\":19433:19438   */\n      dup2\n        /* \"#utility.yul\":19427:19439   */\n      mload\n        /* \"#utility.yul\":19417:19439   */\n      swap1\n      pop\n        /* \"#utility.yul\":19348:19446   */\n      swap2\n      swap1\n      pop\n      jump\t// out\n        /* \"#utility.yul\":19452:19551   */\n    tag_301:\n        /* \"#utility.yul\":19504:19510   */\n      0x00\n        /* \"#utility.yul\":19538:19543   */\n      dup2\n        /* \"#utility.yul\":19532:19544   */\n      mload\n        /* \"#utility.yul\":19522:19544   */\n      swap1\n      pop\n        /* \"#utility.yul\":19452:19551   */\n      swap2\n      swap1\n      pop\n      jump\t// out\n        /* \"#utility.yul\":19557:19725   */\n    tag_286:\n        /* \"#utility.yul\":19640:19651   */\n      0x00\n        /* \"#utility.yul\":19674:19680   */\n      dup3\n        /* \"#utility.yul\":19669:19672   */\n      dup3\n        /* \"#utility.yul\":19662:19681   */\n      mstore\n        /* \"#utility.yul\":19714:19718   */\n      0x20\n        /* \"#utility.yul\":19709:19712   */\n      dup3\n        /* \"#utility.yul\":19705:19719   */\n      add\n        /* \"#utility.yul\":19690:19719   */\n      swap1\n      pop\n        /* \"#utility.yul\":19557:19725   */\n      swap3\n      swap2\n      pop\n      pop\n      jump\t// out\n        /* \"#utility.yul\":19731:19900   */\n    tag_303:\n        /* \"#utility.yul\":19815:19826   */\n      0x00\n        /* \"#utility.yul\":19849:19855   */\n      dup3\n        /* \"#utility.yul\":19844:19847   */\n      dup3\n        /* \"#utility.yul\":19837:19856   */\n      mstore\n        /* \"#utility.yul\":19889:19893   */\n      0x20\n        /* \"#utility.yul\":19884:19887   */\n      dup3\n        /* \"#utility.yul\":19880:19894   */\n      add\n        /* \"#utility.yul\":19865:19894   */\n      swap1\n      pop\n        /* \"#utility.yul\":19731:19900   */\n      swap3\n      swap2\n      pop\n      pop\n      jump\t// out\n        /* \"#utility.yul\":19906:20211   */\n    tag_86:\n        /* \"#utility.yul\":19946:19949   */\n      0x00\n        /* \"#utility.yul\":19965:19985   */\n      tag_411\n        /* \"#utility.yul\":19983:19984   */\n      dup3\n        /* \"#utility.yul\":19965:19985   */\n      tag_349\n      jump\t// in\n    tag_411:\n        /* \"#utility.yul\":19960:19985   */\n      swap2\n      pop\n        /* \"#utility.yul\":19999:20019   */\n      tag_412\n        /* \"#utility.yul\":20017:20018   */\n      dup4\n        /* \"#utility.yul\":19999:20019   */\n      tag_349\n      jump\t// in\n    tag_412:\n        /* \"#utility.yul\":19994:20019   */\n      swap3\n      pop\n        /* \"#utility.yul\":20153:20154   */\n      dup3\n        /* \"#utility.yul\":20085:20151   */\n      0xffffffffffffffffffffffffffffffffffffffffffffffffffffffffffffffff\n        /* \"#utility.yul\":20081:20155   */\n      sub\n        /* \"#utility.yul\":20078:20079   */\n      dup3\n        /* \"#utility.yul\":20075:20156   */\n      gt\n        /* \"#utility.yul\":20072:20179   */\n      iszero\n      tag_413\n      jumpi\n        /* \"#utility.yul\":20159:20177   */\n      tag_414\n      tag_415\n      jump\t// in\n    tag_414:\n        /* \"#utility.yul\":20072:20179   */\n    tag_413:\n        /* \"#utility.yul\":20203:20204   */\n      dup3\n        /* \"#utility.yul\":20200:20201   */\n      dup3\n        /* \"#utility.yul\":20196:20205   */\n      add\n        /* \"#utility.yul\":20189:20205   */\n      swap1\n      pop\n        /* \"#utility.yul\":19906:20211   */\n      swap3\n      swap2\n      pop\n      pop\n      jump\t// out\n        /* \"#utility.yul\":20217:20408   */\n    tag_100:\n        /* \"#utility.yul\":20257:20261   */\n      0x00\n        /* \"#utility.yul\":20277:20297   */\n      tag_417\n        /* \"#utility.yul\":20295:20296   */\n      dup3\n        /* \"#utility.yul\":20277:20297   */\n      tag_349\n      jump\t// in\n    tag_417:\n        /* \"#utility.yul\":20272:20297   */\n      swap2\n      pop\n        /* \"#utility.yul\":20311:20331   */\n      tag_418\n        /* \"#utility.yul\":20329:20330   */\n      dup4\n        /* \"#utility.yul\":20311:20331   */\n      tag_349\n      jump\t// in\n    tag_418:\n        /* \"#utility.yul\":20306:20331   */\n      swap3\n      pop\n        /* \"#utility.yul\":20350:20351   */\n      dup3\n        /* \"#utility.yul\":20347:20348   */\n      dup3\n        /* \"#utility.yul\":20344:20352   */\n      lt\n        /* \"#utility.yul\":20341:20375   */\n      iszero\n      tag_419\n      jumpi\n        /* \"#utility.yul\":20355:20373   */\n      tag_420\n      tag_415\n      jump\t// in\n    tag_420:\n        /* \"#utility.yul\":20341:20375   */\n    tag_419:\n        /* \"#utility.yul\":20400:20401   */\n      dup3\n        /* \"#utility.yul\":20397:20398   */\n      dup3\n        /* \"#utility.yul\":20393:20402   */\n      sub\n        /* \"#utility.yul\":20385:20402   */\n      swap1\n      pop\n        /* \"#utility.yul\":20217:20408   */\n      swap3\n      swap2\n      pop\n      pop\n      jump\t// out\n        /* \"#utility.yul\":20414:20510   */\n    tag_274:\n        /* \"#utility.yul\":20451:20458   */\n      0x00\n        /* \"#utility.yul\":20480:20504   */\n      tag_422\n        /* \"#utility.yul\":20498:20503   */\n      dup3\n        /* \"#utility.yul\":20480:20504   */\n      tag_423\n      jump\t// in\n    tag_422:\n        /* \"#utility.yul\":20469:20504   */\n      swap1\n      pop\n        /* \"#utility.yul\":20414:20510   */\n      swap2\n      swap1\n      pop\n      jump\t// out\n        /* \"#utility.yul\":20516:20606   */\n    tag_278:\n        /* \"#utility.yul\":20550:20557   */\n      0x00\n        /* \"#utility.yul\":20593:20598   */\n      dup2\n        /* \"#utility.yul\":20586:20599   */\n      iszero\n        /* \"#utility.yul\":20579:20600   */\n      iszero\n        /* \"#utility.yul\":20568:20600   */\n      swap1\n      pop\n        /* \"#utility.yul\":20516:20606   */\n      swap2\n      swap1\n      pop\n      jump\t// out\n        /* \"#utility.yul\":20612:20761   */\n    tag_282:\n        /* \"#utility.yul\":20648:20655   */\n      0x00\n        /* \"#utility.yul\":20688:20754   */\n      0xffffffff00000000000000000000000000000000000000000000000000000000\n        /* \"#utility.yul\":20681:20686   */\n      dup3\n        /* \"#utility.yul\":20677:20755   */\n      and\n        /* \"#utility.yul\":20666:20755   */\n      swap1\n      pop\n        /* \"#utility.yul\":20612:20761   */\n      swap2\n      swap1\n      pop\n      jump\t// out\n        /* \"#utility.yul\":20767:20893   */\n    tag_423:\n        /* \"#utility.yul\":20804:20811   */\n      0x00\n        /* \"#utility.yul\":20844:20886   */\n      0xffffffffffffffffffffffffffffffffffffffff\n        /* \"#utility.yul\":20837:20842   */\n      dup3\n        /* \"#utility.yul\":20833:20887   */\n      and\n        /* \"#utility.yul\":20822:20887   */\n      swap1\n      pop\n        /* \"#utility.yul\":20767:20893   */\n      swap2\n      swap1\n      pop\n      jump\t// out\n        /* \"#utility.yul\":20899:20976   */\n    tag_349:\n        /* \"#utility.yul\":20936:20943   */\n      0x00\n        /* \"#utility.yul\":20965:20970   */\n      dup2\n        /* \"#utility.yul\":20954:20970   */\n      swap1\n      pop\n        /* \"#utility.yul\":20899:20976   */\n      swap2\n      swap1\n      pop\n      jump\t// out\n        /* \"#utility.yul\":20982:21136   */\n    tag_183:\n        /* \"#utility.yul\":21066:21072   */\n      dup3\n        /* \"#utility.yul\":21061:21064   */\n      dup2\n        /* \"#utility.yul\":21056:21059   */\n      dup4\n        /* \"#utility.yul\":21043:21073   */\n      calldatacopy\n        /* \"#utility.yul\":21128:21129   */\n      0x00\n        /* \"#utility.yul\":21119:21125   */\n      dup4\n        /* \"#utility.yul\":21114:21117   */\n      dup4\n        /* \"#utility.yul\":21110:21126   */\n      add\n        /* \"#utility.yul\":21103:21130   */\n      mstore\n        /* \"#utility.yul\":20982:21136   */\n      pop\n      pop\n      pop\n      jump\t// out\n        /* \"#utility.yul\":21142:21449   */\n    tag_296:\n        /* \"#utility.yul\":21210:21211   */\n      0x00\n        /* \"#utility.yul\":21220:21333   */\n    tag_430:\n        /* \"#utility.yul\":21234:21240   */\n      dup4\n        /* \"#utility.yul\":21231:21232   */\n      dup2\n        /* \"#utility.yul\":21228:21241   */\n      lt\n        /* \"#utility.yul\":21220:21333   */\n      iszero\n      tag_432\n      jumpi\n        /* \"#utility.yul\":21319:21320   */\n      dup1\n        /* \"#utility.yul\":21314:21317   */\n      dup3\n        /* \"#utility.yul\":21310:21321   */\n      add\n        /* \"#utility.yul\":21304:21322   */\n      mload\n        /* \"#utility.yul\":21300:21301   */\n      dup2\n        /* \"#utility.yul\":21295:21298   */\n      dup5\n        /* \"#utility.yul\":21291:21302   */\n      add\n        /* \"#utility.yul\":21284:21323   */\n      mstore\n        /* \"#utility.yul\":21256:21258   */\n      0x20\n        /* \"#utility.yul\":21253:21254   */\n      dup2\n        /* \"#utility.yul\":21249:21259   */\n      add\n        /* \"#utility.yul\":21244:21259   */\n      swap1\n      pop\n        /* \"#utility.yul\":21220:21333   */\n      jump(tag_430)\n    tag_432:\n        /* \"#utility.yul\":21351:21357   */\n      dup4\n        /* \"#utility.yul\":21348:21349   */\n      dup2\n        /* \"#utility.yul\":21345:21358   */\n      gt\n        /* \"#utility.yul\":21342:21443   */\n      iszero\n      tag_433\n      jumpi\n        /* \"#utility.yul\":21431:21432   */\n      0x00\n        /* \"#utility.yul\":21422:21428   */\n      dup5\n        /* \"#utility.yul\":21417:21420   */\n      dup5\n        /* \"#utility.yul\":21413:21429   */\n      add\n        /* \"#utility.yul\":21406:21433   */\n      mstore\n        /* \"#utility.yul\":21342:21443   */\n    tag_433:\n        /* \"#utility.yul\":21191:21449   */\n      pop\n        /* \"#utility.yul\":21142:21449   */\n      pop\n      pop\n      pop\n      jump\t// out\n        /* \"#utility.yul\":21455:21736   */\n    tag_400:\n        /* \"#utility.yul\":21538:21565   */\n      tag_435\n        /* \"#utility.yul\":21560:21564   */\n      dup3\n        /* \"#utility.yul\":21538:21565   */\n      tag_289\n      jump\t// in\n    tag_435:\n        /* \"#utility.yul\":21530:21536   */\n      dup2\n        /* \"#utility.yul\":21526:21566   */\n      add\n        /* \"#utility.yul\":21668:21674   */\n      dup2\n        /* \"#utility.yul\":21656:21666   */\n      dup2\n        /* \"#utility.yul\":21653:21675   */\n      lt\n        /* \"#utility.yul\":21632:21650   */\n      0xffffffffffffffff\n        /* \"#utility.yul\":21620:21630   */\n      dup3\n        /* \"#utility.yul\":21617:21651   */\n      gt\n        /* \"#utility.yul\":21614:21676   */\n      or\n        /* \"#utility.yul\":21611:21699   */\n      iszero\n      tag_436\n      jumpi\n        /* \"#utility.yul\":21679:21697   */\n      tag_437\n      tag_137\n      jump\t// in\n    tag_437:\n        /* \"#utility.yul\":21611:21699   */\n    tag_436:\n        /* \"#utility.yul\":21719:21729   */\n      dup1\n        /* \"#utility.yul\":21715:21717   */\n      0x40\n        /* \"#utility.yul\":21708:21730   */\n      mstore\n        /* \"#utility.yul\":21498:21736   */\n      pop\n        /* \"#utility.yul\":21455:21736   */\n      pop\n      pop\n      jump\t// out\n        /* \"#utility.yul\":21742:21922   */\n    tag_415:\n        /* \"#utility.yul\":21790:21867   */\n      0x4e487b7100000000000000000000000000000000000000000000000000000000\n        /* \"#utility.yul\":21787:21788   */\n      0x00\n        /* \"#utility.yul\":21780:21868   */\n      mstore\n        /* \"#utility.yul\":21887:21891   */\n      0x11\n        /* \"#utility.yul\":21884:21885   */\n      0x04\n        /* \"#utility.yul\":21877:21892   */\n      mstore\n        /* \"#utility.yul\":21911:21915   */\n      0x24\n        /* \"#utility.yul\":21908:21909   */\n      0x00\n        /* \"#utility.yul\":21901:21916   */\n      revert\n        /* \"#utility.yul\":21928:22108   */\n    tag_141:\n        /* \"#utility.yul\":21976:22053   */\n      0x4e487b7100000000000000000000000000000000000000000000000000000000\n        /* \"#utility.yul\":21973:21974   */\n      0x00\n        /* \"#utility.yul\":21966:22054   */\n      mstore\n        /* \"#utility.yul\":22073:22077   */\n      0x32\n        /* \"#utility.yul\":22070:22071   */\n      0x04\n        /* \"#utility.yul\":22063:22078   */\n      mstore\n        /* \"#utility.yul\":22097:22101   */\n      0x24\n        /* \"#utility.yul\":22094:22095   */\n      0x00\n        /* \"#utility.yul\":22087:22102   */\n      revert\n        /* \"#utility.yul\":22114:22294   */\n    tag_137:\n        /* \"#utility.yul\":22162:22239   */\n      0x4e487b7100000000000000000000000000000000000000000000000000000000\n        /* \"#utility.yul\":22159:22160   */\n      0x00\n        /* \"#utility.yul\":22152:22240   */\n      mstore\n        /* \"#utility.yul\":22259:22263   */\n      0x41\n        /* \"#utility.yul\":22256:22257   */\n      0x04\n        /* \"#utility.yul\":22249:22264   */\n      mstore\n        /* \"#utility.yul\":22283:22287   */\n      0x24\n        /* \"#utility.yul\":22280:22281   */\n      0x00\n        /* \"#utility.yul\":22273:22288   */\n      revert\n        /* \"#utility.yul\":22300:22483   */\n    tag_159:\n        /* \"#utility.yul\":22335:22338   */\n      0x00\n        /* \"#utility.yul\":22373:22374   */\n      0x03\n        /* \"#utility.yul\":22355:22371   */\n      returndatasize\n        /* \"#utility.yul\":22352:22375   */\n      gt\n        /* \"#utility.yul\":22349:22477   */\n      iszero\n      tag_442\n      jumpi\n        /* \"#utility.yul\":22411:22412   */\n      0x04\n        /* \"#utility.yul\":22408:22409   */\n      0x00\n        /* \"#utility.yul\":22405:22406   */\n      dup1\n        /* \"#utility.yul\":22390:22413   */\n      returndatacopy\n        /* \"#utility.yul\":22433:22467   */\n      tag_443\n        /* \"#utility.yul\":22464:22465   */\n      0x00\n        /* \"#utility.yul\":22458:22466   */\n      mload\n        /* \"#utility.yul\":22433:22467   */\n      tag_444\n      jump\t// in\n    tag_443:\n        /* \"#utility.yul\":22426:22467   */\n      swap1\n      pop\n        /* \"#utility.yul\":22349:22477   */\n    tag_442:\n        /* \"#utility.yul\":22300:22483   */\n      swap1\n      jump\t// out\n        /* \"#utility.yul\":22489:22606   */\n    tag_203:\n        /* \"#utility.yul\":22598:22599   */\n      0x00\n        /* \"#utility.yul\":22595:22596   */\n      dup1\n        /* \"#utility.yul\":22588:22600   */\n      revert\n        /* \"#utility.yul\":22612:22729   */\n    tag_200:\n        /* \"#utility.yul\":22721:22722   */\n      0x00\n        /* \"#utility.yul\":22718:22719   */\n      dup1\n        /* \"#utility.yul\":22711:22723   */\n      revert\n        /* \"#utility.yul\":22735:22852   */\n    tag_206:\n        /* \"#utility.yul\":22844:22845   */\n      0x00\n        /* \"#utility.yul\":22841:22842   */\n      dup1\n        /* \"#utility.yul\":22834:22846   */\n      revert\n        /* \"#utility.yul\":22858:22975   */\n    tag_181:\n        /* \"#utility.yul\":22967:22968   */\n      0x00\n        /* \"#utility.yul\":22964:22965   */\n      dup1\n        /* \"#utility.yul\":22957:22969   */\n      revert\n        /* \"#utility.yul\":22981:23098   */\n    tag_230:\n        /* \"#utility.yul\":23090:23091   */\n      0x00\n        /* \"#utility.yul\":23087:23088   */\n      dup1\n        /* \"#utility.yul\":23080:23092   */\n      revert\n        /* \"#utility.yul\":23104:23221   */\n    tag_219:\n        /* \"#utility.yul\":23213:23214   */\n      0x00\n        /* \"#utility.yul\":23210:23211   */\n      dup1\n        /* \"#utility.yul\":23203:23215   */\n      revert\n        /* \"#utility.yul\":23227:23329   */\n    tag_289:\n        /* \"#utility.yul\":23268:23274   */\n      0x00\n        /* \"#utility.yul\":23319:23321   */\n      0x1f\n        /* \"#utility.yul\":23315:23322   */\n      not\n        /* \"#utility.yul\":23310:23312   */\n      0x1f\n        /* \"#utility.yul\":23303:23308   */\n      dup4\n        /* \"#utility.yul\":23299:23313   */\n      add\n        /* \"#utility.yul\":23295:23323   */\n      and\n        /* \"#utility.yul\":23285:23323   */\n      swap1\n      pop\n        /* \"#utility.yul\":23227:23329   */\n      swap2\n      swap1\n      pop\n      jump\t// out\n        /* \"#utility.yul\":23335:23441   */\n    tag_444:\n        /* \"#utility.yul\":23379:23387   */\n      0x00\n        /* \"#utility.yul\":23428:23433   */\n      dup2\n        /* \"#utility.yul\":23423:23426   */\n      0xe0\n        /* \"#utility.yul\":23419:23434   */\n      shr\n        /* \"#utility.yul\":23398:23434   */\n      swap1\n      pop\n        /* \"#utility.yul\":23335:23441   */\n      swap2\n      swap1\n      pop\n      jump\t// out\n        /* \"#utility.yul\":23447:23686   */\n    tag_310:\n        /* \"#utility.yul\":23587:23621   */\n      0x455243313135353a207472616e7366657220746f206e6f6e2045524331313535\n        /* \"#utility.yul\":23583:23584   */\n      0x00\n        /* \"#utility.yul\":23575:23581   */\n      dup3\n        /* \"#utility.yul\":23571:23585   */\n      add\n        /* \"#utility.yul\":23564:23622   */\n      mstore\n        /* \"#utility.yul\":23656:23678   */\n      0x526563656976657220696d706c656d656e746572000000000000000000000000\n        /* \"#utility.yul\":23651:23653   */\n      0x20\n        /* \"#utility.yul\":23643:23649   */\n      dup3\n        /* \"#utility.yul\":23639:23654   */\n      add\n        /* \"#utility.yul\":23632:23679   */\n      mstore\n        /* \"#utility.yul\":23447:23686   */\n      pop\n      jump\t// out\n        /* \"#utility.yul\":23692:23926   */\n    tag_315:\n        /* \"#utility.yul\":23832:23866   */\n      0x455243313135353a2063616c6c6572206973206e6f7420746f6b656e206f776e\n        /* \"#utility.yul\":23828:23829   */\n      0x00\n        /* \"#utility.yul\":23820:23826   */\n      dup3\n        /* \"#utility.yul\":23816:23830   */\n      add\n        /* \"#utility.yul\":23809:23867   */\n      mstore\n        /* \"#utility.yul\":23901:23918   */\n      0x6572206e6f7220617070726f7665640000000000000000000000000000000000\n        /* \"#utility.yul\":23896:23898   */\n      0x20\n        /* \"#utility.yul\":23888:23894   */\n      dup3\n        /* \"#utility.yul\":23884:23899   */\n      add\n        /* \"#utility.yul\":23877:23919   */\n      mstore\n        /* \"#utility.yul\":23692:23926   */\n      pop\n      jump\t// out\n        /* \"#utility.yul\":23932:24159   */\n    tag_320:\n        /* \"#utility.yul\":24072:24106   */\n      0x455243313135353a204552433131353552656365697665722072656a65637465\n        /* \"#utility.yul\":24068:24069   */\n      0x00\n        /* \"#utility.yul\":24060:24066   */\n      dup3\n        /* \"#utility.yul\":24056:24070   */\n      add\n        /* \"#utility.yul\":24049:24107   */\n      mstore\n        /* \"#utility.yul\":24141:24151   */\n      0x6420746f6b656e73000000000000000000000000000000000000000000000000\n        /* \"#utility.yul\":24136:24138   */\n      0x20\n        /* \"#utility.yul\":24128:24134   */\n      dup3\n        /* \"#utility.yul\":24124:24139   */\n      add\n        /* \"#utility.yul\":24117:24152   */\n      mstore\n        /* \"#utility.yul\":23932:24159   */\n      pop\n      jump\t// out\n        /* \"#utility.yul\":24165:24394   */\n    tag_325:\n        /* \"#utility.yul\":24305:24339   */\n      0x455243313135353a2061646472657373207a65726f206973206e6f7420612076\n        /* \"#utility.yul\":24301:24302   */\n      0x00\n        /* \"#utility.yul\":24293:24299   */\n      dup3\n        /* \"#utility.yul\":24289:24303   */\n      add\n        /* \"#utility.yul\":24282:24340   */\n      mstore\n        /* \"#utility.yul\":24374:24386   */\n      0x616c6964206f776e657200000000000000000000000000000000000000000000\n        /* \"#utility.yul\":24369:24371   */\n      0x20\n        /* \"#utility.yul\":24361:24367   */\n      dup3\n        /* \"#utility.yul\":24357:24372   */\n      add\n        /* \"#utility.yul\":24350:24387   */\n      mstore\n        /* \"#utility.yul\":24165:24394   */\n      pop\n      jump\t// out\n        /* \"#utility.yul\":24400:24625   */\n    tag_330:\n        /* \"#utility.yul\":24540:24574   */\n      0x746869732046756e6374696f6e206973206f6e6c792063616c6c656420627920\n        /* \"#utility.yul\":24536:24537   */\n      0x00\n        /* \"#utility.yul\":24528:24534   */\n      dup3\n        /* \"#utility.yul\":24524:24538   */\n      add\n        /* \"#utility.yul\":24517:24575   */\n      mstore\n        /* \"#utility.yul\":24609:24617   */\n      0x7365727665720000000000000000000000000000000000000000000000000000\n        /* \"#utility.yul\":24604:24606   */\n      0x20\n        /* \"#utility.yul\":24596:24602   */\n      dup3\n        /* \"#utility.yul\":24592:24607   */\n      add\n        /* \"#utility.yul\":24585:24618   */\n      mstore\n        /* \"#utility.yul\":24400:24625   */\n      pop\n      jump\t// out\n        /* \"#utility.yul\":24631:24855   */\n    tag_335:\n        /* \"#utility.yul\":24771:24805   */\n      0x455243313135353a207472616e7366657220746f20746865207a65726f206164\n        /* \"#utility.yul\":24767:24768   */\n      0x00\n        /* \"#utility.yul\":24759:24765   */\n      dup3\n        /* \"#utility.yul\":24755:24769   */\n      add\n        /* \"#utility.yul\":24748:24806   */\n      mstore\n        /* \"#utility.yul\":24840:24847   */\n      0x6472657373000000000000000000000000000000000000000000000000000000\n        /* \"#utility.yul\":24835:24837   */\n      0x20\n        /* \"#utility.yul\":24827:24833   */\n      dup3\n        /* \"#utility.yul\":24823:24838   */\n      add\n        /* \"#utility.yul\":24816:24848   */\n      mstore\n        /* \"#utility.yul\":24631:24855   */\n      pop\n      jump\t// out\n        /* \"#utility.yul\":24861:25090   */\n    tag_340:\n        /* \"#utility.yul\":25001:25035   */\n      0x455243313135353a20696e73756666696369656e742062616c616e636520666f\n        /* \"#utility.yul\":24997:24998   */\n      0x00\n        /* \"#utility.yul\":24989:24995   */\n      dup3\n        /* \"#utility.yul\":24985:24999   */\n      add\n        /* \"#utility.yul\":24978:25036   */\n      mstore\n        /* \"#utility.yul\":25070:25082   */\n      0x72207472616e7366657200000000000000000000000000000000000000000000\n        /* \"#utility.yul\":25065:25067   */\n      0x20\n        /* \"#utility.yul\":25057:25063   */\n      dup3\n        /* \"#utility.yul\":25053:25068   */\n      add\n        /* \"#utility.yul\":25046:25083   */\n      mstore\n        /* \"#utility.yul\":24861:25090   */\n      pop\n      jump\t// out\n        /* \"#utility.yul\":25096:25316   */\n    tag_345:\n        /* \"#utility.yul\":25236:25270   */\n      0x455243313135353a206d696e7420746f20746865207a65726f20616464726573\n        /* \"#utility.yul\":25232:25233   */\n      0x00\n        /* \"#utility.yul\":25224:25230   */\n      dup3\n        /* \"#utility.yul\":25220:25234   */\n      add\n        /* \"#utility.yul\":25213:25271   */\n      mstore\n        /* \"#utility.yul\":25305:25308   */\n      0x7300000000000000000000000000000000000000000000000000000000000000\n        /* \"#utility.yul\":25300:25302   */\n      0x20\n        /* \"#utility.yul\":25292:25298   */\n      dup3\n        /* \"#utility.yul\":25288:25303   */\n      add\n        /* \"#utility.yul\":25281:25309   */\n      mstore\n        /* \"#utility.yul\":25096:25316   */\n      pop\n      jump\t// out\n        /* \"#utility.yul\":25322:26033   */\n    tag_161:\n        /* \"#utility.yul\":25361:25364   */\n      0x00\n        /* \"#utility.yul\":25399:25403   */\n      0x44\n        /* \"#utility.yul\":25381:25397   */\n      returndatasize\n        /* \"#utility.yul\":25378:25404   */\n      lt\n        /* \"#utility.yul\":25375:25414   */\n      iszero\n      tag_462\n      jumpi\n        /* \"#utility.yul\":25407:25412   */\n      jump(tag_461)\n        /* \"#utility.yul\":25375:25414   */\n    tag_462:\n        /* \"#utility.yul\":25436:25456   */\n      tag_463\n      tag_398\n      jump\t// in\n    tag_463:\n        /* \"#utility.yul\":25511:25512   */\n      0x04\n        /* \"#utility.yul\":25493:25509   */\n      returndatasize\n        /* \"#utility.yul\":25489:25513   */\n      sub\n        /* \"#utility.yul\":25486:25487   */\n      0x04\n        /* \"#utility.yul\":25480:25484   */\n      dup3\n        /* \"#utility.yul\":25465:25514   */\n      returndatacopy\n        /* \"#utility.yul\":25544:25548   */\n      dup1\n        /* \"#utility.yul\":25538:25549   */\n      mload\n        /* \"#utility.yul\":25643:25659   */\n      returndatasize\n        /* \"#utility.yul\":25636:25640   */\n      0x24\n        /* \"#utility.yul\":25628:25634   */\n      dup3\n        /* \"#utility.yul\":25624:25641   */\n      add\n        /* \"#utility.yul\":25621:25660   */\n      gt\n        /* \"#utility.yul\":25588:25606   */\n      0xffffffffffffffff\n        /* \"#utility.yul\":25580:25586   */\n      dup3\n        /* \"#utility.yul\":25577:25607   */\n      gt\n        /* \"#utility.yul\":25561:25674   */\n      or\n        /* \"#utility.yul\":25558:25704   */\n      iszero\n      tag_464\n      jumpi\n        /* \"#utility.yul\":25689:25694   */\n      pop\n      pop\n      jump(tag_461)\n        /* \"#utility.yul\":25558:25704   */\n    tag_464:\n        /* \"#utility.yul\":25735:25741   */\n      dup1\n        /* \"#utility.yul\":25729:25733   */\n      dup3\n        /* \"#utility.yul\":25725:25742   */\n      add\n        /* \"#utility.yul\":25771:25774   */\n      dup1\n        /* \"#utility.yul\":25765:25775   */\n      mload\n        /* \"#utility.yul\":25798:25816   */\n      0xffffffffffffffff\n        /* \"#utility.yul\":25790:25796   */\n      dup2\n        /* \"#utility.yul\":25787:25817   */\n      gt\n        /* \"#utility.yul\":25784:25827   */\n      iszero\n      tag_465\n      jumpi\n        /* \"#utility.yul\":25820:25825   */\n      pop\n      pop\n      pop\n      pop\n      jump(tag_461)\n        /* \"#utility.yul\":25784:25827   */\n    tag_465:\n        /* \"#utility.yul\":25868:25874   */\n      dup1\n        /* \"#utility.yul\":25861:25865   */\n      0x20\n        /* \"#utility.yul\":25856:25859   */\n      dup4\n        /* \"#utility.yul\":25852:25866   */\n      add\n        /* \"#utility.yul\":25848:25875   */\n      add\n        /* \"#utility.yul\":25927:25928   */\n      0x04\n        /* \"#utility.yul\":25909:25925   */\n      returndatasize\n        /* \"#utility.yul\":25905:25929   */\n      sub\n        /* \"#utility.yul\":25899:25903   */\n      dup6\n        /* \"#utility.yul\":25895:25930   */\n      add\n        /* \"#utility.yul\":25890:25893   */\n      dup2\n        /* \"#utility.yul\":25887:25931   */\n      gt\n        /* \"#utility.yul\":25884:25941   */\n      iszero\n      tag_466\n      jumpi\n        /* \"#utility.yul\":25934:25939   */\n      pop\n      pop\n      pop\n      pop\n      pop\n      jump(tag_461)\n        /* \"#utility.yul\":25884:25941   */\n    tag_466:\n        /* \"#utility.yul\":25951:26008   */\n      tag_467\n        /* \"#utility.yul\":25999:26005   */\n      dup3\n        /* \"#utility.yul\":25993:25997   */\n      0x20\n        /* \"#utility.yul\":25989:26006   */\n      add\n        /* \"#utility.yul\":25981:25987   */\n      dup6\n        /* \"#utility.yul\":25977:26007   */\n      add\n        /* \"#utility.yul\":25971:25975   */\n      dup7\n        /* \"#utility.yul\":25951:26008   */\n      tag_400\n      jump\t// in\n    tag_467:\n        /* \"#utility.yul\":26024:26027   */\n      dup3\n        /* \"#utility.yul\":26017:26027   */\n      swap6\n      pop\n        /* \"#utility.yul\":25365:26033   */\n      pop\n      pop\n      pop\n      pop\n      pop\n        /* \"#utility.yul\":25322:26033   */\n    tag_461:\n      swap1\n      jump\t// out\n        /* \"#utility.yul\":26039:26161   */\n    tag_187:\n        /* \"#utility.yul\":26112:26136   */\n      tag_469\n        /* \"#utility.yul\":26130:26135   */\n      dup2\n        /* \"#utility.yul\":26112:26136   */\n      tag_274\n      jump\t// in\n    tag_469:\n        /* \"#utility.yul\":26105:26110   */\n      dup2\n        /* \"#utility.yul\":26102:26137   */\n      eq\n        /* \"#utility.yul\":26092:26155   */\n      tag_470\n      jumpi\n        /* \"#utility.yul\":26151:26152   */\n      0x00\n        /* \"#utility.yul\":26148:26149   */\n      dup1\n        /* \"#utility.yul\":26141:26153   */\n      revert\n        /* \"#utility.yul\":26092:26155   */\n    tag_470:\n        /* \"#utility.yul\":26039:26161   */\n      pop\n      jump\t// out\n        /* \"#utility.yul\":26167:26283   */\n    tag_191:\n        /* \"#utility.yul\":26237:26258   */\n      tag_472\n        /* \"#utility.yul\":26252:26257   */\n      dup2\n        /* \"#utility.yul\":26237:26258   */\n      tag_278\n      jump\t// in\n    tag_472:\n        /* \"#utility.yul\":26230:26235   */\n      dup2\n        /* \"#utility.yul\":26227:26259   */\n      eq\n        /* \"#utility.yul\":26217:26277   */\n      tag_473\n      jumpi\n        /* \"#utility.yul\":26273:26274   */\n      0x00\n        /* \"#utility.yul\":26270:26271   */\n      dup1\n        /* \"#utility.yul\":26263:26275   */\n      revert\n        /* \"#utility.yul\":26217:26277   */\n    tag_473:\n        /* \"#utility.yul\":26167:26283   */\n      pop\n      jump\t// out\n        /* \"#utility.yul\":26289:26409   */\n    tag_195:\n        /* \"#utility.yul\":26361:26384   */\n      tag_475\n        /* \"#utility.yul\":26378:26383   */\n      dup2\n        /* \"#utility.yul\":26361:26384   */\n      tag_282\n      jump\t// in\n    tag_475:\n        /* \"#utility.yul\":26354:26359   */\n      dup2\n        /* \"#utility.yul\":26351:26385   */\n      eq\n        /* \"#utility.yul\":26341:26403   */\n      tag_476\n      jumpi\n        /* \"#utility.yul\":26399:26400   */\n      0x00\n        /* \"#utility.yul\":26396:26397   */\n      dup1\n        /* \"#utility.yul\":26389:26401   */\n      revert\n        /* \"#utility.yul\":26341:26403   */\n    tag_476:\n        /* \"#utility.yul\":26289:26409   */\n      pop\n      jump\t// out\n        /* \"#utility.yul\":26415:26537   */\n    tag_215:\n        /* \"#utility.yul\":26488:26512   */\n      tag_478\n        /* \"#utility.yul\":26506:26511   */\n      dup2\n        /* \"#utility.yul\":26488:26512   */\n      tag_349\n      jump\t// in\n    tag_478:\n        /* \"#utility.yul\":26481:26486   */\n      dup2\n        /* \"#utility.yul\":26478:26513   */\n      eq\n        /* \"#utility.yul\":26468:26531   */\n      tag_479\n      jumpi\n        /* \"#utility.yul\":26527:26528   */\n      0x00\n        /* \"#utility.yul\":26524:26525   */\n      dup1\n        /* \"#utility.yul\":26517:26529   */\n      revert\n        /* \"#utility.yul\":26468:26531   */\n    tag_479:\n        /* \"#utility.yul\":26415:26537   */\n      pop\n      jump\t// out\n\n    auxdata: 0xa2646970667358221220eec831cfd7060c773a22b799deee46814b4b672216e164c14e23a01cfd44172b64736f6c63430008070033\n}\n",
				"bytecode": {
					"linkReferences": {},
					"object": "608060405234801561001057600080fd5b5033600260006101000a81548173ffffffffffffffffffffffffffffffffffffffff021916908373ffffffffffffffffffffffffffffffffffffffff160217905550611d71806100616000396000f3fe60806040526004361061007a5760003560e01c80639bb7e3101161004e5780639bb7e31014610152578063e92073041461018f578063f23a6e61146101ba578063f242432a146101f75761007a565b8062fdd58e1461007f578063242fd022146100bc57806357e87575146100ec5780638b0d025814610115575b600080fd5b34801561008b57600080fd5b506100a660048036038101906100a191906110d4565b610220565b6040516100b391906116a3565b60405180910390f35b6100d660048036038101906100d191906111db565b6102e9565b6040516100e3919061154b565b60405180910390f35b3480156100f857600080fd5b50610113600480360381019061010e919061119b565b6103f5565b005b34801561012157600080fd5b5061013c6004803603810190610137919061116e565b6104a4565b60405161014991906116a3565b60405180910390f35b34801561015e57600080fd5b5061017960048036038101906101749190610f76565b6104c1565b6040516101869190611435565b60405180910390f35b34801561019b57600080fd5b506101a46105be565b6040516101b19190611435565b60405180910390f35b3480156101c657600080fd5b506101e160048036038101906101dc9190610fa3565b6105e8565b6040516101ee9190611566565b60405180910390f35b34801561020357600080fd5b5061021e6004803603810190610219919061103d565b610690565b005b60008073ffffffffffffffffffffffffffffffffffffffff168373ffffffffffffffffffffffffffffffffffffffff161415610291576040517f08c379a000000000000000000000000000000000000000000000000000000000815260040161028890611603565b60405180910390fd5b60008083815260200190815260200160002060008473ffffffffffffffffffffffffffffffffffffffff1673ffffffffffffffffffffffffffffffffffffffff16815260200190815260200160002054905092915050565b60008173ffffffffffffffffffffffffffffffffffffffff1663e12163d633600260009054906101000a900473ffffffffffffffffffffffffffffffffffffffff16866040518463ffffffff1660e01b815260040161034a93929190611450565b602060405180830381600087803b15801561036457600080fd5b505af1158015610378573d6000803e3d6000fd5b505050506040513d601f19601f8201168201806040525081019061039c9190611114565b506103df303387876040518060400160405280600481526020017f3078303000000000000000000000000000000000000000000000000000000000815250610690565b6103e9858561074f565b60019050949350505050565b600260009054906101000a900473ffffffffffffffffffffffffffffffffffffffff1673ffffffffffffffffffffffffffffffffffffffff163373ffffffffffffffffffffffffffffffffffffffff1614610485576040517f08c379a000000000000000000000000000000000000000000000000000000000815260040161047c90611623565b60405180910390fd5b6104a030838360405180602001604052806000815250610789565b5050565b600060036000838152602001908152602001600020549050919050565b6000600260009054906101000a900473ffffffffffffffffffffffffffffffffffffffff1673ffffffffffffffffffffffffffffffffffffffff163373ffffffffffffffffffffffffffffffffffffffff1614610553576040517f08c379a000000000000000000000000000000000000000000000000000000000815260040161054a90611623565b60405180910390fd5b81600260006101000a81548173ffffffffffffffffffffffffffffffffffffffff021916908373ffffffffffffffffffffffffffffffffffffffff160217905550600260009054906101000a900473ffffffffffffffffffffffffffffffffffffffff169050919050565b6000600260009054906101000a900473ffffffffffffffffffffffffffffffffffffffff16905090565b60008360036000878152602001908152602001600020546106099190611775565b60036000878152602001908152602001600020819055507f20dfa9f79060c8c4d7fe892c97c71bcf6e3b63d1dcf66fea7aefc0211628cf298787878787875a60405161065b9796959493929190611487565b60405180910390a17ff23a6e612e1ff4830e658fe43f4e3cb4a5f8170bd5d9e69fb5d7a7fa9e4fdf9790509695505050505050565b61069861093a565b73ffffffffffffffffffffffffffffffffffffffff168573ffffffffffffffffffffffffffffffffffffffff1614806106fc57503073ffffffffffffffffffffffffffffffffffffffff168573ffffffffffffffffffffffffffffffffffffffff16145b61073b576040517f08c379a0000000000000000000000000000000000000000000000000000000008152600401610732906115c3565b60405180910390fd5b6107488585858585610942565b5050505050565b80600360008481526020019081526020016000205461076e91906117cb565b60036000848152602001908152602001600020819055505050565b600073ffffffffffffffffffffffffffffffffffffffff168473ffffffffffffffffffffffffffffffffffffffff1614156107f9576040517f08c379a00000000000000000000000000000000000000000000000000000000081526004016107f090611683565b60405180910390fd5b600061080361093a565b9050600061081085610bde565b9050600061081d85610bde565b905061082e83600089858589610c58565b8460008088815260200190815260200160002060008973ffffffffffffffffffffffffffffffffffffffff1673ffffffffffffffffffffffffffffffffffffffff168152602001908152602001600020600082825461088d9190611775565b925050819055508673ffffffffffffffffffffffffffffffffffffffff16600073ffffffffffffffffffffffffffffffffffffffff168473ffffffffffffffffffffffffffffffffffffffff167fc3d58168c5ae7397731d063d5bbf3d657854427343f4c083240f7aacaa2d0f62898960405161090b9291906116be565b60405180910390a461092283600089858589610c60565b61093183600089898989610c68565b50505050505050565b600033905090565b600073ffffffffffffffffffffffffffffffffffffffff168473ffffffffffffffffffffffffffffffffffffffff1614156109b2576040517f08c379a00000000000000000000000000000000000000000000000000000000081526004016109a990611643565b60405180910390fd5b60006109bc61093a565b905060006109c985610bde565b905060006109d685610bde565b90506109e6838989858589610c58565b600080600088815260200190815260200160002060008a73ffffffffffffffffffffffffffffffffffffffff1673ffffffffffffffffffffffffffffffffffffffff16815260200190815260200160002054905085811015610a7d576040517f08c379a0000000000000000000000000000000000000000000000000000000008152600401610a7490611663565b60405180910390fd5b85810360008089815260200190815260200160002060008b73ffffffffffffffffffffffffffffffffffffffff1673ffffffffffffffffffffffffffffffffffffffff168152602001908152602001600020819055508560008089815260200190815260200160002060008a73ffffffffffffffffffffffffffffffffffffffff1673ffffffffffffffffffffffffffffffffffffffff1681526020019081526020016000206000828254610b329190611775565b925050819055508773ffffffffffffffffffffffffffffffffffffffff168973ffffffffffffffffffffffffffffffffffffffff168573ffffffffffffffffffffffffffffffffffffffff167fc3d58168c5ae7397731d063d5bbf3d657854427343f4c083240f7aacaa2d0f628a8a604051610baf9291906116be565b60405180910390a4610bc5848a8a86868a610c60565b610bd3848a8a8a8a8a610c68565b505050505050505050565b60606000600167ffffffffffffffff811115610bfd57610bfc611944565b5b604051908082528060200260200182016040528015610c2b5781602001602082028036833780820191505090505b5090508281600081518110610c4357610c42611915565b5b60200260200101818152505080915050919050565b505050505050565b505050505050565b610c7184610e39565b15610e31578373ffffffffffffffffffffffffffffffffffffffff1663f23a6e6187878686866040518663ffffffff1660e01b8152600401610cb79594939291906114f1565b602060405180830381600087803b158015610cd157600080fd5b505af1925050508015610d0257506040513d601f19601f82011682018060405250810190610cff9190611141565b60015b610da857610d0e611973565b806308c379a01415610d6b5750610d23611c49565b80610d2e5750610d6d565b806040517f08c379a0000000000000000000000000000000000000000000000000000000008152600401610d629190611581565b60405180910390fd5b505b6040517f08c379a0000000000000000000000000000000000000000000000000000000008152600401610d9f906115a3565b60405180910390fd5b63f23a6e6160e01b7bffffffffffffffffffffffffffffffffffffffffffffffffffffffff1916817bffffffffffffffffffffffffffffffffffffffffffffffffffffffff191614610e2f576040517f08c379a0000000000000000000000000000000000000000000000000000000008152600401610e26906115e3565b60405180910390fd5b505b505050505050565b6000808273ffffffffffffffffffffffffffffffffffffffff163b119050919050565b6000610e6f610e6a8461170c565b6116e7565b905082815260208101848484011115610e8b57610e8a6119a4565b5b610e96848285611873565b509392505050565b600081359050610ead81611cdf565b92915050565b600081519050610ec281611cf6565b92915050565b600081519050610ed781611d0d565b92915050565b60008083601f840112610ef357610ef261199a565b5b8235905067ffffffffffffffff811115610f1057610f0f611995565b5b602083019150836001820283011115610f2c57610f2b61199f565b5b9250929050565b600082601f830112610f4857610f4761199a565b5b8135610f58848260208601610e5c565b91505092915050565b600081359050610f7081611d24565b92915050565b600060208284031215610f8c57610f8b6119ae565b5b6000610f9a84828501610e9e565b91505092915050565b60008060008060008060a08789031215610fc057610fbf6119ae565b5b6000610fce89828a01610e9e565b9650506020610fdf89828a01610e9e565b9550506040610ff089828a01610f61565b945050606061100189828a01610f61565b935050608087013567ffffffffffffffff811115611022576110216119a9565b5b61102e89828a01610edd565b92509250509295509295509295565b600080600080600060a08688031215611059576110586119ae565b5b600061106788828901610e9e565b955050602061107888828901610e9e565b945050604061108988828901610f61565b935050606061109a88828901610f61565b925050608086013567ffffffffffffffff8111156110bb576110ba6119a9565b5b6110c788828901610f33565b9150509295509295909350565b600080604083850312156110eb576110ea6119ae565b5b60006110f985828601610e9e565b925050602061110a85828601610f61565b9150509250929050565b60006020828403121561112a576111296119ae565b5b600061113884828501610eb3565b91505092915050565b600060208284031215611157576111566119ae565b5b600061116584828501610ec8565b91505092915050565b600060208284031215611184576111836119ae565b5b600061119284828501610f61565b91505092915050565b600080604083850312156111b2576111b16119ae565b5b60006111c085828601610f61565b92505060206111d185828601610f61565b9150509250929050565b600080600080608085870312156111f5576111f46119ae565b5b600061120387828801610f61565b945050602061121487828801610f61565b935050604061122587828801610f61565b925050606061123687828801610e9e565b91505092959194509250565b61124b816117ff565b82525050565b61125a81611811565b82525050565b6112698161181d565b82525050565b600061127b8385611753565b9350611288838584611873565b611291836119b3565b840190509392505050565b60006112a78261173d565b6112b18185611753565b93506112c1818560208601611882565b6112ca816119b3565b840191505092915050565b60006112e082611748565b6112ea8185611764565b93506112fa818560208601611882565b611303816119b3565b840191505092915050565b600061131b603483611764565b9150611326826119d1565b604082019050919050565b600061133e602f83611764565b915061134982611a20565b604082019050919050565b6000611361602883611764565b915061136c82611a6f565b604082019050919050565b6000611384602a83611764565b915061138f82611abe565b604082019050919050565b60006113a7602683611764565b91506113b282611b0d565b604082019050919050565b60006113ca602583611764565b91506113d582611b5c565b604082019050919050565b60006113ed602a83611764565b91506113f882611bab565b604082019050919050565b6000611410602183611764565b915061141b82611bfa565b604082019050919050565b61142f81611869565b82525050565b600060208201905061144a6000830184611242565b92915050565b60006060820190506114656000830186611242565b6114726020830185611242565b61147f6040830184611426565b949350505050565b600060c08201905061149c600083018a611242565b6114a96020830189611242565b6114b66040830188611426565b6114c36060830187611426565b81810360808301526114d681858761126f565b90506114e560a0830184611426565b98975050505050505050565b600060a0820190506115066000830188611242565b6115136020830187611242565b6115206040830186611426565b61152d6060830185611426565b818103608083015261153f818461129c565b90509695505050505050565b60006020820190506115606000830184611251565b92915050565b600060208201905061157b6000830184611260565b92915050565b6000602082019050818103600083015261159b81846112d5565b905092915050565b600060208201905081810360008301526115bc8161130e565b9050919050565b600060208201905081810360008301526115dc81611331565b9050919050565b600060208201905081810360008301526115fc81611354565b9050919050565b6000602082019050818103600083015261161c81611377565b9050919050565b6000602082019050818103600083015261163c8161139a565b9050919050565b6000602082019050818103600083015261165c816113bd565b9050919050565b6000602082019050818103600083015261167c816113e0565b9050919050565b6000602082019050818103600083015261169c81611403565b9050919050565b60006020820190506116b86000830184611426565b92915050565b60006040820190506116d36000830185611426565b6116e06020830184611426565b9392505050565b60006116f1611702565b90506116fd82826118b5565b919050565b6000604051905090565b600067ffffffffffffffff82111561172757611726611944565b5b611730826119b3565b9050602081019050919050565b600081519050919050565b600081519050919050565b600082825260208201905092915050565b600082825260208201905092915050565b600061178082611869565b915061178b83611869565b9250827fffffffffffffffffffffffffffffffffffffffffffffffffffffffffffffffff038211156117c0576117bf6118e6565b5b828201905092915050565b60006117d682611869565b91506117e183611869565b9250828210156117f4576117f36118e6565b5b828203905092915050565b600061180a82611849565b9050919050565b60008115159050919050565b60007fffffffff0000000000000000000000000000000000000000000000000000000082169050919050565b600073ffffffffffffffffffffffffffffffffffffffff82169050919050565b6000819050919050565b82818337600083830152505050565b60005b838110156118a0578082015181840152602081019050611885565b838111156118af576000848401525b50505050565b6118be826119b3565b810181811067ffffffffffffffff821117156118dd576118dc611944565b5b80604052505050565b7f4e487b7100000000000000000000000000000000000000000000000000000000600052601160045260246000fd5b7f4e487b7100000000000000000000000000000000000000000000000000000000600052603260045260246000fd5b7f4e487b7100000000000000000000000000000000000000000000000000000000600052604160045260246000fd5b600060033d11156119925760046000803e61198f6000516119c4565b90505b90565b600080fd5b600080fd5b600080fd5b600080fd5b600080fd5b600080fd5b6000601f19601f8301169050919050565b60008160e01c9050919050565b7f455243313135353a207472616e7366657220746f206e6f6e204552433131353560008201527f526563656976657220696d706c656d656e746572000000000000000000000000602082015250565b7f455243313135353a2063616c6c6572206973206e6f7420746f6b656e206f776e60008201527f6572206e6f7220617070726f7665640000000000000000000000000000000000602082015250565b7f455243313135353a204552433131353552656365697665722072656a6563746560008201527f6420746f6b656e73000000000000000000000000000000000000000000000000602082015250565b7f455243313135353a2061646472657373207a65726f206973206e6f742061207660008201527f616c6964206f776e657200000000000000000000000000000000000000000000602082015250565b7f746869732046756e6374696f6e206973206f6e6c792063616c6c65642062792060008201527f7365727665720000000000000000000000000000000000000000000000000000602082015250565b7f455243313135353a207472616e7366657220746f20746865207a65726f20616460008201527f6472657373000000000000000000000000000000000000000000000000000000602082015250565b7f455243313135353a20696e73756666696369656e742062616c616e636520666f60008201527f72207472616e7366657200000000000000000000000000000000000000000000602082015250565b7f455243313135353a206d696e7420746f20746865207a65726f2061646472657360008201527f7300000000000000000000000000000000000000000000000000000000000000602082015250565b600060443d1015611c5957611cdc565b611c61611702565b60043d036004823e80513d602482011167ffffffffffffffff82111715611c89575050611cdc565b808201805167ffffffffffffffff811115611ca75750505050611cdc565b80602083010160043d038501811115611cc4575050505050611cdc565b611cd3826020018501866118b5565b82955050505050505b90565b611ce8816117ff565b8114611cf357600080fd5b50565b611cff81611811565b8114611d0a57600080fd5b50565b611d168161181d565b8114611d2157600080fd5b50565b611d2d81611869565b8114611d3857600080fd5b5056fea2646970667358221220eec831cfd7060c773a22b799deee46814b4b672216e164c14e23a01cfd44172b64736f6c63430008070033",
					"opcodes": "PUSH1 0x80 PUSH1 0x40 MSTORE CALLVALUE DUP1 ISZERO PUSH2 0x10 JUMPI PUSH1 0x0 DUP1 REVERT JUMPDEST POP CALLER PUSH1 0x2 PUSH1 0x0 PUSH2 0x100 EXP DUP2 SLOAD DUP2 PUSH20 0xFFFFFFFFFFFFFFFFFFFFFFFFFFFFFFFFFFFFFFFF MUL NOT AND SWAP1 DUP4 PUSH20 0xFFFFFFFFFFFFFFFFFFFFFFFFFFFFFFFFFFFFFFFF AND MUL OR SWAP1 SSTORE POP PUSH2 0x1D71 DUP1 PUSH2 0x61 PUSH1 0x0 CODECOPY PUSH1 0x0 RETURN INVALID PUSH1 0x80 PUSH1 0x40 MSTORE PUSH1 0x4 CALLDATASIZE LT PUSH2 0x7A JUMPI PUSH1 0x0 CALLDATALOAD PUSH1 0xE0 SHR DUP1 PUSH4 0x9BB7E310 GT PUSH2 0x4E JUMPI DUP1 PUSH4 0x9BB7E310 EQ PUSH2 0x152 JUMPI DUP1 PUSH4 0xE9207304 EQ PUSH2 0x18F JUMPI DUP1 PUSH4 0xF23A6E61 EQ PUSH2 0x1BA JUMPI DUP1 PUSH4 0xF242432A EQ PUSH2 0x1F7 JUMPI PUSH2 0x7A JUMP JUMPDEST DUP1 PUSH3 0xFDD58E EQ PUSH2 0x7F JUMPI DUP1 PUSH4 0x242FD022 EQ PUSH2 0xBC JUMPI DUP1 PUSH4 0x57E87575 EQ PUSH2 0xEC JUMPI DUP1 PUSH4 0x8B0D0258 EQ PUSH2 0x115 JUMPI JUMPDEST PUSH1 0x0 DUP1 REVERT JUMPDEST CALLVALUE DUP1 ISZERO PUSH2 0x8B JUMPI PUSH1 0x0 DUP1 REVERT JUMPDEST POP PUSH2 0xA6 PUSH1 0x4 DUP1 CALLDATASIZE SUB DUP2 ADD SWAP1 PUSH2 0xA1 SWAP2 SWAP1 PUSH2 0x10D4 JUMP JUMPDEST PUSH2 0x220 JUMP JUMPDEST PUSH1 0x40 MLOAD PUSH2 0xB3 SWAP2 SWAP1 PUSH2 0x16A3 JUMP JUMPDEST PUSH1 0x40 MLOAD DUP1 SWAP2 SUB SWAP1 RETURN JUMPDEST PUSH2 0xD6 PUSH1 0x4 DUP1 CALLDATASIZE SUB DUP2 ADD SWAP1 PUSH2 0xD1 SWAP2 SWAP1 PUSH2 0x11DB JUMP JUMPDEST PUSH2 0x2E9 JUMP JUMPDEST PUSH1 0x40 MLOAD PUSH2 0xE3 SWAP2 SWAP1 PUSH2 0x154B JUMP JUMPDEST PUSH1 0x40 MLOAD DUP1 SWAP2 SUB SWAP1 RETURN JUMPDEST CALLVALUE DUP1 ISZERO PUSH2 0xF8 JUMPI PUSH1 0x0 DUP1 REVERT JUMPDEST POP PUSH2 0x113 PUSH1 0x4 DUP1 CALLDATASIZE SUB DUP2 ADD SWAP1 PUSH2 0x10E SWAP2 SWAP1 PUSH2 0x119B JUMP JUMPDEST PUSH2 0x3F5 JUMP JUMPDEST STOP JUMPDEST CALLVALUE DUP1 ISZERO PUSH2 0x121 JUMPI PUSH1 0x0 DUP1 REVERT JUMPDEST POP PUSH2 0x13C PUSH1 0x4 DUP1 CALLDATASIZE SUB DUP2 ADD SWAP1 PUSH2 0x137 SWAP2 SWAP1 PUSH2 0x116E JUMP JUMPDEST PUSH2 0x4A4 JUMP JUMPDEST PUSH1 0x40 MLOAD PUSH2 0x149 SWAP2 SWAP1 PUSH2 0x16A3 JUMP JUMPDEST PUSH1 0x40 MLOAD DUP1 SWAP2 SUB SWAP1 RETURN JUMPDEST CALLVALUE DUP1 ISZERO PUSH2 0x15E JUMPI PUSH1 0x0 DUP1 REVERT JUMPDEST POP PUSH2 0x179 PUSH1 0x4 DUP1 CALLDATASIZE SUB DUP2 ADD SWAP1 PUSH2 0x174 SWAP2 SWAP1 PUSH2 0xF76 JUMP JUMPDEST PUSH2 0x4C1 JUMP JUMPDEST PUSH1 0x40 MLOAD PUSH2 0x186 SWAP2 SWAP1 PUSH2 0x1435 JUMP JUMPDEST PUSH1 0x40 MLOAD DUP1 SWAP2 SUB SWAP1 RETURN JUMPDEST CALLVALUE DUP1 ISZERO PUSH2 0x19B JUMPI PUSH1 0x0 DUP1 REVERT JUMPDEST POP PUSH2 0x1A4 PUSH2 0x5BE JUMP JUMPDEST PUSH1 0x40 MLOAD PUSH2 0x1B1 SWAP2 SWAP1 PUSH2 0x1435 JUMP JUMPDEST PUSH1 0x40 MLOAD DUP1 SWAP2 SUB SWAP1 RETURN JUMPDEST CALLVALUE DUP1 ISZERO PUSH2 0x1C6 JUMPI PUSH1 0x0 DUP1 REVERT JUMPDEST POP PUSH2 0x1E1 PUSH1 0x4 DUP1 CALLDATASIZE SUB DUP2 ADD SWAP1 PUSH2 0x1DC SWAP2 SWAP1 PUSH2 0xFA3 JUMP JUMPDEST PUSH2 0x5E8 JUMP JUMPDEST PUSH1 0x40 MLOAD PUSH2 0x1EE SWAP2 SWAP1 PUSH2 0x1566 JUMP JUMPDEST PUSH1 0x40 MLOAD DUP1 SWAP2 SUB SWAP1 RETURN JUMPDEST CALLVALUE DUP1 ISZERO PUSH2 0x203 JUMPI PUSH1 0x0 DUP1 REVERT JUMPDEST POP PUSH2 0x21E PUSH1 0x4 DUP1 CALLDATASIZE SUB DUP2 ADD SWAP1 PUSH2 0x219 SWAP2 SWAP1 PUSH2 0x103D JUMP JUMPDEST PUSH2 0x690 JUMP JUMPDEST STOP JUMPDEST PUSH1 0x0 DUP1 PUSH20 0xFFFFFFFFFFFFFFFFFFFFFFFFFFFFFFFFFFFFFFFF AND DUP4 PUSH20 0xFFFFFFFFFFFFFFFFFFFFFFFFFFFFFFFFFFFFFFFF AND EQ ISZERO PUSH2 0x291 JUMPI PUSH1 0x40 MLOAD PUSH32 0x8C379A000000000000000000000000000000000000000000000000000000000 DUP2 MSTORE PUSH1 0x4 ADD PUSH2 0x288 SWAP1 PUSH2 0x1603 JUMP JUMPDEST PUSH1 0x40 MLOAD DUP1 SWAP2 SUB SWAP1 REVERT JUMPDEST PUSH1 0x0 DUP1 DUP4 DUP2 MSTORE PUSH1 0x20 ADD SWAP1 DUP2 MSTORE PUSH1 0x20 ADD PUSH1 0x0 KECCAK256 PUSH1 0x0 DUP5 PUSH20 0xFFFFFFFFFFFFFFFFFFFFFFFFFFFFFFFFFFFFFFFF AND PUSH20 0xFFFFFFFFFFFFFFFFFFFFFFFFFFFFFFFFFFFFFFFF AND DUP2 MSTORE PUSH1 0x20 ADD SWAP1 DUP2 MSTORE PUSH1 0x20 ADD PUSH1 0x0 KECCAK256 SLOAD SWAP1 POP SWAP3 SWAP2 POP POP JUMP JUMPDEST PUSH1 0x0 DUP2 PUSH20 0xFFFFFFFFFFFFFFFFFFFFFFFFFFFFFFFFFFFFFFFF AND PUSH4 0xE12163D6 CALLER PUSH1 0x2 PUSH1 0x0 SWAP1 SLOAD SWAP1 PUSH2 0x100 EXP SWAP1 DIV PUSH20 0xFFFFFFFFFFFFFFFFFFFFFFFFFFFFFFFFFFFFFFFF AND DUP7 PUSH1 0x40 MLOAD DUP5 PUSH4 0xFFFFFFFF AND PUSH1 0xE0 SHL DUP2 MSTORE PUSH1 0x4 ADD PUSH2 0x34A SWAP4 SWAP3 SWAP2 SWAP1 PUSH2 0x1450 JUMP JUMPDEST PUSH1 0x20 PUSH1 0x40 MLOAD DUP1 DUP4 SUB DUP2 PUSH1 0x0 DUP8 DUP1 EXTCODESIZE ISZERO DUP1 ISZERO PUSH2 0x364 JUMPI PUSH1 0x0 DUP1 REVERT JUMPDEST POP GAS CALL ISZERO DUP1 ISZERO PUSH2 0x378 JUMPI RETURNDATASIZE PUSH1 0x0 DUP1 RETURNDATACOPY RETURNDATASIZE PUSH1 0x0 REVERT JUMPDEST POP POP POP POP PUSH1 0x40 MLOAD RETURNDATASIZE PUSH1 0x1F NOT PUSH1 0x1F DUP3 ADD AND DUP3 ADD DUP1 PUSH1 0x40 MSTORE POP DUP2 ADD SWAP1 PUSH2 0x39C SWAP2 SWAP1 PUSH2 0x1114 JUMP JUMPDEST POP PUSH2 0x3DF ADDRESS CALLER DUP8 DUP8 PUSH1 0x40 MLOAD DUP1 PUSH1 0x40 ADD PUSH1 0x40 MSTORE DUP1 PUSH1 0x4 DUP2 MSTORE PUSH1 0x20 ADD PUSH32 0x3078303000000000000000000000000000000000000000000000000000000000 DUP2 MSTORE POP PUSH2 0x690 JUMP JUMPDEST PUSH2 0x3E9 DUP6 DUP6 PUSH2 0x74F JUMP JUMPDEST PUSH1 0x1 SWAP1 POP SWAP5 SWAP4 POP POP POP POP JUMP JUMPDEST PUSH1 0x2 PUSH1 0x0 SWAP1 SLOAD SWAP1 PUSH2 0x100 EXP SWAP1 DIV PUSH20 0xFFFFFFFFFFFFFFFFFFFFFFFFFFFFFFFFFFFFFFFF AND PUSH20 0xFFFFFFFFFFFFFFFFFFFFFFFFFFFFFFFFFFFFFFFF AND CALLER PUSH20 0xFFFFFFFFFFFFFFFFFFFFFFFFFFFFFFFFFFFFFFFF AND EQ PUSH2 0x485 JUMPI PUSH1 0x40 MLOAD PUSH32 0x8C379A000000000000000000000000000000000000000000000000000000000 DUP2 MSTORE PUSH1 0x4 ADD PUSH2 0x47C SWAP1 PUSH2 0x1623 JUMP JUMPDEST PUSH1 0x40 MLOAD DUP1 SWAP2 SUB SWAP1 REVERT JUMPDEST PUSH2 0x4A0 ADDRESS DUP4 DUP4 PUSH1 0x40 MLOAD DUP1 PUSH1 0x20 ADD PUSH1 0x40 MSTORE DUP1 PUSH1 0x0 DUP2 MSTORE POP PUSH2 0x789 JUMP JUMPDEST POP POP JUMP JUMPDEST PUSH1 0x0 PUSH1 0x3 PUSH1 0x0 DUP4 DUP2 MSTORE PUSH1 0x20 ADD SWAP1 DUP2 MSTORE PUSH1 0x20 ADD PUSH1 0x0 KECCAK256 SLOAD SWAP1 POP SWAP2 SWAP1 POP JUMP JUMPDEST PUSH1 0x0 PUSH1 0x2 PUSH1 0x0 SWAP1 SLOAD SWAP1 PUSH2 0x100 EXP SWAP1 DIV PUSH20 0xFFFFFFFFFFFFFFFFFFFFFFFFFFFFFFFFFFFFFFFF AND PUSH20 0xFFFFFFFFFFFFFFFFFFFFFFFFFFFFFFFFFFFFFFFF AND CALLER PUSH20 0xFFFFFFFFFFFFFFFFFFFFFFFFFFFFFFFFFFFFFFFF AND EQ PUSH2 0x553 JUMPI PUSH1 0x40 MLOAD PUSH32 0x8C379A000000000000000000000000000000000000000000000000000000000 DUP2 MSTORE PUSH1 0x4 ADD PUSH2 0x54A SWAP1 PUSH2 0x1623 JUMP JUMPDEST PUSH1 0x40 MLOAD DUP1 SWAP2 SUB SWAP1 REVERT JUMPDEST DUP2 PUSH1 0x2 PUSH1 0x0 PUSH2 0x100 EXP DUP2 SLOAD DUP2 PUSH20 0xFFFFFFFFFFFFFFFFFFFFFFFFFFFFFFFFFFFFFFFF MUL NOT AND SWAP1 DUP4 PUSH20 0xFFFFFFFFFFFFFFFFFFFFFFFFFFFFFFFFFFFFFFFF AND MUL OR SWAP1 SSTORE POP PUSH1 0x2 PUSH1 0x0 SWAP1 SLOAD SWAP1 PUSH2 0x100 EXP SWAP1 DIV PUSH20 0xFFFFFFFFFFFFFFFFFFFFFFFFFFFFFFFFFFFFFFFF AND SWAP1 POP SWAP2 SWAP1 POP JUMP JUMPDEST PUSH1 0x0 PUSH1 0x2 PUSH1 0x0 SWAP1 SLOAD SWAP1 PUSH2 0x100 EXP SWAP1 DIV PUSH20 0xFFFFFFFFFFFFFFFFFFFFFFFFFFFFFFFFFFFFFFFF AND SWAP1 POP SWAP1 JUMP JUMPDEST PUSH1 0x0 DUP4 PUSH1 0x3 PUSH1 0x0 DUP8 DUP2 MSTORE PUSH1 0x20 ADD SWAP1 DUP2 MSTORE PUSH1 0x20 ADD PUSH1 0x0 KECCAK256 SLOAD PUSH2 0x609 SWAP2 SWAP1 PUSH2 0x1775 JUMP JUMPDEST PUSH1 0x3 PUSH1 0x0 DUP8 DUP2 MSTORE PUSH1 0x20 ADD SWAP1 DUP2 MSTORE PUSH1 0x20 ADD PUSH1 0x0 KECCAK256 DUP2 SWAP1 SSTORE POP PUSH32 0x20DFA9F79060C8C4D7FE892C97C71BCF6E3B63D1DCF66FEA7AEFC0211628CF29 DUP8 DUP8 DUP8 DUP8 DUP8 DUP8 GAS PUSH1 0x40 MLOAD PUSH2 0x65B SWAP8 SWAP7 SWAP6 SWAP5 SWAP4 SWAP3 SWAP2 SWAP1 PUSH2 0x1487 JUMP JUMPDEST PUSH1 0x40 MLOAD DUP1 SWAP2 SUB SWAP1 LOG1 PUSH32 0xF23A6E612E1FF4830E658FE43F4E3CB4A5F8170BD5D9E69FB5D7A7FA9E4FDF97 SWAP1 POP SWAP7 SWAP6 POP POP POP POP POP POP JUMP JUMPDEST PUSH2 0x698 PUSH2 0x93A JUMP JUMPDEST PUSH20 0xFFFFFFFFFFFFFFFFFFFFFFFFFFFFFFFFFFFFFFFF AND DUP6 PUSH20 0xFFFFFFFFFFFFFFFFFFFFFFFFFFFFFFFFFFFFFFFF AND EQ DUP1 PUSH2 0x6FC JUMPI POP ADDRESS PUSH20 0xFFFFFFFFFFFFFFFFFFFFFFFFFFFFFFFFFFFFFFFF AND DUP6 PUSH20 0xFFFFFFFFFFFFFFFFFFFFFFFFFFFFFFFFFFFFFFFF AND EQ JUMPDEST PUSH2 0x73B JUMPI PUSH1 0x40 MLOAD PUSH32 0x8C379A000000000000000000000000000000000000000000000000000000000 DUP2 MSTORE PUSH1 0x4 ADD PUSH2 0x732 SWAP1 PUSH2 0x15C3 JUMP JUMPDEST PUSH1 0x40 MLOAD DUP1 SWAP2 SUB SWAP1 REVERT JUMPDEST PUSH2 0x748 DUP6 DUP6 DUP6 DUP6 DUP6 PUSH2 0x942 JUMP JUMPDEST POP POP POP POP POP JUMP JUMPDEST DUP1 PUSH1 0x3 PUSH1 0x0 DUP5 DUP2 MSTORE PUSH1 0x20 ADD SWAP1 DUP2 MSTORE PUSH1 0x20 ADD PUSH1 0x0 KECCAK256 SLOAD PUSH2 0x76E SWAP2 SWAP1 PUSH2 0x17CB JUMP JUMPDEST PUSH1 0x3 PUSH1 0x0 DUP5 DUP2 MSTORE PUSH1 0x20 ADD SWAP1 DUP2 MSTORE PUSH1 0x20 ADD PUSH1 0x0 KECCAK256 DUP2 SWAP1 SSTORE POP POP POP JUMP JUMPDEST PUSH1 0x0 PUSH20 0xFFFFFFFFFFFFFFFFFFFFFFFFFFFFFFFFFFFFFFFF AND DUP5 PUSH20 0xFFFFFFFFFFFFFFFFFFFFFFFFFFFFFFFFFFFFFFFF AND EQ ISZERO PUSH2 0x7F9 JUMPI PUSH1 0x40 MLOAD PUSH32 0x8C379A000000000000000000000000000000000000000000000000000000000 DUP2 MSTORE PUSH1 0x4 ADD PUSH2 0x7F0 SWAP1 PUSH2 0x1683 JUMP JUMPDEST PUSH1 0x40 MLOAD DUP1 SWAP2 SUB SWAP1 REVERT JUMPDEST PUSH1 0x0 PUSH2 0x803 PUSH2 0x93A JUMP JUMPDEST SWAP1 POP PUSH1 0x0 PUSH2 0x810 DUP6 PUSH2 0xBDE JUMP JUMPDEST SWAP1 POP PUSH1 0x0 PUSH2 0x81D DUP6 PUSH2 0xBDE JUMP JUMPDEST SWAP1 POP PUSH2 0x82E DUP4 PUSH1 0x0 DUP10 DUP6 DUP6 DUP10 PUSH2 0xC58 JUMP JUMPDEST DUP5 PUSH1 0x0 DUP1 DUP9 DUP2 MSTORE PUSH1 0x20 ADD SWAP1 DUP2 MSTORE PUSH1 0x20 ADD PUSH1 0x0 KECCAK256 PUSH1 0x0 DUP10 PUSH20 0xFFFFFFFFFFFFFFFFFFFFFFFFFFFFFFFFFFFFFFFF AND PUSH20 0xFFFFFFFFFFFFFFFFFFFFFFFFFFFFFFFFFFFFFFFF AND DUP2 MSTORE PUSH1 0x20 ADD SWAP1 DUP2 MSTORE PUSH1 0x20 ADD PUSH1 0x0 KECCAK256 PUSH1 0x0 DUP3 DUP3 SLOAD PUSH2 0x88D SWAP2 SWAP1 PUSH2 0x1775 JUMP JUMPDEST SWAP3 POP POP DUP2 SWAP1 SSTORE POP DUP7 PUSH20 0xFFFFFFFFFFFFFFFFFFFFFFFFFFFFFFFFFFFFFFFF AND PUSH1 0x0 PUSH20 0xFFFFFFFFFFFFFFFFFFFFFFFFFFFFFFFFFFFFFFFF AND DUP5 PUSH20 0xFFFFFFFFFFFFFFFFFFFFFFFFFFFFFFFFFFFFFFFF AND PUSH32 0xC3D58168C5AE7397731D063D5BBF3D657854427343F4C083240F7AACAA2D0F62 DUP10 DUP10 PUSH1 0x40 MLOAD PUSH2 0x90B SWAP3 SWAP2 SWAP1 PUSH2 0x16BE JUMP JUMPDEST PUSH1 0x40 MLOAD DUP1 SWAP2 SUB SWAP1 LOG4 PUSH2 0x922 DUP4 PUSH1 0x0 DUP10 DUP6 DUP6 DUP10 PUSH2 0xC60 JUMP JUMPDEST PUSH2 0x931 DUP4 PUSH1 0x0 DUP10 DUP10 DUP10 DUP10 PUSH2 0xC68 JUMP JUMPDEST POP POP POP POP POP POP POP JUMP JUMPDEST PUSH1 0x0 CALLER SWAP1 POP SWAP1 JUMP JUMPDEST PUSH1 0x0 PUSH20 0xFFFFFFFFFFFFFFFFFFFFFFFFFFFFFFFFFFFFFFFF AND DUP5 PUSH20 0xFFFFFFFFFFFFFFFFFFFFFFFFFFFFFFFFFFFFFFFF AND EQ ISZERO PUSH2 0x9B2 JUMPI PUSH1 0x40 MLOAD PUSH32 0x8C379A000000000000000000000000000000000000000000000000000000000 DUP2 MSTORE PUSH1 0x4 ADD PUSH2 0x9A9 SWAP1 PUSH2 0x1643 JUMP JUMPDEST PUSH1 0x40 MLOAD DUP1 SWAP2 SUB SWAP1 REVERT JUMPDEST PUSH1 0x0 PUSH2 0x9BC PUSH2 0x93A JUMP JUMPDEST SWAP1 POP PUSH1 0x0 PUSH2 0x9C9 DUP6 PUSH2 0xBDE JUMP JUMPDEST SWAP1 POP PUSH1 0x0 PUSH2 0x9D6 DUP6 PUSH2 0xBDE JUMP JUMPDEST SWAP1 POP PUSH2 0x9E6 DUP4 DUP10 DUP10 DUP6 DUP6 DUP10 PUSH2 0xC58 JUMP JUMPDEST PUSH1 0x0 DUP1 PUSH1 0x0 DUP9 DUP2 MSTORE PUSH1 0x20 ADD SWAP1 DUP2 MSTORE PUSH1 0x20 ADD PUSH1 0x0 KECCAK256 PUSH1 0x0 DUP11 PUSH20 0xFFFFFFFFFFFFFFFFFFFFFFFFFFFFFFFFFFFFFFFF AND PUSH20 0xFFFFFFFFFFFFFFFFFFFFFFFFFFFFFFFFFFFFFFFF AND DUP2 MSTORE PUSH1 0x20 ADD SWAP1 DUP2 MSTORE PUSH1 0x20 ADD PUSH1 0x0 KECCAK256 SLOAD SWAP1 POP DUP6 DUP2 LT ISZERO PUSH2 0xA7D JUMPI PUSH1 0x40 MLOAD PUSH32 0x8C379A000000000000000000000000000000000000000000000000000000000 DUP2 MSTORE PUSH1 0x4 ADD PUSH2 0xA74 SWAP1 PUSH2 0x1663 JUMP JUMPDEST PUSH1 0x40 MLOAD DUP1 SWAP2 SUB SWAP1 REVERT JUMPDEST DUP6 DUP2 SUB PUSH1 0x0 DUP1 DUP10 DUP2 MSTORE PUSH1 0x20 ADD SWAP1 DUP2 MSTORE PUSH1 0x20 ADD PUSH1 0x0 KECCAK256 PUSH1 0x0 DUP12 PUSH20 0xFFFFFFFFFFFFFFFFFFFFFFFFFFFFFFFFFFFFFFFF AND PUSH20 0xFFFFFFFFFFFFFFFFFFFFFFFFFFFFFFFFFFFFFFFF AND DUP2 MSTORE PUSH1 0x20 ADD SWAP1 DUP2 MSTORE PUSH1 0x20 ADD PUSH1 0x0 KECCAK256 DUP2 SWAP1 SSTORE POP DUP6 PUSH1 0x0 DUP1 DUP10 DUP2 MSTORE PUSH1 0x20 ADD SWAP1 DUP2 MSTORE PUSH1 0x20 ADD PUSH1 0x0 KECCAK256 PUSH1 0x0 DUP11 PUSH20 0xFFFFFFFFFFFFFFFFFFFFFFFFFFFFFFFFFFFFFFFF AND PUSH20 0xFFFFFFFFFFFFFFFFFFFFFFFFFFFFFFFFFFFFFFFF AND DUP2 MSTORE PUSH1 0x20 ADD SWAP1 DUP2 MSTORE PUSH1 0x20 ADD PUSH1 0x0 KECCAK256 PUSH1 0x0 DUP3 DUP3 SLOAD PUSH2 0xB32 SWAP2 SWAP1 PUSH2 0x1775 JUMP JUMPDEST SWAP3 POP POP DUP2 SWAP1 SSTORE POP DUP8 PUSH20 0xFFFFFFFFFFFFFFFFFFFFFFFFFFFFFFFFFFFFFFFF AND DUP10 PUSH20 0xFFFFFFFFFFFFFFFFFFFFFFFFFFFFFFFFFFFFFFFF AND DUP6 PUSH20 0xFFFFFFFFFFFFFFFFFFFFFFFFFFFFFFFFFFFFFFFF AND PUSH32 0xC3D58168C5AE7397731D063D5BBF3D657854427343F4C083240F7AACAA2D0F62 DUP11 DUP11 PUSH1 0x40 MLOAD PUSH2 0xBAF SWAP3 SWAP2 SWAP1 PUSH2 0x16BE JUMP JUMPDEST PUSH1 0x40 MLOAD DUP1 SWAP2 SUB SWAP1 LOG4 PUSH2 0xBC5 DUP5 DUP11 DUP11 DUP7 DUP7 DUP11 PUSH2 0xC60 JUMP JUMPDEST PUSH2 0xBD3 DUP5 DUP11 DUP11 DUP11 DUP11 DUP11 PUSH2 0xC68 JUMP JUMPDEST POP POP POP POP POP POP POP POP POP JUMP JUMPDEST PUSH1 0x60 PUSH1 0x0 PUSH1 0x1 PUSH8 0xFFFFFFFFFFFFFFFF DUP2 GT ISZERO PUSH2 0xBFD JUMPI PUSH2 0xBFC PUSH2 0x1944 JUMP JUMPDEST JUMPDEST PUSH1 0x40 MLOAD SWAP1 DUP1 DUP3 MSTORE DUP1 PUSH1 0x20 MUL PUSH1 0x20 ADD DUP3 ADD PUSH1 0x40 MSTORE DUP1 ISZERO PUSH2 0xC2B JUMPI DUP2 PUSH1 0x20 ADD PUSH1 0x20 DUP3 MUL DUP1 CALLDATASIZE DUP4 CALLDATACOPY DUP1 DUP3 ADD SWAP2 POP POP SWAP1 POP JUMPDEST POP SWAP1 POP DUP3 DUP2 PUSH1 0x0 DUP2 MLOAD DUP2 LT PUSH2 0xC43 JUMPI PUSH2 0xC42 PUSH2 0x1915 JUMP JUMPDEST JUMPDEST PUSH1 0x20 MUL PUSH1 0x20 ADD ADD DUP2 DUP2 MSTORE POP POP DUP1 SWAP2 POP POP SWAP2 SWAP1 POP JUMP JUMPDEST POP POP POP POP POP POP JUMP JUMPDEST POP POP POP POP POP POP JUMP JUMPDEST PUSH2 0xC71 DUP5 PUSH2 0xE39 JUMP JUMPDEST ISZERO PUSH2 0xE31 JUMPI DUP4 PUSH20 0xFFFFFFFFFFFFFFFFFFFFFFFFFFFFFFFFFFFFFFFF AND PUSH4 0xF23A6E61 DUP8 DUP8 DUP7 DUP7 DUP7 PUSH1 0x40 MLOAD DUP7 PUSH4 0xFFFFFFFF AND PUSH1 0xE0 SHL DUP2 MSTORE PUSH1 0x4 ADD PUSH2 0xCB7 SWAP6 SWAP5 SWAP4 SWAP3 SWAP2 SWAP1 PUSH2 0x14F1 JUMP JUMPDEST PUSH1 0x20 PUSH1 0x40 MLOAD DUP1 DUP4 SUB DUP2 PUSH1 0x0 DUP8 DUP1 EXTCODESIZE ISZERO DUP1 ISZERO PUSH2 0xCD1 JUMPI PUSH1 0x0 DUP1 REVERT JUMPDEST POP GAS CALL SWAP3 POP POP POP DUP1 ISZERO PUSH2 0xD02 JUMPI POP PUSH1 0x40 MLOAD RETURNDATASIZE PUSH1 0x1F NOT PUSH1 0x1F DUP3 ADD AND DUP3 ADD DUP1 PUSH1 0x40 MSTORE POP DUP2 ADD SWAP1 PUSH2 0xCFF SWAP2 SWAP1 PUSH2 0x1141 JUMP JUMPDEST PUSH1 0x1 JUMPDEST PUSH2 0xDA8 JUMPI PUSH2 0xD0E PUSH2 0x1973 JUMP JUMPDEST DUP1 PUSH4 0x8C379A0 EQ ISZERO PUSH2 0xD6B JUMPI POP PUSH2 0xD23 PUSH2 0x1C49 JUMP JUMPDEST DUP1 PUSH2 0xD2E JUMPI POP PUSH2 0xD6D JUMP JUMPDEST DUP1 PUSH1 0x40 MLOAD PUSH32 0x8C379A000000000000000000000000000000000000000000000000000000000 DUP2 MSTORE PUSH1 0x4 ADD PUSH2 0xD62 SWAP2 SWAP1 PUSH2 0x1581 JUMP JUMPDEST PUSH1 0x40 MLOAD DUP1 SWAP2 SUB SWAP1 REVERT JUMPDEST POP JUMPDEST PUSH1 0x40 MLOAD PUSH32 0x8C379A000000000000000000000000000000000000000000000000000000000 DUP2 MSTORE PUSH1 0x4 ADD PUSH2 0xD9F SWAP1 PUSH2 0x15A3 JUMP JUMPDEST PUSH1 0x40 MLOAD DUP1 SWAP2 SUB SWAP1 REVERT JUMPDEST PUSH4 0xF23A6E61 PUSH1 0xE0 SHL PUSH28 0xFFFFFFFFFFFFFFFFFFFFFFFFFFFFFFFFFFFFFFFFFFFFFFFFFFFFFFFF NOT AND DUP2 PUSH28 0xFFFFFFFFFFFFFFFFFFFFFFFFFFFFFFFFFFFFFFFFFFFFFFFFFFFFFFFF NOT AND EQ PUSH2 0xE2F JUMPI PUSH1 0x40 MLOAD PUSH32 0x8C379A000000000000000000000000000000000000000000000000000000000 DUP2 MSTORE PUSH1 0x4 ADD PUSH2 0xE26 SWAP1 PUSH2 0x15E3 JUMP JUMPDEST PUSH1 0x40 MLOAD DUP1 SWAP2 SUB SWAP1 REVERT JUMPDEST POP JUMPDEST POP POP POP POP POP POP JUMP JUMPDEST PUSH1 0x0 DUP1 DUP3 PUSH20 0xFFFFFFFFFFFFFFFFFFFFFFFFFFFFFFFFFFFFFFFF AND EXTCODESIZE GT SWAP1 POP SWAP2 SWAP1 POP JUMP JUMPDEST PUSH1 0x0 PUSH2 0xE6F PUSH2 0xE6A DUP5 PUSH2 0x170C JUMP JUMPDEST PUSH2 0x16E7 JUMP JUMPDEST SWAP1 POP DUP3 DUP2 MSTORE PUSH1 0x20 DUP2 ADD DUP5 DUP5 DUP5 ADD GT ISZERO PUSH2 0xE8B JUMPI PUSH2 0xE8A PUSH2 0x19A4 JUMP JUMPDEST JUMPDEST PUSH2 0xE96 DUP5 DUP3 DUP6 PUSH2 0x1873 JUMP JUMPDEST POP SWAP4 SWAP3 POP POP POP JUMP JUMPDEST PUSH1 0x0 DUP2 CALLDATALOAD SWAP1 POP PUSH2 0xEAD DUP2 PUSH2 0x1CDF JUMP JUMPDEST SWAP3 SWAP2 POP POP JUMP JUMPDEST PUSH1 0x0 DUP2 MLOAD SWAP1 POP PUSH2 0xEC2 DUP2 PUSH2 0x1CF6 JUMP JUMPDEST SWAP3 SWAP2 POP POP JUMP JUMPDEST PUSH1 0x0 DUP2 MLOAD SWAP1 POP PUSH2 0xED7 DUP2 PUSH2 0x1D0D JUMP JUMPDEST SWAP3 SWAP2 POP POP JUMP JUMPDEST PUSH1 0x0 DUP1 DUP4 PUSH1 0x1F DUP5 ADD SLT PUSH2 0xEF3 JUMPI PUSH2 0xEF2 PUSH2 0x199A JUMP JUMPDEST JUMPDEST DUP3 CALLDATALOAD SWAP1 POP PUSH8 0xFFFFFFFFFFFFFFFF DUP2 GT ISZERO PUSH2 0xF10 JUMPI PUSH2 0xF0F PUSH2 0x1995 JUMP JUMPDEST JUMPDEST PUSH1 0x20 DUP4 ADD SWAP2 POP DUP4 PUSH1 0x1 DUP3 MUL DUP4 ADD GT ISZERO PUSH2 0xF2C JUMPI PUSH2 0xF2B PUSH2 0x199F JUMP JUMPDEST JUMPDEST SWAP3 POP SWAP3 SWAP1 POP JUMP JUMPDEST PUSH1 0x0 DUP3 PUSH1 0x1F DUP4 ADD SLT PUSH2 0xF48 JUMPI PUSH2 0xF47 PUSH2 0x199A JUMP JUMPDEST JUMPDEST DUP2 CALLDATALOAD PUSH2 0xF58 DUP5 DUP3 PUSH1 0x20 DUP7 ADD PUSH2 0xE5C JUMP JUMPDEST SWAP2 POP POP SWAP3 SWAP2 POP POP JUMP JUMPDEST PUSH1 0x0 DUP2 CALLDATALOAD SWAP1 POP PUSH2 0xF70 DUP2 PUSH2 0x1D24 JUMP JUMPDEST SWAP3 SWAP2 POP POP JUMP JUMPDEST PUSH1 0x0 PUSH1 0x20 DUP3 DUP5 SUB SLT ISZERO PUSH2 0xF8C JUMPI PUSH2 0xF8B PUSH2 0x19AE JUMP JUMPDEST JUMPDEST PUSH1 0x0 PUSH2 0xF9A DUP5 DUP3 DUP6 ADD PUSH2 0xE9E JUMP JUMPDEST SWAP2 POP POP SWAP3 SWAP2 POP POP JUMP JUMPDEST PUSH1 0x0 DUP1 PUSH1 0x0 DUP1 PUSH1 0x0 DUP1 PUSH1 0xA0 DUP8 DUP10 SUB SLT ISZERO PUSH2 0xFC0 JUMPI PUSH2 0xFBF PUSH2 0x19AE JUMP JUMPDEST JUMPDEST PUSH1 0x0 PUSH2 0xFCE DUP10 DUP3 DUP11 ADD PUSH2 0xE9E JUMP JUMPDEST SWAP7 POP POP PUSH1 0x20 PUSH2 0xFDF DUP10 DUP3 DUP11 ADD PUSH2 0xE9E JUMP JUMPDEST SWAP6 POP POP PUSH1 0x40 PUSH2 0xFF0 DUP10 DUP3 DUP11 ADD PUSH2 0xF61 JUMP JUMPDEST SWAP5 POP POP PUSH1 0x60 PUSH2 0x1001 DUP10 DUP3 DUP11 ADD PUSH2 0xF61 JUMP JUMPDEST SWAP4 POP POP PUSH1 0x80 DUP8 ADD CALLDATALOAD PUSH8 0xFFFFFFFFFFFFFFFF DUP2 GT ISZERO PUSH2 0x1022 JUMPI PUSH2 0x1021 PUSH2 0x19A9 JUMP JUMPDEST JUMPDEST PUSH2 0x102E DUP10 DUP3 DUP11 ADD PUSH2 0xEDD JUMP JUMPDEST SWAP3 POP SWAP3 POP POP SWAP3 SWAP6 POP SWAP3 SWAP6 POP SWAP3 SWAP6 JUMP JUMPDEST PUSH1 0x0 DUP1 PUSH1 0x0 DUP1 PUSH1 0x0 PUSH1 0xA0 DUP7 DUP9 SUB SLT ISZERO PUSH2 0x1059 JUMPI PUSH2 0x1058 PUSH2 0x19AE JUMP JUMPDEST JUMPDEST PUSH1 0x0 PUSH2 0x1067 DUP9 DUP3 DUP10 ADD PUSH2 0xE9E JUMP JUMPDEST SWAP6 POP POP PUSH1 0x20 PUSH2 0x1078 DUP9 DUP3 DUP10 ADD PUSH2 0xE9E JUMP JUMPDEST SWAP5 POP POP PUSH1 0x40 PUSH2 0x1089 DUP9 DUP3 DUP10 ADD PUSH2 0xF61 JUMP JUMPDEST SWAP4 POP POP PUSH1 0x60 PUSH2 0x109A DUP9 DUP3 DUP10 ADD PUSH2 0xF61 JUMP JUMPDEST SWAP3 POP POP PUSH1 0x80 DUP7 ADD CALLDATALOAD PUSH8 0xFFFFFFFFFFFFFFFF DUP2 GT ISZERO PUSH2 0x10BB JUMPI PUSH2 0x10BA PUSH2 0x19A9 JUMP JUMPDEST JUMPDEST PUSH2 0x10C7 DUP9 DUP3 DUP10 ADD PUSH2 0xF33 JUMP JUMPDEST SWAP2 POP POP SWAP3 SWAP6 POP SWAP3 SWAP6 SWAP1 SWAP4 POP JUMP JUMPDEST PUSH1 0x0 DUP1 PUSH1 0x40 DUP4 DUP6 SUB SLT ISZERO PUSH2 0x10EB JUMPI PUSH2 0x10EA PUSH2 0x19AE JUMP JUMPDEST JUMPDEST PUSH1 0x0 PUSH2 0x10F9 DUP6 DUP3 DUP7 ADD PUSH2 0xE9E JUMP JUMPDEST SWAP3 POP POP PUSH1 0x20 PUSH2 0x110A DUP6 DUP3 DUP7 ADD PUSH2 0xF61 JUMP JUMPDEST SWAP2 POP POP SWAP3 POP SWAP3 SWAP1 POP JUMP JUMPDEST PUSH1 0x0 PUSH1 0x20 DUP3 DUP5 SUB SLT ISZERO PUSH2 0x112A JUMPI PUSH2 0x1129 PUSH2 0x19AE JUMP JUMPDEST JUMPDEST PUSH1 0x0 PUSH2 0x1138 DUP5 DUP3 DUP6 ADD PUSH2 0xEB3 JUMP JUMPDEST SWAP2 POP POP SWAP3 SWAP2 POP POP JUMP JUMPDEST PUSH1 0x0 PUSH1 0x20 DUP3 DUP5 SUB SLT ISZERO PUSH2 0x1157 JUMPI PUSH2 0x1156 PUSH2 0x19AE JUMP JUMPDEST JUMPDEST PUSH1 0x0 PUSH2 0x1165 DUP5 DUP3 DUP6 ADD PUSH2 0xEC8 JUMP JUMPDEST SWAP2 POP POP SWAP3 SWAP2 POP POP JUMP JUMPDEST PUSH1 0x0 PUSH1 0x20 DUP3 DUP5 SUB SLT ISZERO PUSH2 0x1184 JUMPI PUSH2 0x1183 PUSH2 0x19AE JUMP JUMPDEST JUMPDEST PUSH1 0x0 PUSH2 0x1192 DUP5 DUP3 DUP6 ADD PUSH2 0xF61 JUMP JUMPDEST SWAP2 POP POP SWAP3 SWAP2 POP POP JUMP JUMPDEST PUSH1 0x0 DUP1 PUSH1 0x40 DUP4 DUP6 SUB SLT ISZERO PUSH2 0x11B2 JUMPI PUSH2 0x11B1 PUSH2 0x19AE JUMP JUMPDEST JUMPDEST PUSH1 0x0 PUSH2 0x11C0 DUP6 DUP3 DUP7 ADD PUSH2 0xF61 JUMP JUMPDEST SWAP3 POP POP PUSH1 0x20 PUSH2 0x11D1 DUP6 DUP3 DUP7 ADD PUSH2 0xF61 JUMP JUMPDEST SWAP2 POP POP SWAP3 POP SWAP3 SWAP1 POP JUMP JUMPDEST PUSH1 0x0 DUP1 PUSH1 0x0 DUP1 PUSH1 0x80 DUP6 DUP8 SUB SLT ISZERO PUSH2 0x11F5 JUMPI PUSH2 0x11F4 PUSH2 0x19AE JUMP JUMPDEST JUMPDEST PUSH1 0x0 PUSH2 0x1203 DUP8 DUP3 DUP9 ADD PUSH2 0xF61 JUMP JUMPDEST SWAP5 POP POP PUSH1 0x20 PUSH2 0x1214 DUP8 DUP3 DUP9 ADD PUSH2 0xF61 JUMP JUMPDEST SWAP4 POP POP PUSH1 0x40 PUSH2 0x1225 DUP8 DUP3 DUP9 ADD PUSH2 0xF61 JUMP JUMPDEST SWAP3 POP POP PUSH1 0x60 PUSH2 0x1236 DUP8 DUP3 DUP9 ADD PUSH2 0xE9E JUMP JUMPDEST SWAP2 POP POP SWAP3 SWAP6 SWAP2 SWAP5 POP SWAP3 POP JUMP JUMPDEST PUSH2 0x124B DUP2 PUSH2 0x17FF JUMP JUMPDEST DUP3 MSTORE POP POP JUMP JUMPDEST PUSH2 0x125A DUP2 PUSH2 0x1811 JUMP JUMPDEST DUP3 MSTORE POP POP JUMP JUMPDEST PUSH2 0x1269 DUP2 PUSH2 0x181D JUMP JUMPDEST DUP3 MSTORE POP POP JUMP JUMPDEST PUSH1 0x0 PUSH2 0x127B DUP4 DUP6 PUSH2 0x1753 JUMP JUMPDEST SWAP4 POP PUSH2 0x1288 DUP4 DUP6 DUP5 PUSH2 0x1873 JUMP JUMPDEST PUSH2 0x1291 DUP4 PUSH2 0x19B3 JUMP JUMPDEST DUP5 ADD SWAP1 POP SWAP4 SWAP3 POP POP POP JUMP JUMPDEST PUSH1 0x0 PUSH2 0x12A7 DUP3 PUSH2 0x173D JUMP JUMPDEST PUSH2 0x12B1 DUP2 DUP6 PUSH2 0x1753 JUMP JUMPDEST SWAP4 POP PUSH2 0x12C1 DUP2 DUP6 PUSH1 0x20 DUP7 ADD PUSH2 0x1882 JUMP JUMPDEST PUSH2 0x12CA DUP2 PUSH2 0x19B3 JUMP JUMPDEST DUP5 ADD SWAP2 POP POP SWAP3 SWAP2 POP POP JUMP JUMPDEST PUSH1 0x0 PUSH2 0x12E0 DUP3 PUSH2 0x1748 JUMP JUMPDEST PUSH2 0x12EA DUP2 DUP6 PUSH2 0x1764 JUMP JUMPDEST SWAP4 POP PUSH2 0x12FA DUP2 DUP6 PUSH1 0x20 DUP7 ADD PUSH2 0x1882 JUMP JUMPDEST PUSH2 0x1303 DUP2 PUSH2 0x19B3 JUMP JUMPDEST DUP5 ADD SWAP2 POP POP SWAP3 SWAP2 POP POP JUMP JUMPDEST PUSH1 0x0 PUSH2 0x131B PUSH1 0x34 DUP4 PUSH2 0x1764 JUMP JUMPDEST SWAP2 POP PUSH2 0x1326 DUP3 PUSH2 0x19D1 JUMP JUMPDEST PUSH1 0x40 DUP3 ADD SWAP1 POP SWAP2 SWAP1 POP JUMP JUMPDEST PUSH1 0x0 PUSH2 0x133E PUSH1 0x2F DUP4 PUSH2 0x1764 JUMP JUMPDEST SWAP2 POP PUSH2 0x1349 DUP3 PUSH2 0x1A20 JUMP JUMPDEST PUSH1 0x40 DUP3 ADD SWAP1 POP SWAP2 SWAP1 POP JUMP JUMPDEST PUSH1 0x0 PUSH2 0x1361 PUSH1 0x28 DUP4 PUSH2 0x1764 JUMP JUMPDEST SWAP2 POP PUSH2 0x136C DUP3 PUSH2 0x1A6F JUMP JUMPDEST PUSH1 0x40 DUP3 ADD SWAP1 POP SWAP2 SWAP1 POP JUMP JUMPDEST PUSH1 0x0 PUSH2 0x1384 PUSH1 0x2A DUP4 PUSH2 0x1764 JUMP JUMPDEST SWAP2 POP PUSH2 0x138F DUP3 PUSH2 0x1ABE JUMP JUMPDEST PUSH1 0x40 DUP3 ADD SWAP1 POP SWAP2 SWAP1 POP JUMP JUMPDEST PUSH1 0x0 PUSH2 0x13A7 PUSH1 0x26 DUP4 PUSH2 0x1764 JUMP JUMPDEST SWAP2 POP PUSH2 0x13B2 DUP3 PUSH2 0x1B0D JUMP JUMPDEST PUSH1 0x40 DUP3 ADD SWAP1 POP SWAP2 SWAP1 POP JUMP JUMPDEST PUSH1 0x0 PUSH2 0x13CA PUSH1 0x25 DUP4 PUSH2 0x1764 JUMP JUMPDEST SWAP2 POP PUSH2 0x13D5 DUP3 PUSH2 0x1B5C JUMP JUMPDEST PUSH1 0x40 DUP3 ADD SWAP1 POP SWAP2 SWAP1 POP JUMP JUMPDEST PUSH1 0x0 PUSH2 0x13ED PUSH1 0x2A DUP4 PUSH2 0x1764 JUMP JUMPDEST SWAP2 POP PUSH2 0x13F8 DUP3 PUSH2 0x1BAB JUMP JUMPDEST PUSH1 0x40 DUP3 ADD SWAP1 POP SWAP2 SWAP1 POP JUMP JUMPDEST PUSH1 0x0 PUSH2 0x1410 PUSH1 0x21 DUP4 PUSH2 0x1764 JUMP JUMPDEST SWAP2 POP PUSH2 0x141B DUP3 PUSH2 0x1BFA JUMP JUMPDEST PUSH1 0x40 DUP3 ADD SWAP1 POP SWAP2 SWAP1 POP JUMP JUMPDEST PUSH2 0x142F DUP2 PUSH2 0x1869 JUMP JUMPDEST DUP3 MSTORE POP POP JUMP JUMPDEST PUSH1 0x0 PUSH1 0x20 DUP3 ADD SWAP1 POP PUSH2 0x144A PUSH1 0x0 DUP4 ADD DUP5 PUSH2 0x1242 JUMP JUMPDEST SWAP3 SWAP2 POP POP JUMP JUMPDEST PUSH1 0x0 PUSH1 0x60 DUP3 ADD SWAP1 POP PUSH2 0x1465 PUSH1 0x0 DUP4 ADD DUP7 PUSH2 0x1242 JUMP JUMPDEST PUSH2 0x1472 PUSH1 0x20 DUP4 ADD DUP6 PUSH2 0x1242 JUMP JUMPDEST PUSH2 0x147F PUSH1 0x40 DUP4 ADD DUP5 PUSH2 0x1426 JUMP JUMPDEST SWAP5 SWAP4 POP POP POP POP JUMP JUMPDEST PUSH1 0x0 PUSH1 0xC0 DUP3 ADD SWAP1 POP PUSH2 0x149C PUSH1 0x0 DUP4 ADD DUP11 PUSH2 0x1242 JUMP JUMPDEST PUSH2 0x14A9 PUSH1 0x20 DUP4 ADD DUP10 PUSH2 0x1242 JUMP JUMPDEST PUSH2 0x14B6 PUSH1 0x40 DUP4 ADD DUP9 PUSH2 0x1426 JUMP JUMPDEST PUSH2 0x14C3 PUSH1 0x60 DUP4 ADD DUP8 PUSH2 0x1426 JUMP JUMPDEST DUP2 DUP2 SUB PUSH1 0x80 DUP4 ADD MSTORE PUSH2 0x14D6 DUP2 DUP6 DUP8 PUSH2 0x126F JUMP JUMPDEST SWAP1 POP PUSH2 0x14E5 PUSH1 0xA0 DUP4 ADD DUP5 PUSH2 0x1426 JUMP JUMPDEST SWAP9 SWAP8 POP POP POP POP POP POP POP POP JUMP JUMPDEST PUSH1 0x0 PUSH1 0xA0 DUP3 ADD SWAP1 POP PUSH2 0x1506 PUSH1 0x0 DUP4 ADD DUP9 PUSH2 0x1242 JUMP JUMPDEST PUSH2 0x1513 PUSH1 0x20 DUP4 ADD DUP8 PUSH2 0x1242 JUMP JUMPDEST PUSH2 0x1520 PUSH1 0x40 DUP4 ADD DUP7 PUSH2 0x1426 JUMP JUMPDEST PUSH2 0x152D PUSH1 0x60 DUP4 ADD DUP6 PUSH2 0x1426 JUMP JUMPDEST DUP2 DUP2 SUB PUSH1 0x80 DUP4 ADD MSTORE PUSH2 0x153F DUP2 DUP5 PUSH2 0x129C JUMP JUMPDEST SWAP1 POP SWAP7 SWAP6 POP POP POP POP POP POP JUMP JUMPDEST PUSH1 0x0 PUSH1 0x20 DUP3 ADD SWAP1 POP PUSH2 0x1560 PUSH1 0x0 DUP4 ADD DUP5 PUSH2 0x1251 JUMP JUMPDEST SWAP3 SWAP2 POP POP JUMP JUMPDEST PUSH1 0x0 PUSH1 0x20 DUP3 ADD SWAP1 POP PUSH2 0x157B PUSH1 0x0 DUP4 ADD DUP5 PUSH2 0x1260 JUMP JUMPDEST SWAP3 SWAP2 POP POP JUMP JUMPDEST PUSH1 0x0 PUSH1 0x20 DUP3 ADD SWAP1 POP DUP2 DUP2 SUB PUSH1 0x0 DUP4 ADD MSTORE PUSH2 0x159B DUP2 DUP5 PUSH2 0x12D5 JUMP JUMPDEST SWAP1 POP SWAP3 SWAP2 POP POP JUMP JUMPDEST PUSH1 0x0 PUSH1 0x20 DUP3 ADD SWAP1 POP DUP2 DUP2 SUB PUSH1 0x0 DUP4 ADD MSTORE PUSH2 0x15BC DUP2 PUSH2 0x130E JUMP JUMPDEST SWAP1 POP SWAP2 SWAP1 POP JUMP JUMPDEST PUSH1 0x0 PUSH1 0x20 DUP3 ADD SWAP1 POP DUP2 DUP2 SUB PUSH1 0x0 DUP4 ADD MSTORE PUSH2 0x15DC DUP2 PUSH2 0x1331 JUMP JUMPDEST SWAP1 POP SWAP2 SWAP1 POP JUMP JUMPDEST PUSH1 0x0 PUSH1 0x20 DUP3 ADD SWAP1 POP DUP2 DUP2 SUB PUSH1 0x0 DUP4 ADD MSTORE PUSH2 0x15FC DUP2 PUSH2 0x1354 JUMP JUMPDEST SWAP1 POP SWAP2 SWAP1 POP JUMP JUMPDEST PUSH1 0x0 PUSH1 0x20 DUP3 ADD SWAP1 POP DUP2 DUP2 SUB PUSH1 0x0 DUP4 ADD MSTORE PUSH2 0x161C DUP2 PUSH2 0x1377 JUMP JUMPDEST SWAP1 POP SWAP2 SWAP1 POP JUMP JUMPDEST PUSH1 0x0 PUSH1 0x20 DUP3 ADD SWAP1 POP DUP2 DUP2 SUB PUSH1 0x0 DUP4 ADD MSTORE PUSH2 0x163C DUP2 PUSH2 0x139A JUMP JUMPDEST SWAP1 POP SWAP2 SWAP1 POP JUMP JUMPDEST PUSH1 0x0 PUSH1 0x20 DUP3 ADD SWAP1 POP DUP2 DUP2 SUB PUSH1 0x0 DUP4 ADD MSTORE PUSH2 0x165C DUP2 PUSH2 0x13BD JUMP JUMPDEST SWAP1 POP SWAP2 SWAP1 POP JUMP JUMPDEST PUSH1 0x0 PUSH1 0x20 DUP3 ADD SWAP1 POP DUP2 DUP2 SUB PUSH1 0x0 DUP4 ADD MSTORE PUSH2 0x167C DUP2 PUSH2 0x13E0 JUMP JUMPDEST SWAP1 POP SWAP2 SWAP1 POP JUMP JUMPDEST PUSH1 0x0 PUSH1 0x20 DUP3 ADD SWAP1 POP DUP2 DUP2 SUB PUSH1 0x0 DUP4 ADD MSTORE PUSH2 0x169C DUP2 PUSH2 0x1403 JUMP JUMPDEST SWAP1 POP SWAP2 SWAP1 POP JUMP JUMPDEST PUSH1 0x0 PUSH1 0x20 DUP3 ADD SWAP1 POP PUSH2 0x16B8 PUSH1 0x0 DUP4 ADD DUP5 PUSH2 0x1426 JUMP JUMPDEST SWAP3 SWAP2 POP POP JUMP JUMPDEST PUSH1 0x0 PUSH1 0x40 DUP3 ADD SWAP1 POP PUSH2 0x16D3 PUSH1 0x0 DUP4 ADD DUP6 PUSH2 0x1426 JUMP JUMPDEST PUSH2 0x16E0 PUSH1 0x20 DUP4 ADD DUP5 PUSH2 0x1426 JUMP JUMPDEST SWAP4 SWAP3 POP POP POP JUMP JUMPDEST PUSH1 0x0 PUSH2 0x16F1 PUSH2 0x1702 JUMP JUMPDEST SWAP1 POP PUSH2 0x16FD DUP3 DUP3 PUSH2 0x18B5 JUMP JUMPDEST SWAP2 SWAP1 POP JUMP JUMPDEST PUSH1 0x0 PUSH1 0x40 MLOAD SWAP1 POP SWAP1 JUMP JUMPDEST PUSH1 0x0 PUSH8 0xFFFFFFFFFFFFFFFF DUP3 GT ISZERO PUSH2 0x1727 JUMPI PUSH2 0x1726 PUSH2 0x1944 JUMP JUMPDEST JUMPDEST PUSH2 0x1730 DUP3 PUSH2 0x19B3 JUMP JUMPDEST SWAP1 POP PUSH1 0x20 DUP2 ADD SWAP1 POP SWAP2 SWAP1 POP JUMP JUMPDEST PUSH1 0x0 DUP2 MLOAD SWAP1 POP SWAP2 SWAP1 POP JUMP JUMPDEST PUSH1 0x0 DUP2 MLOAD SWAP1 POP SWAP2 SWAP1 POP JUMP JUMPDEST PUSH1 0x0 DUP3 DUP3 MSTORE PUSH1 0x20 DUP3 ADD SWAP1 POP SWAP3 SWAP2 POP POP JUMP JUMPDEST PUSH1 0x0 DUP3 DUP3 MSTORE PUSH1 0x20 DUP3 ADD SWAP1 POP SWAP3 SWAP2 POP POP JUMP JUMPDEST PUSH1 0x0 PUSH2 0x1780 DUP3 PUSH2 0x1869 JUMP JUMPDEST SWAP2 POP PUSH2 0x178B DUP4 PUSH2 0x1869 JUMP JUMPDEST SWAP3 POP DUP3 PUSH32 0xFFFFFFFFFFFFFFFFFFFFFFFFFFFFFFFFFFFFFFFFFFFFFFFFFFFFFFFFFFFFFFFF SUB DUP3 GT ISZERO PUSH2 0x17C0 JUMPI PUSH2 0x17BF PUSH2 0x18E6 JUMP JUMPDEST JUMPDEST DUP3 DUP3 ADD SWAP1 POP SWAP3 SWAP2 POP POP JUMP JUMPDEST PUSH1 0x0 PUSH2 0x17D6 DUP3 PUSH2 0x1869 JUMP JUMPDEST SWAP2 POP PUSH2 0x17E1 DUP4 PUSH2 0x1869 JUMP JUMPDEST SWAP3 POP DUP3 DUP3 LT ISZERO PUSH2 0x17F4 JUMPI PUSH2 0x17F3 PUSH2 0x18E6 JUMP JUMPDEST JUMPDEST DUP3 DUP3 SUB SWAP1 POP SWAP3 SWAP2 POP POP JUMP JUMPDEST PUSH1 0x0 PUSH2 0x180A DUP3 PUSH2 0x1849 JUMP JUMPDEST SWAP1 POP SWAP2 SWAP1 POP JUMP JUMPDEST PUSH1 0x0 DUP2 ISZERO ISZERO SWAP1 POP SWAP2 SWAP1 POP JUMP JUMPDEST PUSH1 0x0 PUSH32 0xFFFFFFFF00000000000000000000000000000000000000000000000000000000 DUP3 AND SWAP1 POP SWAP2 SWAP1 POP JUMP JUMPDEST PUSH1 0x0 PUSH20 0xFFFFFFFFFFFFFFFFFFFFFFFFFFFFFFFFFFFFFFFF DUP3 AND SWAP1 POP SWAP2 SWAP1 POP JUMP JUMPDEST PUSH1 0x0 DUP2 SWAP1 POP SWAP2 SWAP1 POP JUMP JUMPDEST DUP3 DUP2 DUP4 CALLDATACOPY PUSH1 0x0 DUP4 DUP4 ADD MSTORE POP POP POP JUMP JUMPDEST PUSH1 0x0 JUMPDEST DUP4 DUP2 LT ISZERO PUSH2 0x18A0 JUMPI DUP1 DUP3 ADD MLOAD DUP2 DUP5 ADD MSTORE PUSH1 0x20 DUP2 ADD SWAP1 POP PUSH2 0x1885 JUMP JUMPDEST DUP4 DUP2 GT ISZERO PUSH2 0x18AF JUMPI PUSH1 0x0 DUP5 DUP5 ADD MSTORE JUMPDEST POP POP POP POP JUMP JUMPDEST PUSH2 0x18BE DUP3 PUSH2 0x19B3 JUMP JUMPDEST DUP2 ADD DUP2 DUP2 LT PUSH8 0xFFFFFFFFFFFFFFFF DUP3 GT OR ISZERO PUSH2 0x18DD JUMPI PUSH2 0x18DC PUSH2 0x1944 JUMP JUMPDEST JUMPDEST DUP1 PUSH1 0x40 MSTORE POP POP POP JUMP JUMPDEST PUSH32 0x4E487B7100000000000000000000000000000000000000000000000000000000 PUSH1 0x0 MSTORE PUSH1 0x11 PUSH1 0x4 MSTORE PUSH1 0x24 PUSH1 0x0 REVERT JUMPDEST PUSH32 0x4E487B7100000000000000000000000000000000000000000000000000000000 PUSH1 0x0 MSTORE PUSH1 0x32 PUSH1 0x4 MSTORE PUSH1 0x24 PUSH1 0x0 REVERT JUMPDEST PUSH32 0x4E487B7100000000000000000000000000000000000000000000000000000000 PUSH1 0x0 MSTORE PUSH1 0x41 PUSH1 0x4 MSTORE PUSH1 0x24 PUSH1 0x0 REVERT JUMPDEST PUSH1 0x0 PUSH1 0x3 RETURNDATASIZE GT ISZERO PUSH2 0x1992 JUMPI PUSH1 0x4 PUSH1 0x0 DUP1 RETURNDATACOPY PUSH2 0x198F PUSH1 0x0 MLOAD PUSH2 0x19C4 JUMP JUMPDEST SWAP1 POP JUMPDEST SWAP1 JUMP JUMPDEST PUSH1 0x0 DUP1 REVERT JUMPDEST PUSH1 0x0 DUP1 REVERT JUMPDEST PUSH1 0x0 DUP1 REVERT JUMPDEST PUSH1 0x0 DUP1 REVERT JUMPDEST PUSH1 0x0 DUP1 REVERT JUMPDEST PUSH1 0x0 DUP1 REVERT JUMPDEST PUSH1 0x0 PUSH1 0x1F NOT PUSH1 0x1F DUP4 ADD AND SWAP1 POP SWAP2 SWAP1 POP JUMP JUMPDEST PUSH1 0x0 DUP2 PUSH1 0xE0 SHR SWAP1 POP SWAP2 SWAP1 POP JUMP JUMPDEST PUSH32 0x455243313135353A207472616E7366657220746F206E6F6E2045524331313535 PUSH1 0x0 DUP3 ADD MSTORE PUSH32 0x526563656976657220696D706C656D656E746572000000000000000000000000 PUSH1 0x20 DUP3 ADD MSTORE POP JUMP JUMPDEST PUSH32 0x455243313135353A2063616C6C6572206973206E6F7420746F6B656E206F776E PUSH1 0x0 DUP3 ADD MSTORE PUSH32 0x6572206E6F7220617070726F7665640000000000000000000000000000000000 PUSH1 0x20 DUP3 ADD MSTORE POP JUMP JUMPDEST PUSH32 0x455243313135353A204552433131353552656365697665722072656A65637465 PUSH1 0x0 DUP3 ADD MSTORE PUSH32 0x6420746F6B656E73000000000000000000000000000000000000000000000000 PUSH1 0x20 DUP3 ADD MSTORE POP JUMP JUMPDEST PUSH32 0x455243313135353A2061646472657373207A65726F206973206E6F7420612076 PUSH1 0x0 DUP3 ADD MSTORE PUSH32 0x616C6964206F776E657200000000000000000000000000000000000000000000 PUSH1 0x20 DUP3 ADD MSTORE POP JUMP JUMPDEST PUSH32 0x746869732046756E6374696F6E206973206F6E6C792063616C6C656420627920 PUSH1 0x0 DUP3 ADD MSTORE PUSH32 0x7365727665720000000000000000000000000000000000000000000000000000 PUSH1 0x20 DUP3 ADD MSTORE POP JUMP JUMPDEST PUSH32 0x455243313135353A207472616E7366657220746F20746865207A65726F206164 PUSH1 0x0 DUP3 ADD MSTORE PUSH32 0x6472657373000000000000000000000000000000000000000000000000000000 PUSH1 0x20 DUP3 ADD MSTORE POP JUMP JUMPDEST PUSH32 0x455243313135353A20696E73756666696369656E742062616C616E636520666F PUSH1 0x0 DUP3 ADD MSTORE PUSH32 0x72207472616E7366657200000000000000000000000000000000000000000000 PUSH1 0x20 DUP3 ADD MSTORE POP JUMP JUMPDEST PUSH32 0x455243313135353A206D696E7420746F20746865207A65726F20616464726573 PUSH1 0x0 DUP3 ADD MSTORE PUSH32 0x7300000000000000000000000000000000000000000000000000000000000000 PUSH1 0x20 DUP3 ADD MSTORE POP JUMP JUMPDEST PUSH1 0x0 PUSH1 0x44 RETURNDATASIZE LT ISZERO PUSH2 0x1C59 JUMPI PUSH2 0x1CDC JUMP JUMPDEST PUSH2 0x1C61 PUSH2 0x1702 JUMP JUMPDEST PUSH1 0x4 RETURNDATASIZE SUB PUSH1 0x4 DUP3 RETURNDATACOPY DUP1 MLOAD RETURNDATASIZE PUSH1 0x24 DUP3 ADD GT PUSH8 0xFFFFFFFFFFFFFFFF DUP3 GT OR ISZERO PUSH2 0x1C89 JUMPI POP POP PUSH2 0x1CDC JUMP JUMPDEST DUP1 DUP3 ADD DUP1 MLOAD PUSH8 0xFFFFFFFFFFFFFFFF DUP2 GT ISZERO PUSH2 0x1CA7 JUMPI POP POP POP POP PUSH2 0x1CDC JUMP JUMPDEST DUP1 PUSH1 0x20 DUP4 ADD ADD PUSH1 0x4 RETURNDATASIZE SUB DUP6 ADD DUP2 GT ISZERO PUSH2 0x1CC4 JUMPI POP POP POP POP POP PUSH2 0x1CDC JUMP JUMPDEST PUSH2 0x1CD3 DUP3 PUSH1 0x20 ADD DUP6 ADD DUP7 PUSH2 0x18B5 JUMP JUMPDEST DUP3 SWAP6 POP POP POP POP POP POP JUMPDEST SWAP1 JUMP JUMPDEST PUSH2 0x1CE8 DUP2 PUSH2 0x17FF JUMP JUMPDEST DUP2 EQ PUSH2 0x1CF3 JUMPI PUSH1 0x0 DUP1 REVERT JUMPDEST POP JUMP JUMPDEST PUSH2 0x1CFF DUP2 PUSH2 0x1811 JUMP JUMPDEST DUP2 EQ PUSH2 0x1D0A JUMPI PUSH1 0x0 DUP1 REVERT JUMPDEST POP JUMP JUMPDEST PUSH2 0x1D16 DUP2 PUSH2 0x181D JUMP JUMPDEST DUP2 EQ PUSH2 0x1D21 JUMPI PUSH1 0x0 DUP1 REVERT JUMPDEST POP JUMP JUMPDEST PUSH2 0x1D2D DUP2 PUSH2 0x1869 JUMP JUMPDEST DUP2 EQ PUSH2 0x1D38 JUMPI PUSH1 0x0 DUP1 REVERT JUMPDEST POP JUMP INVALID LOG2 PUSH5 0x6970667358 0x22 SLT KECCAK256 0xEE 0xC8 BALANCE 0xCF 0xD7 MOD 0xC PUSH24 0x3A22B799DEEE46814B4B672216E164C14E23A01CFD44172B PUSH5 0x736F6C6343 STOP ADDMOD SMOD STOP CALLER "
				},
				"gasEstimates": {
					"creation": {
						"codeDepositCost": "1507400",
						"executionCost": "25841",
						"totalCost": "1533241"
					},
					"external": {
						"CouponMint(uint256,uint256)": "infinite",
						"amount(uint256)": "infinite",
						"balanceOf(address,uint256)": "infinite",
						"buyCoupon(uint256,uint256,uint256,address)": "infinite",
						"onERC1155Received(address,address,uint256,uint256,bytes)": "infinite",
						"safeTransferFrom(address,address,uint256,uint256,bytes)": "infinite",
						"serverAddr()": "2544",
						"setServerAddr(address)": "infinite"
					},
					"internal": {
						"_reduceAmount(uint256,uint256)": "infinite"
					}
				},
				"methodIdentifiers": {
					"CouponMint(uint256,uint256)": "57e87575",
					"amount(uint256)": "8b0d0258",
					"balanceOf(address,uint256)": "00fdd58e",
					"buyCoupon(uint256,uint256,uint256,address)": "242fd022",
					"onERC1155Received(address,address,uint256,uint256,bytes)": "f23a6e61",
					"safeTransferFrom(address,address,uint256,uint256,bytes)": "f242432a",
					"serverAddr()": "e9207304",
					"setServerAddr(address)": "9bb7e310"
				}
			},
			"storageLayout": {
				"storage": [
					{
						"astId": 58,
						"contract": "contracts/Coupon.sol:CouponMarket",
						"label": "_balances",
						"offset": 0,
						"slot": "0",
						"type": "t_mapping(t_uint256,t_mapping(t_address,t_uint256))"
					},
					{
						"astId": 64,
						"contract": "contracts/Coupon.sol:CouponMarket",
						"label": "_operatorApprovals",
						"offset": 0,
						"slot": "1",
						"type": "t_mapping(t_address,t_mapping(t_address,t_bool))"
					},
					{
						"astId": 670,
						"contract": "contracts/Coupon.sol:CouponMarket",
						"label": "_serverAddr",
						"offset": 0,
						"slot": "2",
						"type": "t_address"
					},
					{
						"astId": 674,
						"contract": "contracts/Coupon.sol:CouponMarket",
						"label": "_amount",
						"offset": 0,
						"slot": "3",
						"type": "t_mapping(t_uint256,t_uint256)"
					}
				],
				"types": {
					"t_address": {
						"encoding": "inplace",
						"label": "address",
						"numberOfBytes": "20"
					},
					"t_bool": {
						"encoding": "inplace",
						"label": "bool",
						"numberOfBytes": "1"
					},
					"t_mapping(t_address,t_bool)": {
						"encoding": "mapping",
						"key": "t_address",
						"label": "mapping(address => bool)",
						"numberOfBytes": "32",
						"value": "t_bool"
					},
					"t_mapping(t_address,t_mapping(t_address,t_bool))": {
						"encoding": "mapping",
						"key": "t_address",
						"label": "mapping(address => mapping(address => bool))",
						"numberOfBytes": "32",
						"value": "t_mapping(t_address,t_bool)"
					},
					"t_mapping(t_address,t_uint256)": {
						"encoding": "mapping",
						"key": "t_address",
						"label": "mapping(address => uint256)",
						"numberOfBytes": "32",
						"value": "t_uint256"
					},
					"t_mapping(t_uint256,t_mapping(t_address,t_uint256))": {
						"encoding": "mapping",
						"key": "t_uint256",
						"label": "mapping(uint256 => mapping(address => uint256))",
						"numberOfBytes": "32",
						"value": "t_mapping(t_address,t_uint256)"
					},
					"t_mapping(t_uint256,t_uint256)": {
						"encoding": "mapping",
						"key": "t_uint256",
						"label": "mapping(uint256 => uint256)",
						"numberOfBytes": "32",
						"value": "t_uint256"
					},
					"t_uint256": {
						"encoding": "inplace",
						"label": "uint256",
						"numberOfBytes": "32"
					}
				}
			},
			"userdoc": {
				"kind": "user",
				"methods": {},
				"version": 1
			}
		}
	}
}