{
	"contracts/Coupon.sol": {
		"ERC1155": {
			"abi": [
				{
					"anonymous": false,
					"inputs": [
						{
							"indexed": true,
							"internalType": "address",
							"name": "operator",
							"type": "address"
						},
						{
							"indexed": true,
							"internalType": "address",
							"name": "from",
							"type": "address"
						},
						{
							"indexed": true,
							"internalType": "address",
							"name": "to",
							"type": "address"
						},
						{
							"indexed": false,
							"internalType": "uint256",
							"name": "id",
							"type": "uint256"
						},
						{
							"indexed": false,
							"internalType": "uint256",
							"name": "value",
							"type": "uint256"
						}
					],
					"name": "TransferSingle",
					"type": "event"
				},
				{
					"inputs": [
						{
							"internalType": "address",
							"name": "account",
							"type": "address"
						},
						{
							"internalType": "uint256",
							"name": "id",
							"type": "uint256"
						}
					],
					"name": "balanceOf",
					"outputs": [
						{
							"internalType": "uint256",
							"name": "",
							"type": "uint256"
						}
					],
					"stateMutability": "view",
					"type": "function"
				},
				{
					"inputs": [
						{
							"internalType": "address",
							"name": "from",
							"type": "address"
						},
						{
							"internalType": "address",
							"name": "to",
							"type": "address"
						},
						{
							"internalType": "uint256",
							"name": "id",
							"type": "uint256"
						},
						{
							"internalType": "uint256",
							"name": "amount",
							"type": "uint256"
						},
						{
							"internalType": "bytes",
							"name": "data",
							"type": "bytes"
						}
					],
					"name": "safeTransferFrom",
					"outputs": [],
					"stateMutability": "nonpayable",
					"type": "function"
				}
			],
			"devdoc": {
				"kind": "dev",
				"methods": {
					"balanceOf(address,uint256)": {
						"details": "See {IERC1155-balanceOf}. Requirements: - `account` cannot be the zero address."
					},
					"safeTransferFrom(address,address,uint256,uint256,bytes)": {
						"details": "See {IERC1155-safeTransferFrom}."
					}
				},
				"version": 1
			},
			"evm": {
				"assembly": "    /* \"contracts/Coupon.sol\":2767:11559  contract ERC1155 {... */\n  mstore(0x40, 0x80)\n  callvalue\n  dup1\n  iszero\n  tag_1\n  jumpi\n  0x00\n  dup1\n  revert\ntag_1:\n  pop\n  dataSize(sub_0)\n  dup1\n  dataOffset(sub_0)\n  0x00\n  codecopy\n  0x00\n  return\nstop\n\nsub_0: assembly {\n        /* \"contracts/Coupon.sol\":2767:11559  contract ERC1155 {... */\n      mstore(0x40, 0x80)\n      callvalue\n      dup1\n      iszero\n      tag_1\n      jumpi\n      0x00\n      dup1\n      revert\n    tag_1:\n      pop\n      jumpi(tag_2, lt(calldatasize, 0x04))\n      shr(0xe0, calldataload(0x00))\n      dup1\n      0xfdd58e\n      eq\n      tag_3\n      jumpi\n      dup1\n      0xf242432a\n      eq\n      tag_4\n      jumpi\n    tag_2:\n      0x00\n      dup1\n      revert\n        /* \"contracts/Coupon.sol\":3761:4049  function balanceOf(address account, uint256 id)... */\n    tag_3:\n      tag_5\n      0x04\n      dup1\n      calldatasize\n      sub\n      dup2\n      add\n      swap1\n      tag_6\n      swap2\n      swap1\n      tag_7\n      jump\t// in\n    tag_6:\n      tag_8\n      jump\t// in\n    tag_5:\n      mload(0x40)\n      tag_9\n      swap2\n      swap1\n      tag_10\n      jump\t// in\n    tag_9:\n      mload(0x40)\n      dup1\n      swap2\n      sub\n      swap1\n      return\n        /* \"contracts/Coupon.sol\":4116:4491  function safeTransferFrom(... */\n    tag_4:\n      tag_11\n      0x04\n      dup1\n      calldatasize\n      sub\n      dup2\n      add\n      swap1\n      tag_12\n      swap2\n      swap1\n      tag_13\n      jump\t// in\n    tag_12:\n      tag_14\n      jump\t// in\n    tag_11:\n      stop\n        /* \"contracts/Coupon.sol\":3761:4049  function balanceOf(address account, uint256 id)... */\n    tag_8:\n        /* \"contracts/Coupon.sol\":3870:3877  uint256 */\n      0x00\n        /* \"contracts/Coupon.sol\":3933:3934  0 */\n      dup1\n        /* \"contracts/Coupon.sol\":3914:3935  account != address(0) */\n      0xffffffffffffffffffffffffffffffffffffffff\n      and\n        /* \"contracts/Coupon.sol\":3914:3921  account */\n      dup4\n        /* \"contracts/Coupon.sol\":3914:3935  account != address(0) */\n      0xffffffffffffffffffffffffffffffffffffffff\n      and\n      eq\n      iszero\n        /* \"contracts/Coupon.sol\":3893:4003  require(... */\n      tag_16\n      jumpi\n      mload(0x40)\n      0x08c379a000000000000000000000000000000000000000000000000000000000\n      dup2\n      mstore\n      0x04\n      add\n      tag_17\n      swap1\n      tag_18\n      jump\t// in\n    tag_17:\n      mload(0x40)\n      dup1\n      swap2\n      sub\n      swap1\n      revert\n    tag_16:\n        /* \"contracts/Coupon.sol\":4020:4029  _balances */\n      0x00\n        /* \"contracts/Coupon.sol\":4020:4033  _balances[id] */\n      dup1\n        /* \"contracts/Coupon.sol\":4030:4032  id */\n      dup4\n        /* \"contracts/Coupon.sol\":4020:4033  _balances[id] */\n      dup2\n      mstore\n      0x20\n      add\n      swap1\n      dup2\n      mstore\n      0x20\n      add\n      0x00\n      keccak256\n        /* \"contracts/Coupon.sol\":4020:4042  _balances[id][account] */\n      0x00\n        /* \"contracts/Coupon.sol\":4034:4041  account */\n      dup5\n        /* \"contracts/Coupon.sol\":4020:4042  _balances[id][account] */\n      0xffffffffffffffffffffffffffffffffffffffff\n      and\n      0xffffffffffffffffffffffffffffffffffffffff\n      and\n      dup2\n      mstore\n      0x20\n      add\n      swap1\n      dup2\n      mstore\n      0x20\n      add\n      0x00\n      keccak256\n      sload\n        /* \"contracts/Coupon.sol\":4013:4042  return _balances[id][account] */\n      swap1\n      pop\n        /* \"contracts/Coupon.sol\":3761:4049  function balanceOf(address account, uint256 id)... */\n      swap3\n      swap2\n      pop\n      pop\n      jump\t// out\n        /* \"contracts/Coupon.sol\":4116:4491  function safeTransferFrom(... */\n    tag_14:\n        /* \"contracts/Coupon.sol\":4316:4328  _msgSender() */\n      tag_20\n        /* \"contracts/Coupon.sol\":4316:4326  _msgSender */\n      tag_21\n        /* \"contracts/Coupon.sol\":4316:4328  _msgSender() */\n      jump\t// in\n    tag_20:\n        /* \"contracts/Coupon.sol\":4308:4328  from == _msgSender() */\n      0xffffffffffffffffffffffffffffffffffffffff\n      and\n        /* \"contracts/Coupon.sol\":4308:4312  from */\n      dup6\n        /* \"contracts/Coupon.sol\":4308:4328  from == _msgSender() */\n      0xffffffffffffffffffffffffffffffffffffffff\n      and\n      eq\n        /* \"contracts/Coupon.sol\":4307:4356  (from == _msgSender()) || (from == address(this)) */\n      dup1\n      tag_22\n      jumpi\n      pop\n        /* \"contracts/Coupon.sol\":4350:4354  this */\n      address\n        /* \"contracts/Coupon.sol\":4334:4355  from == address(this) */\n      0xffffffffffffffffffffffffffffffffffffffff\n      and\n        /* \"contracts/Coupon.sol\":4334:4338  from */\n      dup6\n        /* \"contracts/Coupon.sol\":4334:4355  from == address(this) */\n      0xffffffffffffffffffffffffffffffffffffffff\n      and\n      eq\n        /* \"contracts/Coupon.sol\":4307:4356  (from == _msgSender()) || (from == address(this)) */\n    tag_22:\n        /* \"contracts/Coupon.sol\":4286:4429  require(... */\n      tag_23\n      jumpi\n      mload(0x40)\n      0x08c379a000000000000000000000000000000000000000000000000000000000\n      dup2\n      mstore\n      0x04\n      add\n      tag_24\n      swap1\n      tag_25\n      jump\t// in\n    tag_24:\n      mload(0x40)\n      dup1\n      swap2\n      sub\n      swap1\n      revert\n    tag_23:\n        /* \"contracts/Coupon.sol\":4439:4484  _safeTransferFrom(from, to, id, amount, data) */\n      tag_26\n        /* \"contracts/Coupon.sol\":4457:4461  from */\n      dup6\n        /* \"contracts/Coupon.sol\":4463:4465  to */\n      dup6\n        /* \"contracts/Coupon.sol\":4467:4469  id */\n      dup6\n        /* \"contracts/Coupon.sol\":4471:4477  amount */\n      dup6\n        /* \"contracts/Coupon.sol\":4479:4483  data */\n      dup6\n        /* \"contracts/Coupon.sol\":4439:4456  _safeTransferFrom */\n      tag_27\n        /* \"contracts/Coupon.sol\":4439:4484  _safeTransferFrom(from, to, id, amount, data) */\n      jump\t// in\n    tag_26:\n        /* \"contracts/Coupon.sol\":4116:4491  function safeTransferFrom(... */\n      pop\n      pop\n      pop\n      pop\n      pop\n      jump\t// out\n        /* \"contracts/Coupon.sol\":3532:3619  function _msgSender() private view returns (address) {... */\n    tag_21:\n        /* \"contracts/Coupon.sol\":3576:3583  address */\n      0x00\n        /* \"contracts/Coupon.sol\":3602:3612  msg.sender */\n      caller\n        /* \"contracts/Coupon.sol\":3595:3612  return msg.sender */\n      swap1\n      pop\n        /* \"contracts/Coupon.sol\":3532:3619  function _msgSender() private view returns (address) {... */\n      swap1\n      jump\t// out\n        /* \"contracts/Coupon.sol\":4941:5922  function _safeTransferFrom(... */\n    tag_27:\n        /* \"contracts/Coupon.sol\":5136:5137  0 */\n      0x00\n        /* \"contracts/Coupon.sol\":5122:5138  to != address(0) */\n      0xffffffffffffffffffffffffffffffffffffffff\n      and\n        /* \"contracts/Coupon.sol\":5122:5124  to */\n      dup5\n        /* \"contracts/Coupon.sol\":5122:5138  to != address(0) */\n      0xffffffffffffffffffffffffffffffffffffffff\n      and\n      eq\n      iszero\n        /* \"contracts/Coupon.sol\":5114:5180  require(to != address(0), \"ERC1155: transfer to the zero address\") */\n      tag_30\n      jumpi\n      mload(0x40)\n      0x08c379a000000000000000000000000000000000000000000000000000000000\n      dup2\n      mstore\n      0x04\n      add\n      tag_31\n      swap1\n      tag_32\n      jump\t// in\n    tag_31:\n      mload(0x40)\n      dup1\n      swap2\n      sub\n      swap1\n      revert\n    tag_30:\n        /* \"contracts/Coupon.sol\":5191:5207  address operator */\n      0x00\n        /* \"contracts/Coupon.sol\":5210:5222  _msgSender() */\n      tag_33\n        /* \"contracts/Coupon.sol\":5210:5220  _msgSender */\n      tag_21\n        /* \"contracts/Coupon.sol\":5210:5222  _msgSender() */\n      jump\t// in\n    tag_33:\n        /* \"contracts/Coupon.sol\":5191:5222  address operator = _msgSender() */\n      swap1\n      pop\n        /* \"contracts/Coupon.sol\":5232:5252  uint256[] memory ids */\n      0x00\n        /* \"contracts/Coupon.sol\":5255:5276  _asSingletonArray(id) */\n      tag_34\n        /* \"contracts/Coupon.sol\":5273:5275  id */\n      dup6\n        /* \"contracts/Coupon.sol\":5255:5272  _asSingletonArray */\n      tag_35\n        /* \"contracts/Coupon.sol\":5255:5276  _asSingletonArray(id) */\n      jump\t// in\n    tag_34:\n        /* \"contracts/Coupon.sol\":5232:5276  uint256[] memory ids = _asSingletonArray(id) */\n      swap1\n      pop\n        /* \"contracts/Coupon.sol\":5286:5310  uint256[] memory amounts */\n      0x00\n        /* \"contracts/Coupon.sol\":5313:5338  _asSingletonArray(amount) */\n      tag_36\n        /* \"contracts/Coupon.sol\":5331:5337  amount */\n      dup6\n        /* \"contracts/Coupon.sol\":5313:5330  _asSingletonArray */\n      tag_35\n        /* \"contracts/Coupon.sol\":5313:5338  _asSingletonArray(amount) */\n      jump\t// in\n    tag_36:\n        /* \"contracts/Coupon.sol\":5286:5338  uint256[] memory amounts = _asSingletonArray(amount) */\n      swap1\n      pop\n        /* \"contracts/Coupon.sol\":5349:5409  _beforeTokenTransfer(operator, from, to, ids, amounts, data) */\n      tag_37\n        /* \"contracts/Coupon.sol\":5370:5378  operator */\n      dup4\n        /* \"contracts/Coupon.sol\":5380:5384  from */\n      dup10\n        /* \"contracts/Coupon.sol\":5386:5388  to */\n      dup10\n        /* \"contracts/Coupon.sol\":5390:5393  ids */\n      dup6\n        /* \"contracts/Coupon.sol\":5395:5402  amounts */\n      dup6\n        /* \"contracts/Coupon.sol\":5404:5408  data */\n      dup10\n        /* \"contracts/Coupon.sol\":5349:5369  _beforeTokenTransfer */\n      tag_38\n        /* \"contracts/Coupon.sol\":5349:5409  _beforeTokenTransfer(operator, from, to, ids, amounts, data) */\n      jump\t// in\n    tag_37:\n        /* \"contracts/Coupon.sol\":5420:5439  uint256 fromBalance */\n      0x00\n        /* \"contracts/Coupon.sol\":5442:5451  _balances */\n      dup1\n        /* \"contracts/Coupon.sol\":5442:5455  _balances[id] */\n      0x00\n        /* \"contracts/Coupon.sol\":5452:5454  id */\n      dup9\n        /* \"contracts/Coupon.sol\":5442:5455  _balances[id] */\n      dup2\n      mstore\n      0x20\n      add\n      swap1\n      dup2\n      mstore\n      0x20\n      add\n      0x00\n      keccak256\n        /* \"contracts/Coupon.sol\":5442:5461  _balances[id][from] */\n      0x00\n        /* \"contracts/Coupon.sol\":5456:5460  from */\n      dup11\n        /* \"contracts/Coupon.sol\":5442:5461  _balances[id][from] */\n      0xffffffffffffffffffffffffffffffffffffffff\n      and\n      0xffffffffffffffffffffffffffffffffffffffff\n      and\n      dup2\n      mstore\n      0x20\n      add\n      swap1\n      dup2\n      mstore\n      0x20\n      add\n      0x00\n      keccak256\n      sload\n        /* \"contracts/Coupon.sol\":5420:5461  uint256 fromBalance = _balances[id][from] */\n      swap1\n      pop\n        /* \"contracts/Coupon.sol\":5507:5513  amount */\n      dup6\n        /* \"contracts/Coupon.sol\":5492:5503  fromBalance */\n      dup2\n        /* \"contracts/Coupon.sol\":5492:5513  fromBalance >= amount */\n      lt\n      iszero\n        /* \"contracts/Coupon.sol\":5471:5581  require(... */\n      tag_39\n      jumpi\n      mload(0x40)\n      0x08c379a000000000000000000000000000000000000000000000000000000000\n      dup2\n      mstore\n      0x04\n      add\n      tag_40\n      swap1\n      tag_41\n      jump\t// in\n    tag_40:\n      mload(0x40)\n      dup1\n      swap2\n      sub\n      swap1\n      revert\n    tag_39:\n        /* \"contracts/Coupon.sol\":5651:5657  amount */\n      dup6\n        /* \"contracts/Coupon.sol\":5637:5648  fromBalance */\n      dup2\n        /* \"contracts/Coupon.sol\":5637:5657  fromBalance - amount */\n      sub\n        /* \"contracts/Coupon.sol\":5615:5624  _balances */\n      0x00\n        /* \"contracts/Coupon.sol\":5615:5628  _balances[id] */\n      dup1\n        /* \"contracts/Coupon.sol\":5625:5627  id */\n      dup10\n        /* \"contracts/Coupon.sol\":5615:5628  _balances[id] */\n      dup2\n      mstore\n      0x20\n      add\n      swap1\n      dup2\n      mstore\n      0x20\n      add\n      0x00\n      keccak256\n        /* \"contracts/Coupon.sol\":5615:5634  _balances[id][from] */\n      0x00\n        /* \"contracts/Coupon.sol\":5629:5633  from */\n      dup12\n        /* \"contracts/Coupon.sol\":5615:5634  _balances[id][from] */\n      0xffffffffffffffffffffffffffffffffffffffff\n      and\n      0xffffffffffffffffffffffffffffffffffffffff\n      and\n      dup2\n      mstore\n      0x20\n      add\n      swap1\n      dup2\n      mstore\n      0x20\n      add\n      0x00\n      keccak256\n        /* \"contracts/Coupon.sol\":5615:5657  _balances[id][from] = fromBalance - amount */\n      dup2\n      swap1\n      sstore\n      pop\n        /* \"contracts/Coupon.sol\":5698:5704  amount */\n      dup6\n        /* \"contracts/Coupon.sol\":5677:5686  _balances */\n      0x00\n        /* \"contracts/Coupon.sol\":5677:5690  _balances[id] */\n      dup1\n        /* \"contracts/Coupon.sol\":5687:5689  id */\n      dup10\n        /* \"contracts/Coupon.sol\":5677:5690  _balances[id] */\n      dup2\n      mstore\n      0x20\n      add\n      swap1\n      dup2\n      mstore\n      0x20\n      add\n      0x00\n      keccak256\n        /* \"contracts/Coupon.sol\":5677:5694  _balances[id][to] */\n      0x00\n        /* \"contracts/Coupon.sol\":5691:5693  to */\n      dup11\n        /* \"contracts/Coupon.sol\":5677:5694  _balances[id][to] */\n      0xffffffffffffffffffffffffffffffffffffffff\n      and\n      0xffffffffffffffffffffffffffffffffffffffff\n      and\n      dup2\n      mstore\n      0x20\n      add\n      swap1\n      dup2\n      mstore\n      0x20\n      add\n      0x00\n      keccak256\n      0x00\n        /* \"contracts/Coupon.sol\":5677:5704  _balances[id][to] += amount */\n      dup3\n      dup3\n      sload\n      tag_42\n      swap2\n      swap1\n      tag_43\n      jump\t// in\n    tag_42:\n      swap3\n      pop\n      pop\n      dup2\n      swap1\n      sstore\n      pop\n        /* \"contracts/Coupon.sol\":5751:5753  to */\n      dup8\n        /* \"contracts/Coupon.sol\":5720:5766  TransferSingle(operator, from, to, id, amount) */\n      0xffffffffffffffffffffffffffffffffffffffff\n      and\n        /* \"contracts/Coupon.sol\":5745:5749  from */\n      dup10\n        /* \"contracts/Coupon.sol\":5720:5766  TransferSingle(operator, from, to, id, amount) */\n      0xffffffffffffffffffffffffffffffffffffffff\n      and\n        /* \"contracts/Coupon.sol\":5735:5743  operator */\n      dup6\n        /* \"contracts/Coupon.sol\":5720:5766  TransferSingle(operator, from, to, id, amount) */\n      0xffffffffffffffffffffffffffffffffffffffff\n      and\n      0xc3d58168c5ae7397731d063d5bbf3d657854427343f4c083240f7aacaa2d0f62\n        /* \"contracts/Coupon.sol\":5755:5757  id */\n      dup11\n        /* \"contracts/Coupon.sol\":5759:5765  amount */\n      dup11\n        /* \"contracts/Coupon.sol\":5720:5766  TransferSingle(operator, from, to, id, amount) */\n      mload(0x40)\n      tag_44\n      swap3\n      swap2\n      swap1\n      tag_45\n      jump\t// in\n    tag_44:\n      mload(0x40)\n      dup1\n      swap2\n      sub\n      swap1\n      log4\n        /* \"contracts/Coupon.sol\":5777:5836  _afterTokenTransfer(operator, from, to, ids, amounts, data) */\n      tag_46\n        /* \"contracts/Coupon.sol\":5797:5805  operator */\n      dup5\n        /* \"contracts/Coupon.sol\":5807:5811  from */\n      dup11\n        /* \"contracts/Coupon.sol\":5813:5815  to */\n      dup11\n        /* \"contracts/Coupon.sol\":5817:5820  ids */\n      dup7\n        /* \"contracts/Coupon.sol\":5822:5829  amounts */\n      dup7\n        /* \"contracts/Coupon.sol\":5831:5835  data */\n      dup11\n        /* \"contracts/Coupon.sol\":5777:5796  _afterTokenTransfer */\n      tag_47\n        /* \"contracts/Coupon.sol\":5777:5836  _afterTokenTransfer(operator, from, to, ids, amounts, data) */\n      jump\t// in\n    tag_46:\n        /* \"contracts/Coupon.sol\":5847:5915  _doSafeTransferAcceptanceCheck(operator, from, to, id, amount, data) */\n      tag_48\n        /* \"contracts/Coupon.sol\":5878:5886  operator */\n      dup5\n        /* \"contracts/Coupon.sol\":5888:5892  from */\n      dup11\n        /* \"contracts/Coupon.sol\":5894:5896  to */\n      dup11\n        /* \"contracts/Coupon.sol\":5898:5900  id */\n      dup11\n        /* \"contracts/Coupon.sol\":5902:5908  amount */\n      dup11\n        /* \"contracts/Coupon.sol\":5910:5914  data */\n      dup11\n        /* \"contracts/Coupon.sol\":5847:5877  _doSafeTransferAcceptanceCheck */\n      tag_49\n        /* \"contracts/Coupon.sol\":5847:5915  _doSafeTransferAcceptanceCheck(operator, from, to, id, amount, data) */\n      jump\t// in\n    tag_48:\n        /* \"contracts/Coupon.sol\":5104:5922  {... */\n      pop\n      pop\n      pop\n      pop\n        /* \"contracts/Coupon.sol\":4941:5922  function _safeTransferFrom(... */\n      pop\n      pop\n      pop\n      pop\n      pop\n      jump\t// out\n        /* \"contracts/Coupon.sol\":11336:11557  function _asSingletonArray(uint256 element)... */\n    tag_35:\n        /* \"contracts/Coupon.sol\":11426:11442  uint256[] memory */\n      0x60\n        /* \"contracts/Coupon.sol\":11458:11480  uint256[] memory array */\n      0x00\n        /* \"contracts/Coupon.sol\":11497:11498  1 */\n      0x01\n        /* \"contracts/Coupon.sol\":11483:11499  new uint256[](1) */\n      0xffffffffffffffff\n      dup2\n      gt\n      iszero\n      tag_51\n      jumpi\n      tag_52\n      tag_53\n      jump\t// in\n    tag_52:\n    tag_51:\n      mload(0x40)\n      swap1\n      dup1\n      dup3\n      mstore\n      dup1\n      0x20\n      mul\n      0x20\n      add\n      dup3\n      add\n      0x40\n      mstore\n      dup1\n      iszero\n      tag_54\n      jumpi\n      dup2\n      0x20\n      add\n      0x20\n      dup3\n      mul\n      dup1\n      calldatasize\n      dup4\n      calldatacopy\n      dup1\n      dup3\n      add\n      swap2\n      pop\n      pop\n      swap1\n      pop\n    tag_54:\n      pop\n        /* \"contracts/Coupon.sol\":11458:11499  uint256[] memory array = new uint256[](1) */\n      swap1\n      pop\n        /* \"contracts/Coupon.sol\":11520:11527  element */\n      dup3\n        /* \"contracts/Coupon.sol\":11509:11514  array */\n      dup2\n        /* \"contracts/Coupon.sol\":11515:11516  0 */\n      0x00\n        /* \"contracts/Coupon.sol\":11509:11517  array[0] */\n      dup2\n      mload\n      dup2\n      lt\n      tag_55\n      jumpi\n      tag_56\n      tag_57\n      jump\t// in\n    tag_56:\n    tag_55:\n      0x20\n      mul\n      0x20\n      add\n      add\n        /* \"contracts/Coupon.sol\":11509:11527  array[0] = element */\n      dup2\n      dup2\n      mstore\n      pop\n      pop\n        /* \"contracts/Coupon.sol\":11545:11550  array */\n      dup1\n        /* \"contracts/Coupon.sol\":11538:11550  return array */\n      swap2\n      pop\n      pop\n        /* \"contracts/Coupon.sol\":11336:11557  function _asSingletonArray(uint256 element)... */\n      swap2\n      swap1\n      pop\n      jump\t// out\n        /* \"contracts/Coupon.sol\":9094:9308  function _beforeTokenTransfer(... */\n    tag_38:\n      pop\n      pop\n      pop\n      pop\n      pop\n      pop\n      jump\t// out\n        /* \"contracts/Coupon.sol\":10241:10454  function _afterTokenTransfer(... */\n    tag_47:\n      pop\n      pop\n      pop\n      pop\n      pop\n      pop\n      jump\t// out\n        /* \"contracts/Coupon.sol\":10460:11330  function _doSafeTransferAcceptanceCheck(... */\n    tag_49:\n        /* \"contracts/Coupon.sol\":10667:10681  isContract(to) */\n      tag_61\n        /* \"contracts/Coupon.sol\":10678:10680  to */\n      dup5\n        /* \"contracts/Coupon.sol\":10667:10677  isContract */\n      tag_62\n        /* \"contracts/Coupon.sol\":10667:10681  isContract(to) */\n      jump\t// in\n    tag_61:\n        /* \"contracts/Coupon.sol\":10663:11324  if (isContract(to)) {... */\n      iszero\n      tag_63\n      jumpi\n        /* \"contracts/Coupon.sol\":10734:10736  to */\n      dup4\n        /* \"contracts/Coupon.sol\":10717:10755  IERC1155Receiver(to).onERC1155Received */\n      0xffffffffffffffffffffffffffffffffffffffff\n      and\n      0xf23a6e61\n        /* \"contracts/Coupon.sol\":10777:10785  operator */\n      dup8\n        /* \"contracts/Coupon.sol\":10807:10811  from */\n      dup8\n        /* \"contracts/Coupon.sol\":10833:10835  id */\n      dup7\n        /* \"contracts/Coupon.sol\":10857:10863  amount */\n      dup7\n        /* \"contracts/Coupon.sol\":10885:10889  data */\n      dup7\n        /* \"contracts/Coupon.sol\":10717:10907  IERC1155Receiver(to).onERC1155Received(... */\n      mload(0x40)\n      dup7\n      0xffffffff\n      and\n      0xe0\n      shl\n      dup2\n      mstore\n      0x04\n      add\n      tag_64\n      swap6\n      swap5\n      swap4\n      swap3\n      swap2\n      swap1\n      tag_65\n      jump\t// in\n    tag_64:\n      0x20\n      mload(0x40)\n      dup1\n      dup4\n      sub\n      dup2\n      0x00\n      dup8\n      dup1\n      extcodesize\n      iszero\n      dup1\n      iszero\n      tag_66\n      jumpi\n      0x00\n      dup1\n      revert\n    tag_66:\n      pop\n      gas\n      call\n      swap3\n      pop\n      pop\n      pop\n      dup1\n      iszero\n      tag_67\n      jumpi\n      pop\n      mload(0x40)\n      returndatasize\n      not(0x1f)\n      0x1f\n      dup3\n      add\n      and\n      dup3\n      add\n      dup1\n      0x40\n      mstore\n      pop\n      dup2\n      add\n      swap1\n      tag_68\n      swap2\n      swap1\n      tag_69\n      jump\t// in\n    tag_68:\n      0x01\n    tag_67:\n        /* \"contracts/Coupon.sol\":10697:11314  try... */\n      tag_70\n      jumpi\n      tag_74\n      tag_75\n      jump\t// in\n    tag_74:\n      dup1\n      0x08c379a0\n      eq\n      iszero\n      tag_73\n      jumpi\n      pop\n      tag_76\n      tag_77\n      jump\t// in\n    tag_76:\n      dup1\n      tag_78\n      jumpi\n      pop\n      jump(tag_72)\n    tag_78:\n        /* \"contracts/Coupon.sol\":11190:11196  reason */\n      dup1\n        /* \"contracts/Coupon.sol\":11183:11197  revert(reason) */\n      mload(0x40)\n      0x08c379a000000000000000000000000000000000000000000000000000000000\n      dup2\n      mstore\n      0x04\n      add\n      tag_79\n      swap2\n      swap1\n      tag_80\n      jump\t// in\n    tag_79:\n      mload(0x40)\n      dup1\n      swap2\n      sub\n      swap1\n      revert\n        /* \"contracts/Coupon.sol\":10697:11314  try... */\n    tag_73:\n      pop\n    tag_72:\n        /* \"contracts/Coupon.sol\":11237:11299  revert(\"ERC1155: transfer to non ERC1155Receiver implementer\") */\n      mload(0x40)\n      0x08c379a000000000000000000000000000000000000000000000000000000000\n      dup2\n      mstore\n      0x04\n      add\n      tag_81\n      swap1\n      tag_82\n      jump\t// in\n    tag_81:\n      mload(0x40)\n      dup1\n      swap2\n      sub\n      swap1\n      revert\n        /* \"contracts/Coupon.sol\":10697:11314  try... */\n    tag_70:\n        /* \"contracts/Coupon.sol\":10980:11023  IERC1155Receiver.onERC1155Received.selector */\n      shl(0xe0, 0xf23a6e61)\n        /* \"contracts/Coupon.sol\":10968:11023  response != IERC1155Receiver.onERC1155Received.selector */\n      not(0xffffffffffffffffffffffffffffffffffffffffffffffffffffffff)\n      and\n        /* \"contracts/Coupon.sol\":10968:10976  response */\n      dup2\n        /* \"contracts/Coupon.sol\":10968:11023  response != IERC1155Receiver.onERC1155Received.selector */\n      not(0xffffffffffffffffffffffffffffffffffffffffffffffffffffffff)\n      and\n      eq\n        /* \"contracts/Coupon.sol\":10964:11116  if (response != IERC1155Receiver.onERC1155Received.selector) {... */\n      tag_84\n      jumpi\n        /* \"contracts/Coupon.sol\":11047:11097  revert(\"ERC1155: ERC1155Receiver rejected tokens\") */\n      mload(0x40)\n      0x08c379a000000000000000000000000000000000000000000000000000000000\n      dup2\n      mstore\n      0x04\n      add\n      tag_85\n      swap1\n      tag_86\n      jump\t// in\n    tag_85:\n      mload(0x40)\n      dup1\n      swap2\n      sub\n      swap1\n      revert\n        /* \"contracts/Coupon.sol\":10964:11116  if (response != IERC1155Receiver.onERC1155Received.selector) {... */\n    tag_84:\n        /* \"contracts/Coupon.sol\":10920:11130  returns (bytes4 response) {... */\n      pop\n        /* \"contracts/Coupon.sol\":10663:11324  if (isContract(to)) {... */\n    tag_63:\n        /* \"contracts/Coupon.sol\":10460:11330  function _doSafeTransferAcceptanceCheck(... */\n      pop\n      pop\n      pop\n      pop\n      pop\n      pop\n      jump\t// out\n        /* \"contracts/Coupon.sol\":3207:3526  function isContract(address account) private view returns (bool) {... */\n    tag_62:\n        /* \"contracts/Coupon.sol\":3266:3270  bool */\n      0x00\n        /* \"contracts/Coupon.sol\":3518:3519  0 */\n      dup1\n        /* \"contracts/Coupon.sol\":3496:3503  account */\n      dup3\n        /* \"contracts/Coupon.sol\":3496:3515  account.code.length */\n      0xffffffffffffffffffffffffffffffffffffffff\n      and\n      extcodesize\n        /* \"contracts/Coupon.sol\":3496:3519  account.code.length > 0 */\n      gt\n        /* \"contracts/Coupon.sol\":3489:3519  return account.code.length > 0 */\n      swap1\n      pop\n        /* \"contracts/Coupon.sol\":3207:3526  function isContract(address account) private view returns (bool) {... */\n      swap2\n      swap1\n      pop\n      jump\t// out\n        /* \"#utility.yul\":7:417   */\n    tag_89:\n        /* \"#utility.yul\":84:89   */\n      0x00\n        /* \"#utility.yul\":109:174   */\n      tag_91\n        /* \"#utility.yul\":125:173   */\n      tag_92\n        /* \"#utility.yul\":166:172   */\n      dup5\n        /* \"#utility.yul\":125:173   */\n      tag_93\n      jump\t// in\n    tag_92:\n        /* \"#utility.yul\":109:174   */\n      tag_94\n      jump\t// in\n    tag_91:\n        /* \"#utility.yul\":100:174   */\n      swap1\n      pop\n        /* \"#utility.yul\":197:203   */\n      dup3\n        /* \"#utility.yul\":190:195   */\n      dup2\n        /* \"#utility.yul\":183:204   */\n      mstore\n        /* \"#utility.yul\":235:239   */\n      0x20\n        /* \"#utility.yul\":228:233   */\n      dup2\n        /* \"#utility.yul\":224:240   */\n      add\n        /* \"#utility.yul\":273:276   */\n      dup5\n        /* \"#utility.yul\":264:270   */\n      dup5\n        /* \"#utility.yul\":259:262   */\n      dup5\n        /* \"#utility.yul\":255:271   */\n      add\n        /* \"#utility.yul\":252:277   */\n      gt\n        /* \"#utility.yul\":249:361   */\n      iszero\n      tag_95\n      jumpi\n        /* \"#utility.yul\":280:359   */\n      tag_96\n      tag_97\n      jump\t// in\n    tag_96:\n        /* \"#utility.yul\":249:361   */\n    tag_95:\n        /* \"#utility.yul\":370:411   */\n      tag_98\n        /* \"#utility.yul\":404:410   */\n      dup5\n        /* \"#utility.yul\":399:402   */\n      dup3\n        /* \"#utility.yul\":394:397   */\n      dup6\n        /* \"#utility.yul\":370:411   */\n      tag_99\n      jump\t// in\n    tag_98:\n        /* \"#utility.yul\":90:417   */\n      pop\n        /* \"#utility.yul\":7:417   */\n      swap4\n      swap3\n      pop\n      pop\n      pop\n      jump\t// out\n        /* \"#utility.yul\":423:562   */\n    tag_100:\n        /* \"#utility.yul\":469:474   */\n      0x00\n        /* \"#utility.yul\":507:513   */\n      dup2\n        /* \"#utility.yul\":494:514   */\n      calldataload\n        /* \"#utility.yul\":485:514   */\n      swap1\n      pop\n        /* \"#utility.yul\":523:556   */\n      tag_102\n        /* \"#utility.yul\":550:555   */\n      dup2\n        /* \"#utility.yul\":523:556   */\n      tag_103\n      jump\t// in\n    tag_102:\n        /* \"#utility.yul\":423:562   */\n      swap3\n      swap2\n      pop\n      pop\n      jump\t// out\n        /* \"#utility.yul\":568:709   */\n    tag_104:\n        /* \"#utility.yul\":624:629   */\n      0x00\n        /* \"#utility.yul\":655:661   */\n      dup2\n        /* \"#utility.yul\":649:662   */\n      mload\n        /* \"#utility.yul\":640:662   */\n      swap1\n      pop\n        /* \"#utility.yul\":671:703   */\n      tag_106\n        /* \"#utility.yul\":697:702   */\n      dup2\n        /* \"#utility.yul\":671:703   */\n      tag_107\n      jump\t// in\n    tag_106:\n        /* \"#utility.yul\":568:709   */\n      swap3\n      swap2\n      pop\n      pop\n      jump\t// out\n        /* \"#utility.yul\":728:1066   */\n    tag_108:\n        /* \"#utility.yul\":783:788   */\n      0x00\n        /* \"#utility.yul\":832:835   */\n      dup3\n        /* \"#utility.yul\":825:829   */\n      0x1f\n        /* \"#utility.yul\":817:823   */\n      dup4\n        /* \"#utility.yul\":813:830   */\n      add\n        /* \"#utility.yul\":809:836   */\n      slt\n        /* \"#utility.yul\":799:921   */\n      tag_110\n      jumpi\n        /* \"#utility.yul\":840:919   */\n      tag_111\n      tag_112\n      jump\t// in\n    tag_111:\n        /* \"#utility.yul\":799:921   */\n    tag_110:\n        /* \"#utility.yul\":957:963   */\n      dup2\n        /* \"#utility.yul\":944:964   */\n      calldataload\n        /* \"#utility.yul\":982:1060   */\n      tag_113\n        /* \"#utility.yul\":1056:1059   */\n      dup5\n        /* \"#utility.yul\":1048:1054   */\n      dup3\n        /* \"#utility.yul\":1041:1045   */\n      0x20\n        /* \"#utility.yul\":1033:1039   */\n      dup7\n        /* \"#utility.yul\":1029:1046   */\n      add\n        /* \"#utility.yul\":982:1060   */\n      tag_89\n      jump\t// in\n    tag_113:\n        /* \"#utility.yul\":973:1060   */\n      swap2\n      pop\n        /* \"#utility.yul\":789:1066   */\n      pop\n        /* \"#utility.yul\":728:1066   */\n      swap3\n      swap2\n      pop\n      pop\n      jump\t// out\n        /* \"#utility.yul\":1072:1211   */\n    tag_114:\n        /* \"#utility.yul\":1118:1123   */\n      0x00\n        /* \"#utility.yul\":1156:1162   */\n      dup2\n        /* \"#utility.yul\":1143:1163   */\n      calldataload\n        /* \"#utility.yul\":1134:1163   */\n      swap1\n      pop\n        /* \"#utility.yul\":1172:1205   */\n      tag_116\n        /* \"#utility.yul\":1199:1204   */\n      dup2\n        /* \"#utility.yul\":1172:1205   */\n      tag_117\n      jump\t// in\n    tag_116:\n        /* \"#utility.yul\":1072:1211   */\n      swap3\n      swap2\n      pop\n      pop\n      jump\t// out\n        /* \"#utility.yul\":1217:2306   */\n    tag_13:\n        /* \"#utility.yul\":1321:1327   */\n      0x00\n        /* \"#utility.yul\":1329:1335   */\n      dup1\n        /* \"#utility.yul\":1337:1343   */\n      0x00\n        /* \"#utility.yul\":1345:1351   */\n      dup1\n        /* \"#utility.yul\":1353:1359   */\n      0x00\n        /* \"#utility.yul\":1402:1405   */\n      0xa0\n        /* \"#utility.yul\":1390:1399   */\n      dup7\n        /* \"#utility.yul\":1381:1388   */\n      dup9\n        /* \"#utility.yul\":1377:1400   */\n      sub\n        /* \"#utility.yul\":1373:1406   */\n      slt\n        /* \"#utility.yul\":1370:1490   */\n      iszero\n      tag_119\n      jumpi\n        /* \"#utility.yul\":1409:1488   */\n      tag_120\n      tag_121\n      jump\t// in\n    tag_120:\n        /* \"#utility.yul\":1370:1490   */\n    tag_119:\n        /* \"#utility.yul\":1529:1530   */\n      0x00\n        /* \"#utility.yul\":1554:1607   */\n      tag_122\n        /* \"#utility.yul\":1599:1606   */\n      dup9\n        /* \"#utility.yul\":1590:1596   */\n      dup3\n        /* \"#utility.yul\":1579:1588   */\n      dup10\n        /* \"#utility.yul\":1575:1597   */\n      add\n        /* \"#utility.yul\":1554:1607   */\n      tag_100\n      jump\t// in\n    tag_122:\n        /* \"#utility.yul\":1544:1607   */\n      swap6\n      pop\n        /* \"#utility.yul\":1500:1617   */\n      pop\n        /* \"#utility.yul\":1656:1658   */\n      0x20\n        /* \"#utility.yul\":1682:1735   */\n      tag_123\n        /* \"#utility.yul\":1727:1734   */\n      dup9\n        /* \"#utility.yul\":1718:1724   */\n      dup3\n        /* \"#utility.yul\":1707:1716   */\n      dup10\n        /* \"#utility.yul\":1703:1725   */\n      add\n        /* \"#utility.yul\":1682:1735   */\n      tag_100\n      jump\t// in\n    tag_123:\n        /* \"#utility.yul\":1672:1735   */\n      swap5\n      pop\n        /* \"#utility.yul\":1627:1745   */\n      pop\n        /* \"#utility.yul\":1784:1786   */\n      0x40\n        /* \"#utility.yul\":1810:1863   */\n      tag_124\n        /* \"#utility.yul\":1855:1862   */\n      dup9\n        /* \"#utility.yul\":1846:1852   */\n      dup3\n        /* \"#utility.yul\":1835:1844   */\n      dup10\n        /* \"#utility.yul\":1831:1853   */\n      add\n        /* \"#utility.yul\":1810:1863   */\n      tag_114\n      jump\t// in\n    tag_124:\n        /* \"#utility.yul\":1800:1863   */\n      swap4\n      pop\n        /* \"#utility.yul\":1755:1873   */\n      pop\n        /* \"#utility.yul\":1912:1914   */\n      0x60\n        /* \"#utility.yul\":1938:1991   */\n      tag_125\n        /* \"#utility.yul\":1983:1990   */\n      dup9\n        /* \"#utility.yul\":1974:1980   */\n      dup3\n        /* \"#utility.yul\":1963:1972   */\n      dup10\n        /* \"#utility.yul\":1959:1981   */\n      add\n        /* \"#utility.yul\":1938:1991   */\n      tag_114\n      jump\t// in\n    tag_125:\n        /* \"#utility.yul\":1928:1991   */\n      swap3\n      pop\n        /* \"#utility.yul\":1883:2001   */\n      pop\n        /* \"#utility.yul\":2068:2071   */\n      0x80\n        /* \"#utility.yul\":2057:2066   */\n      dup7\n        /* \"#utility.yul\":2053:2072   */\n      add\n        /* \"#utility.yul\":2040:2073   */\n      calldataload\n        /* \"#utility.yul\":2100:2118   */\n      0xffffffffffffffff\n        /* \"#utility.yul\":2092:2098   */\n      dup2\n        /* \"#utility.yul\":2089:2119   */\n      gt\n        /* \"#utility.yul\":2086:2203   */\n      iszero\n      tag_126\n      jumpi\n        /* \"#utility.yul\":2122:2201   */\n      tag_127\n      tag_128\n      jump\t// in\n    tag_127:\n        /* \"#utility.yul\":2086:2203   */\n    tag_126:\n        /* \"#utility.yul\":2227:2289   */\n      tag_129\n        /* \"#utility.yul\":2281:2288   */\n      dup9\n        /* \"#utility.yul\":2272:2278   */\n      dup3\n        /* \"#utility.yul\":2261:2270   */\n      dup10\n        /* \"#utility.yul\":2257:2279   */\n      add\n        /* \"#utility.yul\":2227:2289   */\n      tag_108\n      jump\t// in\n    tag_129:\n        /* \"#utility.yul\":2217:2289   */\n      swap2\n      pop\n        /* \"#utility.yul\":2011:2299   */\n      pop\n        /* \"#utility.yul\":1217:2306   */\n      swap3\n      swap6\n      pop\n      swap3\n      swap6\n      swap1\n      swap4\n      pop\n      jump\t// out\n        /* \"#utility.yul\":2312:2786   */\n    tag_7:\n        /* \"#utility.yul\":2380:2386   */\n      0x00\n        /* \"#utility.yul\":2388:2394   */\n      dup1\n        /* \"#utility.yul\":2437:2439   */\n      0x40\n        /* \"#utility.yul\":2425:2434   */\n      dup4\n        /* \"#utility.yul\":2416:2423   */\n      dup6\n        /* \"#utility.yul\":2412:2435   */\n      sub\n        /* \"#utility.yul\":2408:2440   */\n      slt\n        /* \"#utility.yul\":2405:2524   */\n      iszero\n      tag_131\n      jumpi\n        /* \"#utility.yul\":2443:2522   */\n      tag_132\n      tag_121\n      jump\t// in\n    tag_132:\n        /* \"#utility.yul\":2405:2524   */\n    tag_131:\n        /* \"#utility.yul\":2563:2564   */\n      0x00\n        /* \"#utility.yul\":2588:2641   */\n      tag_133\n        /* \"#utility.yul\":2633:2640   */\n      dup6\n        /* \"#utility.yul\":2624:2630   */\n      dup3\n        /* \"#utility.yul\":2613:2622   */\n      dup7\n        /* \"#utility.yul\":2609:2631   */\n      add\n        /* \"#utility.yul\":2588:2641   */\n      tag_100\n      jump\t// in\n    tag_133:\n        /* \"#utility.yul\":2578:2641   */\n      swap3\n      pop\n        /* \"#utility.yul\":2534:2651   */\n      pop\n        /* \"#utility.yul\":2690:2692   */\n      0x20\n        /* \"#utility.yul\":2716:2769   */\n      tag_134\n        /* \"#utility.yul\":2761:2768   */\n      dup6\n        /* \"#utility.yul\":2752:2758   */\n      dup3\n        /* \"#utility.yul\":2741:2750   */\n      dup7\n        /* \"#utility.yul\":2737:2759   */\n      add\n        /* \"#utility.yul\":2716:2769   */\n      tag_114\n      jump\t// in\n    tag_134:\n        /* \"#utility.yul\":2706:2769   */\n      swap2\n      pop\n        /* \"#utility.yul\":2661:2779   */\n      pop\n        /* \"#utility.yul\":2312:2786   */\n      swap3\n      pop\n      swap3\n      swap1\n      pop\n      jump\t// out\n        /* \"#utility.yul\":2792:3141   */\n    tag_69:\n        /* \"#utility.yul\":2861:2867   */\n      0x00\n        /* \"#utility.yul\":2910:2912   */\n      0x20\n        /* \"#utility.yul\":2898:2907   */\n      dup3\n        /* \"#utility.yul\":2889:2896   */\n      dup5\n        /* \"#utility.yul\":2885:2908   */\n      sub\n        /* \"#utility.yul\":2881:2913   */\n      slt\n        /* \"#utility.yul\":2878:2997   */\n      iszero\n      tag_136\n      jumpi\n        /* \"#utility.yul\":2916:2995   */\n      tag_137\n      tag_121\n      jump\t// in\n    tag_137:\n        /* \"#utility.yul\":2878:2997   */\n    tag_136:\n        /* \"#utility.yul\":3036:3037   */\n      0x00\n        /* \"#utility.yul\":3061:3124   */\n      tag_138\n        /* \"#utility.yul\":3116:3123   */\n      dup5\n        /* \"#utility.yul\":3107:3113   */\n      dup3\n        /* \"#utility.yul\":3096:3105   */\n      dup6\n        /* \"#utility.yul\":3092:3114   */\n      add\n        /* \"#utility.yul\":3061:3124   */\n      tag_104\n      jump\t// in\n    tag_138:\n        /* \"#utility.yul\":3051:3124   */\n      swap2\n      pop\n        /* \"#utility.yul\":3007:3134   */\n      pop\n        /* \"#utility.yul\":2792:3141   */\n      swap3\n      swap2\n      pop\n      pop\n      jump\t// out\n        /* \"#utility.yul\":3147:3265   */\n    tag_139:\n        /* \"#utility.yul\":3234:3258   */\n      tag_141\n        /* \"#utility.yul\":3252:3257   */\n      dup2\n        /* \"#utility.yul\":3234:3258   */\n      tag_142\n      jump\t// in\n    tag_141:\n        /* \"#utility.yul\":3229:3232   */\n      dup3\n        /* \"#utility.yul\":3222:3259   */\n      mstore\n        /* \"#utility.yul\":3147:3265   */\n      pop\n      pop\n      jump\t// out\n        /* \"#utility.yul\":3271:3631   */\n    tag_143:\n        /* \"#utility.yul\":3357:3360   */\n      0x00\n        /* \"#utility.yul\":3385:3423   */\n      tag_145\n        /* \"#utility.yul\":3417:3422   */\n      dup3\n        /* \"#utility.yul\":3385:3423   */\n      tag_146\n      jump\t// in\n    tag_145:\n        /* \"#utility.yul\":3439:3509   */\n      tag_147\n        /* \"#utility.yul\":3502:3508   */\n      dup2\n        /* \"#utility.yul\":3497:3500   */\n      dup6\n        /* \"#utility.yul\":3439:3509   */\n      tag_148\n      jump\t// in\n    tag_147:\n        /* \"#utility.yul\":3432:3509   */\n      swap4\n      pop\n        /* \"#utility.yul\":3518:3570   */\n      tag_149\n        /* \"#utility.yul\":3563:3569   */\n      dup2\n        /* \"#utility.yul\":3558:3561   */\n      dup6\n        /* \"#utility.yul\":3551:3555   */\n      0x20\n        /* \"#utility.yul\":3544:3549   */\n      dup7\n        /* \"#utility.yul\":3540:3556   */\n      add\n        /* \"#utility.yul\":3518:3570   */\n      tag_150\n      jump\t// in\n    tag_149:\n        /* \"#utility.yul\":3595:3624   */\n      tag_151\n        /* \"#utility.yul\":3617:3623   */\n      dup2\n        /* \"#utility.yul\":3595:3624   */\n      tag_152\n      jump\t// in\n    tag_151:\n        /* \"#utility.yul\":3590:3593   */\n      dup5\n        /* \"#utility.yul\":3586:3625   */\n      add\n        /* \"#utility.yul\":3579:3625   */\n      swap2\n      pop\n        /* \"#utility.yul\":3361:3631   */\n      pop\n        /* \"#utility.yul\":3271:3631   */\n      swap3\n      swap2\n      pop\n      pop\n      jump\t// out\n        /* \"#utility.yul\":3637:4001   */\n    tag_153:\n        /* \"#utility.yul\":3725:3728   */\n      0x00\n        /* \"#utility.yul\":3753:3792   */\n      tag_155\n        /* \"#utility.yul\":3786:3791   */\n      dup3\n        /* \"#utility.yul\":3753:3792   */\n      tag_156\n      jump\t// in\n    tag_155:\n        /* \"#utility.yul\":3808:3879   */\n      tag_157\n        /* \"#utility.yul\":3872:3878   */\n      dup2\n        /* \"#utility.yul\":3867:3870   */\n      dup6\n        /* \"#utility.yul\":3808:3879   */\n      tag_158\n      jump\t// in\n    tag_157:\n        /* \"#utility.yul\":3801:3879   */\n      swap4\n      pop\n        /* \"#utility.yul\":3888:3940   */\n      tag_159\n        /* \"#utility.yul\":3933:3939   */\n      dup2\n        /* \"#utility.yul\":3928:3931   */\n      dup6\n        /* \"#utility.yul\":3921:3925   */\n      0x20\n        /* \"#utility.yul\":3914:3919   */\n      dup7\n        /* \"#utility.yul\":3910:3926   */\n      add\n        /* \"#utility.yul\":3888:3940   */\n      tag_150\n      jump\t// in\n    tag_159:\n        /* \"#utility.yul\":3965:3994   */\n      tag_160\n        /* \"#utility.yul\":3987:3993   */\n      dup2\n        /* \"#utility.yul\":3965:3994   */\n      tag_152\n      jump\t// in\n    tag_160:\n        /* \"#utility.yul\":3960:3963   */\n      dup5\n        /* \"#utility.yul\":3956:3995   */\n      add\n        /* \"#utility.yul\":3949:3995   */\n      swap2\n      pop\n        /* \"#utility.yul\":3729:4001   */\n      pop\n        /* \"#utility.yul\":3637:4001   */\n      swap3\n      swap2\n      pop\n      pop\n      jump\t// out\n        /* \"#utility.yul\":4007:4373   */\n    tag_161:\n        /* \"#utility.yul\":4149:4152   */\n      0x00\n        /* \"#utility.yul\":4170:4237   */\n      tag_163\n        /* \"#utility.yul\":4234:4236   */\n      0x34\n        /* \"#utility.yul\":4229:4232   */\n      dup4\n        /* \"#utility.yul\":4170:4237   */\n      tag_158\n      jump\t// in\n    tag_163:\n        /* \"#utility.yul\":4163:4237   */\n      swap2\n      pop\n        /* \"#utility.yul\":4246:4339   */\n      tag_164\n        /* \"#utility.yul\":4335:4338   */\n      dup3\n        /* \"#utility.yul\":4246:4339   */\n      tag_165\n      jump\t// in\n    tag_164:\n        /* \"#utility.yul\":4364:4366   */\n      0x40\n        /* \"#utility.yul\":4359:4362   */\n      dup3\n        /* \"#utility.yul\":4355:4367   */\n      add\n        /* \"#utility.yul\":4348:4367   */\n      swap1\n      pop\n        /* \"#utility.yul\":4007:4373   */\n      swap2\n      swap1\n      pop\n      jump\t// out\n        /* \"#utility.yul\":4379:4745   */\n    tag_166:\n        /* \"#utility.yul\":4521:4524   */\n      0x00\n        /* \"#utility.yul\":4542:4609   */\n      tag_168\n        /* \"#utility.yul\":4606:4608   */\n      0x2f\n        /* \"#utility.yul\":4601:4604   */\n      dup4\n        /* \"#utility.yul\":4542:4609   */\n      tag_158\n      jump\t// in\n    tag_168:\n        /* \"#utility.yul\":4535:4609   */\n      swap2\n      pop\n        /* \"#utility.yul\":4618:4711   */\n      tag_169\n        /* \"#utility.yul\":4707:4710   */\n      dup3\n        /* \"#utility.yul\":4618:4711   */\n      tag_170\n      jump\t// in\n    tag_169:\n        /* \"#utility.yul\":4736:4738   */\n      0x40\n        /* \"#utility.yul\":4731:4734   */\n      dup3\n        /* \"#utility.yul\":4727:4739   */\n      add\n        /* \"#utility.yul\":4720:4739   */\n      swap1\n      pop\n        /* \"#utility.yul\":4379:4745   */\n      swap2\n      swap1\n      pop\n      jump\t// out\n        /* \"#utility.yul\":4751:5117   */\n    tag_171:\n        /* \"#utility.yul\":4893:4896   */\n      0x00\n        /* \"#utility.yul\":4914:4981   */\n      tag_173\n        /* \"#utility.yul\":4978:4980   */\n      0x28\n        /* \"#utility.yul\":4973:4976   */\n      dup4\n        /* \"#utility.yul\":4914:4981   */\n      tag_158\n      jump\t// in\n    tag_173:\n        /* \"#utility.yul\":4907:4981   */\n      swap2\n      pop\n        /* \"#utility.yul\":4990:5083   */\n      tag_174\n        /* \"#utility.yul\":5079:5082   */\n      dup3\n        /* \"#utility.yul\":4990:5083   */\n      tag_175\n      jump\t// in\n    tag_174:\n        /* \"#utility.yul\":5108:5110   */\n      0x40\n        /* \"#utility.yul\":5103:5106   */\n      dup3\n        /* \"#utility.yul\":5099:5111   */\n      add\n        /* \"#utility.yul\":5092:5111   */\n      swap1\n      pop\n        /* \"#utility.yul\":4751:5117   */\n      swap2\n      swap1\n      pop\n      jump\t// out\n        /* \"#utility.yul\":5123:5489   */\n    tag_176:\n        /* \"#utility.yul\":5265:5268   */\n      0x00\n        /* \"#utility.yul\":5286:5353   */\n      tag_178\n        /* \"#utility.yul\":5350:5352   */\n      0x2a\n        /* \"#utility.yul\":5345:5348   */\n      dup4\n        /* \"#utility.yul\":5286:5353   */\n      tag_158\n      jump\t// in\n    tag_178:\n        /* \"#utility.yul\":5279:5353   */\n      swap2\n      pop\n        /* \"#utility.yul\":5362:5455   */\n      tag_179\n        /* \"#utility.yul\":5451:5454   */\n      dup3\n        /* \"#utility.yul\":5362:5455   */\n      tag_180\n      jump\t// in\n    tag_179:\n        /* \"#utility.yul\":5480:5482   */\n      0x40\n        /* \"#utility.yul\":5475:5478   */\n      dup3\n        /* \"#utility.yul\":5471:5483   */\n      add\n        /* \"#utility.yul\":5464:5483   */\n      swap1\n      pop\n        /* \"#utility.yul\":5123:5489   */\n      swap2\n      swap1\n      pop\n      jump\t// out\n        /* \"#utility.yul\":5495:5861   */\n    tag_181:\n        /* \"#utility.yul\":5637:5640   */\n      0x00\n        /* \"#utility.yul\":5658:5725   */\n      tag_183\n        /* \"#utility.yul\":5722:5724   */\n      0x25\n        /* \"#utility.yul\":5717:5720   */\n      dup4\n        /* \"#utility.yul\":5658:5725   */\n      tag_158\n      jump\t// in\n    tag_183:\n        /* \"#utility.yul\":5651:5725   */\n      swap2\n      pop\n        /* \"#utility.yul\":5734:5827   */\n      tag_184\n        /* \"#utility.yul\":5823:5826   */\n      dup3\n        /* \"#utility.yul\":5734:5827   */\n      tag_185\n      jump\t// in\n    tag_184:\n        /* \"#utility.yul\":5852:5854   */\n      0x40\n        /* \"#utility.yul\":5847:5850   */\n      dup3\n        /* \"#utility.yul\":5843:5855   */\n      add\n        /* \"#utility.yul\":5836:5855   */\n      swap1\n      pop\n        /* \"#utility.yul\":5495:5861   */\n      swap2\n      swap1\n      pop\n      jump\t// out\n        /* \"#utility.yul\":5867:6233   */\n    tag_186:\n        /* \"#utility.yul\":6009:6012   */\n      0x00\n        /* \"#utility.yul\":6030:6097   */\n      tag_188\n        /* \"#utility.yul\":6094:6096   */\n      0x2a\n        /* \"#utility.yul\":6089:6092   */\n      dup4\n        /* \"#utility.yul\":6030:6097   */\n      tag_158\n      jump\t// in\n    tag_188:\n        /* \"#utility.yul\":6023:6097   */\n      swap2\n      pop\n        /* \"#utility.yul\":6106:6199   */\n      tag_189\n        /* \"#utility.yul\":6195:6198   */\n      dup3\n        /* \"#utility.yul\":6106:6199   */\n      tag_190\n      jump\t// in\n    tag_189:\n        /* \"#utility.yul\":6224:6226   */\n      0x40\n        /* \"#utility.yul\":6219:6222   */\n      dup3\n        /* \"#utility.yul\":6215:6227   */\n      add\n        /* \"#utility.yul\":6208:6227   */\n      swap1\n      pop\n        /* \"#utility.yul\":5867:6233   */\n      swap2\n      swap1\n      pop\n      jump\t// out\n        /* \"#utility.yul\":6239:6357   */\n    tag_191:\n        /* \"#utility.yul\":6326:6350   */\n      tag_193\n        /* \"#utility.yul\":6344:6349   */\n      dup2\n        /* \"#utility.yul\":6326:6350   */\n      tag_194\n      jump\t// in\n    tag_193:\n        /* \"#utility.yul\":6321:6324   */\n      dup3\n        /* \"#utility.yul\":6314:6351   */\n      mstore\n        /* \"#utility.yul\":6239:6357   */\n      pop\n      pop\n      jump\t// out\n        /* \"#utility.yul\":6363:7114   */\n    tag_65:\n        /* \"#utility.yul\":6586:6590   */\n      0x00\n        /* \"#utility.yul\":6624:6627   */\n      0xa0\n        /* \"#utility.yul\":6613:6622   */\n      dup3\n        /* \"#utility.yul\":6609:6628   */\n      add\n        /* \"#utility.yul\":6601:6628   */\n      swap1\n      pop\n        /* \"#utility.yul\":6638:6709   */\n      tag_196\n        /* \"#utility.yul\":6706:6707   */\n      0x00\n        /* \"#utility.yul\":6695:6704   */\n      dup4\n        /* \"#utility.yul\":6691:6708   */\n      add\n        /* \"#utility.yul\":6682:6688   */\n      dup9\n        /* \"#utility.yul\":6638:6709   */\n      tag_139\n      jump\t// in\n    tag_196:\n        /* \"#utility.yul\":6719:6791   */\n      tag_197\n        /* \"#utility.yul\":6787:6789   */\n      0x20\n        /* \"#utility.yul\":6776:6785   */\n      dup4\n        /* \"#utility.yul\":6772:6790   */\n      add\n        /* \"#utility.yul\":6763:6769   */\n      dup8\n        /* \"#utility.yul\":6719:6791   */\n      tag_139\n      jump\t// in\n    tag_197:\n        /* \"#utility.yul\":6801:6873   */\n      tag_198\n        /* \"#utility.yul\":6869:6871   */\n      0x40\n        /* \"#utility.yul\":6858:6867   */\n      dup4\n        /* \"#utility.yul\":6854:6872   */\n      add\n        /* \"#utility.yul\":6845:6851   */\n      dup7\n        /* \"#utility.yul\":6801:6873   */\n      tag_191\n      jump\t// in\n    tag_198:\n        /* \"#utility.yul\":6883:6955   */\n      tag_199\n        /* \"#utility.yul\":6951:6953   */\n      0x60\n        /* \"#utility.yul\":6940:6949   */\n      dup4\n        /* \"#utility.yul\":6936:6954   */\n      add\n        /* \"#utility.yul\":6927:6933   */\n      dup6\n        /* \"#utility.yul\":6883:6955   */\n      tag_191\n      jump\t// in\n    tag_199:\n        /* \"#utility.yul\":7003:7012   */\n      dup2\n        /* \"#utility.yul\":6997:7001   */\n      dup2\n        /* \"#utility.yul\":6993:7013   */\n      sub\n        /* \"#utility.yul\":6987:6990   */\n      0x80\n        /* \"#utility.yul\":6976:6985   */\n      dup4\n        /* \"#utility.yul\":6972:6991   */\n      add\n        /* \"#utility.yul\":6965:7014   */\n      mstore\n        /* \"#utility.yul\":7031:7107   */\n      tag_200\n        /* \"#utility.yul\":7102:7106   */\n      dup2\n        /* \"#utility.yul\":7093:7099   */\n      dup5\n        /* \"#utility.yul\":7031:7107   */\n      tag_143\n      jump\t// in\n    tag_200:\n        /* \"#utility.yul\":7023:7107   */\n      swap1\n      pop\n        /* \"#utility.yul\":6363:7114   */\n      swap7\n      swap6\n      pop\n      pop\n      pop\n      pop\n      pop\n      pop\n      jump\t// out\n        /* \"#utility.yul\":7120:7433   */\n    tag_80:\n        /* \"#utility.yul\":7233:7237   */\n      0x00\n        /* \"#utility.yul\":7271:7273   */\n      0x20\n        /* \"#utility.yul\":7260:7269   */\n      dup3\n        /* \"#utility.yul\":7256:7274   */\n      add\n        /* \"#utility.yul\":7248:7274   */\n      swap1\n      pop\n        /* \"#utility.yul\":7320:7329   */\n      dup2\n        /* \"#utility.yul\":7314:7318   */\n      dup2\n        /* \"#utility.yul\":7310:7330   */\n      sub\n        /* \"#utility.yul\":7306:7307   */\n      0x00\n        /* \"#utility.yul\":7295:7304   */\n      dup4\n        /* \"#utility.yul\":7291:7308   */\n      add\n        /* \"#utility.yul\":7284:7331   */\n      mstore\n        /* \"#utility.yul\":7348:7426   */\n      tag_202\n        /* \"#utility.yul\":7421:7425   */\n      dup2\n        /* \"#utility.yul\":7412:7418   */\n      dup5\n        /* \"#utility.yul\":7348:7426   */\n      tag_153\n      jump\t// in\n    tag_202:\n        /* \"#utility.yul\":7340:7426   */\n      swap1\n      pop\n        /* \"#utility.yul\":7120:7433   */\n      swap3\n      swap2\n      pop\n      pop\n      jump\t// out\n        /* \"#utility.yul\":7439:7858   */\n    tag_82:\n        /* \"#utility.yul\":7605:7609   */\n      0x00\n        /* \"#utility.yul\":7643:7645   */\n      0x20\n        /* \"#utility.yul\":7632:7641   */\n      dup3\n        /* \"#utility.yul\":7628:7646   */\n      add\n        /* \"#utility.yul\":7620:7646   */\n      swap1\n      pop\n        /* \"#utility.yul\":7692:7701   */\n      dup2\n        /* \"#utility.yul\":7686:7690   */\n      dup2\n        /* \"#utility.yul\":7682:7702   */\n      sub\n        /* \"#utility.yul\":7678:7679   */\n      0x00\n        /* \"#utility.yul\":7667:7676   */\n      dup4\n        /* \"#utility.yul\":7663:7680   */\n      add\n        /* \"#utility.yul\":7656:7703   */\n      mstore\n        /* \"#utility.yul\":7720:7851   */\n      tag_204\n        /* \"#utility.yul\":7846:7850   */\n      dup2\n        /* \"#utility.yul\":7720:7851   */\n      tag_161\n      jump\t// in\n    tag_204:\n        /* \"#utility.yul\":7712:7851   */\n      swap1\n      pop\n        /* \"#utility.yul\":7439:7858   */\n      swap2\n      swap1\n      pop\n      jump\t// out\n        /* \"#utility.yul\":7864:8283   */\n    tag_25:\n        /* \"#utility.yul\":8030:8034   */\n      0x00\n        /* \"#utility.yul\":8068:8070   */\n      0x20\n        /* \"#utility.yul\":8057:8066   */\n      dup3\n        /* \"#utility.yul\":8053:8071   */\n      add\n        /* \"#utility.yul\":8045:8071   */\n      swap1\n      pop\n        /* \"#utility.yul\":8117:8126   */\n      dup2\n        /* \"#utility.yul\":8111:8115   */\n      dup2\n        /* \"#utility.yul\":8107:8127   */\n      sub\n        /* \"#utility.yul\":8103:8104   */\n      0x00\n        /* \"#utility.yul\":8092:8101   */\n      dup4\n        /* \"#utility.yul\":8088:8105   */\n      add\n        /* \"#utility.yul\":8081:8128   */\n      mstore\n        /* \"#utility.yul\":8145:8276   */\n      tag_206\n        /* \"#utility.yul\":8271:8275   */\n      dup2\n        /* \"#utility.yul\":8145:8276   */\n      tag_166\n      jump\t// in\n    tag_206:\n        /* \"#utility.yul\":8137:8276   */\n      swap1\n      pop\n        /* \"#utility.yul\":7864:8283   */\n      swap2\n      swap1\n      pop\n      jump\t// out\n        /* \"#utility.yul\":8289:8708   */\n    tag_86:\n        /* \"#utility.yul\":8455:8459   */\n      0x00\n        /* \"#utility.yul\":8493:8495   */\n      0x20\n        /* \"#utility.yul\":8482:8491   */\n      dup3\n        /* \"#utility.yul\":8478:8496   */\n      add\n        /* \"#utility.yul\":8470:8496   */\n      swap1\n      pop\n        /* \"#utility.yul\":8542:8551   */\n      dup2\n        /* \"#utility.yul\":8536:8540   */\n      dup2\n        /* \"#utility.yul\":8532:8552   */\n      sub\n        /* \"#utility.yul\":8528:8529   */\n      0x00\n        /* \"#utility.yul\":8517:8526   */\n      dup4\n        /* \"#utility.yul\":8513:8530   */\n      add\n        /* \"#utility.yul\":8506:8553   */\n      mstore\n        /* \"#utility.yul\":8570:8701   */\n      tag_208\n        /* \"#utility.yul\":8696:8700   */\n      dup2\n        /* \"#utility.yul\":8570:8701   */\n      tag_171\n      jump\t// in\n    tag_208:\n        /* \"#utility.yul\":8562:8701   */\n      swap1\n      pop\n        /* \"#utility.yul\":8289:8708   */\n      swap2\n      swap1\n      pop\n      jump\t// out\n        /* \"#utility.yul\":8714:9133   */\n    tag_18:\n        /* \"#utility.yul\":8880:8884   */\n      0x00\n        /* \"#utility.yul\":8918:8920   */\n      0x20\n        /* \"#utility.yul\":8907:8916   */\n      dup3\n        /* \"#utility.yul\":8903:8921   */\n      add\n        /* \"#utility.yul\":8895:8921   */\n      swap1\n      pop\n        /* \"#utility.yul\":8967:8976   */\n      dup2\n        /* \"#utility.yul\":8961:8965   */\n      dup2\n        /* \"#utility.yul\":8957:8977   */\n      sub\n        /* \"#utility.yul\":8953:8954   */\n      0x00\n        /* \"#utility.yul\":8942:8951   */\n      dup4\n        /* \"#utility.yul\":8938:8955   */\n      add\n        /* \"#utility.yul\":8931:8978   */\n      mstore\n        /* \"#utility.yul\":8995:9126   */\n      tag_210\n        /* \"#utility.yul\":9121:9125   */\n      dup2\n        /* \"#utility.yul\":8995:9126   */\n      tag_176\n      jump\t// in\n    tag_210:\n        /* \"#utility.yul\":8987:9126   */\n      swap1\n      pop\n        /* \"#utility.yul\":8714:9133   */\n      swap2\n      swap1\n      pop\n      jump\t// out\n        /* \"#utility.yul\":9139:9558   */\n    tag_32:\n        /* \"#utility.yul\":9305:9309   */\n      0x00\n        /* \"#utility.yul\":9343:9345   */\n      0x20\n        /* \"#utility.yul\":9332:9341   */\n      dup3\n        /* \"#utility.yul\":9328:9346   */\n      add\n        /* \"#utility.yul\":9320:9346   */\n      swap1\n      pop\n        /* \"#utility.yul\":9392:9401   */\n      dup2\n        /* \"#utility.yul\":9386:9390   */\n      dup2\n        /* \"#utility.yul\":9382:9402   */\n      sub\n        /* \"#utility.yul\":9378:9379   */\n      0x00\n        /* \"#utility.yul\":9367:9376   */\n      dup4\n        /* \"#utility.yul\":9363:9380   */\n      add\n        /* \"#utility.yul\":9356:9403   */\n      mstore\n        /* \"#utility.yul\":9420:9551   */\n      tag_212\n        /* \"#utility.yul\":9546:9550   */\n      dup2\n        /* \"#utility.yul\":9420:9551   */\n      tag_181\n      jump\t// in\n    tag_212:\n        /* \"#utility.yul\":9412:9551   */\n      swap1\n      pop\n        /* \"#utility.yul\":9139:9558   */\n      swap2\n      swap1\n      pop\n      jump\t// out\n        /* \"#utility.yul\":9564:9983   */\n    tag_41:\n        /* \"#utility.yul\":9730:9734   */\n      0x00\n        /* \"#utility.yul\":9768:9770   */\n      0x20\n        /* \"#utility.yul\":9757:9766   */\n      dup3\n        /* \"#utility.yul\":9753:9771   */\n      add\n        /* \"#utility.yul\":9745:9771   */\n      swap1\n      pop\n        /* \"#utility.yul\":9817:9826   */\n      dup2\n        /* \"#utility.yul\":9811:9815   */\n      dup2\n        /* \"#utility.yul\":9807:9827   */\n      sub\n        /* \"#utility.yul\":9803:9804   */\n      0x00\n        /* \"#utility.yul\":9792:9801   */\n      dup4\n        /* \"#utility.yul\":9788:9805   */\n      add\n        /* \"#utility.yul\":9781:9828   */\n      mstore\n        /* \"#utility.yul\":9845:9976   */\n      tag_214\n        /* \"#utility.yul\":9971:9975   */\n      dup2\n        /* \"#utility.yul\":9845:9976   */\n      tag_186\n      jump\t// in\n    tag_214:\n        /* \"#utility.yul\":9837:9976   */\n      swap1\n      pop\n        /* \"#utility.yul\":9564:9983   */\n      swap2\n      swap1\n      pop\n      jump\t// out\n        /* \"#utility.yul\":9989:10211   */\n    tag_10:\n        /* \"#utility.yul\":10082:10086   */\n      0x00\n        /* \"#utility.yul\":10120:10122   */\n      0x20\n        /* \"#utility.yul\":10109:10118   */\n      dup3\n        /* \"#utility.yul\":10105:10123   */\n      add\n        /* \"#utility.yul\":10097:10123   */\n      swap1\n      pop\n        /* \"#utility.yul\":10133:10204   */\n      tag_216\n        /* \"#utility.yul\":10201:10202   */\n      0x00\n        /* \"#utility.yul\":10190:10199   */\n      dup4\n        /* \"#utility.yul\":10186:10203   */\n      add\n        /* \"#utility.yul\":10177:10183   */\n      dup5\n        /* \"#utility.yul\":10133:10204   */\n      tag_191\n      jump\t// in\n    tag_216:\n        /* \"#utility.yul\":9989:10211   */\n      swap3\n      swap2\n      pop\n      pop\n      jump\t// out\n        /* \"#utility.yul\":10217:10549   */\n    tag_45:\n        /* \"#utility.yul\":10338:10342   */\n      0x00\n        /* \"#utility.yul\":10376:10378   */\n      0x40\n        /* \"#utility.yul\":10365:10374   */\n      dup3\n        /* \"#utility.yul\":10361:10379   */\n      add\n        /* \"#utility.yul\":10353:10379   */\n      swap1\n      pop\n        /* \"#utility.yul\":10389:10460   */\n      tag_218\n        /* \"#utility.yul\":10457:10458   */\n      0x00\n        /* \"#utility.yul\":10446:10455   */\n      dup4\n        /* \"#utility.yul\":10442:10459   */\n      add\n        /* \"#utility.yul\":10433:10439   */\n      dup6\n        /* \"#utility.yul\":10389:10460   */\n      tag_191\n      jump\t// in\n    tag_218:\n        /* \"#utility.yul\":10470:10542   */\n      tag_219\n        /* \"#utility.yul\":10538:10540   */\n      0x20\n        /* \"#utility.yul\":10527:10536   */\n      dup4\n        /* \"#utility.yul\":10523:10541   */\n      add\n        /* \"#utility.yul\":10514:10520   */\n      dup5\n        /* \"#utility.yul\":10470:10542   */\n      tag_191\n      jump\t// in\n    tag_219:\n        /* \"#utility.yul\":10217:10549   */\n      swap4\n      swap3\n      pop\n      pop\n      pop\n      jump\t// out\n        /* \"#utility.yul\":10555:10684   */\n    tag_94:\n        /* \"#utility.yul\":10589:10595   */\n      0x00\n        /* \"#utility.yul\":10616:10636   */\n      tag_221\n      tag_222\n      jump\t// in\n    tag_221:\n        /* \"#utility.yul\":10606:10636   */\n      swap1\n      pop\n        /* \"#utility.yul\":10645:10678   */\n      tag_223\n        /* \"#utility.yul\":10673:10677   */\n      dup3\n        /* \"#utility.yul\":10665:10671   */\n      dup3\n        /* \"#utility.yul\":10645:10678   */\n      tag_224\n      jump\t// in\n    tag_223:\n        /* \"#utility.yul\":10555:10684   */\n      swap2\n      swap1\n      pop\n      jump\t// out\n        /* \"#utility.yul\":10690:10765   */\n    tag_222:\n        /* \"#utility.yul\":10723:10729   */\n      0x00\n        /* \"#utility.yul\":10756:10758   */\n      0x40\n        /* \"#utility.yul\":10750:10759   */\n      mload\n        /* \"#utility.yul\":10740:10759   */\n      swap1\n      pop\n        /* \"#utility.yul\":10690:10765   */\n      swap1\n      jump\t// out\n        /* \"#utility.yul\":10771:11078   */\n    tag_93:\n        /* \"#utility.yul\":10832:10836   */\n      0x00\n        /* \"#utility.yul\":10922:10940   */\n      0xffffffffffffffff\n        /* \"#utility.yul\":10914:10920   */\n      dup3\n        /* \"#utility.yul\":10911:10941   */\n      gt\n        /* \"#utility.yul\":10908:10964   */\n      iszero\n      tag_227\n      jumpi\n        /* \"#utility.yul\":10944:10962   */\n      tag_228\n      tag_53\n      jump\t// in\n    tag_228:\n        /* \"#utility.yul\":10908:10964   */\n    tag_227:\n        /* \"#utility.yul\":10982:11011   */\n      tag_229\n        /* \"#utility.yul\":11004:11010   */\n      dup3\n        /* \"#utility.yul\":10982:11011   */\n      tag_152\n      jump\t// in\n    tag_229:\n        /* \"#utility.yul\":10974:11011   */\n      swap1\n      pop\n        /* \"#utility.yul\":11066:11070   */\n      0x20\n        /* \"#utility.yul\":11060:11064   */\n      dup2\n        /* \"#utility.yul\":11056:11071   */\n      add\n        /* \"#utility.yul\":11048:11071   */\n      swap1\n      pop\n        /* \"#utility.yul\":10771:11078   */\n      swap2\n      swap1\n      pop\n      jump\t// out\n        /* \"#utility.yul\":11084:11182   */\n    tag_146:\n        /* \"#utility.yul\":11135:11141   */\n      0x00\n        /* \"#utility.yul\":11169:11174   */\n      dup2\n        /* \"#utility.yul\":11163:11175   */\n      mload\n        /* \"#utility.yul\":11153:11175   */\n      swap1\n      pop\n        /* \"#utility.yul\":11084:11182   */\n      swap2\n      swap1\n      pop\n      jump\t// out\n        /* \"#utility.yul\":11188:11287   */\n    tag_156:\n        /* \"#utility.yul\":11240:11246   */\n      0x00\n        /* \"#utility.yul\":11274:11279   */\n      dup2\n        /* \"#utility.yul\":11268:11280   */\n      mload\n        /* \"#utility.yul\":11258:11280   */\n      swap1\n      pop\n        /* \"#utility.yul\":11188:11287   */\n      swap2\n      swap1\n      pop\n      jump\t// out\n        /* \"#utility.yul\":11293:11461   */\n    tag_148:\n        /* \"#utility.yul\":11376:11387   */\n      0x00\n        /* \"#utility.yul\":11410:11416   */\n      dup3\n        /* \"#utility.yul\":11405:11408   */\n      dup3\n        /* \"#utility.yul\":11398:11417   */\n      mstore\n        /* \"#utility.yul\":11450:11454   */\n      0x20\n        /* \"#utility.yul\":11445:11448   */\n      dup3\n        /* \"#utility.yul\":11441:11455   */\n      add\n        /* \"#utility.yul\":11426:11455   */\n      swap1\n      pop\n        /* \"#utility.yul\":11293:11461   */\n      swap3\n      swap2\n      pop\n      pop\n      jump\t// out\n        /* \"#utility.yul\":11467:11636   */\n    tag_158:\n        /* \"#utility.yul\":11551:11562   */\n      0x00\n        /* \"#utility.yul\":11585:11591   */\n      dup3\n        /* \"#utility.yul\":11580:11583   */\n      dup3\n        /* \"#utility.yul\":11573:11592   */\n      mstore\n        /* \"#utility.yul\":11625:11629   */\n      0x20\n        /* \"#utility.yul\":11620:11623   */\n      dup3\n        /* \"#utility.yul\":11616:11630   */\n      add\n        /* \"#utility.yul\":11601:11630   */\n      swap1\n      pop\n        /* \"#utility.yul\":11467:11636   */\n      swap3\n      swap2\n      pop\n      pop\n      jump\t// out\n        /* \"#utility.yul\":11642:11947   */\n    tag_43:\n        /* \"#utility.yul\":11682:11685   */\n      0x00\n        /* \"#utility.yul\":11701:11721   */\n      tag_235\n        /* \"#utility.yul\":11719:11720   */\n      dup3\n        /* \"#utility.yul\":11701:11721   */\n      tag_194\n      jump\t// in\n    tag_235:\n        /* \"#utility.yul\":11696:11721   */\n      swap2\n      pop\n        /* \"#utility.yul\":11735:11755   */\n      tag_236\n        /* \"#utility.yul\":11753:11754   */\n      dup4\n        /* \"#utility.yul\":11735:11755   */\n      tag_194\n      jump\t// in\n    tag_236:\n        /* \"#utility.yul\":11730:11755   */\n      swap3\n      pop\n        /* \"#utility.yul\":11889:11890   */\n      dup3\n        /* \"#utility.yul\":11821:11887   */\n      0xffffffffffffffffffffffffffffffffffffffffffffffffffffffffffffffff\n        /* \"#utility.yul\":11817:11891   */\n      sub\n        /* \"#utility.yul\":11814:11815   */\n      dup3\n        /* \"#utility.yul\":11811:11892   */\n      gt\n        /* \"#utility.yul\":11808:11915   */\n      iszero\n      tag_237\n      jumpi\n        /* \"#utility.yul\":11895:11913   */\n      tag_238\n      tag_239\n      jump\t// in\n    tag_238:\n        /* \"#utility.yul\":11808:11915   */\n    tag_237:\n        /* \"#utility.yul\":11939:11940   */\n      dup3\n        /* \"#utility.yul\":11936:11937   */\n      dup3\n        /* \"#utility.yul\":11932:11941   */\n      add\n        /* \"#utility.yul\":11925:11941   */\n      swap1\n      pop\n        /* \"#utility.yul\":11642:11947   */\n      swap3\n      swap2\n      pop\n      pop\n      jump\t// out\n        /* \"#utility.yul\":11953:12049   */\n    tag_142:\n        /* \"#utility.yul\":11990:11997   */\n      0x00\n        /* \"#utility.yul\":12019:12043   */\n      tag_241\n        /* \"#utility.yul\":12037:12042   */\n      dup3\n        /* \"#utility.yul\":12019:12043   */\n      tag_242\n      jump\t// in\n    tag_241:\n        /* \"#utility.yul\":12008:12043   */\n      swap1\n      pop\n        /* \"#utility.yul\":11953:12049   */\n      swap2\n      swap1\n      pop\n      jump\t// out\n        /* \"#utility.yul\":12055:12204   */\n    tag_243:\n        /* \"#utility.yul\":12091:12098   */\n      0x00\n        /* \"#utility.yul\":12131:12197   */\n      0xffffffff00000000000000000000000000000000000000000000000000000000\n        /* \"#utility.yul\":12124:12129   */\n      dup3\n        /* \"#utility.yul\":12120:12198   */\n      and\n        /* \"#utility.yul\":12109:12198   */\n      swap1\n      pop\n        /* \"#utility.yul\":12055:12204   */\n      swap2\n      swap1\n      pop\n      jump\t// out\n        /* \"#utility.yul\":12210:12336   */\n    tag_242:\n        /* \"#utility.yul\":12247:12254   */\n      0x00\n        /* \"#utility.yul\":12287:12329   */\n      0xffffffffffffffffffffffffffffffffffffffff\n        /* \"#utility.yul\":12280:12285   */\n      dup3\n        /* \"#utility.yul\":12276:12330   */\n      and\n        /* \"#utility.yul\":12265:12330   */\n      swap1\n      pop\n        /* \"#utility.yul\":12210:12336   */\n      swap2\n      swap1\n      pop\n      jump\t// out\n        /* \"#utility.yul\":12342:12419   */\n    tag_194:\n        /* \"#utility.yul\":12379:12386   */\n      0x00\n        /* \"#utility.yul\":12408:12413   */\n      dup2\n        /* \"#utility.yul\":12397:12413   */\n      swap1\n      pop\n        /* \"#utility.yul\":12342:12419   */\n      swap2\n      swap1\n      pop\n      jump\t// out\n        /* \"#utility.yul\":12425:12579   */\n    tag_99:\n        /* \"#utility.yul\":12509:12515   */\n      dup3\n        /* \"#utility.yul\":12504:12507   */\n      dup2\n        /* \"#utility.yul\":12499:12502   */\n      dup4\n        /* \"#utility.yul\":12486:12516   */\n      calldatacopy\n        /* \"#utility.yul\":12571:12572   */\n      0x00\n        /* \"#utility.yul\":12562:12568   */\n      dup4\n        /* \"#utility.yul\":12557:12560   */\n      dup4\n        /* \"#utility.yul\":12553:12569   */\n      add\n        /* \"#utility.yul\":12546:12573   */\n      mstore\n        /* \"#utility.yul\":12425:12579   */\n      pop\n      pop\n      pop\n      jump\t// out\n        /* \"#utility.yul\":12585:12892   */\n    tag_150:\n        /* \"#utility.yul\":12653:12654   */\n      0x00\n        /* \"#utility.yul\":12663:12776   */\n    tag_249:\n        /* \"#utility.yul\":12677:12683   */\n      dup4\n        /* \"#utility.yul\":12674:12675   */\n      dup2\n        /* \"#utility.yul\":12671:12684   */\n      lt\n        /* \"#utility.yul\":12663:12776   */\n      iszero\n      tag_251\n      jumpi\n        /* \"#utility.yul\":12762:12763   */\n      dup1\n        /* \"#utility.yul\":12757:12760   */\n      dup3\n        /* \"#utility.yul\":12753:12764   */\n      add\n        /* \"#utility.yul\":12747:12765   */\n      mload\n        /* \"#utility.yul\":12743:12744   */\n      dup2\n        /* \"#utility.yul\":12738:12741   */\n      dup5\n        /* \"#utility.yul\":12734:12745   */\n      add\n        /* \"#utility.yul\":12727:12766   */\n      mstore\n        /* \"#utility.yul\":12699:12701   */\n      0x20\n        /* \"#utility.yul\":12696:12697   */\n      dup2\n        /* \"#utility.yul\":12692:12702   */\n      add\n        /* \"#utility.yul\":12687:12702   */\n      swap1\n      pop\n        /* \"#utility.yul\":12663:12776   */\n      jump(tag_249)\n    tag_251:\n        /* \"#utility.yul\":12794:12800   */\n      dup4\n        /* \"#utility.yul\":12791:12792   */\n      dup2\n        /* \"#utility.yul\":12788:12801   */\n      gt\n        /* \"#utility.yul\":12785:12886   */\n      iszero\n      tag_252\n      jumpi\n        /* \"#utility.yul\":12874:12875   */\n      0x00\n        /* \"#utility.yul\":12865:12871   */\n      dup5\n        /* \"#utility.yul\":12860:12863   */\n      dup5\n        /* \"#utility.yul\":12856:12872   */\n      add\n        /* \"#utility.yul\":12849:12876   */\n      mstore\n        /* \"#utility.yul\":12785:12886   */\n    tag_252:\n        /* \"#utility.yul\":12634:12892   */\n      pop\n        /* \"#utility.yul\":12585:12892   */\n      pop\n      pop\n      pop\n      jump\t// out\n        /* \"#utility.yul\":12898:13179   */\n    tag_224:\n        /* \"#utility.yul\":12981:13008   */\n      tag_254\n        /* \"#utility.yul\":13003:13007   */\n      dup3\n        /* \"#utility.yul\":12981:13008   */\n      tag_152\n      jump\t// in\n    tag_254:\n        /* \"#utility.yul\":12973:12979   */\n      dup2\n        /* \"#utility.yul\":12969:13009   */\n      add\n        /* \"#utility.yul\":13111:13117   */\n      dup2\n        /* \"#utility.yul\":13099:13109   */\n      dup2\n        /* \"#utility.yul\":13096:13118   */\n      lt\n        /* \"#utility.yul\":13075:13093   */\n      0xffffffffffffffff\n        /* \"#utility.yul\":13063:13073   */\n      dup3\n        /* \"#utility.yul\":13060:13094   */\n      gt\n        /* \"#utility.yul\":13057:13119   */\n      or\n        /* \"#utility.yul\":13054:13142   */\n      iszero\n      tag_255\n      jumpi\n        /* \"#utility.yul\":13122:13140   */\n      tag_256\n      tag_53\n      jump\t// in\n    tag_256:\n        /* \"#utility.yul\":13054:13142   */\n    tag_255:\n        /* \"#utility.yul\":13162:13172   */\n      dup1\n        /* \"#utility.yul\":13158:13160   */\n      0x40\n        /* \"#utility.yul\":13151:13173   */\n      mstore\n        /* \"#utility.yul\":12941:13179   */\n      pop\n        /* \"#utility.yul\":12898:13179   */\n      pop\n      pop\n      jump\t// out\n        /* \"#utility.yul\":13185:13365   */\n    tag_239:\n        /* \"#utility.yul\":13233:13310   */\n      0x4e487b7100000000000000000000000000000000000000000000000000000000\n        /* \"#utility.yul\":13230:13231   */\n      0x00\n        /* \"#utility.yul\":13223:13311   */\n      mstore\n        /* \"#utility.yul\":13330:13334   */\n      0x11\n        /* \"#utility.yul\":13327:13328   */\n      0x04\n        /* \"#utility.yul\":13320:13335   */\n      mstore\n        /* \"#utility.yul\":13354:13358   */\n      0x24\n        /* \"#utility.yul\":13351:13352   */\n      0x00\n        /* \"#utility.yul\":13344:13359   */\n      revert\n        /* \"#utility.yul\":13371:13551   */\n    tag_57:\n        /* \"#utility.yul\":13419:13496   */\n      0x4e487b7100000000000000000000000000000000000000000000000000000000\n        /* \"#utility.yul\":13416:13417   */\n      0x00\n        /* \"#utility.yul\":13409:13497   */\n      mstore\n        /* \"#utility.yul\":13516:13520   */\n      0x32\n        /* \"#utility.yul\":13513:13514   */\n      0x04\n        /* \"#utility.yul\":13506:13521   */\n      mstore\n        /* \"#utility.yul\":13540:13544   */\n      0x24\n        /* \"#utility.yul\":13537:13538   */\n      0x00\n        /* \"#utility.yul\":13530:13545   */\n      revert\n        /* \"#utility.yul\":13557:13737   */\n    tag_53:\n        /* \"#utility.yul\":13605:13682   */\n      0x4e487b7100000000000000000000000000000000000000000000000000000000\n        /* \"#utility.yul\":13602:13603   */\n      0x00\n        /* \"#utility.yul\":13595:13683   */\n      mstore\n        /* \"#utility.yul\":13702:13706   */\n      0x41\n        /* \"#utility.yul\":13699:13700   */\n      0x04\n        /* \"#utility.yul\":13692:13707   */\n      mstore\n        /* \"#utility.yul\":13726:13730   */\n      0x24\n        /* \"#utility.yul\":13723:13724   */\n      0x00\n        /* \"#utility.yul\":13716:13731   */\n      revert\n        /* \"#utility.yul\":13743:13926   */\n    tag_75:\n        /* \"#utility.yul\":13778:13781   */\n      0x00\n        /* \"#utility.yul\":13816:13817   */\n      0x03\n        /* \"#utility.yul\":13798:13814   */\n      returndatasize\n        /* \"#utility.yul\":13795:13818   */\n      gt\n        /* \"#utility.yul\":13792:13920   */\n      iszero\n      tag_261\n      jumpi\n        /* \"#utility.yul\":13854:13855   */\n      0x04\n        /* \"#utility.yul\":13851:13852   */\n      0x00\n        /* \"#utility.yul\":13848:13849   */\n      dup1\n        /* \"#utility.yul\":13833:13856   */\n      returndatacopy\n        /* \"#utility.yul\":13876:13910   */\n      tag_262\n        /* \"#utility.yul\":13907:13908   */\n      0x00\n        /* \"#utility.yul\":13901:13909   */\n      mload\n        /* \"#utility.yul\":13876:13910   */\n      tag_263\n      jump\t// in\n    tag_262:\n        /* \"#utility.yul\":13869:13910   */\n      swap1\n      pop\n        /* \"#utility.yul\":13792:13920   */\n    tag_261:\n        /* \"#utility.yul\":13743:13926   */\n      swap1\n      jump\t// out\n        /* \"#utility.yul\":13932:14049   */\n    tag_112:\n        /* \"#utility.yul\":14041:14042   */\n      0x00\n        /* \"#utility.yul\":14038:14039   */\n      dup1\n        /* \"#utility.yul\":14031:14043   */\n      revert\n        /* \"#utility.yul\":14055:14172   */\n    tag_97:\n        /* \"#utility.yul\":14164:14165   */\n      0x00\n        /* \"#utility.yul\":14161:14162   */\n      dup1\n        /* \"#utility.yul\":14154:14166   */\n      revert\n        /* \"#utility.yul\":14178:14295   */\n    tag_128:\n        /* \"#utility.yul\":14287:14288   */\n      0x00\n        /* \"#utility.yul\":14284:14285   */\n      dup1\n        /* \"#utility.yul\":14277:14289   */\n      revert\n        /* \"#utility.yul\":14301:14418   */\n    tag_121:\n        /* \"#utility.yul\":14410:14411   */\n      0x00\n        /* \"#utility.yul\":14407:14408   */\n      dup1\n        /* \"#utility.yul\":14400:14412   */\n      revert\n        /* \"#utility.yul\":14424:14526   */\n    tag_152:\n        /* \"#utility.yul\":14465:14471   */\n      0x00\n        /* \"#utility.yul\":14516:14518   */\n      0x1f\n        /* \"#utility.yul\":14512:14519   */\n      not\n        /* \"#utility.yul\":14507:14509   */\n      0x1f\n        /* \"#utility.yul\":14500:14505   */\n      dup4\n        /* \"#utility.yul\":14496:14510   */\n      add\n        /* \"#utility.yul\":14492:14520   */\n      and\n        /* \"#utility.yul\":14482:14520   */\n      swap1\n      pop\n        /* \"#utility.yul\":14424:14526   */\n      swap2\n      swap1\n      pop\n      jump\t// out\n        /* \"#utility.yul\":14532:14638   */\n    tag_263:\n        /* \"#utility.yul\":14576:14584   */\n      0x00\n        /* \"#utility.yul\":14625:14630   */\n      dup2\n        /* \"#utility.yul\":14620:14623   */\n      0xe0\n        /* \"#utility.yul\":14616:14631   */\n      shr\n        /* \"#utility.yul\":14595:14631   */\n      swap1\n      pop\n        /* \"#utility.yul\":14532:14638   */\n      swap2\n      swap1\n      pop\n      jump\t// out\n        /* \"#utility.yul\":14644:14883   */\n    tag_165:\n        /* \"#utility.yul\":14784:14818   */\n      0x455243313135353a207472616e7366657220746f206e6f6e2045524331313535\n        /* \"#utility.yul\":14780:14781   */\n      0x00\n        /* \"#utility.yul\":14772:14778   */\n      dup3\n        /* \"#utility.yul\":14768:14782   */\n      add\n        /* \"#utility.yul\":14761:14819   */\n      mstore\n        /* \"#utility.yul\":14853:14875   */\n      0x526563656976657220696d706c656d656e746572000000000000000000000000\n        /* \"#utility.yul\":14848:14850   */\n      0x20\n        /* \"#utility.yul\":14840:14846   */\n      dup3\n        /* \"#utility.yul\":14836:14851   */\n      add\n        /* \"#utility.yul\":14829:14876   */\n      mstore\n        /* \"#utility.yul\":14644:14883   */\n      pop\n      jump\t// out\n        /* \"#utility.yul\":14889:15123   */\n    tag_170:\n        /* \"#utility.yul\":15029:15063   */\n      0x455243313135353a2063616c6c6572206973206e6f7420746f6b656e206f776e\n        /* \"#utility.yul\":15025:15026   */\n      0x00\n        /* \"#utility.yul\":15017:15023   */\n      dup3\n        /* \"#utility.yul\":15013:15027   */\n      add\n        /* \"#utility.yul\":15006:15064   */\n      mstore\n        /* \"#utility.yul\":15098:15115   */\n      0x6572206e6f7220617070726f7665640000000000000000000000000000000000\n        /* \"#utility.yul\":15093:15095   */\n      0x20\n        /* \"#utility.yul\":15085:15091   */\n      dup3\n        /* \"#utility.yul\":15081:15096   */\n      add\n        /* \"#utility.yul\":15074:15116   */\n      mstore\n        /* \"#utility.yul\":14889:15123   */\n      pop\n      jump\t// out\n        /* \"#utility.yul\":15129:15356   */\n    tag_175:\n        /* \"#utility.yul\":15269:15303   */\n      0x455243313135353a204552433131353552656365697665722072656a65637465\n        /* \"#utility.yul\":15265:15266   */\n      0x00\n        /* \"#utility.yul\":15257:15263   */\n      dup3\n        /* \"#utility.yul\":15253:15267   */\n      add\n        /* \"#utility.yul\":15246:15304   */\n      mstore\n        /* \"#utility.yul\":15338:15348   */\n      0x6420746f6b656e73000000000000000000000000000000000000000000000000\n        /* \"#utility.yul\":15333:15335   */\n      0x20\n        /* \"#utility.yul\":15325:15331   */\n      dup3\n        /* \"#utility.yul\":15321:15336   */\n      add\n        /* \"#utility.yul\":15314:15349   */\n      mstore\n        /* \"#utility.yul\":15129:15356   */\n      pop\n      jump\t// out\n        /* \"#utility.yul\":15362:15591   */\n    tag_180:\n        /* \"#utility.yul\":15502:15536   */\n      0x455243313135353a2061646472657373207a65726f206973206e6f7420612076\n        /* \"#utility.yul\":15498:15499   */\n      0x00\n        /* \"#utility.yul\":15490:15496   */\n      dup3\n        /* \"#utility.yul\":15486:15500   */\n      add\n        /* \"#utility.yul\":15479:15537   */\n      mstore\n        /* \"#utility.yul\":15571:15583   */\n      0x616c6964206f776e657200000000000000000000000000000000000000000000\n        /* \"#utility.yul\":15566:15568   */\n      0x20\n        /* \"#utility.yul\":15558:15564   */\n      dup3\n        /* \"#utility.yul\":15554:15569   */\n      add\n        /* \"#utility.yul\":15547:15584   */\n      mstore\n        /* \"#utility.yul\":15362:15591   */\n      pop\n      jump\t// out\n        /* \"#utility.yul\":15597:15821   */\n    tag_185:\n        /* \"#utility.yul\":15737:15771   */\n      0x455243313135353a207472616e7366657220746f20746865207a65726f206164\n        /* \"#utility.yul\":15733:15734   */\n      0x00\n        /* \"#utility.yul\":15725:15731   */\n      dup3\n        /* \"#utility.yul\":15721:15735   */\n      add\n        /* \"#utility.yul\":15714:15772   */\n      mstore\n        /* \"#utility.yul\":15806:15813   */\n      0x6472657373000000000000000000000000000000000000000000000000000000\n        /* \"#utility.yul\":15801:15803   */\n      0x20\n        /* \"#utility.yul\":15793:15799   */\n      dup3\n        /* \"#utility.yul\":15789:15804   */\n      add\n        /* \"#utility.yul\":15782:15814   */\n      mstore\n        /* \"#utility.yul\":15597:15821   */\n      pop\n      jump\t// out\n        /* \"#utility.yul\":15827:16056   */\n    tag_190:\n        /* \"#utility.yul\":15967:16001   */\n      0x455243313135353a20696e73756666696369656e742062616c616e636520666f\n        /* \"#utility.yul\":15963:15964   */\n      0x00\n        /* \"#utility.yul\":15955:15961   */\n      dup3\n        /* \"#utility.yul\":15951:15965   */\n      add\n        /* \"#utility.yul\":15944:16002   */\n      mstore\n        /* \"#utility.yul\":16036:16048   */\n      0x72207472616e7366657200000000000000000000000000000000000000000000\n        /* \"#utility.yul\":16031:16033   */\n      0x20\n        /* \"#utility.yul\":16023:16029   */\n      dup3\n        /* \"#utility.yul\":16019:16034   */\n      add\n        /* \"#utility.yul\":16012:16049   */\n      mstore\n        /* \"#utility.yul\":15827:16056   */\n      pop\n      jump\t// out\n        /* \"#utility.yul\":16062:16773   */\n    tag_77:\n        /* \"#utility.yul\":16101:16104   */\n      0x00\n        /* \"#utility.yul\":16139:16143   */\n      0x44\n        /* \"#utility.yul\":16121:16137   */\n      returndatasize\n        /* \"#utility.yul\":16118:16144   */\n      lt\n        /* \"#utility.yul\":16115:16154   */\n      iszero\n      tag_277\n      jumpi\n        /* \"#utility.yul\":16147:16152   */\n      jump(tag_276)\n        /* \"#utility.yul\":16115:16154   */\n    tag_277:\n        /* \"#utility.yul\":16176:16196   */\n      tag_278\n      tag_222\n      jump\t// in\n    tag_278:\n        /* \"#utility.yul\":16251:16252   */\n      0x04\n        /* \"#utility.yul\":16233:16249   */\n      returndatasize\n        /* \"#utility.yul\":16229:16253   */\n      sub\n        /* \"#utility.yul\":16226:16227   */\n      0x04\n        /* \"#utility.yul\":16220:16224   */\n      dup3\n        /* \"#utility.yul\":16205:16254   */\n      returndatacopy\n        /* \"#utility.yul\":16284:16288   */\n      dup1\n        /* \"#utility.yul\":16278:16289   */\n      mload\n        /* \"#utility.yul\":16383:16399   */\n      returndatasize\n        /* \"#utility.yul\":16376:16380   */\n      0x24\n        /* \"#utility.yul\":16368:16374   */\n      dup3\n        /* \"#utility.yul\":16364:16381   */\n      add\n        /* \"#utility.yul\":16361:16400   */\n      gt\n        /* \"#utility.yul\":16328:16346   */\n      0xffffffffffffffff\n        /* \"#utility.yul\":16320:16326   */\n      dup3\n        /* \"#utility.yul\":16317:16347   */\n      gt\n        /* \"#utility.yul\":16301:16414   */\n      or\n        /* \"#utility.yul\":16298:16444   */\n      iszero\n      tag_279\n      jumpi\n        /* \"#utility.yul\":16429:16434   */\n      pop\n      pop\n      jump(tag_276)\n        /* \"#utility.yul\":16298:16444   */\n    tag_279:\n        /* \"#utility.yul\":16475:16481   */\n      dup1\n        /* \"#utility.yul\":16469:16473   */\n      dup3\n        /* \"#utility.yul\":16465:16482   */\n      add\n        /* \"#utility.yul\":16511:16514   */\n      dup1\n        /* \"#utility.yul\":16505:16515   */\n      mload\n        /* \"#utility.yul\":16538:16556   */\n      0xffffffffffffffff\n        /* \"#utility.yul\":16530:16536   */\n      dup2\n        /* \"#utility.yul\":16527:16557   */\n      gt\n        /* \"#utility.yul\":16524:16567   */\n      iszero\n      tag_280\n      jumpi\n        /* \"#utility.yul\":16560:16565   */\n      pop\n      pop\n      pop\n      pop\n      jump(tag_276)\n        /* \"#utility.yul\":16524:16567   */\n    tag_280:\n        /* \"#utility.yul\":16608:16614   */\n      dup1\n        /* \"#utility.yul\":16601:16605   */\n      0x20\n        /* \"#utility.yul\":16596:16599   */\n      dup4\n        /* \"#utility.yul\":16592:16606   */\n      add\n        /* \"#utility.yul\":16588:16615   */\n      add\n        /* \"#utility.yul\":16667:16668   */\n      0x04\n        /* \"#utility.yul\":16649:16665   */\n      returndatasize\n        /* \"#utility.yul\":16645:16669   */\n      sub\n        /* \"#utility.yul\":16639:16643   */\n      dup6\n        /* \"#utility.yul\":16635:16670   */\n      add\n        /* \"#utility.yul\":16630:16633   */\n      dup2\n        /* \"#utility.yul\":16627:16671   */\n      gt\n        /* \"#utility.yul\":16624:16681   */\n      iszero\n      tag_281\n      jumpi\n        /* \"#utility.yul\":16674:16679   */\n      pop\n      pop\n      pop\n      pop\n      pop\n      jump(tag_276)\n        /* \"#utility.yul\":16624:16681   */\n    tag_281:\n        /* \"#utility.yul\":16691:16748   */\n      tag_282\n        /* \"#utility.yul\":16739:16745   */\n      dup3\n        /* \"#utility.yul\":16733:16737   */\n      0x20\n        /* \"#utility.yul\":16729:16746   */\n      add\n        /* \"#utility.yul\":16721:16727   */\n      dup6\n        /* \"#utility.yul\":16717:16747   */\n      add\n        /* \"#utility.yul\":16711:16715   */\n      dup7\n        /* \"#utility.yul\":16691:16748   */\n      tag_224\n      jump\t// in\n    tag_282:\n        /* \"#utility.yul\":16764:16767   */\n      dup3\n        /* \"#utility.yul\":16757:16767   */\n      swap6\n      pop\n        /* \"#utility.yul\":16105:16773   */\n      pop\n      pop\n      pop\n      pop\n      pop\n        /* \"#utility.yul\":16062:16773   */\n    tag_276:\n      swap1\n      jump\t// out\n        /* \"#utility.yul\":16779:16901   */\n    tag_103:\n        /* \"#utility.yul\":16852:16876   */\n      tag_284\n        /* \"#utility.yul\":16870:16875   */\n      dup2\n        /* \"#utility.yul\":16852:16876   */\n      tag_142\n      jump\t// in\n    tag_284:\n        /* \"#utility.yul\":16845:16850   */\n      dup2\n        /* \"#utility.yul\":16842:16877   */\n      eq\n        /* \"#utility.yul\":16832:16895   */\n      tag_285\n      jumpi\n        /* \"#utility.yul\":16891:16892   */\n      0x00\n        /* \"#utility.yul\":16888:16889   */\n      dup1\n        /* \"#utility.yul\":16881:16893   */\n      revert\n        /* \"#utility.yul\":16832:16895   */\n    tag_285:\n        /* \"#utility.yul\":16779:16901   */\n      pop\n      jump\t// out\n        /* \"#utility.yul\":16907:17027   */\n    tag_107:\n        /* \"#utility.yul\":16979:17002   */\n      tag_287\n        /* \"#utility.yul\":16996:17001   */\n      dup2\n        /* \"#utility.yul\":16979:17002   */\n      tag_243\n      jump\t// in\n    tag_287:\n        /* \"#utility.yul\":16972:16977   */\n      dup2\n        /* \"#utility.yul\":16969:17003   */\n      eq\n        /* \"#utility.yul\":16959:17021   */\n      tag_288\n      jumpi\n        /* \"#utility.yul\":17017:17018   */\n      0x00\n        /* \"#utility.yul\":17014:17015   */\n      dup1\n        /* \"#utility.yul\":17007:17019   */\n      revert\n        /* \"#utility.yul\":16959:17021   */\n    tag_288:\n        /* \"#utility.yul\":16907:17027   */\n      pop\n      jump\t// out\n        /* \"#utility.yul\":17033:17155   */\n    tag_117:\n        /* \"#utility.yul\":17106:17130   */\n      tag_290\n        /* \"#utility.yul\":17124:17129   */\n      dup2\n        /* \"#utility.yul\":17106:17130   */\n      tag_194\n      jump\t// in\n    tag_290:\n        /* \"#utility.yul\":17099:17104   */\n      dup2\n        /* \"#utility.yul\":17096:17131   */\n      eq\n        /* \"#utility.yul\":17086:17149   */\n      tag_291\n      jumpi\n        /* \"#utility.yul\":17145:17146   */\n      0x00\n        /* \"#utility.yul\":17142:17143   */\n      dup1\n        /* \"#utility.yul\":17135:17147   */\n      revert\n        /* \"#utility.yul\":17086:17149   */\n    tag_291:\n        /* \"#utility.yul\":17033:17155   */\n      pop\n      jump\t// out\n\n    auxdata: 0xa2646970667358221220afe302e986d9a75312b143b213d24e144b571ce446e4c994f44005357956fe3364736f6c63430008070033\n}\n",
				"bytecode": {
					"linkReferences": {},
					"object": "608060405234801561001057600080fd5b50611150806100206000396000f3fe608060405234801561001057600080fd5b50600436106100355760003560e01c8062fdd58e1461003a578063f242432a1461006a575b600080fd5b610054600480360381019061004f9190610876565b610086565b6040516100619190610b81565b60405180910390f35b610084600480360381019061007f91906107df565b61014f565b005b60008073ffffffffffffffffffffffffffffffffffffffff168373ffffffffffffffffffffffffffffffffffffffff1614156100f7576040517f08c379a00000000000000000000000000000000000000000000000000000000081526004016100ee90610b21565b60405180910390fd5b60008083815260200190815260200160002060008473ffffffffffffffffffffffffffffffffffffffff1673ffffffffffffffffffffffffffffffffffffffff16815260200190815260200160002054905092915050565b61015761020e565b73ffffffffffffffffffffffffffffffffffffffff168573ffffffffffffffffffffffffffffffffffffffff1614806101bb57503073ffffffffffffffffffffffffffffffffffffffff168573ffffffffffffffffffffffffffffffffffffffff16145b6101fa576040517f08c379a00000000000000000000000000000000000000000000000000000000081526004016101f190610ae1565b60405180910390fd5b6102078585858585610216565b5050505050565b600033905090565b600073ffffffffffffffffffffffffffffffffffffffff168473ffffffffffffffffffffffffffffffffffffffff161415610286576040517f08c379a000000000000000000000000000000000000000000000000000000000815260040161027d90610b41565b60405180910390fd5b600061029061020e565b9050600061029d856104b2565b905060006102aa856104b2565b90506102ba83898985858961052c565b600080600088815260200190815260200160002060008a73ffffffffffffffffffffffffffffffffffffffff1673ffffffffffffffffffffffffffffffffffffffff16815260200190815260200160002054905085811015610351576040517f08c379a000000000000000000000000000000000000000000000000000000000815260040161034890610b61565b60405180910390fd5b85810360008089815260200190815260200160002060008b73ffffffffffffffffffffffffffffffffffffffff1673ffffffffffffffffffffffffffffffffffffffff168152602001908152602001600020819055508560008089815260200190815260200160002060008a73ffffffffffffffffffffffffffffffffffffffff1673ffffffffffffffffffffffffffffffffffffffff16815260200190815260200160002060008282546104069190610c53565b925050819055508773ffffffffffffffffffffffffffffffffffffffff168973ffffffffffffffffffffffffffffffffffffffff168573ffffffffffffffffffffffffffffffffffffffff167fc3d58168c5ae7397731d063d5bbf3d657854427343f4c083240f7aacaa2d0f628a8a604051610483929190610b9c565b60405180910390a4610499848a8a86868a610534565b6104a7848a8a8a8a8a61053c565b505050505050505050565b60606000600167ffffffffffffffff8111156104d1576104d0610de2565b5b6040519080825280602002602001820160405280156104ff5781602001602082028036833780820191505090505b509050828160008151811061051757610516610db3565b5b60200260200101818152505080915050919050565b505050505050565b505050505050565b6105458461070d565b15610705578373ffffffffffffffffffffffffffffffffffffffff1663f23a6e6187878686866040518663ffffffff1660e01b815260040161058b959493929190610a45565b602060405180830381600087803b1580156105a557600080fd5b505af19250505080156105d657506040513d601f19601f820116820180604052508101906105d391906108b6565b60015b61067c576105e2610e11565b806308c379a0141561063f57506105f761103f565b806106025750610641565b806040517f08c379a00000000000000000000000000000000000000000000000000000000081526004016106369190610a9f565b60405180910390fd5b505b6040517f08c379a000000000000000000000000000000000000000000000000000000000815260040161067390610ac1565b60405180910390fd5b63f23a6e6160e01b7bffffffffffffffffffffffffffffffffffffffffffffffffffffffff1916817bffffffffffffffffffffffffffffffffffffffffffffffffffffffff191614610703576040517f08c379a00000000000000000000000000000000000000000000000000000000081526004016106fa90610b01565b60405180910390fd5b505b505050505050565b6000808273ffffffffffffffffffffffffffffffffffffffff163b119050919050565b600061074361073e84610bea565b610bc5565b90508281526020810184848401111561075f5761075e610e38565b5b61076a848285610d11565b509392505050565b600081359050610781816110d5565b92915050565b600081519050610796816110ec565b92915050565b600082601f8301126107b1576107b0610e33565b5b81356107c1848260208601610730565b91505092915050565b6000813590506107d981611103565b92915050565b600080600080600060a086880312156107fb576107fa610e42565b5b600061080988828901610772565b955050602061081a88828901610772565b945050604061082b888289016107ca565b935050606061083c888289016107ca565b925050608086013567ffffffffffffffff81111561085d5761085c610e3d565b5b6108698882890161079c565b9150509295509295909350565b6000806040838503121561088d5761088c610e42565b5b600061089b85828601610772565b92505060206108ac858286016107ca565b9150509250929050565b6000602082840312156108cc576108cb610e42565b5b60006108da84828501610787565b91505092915050565b6108ec81610ca9565b82525050565b60006108fd82610c1b565b6109078185610c31565b9350610917818560208601610d20565b61092081610e47565b840191505092915050565b600061093682610c26565b6109408185610c42565b9350610950818560208601610d20565b61095981610e47565b840191505092915050565b6000610971603483610c42565b915061097c82610e65565b604082019050919050565b6000610994602f83610c42565b915061099f82610eb4565b604082019050919050565b60006109b7602883610c42565b91506109c282610f03565b604082019050919050565b60006109da602a83610c42565b91506109e582610f52565b604082019050919050565b60006109fd602583610c42565b9150610a0882610fa1565b604082019050919050565b6000610a20602a83610c42565b9150610a2b82610ff0565b604082019050919050565b610a3f81610d07565b82525050565b600060a082019050610a5a60008301886108e3565b610a6760208301876108e3565b610a746040830186610a36565b610a816060830185610a36565b8181036080830152610a9381846108f2565b90509695505050505050565b60006020820190508181036000830152610ab9818461092b565b905092915050565b60006020820190508181036000830152610ada81610964565b9050919050565b60006020820190508181036000830152610afa81610987565b9050919050565b60006020820190508181036000830152610b1a816109aa565b9050919050565b60006020820190508181036000830152610b3a816109cd565b9050919050565b60006020820190508181036000830152610b5a816109f0565b9050919050565b60006020820190508181036000830152610b7a81610a13565b9050919050565b6000602082019050610b966000830184610a36565b92915050565b6000604082019050610bb16000830185610a36565b610bbe6020830184610a36565b9392505050565b6000610bcf610be0565b9050610bdb8282610d53565b919050565b6000604051905090565b600067ffffffffffffffff821115610c0557610c04610de2565b5b610c0e82610e47565b9050602081019050919050565b600081519050919050565b600081519050919050565b600082825260208201905092915050565b600082825260208201905092915050565b6000610c5e82610d07565b9150610c6983610d07565b9250827fffffffffffffffffffffffffffffffffffffffffffffffffffffffffffffffff03821115610c9e57610c9d610d84565b5b828201905092915050565b6000610cb482610ce7565b9050919050565b60007fffffffff0000000000000000000000000000000000000000000000000000000082169050919050565b600073ffffffffffffffffffffffffffffffffffffffff82169050919050565b6000819050919050565b82818337600083830152505050565b60005b83811015610d3e578082015181840152602081019050610d23565b83811115610d4d576000848401525b50505050565b610d5c82610e47565b810181811067ffffffffffffffff82111715610d7b57610d7a610de2565b5b80604052505050565b7f4e487b7100000000000000000000000000000000000000000000000000000000600052601160045260246000fd5b7f4e487b7100000000000000000000000000000000000000000000000000000000600052603260045260246000fd5b7f4e487b7100000000000000000000000000000000000000000000000000000000600052604160045260246000fd5b600060033d1115610e305760046000803e610e2d600051610e58565b90505b90565b600080fd5b600080fd5b600080fd5b600080fd5b6000601f19601f8301169050919050565b60008160e01c9050919050565b7f455243313135353a207472616e7366657220746f206e6f6e204552433131353560008201527f526563656976657220696d706c656d656e746572000000000000000000000000602082015250565b7f455243313135353a2063616c6c6572206973206e6f7420746f6b656e206f776e60008201527f6572206e6f7220617070726f7665640000000000000000000000000000000000602082015250565b7f455243313135353a204552433131353552656365697665722072656a6563746560008201527f6420746f6b656e73000000000000000000000000000000000000000000000000602082015250565b7f455243313135353a2061646472657373207a65726f206973206e6f742061207660008201527f616c6964206f776e657200000000000000000000000000000000000000000000602082015250565b7f455243313135353a207472616e7366657220746f20746865207a65726f20616460008201527f6472657373000000000000000000000000000000000000000000000000000000602082015250565b7f455243313135353a20696e73756666696369656e742062616c616e636520666f60008201527f72207472616e7366657200000000000000000000000000000000000000000000602082015250565b600060443d101561104f576110d2565b611057610be0565b60043d036004823e80513d602482011167ffffffffffffffff8211171561107f5750506110d2565b808201805167ffffffffffffffff81111561109d57505050506110d2565b80602083010160043d0385018111156110ba5750505050506110d2565b6110c982602001850186610d53565b82955050505050505b90565b6110de81610ca9565b81146110e957600080fd5b50565b6110f581610cbb565b811461110057600080fd5b50565b61110c81610d07565b811461111757600080fd5b5056fea2646970667358221220afe302e986d9a75312b143b213d24e144b571ce446e4c994f44005357956fe3364736f6c63430008070033",
					"opcodes": "PUSH1 0x80 PUSH1 0x40 MSTORE CALLVALUE DUP1 ISZERO PUSH2 0x10 JUMPI PUSH1 0x0 DUP1 REVERT JUMPDEST POP PUSH2 0x1150 DUP1 PUSH2 0x20 PUSH1 0x0 CODECOPY PUSH1 0x0 RETURN INVALID PUSH1 0x80 PUSH1 0x40 MSTORE CALLVALUE DUP1 ISZERO PUSH2 0x10 JUMPI PUSH1 0x0 DUP1 REVERT JUMPDEST POP PUSH1 0x4 CALLDATASIZE LT PUSH2 0x35 JUMPI PUSH1 0x0 CALLDATALOAD PUSH1 0xE0 SHR DUP1 PUSH3 0xFDD58E EQ PUSH2 0x3A JUMPI DUP1 PUSH4 0xF242432A EQ PUSH2 0x6A JUMPI JUMPDEST PUSH1 0x0 DUP1 REVERT JUMPDEST PUSH2 0x54 PUSH1 0x4 DUP1 CALLDATASIZE SUB DUP2 ADD SWAP1 PUSH2 0x4F SWAP2 SWAP1 PUSH2 0x876 JUMP JUMPDEST PUSH2 0x86 JUMP JUMPDEST PUSH1 0x40 MLOAD PUSH2 0x61 SWAP2 SWAP1 PUSH2 0xB81 JUMP JUMPDEST PUSH1 0x40 MLOAD DUP1 SWAP2 SUB SWAP1 RETURN JUMPDEST PUSH2 0x84 PUSH1 0x4 DUP1 CALLDATASIZE SUB DUP2 ADD SWAP1 PUSH2 0x7F SWAP2 SWAP1 PUSH2 0x7DF JUMP JUMPDEST PUSH2 0x14F JUMP JUMPDEST STOP JUMPDEST PUSH1 0x0 DUP1 PUSH20 0xFFFFFFFFFFFFFFFFFFFFFFFFFFFFFFFFFFFFFFFF AND DUP4 PUSH20 0xFFFFFFFFFFFFFFFFFFFFFFFFFFFFFFFFFFFFFFFF AND EQ ISZERO PUSH2 0xF7 JUMPI PUSH1 0x40 MLOAD PUSH32 0x8C379A000000000000000000000000000000000000000000000000000000000 DUP2 MSTORE PUSH1 0x4 ADD PUSH2 0xEE SWAP1 PUSH2 0xB21 JUMP JUMPDEST PUSH1 0x40 MLOAD DUP1 SWAP2 SUB SWAP1 REVERT JUMPDEST PUSH1 0x0 DUP1 DUP4 DUP2 MSTORE PUSH1 0x20 ADD SWAP1 DUP2 MSTORE PUSH1 0x20 ADD PUSH1 0x0 KECCAK256 PUSH1 0x0 DUP5 PUSH20 0xFFFFFFFFFFFFFFFFFFFFFFFFFFFFFFFFFFFFFFFF AND PUSH20 0xFFFFFFFFFFFFFFFFFFFFFFFFFFFFFFFFFFFFFFFF AND DUP2 MSTORE PUSH1 0x20 ADD SWAP1 DUP2 MSTORE PUSH1 0x20 ADD PUSH1 0x0 KECCAK256 SLOAD SWAP1 POP SWAP3 SWAP2 POP POP JUMP JUMPDEST PUSH2 0x157 PUSH2 0x20E JUMP JUMPDEST PUSH20 0xFFFFFFFFFFFFFFFFFFFFFFFFFFFFFFFFFFFFFFFF AND DUP6 PUSH20 0xFFFFFFFFFFFFFFFFFFFFFFFFFFFFFFFFFFFFFFFF AND EQ DUP1 PUSH2 0x1BB JUMPI POP ADDRESS PUSH20 0xFFFFFFFFFFFFFFFFFFFFFFFFFFFFFFFFFFFFFFFF AND DUP6 PUSH20 0xFFFFFFFFFFFFFFFFFFFFFFFFFFFFFFFFFFFFFFFF AND EQ JUMPDEST PUSH2 0x1FA JUMPI PUSH1 0x40 MLOAD PUSH32 0x8C379A000000000000000000000000000000000000000000000000000000000 DUP2 MSTORE PUSH1 0x4 ADD PUSH2 0x1F1 SWAP1 PUSH2 0xAE1 JUMP JUMPDEST PUSH1 0x40 MLOAD DUP1 SWAP2 SUB SWAP1 REVERT JUMPDEST PUSH2 0x207 DUP6 DUP6 DUP6 DUP6 DUP6 PUSH2 0x216 JUMP JUMPDEST POP POP POP POP POP JUMP JUMPDEST PUSH1 0x0 CALLER SWAP1 POP SWAP1 JUMP JUMPDEST PUSH1 0x0 PUSH20 0xFFFFFFFFFFFFFFFFFFFFFFFFFFFFFFFFFFFFFFFF AND DUP5 PUSH20 0xFFFFFFFFFFFFFFFFFFFFFFFFFFFFFFFFFFFFFFFF AND EQ ISZERO PUSH2 0x286 JUMPI PUSH1 0x40 MLOAD PUSH32 0x8C379A000000000000000000000000000000000000000000000000000000000 DUP2 MSTORE PUSH1 0x4 ADD PUSH2 0x27D SWAP1 PUSH2 0xB41 JUMP JUMPDEST PUSH1 0x40 MLOAD DUP1 SWAP2 SUB SWAP1 REVERT JUMPDEST PUSH1 0x0 PUSH2 0x290 PUSH2 0x20E JUMP JUMPDEST SWAP1 POP PUSH1 0x0 PUSH2 0x29D DUP6 PUSH2 0x4B2 JUMP JUMPDEST SWAP1 POP PUSH1 0x0 PUSH2 0x2AA DUP6 PUSH2 0x4B2 JUMP JUMPDEST SWAP1 POP PUSH2 0x2BA DUP4 DUP10 DUP10 DUP6 DUP6 DUP10 PUSH2 0x52C JUMP JUMPDEST PUSH1 0x0 DUP1 PUSH1 0x0 DUP9 DUP2 MSTORE PUSH1 0x20 ADD SWAP1 DUP2 MSTORE PUSH1 0x20 ADD PUSH1 0x0 KECCAK256 PUSH1 0x0 DUP11 PUSH20 0xFFFFFFFFFFFFFFFFFFFFFFFFFFFFFFFFFFFFFFFF AND PUSH20 0xFFFFFFFFFFFFFFFFFFFFFFFFFFFFFFFFFFFFFFFF AND DUP2 MSTORE PUSH1 0x20 ADD SWAP1 DUP2 MSTORE PUSH1 0x20 ADD PUSH1 0x0 KECCAK256 SLOAD SWAP1 POP DUP6 DUP2 LT ISZERO PUSH2 0x351 JUMPI PUSH1 0x40 MLOAD PUSH32 0x8C379A000000000000000000000000000000000000000000000000000000000 DUP2 MSTORE PUSH1 0x4 ADD PUSH2 0x348 SWAP1 PUSH2 0xB61 JUMP JUMPDEST PUSH1 0x40 MLOAD DUP1 SWAP2 SUB SWAP1 REVERT JUMPDEST DUP6 DUP2 SUB PUSH1 0x0 DUP1 DUP10 DUP2 MSTORE PUSH1 0x20 ADD SWAP1 DUP2 MSTORE PUSH1 0x20 ADD PUSH1 0x0 KECCAK256 PUSH1 0x0 DUP12 PUSH20 0xFFFFFFFFFFFFFFFFFFFFFFFFFFFFFFFFFFFFFFFF AND PUSH20 0xFFFFFFFFFFFFFFFFFFFFFFFFFFFFFFFFFFFFFFFF AND DUP2 MSTORE PUSH1 0x20 ADD SWAP1 DUP2 MSTORE PUSH1 0x20 ADD PUSH1 0x0 KECCAK256 DUP2 SWAP1 SSTORE POP DUP6 PUSH1 0x0 DUP1 DUP10 DUP2 MSTORE PUSH1 0x20 ADD SWAP1 DUP2 MSTORE PUSH1 0x20 ADD PUSH1 0x0 KECCAK256 PUSH1 0x0 DUP11 PUSH20 0xFFFFFFFFFFFFFFFFFFFFFFFFFFFFFFFFFFFFFFFF AND PUSH20 0xFFFFFFFFFFFFFFFFFFFFFFFFFFFFFFFFFFFFFFFF AND DUP2 MSTORE PUSH1 0x20 ADD SWAP1 DUP2 MSTORE PUSH1 0x20 ADD PUSH1 0x0 KECCAK256 PUSH1 0x0 DUP3 DUP3 SLOAD PUSH2 0x406 SWAP2 SWAP1 PUSH2 0xC53 JUMP JUMPDEST SWAP3 POP POP DUP2 SWAP1 SSTORE POP DUP8 PUSH20 0xFFFFFFFFFFFFFFFFFFFFFFFFFFFFFFFFFFFFFFFF AND DUP10 PUSH20 0xFFFFFFFFFFFFFFFFFFFFFFFFFFFFFFFFFFFFFFFF AND DUP6 PUSH20 0xFFFFFFFFFFFFFFFFFFFFFFFFFFFFFFFFFFFFFFFF AND PUSH32 0xC3D58168C5AE7397731D063D5BBF3D657854427343F4C083240F7AACAA2D0F62 DUP11 DUP11 PUSH1 0x40 MLOAD PUSH2 0x483 SWAP3 SWAP2 SWAP1 PUSH2 0xB9C JUMP JUMPDEST PUSH1 0x40 MLOAD DUP1 SWAP2 SUB SWAP1 LOG4 PUSH2 0x499 DUP5 DUP11 DUP11 DUP7 DUP7 DUP11 PUSH2 0x534 JUMP JUMPDEST PUSH2 0x4A7 DUP5 DUP11 DUP11 DUP11 DUP11 DUP11 PUSH2 0x53C JUMP JUMPDEST POP POP POP POP POP POP POP POP POP JUMP JUMPDEST PUSH1 0x60 PUSH1 0x0 PUSH1 0x1 PUSH8 0xFFFFFFFFFFFFFFFF DUP2 GT ISZERO PUSH2 0x4D1 JUMPI PUSH2 0x4D0 PUSH2 0xDE2 JUMP JUMPDEST JUMPDEST PUSH1 0x40 MLOAD SWAP1 DUP1 DUP3 MSTORE DUP1 PUSH1 0x20 MUL PUSH1 0x20 ADD DUP3 ADD PUSH1 0x40 MSTORE DUP1 ISZERO PUSH2 0x4FF JUMPI DUP2 PUSH1 0x20 ADD PUSH1 0x20 DUP3 MUL DUP1 CALLDATASIZE DUP4 CALLDATACOPY DUP1 DUP3 ADD SWAP2 POP POP SWAP1 POP JUMPDEST POP SWAP1 POP DUP3 DUP2 PUSH1 0x0 DUP2 MLOAD DUP2 LT PUSH2 0x517 JUMPI PUSH2 0x516 PUSH2 0xDB3 JUMP JUMPDEST JUMPDEST PUSH1 0x20 MUL PUSH1 0x20 ADD ADD DUP2 DUP2 MSTORE POP POP DUP1 SWAP2 POP POP SWAP2 SWAP1 POP JUMP JUMPDEST POP POP POP POP POP POP JUMP JUMPDEST POP POP POP POP POP POP JUMP JUMPDEST PUSH2 0x545 DUP5 PUSH2 0x70D JUMP JUMPDEST ISZERO PUSH2 0x705 JUMPI DUP4 PUSH20 0xFFFFFFFFFFFFFFFFFFFFFFFFFFFFFFFFFFFFFFFF AND PUSH4 0xF23A6E61 DUP8 DUP8 DUP7 DUP7 DUP7 PUSH1 0x40 MLOAD DUP7 PUSH4 0xFFFFFFFF AND PUSH1 0xE0 SHL DUP2 MSTORE PUSH1 0x4 ADD PUSH2 0x58B SWAP6 SWAP5 SWAP4 SWAP3 SWAP2 SWAP1 PUSH2 0xA45 JUMP JUMPDEST PUSH1 0x20 PUSH1 0x40 MLOAD DUP1 DUP4 SUB DUP2 PUSH1 0x0 DUP8 DUP1 EXTCODESIZE ISZERO DUP1 ISZERO PUSH2 0x5A5 JUMPI PUSH1 0x0 DUP1 REVERT JUMPDEST POP GAS CALL SWAP3 POP POP POP DUP1 ISZERO PUSH2 0x5D6 JUMPI POP PUSH1 0x40 MLOAD RETURNDATASIZE PUSH1 0x1F NOT PUSH1 0x1F DUP3 ADD AND DUP3 ADD DUP1 PUSH1 0x40 MSTORE POP DUP2 ADD SWAP1 PUSH2 0x5D3 SWAP2 SWAP1 PUSH2 0x8B6 JUMP JUMPDEST PUSH1 0x1 JUMPDEST PUSH2 0x67C JUMPI PUSH2 0x5E2 PUSH2 0xE11 JUMP JUMPDEST DUP1 PUSH4 0x8C379A0 EQ ISZERO PUSH2 0x63F JUMPI POP PUSH2 0x5F7 PUSH2 0x103F JUMP JUMPDEST DUP1 PUSH2 0x602 JUMPI POP PUSH2 0x641 JUMP JUMPDEST DUP1 PUSH1 0x40 MLOAD PUSH32 0x8C379A000000000000000000000000000000000000000000000000000000000 DUP2 MSTORE PUSH1 0x4 ADD PUSH2 0x636 SWAP2 SWAP1 PUSH2 0xA9F JUMP JUMPDEST PUSH1 0x40 MLOAD DUP1 SWAP2 SUB SWAP1 REVERT JUMPDEST POP JUMPDEST PUSH1 0x40 MLOAD PUSH32 0x8C379A000000000000000000000000000000000000000000000000000000000 DUP2 MSTORE PUSH1 0x4 ADD PUSH2 0x673 SWAP1 PUSH2 0xAC1 JUMP JUMPDEST PUSH1 0x40 MLOAD DUP1 SWAP2 SUB SWAP1 REVERT JUMPDEST PUSH4 0xF23A6E61 PUSH1 0xE0 SHL PUSH28 0xFFFFFFFFFFFFFFFFFFFFFFFFFFFFFFFFFFFFFFFFFFFFFFFFFFFFFFFF NOT AND DUP2 PUSH28 0xFFFFFFFFFFFFFFFFFFFFFFFFFFFFFFFFFFFFFFFFFFFFFFFFFFFFFFFF NOT AND EQ PUSH2 0x703 JUMPI PUSH1 0x40 MLOAD PUSH32 0x8C379A000000000000000000000000000000000000000000000000000000000 DUP2 MSTORE PUSH1 0x4 ADD PUSH2 0x6FA SWAP1 PUSH2 0xB01 JUMP JUMPDEST PUSH1 0x40 MLOAD DUP1 SWAP2 SUB SWAP1 REVERT JUMPDEST POP JUMPDEST POP POP POP POP POP POP JUMP JUMPDEST PUSH1 0x0 DUP1 DUP3 PUSH20 0xFFFFFFFFFFFFFFFFFFFFFFFFFFFFFFFFFFFFFFFF AND EXTCODESIZE GT SWAP1 POP SWAP2 SWAP1 POP JUMP JUMPDEST PUSH1 0x0 PUSH2 0x743 PUSH2 0x73E DUP5 PUSH2 0xBEA JUMP JUMPDEST PUSH2 0xBC5 JUMP JUMPDEST SWAP1 POP DUP3 DUP2 MSTORE PUSH1 0x20 DUP2 ADD DUP5 DUP5 DUP5 ADD GT ISZERO PUSH2 0x75F JUMPI PUSH2 0x75E PUSH2 0xE38 JUMP JUMPDEST JUMPDEST PUSH2 0x76A DUP5 DUP3 DUP6 PUSH2 0xD11 JUMP JUMPDEST POP SWAP4 SWAP3 POP POP POP JUMP JUMPDEST PUSH1 0x0 DUP2 CALLDATALOAD SWAP1 POP PUSH2 0x781 DUP2 PUSH2 0x10D5 JUMP JUMPDEST SWAP3 SWAP2 POP POP JUMP JUMPDEST PUSH1 0x0 DUP2 MLOAD SWAP1 POP PUSH2 0x796 DUP2 PUSH2 0x10EC JUMP JUMPDEST SWAP3 SWAP2 POP POP JUMP JUMPDEST PUSH1 0x0 DUP3 PUSH1 0x1F DUP4 ADD SLT PUSH2 0x7B1 JUMPI PUSH2 0x7B0 PUSH2 0xE33 JUMP JUMPDEST JUMPDEST DUP2 CALLDATALOAD PUSH2 0x7C1 DUP5 DUP3 PUSH1 0x20 DUP7 ADD PUSH2 0x730 JUMP JUMPDEST SWAP2 POP POP SWAP3 SWAP2 POP POP JUMP JUMPDEST PUSH1 0x0 DUP2 CALLDATALOAD SWAP1 POP PUSH2 0x7D9 DUP2 PUSH2 0x1103 JUMP JUMPDEST SWAP3 SWAP2 POP POP JUMP JUMPDEST PUSH1 0x0 DUP1 PUSH1 0x0 DUP1 PUSH1 0x0 PUSH1 0xA0 DUP7 DUP9 SUB SLT ISZERO PUSH2 0x7FB JUMPI PUSH2 0x7FA PUSH2 0xE42 JUMP JUMPDEST JUMPDEST PUSH1 0x0 PUSH2 0x809 DUP9 DUP3 DUP10 ADD PUSH2 0x772 JUMP JUMPDEST SWAP6 POP POP PUSH1 0x20 PUSH2 0x81A DUP9 DUP3 DUP10 ADD PUSH2 0x772 JUMP JUMPDEST SWAP5 POP POP PUSH1 0x40 PUSH2 0x82B DUP9 DUP3 DUP10 ADD PUSH2 0x7CA JUMP JUMPDEST SWAP4 POP POP PUSH1 0x60 PUSH2 0x83C DUP9 DUP3 DUP10 ADD PUSH2 0x7CA JUMP JUMPDEST SWAP3 POP POP PUSH1 0x80 DUP7 ADD CALLDATALOAD PUSH8 0xFFFFFFFFFFFFFFFF DUP2 GT ISZERO PUSH2 0x85D JUMPI PUSH2 0x85C PUSH2 0xE3D JUMP JUMPDEST JUMPDEST PUSH2 0x869 DUP9 DUP3 DUP10 ADD PUSH2 0x79C JUMP JUMPDEST SWAP2 POP POP SWAP3 SWAP6 POP SWAP3 SWAP6 SWAP1 SWAP4 POP JUMP JUMPDEST PUSH1 0x0 DUP1 PUSH1 0x40 DUP4 DUP6 SUB SLT ISZERO PUSH2 0x88D JUMPI PUSH2 0x88C PUSH2 0xE42 JUMP JUMPDEST JUMPDEST PUSH1 0x0 PUSH2 0x89B DUP6 DUP3 DUP7 ADD PUSH2 0x772 JUMP JUMPDEST SWAP3 POP POP PUSH1 0x20 PUSH2 0x8AC DUP6 DUP3 DUP7 ADD PUSH2 0x7CA JUMP JUMPDEST SWAP2 POP POP SWAP3 POP SWAP3 SWAP1 POP JUMP JUMPDEST PUSH1 0x0 PUSH1 0x20 DUP3 DUP5 SUB SLT ISZERO PUSH2 0x8CC JUMPI PUSH2 0x8CB PUSH2 0xE42 JUMP JUMPDEST JUMPDEST PUSH1 0x0 PUSH2 0x8DA DUP5 DUP3 DUP6 ADD PUSH2 0x787 JUMP JUMPDEST SWAP2 POP POP SWAP3 SWAP2 POP POP JUMP JUMPDEST PUSH2 0x8EC DUP2 PUSH2 0xCA9 JUMP JUMPDEST DUP3 MSTORE POP POP JUMP JUMPDEST PUSH1 0x0 PUSH2 0x8FD DUP3 PUSH2 0xC1B JUMP JUMPDEST PUSH2 0x907 DUP2 DUP6 PUSH2 0xC31 JUMP JUMPDEST SWAP4 POP PUSH2 0x917 DUP2 DUP6 PUSH1 0x20 DUP7 ADD PUSH2 0xD20 JUMP JUMPDEST PUSH2 0x920 DUP2 PUSH2 0xE47 JUMP JUMPDEST DUP5 ADD SWAP2 POP POP SWAP3 SWAP2 POP POP JUMP JUMPDEST PUSH1 0x0 PUSH2 0x936 DUP3 PUSH2 0xC26 JUMP JUMPDEST PUSH2 0x940 DUP2 DUP6 PUSH2 0xC42 JUMP JUMPDEST SWAP4 POP PUSH2 0x950 DUP2 DUP6 PUSH1 0x20 DUP7 ADD PUSH2 0xD20 JUMP JUMPDEST PUSH2 0x959 DUP2 PUSH2 0xE47 JUMP JUMPDEST DUP5 ADD SWAP2 POP POP SWAP3 SWAP2 POP POP JUMP JUMPDEST PUSH1 0x0 PUSH2 0x971 PUSH1 0x34 DUP4 PUSH2 0xC42 JUMP JUMPDEST SWAP2 POP PUSH2 0x97C DUP3 PUSH2 0xE65 JUMP JUMPDEST PUSH1 0x40 DUP3 ADD SWAP1 POP SWAP2 SWAP1 POP JUMP JUMPDEST PUSH1 0x0 PUSH2 0x994 PUSH1 0x2F DUP4 PUSH2 0xC42 JUMP JUMPDEST SWAP2 POP PUSH2 0x99F DUP3 PUSH2 0xEB4 JUMP JUMPDEST PUSH1 0x40 DUP3 ADD SWAP1 POP SWAP2 SWAP1 POP JUMP JUMPDEST PUSH1 0x0 PUSH2 0x9B7 PUSH1 0x28 DUP4 PUSH2 0xC42 JUMP JUMPDEST SWAP2 POP PUSH2 0x9C2 DUP3 PUSH2 0xF03 JUMP JUMPDEST PUSH1 0x40 DUP3 ADD SWAP1 POP SWAP2 SWAP1 POP JUMP JUMPDEST PUSH1 0x0 PUSH2 0x9DA PUSH1 0x2A DUP4 PUSH2 0xC42 JUMP JUMPDEST SWAP2 POP PUSH2 0x9E5 DUP3 PUSH2 0xF52 JUMP JUMPDEST PUSH1 0x40 DUP3 ADD SWAP1 POP SWAP2 SWAP1 POP JUMP JUMPDEST PUSH1 0x0 PUSH2 0x9FD PUSH1 0x25 DUP4 PUSH2 0xC42 JUMP JUMPDEST SWAP2 POP PUSH2 0xA08 DUP3 PUSH2 0xFA1 JUMP JUMPDEST PUSH1 0x40 DUP3 ADD SWAP1 POP SWAP2 SWAP1 POP JUMP JUMPDEST PUSH1 0x0 PUSH2 0xA20 PUSH1 0x2A DUP4 PUSH2 0xC42 JUMP JUMPDEST SWAP2 POP PUSH2 0xA2B DUP3 PUSH2 0xFF0 JUMP JUMPDEST PUSH1 0x40 DUP3 ADD SWAP1 POP SWAP2 SWAP1 POP JUMP JUMPDEST PUSH2 0xA3F DUP2 PUSH2 0xD07 JUMP JUMPDEST DUP3 MSTORE POP POP JUMP JUMPDEST PUSH1 0x0 PUSH1 0xA0 DUP3 ADD SWAP1 POP PUSH2 0xA5A PUSH1 0x0 DUP4 ADD DUP9 PUSH2 0x8E3 JUMP JUMPDEST PUSH2 0xA67 PUSH1 0x20 DUP4 ADD DUP8 PUSH2 0x8E3 JUMP JUMPDEST PUSH2 0xA74 PUSH1 0x40 DUP4 ADD DUP7 PUSH2 0xA36 JUMP JUMPDEST PUSH2 0xA81 PUSH1 0x60 DUP4 ADD DUP6 PUSH2 0xA36 JUMP JUMPDEST DUP2 DUP2 SUB PUSH1 0x80 DUP4 ADD MSTORE PUSH2 0xA93 DUP2 DUP5 PUSH2 0x8F2 JUMP JUMPDEST SWAP1 POP SWAP7 SWAP6 POP POP POP POP POP POP JUMP JUMPDEST PUSH1 0x0 PUSH1 0x20 DUP3 ADD SWAP1 POP DUP2 DUP2 SUB PUSH1 0x0 DUP4 ADD MSTORE PUSH2 0xAB9 DUP2 DUP5 PUSH2 0x92B JUMP JUMPDEST SWAP1 POP SWAP3 SWAP2 POP POP JUMP JUMPDEST PUSH1 0x0 PUSH1 0x20 DUP3 ADD SWAP1 POP DUP2 DUP2 SUB PUSH1 0x0 DUP4 ADD MSTORE PUSH2 0xADA DUP2 PUSH2 0x964 JUMP JUMPDEST SWAP1 POP SWAP2 SWAP1 POP JUMP JUMPDEST PUSH1 0x0 PUSH1 0x20 DUP3 ADD SWAP1 POP DUP2 DUP2 SUB PUSH1 0x0 DUP4 ADD MSTORE PUSH2 0xAFA DUP2 PUSH2 0x987 JUMP JUMPDEST SWAP1 POP SWAP2 SWAP1 POP JUMP JUMPDEST PUSH1 0x0 PUSH1 0x20 DUP3 ADD SWAP1 POP DUP2 DUP2 SUB PUSH1 0x0 DUP4 ADD MSTORE PUSH2 0xB1A DUP2 PUSH2 0x9AA JUMP JUMPDEST SWAP1 POP SWAP2 SWAP1 POP JUMP JUMPDEST PUSH1 0x0 PUSH1 0x20 DUP3 ADD SWAP1 POP DUP2 DUP2 SUB PUSH1 0x0 DUP4 ADD MSTORE PUSH2 0xB3A DUP2 PUSH2 0x9CD JUMP JUMPDEST SWAP1 POP SWAP2 SWAP1 POP JUMP JUMPDEST PUSH1 0x0 PUSH1 0x20 DUP3 ADD SWAP1 POP DUP2 DUP2 SUB PUSH1 0x0 DUP4 ADD MSTORE PUSH2 0xB5A DUP2 PUSH2 0x9F0 JUMP JUMPDEST SWAP1 POP SWAP2 SWAP1 POP JUMP JUMPDEST PUSH1 0x0 PUSH1 0x20 DUP3 ADD SWAP1 POP DUP2 DUP2 SUB PUSH1 0x0 DUP4 ADD MSTORE PUSH2 0xB7A DUP2 PUSH2 0xA13 JUMP JUMPDEST SWAP1 POP SWAP2 SWAP1 POP JUMP JUMPDEST PUSH1 0x0 PUSH1 0x20 DUP3 ADD SWAP1 POP PUSH2 0xB96 PUSH1 0x0 DUP4 ADD DUP5 PUSH2 0xA36 JUMP JUMPDEST SWAP3 SWAP2 POP POP JUMP JUMPDEST PUSH1 0x0 PUSH1 0x40 DUP3 ADD SWAP1 POP PUSH2 0xBB1 PUSH1 0x0 DUP4 ADD DUP6 PUSH2 0xA36 JUMP JUMPDEST PUSH2 0xBBE PUSH1 0x20 DUP4 ADD DUP5 PUSH2 0xA36 JUMP JUMPDEST SWAP4 SWAP3 POP POP POP JUMP JUMPDEST PUSH1 0x0 PUSH2 0xBCF PUSH2 0xBE0 JUMP JUMPDEST SWAP1 POP PUSH2 0xBDB DUP3 DUP3 PUSH2 0xD53 JUMP JUMPDEST SWAP2 SWAP1 POP JUMP JUMPDEST PUSH1 0x0 PUSH1 0x40 MLOAD SWAP1 POP SWAP1 JUMP JUMPDEST PUSH1 0x0 PUSH8 0xFFFFFFFFFFFFFFFF DUP3 GT ISZERO PUSH2 0xC05 JUMPI PUSH2 0xC04 PUSH2 0xDE2 JUMP JUMPDEST JUMPDEST PUSH2 0xC0E DUP3 PUSH2 0xE47 JUMP JUMPDEST SWAP1 POP PUSH1 0x20 DUP2 ADD SWAP1 POP SWAP2 SWAP1 POP JUMP JUMPDEST PUSH1 0x0 DUP2 MLOAD SWAP1 POP SWAP2 SWAP1 POP JUMP JUMPDEST PUSH1 0x0 DUP2 MLOAD SWAP1 POP SWAP2 SWAP1 POP JUMP JUMPDEST PUSH1 0x0 DUP3 DUP3 MSTORE PUSH1 0x20 DUP3 ADD SWAP1 POP SWAP3 SWAP2 POP POP JUMP JUMPDEST PUSH1 0x0 DUP3 DUP3 MSTORE PUSH1 0x20 DUP3 ADD SWAP1 POP SWAP3 SWAP2 POP POP JUMP JUMPDEST PUSH1 0x0 PUSH2 0xC5E DUP3 PUSH2 0xD07 JUMP JUMPDEST SWAP2 POP PUSH2 0xC69 DUP4 PUSH2 0xD07 JUMP JUMPDEST SWAP3 POP DUP3 PUSH32 0xFFFFFFFFFFFFFFFFFFFFFFFFFFFFFFFFFFFFFFFFFFFFFFFFFFFFFFFFFFFFFFFF SUB DUP3 GT ISZERO PUSH2 0xC9E JUMPI PUSH2 0xC9D PUSH2 0xD84 JUMP JUMPDEST JUMPDEST DUP3 DUP3 ADD SWAP1 POP SWAP3 SWAP2 POP POP JUMP JUMPDEST PUSH1 0x0 PUSH2 0xCB4 DUP3 PUSH2 0xCE7 JUMP JUMPDEST SWAP1 POP SWAP2 SWAP1 POP JUMP JUMPDEST PUSH1 0x0 PUSH32 0xFFFFFFFF00000000000000000000000000000000000000000000000000000000 DUP3 AND SWAP1 POP SWAP2 SWAP1 POP JUMP JUMPDEST PUSH1 0x0 PUSH20 0xFFFFFFFFFFFFFFFFFFFFFFFFFFFFFFFFFFFFFFFF DUP3 AND SWAP1 POP SWAP2 SWAP1 POP JUMP JUMPDEST PUSH1 0x0 DUP2 SWAP1 POP SWAP2 SWAP1 POP JUMP JUMPDEST DUP3 DUP2 DUP4 CALLDATACOPY PUSH1 0x0 DUP4 DUP4 ADD MSTORE POP POP POP JUMP JUMPDEST PUSH1 0x0 JUMPDEST DUP4 DUP2 LT ISZERO PUSH2 0xD3E JUMPI DUP1 DUP3 ADD MLOAD DUP2 DUP5 ADD MSTORE PUSH1 0x20 DUP2 ADD SWAP1 POP PUSH2 0xD23 JUMP JUMPDEST DUP4 DUP2 GT ISZERO PUSH2 0xD4D JUMPI PUSH1 0x0 DUP5 DUP5 ADD MSTORE JUMPDEST POP POP POP POP JUMP JUMPDEST PUSH2 0xD5C DUP3 PUSH2 0xE47 JUMP JUMPDEST DUP2 ADD DUP2 DUP2 LT PUSH8 0xFFFFFFFFFFFFFFFF DUP3 GT OR ISZERO PUSH2 0xD7B JUMPI PUSH2 0xD7A PUSH2 0xDE2 JUMP JUMPDEST JUMPDEST DUP1 PUSH1 0x40 MSTORE POP POP POP JUMP JUMPDEST PUSH32 0x4E487B7100000000000000000000000000000000000000000000000000000000 PUSH1 0x0 MSTORE PUSH1 0x11 PUSH1 0x4 MSTORE PUSH1 0x24 PUSH1 0x0 REVERT JUMPDEST PUSH32 0x4E487B7100000000000000000000000000000000000000000000000000000000 PUSH1 0x0 MSTORE PUSH1 0x32 PUSH1 0x4 MSTORE PUSH1 0x24 PUSH1 0x0 REVERT JUMPDEST PUSH32 0x4E487B7100000000000000000000000000000000000000000000000000000000 PUSH1 0x0 MSTORE PUSH1 0x41 PUSH1 0x4 MSTORE PUSH1 0x24 PUSH1 0x0 REVERT JUMPDEST PUSH1 0x0 PUSH1 0x3 RETURNDATASIZE GT ISZERO PUSH2 0xE30 JUMPI PUSH1 0x4 PUSH1 0x0 DUP1 RETURNDATACOPY PUSH2 0xE2D PUSH1 0x0 MLOAD PUSH2 0xE58 JUMP JUMPDEST SWAP1 POP JUMPDEST SWAP1 JUMP JUMPDEST PUSH1 0x0 DUP1 REVERT JUMPDEST PUSH1 0x0 DUP1 REVERT JUMPDEST PUSH1 0x0 DUP1 REVERT JUMPDEST PUSH1 0x0 DUP1 REVERT JUMPDEST PUSH1 0x0 PUSH1 0x1F NOT PUSH1 0x1F DUP4 ADD AND SWAP1 POP SWAP2 SWAP1 POP JUMP JUMPDEST PUSH1 0x0 DUP2 PUSH1 0xE0 SHR SWAP1 POP SWAP2 SWAP1 POP JUMP JUMPDEST PUSH32 0x455243313135353A207472616E7366657220746F206E6F6E2045524331313535 PUSH1 0x0 DUP3 ADD MSTORE PUSH32 0x526563656976657220696D706C656D656E746572000000000000000000000000 PUSH1 0x20 DUP3 ADD MSTORE POP JUMP JUMPDEST PUSH32 0x455243313135353A2063616C6C6572206973206E6F7420746F6B656E206F776E PUSH1 0x0 DUP3 ADD MSTORE PUSH32 0x6572206E6F7220617070726F7665640000000000000000000000000000000000 PUSH1 0x20 DUP3 ADD MSTORE POP JUMP JUMPDEST PUSH32 0x455243313135353A204552433131353552656365697665722072656A65637465 PUSH1 0x0 DUP3 ADD MSTORE PUSH32 0x6420746F6B656E73000000000000000000000000000000000000000000000000 PUSH1 0x20 DUP3 ADD MSTORE POP JUMP JUMPDEST PUSH32 0x455243313135353A2061646472657373207A65726F206973206E6F7420612076 PUSH1 0x0 DUP3 ADD MSTORE PUSH32 0x616C6964206F776E657200000000000000000000000000000000000000000000 PUSH1 0x20 DUP3 ADD MSTORE POP JUMP JUMPDEST PUSH32 0x455243313135353A207472616E7366657220746F20746865207A65726F206164 PUSH1 0x0 DUP3 ADD MSTORE PUSH32 0x6472657373000000000000000000000000000000000000000000000000000000 PUSH1 0x20 DUP3 ADD MSTORE POP JUMP JUMPDEST PUSH32 0x455243313135353A20696E73756666696369656E742062616C616E636520666F PUSH1 0x0 DUP3 ADD MSTORE PUSH32 0x72207472616E7366657200000000000000000000000000000000000000000000 PUSH1 0x20 DUP3 ADD MSTORE POP JUMP JUMPDEST PUSH1 0x0 PUSH1 0x44 RETURNDATASIZE LT ISZERO PUSH2 0x104F JUMPI PUSH2 0x10D2 JUMP JUMPDEST PUSH2 0x1057 PUSH2 0xBE0 JUMP JUMPDEST PUSH1 0x4 RETURNDATASIZE SUB PUSH1 0x4 DUP3 RETURNDATACOPY DUP1 MLOAD RETURNDATASIZE PUSH1 0x24 DUP3 ADD GT PUSH8 0xFFFFFFFFFFFFFFFF DUP3 GT OR ISZERO PUSH2 0x107F JUMPI POP POP PUSH2 0x10D2 JUMP JUMPDEST DUP1 DUP3 ADD DUP1 MLOAD PUSH8 0xFFFFFFFFFFFFFFFF DUP2 GT ISZERO PUSH2 0x109D JUMPI POP POP POP POP PUSH2 0x10D2 JUMP JUMPDEST DUP1 PUSH1 0x20 DUP4 ADD ADD PUSH1 0x4 RETURNDATASIZE SUB DUP6 ADD DUP2 GT ISZERO PUSH2 0x10BA JUMPI POP POP POP POP POP PUSH2 0x10D2 JUMP JUMPDEST PUSH2 0x10C9 DUP3 PUSH1 0x20 ADD DUP6 ADD DUP7 PUSH2 0xD53 JUMP JUMPDEST DUP3 SWAP6 POP POP POP POP POP POP JUMPDEST SWAP1 JUMP JUMPDEST PUSH2 0x10DE DUP2 PUSH2 0xCA9 JUMP JUMPDEST DUP2 EQ PUSH2 0x10E9 JUMPI PUSH1 0x0 DUP1 REVERT JUMPDEST POP JUMP JUMPDEST PUSH2 0x10F5 DUP2 PUSH2 0xCBB JUMP JUMPDEST DUP2 EQ PUSH2 0x1100 JUMPI PUSH1 0x0 DUP1 REVERT JUMPDEST POP JUMP JUMPDEST PUSH2 0x110C DUP2 PUSH2 0xD07 JUMP JUMPDEST DUP2 EQ PUSH2 0x1117 JUMPI PUSH1 0x0 DUP1 REVERT JUMPDEST POP JUMP INVALID LOG2 PUSH5 0x6970667358 0x22 SLT KECCAK256 0xAF 0xE3 MUL 0xE9 DUP7 0xD9 0xA7 MSTORE8 SLT 0xB1 NUMBER 0xB2 SGT 0xD2 0x4E EQ 0x4B JUMPI SHR 0xE4 CHAINID 0xE4 0xC9 SWAP5 DELEGATECALL BLOCKHASH SDIV CALLDATALOAD PUSH26 0x56FE3364736F6C63430008070033000000000000000000000000 "
				},
				"gasEstimates": {
					"creation": {
						"codeDepositCost": "886400",
						"executionCost": "922",
						"totalCost": "887322"
					},
					"external": {
						"balanceOf(address,uint256)": "infinite",
						"safeTransferFrom(address,address,uint256,uint256,bytes)": "infinite"
					},
					"internal": {
						"_afterTokenTransfer(address,address,address,uint256[] memory,uint256[] memory,bytes memory)": "21",
						"_asSingletonArray(uint256)": "infinite",
						"_beforeTokenTransfer(address,address,address,uint256[] memory,uint256[] memory,bytes memory)": "21",
						"_burn(address,uint256,uint256)": "infinite",
						"_doSafeTransferAcceptanceCheck(address,address,address,uint256,uint256,bytes memory)": "infinite",
						"_mint(address,uint256,uint256,bytes memory)": "infinite",
						"_msgSender()": "22",
						"_safeTransferFrom(address,address,uint256,uint256,bytes memory)": "infinite",
						"isContract(address)": "2640"
					}
				},
				"methodIdentifiers": {
					"balanceOf(address,uint256)": "00fdd58e",
					"safeTransferFrom(address,address,uint256,uint256,bytes)": "f242432a"
				}
			},
			"storageLayout": {
				"storage": [
					{
						"astId": 58,
						"contract": "contracts/Coupon.sol:ERC1155",
						"label": "_balances",
						"offset": 0,
						"slot": "0",
						"type": "t_mapping(t_uint256,t_mapping(t_address,t_uint256))"
					},
					{
						"astId": 64,
						"contract": "contracts/Coupon.sol:ERC1155",
						"label": "_operatorApprovals",
						"offset": 0,
						"slot": "1",
						"type": "t_mapping(t_address,t_mapping(t_address,t_bool))"
					}
				],
				"types": {
					"t_address": {
						"encoding": "inplace",
						"label": "address",
						"numberOfBytes": "20"
					},
					"t_bool": {
						"encoding": "inplace",
						"label": "bool",
						"numberOfBytes": "1"
					},
					"t_mapping(t_address,t_bool)": {
						"encoding": "mapping",
						"key": "t_address",
						"label": "mapping(address => bool)",
						"numberOfBytes": "32",
						"value": "t_bool"
					},
					"t_mapping(t_address,t_mapping(t_address,t_bool))": {
						"encoding": "mapping",
						"key": "t_address",
						"label": "mapping(address => mapping(address => bool))",
						"numberOfBytes": "32",
						"value": "t_mapping(t_address,t_bool)"
					},
					"t_mapping(t_address,t_uint256)": {
						"encoding": "mapping",
						"key": "t_address",
						"label": "mapping(address => uint256)",
						"numberOfBytes": "32",
						"value": "t_uint256"
					},
					"t_mapping(t_uint256,t_mapping(t_address,t_uint256))": {
						"encoding": "mapping",
						"key": "t_uint256",
						"label": "mapping(uint256 => mapping(address => uint256))",
						"numberOfBytes": "32",
						"value": "t_mapping(t_address,t_uint256)"
					},
					"t_uint256": {
						"encoding": "inplace",
						"label": "uint256",
						"numberOfBytes": "32"
					}
				}
			},
			"userdoc": {
				"kind": "user",
				"methods": {},
				"version": 1
			}
		}
	}
}