{
	"contracts/CouponMarket.sol": {
		"CouponMarket": {
			"abi": [
				{
					"anonymous": false,
					"inputs": [
						{
							"indexed": false,
							"internalType": "address",
							"name": "operator",
							"type": "address"
						},
						{
							"indexed": false,
							"internalType": "address",
							"name": "from",
							"type": "address"
						},
						{
							"indexed": false,
							"internalType": "uint256",
							"name": "id",
							"type": "uint256"
						},
						{
							"indexed": false,
							"internalType": "uint256",
							"name": "value",
							"type": "uint256"
						},
						{
							"indexed": false,
							"internalType": "bytes",
							"name": "data",
							"type": "bytes"
						},
						{
							"indexed": false,
							"internalType": "uint256",
							"name": "gas",
							"type": "uint256"
						}
					],
					"name": "Received",
					"type": "event"
				},
				{
					"inputs": [
						{
							"internalType": "uint256",
							"name": "discount",
							"type": "uint256"
						}
					],
					"name": "amount",
					"outputs": [
						{
							"internalType": "uint256",
							"name": "",
							"type": "uint256"
						}
					],
					"stateMutability": "view",
					"type": "function"
				},
				{
					"inputs": [
						{
							"internalType": "uint256",
							"name": "discount",
							"type": "uint256"
						},
						{
							"internalType": "uint256",
							"name": "amount",
							"type": "uint256"
						},
						{
							"internalType": "address",
							"name": "CouponContractAddr",
							"type": "address"
						},
						{
							"internalType": "address",
							"name": "TokenContractAddr",
							"type": "address"
						}
					],
					"name": "buyCoupon",
					"outputs": [
						{
							"internalType": "bool",
							"name": "",
							"type": "bool"
						}
					],
					"stateMutability": "payable",
					"type": "function"
				},
				{
					"inputs": [
						{
							"internalType": "address",
							"name": "operator",
							"type": "address"
						},
						{
							"internalType": "address",
							"name": "from",
							"type": "address"
						},
						{
							"internalType": "uint256",
							"name": "id",
							"type": "uint256"
						},
						{
							"internalType": "uint256",
							"name": "value",
							"type": "uint256"
						},
						{
							"internalType": "bytes",
							"name": "data",
							"type": "bytes"
						}
					],
					"name": "onERC1155Received",
					"outputs": [
						{
							"internalType": "bytes4",
							"name": "",
							"type": "bytes4"
						}
					],
					"stateMutability": "nonpayable",
					"type": "function"
				},
				{
					"inputs": [
						{
							"internalType": "uint256",
							"name": "discount",
							"type": "uint256"
						}
					],
					"name": "seller",
					"outputs": [
						{
							"internalType": "address",
							"name": "",
							"type": "address"
						}
					],
					"stateMutability": "view",
					"type": "function"
				}
			],
			"devdoc": {
				"kind": "dev",
				"methods": {},
				"version": 1
			},
			"evm": {
				"assembly": "    /* \"contracts/CouponMarket.sol\":509:2347  contract CouponMarket {... */\n  mstore(0x40, 0x80)\n  callvalue\n  dup1\n  iszero\n  tag_1\n  jumpi\n  0x00\n  dup1\n  revert\ntag_1:\n  pop\n  dataSize(sub_0)\n  dup1\n  dataOffset(sub_0)\n  0x00\n  codecopy\n  0x00\n  return\nstop\n\nsub_0: assembly {\n        /* \"contracts/CouponMarket.sol\":509:2347  contract CouponMarket {... */\n      mstore(0x40, 0x80)\n      jumpi(tag_1, lt(calldatasize, 0x04))\n      shr(0xe0, calldataload(0x00))\n      dup1\n      0x08dd9d36\n      eq\n      tag_2\n      jumpi\n      dup1\n      0x8b0d0258\n      eq\n      tag_3\n      jumpi\n      dup1\n      0xaacdfe6f\n      eq\n      tag_4\n      jumpi\n      dup1\n      0xf23a6e61\n      eq\n      tag_5\n      jumpi\n    tag_1:\n      0x00\n      dup1\n      revert\n        /* \"contracts/CouponMarket.sol\":1017:1707  function buyCoupon(... */\n    tag_2:\n      tag_6\n      0x04\n      dup1\n      calldatasize\n      sub\n      dup2\n      add\n      swap1\n      tag_7\n      swap2\n      swap1\n      tag_8\n      jump\t// in\n    tag_7:\n      tag_9\n      jump\t// in\n    tag_6:\n      mload(0x40)\n      tag_10\n      swap2\n      swap1\n      tag_11\n      jump\t// in\n    tag_10:\n      mload(0x40)\n      dup1\n      swap2\n      sub\n      swap1\n      return\n        /* \"contracts/CouponMarket.sol\":906:1011  function amount(uint256 discount) public view returns (uint256) {... */\n    tag_3:\n      callvalue\n      dup1\n      iszero\n      tag_12\n      jumpi\n      0x00\n      dup1\n      revert\n    tag_12:\n      pop\n      tag_13\n      0x04\n      dup1\n      calldatasize\n      sub\n      dup2\n      add\n      swap1\n      tag_14\n      swap2\n      swap1\n      tag_15\n      jump\t// in\n    tag_14:\n      tag_16\n      jump\t// in\n    tag_13:\n      mload(0x40)\n      tag_17\n      swap2\n      swap1\n      tag_18\n      jump\t// in\n    tag_17:\n      mload(0x40)\n      dup1\n      swap2\n      sub\n      swap1\n      return\n        /* \"contracts/CouponMarket.sol\":795:900  function seller(uint256 discount) public view returns (address) {... */\n    tag_4:\n      callvalue\n      dup1\n      iszero\n      tag_19\n      jumpi\n      0x00\n      dup1\n      revert\n    tag_19:\n      pop\n      tag_20\n      0x04\n      dup1\n      calldatasize\n      sub\n      dup2\n      add\n      swap1\n      tag_21\n      swap2\n      swap1\n      tag_15\n      jump\t// in\n    tag_21:\n      tag_22\n      jump\t// in\n    tag_20:\n      mload(0x40)\n      tag_23\n      swap2\n      swap1\n      tag_24\n      jump\t// in\n    tag_23:\n      mload(0x40)\n      dup1\n      swap2\n      sub\n      swap1\n      return\n        /* \"contracts/CouponMarket.sol\":1847:2345  function onERC1155Received(... */\n    tag_5:\n      callvalue\n      dup1\n      iszero\n      tag_25\n      jumpi\n      0x00\n      dup1\n      revert\n    tag_25:\n      pop\n      tag_26\n      0x04\n      dup1\n      calldatasize\n      sub\n      dup2\n      add\n      swap1\n      tag_27\n      swap2\n      swap1\n      tag_28\n      jump\t// in\n    tag_27:\n      tag_29\n      jump\t// in\n    tag_26:\n      mload(0x40)\n      tag_30\n      swap2\n      swap1\n      tag_31\n      jump\t// in\n    tag_30:\n      mload(0x40)\n      dup1\n      swap2\n      sub\n      swap1\n      return\n        /* \"contracts/CouponMarket.sol\":1017:1707  function buyCoupon(... */\n    tag_9:\n        /* \"contracts/CouponMarket.sol\":1187:1191  bool */\n      0x00\n        /* \"contracts/CouponMarket.sol\":1345:1362  TokenContractAddr */\n      dup2\n        /* \"contracts/CouponMarket.sol\":1338:1376  others(TokenContractAddr).transferFrom */\n      0xffffffffffffffffffffffffffffffffffffffff\n      and\n      0x23b872dd\n        /* \"contracts/CouponMarket.sol\":1390:1400  msg.sender */\n      caller\n        /* \"contracts/CouponMarket.sol\":1414:1421  _seller */\n      0x00\n        /* \"contracts/CouponMarket.sol\":1414:1431  _seller[discount] */\n      dup1\n        /* \"contracts/CouponMarket.sol\":1422:1430  discount */\n      dup10\n        /* \"contracts/CouponMarket.sol\":1414:1431  _seller[discount] */\n      dup2\n      mstore\n      0x20\n      add\n      swap1\n      dup2\n      mstore\n      0x20\n      add\n      0x00\n      keccak256\n      0x00\n      swap1\n      sload\n      swap1\n      0x0100\n      exp\n      swap1\n      div\n      0xffffffffffffffffffffffffffffffffffffffff\n      and\n        /* \"contracts/CouponMarket.sol\":1445:1451  amount */\n      dup8\n        /* \"contracts/CouponMarket.sol\":1338:1461  others(TokenContractAddr).transferFrom(... */\n      mload(0x40)\n      dup5\n      0xffffffff\n      and\n      0xe0\n      shl\n      dup2\n      mstore\n      0x04\n      add\n      tag_33\n      swap4\n      swap3\n      swap2\n      swap1\n      tag_34\n      jump\t// in\n    tag_33:\n      0x20\n      mload(0x40)\n      dup1\n      dup4\n      sub\n      dup2\n      0x00\n      dup8\n      gas\n      call\n      iszero\n      dup1\n      iszero\n      tag_36\n      jumpi\n      returndatasize\n      0x00\n      dup1\n      returndatacopy\n      revert(0x00, returndatasize)\n    tag_36:\n      pop\n      pop\n      pop\n      pop\n      mload(0x40)\n      returndatasize\n      not(0x1f)\n      0x1f\n      dup3\n      add\n      and\n      dup3\n      add\n      dup1\n      0x40\n      mstore\n      pop\n      dup2\n      add\n      swap1\n      tag_37\n      swap2\n      swap1\n      tag_38\n      jump\t// in\n    tag_37:\n      pop\n        /* \"contracts/CouponMarket.sol\":1479:1497  CouponContractAddr */\n      dup3\n        /* \"contracts/CouponMarket.sol\":1472:1515  others(CouponContractAddr).safeTransferFrom */\n      0xffffffffffffffffffffffffffffffffffffffff\n      and\n      0xf242432a\n        /* \"contracts/CouponMarket.sol\":1537:1541  this */\n      address\n        /* \"contracts/CouponMarket.sol\":1556:1566  msg.sender */\n      caller\n        /* \"contracts/CouponMarket.sol\":1580:1588  discount */\n      dup9\n        /* \"contracts/CouponMarket.sol\":1602:1608  amount */\n      dup9\n        /* \"contracts/CouponMarket.sol\":1472:1638  others(CouponContractAddr).safeTransferFrom(... */\n      mload(0x40)\n      dup6\n      0xffffffff\n      and\n      0xe0\n      shl\n      dup2\n      mstore\n      0x04\n      add\n      tag_39\n      swap5\n      swap4\n      swap3\n      swap2\n      swap1\n      tag_40\n      jump\t// in\n    tag_39:\n      0x00\n      mload(0x40)\n      dup1\n      dup4\n      sub\n      dup2\n      0x00\n      dup8\n      dup1\n      extcodesize\n      iszero\n      dup1\n      iszero\n      tag_41\n      jumpi\n      0x00\n      dup1\n      revert\n    tag_41:\n      pop\n      gas\n      call\n      iszero\n      dup1\n      iszero\n      tag_43\n      jumpi\n      returndatasize\n      0x00\n      dup1\n      returndatacopy\n      revert(0x00, returndatasize)\n    tag_43:\n      pop\n      pop\n      pop\n      pop\n        /* \"contracts/CouponMarket.sol\":1648:1679  _reduceAmount(discount, amount) */\n      tag_44\n        /* \"contracts/CouponMarket.sol\":1662:1670  discount */\n      dup6\n        /* \"contracts/CouponMarket.sol\":1672:1678  amount */\n      dup6\n        /* \"contracts/CouponMarket.sol\":1648:1661  _reduceAmount */\n      tag_45\n        /* \"contracts/CouponMarket.sol\":1648:1679  _reduceAmount(discount, amount) */\n      jump\t// in\n    tag_44:\n        /* \"contracts/CouponMarket.sol\":1696:1700  true */\n      0x01\n        /* \"contracts/CouponMarket.sol\":1689:1700  return true */\n      swap1\n      pop\n        /* \"contracts/CouponMarket.sol\":1017:1707  function buyCoupon(... */\n      swap5\n      swap4\n      pop\n      pop\n      pop\n      pop\n      jump\t// out\n        /* \"contracts/CouponMarket.sol\":906:1011  function amount(uint256 discount) public view returns (uint256) {... */\n    tag_16:\n        /* \"contracts/CouponMarket.sol\":961:968  uint256 */\n      0x00\n        /* \"contracts/CouponMarket.sol\":987:994  _amount */\n      0x01\n        /* \"contracts/CouponMarket.sol\":987:1004  _amount[discount] */\n      0x00\n        /* \"contracts/CouponMarket.sol\":995:1003  discount */\n      dup4\n        /* \"contracts/CouponMarket.sol\":987:1004  _amount[discount] */\n      dup2\n      mstore\n      0x20\n      add\n      swap1\n      dup2\n      mstore\n      0x20\n      add\n      0x00\n      keccak256\n      sload\n        /* \"contracts/CouponMarket.sol\":980:1004  return _amount[discount] */\n      swap1\n      pop\n        /* \"contracts/CouponMarket.sol\":906:1011  function amount(uint256 discount) public view returns (uint256) {... */\n      swap2\n      swap1\n      pop\n      jump\t// out\n        /* \"contracts/CouponMarket.sol\":795:900  function seller(uint256 discount) public view returns (address) {... */\n    tag_22:\n        /* \"contracts/CouponMarket.sol\":850:857  address */\n      0x00\n        /* \"contracts/CouponMarket.sol\":876:883  _seller */\n      dup1\n        /* \"contracts/CouponMarket.sol\":876:893  _seller[discount] */\n      0x00\n        /* \"contracts/CouponMarket.sol\":884:892  discount */\n      dup4\n        /* \"contracts/CouponMarket.sol\":876:893  _seller[discount] */\n      dup2\n      mstore\n      0x20\n      add\n      swap1\n      dup2\n      mstore\n      0x20\n      add\n      0x00\n      keccak256\n      0x00\n      swap1\n      sload\n      swap1\n      0x0100\n      exp\n      swap1\n      div\n      0xffffffffffffffffffffffffffffffffffffffff\n      and\n        /* \"contracts/CouponMarket.sol\":869:893  return _seller[discount] */\n      swap1\n      pop\n        /* \"contracts/CouponMarket.sol\":795:900  function seller(uint256 discount) public view returns (address) {... */\n      swap2\n      swap1\n      pop\n      jump\t// out\n        /* \"contracts/CouponMarket.sol\":1847:2345  function onERC1155Received(... */\n    tag_29:\n        /* \"contracts/CouponMarket.sol\":2016:2022  bytes4 */\n      0x00\n        /* \"contracts/CouponMarket.sol\":2048:2052  from */\n      dup6\n        /* \"contracts/CouponMarket.sol\":2034:2041  _seller */\n      0x00\n        /* \"contracts/CouponMarket.sol\":2034:2045  _seller[id] */\n      dup1\n        /* \"contracts/CouponMarket.sol\":2042:2044  id */\n      dup8\n        /* \"contracts/CouponMarket.sol\":2034:2045  _seller[id] */\n      dup2\n      mstore\n      0x20\n      add\n      swap1\n      dup2\n      mstore\n      0x20\n      add\n      0x00\n      keccak256\n      0x00\n        /* \"contracts/CouponMarket.sol\":2034:2052  _seller[id] = from */\n      0x0100\n      exp\n      dup2\n      sload\n      dup2\n      0xffffffffffffffffffffffffffffffffffffffff\n      mul\n      not\n      and\n      swap1\n      dup4\n      0xffffffffffffffffffffffffffffffffffffffff\n      and\n      mul\n      or\n      swap1\n      sstore\n      pop\n        /* \"contracts/CouponMarket.sol\":2090:2095  value */\n      dup4\n        /* \"contracts/CouponMarket.sol\":2076:2083  _amount */\n      0x01\n        /* \"contracts/CouponMarket.sol\":2076:2087  _amount[id] */\n      0x00\n        /* \"contracts/CouponMarket.sol\":2084:2086  id */\n      dup8\n        /* \"contracts/CouponMarket.sol\":2076:2087  _amount[id] */\n      dup2\n      mstore\n      0x20\n      add\n      swap1\n      dup2\n      mstore\n      0x20\n      add\n      0x00\n      keccak256\n      sload\n        /* \"contracts/CouponMarket.sol\":2076:2095  _amount[id] + value */\n      tag_49\n      swap2\n      swap1\n      tag_50\n      jump\t// in\n    tag_49:\n        /* \"contracts/CouponMarket.sol\":2062:2069  _amount */\n      0x01\n        /* \"contracts/CouponMarket.sol\":2062:2073  _amount[id] */\n      0x00\n        /* \"contracts/CouponMarket.sol\":2070:2072  id */\n      dup8\n        /* \"contracts/CouponMarket.sol\":2062:2073  _amount[id] */\n      dup2\n      mstore\n      0x20\n      add\n      swap1\n      dup2\n      mstore\n      0x20\n      add\n      0x00\n      keccak256\n        /* \"contracts/CouponMarket.sol\":2062:2095  _amount[id] = _amount[id] + value */\n      dup2\n      swap1\n      sstore\n      pop\n        /* \"contracts/CouponMarket.sol\":2110:2162  Received(operator, from, id, value, data, gasleft()) */\n      0x20dfa9f79060c8c4d7fe892c97c71bcf6e3b63d1dcf66fea7aefc0211628cf29\n        /* \"contracts/CouponMarket.sol\":2119:2127  operator */\n      dup8\n        /* \"contracts/CouponMarket.sol\":2129:2133  from */\n      dup8\n        /* \"contracts/CouponMarket.sol\":2135:2137  id */\n      dup8\n        /* \"contracts/CouponMarket.sol\":2139:2144  value */\n      dup8\n        /* \"contracts/CouponMarket.sol\":2146:2150  data */\n      dup8\n      dup8\n        /* \"contracts/CouponMarket.sol\":2152:2161  gasleft() */\n      gas\n        /* \"contracts/CouponMarket.sol\":2110:2162  Received(operator, from, id, value, data, gasleft()) */\n      mload(0x40)\n      tag_51\n      swap8\n      swap7\n      swap6\n      swap5\n      swap4\n      swap3\n      swap2\n      swap1\n      tag_52\n      jump\t// in\n    tag_51:\n      mload(0x40)\n      dup1\n      swap2\n      sub\n      swap1\n      log1\n        /* \"contracts/CouponMarket.sol\":2215:2324  keccak256(... */\n      0xf23a6e612e1ff4830e658fe43f4e3cb4a5f8170bd5d9e69fb5d7a7fa9e4fdf97\n        /* \"contracts/CouponMarket.sol\":2172:2338  return... */\n      swap1\n      pop\n        /* \"contracts/CouponMarket.sol\":1847:2345  function onERC1155Received(... */\n      swap7\n      swap6\n      pop\n      pop\n      pop\n      pop\n      pop\n      pop\n      jump\t// out\n        /* \"contracts/CouponMarket.sol\":1713:1841  function _reduceAmount(uint256 discount, uint256 amount) private {... */\n    tag_45:\n        /* \"contracts/CouponMarket.sol\":1828:1834  amount */\n      dup1\n        /* \"contracts/CouponMarket.sol\":1808:1815  _amount */\n      0x01\n        /* \"contracts/CouponMarket.sol\":1808:1825  _amount[discount] */\n      0x00\n        /* \"contracts/CouponMarket.sol\":1816:1824  discount */\n      dup5\n        /* \"contracts/CouponMarket.sol\":1808:1825  _amount[discount] */\n      dup2\n      mstore\n      0x20\n      add\n      swap1\n      dup2\n      mstore\n      0x20\n      add\n      0x00\n      keccak256\n      sload\n        /* \"contracts/CouponMarket.sol\":1808:1834  _amount[discount] - amount */\n      tag_54\n      swap2\n      swap1\n      tag_55\n      jump\t// in\n    tag_54:\n        /* \"contracts/CouponMarket.sol\":1788:1795  _amount */\n      0x01\n        /* \"contracts/CouponMarket.sol\":1788:1805  _amount[discount] */\n      0x00\n        /* \"contracts/CouponMarket.sol\":1796:1804  discount */\n      dup5\n        /* \"contracts/CouponMarket.sol\":1788:1805  _amount[discount] */\n      dup2\n      mstore\n      0x20\n      add\n      swap1\n      dup2\n      mstore\n      0x20\n      add\n      0x00\n      keccak256\n        /* \"contracts/CouponMarket.sol\":1788:1834  _amount[discount] = _amount[discount] - amount */\n      dup2\n      swap1\n      sstore\n      pop\n        /* \"contracts/CouponMarket.sol\":1713:1841  function _reduceAmount(uint256 discount, uint256 amount) private {... */\n      pop\n      pop\n      jump\t// out\n        /* \"#utility.yul\":88:205   */\n    tag_57:\n        /* \"#utility.yul\":197:198   */\n      0x00\n        /* \"#utility.yul\":194:195   */\n      dup1\n        /* \"#utility.yul\":187:199   */\n      revert\n        /* \"#utility.yul\":211:328   */\n    tag_58:\n        /* \"#utility.yul\":320:321   */\n      0x00\n        /* \"#utility.yul\":317:318   */\n      dup1\n        /* \"#utility.yul\":310:322   */\n      revert\n        /* \"#utility.yul\":334:411   */\n    tag_59:\n        /* \"#utility.yul\":371:378   */\n      0x00\n        /* \"#utility.yul\":400:405   */\n      dup2\n        /* \"#utility.yul\":389:405   */\n      swap1\n      pop\n        /* \"#utility.yul\":334:411   */\n      swap2\n      swap1\n      pop\n      jump\t// out\n        /* \"#utility.yul\":417:539   */\n    tag_60:\n        /* \"#utility.yul\":490:514   */\n      tag_91\n        /* \"#utility.yul\":508:513   */\n      dup2\n        /* \"#utility.yul\":490:514   */\n      tag_59\n      jump\t// in\n    tag_91:\n        /* \"#utility.yul\":483:488   */\n      dup2\n        /* \"#utility.yul\":480:515   */\n      eq\n        /* \"#utility.yul\":470:533   */\n      tag_92\n      jumpi\n        /* \"#utility.yul\":529:530   */\n      0x00\n        /* \"#utility.yul\":526:527   */\n      dup1\n        /* \"#utility.yul\":519:531   */\n      revert\n        /* \"#utility.yul\":470:533   */\n    tag_92:\n        /* \"#utility.yul\":417:539   */\n      pop\n      jump\t// out\n        /* \"#utility.yul\":545:684   */\n    tag_61:\n        /* \"#utility.yul\":591:596   */\n      0x00\n        /* \"#utility.yul\":629:635   */\n      dup2\n        /* \"#utility.yul\":616:636   */\n      calldataload\n        /* \"#utility.yul\":607:636   */\n      swap1\n      pop\n        /* \"#utility.yul\":645:678   */\n      tag_94\n        /* \"#utility.yul\":672:677   */\n      dup2\n        /* \"#utility.yul\":645:678   */\n      tag_60\n      jump\t// in\n    tag_94:\n        /* \"#utility.yul\":545:684   */\n      swap3\n      swap2\n      pop\n      pop\n      jump\t// out\n        /* \"#utility.yul\":690:816   */\n    tag_62:\n        /* \"#utility.yul\":727:734   */\n      0x00\n        /* \"#utility.yul\":767:809   */\n      0xffffffffffffffffffffffffffffffffffffffff\n        /* \"#utility.yul\":760:765   */\n      dup3\n        /* \"#utility.yul\":756:810   */\n      and\n        /* \"#utility.yul\":745:810   */\n      swap1\n      pop\n        /* \"#utility.yul\":690:816   */\n      swap2\n      swap1\n      pop\n      jump\t// out\n        /* \"#utility.yul\":822:918   */\n    tag_63:\n        /* \"#utility.yul\":859:866   */\n      0x00\n        /* \"#utility.yul\":888:912   */\n      tag_97\n        /* \"#utility.yul\":906:911   */\n      dup3\n        /* \"#utility.yul\":888:912   */\n      tag_62\n      jump\t// in\n    tag_97:\n        /* \"#utility.yul\":877:912   */\n      swap1\n      pop\n        /* \"#utility.yul\":822:918   */\n      swap2\n      swap1\n      pop\n      jump\t// out\n        /* \"#utility.yul\":924:1046   */\n    tag_64:\n        /* \"#utility.yul\":997:1021   */\n      tag_99\n        /* \"#utility.yul\":1015:1020   */\n      dup2\n        /* \"#utility.yul\":997:1021   */\n      tag_63\n      jump\t// in\n    tag_99:\n        /* \"#utility.yul\":990:995   */\n      dup2\n        /* \"#utility.yul\":987:1022   */\n      eq\n        /* \"#utility.yul\":977:1040   */\n      tag_100\n      jumpi\n        /* \"#utility.yul\":1036:1037   */\n      0x00\n        /* \"#utility.yul\":1033:1034   */\n      dup1\n        /* \"#utility.yul\":1026:1038   */\n      revert\n        /* \"#utility.yul\":977:1040   */\n    tag_100:\n        /* \"#utility.yul\":924:1046   */\n      pop\n      jump\t// out\n        /* \"#utility.yul\":1052:1191   */\n    tag_65:\n        /* \"#utility.yul\":1098:1103   */\n      0x00\n        /* \"#utility.yul\":1136:1142   */\n      dup2\n        /* \"#utility.yul\":1123:1143   */\n      calldataload\n        /* \"#utility.yul\":1114:1143   */\n      swap1\n      pop\n        /* \"#utility.yul\":1152:1185   */\n      tag_102\n        /* \"#utility.yul\":1179:1184   */\n      dup2\n        /* \"#utility.yul\":1152:1185   */\n      tag_64\n      jump\t// in\n    tag_102:\n        /* \"#utility.yul\":1052:1191   */\n      swap3\n      swap2\n      pop\n      pop\n      jump\t// out\n        /* \"#utility.yul\":1197:1962   */\n    tag_8:\n        /* \"#utility.yul\":1283:1289   */\n      0x00\n        /* \"#utility.yul\":1291:1297   */\n      dup1\n        /* \"#utility.yul\":1299:1305   */\n      0x00\n        /* \"#utility.yul\":1307:1313   */\n      dup1\n        /* \"#utility.yul\":1356:1359   */\n      0x80\n        /* \"#utility.yul\":1344:1353   */\n      dup6\n        /* \"#utility.yul\":1335:1342   */\n      dup8\n        /* \"#utility.yul\":1331:1354   */\n      sub\n        /* \"#utility.yul\":1327:1360   */\n      slt\n        /* \"#utility.yul\":1324:1444   */\n      iszero\n      tag_104\n      jumpi\n        /* \"#utility.yul\":1363:1442   */\n      tag_105\n      tag_57\n      jump\t// in\n    tag_105:\n        /* \"#utility.yul\":1324:1444   */\n    tag_104:\n        /* \"#utility.yul\":1483:1484   */\n      0x00\n        /* \"#utility.yul\":1508:1561   */\n      tag_106\n        /* \"#utility.yul\":1553:1560   */\n      dup8\n        /* \"#utility.yul\":1544:1550   */\n      dup3\n        /* \"#utility.yul\":1533:1542   */\n      dup9\n        /* \"#utility.yul\":1529:1551   */\n      add\n        /* \"#utility.yul\":1508:1561   */\n      tag_61\n      jump\t// in\n    tag_106:\n        /* \"#utility.yul\":1498:1561   */\n      swap5\n      pop\n        /* \"#utility.yul\":1454:1571   */\n      pop\n        /* \"#utility.yul\":1610:1612   */\n      0x20\n        /* \"#utility.yul\":1636:1689   */\n      tag_107\n        /* \"#utility.yul\":1681:1688   */\n      dup8\n        /* \"#utility.yul\":1672:1678   */\n      dup3\n        /* \"#utility.yul\":1661:1670   */\n      dup9\n        /* \"#utility.yul\":1657:1679   */\n      add\n        /* \"#utility.yul\":1636:1689   */\n      tag_61\n      jump\t// in\n    tag_107:\n        /* \"#utility.yul\":1626:1689   */\n      swap4\n      pop\n        /* \"#utility.yul\":1581:1699   */\n      pop\n        /* \"#utility.yul\":1738:1740   */\n      0x40\n        /* \"#utility.yul\":1764:1817   */\n      tag_108\n        /* \"#utility.yul\":1809:1816   */\n      dup8\n        /* \"#utility.yul\":1800:1806   */\n      dup3\n        /* \"#utility.yul\":1789:1798   */\n      dup9\n        /* \"#utility.yul\":1785:1807   */\n      add\n        /* \"#utility.yul\":1764:1817   */\n      tag_65\n      jump\t// in\n    tag_108:\n        /* \"#utility.yul\":1754:1817   */\n      swap3\n      pop\n        /* \"#utility.yul\":1709:1827   */\n      pop\n        /* \"#utility.yul\":1866:1868   */\n      0x60\n        /* \"#utility.yul\":1892:1945   */\n      tag_109\n        /* \"#utility.yul\":1937:1944   */\n      dup8\n        /* \"#utility.yul\":1928:1934   */\n      dup3\n        /* \"#utility.yul\":1917:1926   */\n      dup9\n        /* \"#utility.yul\":1913:1935   */\n      add\n        /* \"#utility.yul\":1892:1945   */\n      tag_65\n      jump\t// in\n    tag_109:\n        /* \"#utility.yul\":1882:1945   */\n      swap2\n      pop\n        /* \"#utility.yul\":1837:1955   */\n      pop\n        /* \"#utility.yul\":1197:1962   */\n      swap3\n      swap6\n      swap2\n      swap5\n      pop\n      swap3\n      pop\n      jump\t// out\n        /* \"#utility.yul\":1968:2058   */\n    tag_66:\n        /* \"#utility.yul\":2002:2009   */\n      0x00\n        /* \"#utility.yul\":2045:2050   */\n      dup2\n        /* \"#utility.yul\":2038:2051   */\n      iszero\n        /* \"#utility.yul\":2031:2052   */\n      iszero\n        /* \"#utility.yul\":2020:2052   */\n      swap1\n      pop\n        /* \"#utility.yul\":1968:2058   */\n      swap2\n      swap1\n      pop\n      jump\t// out\n        /* \"#utility.yul\":2064:2173   */\n    tag_67:\n        /* \"#utility.yul\":2145:2166   */\n      tag_112\n        /* \"#utility.yul\":2160:2165   */\n      dup2\n        /* \"#utility.yul\":2145:2166   */\n      tag_66\n      jump\t// in\n    tag_112:\n        /* \"#utility.yul\":2140:2143   */\n      dup3\n        /* \"#utility.yul\":2133:2167   */\n      mstore\n        /* \"#utility.yul\":2064:2173   */\n      pop\n      pop\n      jump\t// out\n        /* \"#utility.yul\":2179:2389   */\n    tag_11:\n        /* \"#utility.yul\":2266:2270   */\n      0x00\n        /* \"#utility.yul\":2304:2306   */\n      0x20\n        /* \"#utility.yul\":2293:2302   */\n      dup3\n        /* \"#utility.yul\":2289:2307   */\n      add\n        /* \"#utility.yul\":2281:2307   */\n      swap1\n      pop\n        /* \"#utility.yul\":2317:2382   */\n      tag_114\n        /* \"#utility.yul\":2379:2380   */\n      0x00\n        /* \"#utility.yul\":2368:2377   */\n      dup4\n        /* \"#utility.yul\":2364:2381   */\n      add\n        /* \"#utility.yul\":2355:2361   */\n      dup5\n        /* \"#utility.yul\":2317:2382   */\n      tag_67\n      jump\t// in\n    tag_114:\n        /* \"#utility.yul\":2179:2389   */\n      swap3\n      swap2\n      pop\n      pop\n      jump\t// out\n        /* \"#utility.yul\":2395:2724   */\n    tag_15:\n        /* \"#utility.yul\":2454:2460   */\n      0x00\n        /* \"#utility.yul\":2503:2505   */\n      0x20\n        /* \"#utility.yul\":2491:2500   */\n      dup3\n        /* \"#utility.yul\":2482:2489   */\n      dup5\n        /* \"#utility.yul\":2478:2501   */\n      sub\n        /* \"#utility.yul\":2474:2506   */\n      slt\n        /* \"#utility.yul\":2471:2590   */\n      iszero\n      tag_116\n      jumpi\n        /* \"#utility.yul\":2509:2588   */\n      tag_117\n      tag_57\n      jump\t// in\n    tag_117:\n        /* \"#utility.yul\":2471:2590   */\n    tag_116:\n        /* \"#utility.yul\":2629:2630   */\n      0x00\n        /* \"#utility.yul\":2654:2707   */\n      tag_118\n        /* \"#utility.yul\":2699:2706   */\n      dup5\n        /* \"#utility.yul\":2690:2696   */\n      dup3\n        /* \"#utility.yul\":2679:2688   */\n      dup6\n        /* \"#utility.yul\":2675:2697   */\n      add\n        /* \"#utility.yul\":2654:2707   */\n      tag_61\n      jump\t// in\n    tag_118:\n        /* \"#utility.yul\":2644:2707   */\n      swap2\n      pop\n        /* \"#utility.yul\":2600:2717   */\n      pop\n        /* \"#utility.yul\":2395:2724   */\n      swap3\n      swap2\n      pop\n      pop\n      jump\t// out\n        /* \"#utility.yul\":2730:2848   */\n    tag_68:\n        /* \"#utility.yul\":2817:2841   */\n      tag_120\n        /* \"#utility.yul\":2835:2840   */\n      dup2\n        /* \"#utility.yul\":2817:2841   */\n      tag_59\n      jump\t// in\n    tag_120:\n        /* \"#utility.yul\":2812:2815   */\n      dup3\n        /* \"#utility.yul\":2805:2842   */\n      mstore\n        /* \"#utility.yul\":2730:2848   */\n      pop\n      pop\n      jump\t// out\n        /* \"#utility.yul\":2854:3076   */\n    tag_18:\n        /* \"#utility.yul\":2947:2951   */\n      0x00\n        /* \"#utility.yul\":2985:2987   */\n      0x20\n        /* \"#utility.yul\":2974:2983   */\n      dup3\n        /* \"#utility.yul\":2970:2988   */\n      add\n        /* \"#utility.yul\":2962:2988   */\n      swap1\n      pop\n        /* \"#utility.yul\":2998:3069   */\n      tag_122\n        /* \"#utility.yul\":3066:3067   */\n      0x00\n        /* \"#utility.yul\":3055:3064   */\n      dup4\n        /* \"#utility.yul\":3051:3068   */\n      add\n        /* \"#utility.yul\":3042:3048   */\n      dup5\n        /* \"#utility.yul\":2998:3069   */\n      tag_68\n      jump\t// in\n    tag_122:\n        /* \"#utility.yul\":2854:3076   */\n      swap3\n      swap2\n      pop\n      pop\n      jump\t// out\n        /* \"#utility.yul\":3082:3200   */\n    tag_69:\n        /* \"#utility.yul\":3169:3193   */\n      tag_124\n        /* \"#utility.yul\":3187:3192   */\n      dup2\n        /* \"#utility.yul\":3169:3193   */\n      tag_63\n      jump\t// in\n    tag_124:\n        /* \"#utility.yul\":3164:3167   */\n      dup3\n        /* \"#utility.yul\":3157:3194   */\n      mstore\n        /* \"#utility.yul\":3082:3200   */\n      pop\n      pop\n      jump\t// out\n        /* \"#utility.yul\":3206:3428   */\n    tag_24:\n        /* \"#utility.yul\":3299:3303   */\n      0x00\n        /* \"#utility.yul\":3337:3339   */\n      0x20\n        /* \"#utility.yul\":3326:3335   */\n      dup3\n        /* \"#utility.yul\":3322:3340   */\n      add\n        /* \"#utility.yul\":3314:3340   */\n      swap1\n      pop\n        /* \"#utility.yul\":3350:3421   */\n      tag_126\n        /* \"#utility.yul\":3418:3419   */\n      0x00\n        /* \"#utility.yul\":3407:3416   */\n      dup4\n        /* \"#utility.yul\":3403:3420   */\n      add\n        /* \"#utility.yul\":3394:3400   */\n      dup5\n        /* \"#utility.yul\":3350:3421   */\n      tag_69\n      jump\t// in\n    tag_126:\n        /* \"#utility.yul\":3206:3428   */\n      swap3\n      swap2\n      pop\n      pop\n      jump\t// out\n        /* \"#utility.yul\":3434:3551   */\n    tag_70:\n        /* \"#utility.yul\":3543:3544   */\n      0x00\n        /* \"#utility.yul\":3540:3541   */\n      dup1\n        /* \"#utility.yul\":3533:3545   */\n      revert\n        /* \"#utility.yul\":3557:3674   */\n    tag_71:\n        /* \"#utility.yul\":3666:3667   */\n      0x00\n        /* \"#utility.yul\":3663:3664   */\n      dup1\n        /* \"#utility.yul\":3656:3668   */\n      revert\n        /* \"#utility.yul\":3680:3797   */\n    tag_72:\n        /* \"#utility.yul\":3789:3790   */\n      0x00\n        /* \"#utility.yul\":3786:3787   */\n      dup1\n        /* \"#utility.yul\":3779:3791   */\n      revert\n        /* \"#utility.yul\":3816:4368   */\n    tag_73:\n        /* \"#utility.yul\":3873:3881   */\n      0x00\n        /* \"#utility.yul\":3883:3889   */\n      dup1\n        /* \"#utility.yul\":3933:3936   */\n      dup4\n        /* \"#utility.yul\":3926:3930   */\n      0x1f\n        /* \"#utility.yul\":3918:3924   */\n      dup5\n        /* \"#utility.yul\":3914:3931   */\n      add\n        /* \"#utility.yul\":3910:3937   */\n      slt\n        /* \"#utility.yul\":3900:4022   */\n      tag_131\n      jumpi\n        /* \"#utility.yul\":3941:4020   */\n      tag_132\n      tag_70\n      jump\t// in\n    tag_132:\n        /* \"#utility.yul\":3900:4022   */\n    tag_131:\n        /* \"#utility.yul\":4054:4060   */\n      dup3\n        /* \"#utility.yul\":4041:4061   */\n      calldataload\n        /* \"#utility.yul\":4031:4061   */\n      swap1\n      pop\n        /* \"#utility.yul\":4084:4102   */\n      0xffffffffffffffff\n        /* \"#utility.yul\":4076:4082   */\n      dup2\n        /* \"#utility.yul\":4073:4103   */\n      gt\n        /* \"#utility.yul\":4070:4187   */\n      iszero\n      tag_133\n      jumpi\n        /* \"#utility.yul\":4106:4185   */\n      tag_134\n      tag_71\n      jump\t// in\n    tag_134:\n        /* \"#utility.yul\":4070:4187   */\n    tag_133:\n        /* \"#utility.yul\":4220:4224   */\n      0x20\n        /* \"#utility.yul\":4212:4218   */\n      dup4\n        /* \"#utility.yul\":4208:4225   */\n      add\n        /* \"#utility.yul\":4196:4225   */\n      swap2\n      pop\n        /* \"#utility.yul\":4274:4277   */\n      dup4\n        /* \"#utility.yul\":4266:4270   */\n      0x01\n        /* \"#utility.yul\":4258:4264   */\n      dup3\n        /* \"#utility.yul\":4254:4271   */\n      mul\n        /* \"#utility.yul\":4244:4252   */\n      dup4\n        /* \"#utility.yul\":4240:4272   */\n      add\n        /* \"#utility.yul\":4237:4278   */\n      gt\n        /* \"#utility.yul\":4234:4362   */\n      iszero\n      tag_135\n      jumpi\n        /* \"#utility.yul\":4281:4360   */\n      tag_136\n      tag_72\n      jump\t// in\n    tag_136:\n        /* \"#utility.yul\":4234:4362   */\n    tag_135:\n        /* \"#utility.yul\":3816:4368   */\n      swap3\n      pop\n      swap3\n      swap1\n      pop\n      jump\t// out\n        /* \"#utility.yul\":4374:5483   */\n    tag_28:\n        /* \"#utility.yul\":4480:4486   */\n      0x00\n        /* \"#utility.yul\":4488:4494   */\n      dup1\n        /* \"#utility.yul\":4496:4502   */\n      0x00\n        /* \"#utility.yul\":4504:4510   */\n      dup1\n        /* \"#utility.yul\":4512:4518   */\n      0x00\n        /* \"#utility.yul\":4520:4526   */\n      dup1\n        /* \"#utility.yul\":4569:4572   */\n      0xa0\n        /* \"#utility.yul\":4557:4566   */\n      dup8\n        /* \"#utility.yul\":4548:4555   */\n      dup10\n        /* \"#utility.yul\":4544:4567   */\n      sub\n        /* \"#utility.yul\":4540:4573   */\n      slt\n        /* \"#utility.yul\":4537:4657   */\n      iszero\n      tag_138\n      jumpi\n        /* \"#utility.yul\":4576:4655   */\n      tag_139\n      tag_57\n      jump\t// in\n    tag_139:\n        /* \"#utility.yul\":4537:4657   */\n    tag_138:\n        /* \"#utility.yul\":4696:4697   */\n      0x00\n        /* \"#utility.yul\":4721:4774   */\n      tag_140\n        /* \"#utility.yul\":4766:4773   */\n      dup10\n        /* \"#utility.yul\":4757:4763   */\n      dup3\n        /* \"#utility.yul\":4746:4755   */\n      dup11\n        /* \"#utility.yul\":4742:4764   */\n      add\n        /* \"#utility.yul\":4721:4774   */\n      tag_65\n      jump\t// in\n    tag_140:\n        /* \"#utility.yul\":4711:4774   */\n      swap7\n      pop\n        /* \"#utility.yul\":4667:4784   */\n      pop\n        /* \"#utility.yul\":4823:4825   */\n      0x20\n        /* \"#utility.yul\":4849:4902   */\n      tag_141\n        /* \"#utility.yul\":4894:4901   */\n      dup10\n        /* \"#utility.yul\":4885:4891   */\n      dup3\n        /* \"#utility.yul\":4874:4883   */\n      dup11\n        /* \"#utility.yul\":4870:4892   */\n      add\n        /* \"#utility.yul\":4849:4902   */\n      tag_65\n      jump\t// in\n    tag_141:\n        /* \"#utility.yul\":4839:4902   */\n      swap6\n      pop\n        /* \"#utility.yul\":4794:4912   */\n      pop\n        /* \"#utility.yul\":4951:4953   */\n      0x40\n        /* \"#utility.yul\":4977:5030   */\n      tag_142\n        /* \"#utility.yul\":5022:5029   */\n      dup10\n        /* \"#utility.yul\":5013:5019   */\n      dup3\n        /* \"#utility.yul\":5002:5011   */\n      dup11\n        /* \"#utility.yul\":4998:5020   */\n      add\n        /* \"#utility.yul\":4977:5030   */\n      tag_61\n      jump\t// in\n    tag_142:\n        /* \"#utility.yul\":4967:5030   */\n      swap5\n      pop\n        /* \"#utility.yul\":4922:5040   */\n      pop\n        /* \"#utility.yul\":5079:5081   */\n      0x60\n        /* \"#utility.yul\":5105:5158   */\n      tag_143\n        /* \"#utility.yul\":5150:5157   */\n      dup10\n        /* \"#utility.yul\":5141:5147   */\n      dup3\n        /* \"#utility.yul\":5130:5139   */\n      dup11\n        /* \"#utility.yul\":5126:5148   */\n      add\n        /* \"#utility.yul\":5105:5158   */\n      tag_61\n      jump\t// in\n    tag_143:\n        /* \"#utility.yul\":5095:5158   */\n      swap4\n      pop\n        /* \"#utility.yul\":5050:5168   */\n      pop\n        /* \"#utility.yul\":5235:5238   */\n      0x80\n        /* \"#utility.yul\":5224:5233   */\n      dup8\n        /* \"#utility.yul\":5220:5239   */\n      add\n        /* \"#utility.yul\":5207:5240   */\n      calldataload\n        /* \"#utility.yul\":5267:5285   */\n      0xffffffffffffffff\n        /* \"#utility.yul\":5259:5265   */\n      dup2\n        /* \"#utility.yul\":5256:5286   */\n      gt\n        /* \"#utility.yul\":5253:5370   */\n      iszero\n      tag_144\n      jumpi\n        /* \"#utility.yul\":5289:5368   */\n      tag_145\n      tag_58\n      jump\t// in\n    tag_145:\n        /* \"#utility.yul\":5253:5370   */\n    tag_144:\n        /* \"#utility.yul\":5402:5466   */\n      tag_146\n        /* \"#utility.yul\":5458:5465   */\n      dup10\n        /* \"#utility.yul\":5449:5455   */\n      dup3\n        /* \"#utility.yul\":5438:5447   */\n      dup11\n        /* \"#utility.yul\":5434:5456   */\n      add\n        /* \"#utility.yul\":5402:5466   */\n      tag_73\n      jump\t// in\n    tag_146:\n        /* \"#utility.yul\":5384:5466   */\n      swap3\n      pop\n      swap3\n      pop\n        /* \"#utility.yul\":5178:5476   */\n      pop\n        /* \"#utility.yul\":4374:5483   */\n      swap3\n      swap6\n      pop\n      swap3\n      swap6\n      pop\n      swap3\n      swap6\n      jump\t// out\n        /* \"#utility.yul\":5489:5638   */\n    tag_74:\n        /* \"#utility.yul\":5525:5532   */\n      0x00\n        /* \"#utility.yul\":5565:5631   */\n      0xffffffff00000000000000000000000000000000000000000000000000000000\n        /* \"#utility.yul\":5558:5563   */\n      dup3\n        /* \"#utility.yul\":5554:5632   */\n      and\n        /* \"#utility.yul\":5543:5632   */\n      swap1\n      pop\n        /* \"#utility.yul\":5489:5638   */\n      swap2\n      swap1\n      pop\n      jump\t// out\n        /* \"#utility.yul\":5644:5759   */\n    tag_75:\n        /* \"#utility.yul\":5729:5752   */\n      tag_149\n        /* \"#utility.yul\":5746:5751   */\n      dup2\n        /* \"#utility.yul\":5729:5752   */\n      tag_74\n      jump\t// in\n    tag_149:\n        /* \"#utility.yul\":5724:5727   */\n      dup3\n        /* \"#utility.yul\":5717:5753   */\n      mstore\n        /* \"#utility.yul\":5644:5759   */\n      pop\n      pop\n      jump\t// out\n        /* \"#utility.yul\":5765:5983   */\n    tag_31:\n        /* \"#utility.yul\":5856:5860   */\n      0x00\n        /* \"#utility.yul\":5894:5896   */\n      0x20\n        /* \"#utility.yul\":5883:5892   */\n      dup3\n        /* \"#utility.yul\":5879:5897   */\n      add\n        /* \"#utility.yul\":5871:5897   */\n      swap1\n      pop\n        /* \"#utility.yul\":5907:5976   */\n      tag_151\n        /* \"#utility.yul\":5973:5974   */\n      0x00\n        /* \"#utility.yul\":5962:5971   */\n      dup4\n        /* \"#utility.yul\":5958:5975   */\n      add\n        /* \"#utility.yul\":5949:5955   */\n      dup5\n        /* \"#utility.yul\":5907:5976   */\n      tag_75\n      jump\t// in\n    tag_151:\n        /* \"#utility.yul\":5765:5983   */\n      swap3\n      swap2\n      pop\n      pop\n      jump\t// out\n        /* \"#utility.yul\":5989:6431   */\n    tag_34:\n        /* \"#utility.yul\":6138:6142   */\n      0x00\n        /* \"#utility.yul\":6176:6178   */\n      0x60\n        /* \"#utility.yul\":6165:6174   */\n      dup3\n        /* \"#utility.yul\":6161:6179   */\n      add\n        /* \"#utility.yul\":6153:6179   */\n      swap1\n      pop\n        /* \"#utility.yul\":6189:6260   */\n      tag_153\n        /* \"#utility.yul\":6257:6258   */\n      0x00\n        /* \"#utility.yul\":6246:6255   */\n      dup4\n        /* \"#utility.yul\":6242:6259   */\n      add\n        /* \"#utility.yul\":6233:6239   */\n      dup7\n        /* \"#utility.yul\":6189:6260   */\n      tag_69\n      jump\t// in\n    tag_153:\n        /* \"#utility.yul\":6270:6342   */\n      tag_154\n        /* \"#utility.yul\":6338:6340   */\n      0x20\n        /* \"#utility.yul\":6327:6336   */\n      dup4\n        /* \"#utility.yul\":6323:6341   */\n      add\n        /* \"#utility.yul\":6314:6320   */\n      dup6\n        /* \"#utility.yul\":6270:6342   */\n      tag_69\n      jump\t// in\n    tag_154:\n        /* \"#utility.yul\":6352:6424   */\n      tag_155\n        /* \"#utility.yul\":6420:6422   */\n      0x40\n        /* \"#utility.yul\":6409:6418   */\n      dup4\n        /* \"#utility.yul\":6405:6423   */\n      add\n        /* \"#utility.yul\":6396:6402   */\n      dup5\n        /* \"#utility.yul\":6352:6424   */\n      tag_68\n      jump\t// in\n    tag_155:\n        /* \"#utility.yul\":5989:6431   */\n      swap5\n      swap4\n      pop\n      pop\n      pop\n      pop\n      jump\t// out\n        /* \"#utility.yul\":6437:6553   */\n    tag_76:\n        /* \"#utility.yul\":6507:6528   */\n      tag_157\n        /* \"#utility.yul\":6522:6527   */\n      dup2\n        /* \"#utility.yul\":6507:6528   */\n      tag_66\n      jump\t// in\n    tag_157:\n        /* \"#utility.yul\":6500:6505   */\n      dup2\n        /* \"#utility.yul\":6497:6529   */\n      eq\n        /* \"#utility.yul\":6487:6547   */\n      tag_158\n      jumpi\n        /* \"#utility.yul\":6543:6544   */\n      0x00\n        /* \"#utility.yul\":6540:6541   */\n      dup1\n        /* \"#utility.yul\":6533:6545   */\n      revert\n        /* \"#utility.yul\":6487:6547   */\n    tag_158:\n        /* \"#utility.yul\":6437:6553   */\n      pop\n      jump\t// out\n        /* \"#utility.yul\":6559:6696   */\n    tag_77:\n        /* \"#utility.yul\":6613:6618   */\n      0x00\n        /* \"#utility.yul\":6644:6650   */\n      dup2\n        /* \"#utility.yul\":6638:6651   */\n      mload\n        /* \"#utility.yul\":6629:6651   */\n      swap1\n      pop\n        /* \"#utility.yul\":6660:6690   */\n      tag_160\n        /* \"#utility.yul\":6684:6689   */\n      dup2\n        /* \"#utility.yul\":6660:6690   */\n      tag_76\n      jump\t// in\n    tag_160:\n        /* \"#utility.yul\":6559:6696   */\n      swap3\n      swap2\n      pop\n      pop\n      jump\t// out\n        /* \"#utility.yul\":6702:7047   */\n    tag_38:\n        /* \"#utility.yul\":6769:6775   */\n      0x00\n        /* \"#utility.yul\":6818:6820   */\n      0x20\n        /* \"#utility.yul\":6806:6815   */\n      dup3\n        /* \"#utility.yul\":6797:6804   */\n      dup5\n        /* \"#utility.yul\":6793:6816   */\n      sub\n        /* \"#utility.yul\":6789:6821   */\n      slt\n        /* \"#utility.yul\":6786:6905   */\n      iszero\n      tag_162\n      jumpi\n        /* \"#utility.yul\":6824:6903   */\n      tag_163\n      tag_57\n      jump\t// in\n    tag_163:\n        /* \"#utility.yul\":6786:6905   */\n    tag_162:\n        /* \"#utility.yul\":6944:6945   */\n      0x00\n        /* \"#utility.yul\":6969:7030   */\n      tag_164\n        /* \"#utility.yul\":7022:7029   */\n      dup5\n        /* \"#utility.yul\":7013:7019   */\n      dup3\n        /* \"#utility.yul\":7002:7011   */\n      dup6\n        /* \"#utility.yul\":6998:7020   */\n      add\n        /* \"#utility.yul\":6969:7030   */\n      tag_77\n      jump\t// in\n    tag_164:\n        /* \"#utility.yul\":6959:7030   */\n      swap2\n      pop\n        /* \"#utility.yul\":6915:7040   */\n      pop\n        /* \"#utility.yul\":6702:7047   */\n      swap3\n      swap2\n      pop\n      pop\n      jump\t// out\n        /* \"#utility.yul\":7053:7221   */\n    tag_78:\n        /* \"#utility.yul\":7136:7147   */\n      0x00\n        /* \"#utility.yul\":7170:7176   */\n      dup3\n        /* \"#utility.yul\":7165:7168   */\n      dup3\n        /* \"#utility.yul\":7158:7177   */\n      mstore\n        /* \"#utility.yul\":7210:7214   */\n      0x20\n        /* \"#utility.yul\":7205:7208   */\n      dup3\n        /* \"#utility.yul\":7201:7215   */\n      add\n        /* \"#utility.yul\":7186:7215   */\n      swap1\n      pop\n        /* \"#utility.yul\":7053:7221   */\n      swap3\n      swap2\n      pop\n      pop\n      jump\t// out\n        /* \"#utility.yul\":7227:7381   */\n    tag_79:\n        /* \"#utility.yul\":7367:7373   */\n      0x3078303000000000000000000000000000000000000000000000000000000000\n        /* \"#utility.yul\":7363:7364   */\n      0x00\n        /* \"#utility.yul\":7355:7361   */\n      dup3\n        /* \"#utility.yul\":7351:7365   */\n      add\n        /* \"#utility.yul\":7344:7374   */\n      mstore\n        /* \"#utility.yul\":7227:7381   */\n      pop\n      jump\t// out\n        /* \"#utility.yul\":7387:7750   */\n    tag_80:\n        /* \"#utility.yul\":7528:7531   */\n      0x00\n        /* \"#utility.yul\":7549:7614   */\n      tag_168\n        /* \"#utility.yul\":7612:7613   */\n      0x04\n        /* \"#utility.yul\":7607:7610   */\n      dup4\n        /* \"#utility.yul\":7549:7614   */\n      tag_78\n      jump\t// in\n    tag_168:\n        /* \"#utility.yul\":7542:7614   */\n      swap2\n      pop\n        /* \"#utility.yul\":7623:7716   */\n      tag_169\n        /* \"#utility.yul\":7712:7715   */\n      dup3\n        /* \"#utility.yul\":7623:7716   */\n      tag_79\n      jump\t// in\n    tag_169:\n        /* \"#utility.yul\":7741:7743   */\n      0x20\n        /* \"#utility.yul\":7736:7739   */\n      dup3\n        /* \"#utility.yul\":7732:7744   */\n      add\n        /* \"#utility.yul\":7725:7744   */\n      swap1\n      pop\n        /* \"#utility.yul\":7387:7750   */\n      swap2\n      swap1\n      pop\n      jump\t// out\n        /* \"#utility.yul\":7756:8615   */\n    tag_40:\n        /* \"#utility.yul\":8033:8037   */\n      0x00\n        /* \"#utility.yul\":8071:8074   */\n      0xa0\n        /* \"#utility.yul\":8060:8069   */\n      dup3\n        /* \"#utility.yul\":8056:8075   */\n      add\n        /* \"#utility.yul\":8048:8075   */\n      swap1\n      pop\n        /* \"#utility.yul\":8085:8156   */\n      tag_171\n        /* \"#utility.yul\":8153:8154   */\n      0x00\n        /* \"#utility.yul\":8142:8151   */\n      dup4\n        /* \"#utility.yul\":8138:8155   */\n      add\n        /* \"#utility.yul\":8129:8135   */\n      dup8\n        /* \"#utility.yul\":8085:8156   */\n      tag_69\n      jump\t// in\n    tag_171:\n        /* \"#utility.yul\":8166:8238   */\n      tag_172\n        /* \"#utility.yul\":8234:8236   */\n      0x20\n        /* \"#utility.yul\":8223:8232   */\n      dup4\n        /* \"#utility.yul\":8219:8237   */\n      add\n        /* \"#utility.yul\":8210:8216   */\n      dup7\n        /* \"#utility.yul\":8166:8238   */\n      tag_69\n      jump\t// in\n    tag_172:\n        /* \"#utility.yul\":8248:8320   */\n      tag_173\n        /* \"#utility.yul\":8316:8318   */\n      0x40\n        /* \"#utility.yul\":8305:8314   */\n      dup4\n        /* \"#utility.yul\":8301:8319   */\n      add\n        /* \"#utility.yul\":8292:8298   */\n      dup6\n        /* \"#utility.yul\":8248:8320   */\n      tag_68\n      jump\t// in\n    tag_173:\n        /* \"#utility.yul\":8330:8402   */\n      tag_174\n        /* \"#utility.yul\":8398:8400   */\n      0x60\n        /* \"#utility.yul\":8387:8396   */\n      dup4\n        /* \"#utility.yul\":8383:8401   */\n      add\n        /* \"#utility.yul\":8374:8380   */\n      dup5\n        /* \"#utility.yul\":8330:8402   */\n      tag_68\n      jump\t// in\n    tag_174:\n        /* \"#utility.yul\":8450:8459   */\n      dup2\n        /* \"#utility.yul\":8444:8448   */\n      dup2\n        /* \"#utility.yul\":8440:8460   */\n      sub\n        /* \"#utility.yul\":8434:8437   */\n      0x80\n        /* \"#utility.yul\":8423:8432   */\n      dup4\n        /* \"#utility.yul\":8419:8438   */\n      add\n        /* \"#utility.yul\":8412:8461   */\n      mstore\n        /* \"#utility.yul\":8478:8608   */\n      tag_175\n        /* \"#utility.yul\":8603:8607   */\n      dup2\n        /* \"#utility.yul\":8478:8608   */\n      tag_80\n      jump\t// in\n    tag_175:\n        /* \"#utility.yul\":8470:8608   */\n      swap1\n      pop\n        /* \"#utility.yul\":7756:8615   */\n      swap6\n      swap5\n      pop\n      pop\n      pop\n      pop\n      pop\n      jump\t// out\n        /* \"#utility.yul\":8621:8801   */\n    tag_81:\n        /* \"#utility.yul\":8669:8746   */\n      0x4e487b7100000000000000000000000000000000000000000000000000000000\n        /* \"#utility.yul\":8666:8667   */\n      0x00\n        /* \"#utility.yul\":8659:8747   */\n      mstore\n        /* \"#utility.yul\":8766:8770   */\n      0x11\n        /* \"#utility.yul\":8763:8764   */\n      0x04\n        /* \"#utility.yul\":8756:8771   */\n      mstore\n        /* \"#utility.yul\":8790:8794   */\n      0x24\n        /* \"#utility.yul\":8787:8788   */\n      0x00\n        /* \"#utility.yul\":8780:8795   */\n      revert\n        /* \"#utility.yul\":8807:9112   */\n    tag_50:\n        /* \"#utility.yul\":8847:8850   */\n      0x00\n        /* \"#utility.yul\":8866:8886   */\n      tag_178\n        /* \"#utility.yul\":8884:8885   */\n      dup3\n        /* \"#utility.yul\":8866:8886   */\n      tag_59\n      jump\t// in\n    tag_178:\n        /* \"#utility.yul\":8861:8886   */\n      swap2\n      pop\n        /* \"#utility.yul\":8900:8920   */\n      tag_179\n        /* \"#utility.yul\":8918:8919   */\n      dup4\n        /* \"#utility.yul\":8900:8920   */\n      tag_59\n      jump\t// in\n    tag_179:\n        /* \"#utility.yul\":8895:8920   */\n      swap3\n      pop\n        /* \"#utility.yul\":9054:9055   */\n      dup3\n        /* \"#utility.yul\":8986:9052   */\n      0xffffffffffffffffffffffffffffffffffffffffffffffffffffffffffffffff\n        /* \"#utility.yul\":8982:9056   */\n      sub\n        /* \"#utility.yul\":8979:8980   */\n      dup3\n        /* \"#utility.yul\":8976:9057   */\n      gt\n        /* \"#utility.yul\":8973:9080   */\n      iszero\n      tag_180\n      jumpi\n        /* \"#utility.yul\":9060:9078   */\n      tag_181\n      tag_81\n      jump\t// in\n    tag_181:\n        /* \"#utility.yul\":8973:9080   */\n    tag_180:\n        /* \"#utility.yul\":9104:9105   */\n      dup3\n        /* \"#utility.yul\":9101:9102   */\n      dup3\n        /* \"#utility.yul\":9097:9106   */\n      add\n        /* \"#utility.yul\":9090:9106   */\n      swap1\n      pop\n        /* \"#utility.yul\":8807:9112   */\n      swap3\n      swap2\n      pop\n      pop\n      jump\t// out\n        /* \"#utility.yul\":9118:9272   */\n    tag_82:\n        /* \"#utility.yul\":9202:9208   */\n      dup3\n        /* \"#utility.yul\":9197:9200   */\n      dup2\n        /* \"#utility.yul\":9192:9195   */\n      dup4\n        /* \"#utility.yul\":9179:9209   */\n      calldatacopy\n        /* \"#utility.yul\":9264:9265   */\n      0x00\n        /* \"#utility.yul\":9255:9261   */\n      dup4\n        /* \"#utility.yul\":9250:9253   */\n      dup4\n        /* \"#utility.yul\":9246:9262   */\n      add\n        /* \"#utility.yul\":9239:9266   */\n      mstore\n        /* \"#utility.yul\":9118:9272   */\n      pop\n      pop\n      pop\n      jump\t// out\n        /* \"#utility.yul\":9278:9380   */\n    tag_83:\n        /* \"#utility.yul\":9319:9325   */\n      0x00\n        /* \"#utility.yul\":9370:9372   */\n      0x1f\n        /* \"#utility.yul\":9366:9373   */\n      not\n        /* \"#utility.yul\":9361:9363   */\n      0x1f\n        /* \"#utility.yul\":9354:9359   */\n      dup4\n        /* \"#utility.yul\":9350:9364   */\n      add\n        /* \"#utility.yul\":9346:9374   */\n      and\n        /* \"#utility.yul\":9336:9374   */\n      swap1\n      pop\n        /* \"#utility.yul\":9278:9380   */\n      swap2\n      swap1\n      pop\n      jump\t// out\n        /* \"#utility.yul\":9408:9709   */\n    tag_84:\n        /* \"#utility.yul\":9504:9507   */\n      0x00\n        /* \"#utility.yul\":9525:9595   */\n      tag_185\n        /* \"#utility.yul\":9588:9594   */\n      dup4\n        /* \"#utility.yul\":9583:9586   */\n      dup6\n        /* \"#utility.yul\":9525:9595   */\n      tag_78\n      jump\t// in\n    tag_185:\n        /* \"#utility.yul\":9518:9595   */\n      swap4\n      pop\n        /* \"#utility.yul\":9605:9648   */\n      tag_186\n        /* \"#utility.yul\":9641:9647   */\n      dup4\n        /* \"#utility.yul\":9636:9639   */\n      dup6\n        /* \"#utility.yul\":9629:9634   */\n      dup5\n        /* \"#utility.yul\":9605:9648   */\n      tag_82\n      jump\t// in\n    tag_186:\n        /* \"#utility.yul\":9673:9702   */\n      tag_187\n        /* \"#utility.yul\":9695:9701   */\n      dup4\n        /* \"#utility.yul\":9673:9702   */\n      tag_83\n      jump\t// in\n    tag_187:\n        /* \"#utility.yul\":9668:9671   */\n      dup5\n        /* \"#utility.yul\":9664:9703   */\n      add\n        /* \"#utility.yul\":9657:9703   */\n      swap1\n      pop\n        /* \"#utility.yul\":9408:9709   */\n      swap4\n      swap3\n      pop\n      pop\n      pop\n      jump\t// out\n        /* \"#utility.yul\":9715:10597   */\n    tag_52:\n        /* \"#utility.yul\":9976:9980   */\n      0x00\n        /* \"#utility.yul\":10014:10017   */\n      0xc0\n        /* \"#utility.yul\":10003:10012   */\n      dup3\n        /* \"#utility.yul\":9999:10018   */\n      add\n        /* \"#utility.yul\":9991:10018   */\n      swap1\n      pop\n        /* \"#utility.yul\":10028:10099   */\n      tag_189\n        /* \"#utility.yul\":10096:10097   */\n      0x00\n        /* \"#utility.yul\":10085:10094   */\n      dup4\n        /* \"#utility.yul\":10081:10098   */\n      add\n        /* \"#utility.yul\":10072:10078   */\n      dup11\n        /* \"#utility.yul\":10028:10099   */\n      tag_69\n      jump\t// in\n    tag_189:\n        /* \"#utility.yul\":10109:10181   */\n      tag_190\n        /* \"#utility.yul\":10177:10179   */\n      0x20\n        /* \"#utility.yul\":10166:10175   */\n      dup4\n        /* \"#utility.yul\":10162:10180   */\n      add\n        /* \"#utility.yul\":10153:10159   */\n      dup10\n        /* \"#utility.yul\":10109:10181   */\n      tag_69\n      jump\t// in\n    tag_190:\n        /* \"#utility.yul\":10191:10263   */\n      tag_191\n        /* \"#utility.yul\":10259:10261   */\n      0x40\n        /* \"#utility.yul\":10248:10257   */\n      dup4\n        /* \"#utility.yul\":10244:10262   */\n      add\n        /* \"#utility.yul\":10235:10241   */\n      dup9\n        /* \"#utility.yul\":10191:10263   */\n      tag_68\n      jump\t// in\n    tag_191:\n        /* \"#utility.yul\":10273:10345   */\n      tag_192\n        /* \"#utility.yul\":10341:10343   */\n      0x60\n        /* \"#utility.yul\":10330:10339   */\n      dup4\n        /* \"#utility.yul\":10326:10344   */\n      add\n        /* \"#utility.yul\":10317:10323   */\n      dup8\n        /* \"#utility.yul\":10273:10345   */\n      tag_68\n      jump\t// in\n    tag_192:\n        /* \"#utility.yul\":10393:10402   */\n      dup2\n        /* \"#utility.yul\":10387:10391   */\n      dup2\n        /* \"#utility.yul\":10383:10403   */\n      sub\n        /* \"#utility.yul\":10377:10380   */\n      0x80\n        /* \"#utility.yul\":10366:10375   */\n      dup4\n        /* \"#utility.yul\":10362:10381   */\n      add\n        /* \"#utility.yul\":10355:10404   */\n      mstore\n        /* \"#utility.yul\":10421:10507   */\n      tag_193\n        /* \"#utility.yul\":10502:10506   */\n      dup2\n        /* \"#utility.yul\":10493:10499   */\n      dup6\n        /* \"#utility.yul\":10485:10491   */\n      dup8\n        /* \"#utility.yul\":10421:10507   */\n      tag_84\n      jump\t// in\n    tag_193:\n        /* \"#utility.yul\":10413:10507   */\n      swap1\n      pop\n        /* \"#utility.yul\":10517:10590   */\n      tag_194\n        /* \"#utility.yul\":10585:10588   */\n      0xa0\n        /* \"#utility.yul\":10574:10583   */\n      dup4\n        /* \"#utility.yul\":10570:10589   */\n      add\n        /* \"#utility.yul\":10561:10567   */\n      dup5\n        /* \"#utility.yul\":10517:10590   */\n      tag_68\n      jump\t// in\n    tag_194:\n        /* \"#utility.yul\":9715:10597   */\n      swap9\n      swap8\n      pop\n      pop\n      pop\n      pop\n      pop\n      pop\n      pop\n      pop\n      jump\t// out\n        /* \"#utility.yul\":10603:10794   */\n    tag_55:\n        /* \"#utility.yul\":10643:10647   */\n      0x00\n        /* \"#utility.yul\":10663:10683   */\n      tag_196\n        /* \"#utility.yul\":10681:10682   */\n      dup3\n        /* \"#utility.yul\":10663:10683   */\n      tag_59\n      jump\t// in\n    tag_196:\n        /* \"#utility.yul\":10658:10683   */\n      swap2\n      pop\n        /* \"#utility.yul\":10697:10717   */\n      tag_197\n        /* \"#utility.yul\":10715:10716   */\n      dup4\n        /* \"#utility.yul\":10697:10717   */\n      tag_59\n      jump\t// in\n    tag_197:\n        /* \"#utility.yul\":10692:10717   */\n      swap3\n      pop\n        /* \"#utility.yul\":10736:10737   */\n      dup3\n        /* \"#utility.yul\":10733:10734   */\n      dup3\n        /* \"#utility.yul\":10730:10738   */\n      lt\n        /* \"#utility.yul\":10727:10761   */\n      iszero\n      tag_198\n      jumpi\n        /* \"#utility.yul\":10741:10759   */\n      tag_199\n      tag_81\n      jump\t// in\n    tag_199:\n        /* \"#utility.yul\":10727:10761   */\n    tag_198:\n        /* \"#utility.yul\":10786:10787   */\n      dup3\n        /* \"#utility.yul\":10783:10784   */\n      dup3\n        /* \"#utility.yul\":10779:10788   */\n      sub\n        /* \"#utility.yul\":10771:10788   */\n      swap1\n      pop\n        /* \"#utility.yul\":10603:10794   */\n      swap3\n      swap2\n      pop\n      pop\n      jump\t// out\n\n    auxdata: 0xa26469706673582212208d5a8bcea837d5e1fa15eddaff66a1f576a2197392cfd452c120bab59c33bd9a64736f6c634300080a0033\n}\n",
				"bytecode": {
					"linkReferences": {},
					"object": "608060405234801561001057600080fd5b506109ef806100206000396000f3fe60806040526004361061003f5760003560e01c806308dd9d36146100445780638b0d025814610074578063aacdfe6f146100b1578063f23a6e61146100ee575b600080fd5b61005e60048036038101906100599190610491565b61012b565b60405161006b9190610513565b60405180910390f35b34801561008057600080fd5b5061009b6004803603810190610096919061052e565b610267565b6040516100a8919061056a565b60405180910390f35b3480156100bd57600080fd5b506100d860048036038101906100d3919061052e565b610284565b6040516100e59190610594565b60405180910390f35b3480156100fa57600080fd5b5061011560048036038101906101109190610614565b6102c0565b60405161012291906106e9565b60405180910390f35b60008173ffffffffffffffffffffffffffffffffffffffff166323b872dd3360008089815260200190815260200160002060009054906101000a900473ffffffffffffffffffffffffffffffffffffffff16876040518463ffffffff1660e01b815260040161019c93929190610704565b6020604051808303816000875af11580156101bb573d6000803e3d6000fd5b505050506040513d601f19601f820116820180604052508101906101df9190610767565b508273ffffffffffffffffffffffffffffffffffffffff1663f242432a303388886040518563ffffffff1660e01b815260040161021f94939291906107f1565b600060405180830381600087803b15801561023957600080fd5b505af115801561024d573d6000803e3d6000fd5b5050505061025b85856103b9565b60019050949350505050565b600060016000838152602001908152602001600020549050919050565b600080600083815260200190815260200160002060009054906101000a900473ffffffffffffffffffffffffffffffffffffffff169050919050565b60008560008087815260200190815260200160002060006101000a81548173ffffffffffffffffffffffffffffffffffffffff021916908373ffffffffffffffffffffffffffffffffffffffff1602179055508360016000878152602001908152602001600020546103329190610878565b60016000878152602001908152602001600020819055507f20dfa9f79060c8c4d7fe892c97c71bcf6e3b63d1dcf66fea7aefc0211628cf298787878787875a604051610384979695949392919061091b565b60405180910390a17ff23a6e612e1ff4830e658fe43f4e3cb4a5f8170bd5d9e69fb5d7a7fa9e4fdf9790509695505050505050565b8060016000848152602001908152602001600020546103d89190610985565b60016000848152602001908152602001600020819055505050565b600080fd5b600080fd5b6000819050919050565b610410816103fd565b811461041b57600080fd5b50565b60008135905061042d81610407565b92915050565b600073ffffffffffffffffffffffffffffffffffffffff82169050919050565b600061045e82610433565b9050919050565b61046e81610453565b811461047957600080fd5b50565b60008135905061048b81610465565b92915050565b600080600080608085870312156104ab576104aa6103f3565b5b60006104b98782880161041e565b94505060206104ca8782880161041e565b93505060406104db8782880161047c565b92505060606104ec8782880161047c565b91505092959194509250565b60008115159050919050565b61050d816104f8565b82525050565b60006020820190506105286000830184610504565b92915050565b600060208284031215610544576105436103f3565b5b60006105528482850161041e565b91505092915050565b610564816103fd565b82525050565b600060208201905061057f600083018461055b565b92915050565b61058e81610453565b82525050565b60006020820190506105a96000830184610585565b92915050565b600080fd5b600080fd5b600080fd5b60008083601f8401126105d4576105d36105af565b5b8235905067ffffffffffffffff8111156105f1576105f06105b4565b5b60208301915083600182028301111561060d5761060c6105b9565b5b9250929050565b60008060008060008060a08789031215610631576106306103f3565b5b600061063f89828a0161047c565b965050602061065089828a0161047c565b955050604061066189828a0161041e565b945050606061067289828a0161041e565b935050608087013567ffffffffffffffff811115610693576106926103f8565b5b61069f89828a016105be565b92509250509295509295509295565b60007fffffffff0000000000000000000000000000000000000000000000000000000082169050919050565b6106e3816106ae565b82525050565b60006020820190506106fe60008301846106da565b92915050565b60006060820190506107196000830186610585565b6107266020830185610585565b610733604083018461055b565b949350505050565b610744816104f8565b811461074f57600080fd5b50565b6000815190506107618161073b565b92915050565b60006020828403121561077d5761077c6103f3565b5b600061078b84828501610752565b91505092915050565b600082825260208201905092915050565b7f3078303000000000000000000000000000000000000000000000000000000000600082015250565b60006107db600483610794565b91506107e6826107a5565b602082019050919050565b600060a0820190506108066000830187610585565b6108136020830186610585565b610820604083018561055b565b61082d606083018461055b565b818103608083015261083e816107ce565b905095945050505050565b7f4e487b7100000000000000000000000000000000000000000000000000000000600052601160045260246000fd5b6000610883826103fd565b915061088e836103fd565b9250827fffffffffffffffffffffffffffffffffffffffffffffffffffffffffffffffff038211156108c3576108c2610849565b5b828201905092915050565b82818337600083830152505050565b6000601f19601f8301169050919050565b60006108fa8385610794565b93506109078385846108ce565b610910836108dd565b840190509392505050565b600060c082019050610930600083018a610585565b61093d6020830189610585565b61094a604083018861055b565b610957606083018761055b565b818103608083015261096a8185876108ee565b905061097960a083018461055b565b98975050505050505050565b6000610990826103fd565b915061099b836103fd565b9250828210156109ae576109ad610849565b5b82820390509291505056fea26469706673582212208d5a8bcea837d5e1fa15eddaff66a1f576a2197392cfd452c120bab59c33bd9a64736f6c634300080a0033",
					"opcodes": "PUSH1 0x80 PUSH1 0x40 MSTORE CALLVALUE DUP1 ISZERO PUSH2 0x10 JUMPI PUSH1 0x0 DUP1 REVERT JUMPDEST POP PUSH2 0x9EF DUP1 PUSH2 0x20 PUSH1 0x0 CODECOPY PUSH1 0x0 RETURN INVALID PUSH1 0x80 PUSH1 0x40 MSTORE PUSH1 0x4 CALLDATASIZE LT PUSH2 0x3F JUMPI PUSH1 0x0 CALLDATALOAD PUSH1 0xE0 SHR DUP1 PUSH4 0x8DD9D36 EQ PUSH2 0x44 JUMPI DUP1 PUSH4 0x8B0D0258 EQ PUSH2 0x74 JUMPI DUP1 PUSH4 0xAACDFE6F EQ PUSH2 0xB1 JUMPI DUP1 PUSH4 0xF23A6E61 EQ PUSH2 0xEE JUMPI JUMPDEST PUSH1 0x0 DUP1 REVERT JUMPDEST PUSH2 0x5E PUSH1 0x4 DUP1 CALLDATASIZE SUB DUP2 ADD SWAP1 PUSH2 0x59 SWAP2 SWAP1 PUSH2 0x491 JUMP JUMPDEST PUSH2 0x12B JUMP JUMPDEST PUSH1 0x40 MLOAD PUSH2 0x6B SWAP2 SWAP1 PUSH2 0x513 JUMP JUMPDEST PUSH1 0x40 MLOAD DUP1 SWAP2 SUB SWAP1 RETURN JUMPDEST CALLVALUE DUP1 ISZERO PUSH2 0x80 JUMPI PUSH1 0x0 DUP1 REVERT JUMPDEST POP PUSH2 0x9B PUSH1 0x4 DUP1 CALLDATASIZE SUB DUP2 ADD SWAP1 PUSH2 0x96 SWAP2 SWAP1 PUSH2 0x52E JUMP JUMPDEST PUSH2 0x267 JUMP JUMPDEST PUSH1 0x40 MLOAD PUSH2 0xA8 SWAP2 SWAP1 PUSH2 0x56A JUMP JUMPDEST PUSH1 0x40 MLOAD DUP1 SWAP2 SUB SWAP1 RETURN JUMPDEST CALLVALUE DUP1 ISZERO PUSH2 0xBD JUMPI PUSH1 0x0 DUP1 REVERT JUMPDEST POP PUSH2 0xD8 PUSH1 0x4 DUP1 CALLDATASIZE SUB DUP2 ADD SWAP1 PUSH2 0xD3 SWAP2 SWAP1 PUSH2 0x52E JUMP JUMPDEST PUSH2 0x284 JUMP JUMPDEST PUSH1 0x40 MLOAD PUSH2 0xE5 SWAP2 SWAP1 PUSH2 0x594 JUMP JUMPDEST PUSH1 0x40 MLOAD DUP1 SWAP2 SUB SWAP1 RETURN JUMPDEST CALLVALUE DUP1 ISZERO PUSH2 0xFA JUMPI PUSH1 0x0 DUP1 REVERT JUMPDEST POP PUSH2 0x115 PUSH1 0x4 DUP1 CALLDATASIZE SUB DUP2 ADD SWAP1 PUSH2 0x110 SWAP2 SWAP1 PUSH2 0x614 JUMP JUMPDEST PUSH2 0x2C0 JUMP JUMPDEST PUSH1 0x40 MLOAD PUSH2 0x122 SWAP2 SWAP1 PUSH2 0x6E9 JUMP JUMPDEST PUSH1 0x40 MLOAD DUP1 SWAP2 SUB SWAP1 RETURN JUMPDEST PUSH1 0x0 DUP2 PUSH20 0xFFFFFFFFFFFFFFFFFFFFFFFFFFFFFFFFFFFFFFFF AND PUSH4 0x23B872DD CALLER PUSH1 0x0 DUP1 DUP10 DUP2 MSTORE PUSH1 0x20 ADD SWAP1 DUP2 MSTORE PUSH1 0x20 ADD PUSH1 0x0 KECCAK256 PUSH1 0x0 SWAP1 SLOAD SWAP1 PUSH2 0x100 EXP SWAP1 DIV PUSH20 0xFFFFFFFFFFFFFFFFFFFFFFFFFFFFFFFFFFFFFFFF AND DUP8 PUSH1 0x40 MLOAD DUP5 PUSH4 0xFFFFFFFF AND PUSH1 0xE0 SHL DUP2 MSTORE PUSH1 0x4 ADD PUSH2 0x19C SWAP4 SWAP3 SWAP2 SWAP1 PUSH2 0x704 JUMP JUMPDEST PUSH1 0x20 PUSH1 0x40 MLOAD DUP1 DUP4 SUB DUP2 PUSH1 0x0 DUP8 GAS CALL ISZERO DUP1 ISZERO PUSH2 0x1BB JUMPI RETURNDATASIZE PUSH1 0x0 DUP1 RETURNDATACOPY RETURNDATASIZE PUSH1 0x0 REVERT JUMPDEST POP POP POP POP PUSH1 0x40 MLOAD RETURNDATASIZE PUSH1 0x1F NOT PUSH1 0x1F DUP3 ADD AND DUP3 ADD DUP1 PUSH1 0x40 MSTORE POP DUP2 ADD SWAP1 PUSH2 0x1DF SWAP2 SWAP1 PUSH2 0x767 JUMP JUMPDEST POP DUP3 PUSH20 0xFFFFFFFFFFFFFFFFFFFFFFFFFFFFFFFFFFFFFFFF AND PUSH4 0xF242432A ADDRESS CALLER DUP9 DUP9 PUSH1 0x40 MLOAD DUP6 PUSH4 0xFFFFFFFF AND PUSH1 0xE0 SHL DUP2 MSTORE PUSH1 0x4 ADD PUSH2 0x21F SWAP5 SWAP4 SWAP3 SWAP2 SWAP1 PUSH2 0x7F1 JUMP JUMPDEST PUSH1 0x0 PUSH1 0x40 MLOAD DUP1 DUP4 SUB DUP2 PUSH1 0x0 DUP8 DUP1 EXTCODESIZE ISZERO DUP1 ISZERO PUSH2 0x239 JUMPI PUSH1 0x0 DUP1 REVERT JUMPDEST POP GAS CALL ISZERO DUP1 ISZERO PUSH2 0x24D JUMPI RETURNDATASIZE PUSH1 0x0 DUP1 RETURNDATACOPY RETURNDATASIZE PUSH1 0x0 REVERT JUMPDEST POP POP POP POP PUSH2 0x25B DUP6 DUP6 PUSH2 0x3B9 JUMP JUMPDEST PUSH1 0x1 SWAP1 POP SWAP5 SWAP4 POP POP POP POP JUMP JUMPDEST PUSH1 0x0 PUSH1 0x1 PUSH1 0x0 DUP4 DUP2 MSTORE PUSH1 0x20 ADD SWAP1 DUP2 MSTORE PUSH1 0x20 ADD PUSH1 0x0 KECCAK256 SLOAD SWAP1 POP SWAP2 SWAP1 POP JUMP JUMPDEST PUSH1 0x0 DUP1 PUSH1 0x0 DUP4 DUP2 MSTORE PUSH1 0x20 ADD SWAP1 DUP2 MSTORE PUSH1 0x20 ADD PUSH1 0x0 KECCAK256 PUSH1 0x0 SWAP1 SLOAD SWAP1 PUSH2 0x100 EXP SWAP1 DIV PUSH20 0xFFFFFFFFFFFFFFFFFFFFFFFFFFFFFFFFFFFFFFFF AND SWAP1 POP SWAP2 SWAP1 POP JUMP JUMPDEST PUSH1 0x0 DUP6 PUSH1 0x0 DUP1 DUP8 DUP2 MSTORE PUSH1 0x20 ADD SWAP1 DUP2 MSTORE PUSH1 0x20 ADD PUSH1 0x0 KECCAK256 PUSH1 0x0 PUSH2 0x100 EXP DUP2 SLOAD DUP2 PUSH20 0xFFFFFFFFFFFFFFFFFFFFFFFFFFFFFFFFFFFFFFFF MUL NOT AND SWAP1 DUP4 PUSH20 0xFFFFFFFFFFFFFFFFFFFFFFFFFFFFFFFFFFFFFFFF AND MUL OR SWAP1 SSTORE POP DUP4 PUSH1 0x1 PUSH1 0x0 DUP8 DUP2 MSTORE PUSH1 0x20 ADD SWAP1 DUP2 MSTORE PUSH1 0x20 ADD PUSH1 0x0 KECCAK256 SLOAD PUSH2 0x332 SWAP2 SWAP1 PUSH2 0x878 JUMP JUMPDEST PUSH1 0x1 PUSH1 0x0 DUP8 DUP2 MSTORE PUSH1 0x20 ADD SWAP1 DUP2 MSTORE PUSH1 0x20 ADD PUSH1 0x0 KECCAK256 DUP2 SWAP1 SSTORE POP PUSH32 0x20DFA9F79060C8C4D7FE892C97C71BCF6E3B63D1DCF66FEA7AEFC0211628CF29 DUP8 DUP8 DUP8 DUP8 DUP8 DUP8 GAS PUSH1 0x40 MLOAD PUSH2 0x384 SWAP8 SWAP7 SWAP6 SWAP5 SWAP4 SWAP3 SWAP2 SWAP1 PUSH2 0x91B JUMP JUMPDEST PUSH1 0x40 MLOAD DUP1 SWAP2 SUB SWAP1 LOG1 PUSH32 0xF23A6E612E1FF4830E658FE43F4E3CB4A5F8170BD5D9E69FB5D7A7FA9E4FDF97 SWAP1 POP SWAP7 SWAP6 POP POP POP POP POP POP JUMP JUMPDEST DUP1 PUSH1 0x1 PUSH1 0x0 DUP5 DUP2 MSTORE PUSH1 0x20 ADD SWAP1 DUP2 MSTORE PUSH1 0x20 ADD PUSH1 0x0 KECCAK256 SLOAD PUSH2 0x3D8 SWAP2 SWAP1 PUSH2 0x985 JUMP JUMPDEST PUSH1 0x1 PUSH1 0x0 DUP5 DUP2 MSTORE PUSH1 0x20 ADD SWAP1 DUP2 MSTORE PUSH1 0x20 ADD PUSH1 0x0 KECCAK256 DUP2 SWAP1 SSTORE POP POP POP JUMP JUMPDEST PUSH1 0x0 DUP1 REVERT JUMPDEST PUSH1 0x0 DUP1 REVERT JUMPDEST PUSH1 0x0 DUP2 SWAP1 POP SWAP2 SWAP1 POP JUMP JUMPDEST PUSH2 0x410 DUP2 PUSH2 0x3FD JUMP JUMPDEST DUP2 EQ PUSH2 0x41B JUMPI PUSH1 0x0 DUP1 REVERT JUMPDEST POP JUMP JUMPDEST PUSH1 0x0 DUP2 CALLDATALOAD SWAP1 POP PUSH2 0x42D DUP2 PUSH2 0x407 JUMP JUMPDEST SWAP3 SWAP2 POP POP JUMP JUMPDEST PUSH1 0x0 PUSH20 0xFFFFFFFFFFFFFFFFFFFFFFFFFFFFFFFFFFFFFFFF DUP3 AND SWAP1 POP SWAP2 SWAP1 POP JUMP JUMPDEST PUSH1 0x0 PUSH2 0x45E DUP3 PUSH2 0x433 JUMP JUMPDEST SWAP1 POP SWAP2 SWAP1 POP JUMP JUMPDEST PUSH2 0x46E DUP2 PUSH2 0x453 JUMP JUMPDEST DUP2 EQ PUSH2 0x479 JUMPI PUSH1 0x0 DUP1 REVERT JUMPDEST POP JUMP JUMPDEST PUSH1 0x0 DUP2 CALLDATALOAD SWAP1 POP PUSH2 0x48B DUP2 PUSH2 0x465 JUMP JUMPDEST SWAP3 SWAP2 POP POP JUMP JUMPDEST PUSH1 0x0 DUP1 PUSH1 0x0 DUP1 PUSH1 0x80 DUP6 DUP8 SUB SLT ISZERO PUSH2 0x4AB JUMPI PUSH2 0x4AA PUSH2 0x3F3 JUMP JUMPDEST JUMPDEST PUSH1 0x0 PUSH2 0x4B9 DUP8 DUP3 DUP9 ADD PUSH2 0x41E JUMP JUMPDEST SWAP5 POP POP PUSH1 0x20 PUSH2 0x4CA DUP8 DUP3 DUP9 ADD PUSH2 0x41E JUMP JUMPDEST SWAP4 POP POP PUSH1 0x40 PUSH2 0x4DB DUP8 DUP3 DUP9 ADD PUSH2 0x47C JUMP JUMPDEST SWAP3 POP POP PUSH1 0x60 PUSH2 0x4EC DUP8 DUP3 DUP9 ADD PUSH2 0x47C JUMP JUMPDEST SWAP2 POP POP SWAP3 SWAP6 SWAP2 SWAP5 POP SWAP3 POP JUMP JUMPDEST PUSH1 0x0 DUP2 ISZERO ISZERO SWAP1 POP SWAP2 SWAP1 POP JUMP JUMPDEST PUSH2 0x50D DUP2 PUSH2 0x4F8 JUMP JUMPDEST DUP3 MSTORE POP POP JUMP JUMPDEST PUSH1 0x0 PUSH1 0x20 DUP3 ADD SWAP1 POP PUSH2 0x528 PUSH1 0x0 DUP4 ADD DUP5 PUSH2 0x504 JUMP JUMPDEST SWAP3 SWAP2 POP POP JUMP JUMPDEST PUSH1 0x0 PUSH1 0x20 DUP3 DUP5 SUB SLT ISZERO PUSH2 0x544 JUMPI PUSH2 0x543 PUSH2 0x3F3 JUMP JUMPDEST JUMPDEST PUSH1 0x0 PUSH2 0x552 DUP5 DUP3 DUP6 ADD PUSH2 0x41E JUMP JUMPDEST SWAP2 POP POP SWAP3 SWAP2 POP POP JUMP JUMPDEST PUSH2 0x564 DUP2 PUSH2 0x3FD JUMP JUMPDEST DUP3 MSTORE POP POP JUMP JUMPDEST PUSH1 0x0 PUSH1 0x20 DUP3 ADD SWAP1 POP PUSH2 0x57F PUSH1 0x0 DUP4 ADD DUP5 PUSH2 0x55B JUMP JUMPDEST SWAP3 SWAP2 POP POP JUMP JUMPDEST PUSH2 0x58E DUP2 PUSH2 0x453 JUMP JUMPDEST DUP3 MSTORE POP POP JUMP JUMPDEST PUSH1 0x0 PUSH1 0x20 DUP3 ADD SWAP1 POP PUSH2 0x5A9 PUSH1 0x0 DUP4 ADD DUP5 PUSH2 0x585 JUMP JUMPDEST SWAP3 SWAP2 POP POP JUMP JUMPDEST PUSH1 0x0 DUP1 REVERT JUMPDEST PUSH1 0x0 DUP1 REVERT JUMPDEST PUSH1 0x0 DUP1 REVERT JUMPDEST PUSH1 0x0 DUP1 DUP4 PUSH1 0x1F DUP5 ADD SLT PUSH2 0x5D4 JUMPI PUSH2 0x5D3 PUSH2 0x5AF JUMP JUMPDEST JUMPDEST DUP3 CALLDATALOAD SWAP1 POP PUSH8 0xFFFFFFFFFFFFFFFF DUP2 GT ISZERO PUSH2 0x5F1 JUMPI PUSH2 0x5F0 PUSH2 0x5B4 JUMP JUMPDEST JUMPDEST PUSH1 0x20 DUP4 ADD SWAP2 POP DUP4 PUSH1 0x1 DUP3 MUL DUP4 ADD GT ISZERO PUSH2 0x60D JUMPI PUSH2 0x60C PUSH2 0x5B9 JUMP JUMPDEST JUMPDEST SWAP3 POP SWAP3 SWAP1 POP JUMP JUMPDEST PUSH1 0x0 DUP1 PUSH1 0x0 DUP1 PUSH1 0x0 DUP1 PUSH1 0xA0 DUP8 DUP10 SUB SLT ISZERO PUSH2 0x631 JUMPI PUSH2 0x630 PUSH2 0x3F3 JUMP JUMPDEST JUMPDEST PUSH1 0x0 PUSH2 0x63F DUP10 DUP3 DUP11 ADD PUSH2 0x47C JUMP JUMPDEST SWAP7 POP POP PUSH1 0x20 PUSH2 0x650 DUP10 DUP3 DUP11 ADD PUSH2 0x47C JUMP JUMPDEST SWAP6 POP POP PUSH1 0x40 PUSH2 0x661 DUP10 DUP3 DUP11 ADD PUSH2 0x41E JUMP JUMPDEST SWAP5 POP POP PUSH1 0x60 PUSH2 0x672 DUP10 DUP3 DUP11 ADD PUSH2 0x41E JUMP JUMPDEST SWAP4 POP POP PUSH1 0x80 DUP8 ADD CALLDATALOAD PUSH8 0xFFFFFFFFFFFFFFFF DUP2 GT ISZERO PUSH2 0x693 JUMPI PUSH2 0x692 PUSH2 0x3F8 JUMP JUMPDEST JUMPDEST PUSH2 0x69F DUP10 DUP3 DUP11 ADD PUSH2 0x5BE JUMP JUMPDEST SWAP3 POP SWAP3 POP POP SWAP3 SWAP6 POP SWAP3 SWAP6 POP SWAP3 SWAP6 JUMP JUMPDEST PUSH1 0x0 PUSH32 0xFFFFFFFF00000000000000000000000000000000000000000000000000000000 DUP3 AND SWAP1 POP SWAP2 SWAP1 POP JUMP JUMPDEST PUSH2 0x6E3 DUP2 PUSH2 0x6AE JUMP JUMPDEST DUP3 MSTORE POP POP JUMP JUMPDEST PUSH1 0x0 PUSH1 0x20 DUP3 ADD SWAP1 POP PUSH2 0x6FE PUSH1 0x0 DUP4 ADD DUP5 PUSH2 0x6DA JUMP JUMPDEST SWAP3 SWAP2 POP POP JUMP JUMPDEST PUSH1 0x0 PUSH1 0x60 DUP3 ADD SWAP1 POP PUSH2 0x719 PUSH1 0x0 DUP4 ADD DUP7 PUSH2 0x585 JUMP JUMPDEST PUSH2 0x726 PUSH1 0x20 DUP4 ADD DUP6 PUSH2 0x585 JUMP JUMPDEST PUSH2 0x733 PUSH1 0x40 DUP4 ADD DUP5 PUSH2 0x55B JUMP JUMPDEST SWAP5 SWAP4 POP POP POP POP JUMP JUMPDEST PUSH2 0x744 DUP2 PUSH2 0x4F8 JUMP JUMPDEST DUP2 EQ PUSH2 0x74F JUMPI PUSH1 0x0 DUP1 REVERT JUMPDEST POP JUMP JUMPDEST PUSH1 0x0 DUP2 MLOAD SWAP1 POP PUSH2 0x761 DUP2 PUSH2 0x73B JUMP JUMPDEST SWAP3 SWAP2 POP POP JUMP JUMPDEST PUSH1 0x0 PUSH1 0x20 DUP3 DUP5 SUB SLT ISZERO PUSH2 0x77D JUMPI PUSH2 0x77C PUSH2 0x3F3 JUMP JUMPDEST JUMPDEST PUSH1 0x0 PUSH2 0x78B DUP5 DUP3 DUP6 ADD PUSH2 0x752 JUMP JUMPDEST SWAP2 POP POP SWAP3 SWAP2 POP POP JUMP JUMPDEST PUSH1 0x0 DUP3 DUP3 MSTORE PUSH1 0x20 DUP3 ADD SWAP1 POP SWAP3 SWAP2 POP POP JUMP JUMPDEST PUSH32 0x3078303000000000000000000000000000000000000000000000000000000000 PUSH1 0x0 DUP3 ADD MSTORE POP JUMP JUMPDEST PUSH1 0x0 PUSH2 0x7DB PUSH1 0x4 DUP4 PUSH2 0x794 JUMP JUMPDEST SWAP2 POP PUSH2 0x7E6 DUP3 PUSH2 0x7A5 JUMP JUMPDEST PUSH1 0x20 DUP3 ADD SWAP1 POP SWAP2 SWAP1 POP JUMP JUMPDEST PUSH1 0x0 PUSH1 0xA0 DUP3 ADD SWAP1 POP PUSH2 0x806 PUSH1 0x0 DUP4 ADD DUP8 PUSH2 0x585 JUMP JUMPDEST PUSH2 0x813 PUSH1 0x20 DUP4 ADD DUP7 PUSH2 0x585 JUMP JUMPDEST PUSH2 0x820 PUSH1 0x40 DUP4 ADD DUP6 PUSH2 0x55B JUMP JUMPDEST PUSH2 0x82D PUSH1 0x60 DUP4 ADD DUP5 PUSH2 0x55B JUMP JUMPDEST DUP2 DUP2 SUB PUSH1 0x80 DUP4 ADD MSTORE PUSH2 0x83E DUP2 PUSH2 0x7CE JUMP JUMPDEST SWAP1 POP SWAP6 SWAP5 POP POP POP POP POP JUMP JUMPDEST PUSH32 0x4E487B7100000000000000000000000000000000000000000000000000000000 PUSH1 0x0 MSTORE PUSH1 0x11 PUSH1 0x4 MSTORE PUSH1 0x24 PUSH1 0x0 REVERT JUMPDEST PUSH1 0x0 PUSH2 0x883 DUP3 PUSH2 0x3FD JUMP JUMPDEST SWAP2 POP PUSH2 0x88E DUP4 PUSH2 0x3FD JUMP JUMPDEST SWAP3 POP DUP3 PUSH32 0xFFFFFFFFFFFFFFFFFFFFFFFFFFFFFFFFFFFFFFFFFFFFFFFFFFFFFFFFFFFFFFFF SUB DUP3 GT ISZERO PUSH2 0x8C3 JUMPI PUSH2 0x8C2 PUSH2 0x849 JUMP JUMPDEST JUMPDEST DUP3 DUP3 ADD SWAP1 POP SWAP3 SWAP2 POP POP JUMP JUMPDEST DUP3 DUP2 DUP4 CALLDATACOPY PUSH1 0x0 DUP4 DUP4 ADD MSTORE POP POP POP JUMP JUMPDEST PUSH1 0x0 PUSH1 0x1F NOT PUSH1 0x1F DUP4 ADD AND SWAP1 POP SWAP2 SWAP1 POP JUMP JUMPDEST PUSH1 0x0 PUSH2 0x8FA DUP4 DUP6 PUSH2 0x794 JUMP JUMPDEST SWAP4 POP PUSH2 0x907 DUP4 DUP6 DUP5 PUSH2 0x8CE JUMP JUMPDEST PUSH2 0x910 DUP4 PUSH2 0x8DD JUMP JUMPDEST DUP5 ADD SWAP1 POP SWAP4 SWAP3 POP POP POP JUMP JUMPDEST PUSH1 0x0 PUSH1 0xC0 DUP3 ADD SWAP1 POP PUSH2 0x930 PUSH1 0x0 DUP4 ADD DUP11 PUSH2 0x585 JUMP JUMPDEST PUSH2 0x93D PUSH1 0x20 DUP4 ADD DUP10 PUSH2 0x585 JUMP JUMPDEST PUSH2 0x94A PUSH1 0x40 DUP4 ADD DUP9 PUSH2 0x55B JUMP JUMPDEST PUSH2 0x957 PUSH1 0x60 DUP4 ADD DUP8 PUSH2 0x55B JUMP JUMPDEST DUP2 DUP2 SUB PUSH1 0x80 DUP4 ADD MSTORE PUSH2 0x96A DUP2 DUP6 DUP8 PUSH2 0x8EE JUMP JUMPDEST SWAP1 POP PUSH2 0x979 PUSH1 0xA0 DUP4 ADD DUP5 PUSH2 0x55B JUMP JUMPDEST SWAP9 SWAP8 POP POP POP POP POP POP POP POP JUMP JUMPDEST PUSH1 0x0 PUSH2 0x990 DUP3 PUSH2 0x3FD JUMP JUMPDEST SWAP2 POP PUSH2 0x99B DUP4 PUSH2 0x3FD JUMP JUMPDEST SWAP3 POP DUP3 DUP3 LT ISZERO PUSH2 0x9AE JUMPI PUSH2 0x9AD PUSH2 0x849 JUMP JUMPDEST JUMPDEST DUP3 DUP3 SUB SWAP1 POP SWAP3 SWAP2 POP POP JUMP INVALID LOG2 PUSH5 0x6970667358 0x22 SLT KECCAK256 DUP14 GAS DUP12 0xCE 0xA8 CALLDATACOPY 0xD5 0xE1 STATICCALL ISZERO 0xED 0xDA SELFDESTRUCT PUSH7 0xA1F576A2197392 0xCF 0xD4 MSTORE 0xC1 KECCAK256 0xBA 0xB5 SWAP13 CALLER 0xBD SWAP11 PUSH5 0x736F6C6343 STOP ADDMOD EXP STOP CALLER "
				},
				"gasEstimates": {
					"creation": {
						"codeDepositCost": "508600",
						"executionCost": "543",
						"totalCost": "509143"
					},
					"external": {
						"amount(uint256)": "infinite",
						"buyCoupon(uint256,uint256,address,address)": "infinite",
						"onERC1155Received(address,address,uint256,uint256,bytes)": "infinite",
						"seller(uint256)": "2887"
					},
					"internal": {
						"_reduceAmount(uint256,uint256)": "infinite"
					}
				},
				"methodIdentifiers": {
					"amount(uint256)": "8b0d0258",
					"buyCoupon(uint256,uint256,address,address)": "08dd9d36",
					"onERC1155Received(address,address,uint256,uint256,bytes)": "f23a6e61",
					"seller(uint256)": "aacdfe6f"
				}
			},
			"storageLayout": {
				"storage": [
					{
						"astId": 39,
						"contract": "contracts/CouponMarket.sol:CouponMarket",
						"label": "_seller",
						"offset": 0,
						"slot": "0",
						"type": "t_mapping(t_uint256,t_address)"
					},
					{
						"astId": 43,
						"contract": "contracts/CouponMarket.sol:CouponMarket",
						"label": "_amount",
						"offset": 0,
						"slot": "1",
						"type": "t_mapping(t_uint256,t_uint256)"
					}
				],
				"types": {
					"t_address": {
						"encoding": "inplace",
						"label": "address",
						"numberOfBytes": "20"
					},
					"t_mapping(t_uint256,t_address)": {
						"encoding": "mapping",
						"key": "t_uint256",
						"label": "mapping(uint256 => address)",
						"numberOfBytes": "32",
						"value": "t_address"
					},
					"t_mapping(t_uint256,t_uint256)": {
						"encoding": "mapping",
						"key": "t_uint256",
						"label": "mapping(uint256 => uint256)",
						"numberOfBytes": "32",
						"value": "t_uint256"
					},
					"t_uint256": {
						"encoding": "inplace",
						"label": "uint256",
						"numberOfBytes": "32"
					}
				}
			},
			"userdoc": {
				"kind": "user",
				"methods": {},
				"version": 1
			}
		}
	}
}