{
	"contracts/Coupon.sol": {
		"CouponMarket": {
			"abi": [
				{
					"inputs": [],
					"stateMutability": "nonpayable",
					"type": "constructor"
				},
				{
					"anonymous": false,
					"inputs": [
						{
							"indexed": false,
							"internalType": "address",
							"name": "operator",
							"type": "address"
						},
						{
							"indexed": false,
							"internalType": "address",
							"name": "from",
							"type": "address"
						},
						{
							"indexed": false,
							"internalType": "uint256",
							"name": "id",
							"type": "uint256"
						},
						{
							"indexed": false,
							"internalType": "uint256",
							"name": "value",
							"type": "uint256"
						},
						{
							"indexed": false,
							"internalType": "bytes",
							"name": "data",
							"type": "bytes"
						},
						{
							"indexed": false,
							"internalType": "uint256",
							"name": "gas",
							"type": "uint256"
						}
					],
					"name": "Received",
					"type": "event"
				},
				{
					"anonymous": false,
					"inputs": [
						{
							"indexed": true,
							"internalType": "address",
							"name": "operator",
							"type": "address"
						},
						{
							"indexed": true,
							"internalType": "address",
							"name": "from",
							"type": "address"
						},
						{
							"indexed": true,
							"internalType": "address",
							"name": "to",
							"type": "address"
						},
						{
							"indexed": false,
							"internalType": "uint256",
							"name": "id",
							"type": "uint256"
						},
						{
							"indexed": false,
							"internalType": "uint256",
							"name": "value",
							"type": "uint256"
						}
					],
					"name": "TransferSingle",
					"type": "event"
				},
				{
					"inputs": [
						{
							"internalType": "uint256",
							"name": "discount",
							"type": "uint256"
						},
						{
							"internalType": "uint256",
							"name": "amount",
							"type": "uint256"
						}
					],
					"name": "CouponMint",
					"outputs": [],
					"stateMutability": "nonpayable",
					"type": "function"
				},
				{
					"inputs": [
						{
							"internalType": "uint256",
							"name": "discount",
							"type": "uint256"
						}
					],
					"name": "amount",
					"outputs": [
						{
							"internalType": "uint256",
							"name": "",
							"type": "uint256"
						}
					],
					"stateMutability": "view",
					"type": "function"
				},
				{
					"inputs": [
						{
							"internalType": "address",
							"name": "account",
							"type": "address"
						},
						{
							"internalType": "uint256",
							"name": "id",
							"type": "uint256"
						}
					],
					"name": "balanceOf",
					"outputs": [
						{
							"internalType": "uint256",
							"name": "",
							"type": "uint256"
						}
					],
					"stateMutability": "view",
					"type": "function"
				},
				{
					"inputs": [
						{
							"internalType": "uint256",
							"name": "discount",
							"type": "uint256"
						},
						{
							"internalType": "uint256",
							"name": "amount",
							"type": "uint256"
						},
						{
							"internalType": "uint256",
							"name": "price",
							"type": "uint256"
						},
						{
							"internalType": "address",
							"name": "TokenContractAddr",
							"type": "address"
						}
					],
					"name": "buyCoupon",
					"outputs": [
						{
							"internalType": "bool",
							"name": "",
							"type": "bool"
						}
					],
					"stateMutability": "payable",
					"type": "function"
				},
				{
					"inputs": [
						{
							"internalType": "address",
							"name": "operator",
							"type": "address"
						},
						{
							"internalType": "address",
							"name": "from",
							"type": "address"
						},
						{
							"internalType": "uint256",
							"name": "id",
							"type": "uint256"
						},
						{
							"internalType": "uint256",
							"name": "value",
							"type": "uint256"
						},
						{
							"internalType": "bytes",
							"name": "data",
							"type": "bytes"
						}
					],
					"name": "onERC1155Received",
					"outputs": [
						{
							"internalType": "bytes4",
							"name": "",
							"type": "bytes4"
						}
					],
					"stateMutability": "nonpayable",
					"type": "function"
				},
				{
					"inputs": [
						{
							"internalType": "address",
							"name": "from",
							"type": "address"
						},
						{
							"internalType": "address",
							"name": "to",
							"type": "address"
						},
						{
							"internalType": "uint256",
							"name": "id",
							"type": "uint256"
						},
						{
							"internalType": "uint256",
							"name": "amount",
							"type": "uint256"
						},
						{
							"internalType": "bytes",
							"name": "data",
							"type": "bytes"
						}
					],
					"name": "safeTransferFrom",
					"outputs": [],
					"stateMutability": "nonpayable",
					"type": "function"
				},
				{
					"inputs": [
						{
							"internalType": "uint256",
							"name": "discount",
							"type": "uint256"
						}
					],
					"name": "seller",
					"outputs": [
						{
							"internalType": "address",
							"name": "",
							"type": "address"
						}
					],
					"stateMutability": "view",
					"type": "function"
				}
			],
			"devdoc": {
				"kind": "dev",
				"methods": {
					"balanceOf(address,uint256)": {
						"details": "See {IERC1155-balanceOf}. Requirements: - `account` cannot be the zero address."
					},
					"safeTransferFrom(address,address,uint256,uint256,bytes)": {
						"details": "See {IERC1155-safeTransferFrom}."
					}
				},
				"version": 1
			},
			"evm": {
				"assembly": "    /* \"contracts/Coupon.sol\":11683:13652  contract CouponMarket is ERC1155 {... */\n  mstore(0x40, 0x80)\n    /* \"contracts/Coupon.sol\":11722:11738  constructor() {} */\n  callvalue\n  dup1\n  iszero\n  tag_1\n  jumpi\n  0x00\n  dup1\n  revert\ntag_1:\n  pop\n    /* \"contracts/Coupon.sol\":11683:13652  contract CouponMarket is ERC1155 {... */\n  dataSize(sub_0)\n  dup1\n  dataOffset(sub_0)\n  0x00\n  codecopy\n  0x00\n  return\nstop\n\nsub_0: assembly {\n        /* \"contracts/Coupon.sol\":11683:13652  contract CouponMarket is ERC1155 {... */\n      mstore(0x40, 0x80)\n      jumpi(tag_1, lt(calldatasize, 0x04))\n      shr(0xe0, calldataload(0x00))\n      dup1\n      0x8b0d0258\n      gt\n      tag_9\n      jumpi\n      dup1\n      0x8b0d0258\n      eq\n      tag_5\n      jumpi\n      dup1\n      0xaacdfe6f\n      eq\n      tag_6\n      jumpi\n      dup1\n      0xf23a6e61\n      eq\n      tag_7\n      jumpi\n      dup1\n      0xf242432a\n      eq\n      tag_8\n      jumpi\n      jump(tag_1)\n    tag_9:\n      dup1\n      0xfdd58e\n      eq\n      tag_2\n      jumpi\n      dup1\n      0x242fd022\n      eq\n      tag_3\n      jumpi\n      dup1\n      0x57e87575\n      eq\n      tag_4\n      jumpi\n    tag_1:\n      0x00\n      dup1\n      revert\n        /* \"contracts/Coupon.sol\":3761:4049  function balanceOf(address account, uint256 id)... */\n    tag_2:\n      callvalue\n      dup1\n      iszero\n      tag_10\n      jumpi\n      0x00\n      dup1\n      revert\n    tag_10:\n      pop\n      tag_11\n      0x04\n      dup1\n      calldatasize\n      sub\n      dup2\n      add\n      swap1\n      tag_12\n      swap2\n      swap1\n      tag_13\n      jump\t// in\n    tag_12:\n      tag_14\n      jump\t// in\n    tag_11:\n      mload(0x40)\n      tag_15\n      swap2\n      swap1\n      tag_16\n      jump\t// in\n    tag_15:\n      mload(0x40)\n      dup1\n      swap2\n      sub\n      swap1\n      return\n        /* \"contracts/Coupon.sol\":12427:13012  function buyCoupon(... */\n    tag_3:\n      tag_17\n      0x04\n      dup1\n      calldatasize\n      sub\n      dup2\n      add\n      swap1\n      tag_18\n      swap2\n      swap1\n      tag_19\n      jump\t// in\n    tag_18:\n      tag_20\n      jump\t// in\n    tag_17:\n      mload(0x40)\n      tag_21\n      swap2\n      swap1\n      tag_22\n      jump\t// in\n    tag_21:\n      mload(0x40)\n      dup1\n      swap2\n      sub\n      swap1\n      return\n        /* \"contracts/Coupon.sol\":11744:11941  function CouponMint(uint256 discount, uint256 amount) public {... */\n    tag_4:\n      callvalue\n      dup1\n      iszero\n      tag_23\n      jumpi\n      0x00\n      dup1\n      revert\n    tag_23:\n      pop\n      tag_24\n      0x04\n      dup1\n      calldatasize\n      sub\n      dup2\n      add\n      swap1\n      tag_25\n      swap2\n      swap1\n      tag_26\n      jump\t// in\n    tag_25:\n      tag_27\n      jump\t// in\n    tag_24:\n      stop\n        /* \"contracts/Coupon.sol\":12316:12421  function amount(uint256 discount) public view returns (uint256) {... */\n    tag_5:\n      callvalue\n      dup1\n      iszero\n      tag_28\n      jumpi\n      0x00\n      dup1\n      revert\n    tag_28:\n      pop\n      tag_29\n      0x04\n      dup1\n      calldatasize\n      sub\n      dup2\n      add\n      swap1\n      tag_30\n      swap2\n      swap1\n      tag_31\n      jump\t// in\n    tag_30:\n      tag_32\n      jump\t// in\n    tag_29:\n      mload(0x40)\n      tag_33\n      swap2\n      swap1\n      tag_16\n      jump\t// in\n    tag_33:\n      mload(0x40)\n      dup1\n      swap2\n      sub\n      swap1\n      return\n        /* \"contracts/Coupon.sol\":12205:12310  function seller(uint256 discount) public view returns (address) {... */\n    tag_6:\n      callvalue\n      dup1\n      iszero\n      tag_34\n      jumpi\n      0x00\n      dup1\n      revert\n    tag_34:\n      pop\n      tag_35\n      0x04\n      dup1\n      calldatasize\n      sub\n      dup2\n      add\n      swap1\n      tag_36\n      swap2\n      swap1\n      tag_31\n      jump\t// in\n    tag_36:\n      tag_37\n      jump\t// in\n    tag_35:\n      mload(0x40)\n      tag_38\n      swap2\n      swap1\n      tag_39\n      jump\t// in\n    tag_38:\n      mload(0x40)\n      dup1\n      swap2\n      sub\n      swap1\n      return\n        /* \"contracts/Coupon.sol\":13152:13650  function onERC1155Received(... */\n    tag_7:\n      callvalue\n      dup1\n      iszero\n      tag_40\n      jumpi\n      0x00\n      dup1\n      revert\n    tag_40:\n      pop\n      tag_41\n      0x04\n      dup1\n      calldatasize\n      sub\n      dup2\n      add\n      swap1\n      tag_42\n      swap2\n      swap1\n      tag_43\n      jump\t// in\n    tag_42:\n      tag_44\n      jump\t// in\n    tag_41:\n      mload(0x40)\n      tag_45\n      swap2\n      swap1\n      tag_46\n      jump\t// in\n    tag_45:\n      mload(0x40)\n      dup1\n      swap2\n      sub\n      swap1\n      return\n        /* \"contracts/Coupon.sol\":4116:4462  function safeTransferFrom(... */\n    tag_8:\n      callvalue\n      dup1\n      iszero\n      tag_47\n      jumpi\n      0x00\n      dup1\n      revert\n    tag_47:\n      pop\n      tag_48\n      0x04\n      dup1\n      calldatasize\n      sub\n      dup2\n      add\n      swap1\n      tag_49\n      swap2\n      swap1\n      tag_50\n      jump\t// in\n    tag_49:\n      tag_51\n      jump\t// in\n    tag_48:\n      stop\n        /* \"contracts/Coupon.sol\":3761:4049  function balanceOf(address account, uint256 id)... */\n    tag_14:\n        /* \"contracts/Coupon.sol\":3870:3877  uint256 */\n      0x00\n        /* \"contracts/Coupon.sol\":3933:3934  0 */\n      dup1\n        /* \"contracts/Coupon.sol\":3914:3935  account != address(0) */\n      0xffffffffffffffffffffffffffffffffffffffff\n      and\n        /* \"contracts/Coupon.sol\":3914:3921  account */\n      dup4\n        /* \"contracts/Coupon.sol\":3914:3935  account != address(0) */\n      0xffffffffffffffffffffffffffffffffffffffff\n      and\n      eq\n      iszero\n        /* \"contracts/Coupon.sol\":3893:4003  require(... */\n      tag_53\n      jumpi\n      mload(0x40)\n      0x08c379a000000000000000000000000000000000000000000000000000000000\n      dup2\n      mstore\n      0x04\n      add\n      tag_54\n      swap1\n      tag_55\n      jump\t// in\n    tag_54:\n      mload(0x40)\n      dup1\n      swap2\n      sub\n      swap1\n      revert\n    tag_53:\n        /* \"contracts/Coupon.sol\":4020:4029  _balances */\n      0x00\n        /* \"contracts/Coupon.sol\":4020:4033  _balances[id] */\n      dup1\n        /* \"contracts/Coupon.sol\":4030:4032  id */\n      dup4\n        /* \"contracts/Coupon.sol\":4020:4033  _balances[id] */\n      dup2\n      mstore\n      0x20\n      add\n      swap1\n      dup2\n      mstore\n      0x20\n      add\n      0x00\n      keccak256\n        /* \"contracts/Coupon.sol\":4020:4042  _balances[id][account] */\n      0x00\n        /* \"contracts/Coupon.sol\":4034:4041  account */\n      dup5\n        /* \"contracts/Coupon.sol\":4020:4042  _balances[id][account] */\n      0xffffffffffffffffffffffffffffffffffffffff\n      and\n      0xffffffffffffffffffffffffffffffffffffffff\n      and\n      dup2\n      mstore\n      0x20\n      add\n      swap1\n      dup2\n      mstore\n      0x20\n      add\n      0x00\n      keccak256\n      sload\n        /* \"contracts/Coupon.sol\":4013:4042  return _balances[id][account] */\n      swap1\n      pop\n        /* \"contracts/Coupon.sol\":3761:4049  function balanceOf(address account, uint256 id)... */\n      swap3\n      swap2\n      pop\n      pop\n      jump\t// out\n        /* \"contracts/Coupon.sol\":12427:13012  function buyCoupon(... */\n    tag_20:\n        /* \"contracts/Coupon.sol\":12584:12588  bool */\n      0x00\n        /* \"contracts/Coupon.sol\":12742:12759  TokenContractAddr */\n      dup2\n        /* \"contracts/Coupon.sol\":12735:12779  others(TokenContractAddr).transferWithMarket */\n      0xffffffffffffffffffffffffffffffffffffffff\n      and\n      0xe12163d6\n        /* \"contracts/Coupon.sol\":12793:12803  msg.sender */\n      caller\n        /* \"contracts/Coupon.sol\":12817:12824  _seller */\n      0x02\n        /* \"contracts/Coupon.sol\":12817:12834  _seller[discount] */\n      0x00\n        /* \"contracts/Coupon.sol\":12825:12833  discount */\n      dup10\n        /* \"contracts/Coupon.sol\":12817:12834  _seller[discount] */\n      dup2\n      mstore\n      0x20\n      add\n      swap1\n      dup2\n      mstore\n      0x20\n      add\n      0x00\n      keccak256\n      0x00\n      swap1\n      sload\n      swap1\n      0x0100\n      exp\n      swap1\n      div\n      0xffffffffffffffffffffffffffffffffffffffff\n      and\n        /* \"contracts/Coupon.sol\":12848:12853  price */\n      dup7\n        /* \"contracts/Coupon.sol\":12735:12863  others(TokenContractAddr).transferWithMarket(... */\n      mload(0x40)\n      dup5\n      0xffffffff\n      and\n      0xe0\n      shl\n      dup2\n      mstore\n      0x04\n      add\n      tag_57\n      swap4\n      swap3\n      swap2\n      swap1\n      tag_58\n      jump\t// in\n    tag_57:\n      0x20\n      mload(0x40)\n      dup1\n      dup4\n      sub\n      dup2\n      0x00\n      dup8\n      dup1\n      extcodesize\n      iszero\n      dup1\n      iszero\n      tag_59\n      jumpi\n      0x00\n      dup1\n      revert\n    tag_59:\n      pop\n      gas\n      call\n      iszero\n      dup1\n      iszero\n      tag_61\n      jumpi\n      returndatasize\n      0x00\n      dup1\n      returndatacopy\n      revert(0x00, returndatasize)\n    tag_61:\n      pop\n      pop\n      pop\n      pop\n      mload(0x40)\n      returndatasize\n      not(0x1f)\n      0x1f\n      dup3\n      add\n      and\n      dup3\n      add\n      dup1\n      0x40\n      mstore\n      pop\n      dup2\n      add\n      swap1\n      tag_62\n      swap2\n      swap1\n      tag_63\n      jump\t// in\n    tag_62:\n      pop\n        /* \"contracts/Coupon.sol\":12874:12943  safeTransferFrom(address(this), msg.sender, discount, amount, \"0x00\") */\n      tag_64\n        /* \"contracts/Coupon.sol\":12899:12903  this */\n      address\n        /* \"contracts/Coupon.sol\":12906:12916  msg.sender */\n      caller\n        /* \"contracts/Coupon.sol\":12918:12926  discount */\n      dup8\n        /* \"contracts/Coupon.sol\":12928:12934  amount */\n      dup8\n        /* \"contracts/Coupon.sol\":12874:12943  safeTransferFrom(address(this), msg.sender, discount, amount, \"0x00\") */\n      mload(0x40)\n      dup1\n      0x40\n      add\n      0x40\n      mstore\n      dup1\n      0x04\n      dup2\n      mstore\n      0x20\n      add\n      0x3078303000000000000000000000000000000000000000000000000000000000\n      dup2\n      mstore\n      pop\n        /* \"contracts/Coupon.sol\":12874:12890  safeTransferFrom */\n      tag_51\n        /* \"contracts/Coupon.sol\":12874:12943  safeTransferFrom(address(this), msg.sender, discount, amount, \"0x00\") */\n      jump\t// in\n    tag_64:\n        /* \"contracts/Coupon.sol\":12953:12984  _reduceAmount(discount, amount) */\n      tag_65\n        /* \"contracts/Coupon.sol\":12967:12975  discount */\n      dup6\n        /* \"contracts/Coupon.sol\":12977:12983  amount */\n      dup6\n        /* \"contracts/Coupon.sol\":12953:12966  _reduceAmount */\n      tag_66\n        /* \"contracts/Coupon.sol\":12953:12984  _reduceAmount(discount, amount) */\n      jump\t// in\n    tag_65:\n        /* \"contracts/Coupon.sol\":13001:13005  true */\n      0x01\n        /* \"contracts/Coupon.sol\":12994:13005  return true */\n      swap1\n      pop\n        /* \"contracts/Coupon.sol\":12427:13012  function buyCoupon(... */\n      swap5\n      swap4\n      pop\n      pop\n      pop\n      pop\n      jump\t// out\n        /* \"contracts/Coupon.sol\":11744:11941  function CouponMint(uint256 discount, uint256 amount) public {... */\n    tag_27:\n        /* \"contracts/Coupon.sol\":11815:11854  _mint(msg.sender, discount, amount, \"\") */\n      tag_68\n        /* \"contracts/Coupon.sol\":11821:11831  msg.sender */\n      caller\n        /* \"contracts/Coupon.sol\":11833:11841  discount */\n      dup4\n        /* \"contracts/Coupon.sol\":11843:11849  amount */\n      dup4\n        /* \"contracts/Coupon.sol\":11815:11854  _mint(msg.sender, discount, amount, \"\") */\n      mload(0x40)\n      dup1\n      0x20\n      add\n      0x40\n      mstore\n      dup1\n      0x00\n      dup2\n      mstore\n      pop\n        /* \"contracts/Coupon.sol\":11815:11820  _mint */\n      tag_69\n        /* \"contracts/Coupon.sol\":11815:11854  _mint(msg.sender, discount, amount, \"\") */\n      jump\t// in\n    tag_68:\n        /* \"contracts/Coupon.sol\":11744:11941  function CouponMint(uint256 discount, uint256 amount) public {... */\n      pop\n      pop\n      jump\t// out\n        /* \"contracts/Coupon.sol\":12316:12421  function amount(uint256 discount) public view returns (uint256) {... */\n    tag_32:\n        /* \"contracts/Coupon.sol\":12371:12378  uint256 */\n      0x00\n        /* \"contracts/Coupon.sol\":12397:12404  _amount */\n      0x03\n        /* \"contracts/Coupon.sol\":12397:12414  _amount[discount] */\n      0x00\n        /* \"contracts/Coupon.sol\":12405:12413  discount */\n      dup4\n        /* \"contracts/Coupon.sol\":12397:12414  _amount[discount] */\n      dup2\n      mstore\n      0x20\n      add\n      swap1\n      dup2\n      mstore\n      0x20\n      add\n      0x00\n      keccak256\n      sload\n        /* \"contracts/Coupon.sol\":12390:12414  return _amount[discount] */\n      swap1\n      pop\n        /* \"contracts/Coupon.sol\":12316:12421  function amount(uint256 discount) public view returns (uint256) {... */\n      swap2\n      swap1\n      pop\n      jump\t// out\n        /* \"contracts/Coupon.sol\":12205:12310  function seller(uint256 discount) public view returns (address) {... */\n    tag_37:\n        /* \"contracts/Coupon.sol\":12260:12267  address */\n      0x00\n        /* \"contracts/Coupon.sol\":12286:12293  _seller */\n      0x02\n        /* \"contracts/Coupon.sol\":12286:12303  _seller[discount] */\n      0x00\n        /* \"contracts/Coupon.sol\":12294:12302  discount */\n      dup4\n        /* \"contracts/Coupon.sol\":12286:12303  _seller[discount] */\n      dup2\n      mstore\n      0x20\n      add\n      swap1\n      dup2\n      mstore\n      0x20\n      add\n      0x00\n      keccak256\n      0x00\n      swap1\n      sload\n      swap1\n      0x0100\n      exp\n      swap1\n      div\n      0xffffffffffffffffffffffffffffffffffffffff\n      and\n        /* \"contracts/Coupon.sol\":12279:12303  return _seller[discount] */\n      swap1\n      pop\n        /* \"contracts/Coupon.sol\":12205:12310  function seller(uint256 discount) public view returns (address) {... */\n      swap2\n      swap1\n      pop\n      jump\t// out\n        /* \"contracts/Coupon.sol\":13152:13650  function onERC1155Received(... */\n    tag_44:\n        /* \"contracts/Coupon.sol\":13321:13327  bytes4 */\n      0x00\n        /* \"contracts/Coupon.sol\":13353:13357  from */\n      dup6\n        /* \"contracts/Coupon.sol\":13339:13346  _seller */\n      0x02\n        /* \"contracts/Coupon.sol\":13339:13350  _seller[id] */\n      0x00\n        /* \"contracts/Coupon.sol\":13347:13349  id */\n      dup8\n        /* \"contracts/Coupon.sol\":13339:13350  _seller[id] */\n      dup2\n      mstore\n      0x20\n      add\n      swap1\n      dup2\n      mstore\n      0x20\n      add\n      0x00\n      keccak256\n      0x00\n        /* \"contracts/Coupon.sol\":13339:13357  _seller[id] = from */\n      0x0100\n      exp\n      dup2\n      sload\n      dup2\n      0xffffffffffffffffffffffffffffffffffffffff\n      mul\n      not\n      and\n      swap1\n      dup4\n      0xffffffffffffffffffffffffffffffffffffffff\n      and\n      mul\n      or\n      swap1\n      sstore\n      pop\n        /* \"contracts/Coupon.sol\":13395:13400  value */\n      dup4\n        /* \"contracts/Coupon.sol\":13381:13388  _amount */\n      0x03\n        /* \"contracts/Coupon.sol\":13381:13392  _amount[id] */\n      0x00\n        /* \"contracts/Coupon.sol\":13389:13391  id */\n      dup8\n        /* \"contracts/Coupon.sol\":13381:13392  _amount[id] */\n      dup2\n      mstore\n      0x20\n      add\n      swap1\n      dup2\n      mstore\n      0x20\n      add\n      0x00\n      keccak256\n      sload\n        /* \"contracts/Coupon.sol\":13381:13400  _amount[id] + value */\n      tag_73\n      swap2\n      swap1\n      tag_74\n      jump\t// in\n    tag_73:\n        /* \"contracts/Coupon.sol\":13367:13374  _amount */\n      0x03\n        /* \"contracts/Coupon.sol\":13367:13378  _amount[id] */\n      0x00\n        /* \"contracts/Coupon.sol\":13375:13377  id */\n      dup8\n        /* \"contracts/Coupon.sol\":13367:13378  _amount[id] */\n      dup2\n      mstore\n      0x20\n      add\n      swap1\n      dup2\n      mstore\n      0x20\n      add\n      0x00\n      keccak256\n        /* \"contracts/Coupon.sol\":13367:13400  _amount[id] = _amount[id] + value */\n      dup2\n      swap1\n      sstore\n      pop\n        /* \"contracts/Coupon.sol\":13415:13467  Received(operator, from, id, value, data, gasleft()) */\n      0x20dfa9f79060c8c4d7fe892c97c71bcf6e3b63d1dcf66fea7aefc0211628cf29\n        /* \"contracts/Coupon.sol\":13424:13432  operator */\n      dup8\n        /* \"contracts/Coupon.sol\":13434:13438  from */\n      dup8\n        /* \"contracts/Coupon.sol\":13440:13442  id */\n      dup8\n        /* \"contracts/Coupon.sol\":13444:13449  value */\n      dup8\n        /* \"contracts/Coupon.sol\":13451:13455  data */\n      dup8\n      dup8\n        /* \"contracts/Coupon.sol\":13457:13466  gasleft() */\n      gas\n        /* \"contracts/Coupon.sol\":13415:13467  Received(operator, from, id, value, data, gasleft()) */\n      mload(0x40)\n      tag_75\n      swap8\n      swap7\n      swap6\n      swap5\n      swap4\n      swap3\n      swap2\n      swap1\n      tag_76\n      jump\t// in\n    tag_75:\n      mload(0x40)\n      dup1\n      swap2\n      sub\n      swap1\n      log1\n        /* \"contracts/Coupon.sol\":13520:13629  keccak256(... */\n      0xf23a6e612e1ff4830e658fe43f4e3cb4a5f8170bd5d9e69fb5d7a7fa9e4fdf97\n        /* \"contracts/Coupon.sol\":13477:13643  return... */\n      swap1\n      pop\n        /* \"contracts/Coupon.sol\":13152:13650  function onERC1155Received(... */\n      swap7\n      swap6\n      pop\n      pop\n      pop\n      pop\n      pop\n      pop\n      jump\t// out\n        /* \"contracts/Coupon.sol\":4116:4462  function safeTransferFrom(... */\n    tag_51:\n        /* \"contracts/Coupon.sol\":4315:4327  _msgSender() */\n      tag_78\n        /* \"contracts/Coupon.sol\":4315:4325  _msgSender */\n      tag_79\n        /* \"contracts/Coupon.sol\":4315:4327  _msgSender() */\n      jump\t// in\n    tag_78:\n        /* \"contracts/Coupon.sol\":4307:4327  from == _msgSender() */\n      0xffffffffffffffffffffffffffffffffffffffff\n      and\n        /* \"contracts/Coupon.sol\":4307:4311  from */\n      dup6\n        /* \"contracts/Coupon.sol\":4307:4327  from == _msgSender() */\n      0xffffffffffffffffffffffffffffffffffffffff\n      and\n      eq\n        /* \"contracts/Coupon.sol\":4286:4400  require(... */\n      tag_80\n      jumpi\n      mload(0x40)\n      0x08c379a000000000000000000000000000000000000000000000000000000000\n      dup2\n      mstore\n      0x04\n      add\n      tag_81\n      swap1\n      tag_82\n      jump\t// in\n    tag_81:\n      mload(0x40)\n      dup1\n      swap2\n      sub\n      swap1\n      revert\n    tag_80:\n        /* \"contracts/Coupon.sol\":4410:4455  _safeTransferFrom(from, to, id, amount, data) */\n      tag_83\n        /* \"contracts/Coupon.sol\":4428:4432  from */\n      dup6\n        /* \"contracts/Coupon.sol\":4434:4436  to */\n      dup6\n        /* \"contracts/Coupon.sol\":4438:4440  id */\n      dup6\n        /* \"contracts/Coupon.sol\":4442:4448  amount */\n      dup6\n        /* \"contracts/Coupon.sol\":4450:4454  data */\n      dup6\n        /* \"contracts/Coupon.sol\":4410:4427  _safeTransferFrom */\n      tag_84\n        /* \"contracts/Coupon.sol\":4410:4455  _safeTransferFrom(from, to, id, amount, data) */\n      jump\t// in\n    tag_83:\n        /* \"contracts/Coupon.sol\":4116:4462  function safeTransferFrom(... */\n      pop\n      pop\n      pop\n      pop\n      pop\n      jump\t// out\n        /* \"contracts/Coupon.sol\":13018:13146  function _reduceAmount(uint256 discount, uint256 amount) private {... */\n    tag_66:\n        /* \"contracts/Coupon.sol\":13133:13139  amount */\n      dup1\n        /* \"contracts/Coupon.sol\":13113:13120  _amount */\n      0x03\n        /* \"contracts/Coupon.sol\":13113:13130  _amount[discount] */\n      0x00\n        /* \"contracts/Coupon.sol\":13121:13129  discount */\n      dup5\n        /* \"contracts/Coupon.sol\":13113:13130  _amount[discount] */\n      dup2\n      mstore\n      0x20\n      add\n      swap1\n      dup2\n      mstore\n      0x20\n      add\n      0x00\n      keccak256\n      sload\n        /* \"contracts/Coupon.sol\":13113:13139  _amount[discount] - amount */\n      tag_86\n      swap2\n      swap1\n      tag_87\n      jump\t// in\n    tag_86:\n        /* \"contracts/Coupon.sol\":13093:13100  _amount */\n      0x03\n        /* \"contracts/Coupon.sol\":13093:13110  _amount[discount] */\n      0x00\n        /* \"contracts/Coupon.sol\":13101:13109  discount */\n      dup5\n        /* \"contracts/Coupon.sol\":13093:13110  _amount[discount] */\n      dup2\n      mstore\n      0x20\n      add\n      swap1\n      dup2\n      mstore\n      0x20\n      add\n      0x00\n      keccak256\n        /* \"contracts/Coupon.sol\":13093:13139  _amount[discount] = _amount[discount] - amount */\n      dup2\n      swap1\n      sstore\n      pop\n        /* \"contracts/Coupon.sol\":13018:13146  function _reduceAmount(uint256 discount, uint256 amount) private {... */\n      pop\n      pop\n      jump\t// out\n        /* \"contracts/Coupon.sol\":6266:7057  function _mint(... */\n    tag_69:\n        /* \"contracts/Coupon.sol\":6427:6428  0 */\n      0x00\n        /* \"contracts/Coupon.sol\":6413:6429  to != address(0) */\n      0xffffffffffffffffffffffffffffffffffffffff\n      and\n        /* \"contracts/Coupon.sol\":6413:6415  to */\n      dup5\n        /* \"contracts/Coupon.sol\":6413:6429  to != address(0) */\n      0xffffffffffffffffffffffffffffffffffffffff\n      and\n      eq\n      iszero\n        /* \"contracts/Coupon.sol\":6405:6467  require(to != address(0), \"ERC1155: mint to the zero address\") */\n      tag_89\n      jumpi\n      mload(0x40)\n      0x08c379a000000000000000000000000000000000000000000000000000000000\n      dup2\n      mstore\n      0x04\n      add\n      tag_90\n      swap1\n      tag_91\n      jump\t// in\n    tag_90:\n      mload(0x40)\n      dup1\n      swap2\n      sub\n      swap1\n      revert\n    tag_89:\n        /* \"contracts/Coupon.sol\":6478:6494  address operator */\n      0x00\n        /* \"contracts/Coupon.sol\":6497:6509  _msgSender() */\n      tag_92\n        /* \"contracts/Coupon.sol\":6497:6507  _msgSender */\n      tag_79\n        /* \"contracts/Coupon.sol\":6497:6509  _msgSender() */\n      jump\t// in\n    tag_92:\n        /* \"contracts/Coupon.sol\":6478:6509  address operator = _msgSender() */\n      swap1\n      pop\n        /* \"contracts/Coupon.sol\":6519:6539  uint256[] memory ids */\n      0x00\n        /* \"contracts/Coupon.sol\":6542:6563  _asSingletonArray(id) */\n      tag_93\n        /* \"contracts/Coupon.sol\":6560:6562  id */\n      dup6\n        /* \"contracts/Coupon.sol\":6542:6559  _asSingletonArray */\n      tag_94\n        /* \"contracts/Coupon.sol\":6542:6563  _asSingletonArray(id) */\n      jump\t// in\n    tag_93:\n        /* \"contracts/Coupon.sol\":6519:6563  uint256[] memory ids = _asSingletonArray(id) */\n      swap1\n      pop\n        /* \"contracts/Coupon.sol\":6573:6597  uint256[] memory amounts */\n      0x00\n        /* \"contracts/Coupon.sol\":6600:6625  _asSingletonArray(amount) */\n      tag_95\n        /* \"contracts/Coupon.sol\":6618:6624  amount */\n      dup6\n        /* \"contracts/Coupon.sol\":6600:6617  _asSingletonArray */\n      tag_94\n        /* \"contracts/Coupon.sol\":6600:6625  _asSingletonArray(amount) */\n      jump\t// in\n    tag_95:\n        /* \"contracts/Coupon.sol\":6573:6625  uint256[] memory amounts = _asSingletonArray(amount) */\n      swap1\n      pop\n        /* \"contracts/Coupon.sol\":6636:6702  _beforeTokenTransfer(operator, address(0), to, ids, amounts, data) */\n      tag_96\n        /* \"contracts/Coupon.sol\":6657:6665  operator */\n      dup4\n        /* \"contracts/Coupon.sol\":6675:6676  0 */\n      0x00\n        /* \"contracts/Coupon.sol\":6679:6681  to */\n      dup10\n        /* \"contracts/Coupon.sol\":6683:6686  ids */\n      dup6\n        /* \"contracts/Coupon.sol\":6688:6695  amounts */\n      dup6\n        /* \"contracts/Coupon.sol\":6697:6701  data */\n      dup10\n        /* \"contracts/Coupon.sol\":6636:6656  _beforeTokenTransfer */\n      tag_97\n        /* \"contracts/Coupon.sol\":6636:6702  _beforeTokenTransfer(operator, address(0), to, ids, amounts, data) */\n      jump\t// in\n    tag_96:\n        /* \"contracts/Coupon.sol\":6734:6740  amount */\n      dup5\n        /* \"contracts/Coupon.sol\":6713:6722  _balances */\n      0x00\n        /* \"contracts/Coupon.sol\":6713:6726  _balances[id] */\n      dup1\n        /* \"contracts/Coupon.sol\":6723:6725  id */\n      dup9\n        /* \"contracts/Coupon.sol\":6713:6726  _balances[id] */\n      dup2\n      mstore\n      0x20\n      add\n      swap1\n      dup2\n      mstore\n      0x20\n      add\n      0x00\n      keccak256\n        /* \"contracts/Coupon.sol\":6713:6730  _balances[id][to] */\n      0x00\n        /* \"contracts/Coupon.sol\":6727:6729  to */\n      dup10\n        /* \"contracts/Coupon.sol\":6713:6730  _balances[id][to] */\n      0xffffffffffffffffffffffffffffffffffffffff\n      and\n      0xffffffffffffffffffffffffffffffffffffffff\n      and\n      dup2\n      mstore\n      0x20\n      add\n      swap1\n      dup2\n      mstore\n      0x20\n      add\n      0x00\n      keccak256\n      0x00\n        /* \"contracts/Coupon.sol\":6713:6740  _balances[id][to] += amount */\n      dup3\n      dup3\n      sload\n      tag_98\n      swap2\n      swap1\n      tag_74\n      jump\t// in\n    tag_98:\n      swap3\n      pop\n      pop\n      dup2\n      swap1\n      sstore\n      pop\n        /* \"contracts/Coupon.sol\":6792:6794  to */\n      dup7\n        /* \"contracts/Coupon.sol\":6755:6807  TransferSingle(operator, address(0), to, id, amount) */\n      0xffffffffffffffffffffffffffffffffffffffff\n      and\n        /* \"contracts/Coupon.sol\":6788:6789  0 */\n      0x00\n        /* \"contracts/Coupon.sol\":6755:6807  TransferSingle(operator, address(0), to, id, amount) */\n      0xffffffffffffffffffffffffffffffffffffffff\n      and\n        /* \"contracts/Coupon.sol\":6770:6778  operator */\n      dup5\n        /* \"contracts/Coupon.sol\":6755:6807  TransferSingle(operator, address(0), to, id, amount) */\n      0xffffffffffffffffffffffffffffffffffffffff\n      and\n      0xc3d58168c5ae7397731d063d5bbf3d657854427343f4c083240f7aacaa2d0f62\n        /* \"contracts/Coupon.sol\":6796:6798  id */\n      dup10\n        /* \"contracts/Coupon.sol\":6800:6806  amount */\n      dup10\n        /* \"contracts/Coupon.sol\":6755:6807  TransferSingle(operator, address(0), to, id, amount) */\n      mload(0x40)\n      tag_99\n      swap3\n      swap2\n      swap1\n      tag_100\n      jump\t// in\n    tag_99:\n      mload(0x40)\n      dup1\n      swap2\n      sub\n      swap1\n      log4\n        /* \"contracts/Coupon.sol\":6818:6883  _afterTokenTransfer(operator, address(0), to, ids, amounts, data) */\n      tag_101\n        /* \"contracts/Coupon.sol\":6838:6846  operator */\n      dup4\n        /* \"contracts/Coupon.sol\":6856:6857  0 */\n      0x00\n        /* \"contracts/Coupon.sol\":6860:6862  to */\n      dup10\n        /* \"contracts/Coupon.sol\":6864:6867  ids */\n      dup6\n        /* \"contracts/Coupon.sol\":6869:6876  amounts */\n      dup6\n        /* \"contracts/Coupon.sol\":6878:6882  data */\n      dup10\n        /* \"contracts/Coupon.sol\":6818:6837  _afterTokenTransfer */\n      tag_102\n        /* \"contracts/Coupon.sol\":6818:6883  _afterTokenTransfer(operator, address(0), to, ids, amounts, data) */\n      jump\t// in\n    tag_101:\n        /* \"contracts/Coupon.sol\":6894:7050  _doSafeTransferAcceptanceCheck(... */\n      tag_103\n        /* \"contracts/Coupon.sol\":6938:6946  operator */\n      dup4\n        /* \"contracts/Coupon.sol\":6968:6969  0 */\n      0x00\n        /* \"contracts/Coupon.sol\":6984:6986  to */\n      dup10\n        /* \"contracts/Coupon.sol\":7000:7002  id */\n      dup10\n        /* \"contracts/Coupon.sol\":7016:7022  amount */\n      dup10\n        /* \"contracts/Coupon.sol\":7036:7040  data */\n      dup10\n        /* \"contracts/Coupon.sol\":6894:6924  _doSafeTransferAcceptanceCheck */\n      tag_104\n        /* \"contracts/Coupon.sol\":6894:7050  _doSafeTransferAcceptanceCheck(... */\n      jump\t// in\n    tag_103:\n        /* \"contracts/Coupon.sol\":6395:7057  {... */\n      pop\n      pop\n      pop\n        /* \"contracts/Coupon.sol\":6266:7057  function _mint(... */\n      pop\n      pop\n      pop\n      pop\n      jump\t// out\n        /* \"contracts/Coupon.sol\":3532:3619  function _msgSender() private view returns (address) {... */\n    tag_79:\n        /* \"contracts/Coupon.sol\":3576:3583  address */\n      0x00\n        /* \"contracts/Coupon.sol\":3602:3612  msg.sender */\n      caller\n        /* \"contracts/Coupon.sol\":3595:3612  return msg.sender */\n      swap1\n      pop\n        /* \"contracts/Coupon.sol\":3532:3619  function _msgSender() private view returns (address) {... */\n      swap1\n      jump\t// out\n        /* \"contracts/Coupon.sol\":4912:5893  function _safeTransferFrom(... */\n    tag_84:\n        /* \"contracts/Coupon.sol\":5107:5108  0 */\n      0x00\n        /* \"contracts/Coupon.sol\":5093:5109  to != address(0) */\n      0xffffffffffffffffffffffffffffffffffffffff\n      and\n        /* \"contracts/Coupon.sol\":5093:5095  to */\n      dup5\n        /* \"contracts/Coupon.sol\":5093:5109  to != address(0) */\n      0xffffffffffffffffffffffffffffffffffffffff\n      and\n      eq\n      iszero\n        /* \"contracts/Coupon.sol\":5085:5151  require(to != address(0), \"ERC1155: transfer to the zero address\") */\n      tag_107\n      jumpi\n      mload(0x40)\n      0x08c379a000000000000000000000000000000000000000000000000000000000\n      dup2\n      mstore\n      0x04\n      add\n      tag_108\n      swap1\n      tag_109\n      jump\t// in\n    tag_108:\n      mload(0x40)\n      dup1\n      swap2\n      sub\n      swap1\n      revert\n    tag_107:\n        /* \"contracts/Coupon.sol\":5162:5178  address operator */\n      0x00\n        /* \"contracts/Coupon.sol\":5181:5193  _msgSender() */\n      tag_110\n        /* \"contracts/Coupon.sol\":5181:5191  _msgSender */\n      tag_79\n        /* \"contracts/Coupon.sol\":5181:5193  _msgSender() */\n      jump\t// in\n    tag_110:\n        /* \"contracts/Coupon.sol\":5162:5193  address operator = _msgSender() */\n      swap1\n      pop\n        /* \"contracts/Coupon.sol\":5203:5223  uint256[] memory ids */\n      0x00\n        /* \"contracts/Coupon.sol\":5226:5247  _asSingletonArray(id) */\n      tag_111\n        /* \"contracts/Coupon.sol\":5244:5246  id */\n      dup6\n        /* \"contracts/Coupon.sol\":5226:5243  _asSingletonArray */\n      tag_94\n        /* \"contracts/Coupon.sol\":5226:5247  _asSingletonArray(id) */\n      jump\t// in\n    tag_111:\n        /* \"contracts/Coupon.sol\":5203:5247  uint256[] memory ids = _asSingletonArray(id) */\n      swap1\n      pop\n        /* \"contracts/Coupon.sol\":5257:5281  uint256[] memory amounts */\n      0x00\n        /* \"contracts/Coupon.sol\":5284:5309  _asSingletonArray(amount) */\n      tag_112\n        /* \"contracts/Coupon.sol\":5302:5308  amount */\n      dup6\n        /* \"contracts/Coupon.sol\":5284:5301  _asSingletonArray */\n      tag_94\n        /* \"contracts/Coupon.sol\":5284:5309  _asSingletonArray(amount) */\n      jump\t// in\n    tag_112:\n        /* \"contracts/Coupon.sol\":5257:5309  uint256[] memory amounts = _asSingletonArray(amount) */\n      swap1\n      pop\n        /* \"contracts/Coupon.sol\":5320:5380  _beforeTokenTransfer(operator, from, to, ids, amounts, data) */\n      tag_113\n        /* \"contracts/Coupon.sol\":5341:5349  operator */\n      dup4\n        /* \"contracts/Coupon.sol\":5351:5355  from */\n      dup10\n        /* \"contracts/Coupon.sol\":5357:5359  to */\n      dup10\n        /* \"contracts/Coupon.sol\":5361:5364  ids */\n      dup6\n        /* \"contracts/Coupon.sol\":5366:5373  amounts */\n      dup6\n        /* \"contracts/Coupon.sol\":5375:5379  data */\n      dup10\n        /* \"contracts/Coupon.sol\":5320:5340  _beforeTokenTransfer */\n      tag_97\n        /* \"contracts/Coupon.sol\":5320:5380  _beforeTokenTransfer(operator, from, to, ids, amounts, data) */\n      jump\t// in\n    tag_113:\n        /* \"contracts/Coupon.sol\":5391:5410  uint256 fromBalance */\n      0x00\n        /* \"contracts/Coupon.sol\":5413:5422  _balances */\n      dup1\n        /* \"contracts/Coupon.sol\":5413:5426  _balances[id] */\n      0x00\n        /* \"contracts/Coupon.sol\":5423:5425  id */\n      dup9\n        /* \"contracts/Coupon.sol\":5413:5426  _balances[id] */\n      dup2\n      mstore\n      0x20\n      add\n      swap1\n      dup2\n      mstore\n      0x20\n      add\n      0x00\n      keccak256\n        /* \"contracts/Coupon.sol\":5413:5432  _balances[id][from] */\n      0x00\n        /* \"contracts/Coupon.sol\":5427:5431  from */\n      dup11\n        /* \"contracts/Coupon.sol\":5413:5432  _balances[id][from] */\n      0xffffffffffffffffffffffffffffffffffffffff\n      and\n      0xffffffffffffffffffffffffffffffffffffffff\n      and\n      dup2\n      mstore\n      0x20\n      add\n      swap1\n      dup2\n      mstore\n      0x20\n      add\n      0x00\n      keccak256\n      sload\n        /* \"contracts/Coupon.sol\":5391:5432  uint256 fromBalance = _balances[id][from] */\n      swap1\n      pop\n        /* \"contracts/Coupon.sol\":5478:5484  amount */\n      dup6\n        /* \"contracts/Coupon.sol\":5463:5474  fromBalance */\n      dup2\n        /* \"contracts/Coupon.sol\":5463:5484  fromBalance >= amount */\n      lt\n      iszero\n        /* \"contracts/Coupon.sol\":5442:5552  require(... */\n      tag_114\n      jumpi\n      mload(0x40)\n      0x08c379a000000000000000000000000000000000000000000000000000000000\n      dup2\n      mstore\n      0x04\n      add\n      tag_115\n      swap1\n      tag_116\n      jump\t// in\n    tag_115:\n      mload(0x40)\n      dup1\n      swap2\n      sub\n      swap1\n      revert\n    tag_114:\n        /* \"contracts/Coupon.sol\":5622:5628  amount */\n      dup6\n        /* \"contracts/Coupon.sol\":5608:5619  fromBalance */\n      dup2\n        /* \"contracts/Coupon.sol\":5608:5628  fromBalance - amount */\n      sub\n        /* \"contracts/Coupon.sol\":5586:5595  _balances */\n      0x00\n        /* \"contracts/Coupon.sol\":5586:5599  _balances[id] */\n      dup1\n        /* \"contracts/Coupon.sol\":5596:5598  id */\n      dup10\n        /* \"contracts/Coupon.sol\":5586:5599  _balances[id] */\n      dup2\n      mstore\n      0x20\n      add\n      swap1\n      dup2\n      mstore\n      0x20\n      add\n      0x00\n      keccak256\n        /* \"contracts/Coupon.sol\":5586:5605  _balances[id][from] */\n      0x00\n        /* \"contracts/Coupon.sol\":5600:5604  from */\n      dup12\n        /* \"contracts/Coupon.sol\":5586:5605  _balances[id][from] */\n      0xffffffffffffffffffffffffffffffffffffffff\n      and\n      0xffffffffffffffffffffffffffffffffffffffff\n      and\n      dup2\n      mstore\n      0x20\n      add\n      swap1\n      dup2\n      mstore\n      0x20\n      add\n      0x00\n      keccak256\n        /* \"contracts/Coupon.sol\":5586:5628  _balances[id][from] = fromBalance - amount */\n      dup2\n      swap1\n      sstore\n      pop\n        /* \"contracts/Coupon.sol\":5669:5675  amount */\n      dup6\n        /* \"contracts/Coupon.sol\":5648:5657  _balances */\n      0x00\n        /* \"contracts/Coupon.sol\":5648:5661  _balances[id] */\n      dup1\n        /* \"contracts/Coupon.sol\":5658:5660  id */\n      dup10\n        /* \"contracts/Coupon.sol\":5648:5661  _balances[id] */\n      dup2\n      mstore\n      0x20\n      add\n      swap1\n      dup2\n      mstore\n      0x20\n      add\n      0x00\n      keccak256\n        /* \"contracts/Coupon.sol\":5648:5665  _balances[id][to] */\n      0x00\n        /* \"contracts/Coupon.sol\":5662:5664  to */\n      dup11\n        /* \"contracts/Coupon.sol\":5648:5665  _balances[id][to] */\n      0xffffffffffffffffffffffffffffffffffffffff\n      and\n      0xffffffffffffffffffffffffffffffffffffffff\n      and\n      dup2\n      mstore\n      0x20\n      add\n      swap1\n      dup2\n      mstore\n      0x20\n      add\n      0x00\n      keccak256\n      0x00\n        /* \"contracts/Coupon.sol\":5648:5675  _balances[id][to] += amount */\n      dup3\n      dup3\n      sload\n      tag_117\n      swap2\n      swap1\n      tag_74\n      jump\t// in\n    tag_117:\n      swap3\n      pop\n      pop\n      dup2\n      swap1\n      sstore\n      pop\n        /* \"contracts/Coupon.sol\":5722:5724  to */\n      dup8\n        /* \"contracts/Coupon.sol\":5691:5737  TransferSingle(operator, from, to, id, amount) */\n      0xffffffffffffffffffffffffffffffffffffffff\n      and\n        /* \"contracts/Coupon.sol\":5716:5720  from */\n      dup10\n        /* \"contracts/Coupon.sol\":5691:5737  TransferSingle(operator, from, to, id, amount) */\n      0xffffffffffffffffffffffffffffffffffffffff\n      and\n        /* \"contracts/Coupon.sol\":5706:5714  operator */\n      dup6\n        /* \"contracts/Coupon.sol\":5691:5737  TransferSingle(operator, from, to, id, amount) */\n      0xffffffffffffffffffffffffffffffffffffffff\n      and\n      0xc3d58168c5ae7397731d063d5bbf3d657854427343f4c083240f7aacaa2d0f62\n        /* \"contracts/Coupon.sol\":5726:5728  id */\n      dup11\n        /* \"contracts/Coupon.sol\":5730:5736  amount */\n      dup11\n        /* \"contracts/Coupon.sol\":5691:5737  TransferSingle(operator, from, to, id, amount) */\n      mload(0x40)\n      tag_118\n      swap3\n      swap2\n      swap1\n      tag_100\n      jump\t// in\n    tag_118:\n      mload(0x40)\n      dup1\n      swap2\n      sub\n      swap1\n      log4\n        /* \"contracts/Coupon.sol\":5748:5807  _afterTokenTransfer(operator, from, to, ids, amounts, data) */\n      tag_119\n        /* \"contracts/Coupon.sol\":5768:5776  operator */\n      dup5\n        /* \"contracts/Coupon.sol\":5778:5782  from */\n      dup11\n        /* \"contracts/Coupon.sol\":5784:5786  to */\n      dup11\n        /* \"contracts/Coupon.sol\":5788:5791  ids */\n      dup7\n        /* \"contracts/Coupon.sol\":5793:5800  amounts */\n      dup7\n        /* \"contracts/Coupon.sol\":5802:5806  data */\n      dup11\n        /* \"contracts/Coupon.sol\":5748:5767  _afterTokenTransfer */\n      tag_102\n        /* \"contracts/Coupon.sol\":5748:5807  _afterTokenTransfer(operator, from, to, ids, amounts, data) */\n      jump\t// in\n    tag_119:\n        /* \"contracts/Coupon.sol\":5818:5886  _doSafeTransferAcceptanceCheck(operator, from, to, id, amount, data) */\n      tag_120\n        /* \"contracts/Coupon.sol\":5849:5857  operator */\n      dup5\n        /* \"contracts/Coupon.sol\":5859:5863  from */\n      dup11\n        /* \"contracts/Coupon.sol\":5865:5867  to */\n      dup11\n        /* \"contracts/Coupon.sol\":5869:5871  id */\n      dup11\n        /* \"contracts/Coupon.sol\":5873:5879  amount */\n      dup11\n        /* \"contracts/Coupon.sol\":5881:5885  data */\n      dup11\n        /* \"contracts/Coupon.sol\":5818:5848  _doSafeTransferAcceptanceCheck */\n      tag_104\n        /* \"contracts/Coupon.sol\":5818:5886  _doSafeTransferAcceptanceCheck(operator, from, to, id, amount, data) */\n      jump\t// in\n    tag_120:\n        /* \"contracts/Coupon.sol\":5075:5893  {... */\n      pop\n      pop\n      pop\n      pop\n        /* \"contracts/Coupon.sol\":4912:5893  function _safeTransferFrom(... */\n      pop\n      pop\n      pop\n      pop\n      pop\n      jump\t// out\n        /* \"contracts/Coupon.sol\":11307:11528  function _asSingletonArray(uint256 element)... */\n    tag_94:\n        /* \"contracts/Coupon.sol\":11397:11413  uint256[] memory */\n      0x60\n        /* \"contracts/Coupon.sol\":11429:11451  uint256[] memory array */\n      0x00\n        /* \"contracts/Coupon.sol\":11468:11469  1 */\n      0x01\n        /* \"contracts/Coupon.sol\":11454:11470  new uint256[](1) */\n      0xffffffffffffffff\n      dup2\n      gt\n      iszero\n      tag_122\n      jumpi\n      tag_123\n      tag_124\n      jump\t// in\n    tag_123:\n    tag_122:\n      mload(0x40)\n      swap1\n      dup1\n      dup3\n      mstore\n      dup1\n      0x20\n      mul\n      0x20\n      add\n      dup3\n      add\n      0x40\n      mstore\n      dup1\n      iszero\n      tag_125\n      jumpi\n      dup2\n      0x20\n      add\n      0x20\n      dup3\n      mul\n      dup1\n      calldatasize\n      dup4\n      calldatacopy\n      dup1\n      dup3\n      add\n      swap2\n      pop\n      pop\n      swap1\n      pop\n    tag_125:\n      pop\n        /* \"contracts/Coupon.sol\":11429:11470  uint256[] memory array = new uint256[](1) */\n      swap1\n      pop\n        /* \"contracts/Coupon.sol\":11491:11498  element */\n      dup3\n        /* \"contracts/Coupon.sol\":11480:11485  array */\n      dup2\n        /* \"contracts/Coupon.sol\":11486:11487  0 */\n      0x00\n        /* \"contracts/Coupon.sol\":11480:11488  array[0] */\n      dup2\n      mload\n      dup2\n      lt\n      tag_126\n      jumpi\n      tag_127\n      tag_128\n      jump\t// in\n    tag_127:\n    tag_126:\n      0x20\n      mul\n      0x20\n      add\n      add\n        /* \"contracts/Coupon.sol\":11480:11498  array[0] = element */\n      dup2\n      dup2\n      mstore\n      pop\n      pop\n        /* \"contracts/Coupon.sol\":11516:11521  array */\n      dup1\n        /* \"contracts/Coupon.sol\":11509:11521  return array */\n      swap2\n      pop\n      pop\n        /* \"contracts/Coupon.sol\":11307:11528  function _asSingletonArray(uint256 element)... */\n      swap2\n      swap1\n      pop\n      jump\t// out\n        /* \"contracts/Coupon.sol\":9065:9279  function _beforeTokenTransfer(... */\n    tag_97:\n      pop\n      pop\n      pop\n      pop\n      pop\n      pop\n      jump\t// out\n        /* \"contracts/Coupon.sol\":10212:10425  function _afterTokenTransfer(... */\n    tag_102:\n      pop\n      pop\n      pop\n      pop\n      pop\n      pop\n      jump\t// out\n        /* \"contracts/Coupon.sol\":10431:11301  function _doSafeTransferAcceptanceCheck(... */\n    tag_104:\n        /* \"contracts/Coupon.sol\":10638:10652  isContract(to) */\n      tag_132\n        /* \"contracts/Coupon.sol\":10649:10651  to */\n      dup5\n        /* \"contracts/Coupon.sol\":10638:10648  isContract */\n      tag_133\n        /* \"contracts/Coupon.sol\":10638:10652  isContract(to) */\n      jump\t// in\n    tag_132:\n        /* \"contracts/Coupon.sol\":10634:11295  if (isContract(to)) {... */\n      iszero\n      tag_134\n      jumpi\n        /* \"contracts/Coupon.sol\":10705:10707  to */\n      dup4\n        /* \"contracts/Coupon.sol\":10688:10726  IERC1155Receiver(to).onERC1155Received */\n      0xffffffffffffffffffffffffffffffffffffffff\n      and\n      0xf23a6e61\n        /* \"contracts/Coupon.sol\":10748:10756  operator */\n      dup8\n        /* \"contracts/Coupon.sol\":10778:10782  from */\n      dup8\n        /* \"contracts/Coupon.sol\":10804:10806  id */\n      dup7\n        /* \"contracts/Coupon.sol\":10828:10834  amount */\n      dup7\n        /* \"contracts/Coupon.sol\":10856:10860  data */\n      dup7\n        /* \"contracts/Coupon.sol\":10688:10878  IERC1155Receiver(to).onERC1155Received(... */\n      mload(0x40)\n      dup7\n      0xffffffff\n      and\n      0xe0\n      shl\n      dup2\n      mstore\n      0x04\n      add\n      tag_135\n      swap6\n      swap5\n      swap4\n      swap3\n      swap2\n      swap1\n      tag_136\n      jump\t// in\n    tag_135:\n      0x20\n      mload(0x40)\n      dup1\n      dup4\n      sub\n      dup2\n      0x00\n      dup8\n      dup1\n      extcodesize\n      iszero\n      dup1\n      iszero\n      tag_137\n      jumpi\n      0x00\n      dup1\n      revert\n    tag_137:\n      pop\n      gas\n      call\n      swap3\n      pop\n      pop\n      pop\n      dup1\n      iszero\n      tag_138\n      jumpi\n      pop\n      mload(0x40)\n      returndatasize\n      not(0x1f)\n      0x1f\n      dup3\n      add\n      and\n      dup3\n      add\n      dup1\n      0x40\n      mstore\n      pop\n      dup2\n      add\n      swap1\n      tag_139\n      swap2\n      swap1\n      tag_140\n      jump\t// in\n    tag_139:\n      0x01\n    tag_138:\n        /* \"contracts/Coupon.sol\":10668:11285  try... */\n      tag_141\n      jumpi\n      tag_145\n      tag_146\n      jump\t// in\n    tag_145:\n      dup1\n      0x08c379a0\n      eq\n      iszero\n      tag_144\n      jumpi\n      pop\n      tag_147\n      tag_148\n      jump\t// in\n    tag_147:\n      dup1\n      tag_149\n      jumpi\n      pop\n      jump(tag_143)\n    tag_149:\n        /* \"contracts/Coupon.sol\":11161:11167  reason */\n      dup1\n        /* \"contracts/Coupon.sol\":11154:11168  revert(reason) */\n      mload(0x40)\n      0x08c379a000000000000000000000000000000000000000000000000000000000\n      dup2\n      mstore\n      0x04\n      add\n      tag_150\n      swap2\n      swap1\n      tag_151\n      jump\t// in\n    tag_150:\n      mload(0x40)\n      dup1\n      swap2\n      sub\n      swap1\n      revert\n        /* \"contracts/Coupon.sol\":10668:11285  try... */\n    tag_144:\n      pop\n    tag_143:\n        /* \"contracts/Coupon.sol\":11208:11270  revert(\"ERC1155: transfer to non ERC1155Receiver implementer\") */\n      mload(0x40)\n      0x08c379a000000000000000000000000000000000000000000000000000000000\n      dup2\n      mstore\n      0x04\n      add\n      tag_152\n      swap1\n      tag_153\n      jump\t// in\n    tag_152:\n      mload(0x40)\n      dup1\n      swap2\n      sub\n      swap1\n      revert\n        /* \"contracts/Coupon.sol\":10668:11285  try... */\n    tag_141:\n        /* \"contracts/Coupon.sol\":10951:10994  IERC1155Receiver.onERC1155Received.selector */\n      shl(0xe0, 0xf23a6e61)\n        /* \"contracts/Coupon.sol\":10939:10994  response != IERC1155Receiver.onERC1155Received.selector */\n      not(0xffffffffffffffffffffffffffffffffffffffffffffffffffffffff)\n      and\n        /* \"contracts/Coupon.sol\":10939:10947  response */\n      dup2\n        /* \"contracts/Coupon.sol\":10939:10994  response != IERC1155Receiver.onERC1155Received.selector */\n      not(0xffffffffffffffffffffffffffffffffffffffffffffffffffffffff)\n      and\n      eq\n        /* \"contracts/Coupon.sol\":10935:11087  if (response != IERC1155Receiver.onERC1155Received.selector) {... */\n      tag_155\n      jumpi\n        /* \"contracts/Coupon.sol\":11018:11068  revert(\"ERC1155: ERC1155Receiver rejected tokens\") */\n      mload(0x40)\n      0x08c379a000000000000000000000000000000000000000000000000000000000\n      dup2\n      mstore\n      0x04\n      add\n      tag_156\n      swap1\n      tag_157\n      jump\t// in\n    tag_156:\n      mload(0x40)\n      dup1\n      swap2\n      sub\n      swap1\n      revert\n        /* \"contracts/Coupon.sol\":10935:11087  if (response != IERC1155Receiver.onERC1155Received.selector) {... */\n    tag_155:\n        /* \"contracts/Coupon.sol\":10891:11101  returns (bytes4 response) {... */\n      pop\n        /* \"contracts/Coupon.sol\":10634:11295  if (isContract(to)) {... */\n    tag_134:\n        /* \"contracts/Coupon.sol\":10431:11301  function _doSafeTransferAcceptanceCheck(... */\n      pop\n      pop\n      pop\n      pop\n      pop\n      pop\n      jump\t// out\n        /* \"contracts/Coupon.sol\":3207:3526  function isContract(address account) private view returns (bool) {... */\n    tag_133:\n        /* \"contracts/Coupon.sol\":3266:3270  bool */\n      0x00\n        /* \"contracts/Coupon.sol\":3518:3519  0 */\n      dup1\n        /* \"contracts/Coupon.sol\":3496:3503  account */\n      dup3\n        /* \"contracts/Coupon.sol\":3496:3515  account.code.length */\n      0xffffffffffffffffffffffffffffffffffffffff\n      and\n      extcodesize\n        /* \"contracts/Coupon.sol\":3496:3519  account.code.length > 0 */\n      gt\n        /* \"contracts/Coupon.sol\":3489:3519  return account.code.length > 0 */\n      swap1\n      pop\n        /* \"contracts/Coupon.sol\":3207:3526  function isContract(address account) private view returns (bool) {... */\n      swap2\n      swap1\n      pop\n      jump\t// out\n        /* \"#utility.yul\":7:417   */\n    tag_160:\n        /* \"#utility.yul\":84:89   */\n      0x00\n        /* \"#utility.yul\":109:174   */\n      tag_162\n        /* \"#utility.yul\":125:173   */\n      tag_163\n        /* \"#utility.yul\":166:172   */\n      dup5\n        /* \"#utility.yul\":125:173   */\n      tag_164\n      jump\t// in\n    tag_163:\n        /* \"#utility.yul\":109:174   */\n      tag_165\n      jump\t// in\n    tag_162:\n        /* \"#utility.yul\":100:174   */\n      swap1\n      pop\n        /* \"#utility.yul\":197:203   */\n      dup3\n        /* \"#utility.yul\":190:195   */\n      dup2\n        /* \"#utility.yul\":183:204   */\n      mstore\n        /* \"#utility.yul\":235:239   */\n      0x20\n        /* \"#utility.yul\":228:233   */\n      dup2\n        /* \"#utility.yul\":224:240   */\n      add\n        /* \"#utility.yul\":273:276   */\n      dup5\n        /* \"#utility.yul\":264:270   */\n      dup5\n        /* \"#utility.yul\":259:262   */\n      dup5\n        /* \"#utility.yul\":255:271   */\n      add\n        /* \"#utility.yul\":252:277   */\n      gt\n        /* \"#utility.yul\":249:361   */\n      iszero\n      tag_166\n      jumpi\n        /* \"#utility.yul\":280:359   */\n      tag_167\n      tag_168\n      jump\t// in\n    tag_167:\n        /* \"#utility.yul\":249:361   */\n    tag_166:\n        /* \"#utility.yul\":370:411   */\n      tag_169\n        /* \"#utility.yul\":404:410   */\n      dup5\n        /* \"#utility.yul\":399:402   */\n      dup3\n        /* \"#utility.yul\":394:397   */\n      dup6\n        /* \"#utility.yul\":370:411   */\n      tag_170\n      jump\t// in\n    tag_169:\n        /* \"#utility.yul\":90:417   */\n      pop\n        /* \"#utility.yul\":7:417   */\n      swap4\n      swap3\n      pop\n      pop\n      pop\n      jump\t// out\n        /* \"#utility.yul\":423:562   */\n    tag_171:\n        /* \"#utility.yul\":469:474   */\n      0x00\n        /* \"#utility.yul\":507:513   */\n      dup2\n        /* \"#utility.yul\":494:514   */\n      calldataload\n        /* \"#utility.yul\":485:514   */\n      swap1\n      pop\n        /* \"#utility.yul\":523:556   */\n      tag_173\n        /* \"#utility.yul\":550:555   */\n      dup2\n        /* \"#utility.yul\":523:556   */\n      tag_174\n      jump\t// in\n    tag_173:\n        /* \"#utility.yul\":423:562   */\n      swap3\n      swap2\n      pop\n      pop\n      jump\t// out\n        /* \"#utility.yul\":568:705   */\n    tag_175:\n        /* \"#utility.yul\":622:627   */\n      0x00\n        /* \"#utility.yul\":653:659   */\n      dup2\n        /* \"#utility.yul\":647:660   */\n      mload\n        /* \"#utility.yul\":638:660   */\n      swap1\n      pop\n        /* \"#utility.yul\":669:699   */\n      tag_177\n        /* \"#utility.yul\":693:698   */\n      dup2\n        /* \"#utility.yul\":669:699   */\n      tag_178\n      jump\t// in\n    tag_177:\n        /* \"#utility.yul\":568:705   */\n      swap3\n      swap2\n      pop\n      pop\n      jump\t// out\n        /* \"#utility.yul\":711:852   */\n    tag_179:\n        /* \"#utility.yul\":767:772   */\n      0x00\n        /* \"#utility.yul\":798:804   */\n      dup2\n        /* \"#utility.yul\":792:805   */\n      mload\n        /* \"#utility.yul\":783:805   */\n      swap1\n      pop\n        /* \"#utility.yul\":814:846   */\n      tag_181\n        /* \"#utility.yul\":840:845   */\n      dup2\n        /* \"#utility.yul\":814:846   */\n      tag_182\n      jump\t// in\n    tag_181:\n        /* \"#utility.yul\":711:852   */\n      swap3\n      swap2\n      pop\n      pop\n      jump\t// out\n        /* \"#utility.yul\":871:1423   */\n    tag_183:\n        /* \"#utility.yul\":928:936   */\n      0x00\n        /* \"#utility.yul\":938:944   */\n      dup1\n        /* \"#utility.yul\":988:991   */\n      dup4\n        /* \"#utility.yul\":981:985   */\n      0x1f\n        /* \"#utility.yul\":973:979   */\n      dup5\n        /* \"#utility.yul\":969:986   */\n      add\n        /* \"#utility.yul\":965:992   */\n      slt\n        /* \"#utility.yul\":955:1077   */\n      tag_185\n      jumpi\n        /* \"#utility.yul\":996:1075   */\n      tag_186\n      tag_187\n      jump\t// in\n    tag_186:\n        /* \"#utility.yul\":955:1077   */\n    tag_185:\n        /* \"#utility.yul\":1109:1115   */\n      dup3\n        /* \"#utility.yul\":1096:1116   */\n      calldataload\n        /* \"#utility.yul\":1086:1116   */\n      swap1\n      pop\n        /* \"#utility.yul\":1139:1157   */\n      0xffffffffffffffff\n        /* \"#utility.yul\":1131:1137   */\n      dup2\n        /* \"#utility.yul\":1128:1158   */\n      gt\n        /* \"#utility.yul\":1125:1242   */\n      iszero\n      tag_188\n      jumpi\n        /* \"#utility.yul\":1161:1240   */\n      tag_189\n      tag_190\n      jump\t// in\n    tag_189:\n        /* \"#utility.yul\":1125:1242   */\n    tag_188:\n        /* \"#utility.yul\":1275:1279   */\n      0x20\n        /* \"#utility.yul\":1267:1273   */\n      dup4\n        /* \"#utility.yul\":1263:1280   */\n      add\n        /* \"#utility.yul\":1251:1280   */\n      swap2\n      pop\n        /* \"#utility.yul\":1329:1332   */\n      dup4\n        /* \"#utility.yul\":1321:1325   */\n      0x01\n        /* \"#utility.yul\":1313:1319   */\n      dup3\n        /* \"#utility.yul\":1309:1326   */\n      mul\n        /* \"#utility.yul\":1299:1307   */\n      dup4\n        /* \"#utility.yul\":1295:1327   */\n      add\n        /* \"#utility.yul\":1292:1333   */\n      gt\n        /* \"#utility.yul\":1289:1417   */\n      iszero\n      tag_191\n      jumpi\n        /* \"#utility.yul\":1336:1415   */\n      tag_192\n      tag_193\n      jump\t// in\n    tag_192:\n        /* \"#utility.yul\":1289:1417   */\n    tag_191:\n        /* \"#utility.yul\":871:1423   */\n      swap3\n      pop\n      swap3\n      swap1\n      pop\n      jump\t// out\n        /* \"#utility.yul\":1442:1780   */\n    tag_194:\n        /* \"#utility.yul\":1497:1502   */\n      0x00\n        /* \"#utility.yul\":1546:1549   */\n      dup3\n        /* \"#utility.yul\":1539:1543   */\n      0x1f\n        /* \"#utility.yul\":1531:1537   */\n      dup4\n        /* \"#utility.yul\":1527:1544   */\n      add\n        /* \"#utility.yul\":1523:1550   */\n      slt\n        /* \"#utility.yul\":1513:1635   */\n      tag_196\n      jumpi\n        /* \"#utility.yul\":1554:1633   */\n      tag_197\n      tag_187\n      jump\t// in\n    tag_197:\n        /* \"#utility.yul\":1513:1635   */\n    tag_196:\n        /* \"#utility.yul\":1671:1677   */\n      dup2\n        /* \"#utility.yul\":1658:1678   */\n      calldataload\n        /* \"#utility.yul\":1696:1774   */\n      tag_198\n        /* \"#utility.yul\":1770:1773   */\n      dup5\n        /* \"#utility.yul\":1762:1768   */\n      dup3\n        /* \"#utility.yul\":1755:1759   */\n      0x20\n        /* \"#utility.yul\":1747:1753   */\n      dup7\n        /* \"#utility.yul\":1743:1760   */\n      add\n        /* \"#utility.yul\":1696:1774   */\n      tag_160\n      jump\t// in\n    tag_198:\n        /* \"#utility.yul\":1687:1774   */\n      swap2\n      pop\n        /* \"#utility.yul\":1503:1780   */\n      pop\n        /* \"#utility.yul\":1442:1780   */\n      swap3\n      swap2\n      pop\n      pop\n      jump\t// out\n        /* \"#utility.yul\":1786:1925   */\n    tag_199:\n        /* \"#utility.yul\":1832:1837   */\n      0x00\n        /* \"#utility.yul\":1870:1876   */\n      dup2\n        /* \"#utility.yul\":1857:1877   */\n      calldataload\n        /* \"#utility.yul\":1848:1877   */\n      swap1\n      pop\n        /* \"#utility.yul\":1886:1919   */\n      tag_201\n        /* \"#utility.yul\":1913:1918   */\n      dup2\n        /* \"#utility.yul\":1886:1919   */\n      tag_202\n      jump\t// in\n    tag_201:\n        /* \"#utility.yul\":1786:1925   */\n      swap3\n      swap2\n      pop\n      pop\n      jump\t// out\n        /* \"#utility.yul\":1931:3040   */\n    tag_43:\n        /* \"#utility.yul\":2037:2043   */\n      0x00\n        /* \"#utility.yul\":2045:2051   */\n      dup1\n        /* \"#utility.yul\":2053:2059   */\n      0x00\n        /* \"#utility.yul\":2061:2067   */\n      dup1\n        /* \"#utility.yul\":2069:2075   */\n      0x00\n        /* \"#utility.yul\":2077:2083   */\n      dup1\n        /* \"#utility.yul\":2126:2129   */\n      0xa0\n        /* \"#utility.yul\":2114:2123   */\n      dup8\n        /* \"#utility.yul\":2105:2112   */\n      dup10\n        /* \"#utility.yul\":2101:2124   */\n      sub\n        /* \"#utility.yul\":2097:2130   */\n      slt\n        /* \"#utility.yul\":2094:2214   */\n      iszero\n      tag_204\n      jumpi\n        /* \"#utility.yul\":2133:2212   */\n      tag_205\n      tag_206\n      jump\t// in\n    tag_205:\n        /* \"#utility.yul\":2094:2214   */\n    tag_204:\n        /* \"#utility.yul\":2253:2254   */\n      0x00\n        /* \"#utility.yul\":2278:2331   */\n      tag_207\n        /* \"#utility.yul\":2323:2330   */\n      dup10\n        /* \"#utility.yul\":2314:2320   */\n      dup3\n        /* \"#utility.yul\":2303:2312   */\n      dup11\n        /* \"#utility.yul\":2299:2321   */\n      add\n        /* \"#utility.yul\":2278:2331   */\n      tag_171\n      jump\t// in\n    tag_207:\n        /* \"#utility.yul\":2268:2331   */\n      swap7\n      pop\n        /* \"#utility.yul\":2224:2341   */\n      pop\n        /* \"#utility.yul\":2380:2382   */\n      0x20\n        /* \"#utility.yul\":2406:2459   */\n      tag_208\n        /* \"#utility.yul\":2451:2458   */\n      dup10\n        /* \"#utility.yul\":2442:2448   */\n      dup3\n        /* \"#utility.yul\":2431:2440   */\n      dup11\n        /* \"#utility.yul\":2427:2449   */\n      add\n        /* \"#utility.yul\":2406:2459   */\n      tag_171\n      jump\t// in\n    tag_208:\n        /* \"#utility.yul\":2396:2459   */\n      swap6\n      pop\n        /* \"#utility.yul\":2351:2469   */\n      pop\n        /* \"#utility.yul\":2508:2510   */\n      0x40\n        /* \"#utility.yul\":2534:2587   */\n      tag_209\n        /* \"#utility.yul\":2579:2586   */\n      dup10\n        /* \"#utility.yul\":2570:2576   */\n      dup3\n        /* \"#utility.yul\":2559:2568   */\n      dup11\n        /* \"#utility.yul\":2555:2577   */\n      add\n        /* \"#utility.yul\":2534:2587   */\n      tag_199\n      jump\t// in\n    tag_209:\n        /* \"#utility.yul\":2524:2587   */\n      swap5\n      pop\n        /* \"#utility.yul\":2479:2597   */\n      pop\n        /* \"#utility.yul\":2636:2638   */\n      0x60\n        /* \"#utility.yul\":2662:2715   */\n      tag_210\n        /* \"#utility.yul\":2707:2714   */\n      dup10\n        /* \"#utility.yul\":2698:2704   */\n      dup3\n        /* \"#utility.yul\":2687:2696   */\n      dup11\n        /* \"#utility.yul\":2683:2705   */\n      add\n        /* \"#utility.yul\":2662:2715   */\n      tag_199\n      jump\t// in\n    tag_210:\n        /* \"#utility.yul\":2652:2715   */\n      swap4\n      pop\n        /* \"#utility.yul\":2607:2725   */\n      pop\n        /* \"#utility.yul\":2792:2795   */\n      0x80\n        /* \"#utility.yul\":2781:2790   */\n      dup8\n        /* \"#utility.yul\":2777:2796   */\n      add\n        /* \"#utility.yul\":2764:2797   */\n      calldataload\n        /* \"#utility.yul\":2824:2842   */\n      0xffffffffffffffff\n        /* \"#utility.yul\":2816:2822   */\n      dup2\n        /* \"#utility.yul\":2813:2843   */\n      gt\n        /* \"#utility.yul\":2810:2927   */\n      iszero\n      tag_211\n      jumpi\n        /* \"#utility.yul\":2846:2925   */\n      tag_212\n      tag_213\n      jump\t// in\n    tag_212:\n        /* \"#utility.yul\":2810:2927   */\n    tag_211:\n        /* \"#utility.yul\":2959:3023   */\n      tag_214\n        /* \"#utility.yul\":3015:3022   */\n      dup10\n        /* \"#utility.yul\":3006:3012   */\n      dup3\n        /* \"#utility.yul\":2995:3004   */\n      dup11\n        /* \"#utility.yul\":2991:3013   */\n      add\n        /* \"#utility.yul\":2959:3023   */\n      tag_183\n      jump\t// in\n    tag_214:\n        /* \"#utility.yul\":2941:3023   */\n      swap3\n      pop\n      swap3\n      pop\n        /* \"#utility.yul\":2735:3033   */\n      pop\n        /* \"#utility.yul\":1931:3040   */\n      swap3\n      swap6\n      pop\n      swap3\n      swap6\n      pop\n      swap3\n      swap6\n      jump\t// out\n        /* \"#utility.yul\":3046:4135   */\n    tag_50:\n        /* \"#utility.yul\":3150:3156   */\n      0x00\n        /* \"#utility.yul\":3158:3164   */\n      dup1\n        /* \"#utility.yul\":3166:3172   */\n      0x00\n        /* \"#utility.yul\":3174:3180   */\n      dup1\n        /* \"#utility.yul\":3182:3188   */\n      0x00\n        /* \"#utility.yul\":3231:3234   */\n      0xa0\n        /* \"#utility.yul\":3219:3228   */\n      dup7\n        /* \"#utility.yul\":3210:3217   */\n      dup9\n        /* \"#utility.yul\":3206:3229   */\n      sub\n        /* \"#utility.yul\":3202:3235   */\n      slt\n        /* \"#utility.yul\":3199:3319   */\n      iszero\n      tag_216\n      jumpi\n        /* \"#utility.yul\":3238:3317   */\n      tag_217\n      tag_206\n      jump\t// in\n    tag_217:\n        /* \"#utility.yul\":3199:3319   */\n    tag_216:\n        /* \"#utility.yul\":3358:3359   */\n      0x00\n        /* \"#utility.yul\":3383:3436   */\n      tag_218\n        /* \"#utility.yul\":3428:3435   */\n      dup9\n        /* \"#utility.yul\":3419:3425   */\n      dup3\n        /* \"#utility.yul\":3408:3417   */\n      dup10\n        /* \"#utility.yul\":3404:3426   */\n      add\n        /* \"#utility.yul\":3383:3436   */\n      tag_171\n      jump\t// in\n    tag_218:\n        /* \"#utility.yul\":3373:3436   */\n      swap6\n      pop\n        /* \"#utility.yul\":3329:3446   */\n      pop\n        /* \"#utility.yul\":3485:3487   */\n      0x20\n        /* \"#utility.yul\":3511:3564   */\n      tag_219\n        /* \"#utility.yul\":3556:3563   */\n      dup9\n        /* \"#utility.yul\":3547:3553   */\n      dup3\n        /* \"#utility.yul\":3536:3545   */\n      dup10\n        /* \"#utility.yul\":3532:3554   */\n      add\n        /* \"#utility.yul\":3511:3564   */\n      tag_171\n      jump\t// in\n    tag_219:\n        /* \"#utility.yul\":3501:3564   */\n      swap5\n      pop\n        /* \"#utility.yul\":3456:3574   */\n      pop\n        /* \"#utility.yul\":3613:3615   */\n      0x40\n        /* \"#utility.yul\":3639:3692   */\n      tag_220\n        /* \"#utility.yul\":3684:3691   */\n      dup9\n        /* \"#utility.yul\":3675:3681   */\n      dup3\n        /* \"#utility.yul\":3664:3673   */\n      dup10\n        /* \"#utility.yul\":3660:3682   */\n      add\n        /* \"#utility.yul\":3639:3692   */\n      tag_199\n      jump\t// in\n    tag_220:\n        /* \"#utility.yul\":3629:3692   */\n      swap4\n      pop\n        /* \"#utility.yul\":3584:3702   */\n      pop\n        /* \"#utility.yul\":3741:3743   */\n      0x60\n        /* \"#utility.yul\":3767:3820   */\n      tag_221\n        /* \"#utility.yul\":3812:3819   */\n      dup9\n        /* \"#utility.yul\":3803:3809   */\n      dup3\n        /* \"#utility.yul\":3792:3801   */\n      dup10\n        /* \"#utility.yul\":3788:3810   */\n      add\n        /* \"#utility.yul\":3767:3820   */\n      tag_199\n      jump\t// in\n    tag_221:\n        /* \"#utility.yul\":3757:3820   */\n      swap3\n      pop\n        /* \"#utility.yul\":3712:3830   */\n      pop\n        /* \"#utility.yul\":3897:3900   */\n      0x80\n        /* \"#utility.yul\":3886:3895   */\n      dup7\n        /* \"#utility.yul\":3882:3901   */\n      add\n        /* \"#utility.yul\":3869:3902   */\n      calldataload\n        /* \"#utility.yul\":3929:3947   */\n      0xffffffffffffffff\n        /* \"#utility.yul\":3921:3927   */\n      dup2\n        /* \"#utility.yul\":3918:3948   */\n      gt\n        /* \"#utility.yul\":3915:4032   */\n      iszero\n      tag_222\n      jumpi\n        /* \"#utility.yul\":3951:4030   */\n      tag_223\n      tag_213\n      jump\t// in\n    tag_223:\n        /* \"#utility.yul\":3915:4032   */\n    tag_222:\n        /* \"#utility.yul\":4056:4118   */\n      tag_224\n        /* \"#utility.yul\":4110:4117   */\n      dup9\n        /* \"#utility.yul\":4101:4107   */\n      dup3\n        /* \"#utility.yul\":4090:4099   */\n      dup10\n        /* \"#utility.yul\":4086:4108   */\n      add\n        /* \"#utility.yul\":4056:4118   */\n      tag_194\n      jump\t// in\n    tag_224:\n        /* \"#utility.yul\":4046:4118   */\n      swap2\n      pop\n        /* \"#utility.yul\":3840:4128   */\n      pop\n        /* \"#utility.yul\":3046:4135   */\n      swap3\n      swap6\n      pop\n      swap3\n      swap6\n      swap1\n      swap4\n      pop\n      jump\t// out\n        /* \"#utility.yul\":4141:4615   */\n    tag_13:\n        /* \"#utility.yul\":4209:4215   */\n      0x00\n        /* \"#utility.yul\":4217:4223   */\n      dup1\n        /* \"#utility.yul\":4266:4268   */\n      0x40\n        /* \"#utility.yul\":4254:4263   */\n      dup4\n        /* \"#utility.yul\":4245:4252   */\n      dup6\n        /* \"#utility.yul\":4241:4264   */\n      sub\n        /* \"#utility.yul\":4237:4269   */\n      slt\n        /* \"#utility.yul\":4234:4353   */\n      iszero\n      tag_226\n      jumpi\n        /* \"#utility.yul\":4272:4351   */\n      tag_227\n      tag_206\n      jump\t// in\n    tag_227:\n        /* \"#utility.yul\":4234:4353   */\n    tag_226:\n        /* \"#utility.yul\":4392:4393   */\n      0x00\n        /* \"#utility.yul\":4417:4470   */\n      tag_228\n        /* \"#utility.yul\":4462:4469   */\n      dup6\n        /* \"#utility.yul\":4453:4459   */\n      dup3\n        /* \"#utility.yul\":4442:4451   */\n      dup7\n        /* \"#utility.yul\":4438:4460   */\n      add\n        /* \"#utility.yul\":4417:4470   */\n      tag_171\n      jump\t// in\n    tag_228:\n        /* \"#utility.yul\":4407:4470   */\n      swap3\n      pop\n        /* \"#utility.yul\":4363:4480   */\n      pop\n        /* \"#utility.yul\":4519:4521   */\n      0x20\n        /* \"#utility.yul\":4545:4598   */\n      tag_229\n        /* \"#utility.yul\":4590:4597   */\n      dup6\n        /* \"#utility.yul\":4581:4587   */\n      dup3\n        /* \"#utility.yul\":4570:4579   */\n      dup7\n        /* \"#utility.yul\":4566:4588   */\n      add\n        /* \"#utility.yul\":4545:4598   */\n      tag_199\n      jump\t// in\n    tag_229:\n        /* \"#utility.yul\":4535:4598   */\n      swap2\n      pop\n        /* \"#utility.yul\":4490:4608   */\n      pop\n        /* \"#utility.yul\":4141:4615   */\n      swap3\n      pop\n      swap3\n      swap1\n      pop\n      jump\t// out\n        /* \"#utility.yul\":4621:4966   */\n    tag_63:\n        /* \"#utility.yul\":4688:4694   */\n      0x00\n        /* \"#utility.yul\":4737:4739   */\n      0x20\n        /* \"#utility.yul\":4725:4734   */\n      dup3\n        /* \"#utility.yul\":4716:4723   */\n      dup5\n        /* \"#utility.yul\":4712:4735   */\n      sub\n        /* \"#utility.yul\":4708:4740   */\n      slt\n        /* \"#utility.yul\":4705:4824   */\n      iszero\n      tag_231\n      jumpi\n        /* \"#utility.yul\":4743:4822   */\n      tag_232\n      tag_206\n      jump\t// in\n    tag_232:\n        /* \"#utility.yul\":4705:4824   */\n    tag_231:\n        /* \"#utility.yul\":4863:4864   */\n      0x00\n        /* \"#utility.yul\":4888:4949   */\n      tag_233\n        /* \"#utility.yul\":4941:4948   */\n      dup5\n        /* \"#utility.yul\":4932:4938   */\n      dup3\n        /* \"#utility.yul\":4921:4930   */\n      dup6\n        /* \"#utility.yul\":4917:4939   */\n      add\n        /* \"#utility.yul\":4888:4949   */\n      tag_175\n      jump\t// in\n    tag_233:\n        /* \"#utility.yul\":4878:4949   */\n      swap2\n      pop\n        /* \"#utility.yul\":4834:4959   */\n      pop\n        /* \"#utility.yul\":4621:4966   */\n      swap3\n      swap2\n      pop\n      pop\n      jump\t// out\n        /* \"#utility.yul\":4972:5321   */\n    tag_140:\n        /* \"#utility.yul\":5041:5047   */\n      0x00\n        /* \"#utility.yul\":5090:5092   */\n      0x20\n        /* \"#utility.yul\":5078:5087   */\n      dup3\n        /* \"#utility.yul\":5069:5076   */\n      dup5\n        /* \"#utility.yul\":5065:5088   */\n      sub\n        /* \"#utility.yul\":5061:5093   */\n      slt\n        /* \"#utility.yul\":5058:5177   */\n      iszero\n      tag_235\n      jumpi\n        /* \"#utility.yul\":5096:5175   */\n      tag_236\n      tag_206\n      jump\t// in\n    tag_236:\n        /* \"#utility.yul\":5058:5177   */\n    tag_235:\n        /* \"#utility.yul\":5216:5217   */\n      0x00\n        /* \"#utility.yul\":5241:5304   */\n      tag_237\n        /* \"#utility.yul\":5296:5303   */\n      dup5\n        /* \"#utility.yul\":5287:5293   */\n      dup3\n        /* \"#utility.yul\":5276:5285   */\n      dup6\n        /* \"#utility.yul\":5272:5294   */\n      add\n        /* \"#utility.yul\":5241:5304   */\n      tag_179\n      jump\t// in\n    tag_237:\n        /* \"#utility.yul\":5231:5304   */\n      swap2\n      pop\n        /* \"#utility.yul\":5187:5314   */\n      pop\n        /* \"#utility.yul\":4972:5321   */\n      swap3\n      swap2\n      pop\n      pop\n      jump\t// out\n        /* \"#utility.yul\":5327:5656   */\n    tag_31:\n        /* \"#utility.yul\":5386:5392   */\n      0x00\n        /* \"#utility.yul\":5435:5437   */\n      0x20\n        /* \"#utility.yul\":5423:5432   */\n      dup3\n        /* \"#utility.yul\":5414:5421   */\n      dup5\n        /* \"#utility.yul\":5410:5433   */\n      sub\n        /* \"#utility.yul\":5406:5438   */\n      slt\n        /* \"#utility.yul\":5403:5522   */\n      iszero\n      tag_239\n      jumpi\n        /* \"#utility.yul\":5441:5520   */\n      tag_240\n      tag_206\n      jump\t// in\n    tag_240:\n        /* \"#utility.yul\":5403:5522   */\n    tag_239:\n        /* \"#utility.yul\":5561:5562   */\n      0x00\n        /* \"#utility.yul\":5586:5639   */\n      tag_241\n        /* \"#utility.yul\":5631:5638   */\n      dup5\n        /* \"#utility.yul\":5622:5628   */\n      dup3\n        /* \"#utility.yul\":5611:5620   */\n      dup6\n        /* \"#utility.yul\":5607:5629   */\n      add\n        /* \"#utility.yul\":5586:5639   */\n      tag_199\n      jump\t// in\n    tag_241:\n        /* \"#utility.yul\":5576:5639   */\n      swap2\n      pop\n        /* \"#utility.yul\":5532:5649   */\n      pop\n        /* \"#utility.yul\":5327:5656   */\n      swap3\n      swap2\n      pop\n      pop\n      jump\t// out\n        /* \"#utility.yul\":5662:6136   */\n    tag_26:\n        /* \"#utility.yul\":5730:5736   */\n      0x00\n        /* \"#utility.yul\":5738:5744   */\n      dup1\n        /* \"#utility.yul\":5787:5789   */\n      0x40\n        /* \"#utility.yul\":5775:5784   */\n      dup4\n        /* \"#utility.yul\":5766:5773   */\n      dup6\n        /* \"#utility.yul\":5762:5785   */\n      sub\n        /* \"#utility.yul\":5758:5790   */\n      slt\n        /* \"#utility.yul\":5755:5874   */\n      iszero\n      tag_243\n      jumpi\n        /* \"#utility.yul\":5793:5872   */\n      tag_244\n      tag_206\n      jump\t// in\n    tag_244:\n        /* \"#utility.yul\":5755:5874   */\n    tag_243:\n        /* \"#utility.yul\":5913:5914   */\n      0x00\n        /* \"#utility.yul\":5938:5991   */\n      tag_245\n        /* \"#utility.yul\":5983:5990   */\n      dup6\n        /* \"#utility.yul\":5974:5980   */\n      dup3\n        /* \"#utility.yul\":5963:5972   */\n      dup7\n        /* \"#utility.yul\":5959:5981   */\n      add\n        /* \"#utility.yul\":5938:5991   */\n      tag_199\n      jump\t// in\n    tag_245:\n        /* \"#utility.yul\":5928:5991   */\n      swap3\n      pop\n        /* \"#utility.yul\":5884:6001   */\n      pop\n        /* \"#utility.yul\":6040:6042   */\n      0x20\n        /* \"#utility.yul\":6066:6119   */\n      tag_246\n        /* \"#utility.yul\":6111:6118   */\n      dup6\n        /* \"#utility.yul\":6102:6108   */\n      dup3\n        /* \"#utility.yul\":6091:6100   */\n      dup7\n        /* \"#utility.yul\":6087:6109   */\n      add\n        /* \"#utility.yul\":6066:6119   */\n      tag_199\n      jump\t// in\n    tag_246:\n        /* \"#utility.yul\":6056:6119   */\n      swap2\n      pop\n        /* \"#utility.yul\":6011:6129   */\n      pop\n        /* \"#utility.yul\":5662:6136   */\n      swap3\n      pop\n      swap3\n      swap1\n      pop\n      jump\t// out\n        /* \"#utility.yul\":6142:6907   */\n    tag_19:\n        /* \"#utility.yul\":6228:6234   */\n      0x00\n        /* \"#utility.yul\":6236:6242   */\n      dup1\n        /* \"#utility.yul\":6244:6250   */\n      0x00\n        /* \"#utility.yul\":6252:6258   */\n      dup1\n        /* \"#utility.yul\":6301:6304   */\n      0x80\n        /* \"#utility.yul\":6289:6298   */\n      dup6\n        /* \"#utility.yul\":6280:6287   */\n      dup8\n        /* \"#utility.yul\":6276:6299   */\n      sub\n        /* \"#utility.yul\":6272:6305   */\n      slt\n        /* \"#utility.yul\":6269:6389   */\n      iszero\n      tag_248\n      jumpi\n        /* \"#utility.yul\":6308:6387   */\n      tag_249\n      tag_206\n      jump\t// in\n    tag_249:\n        /* \"#utility.yul\":6269:6389   */\n    tag_248:\n        /* \"#utility.yul\":6428:6429   */\n      0x00\n        /* \"#utility.yul\":6453:6506   */\n      tag_250\n        /* \"#utility.yul\":6498:6505   */\n      dup8\n        /* \"#utility.yul\":6489:6495   */\n      dup3\n        /* \"#utility.yul\":6478:6487   */\n      dup9\n        /* \"#utility.yul\":6474:6496   */\n      add\n        /* \"#utility.yul\":6453:6506   */\n      tag_199\n      jump\t// in\n    tag_250:\n        /* \"#utility.yul\":6443:6506   */\n      swap5\n      pop\n        /* \"#utility.yul\":6399:6516   */\n      pop\n        /* \"#utility.yul\":6555:6557   */\n      0x20\n        /* \"#utility.yul\":6581:6634   */\n      tag_251\n        /* \"#utility.yul\":6626:6633   */\n      dup8\n        /* \"#utility.yul\":6617:6623   */\n      dup3\n        /* \"#utility.yul\":6606:6615   */\n      dup9\n        /* \"#utility.yul\":6602:6624   */\n      add\n        /* \"#utility.yul\":6581:6634   */\n      tag_199\n      jump\t// in\n    tag_251:\n        /* \"#utility.yul\":6571:6634   */\n      swap4\n      pop\n        /* \"#utility.yul\":6526:6644   */\n      pop\n        /* \"#utility.yul\":6683:6685   */\n      0x40\n        /* \"#utility.yul\":6709:6762   */\n      tag_252\n        /* \"#utility.yul\":6754:6761   */\n      dup8\n        /* \"#utility.yul\":6745:6751   */\n      dup3\n        /* \"#utility.yul\":6734:6743   */\n      dup9\n        /* \"#utility.yul\":6730:6752   */\n      add\n        /* \"#utility.yul\":6709:6762   */\n      tag_199\n      jump\t// in\n    tag_252:\n        /* \"#utility.yul\":6699:6762   */\n      swap3\n      pop\n        /* \"#utility.yul\":6654:6772   */\n      pop\n        /* \"#utility.yul\":6811:6813   */\n      0x60\n        /* \"#utility.yul\":6837:6890   */\n      tag_253\n        /* \"#utility.yul\":6882:6889   */\n      dup8\n        /* \"#utility.yul\":6873:6879   */\n      dup3\n        /* \"#utility.yul\":6862:6871   */\n      dup9\n        /* \"#utility.yul\":6858:6880   */\n      add\n        /* \"#utility.yul\":6837:6890   */\n      tag_171\n      jump\t// in\n    tag_253:\n        /* \"#utility.yul\":6827:6890   */\n      swap2\n      pop\n        /* \"#utility.yul\":6782:6900   */\n      pop\n        /* \"#utility.yul\":6142:6907   */\n      swap3\n      swap6\n      swap2\n      swap5\n      pop\n      swap3\n      pop\n      jump\t// out\n        /* \"#utility.yul\":6913:7031   */\n    tag_254:\n        /* \"#utility.yul\":7000:7024   */\n      tag_256\n        /* \"#utility.yul\":7018:7023   */\n      dup2\n        /* \"#utility.yul\":7000:7024   */\n      tag_257\n      jump\t// in\n    tag_256:\n        /* \"#utility.yul\":6995:6998   */\n      dup3\n        /* \"#utility.yul\":6988:7025   */\n      mstore\n        /* \"#utility.yul\":6913:7031   */\n      pop\n      pop\n      jump\t// out\n        /* \"#utility.yul\":7037:7146   */\n    tag_258:\n        /* \"#utility.yul\":7118:7139   */\n      tag_260\n        /* \"#utility.yul\":7133:7138   */\n      dup2\n        /* \"#utility.yul\":7118:7139   */\n      tag_261\n      jump\t// in\n    tag_260:\n        /* \"#utility.yul\":7113:7116   */\n      dup3\n        /* \"#utility.yul\":7106:7140   */\n      mstore\n        /* \"#utility.yul\":7037:7146   */\n      pop\n      pop\n      jump\t// out\n        /* \"#utility.yul\":7152:7267   */\n    tag_262:\n        /* \"#utility.yul\":7237:7260   */\n      tag_264\n        /* \"#utility.yul\":7254:7259   */\n      dup2\n        /* \"#utility.yul\":7237:7260   */\n      tag_265\n      jump\t// in\n    tag_264:\n        /* \"#utility.yul\":7232:7235   */\n      dup3\n        /* \"#utility.yul\":7225:7261   */\n      mstore\n        /* \"#utility.yul\":7152:7267   */\n      pop\n      pop\n      jump\t// out\n        /* \"#utility.yul\":7295:7596   */\n    tag_266:\n        /* \"#utility.yul\":7391:7394   */\n      0x00\n        /* \"#utility.yul\":7412:7482   */\n      tag_268\n        /* \"#utility.yul\":7475:7481   */\n      dup4\n        /* \"#utility.yul\":7470:7473   */\n      dup6\n        /* \"#utility.yul\":7412:7482   */\n      tag_269\n      jump\t// in\n    tag_268:\n        /* \"#utility.yul\":7405:7482   */\n      swap4\n      pop\n        /* \"#utility.yul\":7492:7535   */\n      tag_270\n        /* \"#utility.yul\":7528:7534   */\n      dup4\n        /* \"#utility.yul\":7523:7526   */\n      dup6\n        /* \"#utility.yul\":7516:7521   */\n      dup5\n        /* \"#utility.yul\":7492:7535   */\n      tag_170\n      jump\t// in\n    tag_270:\n        /* \"#utility.yul\":7560:7589   */\n      tag_271\n        /* \"#utility.yul\":7582:7588   */\n      dup4\n        /* \"#utility.yul\":7560:7589   */\n      tag_272\n      jump\t// in\n    tag_271:\n        /* \"#utility.yul\":7555:7558   */\n      dup5\n        /* \"#utility.yul\":7551:7590   */\n      add\n        /* \"#utility.yul\":7544:7590   */\n      swap1\n      pop\n        /* \"#utility.yul\":7295:7596   */\n      swap4\n      swap3\n      pop\n      pop\n      pop\n      jump\t// out\n        /* \"#utility.yul\":7602:7962   */\n    tag_273:\n        /* \"#utility.yul\":7688:7691   */\n      0x00\n        /* \"#utility.yul\":7716:7754   */\n      tag_275\n        /* \"#utility.yul\":7748:7753   */\n      dup3\n        /* \"#utility.yul\":7716:7754   */\n      tag_276\n      jump\t// in\n    tag_275:\n        /* \"#utility.yul\":7770:7840   */\n      tag_277\n        /* \"#utility.yul\":7833:7839   */\n      dup2\n        /* \"#utility.yul\":7828:7831   */\n      dup6\n        /* \"#utility.yul\":7770:7840   */\n      tag_269\n      jump\t// in\n    tag_277:\n        /* \"#utility.yul\":7763:7840   */\n      swap4\n      pop\n        /* \"#utility.yul\":7849:7901   */\n      tag_278\n        /* \"#utility.yul\":7894:7900   */\n      dup2\n        /* \"#utility.yul\":7889:7892   */\n      dup6\n        /* \"#utility.yul\":7882:7886   */\n      0x20\n        /* \"#utility.yul\":7875:7880   */\n      dup7\n        /* \"#utility.yul\":7871:7887   */\n      add\n        /* \"#utility.yul\":7849:7901   */\n      tag_279\n      jump\t// in\n    tag_278:\n        /* \"#utility.yul\":7926:7955   */\n      tag_280\n        /* \"#utility.yul\":7948:7954   */\n      dup2\n        /* \"#utility.yul\":7926:7955   */\n      tag_272\n      jump\t// in\n    tag_280:\n        /* \"#utility.yul\":7921:7924   */\n      dup5\n        /* \"#utility.yul\":7917:7956   */\n      add\n        /* \"#utility.yul\":7910:7956   */\n      swap2\n      pop\n        /* \"#utility.yul\":7692:7962   */\n      pop\n        /* \"#utility.yul\":7602:7962   */\n      swap3\n      swap2\n      pop\n      pop\n      jump\t// out\n        /* \"#utility.yul\":7968:8332   */\n    tag_281:\n        /* \"#utility.yul\":8056:8059   */\n      0x00\n        /* \"#utility.yul\":8084:8123   */\n      tag_283\n        /* \"#utility.yul\":8117:8122   */\n      dup3\n        /* \"#utility.yul\":8084:8123   */\n      tag_284\n      jump\t// in\n    tag_283:\n        /* \"#utility.yul\":8139:8210   */\n      tag_285\n        /* \"#utility.yul\":8203:8209   */\n      dup2\n        /* \"#utility.yul\":8198:8201   */\n      dup6\n        /* \"#utility.yul\":8139:8210   */\n      tag_286\n      jump\t// in\n    tag_285:\n        /* \"#utility.yul\":8132:8210   */\n      swap4\n      pop\n        /* \"#utility.yul\":8219:8271   */\n      tag_287\n        /* \"#utility.yul\":8264:8270   */\n      dup2\n        /* \"#utility.yul\":8259:8262   */\n      dup6\n        /* \"#utility.yul\":8252:8256   */\n      0x20\n        /* \"#utility.yul\":8245:8250   */\n      dup7\n        /* \"#utility.yul\":8241:8257   */\n      add\n        /* \"#utility.yul\":8219:8271   */\n      tag_279\n      jump\t// in\n    tag_287:\n        /* \"#utility.yul\":8296:8325   */\n      tag_288\n        /* \"#utility.yul\":8318:8324   */\n      dup2\n        /* \"#utility.yul\":8296:8325   */\n      tag_272\n      jump\t// in\n    tag_288:\n        /* \"#utility.yul\":8291:8294   */\n      dup5\n        /* \"#utility.yul\":8287:8326   */\n      add\n        /* \"#utility.yul\":8280:8326   */\n      swap2\n      pop\n        /* \"#utility.yul\":8060:8332   */\n      pop\n        /* \"#utility.yul\":7968:8332   */\n      swap3\n      swap2\n      pop\n      pop\n      jump\t// out\n        /* \"#utility.yul\":8338:8704   */\n    tag_289:\n        /* \"#utility.yul\":8480:8483   */\n      0x00\n        /* \"#utility.yul\":8501:8568   */\n      tag_291\n        /* \"#utility.yul\":8565:8567   */\n      0x34\n        /* \"#utility.yul\":8560:8563   */\n      dup4\n        /* \"#utility.yul\":8501:8568   */\n      tag_286\n      jump\t// in\n    tag_291:\n        /* \"#utility.yul\":8494:8568   */\n      swap2\n      pop\n        /* \"#utility.yul\":8577:8670   */\n      tag_292\n        /* \"#utility.yul\":8666:8669   */\n      dup3\n        /* \"#utility.yul\":8577:8670   */\n      tag_293\n      jump\t// in\n    tag_292:\n        /* \"#utility.yul\":8695:8697   */\n      0x40\n        /* \"#utility.yul\":8690:8693   */\n      dup3\n        /* \"#utility.yul\":8686:8698   */\n      add\n        /* \"#utility.yul\":8679:8698   */\n      swap1\n      pop\n        /* \"#utility.yul\":8338:8704   */\n      swap2\n      swap1\n      pop\n      jump\t// out\n        /* \"#utility.yul\":8710:9076   */\n    tag_294:\n        /* \"#utility.yul\":8852:8855   */\n      0x00\n        /* \"#utility.yul\":8873:8940   */\n      tag_296\n        /* \"#utility.yul\":8937:8939   */\n      0x2f\n        /* \"#utility.yul\":8932:8935   */\n      dup4\n        /* \"#utility.yul\":8873:8940   */\n      tag_286\n      jump\t// in\n    tag_296:\n        /* \"#utility.yul\":8866:8940   */\n      swap2\n      pop\n        /* \"#utility.yul\":8949:9042   */\n      tag_297\n        /* \"#utility.yul\":9038:9041   */\n      dup3\n        /* \"#utility.yul\":8949:9042   */\n      tag_298\n      jump\t// in\n    tag_297:\n        /* \"#utility.yul\":9067:9069   */\n      0x40\n        /* \"#utility.yul\":9062:9065   */\n      dup3\n        /* \"#utility.yul\":9058:9070   */\n      add\n        /* \"#utility.yul\":9051:9070   */\n      swap1\n      pop\n        /* \"#utility.yul\":8710:9076   */\n      swap2\n      swap1\n      pop\n      jump\t// out\n        /* \"#utility.yul\":9082:9448   */\n    tag_299:\n        /* \"#utility.yul\":9224:9227   */\n      0x00\n        /* \"#utility.yul\":9245:9312   */\n      tag_301\n        /* \"#utility.yul\":9309:9311   */\n      0x28\n        /* \"#utility.yul\":9304:9307   */\n      dup4\n        /* \"#utility.yul\":9245:9312   */\n      tag_286\n      jump\t// in\n    tag_301:\n        /* \"#utility.yul\":9238:9312   */\n      swap2\n      pop\n        /* \"#utility.yul\":9321:9414   */\n      tag_302\n        /* \"#utility.yul\":9410:9413   */\n      dup3\n        /* \"#utility.yul\":9321:9414   */\n      tag_303\n      jump\t// in\n    tag_302:\n        /* \"#utility.yul\":9439:9441   */\n      0x40\n        /* \"#utility.yul\":9434:9437   */\n      dup3\n        /* \"#utility.yul\":9430:9442   */\n      add\n        /* \"#utility.yul\":9423:9442   */\n      swap1\n      pop\n        /* \"#utility.yul\":9082:9448   */\n      swap2\n      swap1\n      pop\n      jump\t// out\n        /* \"#utility.yul\":9454:9820   */\n    tag_304:\n        /* \"#utility.yul\":9596:9599   */\n      0x00\n        /* \"#utility.yul\":9617:9684   */\n      tag_306\n        /* \"#utility.yul\":9681:9683   */\n      0x2a\n        /* \"#utility.yul\":9676:9679   */\n      dup4\n        /* \"#utility.yul\":9617:9684   */\n      tag_286\n      jump\t// in\n    tag_306:\n        /* \"#utility.yul\":9610:9684   */\n      swap2\n      pop\n        /* \"#utility.yul\":9693:9786   */\n      tag_307\n        /* \"#utility.yul\":9782:9785   */\n      dup3\n        /* \"#utility.yul\":9693:9786   */\n      tag_308\n      jump\t// in\n    tag_307:\n        /* \"#utility.yul\":9811:9813   */\n      0x40\n        /* \"#utility.yul\":9806:9809   */\n      dup3\n        /* \"#utility.yul\":9802:9814   */\n      add\n        /* \"#utility.yul\":9795:9814   */\n      swap1\n      pop\n        /* \"#utility.yul\":9454:9820   */\n      swap2\n      swap1\n      pop\n      jump\t// out\n        /* \"#utility.yul\":9826:10192   */\n    tag_309:\n        /* \"#utility.yul\":9968:9971   */\n      0x00\n        /* \"#utility.yul\":9989:10056   */\n      tag_311\n        /* \"#utility.yul\":10053:10055   */\n      0x25\n        /* \"#utility.yul\":10048:10051   */\n      dup4\n        /* \"#utility.yul\":9989:10056   */\n      tag_286\n      jump\t// in\n    tag_311:\n        /* \"#utility.yul\":9982:10056   */\n      swap2\n      pop\n        /* \"#utility.yul\":10065:10158   */\n      tag_312\n        /* \"#utility.yul\":10154:10157   */\n      dup3\n        /* \"#utility.yul\":10065:10158   */\n      tag_313\n      jump\t// in\n    tag_312:\n        /* \"#utility.yul\":10183:10185   */\n      0x40\n        /* \"#utility.yul\":10178:10181   */\n      dup3\n        /* \"#utility.yul\":10174:10186   */\n      add\n        /* \"#utility.yul\":10167:10186   */\n      swap1\n      pop\n        /* \"#utility.yul\":9826:10192   */\n      swap2\n      swap1\n      pop\n      jump\t// out\n        /* \"#utility.yul\":10198:10564   */\n    tag_314:\n        /* \"#utility.yul\":10340:10343   */\n      0x00\n        /* \"#utility.yul\":10361:10428   */\n      tag_316\n        /* \"#utility.yul\":10425:10427   */\n      0x2a\n        /* \"#utility.yul\":10420:10423   */\n      dup4\n        /* \"#utility.yul\":10361:10428   */\n      tag_286\n      jump\t// in\n    tag_316:\n        /* \"#utility.yul\":10354:10428   */\n      swap2\n      pop\n        /* \"#utility.yul\":10437:10530   */\n      tag_317\n        /* \"#utility.yul\":10526:10529   */\n      dup3\n        /* \"#utility.yul\":10437:10530   */\n      tag_318\n      jump\t// in\n    tag_317:\n        /* \"#utility.yul\":10555:10557   */\n      0x40\n        /* \"#utility.yul\":10550:10553   */\n      dup3\n        /* \"#utility.yul\":10546:10558   */\n      add\n        /* \"#utility.yul\":10539:10558   */\n      swap1\n      pop\n        /* \"#utility.yul\":10198:10564   */\n      swap2\n      swap1\n      pop\n      jump\t// out\n        /* \"#utility.yul\":10570:10936   */\n    tag_319:\n        /* \"#utility.yul\":10712:10715   */\n      0x00\n        /* \"#utility.yul\":10733:10800   */\n      tag_321\n        /* \"#utility.yul\":10797:10799   */\n      0x21\n        /* \"#utility.yul\":10792:10795   */\n      dup4\n        /* \"#utility.yul\":10733:10800   */\n      tag_286\n      jump\t// in\n    tag_321:\n        /* \"#utility.yul\":10726:10800   */\n      swap2\n      pop\n        /* \"#utility.yul\":10809:10902   */\n      tag_322\n        /* \"#utility.yul\":10898:10901   */\n      dup3\n        /* \"#utility.yul\":10809:10902   */\n      tag_323\n      jump\t// in\n    tag_322:\n        /* \"#utility.yul\":10927:10929   */\n      0x40\n        /* \"#utility.yul\":10922:10925   */\n      dup3\n        /* \"#utility.yul\":10918:10930   */\n      add\n        /* \"#utility.yul\":10911:10930   */\n      swap1\n      pop\n        /* \"#utility.yul\":10570:10936   */\n      swap2\n      swap1\n      pop\n      jump\t// out\n        /* \"#utility.yul\":10942:11060   */\n    tag_324:\n        /* \"#utility.yul\":11029:11053   */\n      tag_326\n        /* \"#utility.yul\":11047:11052   */\n      dup2\n        /* \"#utility.yul\":11029:11053   */\n      tag_327\n      jump\t// in\n    tag_326:\n        /* \"#utility.yul\":11024:11027   */\n      dup3\n        /* \"#utility.yul\":11017:11054   */\n      mstore\n        /* \"#utility.yul\":10942:11060   */\n      pop\n      pop\n      jump\t// out\n        /* \"#utility.yul\":11066:11288   */\n    tag_39:\n        /* \"#utility.yul\":11159:11163   */\n      0x00\n        /* \"#utility.yul\":11197:11199   */\n      0x20\n        /* \"#utility.yul\":11186:11195   */\n      dup3\n        /* \"#utility.yul\":11182:11200   */\n      add\n        /* \"#utility.yul\":11174:11200   */\n      swap1\n      pop\n        /* \"#utility.yul\":11210:11281   */\n      tag_329\n        /* \"#utility.yul\":11278:11279   */\n      0x00\n        /* \"#utility.yul\":11267:11276   */\n      dup4\n        /* \"#utility.yul\":11263:11280   */\n      add\n        /* \"#utility.yul\":11254:11260   */\n      dup5\n        /* \"#utility.yul\":11210:11281   */\n      tag_254\n      jump\t// in\n    tag_329:\n        /* \"#utility.yul\":11066:11288   */\n      swap3\n      swap2\n      pop\n      pop\n      jump\t// out\n        /* \"#utility.yul\":11294:11736   */\n    tag_58:\n        /* \"#utility.yul\":11443:11447   */\n      0x00\n        /* \"#utility.yul\":11481:11483   */\n      0x60\n        /* \"#utility.yul\":11470:11479   */\n      dup3\n        /* \"#utility.yul\":11466:11484   */\n      add\n        /* \"#utility.yul\":11458:11484   */\n      swap1\n      pop\n        /* \"#utility.yul\":11494:11565   */\n      tag_331\n        /* \"#utility.yul\":11562:11563   */\n      0x00\n        /* \"#utility.yul\":11551:11560   */\n      dup4\n        /* \"#utility.yul\":11547:11564   */\n      add\n        /* \"#utility.yul\":11538:11544   */\n      dup7\n        /* \"#utility.yul\":11494:11565   */\n      tag_254\n      jump\t// in\n    tag_331:\n        /* \"#utility.yul\":11575:11647   */\n      tag_332\n        /* \"#utility.yul\":11643:11645   */\n      0x20\n        /* \"#utility.yul\":11632:11641   */\n      dup4\n        /* \"#utility.yul\":11628:11646   */\n      add\n        /* \"#utility.yul\":11619:11625   */\n      dup6\n        /* \"#utility.yul\":11575:11647   */\n      tag_254\n      jump\t// in\n    tag_332:\n        /* \"#utility.yul\":11657:11729   */\n      tag_333\n        /* \"#utility.yul\":11725:11727   */\n      0x40\n        /* \"#utility.yul\":11714:11723   */\n      dup4\n        /* \"#utility.yul\":11710:11728   */\n      add\n        /* \"#utility.yul\":11701:11707   */\n      dup5\n        /* \"#utility.yul\":11657:11729   */\n      tag_324\n      jump\t// in\n    tag_333:\n        /* \"#utility.yul\":11294:11736   */\n      swap5\n      swap4\n      pop\n      pop\n      pop\n      pop\n      jump\t// out\n        /* \"#utility.yul\":11742:12624   */\n    tag_76:\n        /* \"#utility.yul\":12003:12007   */\n      0x00\n        /* \"#utility.yul\":12041:12044   */\n      0xc0\n        /* \"#utility.yul\":12030:12039   */\n      dup3\n        /* \"#utility.yul\":12026:12045   */\n      add\n        /* \"#utility.yul\":12018:12045   */\n      swap1\n      pop\n        /* \"#utility.yul\":12055:12126   */\n      tag_335\n        /* \"#utility.yul\":12123:12124   */\n      0x00\n        /* \"#utility.yul\":12112:12121   */\n      dup4\n        /* \"#utility.yul\":12108:12125   */\n      add\n        /* \"#utility.yul\":12099:12105   */\n      dup11\n        /* \"#utility.yul\":12055:12126   */\n      tag_254\n      jump\t// in\n    tag_335:\n        /* \"#utility.yul\":12136:12208   */\n      tag_336\n        /* \"#utility.yul\":12204:12206   */\n      0x20\n        /* \"#utility.yul\":12193:12202   */\n      dup4\n        /* \"#utility.yul\":12189:12207   */\n      add\n        /* \"#utility.yul\":12180:12186   */\n      dup10\n        /* \"#utility.yul\":12136:12208   */\n      tag_254\n      jump\t// in\n    tag_336:\n        /* \"#utility.yul\":12218:12290   */\n      tag_337\n        /* \"#utility.yul\":12286:12288   */\n      0x40\n        /* \"#utility.yul\":12275:12284   */\n      dup4\n        /* \"#utility.yul\":12271:12289   */\n      add\n        /* \"#utility.yul\":12262:12268   */\n      dup9\n        /* \"#utility.yul\":12218:12290   */\n      tag_324\n      jump\t// in\n    tag_337:\n        /* \"#utility.yul\":12300:12372   */\n      tag_338\n        /* \"#utility.yul\":12368:12370   */\n      0x60\n        /* \"#utility.yul\":12357:12366   */\n      dup4\n        /* \"#utility.yul\":12353:12371   */\n      add\n        /* \"#utility.yul\":12344:12350   */\n      dup8\n        /* \"#utility.yul\":12300:12372   */\n      tag_324\n      jump\t// in\n    tag_338:\n        /* \"#utility.yul\":12420:12429   */\n      dup2\n        /* \"#utility.yul\":12414:12418   */\n      dup2\n        /* \"#utility.yul\":12410:12430   */\n      sub\n        /* \"#utility.yul\":12404:12407   */\n      0x80\n        /* \"#utility.yul\":12393:12402   */\n      dup4\n        /* \"#utility.yul\":12389:12408   */\n      add\n        /* \"#utility.yul\":12382:12431   */\n      mstore\n        /* \"#utility.yul\":12448:12534   */\n      tag_339\n        /* \"#utility.yul\":12529:12533   */\n      dup2\n        /* \"#utility.yul\":12520:12526   */\n      dup6\n        /* \"#utility.yul\":12512:12518   */\n      dup8\n        /* \"#utility.yul\":12448:12534   */\n      tag_266\n      jump\t// in\n    tag_339:\n        /* \"#utility.yul\":12440:12534   */\n      swap1\n      pop\n        /* \"#utility.yul\":12544:12617   */\n      tag_340\n        /* \"#utility.yul\":12612:12615   */\n      0xa0\n        /* \"#utility.yul\":12601:12610   */\n      dup4\n        /* \"#utility.yul\":12597:12616   */\n      add\n        /* \"#utility.yul\":12588:12594   */\n      dup5\n        /* \"#utility.yul\":12544:12617   */\n      tag_324\n      jump\t// in\n    tag_340:\n        /* \"#utility.yul\":11742:12624   */\n      swap9\n      swap8\n      pop\n      pop\n      pop\n      pop\n      pop\n      pop\n      pop\n      pop\n      jump\t// out\n        /* \"#utility.yul\":12630:13381   */\n    tag_136:\n        /* \"#utility.yul\":12853:12857   */\n      0x00\n        /* \"#utility.yul\":12891:12894   */\n      0xa0\n        /* \"#utility.yul\":12880:12889   */\n      dup3\n        /* \"#utility.yul\":12876:12895   */\n      add\n        /* \"#utility.yul\":12868:12895   */\n      swap1\n      pop\n        /* \"#utility.yul\":12905:12976   */\n      tag_342\n        /* \"#utility.yul\":12973:12974   */\n      0x00\n        /* \"#utility.yul\":12962:12971   */\n      dup4\n        /* \"#utility.yul\":12958:12975   */\n      add\n        /* \"#utility.yul\":12949:12955   */\n      dup9\n        /* \"#utility.yul\":12905:12976   */\n      tag_254\n      jump\t// in\n    tag_342:\n        /* \"#utility.yul\":12986:13058   */\n      tag_343\n        /* \"#utility.yul\":13054:13056   */\n      0x20\n        /* \"#utility.yul\":13043:13052   */\n      dup4\n        /* \"#utility.yul\":13039:13057   */\n      add\n        /* \"#utility.yul\":13030:13036   */\n      dup8\n        /* \"#utility.yul\":12986:13058   */\n      tag_254\n      jump\t// in\n    tag_343:\n        /* \"#utility.yul\":13068:13140   */\n      tag_344\n        /* \"#utility.yul\":13136:13138   */\n      0x40\n        /* \"#utility.yul\":13125:13134   */\n      dup4\n        /* \"#utility.yul\":13121:13139   */\n      add\n        /* \"#utility.yul\":13112:13118   */\n      dup7\n        /* \"#utility.yul\":13068:13140   */\n      tag_324\n      jump\t// in\n    tag_344:\n        /* \"#utility.yul\":13150:13222   */\n      tag_345\n        /* \"#utility.yul\":13218:13220   */\n      0x60\n        /* \"#utility.yul\":13207:13216   */\n      dup4\n        /* \"#utility.yul\":13203:13221   */\n      add\n        /* \"#utility.yul\":13194:13200   */\n      dup6\n        /* \"#utility.yul\":13150:13222   */\n      tag_324\n      jump\t// in\n    tag_345:\n        /* \"#utility.yul\":13270:13279   */\n      dup2\n        /* \"#utility.yul\":13264:13268   */\n      dup2\n        /* \"#utility.yul\":13260:13280   */\n      sub\n        /* \"#utility.yul\":13254:13257   */\n      0x80\n        /* \"#utility.yul\":13243:13252   */\n      dup4\n        /* \"#utility.yul\":13239:13258   */\n      add\n        /* \"#utility.yul\":13232:13281   */\n      mstore\n        /* \"#utility.yul\":13298:13374   */\n      tag_346\n        /* \"#utility.yul\":13369:13373   */\n      dup2\n        /* \"#utility.yul\":13360:13366   */\n      dup5\n        /* \"#utility.yul\":13298:13374   */\n      tag_273\n      jump\t// in\n    tag_346:\n        /* \"#utility.yul\":13290:13374   */\n      swap1\n      pop\n        /* \"#utility.yul\":12630:13381   */\n      swap7\n      swap6\n      pop\n      pop\n      pop\n      pop\n      pop\n      pop\n      jump\t// out\n        /* \"#utility.yul\":13387:13597   */\n    tag_22:\n        /* \"#utility.yul\":13474:13478   */\n      0x00\n        /* \"#utility.yul\":13512:13514   */\n      0x20\n        /* \"#utility.yul\":13501:13510   */\n      dup3\n        /* \"#utility.yul\":13497:13515   */\n      add\n        /* \"#utility.yul\":13489:13515   */\n      swap1\n      pop\n        /* \"#utility.yul\":13525:13590   */\n      tag_348\n        /* \"#utility.yul\":13587:13588   */\n      0x00\n        /* \"#utility.yul\":13576:13585   */\n      dup4\n        /* \"#utility.yul\":13572:13589   */\n      add\n        /* \"#utility.yul\":13563:13569   */\n      dup5\n        /* \"#utility.yul\":13525:13590   */\n      tag_258\n      jump\t// in\n    tag_348:\n        /* \"#utility.yul\":13387:13597   */\n      swap3\n      swap2\n      pop\n      pop\n      jump\t// out\n        /* \"#utility.yul\":13603:13821   */\n    tag_46:\n        /* \"#utility.yul\":13694:13698   */\n      0x00\n        /* \"#utility.yul\":13732:13734   */\n      0x20\n        /* \"#utility.yul\":13721:13730   */\n      dup3\n        /* \"#utility.yul\":13717:13735   */\n      add\n        /* \"#utility.yul\":13709:13735   */\n      swap1\n      pop\n        /* \"#utility.yul\":13745:13814   */\n      tag_350\n        /* \"#utility.yul\":13811:13812   */\n      0x00\n        /* \"#utility.yul\":13800:13809   */\n      dup4\n        /* \"#utility.yul\":13796:13813   */\n      add\n        /* \"#utility.yul\":13787:13793   */\n      dup5\n        /* \"#utility.yul\":13745:13814   */\n      tag_262\n      jump\t// in\n    tag_350:\n        /* \"#utility.yul\":13603:13821   */\n      swap3\n      swap2\n      pop\n      pop\n      jump\t// out\n        /* \"#utility.yul\":13827:14140   */\n    tag_151:\n        /* \"#utility.yul\":13940:13944   */\n      0x00\n        /* \"#utility.yul\":13978:13980   */\n      0x20\n        /* \"#utility.yul\":13967:13976   */\n      dup3\n        /* \"#utility.yul\":13963:13981   */\n      add\n        /* \"#utility.yul\":13955:13981   */\n      swap1\n      pop\n        /* \"#utility.yul\":14027:14036   */\n      dup2\n        /* \"#utility.yul\":14021:14025   */\n      dup2\n        /* \"#utility.yul\":14017:14037   */\n      sub\n        /* \"#utility.yul\":14013:14014   */\n      0x00\n        /* \"#utility.yul\":14002:14011   */\n      dup4\n        /* \"#utility.yul\":13998:14015   */\n      add\n        /* \"#utility.yul\":13991:14038   */\n      mstore\n        /* \"#utility.yul\":14055:14133   */\n      tag_352\n        /* \"#utility.yul\":14128:14132   */\n      dup2\n        /* \"#utility.yul\":14119:14125   */\n      dup5\n        /* \"#utility.yul\":14055:14133   */\n      tag_281\n      jump\t// in\n    tag_352:\n        /* \"#utility.yul\":14047:14133   */\n      swap1\n      pop\n        /* \"#utility.yul\":13827:14140   */\n      swap3\n      swap2\n      pop\n      pop\n      jump\t// out\n        /* \"#utility.yul\":14146:14565   */\n    tag_153:\n        /* \"#utility.yul\":14312:14316   */\n      0x00\n        /* \"#utility.yul\":14350:14352   */\n      0x20\n        /* \"#utility.yul\":14339:14348   */\n      dup3\n        /* \"#utility.yul\":14335:14353   */\n      add\n        /* \"#utility.yul\":14327:14353   */\n      swap1\n      pop\n        /* \"#utility.yul\":14399:14408   */\n      dup2\n        /* \"#utility.yul\":14393:14397   */\n      dup2\n        /* \"#utility.yul\":14389:14409   */\n      sub\n        /* \"#utility.yul\":14385:14386   */\n      0x00\n        /* \"#utility.yul\":14374:14383   */\n      dup4\n        /* \"#utility.yul\":14370:14387   */\n      add\n        /* \"#utility.yul\":14363:14410   */\n      mstore\n        /* \"#utility.yul\":14427:14558   */\n      tag_354\n        /* \"#utility.yul\":14553:14557   */\n      dup2\n        /* \"#utility.yul\":14427:14558   */\n      tag_289\n      jump\t// in\n    tag_354:\n        /* \"#utility.yul\":14419:14558   */\n      swap1\n      pop\n        /* \"#utility.yul\":14146:14565   */\n      swap2\n      swap1\n      pop\n      jump\t// out\n        /* \"#utility.yul\":14571:14990   */\n    tag_82:\n        /* \"#utility.yul\":14737:14741   */\n      0x00\n        /* \"#utility.yul\":14775:14777   */\n      0x20\n        /* \"#utility.yul\":14764:14773   */\n      dup3\n        /* \"#utility.yul\":14760:14778   */\n      add\n        /* \"#utility.yul\":14752:14778   */\n      swap1\n      pop\n        /* \"#utility.yul\":14824:14833   */\n      dup2\n        /* \"#utility.yul\":14818:14822   */\n      dup2\n        /* \"#utility.yul\":14814:14834   */\n      sub\n        /* \"#utility.yul\":14810:14811   */\n      0x00\n        /* \"#utility.yul\":14799:14808   */\n      dup4\n        /* \"#utility.yul\":14795:14812   */\n      add\n        /* \"#utility.yul\":14788:14835   */\n      mstore\n        /* \"#utility.yul\":14852:14983   */\n      tag_356\n        /* \"#utility.yul\":14978:14982   */\n      dup2\n        /* \"#utility.yul\":14852:14983   */\n      tag_294\n      jump\t// in\n    tag_356:\n        /* \"#utility.yul\":14844:14983   */\n      swap1\n      pop\n        /* \"#utility.yul\":14571:14990   */\n      swap2\n      swap1\n      pop\n      jump\t// out\n        /* \"#utility.yul\":14996:15415   */\n    tag_157:\n        /* \"#utility.yul\":15162:15166   */\n      0x00\n        /* \"#utility.yul\":15200:15202   */\n      0x20\n        /* \"#utility.yul\":15189:15198   */\n      dup3\n        /* \"#utility.yul\":15185:15203   */\n      add\n        /* \"#utility.yul\":15177:15203   */\n      swap1\n      pop\n        /* \"#utility.yul\":15249:15258   */\n      dup2\n        /* \"#utility.yul\":15243:15247   */\n      dup2\n        /* \"#utility.yul\":15239:15259   */\n      sub\n        /* \"#utility.yul\":15235:15236   */\n      0x00\n        /* \"#utility.yul\":15224:15233   */\n      dup4\n        /* \"#utility.yul\":15220:15237   */\n      add\n        /* \"#utility.yul\":15213:15260   */\n      mstore\n        /* \"#utility.yul\":15277:15408   */\n      tag_358\n        /* \"#utility.yul\":15403:15407   */\n      dup2\n        /* \"#utility.yul\":15277:15408   */\n      tag_299\n      jump\t// in\n    tag_358:\n        /* \"#utility.yul\":15269:15408   */\n      swap1\n      pop\n        /* \"#utility.yul\":14996:15415   */\n      swap2\n      swap1\n      pop\n      jump\t// out\n        /* \"#utility.yul\":15421:15840   */\n    tag_55:\n        /* \"#utility.yul\":15587:15591   */\n      0x00\n        /* \"#utility.yul\":15625:15627   */\n      0x20\n        /* \"#utility.yul\":15614:15623   */\n      dup3\n        /* \"#utility.yul\":15610:15628   */\n      add\n        /* \"#utility.yul\":15602:15628   */\n      swap1\n      pop\n        /* \"#utility.yul\":15674:15683   */\n      dup2\n        /* \"#utility.yul\":15668:15672   */\n      dup2\n        /* \"#utility.yul\":15664:15684   */\n      sub\n        /* \"#utility.yul\":15660:15661   */\n      0x00\n        /* \"#utility.yul\":15649:15658   */\n      dup4\n        /* \"#utility.yul\":15645:15662   */\n      add\n        /* \"#utility.yul\":15638:15685   */\n      mstore\n        /* \"#utility.yul\":15702:15833   */\n      tag_360\n        /* \"#utility.yul\":15828:15832   */\n      dup2\n        /* \"#utility.yul\":15702:15833   */\n      tag_304\n      jump\t// in\n    tag_360:\n        /* \"#utility.yul\":15694:15833   */\n      swap1\n      pop\n        /* \"#utility.yul\":15421:15840   */\n      swap2\n      swap1\n      pop\n      jump\t// out\n        /* \"#utility.yul\":15846:16265   */\n    tag_109:\n        /* \"#utility.yul\":16012:16016   */\n      0x00\n        /* \"#utility.yul\":16050:16052   */\n      0x20\n        /* \"#utility.yul\":16039:16048   */\n      dup3\n        /* \"#utility.yul\":16035:16053   */\n      add\n        /* \"#utility.yul\":16027:16053   */\n      swap1\n      pop\n        /* \"#utility.yul\":16099:16108   */\n      dup2\n        /* \"#utility.yul\":16093:16097   */\n      dup2\n        /* \"#utility.yul\":16089:16109   */\n      sub\n        /* \"#utility.yul\":16085:16086   */\n      0x00\n        /* \"#utility.yul\":16074:16083   */\n      dup4\n        /* \"#utility.yul\":16070:16087   */\n      add\n        /* \"#utility.yul\":16063:16110   */\n      mstore\n        /* \"#utility.yul\":16127:16258   */\n      tag_362\n        /* \"#utility.yul\":16253:16257   */\n      dup2\n        /* \"#utility.yul\":16127:16258   */\n      tag_309\n      jump\t// in\n    tag_362:\n        /* \"#utility.yul\":16119:16258   */\n      swap1\n      pop\n        /* \"#utility.yul\":15846:16265   */\n      swap2\n      swap1\n      pop\n      jump\t// out\n        /* \"#utility.yul\":16271:16690   */\n    tag_116:\n        /* \"#utility.yul\":16437:16441   */\n      0x00\n        /* \"#utility.yul\":16475:16477   */\n      0x20\n        /* \"#utility.yul\":16464:16473   */\n      dup3\n        /* \"#utility.yul\":16460:16478   */\n      add\n        /* \"#utility.yul\":16452:16478   */\n      swap1\n      pop\n        /* \"#utility.yul\":16524:16533   */\n      dup2\n        /* \"#utility.yul\":16518:16522   */\n      dup2\n        /* \"#utility.yul\":16514:16534   */\n      sub\n        /* \"#utility.yul\":16510:16511   */\n      0x00\n        /* \"#utility.yul\":16499:16508   */\n      dup4\n        /* \"#utility.yul\":16495:16512   */\n      add\n        /* \"#utility.yul\":16488:16535   */\n      mstore\n        /* \"#utility.yul\":16552:16683   */\n      tag_364\n        /* \"#utility.yul\":16678:16682   */\n      dup2\n        /* \"#utility.yul\":16552:16683   */\n      tag_314\n      jump\t// in\n    tag_364:\n        /* \"#utility.yul\":16544:16683   */\n      swap1\n      pop\n        /* \"#utility.yul\":16271:16690   */\n      swap2\n      swap1\n      pop\n      jump\t// out\n        /* \"#utility.yul\":16696:17115   */\n    tag_91:\n        /* \"#utility.yul\":16862:16866   */\n      0x00\n        /* \"#utility.yul\":16900:16902   */\n      0x20\n        /* \"#utility.yul\":16889:16898   */\n      dup3\n        /* \"#utility.yul\":16885:16903   */\n      add\n        /* \"#utility.yul\":16877:16903   */\n      swap1\n      pop\n        /* \"#utility.yul\":16949:16958   */\n      dup2\n        /* \"#utility.yul\":16943:16947   */\n      dup2\n        /* \"#utility.yul\":16939:16959   */\n      sub\n        /* \"#utility.yul\":16935:16936   */\n      0x00\n        /* \"#utility.yul\":16924:16933   */\n      dup4\n        /* \"#utility.yul\":16920:16937   */\n      add\n        /* \"#utility.yul\":16913:16960   */\n      mstore\n        /* \"#utility.yul\":16977:17108   */\n      tag_366\n        /* \"#utility.yul\":17103:17107   */\n      dup2\n        /* \"#utility.yul\":16977:17108   */\n      tag_319\n      jump\t// in\n    tag_366:\n        /* \"#utility.yul\":16969:17108   */\n      swap1\n      pop\n        /* \"#utility.yul\":16696:17115   */\n      swap2\n      swap1\n      pop\n      jump\t// out\n        /* \"#utility.yul\":17121:17343   */\n    tag_16:\n        /* \"#utility.yul\":17214:17218   */\n      0x00\n        /* \"#utility.yul\":17252:17254   */\n      0x20\n        /* \"#utility.yul\":17241:17250   */\n      dup3\n        /* \"#utility.yul\":17237:17255   */\n      add\n        /* \"#utility.yul\":17229:17255   */\n      swap1\n      pop\n        /* \"#utility.yul\":17265:17336   */\n      tag_368\n        /* \"#utility.yul\":17333:17334   */\n      0x00\n        /* \"#utility.yul\":17322:17331   */\n      dup4\n        /* \"#utility.yul\":17318:17335   */\n      add\n        /* \"#utility.yul\":17309:17315   */\n      dup5\n        /* \"#utility.yul\":17265:17336   */\n      tag_324\n      jump\t// in\n    tag_368:\n        /* \"#utility.yul\":17121:17343   */\n      swap3\n      swap2\n      pop\n      pop\n      jump\t// out\n        /* \"#utility.yul\":17349:17681   */\n    tag_100:\n        /* \"#utility.yul\":17470:17474   */\n      0x00\n        /* \"#utility.yul\":17508:17510   */\n      0x40\n        /* \"#utility.yul\":17497:17506   */\n      dup3\n        /* \"#utility.yul\":17493:17511   */\n      add\n        /* \"#utility.yul\":17485:17511   */\n      swap1\n      pop\n        /* \"#utility.yul\":17521:17592   */\n      tag_370\n        /* \"#utility.yul\":17589:17590   */\n      0x00\n        /* \"#utility.yul\":17578:17587   */\n      dup4\n        /* \"#utility.yul\":17574:17591   */\n      add\n        /* \"#utility.yul\":17565:17571   */\n      dup6\n        /* \"#utility.yul\":17521:17592   */\n      tag_324\n      jump\t// in\n    tag_370:\n        /* \"#utility.yul\":17602:17674   */\n      tag_371\n        /* \"#utility.yul\":17670:17672   */\n      0x20\n        /* \"#utility.yul\":17659:17668   */\n      dup4\n        /* \"#utility.yul\":17655:17673   */\n      add\n        /* \"#utility.yul\":17646:17652   */\n      dup5\n        /* \"#utility.yul\":17602:17674   */\n      tag_324\n      jump\t// in\n    tag_371:\n        /* \"#utility.yul\":17349:17681   */\n      swap4\n      swap3\n      pop\n      pop\n      pop\n      jump\t// out\n        /* \"#utility.yul\":17687:17816   */\n    tag_165:\n        /* \"#utility.yul\":17721:17727   */\n      0x00\n        /* \"#utility.yul\":17748:17768   */\n      tag_373\n      tag_374\n      jump\t// in\n    tag_373:\n        /* \"#utility.yul\":17738:17768   */\n      swap1\n      pop\n        /* \"#utility.yul\":17777:17810   */\n      tag_375\n        /* \"#utility.yul\":17805:17809   */\n      dup3\n        /* \"#utility.yul\":17797:17803   */\n      dup3\n        /* \"#utility.yul\":17777:17810   */\n      tag_376\n      jump\t// in\n    tag_375:\n        /* \"#utility.yul\":17687:17816   */\n      swap2\n      swap1\n      pop\n      jump\t// out\n        /* \"#utility.yul\":17822:17897   */\n    tag_374:\n        /* \"#utility.yul\":17855:17861   */\n      0x00\n        /* \"#utility.yul\":17888:17890   */\n      0x40\n        /* \"#utility.yul\":17882:17891   */\n      mload\n        /* \"#utility.yul\":17872:17891   */\n      swap1\n      pop\n        /* \"#utility.yul\":17822:17897   */\n      swap1\n      jump\t// out\n        /* \"#utility.yul\":17903:18210   */\n    tag_164:\n        /* \"#utility.yul\":17964:17968   */\n      0x00\n        /* \"#utility.yul\":18054:18072   */\n      0xffffffffffffffff\n        /* \"#utility.yul\":18046:18052   */\n      dup3\n        /* \"#utility.yul\":18043:18073   */\n      gt\n        /* \"#utility.yul\":18040:18096   */\n      iszero\n      tag_379\n      jumpi\n        /* \"#utility.yul\":18076:18094   */\n      tag_380\n      tag_124\n      jump\t// in\n    tag_380:\n        /* \"#utility.yul\":18040:18096   */\n    tag_379:\n        /* \"#utility.yul\":18114:18143   */\n      tag_381\n        /* \"#utility.yul\":18136:18142   */\n      dup3\n        /* \"#utility.yul\":18114:18143   */\n      tag_272\n      jump\t// in\n    tag_381:\n        /* \"#utility.yul\":18106:18143   */\n      swap1\n      pop\n        /* \"#utility.yul\":18198:18202   */\n      0x20\n        /* \"#utility.yul\":18192:18196   */\n      dup2\n        /* \"#utility.yul\":18188:18203   */\n      add\n        /* \"#utility.yul\":18180:18203   */\n      swap1\n      pop\n        /* \"#utility.yul\":17903:18210   */\n      swap2\n      swap1\n      pop\n      jump\t// out\n        /* \"#utility.yul\":18216:18314   */\n    tag_276:\n        /* \"#utility.yul\":18267:18273   */\n      0x00\n        /* \"#utility.yul\":18301:18306   */\n      dup2\n        /* \"#utility.yul\":18295:18307   */\n      mload\n        /* \"#utility.yul\":18285:18307   */\n      swap1\n      pop\n        /* \"#utility.yul\":18216:18314   */\n      swap2\n      swap1\n      pop\n      jump\t// out\n        /* \"#utility.yul\":18320:18419   */\n    tag_284:\n        /* \"#utility.yul\":18372:18378   */\n      0x00\n        /* \"#utility.yul\":18406:18411   */\n      dup2\n        /* \"#utility.yul\":18400:18412   */\n      mload\n        /* \"#utility.yul\":18390:18412   */\n      swap1\n      pop\n        /* \"#utility.yul\":18320:18419   */\n      swap2\n      swap1\n      pop\n      jump\t// out\n        /* \"#utility.yul\":18425:18593   */\n    tag_269:\n        /* \"#utility.yul\":18508:18519   */\n      0x00\n        /* \"#utility.yul\":18542:18548   */\n      dup3\n        /* \"#utility.yul\":18537:18540   */\n      dup3\n        /* \"#utility.yul\":18530:18549   */\n      mstore\n        /* \"#utility.yul\":18582:18586   */\n      0x20\n        /* \"#utility.yul\":18577:18580   */\n      dup3\n        /* \"#utility.yul\":18573:18587   */\n      add\n        /* \"#utility.yul\":18558:18587   */\n      swap1\n      pop\n        /* \"#utility.yul\":18425:18593   */\n      swap3\n      swap2\n      pop\n      pop\n      jump\t// out\n        /* \"#utility.yul\":18599:18768   */\n    tag_286:\n        /* \"#utility.yul\":18683:18694   */\n      0x00\n        /* \"#utility.yul\":18717:18723   */\n      dup3\n        /* \"#utility.yul\":18712:18715   */\n      dup3\n        /* \"#utility.yul\":18705:18724   */\n      mstore\n        /* \"#utility.yul\":18757:18761   */\n      0x20\n        /* \"#utility.yul\":18752:18755   */\n      dup3\n        /* \"#utility.yul\":18748:18762   */\n      add\n        /* \"#utility.yul\":18733:18762   */\n      swap1\n      pop\n        /* \"#utility.yul\":18599:18768   */\n      swap3\n      swap2\n      pop\n      pop\n      jump\t// out\n        /* \"#utility.yul\":18774:19079   */\n    tag_74:\n        /* \"#utility.yul\":18814:18817   */\n      0x00\n        /* \"#utility.yul\":18833:18853   */\n      tag_387\n        /* \"#utility.yul\":18851:18852   */\n      dup3\n        /* \"#utility.yul\":18833:18853   */\n      tag_327\n      jump\t// in\n    tag_387:\n        /* \"#utility.yul\":18828:18853   */\n      swap2\n      pop\n        /* \"#utility.yul\":18867:18887   */\n      tag_388\n        /* \"#utility.yul\":18885:18886   */\n      dup4\n        /* \"#utility.yul\":18867:18887   */\n      tag_327\n      jump\t// in\n    tag_388:\n        /* \"#utility.yul\":18862:18887   */\n      swap3\n      pop\n        /* \"#utility.yul\":19021:19022   */\n      dup3\n        /* \"#utility.yul\":18953:19019   */\n      0xffffffffffffffffffffffffffffffffffffffffffffffffffffffffffffffff\n        /* \"#utility.yul\":18949:19023   */\n      sub\n        /* \"#utility.yul\":18946:18947   */\n      dup3\n        /* \"#utility.yul\":18943:19024   */\n      gt\n        /* \"#utility.yul\":18940:19047   */\n      iszero\n      tag_389\n      jumpi\n        /* \"#utility.yul\":19027:19045   */\n      tag_390\n      tag_391\n      jump\t// in\n    tag_390:\n        /* \"#utility.yul\":18940:19047   */\n    tag_389:\n        /* \"#utility.yul\":19071:19072   */\n      dup3\n        /* \"#utility.yul\":19068:19069   */\n      dup3\n        /* \"#utility.yul\":19064:19073   */\n      add\n        /* \"#utility.yul\":19057:19073   */\n      swap1\n      pop\n        /* \"#utility.yul\":18774:19079   */\n      swap3\n      swap2\n      pop\n      pop\n      jump\t// out\n        /* \"#utility.yul\":19085:19276   */\n    tag_87:\n        /* \"#utility.yul\":19125:19129   */\n      0x00\n        /* \"#utility.yul\":19145:19165   */\n      tag_393\n        /* \"#utility.yul\":19163:19164   */\n      dup3\n        /* \"#utility.yul\":19145:19165   */\n      tag_327\n      jump\t// in\n    tag_393:\n        /* \"#utility.yul\":19140:19165   */\n      swap2\n      pop\n        /* \"#utility.yul\":19179:19199   */\n      tag_394\n        /* \"#utility.yul\":19197:19198   */\n      dup4\n        /* \"#utility.yul\":19179:19199   */\n      tag_327\n      jump\t// in\n    tag_394:\n        /* \"#utility.yul\":19174:19199   */\n      swap3\n      pop\n        /* \"#utility.yul\":19218:19219   */\n      dup3\n        /* \"#utility.yul\":19215:19216   */\n      dup3\n        /* \"#utility.yul\":19212:19220   */\n      lt\n        /* \"#utility.yul\":19209:19243   */\n      iszero\n      tag_395\n      jumpi\n        /* \"#utility.yul\":19223:19241   */\n      tag_396\n      tag_391\n      jump\t// in\n    tag_396:\n        /* \"#utility.yul\":19209:19243   */\n    tag_395:\n        /* \"#utility.yul\":19268:19269   */\n      dup3\n        /* \"#utility.yul\":19265:19266   */\n      dup3\n        /* \"#utility.yul\":19261:19270   */\n      sub\n        /* \"#utility.yul\":19253:19270   */\n      swap1\n      pop\n        /* \"#utility.yul\":19085:19276   */\n      swap3\n      swap2\n      pop\n      pop\n      jump\t// out\n        /* \"#utility.yul\":19282:19378   */\n    tag_257:\n        /* \"#utility.yul\":19319:19326   */\n      0x00\n        /* \"#utility.yul\":19348:19372   */\n      tag_398\n        /* \"#utility.yul\":19366:19371   */\n      dup3\n        /* \"#utility.yul\":19348:19372   */\n      tag_399\n      jump\t// in\n    tag_398:\n        /* \"#utility.yul\":19337:19372   */\n      swap1\n      pop\n        /* \"#utility.yul\":19282:19378   */\n      swap2\n      swap1\n      pop\n      jump\t// out\n        /* \"#utility.yul\":19384:19474   */\n    tag_261:\n        /* \"#utility.yul\":19418:19425   */\n      0x00\n        /* \"#utility.yul\":19461:19466   */\n      dup2\n        /* \"#utility.yul\":19454:19467   */\n      iszero\n        /* \"#utility.yul\":19447:19468   */\n      iszero\n        /* \"#utility.yul\":19436:19468   */\n      swap1\n      pop\n        /* \"#utility.yul\":19384:19474   */\n      swap2\n      swap1\n      pop\n      jump\t// out\n        /* \"#utility.yul\":19480:19629   */\n    tag_265:\n        /* \"#utility.yul\":19516:19523   */\n      0x00\n        /* \"#utility.yul\":19556:19622   */\n      0xffffffff00000000000000000000000000000000000000000000000000000000\n        /* \"#utility.yul\":19549:19554   */\n      dup3\n        /* \"#utility.yul\":19545:19623   */\n      and\n        /* \"#utility.yul\":19534:19623   */\n      swap1\n      pop\n        /* \"#utility.yul\":19480:19629   */\n      swap2\n      swap1\n      pop\n      jump\t// out\n        /* \"#utility.yul\":19635:19761   */\n    tag_399:\n        /* \"#utility.yul\":19672:19679   */\n      0x00\n        /* \"#utility.yul\":19712:19754   */\n      0xffffffffffffffffffffffffffffffffffffffff\n        /* \"#utility.yul\":19705:19710   */\n      dup3\n        /* \"#utility.yul\":19701:19755   */\n      and\n        /* \"#utility.yul\":19690:19755   */\n      swap1\n      pop\n        /* \"#utility.yul\":19635:19761   */\n      swap2\n      swap1\n      pop\n      jump\t// out\n        /* \"#utility.yul\":19767:19844   */\n    tag_327:\n        /* \"#utility.yul\":19804:19811   */\n      0x00\n        /* \"#utility.yul\":19833:19838   */\n      dup2\n        /* \"#utility.yul\":19822:19838   */\n      swap1\n      pop\n        /* \"#utility.yul\":19767:19844   */\n      swap2\n      swap1\n      pop\n      jump\t// out\n        /* \"#utility.yul\":19850:20004   */\n    tag_170:\n        /* \"#utility.yul\":19934:19940   */\n      dup3\n        /* \"#utility.yul\":19929:19932   */\n      dup2\n        /* \"#utility.yul\":19924:19927   */\n      dup4\n        /* \"#utility.yul\":19911:19941   */\n      calldatacopy\n        /* \"#utility.yul\":19996:19997   */\n      0x00\n        /* \"#utility.yul\":19987:19993   */\n      dup4\n        /* \"#utility.yul\":19982:19985   */\n      dup4\n        /* \"#utility.yul\":19978:19994   */\n      add\n        /* \"#utility.yul\":19971:19998   */\n      mstore\n        /* \"#utility.yul\":19850:20004   */\n      pop\n      pop\n      pop\n      jump\t// out\n        /* \"#utility.yul\":20010:20317   */\n    tag_279:\n        /* \"#utility.yul\":20078:20079   */\n      0x00\n        /* \"#utility.yul\":20088:20201   */\n    tag_406:\n        /* \"#utility.yul\":20102:20108   */\n      dup4\n        /* \"#utility.yul\":20099:20100   */\n      dup2\n        /* \"#utility.yul\":20096:20109   */\n      lt\n        /* \"#utility.yul\":20088:20201   */\n      iszero\n      tag_408\n      jumpi\n        /* \"#utility.yul\":20187:20188   */\n      dup1\n        /* \"#utility.yul\":20182:20185   */\n      dup3\n        /* \"#utility.yul\":20178:20189   */\n      add\n        /* \"#utility.yul\":20172:20190   */\n      mload\n        /* \"#utility.yul\":20168:20169   */\n      dup2\n        /* \"#utility.yul\":20163:20166   */\n      dup5\n        /* \"#utility.yul\":20159:20170   */\n      add\n        /* \"#utility.yul\":20152:20191   */\n      mstore\n        /* \"#utility.yul\":20124:20126   */\n      0x20\n        /* \"#utility.yul\":20121:20122   */\n      dup2\n        /* \"#utility.yul\":20117:20127   */\n      add\n        /* \"#utility.yul\":20112:20127   */\n      swap1\n      pop\n        /* \"#utility.yul\":20088:20201   */\n      jump(tag_406)\n    tag_408:\n        /* \"#utility.yul\":20219:20225   */\n      dup4\n        /* \"#utility.yul\":20216:20217   */\n      dup2\n        /* \"#utility.yul\":20213:20226   */\n      gt\n        /* \"#utility.yul\":20210:20311   */\n      iszero\n      tag_409\n      jumpi\n        /* \"#utility.yul\":20299:20300   */\n      0x00\n        /* \"#utility.yul\":20290:20296   */\n      dup5\n        /* \"#utility.yul\":20285:20288   */\n      dup5\n        /* \"#utility.yul\":20281:20297   */\n      add\n        /* \"#utility.yul\":20274:20301   */\n      mstore\n        /* \"#utility.yul\":20210:20311   */\n    tag_409:\n        /* \"#utility.yul\":20059:20317   */\n      pop\n        /* \"#utility.yul\":20010:20317   */\n      pop\n      pop\n      pop\n      jump\t// out\n        /* \"#utility.yul\":20323:20604   */\n    tag_376:\n        /* \"#utility.yul\":20406:20433   */\n      tag_411\n        /* \"#utility.yul\":20428:20432   */\n      dup3\n        /* \"#utility.yul\":20406:20433   */\n      tag_272\n      jump\t// in\n    tag_411:\n        /* \"#utility.yul\":20398:20404   */\n      dup2\n        /* \"#utility.yul\":20394:20434   */\n      add\n        /* \"#utility.yul\":20536:20542   */\n      dup2\n        /* \"#utility.yul\":20524:20534   */\n      dup2\n        /* \"#utility.yul\":20521:20543   */\n      lt\n        /* \"#utility.yul\":20500:20518   */\n      0xffffffffffffffff\n        /* \"#utility.yul\":20488:20498   */\n      dup3\n        /* \"#utility.yul\":20485:20519   */\n      gt\n        /* \"#utility.yul\":20482:20544   */\n      or\n        /* \"#utility.yul\":20479:20567   */\n      iszero\n      tag_412\n      jumpi\n        /* \"#utility.yul\":20547:20565   */\n      tag_413\n      tag_124\n      jump\t// in\n    tag_413:\n        /* \"#utility.yul\":20479:20567   */\n    tag_412:\n        /* \"#utility.yul\":20587:20597   */\n      dup1\n        /* \"#utility.yul\":20583:20585   */\n      0x40\n        /* \"#utility.yul\":20576:20598   */\n      mstore\n        /* \"#utility.yul\":20366:20604   */\n      pop\n        /* \"#utility.yul\":20323:20604   */\n      pop\n      pop\n      jump\t// out\n        /* \"#utility.yul\":20610:20790   */\n    tag_391:\n        /* \"#utility.yul\":20658:20735   */\n      0x4e487b7100000000000000000000000000000000000000000000000000000000\n        /* \"#utility.yul\":20655:20656   */\n      0x00\n        /* \"#utility.yul\":20648:20736   */\n      mstore\n        /* \"#utility.yul\":20755:20759   */\n      0x11\n        /* \"#utility.yul\":20752:20753   */\n      0x04\n        /* \"#utility.yul\":20745:20760   */\n      mstore\n        /* \"#utility.yul\":20779:20783   */\n      0x24\n        /* \"#utility.yul\":20776:20777   */\n      0x00\n        /* \"#utility.yul\":20769:20784   */\n      revert\n        /* \"#utility.yul\":20796:20976   */\n    tag_128:\n        /* \"#utility.yul\":20844:20921   */\n      0x4e487b7100000000000000000000000000000000000000000000000000000000\n        /* \"#utility.yul\":20841:20842   */\n      0x00\n        /* \"#utility.yul\":20834:20922   */\n      mstore\n        /* \"#utility.yul\":20941:20945   */\n      0x32\n        /* \"#utility.yul\":20938:20939   */\n      0x04\n        /* \"#utility.yul\":20931:20946   */\n      mstore\n        /* \"#utility.yul\":20965:20969   */\n      0x24\n        /* \"#utility.yul\":20962:20963   */\n      0x00\n        /* \"#utility.yul\":20955:20970   */\n      revert\n        /* \"#utility.yul\":20982:21162   */\n    tag_124:\n        /* \"#utility.yul\":21030:21107   */\n      0x4e487b7100000000000000000000000000000000000000000000000000000000\n        /* \"#utility.yul\":21027:21028   */\n      0x00\n        /* \"#utility.yul\":21020:21108   */\n      mstore\n        /* \"#utility.yul\":21127:21131   */\n      0x41\n        /* \"#utility.yul\":21124:21125   */\n      0x04\n        /* \"#utility.yul\":21117:21132   */\n      mstore\n        /* \"#utility.yul\":21151:21155   */\n      0x24\n        /* \"#utility.yul\":21148:21149   */\n      0x00\n        /* \"#utility.yul\":21141:21156   */\n      revert\n        /* \"#utility.yul\":21168:21351   */\n    tag_146:\n        /* \"#utility.yul\":21203:21206   */\n      0x00\n        /* \"#utility.yul\":21241:21242   */\n      0x03\n        /* \"#utility.yul\":21223:21239   */\n      returndatasize\n        /* \"#utility.yul\":21220:21243   */\n      gt\n        /* \"#utility.yul\":21217:21345   */\n      iszero\n      tag_418\n      jumpi\n        /* \"#utility.yul\":21279:21280   */\n      0x04\n        /* \"#utility.yul\":21276:21277   */\n      0x00\n        /* \"#utility.yul\":21273:21274   */\n      dup1\n        /* \"#utility.yul\":21258:21281   */\n      returndatacopy\n        /* \"#utility.yul\":21301:21335   */\n      tag_419\n        /* \"#utility.yul\":21332:21333   */\n      0x00\n        /* \"#utility.yul\":21326:21334   */\n      mload\n        /* \"#utility.yul\":21301:21335   */\n      tag_420\n      jump\t// in\n    tag_419:\n        /* \"#utility.yul\":21294:21335   */\n      swap1\n      pop\n        /* \"#utility.yul\":21217:21345   */\n    tag_418:\n        /* \"#utility.yul\":21168:21351   */\n      swap1\n      jump\t// out\n        /* \"#utility.yul\":21357:21474   */\n    tag_190:\n        /* \"#utility.yul\":21466:21467   */\n      0x00\n        /* \"#utility.yul\":21463:21464   */\n      dup1\n        /* \"#utility.yul\":21456:21468   */\n      revert\n        /* \"#utility.yul\":21480:21597   */\n    tag_187:\n        /* \"#utility.yul\":21589:21590   */\n      0x00\n        /* \"#utility.yul\":21586:21587   */\n      dup1\n        /* \"#utility.yul\":21579:21591   */\n      revert\n        /* \"#utility.yul\":21603:21720   */\n    tag_193:\n        /* \"#utility.yul\":21712:21713   */\n      0x00\n        /* \"#utility.yul\":21709:21710   */\n      dup1\n        /* \"#utility.yul\":21702:21714   */\n      revert\n        /* \"#utility.yul\":21726:21843   */\n    tag_168:\n        /* \"#utility.yul\":21835:21836   */\n      0x00\n        /* \"#utility.yul\":21832:21833   */\n      dup1\n        /* \"#utility.yul\":21825:21837   */\n      revert\n        /* \"#utility.yul\":21849:21966   */\n    tag_213:\n        /* \"#utility.yul\":21958:21959   */\n      0x00\n        /* \"#utility.yul\":21955:21956   */\n      dup1\n        /* \"#utility.yul\":21948:21960   */\n      revert\n        /* \"#utility.yul\":21972:22089   */\n    tag_206:\n        /* \"#utility.yul\":22081:22082   */\n      0x00\n        /* \"#utility.yul\":22078:22079   */\n      dup1\n        /* \"#utility.yul\":22071:22083   */\n      revert\n        /* \"#utility.yul\":22095:22197   */\n    tag_272:\n        /* \"#utility.yul\":22136:22142   */\n      0x00\n        /* \"#utility.yul\":22187:22189   */\n      0x1f\n        /* \"#utility.yul\":22183:22190   */\n      not\n        /* \"#utility.yul\":22178:22180   */\n      0x1f\n        /* \"#utility.yul\":22171:22176   */\n      dup4\n        /* \"#utility.yul\":22167:22181   */\n      add\n        /* \"#utility.yul\":22163:22191   */\n      and\n        /* \"#utility.yul\":22153:22191   */\n      swap1\n      pop\n        /* \"#utility.yul\":22095:22197   */\n      swap2\n      swap1\n      pop\n      jump\t// out\n        /* \"#utility.yul\":22203:22309   */\n    tag_420:\n        /* \"#utility.yul\":22247:22255   */\n      0x00\n        /* \"#utility.yul\":22296:22301   */\n      dup2\n        /* \"#utility.yul\":22291:22294   */\n      0xe0\n        /* \"#utility.yul\":22287:22302   */\n      shr\n        /* \"#utility.yul\":22266:22302   */\n      swap1\n      pop\n        /* \"#utility.yul\":22203:22309   */\n      swap2\n      swap1\n      pop\n      jump\t// out\n        /* \"#utility.yul\":22315:22554   */\n    tag_293:\n        /* \"#utility.yul\":22455:22489   */\n      0x455243313135353a207472616e7366657220746f206e6f6e2045524331313535\n        /* \"#utility.yul\":22451:22452   */\n      0x00\n        /* \"#utility.yul\":22443:22449   */\n      dup3\n        /* \"#utility.yul\":22439:22453   */\n      add\n        /* \"#utility.yul\":22432:22490   */\n      mstore\n        /* \"#utility.yul\":22524:22546   */\n      0x526563656976657220696d706c656d656e746572000000000000000000000000\n        /* \"#utility.yul\":22519:22521   */\n      0x20\n        /* \"#utility.yul\":22511:22517   */\n      dup3\n        /* \"#utility.yul\":22507:22522   */\n      add\n        /* \"#utility.yul\":22500:22547   */\n      mstore\n        /* \"#utility.yul\":22315:22554   */\n      pop\n      jump\t// out\n        /* \"#utility.yul\":22560:22794   */\n    tag_298:\n        /* \"#utility.yul\":22700:22734   */\n      0x455243313135353a2063616c6c6572206973206e6f7420746f6b656e206f776e\n        /* \"#utility.yul\":22696:22697   */\n      0x00\n        /* \"#utility.yul\":22688:22694   */\n      dup3\n        /* \"#utility.yul\":22684:22698   */\n      add\n        /* \"#utility.yul\":22677:22735   */\n      mstore\n        /* \"#utility.yul\":22769:22786   */\n      0x6572206e6f7220617070726f7665640000000000000000000000000000000000\n        /* \"#utility.yul\":22764:22766   */\n      0x20\n        /* \"#utility.yul\":22756:22762   */\n      dup3\n        /* \"#utility.yul\":22752:22767   */\n      add\n        /* \"#utility.yul\":22745:22787   */\n      mstore\n        /* \"#utility.yul\":22560:22794   */\n      pop\n      jump\t// out\n        /* \"#utility.yul\":22800:23027   */\n    tag_303:\n        /* \"#utility.yul\":22940:22974   */\n      0x455243313135353a204552433131353552656365697665722072656a65637465\n        /* \"#utility.yul\":22936:22937   */\n      0x00\n        /* \"#utility.yul\":22928:22934   */\n      dup3\n        /* \"#utility.yul\":22924:22938   */\n      add\n        /* \"#utility.yul\":22917:22975   */\n      mstore\n        /* \"#utility.yul\":23009:23019   */\n      0x6420746f6b656e73000000000000000000000000000000000000000000000000\n        /* \"#utility.yul\":23004:23006   */\n      0x20\n        /* \"#utility.yul\":22996:23002   */\n      dup3\n        /* \"#utility.yul\":22992:23007   */\n      add\n        /* \"#utility.yul\":22985:23020   */\n      mstore\n        /* \"#utility.yul\":22800:23027   */\n      pop\n      jump\t// out\n        /* \"#utility.yul\":23033:23262   */\n    tag_308:\n        /* \"#utility.yul\":23173:23207   */\n      0x455243313135353a2061646472657373207a65726f206973206e6f7420612076\n        /* \"#utility.yul\":23169:23170   */\n      0x00\n        /* \"#utility.yul\":23161:23167   */\n      dup3\n        /* \"#utility.yul\":23157:23171   */\n      add\n        /* \"#utility.yul\":23150:23208   */\n      mstore\n        /* \"#utility.yul\":23242:23254   */\n      0x616c6964206f776e657200000000000000000000000000000000000000000000\n        /* \"#utility.yul\":23237:23239   */\n      0x20\n        /* \"#utility.yul\":23229:23235   */\n      dup3\n        /* \"#utility.yul\":23225:23240   */\n      add\n        /* \"#utility.yul\":23218:23255   */\n      mstore\n        /* \"#utility.yul\":23033:23262   */\n      pop\n      jump\t// out\n        /* \"#utility.yul\":23268:23492   */\n    tag_313:\n        /* \"#utility.yul\":23408:23442   */\n      0x455243313135353a207472616e7366657220746f20746865207a65726f206164\n        /* \"#utility.yul\":23404:23405   */\n      0x00\n        /* \"#utility.yul\":23396:23402   */\n      dup3\n        /* \"#utility.yul\":23392:23406   */\n      add\n        /* \"#utility.yul\":23385:23443   */\n      mstore\n        /* \"#utility.yul\":23477:23484   */\n      0x6472657373000000000000000000000000000000000000000000000000000000\n        /* \"#utility.yul\":23472:23474   */\n      0x20\n        /* \"#utility.yul\":23464:23470   */\n      dup3\n        /* \"#utility.yul\":23460:23475   */\n      add\n        /* \"#utility.yul\":23453:23485   */\n      mstore\n        /* \"#utility.yul\":23268:23492   */\n      pop\n      jump\t// out\n        /* \"#utility.yul\":23498:23727   */\n    tag_318:\n        /* \"#utility.yul\":23638:23672   */\n      0x455243313135353a20696e73756666696369656e742062616c616e636520666f\n        /* \"#utility.yul\":23634:23635   */\n      0x00\n        /* \"#utility.yul\":23626:23632   */\n      dup3\n        /* \"#utility.yul\":23622:23636   */\n      add\n        /* \"#utility.yul\":23615:23673   */\n      mstore\n        /* \"#utility.yul\":23707:23719   */\n      0x72207472616e7366657200000000000000000000000000000000000000000000\n        /* \"#utility.yul\":23702:23704   */\n      0x20\n        /* \"#utility.yul\":23694:23700   */\n      dup3\n        /* \"#utility.yul\":23690:23705   */\n      add\n        /* \"#utility.yul\":23683:23720   */\n      mstore\n        /* \"#utility.yul\":23498:23727   */\n      pop\n      jump\t// out\n        /* \"#utility.yul\":23733:23953   */\n    tag_323:\n        /* \"#utility.yul\":23873:23907   */\n      0x455243313135353a206d696e7420746f20746865207a65726f20616464726573\n        /* \"#utility.yul\":23869:23870   */\n      0x00\n        /* \"#utility.yul\":23861:23867   */\n      dup3\n        /* \"#utility.yul\":23857:23871   */\n      add\n        /* \"#utility.yul\":23850:23908   */\n      mstore\n        /* \"#utility.yul\":23942:23945   */\n      0x7300000000000000000000000000000000000000000000000000000000000000\n        /* \"#utility.yul\":23937:23939   */\n      0x20\n        /* \"#utility.yul\":23929:23935   */\n      dup3\n        /* \"#utility.yul\":23925:23940   */\n      add\n        /* \"#utility.yul\":23918:23946   */\n      mstore\n        /* \"#utility.yul\":23733:23953   */\n      pop\n      jump\t// out\n        /* \"#utility.yul\":23959:24670   */\n    tag_148:\n        /* \"#utility.yul\":23998:24001   */\n      0x00\n        /* \"#utility.yul\":24036:24040   */\n      0x44\n        /* \"#utility.yul\":24018:24034   */\n      returndatasize\n        /* \"#utility.yul\":24015:24041   */\n      lt\n        /* \"#utility.yul\":24012:24051   */\n      iszero\n      tag_437\n      jumpi\n        /* \"#utility.yul\":24044:24049   */\n      jump(tag_436)\n        /* \"#utility.yul\":24012:24051   */\n    tag_437:\n        /* \"#utility.yul\":24073:24093   */\n      tag_438\n      tag_374\n      jump\t// in\n    tag_438:\n        /* \"#utility.yul\":24148:24149   */\n      0x04\n        /* \"#utility.yul\":24130:24146   */\n      returndatasize\n        /* \"#utility.yul\":24126:24150   */\n      sub\n        /* \"#utility.yul\":24123:24124   */\n      0x04\n        /* \"#utility.yul\":24117:24121   */\n      dup3\n        /* \"#utility.yul\":24102:24151   */\n      returndatacopy\n        /* \"#utility.yul\":24181:24185   */\n      dup1\n        /* \"#utility.yul\":24175:24186   */\n      mload\n        /* \"#utility.yul\":24280:24296   */\n      returndatasize\n        /* \"#utility.yul\":24273:24277   */\n      0x24\n        /* \"#utility.yul\":24265:24271   */\n      dup3\n        /* \"#utility.yul\":24261:24278   */\n      add\n        /* \"#utility.yul\":24258:24297   */\n      gt\n        /* \"#utility.yul\":24225:24243   */\n      0xffffffffffffffff\n        /* \"#utility.yul\":24217:24223   */\n      dup3\n        /* \"#utility.yul\":24214:24244   */\n      gt\n        /* \"#utility.yul\":24198:24311   */\n      or\n        /* \"#utility.yul\":24195:24341   */\n      iszero\n      tag_439\n      jumpi\n        /* \"#utility.yul\":24326:24331   */\n      pop\n      pop\n      jump(tag_436)\n        /* \"#utility.yul\":24195:24341   */\n    tag_439:\n        /* \"#utility.yul\":24372:24378   */\n      dup1\n        /* \"#utility.yul\":24366:24370   */\n      dup3\n        /* \"#utility.yul\":24362:24379   */\n      add\n        /* \"#utility.yul\":24408:24411   */\n      dup1\n        /* \"#utility.yul\":24402:24412   */\n      mload\n        /* \"#utility.yul\":24435:24453   */\n      0xffffffffffffffff\n        /* \"#utility.yul\":24427:24433   */\n      dup2\n        /* \"#utility.yul\":24424:24454   */\n      gt\n        /* \"#utility.yul\":24421:24464   */\n      iszero\n      tag_440\n      jumpi\n        /* \"#utility.yul\":24457:24462   */\n      pop\n      pop\n      pop\n      pop\n      jump(tag_436)\n        /* \"#utility.yul\":24421:24464   */\n    tag_440:\n        /* \"#utility.yul\":24505:24511   */\n      dup1\n        /* \"#utility.yul\":24498:24502   */\n      0x20\n        /* \"#utility.yul\":24493:24496   */\n      dup4\n        /* \"#utility.yul\":24489:24503   */\n      add\n        /* \"#utility.yul\":24485:24512   */\n      add\n        /* \"#utility.yul\":24564:24565   */\n      0x04\n        /* \"#utility.yul\":24546:24562   */\n      returndatasize\n        /* \"#utility.yul\":24542:24566   */\n      sub\n        /* \"#utility.yul\":24536:24540   */\n      dup6\n        /* \"#utility.yul\":24532:24567   */\n      add\n        /* \"#utility.yul\":24527:24530   */\n      dup2\n        /* \"#utility.yul\":24524:24568   */\n      gt\n        /* \"#utility.yul\":24521:24578   */\n      iszero\n      tag_441\n      jumpi\n        /* \"#utility.yul\":24571:24576   */\n      pop\n      pop\n      pop\n      pop\n      pop\n      jump(tag_436)\n        /* \"#utility.yul\":24521:24578   */\n    tag_441:\n        /* \"#utility.yul\":24588:24645   */\n      tag_442\n        /* \"#utility.yul\":24636:24642   */\n      dup3\n        /* \"#utility.yul\":24630:24634   */\n      0x20\n        /* \"#utility.yul\":24626:24643   */\n      add\n        /* \"#utility.yul\":24618:24624   */\n      dup6\n        /* \"#utility.yul\":24614:24644   */\n      add\n        /* \"#utility.yul\":24608:24612   */\n      dup7\n        /* \"#utility.yul\":24588:24645   */\n      tag_376\n      jump\t// in\n    tag_442:\n        /* \"#utility.yul\":24661:24664   */\n      dup3\n        /* \"#utility.yul\":24654:24664   */\n      swap6\n      pop\n        /* \"#utility.yul\":24002:24670   */\n      pop\n      pop\n      pop\n      pop\n      pop\n        /* \"#utility.yul\":23959:24670   */\n    tag_436:\n      swap1\n      jump\t// out\n        /* \"#utility.yul\":24676:24798   */\n    tag_174:\n        /* \"#utility.yul\":24749:24773   */\n      tag_444\n        /* \"#utility.yul\":24767:24772   */\n      dup2\n        /* \"#utility.yul\":24749:24773   */\n      tag_257\n      jump\t// in\n    tag_444:\n        /* \"#utility.yul\":24742:24747   */\n      dup2\n        /* \"#utility.yul\":24739:24774   */\n      eq\n        /* \"#utility.yul\":24729:24792   */\n      tag_445\n      jumpi\n        /* \"#utility.yul\":24788:24789   */\n      0x00\n        /* \"#utility.yul\":24785:24786   */\n      dup1\n        /* \"#utility.yul\":24778:24790   */\n      revert\n        /* \"#utility.yul\":24729:24792   */\n    tag_445:\n        /* \"#utility.yul\":24676:24798   */\n      pop\n      jump\t// out\n        /* \"#utility.yul\":24804:24920   */\n    tag_178:\n        /* \"#utility.yul\":24874:24895   */\n      tag_447\n        /* \"#utility.yul\":24889:24894   */\n      dup2\n        /* \"#utility.yul\":24874:24895   */\n      tag_261\n      jump\t// in\n    tag_447:\n        /* \"#utility.yul\":24867:24872   */\n      dup2\n        /* \"#utility.yul\":24864:24896   */\n      eq\n        /* \"#utility.yul\":24854:24914   */\n      tag_448\n      jumpi\n        /* \"#utility.yul\":24910:24911   */\n      0x00\n        /* \"#utility.yul\":24907:24908   */\n      dup1\n        /* \"#utility.yul\":24900:24912   */\n      revert\n        /* \"#utility.yul\":24854:24914   */\n    tag_448:\n        /* \"#utility.yul\":24804:24920   */\n      pop\n      jump\t// out\n        /* \"#utility.yul\":24926:25046   */\n    tag_182:\n        /* \"#utility.yul\":24998:25021   */\n      tag_450\n        /* \"#utility.yul\":25015:25020   */\n      dup2\n        /* \"#utility.yul\":24998:25021   */\n      tag_265\n      jump\t// in\n    tag_450:\n        /* \"#utility.yul\":24991:24996   */\n      dup2\n        /* \"#utility.yul\":24988:25022   */\n      eq\n        /* \"#utility.yul\":24978:25040   */\n      tag_451\n      jumpi\n        /* \"#utility.yul\":25036:25037   */\n      0x00\n        /* \"#utility.yul\":25033:25034   */\n      dup1\n        /* \"#utility.yul\":25026:25038   */\n      revert\n        /* \"#utility.yul\":24978:25040   */\n    tag_451:\n        /* \"#utility.yul\":24926:25046   */\n      pop\n      jump\t// out\n        /* \"#utility.yul\":25052:25174   */\n    tag_202:\n        /* \"#utility.yul\":25125:25149   */\n      tag_453\n        /* \"#utility.yul\":25143:25148   */\n      dup2\n        /* \"#utility.yul\":25125:25149   */\n      tag_327\n      jump\t// in\n    tag_453:\n        /* \"#utility.yul\":25118:25123   */\n      dup2\n        /* \"#utility.yul\":25115:25150   */\n      eq\n        /* \"#utility.yul\":25105:25168   */\n      tag_454\n      jumpi\n        /* \"#utility.yul\":25164:25165   */\n      0x00\n        /* \"#utility.yul\":25161:25162   */\n      dup1\n        /* \"#utility.yul\":25154:25166   */\n      revert\n        /* \"#utility.yul\":25105:25168   */\n    tag_454:\n        /* \"#utility.yul\":25052:25174   */\n      pop\n      jump\t// out\n\n    auxdata: 0xa2646970667358221220e7aae7038ea55ddcb3c5125e2d565ee17f49716239a3c7e77661f85eb84be96164736f6c63430008070033\n}\n",
				"bytecode": {
					"linkReferences": {},
					"object": "608060405234801561001057600080fd5b50611b2f806100206000396000f3fe60806040526004361061006f5760003560e01c80638b0d02581161004e5780638b0d02581461010a578063aacdfe6f14610147578063f23a6e6114610184578063f242432a146101c15761006f565b8062fdd58e14610074578063242fd022146100b157806357e87575146100e1575b600080fd5b34801561008057600080fd5b5061009b60048036038101906100969190610f24565b6101ea565b6040516100a891906114b0565b60405180910390f35b6100cb60048036038101906100c6919061102b565b6102b3565b6040516100d89190611378565b60405180910390f35b3480156100ed57600080fd5b5061010860048036038101906101039190610feb565b6103d0565b005b34801561011657600080fd5b50610131600480360381019061012c9190610fbe565b6103ef565b60405161013e91906114b0565b60405180910390f35b34801561015357600080fd5b5061016e60048036038101906101699190610fbe565b61040c565b60405161017b9190611262565b60405180910390f35b34801561019057600080fd5b506101ab60048036038101906101a69190610df3565b610449565b6040516101b89190611393565b60405180910390f35b3480156101cd57600080fd5b506101e860048036038101906101e39190610e8d565b610543565b005b60008073ffffffffffffffffffffffffffffffffffffffff168373ffffffffffffffffffffffffffffffffffffffff16141561025b576040517f08c379a000000000000000000000000000000000000000000000000000000000815260040161025290611430565b60405180910390fd5b60008083815260200190815260200160002060008473ffffffffffffffffffffffffffffffffffffffff1673ffffffffffffffffffffffffffffffffffffffff16815260200190815260200160002054905092915050565b60008173ffffffffffffffffffffffffffffffffffffffff1663e12163d6336002600089815260200190815260200160002060009054906101000a900473ffffffffffffffffffffffffffffffffffffffff16866040518463ffffffff1660e01b81526004016103259392919061127d565b602060405180830381600087803b15801561033f57600080fd5b505af1158015610353573d6000803e3d6000fd5b505050506040513d601f19601f820116820180604052508101906103779190610f64565b506103ba303387876040518060400160405280600481526020017f3078303000000000000000000000000000000000000000000000000000000000815250610543565b6103c485856105cc565b60019050949350505050565b6103eb33838360405180602001604052806000815250610606565b5050565b600060036000838152602001908152602001600020549050919050565b60006002600083815260200190815260200160002060009054906101000a900473ffffffffffffffffffffffffffffffffffffffff169050919050565b6000856002600087815260200190815260200160002060006101000a81548173ffffffffffffffffffffffffffffffffffffffff021916908373ffffffffffffffffffffffffffffffffffffffff1602179055508360036000878152602001908152602001600020546104bc9190611582565b60036000878152602001908152602001600020819055507f20dfa9f79060c8c4d7fe892c97c71bcf6e3b63d1dcf66fea7aefc0211628cf298787878787875a60405161050e97969594939291906112b4565b60405180910390a17ff23a6e612e1ff4830e658fe43f4e3cb4a5f8170bd5d9e69fb5d7a7fa9e4fdf9790509695505050505050565b61054b6107b7565b73ffffffffffffffffffffffffffffffffffffffff168573ffffffffffffffffffffffffffffffffffffffff16146105b8576040517f08c379a00000000000000000000000000000000000000000000000000000000081526004016105af906113f0565b60405180910390fd5b6105c585858585856107bf565b5050505050565b8060036000848152602001908152602001600020546105eb91906115d8565b60036000848152602001908152602001600020819055505050565b600073ffffffffffffffffffffffffffffffffffffffff168473ffffffffffffffffffffffffffffffffffffffff161415610676576040517f08c379a000000000000000000000000000000000000000000000000000000000815260040161066d90611490565b60405180910390fd5b60006106806107b7565b9050600061068d85610a5b565b9050600061069a85610a5b565b90506106ab83600089858589610ad5565b8460008088815260200190815260200160002060008973ffffffffffffffffffffffffffffffffffffffff1673ffffffffffffffffffffffffffffffffffffffff168152602001908152602001600020600082825461070a9190611582565b925050819055508673ffffffffffffffffffffffffffffffffffffffff16600073ffffffffffffffffffffffffffffffffffffffff168473ffffffffffffffffffffffffffffffffffffffff167fc3d58168c5ae7397731d063d5bbf3d657854427343f4c083240f7aacaa2d0f6289896040516107889291906114cb565b60405180910390a461079f83600089858589610add565b6107ae83600089898989610ae5565b50505050505050565b600033905090565b600073ffffffffffffffffffffffffffffffffffffffff168473ffffffffffffffffffffffffffffffffffffffff16141561082f576040517f08c379a000000000000000000000000000000000000000000000000000000000815260040161082690611450565b60405180910390fd5b60006108396107b7565b9050600061084685610a5b565b9050600061085385610a5b565b9050610863838989858589610ad5565b600080600088815260200190815260200160002060008a73ffffffffffffffffffffffffffffffffffffffff1673ffffffffffffffffffffffffffffffffffffffff168152602001908152602001600020549050858110156108fa576040517f08c379a00000000000000000000000000000000000000000000000000000000081526004016108f190611470565b60405180910390fd5b85810360008089815260200190815260200160002060008b73ffffffffffffffffffffffffffffffffffffffff1673ffffffffffffffffffffffffffffffffffffffff168152602001908152602001600020819055508560008089815260200190815260200160002060008a73ffffffffffffffffffffffffffffffffffffffff1673ffffffffffffffffffffffffffffffffffffffff16815260200190815260200160002060008282546109af9190611582565b925050819055508773ffffffffffffffffffffffffffffffffffffffff168973ffffffffffffffffffffffffffffffffffffffff168573ffffffffffffffffffffffffffffffffffffffff167fc3d58168c5ae7397731d063d5bbf3d657854427343f4c083240f7aacaa2d0f628a8a604051610a2c9291906114cb565b60405180910390a4610a42848a8a86868a610add565b610a50848a8a8a8a8a610ae5565b505050505050505050565b60606000600167ffffffffffffffff811115610a7a57610a79611751565b5b604051908082528060200260200182016040528015610aa85781602001602082028036833780820191505090505b5090508281600081518110610ac057610abf611722565b5b60200260200101818152505080915050919050565b505050505050565b505050505050565b610aee84610cb6565b15610cae578373ffffffffffffffffffffffffffffffffffffffff1663f23a6e6187878686866040518663ffffffff1660e01b8152600401610b3495949392919061131e565b602060405180830381600087803b158015610b4e57600080fd5b505af1925050508015610b7f57506040513d601f19601f82011682018060405250810190610b7c9190610f91565b60015b610c2557610b8b611780565b806308c379a01415610be85750610ba0611a07565b80610bab5750610bea565b806040517f08c379a0000000000000000000000000000000000000000000000000000000008152600401610bdf91906113ae565b60405180910390fd5b505b6040517f08c379a0000000000000000000000000000000000000000000000000000000008152600401610c1c906113d0565b60405180910390fd5b63f23a6e6160e01b7bffffffffffffffffffffffffffffffffffffffffffffffffffffffff1916817bffffffffffffffffffffffffffffffffffffffffffffffffffffffff191614610cac576040517f08c379a0000000000000000000000000000000000000000000000000000000008152600401610ca390611410565b60405180910390fd5b505b505050505050565b6000808273ffffffffffffffffffffffffffffffffffffffff163b119050919050565b6000610cec610ce784611519565b6114f4565b905082815260208101848484011115610d0857610d076117b1565b5b610d13848285611680565b509392505050565b600081359050610d2a81611a9d565b92915050565b600081519050610d3f81611ab4565b92915050565b600081519050610d5481611acb565b92915050565b60008083601f840112610d7057610d6f6117a7565b5b8235905067ffffffffffffffff811115610d8d57610d8c6117a2565b5b602083019150836001820283011115610da957610da86117ac565b5b9250929050565b600082601f830112610dc557610dc46117a7565b5b8135610dd5848260208601610cd9565b91505092915050565b600081359050610ded81611ae2565b92915050565b60008060008060008060a08789031215610e1057610e0f6117bb565b5b6000610e1e89828a01610d1b565b9650506020610e2f89828a01610d1b565b9550506040610e4089828a01610dde565b9450506060610e5189828a01610dde565b935050608087013567ffffffffffffffff811115610e7257610e716117b6565b5b610e7e89828a01610d5a565b92509250509295509295509295565b600080600080600060a08688031215610ea957610ea86117bb565b5b6000610eb788828901610d1b565b9550506020610ec888828901610d1b565b9450506040610ed988828901610dde565b9350506060610eea88828901610dde565b925050608086013567ffffffffffffffff811115610f0b57610f0a6117b6565b5b610f1788828901610db0565b9150509295509295909350565b60008060408385031215610f3b57610f3a6117bb565b5b6000610f4985828601610d1b565b9250506020610f5a85828601610dde565b9150509250929050565b600060208284031215610f7a57610f796117bb565b5b6000610f8884828501610d30565b91505092915050565b600060208284031215610fa757610fa66117bb565b5b6000610fb584828501610d45565b91505092915050565b600060208284031215610fd457610fd36117bb565b5b6000610fe284828501610dde565b91505092915050565b60008060408385031215611002576110016117bb565b5b600061101085828601610dde565b925050602061102185828601610dde565b9150509250929050565b60008060008060808587031215611045576110446117bb565b5b600061105387828801610dde565b945050602061106487828801610dde565b935050604061107587828801610dde565b925050606061108687828801610d1b565b91505092959194509250565b61109b8161160c565b82525050565b6110aa8161161e565b82525050565b6110b98161162a565b82525050565b60006110cb8385611560565b93506110d8838584611680565b6110e1836117c0565b840190509392505050565b60006110f78261154a565b6111018185611560565b935061111181856020860161168f565b61111a816117c0565b840191505092915050565b600061113082611555565b61113a8185611571565b935061114a81856020860161168f565b611153816117c0565b840191505092915050565b600061116b603483611571565b9150611176826117de565b604082019050919050565b600061118e602f83611571565b91506111998261182d565b604082019050919050565b60006111b1602883611571565b91506111bc8261187c565b604082019050919050565b60006111d4602a83611571565b91506111df826118cb565b604082019050919050565b60006111f7602583611571565b91506112028261191a565b604082019050919050565b600061121a602a83611571565b915061122582611969565b604082019050919050565b600061123d602183611571565b9150611248826119b8565b604082019050919050565b61125c81611676565b82525050565b60006020820190506112776000830184611092565b92915050565b60006060820190506112926000830186611092565b61129f6020830185611092565b6112ac6040830184611253565b949350505050565b600060c0820190506112c9600083018a611092565b6112d66020830189611092565b6112e36040830188611253565b6112f06060830187611253565b81810360808301526113038185876110bf565b905061131260a0830184611253565b98975050505050505050565b600060a0820190506113336000830188611092565b6113406020830187611092565b61134d6040830186611253565b61135a6060830185611253565b818103608083015261136c81846110ec565b90509695505050505050565b600060208201905061138d60008301846110a1565b92915050565b60006020820190506113a860008301846110b0565b92915050565b600060208201905081810360008301526113c88184611125565b905092915050565b600060208201905081810360008301526113e98161115e565b9050919050565b6000602082019050818103600083015261140981611181565b9050919050565b60006020820190508181036000830152611429816111a4565b9050919050565b60006020820190508181036000830152611449816111c7565b9050919050565b60006020820190508181036000830152611469816111ea565b9050919050565b600060208201905081810360008301526114898161120d565b9050919050565b600060208201905081810360008301526114a981611230565b9050919050565b60006020820190506114c56000830184611253565b92915050565b60006040820190506114e06000830185611253565b6114ed6020830184611253565b9392505050565b60006114fe61150f565b905061150a82826116c2565b919050565b6000604051905090565b600067ffffffffffffffff82111561153457611533611751565b5b61153d826117c0565b9050602081019050919050565b600081519050919050565b600081519050919050565b600082825260208201905092915050565b600082825260208201905092915050565b600061158d82611676565b915061159883611676565b9250827fffffffffffffffffffffffffffffffffffffffffffffffffffffffffffffffff038211156115cd576115cc6116f3565b5b828201905092915050565b60006115e382611676565b91506115ee83611676565b925082821015611601576116006116f3565b5b828203905092915050565b600061161782611656565b9050919050565b60008115159050919050565b60007fffffffff0000000000000000000000000000000000000000000000000000000082169050919050565b600073ffffffffffffffffffffffffffffffffffffffff82169050919050565b6000819050919050565b82818337600083830152505050565b60005b838110156116ad578082015181840152602081019050611692565b838111156116bc576000848401525b50505050565b6116cb826117c0565b810181811067ffffffffffffffff821117156116ea576116e9611751565b5b80604052505050565b7f4e487b7100000000000000000000000000000000000000000000000000000000600052601160045260246000fd5b7f4e487b7100000000000000000000000000000000000000000000000000000000600052603260045260246000fd5b7f4e487b7100000000000000000000000000000000000000000000000000000000600052604160045260246000fd5b600060033d111561179f5760046000803e61179c6000516117d1565b90505b90565b600080fd5b600080fd5b600080fd5b600080fd5b600080fd5b600080fd5b6000601f19601f8301169050919050565b60008160e01c9050919050565b7f455243313135353a207472616e7366657220746f206e6f6e204552433131353560008201527f526563656976657220696d706c656d656e746572000000000000000000000000602082015250565b7f455243313135353a2063616c6c6572206973206e6f7420746f6b656e206f776e60008201527f6572206e6f7220617070726f7665640000000000000000000000000000000000602082015250565b7f455243313135353a204552433131353552656365697665722072656a6563746560008201527f6420746f6b656e73000000000000000000000000000000000000000000000000602082015250565b7f455243313135353a2061646472657373207a65726f206973206e6f742061207660008201527f616c6964206f776e657200000000000000000000000000000000000000000000602082015250565b7f455243313135353a207472616e7366657220746f20746865207a65726f20616460008201527f6472657373000000000000000000000000000000000000000000000000000000602082015250565b7f455243313135353a20696e73756666696369656e742062616c616e636520666f60008201527f72207472616e7366657200000000000000000000000000000000000000000000602082015250565b7f455243313135353a206d696e7420746f20746865207a65726f2061646472657360008201527f7300000000000000000000000000000000000000000000000000000000000000602082015250565b600060443d1015611a1757611a9a565b611a1f61150f565b60043d036004823e80513d602482011167ffffffffffffffff82111715611a47575050611a9a565b808201805167ffffffffffffffff811115611a655750505050611a9a565b80602083010160043d038501811115611a82575050505050611a9a565b611a91826020018501866116c2565b82955050505050505b90565b611aa68161160c565b8114611ab157600080fd5b50565b611abd8161161e565b8114611ac857600080fd5b50565b611ad48161162a565b8114611adf57600080fd5b50565b611aeb81611676565b8114611af657600080fd5b5056fea2646970667358221220e7aae7038ea55ddcb3c5125e2d565ee17f49716239a3c7e77661f85eb84be96164736f6c63430008070033",
					"opcodes": "PUSH1 0x80 PUSH1 0x40 MSTORE CALLVALUE DUP1 ISZERO PUSH2 0x10 JUMPI PUSH1 0x0 DUP1 REVERT JUMPDEST POP PUSH2 0x1B2F DUP1 PUSH2 0x20 PUSH1 0x0 CODECOPY PUSH1 0x0 RETURN INVALID PUSH1 0x80 PUSH1 0x40 MSTORE PUSH1 0x4 CALLDATASIZE LT PUSH2 0x6F JUMPI PUSH1 0x0 CALLDATALOAD PUSH1 0xE0 SHR DUP1 PUSH4 0x8B0D0258 GT PUSH2 0x4E JUMPI DUP1 PUSH4 0x8B0D0258 EQ PUSH2 0x10A JUMPI DUP1 PUSH4 0xAACDFE6F EQ PUSH2 0x147 JUMPI DUP1 PUSH4 0xF23A6E61 EQ PUSH2 0x184 JUMPI DUP1 PUSH4 0xF242432A EQ PUSH2 0x1C1 JUMPI PUSH2 0x6F JUMP JUMPDEST DUP1 PUSH3 0xFDD58E EQ PUSH2 0x74 JUMPI DUP1 PUSH4 0x242FD022 EQ PUSH2 0xB1 JUMPI DUP1 PUSH4 0x57E87575 EQ PUSH2 0xE1 JUMPI JUMPDEST PUSH1 0x0 DUP1 REVERT JUMPDEST CALLVALUE DUP1 ISZERO PUSH2 0x80 JUMPI PUSH1 0x0 DUP1 REVERT JUMPDEST POP PUSH2 0x9B PUSH1 0x4 DUP1 CALLDATASIZE SUB DUP2 ADD SWAP1 PUSH2 0x96 SWAP2 SWAP1 PUSH2 0xF24 JUMP JUMPDEST PUSH2 0x1EA JUMP JUMPDEST PUSH1 0x40 MLOAD PUSH2 0xA8 SWAP2 SWAP1 PUSH2 0x14B0 JUMP JUMPDEST PUSH1 0x40 MLOAD DUP1 SWAP2 SUB SWAP1 RETURN JUMPDEST PUSH2 0xCB PUSH1 0x4 DUP1 CALLDATASIZE SUB DUP2 ADD SWAP1 PUSH2 0xC6 SWAP2 SWAP1 PUSH2 0x102B JUMP JUMPDEST PUSH2 0x2B3 JUMP JUMPDEST PUSH1 0x40 MLOAD PUSH2 0xD8 SWAP2 SWAP1 PUSH2 0x1378 JUMP JUMPDEST PUSH1 0x40 MLOAD DUP1 SWAP2 SUB SWAP1 RETURN JUMPDEST CALLVALUE DUP1 ISZERO PUSH2 0xED JUMPI PUSH1 0x0 DUP1 REVERT JUMPDEST POP PUSH2 0x108 PUSH1 0x4 DUP1 CALLDATASIZE SUB DUP2 ADD SWAP1 PUSH2 0x103 SWAP2 SWAP1 PUSH2 0xFEB JUMP JUMPDEST PUSH2 0x3D0 JUMP JUMPDEST STOP JUMPDEST CALLVALUE DUP1 ISZERO PUSH2 0x116 JUMPI PUSH1 0x0 DUP1 REVERT JUMPDEST POP PUSH2 0x131 PUSH1 0x4 DUP1 CALLDATASIZE SUB DUP2 ADD SWAP1 PUSH2 0x12C SWAP2 SWAP1 PUSH2 0xFBE JUMP JUMPDEST PUSH2 0x3EF JUMP JUMPDEST PUSH1 0x40 MLOAD PUSH2 0x13E SWAP2 SWAP1 PUSH2 0x14B0 JUMP JUMPDEST PUSH1 0x40 MLOAD DUP1 SWAP2 SUB SWAP1 RETURN JUMPDEST CALLVALUE DUP1 ISZERO PUSH2 0x153 JUMPI PUSH1 0x0 DUP1 REVERT JUMPDEST POP PUSH2 0x16E PUSH1 0x4 DUP1 CALLDATASIZE SUB DUP2 ADD SWAP1 PUSH2 0x169 SWAP2 SWAP1 PUSH2 0xFBE JUMP JUMPDEST PUSH2 0x40C JUMP JUMPDEST PUSH1 0x40 MLOAD PUSH2 0x17B SWAP2 SWAP1 PUSH2 0x1262 JUMP JUMPDEST PUSH1 0x40 MLOAD DUP1 SWAP2 SUB SWAP1 RETURN JUMPDEST CALLVALUE DUP1 ISZERO PUSH2 0x190 JUMPI PUSH1 0x0 DUP1 REVERT JUMPDEST POP PUSH2 0x1AB PUSH1 0x4 DUP1 CALLDATASIZE SUB DUP2 ADD SWAP1 PUSH2 0x1A6 SWAP2 SWAP1 PUSH2 0xDF3 JUMP JUMPDEST PUSH2 0x449 JUMP JUMPDEST PUSH1 0x40 MLOAD PUSH2 0x1B8 SWAP2 SWAP1 PUSH2 0x1393 JUMP JUMPDEST PUSH1 0x40 MLOAD DUP1 SWAP2 SUB SWAP1 RETURN JUMPDEST CALLVALUE DUP1 ISZERO PUSH2 0x1CD JUMPI PUSH1 0x0 DUP1 REVERT JUMPDEST POP PUSH2 0x1E8 PUSH1 0x4 DUP1 CALLDATASIZE SUB DUP2 ADD SWAP1 PUSH2 0x1E3 SWAP2 SWAP1 PUSH2 0xE8D JUMP JUMPDEST PUSH2 0x543 JUMP JUMPDEST STOP JUMPDEST PUSH1 0x0 DUP1 PUSH20 0xFFFFFFFFFFFFFFFFFFFFFFFFFFFFFFFFFFFFFFFF AND DUP4 PUSH20 0xFFFFFFFFFFFFFFFFFFFFFFFFFFFFFFFFFFFFFFFF AND EQ ISZERO PUSH2 0x25B JUMPI PUSH1 0x40 MLOAD PUSH32 0x8C379A000000000000000000000000000000000000000000000000000000000 DUP2 MSTORE PUSH1 0x4 ADD PUSH2 0x252 SWAP1 PUSH2 0x1430 JUMP JUMPDEST PUSH1 0x40 MLOAD DUP1 SWAP2 SUB SWAP1 REVERT JUMPDEST PUSH1 0x0 DUP1 DUP4 DUP2 MSTORE PUSH1 0x20 ADD SWAP1 DUP2 MSTORE PUSH1 0x20 ADD PUSH1 0x0 KECCAK256 PUSH1 0x0 DUP5 PUSH20 0xFFFFFFFFFFFFFFFFFFFFFFFFFFFFFFFFFFFFFFFF AND PUSH20 0xFFFFFFFFFFFFFFFFFFFFFFFFFFFFFFFFFFFFFFFF AND DUP2 MSTORE PUSH1 0x20 ADD SWAP1 DUP2 MSTORE PUSH1 0x20 ADD PUSH1 0x0 KECCAK256 SLOAD SWAP1 POP SWAP3 SWAP2 POP POP JUMP JUMPDEST PUSH1 0x0 DUP2 PUSH20 0xFFFFFFFFFFFFFFFFFFFFFFFFFFFFFFFFFFFFFFFF AND PUSH4 0xE12163D6 CALLER PUSH1 0x2 PUSH1 0x0 DUP10 DUP2 MSTORE PUSH1 0x20 ADD SWAP1 DUP2 MSTORE PUSH1 0x20 ADD PUSH1 0x0 KECCAK256 PUSH1 0x0 SWAP1 SLOAD SWAP1 PUSH2 0x100 EXP SWAP1 DIV PUSH20 0xFFFFFFFFFFFFFFFFFFFFFFFFFFFFFFFFFFFFFFFF AND DUP7 PUSH1 0x40 MLOAD DUP5 PUSH4 0xFFFFFFFF AND PUSH1 0xE0 SHL DUP2 MSTORE PUSH1 0x4 ADD PUSH2 0x325 SWAP4 SWAP3 SWAP2 SWAP1 PUSH2 0x127D JUMP JUMPDEST PUSH1 0x20 PUSH1 0x40 MLOAD DUP1 DUP4 SUB DUP2 PUSH1 0x0 DUP8 DUP1 EXTCODESIZE ISZERO DUP1 ISZERO PUSH2 0x33F JUMPI PUSH1 0x0 DUP1 REVERT JUMPDEST POP GAS CALL ISZERO DUP1 ISZERO PUSH2 0x353 JUMPI RETURNDATASIZE PUSH1 0x0 DUP1 RETURNDATACOPY RETURNDATASIZE PUSH1 0x0 REVERT JUMPDEST POP POP POP POP PUSH1 0x40 MLOAD RETURNDATASIZE PUSH1 0x1F NOT PUSH1 0x1F DUP3 ADD AND DUP3 ADD DUP1 PUSH1 0x40 MSTORE POP DUP2 ADD SWAP1 PUSH2 0x377 SWAP2 SWAP1 PUSH2 0xF64 JUMP JUMPDEST POP PUSH2 0x3BA ADDRESS CALLER DUP8 DUP8 PUSH1 0x40 MLOAD DUP1 PUSH1 0x40 ADD PUSH1 0x40 MSTORE DUP1 PUSH1 0x4 DUP2 MSTORE PUSH1 0x20 ADD PUSH32 0x3078303000000000000000000000000000000000000000000000000000000000 DUP2 MSTORE POP PUSH2 0x543 JUMP JUMPDEST PUSH2 0x3C4 DUP6 DUP6 PUSH2 0x5CC JUMP JUMPDEST PUSH1 0x1 SWAP1 POP SWAP5 SWAP4 POP POP POP POP JUMP JUMPDEST PUSH2 0x3EB CALLER DUP4 DUP4 PUSH1 0x40 MLOAD DUP1 PUSH1 0x20 ADD PUSH1 0x40 MSTORE DUP1 PUSH1 0x0 DUP2 MSTORE POP PUSH2 0x606 JUMP JUMPDEST POP POP JUMP JUMPDEST PUSH1 0x0 PUSH1 0x3 PUSH1 0x0 DUP4 DUP2 MSTORE PUSH1 0x20 ADD SWAP1 DUP2 MSTORE PUSH1 0x20 ADD PUSH1 0x0 KECCAK256 SLOAD SWAP1 POP SWAP2 SWAP1 POP JUMP JUMPDEST PUSH1 0x0 PUSH1 0x2 PUSH1 0x0 DUP4 DUP2 MSTORE PUSH1 0x20 ADD SWAP1 DUP2 MSTORE PUSH1 0x20 ADD PUSH1 0x0 KECCAK256 PUSH1 0x0 SWAP1 SLOAD SWAP1 PUSH2 0x100 EXP SWAP1 DIV PUSH20 0xFFFFFFFFFFFFFFFFFFFFFFFFFFFFFFFFFFFFFFFF AND SWAP1 POP SWAP2 SWAP1 POP JUMP JUMPDEST PUSH1 0x0 DUP6 PUSH1 0x2 PUSH1 0x0 DUP8 DUP2 MSTORE PUSH1 0x20 ADD SWAP1 DUP2 MSTORE PUSH1 0x20 ADD PUSH1 0x0 KECCAK256 PUSH1 0x0 PUSH2 0x100 EXP DUP2 SLOAD DUP2 PUSH20 0xFFFFFFFFFFFFFFFFFFFFFFFFFFFFFFFFFFFFFFFF MUL NOT AND SWAP1 DUP4 PUSH20 0xFFFFFFFFFFFFFFFFFFFFFFFFFFFFFFFFFFFFFFFF AND MUL OR SWAP1 SSTORE POP DUP4 PUSH1 0x3 PUSH1 0x0 DUP8 DUP2 MSTORE PUSH1 0x20 ADD SWAP1 DUP2 MSTORE PUSH1 0x20 ADD PUSH1 0x0 KECCAK256 SLOAD PUSH2 0x4BC SWAP2 SWAP1 PUSH2 0x1582 JUMP JUMPDEST PUSH1 0x3 PUSH1 0x0 DUP8 DUP2 MSTORE PUSH1 0x20 ADD SWAP1 DUP2 MSTORE PUSH1 0x20 ADD PUSH1 0x0 KECCAK256 DUP2 SWAP1 SSTORE POP PUSH32 0x20DFA9F79060C8C4D7FE892C97C71BCF6E3B63D1DCF66FEA7AEFC0211628CF29 DUP8 DUP8 DUP8 DUP8 DUP8 DUP8 GAS PUSH1 0x40 MLOAD PUSH2 0x50E SWAP8 SWAP7 SWAP6 SWAP5 SWAP4 SWAP3 SWAP2 SWAP1 PUSH2 0x12B4 JUMP JUMPDEST PUSH1 0x40 MLOAD DUP1 SWAP2 SUB SWAP1 LOG1 PUSH32 0xF23A6E612E1FF4830E658FE43F4E3CB4A5F8170BD5D9E69FB5D7A7FA9E4FDF97 SWAP1 POP SWAP7 SWAP6 POP POP POP POP POP POP JUMP JUMPDEST PUSH2 0x54B PUSH2 0x7B7 JUMP JUMPDEST PUSH20 0xFFFFFFFFFFFFFFFFFFFFFFFFFFFFFFFFFFFFFFFF AND DUP6 PUSH20 0xFFFFFFFFFFFFFFFFFFFFFFFFFFFFFFFFFFFFFFFF AND EQ PUSH2 0x5B8 JUMPI PUSH1 0x40 MLOAD PUSH32 0x8C379A000000000000000000000000000000000000000000000000000000000 DUP2 MSTORE PUSH1 0x4 ADD PUSH2 0x5AF SWAP1 PUSH2 0x13F0 JUMP JUMPDEST PUSH1 0x40 MLOAD DUP1 SWAP2 SUB SWAP1 REVERT JUMPDEST PUSH2 0x5C5 DUP6 DUP6 DUP6 DUP6 DUP6 PUSH2 0x7BF JUMP JUMPDEST POP POP POP POP POP JUMP JUMPDEST DUP1 PUSH1 0x3 PUSH1 0x0 DUP5 DUP2 MSTORE PUSH1 0x20 ADD SWAP1 DUP2 MSTORE PUSH1 0x20 ADD PUSH1 0x0 KECCAK256 SLOAD PUSH2 0x5EB SWAP2 SWAP1 PUSH2 0x15D8 JUMP JUMPDEST PUSH1 0x3 PUSH1 0x0 DUP5 DUP2 MSTORE PUSH1 0x20 ADD SWAP1 DUP2 MSTORE PUSH1 0x20 ADD PUSH1 0x0 KECCAK256 DUP2 SWAP1 SSTORE POP POP POP JUMP JUMPDEST PUSH1 0x0 PUSH20 0xFFFFFFFFFFFFFFFFFFFFFFFFFFFFFFFFFFFFFFFF AND DUP5 PUSH20 0xFFFFFFFFFFFFFFFFFFFFFFFFFFFFFFFFFFFFFFFF AND EQ ISZERO PUSH2 0x676 JUMPI PUSH1 0x40 MLOAD PUSH32 0x8C379A000000000000000000000000000000000000000000000000000000000 DUP2 MSTORE PUSH1 0x4 ADD PUSH2 0x66D SWAP1 PUSH2 0x1490 JUMP JUMPDEST PUSH1 0x40 MLOAD DUP1 SWAP2 SUB SWAP1 REVERT JUMPDEST PUSH1 0x0 PUSH2 0x680 PUSH2 0x7B7 JUMP JUMPDEST SWAP1 POP PUSH1 0x0 PUSH2 0x68D DUP6 PUSH2 0xA5B JUMP JUMPDEST SWAP1 POP PUSH1 0x0 PUSH2 0x69A DUP6 PUSH2 0xA5B JUMP JUMPDEST SWAP1 POP PUSH2 0x6AB DUP4 PUSH1 0x0 DUP10 DUP6 DUP6 DUP10 PUSH2 0xAD5 JUMP JUMPDEST DUP5 PUSH1 0x0 DUP1 DUP9 DUP2 MSTORE PUSH1 0x20 ADD SWAP1 DUP2 MSTORE PUSH1 0x20 ADD PUSH1 0x0 KECCAK256 PUSH1 0x0 DUP10 PUSH20 0xFFFFFFFFFFFFFFFFFFFFFFFFFFFFFFFFFFFFFFFF AND PUSH20 0xFFFFFFFFFFFFFFFFFFFFFFFFFFFFFFFFFFFFFFFF AND DUP2 MSTORE PUSH1 0x20 ADD SWAP1 DUP2 MSTORE PUSH1 0x20 ADD PUSH1 0x0 KECCAK256 PUSH1 0x0 DUP3 DUP3 SLOAD PUSH2 0x70A SWAP2 SWAP1 PUSH2 0x1582 JUMP JUMPDEST SWAP3 POP POP DUP2 SWAP1 SSTORE POP DUP7 PUSH20 0xFFFFFFFFFFFFFFFFFFFFFFFFFFFFFFFFFFFFFFFF AND PUSH1 0x0 PUSH20 0xFFFFFFFFFFFFFFFFFFFFFFFFFFFFFFFFFFFFFFFF AND DUP5 PUSH20 0xFFFFFFFFFFFFFFFFFFFFFFFFFFFFFFFFFFFFFFFF AND PUSH32 0xC3D58168C5AE7397731D063D5BBF3D657854427343F4C083240F7AACAA2D0F62 DUP10 DUP10 PUSH1 0x40 MLOAD PUSH2 0x788 SWAP3 SWAP2 SWAP1 PUSH2 0x14CB JUMP JUMPDEST PUSH1 0x40 MLOAD DUP1 SWAP2 SUB SWAP1 LOG4 PUSH2 0x79F DUP4 PUSH1 0x0 DUP10 DUP6 DUP6 DUP10 PUSH2 0xADD JUMP JUMPDEST PUSH2 0x7AE DUP4 PUSH1 0x0 DUP10 DUP10 DUP10 DUP10 PUSH2 0xAE5 JUMP JUMPDEST POP POP POP POP POP POP POP JUMP JUMPDEST PUSH1 0x0 CALLER SWAP1 POP SWAP1 JUMP JUMPDEST PUSH1 0x0 PUSH20 0xFFFFFFFFFFFFFFFFFFFFFFFFFFFFFFFFFFFFFFFF AND DUP5 PUSH20 0xFFFFFFFFFFFFFFFFFFFFFFFFFFFFFFFFFFFFFFFF AND EQ ISZERO PUSH2 0x82F JUMPI PUSH1 0x40 MLOAD PUSH32 0x8C379A000000000000000000000000000000000000000000000000000000000 DUP2 MSTORE PUSH1 0x4 ADD PUSH2 0x826 SWAP1 PUSH2 0x1450 JUMP JUMPDEST PUSH1 0x40 MLOAD DUP1 SWAP2 SUB SWAP1 REVERT JUMPDEST PUSH1 0x0 PUSH2 0x839 PUSH2 0x7B7 JUMP JUMPDEST SWAP1 POP PUSH1 0x0 PUSH2 0x846 DUP6 PUSH2 0xA5B JUMP JUMPDEST SWAP1 POP PUSH1 0x0 PUSH2 0x853 DUP6 PUSH2 0xA5B JUMP JUMPDEST SWAP1 POP PUSH2 0x863 DUP4 DUP10 DUP10 DUP6 DUP6 DUP10 PUSH2 0xAD5 JUMP JUMPDEST PUSH1 0x0 DUP1 PUSH1 0x0 DUP9 DUP2 MSTORE PUSH1 0x20 ADD SWAP1 DUP2 MSTORE PUSH1 0x20 ADD PUSH1 0x0 KECCAK256 PUSH1 0x0 DUP11 PUSH20 0xFFFFFFFFFFFFFFFFFFFFFFFFFFFFFFFFFFFFFFFF AND PUSH20 0xFFFFFFFFFFFFFFFFFFFFFFFFFFFFFFFFFFFFFFFF AND DUP2 MSTORE PUSH1 0x20 ADD SWAP1 DUP2 MSTORE PUSH1 0x20 ADD PUSH1 0x0 KECCAK256 SLOAD SWAP1 POP DUP6 DUP2 LT ISZERO PUSH2 0x8FA JUMPI PUSH1 0x40 MLOAD PUSH32 0x8C379A000000000000000000000000000000000000000000000000000000000 DUP2 MSTORE PUSH1 0x4 ADD PUSH2 0x8F1 SWAP1 PUSH2 0x1470 JUMP JUMPDEST PUSH1 0x40 MLOAD DUP1 SWAP2 SUB SWAP1 REVERT JUMPDEST DUP6 DUP2 SUB PUSH1 0x0 DUP1 DUP10 DUP2 MSTORE PUSH1 0x20 ADD SWAP1 DUP2 MSTORE PUSH1 0x20 ADD PUSH1 0x0 KECCAK256 PUSH1 0x0 DUP12 PUSH20 0xFFFFFFFFFFFFFFFFFFFFFFFFFFFFFFFFFFFFFFFF AND PUSH20 0xFFFFFFFFFFFFFFFFFFFFFFFFFFFFFFFFFFFFFFFF AND DUP2 MSTORE PUSH1 0x20 ADD SWAP1 DUP2 MSTORE PUSH1 0x20 ADD PUSH1 0x0 KECCAK256 DUP2 SWAP1 SSTORE POP DUP6 PUSH1 0x0 DUP1 DUP10 DUP2 MSTORE PUSH1 0x20 ADD SWAP1 DUP2 MSTORE PUSH1 0x20 ADD PUSH1 0x0 KECCAK256 PUSH1 0x0 DUP11 PUSH20 0xFFFFFFFFFFFFFFFFFFFFFFFFFFFFFFFFFFFFFFFF AND PUSH20 0xFFFFFFFFFFFFFFFFFFFFFFFFFFFFFFFFFFFFFFFF AND DUP2 MSTORE PUSH1 0x20 ADD SWAP1 DUP2 MSTORE PUSH1 0x20 ADD PUSH1 0x0 KECCAK256 PUSH1 0x0 DUP3 DUP3 SLOAD PUSH2 0x9AF SWAP2 SWAP1 PUSH2 0x1582 JUMP JUMPDEST SWAP3 POP POP DUP2 SWAP1 SSTORE POP DUP8 PUSH20 0xFFFFFFFFFFFFFFFFFFFFFFFFFFFFFFFFFFFFFFFF AND DUP10 PUSH20 0xFFFFFFFFFFFFFFFFFFFFFFFFFFFFFFFFFFFFFFFF AND DUP6 PUSH20 0xFFFFFFFFFFFFFFFFFFFFFFFFFFFFFFFFFFFFFFFF AND PUSH32 0xC3D58168C5AE7397731D063D5BBF3D657854427343F4C083240F7AACAA2D0F62 DUP11 DUP11 PUSH1 0x40 MLOAD PUSH2 0xA2C SWAP3 SWAP2 SWAP1 PUSH2 0x14CB JUMP JUMPDEST PUSH1 0x40 MLOAD DUP1 SWAP2 SUB SWAP1 LOG4 PUSH2 0xA42 DUP5 DUP11 DUP11 DUP7 DUP7 DUP11 PUSH2 0xADD JUMP JUMPDEST PUSH2 0xA50 DUP5 DUP11 DUP11 DUP11 DUP11 DUP11 PUSH2 0xAE5 JUMP JUMPDEST POP POP POP POP POP POP POP POP POP JUMP JUMPDEST PUSH1 0x60 PUSH1 0x0 PUSH1 0x1 PUSH8 0xFFFFFFFFFFFFFFFF DUP2 GT ISZERO PUSH2 0xA7A JUMPI PUSH2 0xA79 PUSH2 0x1751 JUMP JUMPDEST JUMPDEST PUSH1 0x40 MLOAD SWAP1 DUP1 DUP3 MSTORE DUP1 PUSH1 0x20 MUL PUSH1 0x20 ADD DUP3 ADD PUSH1 0x40 MSTORE DUP1 ISZERO PUSH2 0xAA8 JUMPI DUP2 PUSH1 0x20 ADD PUSH1 0x20 DUP3 MUL DUP1 CALLDATASIZE DUP4 CALLDATACOPY DUP1 DUP3 ADD SWAP2 POP POP SWAP1 POP JUMPDEST POP SWAP1 POP DUP3 DUP2 PUSH1 0x0 DUP2 MLOAD DUP2 LT PUSH2 0xAC0 JUMPI PUSH2 0xABF PUSH2 0x1722 JUMP JUMPDEST JUMPDEST PUSH1 0x20 MUL PUSH1 0x20 ADD ADD DUP2 DUP2 MSTORE POP POP DUP1 SWAP2 POP POP SWAP2 SWAP1 POP JUMP JUMPDEST POP POP POP POP POP POP JUMP JUMPDEST POP POP POP POP POP POP JUMP JUMPDEST PUSH2 0xAEE DUP5 PUSH2 0xCB6 JUMP JUMPDEST ISZERO PUSH2 0xCAE JUMPI DUP4 PUSH20 0xFFFFFFFFFFFFFFFFFFFFFFFFFFFFFFFFFFFFFFFF AND PUSH4 0xF23A6E61 DUP8 DUP8 DUP7 DUP7 DUP7 PUSH1 0x40 MLOAD DUP7 PUSH4 0xFFFFFFFF AND PUSH1 0xE0 SHL DUP2 MSTORE PUSH1 0x4 ADD PUSH2 0xB34 SWAP6 SWAP5 SWAP4 SWAP3 SWAP2 SWAP1 PUSH2 0x131E JUMP JUMPDEST PUSH1 0x20 PUSH1 0x40 MLOAD DUP1 DUP4 SUB DUP2 PUSH1 0x0 DUP8 DUP1 EXTCODESIZE ISZERO DUP1 ISZERO PUSH2 0xB4E JUMPI PUSH1 0x0 DUP1 REVERT JUMPDEST POP GAS CALL SWAP3 POP POP POP DUP1 ISZERO PUSH2 0xB7F JUMPI POP PUSH1 0x40 MLOAD RETURNDATASIZE PUSH1 0x1F NOT PUSH1 0x1F DUP3 ADD AND DUP3 ADD DUP1 PUSH1 0x40 MSTORE POP DUP2 ADD SWAP1 PUSH2 0xB7C SWAP2 SWAP1 PUSH2 0xF91 JUMP JUMPDEST PUSH1 0x1 JUMPDEST PUSH2 0xC25 JUMPI PUSH2 0xB8B PUSH2 0x1780 JUMP JUMPDEST DUP1 PUSH4 0x8C379A0 EQ ISZERO PUSH2 0xBE8 JUMPI POP PUSH2 0xBA0 PUSH2 0x1A07 JUMP JUMPDEST DUP1 PUSH2 0xBAB JUMPI POP PUSH2 0xBEA JUMP JUMPDEST DUP1 PUSH1 0x40 MLOAD PUSH32 0x8C379A000000000000000000000000000000000000000000000000000000000 DUP2 MSTORE PUSH1 0x4 ADD PUSH2 0xBDF SWAP2 SWAP1 PUSH2 0x13AE JUMP JUMPDEST PUSH1 0x40 MLOAD DUP1 SWAP2 SUB SWAP1 REVERT JUMPDEST POP JUMPDEST PUSH1 0x40 MLOAD PUSH32 0x8C379A000000000000000000000000000000000000000000000000000000000 DUP2 MSTORE PUSH1 0x4 ADD PUSH2 0xC1C SWAP1 PUSH2 0x13D0 JUMP JUMPDEST PUSH1 0x40 MLOAD DUP1 SWAP2 SUB SWAP1 REVERT JUMPDEST PUSH4 0xF23A6E61 PUSH1 0xE0 SHL PUSH28 0xFFFFFFFFFFFFFFFFFFFFFFFFFFFFFFFFFFFFFFFFFFFFFFFFFFFFFFFF NOT AND DUP2 PUSH28 0xFFFFFFFFFFFFFFFFFFFFFFFFFFFFFFFFFFFFFFFFFFFFFFFFFFFFFFFF NOT AND EQ PUSH2 0xCAC JUMPI PUSH1 0x40 MLOAD PUSH32 0x8C379A000000000000000000000000000000000000000000000000000000000 DUP2 MSTORE PUSH1 0x4 ADD PUSH2 0xCA3 SWAP1 PUSH2 0x1410 JUMP JUMPDEST PUSH1 0x40 MLOAD DUP1 SWAP2 SUB SWAP1 REVERT JUMPDEST POP JUMPDEST POP POP POP POP POP POP JUMP JUMPDEST PUSH1 0x0 DUP1 DUP3 PUSH20 0xFFFFFFFFFFFFFFFFFFFFFFFFFFFFFFFFFFFFFFFF AND EXTCODESIZE GT SWAP1 POP SWAP2 SWAP1 POP JUMP JUMPDEST PUSH1 0x0 PUSH2 0xCEC PUSH2 0xCE7 DUP5 PUSH2 0x1519 JUMP JUMPDEST PUSH2 0x14F4 JUMP JUMPDEST SWAP1 POP DUP3 DUP2 MSTORE PUSH1 0x20 DUP2 ADD DUP5 DUP5 DUP5 ADD GT ISZERO PUSH2 0xD08 JUMPI PUSH2 0xD07 PUSH2 0x17B1 JUMP JUMPDEST JUMPDEST PUSH2 0xD13 DUP5 DUP3 DUP6 PUSH2 0x1680 JUMP JUMPDEST POP SWAP4 SWAP3 POP POP POP JUMP JUMPDEST PUSH1 0x0 DUP2 CALLDATALOAD SWAP1 POP PUSH2 0xD2A DUP2 PUSH2 0x1A9D JUMP JUMPDEST SWAP3 SWAP2 POP POP JUMP JUMPDEST PUSH1 0x0 DUP2 MLOAD SWAP1 POP PUSH2 0xD3F DUP2 PUSH2 0x1AB4 JUMP JUMPDEST SWAP3 SWAP2 POP POP JUMP JUMPDEST PUSH1 0x0 DUP2 MLOAD SWAP1 POP PUSH2 0xD54 DUP2 PUSH2 0x1ACB JUMP JUMPDEST SWAP3 SWAP2 POP POP JUMP JUMPDEST PUSH1 0x0 DUP1 DUP4 PUSH1 0x1F DUP5 ADD SLT PUSH2 0xD70 JUMPI PUSH2 0xD6F PUSH2 0x17A7 JUMP JUMPDEST JUMPDEST DUP3 CALLDATALOAD SWAP1 POP PUSH8 0xFFFFFFFFFFFFFFFF DUP2 GT ISZERO PUSH2 0xD8D JUMPI PUSH2 0xD8C PUSH2 0x17A2 JUMP JUMPDEST JUMPDEST PUSH1 0x20 DUP4 ADD SWAP2 POP DUP4 PUSH1 0x1 DUP3 MUL DUP4 ADD GT ISZERO PUSH2 0xDA9 JUMPI PUSH2 0xDA8 PUSH2 0x17AC JUMP JUMPDEST JUMPDEST SWAP3 POP SWAP3 SWAP1 POP JUMP JUMPDEST PUSH1 0x0 DUP3 PUSH1 0x1F DUP4 ADD SLT PUSH2 0xDC5 JUMPI PUSH2 0xDC4 PUSH2 0x17A7 JUMP JUMPDEST JUMPDEST DUP2 CALLDATALOAD PUSH2 0xDD5 DUP5 DUP3 PUSH1 0x20 DUP7 ADD PUSH2 0xCD9 JUMP JUMPDEST SWAP2 POP POP SWAP3 SWAP2 POP POP JUMP JUMPDEST PUSH1 0x0 DUP2 CALLDATALOAD SWAP1 POP PUSH2 0xDED DUP2 PUSH2 0x1AE2 JUMP JUMPDEST SWAP3 SWAP2 POP POP JUMP JUMPDEST PUSH1 0x0 DUP1 PUSH1 0x0 DUP1 PUSH1 0x0 DUP1 PUSH1 0xA0 DUP8 DUP10 SUB SLT ISZERO PUSH2 0xE10 JUMPI PUSH2 0xE0F PUSH2 0x17BB JUMP JUMPDEST JUMPDEST PUSH1 0x0 PUSH2 0xE1E DUP10 DUP3 DUP11 ADD PUSH2 0xD1B JUMP JUMPDEST SWAP7 POP POP PUSH1 0x20 PUSH2 0xE2F DUP10 DUP3 DUP11 ADD PUSH2 0xD1B JUMP JUMPDEST SWAP6 POP POP PUSH1 0x40 PUSH2 0xE40 DUP10 DUP3 DUP11 ADD PUSH2 0xDDE JUMP JUMPDEST SWAP5 POP POP PUSH1 0x60 PUSH2 0xE51 DUP10 DUP3 DUP11 ADD PUSH2 0xDDE JUMP JUMPDEST SWAP4 POP POP PUSH1 0x80 DUP8 ADD CALLDATALOAD PUSH8 0xFFFFFFFFFFFFFFFF DUP2 GT ISZERO PUSH2 0xE72 JUMPI PUSH2 0xE71 PUSH2 0x17B6 JUMP JUMPDEST JUMPDEST PUSH2 0xE7E DUP10 DUP3 DUP11 ADD PUSH2 0xD5A JUMP JUMPDEST SWAP3 POP SWAP3 POP POP SWAP3 SWAP6 POP SWAP3 SWAP6 POP SWAP3 SWAP6 JUMP JUMPDEST PUSH1 0x0 DUP1 PUSH1 0x0 DUP1 PUSH1 0x0 PUSH1 0xA0 DUP7 DUP9 SUB SLT ISZERO PUSH2 0xEA9 JUMPI PUSH2 0xEA8 PUSH2 0x17BB JUMP JUMPDEST JUMPDEST PUSH1 0x0 PUSH2 0xEB7 DUP9 DUP3 DUP10 ADD PUSH2 0xD1B JUMP JUMPDEST SWAP6 POP POP PUSH1 0x20 PUSH2 0xEC8 DUP9 DUP3 DUP10 ADD PUSH2 0xD1B JUMP JUMPDEST SWAP5 POP POP PUSH1 0x40 PUSH2 0xED9 DUP9 DUP3 DUP10 ADD PUSH2 0xDDE JUMP JUMPDEST SWAP4 POP POP PUSH1 0x60 PUSH2 0xEEA DUP9 DUP3 DUP10 ADD PUSH2 0xDDE JUMP JUMPDEST SWAP3 POP POP PUSH1 0x80 DUP7 ADD CALLDATALOAD PUSH8 0xFFFFFFFFFFFFFFFF DUP2 GT ISZERO PUSH2 0xF0B JUMPI PUSH2 0xF0A PUSH2 0x17B6 JUMP JUMPDEST JUMPDEST PUSH2 0xF17 DUP9 DUP3 DUP10 ADD PUSH2 0xDB0 JUMP JUMPDEST SWAP2 POP POP SWAP3 SWAP6 POP SWAP3 SWAP6 SWAP1 SWAP4 POP JUMP JUMPDEST PUSH1 0x0 DUP1 PUSH1 0x40 DUP4 DUP6 SUB SLT ISZERO PUSH2 0xF3B JUMPI PUSH2 0xF3A PUSH2 0x17BB JUMP JUMPDEST JUMPDEST PUSH1 0x0 PUSH2 0xF49 DUP6 DUP3 DUP7 ADD PUSH2 0xD1B JUMP JUMPDEST SWAP3 POP POP PUSH1 0x20 PUSH2 0xF5A DUP6 DUP3 DUP7 ADD PUSH2 0xDDE JUMP JUMPDEST SWAP2 POP POP SWAP3 POP SWAP3 SWAP1 POP JUMP JUMPDEST PUSH1 0x0 PUSH1 0x20 DUP3 DUP5 SUB SLT ISZERO PUSH2 0xF7A JUMPI PUSH2 0xF79 PUSH2 0x17BB JUMP JUMPDEST JUMPDEST PUSH1 0x0 PUSH2 0xF88 DUP5 DUP3 DUP6 ADD PUSH2 0xD30 JUMP JUMPDEST SWAP2 POP POP SWAP3 SWAP2 POP POP JUMP JUMPDEST PUSH1 0x0 PUSH1 0x20 DUP3 DUP5 SUB SLT ISZERO PUSH2 0xFA7 JUMPI PUSH2 0xFA6 PUSH2 0x17BB JUMP JUMPDEST JUMPDEST PUSH1 0x0 PUSH2 0xFB5 DUP5 DUP3 DUP6 ADD PUSH2 0xD45 JUMP JUMPDEST SWAP2 POP POP SWAP3 SWAP2 POP POP JUMP JUMPDEST PUSH1 0x0 PUSH1 0x20 DUP3 DUP5 SUB SLT ISZERO PUSH2 0xFD4 JUMPI PUSH2 0xFD3 PUSH2 0x17BB JUMP JUMPDEST JUMPDEST PUSH1 0x0 PUSH2 0xFE2 DUP5 DUP3 DUP6 ADD PUSH2 0xDDE JUMP JUMPDEST SWAP2 POP POP SWAP3 SWAP2 POP POP JUMP JUMPDEST PUSH1 0x0 DUP1 PUSH1 0x40 DUP4 DUP6 SUB SLT ISZERO PUSH2 0x1002 JUMPI PUSH2 0x1001 PUSH2 0x17BB JUMP JUMPDEST JUMPDEST PUSH1 0x0 PUSH2 0x1010 DUP6 DUP3 DUP7 ADD PUSH2 0xDDE JUMP JUMPDEST SWAP3 POP POP PUSH1 0x20 PUSH2 0x1021 DUP6 DUP3 DUP7 ADD PUSH2 0xDDE JUMP JUMPDEST SWAP2 POP POP SWAP3 POP SWAP3 SWAP1 POP JUMP JUMPDEST PUSH1 0x0 DUP1 PUSH1 0x0 DUP1 PUSH1 0x80 DUP6 DUP8 SUB SLT ISZERO PUSH2 0x1045 JUMPI PUSH2 0x1044 PUSH2 0x17BB JUMP JUMPDEST JUMPDEST PUSH1 0x0 PUSH2 0x1053 DUP8 DUP3 DUP9 ADD PUSH2 0xDDE JUMP JUMPDEST SWAP5 POP POP PUSH1 0x20 PUSH2 0x1064 DUP8 DUP3 DUP9 ADD PUSH2 0xDDE JUMP JUMPDEST SWAP4 POP POP PUSH1 0x40 PUSH2 0x1075 DUP8 DUP3 DUP9 ADD PUSH2 0xDDE JUMP JUMPDEST SWAP3 POP POP PUSH1 0x60 PUSH2 0x1086 DUP8 DUP3 DUP9 ADD PUSH2 0xD1B JUMP JUMPDEST SWAP2 POP POP SWAP3 SWAP6 SWAP2 SWAP5 POP SWAP3 POP JUMP JUMPDEST PUSH2 0x109B DUP2 PUSH2 0x160C JUMP JUMPDEST DUP3 MSTORE POP POP JUMP JUMPDEST PUSH2 0x10AA DUP2 PUSH2 0x161E JUMP JUMPDEST DUP3 MSTORE POP POP JUMP JUMPDEST PUSH2 0x10B9 DUP2 PUSH2 0x162A JUMP JUMPDEST DUP3 MSTORE POP POP JUMP JUMPDEST PUSH1 0x0 PUSH2 0x10CB DUP4 DUP6 PUSH2 0x1560 JUMP JUMPDEST SWAP4 POP PUSH2 0x10D8 DUP4 DUP6 DUP5 PUSH2 0x1680 JUMP JUMPDEST PUSH2 0x10E1 DUP4 PUSH2 0x17C0 JUMP JUMPDEST DUP5 ADD SWAP1 POP SWAP4 SWAP3 POP POP POP JUMP JUMPDEST PUSH1 0x0 PUSH2 0x10F7 DUP3 PUSH2 0x154A JUMP JUMPDEST PUSH2 0x1101 DUP2 DUP6 PUSH2 0x1560 JUMP JUMPDEST SWAP4 POP PUSH2 0x1111 DUP2 DUP6 PUSH1 0x20 DUP7 ADD PUSH2 0x168F JUMP JUMPDEST PUSH2 0x111A DUP2 PUSH2 0x17C0 JUMP JUMPDEST DUP5 ADD SWAP2 POP POP SWAP3 SWAP2 POP POP JUMP JUMPDEST PUSH1 0x0 PUSH2 0x1130 DUP3 PUSH2 0x1555 JUMP JUMPDEST PUSH2 0x113A DUP2 DUP6 PUSH2 0x1571 JUMP JUMPDEST SWAP4 POP PUSH2 0x114A DUP2 DUP6 PUSH1 0x20 DUP7 ADD PUSH2 0x168F JUMP JUMPDEST PUSH2 0x1153 DUP2 PUSH2 0x17C0 JUMP JUMPDEST DUP5 ADD SWAP2 POP POP SWAP3 SWAP2 POP POP JUMP JUMPDEST PUSH1 0x0 PUSH2 0x116B PUSH1 0x34 DUP4 PUSH2 0x1571 JUMP JUMPDEST SWAP2 POP PUSH2 0x1176 DUP3 PUSH2 0x17DE JUMP JUMPDEST PUSH1 0x40 DUP3 ADD SWAP1 POP SWAP2 SWAP1 POP JUMP JUMPDEST PUSH1 0x0 PUSH2 0x118E PUSH1 0x2F DUP4 PUSH2 0x1571 JUMP JUMPDEST SWAP2 POP PUSH2 0x1199 DUP3 PUSH2 0x182D JUMP JUMPDEST PUSH1 0x40 DUP3 ADD SWAP1 POP SWAP2 SWAP1 POP JUMP JUMPDEST PUSH1 0x0 PUSH2 0x11B1 PUSH1 0x28 DUP4 PUSH2 0x1571 JUMP JUMPDEST SWAP2 POP PUSH2 0x11BC DUP3 PUSH2 0x187C JUMP JUMPDEST PUSH1 0x40 DUP3 ADD SWAP1 POP SWAP2 SWAP1 POP JUMP JUMPDEST PUSH1 0x0 PUSH2 0x11D4 PUSH1 0x2A DUP4 PUSH2 0x1571 JUMP JUMPDEST SWAP2 POP PUSH2 0x11DF DUP3 PUSH2 0x18CB JUMP JUMPDEST PUSH1 0x40 DUP3 ADD SWAP1 POP SWAP2 SWAP1 POP JUMP JUMPDEST PUSH1 0x0 PUSH2 0x11F7 PUSH1 0x25 DUP4 PUSH2 0x1571 JUMP JUMPDEST SWAP2 POP PUSH2 0x1202 DUP3 PUSH2 0x191A JUMP JUMPDEST PUSH1 0x40 DUP3 ADD SWAP1 POP SWAP2 SWAP1 POP JUMP JUMPDEST PUSH1 0x0 PUSH2 0x121A PUSH1 0x2A DUP4 PUSH2 0x1571 JUMP JUMPDEST SWAP2 POP PUSH2 0x1225 DUP3 PUSH2 0x1969 JUMP JUMPDEST PUSH1 0x40 DUP3 ADD SWAP1 POP SWAP2 SWAP1 POP JUMP JUMPDEST PUSH1 0x0 PUSH2 0x123D PUSH1 0x21 DUP4 PUSH2 0x1571 JUMP JUMPDEST SWAP2 POP PUSH2 0x1248 DUP3 PUSH2 0x19B8 JUMP JUMPDEST PUSH1 0x40 DUP3 ADD SWAP1 POP SWAP2 SWAP1 POP JUMP JUMPDEST PUSH2 0x125C DUP2 PUSH2 0x1676 JUMP JUMPDEST DUP3 MSTORE POP POP JUMP JUMPDEST PUSH1 0x0 PUSH1 0x20 DUP3 ADD SWAP1 POP PUSH2 0x1277 PUSH1 0x0 DUP4 ADD DUP5 PUSH2 0x1092 JUMP JUMPDEST SWAP3 SWAP2 POP POP JUMP JUMPDEST PUSH1 0x0 PUSH1 0x60 DUP3 ADD SWAP1 POP PUSH2 0x1292 PUSH1 0x0 DUP4 ADD DUP7 PUSH2 0x1092 JUMP JUMPDEST PUSH2 0x129F PUSH1 0x20 DUP4 ADD DUP6 PUSH2 0x1092 JUMP JUMPDEST PUSH2 0x12AC PUSH1 0x40 DUP4 ADD DUP5 PUSH2 0x1253 JUMP JUMPDEST SWAP5 SWAP4 POP POP POP POP JUMP JUMPDEST PUSH1 0x0 PUSH1 0xC0 DUP3 ADD SWAP1 POP PUSH2 0x12C9 PUSH1 0x0 DUP4 ADD DUP11 PUSH2 0x1092 JUMP JUMPDEST PUSH2 0x12D6 PUSH1 0x20 DUP4 ADD DUP10 PUSH2 0x1092 JUMP JUMPDEST PUSH2 0x12E3 PUSH1 0x40 DUP4 ADD DUP9 PUSH2 0x1253 JUMP JUMPDEST PUSH2 0x12F0 PUSH1 0x60 DUP4 ADD DUP8 PUSH2 0x1253 JUMP JUMPDEST DUP2 DUP2 SUB PUSH1 0x80 DUP4 ADD MSTORE PUSH2 0x1303 DUP2 DUP6 DUP8 PUSH2 0x10BF JUMP JUMPDEST SWAP1 POP PUSH2 0x1312 PUSH1 0xA0 DUP4 ADD DUP5 PUSH2 0x1253 JUMP JUMPDEST SWAP9 SWAP8 POP POP POP POP POP POP POP POP JUMP JUMPDEST PUSH1 0x0 PUSH1 0xA0 DUP3 ADD SWAP1 POP PUSH2 0x1333 PUSH1 0x0 DUP4 ADD DUP9 PUSH2 0x1092 JUMP JUMPDEST PUSH2 0x1340 PUSH1 0x20 DUP4 ADD DUP8 PUSH2 0x1092 JUMP JUMPDEST PUSH2 0x134D PUSH1 0x40 DUP4 ADD DUP7 PUSH2 0x1253 JUMP JUMPDEST PUSH2 0x135A PUSH1 0x60 DUP4 ADD DUP6 PUSH2 0x1253 JUMP JUMPDEST DUP2 DUP2 SUB PUSH1 0x80 DUP4 ADD MSTORE PUSH2 0x136C DUP2 DUP5 PUSH2 0x10EC JUMP JUMPDEST SWAP1 POP SWAP7 SWAP6 POP POP POP POP POP POP JUMP JUMPDEST PUSH1 0x0 PUSH1 0x20 DUP3 ADD SWAP1 POP PUSH2 0x138D PUSH1 0x0 DUP4 ADD DUP5 PUSH2 0x10A1 JUMP JUMPDEST SWAP3 SWAP2 POP POP JUMP JUMPDEST PUSH1 0x0 PUSH1 0x20 DUP3 ADD SWAP1 POP PUSH2 0x13A8 PUSH1 0x0 DUP4 ADD DUP5 PUSH2 0x10B0 JUMP JUMPDEST SWAP3 SWAP2 POP POP JUMP JUMPDEST PUSH1 0x0 PUSH1 0x20 DUP3 ADD SWAP1 POP DUP2 DUP2 SUB PUSH1 0x0 DUP4 ADD MSTORE PUSH2 0x13C8 DUP2 DUP5 PUSH2 0x1125 JUMP JUMPDEST SWAP1 POP SWAP3 SWAP2 POP POP JUMP JUMPDEST PUSH1 0x0 PUSH1 0x20 DUP3 ADD SWAP1 POP DUP2 DUP2 SUB PUSH1 0x0 DUP4 ADD MSTORE PUSH2 0x13E9 DUP2 PUSH2 0x115E JUMP JUMPDEST SWAP1 POP SWAP2 SWAP1 POP JUMP JUMPDEST PUSH1 0x0 PUSH1 0x20 DUP3 ADD SWAP1 POP DUP2 DUP2 SUB PUSH1 0x0 DUP4 ADD MSTORE PUSH2 0x1409 DUP2 PUSH2 0x1181 JUMP JUMPDEST SWAP1 POP SWAP2 SWAP1 POP JUMP JUMPDEST PUSH1 0x0 PUSH1 0x20 DUP3 ADD SWAP1 POP DUP2 DUP2 SUB PUSH1 0x0 DUP4 ADD MSTORE PUSH2 0x1429 DUP2 PUSH2 0x11A4 JUMP JUMPDEST SWAP1 POP SWAP2 SWAP1 POP JUMP JUMPDEST PUSH1 0x0 PUSH1 0x20 DUP3 ADD SWAP1 POP DUP2 DUP2 SUB PUSH1 0x0 DUP4 ADD MSTORE PUSH2 0x1449 DUP2 PUSH2 0x11C7 JUMP JUMPDEST SWAP1 POP SWAP2 SWAP1 POP JUMP JUMPDEST PUSH1 0x0 PUSH1 0x20 DUP3 ADD SWAP1 POP DUP2 DUP2 SUB PUSH1 0x0 DUP4 ADD MSTORE PUSH2 0x1469 DUP2 PUSH2 0x11EA JUMP JUMPDEST SWAP1 POP SWAP2 SWAP1 POP JUMP JUMPDEST PUSH1 0x0 PUSH1 0x20 DUP3 ADD SWAP1 POP DUP2 DUP2 SUB PUSH1 0x0 DUP4 ADD MSTORE PUSH2 0x1489 DUP2 PUSH2 0x120D JUMP JUMPDEST SWAP1 POP SWAP2 SWAP1 POP JUMP JUMPDEST PUSH1 0x0 PUSH1 0x20 DUP3 ADD SWAP1 POP DUP2 DUP2 SUB PUSH1 0x0 DUP4 ADD MSTORE PUSH2 0x14A9 DUP2 PUSH2 0x1230 JUMP JUMPDEST SWAP1 POP SWAP2 SWAP1 POP JUMP JUMPDEST PUSH1 0x0 PUSH1 0x20 DUP3 ADD SWAP1 POP PUSH2 0x14C5 PUSH1 0x0 DUP4 ADD DUP5 PUSH2 0x1253 JUMP JUMPDEST SWAP3 SWAP2 POP POP JUMP JUMPDEST PUSH1 0x0 PUSH1 0x40 DUP3 ADD SWAP1 POP PUSH2 0x14E0 PUSH1 0x0 DUP4 ADD DUP6 PUSH2 0x1253 JUMP JUMPDEST PUSH2 0x14ED PUSH1 0x20 DUP4 ADD DUP5 PUSH2 0x1253 JUMP JUMPDEST SWAP4 SWAP3 POP POP POP JUMP JUMPDEST PUSH1 0x0 PUSH2 0x14FE PUSH2 0x150F JUMP JUMPDEST SWAP1 POP PUSH2 0x150A DUP3 DUP3 PUSH2 0x16C2 JUMP JUMPDEST SWAP2 SWAP1 POP JUMP JUMPDEST PUSH1 0x0 PUSH1 0x40 MLOAD SWAP1 POP SWAP1 JUMP JUMPDEST PUSH1 0x0 PUSH8 0xFFFFFFFFFFFFFFFF DUP3 GT ISZERO PUSH2 0x1534 JUMPI PUSH2 0x1533 PUSH2 0x1751 JUMP JUMPDEST JUMPDEST PUSH2 0x153D DUP3 PUSH2 0x17C0 JUMP JUMPDEST SWAP1 POP PUSH1 0x20 DUP2 ADD SWAP1 POP SWAP2 SWAP1 POP JUMP JUMPDEST PUSH1 0x0 DUP2 MLOAD SWAP1 POP SWAP2 SWAP1 POP JUMP JUMPDEST PUSH1 0x0 DUP2 MLOAD SWAP1 POP SWAP2 SWAP1 POP JUMP JUMPDEST PUSH1 0x0 DUP3 DUP3 MSTORE PUSH1 0x20 DUP3 ADD SWAP1 POP SWAP3 SWAP2 POP POP JUMP JUMPDEST PUSH1 0x0 DUP3 DUP3 MSTORE PUSH1 0x20 DUP3 ADD SWAP1 POP SWAP3 SWAP2 POP POP JUMP JUMPDEST PUSH1 0x0 PUSH2 0x158D DUP3 PUSH2 0x1676 JUMP JUMPDEST SWAP2 POP PUSH2 0x1598 DUP4 PUSH2 0x1676 JUMP JUMPDEST SWAP3 POP DUP3 PUSH32 0xFFFFFFFFFFFFFFFFFFFFFFFFFFFFFFFFFFFFFFFFFFFFFFFFFFFFFFFFFFFFFFFF SUB DUP3 GT ISZERO PUSH2 0x15CD JUMPI PUSH2 0x15CC PUSH2 0x16F3 JUMP JUMPDEST JUMPDEST DUP3 DUP3 ADD SWAP1 POP SWAP3 SWAP2 POP POP JUMP JUMPDEST PUSH1 0x0 PUSH2 0x15E3 DUP3 PUSH2 0x1676 JUMP JUMPDEST SWAP2 POP PUSH2 0x15EE DUP4 PUSH2 0x1676 JUMP JUMPDEST SWAP3 POP DUP3 DUP3 LT ISZERO PUSH2 0x1601 JUMPI PUSH2 0x1600 PUSH2 0x16F3 JUMP JUMPDEST JUMPDEST DUP3 DUP3 SUB SWAP1 POP SWAP3 SWAP2 POP POP JUMP JUMPDEST PUSH1 0x0 PUSH2 0x1617 DUP3 PUSH2 0x1656 JUMP JUMPDEST SWAP1 POP SWAP2 SWAP1 POP JUMP JUMPDEST PUSH1 0x0 DUP2 ISZERO ISZERO SWAP1 POP SWAP2 SWAP1 POP JUMP JUMPDEST PUSH1 0x0 PUSH32 0xFFFFFFFF00000000000000000000000000000000000000000000000000000000 DUP3 AND SWAP1 POP SWAP2 SWAP1 POP JUMP JUMPDEST PUSH1 0x0 PUSH20 0xFFFFFFFFFFFFFFFFFFFFFFFFFFFFFFFFFFFFFFFF DUP3 AND SWAP1 POP SWAP2 SWAP1 POP JUMP JUMPDEST PUSH1 0x0 DUP2 SWAP1 POP SWAP2 SWAP1 POP JUMP JUMPDEST DUP3 DUP2 DUP4 CALLDATACOPY PUSH1 0x0 DUP4 DUP4 ADD MSTORE POP POP POP JUMP JUMPDEST PUSH1 0x0 JUMPDEST DUP4 DUP2 LT ISZERO PUSH2 0x16AD JUMPI DUP1 DUP3 ADD MLOAD DUP2 DUP5 ADD MSTORE PUSH1 0x20 DUP2 ADD SWAP1 POP PUSH2 0x1692 JUMP JUMPDEST DUP4 DUP2 GT ISZERO PUSH2 0x16BC JUMPI PUSH1 0x0 DUP5 DUP5 ADD MSTORE JUMPDEST POP POP POP POP JUMP JUMPDEST PUSH2 0x16CB DUP3 PUSH2 0x17C0 JUMP JUMPDEST DUP2 ADD DUP2 DUP2 LT PUSH8 0xFFFFFFFFFFFFFFFF DUP3 GT OR ISZERO PUSH2 0x16EA JUMPI PUSH2 0x16E9 PUSH2 0x1751 JUMP JUMPDEST JUMPDEST DUP1 PUSH1 0x40 MSTORE POP POP POP JUMP JUMPDEST PUSH32 0x4E487B7100000000000000000000000000000000000000000000000000000000 PUSH1 0x0 MSTORE PUSH1 0x11 PUSH1 0x4 MSTORE PUSH1 0x24 PUSH1 0x0 REVERT JUMPDEST PUSH32 0x4E487B7100000000000000000000000000000000000000000000000000000000 PUSH1 0x0 MSTORE PUSH1 0x32 PUSH1 0x4 MSTORE PUSH1 0x24 PUSH1 0x0 REVERT JUMPDEST PUSH32 0x4E487B7100000000000000000000000000000000000000000000000000000000 PUSH1 0x0 MSTORE PUSH1 0x41 PUSH1 0x4 MSTORE PUSH1 0x24 PUSH1 0x0 REVERT JUMPDEST PUSH1 0x0 PUSH1 0x3 RETURNDATASIZE GT ISZERO PUSH2 0x179F JUMPI PUSH1 0x4 PUSH1 0x0 DUP1 RETURNDATACOPY PUSH2 0x179C PUSH1 0x0 MLOAD PUSH2 0x17D1 JUMP JUMPDEST SWAP1 POP JUMPDEST SWAP1 JUMP JUMPDEST PUSH1 0x0 DUP1 REVERT JUMPDEST PUSH1 0x0 DUP1 REVERT JUMPDEST PUSH1 0x0 DUP1 REVERT JUMPDEST PUSH1 0x0 DUP1 REVERT JUMPDEST PUSH1 0x0 DUP1 REVERT JUMPDEST PUSH1 0x0 DUP1 REVERT JUMPDEST PUSH1 0x0 PUSH1 0x1F NOT PUSH1 0x1F DUP4 ADD AND SWAP1 POP SWAP2 SWAP1 POP JUMP JUMPDEST PUSH1 0x0 DUP2 PUSH1 0xE0 SHR SWAP1 POP SWAP2 SWAP1 POP JUMP JUMPDEST PUSH32 0x455243313135353A207472616E7366657220746F206E6F6E2045524331313535 PUSH1 0x0 DUP3 ADD MSTORE PUSH32 0x526563656976657220696D706C656D656E746572000000000000000000000000 PUSH1 0x20 DUP3 ADD MSTORE POP JUMP JUMPDEST PUSH32 0x455243313135353A2063616C6C6572206973206E6F7420746F6B656E206F776E PUSH1 0x0 DUP3 ADD MSTORE PUSH32 0x6572206E6F7220617070726F7665640000000000000000000000000000000000 PUSH1 0x20 DUP3 ADD MSTORE POP JUMP JUMPDEST PUSH32 0x455243313135353A204552433131353552656365697665722072656A65637465 PUSH1 0x0 DUP3 ADD MSTORE PUSH32 0x6420746F6B656E73000000000000000000000000000000000000000000000000 PUSH1 0x20 DUP3 ADD MSTORE POP JUMP JUMPDEST PUSH32 0x455243313135353A2061646472657373207A65726F206973206E6F7420612076 PUSH1 0x0 DUP3 ADD MSTORE PUSH32 0x616C6964206F776E657200000000000000000000000000000000000000000000 PUSH1 0x20 DUP3 ADD MSTORE POP JUMP JUMPDEST PUSH32 0x455243313135353A207472616E7366657220746F20746865207A65726F206164 PUSH1 0x0 DUP3 ADD MSTORE PUSH32 0x6472657373000000000000000000000000000000000000000000000000000000 PUSH1 0x20 DUP3 ADD MSTORE POP JUMP JUMPDEST PUSH32 0x455243313135353A20696E73756666696369656E742062616C616E636520666F PUSH1 0x0 DUP3 ADD MSTORE PUSH32 0x72207472616E7366657200000000000000000000000000000000000000000000 PUSH1 0x20 DUP3 ADD MSTORE POP JUMP JUMPDEST PUSH32 0x455243313135353A206D696E7420746F20746865207A65726F20616464726573 PUSH1 0x0 DUP3 ADD MSTORE PUSH32 0x7300000000000000000000000000000000000000000000000000000000000000 PUSH1 0x20 DUP3 ADD MSTORE POP JUMP JUMPDEST PUSH1 0x0 PUSH1 0x44 RETURNDATASIZE LT ISZERO PUSH2 0x1A17 JUMPI PUSH2 0x1A9A JUMP JUMPDEST PUSH2 0x1A1F PUSH2 0x150F JUMP JUMPDEST PUSH1 0x4 RETURNDATASIZE SUB PUSH1 0x4 DUP3 RETURNDATACOPY DUP1 MLOAD RETURNDATASIZE PUSH1 0x24 DUP3 ADD GT PUSH8 0xFFFFFFFFFFFFFFFF DUP3 GT OR ISZERO PUSH2 0x1A47 JUMPI POP POP PUSH2 0x1A9A JUMP JUMPDEST DUP1 DUP3 ADD DUP1 MLOAD PUSH8 0xFFFFFFFFFFFFFFFF DUP2 GT ISZERO PUSH2 0x1A65 JUMPI POP POP POP POP PUSH2 0x1A9A JUMP JUMPDEST DUP1 PUSH1 0x20 DUP4 ADD ADD PUSH1 0x4 RETURNDATASIZE SUB DUP6 ADD DUP2 GT ISZERO PUSH2 0x1A82 JUMPI POP POP POP POP POP PUSH2 0x1A9A JUMP JUMPDEST PUSH2 0x1A91 DUP3 PUSH1 0x20 ADD DUP6 ADD DUP7 PUSH2 0x16C2 JUMP JUMPDEST DUP3 SWAP6 POP POP POP POP POP POP JUMPDEST SWAP1 JUMP JUMPDEST PUSH2 0x1AA6 DUP2 PUSH2 0x160C JUMP JUMPDEST DUP2 EQ PUSH2 0x1AB1 JUMPI PUSH1 0x0 DUP1 REVERT JUMPDEST POP JUMP JUMPDEST PUSH2 0x1ABD DUP2 PUSH2 0x161E JUMP JUMPDEST DUP2 EQ PUSH2 0x1AC8 JUMPI PUSH1 0x0 DUP1 REVERT JUMPDEST POP JUMP JUMPDEST PUSH2 0x1AD4 DUP2 PUSH2 0x162A JUMP JUMPDEST DUP2 EQ PUSH2 0x1ADF JUMPI PUSH1 0x0 DUP1 REVERT JUMPDEST POP JUMP JUMPDEST PUSH2 0x1AEB DUP2 PUSH2 0x1676 JUMP JUMPDEST DUP2 EQ PUSH2 0x1AF6 JUMPI PUSH1 0x0 DUP1 REVERT JUMPDEST POP JUMP INVALID LOG2 PUSH5 0x6970667358 0x22 SLT KECCAK256 0xE7 0xAA 0xE7 SUB DUP15 0xA5 0x5D 0xDC 0xB3 0xC5 SLT 0x5E 0x2D JUMP 0x5E 0xE1 PUSH32 0x49716239A3C7E77661F85EB84BE96164736F6C63430008070033000000000000 "
				},
				"gasEstimates": {
					"creation": {
						"codeDepositCost": "1391800",
						"executionCost": "1451",
						"totalCost": "1393251"
					},
					"external": {
						"CouponMint(uint256,uint256)": "infinite",
						"amount(uint256)": "infinite",
						"balanceOf(address,uint256)": "infinite",
						"buyCoupon(uint256,uint256,uint256,address)": "infinite",
						"onERC1155Received(address,address,uint256,uint256,bytes)": "infinite",
						"safeTransferFrom(address,address,uint256,uint256,bytes)": "infinite",
						"seller(uint256)": "2887"
					},
					"internal": {
						"_reduceAmount(uint256,uint256)": "infinite"
					}
				},
				"methodIdentifiers": {
					"CouponMint(uint256,uint256)": "57e87575",
					"amount(uint256)": "8b0d0258",
					"balanceOf(address,uint256)": "00fdd58e",
					"buyCoupon(uint256,uint256,uint256,address)": "242fd022",
					"onERC1155Received(address,address,uint256,uint256,bytes)": "f23a6e61",
					"safeTransferFrom(address,address,uint256,uint256,bytes)": "f242432a",
					"seller(uint256)": "aacdfe6f"
				}
			},
			"storageLayout": {
				"storage": [
					{
						"astId": 58,
						"contract": "contracts/Coupon.sol:CouponMarket",
						"label": "_balances",
						"offset": 0,
						"slot": "0",
						"type": "t_mapping(t_uint256,t_mapping(t_address,t_uint256))"
					},
					{
						"astId": 64,
						"contract": "contracts/Coupon.sol:CouponMarket",
						"label": "_operatorApprovals",
						"offset": 0,
						"slot": "1",
						"type": "t_mapping(t_address,t_mapping(t_address,t_bool))"
					},
					{
						"astId": 648,
						"contract": "contracts/Coupon.sol:CouponMarket",
						"label": "_seller",
						"offset": 0,
						"slot": "2",
						"type": "t_mapping(t_uint256,t_address)"
					},
					{
						"astId": 652,
						"contract": "contracts/Coupon.sol:CouponMarket",
						"label": "_amount",
						"offset": 0,
						"slot": "3",
						"type": "t_mapping(t_uint256,t_uint256)"
					}
				],
				"types": {
					"t_address": {
						"encoding": "inplace",
						"label": "address",
						"numberOfBytes": "20"
					},
					"t_bool": {
						"encoding": "inplace",
						"label": "bool",
						"numberOfBytes": "1"
					},
					"t_mapping(t_address,t_bool)": {
						"encoding": "mapping",
						"key": "t_address",
						"label": "mapping(address => bool)",
						"numberOfBytes": "32",
						"value": "t_bool"
					},
					"t_mapping(t_address,t_mapping(t_address,t_bool))": {
						"encoding": "mapping",
						"key": "t_address",
						"label": "mapping(address => mapping(address => bool))",
						"numberOfBytes": "32",
						"value": "t_mapping(t_address,t_bool)"
					},
					"t_mapping(t_address,t_uint256)": {
						"encoding": "mapping",
						"key": "t_address",
						"label": "mapping(address => uint256)",
						"numberOfBytes": "32",
						"value": "t_uint256"
					},
					"t_mapping(t_uint256,t_address)": {
						"encoding": "mapping",
						"key": "t_uint256",
						"label": "mapping(uint256 => address)",
						"numberOfBytes": "32",
						"value": "t_address"
					},
					"t_mapping(t_uint256,t_mapping(t_address,t_uint256))": {
						"encoding": "mapping",
						"key": "t_uint256",
						"label": "mapping(uint256 => mapping(address => uint256))",
						"numberOfBytes": "32",
						"value": "t_mapping(t_address,t_uint256)"
					},
					"t_mapping(t_uint256,t_uint256)": {
						"encoding": "mapping",
						"key": "t_uint256",
						"label": "mapping(uint256 => uint256)",
						"numberOfBytes": "32",
						"value": "t_uint256"
					},
					"t_uint256": {
						"encoding": "inplace",
						"label": "uint256",
						"numberOfBytes": "32"
					}
				}
			},
			"userdoc": {
				"kind": "user",
				"methods": {},
				"version": 1
			}
		}
	}
}