{
	"contracts/CouponMarket.sol": {
		"CouponMarket": {
			"abi": [
				{
					"anonymous": false,
					"inputs": [
						{
							"indexed": false,
							"internalType": "address",
							"name": "operator",
							"type": "address"
						},
						{
							"indexed": false,
							"internalType": "address",
							"name": "from",
							"type": "address"
						},
						{
							"indexed": false,
							"internalType": "uint256",
							"name": "id",
							"type": "uint256"
						},
						{
							"indexed": false,
							"internalType": "uint256",
							"name": "value",
							"type": "uint256"
						},
						{
							"indexed": false,
							"internalType": "bytes",
							"name": "data",
							"type": "bytes"
						},
						{
							"indexed": false,
							"internalType": "uint256",
							"name": "gas",
							"type": "uint256"
						}
					],
					"name": "Received",
					"type": "event"
				},
				{
					"inputs": [
						{
							"internalType": "uint256",
							"name": "discount",
							"type": "uint256"
						}
					],
					"name": "amount",
					"outputs": [
						{
							"internalType": "uint256",
							"name": "",
							"type": "uint256"
						}
					],
					"stateMutability": "view",
					"type": "function"
				},
				{
					"inputs": [
						{
							"internalType": "uint256",
							"name": "discount",
							"type": "uint256"
						},
						{
							"internalType": "uint256",
							"name": "amount",
							"type": "uint256"
						},
						{
							"internalType": "address",
							"name": "ContractAddr",
							"type": "address"
						}
					],
					"name": "buyCoupon",
					"outputs": [
						{
							"internalType": "bool",
							"name": "",
							"type": "bool"
						}
					],
					"stateMutability": "payable",
					"type": "function"
				},
				{
					"inputs": [
						{
							"internalType": "address",
							"name": "operator",
							"type": "address"
						},
						{
							"internalType": "address",
							"name": "from",
							"type": "address"
						},
						{
							"internalType": "uint256",
							"name": "id",
							"type": "uint256"
						},
						{
							"internalType": "uint256",
							"name": "value",
							"type": "uint256"
						},
						{
							"internalType": "bytes",
							"name": "data",
							"type": "bytes"
						}
					],
					"name": "onERC1155Received",
					"outputs": [
						{
							"internalType": "bytes4",
							"name": "",
							"type": "bytes4"
						}
					],
					"stateMutability": "nonpayable",
					"type": "function"
				},
				{
					"inputs": [
						{
							"internalType": "uint256",
							"name": "discount",
							"type": "uint256"
						}
					],
					"name": "seller",
					"outputs": [
						{
							"internalType": "address",
							"name": "",
							"type": "address"
						}
					],
					"stateMutability": "view",
					"type": "function"
				}
			],
			"devdoc": {
				"kind": "dev",
				"methods": {},
				"version": 1
			},
			"evm": {
				"assembly": "    /* \"contracts/CouponMarket.sol\":375:2027  contract CouponMarket {... */\n  mstore(0x40, 0x80)\n  callvalue\n  dup1\n  iszero\n  tag_1\n  jumpi\n  0x00\n  dup1\n  revert\ntag_1:\n  pop\n  dataSize(sub_0)\n  dup1\n  dataOffset(sub_0)\n  0x00\n  codecopy\n  0x00\n  return\nstop\n\nsub_0: assembly {\n        /* \"contracts/CouponMarket.sol\":375:2027  contract CouponMarket {... */\n      mstore(0x40, 0x80)\n      jumpi(tag_1, lt(calldatasize, 0x04))\n      shr(0xe0, calldataload(0x00))\n      dup1\n      0x01edf85c\n      eq\n      tag_2\n      jumpi\n      dup1\n      0x8b0d0258\n      eq\n      tag_3\n      jumpi\n      dup1\n      0xaacdfe6f\n      eq\n      tag_4\n      jumpi\n      dup1\n      0xf23a6e61\n      eq\n      tag_5\n      jumpi\n    tag_1:\n      0x00\n      dup1\n      revert\n        /* \"contracts/CouponMarket.sol\":883:1387  function buyCoupon(... */\n    tag_2:\n      tag_6\n      0x04\n      dup1\n      calldatasize\n      sub\n      dup2\n      add\n      swap1\n      tag_7\n      swap2\n      swap1\n      tag_8\n      jump\t// in\n    tag_7:\n      tag_9\n      jump\t// in\n    tag_6:\n      mload(0x40)\n      tag_10\n      swap2\n      swap1\n      tag_11\n      jump\t// in\n    tag_10:\n      mload(0x40)\n      dup1\n      swap2\n      sub\n      swap1\n      return\n        /* \"contracts/CouponMarket.sol\":772:877  function amount(uint256 discount) public view returns (uint256) {... */\n    tag_3:\n      callvalue\n      dup1\n      iszero\n      tag_12\n      jumpi\n      0x00\n      dup1\n      revert\n    tag_12:\n      pop\n      tag_13\n      0x04\n      dup1\n      calldatasize\n      sub\n      dup2\n      add\n      swap1\n      tag_14\n      swap2\n      swap1\n      tag_15\n      jump\t// in\n    tag_14:\n      tag_16\n      jump\t// in\n    tag_13:\n      mload(0x40)\n      tag_17\n      swap2\n      swap1\n      tag_18\n      jump\t// in\n    tag_17:\n      mload(0x40)\n      dup1\n      swap2\n      sub\n      swap1\n      return\n        /* \"contracts/CouponMarket.sol\":661:766  function seller(uint256 discount) public view returns (address) {... */\n    tag_4:\n      callvalue\n      dup1\n      iszero\n      tag_19\n      jumpi\n      0x00\n      dup1\n      revert\n    tag_19:\n      pop\n      tag_20\n      0x04\n      dup1\n      calldatasize\n      sub\n      dup2\n      add\n      swap1\n      tag_21\n      swap2\n      swap1\n      tag_15\n      jump\t// in\n    tag_21:\n      tag_22\n      jump\t// in\n    tag_20:\n      mload(0x40)\n      tag_23\n      swap2\n      swap1\n      tag_24\n      jump\t// in\n    tag_23:\n      mload(0x40)\n      dup1\n      swap2\n      sub\n      swap1\n      return\n        /* \"contracts/CouponMarket.sol\":1527:2025  function onERC1155Received(... */\n    tag_5:\n      callvalue\n      dup1\n      iszero\n      tag_25\n      jumpi\n      0x00\n      dup1\n      revert\n    tag_25:\n      pop\n      tag_26\n      0x04\n      dup1\n      calldatasize\n      sub\n      dup2\n      add\n      swap1\n      tag_27\n      swap2\n      swap1\n      tag_28\n      jump\t// in\n    tag_27:\n      tag_29\n      jump\t// in\n    tag_26:\n      mload(0x40)\n      tag_30\n      swap2\n      swap1\n      tag_31\n      jump\t// in\n    tag_30:\n      mload(0x40)\n      dup1\n      swap2\n      sub\n      swap1\n      return\n        /* \"contracts/CouponMarket.sol\":883:1387  function buyCoupon(... */\n    tag_9:\n        /* \"contracts/CouponMarket.sol\":1012:1016  bool */\n      0x00\n        /* \"contracts/CouponMarket.sol\":1165:1177  ContractAddr */\n      dup2\n        /* \"contracts/CouponMarket.sol\":1158:1195  others(ContractAddr).safeTransferFrom */\n      0xffffffffffffffffffffffffffffffffffffffff\n      and\n      0xf242432a\n        /* \"contracts/CouponMarket.sol\":1217:1221  this */\n      address\n        /* \"contracts/CouponMarket.sol\":1236:1246  msg.sender */\n      caller\n        /* \"contracts/CouponMarket.sol\":1260:1268  discount */\n      dup8\n        /* \"contracts/CouponMarket.sol\":1282:1288  amount */\n      dup8\n        /* \"contracts/CouponMarket.sol\":1158:1318  others(ContractAddr).safeTransferFrom(... */\n      mload(0x40)\n      dup6\n      0xffffffff\n      and\n      0xe0\n      shl\n      dup2\n      mstore\n      0x04\n      add\n      tag_33\n      swap5\n      swap4\n      swap3\n      swap2\n      swap1\n      tag_34\n      jump\t// in\n    tag_33:\n      0x00\n      mload(0x40)\n      dup1\n      dup4\n      sub\n      dup2\n      0x00\n      dup8\n      dup1\n      extcodesize\n      iszero\n      dup1\n      iszero\n      tag_35\n      jumpi\n      0x00\n      dup1\n      revert\n    tag_35:\n      pop\n      gas\n      call\n      iszero\n      dup1\n      iszero\n      tag_37\n      jumpi\n      returndatasize\n      0x00\n      dup1\n      returndatacopy\n      revert(0x00, returndatasize)\n    tag_37:\n      pop\n      pop\n      pop\n      pop\n        /* \"contracts/CouponMarket.sol\":1328:1359  _reduceAmount(discount, amount) */\n      tag_38\n        /* \"contracts/CouponMarket.sol\":1342:1350  discount */\n      dup5\n        /* \"contracts/CouponMarket.sol\":1352:1358  amount */\n      dup5\n        /* \"contracts/CouponMarket.sol\":1328:1341  _reduceAmount */\n      tag_39\n        /* \"contracts/CouponMarket.sol\":1328:1359  _reduceAmount(discount, amount) */\n      jump\t// in\n    tag_38:\n        /* \"contracts/CouponMarket.sol\":1376:1380  true */\n      0x01\n        /* \"contracts/CouponMarket.sol\":1369:1380  return true */\n      swap1\n      pop\n        /* \"contracts/CouponMarket.sol\":883:1387  function buyCoupon(... */\n      swap4\n      swap3\n      pop\n      pop\n      pop\n      jump\t// out\n        /* \"contracts/CouponMarket.sol\":772:877  function amount(uint256 discount) public view returns (uint256) {... */\n    tag_16:\n        /* \"contracts/CouponMarket.sol\":827:834  uint256 */\n      0x00\n        /* \"contracts/CouponMarket.sol\":853:860  _amount */\n      0x01\n        /* \"contracts/CouponMarket.sol\":853:870  _amount[discount] */\n      0x00\n        /* \"contracts/CouponMarket.sol\":861:869  discount */\n      dup4\n        /* \"contracts/CouponMarket.sol\":853:870  _amount[discount] */\n      dup2\n      mstore\n      0x20\n      add\n      swap1\n      dup2\n      mstore\n      0x20\n      add\n      0x00\n      keccak256\n      sload\n        /* \"contracts/CouponMarket.sol\":846:870  return _amount[discount] */\n      swap1\n      pop\n        /* \"contracts/CouponMarket.sol\":772:877  function amount(uint256 discount) public view returns (uint256) {... */\n      swap2\n      swap1\n      pop\n      jump\t// out\n        /* \"contracts/CouponMarket.sol\":661:766  function seller(uint256 discount) public view returns (address) {... */\n    tag_22:\n        /* \"contracts/CouponMarket.sol\":716:723  address */\n      0x00\n        /* \"contracts/CouponMarket.sol\":742:749  _seller */\n      dup1\n        /* \"contracts/CouponMarket.sol\":742:759  _seller[discount] */\n      0x00\n        /* \"contracts/CouponMarket.sol\":750:758  discount */\n      dup4\n        /* \"contracts/CouponMarket.sol\":742:759  _seller[discount] */\n      dup2\n      mstore\n      0x20\n      add\n      swap1\n      dup2\n      mstore\n      0x20\n      add\n      0x00\n      keccak256\n      0x00\n      swap1\n      sload\n      swap1\n      0x0100\n      exp\n      swap1\n      div\n      0xffffffffffffffffffffffffffffffffffffffff\n      and\n        /* \"contracts/CouponMarket.sol\":735:759  return _seller[discount] */\n      swap1\n      pop\n        /* \"contracts/CouponMarket.sol\":661:766  function seller(uint256 discount) public view returns (address) {... */\n      swap2\n      swap1\n      pop\n      jump\t// out\n        /* \"contracts/CouponMarket.sol\":1527:2025  function onERC1155Received(... */\n    tag_29:\n        /* \"contracts/CouponMarket.sol\":1696:1702  bytes4 */\n      0x00\n        /* \"contracts/CouponMarket.sol\":1728:1732  from */\n      dup6\n        /* \"contracts/CouponMarket.sol\":1714:1721  _seller */\n      0x00\n        /* \"contracts/CouponMarket.sol\":1714:1725  _seller[id] */\n      dup1\n        /* \"contracts/CouponMarket.sol\":1722:1724  id */\n      dup8\n        /* \"contracts/CouponMarket.sol\":1714:1725  _seller[id] */\n      dup2\n      mstore\n      0x20\n      add\n      swap1\n      dup2\n      mstore\n      0x20\n      add\n      0x00\n      keccak256\n      0x00\n        /* \"contracts/CouponMarket.sol\":1714:1732  _seller[id] = from */\n      0x0100\n      exp\n      dup2\n      sload\n      dup2\n      0xffffffffffffffffffffffffffffffffffffffff\n      mul\n      not\n      and\n      swap1\n      dup4\n      0xffffffffffffffffffffffffffffffffffffffff\n      and\n      mul\n      or\n      swap1\n      sstore\n      pop\n        /* \"contracts/CouponMarket.sol\":1770:1775  value */\n      dup4\n        /* \"contracts/CouponMarket.sol\":1756:1763  _amount */\n      0x01\n        /* \"contracts/CouponMarket.sol\":1756:1767  _amount[id] */\n      0x00\n        /* \"contracts/CouponMarket.sol\":1764:1766  id */\n      dup8\n        /* \"contracts/CouponMarket.sol\":1756:1767  _amount[id] */\n      dup2\n      mstore\n      0x20\n      add\n      swap1\n      dup2\n      mstore\n      0x20\n      add\n      0x00\n      keccak256\n      sload\n        /* \"contracts/CouponMarket.sol\":1756:1775  _amount[id] + value */\n      tag_43\n      swap2\n      swap1\n      tag_44\n      jump\t// in\n    tag_43:\n        /* \"contracts/CouponMarket.sol\":1742:1749  _amount */\n      0x01\n        /* \"contracts/CouponMarket.sol\":1742:1753  _amount[id] */\n      0x00\n        /* \"contracts/CouponMarket.sol\":1750:1752  id */\n      dup8\n        /* \"contracts/CouponMarket.sol\":1742:1753  _amount[id] */\n      dup2\n      mstore\n      0x20\n      add\n      swap1\n      dup2\n      mstore\n      0x20\n      add\n      0x00\n      keccak256\n        /* \"contracts/CouponMarket.sol\":1742:1775  _amount[id] = _amount[id] + value */\n      dup2\n      swap1\n      sstore\n      pop\n        /* \"contracts/CouponMarket.sol\":1790:1842  Received(operator, from, id, value, data, gasleft()) */\n      0x20dfa9f79060c8c4d7fe892c97c71bcf6e3b63d1dcf66fea7aefc0211628cf29\n        /* \"contracts/CouponMarket.sol\":1799:1807  operator */\n      dup8\n        /* \"contracts/CouponMarket.sol\":1809:1813  from */\n      dup8\n        /* \"contracts/CouponMarket.sol\":1815:1817  id */\n      dup8\n        /* \"contracts/CouponMarket.sol\":1819:1824  value */\n      dup8\n        /* \"contracts/CouponMarket.sol\":1826:1830  data */\n      dup8\n      dup8\n        /* \"contracts/CouponMarket.sol\":1832:1841  gasleft() */\n      gas\n        /* \"contracts/CouponMarket.sol\":1790:1842  Received(operator, from, id, value, data, gasleft()) */\n      mload(0x40)\n      tag_45\n      swap8\n      swap7\n      swap6\n      swap5\n      swap4\n      swap3\n      swap2\n      swap1\n      tag_46\n      jump\t// in\n    tag_45:\n      mload(0x40)\n      dup1\n      swap2\n      sub\n      swap1\n      log1\n        /* \"contracts/CouponMarket.sol\":1895:2004  keccak256(... */\n      0xf23a6e612e1ff4830e658fe43f4e3cb4a5f8170bd5d9e69fb5d7a7fa9e4fdf97\n        /* \"contracts/CouponMarket.sol\":1852:2018  return... */\n      swap1\n      pop\n        /* \"contracts/CouponMarket.sol\":1527:2025  function onERC1155Received(... */\n      swap7\n      swap6\n      pop\n      pop\n      pop\n      pop\n      pop\n      pop\n      jump\t// out\n        /* \"contracts/CouponMarket.sol\":1393:1521  function _reduceAmount(uint256 discount, uint256 amount) private {... */\n    tag_39:\n        /* \"contracts/CouponMarket.sol\":1508:1514  amount */\n      dup1\n        /* \"contracts/CouponMarket.sol\":1488:1495  _amount */\n      0x01\n        /* \"contracts/CouponMarket.sol\":1488:1505  _amount[discount] */\n      0x00\n        /* \"contracts/CouponMarket.sol\":1496:1504  discount */\n      dup5\n        /* \"contracts/CouponMarket.sol\":1488:1505  _amount[discount] */\n      dup2\n      mstore\n      0x20\n      add\n      swap1\n      dup2\n      mstore\n      0x20\n      add\n      0x00\n      keccak256\n      sload\n        /* \"contracts/CouponMarket.sol\":1488:1514  _amount[discount] - amount */\n      tag_48\n      swap2\n      swap1\n      tag_49\n      jump\t// in\n    tag_48:\n        /* \"contracts/CouponMarket.sol\":1468:1475  _amount */\n      0x01\n        /* \"contracts/CouponMarket.sol\":1468:1485  _amount[discount] */\n      0x00\n        /* \"contracts/CouponMarket.sol\":1476:1484  discount */\n      dup5\n        /* \"contracts/CouponMarket.sol\":1468:1485  _amount[discount] */\n      dup2\n      mstore\n      0x20\n      add\n      swap1\n      dup2\n      mstore\n      0x20\n      add\n      0x00\n      keccak256\n        /* \"contracts/CouponMarket.sol\":1468:1514  _amount[discount] = _amount[discount] - amount */\n      dup2\n      swap1\n      sstore\n      pop\n        /* \"contracts/CouponMarket.sol\":1393:1521  function _reduceAmount(uint256 discount, uint256 amount) private {... */\n      pop\n      pop\n      jump\t// out\n        /* \"#utility.yul\":88:205   */\n    tag_51:\n        /* \"#utility.yul\":197:198   */\n      0x00\n        /* \"#utility.yul\":194:195   */\n      dup1\n        /* \"#utility.yul\":187:199   */\n      revert\n        /* \"#utility.yul\":211:328   */\n    tag_52:\n        /* \"#utility.yul\":320:321   */\n      0x00\n        /* \"#utility.yul\":317:318   */\n      dup1\n        /* \"#utility.yul\":310:322   */\n      revert\n        /* \"#utility.yul\":334:411   */\n    tag_53:\n        /* \"#utility.yul\":371:378   */\n      0x00\n        /* \"#utility.yul\":400:405   */\n      dup2\n        /* \"#utility.yul\":389:405   */\n      swap1\n      pop\n        /* \"#utility.yul\":334:411   */\n      swap2\n      swap1\n      pop\n      jump\t// out\n        /* \"#utility.yul\":417:539   */\n    tag_54:\n        /* \"#utility.yul\":490:514   */\n      tag_83\n        /* \"#utility.yul\":508:513   */\n      dup2\n        /* \"#utility.yul\":490:514   */\n      tag_53\n      jump\t// in\n    tag_83:\n        /* \"#utility.yul\":483:488   */\n      dup2\n        /* \"#utility.yul\":480:515   */\n      eq\n        /* \"#utility.yul\":470:533   */\n      tag_84\n      jumpi\n        /* \"#utility.yul\":529:530   */\n      0x00\n        /* \"#utility.yul\":526:527   */\n      dup1\n        /* \"#utility.yul\":519:531   */\n      revert\n        /* \"#utility.yul\":470:533   */\n    tag_84:\n        /* \"#utility.yul\":417:539   */\n      pop\n      jump\t// out\n        /* \"#utility.yul\":545:684   */\n    tag_55:\n        /* \"#utility.yul\":591:596   */\n      0x00\n        /* \"#utility.yul\":629:635   */\n      dup2\n        /* \"#utility.yul\":616:636   */\n      calldataload\n        /* \"#utility.yul\":607:636   */\n      swap1\n      pop\n        /* \"#utility.yul\":645:678   */\n      tag_86\n        /* \"#utility.yul\":672:677   */\n      dup2\n        /* \"#utility.yul\":645:678   */\n      tag_54\n      jump\t// in\n    tag_86:\n        /* \"#utility.yul\":545:684   */\n      swap3\n      swap2\n      pop\n      pop\n      jump\t// out\n        /* \"#utility.yul\":690:816   */\n    tag_56:\n        /* \"#utility.yul\":727:734   */\n      0x00\n        /* \"#utility.yul\":767:809   */\n      0xffffffffffffffffffffffffffffffffffffffff\n        /* \"#utility.yul\":760:765   */\n      dup3\n        /* \"#utility.yul\":756:810   */\n      and\n        /* \"#utility.yul\":745:810   */\n      swap1\n      pop\n        /* \"#utility.yul\":690:816   */\n      swap2\n      swap1\n      pop\n      jump\t// out\n        /* \"#utility.yul\":822:918   */\n    tag_57:\n        /* \"#utility.yul\":859:866   */\n      0x00\n        /* \"#utility.yul\":888:912   */\n      tag_89\n        /* \"#utility.yul\":906:911   */\n      dup3\n        /* \"#utility.yul\":888:912   */\n      tag_56\n      jump\t// in\n    tag_89:\n        /* \"#utility.yul\":877:912   */\n      swap1\n      pop\n        /* \"#utility.yul\":822:918   */\n      swap2\n      swap1\n      pop\n      jump\t// out\n        /* \"#utility.yul\":924:1046   */\n    tag_58:\n        /* \"#utility.yul\":997:1021   */\n      tag_91\n        /* \"#utility.yul\":1015:1020   */\n      dup2\n        /* \"#utility.yul\":997:1021   */\n      tag_57\n      jump\t// in\n    tag_91:\n        /* \"#utility.yul\":990:995   */\n      dup2\n        /* \"#utility.yul\":987:1022   */\n      eq\n        /* \"#utility.yul\":977:1040   */\n      tag_92\n      jumpi\n        /* \"#utility.yul\":1036:1037   */\n      0x00\n        /* \"#utility.yul\":1033:1034   */\n      dup1\n        /* \"#utility.yul\":1026:1038   */\n      revert\n        /* \"#utility.yul\":977:1040   */\n    tag_92:\n        /* \"#utility.yul\":924:1046   */\n      pop\n      jump\t// out\n        /* \"#utility.yul\":1052:1191   */\n    tag_59:\n        /* \"#utility.yul\":1098:1103   */\n      0x00\n        /* \"#utility.yul\":1136:1142   */\n      dup2\n        /* \"#utility.yul\":1123:1143   */\n      calldataload\n        /* \"#utility.yul\":1114:1143   */\n      swap1\n      pop\n        /* \"#utility.yul\":1152:1185   */\n      tag_94\n        /* \"#utility.yul\":1179:1184   */\n      dup2\n        /* \"#utility.yul\":1152:1185   */\n      tag_58\n      jump\t// in\n    tag_94:\n        /* \"#utility.yul\":1052:1191   */\n      swap3\n      swap2\n      pop\n      pop\n      jump\t// out\n        /* \"#utility.yul\":1197:1816   */\n    tag_8:\n        /* \"#utility.yul\":1274:1280   */\n      0x00\n        /* \"#utility.yul\":1282:1288   */\n      dup1\n        /* \"#utility.yul\":1290:1296   */\n      0x00\n        /* \"#utility.yul\":1339:1341   */\n      0x60\n        /* \"#utility.yul\":1327:1336   */\n      dup5\n        /* \"#utility.yul\":1318:1325   */\n      dup7\n        /* \"#utility.yul\":1314:1337   */\n      sub\n        /* \"#utility.yul\":1310:1342   */\n      slt\n        /* \"#utility.yul\":1307:1426   */\n      iszero\n      tag_96\n      jumpi\n        /* \"#utility.yul\":1345:1424   */\n      tag_97\n      tag_51\n      jump\t// in\n    tag_97:\n        /* \"#utility.yul\":1307:1426   */\n    tag_96:\n        /* \"#utility.yul\":1465:1466   */\n      0x00\n        /* \"#utility.yul\":1490:1543   */\n      tag_98\n        /* \"#utility.yul\":1535:1542   */\n      dup7\n        /* \"#utility.yul\":1526:1532   */\n      dup3\n        /* \"#utility.yul\":1515:1524   */\n      dup8\n        /* \"#utility.yul\":1511:1533   */\n      add\n        /* \"#utility.yul\":1490:1543   */\n      tag_55\n      jump\t// in\n    tag_98:\n        /* \"#utility.yul\":1480:1543   */\n      swap4\n      pop\n        /* \"#utility.yul\":1436:1553   */\n      pop\n        /* \"#utility.yul\":1592:1594   */\n      0x20\n        /* \"#utility.yul\":1618:1671   */\n      tag_99\n        /* \"#utility.yul\":1663:1670   */\n      dup7\n        /* \"#utility.yul\":1654:1660   */\n      dup3\n        /* \"#utility.yul\":1643:1652   */\n      dup8\n        /* \"#utility.yul\":1639:1661   */\n      add\n        /* \"#utility.yul\":1618:1671   */\n      tag_55\n      jump\t// in\n    tag_99:\n        /* \"#utility.yul\":1608:1671   */\n      swap3\n      pop\n        /* \"#utility.yul\":1563:1681   */\n      pop\n        /* \"#utility.yul\":1720:1722   */\n      0x40\n        /* \"#utility.yul\":1746:1799   */\n      tag_100\n        /* \"#utility.yul\":1791:1798   */\n      dup7\n        /* \"#utility.yul\":1782:1788   */\n      dup3\n        /* \"#utility.yul\":1771:1780   */\n      dup8\n        /* \"#utility.yul\":1767:1789   */\n      add\n        /* \"#utility.yul\":1746:1799   */\n      tag_59\n      jump\t// in\n    tag_100:\n        /* \"#utility.yul\":1736:1799   */\n      swap2\n      pop\n        /* \"#utility.yul\":1691:1809   */\n      pop\n        /* \"#utility.yul\":1197:1816   */\n      swap3\n      pop\n      swap3\n      pop\n      swap3\n      jump\t// out\n        /* \"#utility.yul\":1822:1912   */\n    tag_60:\n        /* \"#utility.yul\":1856:1863   */\n      0x00\n        /* \"#utility.yul\":1899:1904   */\n      dup2\n        /* \"#utility.yul\":1892:1905   */\n      iszero\n        /* \"#utility.yul\":1885:1906   */\n      iszero\n        /* \"#utility.yul\":1874:1906   */\n      swap1\n      pop\n        /* \"#utility.yul\":1822:1912   */\n      swap2\n      swap1\n      pop\n      jump\t// out\n        /* \"#utility.yul\":1918:2027   */\n    tag_61:\n        /* \"#utility.yul\":1999:2020   */\n      tag_103\n        /* \"#utility.yul\":2014:2019   */\n      dup2\n        /* \"#utility.yul\":1999:2020   */\n      tag_60\n      jump\t// in\n    tag_103:\n        /* \"#utility.yul\":1994:1997   */\n      dup3\n        /* \"#utility.yul\":1987:2021   */\n      mstore\n        /* \"#utility.yul\":1918:2027   */\n      pop\n      pop\n      jump\t// out\n        /* \"#utility.yul\":2033:2243   */\n    tag_11:\n        /* \"#utility.yul\":2120:2124   */\n      0x00\n        /* \"#utility.yul\":2158:2160   */\n      0x20\n        /* \"#utility.yul\":2147:2156   */\n      dup3\n        /* \"#utility.yul\":2143:2161   */\n      add\n        /* \"#utility.yul\":2135:2161   */\n      swap1\n      pop\n        /* \"#utility.yul\":2171:2236   */\n      tag_105\n        /* \"#utility.yul\":2233:2234   */\n      0x00\n        /* \"#utility.yul\":2222:2231   */\n      dup4\n        /* \"#utility.yul\":2218:2235   */\n      add\n        /* \"#utility.yul\":2209:2215   */\n      dup5\n        /* \"#utility.yul\":2171:2236   */\n      tag_61\n      jump\t// in\n    tag_105:\n        /* \"#utility.yul\":2033:2243   */\n      swap3\n      swap2\n      pop\n      pop\n      jump\t// out\n        /* \"#utility.yul\":2249:2578   */\n    tag_15:\n        /* \"#utility.yul\":2308:2314   */\n      0x00\n        /* \"#utility.yul\":2357:2359   */\n      0x20\n        /* \"#utility.yul\":2345:2354   */\n      dup3\n        /* \"#utility.yul\":2336:2343   */\n      dup5\n        /* \"#utility.yul\":2332:2355   */\n      sub\n        /* \"#utility.yul\":2328:2360   */\n      slt\n        /* \"#utility.yul\":2325:2444   */\n      iszero\n      tag_107\n      jumpi\n        /* \"#utility.yul\":2363:2442   */\n      tag_108\n      tag_51\n      jump\t// in\n    tag_108:\n        /* \"#utility.yul\":2325:2444   */\n    tag_107:\n        /* \"#utility.yul\":2483:2484   */\n      0x00\n        /* \"#utility.yul\":2508:2561   */\n      tag_109\n        /* \"#utility.yul\":2553:2560   */\n      dup5\n        /* \"#utility.yul\":2544:2550   */\n      dup3\n        /* \"#utility.yul\":2533:2542   */\n      dup6\n        /* \"#utility.yul\":2529:2551   */\n      add\n        /* \"#utility.yul\":2508:2561   */\n      tag_55\n      jump\t// in\n    tag_109:\n        /* \"#utility.yul\":2498:2561   */\n      swap2\n      pop\n        /* \"#utility.yul\":2454:2571   */\n      pop\n        /* \"#utility.yul\":2249:2578   */\n      swap3\n      swap2\n      pop\n      pop\n      jump\t// out\n        /* \"#utility.yul\":2584:2702   */\n    tag_62:\n        /* \"#utility.yul\":2671:2695   */\n      tag_111\n        /* \"#utility.yul\":2689:2694   */\n      dup2\n        /* \"#utility.yul\":2671:2695   */\n      tag_53\n      jump\t// in\n    tag_111:\n        /* \"#utility.yul\":2666:2669   */\n      dup3\n        /* \"#utility.yul\":2659:2696   */\n      mstore\n        /* \"#utility.yul\":2584:2702   */\n      pop\n      pop\n      jump\t// out\n        /* \"#utility.yul\":2708:2930   */\n    tag_18:\n        /* \"#utility.yul\":2801:2805   */\n      0x00\n        /* \"#utility.yul\":2839:2841   */\n      0x20\n        /* \"#utility.yul\":2828:2837   */\n      dup3\n        /* \"#utility.yul\":2824:2842   */\n      add\n        /* \"#utility.yul\":2816:2842   */\n      swap1\n      pop\n        /* \"#utility.yul\":2852:2923   */\n      tag_113\n        /* \"#utility.yul\":2920:2921   */\n      0x00\n        /* \"#utility.yul\":2909:2918   */\n      dup4\n        /* \"#utility.yul\":2905:2922   */\n      add\n        /* \"#utility.yul\":2896:2902   */\n      dup5\n        /* \"#utility.yul\":2852:2923   */\n      tag_62\n      jump\t// in\n    tag_113:\n        /* \"#utility.yul\":2708:2930   */\n      swap3\n      swap2\n      pop\n      pop\n      jump\t// out\n        /* \"#utility.yul\":2936:3054   */\n    tag_63:\n        /* \"#utility.yul\":3023:3047   */\n      tag_115\n        /* \"#utility.yul\":3041:3046   */\n      dup2\n        /* \"#utility.yul\":3023:3047   */\n      tag_57\n      jump\t// in\n    tag_115:\n        /* \"#utility.yul\":3018:3021   */\n      dup3\n        /* \"#utility.yul\":3011:3048   */\n      mstore\n        /* \"#utility.yul\":2936:3054   */\n      pop\n      pop\n      jump\t// out\n        /* \"#utility.yul\":3060:3282   */\n    tag_24:\n        /* \"#utility.yul\":3153:3157   */\n      0x00\n        /* \"#utility.yul\":3191:3193   */\n      0x20\n        /* \"#utility.yul\":3180:3189   */\n      dup3\n        /* \"#utility.yul\":3176:3194   */\n      add\n        /* \"#utility.yul\":3168:3194   */\n      swap1\n      pop\n        /* \"#utility.yul\":3204:3275   */\n      tag_117\n        /* \"#utility.yul\":3272:3273   */\n      0x00\n        /* \"#utility.yul\":3261:3270   */\n      dup4\n        /* \"#utility.yul\":3257:3274   */\n      add\n        /* \"#utility.yul\":3248:3254   */\n      dup5\n        /* \"#utility.yul\":3204:3275   */\n      tag_63\n      jump\t// in\n    tag_117:\n        /* \"#utility.yul\":3060:3282   */\n      swap3\n      swap2\n      pop\n      pop\n      jump\t// out\n        /* \"#utility.yul\":3288:3405   */\n    tag_64:\n        /* \"#utility.yul\":3397:3398   */\n      0x00\n        /* \"#utility.yul\":3394:3395   */\n      dup1\n        /* \"#utility.yul\":3387:3399   */\n      revert\n        /* \"#utility.yul\":3411:3528   */\n    tag_65:\n        /* \"#utility.yul\":3520:3521   */\n      0x00\n        /* \"#utility.yul\":3517:3518   */\n      dup1\n        /* \"#utility.yul\":3510:3522   */\n      revert\n        /* \"#utility.yul\":3534:3651   */\n    tag_66:\n        /* \"#utility.yul\":3643:3644   */\n      0x00\n        /* \"#utility.yul\":3640:3641   */\n      dup1\n        /* \"#utility.yul\":3633:3645   */\n      revert\n        /* \"#utility.yul\":3670:4222   */\n    tag_67:\n        /* \"#utility.yul\":3727:3735   */\n      0x00\n        /* \"#utility.yul\":3737:3743   */\n      dup1\n        /* \"#utility.yul\":3787:3790   */\n      dup4\n        /* \"#utility.yul\":3780:3784   */\n      0x1f\n        /* \"#utility.yul\":3772:3778   */\n      dup5\n        /* \"#utility.yul\":3768:3785   */\n      add\n        /* \"#utility.yul\":3764:3791   */\n      slt\n        /* \"#utility.yul\":3754:3876   */\n      tag_122\n      jumpi\n        /* \"#utility.yul\":3795:3874   */\n      tag_123\n      tag_64\n      jump\t// in\n    tag_123:\n        /* \"#utility.yul\":3754:3876   */\n    tag_122:\n        /* \"#utility.yul\":3908:3914   */\n      dup3\n        /* \"#utility.yul\":3895:3915   */\n      calldataload\n        /* \"#utility.yul\":3885:3915   */\n      swap1\n      pop\n        /* \"#utility.yul\":3938:3956   */\n      0xffffffffffffffff\n        /* \"#utility.yul\":3930:3936   */\n      dup2\n        /* \"#utility.yul\":3927:3957   */\n      gt\n        /* \"#utility.yul\":3924:4041   */\n      iszero\n      tag_124\n      jumpi\n        /* \"#utility.yul\":3960:4039   */\n      tag_125\n      tag_65\n      jump\t// in\n    tag_125:\n        /* \"#utility.yul\":3924:4041   */\n    tag_124:\n        /* \"#utility.yul\":4074:4078   */\n      0x20\n        /* \"#utility.yul\":4066:4072   */\n      dup4\n        /* \"#utility.yul\":4062:4079   */\n      add\n        /* \"#utility.yul\":4050:4079   */\n      swap2\n      pop\n        /* \"#utility.yul\":4128:4131   */\n      dup4\n        /* \"#utility.yul\":4120:4124   */\n      0x01\n        /* \"#utility.yul\":4112:4118   */\n      dup3\n        /* \"#utility.yul\":4108:4125   */\n      mul\n        /* \"#utility.yul\":4098:4106   */\n      dup4\n        /* \"#utility.yul\":4094:4126   */\n      add\n        /* \"#utility.yul\":4091:4132   */\n      gt\n        /* \"#utility.yul\":4088:4216   */\n      iszero\n      tag_126\n      jumpi\n        /* \"#utility.yul\":4135:4214   */\n      tag_127\n      tag_66\n      jump\t// in\n    tag_127:\n        /* \"#utility.yul\":4088:4216   */\n    tag_126:\n        /* \"#utility.yul\":3670:4222   */\n      swap3\n      pop\n      swap3\n      swap1\n      pop\n      jump\t// out\n        /* \"#utility.yul\":4228:5337   */\n    tag_28:\n        /* \"#utility.yul\":4334:4340   */\n      0x00\n        /* \"#utility.yul\":4342:4348   */\n      dup1\n        /* \"#utility.yul\":4350:4356   */\n      0x00\n        /* \"#utility.yul\":4358:4364   */\n      dup1\n        /* \"#utility.yul\":4366:4372   */\n      0x00\n        /* \"#utility.yul\":4374:4380   */\n      dup1\n        /* \"#utility.yul\":4423:4426   */\n      0xa0\n        /* \"#utility.yul\":4411:4420   */\n      dup8\n        /* \"#utility.yul\":4402:4409   */\n      dup10\n        /* \"#utility.yul\":4398:4421   */\n      sub\n        /* \"#utility.yul\":4394:4427   */\n      slt\n        /* \"#utility.yul\":4391:4511   */\n      iszero\n      tag_129\n      jumpi\n        /* \"#utility.yul\":4430:4509   */\n      tag_130\n      tag_51\n      jump\t// in\n    tag_130:\n        /* \"#utility.yul\":4391:4511   */\n    tag_129:\n        /* \"#utility.yul\":4550:4551   */\n      0x00\n        /* \"#utility.yul\":4575:4628   */\n      tag_131\n        /* \"#utility.yul\":4620:4627   */\n      dup10\n        /* \"#utility.yul\":4611:4617   */\n      dup3\n        /* \"#utility.yul\":4600:4609   */\n      dup11\n        /* \"#utility.yul\":4596:4618   */\n      add\n        /* \"#utility.yul\":4575:4628   */\n      tag_59\n      jump\t// in\n    tag_131:\n        /* \"#utility.yul\":4565:4628   */\n      swap7\n      pop\n        /* \"#utility.yul\":4521:4638   */\n      pop\n        /* \"#utility.yul\":4677:4679   */\n      0x20\n        /* \"#utility.yul\":4703:4756   */\n      tag_132\n        /* \"#utility.yul\":4748:4755   */\n      dup10\n        /* \"#utility.yul\":4739:4745   */\n      dup3\n        /* \"#utility.yul\":4728:4737   */\n      dup11\n        /* \"#utility.yul\":4724:4746   */\n      add\n        /* \"#utility.yul\":4703:4756   */\n      tag_59\n      jump\t// in\n    tag_132:\n        /* \"#utility.yul\":4693:4756   */\n      swap6\n      pop\n        /* \"#utility.yul\":4648:4766   */\n      pop\n        /* \"#utility.yul\":4805:4807   */\n      0x40\n        /* \"#utility.yul\":4831:4884   */\n      tag_133\n        /* \"#utility.yul\":4876:4883   */\n      dup10\n        /* \"#utility.yul\":4867:4873   */\n      dup3\n        /* \"#utility.yul\":4856:4865   */\n      dup11\n        /* \"#utility.yul\":4852:4874   */\n      add\n        /* \"#utility.yul\":4831:4884   */\n      tag_55\n      jump\t// in\n    tag_133:\n        /* \"#utility.yul\":4821:4884   */\n      swap5\n      pop\n        /* \"#utility.yul\":4776:4894   */\n      pop\n        /* \"#utility.yul\":4933:4935   */\n      0x60\n        /* \"#utility.yul\":4959:5012   */\n      tag_134\n        /* \"#utility.yul\":5004:5011   */\n      dup10\n        /* \"#utility.yul\":4995:5001   */\n      dup3\n        /* \"#utility.yul\":4984:4993   */\n      dup11\n        /* \"#utility.yul\":4980:5002   */\n      add\n        /* \"#utility.yul\":4959:5012   */\n      tag_55\n      jump\t// in\n    tag_134:\n        /* \"#utility.yul\":4949:5012   */\n      swap4\n      pop\n        /* \"#utility.yul\":4904:5022   */\n      pop\n        /* \"#utility.yul\":5089:5092   */\n      0x80\n        /* \"#utility.yul\":5078:5087   */\n      dup8\n        /* \"#utility.yul\":5074:5093   */\n      add\n        /* \"#utility.yul\":5061:5094   */\n      calldataload\n        /* \"#utility.yul\":5121:5139   */\n      0xffffffffffffffff\n        /* \"#utility.yul\":5113:5119   */\n      dup2\n        /* \"#utility.yul\":5110:5140   */\n      gt\n        /* \"#utility.yul\":5107:5224   */\n      iszero\n      tag_135\n      jumpi\n        /* \"#utility.yul\":5143:5222   */\n      tag_136\n      tag_52\n      jump\t// in\n    tag_136:\n        /* \"#utility.yul\":5107:5224   */\n    tag_135:\n        /* \"#utility.yul\":5256:5320   */\n      tag_137\n        /* \"#utility.yul\":5312:5319   */\n      dup10\n        /* \"#utility.yul\":5303:5309   */\n      dup3\n        /* \"#utility.yul\":5292:5301   */\n      dup11\n        /* \"#utility.yul\":5288:5310   */\n      add\n        /* \"#utility.yul\":5256:5320   */\n      tag_67\n      jump\t// in\n    tag_137:\n        /* \"#utility.yul\":5238:5320   */\n      swap3\n      pop\n      swap3\n      pop\n        /* \"#utility.yul\":5032:5330   */\n      pop\n        /* \"#utility.yul\":4228:5337   */\n      swap3\n      swap6\n      pop\n      swap3\n      swap6\n      pop\n      swap3\n      swap6\n      jump\t// out\n        /* \"#utility.yul\":5343:5492   */\n    tag_68:\n        /* \"#utility.yul\":5379:5386   */\n      0x00\n        /* \"#utility.yul\":5419:5485   */\n      0xffffffff00000000000000000000000000000000000000000000000000000000\n        /* \"#utility.yul\":5412:5417   */\n      dup3\n        /* \"#utility.yul\":5408:5486   */\n      and\n        /* \"#utility.yul\":5397:5486   */\n      swap1\n      pop\n        /* \"#utility.yul\":5343:5492   */\n      swap2\n      swap1\n      pop\n      jump\t// out\n        /* \"#utility.yul\":5498:5613   */\n    tag_69:\n        /* \"#utility.yul\":5583:5606   */\n      tag_140\n        /* \"#utility.yul\":5600:5605   */\n      dup2\n        /* \"#utility.yul\":5583:5606   */\n      tag_68\n      jump\t// in\n    tag_140:\n        /* \"#utility.yul\":5578:5581   */\n      dup3\n        /* \"#utility.yul\":5571:5607   */\n      mstore\n        /* \"#utility.yul\":5498:5613   */\n      pop\n      pop\n      jump\t// out\n        /* \"#utility.yul\":5619:5837   */\n    tag_31:\n        /* \"#utility.yul\":5710:5714   */\n      0x00\n        /* \"#utility.yul\":5748:5750   */\n      0x20\n        /* \"#utility.yul\":5737:5746   */\n      dup3\n        /* \"#utility.yul\":5733:5751   */\n      add\n        /* \"#utility.yul\":5725:5751   */\n      swap1\n      pop\n        /* \"#utility.yul\":5761:5830   */\n      tag_142\n        /* \"#utility.yul\":5827:5828   */\n      0x00\n        /* \"#utility.yul\":5816:5825   */\n      dup4\n        /* \"#utility.yul\":5812:5829   */\n      add\n        /* \"#utility.yul\":5803:5809   */\n      dup5\n        /* \"#utility.yul\":5761:5830   */\n      tag_69\n      jump\t// in\n    tag_142:\n        /* \"#utility.yul\":5619:5837   */\n      swap3\n      swap2\n      pop\n      pop\n      jump\t// out\n        /* \"#utility.yul\":5843:6011   */\n    tag_70:\n        /* \"#utility.yul\":5926:5937   */\n      0x00\n        /* \"#utility.yul\":5960:5966   */\n      dup3\n        /* \"#utility.yul\":5955:5958   */\n      dup3\n        /* \"#utility.yul\":5948:5967   */\n      mstore\n        /* \"#utility.yul\":6000:6004   */\n      0x20\n        /* \"#utility.yul\":5995:5998   */\n      dup3\n        /* \"#utility.yul\":5991:6005   */\n      add\n        /* \"#utility.yul\":5976:6005   */\n      swap1\n      pop\n        /* \"#utility.yul\":5843:6011   */\n      swap3\n      swap2\n      pop\n      pop\n      jump\t// out\n        /* \"#utility.yul\":6017:6171   */\n    tag_71:\n        /* \"#utility.yul\":6157:6163   */\n      0x3078303000000000000000000000000000000000000000000000000000000000\n        /* \"#utility.yul\":6153:6154   */\n      0x00\n        /* \"#utility.yul\":6145:6151   */\n      dup3\n        /* \"#utility.yul\":6141:6155   */\n      add\n        /* \"#utility.yul\":6134:6164   */\n      mstore\n        /* \"#utility.yul\":6017:6171   */\n      pop\n      jump\t// out\n        /* \"#utility.yul\":6177:6540   */\n    tag_72:\n        /* \"#utility.yul\":6318:6321   */\n      0x00\n        /* \"#utility.yul\":6339:6404   */\n      tag_146\n        /* \"#utility.yul\":6402:6403   */\n      0x04\n        /* \"#utility.yul\":6397:6400   */\n      dup4\n        /* \"#utility.yul\":6339:6404   */\n      tag_70\n      jump\t// in\n    tag_146:\n        /* \"#utility.yul\":6332:6404   */\n      swap2\n      pop\n        /* \"#utility.yul\":6413:6506   */\n      tag_147\n        /* \"#utility.yul\":6502:6505   */\n      dup3\n        /* \"#utility.yul\":6413:6506   */\n      tag_71\n      jump\t// in\n    tag_147:\n        /* \"#utility.yul\":6531:6533   */\n      0x20\n        /* \"#utility.yul\":6526:6529   */\n      dup3\n        /* \"#utility.yul\":6522:6534   */\n      add\n        /* \"#utility.yul\":6515:6534   */\n      swap1\n      pop\n        /* \"#utility.yul\":6177:6540   */\n      swap2\n      swap1\n      pop\n      jump\t// out\n        /* \"#utility.yul\":6546:7405   */\n    tag_34:\n        /* \"#utility.yul\":6823:6827   */\n      0x00\n        /* \"#utility.yul\":6861:6864   */\n      0xa0\n        /* \"#utility.yul\":6850:6859   */\n      dup3\n        /* \"#utility.yul\":6846:6865   */\n      add\n        /* \"#utility.yul\":6838:6865   */\n      swap1\n      pop\n        /* \"#utility.yul\":6875:6946   */\n      tag_149\n        /* \"#utility.yul\":6943:6944   */\n      0x00\n        /* \"#utility.yul\":6932:6941   */\n      dup4\n        /* \"#utility.yul\":6928:6945   */\n      add\n        /* \"#utility.yul\":6919:6925   */\n      dup8\n        /* \"#utility.yul\":6875:6946   */\n      tag_63\n      jump\t// in\n    tag_149:\n        /* \"#utility.yul\":6956:7028   */\n      tag_150\n        /* \"#utility.yul\":7024:7026   */\n      0x20\n        /* \"#utility.yul\":7013:7022   */\n      dup4\n        /* \"#utility.yul\":7009:7027   */\n      add\n        /* \"#utility.yul\":7000:7006   */\n      dup7\n        /* \"#utility.yul\":6956:7028   */\n      tag_63\n      jump\t// in\n    tag_150:\n        /* \"#utility.yul\":7038:7110   */\n      tag_151\n        /* \"#utility.yul\":7106:7108   */\n      0x40\n        /* \"#utility.yul\":7095:7104   */\n      dup4\n        /* \"#utility.yul\":7091:7109   */\n      add\n        /* \"#utility.yul\":7082:7088   */\n      dup6\n        /* \"#utility.yul\":7038:7110   */\n      tag_62\n      jump\t// in\n    tag_151:\n        /* \"#utility.yul\":7120:7192   */\n      tag_152\n        /* \"#utility.yul\":7188:7190   */\n      0x60\n        /* \"#utility.yul\":7177:7186   */\n      dup4\n        /* \"#utility.yul\":7173:7191   */\n      add\n        /* \"#utility.yul\":7164:7170   */\n      dup5\n        /* \"#utility.yul\":7120:7192   */\n      tag_62\n      jump\t// in\n    tag_152:\n        /* \"#utility.yul\":7240:7249   */\n      dup2\n        /* \"#utility.yul\":7234:7238   */\n      dup2\n        /* \"#utility.yul\":7230:7250   */\n      sub\n        /* \"#utility.yul\":7224:7227   */\n      0x80\n        /* \"#utility.yul\":7213:7222   */\n      dup4\n        /* \"#utility.yul\":7209:7228   */\n      add\n        /* \"#utility.yul\":7202:7251   */\n      mstore\n        /* \"#utility.yul\":7268:7398   */\n      tag_153\n        /* \"#utility.yul\":7393:7397   */\n      dup2\n        /* \"#utility.yul\":7268:7398   */\n      tag_72\n      jump\t// in\n    tag_153:\n        /* \"#utility.yul\":7260:7398   */\n      swap1\n      pop\n        /* \"#utility.yul\":6546:7405   */\n      swap6\n      swap5\n      pop\n      pop\n      pop\n      pop\n      pop\n      jump\t// out\n        /* \"#utility.yul\":7411:7591   */\n    tag_73:\n        /* \"#utility.yul\":7459:7536   */\n      0x4e487b7100000000000000000000000000000000000000000000000000000000\n        /* \"#utility.yul\":7456:7457   */\n      0x00\n        /* \"#utility.yul\":7449:7537   */\n      mstore\n        /* \"#utility.yul\":7556:7560   */\n      0x11\n        /* \"#utility.yul\":7553:7554   */\n      0x04\n        /* \"#utility.yul\":7546:7561   */\n      mstore\n        /* \"#utility.yul\":7580:7584   */\n      0x24\n        /* \"#utility.yul\":7577:7578   */\n      0x00\n        /* \"#utility.yul\":7570:7585   */\n      revert\n        /* \"#utility.yul\":7597:7902   */\n    tag_44:\n        /* \"#utility.yul\":7637:7640   */\n      0x00\n        /* \"#utility.yul\":7656:7676   */\n      tag_156\n        /* \"#utility.yul\":7674:7675   */\n      dup3\n        /* \"#utility.yul\":7656:7676   */\n      tag_53\n      jump\t// in\n    tag_156:\n        /* \"#utility.yul\":7651:7676   */\n      swap2\n      pop\n        /* \"#utility.yul\":7690:7710   */\n      tag_157\n        /* \"#utility.yul\":7708:7709   */\n      dup4\n        /* \"#utility.yul\":7690:7710   */\n      tag_53\n      jump\t// in\n    tag_157:\n        /* \"#utility.yul\":7685:7710   */\n      swap3\n      pop\n        /* \"#utility.yul\":7844:7845   */\n      dup3\n        /* \"#utility.yul\":7776:7842   */\n      0xffffffffffffffffffffffffffffffffffffffffffffffffffffffffffffffff\n        /* \"#utility.yul\":7772:7846   */\n      sub\n        /* \"#utility.yul\":7769:7770   */\n      dup3\n        /* \"#utility.yul\":7766:7847   */\n      gt\n        /* \"#utility.yul\":7763:7870   */\n      iszero\n      tag_158\n      jumpi\n        /* \"#utility.yul\":7850:7868   */\n      tag_159\n      tag_73\n      jump\t// in\n    tag_159:\n        /* \"#utility.yul\":7763:7870   */\n    tag_158:\n        /* \"#utility.yul\":7894:7895   */\n      dup3\n        /* \"#utility.yul\":7891:7892   */\n      dup3\n        /* \"#utility.yul\":7887:7896   */\n      add\n        /* \"#utility.yul\":7880:7896   */\n      swap1\n      pop\n        /* \"#utility.yul\":7597:7902   */\n      swap3\n      swap2\n      pop\n      pop\n      jump\t// out\n        /* \"#utility.yul\":7908:8062   */\n    tag_74:\n        /* \"#utility.yul\":7992:7998   */\n      dup3\n        /* \"#utility.yul\":7987:7990   */\n      dup2\n        /* \"#utility.yul\":7982:7985   */\n      dup4\n        /* \"#utility.yul\":7969:7999   */\n      calldatacopy\n        /* \"#utility.yul\":8054:8055   */\n      0x00\n        /* \"#utility.yul\":8045:8051   */\n      dup4\n        /* \"#utility.yul\":8040:8043   */\n      dup4\n        /* \"#utility.yul\":8036:8052   */\n      add\n        /* \"#utility.yul\":8029:8056   */\n      mstore\n        /* \"#utility.yul\":7908:8062   */\n      pop\n      pop\n      pop\n      jump\t// out\n        /* \"#utility.yul\":8068:8170   */\n    tag_75:\n        /* \"#utility.yul\":8109:8115   */\n      0x00\n        /* \"#utility.yul\":8160:8162   */\n      0x1f\n        /* \"#utility.yul\":8156:8163   */\n      not\n        /* \"#utility.yul\":8151:8153   */\n      0x1f\n        /* \"#utility.yul\":8144:8149   */\n      dup4\n        /* \"#utility.yul\":8140:8154   */\n      add\n        /* \"#utility.yul\":8136:8164   */\n      and\n        /* \"#utility.yul\":8126:8164   */\n      swap1\n      pop\n        /* \"#utility.yul\":8068:8170   */\n      swap2\n      swap1\n      pop\n      jump\t// out\n        /* \"#utility.yul\":8198:8499   */\n    tag_76:\n        /* \"#utility.yul\":8294:8297   */\n      0x00\n        /* \"#utility.yul\":8315:8385   */\n      tag_163\n        /* \"#utility.yul\":8378:8384   */\n      dup4\n        /* \"#utility.yul\":8373:8376   */\n      dup6\n        /* \"#utility.yul\":8315:8385   */\n      tag_70\n      jump\t// in\n    tag_163:\n        /* \"#utility.yul\":8308:8385   */\n      swap4\n      pop\n        /* \"#utility.yul\":8395:8438   */\n      tag_164\n        /* \"#utility.yul\":8431:8437   */\n      dup4\n        /* \"#utility.yul\":8426:8429   */\n      dup6\n        /* \"#utility.yul\":8419:8424   */\n      dup5\n        /* \"#utility.yul\":8395:8438   */\n      tag_74\n      jump\t// in\n    tag_164:\n        /* \"#utility.yul\":8463:8492   */\n      tag_165\n        /* \"#utility.yul\":8485:8491   */\n      dup4\n        /* \"#utility.yul\":8463:8492   */\n      tag_75\n      jump\t// in\n    tag_165:\n        /* \"#utility.yul\":8458:8461   */\n      dup5\n        /* \"#utility.yul\":8454:8493   */\n      add\n        /* \"#utility.yul\":8447:8493   */\n      swap1\n      pop\n        /* \"#utility.yul\":8198:8499   */\n      swap4\n      swap3\n      pop\n      pop\n      pop\n      jump\t// out\n        /* \"#utility.yul\":8505:9387   */\n    tag_46:\n        /* \"#utility.yul\":8766:8770   */\n      0x00\n        /* \"#utility.yul\":8804:8807   */\n      0xc0\n        /* \"#utility.yul\":8793:8802   */\n      dup3\n        /* \"#utility.yul\":8789:8808   */\n      add\n        /* \"#utility.yul\":8781:8808   */\n      swap1\n      pop\n        /* \"#utility.yul\":8818:8889   */\n      tag_167\n        /* \"#utility.yul\":8886:8887   */\n      0x00\n        /* \"#utility.yul\":8875:8884   */\n      dup4\n        /* \"#utility.yul\":8871:8888   */\n      add\n        /* \"#utility.yul\":8862:8868   */\n      dup11\n        /* \"#utility.yul\":8818:8889   */\n      tag_63\n      jump\t// in\n    tag_167:\n        /* \"#utility.yul\":8899:8971   */\n      tag_168\n        /* \"#utility.yul\":8967:8969   */\n      0x20\n        /* \"#utility.yul\":8956:8965   */\n      dup4\n        /* \"#utility.yul\":8952:8970   */\n      add\n        /* \"#utility.yul\":8943:8949   */\n      dup10\n        /* \"#utility.yul\":8899:8971   */\n      tag_63\n      jump\t// in\n    tag_168:\n        /* \"#utility.yul\":8981:9053   */\n      tag_169\n        /* \"#utility.yul\":9049:9051   */\n      0x40\n        /* \"#utility.yul\":9038:9047   */\n      dup4\n        /* \"#utility.yul\":9034:9052   */\n      add\n        /* \"#utility.yul\":9025:9031   */\n      dup9\n        /* \"#utility.yul\":8981:9053   */\n      tag_62\n      jump\t// in\n    tag_169:\n        /* \"#utility.yul\":9063:9135   */\n      tag_170\n        /* \"#utility.yul\":9131:9133   */\n      0x60\n        /* \"#utility.yul\":9120:9129   */\n      dup4\n        /* \"#utility.yul\":9116:9134   */\n      add\n        /* \"#utility.yul\":9107:9113   */\n      dup8\n        /* \"#utility.yul\":9063:9135   */\n      tag_62\n      jump\t// in\n    tag_170:\n        /* \"#utility.yul\":9183:9192   */\n      dup2\n        /* \"#utility.yul\":9177:9181   */\n      dup2\n        /* \"#utility.yul\":9173:9193   */\n      sub\n        /* \"#utility.yul\":9167:9170   */\n      0x80\n        /* \"#utility.yul\":9156:9165   */\n      dup4\n        /* \"#utility.yul\":9152:9171   */\n      add\n        /* \"#utility.yul\":9145:9194   */\n      mstore\n        /* \"#utility.yul\":9211:9297   */\n      tag_171\n        /* \"#utility.yul\":9292:9296   */\n      dup2\n        /* \"#utility.yul\":9283:9289   */\n      dup6\n        /* \"#utility.yul\":9275:9281   */\n      dup8\n        /* \"#utility.yul\":9211:9297   */\n      tag_76\n      jump\t// in\n    tag_171:\n        /* \"#utility.yul\":9203:9297   */\n      swap1\n      pop\n        /* \"#utility.yul\":9307:9380   */\n      tag_172\n        /* \"#utility.yul\":9375:9378   */\n      0xa0\n        /* \"#utility.yul\":9364:9373   */\n      dup4\n        /* \"#utility.yul\":9360:9379   */\n      add\n        /* \"#utility.yul\":9351:9357   */\n      dup5\n        /* \"#utility.yul\":9307:9380   */\n      tag_62\n      jump\t// in\n    tag_172:\n        /* \"#utility.yul\":8505:9387   */\n      swap9\n      swap8\n      pop\n      pop\n      pop\n      pop\n      pop\n      pop\n      pop\n      pop\n      jump\t// out\n        /* \"#utility.yul\":9393:9584   */\n    tag_49:\n        /* \"#utility.yul\":9433:9437   */\n      0x00\n        /* \"#utility.yul\":9453:9473   */\n      tag_174\n        /* \"#utility.yul\":9471:9472   */\n      dup3\n        /* \"#utility.yul\":9453:9473   */\n      tag_53\n      jump\t// in\n    tag_174:\n        /* \"#utility.yul\":9448:9473   */\n      swap2\n      pop\n        /* \"#utility.yul\":9487:9507   */\n      tag_175\n        /* \"#utility.yul\":9505:9506   */\n      dup4\n        /* \"#utility.yul\":9487:9507   */\n      tag_53\n      jump\t// in\n    tag_175:\n        /* \"#utility.yul\":9482:9507   */\n      swap3\n      pop\n        /* \"#utility.yul\":9526:9527   */\n      dup3\n        /* \"#utility.yul\":9523:9524   */\n      dup3\n        /* \"#utility.yul\":9520:9528   */\n      lt\n        /* \"#utility.yul\":9517:9551   */\n      iszero\n      tag_176\n      jumpi\n        /* \"#utility.yul\":9531:9549   */\n      tag_177\n      tag_73\n      jump\t// in\n    tag_177:\n        /* \"#utility.yul\":9517:9551   */\n    tag_176:\n        /* \"#utility.yul\":9576:9577   */\n      dup3\n        /* \"#utility.yul\":9573:9574   */\n      dup3\n        /* \"#utility.yul\":9569:9578   */\n      sub\n        /* \"#utility.yul\":9561:9578   */\n      swap1\n      pop\n        /* \"#utility.yul\":9393:9584   */\n      swap3\n      swap2\n      pop\n      pop\n      jump\t// out\n\n    auxdata: 0xa26469706673582212205b85cce8380c55d8aeea928d2300b009bd080ab5f5965be387e24f6c3db23a7664736f6c634300080a0033\n}\n",
				"bytecode": {
					"linkReferences": {},
					"object": "608060405234801561001057600080fd5b50610897806100206000396000f3fe60806040526004361061003f5760003560e01c806301edf85c146100445780638b0d025814610074578063aacdfe6f146100b1578063f23a6e61146100ee575b600080fd5b61005e600480360381019061005991906103dd565b61012b565b60405161006b919061044b565b60405180910390f35b34801561008057600080fd5b5061009b60048036038101906100969190610466565b6101b3565b6040516100a891906104a2565b60405180910390f35b3480156100bd57600080fd5b506100d860048036038101906100d39190610466565b6101d0565b6040516100e591906104cc565b60405180910390f35b3480156100fa57600080fd5b506101156004803603810190610110919061054c565b61020c565b6040516101229190610621565b60405180910390f35b60008173ffffffffffffffffffffffffffffffffffffffff1663f242432a303387876040518563ffffffff1660e01b815260040161016c9493929190610699565b600060405180830381600087803b15801561018657600080fd5b505af115801561019a573d6000803e3d6000fd5b505050506101a88484610305565b600190509392505050565b600060016000838152602001908152602001600020549050919050565b600080600083815260200190815260200160002060009054906101000a900473ffffffffffffffffffffffffffffffffffffffff169050919050565b60008560008087815260200190815260200160002060006101000a81548173ffffffffffffffffffffffffffffffffffffffff021916908373ffffffffffffffffffffffffffffffffffffffff16021790555083600160008781526020019081526020016000205461027e9190610720565b60016000878152602001908152602001600020819055507f20dfa9f79060c8c4d7fe892c97c71bcf6e3b63d1dcf66fea7aefc0211628cf298787878787875a6040516102d097969594939291906107c3565b60405180910390a17ff23a6e612e1ff4830e658fe43f4e3cb4a5f8170bd5d9e69fb5d7a7fa9e4fdf9790509695505050505050565b806001600084815260200190815260200160002054610324919061082d565b60016000848152602001908152602001600020819055505050565b600080fd5b600080fd5b6000819050919050565b61035c81610349565b811461036757600080fd5b50565b60008135905061037981610353565b92915050565b600073ffffffffffffffffffffffffffffffffffffffff82169050919050565b60006103aa8261037f565b9050919050565b6103ba8161039f565b81146103c557600080fd5b50565b6000813590506103d7816103b1565b92915050565b6000806000606084860312156103f6576103f561033f565b5b60006104048682870161036a565b93505060206104158682870161036a565b9250506040610426868287016103c8565b9150509250925092565b60008115159050919050565b61044581610430565b82525050565b6000602082019050610460600083018461043c565b92915050565b60006020828403121561047c5761047b61033f565b5b600061048a8482850161036a565b91505092915050565b61049c81610349565b82525050565b60006020820190506104b76000830184610493565b92915050565b6104c68161039f565b82525050565b60006020820190506104e160008301846104bd565b92915050565b600080fd5b600080fd5b600080fd5b60008083601f84011261050c5761050b6104e7565b5b8235905067ffffffffffffffff811115610529576105286104ec565b5b602083019150836001820283011115610545576105446104f1565b5b9250929050565b60008060008060008060a087890312156105695761056861033f565b5b600061057789828a016103c8565b965050602061058889828a016103c8565b955050604061059989828a0161036a565b94505060606105aa89828a0161036a565b935050608087013567ffffffffffffffff8111156105cb576105ca610344565b5b6105d789828a016104f6565b92509250509295509295509295565b60007fffffffff0000000000000000000000000000000000000000000000000000000082169050919050565b61061b816105e6565b82525050565b60006020820190506106366000830184610612565b92915050565b600082825260208201905092915050565b7f3078303000000000000000000000000000000000000000000000000000000000600082015250565b600061068360048361063c565b915061068e8261064d565b602082019050919050565b600060a0820190506106ae60008301876104bd565b6106bb60208301866104bd565b6106c86040830185610493565b6106d56060830184610493565b81810360808301526106e681610676565b905095945050505050565b7f4e487b7100000000000000000000000000000000000000000000000000000000600052601160045260246000fd5b600061072b82610349565b915061073683610349565b9250827fffffffffffffffffffffffffffffffffffffffffffffffffffffffffffffffff0382111561076b5761076a6106f1565b5b828201905092915050565b82818337600083830152505050565b6000601f19601f8301169050919050565b60006107a2838561063c565b93506107af838584610776565b6107b883610785565b840190509392505050565b600060c0820190506107d8600083018a6104bd565b6107e560208301896104bd565b6107f26040830188610493565b6107ff6060830187610493565b8181036080830152610812818587610796565b905061082160a0830184610493565b98975050505050505050565b600061083882610349565b915061084383610349565b925082821015610856576108556106f1565b5b82820390509291505056fea26469706673582212205b85cce8380c55d8aeea928d2300b009bd080ab5f5965be387e24f6c3db23a7664736f6c634300080a0033",
					"opcodes": "PUSH1 0x80 PUSH1 0x40 MSTORE CALLVALUE DUP1 ISZERO PUSH2 0x10 JUMPI PUSH1 0x0 DUP1 REVERT JUMPDEST POP PUSH2 0x897 DUP1 PUSH2 0x20 PUSH1 0x0 CODECOPY PUSH1 0x0 RETURN INVALID PUSH1 0x80 PUSH1 0x40 MSTORE PUSH1 0x4 CALLDATASIZE LT PUSH2 0x3F JUMPI PUSH1 0x0 CALLDATALOAD PUSH1 0xE0 SHR DUP1 PUSH4 0x1EDF85C EQ PUSH2 0x44 JUMPI DUP1 PUSH4 0x8B0D0258 EQ PUSH2 0x74 JUMPI DUP1 PUSH4 0xAACDFE6F EQ PUSH2 0xB1 JUMPI DUP1 PUSH4 0xF23A6E61 EQ PUSH2 0xEE JUMPI JUMPDEST PUSH1 0x0 DUP1 REVERT JUMPDEST PUSH2 0x5E PUSH1 0x4 DUP1 CALLDATASIZE SUB DUP2 ADD SWAP1 PUSH2 0x59 SWAP2 SWAP1 PUSH2 0x3DD JUMP JUMPDEST PUSH2 0x12B JUMP JUMPDEST PUSH1 0x40 MLOAD PUSH2 0x6B SWAP2 SWAP1 PUSH2 0x44B JUMP JUMPDEST PUSH1 0x40 MLOAD DUP1 SWAP2 SUB SWAP1 RETURN JUMPDEST CALLVALUE DUP1 ISZERO PUSH2 0x80 JUMPI PUSH1 0x0 DUP1 REVERT JUMPDEST POP PUSH2 0x9B PUSH1 0x4 DUP1 CALLDATASIZE SUB DUP2 ADD SWAP1 PUSH2 0x96 SWAP2 SWAP1 PUSH2 0x466 JUMP JUMPDEST PUSH2 0x1B3 JUMP JUMPDEST PUSH1 0x40 MLOAD PUSH2 0xA8 SWAP2 SWAP1 PUSH2 0x4A2 JUMP JUMPDEST PUSH1 0x40 MLOAD DUP1 SWAP2 SUB SWAP1 RETURN JUMPDEST CALLVALUE DUP1 ISZERO PUSH2 0xBD JUMPI PUSH1 0x0 DUP1 REVERT JUMPDEST POP PUSH2 0xD8 PUSH1 0x4 DUP1 CALLDATASIZE SUB DUP2 ADD SWAP1 PUSH2 0xD3 SWAP2 SWAP1 PUSH2 0x466 JUMP JUMPDEST PUSH2 0x1D0 JUMP JUMPDEST PUSH1 0x40 MLOAD PUSH2 0xE5 SWAP2 SWAP1 PUSH2 0x4CC JUMP JUMPDEST PUSH1 0x40 MLOAD DUP1 SWAP2 SUB SWAP1 RETURN JUMPDEST CALLVALUE DUP1 ISZERO PUSH2 0xFA JUMPI PUSH1 0x0 DUP1 REVERT JUMPDEST POP PUSH2 0x115 PUSH1 0x4 DUP1 CALLDATASIZE SUB DUP2 ADD SWAP1 PUSH2 0x110 SWAP2 SWAP1 PUSH2 0x54C JUMP JUMPDEST PUSH2 0x20C JUMP JUMPDEST PUSH1 0x40 MLOAD PUSH2 0x122 SWAP2 SWAP1 PUSH2 0x621 JUMP JUMPDEST PUSH1 0x40 MLOAD DUP1 SWAP2 SUB SWAP1 RETURN JUMPDEST PUSH1 0x0 DUP2 PUSH20 0xFFFFFFFFFFFFFFFFFFFFFFFFFFFFFFFFFFFFFFFF AND PUSH4 0xF242432A ADDRESS CALLER DUP8 DUP8 PUSH1 0x40 MLOAD DUP6 PUSH4 0xFFFFFFFF AND PUSH1 0xE0 SHL DUP2 MSTORE PUSH1 0x4 ADD PUSH2 0x16C SWAP5 SWAP4 SWAP3 SWAP2 SWAP1 PUSH2 0x699 JUMP JUMPDEST PUSH1 0x0 PUSH1 0x40 MLOAD DUP1 DUP4 SUB DUP2 PUSH1 0x0 DUP8 DUP1 EXTCODESIZE ISZERO DUP1 ISZERO PUSH2 0x186 JUMPI PUSH1 0x0 DUP1 REVERT JUMPDEST POP GAS CALL ISZERO DUP1 ISZERO PUSH2 0x19A JUMPI RETURNDATASIZE PUSH1 0x0 DUP1 RETURNDATACOPY RETURNDATASIZE PUSH1 0x0 REVERT JUMPDEST POP POP POP POP PUSH2 0x1A8 DUP5 DUP5 PUSH2 0x305 JUMP JUMPDEST PUSH1 0x1 SWAP1 POP SWAP4 SWAP3 POP POP POP JUMP JUMPDEST PUSH1 0x0 PUSH1 0x1 PUSH1 0x0 DUP4 DUP2 MSTORE PUSH1 0x20 ADD SWAP1 DUP2 MSTORE PUSH1 0x20 ADD PUSH1 0x0 KECCAK256 SLOAD SWAP1 POP SWAP2 SWAP1 POP JUMP JUMPDEST PUSH1 0x0 DUP1 PUSH1 0x0 DUP4 DUP2 MSTORE PUSH1 0x20 ADD SWAP1 DUP2 MSTORE PUSH1 0x20 ADD PUSH1 0x0 KECCAK256 PUSH1 0x0 SWAP1 SLOAD SWAP1 PUSH2 0x100 EXP SWAP1 DIV PUSH20 0xFFFFFFFFFFFFFFFFFFFFFFFFFFFFFFFFFFFFFFFF AND SWAP1 POP SWAP2 SWAP1 POP JUMP JUMPDEST PUSH1 0x0 DUP6 PUSH1 0x0 DUP1 DUP8 DUP2 MSTORE PUSH1 0x20 ADD SWAP1 DUP2 MSTORE PUSH1 0x20 ADD PUSH1 0x0 KECCAK256 PUSH1 0x0 PUSH2 0x100 EXP DUP2 SLOAD DUP2 PUSH20 0xFFFFFFFFFFFFFFFFFFFFFFFFFFFFFFFFFFFFFFFF MUL NOT AND SWAP1 DUP4 PUSH20 0xFFFFFFFFFFFFFFFFFFFFFFFFFFFFFFFFFFFFFFFF AND MUL OR SWAP1 SSTORE POP DUP4 PUSH1 0x1 PUSH1 0x0 DUP8 DUP2 MSTORE PUSH1 0x20 ADD SWAP1 DUP2 MSTORE PUSH1 0x20 ADD PUSH1 0x0 KECCAK256 SLOAD PUSH2 0x27E SWAP2 SWAP1 PUSH2 0x720 JUMP JUMPDEST PUSH1 0x1 PUSH1 0x0 DUP8 DUP2 MSTORE PUSH1 0x20 ADD SWAP1 DUP2 MSTORE PUSH1 0x20 ADD PUSH1 0x0 KECCAK256 DUP2 SWAP1 SSTORE POP PUSH32 0x20DFA9F79060C8C4D7FE892C97C71BCF6E3B63D1DCF66FEA7AEFC0211628CF29 DUP8 DUP8 DUP8 DUP8 DUP8 DUP8 GAS PUSH1 0x40 MLOAD PUSH2 0x2D0 SWAP8 SWAP7 SWAP6 SWAP5 SWAP4 SWAP3 SWAP2 SWAP1 PUSH2 0x7C3 JUMP JUMPDEST PUSH1 0x40 MLOAD DUP1 SWAP2 SUB SWAP1 LOG1 PUSH32 0xF23A6E612E1FF4830E658FE43F4E3CB4A5F8170BD5D9E69FB5D7A7FA9E4FDF97 SWAP1 POP SWAP7 SWAP6 POP POP POP POP POP POP JUMP JUMPDEST DUP1 PUSH1 0x1 PUSH1 0x0 DUP5 DUP2 MSTORE PUSH1 0x20 ADD SWAP1 DUP2 MSTORE PUSH1 0x20 ADD PUSH1 0x0 KECCAK256 SLOAD PUSH2 0x324 SWAP2 SWAP1 PUSH2 0x82D JUMP JUMPDEST PUSH1 0x1 PUSH1 0x0 DUP5 DUP2 MSTORE PUSH1 0x20 ADD SWAP1 DUP2 MSTORE PUSH1 0x20 ADD PUSH1 0x0 KECCAK256 DUP2 SWAP1 SSTORE POP POP POP JUMP JUMPDEST PUSH1 0x0 DUP1 REVERT JUMPDEST PUSH1 0x0 DUP1 REVERT JUMPDEST PUSH1 0x0 DUP2 SWAP1 POP SWAP2 SWAP1 POP JUMP JUMPDEST PUSH2 0x35C DUP2 PUSH2 0x349 JUMP JUMPDEST DUP2 EQ PUSH2 0x367 JUMPI PUSH1 0x0 DUP1 REVERT JUMPDEST POP JUMP JUMPDEST PUSH1 0x0 DUP2 CALLDATALOAD SWAP1 POP PUSH2 0x379 DUP2 PUSH2 0x353 JUMP JUMPDEST SWAP3 SWAP2 POP POP JUMP JUMPDEST PUSH1 0x0 PUSH20 0xFFFFFFFFFFFFFFFFFFFFFFFFFFFFFFFFFFFFFFFF DUP3 AND SWAP1 POP SWAP2 SWAP1 POP JUMP JUMPDEST PUSH1 0x0 PUSH2 0x3AA DUP3 PUSH2 0x37F JUMP JUMPDEST SWAP1 POP SWAP2 SWAP1 POP JUMP JUMPDEST PUSH2 0x3BA DUP2 PUSH2 0x39F JUMP JUMPDEST DUP2 EQ PUSH2 0x3C5 JUMPI PUSH1 0x0 DUP1 REVERT JUMPDEST POP JUMP JUMPDEST PUSH1 0x0 DUP2 CALLDATALOAD SWAP1 POP PUSH2 0x3D7 DUP2 PUSH2 0x3B1 JUMP JUMPDEST SWAP3 SWAP2 POP POP JUMP JUMPDEST PUSH1 0x0 DUP1 PUSH1 0x0 PUSH1 0x60 DUP5 DUP7 SUB SLT ISZERO PUSH2 0x3F6 JUMPI PUSH2 0x3F5 PUSH2 0x33F JUMP JUMPDEST JUMPDEST PUSH1 0x0 PUSH2 0x404 DUP7 DUP3 DUP8 ADD PUSH2 0x36A JUMP JUMPDEST SWAP4 POP POP PUSH1 0x20 PUSH2 0x415 DUP7 DUP3 DUP8 ADD PUSH2 0x36A JUMP JUMPDEST SWAP3 POP POP PUSH1 0x40 PUSH2 0x426 DUP7 DUP3 DUP8 ADD PUSH2 0x3C8 JUMP JUMPDEST SWAP2 POP POP SWAP3 POP SWAP3 POP SWAP3 JUMP JUMPDEST PUSH1 0x0 DUP2 ISZERO ISZERO SWAP1 POP SWAP2 SWAP1 POP JUMP JUMPDEST PUSH2 0x445 DUP2 PUSH2 0x430 JUMP JUMPDEST DUP3 MSTORE POP POP JUMP JUMPDEST PUSH1 0x0 PUSH1 0x20 DUP3 ADD SWAP1 POP PUSH2 0x460 PUSH1 0x0 DUP4 ADD DUP5 PUSH2 0x43C JUMP JUMPDEST SWAP3 SWAP2 POP POP JUMP JUMPDEST PUSH1 0x0 PUSH1 0x20 DUP3 DUP5 SUB SLT ISZERO PUSH2 0x47C JUMPI PUSH2 0x47B PUSH2 0x33F JUMP JUMPDEST JUMPDEST PUSH1 0x0 PUSH2 0x48A DUP5 DUP3 DUP6 ADD PUSH2 0x36A JUMP JUMPDEST SWAP2 POP POP SWAP3 SWAP2 POP POP JUMP JUMPDEST PUSH2 0x49C DUP2 PUSH2 0x349 JUMP JUMPDEST DUP3 MSTORE POP POP JUMP JUMPDEST PUSH1 0x0 PUSH1 0x20 DUP3 ADD SWAP1 POP PUSH2 0x4B7 PUSH1 0x0 DUP4 ADD DUP5 PUSH2 0x493 JUMP JUMPDEST SWAP3 SWAP2 POP POP JUMP JUMPDEST PUSH2 0x4C6 DUP2 PUSH2 0x39F JUMP JUMPDEST DUP3 MSTORE POP POP JUMP JUMPDEST PUSH1 0x0 PUSH1 0x20 DUP3 ADD SWAP1 POP PUSH2 0x4E1 PUSH1 0x0 DUP4 ADD DUP5 PUSH2 0x4BD JUMP JUMPDEST SWAP3 SWAP2 POP POP JUMP JUMPDEST PUSH1 0x0 DUP1 REVERT JUMPDEST PUSH1 0x0 DUP1 REVERT JUMPDEST PUSH1 0x0 DUP1 REVERT JUMPDEST PUSH1 0x0 DUP1 DUP4 PUSH1 0x1F DUP5 ADD SLT PUSH2 0x50C JUMPI PUSH2 0x50B PUSH2 0x4E7 JUMP JUMPDEST JUMPDEST DUP3 CALLDATALOAD SWAP1 POP PUSH8 0xFFFFFFFFFFFFFFFF DUP2 GT ISZERO PUSH2 0x529 JUMPI PUSH2 0x528 PUSH2 0x4EC JUMP JUMPDEST JUMPDEST PUSH1 0x20 DUP4 ADD SWAP2 POP DUP4 PUSH1 0x1 DUP3 MUL DUP4 ADD GT ISZERO PUSH2 0x545 JUMPI PUSH2 0x544 PUSH2 0x4F1 JUMP JUMPDEST JUMPDEST SWAP3 POP SWAP3 SWAP1 POP JUMP JUMPDEST PUSH1 0x0 DUP1 PUSH1 0x0 DUP1 PUSH1 0x0 DUP1 PUSH1 0xA0 DUP8 DUP10 SUB SLT ISZERO PUSH2 0x569 JUMPI PUSH2 0x568 PUSH2 0x33F JUMP JUMPDEST JUMPDEST PUSH1 0x0 PUSH2 0x577 DUP10 DUP3 DUP11 ADD PUSH2 0x3C8 JUMP JUMPDEST SWAP7 POP POP PUSH1 0x20 PUSH2 0x588 DUP10 DUP3 DUP11 ADD PUSH2 0x3C8 JUMP JUMPDEST SWAP6 POP POP PUSH1 0x40 PUSH2 0x599 DUP10 DUP3 DUP11 ADD PUSH2 0x36A JUMP JUMPDEST SWAP5 POP POP PUSH1 0x60 PUSH2 0x5AA DUP10 DUP3 DUP11 ADD PUSH2 0x36A JUMP JUMPDEST SWAP4 POP POP PUSH1 0x80 DUP8 ADD CALLDATALOAD PUSH8 0xFFFFFFFFFFFFFFFF DUP2 GT ISZERO PUSH2 0x5CB JUMPI PUSH2 0x5CA PUSH2 0x344 JUMP JUMPDEST JUMPDEST PUSH2 0x5D7 DUP10 DUP3 DUP11 ADD PUSH2 0x4F6 JUMP JUMPDEST SWAP3 POP SWAP3 POP POP SWAP3 SWAP6 POP SWAP3 SWAP6 POP SWAP3 SWAP6 JUMP JUMPDEST PUSH1 0x0 PUSH32 0xFFFFFFFF00000000000000000000000000000000000000000000000000000000 DUP3 AND SWAP1 POP SWAP2 SWAP1 POP JUMP JUMPDEST PUSH2 0x61B DUP2 PUSH2 0x5E6 JUMP JUMPDEST DUP3 MSTORE POP POP JUMP JUMPDEST PUSH1 0x0 PUSH1 0x20 DUP3 ADD SWAP1 POP PUSH2 0x636 PUSH1 0x0 DUP4 ADD DUP5 PUSH2 0x612 JUMP JUMPDEST SWAP3 SWAP2 POP POP JUMP JUMPDEST PUSH1 0x0 DUP3 DUP3 MSTORE PUSH1 0x20 DUP3 ADD SWAP1 POP SWAP3 SWAP2 POP POP JUMP JUMPDEST PUSH32 0x3078303000000000000000000000000000000000000000000000000000000000 PUSH1 0x0 DUP3 ADD MSTORE POP JUMP JUMPDEST PUSH1 0x0 PUSH2 0x683 PUSH1 0x4 DUP4 PUSH2 0x63C JUMP JUMPDEST SWAP2 POP PUSH2 0x68E DUP3 PUSH2 0x64D JUMP JUMPDEST PUSH1 0x20 DUP3 ADD SWAP1 POP SWAP2 SWAP1 POP JUMP JUMPDEST PUSH1 0x0 PUSH1 0xA0 DUP3 ADD SWAP1 POP PUSH2 0x6AE PUSH1 0x0 DUP4 ADD DUP8 PUSH2 0x4BD JUMP JUMPDEST PUSH2 0x6BB PUSH1 0x20 DUP4 ADD DUP7 PUSH2 0x4BD JUMP JUMPDEST PUSH2 0x6C8 PUSH1 0x40 DUP4 ADD DUP6 PUSH2 0x493 JUMP JUMPDEST PUSH2 0x6D5 PUSH1 0x60 DUP4 ADD DUP5 PUSH2 0x493 JUMP JUMPDEST DUP2 DUP2 SUB PUSH1 0x80 DUP4 ADD MSTORE PUSH2 0x6E6 DUP2 PUSH2 0x676 JUMP JUMPDEST SWAP1 POP SWAP6 SWAP5 POP POP POP POP POP JUMP JUMPDEST PUSH32 0x4E487B7100000000000000000000000000000000000000000000000000000000 PUSH1 0x0 MSTORE PUSH1 0x11 PUSH1 0x4 MSTORE PUSH1 0x24 PUSH1 0x0 REVERT JUMPDEST PUSH1 0x0 PUSH2 0x72B DUP3 PUSH2 0x349 JUMP JUMPDEST SWAP2 POP PUSH2 0x736 DUP4 PUSH2 0x349 JUMP JUMPDEST SWAP3 POP DUP3 PUSH32 0xFFFFFFFFFFFFFFFFFFFFFFFFFFFFFFFFFFFFFFFFFFFFFFFFFFFFFFFFFFFFFFFF SUB DUP3 GT ISZERO PUSH2 0x76B JUMPI PUSH2 0x76A PUSH2 0x6F1 JUMP JUMPDEST JUMPDEST DUP3 DUP3 ADD SWAP1 POP SWAP3 SWAP2 POP POP JUMP JUMPDEST DUP3 DUP2 DUP4 CALLDATACOPY PUSH1 0x0 DUP4 DUP4 ADD MSTORE POP POP POP JUMP JUMPDEST PUSH1 0x0 PUSH1 0x1F NOT PUSH1 0x1F DUP4 ADD AND SWAP1 POP SWAP2 SWAP1 POP JUMP JUMPDEST PUSH1 0x0 PUSH2 0x7A2 DUP4 DUP6 PUSH2 0x63C JUMP JUMPDEST SWAP4 POP PUSH2 0x7AF DUP4 DUP6 DUP5 PUSH2 0x776 JUMP JUMPDEST PUSH2 0x7B8 DUP4 PUSH2 0x785 JUMP JUMPDEST DUP5 ADD SWAP1 POP SWAP4 SWAP3 POP POP POP JUMP JUMPDEST PUSH1 0x0 PUSH1 0xC0 DUP3 ADD SWAP1 POP PUSH2 0x7D8 PUSH1 0x0 DUP4 ADD DUP11 PUSH2 0x4BD JUMP JUMPDEST PUSH2 0x7E5 PUSH1 0x20 DUP4 ADD DUP10 PUSH2 0x4BD JUMP JUMPDEST PUSH2 0x7F2 PUSH1 0x40 DUP4 ADD DUP9 PUSH2 0x493 JUMP JUMPDEST PUSH2 0x7FF PUSH1 0x60 DUP4 ADD DUP8 PUSH2 0x493 JUMP JUMPDEST DUP2 DUP2 SUB PUSH1 0x80 DUP4 ADD MSTORE PUSH2 0x812 DUP2 DUP6 DUP8 PUSH2 0x796 JUMP JUMPDEST SWAP1 POP PUSH2 0x821 PUSH1 0xA0 DUP4 ADD DUP5 PUSH2 0x493 JUMP JUMPDEST SWAP9 SWAP8 POP POP POP POP POP POP POP POP JUMP JUMPDEST PUSH1 0x0 PUSH2 0x838 DUP3 PUSH2 0x349 JUMP JUMPDEST SWAP2 POP PUSH2 0x843 DUP4 PUSH2 0x349 JUMP JUMPDEST SWAP3 POP DUP3 DUP3 LT ISZERO PUSH2 0x856 JUMPI PUSH2 0x855 PUSH2 0x6F1 JUMP JUMPDEST JUMPDEST DUP3 DUP3 SUB SWAP1 POP SWAP3 SWAP2 POP POP JUMP INVALID LOG2 PUSH5 0x6970667358 0x22 SLT KECCAK256 JUMPDEST DUP6 0xCC 0xE8 CODESIZE 0xC SSTORE 0xD8 0xAE 0xEA SWAP3 DUP14 0x23 STOP 0xB0 MULMOD 0xBD ADDMOD EXP 0xB5 CREATE2 SWAP7 JUMPDEST 0xE3 DUP8 0xE2 0x4F PUSH13 0x3DB23A7664736F6C634300080A STOP CALLER "
				},
				"gasEstimates": {
					"creation": {
						"codeDepositCost": "439800",
						"executionCost": "474",
						"totalCost": "440274"
					},
					"external": {
						"amount(uint256)": "infinite",
						"buyCoupon(uint256,uint256,address)": "infinite",
						"onERC1155Received(address,address,uint256,uint256,bytes)": "infinite",
						"seller(uint256)": "2887"
					},
					"internal": {
						"_reduceAmount(uint256,uint256)": "infinite"
					}
				},
				"methodIdentifiers": {
					"amount(uint256)": "8b0d0258",
					"buyCoupon(uint256,uint256,address)": "01edf85c",
					"onERC1155Received(address,address,uint256,uint256,bytes)": "f23a6e61",
					"seller(uint256)": "aacdfe6f"
				}
			},
			"storageLayout": {
				"storage": [
					{
						"astId": 28,
						"contract": "contracts/CouponMarket.sol:CouponMarket",
						"label": "_seller",
						"offset": 0,
						"slot": "0",
						"type": "t_mapping(t_uint256,t_address)"
					},
					{
						"astId": 32,
						"contract": "contracts/CouponMarket.sol:CouponMarket",
						"label": "_amount",
						"offset": 0,
						"slot": "1",
						"type": "t_mapping(t_uint256,t_uint256)"
					}
				],
				"types": {
					"t_address": {
						"encoding": "inplace",
						"label": "address",
						"numberOfBytes": "20"
					},
					"t_mapping(t_uint256,t_address)": {
						"encoding": "mapping",
						"key": "t_uint256",
						"label": "mapping(uint256 => address)",
						"numberOfBytes": "32",
						"value": "t_address"
					},
					"t_mapping(t_uint256,t_uint256)": {
						"encoding": "mapping",
						"key": "t_uint256",
						"label": "mapping(uint256 => uint256)",
						"numberOfBytes": "32",
						"value": "t_uint256"
					},
					"t_uint256": {
						"encoding": "inplace",
						"label": "uint256",
						"numberOfBytes": "32"
					}
				}
			},
			"userdoc": {
				"kind": "user",
				"methods": {},
				"version": 1
			}
		}
	}
}